{
  "_format": "hh-sol-artifact-1",
  "contractName": "TokenFactory",
  "sourceName": "contracts/launch/TokenFactory.sol",
  "abi": [
    {
      "inputs": [
        {
          "internalType": "address",
          "name": "vestingImplementation_",
          "type": "address"
        }
      ],
      "stateMutability": "nonpayable",
      "type": "constructor"
    },
    {
      "inputs": [],
      "name": "FailedDeployment",
      "type": "error"
    },
    {
      "inputs": [
        {
          "internalType": "uint256",
          "name": "balance",
          "type": "uint256"
        },
        {
          "internalType": "uint256",
          "name": "needed",
          "type": "uint256"
        }
      ],
      "name": "InsufficientBalance",
      "type": "error"
    },
    {
      "inputs": [],
      "name": "ReentrancyGuardReentrantCall",
      "type": "error"
    },
    {
      "inputs": [
        {
          "internalType": "address",
          "name": "token",
          "type": "address"
        }
      ],
      "name": "SafeERC20FailedOperation",
      "type": "error"
    },
    {
      "anonymous": false,
      "inputs": [
        {
          "indexed": false,
          "internalType": "uint256",
          "name": "oldBasicFeeWei",
          "type": "uint256"
        },
        {
          "indexed": false,
          "internalType": "uint256",
          "name": "oldDistributionFeeWei",
          "type": "uint256"
        },
        {
          "indexed": false,
          "internalType": "uint256",
          "name": "oldVestingFeeWei",
          "type": "uint256"
        },
        {
          "indexed": false,
          "internalType": "uint256",
          "name": "newBasicFeeWei",
          "type": "uint256"
        },
        {
          "indexed": false,
          "internalType": "uint256",
          "name": "newDistributionFeeWei",
          "type": "uint256"
        },
        {
          "indexed": false,
          "internalType": "uint256",
          "name": "newVestingFeeWei",
          "type": "uint256"
        }
      ],
      "name": "FeesUpdated",
      "type": "event"
    },
    {
      "anonymous": false,
      "inputs": [
        {
          "indexed": true,
          "internalType": "address",
          "name": "to",
          "type": "address"
        },
        {
          "indexed": false,
          "internalType": "uint256",
          "name": "amountWei",
          "type": "uint256"
        }
      ],
      "name": "FeesWithdrawn",
      "type": "event"
    },
    {
      "anonymous": false,
      "inputs": [
        {
          "indexed": true,
          "internalType": "address",
          "name": "previousOwner",
          "type": "address"
        },
        {
          "indexed": true,
          "internalType": "address",
          "name": "newOwner",
          "type": "address"
        }
      ],
      "name": "OwnershipTransferred",
      "type": "event"
    },
    {
      "anonymous": false,
      "inputs": [
        {
          "indexed": true,
          "internalType": "address",
          "name": "creator",
          "type": "address"
        },
        {
          "indexed": true,
          "internalType": "address",
          "name": "token",
          "type": "address"
        }
      ],
      "name": "TokenCreated",
      "type": "event"
    },
    {
      "anonymous": false,
      "inputs": [
        {
          "indexed": true,
          "internalType": "address",
          "name": "token",
          "type": "address"
        },
        {
          "indexed": true,
          "internalType": "address",
          "name": "to",
          "type": "address"
        },
        {
          "indexed": false,
          "internalType": "uint256",
          "name": "amount",
          "type": "uint256"
        }
      ],
      "name": "TokenDistributed",
      "type": "event"
    },
    {
      "anonymous": false,
      "inputs": [
        {
          "indexed": true,
          "internalType": "address",
          "name": "token",
          "type": "address"
        },
        {
          "indexed": true,
          "internalType": "address",
          "name": "vault",
          "type": "address"
        },
        {
          "indexed": true,
          "internalType": "address",
          "name": "beneficiary",
          "type": "address"
        },
        {
          "indexed": false,
          "internalType": "uint256",
          "name": "amount",
          "type": "uint256"
        }
      ],
      "name": "VestingCreated",
      "type": "event"
    },
    {
      "inputs": [],
      "name": "basicFeeWei",
      "outputs": [
        {
          "internalType": "uint256",
          "name": "",
          "type": "uint256"
        }
      ],
      "stateMutability": "view",
      "type": "function"
    },
    {
      "inputs": [
        {
          "components": [
            {
              "internalType": "string",
              "name": "name",
              "type": "string"
            },
            {
              "internalType": "string",
              "name": "symbol",
              "type": "string"
            },
            {
              "internalType": "uint256",
              "name": "totalSupplyRaw",
              "type": "uint256"
            },
            {
              "internalType": "address",
              "name": "marketingWallet",
              "type": "address"
            },
            {
              "components": [
                {
                  "internalType": "uint16",
                  "name": "buyMarketingBps",
                  "type": "uint16"
                },
                {
                  "internalType": "uint16",
                  "name": "buyLiquidityBps",
                  "type": "uint16"
                },
                {
                  "internalType": "uint16",
                  "name": "buyBurnBps",
                  "type": "uint16"
                },
                {
                  "internalType": "uint16",
                  "name": "sellMarketingBps",
                  "type": "uint16"
                },
                {
                  "internalType": "uint16",
                  "name": "sellLiquidityBps",
                  "type": "uint16"
                },
                {
                  "internalType": "uint16",
                  "name": "sellBurnBps",
                  "type": "uint16"
                }
              ],
              "internalType": "struct TokenFactory.Fees",
              "name": "fees",
              "type": "tuple"
            },
            {
              "components": [
                {
                  "internalType": "uint256",
                  "name": "maxGasPriceWei",
                  "type": "uint256"
                },
                {
                  "internalType": "uint256",
                  "name": "deadBlocks",
                  "type": "uint256"
                },
                {
                  "internalType": "bool",
                  "name": "revertEarlyBuys",
                  "type": "bool"
                },
                {
                  "internalType": "uint256",
                  "name": "maxTxAmount",
                  "type": "uint256"
                },
                {
                  "internalType": "uint256",
                  "name": "maxWalletAmount",
                  "type": "uint256"
                }
              ],
              "internalType": "struct TokenFactory.Limits",
              "name": "limits",
              "type": "tuple"
            }
          ],
          "internalType": "struct TokenFactory.TokenConfig",
          "name": "cfg",
          "type": "tuple"
        }
      ],
      "name": "createToken",
      "outputs": [
        {
          "internalType": "address",
          "name": "tokenAddr",
          "type": "address"
        }
      ],
      "stateMutability": "payable",
      "type": "function"
    },
    {
      "inputs": [
        {
          "components": [
            {
              "internalType": "string",
              "name": "name",
              "type": "string"
            },
            {
              "internalType": "string",
              "name": "symbol",
              "type": "string"
            },
            {
              "internalType": "uint256",
              "name": "totalSupplyRaw",
              "type": "uint256"
            },
            {
              "internalType": "address",
              "name": "marketingWallet",
              "type": "address"
            },
            {
              "components": [
                {
                  "internalType": "uint16",
                  "name": "buyMarketingBps",
                  "type": "uint16"
                },
                {
                  "internalType": "uint16",
                  "name": "buyLiquidityBps",
                  "type": "uint16"
                },
                {
                  "internalType": "uint16",
                  "name": "buyBurnBps",
                  "type": "uint16"
                },
                {
                  "internalType": "uint16",
                  "name": "sellMarketingBps",
                  "type": "uint16"
                },
                {
                  "internalType": "uint16",
                  "name": "sellLiquidityBps",
                  "type": "uint16"
                },
                {
                  "internalType": "uint16",
                  "name": "sellBurnBps",
                  "type": "uint16"
                }
              ],
              "internalType": "struct TokenFactory.Fees",
              "name": "fees",
              "type": "tuple"
            },
            {
              "components": [
                {
                  "internalType": "uint256",
                  "name": "maxGasPriceWei",
                  "type": "uint256"
                },
                {
                  "internalType": "uint256",
                  "name": "deadBlocks",
                  "type": "uint256"
                },
                {
                  "internalType": "bool",
                  "name": "revertEarlyBuys",
                  "type": "bool"
                },
                {
                  "internalType": "uint256",
                  "name": "maxTxAmount",
                  "type": "uint256"
                },
                {
                  "internalType": "uint256",
                  "name": "maxWalletAmount",
                  "type": "uint256"
                }
              ],
              "internalType": "struct TokenFactory.Limits",
              "name": "limits",
              "type": "tuple"
            }
          ],
          "internalType": "struct TokenFactory.TokenConfig",
          "name": "cfg",
          "type": "tuple"
        },
        {
          "internalType": "address[]",
          "name": "recipients",
          "type": "address[]"
        },
        {
          "internalType": "uint256[]",
          "name": "amounts",
          "type": "uint256[]"
        }
      ],
      "name": "createTokenWithDistribution",
      "outputs": [
        {
          "internalType": "address",
          "name": "tokenAddr",
          "type": "address"
        }
      ],
      "stateMutability": "payable",
      "type": "function"
    },
    {
      "inputs": [
        {
          "components": [
            {
              "internalType": "string",
              "name": "name",
              "type": "string"
            },
            {
              "internalType": "string",
              "name": "symbol",
              "type": "string"
            },
            {
              "internalType": "uint256",
              "name": "totalSupplyRaw",
              "type": "uint256"
            },
            {
              "internalType": "address",
              "name": "marketingWallet",
              "type": "address"
            },
            {
              "components": [
                {
                  "internalType": "uint16",
                  "name": "buyMarketingBps",
                  "type": "uint16"
                },
                {
                  "internalType": "uint16",
                  "name": "buyLiquidityBps",
                  "type": "uint16"
                },
                {
                  "internalType": "uint16",
                  "name": "buyBurnBps",
                  "type": "uint16"
                },
                {
                  "internalType": "uint16",
                  "name": "sellMarketingBps",
                  "type": "uint16"
                },
                {
                  "internalType": "uint16",
                  "name": "sellLiquidityBps",
                  "type": "uint16"
                },
                {
                  "internalType": "uint16",
                  "name": "sellBurnBps",
                  "type": "uint16"
                }
              ],
              "internalType": "struct TokenFactory.Fees",
              "name": "fees",
              "type": "tuple"
            },
            {
              "components": [
                {
                  "internalType": "uint256",
                  "name": "maxGasPriceWei",
                  "type": "uint256"
                },
                {
                  "internalType": "uint256",
                  "name": "deadBlocks",
                  "type": "uint256"
                },
                {
                  "internalType": "bool",
                  "name": "revertEarlyBuys",
                  "type": "bool"
                },
                {
                  "internalType": "uint256",
                  "name": "maxTxAmount",
                  "type": "uint256"
                },
                {
                  "internalType": "uint256",
                  "name": "maxWalletAmount",
                  "type": "uint256"
                }
              ],
              "internalType": "struct TokenFactory.Limits",
              "name": "limits",
              "type": "tuple"
            }
          ],
          "internalType": "struct TokenFactory.TokenConfig",
          "name": "cfg",
          "type": "tuple"
        },
        {
          "internalType": "address[]",
          "name": "recipients",
          "type": "address[]"
        },
        {
          "internalType": "uint256[]",
          "name": "amounts",
          "type": "uint256[]"
        },
        {
          "components": [
            {
              "internalType": "address",
              "name": "beneficiary",
              "type": "address"
            },
            {
              "internalType": "uint64",
              "name": "start",
              "type": "uint64"
            },
            {
              "internalType": "uint64",
              "name": "cliffSeconds",
              "type": "uint64"
            },
            {
              "internalType": "uint64",
              "name": "durationSeconds",
              "type": "uint64"
            },
            {
              "internalType": "uint256",
              "name": "amount",
              "type": "uint256"
            }
          ],
          "internalType": "struct TokenFactory.Vesting[]",
          "name": "vestings",
          "type": "tuple[]"
        }
      ],
      "name": "createTokenWithDistributionAndVesting",
      "outputs": [
        {
          "internalType": "address",
          "name": "tokenAddr",
          "type": "address"
        }
      ],
      "stateMutability": "payable",
      "type": "function"
    },
    {
      "inputs": [],
      "name": "distributionFeeWei",
      "outputs": [
        {
          "internalType": "uint256",
          "name": "",
          "type": "uint256"
        }
      ],
      "stateMutability": "view",
      "type": "function"
    },
    {
      "inputs": [],
      "name": "owner",
      "outputs": [
        {
          "internalType": "address",
          "name": "",
          "type": "address"
        }
      ],
      "stateMutability": "view",
      "type": "function"
    },
    {
      "inputs": [
        {
          "internalType": "uint256",
          "name": "newBasicFeeWei",
          "type": "uint256"
        },
        {
          "internalType": "uint256",
          "name": "newDistributionFeeWei",
          "type": "uint256"
        },
        {
          "internalType": "uint256",
          "name": "newVestingFeeWei",
          "type": "uint256"
        }
      ],
      "name": "setFeesWei",
      "outputs": [],
      "stateMutability": "nonpayable",
      "type": "function"
    },
    {
      "inputs": [
        {
          "internalType": "address",
          "name": "newOwner",
          "type": "address"
        }
      ],
      "name": "transferOwnership",
      "outputs": [],
      "stateMutability": "nonpayable",
      "type": "function"
    },
    {
      "inputs": [],
      "name": "vestingFeeWei",
      "outputs": [
        {
          "internalType": "uint256",
          "name": "",
          "type": "uint256"
        }
      ],
      "stateMutability": "view",
      "type": "function"
    },
    {
      "inputs": [],
      "name": "vestingImplementation",
      "outputs": [
        {
          "internalType": "address",
          "name": "",
          "type": "address"
        }
      ],
      "stateMutability": "view",
      "type": "function"
    },
    {
      "inputs": [
        {
          "internalType": "address payable",
          "name": "to",
          "type": "address"
        },
        {
          "internalType": "uint256",
          "name": "amountWei",
          "type": "uint256"
        }
      ],
      "name": "withdrawFees",
      "outputs": [],
      "stateMutability": "nonpayable",
      "type": "function"
    }
  ],
  "bytecode": "0x60a03461010d57601f61285638819003918201601f19168301916001600160401b038311848410176101125780849260209460405283398101031261010d57516001600160a01b03811680820361010d576001600055156100d857608052600180546001600160a01b031916339081179091556040519060007f8be0079c531659141344cd1fd0a4f28419497f9722a3daafe3b4186f6b6457e08180a3655af3107a400060025566038d7ea4c680006003556611c37937e0800060045561272d908161012982396080518181816107390152610a3a0152f35b60405162461bcd60e51b815260206004820152600d60248201526c076657374696e67496d706c3d3609c1b6044820152606490fd5b600080fd5b634e487b7160e01b600052604160045260246000fdfe60808060405260043610156200001457600080fd5b60003560e01c908163308cc33d1462000e3e575080633cb3516514620008f55780633db315ba14620007885780637904673214620007685780638882a2f614620007215780638da5cb5b14620006f6578063ad3b1b47146200055a578063b93c95f31462000402578063c48b374d14620003e2578063d9a3c82114620001535763f2fde38b14620000a457600080fd5b346200014e5760203660031901126200014e576004356001600160a01b03818116918290036200014e5760015490811690620000e282331462000e8e565b82156200011f576001600160a01b03191682176001557f8be0079c531659141344cd1fd0a4f28419497f9722a3daafe3b4186f6b6457e0600080a3005b60405162461bcd60e51b815260206004820152600760248201526606f776e65723d360cc1b6044820152606490fd5b600080fd5b6003196060368201126200014e57600435906001600160401b03908183116200014e576101e09083360301126200014e576024358181116200014e576200019f90369060040162000e5b565b92906044359283116200014e57620001c0620001fa93369060040162000e5b565b939092620001d060035462000fcf565b620001f0858588866044860135620001ea81151562000efd565b6200134f565b50600401620010b8565b94909360005b82811062000347576040516370a0823160e01b81523060048201526020906001600160a01b03908990828a16908481602481855afa908115620002c65760009162000314575b5080620002d2575b50803b156200014e576000809160246040518094819363f2fde38b60e01b83523360048401525af18015620002c657620002b4575b50166040519080337fd5f9bdf12adf29dab0248c349842c3822d53ae2bb4f36352f301630d018c8139600080a38152f35b620002bf9062000ec7565b8362000283565b6040513d6000823e3d90fd5b838316620002e282338362000f35565b6040519182527f67226bacccef969dab310a9e55dc1cf821363658e433fd330344f5cc00c79ac8863393a3846200024e565b90508481813d83116200033f575b6200032e818362000edb565b810103126200014e57518562000246565b503d62000322565b8062000359620003d5928488620012d5565b358015620003db576001600160a01b03808a16907f67226bacccef969dab310a9e55dc1cf821363658e433fd330344f5cc00c79ac890602090620003b585620003ae620003a8898d8f620012d5565b6200104d565b8662000f35565b620003c6620003a8878b8d620012d5565b1693604051908152a3620012c5565b62000200565b50620012c5565b346200014e5760003660031901126200014e576020600454604051908152f35b602060031981813601126200014e57600435906001600160401b0382116200014e576101e09082360301126200014e576200045e906200044460025462000fcf565b620004556044820135151562000efd565b600401620010b8565b6001600160a01b03918216803b156200014e5760405163f2fde38b60e01b81523360048201529060008260248183855af1908115620002c657602492869262000548575b506040516370a0823160e01b815230600482015292839182905afa908115620002c65760009162000515575b5080620005065750166040519080337fd5f9bdf12adf29dab0248c349842c3822d53ae2bb4f36352f301630d018c8139600080a38152f35b620002bf903384841662000f35565b90508381813d831162000540575b6200052f818362000edb565b810103126200014e575184620004ce565b503d62000523565b620005539062000ec7565b86620004a2565b346200014e5760403660031901126200014e576004356001600160a01b03818116918281036200014e57602435908260015416906200059b82331462000e8e565b600260005414620006e45760026000559315620006db575b5080620006d4575047905b4782116200069857600080809381938616807fc0819c13be868895eb93e40eaceb96de976442fa1d404e5c55f14bb65a8c489a6020604051858152a25af13d1562000692573d6001600160401b0381116200067c57604051906200062d601f8201601f19166020018362000edb565b8152600060203d92013e5b1562000645576001600055005b60405162461bcd60e51b815260206004820152600f60248201526e1dda5d1a191c985dc819985a5b1959608a1b6044820152606490fd5b634e487b7160e01b600052604160045260246000fd5b62000638565b60405162461bcd60e51b8152602060048201526014602482015273696e73756666696369656e742062616c616e636560601b6044820152606490fd5b90620005be565b925083620005b3565b604051633ee5aeb560e01b8152600490fd5b346200014e5760003660031901126200014e576001546040516001600160a01b039091168152602090f35b346200014e5760003660031901126200014e576040517f00000000000000000000000000000000000000000000000000000000000000006001600160a01b03168152602090f35b346200014e5760003660031901126200014e576020600354604051908152f35b346200014e5760603660031901126200014e5760043560243560443591620007bc60018060a01b0360015416331462000e8e565b670de0b6b3a7640000808211620008bb57808311620008765783116200083a577f2e494fbb5d1bda2269c90d7124ba22ca99044b61d2a920ece35a1a1726ff0c379260c0926002549260035460045490826002558360035584600455604051958652602086015260408501526060840152608083015260a0820152a1005b60405162461bcd60e51b81526020600482015260146024820152730eccae6e8d2dcce40cccaca40e8dede40d0d2ced60631b6044820152606490fd5b60405162461bcd60e51b815260206004820152601960248201527f646973747269627574696f6e2066656520746f6f2068696768000000000000006044820152606490fd5b60405162461bcd60e51b81526020600482015260126024820152710c4c2e6d2c640cccaca40e8dede40d0d2ced60731b6044820152606490fd5b6003196080368201126200014e576001600160401b03600435116200014e576101e090600435360301126200014e576024356001600160401b0381116200014e576200094690369060040162000e5b565b906044356001600160401b0381116200014e576200096990369060040162000e5b565b9190606435916001600160401b0383116200014e57366023840112156200014e576001600160401b038360040135116200014e5736602460a0856004013502850101116200014e57620009be60045462000fcf565b620009d160446004350135151562000efd565b620009e684838784604460043501356200134f565b603284600401351162000e05576000905b8460040135821062000d405762000a1891506044600435013510156200130a565b62000a28600435600401620010b8565b95909460005b82811062000cd95787877f00000000000000000000000000000000000000000000000000000000000000008860005b8160040135811062000b145750506040516370a0823160e01b81523060048201526020936001600160a01b03939092508316908481602481855afa908115620002c65760009162000314575080620002d25750803b156200014e576000809160246040518094819363f2fde38b60e01b83523360048401525af18015620002c657620002b45750166040519080337fd5f9bdf12adf29dab0248c349842c3822d53ae2bb4f36352f301630d018c8139600080a38152f35b62000b28818360040135602485016200149d565b90763d602d80600a3d3981f3363d3d373d3d3d363d7300000062ffffff8560881c16176000526e5af43d82803e903d91602b57fd5bf38460781b17602052603760096000f06001600160a01b0381161562000cc75762000b88836200104d565b9262000b9760208201620014ae565b9362000ba660408301620014ae565b9462000bb560608401620014ae565b906001600160a01b0385163b156200014e5760405163c5fa3da360e01b81526001600160a01b03808d16600483015293841660248201526001600160401b0391821660448201529681166064880152166084860152608082013560a4860152600090859060c4908290849087165af1938415620002c65762000caf9462000cb5575b5062000c526080820135836001600160a01b038b1662000f35565b6001600160a01b0362000c65826200104d565b60405160809390930135835216916001600160a01b0390811691908916907f1b138257231d2c00719335bc377b9c84f462339563b691e1dab140fbef52b41e90602090a4620012c5565b62000a5d565b62000cc09062000ec7565b8862000c37565b60405163b06ebf3d60e01b8152600490fd5b8062000ceb62000d3a928488620012d5565b358015620003db576001600160a01b03808b16907f67226bacccef969dab310a9e55dc1cf821363658e433fd330344f5cc00c79ac890602090620003b585620003ae620003a8898d8f620012d5565b62000a2e565b62000d54828660040135602488016200149d565b6001600160a01b0362000d67826200104d565b161562000dd0576080013590811562000d985762000d919162000d8a91620012fc565b91620012c5565b90620009f7565b60405162461bcd60e51b815260206004820152601060248201526f076657374696e6720616d6f756e743d360841b6044820152606490fd5b60405162461bcd60e51b815260206004820152600d60248201526c062656e65666963696172793d3609c1b6044820152606490fd5b60405162461bcd60e51b8152602060048201526011602482015270746f6f206d616e792076657374696e677360781b6044820152606490fd5b346200014e5760003660031901126200014e576020906002548152f35b9181601f840112156200014e578235916001600160401b0383116200014e576020808501948460051b0101116200014e57565b1562000e9657565b60405162461bcd60e51b81526020600482015260096024820152683737ba1037bbb732b960b91b6044820152606490fd5b6001600160401b0381116200067c57604052565b90601f801991011681019081106001600160401b038211176200067c57604052565b1562000f0557565b60405162461bcd60e51b81526020600482015260086024820152670737570706c793d360c41b6044820152606490fd5b60405163a9059cbb60e01b602082019081526001600160a01b039384166024830152604480830195909552938152909260808201906001600160401b038211838310176200067c57602092600092604052519082865af115620002c6576000513d62000fc557508082163b155b62000fab575050565b604051635274afe760e01b81529116600482015260249150fd5b6001141562000fa2565b806200101557503462000fde57565b60405162461bcd60e51b815260206004820152600f60248201526e1b9bc8199959481c995c5d5a5c9959608a1b6044820152606490fd5b34036200101e57565b60405162461bcd60e51b81526020600482015260076024820152666261642066656560c81b6044820152606490fd5b356001600160a01b03811681036200014e5790565b903590601e19813603018212156200014e57018035906001600160401b0382116200014e576020019181360383136200014e57565b908060209392818452848401376000828201840152601f01601f1916010190565b90620010f2620010e4620010cf6080850162001288565b620010dd60a0860162001288565b9062001298565b620010dd60c0850162001288565b62001126620011176200110860e0860162001288565b620010dd610100870162001288565b620010dd610120860162001288565b6107d09161ffff908116918383116200125357169182116200121d576001600160a01b039360608101856200115b826200104d565b161562001214576200116d906200104d565b925b6200117b828062001062565b6200118d602085969396018562001062565b9290956040519761123491828a01948a86106001600160401b038711176200067c578a9960c097620011df8f9694620011ed946040968f620014c49039308b5260e060208c015260e08b019162001097565b91888303858a015262001097565b970135606085015216608083015260a0820152015203906000f0918215620002c657821690565b5033926200116f565b60405162461bcd60e51b815260206004820152600e60248201526d73656c6c20666565203e2032302560901b6044820152606490fd5b60405162461bcd60e51b815260206004820152600d60248201526c62757920666565203e2032302560981b6044820152606490fd5b3561ffff811681036200014e5790565b91909161ffff80809416911601918211620012af57565b634e487b7160e01b600052601160045260246000fd5b6000198114620012af5760010190565b9190811015620012e65760051b0190565b634e487b7160e01b600052603260045260246000fd5b91908201809211620012af57565b156200131257565b60405162461bcd60e51b8152602060048201526015602482015274646973747269627574696f6e203e20737570706c7960581b6044820152606490fd5b92949391909460009583830362001466576064908184116200142d57939291906000945b83861062001391575050505050506200138f908311156200130a565b565b90919293949760018060a01b03620013af620003a88b8886620012d5565b1615620013fb57620013c3898786620012d5565b35908115620013ee57620013e391620013dc91620012fc565b98620012c5565b949392919062001373565b98620013e39150620012c5565b60405162461bcd60e51b815260206004820152600b60248201526a0726563697069656e743d360ac1b60448201528390fd5b5060405162461bcd60e51b8152602060048201526013602482015272746f6f206d616e7920726563697069656e747360681b6044820152fd5b60405162461bcd60e51b815260206004820152600f60248201526e0d8cadccee8d040dad2e6dac2e8c6d608b1b6044820152606490fd5b9190811015620012e65760a0020190565b356001600160401b03811681036200014e579056fe60406080815234620004d0576200123490813803806200001f81620004d5565b938439820160e083820312620004d0576200003a83620004fb565b6020848101519094906001600160401b0390818111620004d057846200006291840162000510565b938583015190828211620004d0576200007d91840162000510565b956060830151946200009260808501620004fb565b90620000af60c0620000a760a0880162000582565b960162000582565b938151818111620003d0576003908154906001948583811c93168015620004c5575b88841014620004af578190601f9384811162000459575b508890848311600114620003f257600092620003e6575b505060001982851b1c191690851b1782555b8b51928311620003d05760049b8c548581811c91168015620003c5575b88821014620003b05782811162000365575b5086918411600114620002fa57938394918492600095620002ee575b50501b92600019911b1c19161788555b6001600160a01b03858116929091908315620002d757600580546001600160a01b031980821687179092558a5191959085167f8be0079c531659141344cd1fd0a4f28419497f9722a3daafe3b4186f6b6457e0600080a38815620002ad57506107d061ffff81818916116200027a578616116200024757509697506200023196808216156200023f575b169060065416176006556007549061ffff60b01b9060b01b169161ffff60a01b9060a01b169063ffffffff60a01b1916171760075562000592565b51610b0890816200072c8239f35b5084620001f6565b896064918a519162461bcd60e51b8352820152600e60248201526d73656c6c20666565203e2032302560901b6044820152fd5b8a5162461bcd60e51b8152808d01849052600d60248201526c62757920666565203e2032302560981b6044820152606490fd5b6064918b62461bcd60e51b835282015260086024820152670737570706c793d360c41b6044820152fd5b8851631e4fbdf760e01b81526000818c0152602490fd5b0151935038806200015c565b9190601f198416928d60005284886000209460005b8a898383106200034d575050501062000332575b50505050811b0188556200016c565b01519060f884600019921b161c191690553880808062000323565b8686015189559097019694850194889350016200030f565b8d600052876000208380870160051c8201928a8810620003a6575b0160051c019086905b8281106200039957505062000140565b6000815501869062000389565b9250819262000380565b60228e634e487b7160e01b6000525260246000fd5b90607f16906200012e565b634e487b7160e01b600052604160045260246000fd5b015190503880620000ff565b90879350601f19831691866000528a6000209260005b8c82821062000442575050841162000429575b505050811b01825562000111565b015160001983871b60f8161c191690553880806200041b565b8385015186558b9790950194938401930162000408565b90915084600052886000208480850160051c8201928b8610620004a5575b918991869594930160051c01915b82811062000495575050620000e8565b6000815585945089910162000485565b9250819262000477565b634e487b7160e01b600052602260045260246000fd5b92607f1692620000d1565b600080fd5b6040519190601f01601f191682016001600160401b03811183821017620003d057604052565b51906001600160a01b0382168203620004d057565b919080601f84011215620004d05782516001600160401b038111620003d05760209062000546601f8201601f19168301620004d5565b92818452828287010111620004d05760005b8181106200056e57508260009394955001015290565b858101830151848201840152820162000558565b519061ffff82168203620004d057565b908015620006b0576007546001600160a01b039061ffff90828116801580159291839182620006a7575b50836200069a575b816200068d575b508062000684575b6000921562000669575082915060a01c165b1680620005fc575b5050620005fa91620006b6565b565b808302908382040362000646576127109004908115620005ed5781816200063192600654169081156200065c575b50620006b6565b81039081116200064657620005fa91620006b6565b634e487b7160e01b600052601160045260246000fd5b905060055416386200062a565b62000676575b50620005e5565b82915060b01c16386200066f565b506000620005d3565b90508487161438620005cb565b87861615159350620005c4565b935038620005bc565b620005fa915b6002549082820180921162000646576002919091556001600160a01b0316906000907fddf252ad1be2c89b69c2b068fc378daa952ba7f163c4a11628f55a4df523b3ef9060209084620007155780600254036002555b604051908152a3565b848452838252604084208181540190556200070c56fe6080604081815260048036101561001557600080fd5b600092833560e01c90816306fdde03146106d257508063095ea7b31461062957806318160ddd1461060a57806323b872dd1461051757806323cbe1f3146104f1578063313ce567146104d557806349bd5a5e146104ac5780635a27a1f91461049057806370a0823114610459578063715018a6146103fc57806375f0a874146103d357806377d2300e146103ad5780638187f516146103425780638da5cb5b1461031957806395d89b41146101f9578063a9059cbb146101c8578063dd62ed3e1461017b5763f2fde38b146100e957600080fd5b3461017757602036600319011261017757610102610810565b9061010b610841565b6001600160a01b03918216928315610161575050600554826bffffffffffffffffffffffff60a01b821617600555167f8be0079c531659141344cd1fd0a4f28419497f9722a3daafe3b4186f6b6457e08380a380f35b51631e4fbdf760e01b8152908101849052602490fd5b8280fd5b5050346101c457806003193601126101c45780602092610199610810565b6101a161082b565b6001600160a01b0391821683526001865283832091168252845220549051908152f35b5080fd5b5050346101c457806003193601126101c4576020906101f26101e8610810565b602435903361086d565b5160018152f35b509190346101c457816003193601126101c457805190828454600181811c9080831692831561030f575b60209384841081146102fc578388529081156102e0575060011461028b575b505050829003601f01601f191682019267ffffffffffffffff84118385101761027857508291826102749252826107c7565b0390f35b634e487b7160e01b815260418552602490fd5b8787529192508591837f8a35acfbc15ff81a39ae7d344fd709f28e8600b4aa8c65c6b64bfe7fe36bd19b5b8385106102cc5750505050830101388080610242565b8054888601830152930192849082016102b6565b60ff1916878501525050151560051b8401019050388080610242565b634e487b7160e01b895260228a52602489fd5b91607f1691610223565b5050346101c457816003193601126101c45760055490516001600160a01b039091168152602090f35b83346103aa5760203660031901126103aa5761035c610810565b610364610841565b600780546001600160a01b0319166001600160a01b039290921691821790557fc4a4ea6abc08bd7f8df3db8a1c998f19b3e0c348176f93732cd54db1a4b501368280a280f35b80fd5b5050346101c457816003193601126101c45760209061ffff60075460a01c169051908152f35b5050346101c457816003193601126101c45760065490516001600160a01b039091168152602090f35b83346103aa57806003193601126103aa57610415610841565b600580546001600160a01b0319811690915581906001600160a01b03167f8be0079c531659141344cd1fd0a4f28419497f9722a3daafe3b4186f6b6457e08280a380f35b5050346101c45760203660031901126101c45760209181906001600160a01b03610481610810565b16815280845220549051908152f35b5050346101c457816003193601126101c4576020905160018152f35b5050346101c457816003193601126101c45760075490516001600160a01b039091168152602090f35b5050346101c457816003193601126101c4576020905160128152f35b5050346101c457816003193601126101c45760209061ffff60075460b01c169051908152f35b5082346103aa5760603660031901126103aa57610532610810565b61053a61082b565b916044359360018060a01b038316808352600160205286832033845260205286832054916000198310610576575b6020886101f289898961086d565b8683106105de5781156105c75733156105b0575082526001602090815286832033845281529186902090859003905582906101f287610568565b8751634a1406b160e11b8152908101849052602490fd5b875163e602df0560e01b8152908101849052602490fd5b8751637dc7a0d960e11b8152339181019182526020820193909352604081018790528291506060010390fd5b5050346101c457816003193601126101c4576020906002549051908152f35b5034610177578160031936011261017757610642610810565b6024359033156106bb576001600160a01b03169182156106a457508083602095338152600187528181208582528752205582519081527f8c5be1e5ebec7d5bd14f71427d1e84f3dd0314c0f7b2291e5b200ac8c7c3b925843392a35160018152f35b8351634a1406b160e11b8152908101859052602490fd5b835163e602df0560e01b8152808401869052602490fd5b849150833461017757826003193601126101775782600354600181811c908083169283156107bd575b60209384841081146102fc578388529081156107a1575060011461074b57505050829003601f01601f191682019267ffffffffffffffff84118385101761027857508291826102749252826107c7565b600387529192508591837fc2575a0e9e593c00f959f8c92f12db2869c3395a3b0502d05e2516446f71f85b5b83851061078d5750505050830101858080610242565b805488860183015293019284908201610777565b60ff1916878501525050151560051b8401019050858080610242565b91607f16916106fb565b6020808252825181830181905290939260005b8281106107fc57505060409293506000838284010152601f8019910116010190565b8181018601518482016040015285016107da565b600435906001600160a01b038216820361082657565b600080fd5b602435906001600160a01b038216820361082657565b6005546001600160a01b0316330361085557565b60405163118cdaa760e01b8152336004820152602490fd5b91906001600160a01b03808416156108aa578116156108915761088f926108c3565b565b60405163ec442f0560e01b815260006004820152602490fd5b604051634b637e8f60e11b815260006004820152602490fd5b919081156109cd576007546001600160a01b039061ffff9082811680151591908290816109c1575b836109b5575b816109a9575b508061099e575b60009215610986575082915060a01c165b1680610921575b505061088f926109d2565b8084029084820403610964576127109004908115610916578181610952926006541690811561097a575b50866109d2565b82039182116109645761088f926109d2565b634e487b7160e01b600052601160045260246000fd5b9050600554163861094b565b610991575b5061090f565b82915060b01c163861098b565b5083871615156108fe565b905084861614386108f7565b868616151593506108f1565b888616811493506108eb565b61088f925b6001600160a01b0380821692909183610a4f57509060025490848201809211610964577fddf252ad1be2c89b69c2b068fc378daa952ba7f163c4a11628f55a4df523b3ef926020926002555b169384610a375780600254036002555b604051908152a3565b84600052600082526040600020818154019055610a2e565b60009084825281602052604082205490868210610aa057509181604087602095887fddf252ad1be2c89b69c2b068fc378daa952ba7f163c4a11628f55a4df523b3ef98965283875203912055610a1e565b60405163391434e360e21b81526001600160a01b03919091166004820152602481019190915260448101869052606490fdfea2646970667358221220f82ae43a7bef6118c43144bacd933ef0e5ffe09b851543c830f2584bdb0439a764736f6c63430008140033a2646970667358221220c2c39ce8bd6bf26bc52a62b22af039c2e0eb0e83b7242bf4a297fa26edbaf0dd64736f6c63430008140033",
  "linkReferences": {},
  "deployedLinkReferences": {}
}