{
  "_format": "hh-sol-artifact-1",
  "contractName": "TokenFactory",
  "sourceName": "contracts/launch/TokenFactory.sol",
  "abi": [
    {
      "inputs": [],
      "stateMutability": "nonpayable",
      "type": "constructor"
    },
    {
      "inputs": [
        {
          "internalType": "address",
          "name": "token",
          "type": "address"
        }
      ],
      "name": "SafeERC20FailedOperation",
      "type": "error"
    },
    {
      "anonymous": false,
      "inputs": [
        {
          "indexed": true,
          "internalType": "address",
          "name": "previousOwner",
          "type": "address"
        },
        {
          "indexed": true,
          "internalType": "address",
          "name": "newOwner",
          "type": "address"
        }
      ],
      "name": "OwnershipTransferred",
      "type": "event"
    },
    {
      "anonymous": false,
      "inputs": [
        {
          "indexed": true,
          "internalType": "address",
          "name": "creator",
          "type": "address"
        },
        {
          "indexed": true,
          "internalType": "address",
          "name": "token",
          "type": "address"
        }
      ],
      "name": "TokenCreated",
      "type": "event"
    },
    {
      "anonymous": false,
      "inputs": [
        {
          "indexed": true,
          "internalType": "address",
          "name": "token",
          "type": "address"
        },
        {
          "indexed": true,
          "internalType": "address",
          "name": "to",
          "type": "address"
        },
        {
          "indexed": false,
          "internalType": "uint256",
          "name": "amount",
          "type": "uint256"
        },
        {
          "indexed": false,
          "internalType": "string",
          "name": "label",
          "type": "string"
        }
      ],
      "name": "TokenDistributed",
      "type": "event"
    },
    {
      "inputs": [],
      "name": "MAX_DISTRIBUTION_LABEL_BYTES",
      "outputs": [
        {
          "internalType": "uint256",
          "name": "",
          "type": "uint256"
        }
      ],
      "stateMutability": "view",
      "type": "function"
    },
    {
      "inputs": [
        {
          "components": [
            {
              "internalType": "string",
              "name": "name",
              "type": "string"
            },
            {
              "internalType": "string",
              "name": "symbol",
              "type": "string"
            },
            {
              "internalType": "uint256",
              "name": "totalSupplyRaw",
              "type": "uint256"
            }
          ],
          "internalType": "struct TokenFactory.TokenConfig",
          "name": "cfg",
          "type": "tuple"
        }
      ],
      "name": "createToken",
      "outputs": [
        {
          "internalType": "address",
          "name": "tokenAddr",
          "type": "address"
        }
      ],
      "stateMutability": "nonpayable",
      "type": "function"
    },
    {
      "inputs": [
        {
          "components": [
            {
              "internalType": "string",
              "name": "name",
              "type": "string"
            },
            {
              "internalType": "string",
              "name": "symbol",
              "type": "string"
            },
            {
              "internalType": "uint256",
              "name": "totalSupplyRaw",
              "type": "uint256"
            }
          ],
          "internalType": "struct TokenFactory.TokenConfig",
          "name": "cfg",
          "type": "tuple"
        },
        {
          "internalType": "address[]",
          "name": "recipients",
          "type": "address[]"
        },
        {
          "internalType": "uint256[]",
          "name": "amounts",
          "type": "uint256[]"
        },
        {
          "internalType": "string[]",
          "name": "labels",
          "type": "string[]"
        }
      ],
      "name": "createTokenWithDistribution",
      "outputs": [
        {
          "internalType": "address",
          "name": "tokenAddr",
          "type": "address"
        }
      ],
      "stateMutability": "nonpayable",
      "type": "function"
    },
    {
      "inputs": [],
      "name": "owner",
      "outputs": [
        {
          "internalType": "address",
          "name": "",
          "type": "address"
        }
      ],
      "stateMutability": "view",
      "type": "function"
    },
    {
      "inputs": [
        {
          "internalType": "address",
          "name": "newOwner",
          "type": "address"
        }
      ],
      "name": "transferOwnership",
      "outputs": [],
      "stateMutability": "nonpayable",
      "type": "function"
    }
  ],
  "bytecode": "0x60808060405234604e57600080546001600160a01b031916339081178255907f8be0079c531659141344cd1fd0a4f28419497f9722a3daafe3b4186f6b6457e08180a361170690816100548239f35b600080fdfe6080604052600436101561001257600080fd5b6000803560e01c80637c6b896f1461066d57806387010aa2146101725780638da5cb5b1461014b578063d05dbf3e1461012f5763f2fde38b1461005457600080fd5b3461012c57602036600319011261012c576004356001600160a01b0381169081900361012a5781546001600160a01b03811690338290036100f95782156100ca576001600160a01b031916821783557f8be0079c531659141344cd1fd0a4f28419497f9722a3daafe3b4186f6b6457e08380a380f35b60405162461bcd60e51b815260206004820152600760248201526606f776e65723d360cc1b6044820152606490fd5b60405162461bcd60e51b81526020600482015260096024820152683737ba1037bbb732b960b91b6044820152606490fd5b505b80fd5b503461012c578060031936011261012c57602060405160408152f35b503461012c578060031936011261012c57546040516001600160a01b039091168152602090f35b503461012c57608036600319011261012c5760043567ffffffffffffffff811161012a576060600319823603011261012a5760243567ffffffffffffffff8111610669576101c49036906004016107d2565b919060443567ffffffffffffffff8111610665576101e69036906004016107d2565b92909160643567ffffffffffffffff8111610661576102099036906004016107d2565b92604481013561021a811515610803565b8887890361062a57606489116105ef57895b89811061055b57501161051e578684036104e95790879594939291865b848110610487575061025d9060040161091b565b979095875b8281106103c3576040516370a0823160e01b815230600482015289908b9082906001600160a01b038c1690602081602481855afa90811561032a578391610389575b5080610335575b50803b1561012a57819060246040518094819363f2fde38b60e01b83523360048401525af1801561032a57610315575b6040516020906001600160a01b03841680337fd5f9bdf12adf29dab0248c349842c3822d53ae2bb4f36352f301630d018c81398880a38152f35b61032083809261083a565b61012a57826102db565b6040513d85823e3d90fd5b6001600160a01b03841661034a8233836109b4565b604051918252604060208301528360408301527f3ba2ee1d7419b14b5ee28ecd9668108e57db06eadb2e01f0de72bbc3f4e85d4b60603393a3846102ab565b9250506020823d6020116103bb575b816103a56020938361083a565b810103126103b657839151856102a4565b600080fd5b3d9150610398565b869798508085846103dc838660019798999a9b9c610872565b358d811561047d578161042761042261046a977f3ba2ee1d7419b14b5ee28ecd9668108e57db06eadb2e01f0de72bbc3f4e85d4b9661042d958c8060a01b031698610872565b610898565b856109b4565b61043b610422868a8d610872565b90610447868d8c6108df565b9590604051938493845260406020850152898060a01b03169660408401916108fa565b0390a35b01908997969594939291610262565b505050505061046e565b9091929394959650604061049c8287866108df565b9050116104b3576001019088969594939291610249565b60405162461bcd60e51b815260206004820152600e60248201526d6c6162656c20746f6f206c6f6e6760901b6044820152606490fd5b60405162461bcd60e51b815260206004820152600d60248201526c0d8c2c4cad8e640d8cadccee8d609b1b6044820152606490fd5b60405162461bcd60e51b8152602060048201526015602482015274646973747269627574696f6e203e20737570706c7960581b6044820152606490fd5b906001600160a01b03610572610422848d8a610872565b16156105bc57610583828a8a610872565b3580156105b257810180911161059e57600190915b0161022c565b634e487b7160e01b8b52601160045260248bfd5b5090600190610598565b60405162461bcd60e51b815260206004820152600b60248201526a0726563697069656e743d360ac1b6044820152606490fd5b60405162461bcd60e51b8152602060048201526013602482015272746f6f206d616e7920726563697069656e747360681b6044820152606490fd5b60405162461bcd60e51b815260206004820152600f60248201526e0d8cadccee8d040dad2e6dac2e8c6d608b1b6044820152606490fd5b8680fd5b8480fd5b8280fd5b503461012c57602036600319011261012c5760043567ffffffffffffffff811161012a576060600319823603011261012a57806106b260446106ba9301351515610803565b60040161091b565b6001600160a01b039091169190823b1561012a5760405163f2fde38b60e01b815233600482015292828460248183855af193841561032a576024946107bd575b50602090604051948580926370a0823160e01b82523060048301525afa80156107b257829061077f575b6020935080610765575b5060018060a01b031680604051927fd5f9bdf12adf29dab0248c349842c3822d53ae2bb4f36352f301630d018c8139339180a38152f35b61077990336001600160a01b0384166109b4565b3861072e565b506020833d6020116107aa575b816107996020938361083a565b810103126103b65760209251610724565b3d915061078c565b6040513d84823e3d90fd5b926107cb816020939561083a565b92906106fa565b9181601f840112156103b65782359167ffffffffffffffff83116103b6576020808501948460051b0101116103b657565b1561080a57565b60405162461bcd60e51b81526020600482015260086024820152670737570706c793d360c41b6044820152606490fd5b90601f8019910116810190811067ffffffffffffffff82111761085c57604052565b634e487b7160e01b600052604160045260246000fd5b91908110156108825760051b0190565b634e487b7160e01b600052603260045260246000fd5b356001600160a01b03811681036103b65790565b903590601e19813603018212156103b6570180359067ffffffffffffffff82116103b6576020019181360383136103b657565b90821015610882576108f69160051b8101906108ac565b9091565b908060209392818452848401376000828201840152601f01601f1916010190565b61092581806108ac565b909161093460208201826108ac565b9260405194610c8b918287019387851067ffffffffffffffff86111761085c57879661097c60409461098994606097610a468c39308952608060208a015260808901916108fa565b91868303858801526108fa565b93013591015203906000f09081156109a8576001600160a01b03821690565b6040513d6000823e3d90fd5b60405163a9059cbb60e01b60208281019182526001600160a01b03909416602483015260448083019590955293815290926000916109f360648261083a565b519082855af1156109a8576000513d610a3c57506001600160a01b0381163b155b610a1b5750565b635274afe760e01b60009081526001600160a01b0391909116600452602490fd5b60011415610a1456fe60806040523461044757610c8b803803806100198161044c565b9283398101906080818303126104475780516001600160a01b038116908190036104475760208201516001600160401b038111610447578361005c918401610471565b60408301519093906001600160401b03811161044757606091610080918501610471565b92015183516001600160401b03811161035057600354600181811c9116801561043d575b602082101461033057601f81116103d8575b50602094601f821160011461037157948192939495600092610366575b50508160011b916000199060031b1c1916176003555b82516001600160401b03811161035057600454600181811c91168015610346575b602082101461033057601f81116102cb575b506020601f82116001146102645781929394600092610259575b50508160011b916000199060031b1c1916176004555b811561024357600580546001600160a01b0319811684179091556040519083906001600160a01b03167f8be0079c531659141344cd1fd0a4f28419497f9722a3daafe3b4186f6b6457e0600080a3811561021657506000600254828101809111610202576000927fddf252ad1be2c89b69c2b068fc378daa952ba7f163c4a11628f55a4df523b3ef926020926002555084845283825260408420818154019055604051908152a36040516107ae90816104dd8239f35b634e487b7160e01b82526011600452602482fd5b62461bcd60e51b81526020600482015260086024820152670737570706c793d360c41b6044820152606490fd5b631e4fbdf760e01b600052600060045260246000fd5b015190503880610136565b601f198216906004600052806000209160005b8181106102b35750958360019596971061029a575b505050811b0160045561014c565b015160001960f88460031b161c1916905538808061028c565b9192602060018192868b015181550194019201610277565b60046000527f8a35acfbc15ff81a39ae7d344fd709f28e8600b4aa8c65c6b64bfe7fe36bd19b601f830160051c81019160208410610326575b601f0160051c01905b81811061031a575061011c565b6000815560010161030d565b9091508190610304565b634e487b7160e01b600052602260045260246000fd5b90607f169061010a565b634e487b7160e01b600052604160045260246000fd5b0151905038806100d3565b601f198216956003600052806000209160005b8881106103c0575083600195969798106103a7575b505050811b016003556100e9565b015160001960f88460031b161c19169055388080610399565b91926020600181928685015181550194019201610384565b60036000527fc2575a0e9e593c00f959f8c92f12db2869c3395a3b0502d05e2516446f71f85b601f830160051c81019160208410610433575b601f0160051c01905b81811061042757506100b6565b6000815560010161041a565b9091508190610411565b90607f16906100a4565b600080fd5b6040519190601f01601f191682016001600160401b0381118382101761035057604052565b81601f82011215610447578051906001600160401b038211610350576104a0601f8301601f191660200161044c565b92828452602083830101116104475760005b8281106104c757505060206000918301015290565b806020809284010151828287010152016104b256fe608080604052600436101561001357600080fd5b60003560e01c90816306fdde031461054257508063095ea7b3146104bc57806318160ddd1461049e57806323b872dd146103b1578063313ce5671461039557806370a082311461035b578063715018a6146102fe5780638da5cb5b146102d557806395d89b41146101b4578063a9059cbb14610183578063dd62ed3e146101325763f2fde38b146100a357600080fd5b3461012d57602036600319011261012d576100bc61065e565b6100c461074f565b6001600160a01b0316801561011757600580546001600160a01b0319811683179091556001600160a01b03167f8be0079c531659141344cd1fd0a4f28419497f9722a3daafe3b4186f6b6457e0600080a3005b631e4fbdf760e01b600052600060045260246000fd5b600080fd5b3461012d57604036600319011261012d5761014b61065e565b610153610674565b6001600160a01b039182166000908152600160209081526040808320949093168252928352819020549051908152f35b3461012d57604036600319011261012d576101a961019f61065e565b602435903361068a565b602060405160018152f35b3461012d57600036600319011261012d5760405160006004548060011c906001811680156102cb575b6020831081146102b75782855290811561029b5750600114610244575b50819003601f01601f191681019067ffffffffffffffff82118183101761022e5761022a82918260405282610615565b0390f35b634e487b7160e01b600052604160045260246000fd5b905060046000527f8a35acfbc15ff81a39ae7d344fd709f28e8600b4aa8c65c6b64bfe7fe36bd19b6000905b828210610285575060209150820101826101fa565b6001816020925483858801015201910190610270565b90506020925060ff191682840152151560051b820101826101fa565b634e487b7160e01b84526022600452602484fd5b91607f16916101dd565b3461012d57600036600319011261012d576005546040516001600160a01b039091168152602090f35b3461012d57600036600319011261012d5761031761074f565b600580546001600160a01b031981169091556000906001600160a01b03167f8be0079c531659141344cd1fd0a4f28419497f9722a3daafe3b4186f6b6457e08280a3005b3461012d57602036600319011261012d576001600160a01b0361037c61065e565b1660005260006020526020604060002054604051908152f35b3461012d57600036600319011261012d57602060405160128152f35b3461012d57606036600319011261012d576103ca61065e565b6103d2610674565b6001600160a01b0382166000818152600160209081526040808320338452909152902054909260443592916000198110610412575b506101a9935061068a565b83811061048157841561046b573315610455576101a9946000526001602052604060002060018060a01b0333166000526020528360406000209103905584610407565b634a1406b160e11b600052600060045260246000fd5b63e602df0560e01b600052600060045260246000fd5b8390637dc7a0d960e11b6000523360045260245260445260646000fd5b3461012d57600036600319011261012d576020600254604051908152f35b3461012d57604036600319011261012d576104d561065e565b60243590331561046b576001600160a01b031690811561045557336000526001602052604060002082600052602052806040600020556040519081527f8c5be1e5ebec7d5bd14f71427d1e84f3dd0314c0f7b2291e5b200ac8c7c3b92560203392a3602060405160018152f35b3461012d57600036600319011261012d5760006003548060011c9060018116801561060b575b6020831081146102b75782855290811561029b57506001146105b45750819003601f01601f191681019067ffffffffffffffff82118183101761022e5761022a82918260405282610615565b905060036000527fc2575a0e9e593c00f959f8c92f12db2869c3395a3b0502d05e2516446f71f85b6000905b8282106105f5575060209150820101826101fa565b60018160209254838588010152019101906105e0565b91607f1691610568565b91909160208152825180602083015260005b818110610648575060409293506000838284010152601f8019910116010190565b8060208092870101516040828601015201610627565b600435906001600160a01b038216820361012d57565b602435906001600160a01b038216820361012d57565b6001600160a01b0316908115610739576001600160a01b03169182156107235760008281528060205260408120548281106107095791604082827fddf252ad1be2c89b69c2b068fc378daa952ba7f163c4a11628f55a4df523b3ef958760209652828652038282205586815280845220818154019055604051908152a3565b916064928463391434e360e21b8452600452602452604452fd5b63ec442f0560e01b600052600060045260246000fd5b634b637e8f60e11b600052600060045260246000fd5b6005546001600160a01b0316330361076357565b63118cdaa760e01b6000523360045260246000fdfea2646970667358221220b00c6c57251154b4714cc23ca701bec25a025d9a566e9da591fa0549719e8d2564736f6c634300081c0033a2646970667358221220f6ea6ab0883d310dc3952b14062912e7e5527ef44a9627396c76880fe9995f3464736f6c634300081c0033",
  "linkReferences": {},
  "deployedLinkReferences": {}
}