{
  "_format": "hh-sol-artifact-1",
  "contractName": "TokenFactory",
  "sourceName": "contracts/launch/TokenFactory.sol",
  "abi": [
    {
      "inputs": [],
      "stateMutability": "nonpayable",
      "type": "constructor"
    },
    {
      "inputs": [],
      "name": "ReentrancyGuardReentrantCall",
      "type": "error"
    },
    {
      "inputs": [
        {
          "internalType": "address",
          "name": "token",
          "type": "address"
        }
      ],
      "name": "SafeERC20FailedOperation",
      "type": "error"
    },
    {
      "anonymous": false,
      "inputs": [
        {
          "indexed": false,
          "internalType": "uint256",
          "name": "oldBasicFeeWei",
          "type": "uint256"
        },
        {
          "indexed": false,
          "internalType": "uint256",
          "name": "oldDistributionFeeWei",
          "type": "uint256"
        },
        {
          "indexed": false,
          "internalType": "uint256",
          "name": "oldVestingFeeWei",
          "type": "uint256"
        },
        {
          "indexed": false,
          "internalType": "uint256",
          "name": "newBasicFeeWei",
          "type": "uint256"
        },
        {
          "indexed": false,
          "internalType": "uint256",
          "name": "newDistributionFeeWei",
          "type": "uint256"
        },
        {
          "indexed": false,
          "internalType": "uint256",
          "name": "newVestingFeeWei",
          "type": "uint256"
        }
      ],
      "name": "FeesUpdated",
      "type": "event"
    },
    {
      "anonymous": false,
      "inputs": [
        {
          "indexed": true,
          "internalType": "address",
          "name": "to",
          "type": "address"
        },
        {
          "indexed": false,
          "internalType": "uint256",
          "name": "amountWei",
          "type": "uint256"
        }
      ],
      "name": "FeesWithdrawn",
      "type": "event"
    },
    {
      "anonymous": false,
      "inputs": [
        {
          "indexed": true,
          "internalType": "address",
          "name": "previousOwner",
          "type": "address"
        },
        {
          "indexed": true,
          "internalType": "address",
          "name": "newOwner",
          "type": "address"
        }
      ],
      "name": "OwnershipTransferred",
      "type": "event"
    },
    {
      "anonymous": false,
      "inputs": [
        {
          "indexed": true,
          "internalType": "address",
          "name": "creator",
          "type": "address"
        },
        {
          "indexed": true,
          "internalType": "address",
          "name": "token",
          "type": "address"
        }
      ],
      "name": "TokenCreated",
      "type": "event"
    },
    {
      "anonymous": false,
      "inputs": [
        {
          "indexed": true,
          "internalType": "address",
          "name": "token",
          "type": "address"
        },
        {
          "indexed": true,
          "internalType": "address",
          "name": "to",
          "type": "address"
        },
        {
          "indexed": false,
          "internalType": "uint256",
          "name": "amount",
          "type": "uint256"
        }
      ],
      "name": "TokenDistributed",
      "type": "event"
    },
    {
      "anonymous": false,
      "inputs": [
        {
          "indexed": true,
          "internalType": "address",
          "name": "token",
          "type": "address"
        },
        {
          "indexed": true,
          "internalType": "address",
          "name": "vault",
          "type": "address"
        },
        {
          "indexed": true,
          "internalType": "address",
          "name": "beneficiary",
          "type": "address"
        },
        {
          "indexed": false,
          "internalType": "uint256",
          "name": "amount",
          "type": "uint256"
        }
      ],
      "name": "VestingCreated",
      "type": "event"
    },
    {
      "inputs": [],
      "name": "basicFeeWei",
      "outputs": [
        {
          "internalType": "uint256",
          "name": "",
          "type": "uint256"
        }
      ],
      "stateMutability": "view",
      "type": "function"
    },
    {
      "inputs": [
        {
          "components": [
            {
              "internalType": "string",
              "name": "name",
              "type": "string"
            },
            {
              "internalType": "string",
              "name": "symbol",
              "type": "string"
            },
            {
              "internalType": "uint256",
              "name": "totalSupplyRaw",
              "type": "uint256"
            },
            {
              "internalType": "address",
              "name": "marketingWallet",
              "type": "address"
            },
            {
              "components": [
                {
                  "internalType": "uint16",
                  "name": "buyMarketingBps",
                  "type": "uint16"
                },
                {
                  "internalType": "uint16",
                  "name": "buyLiquidityBps",
                  "type": "uint16"
                },
                {
                  "internalType": "uint16",
                  "name": "buyBurnBps",
                  "type": "uint16"
                },
                {
                  "internalType": "uint16",
                  "name": "sellMarketingBps",
                  "type": "uint16"
                },
                {
                  "internalType": "uint16",
                  "name": "sellLiquidityBps",
                  "type": "uint16"
                },
                {
                  "internalType": "uint16",
                  "name": "sellBurnBps",
                  "type": "uint16"
                }
              ],
              "internalType": "struct TokenFactory.Fees",
              "name": "fees",
              "type": "tuple"
            },
            {
              "components": [
                {
                  "internalType": "uint256",
                  "name": "maxGasPriceWei",
                  "type": "uint256"
                },
                {
                  "internalType": "uint256",
                  "name": "deadBlocks",
                  "type": "uint256"
                },
                {
                  "internalType": "bool",
                  "name": "revertEarlyBuys",
                  "type": "bool"
                },
                {
                  "internalType": "uint256",
                  "name": "maxTxAmount",
                  "type": "uint256"
                },
                {
                  "internalType": "uint256",
                  "name": "maxWalletAmount",
                  "type": "uint256"
                }
              ],
              "internalType": "struct TokenFactory.Limits",
              "name": "limits",
              "type": "tuple"
            }
          ],
          "internalType": "struct TokenFactory.TokenConfig",
          "name": "cfg",
          "type": "tuple"
        }
      ],
      "name": "createToken",
      "outputs": [
        {
          "internalType": "address",
          "name": "tokenAddr",
          "type": "address"
        }
      ],
      "stateMutability": "payable",
      "type": "function"
    },
    {
      "inputs": [
        {
          "components": [
            {
              "internalType": "string",
              "name": "name",
              "type": "string"
            },
            {
              "internalType": "string",
              "name": "symbol",
              "type": "string"
            },
            {
              "internalType": "uint256",
              "name": "totalSupplyRaw",
              "type": "uint256"
            },
            {
              "internalType": "address",
              "name": "marketingWallet",
              "type": "address"
            },
            {
              "components": [
                {
                  "internalType": "uint16",
                  "name": "buyMarketingBps",
                  "type": "uint16"
                },
                {
                  "internalType": "uint16",
                  "name": "buyLiquidityBps",
                  "type": "uint16"
                },
                {
                  "internalType": "uint16",
                  "name": "buyBurnBps",
                  "type": "uint16"
                },
                {
                  "internalType": "uint16",
                  "name": "sellMarketingBps",
                  "type": "uint16"
                },
                {
                  "internalType": "uint16",
                  "name": "sellLiquidityBps",
                  "type": "uint16"
                },
                {
                  "internalType": "uint16",
                  "name": "sellBurnBps",
                  "type": "uint16"
                }
              ],
              "internalType": "struct TokenFactory.Fees",
              "name": "fees",
              "type": "tuple"
            },
            {
              "components": [
                {
                  "internalType": "uint256",
                  "name": "maxGasPriceWei",
                  "type": "uint256"
                },
                {
                  "internalType": "uint256",
                  "name": "deadBlocks",
                  "type": "uint256"
                },
                {
                  "internalType": "bool",
                  "name": "revertEarlyBuys",
                  "type": "bool"
                },
                {
                  "internalType": "uint256",
                  "name": "maxTxAmount",
                  "type": "uint256"
                },
                {
                  "internalType": "uint256",
                  "name": "maxWalletAmount",
                  "type": "uint256"
                }
              ],
              "internalType": "struct TokenFactory.Limits",
              "name": "limits",
              "type": "tuple"
            }
          ],
          "internalType": "struct TokenFactory.TokenConfig",
          "name": "cfg",
          "type": "tuple"
        },
        {
          "internalType": "address[]",
          "name": "recipients",
          "type": "address[]"
        },
        {
          "internalType": "uint256[]",
          "name": "amounts",
          "type": "uint256[]"
        }
      ],
      "name": "createTokenWithDistribution",
      "outputs": [
        {
          "internalType": "address",
          "name": "tokenAddr",
          "type": "address"
        }
      ],
      "stateMutability": "payable",
      "type": "function"
    },
    {
      "inputs": [
        {
          "components": [
            {
              "internalType": "string",
              "name": "name",
              "type": "string"
            },
            {
              "internalType": "string",
              "name": "symbol",
              "type": "string"
            },
            {
              "internalType": "uint256",
              "name": "totalSupplyRaw",
              "type": "uint256"
            },
            {
              "internalType": "address",
              "name": "marketingWallet",
              "type": "address"
            },
            {
              "components": [
                {
                  "internalType": "uint16",
                  "name": "buyMarketingBps",
                  "type": "uint16"
                },
                {
                  "internalType": "uint16",
                  "name": "buyLiquidityBps",
                  "type": "uint16"
                },
                {
                  "internalType": "uint16",
                  "name": "buyBurnBps",
                  "type": "uint16"
                },
                {
                  "internalType": "uint16",
                  "name": "sellMarketingBps",
                  "type": "uint16"
                },
                {
                  "internalType": "uint16",
                  "name": "sellLiquidityBps",
                  "type": "uint16"
                },
                {
                  "internalType": "uint16",
                  "name": "sellBurnBps",
                  "type": "uint16"
                }
              ],
              "internalType": "struct TokenFactory.Fees",
              "name": "fees",
              "type": "tuple"
            },
            {
              "components": [
                {
                  "internalType": "uint256",
                  "name": "maxGasPriceWei",
                  "type": "uint256"
                },
                {
                  "internalType": "uint256",
                  "name": "deadBlocks",
                  "type": "uint256"
                },
                {
                  "internalType": "bool",
                  "name": "revertEarlyBuys",
                  "type": "bool"
                },
                {
                  "internalType": "uint256",
                  "name": "maxTxAmount",
                  "type": "uint256"
                },
                {
                  "internalType": "uint256",
                  "name": "maxWalletAmount",
                  "type": "uint256"
                }
              ],
              "internalType": "struct TokenFactory.Limits",
              "name": "limits",
              "type": "tuple"
            }
          ],
          "internalType": "struct TokenFactory.TokenConfig",
          "name": "cfg",
          "type": "tuple"
        },
        {
          "internalType": "address[]",
          "name": "recipients",
          "type": "address[]"
        },
        {
          "internalType": "uint256[]",
          "name": "amounts",
          "type": "uint256[]"
        },
        {
          "components": [
            {
              "internalType": "address",
              "name": "beneficiary",
              "type": "address"
            },
            {
              "internalType": "uint64",
              "name": "start",
              "type": "uint64"
            },
            {
              "internalType": "uint64",
              "name": "cliffSeconds",
              "type": "uint64"
            },
            {
              "internalType": "uint64",
              "name": "durationSeconds",
              "type": "uint64"
            },
            {
              "internalType": "uint256",
              "name": "amount",
              "type": "uint256"
            }
          ],
          "internalType": "struct TokenFactory.Vesting[]",
          "name": "vestings",
          "type": "tuple[]"
        }
      ],
      "name": "createTokenWithDistributionAndVesting",
      "outputs": [
        {
          "internalType": "address",
          "name": "tokenAddr",
          "type": "address"
        }
      ],
      "stateMutability": "payable",
      "type": "function"
    },
    {
      "inputs": [],
      "name": "distributionFeeWei",
      "outputs": [
        {
          "internalType": "uint256",
          "name": "",
          "type": "uint256"
        }
      ],
      "stateMutability": "view",
      "type": "function"
    },
    {
      "inputs": [],
      "name": "owner",
      "outputs": [
        {
          "internalType": "address",
          "name": "",
          "type": "address"
        }
      ],
      "stateMutability": "view",
      "type": "function"
    },
    {
      "inputs": [
        {
          "internalType": "uint256",
          "name": "newBasicFeeWei",
          "type": "uint256"
        },
        {
          "internalType": "uint256",
          "name": "newDistributionFeeWei",
          "type": "uint256"
        },
        {
          "internalType": "uint256",
          "name": "newVestingFeeWei",
          "type": "uint256"
        }
      ],
      "name": "setFeesWei",
      "outputs": [],
      "stateMutability": "nonpayable",
      "type": "function"
    },
    {
      "inputs": [
        {
          "internalType": "address",
          "name": "newOwner",
          "type": "address"
        }
      ],
      "name": "transferOwnership",
      "outputs": [],
      "stateMutability": "nonpayable",
      "type": "function"
    },
    {
      "inputs": [],
      "name": "vestingFeeWei",
      "outputs": [
        {
          "internalType": "uint256",
          "name": "",
          "type": "uint256"
        }
      ],
      "stateMutability": "view",
      "type": "function"
    },
    {
      "inputs": [
        {
          "internalType": "address payable",
          "name": "to",
          "type": "address"
        },
        {
          "internalType": "uint256",
          "name": "amountWei",
          "type": "uint256"
        }
      ],
      "name": "withdrawFees",
      "outputs": [],
      "stateMutability": "nonpayable",
      "type": "function"
    }
  ],
  "bytecode": "0x608080604052346073576001600081815581546001600160a01b031916339081179092557f8be0079c531659141344cd1fd0a4f28419497f9722a3daafe3b4186f6b6457e08180a3655af3107a400060025566038d7ea4c680006003556611c37937e08000600455612ff590816100798239f35b600080fdfe608080604052600436101561001357600080fd5b600090813560e01c908163308cc33d14610d86575080633cb35165146108875780633db315ba1461070f57806379046732146106f15780638da5cb5b146106c8578063ad3b1b4714610537578063b93c95f3146103cf578063c48b374d146103b1578063d9a3c8211461013e5763f2fde38b1461008f57600080fd5b3461013b57602036600319011261013b576004356001600160a01b03811690819003610139576001546001600160a01b038116906100ce338314610e8a565b821561010a576001600160a01b03191682176001557f8be0079c531659141344cd1fd0a4f28419497f9722a3daafe3b4186f6b6457e08380a380f35b60405162461bcd60e51b815260206004820152600760248201526606f776e65723d360cc1b6044820152606490fd5b505b80fd5b50606036600319011261013b576004356001600160401b038111610139576101e06003198236030112610139576024356001600160401b0381116103ad5761018a903690600401610da2565b91604435916001600160401b0383116103a957906101e4916101b186943690600401610da2565b9390926101bf600354610ec2565b6101db8585898660448601356101d6811515610dd2565b611260565b50600401610ff7565b959093855b82811061032757505050505060018060a01b03166040516370a0823160e01b8152306004820152602081602481855afa9081156102ad5783916102ed575b50806102b8575b50803b1561013957819060246040518094819363f2fde38b60e01b83523360048401525af180156102ad57610298575b6040516020906001600160a01b03841680337fd5f9bdf12adf29dab0248c349842c3822d53ae2bb4f36352f301630d018c81398880a38152f35b6102a3838092610e53565b610139573861025e565b6040513d85823e3d90fd5b6001600160a01b0384166102cd8233836111bb565b604051918252600080516020612fa083398151915260203393a33861022e565b9250506020823d60201161031f575b8161030960209383610e53565b8101031261031a5783915138610227565b600080fd5b3d91506102fc565b8495965061033b8183600194959697610e09565b3580156103a357828060a01b0389166103678261036161035c868a8c610e09565b610e2f565b836111bb565b600080516020612fa08339815191526020858060a01b0361038c61035c878b8d610e09565b1693604051908152a35b01908795949392916101e9565b50610396565b8480fd5b8280fd5b503461013b578060031936011261013b576020600454604051908152f35b50602036600319011261013b576004356001600160401b038111610139576101e06003198236030112610139576104229061040b600254610ec2565b61041a60448201351515610dd2565b600401610ff7565b6001600160a01b039091169190823b156101395760405163f2fde38b60e01b8152336004820152828160248183885af180156102ad57610522575b506020602493604051948580926370a0823160e01b82523060048301525afa80156105175782906104e4575b60209350806104ca575b5060018060a01b031680604051927fd5f9bdf12adf29dab0248c349842c3822d53ae2bb4f36352f301630d018c8139339180a38152f35b6104de90336001600160a01b0384166111bb565b38610493565b506020833d60201161050f575b816104fe60209383610e53565b8101031261031a5760209251610489565b3d91506104f1565b6040513d84823e3d90fd5b61052d838092610e53565b610139573861045d565b503461013b57604036600319011261013b576004356001600160a01b038116908181036103ad57600154602435916001600160a01b039091169061057c338314610e8a565b60028554146106b9576002855592156106b1575b50806106ab575047905b47821161066f5782808093819360018060a01b0316807fc0819c13be868895eb93e40eaceb96de976442fa1d404e5c55f14bb65a8c489a6020604051858152a25af13d1561066a573d6001600160401b0381116106565760405190610609601f8201601f191660200183610e53565b81528260203d92013e5b1561061f576001815580f35b60405162461bcd60e51b815260206004820152600f60248201526e1dda5d1a191c985dc819985a5b1959608a1b6044820152606490fd5b634e487b7160e01b83526041600452602483fd5b610613565b60405162461bcd60e51b8152602060048201526014602482015273696e73756666696369656e742062616c616e636560601b6044820152606490fd5b9061059a565b915038610590565b633ee5aeb560e01b8552600485fd5b503461013b578060031936011261013b576001546040516001600160a01b039091168152602090f35b503461013b578060031936011261013b576020600354604051908152f35b503461013b57606036600319011261013b576004356024356044359161074060018060a01b03600154163314610e8a565b670de0b6b3a7640000811161084d57670de0b6b3a7640000821161080857670de0b6b3a764000083116107cc577f2e494fbb5d1bda2269c90d7124ba22ca99044b61d2a920ece35a1a1726ff0c379260c0926002549260035460045490826002558360035584600455604051958652602086015260408501526060840152608083015260a0820152a180f35b60405162461bcd60e51b81526020600482015260146024820152730eccae6e8d2dcce40cccaca40e8dede40d0d2ced60631b6044820152606490fd5b60405162461bcd60e51b815260206004820152601960248201527f646973747269627574696f6e2066656520746f6f2068696768000000000000006044820152606490fd5b60405162461bcd60e51b81526020600482015260126024820152710c4c2e6d2c640cccaca40e8dede40d0d2ced60731b6044820152606490fd5b50608036600319011261013b576004356001600160401b038111610139576101e06003198236030112610139576024356001600160401b0381116103ad576108d3903690600401610da2565b91906044356001600160401b0381116103a9576108f4903690600401610da2565b9290606435926001600160401b038411610d825736602385011215610d82578360040135926001600160401b038411610d7e5760248501946024369160a08702010111610d7e57610946600454610ec2565b6044810135610956811515610dd2565b61096387858a8685611260565b60328611610d45578998979695995b8a8110610c8c575061098a929161041a911115610f60565b959094875b828110610c1657505050505083946109529061264e905b808810610ae2576040516370a0823160e01b81523060048201528790879082906001600160a01b03891690602081602481855afa9081156102ad578391610ab0575b5080610a7b575b50803b1561013957819060246040518096819363f2fde38b60e01b83523360048401525af1928315610a6e57602093610a5e575b50604051916001600160a01b031690819033907fd5f9bdf12adf29dab0248c349842c3822d53ae2bb4f36352f301630d018c81399080a38152f35b81610a6891610e53565b83610a23565b50604051903d90823e3d90fd5b6001600160a01b038416610a908233836111bb565b604051918252600080516020612fa083398151915260203393a3846109ef565b90506020813d602011610ada575b81610acb60209383610e53565b810103126103ad5751856109e8565b3d9150610abe565b610aed888286610e43565b97610af789610e2f565b90610b0460208b0161124c565b99610b116040820161124c565b90610b1e6060820161124c565b91608082013592604051918983019e8f6001600160401b03858210911117610c02579e8e9f8e9f9e936001600160401b038694818f948f98829660c09a8a396001600160a01b039081168089529e16602088015216604086015216606084015216608082015260a081018690520301908bf0938415610bf7576001946001600160a01b0316917f1b138257231d2c00719335bc377b9c84f462339563b691e1dab140fbef52b41e90602090610bd48686866111bb565b610be3888060a01b0391610e2f565b1694604051908152a40197509594956109a6565b6040513d8c823e3d90fd5b634e487b7160e01b8f52604160045260248ffd5b80610c2a60019284889d999a9b9c9d610e09565b358015610c8657828060a01b038b16610c4b8261036161035c868a8c610e09565b600080516020612fa08339815191526020858060a01b03610c7061035c878b8d610e09565b1693604051908152a35b0198979695949861098f565b50610c7a565b90610c9d828c899a9b9c9d99610e43565b6001600160a01b03610cae82610e2f565b1615610d105760800135908115610cd857600191610ccb91610f3d565b9101999897969599610972565b60405162461bcd60e51b815260206004820152601060248201526f076657374696e6720616d6f756e743d360841b6044820152606490fd5b60405162461bcd60e51b815260206004820152600d60248201526c062656e65666963696172793d3609c1b6044820152606490fd5b60405162461bcd60e51b8152602060048201526011602482015270746f6f206d616e792076657374696e677360781b6044820152606490fd5b8780fd5b8680fd5b9050346101395781600319360112610139576020906002548152f35b9181601f8401121561031a578235916001600160401b03831161031a576020808501948460051b01011161031a57565b15610dd957565b60405162461bcd60e51b81526020600482015260086024820152670737570706c793d360c41b6044820152606490fd5b9190811015610e195760051b0190565b634e487b7160e01b600052603260045260246000fd5b356001600160a01b038116810361031a5790565b9190811015610e195760a0020190565b90601f801991011681019081106001600160401b03821117610e7457604052565b634e487b7160e01b600052604160045260246000fd5b15610e9157565b60405162461bcd60e51b81526020600482015260096024820152683737ba1037bbb732b960b91b6044820152606490fd5b80610f06575034610ecf57565b60405162461bcd60e51b815260206004820152600f60248201526e1b9bc8199959481c995c5d5a5c9959608a1b6044820152606490fd5b3403610f0e57565b60405162461bcd60e51b81526020600482015260076024820152666261642066656560c81b6044820152606490fd5b91908201809211610f4a57565b634e487b7160e01b600052601160045260246000fd5b15610f6757565b60405162461bcd60e51b8152602060048201526015602482015274646973747269627574696f6e203e20737570706c7960581b6044820152606490fd5b903590601e198136030182121561031a57018035906001600160401b03821161031a5760200191813603831361031a57565b908060209392818452848401376000828201840152601f01601f1916010190565b61102761101b61100960808401611392565b61101560a08501611392565b906113a1565b61101560c08401611392565b61ffff61105661104961103c60e08601611392565b6110156101008701611392565b6110156101208601611392565b9116906107d082116111865761ffff16916107d0831161115057606081016001600160a01b0361108582610e2f565b16156111485761109490610e2f565b925b6110a08280610fa4565b90946110af6020850185610fa4565b9590916040519761129694858a01948a86106001600160401b03871117610e74578a996110f96040946111069460c09a8e6113b89039308a5260e060208b015260e08a0191610fd6565b9187830385890152610fd6565b96013560608401526001600160a01b0316608083015260a0820152015203906000f090811561113c576001600160a01b03821690565b6040513d6000823e3d90fd5b503392611096565b60405162461bcd60e51b815260206004820152600e60248201526d73656c6c20666565203e2032302560901b6044820152606490fd5b60405162461bcd60e51b815260206004820152600d60248201526c62757920666565203e2032302560981b6044820152606490fd5b60405163a9059cbb60e01b60208281019182526001600160a01b03909416602483015260448083019590955293815290926000916111fa606482610e53565b519082855af11561113c576000513d61124357506001600160a01b0381163b155b6112225750565b635274afe760e01b60009081526001600160a01b0391909116600452602490fd5b6001141561121b565b356001600160401b038116810361031a5790565b929190949360009581830361135b5760648311611320579291906000935b82851061129857505050505061129690831115610f60565b565b909192939660018060a01b036112b261035c8a8786610e09565b16156112ed576112c3888487610e09565b359081156112e3576001916112d791610f3d565b975b019392919061127e565b97600191506112d9565b60405162461bcd60e51b815260206004820152600b60248201526a0726563697069656e743d360ac1b6044820152606490fd5b60405162461bcd60e51b8152602060048201526013602482015272746f6f206d616e7920726563697069656e747360681b6044820152606490fd5b60405162461bcd60e51b815260206004820152600f60248201526e0d8cadccee8d040dad2e6dac2e8c6d608b1b6044820152606490fd5b3561ffff8116810361031a5790565b9061ffff8091169116019061ffff8211610f4a5756fe60806040523461050f576112968038038061001981610514565b928339810160e08282031261050f5761003182610539565b60208301516001600160401b03811161050f578261005091850161054d565b604084015190926001600160401b03821161050f5761007091850161054d565b9260608101519261008360808301610539565b9461009c60c061009560a086016105b8565b94016105b8565b825190926001600160401b03821161040c5760035490600182811c92168015610505575b60208310146103ec5781601f849311610495575b50602090601f831160011461042d57600092610422575b50508160011b916000199060031b1c1916176003555b8051906001600160401b03821161040c5760045490600182811c92168015610402575b60208310146103ec5781601f84931161037c575b50602090601f831160011461031457600092610309575b50508160011b916000199060031b1c1916176004555b6001600160a01b03831680156102f357600580546001600160a01b03198116831790915560405191906001600160a01b03167f8be0079c531659141344cd1fd0a4f28419497f9722a3daafe3b4186f6b6457e0600080a384156102c657506107d061ffff831611610291576107d061ffff82161161025b57610245946001600160a01b03811615610254575b600680546001600160a01b0319166001600160a01b03929092169190911790556007805463ffffffff60a01b191660a09390931b61ffff60a01b169290921760b09190911b61ffff60b01b161790556105c7565b604051610abf90816107b78239f35b50826101f1565b60405162461bcd60e51b815260206004820152600e60248201526d73656c6c20666565203e2032302560901b6044820152606490fd5b60405162461bcd60e51b815260206004820152600d60248201526c62757920666565203e2032302560981b6044820152606490fd5b62461bcd60e51b81526020600482015260086024820152670737570706c793d360c41b6044820152606490fd5b631e4fbdf760e01b600052600060045260246000fd5b01519050388061014f565b600460009081528281209350601f198516905b818110610364575090846001959493921061034b575b505050811b01600455610165565b015160001960f88460031b161c1916905538808061033d565b92936020600181928786015181550195019301610327565b60046000529091507f8a35acfbc15ff81a39ae7d344fd709f28e8600b4aa8c65c6b64bfe7fe36bd19b601f840160051c810191602085106103e2575b90601f859493920160051c01905b8181106103d35750610138565b600081558493506001016103c6565b90915081906103b8565b634e487b7160e01b600052602260045260246000fd5b91607f1691610124565b634e487b7160e01b600052604160045260246000fd5b0151905038806100eb565b600360009081528281209350601f198516905b81811061047d5750908460019594939210610464575b505050811b01600355610101565b015160001960f88460031b161c19169055388080610456565b92936020600181928786015181550195019301610440565b60036000529091507fc2575a0e9e593c00f959f8c92f12db2869c3395a3b0502d05e2516446f71f85b601f840160051c810191602085106104fb575b90601f859493920160051c01905b8181106104ec57506100d4565b600081558493506001016104df565b90915081906104d1565b91607f16916100c0565b600080fd5b6040519190601f01601f191682016001600160401b0381118382101761040c57604052565b51906001600160a01b038216820361050f57565b81601f8201121561050f578051906001600160401b03821161040c5761057c601f8301601f1916602001610514565b928284526020838301011161050f5760005b8281106105a357505060206000918301015290565b8060208092840101518282870101520161058e565b519061ffff8216820361050f57565b9080156106e85760075461ffff906001600160a01b0381168015801592918391826106e0575b50836106cd575b816106ba575b50806106b2575b6000921561069a575082915060a01c165b1680610627575b506106259160006106ef565b565b80820290828204036106715761271090048015610619576006546001600160a01b0316818115610687575b61065d9160006106ef565b8103908111610671576106259160006106ef565b634e487b7160e01b600052601160045260246000fd5b6005546001600160a01b03169150610652565b6106a5575b50610612565b82915060b01c163861069f565b506000610601565b6001600160a01b038716149050386105fa565b6001600160a01b038716151593506105f4565b9350386105ed565b6106259160005b6001600160a01b0316908161075b5760025483810180911161067157600080516020611276833981519152916020916002555b6001600160a01b031693846107435780600254036002555b604051908152a3565b8460005260008252604060002081815401905561073a565b816000526000602052604060002054838110610799576000805160206112768339815191529184602092856000526000845203604060002055610722565b91905063391434e360e21b60005260045260245260445260646000fdfe608080604052600436101561001357600080fd5b60003560e01c90816306fdde03146106a357508063095ea7b31461061d57806318160ddd146105ff57806323b872dd1461051257806323cbe1f3146104ed578063313ce567146104d157806349bd5a5e146104a85780635a27a1f91461048c57806370a0823114610452578063715018a6146103f557806375f0a874146103cc57806377d2300e146103a75780638187f516146103405780638da5cb5b1461031757806395d89b41146101f6578063a9059cbb146101c5578063dd62ed3e146101745763f2fde38b146100e557600080fd5b3461016f57602036600319011261016f576100fe6107bf565b610106610842565b6001600160a01b0316801561015957600580546001600160a01b0319811683179091556001600160a01b03167f8be0079c531659141344cd1fd0a4f28419497f9722a3daafe3b4186f6b6457e0600080a3005b631e4fbdf760e01b600052600060045260246000fd5b600080fd5b3461016f57604036600319011261016f5761018d6107bf565b6101956107d5565b6001600160a01b039182166000908152600160209081526040808320949093168252928352819020549051908152f35b3461016f57604036600319011261016f576101eb6101e16107bf565b60243590336107eb565b602060405160018152f35b3461016f57600036600319011261016f5760405160006004548060011c9060018116801561030d575b6020831081146102f9578285529081156102dd5750600114610286575b50819003601f01601f191681019067ffffffffffffffff8211818310176102705761026c82918260405282610776565b0390f35b634e487b7160e01b600052604160045260246000fd5b905060046000527f8a35acfbc15ff81a39ae7d344fd709f28e8600b4aa8c65c6b64bfe7fe36bd19b6000905b8282106102c75750602091508201018261023c565b60018160209254838588010152019101906102b2565b90506020925060ff191682840152151560051b8201018261023c565b634e487b7160e01b84526022600452602484fd5b91607f169161021f565b3461016f57600036600319011261016f576005546040516001600160a01b039091168152602090f35b3461016f57602036600319011261016f576103596107bf565b610361610842565b600780546001600160a01b0319166001600160a01b039290921691821790557fc4a4ea6abc08bd7f8df3db8a1c998f19b3e0c348176f93732cd54db1a4b50136600080a2005b3461016f57600036600319011261016f57602061ffff60075460a01c16604051908152f35b3461016f57600036600319011261016f576006546040516001600160a01b039091168152602090f35b3461016f57600036600319011261016f5761040e610842565b600580546001600160a01b031981169091556000906001600160a01b03167f8be0079c531659141344cd1fd0a4f28419497f9722a3daafe3b4186f6b6457e08280a3005b3461016f57602036600319011261016f576001600160a01b036104736107bf565b1660005260006020526020604060002054604051908152f35b3461016f57600036600319011261016f57602060405160018152f35b3461016f57600036600319011261016f576007546040516001600160a01b039091168152602090f35b3461016f57600036600319011261016f57602060405160128152f35b3461016f57600036600319011261016f57602061ffff60075460b01c16604051908152f35b3461016f57606036600319011261016f5761052b6107bf565b6105336107d5565b6001600160a01b0382166000818152600160209081526040808320338452909152902054909260443592916000198110610573575b506101eb93506107eb565b8381106105e25784156105cc5733156105b6576101eb946000526001602052604060002060018060a01b0333166000526020528360406000209103905584610568565b634a1406b160e11b600052600060045260246000fd5b63e602df0560e01b600052600060045260246000fd5b8390637dc7a0d960e11b6000523360045260245260445260646000fd5b3461016f57600036600319011261016f576020600254604051908152f35b3461016f57604036600319011261016f576106366107bf565b6024359033156105cc576001600160a01b03169081156105b657336000526001602052604060002082600052602052806040600020556040519081527f8c5be1e5ebec7d5bd14f71427d1e84f3dd0314c0f7b2291e5b200ac8c7c3b92560203392a3602060405160018152f35b3461016f57600036600319011261016f5760006003548060011c9060018116801561076c575b6020831081146102f9578285529081156102dd57506001146107155750819003601f01601f191681019067ffffffffffffffff8211818310176102705761026c82918260405282610776565b905060036000527fc2575a0e9e593c00f959f8c92f12db2869c3395a3b0502d05e2516446f71f85b6000905b8282106107565750602091508201018261023c565b6001816020925483858801015201910190610741565b91607f16916106c9565b91909160208152825180602083015260005b8181106107a9575060409293506000838284010152601f8019910116010190565b8060208092870101516040828601015201610788565b600435906001600160a01b038216820361016f57565b602435906001600160a01b038216820361016f57565b91906001600160a01b0383161561082c576001600160a01b03811615610816576108149261086b565b565b63ec442f0560e01b600052600060045260246000fd5b634b637e8f60e11b600052600060045260246000fd5b6005546001600160a01b0316330361085657565b63118cdaa760e01b6000523360045260246000fd5b919081156109995760075461ffff906001600160a01b0381168015159190829081610986575b83610973575b81610960575b508061094e575b60009215610936575082915060a01c165b16806108c6575b506108149261099e565b808302908382040361090d57612710900480156108bc576006546001600160a01b0316818115610923575b6108fb918661099e565b820391821161090d576108149261099e565b634e487b7160e01b600052601160045260246000fd5b6005546001600160a01b031691506108f1565b610941575b506108b5565b82915060b01c163861093b565b506001600160a01b03861615156108a4565b6001600160a01b0386161490503861089d565b6001600160a01b03861615159350610897565b6001600160a01b03881681149350610891565b610814925b6001600160a01b03169081610a1c5760025483810180911161090d577fddf252ad1be2c89b69c2b068fc378daa952ba7f163c4a11628f55a4df523b3ef916020916002555b6001600160a01b03169384610a045780600254036002555b604051908152a3565b846000526000825260406000208181540190556109fb565b816000526000602052604060002054838110610a6c577fddf252ad1be2c89b69c2b068fc378daa952ba7f163c4a11628f55a4df523b3ef91846020928560005260008452036040600020556109e3565b91905063391434e360e21b60005260045260245260445260646000fdfea2646970667358221220452322bcb511c151ccfaae29039aeacad677d74c86c9840b8cf02e51148a1ae464736f6c634300081c0033ddf252ad1be2c89b69c2b068fc378daa952ba7f163c4a11628f55a4df523b3ef6101403461025757601f61095238819003918201601f19168301916001600160401b0383118484101761025c5780849260c0946040528339810103126102575761004881610272565b9061005560208201610272565b61006160408301610286565b61006d60608401610286565b9160a061007c60808601610286565b940151946001600160a01b03168015610228576001600160a01b038216156101f3576001600160401b03851680156101c1576001600160401b038516116101895785156101555760805260a05260c05260e05261010052610120526040516106b7908161029b823960805181818160a00152610229015260a0518181816101b00152610457015260c05181818161011701526104f7015260e0518181816103e2015261051801526101005181818161015b015261056901526101205181818161041e015281816105c5015281816105fd01526106250152f35b60405162461bcd60e51b815260206004820152600c60248201526b0616c6c6f636174696f6e3d360a41b6044820152606490fd5b60405162461bcd60e51b815260206004820152601060248201526f323ab930ba34b7b7101e1031b634b33360811b6044820152606490fd5b60405162461bcd60e51b815260206004820152600a60248201526906475726174696f6e3d360b41b6044820152606490fd5b60405162461bcd60e51b815260206004820152600d60248201526c062656e65666963696172793d3609c1b6044820152606490fd5b60405162461bcd60e51b81526020600482015260076024820152660746f6b656e3d360cc1b6044820152606490fd5b600080fd5b634e487b7160e01b600052604160045260246000fd5b51906001600160a01b038216820361025757565b51906001600160401b03821682036102575756fe6080604052600436101561001257600080fd5b60003560e01c80630a17b06b1461048657806338af3eed1461044157806379203dc4146104065780638341ee72146103c257806386d1a69f1461019d578063961325211461017f5780639acba2af1461013b578063be9a6555146100f7578063fbccedae146100d45763fc0c546a1461008a57600080fd5b346100cf5760003660031901126100cf576040517f00000000000000000000000000000000000000000000000000000000000000006001600160a01b03168152602090f35b600080fd5b346100cf5760003660031901126100cf5760206100ef610651565b604051908152f35b346100cf5760003660031901126100cf5760206040516001600160401b037f0000000000000000000000000000000000000000000000000000000000000000168152f35b346100cf5760003660031901126100cf5760206040516001600160401b037f0000000000000000000000000000000000000000000000000000000000000000168152f35b346100cf5760003660031901126100cf576020600054604051908152f35b346100cf5760003660031901126100cf577f00000000000000000000000000000000000000000000000000000000000000006001600160a01b03163381900361038b576101e8610651565b9081156103515760005482810180911161033b576000556040519063a9059cbb60e01b82526004820152816024820152602081604481600060018060a01b037f0000000000000000000000000000000000000000000000000000000000000000165af190811561032f576000916102c4575b501561028d5760207ffb81f9b30d73d830c3544b34d827c08142579ee75710b490bab0b3995468c56591604051908152a1005b60405162461bcd60e51b815260206004820152600f60248201526e1d1c985b9cd9995c8819985a5b1959608a1b6044820152606490fd5b60203d602011610328575b601f8101601f191682016001600160401b0381118382101761031457602091839160405281010312610310575190811515820361030d57508261025a565b80fd5b5080fd5b634e487b7160e01b84526041600452602484fd5b503d6102cf565b6040513d6000823e3d90fd5b634e487b7160e01b600052601160045260246000fd5b60405162461bcd60e51b81526020600482015260126024820152716e6f7468696e6720746f2072656c6561736560701b6044820152606490fd5b60405162461bcd60e51b815260206004820152600f60248201526e6e6f742062656e656669636961727960881b6044820152606490fd5b346100cf5760003660031901126100cf5760206040516001600160401b037f0000000000000000000000000000000000000000000000000000000000000000168152f35b346100cf5760003660031901126100cf5760206040517f00000000000000000000000000000000000000000000000000000000000000008152f35b346100cf5760003660031901126100cf576040517f00000000000000000000000000000000000000000000000000000000000000006001600160a01b03168152602090f35b346100cf5760203660031901126100cf576004356001600160401b03811681036100cf576100ef6020916104f5565b906001600160401b03809116911601906001600160401b03821161033b57565b906001600160401b03809116911603906001600160401b03821161033b57565b7f00000000000000000000000000000000000000000000000000000000000000007f000000000000000000000000000000000000000000000000000000000000000061054181836104b5565b916001600160401b0384166001600160401b0384168110610647576001600160401b0361058f7f000000000000000000000000000000000000000000000000000000000000000080946104b5565b16111561061f576001600160401b03916105a8916104d5565b169182156105f8576001600160401b03916105c2916104d5565b167f000000000000000000000000000000000000000000000000000000000000000081810291818304149015171561033b570490565b5050507f000000000000000000000000000000000000000000000000000000000000000090565b505050507f000000000000000000000000000000000000000000000000000000000000000090565b5050505050600090565b6106636001600160401b0342166104f5565b6000548082111561067a57810390811161033b5790565b505060009056fea26469706673582212204e06a40b16ec01284a16c303f50834bbcf51615915c3292eb6b9b46df7e45d9164736f6c634300081c003367226bacccef969dab310a9e55dc1cf821363658e433fd330344f5cc00c79ac8a2646970667358221220e426444efe753a67f6512169c04c380f98c2dc45fe96b3731f550bd8f4768c8864736f6c634300081c0033",
  "linkReferences": {},
  "deployedLinkReferences": {}
}