{
  "_format": "hh-sol-artifact-1",
  "contractName": "AdvancedLaunchToken",
  "sourceName": "contracts/launch/AdvancedLaunchToken.sol",
  "abi": [
    {
      "inputs": [
        {
          "internalType": "address",
          "name": "initialOwner",
          "type": "address"
        },
        {
          "internalType": "string",
          "name": "tokenName",
          "type": "string"
        },
        {
          "internalType": "string",
          "name": "tokenSymbol",
          "type": "string"
        },
        {
          "internalType": "uint8",
          "name": "tokenDecimals",
          "type": "uint8"
        },
        {
          "internalType": "uint256",
          "name": "initialSupply",
          "type": "uint256"
        },
        {
          "internalType": "address",
          "name": "marketingWallet_",
          "type": "address"
        }
      ],
      "stateMutability": "nonpayable",
      "type": "constructor"
    },
    {
      "anonymous": false,
      "inputs": [
        {
          "indexed": true,
          "internalType": "address",
          "name": "account",
          "type": "address"
        },
        {
          "indexed": false,
          "internalType": "bool",
          "name": "whitelisted",
          "type": "bool"
        },
        {
          "indexed": false,
          "internalType": "bool",
          "name": "blacklisted",
          "type": "bool"
        },
        {
          "indexed": false,
          "internalType": "bool",
          "name": "excludedFees",
          "type": "bool"
        },
        {
          "indexed": false,
          "internalType": "bool",
          "name": "excludedLimits",
          "type": "bool"
        }
      ],
      "name": "AddressFlagsUpdated",
      "type": "event"
    },
    {
      "anonymous": false,
      "inputs": [
        {
          "indexed": true,
          "internalType": "address",
          "name": "owner",
          "type": "address"
        },
        {
          "indexed": true,
          "internalType": "address",
          "name": "spender",
          "type": "address"
        },
        {
          "indexed": false,
          "internalType": "uint256",
          "name": "value",
          "type": "uint256"
        }
      ],
      "name": "Approval",
      "type": "event"
    },
    {
      "anonymous": false,
      "inputs": [
        {
          "indexed": false,
          "internalType": "string",
          "name": "side",
          "type": "string"
        },
        {
          "indexed": false,
          "internalType": "uint16",
          "name": "marketingBps",
          "type": "uint16"
        },
        {
          "indexed": false,
          "internalType": "uint16",
          "name": "liquidityBps",
          "type": "uint16"
        },
        {
          "indexed": false,
          "internalType": "uint16",
          "name": "burnBps",
          "type": "uint16"
        },
        {
          "indexed": false,
          "internalType": "uint16",
          "name": "totalBps",
          "type": "uint16"
        }
      ],
      "name": "FeesUpdated",
      "type": "event"
    },
    {
      "anonymous": false,
      "inputs": [
        {
          "indexed": false,
          "internalType": "uint256",
          "name": "maxGasPriceWei",
          "type": "uint256"
        },
        {
          "indexed": false,
          "internalType": "uint256",
          "name": "deadBlocks",
          "type": "uint256"
        },
        {
          "indexed": false,
          "internalType": "bool",
          "name": "revertEarlyBuys",
          "type": "bool"
        },
        {
          "indexed": false,
          "internalType": "uint256",
          "name": "maxTxAmount",
          "type": "uint256"
        },
        {
          "indexed": false,
          "internalType": "uint256",
          "name": "maxWalletAmount",
          "type": "uint256"
        }
      ],
      "name": "LimitsUpdated",
      "type": "event"
    },
    {
      "anonymous": false,
      "inputs": [
        {
          "indexed": true,
          "internalType": "address",
          "name": "wallet",
          "type": "address"
        }
      ],
      "name": "MarketingWalletSet",
      "type": "event"
    },
    {
      "anonymous": false,
      "inputs": [
        {
          "indexed": true,
          "internalType": "address",
          "name": "previousOwner",
          "type": "address"
        },
        {
          "indexed": true,
          "internalType": "address",
          "name": "newOwner",
          "type": "address"
        }
      ],
      "name": "OwnershipTransferred",
      "type": "event"
    },
    {
      "anonymous": false,
      "inputs": [
        {
          "indexed": true,
          "internalType": "address",
          "name": "router",
          "type": "address"
        },
        {
          "indexed": true,
          "internalType": "address",
          "name": "pair",
          "type": "address"
        }
      ],
      "name": "RouterSet",
      "type": "event"
    },
    {
      "anonymous": false,
      "inputs": [
        {
          "indexed": false,
          "internalType": "bool",
          "name": "enabled",
          "type": "bool"
        },
        {
          "indexed": false,
          "internalType": "uint256",
          "name": "swapTokensAtAmount",
          "type": "uint256"
        }
      ],
      "name": "SwapSettingsUpdated",
      "type": "event"
    },
    {
      "anonymous": false,
      "inputs": [
        {
          "indexed": true,
          "internalType": "uint256",
          "name": "launchBlock",
          "type": "uint256"
        },
        {
          "indexed": true,
          "internalType": "address",
          "name": "pair",
          "type": "address"
        }
      ],
      "name": "TradingEnabled",
      "type": "event"
    },
    {
      "anonymous": false,
      "inputs": [
        {
          "indexed": true,
          "internalType": "address",
          "name": "from",
          "type": "address"
        },
        {
          "indexed": true,
          "internalType": "address",
          "name": "to",
          "type": "address"
        },
        {
          "indexed": false,
          "internalType": "uint256",
          "name": "value",
          "type": "uint256"
        }
      ],
      "name": "Transfer",
      "type": "event"
    },
    {
      "inputs": [],
      "name": "BURN_ADDRESS",
      "outputs": [
        {
          "internalType": "address",
          "name": "",
          "type": "address"
        }
      ],
      "stateMutability": "view",
      "type": "function"
    },
    {
      "inputs": [
        {
          "internalType": "address",
          "name": "owner_",
          "type": "address"
        },
        {
          "internalType": "address",
          "name": "spender",
          "type": "address"
        }
      ],
      "name": "allowance",
      "outputs": [
        {
          "internalType": "uint256",
          "name": "",
          "type": "uint256"
        }
      ],
      "stateMutability": "view",
      "type": "function"
    },
    {
      "inputs": [
        {
          "internalType": "address",
          "name": "spender",
          "type": "address"
        },
        {
          "internalType": "uint256",
          "name": "value",
          "type": "uint256"
        }
      ],
      "name": "approve",
      "outputs": [
        {
          "internalType": "bool",
          "name": "",
          "type": "bool"
        }
      ],
      "stateMutability": "nonpayable",
      "type": "function"
    },
    {
      "inputs": [
        {
          "internalType": "address",
          "name": "account",
          "type": "address"
        }
      ],
      "name": "balanceOf",
      "outputs": [
        {
          "internalType": "uint256",
          "name": "",
          "type": "uint256"
        }
      ],
      "stateMutability": "view",
      "type": "function"
    },
    {
      "inputs": [],
      "name": "buyFee",
      "outputs": [
        {
          "internalType": "uint16",
          "name": "marketingBps",
          "type": "uint16"
        },
        {
          "internalType": "uint16",
          "name": "liquidityBps",
          "type": "uint16"
        },
        {
          "internalType": "uint16",
          "name": "burnBps",
          "type": "uint16"
        },
        {
          "internalType": "uint16",
          "name": "totalBps",
          "type": "uint16"
        }
      ],
      "stateMutability": "view",
      "type": "function"
    },
    {
      "inputs": [],
      "name": "deadBlocks",
      "outputs": [
        {
          "internalType": "uint256",
          "name": "",
          "type": "uint256"
        }
      ],
      "stateMutability": "view",
      "type": "function"
    },
    {
      "inputs": [],
      "name": "decimals",
      "outputs": [
        {
          "internalType": "uint8",
          "name": "",
          "type": "uint8"
        }
      ],
      "stateMutability": "view",
      "type": "function"
    },
    {
      "inputs": [],
      "name": "enableTrading",
      "outputs": [],
      "stateMutability": "nonpayable",
      "type": "function"
    },
    {
      "inputs": [
        {
          "internalType": "address",
          "name": "",
          "type": "address"
        }
      ],
      "name": "isBlacklisted",
      "outputs": [
        {
          "internalType": "bool",
          "name": "",
          "type": "bool"
        }
      ],
      "stateMutability": "view",
      "type": "function"
    },
    {
      "inputs": [
        {
          "internalType": "address",
          "name": "",
          "type": "address"
        }
      ],
      "name": "isExcludedFromFees",
      "outputs": [
        {
          "internalType": "bool",
          "name": "",
          "type": "bool"
        }
      ],
      "stateMutability": "view",
      "type": "function"
    },
    {
      "inputs": [
        {
          "internalType": "address",
          "name": "",
          "type": "address"
        }
      ],
      "name": "isExcludedFromLimits",
      "outputs": [
        {
          "internalType": "bool",
          "name": "",
          "type": "bool"
        }
      ],
      "stateMutability": "view",
      "type": "function"
    },
    {
      "inputs": [
        {
          "internalType": "address",
          "name": "",
          "type": "address"
        }
      ],
      "name": "isWhitelisted",
      "outputs": [
        {
          "internalType": "bool",
          "name": "",
          "type": "bool"
        }
      ],
      "stateMutability": "view",
      "type": "function"
    },
    {
      "inputs": [],
      "name": "launchBlock",
      "outputs": [
        {
          "internalType": "uint256",
          "name": "",
          "type": "uint256"
        }
      ],
      "stateMutability": "view",
      "type": "function"
    },
    {
      "inputs": [],
      "name": "manualSwapBack",
      "outputs": [],
      "stateMutability": "nonpayable",
      "type": "function"
    },
    {
      "inputs": [],
      "name": "marketingWallet",
      "outputs": [
        {
          "internalType": "address",
          "name": "",
          "type": "address"
        }
      ],
      "stateMutability": "view",
      "type": "function"
    },
    {
      "inputs": [],
      "name": "maxGasPriceWei",
      "outputs": [
        {
          "internalType": "uint256",
          "name": "",
          "type": "uint256"
        }
      ],
      "stateMutability": "view",
      "type": "function"
    },
    {
      "inputs": [],
      "name": "maxTxAmount",
      "outputs": [
        {
          "internalType": "uint256",
          "name": "",
          "type": "uint256"
        }
      ],
      "stateMutability": "view",
      "type": "function"
    },
    {
      "inputs": [],
      "name": "maxWalletAmount",
      "outputs": [
        {
          "internalType": "uint256",
          "name": "",
          "type": "uint256"
        }
      ],
      "stateMutability": "view",
      "type": "function"
    },
    {
      "inputs": [],
      "name": "name",
      "outputs": [
        {
          "internalType": "string",
          "name": "",
          "type": "string"
        }
      ],
      "stateMutability": "view",
      "type": "function"
    },
    {
      "inputs": [],
      "name": "owner",
      "outputs": [
        {
          "internalType": "address",
          "name": "",
          "type": "address"
        }
      ],
      "stateMutability": "view",
      "type": "function"
    },
    {
      "inputs": [],
      "name": "revertEarlyBuys",
      "outputs": [
        {
          "internalType": "bool",
          "name": "",
          "type": "bool"
        }
      ],
      "stateMutability": "view",
      "type": "function"
    },
    {
      "inputs": [],
      "name": "sellFee",
      "outputs": [
        {
          "internalType": "uint16",
          "name": "marketingBps",
          "type": "uint16"
        },
        {
          "internalType": "uint16",
          "name": "liquidityBps",
          "type": "uint16"
        },
        {
          "internalType": "uint16",
          "name": "burnBps",
          "type": "uint16"
        },
        {
          "internalType": "uint16",
          "name": "totalBps",
          "type": "uint16"
        }
      ],
      "stateMutability": "view",
      "type": "function"
    },
    {
      "inputs": [
        {
          "internalType": "address",
          "name": "account",
          "type": "address"
        },
        {
          "internalType": "bool",
          "name": "whitelisted",
          "type": "bool"
        },
        {
          "internalType": "bool",
          "name": "blacklisted",
          "type": "bool"
        },
        {
          "internalType": "bool",
          "name": "excludedFees",
          "type": "bool"
        },
        {
          "internalType": "bool",
          "name": "excludedLimits",
          "type": "bool"
        }
      ],
      "name": "setAddressFlags",
      "outputs": [],
      "stateMutability": "nonpayable",
      "type": "function"
    },
    {
      "inputs": [
        {
          "internalType": "uint16",
          "name": "marketingBps",
          "type": "uint16"
        },
        {
          "internalType": "uint16",
          "name": "liquidityBps",
          "type": "uint16"
        },
        {
          "internalType": "uint16",
          "name": "burnBps",
          "type": "uint16"
        }
      ],
      "name": "setBuyFees",
      "outputs": [],
      "stateMutability": "nonpayable",
      "type": "function"
    },
    {
      "inputs": [
        {
          "internalType": "uint256",
          "name": "maxGasPriceWei_",
          "type": "uint256"
        },
        {
          "internalType": "uint256",
          "name": "deadBlocks_",
          "type": "uint256"
        },
        {
          "internalType": "bool",
          "name": "revertEarlyBuys_",
          "type": "bool"
        },
        {
          "internalType": "uint256",
          "name": "maxTxAmount_",
          "type": "uint256"
        },
        {
          "internalType": "uint256",
          "name": "maxWalletAmount_",
          "type": "uint256"
        }
      ],
      "name": "setLimits",
      "outputs": [],
      "stateMutability": "nonpayable",
      "type": "function"
    },
    {
      "inputs": [
        {
          "internalType": "address",
          "name": "wallet",
          "type": "address"
        }
      ],
      "name": "setMarketingWallet",
      "outputs": [],
      "stateMutability": "nonpayable",
      "type": "function"
    },
    {
      "inputs": [
        {
          "internalType": "address",
          "name": "router",
          "type": "address"
        }
      ],
      "name": "setRouter",
      "outputs": [],
      "stateMutability": "nonpayable",
      "type": "function"
    },
    {
      "inputs": [
        {
          "internalType": "uint16",
          "name": "marketingBps",
          "type": "uint16"
        },
        {
          "internalType": "uint16",
          "name": "liquidityBps",
          "type": "uint16"
        },
        {
          "internalType": "uint16",
          "name": "burnBps",
          "type": "uint16"
        }
      ],
      "name": "setSellFees",
      "outputs": [],
      "stateMutability": "nonpayable",
      "type": "function"
    },
    {
      "inputs": [
        {
          "internalType": "bool",
          "name": "enabled",
          "type": "bool"
        },
        {
          "internalType": "uint256",
          "name": "thresholdTokens",
          "type": "uint256"
        }
      ],
      "name": "setSwapSettings",
      "outputs": [],
      "stateMutability": "nonpayable",
      "type": "function"
    },
    {
      "inputs": [],
      "name": "swapEnabled",
      "outputs": [
        {
          "internalType": "bool",
          "name": "",
          "type": "bool"
        }
      ],
      "stateMutability": "view",
      "type": "function"
    },
    {
      "inputs": [],
      "name": "swapTokensAtAmount",
      "outputs": [
        {
          "internalType": "uint256",
          "name": "",
          "type": "uint256"
        }
      ],
      "stateMutability": "view",
      "type": "function"
    },
    {
      "inputs": [],
      "name": "symbol",
      "outputs": [
        {
          "internalType": "string",
          "name": "",
          "type": "string"
        }
      ],
      "stateMutability": "view",
      "type": "function"
    },
    {
      "inputs": [],
      "name": "totalSupply",
      "outputs": [
        {
          "internalType": "uint256",
          "name": "",
          "type": "uint256"
        }
      ],
      "stateMutability": "view",
      "type": "function"
    },
    {
      "inputs": [],
      "name": "tradingEnabled",
      "outputs": [
        {
          "internalType": "bool",
          "name": "",
          "type": "bool"
        }
      ],
      "stateMutability": "view",
      "type": "function"
    },
    {
      "inputs": [
        {
          "internalType": "address",
          "name": "to",
          "type": "address"
        },
        {
          "internalType": "uint256",
          "name": "value",
          "type": "uint256"
        }
      ],
      "name": "transfer",
      "outputs": [
        {
          "internalType": "bool",
          "name": "",
          "type": "bool"
        }
      ],
      "stateMutability": "nonpayable",
      "type": "function"
    },
    {
      "inputs": [
        {
          "internalType": "address",
          "name": "from",
          "type": "address"
        },
        {
          "internalType": "address",
          "name": "to",
          "type": "address"
        },
        {
          "internalType": "uint256",
          "name": "value",
          "type": "uint256"
        }
      ],
      "name": "transferFrom",
      "outputs": [
        {
          "internalType": "bool",
          "name": "",
          "type": "bool"
        }
      ],
      "stateMutability": "nonpayable",
      "type": "function"
    },
    {
      "inputs": [
        {
          "internalType": "address",
          "name": "newOwner",
          "type": "address"
        }
      ],
      "name": "transferOwnership",
      "outputs": [],
      "stateMutability": "nonpayable",
      "type": "function"
    },
    {
      "inputs": [],
      "name": "uniswapV2Pair",
      "outputs": [
        {
          "internalType": "address",
          "name": "",
          "type": "address"
        }
      ],
      "stateMutability": "view",
      "type": "function"
    },
    {
      "inputs": [],
      "name": "uniswapV2Router",
      "outputs": [
        {
          "internalType": "contract IUniswapV2Router02",
          "name": "",
          "type": "address"
        }
      ],
      "stateMutability": "view",
      "type": "function"
    },
    {
      "stateMutability": "payable",
      "type": "receive"
    }
  ],
  "bytecode": "0x60406080815234620005f9576200273590813803806200001f8162000634565b93843982019160c081840312620005f9576200003b816200065a565b60208083015191926001600160401b0392838111620005f95786620000629183016200066f565b958582015190848211620005f9576200007d9183016200066f565b9560608201519460ff8616809603620005f957620000a360a0608085015194016200065a565b6001600160a01b03918216969092908715620005b55760018060a01b03199060009789838a54161789558a51938a8a7f8be0079c531659141344cd1fd0a4f28419497f9722a3daafe3b4186f6b6457e08180a3600160a01b60ff60a01b19600d541617600d5560019560ff199787896012541617601255169485156200057357508051908282116200055f5786548781811c9116801562000554575b8b82101462000540579180918b8d94601f8096818311620004e5575b92505050508b908d8584116001146200047f579262000473575b5050600019600383901b1c191690871b1786555b8c519182116200045f576002548681811c9116801562000454575b8a8210146200044057818111620003f7575b50889082116001146200037c579080859493928b9c9d9e600080516020620027158339815191529c9262000370575b5050600019600383901b1c191690861b176002555b856003541617600355600d541617600d556127108404600e5586606062000220620005fe565b8281528288820152828c820152015261019060606200023e620005fe565b60c8815260c888820152898c82015201526702580000012c012c60018060401b0319670190000000c800c881600b541617600b558860608c8262000281620005fe565b91818352818c840152820152015261025860608c8b620002a0620005fe565b9161012c8084528c8401528201520152600c541617600c5587875260178552888720828482541617905530875288872082848254161790558087528887208284825416179055878752601885528887208284825416179055308752888720828482541617905586528786208183825416179055868652601584528786208183825416179055308652878620918254161790556200034081600454620006e1565b600455848452600582528584206200035a828254620006e1565b90558551908152a35161200f9081620007068239f35b015190503880620001e5565b60028a52888a2090601f1983168b5b818110620003e15750918391600080516020620027158339815191529c9d9e9f889796958a9510620003c7575b505050811b01600255620001fa565b015160001960f88460031b161c19169055388080620003b8565b8f830151845592880192918b01918b016200038b565b60028b52898b208280850160051c8201928c861062000436575b0160051c019087905b8281106200042a575050620001b6565b8c81550187906200041a565b9250819262000411565b634e487b7160e01b8b52602260045260248bfd5b90607f1690620001a4565b634e487b7160e01b8a52604160045260248afd5b01519050388062000175565b8a81528d81208b9550929190601f198516908f5b828210620004cd5750508411620004b3575b505050811b01865562000189565b015160001960f88460031b161c19169055388080620004a5565b8385015186558d979095019493840193018f62000493565b839495508c819492939452209181860160051c830193861062000536575b859493910160051c909101908a908f5b83821062000527578f93508791506200015b565b81558594508b91018f62000513565b9250819262000503565b634e487b7160e01b8c52602260045260248cfd5b90607f16906200013f565b634e487b7160e01b8b52604160045260248bfd5b62461bcd60e51b8152600481018a9052601460248201527f6d61726b6574696e672077616c6c6574203d20300000000000000000000000006044820152606490fd5b885162461bcd60e51b815260048101879052601360248201527f4f776e61626c653a207a65726f206f776e6572000000000000000000000000006044820152606490fd5b600080fd5b60405190608082016001600160401b038111838210176200061e57604052565b634e487b7160e01b600052604160045260246000fd5b6040519190601f01601f191682016001600160401b038111838210176200061e57604052565b51906001600160a01b0382168203620005f957565b919080601f84011215620005f95782516001600160401b0381116200061e57602090620006a5601f8201601f1916830162000634565b92818452828287010111620005f95760005b818110620006cd57508260009394955001015290565b8581018301518482018401528201620006b7565b91908201809211620006ef57565b634e487b7160e01b600052601160045260246000fdfe6080604081815260049182361015610022575b505050361561002057600080fd5b005b600092833560e01c91826306fdde031461119357508163095ea7b3146111695781631694505e1461114057816318160ddd1461112257816323b872dd146110315781632b14ca5614610fe55781632fc0580614610fc1578163313ce56714610f9f5781633af32abf14610f615781634706240214610f1557816349bd5a5e14610eec5781634ada218b14610ec85781634fbee19314610e8a5781635cce86cd14610e4c5781635d098b3814610d7957816366eb378514610ce95781636951a07914610beb5781636ddd171314610bc457816370a0823114610b8c57816375f0a87414610b635781638a8c523c14610a735781638c0b5e2214610a545781638da5cb5b14610a2c57816392c818d61461090357816395d89b41146108005781639f52256b14610761578163a9059cbb14610730578163aa4bde2814610711578163c0d7865514610534578163d00efb2f14610515578163d0e1032614610492578163dd62ed3e14610449578163e2f456051461042a578163ef3881c81461040b578163f2fde38b1461035d578163fabb0b4f1461033e578163fc6c2bda1461023b57508063fccc28131461021f5763fe575a87146101df5780610012565b3461021b57602036600319011261021b5760209160ff9082906001600160a01b036102086112e9565b1681526016855220541690519015158152f35b5080fd5b503461021b578160031936011261021b576020905161dead8152f35b9190503461033a57606036600319011261033a577f78a2b7c85fd401563e8af374883543c3ee4188df1c66fc71232dbb7e7ffdb1029160e09161027c61131a565b61028461132b565b9161028d61133c565b6102a160018060a01b03895416331461135c565b6102ac818585611b2c565b9161ffff80958185818097511690600c549163ffff0000602083015160101b169067ffff000000000000606065ffff000000008a86015160201b1694015160301b169367ffffffffffffffff1916171717179687600c5584519960a08b5260a08b0152631cd95b1b60e21b60c08b0152166020890152169086015216606084015260301c166080820152a180f35b8280fd5b50503461021b578160031936011261021b576020906011549051908152f35b90503461033a57602036600319011261033a576103786112e9565b8354916001600160a01b038084169261039233851461135c565b169384156103d257505082907f8be0079c531659141344cd1fd0a4f28419497f9722a3daafe3b4186f6b6457e08580a36001600160a01b03191617815580f35b906020606492519162461bcd60e51b8352820152601360248201527227bbb730b136329d103d32b9379037bbb732b960691b6044820152fd5b50503461021b578160031936011261021b576020906010549051908152f35b50503461021b578160031936011261021b57602090600e549051908152f35b50503461021b578060031936011261021b57806020926104676112e9565b61046f611304565b6001600160a01b0391821683526006865283832091168252845220549051908152f35b90503461033a578160031936011261033a57359081151580920361033a577f06983cb19592d7d4eb4aedd54adc3fb1cd55c1f3cc43ad1bd64f8bc885933ce2916024356104e960018060a01b03865416331461135c565b600d805460ff60a01b191660a084901b60ff60a01b16179055600e81905582519182526020820152a180f35b50503461021b578160031936011261021b576020906008549051908152f35b9190503461033a576020908160031936011261070d576105526112e9565b84546001600160a01b039391849161056d908316331461135c565b169283156106df57600a80546001600160a01b03199081168617909155835163c45a015560e01b8152909583828281895afa9182156106d55788926106b6575b5084516315ab88c960e31b81529088858383818b5afa9283156106aa57918186809694899661068a575b50604493948a5197889687956364e329cb60e11b87523090870152166024850152165af1908115610680579060189392918891610653575b501680956009541617600955848652528320600160ff198254161790557f8ab4cea230ab04f96aaa9a71fbc4bfa98097c7b9f07e06be33868b500f8100288380a380f35b6106739150833d8511610679575b61066b818361127e565b81019061139d565b3861060f565b503d610661565b84513d89823e3d90fd5b604494506106a490873d89116106795761066b818361127e565b936105d7565b508651903d90823e3d90fd5b6106ce919250843d86116106795761066b818361127e565b90386105ad565b85513d8a823e3d90fd5b825162461bcd60e51b815280860183905260086024820152670726f757465723d360c41b6044820152606490fd5b8380fd5b50503461021b578160031936011261021b576020906014549051908152f35b50503461021b578060031936011261021b5760209061075a6107506112e9565b60243590336114d7565b5160018152f35b90503461033a5760a036600319011261033a577f030be12a58949831a2ba360cd4c740f0f9277275d25bb2cc31c3656d170fc5c99160a0913590602435906107a761134d565b9160643591608435936107c3600180891b038a5416331461135c565b856010558260115515159160ff196012541660ff84161760125583601355846014558151958652602086015284015260608301526080820152a180f35b9190503461033a578260031936011261033a57805191836002549060019082821c9282811680156108f9575b60209586861082146108e657508488529081156108c4575060011461086b575b610867868661085d828b038361127e565b51918291826112a0565b0390f35b929550600283527f405787fa12a823e0f2b7631cc41b3ba8828b3321ca811111fa75cd3aa3bb5ace5b8284106108b157505050826108679461085d92820101943861084c565b8054868501880152928601928101610894565b60ff191687860152505050151560051b830101925061085d826108673861084c565b634e487b7160e01b845260229052602483fd5b93607f169361082c565b50503461021b5760a036600319011261021b5761091e6112e9565b906024359182151591828403610a285761093661134d565b906064359182151592838103610a24576084359081151595868303610a205789546001600160a01b03919061096e908316331461135c565b1697888a526015602052848a2090610991919060ff801983541691151516179055565b6016602052838920805460ff191660ff851515161790556017602052838920906109c6919060ff801983541691151516179055565b6018602052828820906109e4919060ff801983541691151516179055565b815194855215156020850152830152606082015260807f5de6654a95655d8559604b64d6a2547ab79693a81033f89fd08e7fb3d0d7b39a91a280f35b8980fd5b8780fd5b8480fd5b50503461021b578160031936011261021b57905490516001600160a01b039091168152602090f35b50503461021b578160031936011261021b576020906013549051908152f35b90503461033a578260031936011261033a5782546001600160a01b039190610a9e908316331461135c565b6007549160ff8316610b205760095416928315610aee57505060ff19166001176007554360088190557fb0153a1d634c9f6da118c6950a6689cff830da150b9872b291e7a8d815316bb78380a380f35b906020606492519162461bcd60e51b8352820152600c60248201526b1c185a5c881b9bdd081cd95d60a21b6044820152fd5b835162461bcd60e51b8152602081840152601760248201527f74726164696e6720616c726561647920656e61626c65640000000000000000006044820152606490fd5b50503461021b578160031936011261021b57600d5490516001600160a01b039091168152602090f35b50503461021b57602036600319011261021b5760209181906001600160a01b03610bb46112e9565b1681526005845220549051908152f35b50503461021b578160031936011261021b5760209060ff600d5460a01c1690519015158152f35b50503461021b57606036600319011261021b5760e07f78a2b7c85fd401563e8af374883543c3ee4188df1c66fc71232dbb7e7ffdb10291610c2a61131a565b90610c3361132b565b610c3b61133c565b610c4f60018060a01b03885416331461135c565b610c5a818386611b2c565b9061ffff938483818095511690600b549163ffff0000602083015160101b169067ffff000000000000606065ffff000000008886015160201b1694015160301b169367ffffffffffffffff1916171717179485600b558183519860a08a52600360a08b01526262757960e81b60c08b0152166020890152169086015216606084015260301c166080820152a180f35b9190503461033a578260031936011261033a578254336001600160a01b0391821614908115610d6b575b5015610d3a578260ff19600181600f541617600f55610d30611bd6565b600f5416600f5580f35b906020606492519162461bcd60e51b8352820152600b60248201526a1b9bdd08185b1b1bddd95960aa1b6044820152fd5b9050600d5416331438610d13565b9190503461033a57602036600319011261033a57610d956112e9565b83546001600160a01b039190610dae908316331461135c565b16918215610e1f5750816bffffffffffffffffffffffff60a01b600d541617600d55818352601760205260018184209160ff1992828482541617905560186020528420918254161790557ff86e3c0cc66159379bdf420884b6f4be3aa4fb93284e88c539c61ba300646a748280a280f35b6020606492519162461bcd60e51b83528201526008602482015267077616c6c65743d360c41b6044820152fd5b50503461021b57602036600319011261021b5760209160ff9082906001600160a01b03610e776112e9565b1681526018855220541690519015158152f35b50503461021b57602036600319011261021b5760209160ff9082906001600160a01b03610eb56112e9565b1681526017855220541690519015158152f35b50503461021b578160031936011261021b5760209060ff6007541690519015158152f35b50503461021b578160031936011261021b5760095490516001600160a01b039091168152602090f35b50503461021b578160031936011261021b57600b54905161ffff8083168252601083901c811660208084019190915283901c8116604083015260309290921c9091166060820152608090f35b50503461021b57602036600319011261021b5760209160ff9082906001600160a01b03610f8c6112e9565b1681526015855220541690519015158152f35b50503461021b578160031936011261021b5760209060ff600354169051908152f35b50503461021b578160031936011261021b5760209060ff6012541690519015158152f35b50503461021b578160031936011261021b57600c54905161ffff8083168252601083901c811660208084019190915283901c8116604083015260309290921c9091166060820152608090f35b9190503461033a57606036600319011261033a5761104d6112e9565b611055611304565b6044359160018060a01b03811680875260209560068752858820338952875285882054908582106110df575094878561075a9784849a9b5260068b528383203384528b52038282205582815260068952818120338252895220549086519182527f8c5be1e5ebec7d5bd14f71427d1e84f3dd0314c0f7b2291e5b200ac8c7c3b925883393a36114d7565b865162461bcd60e51b8152908101889052601d60248201527f45524332303a20696e73756666696369656e7420616c6c6f77616e63650000006044820152606490fd5b90503461033a578260031936011261033a5760209250549051908152f35b50503461021b578160031936011261021b57600a5490516001600160a01b039091168152602090f35b50503461021b578060031936011261021b5760209061075a6111896112e9565b60243590336113fe565b9291503461070d578360031936011261070d5783600180549182821c928281168015611242575b60209586861082146108e657508488529081156108c457506001146111ea57610867868661085d828b038361127e565b9295508083527fb10e2d527612073b26eecdfd717e6a320cf44b4afac2b0732d9fcbe2b7fa0cf65b82841061122f57505050826108679461085d92820101943861084c565b8054868501880152928601928101611212565b93607f16936111ba565b6080810190811067ffffffffffffffff82111761126857604052565b634e487b7160e01b600052604160045260246000fd5b90601f8019910116810190811067ffffffffffffffff82111761126857604052565b6020808252825181830181905290939260005b8281106112d557505060409293506000838284010152601f8019910116010190565b8181018601518482016040015285016112b3565b600435906001600160a01b03821682036112ff57565b600080fd5b602435906001600160a01b03821682036112ff57565b6004359061ffff821682036112ff57565b6024359061ffff821682036112ff57565b6044359061ffff821682036112ff57565b6044359081151582036112ff57565b1561136357565b60405162461bcd60e51b815260206004820152601260248201527127bbb730b136329d103737ba1037bbb732b960711b6044820152606490fd5b908160209103126112ff57516001600160a01b03811681036112ff5790565b156113c357565b60405162461bcd60e51b815260206004820152601360248201527245524332303a207a65726f206164647265737360681b6044820152606490fd5b90916001600160a01b03918216917f8c5be1e5ebec7d5bd14f71427d1e84f3dd0314c0f7b2291e5b200ac8c7c3b9259160209184151580611469575b611443906113bc565b8460005260068352604060002095169485600052825280604060002055604051908152a3565b50858116151561143a565b9190820180921161148157565b634e487b7160e01b600052601160045260246000fd5b8181029291811591840414171561148157565b81156114b4570490565b634e487b7160e01b600052601260045260246000fd5b9190820391821161148157565b9192916001600160a01b039081169081151580611b0b575b6114f8906113bc565b60008281526020916016835260ff916040908382822054161580611af9575b15611ac75760105480151580611aa4575b611a5f575b5083600754169283156119fc575b8060095416998a881498896119eb575b8216988b8a1495806119e0575b806119d9575b806119c5575b611961575b888452601888528685852054161580611951575b611878575b8884526005968789528585205493838510611834577fddf252ad1be2c89b69c2b068fc378daa952ba7f163c4a11628f55a4df523b3ef9a9b9c9d600f5491838316159182611825575b8261181d575b82611813575b5081611805575b50806117fa575b806117e5575b6117c4575b50829681600f54161591826117af575b8261179a575b5081611781575b5061163c575b505092829381958984528752038282205587815220611633838254611474565b905551908152a3565b156117785786600b915b8551926116528461124c565b5492606061ffff85818097168452818160101c168685015281818b8601971c16865260301c169101908082528061168c575b505050611613565b6116996127109184611497565b049182156116845787985090846116c66116bb856116cf959d9799989d6114ca565b9b8c98511685611497565b915116906114aa565b8061172b575b50806116e6575b8197968394611684565b9091816116f2916114ca565b8a85528289528585205530845284842061170d828254611474565b905584519081528989893093a38883528087528383205490386116dc565b6117398161177293956114ca565b8c8752838b528787205561dead808752878720611757838254611474565b90558c8c8c8a51858152a38b8652828a5286862054936114ca565b386116d5565b86600c91611646565b8291508115611792575b503861160d565b90503861178b565b8d875260178b52878720541615915038611606565b8c875260178b52878720548116159250611600565b60ff19908116600117600f556117d8611bd6565b600f5416600f55386115f0565b50308652888a5286862054600e5411156115eb565b50600e5415156115e5565b9050600a54161515386115de565b15159150386115d7565b8a92506115d1565b600d5460a01c851692506115cb565b865162461bcd60e51b8152600481018b9052601f60248201527f45524332303a207472616e7366657220657863656564732062616c616e6365006044820152606490fd5b60135480151580611943575b611901575b50601454801515806118fa575b6118a1575b50611582565b8a8552600589526118b58387872054611474565b116118c0573861189b565b845162461bcd60e51b815260048101899052601360248201527213585e081dd85b1b195d08195e18d959591959606a1b6044820152606490fd5b5081611896565b821161190d5738611889565b845162461bcd60e51b815260048101899052600f60248201526e13585e081d1e08195e18d959591959608a1b6044820152606490fd5b508182611884575086611884565b508984528685852054161561157d565b61197060085460115490611474565b4310156115695786601254161561156957845162461bcd60e51b815260048101899052601a60248201527f416e7469426f743a206561726c792062757920626c6f636b65640000000000006044820152606490fd5b508984526015885286858520541615611564565b508061155e565b506011541515611558565b600a5483168184161415995061154b565b868252601586528483832054168015611a4e575b61153b57825162461bcd60e51b8152600481018790526013602482015272151c98591a5b99c81b9bdd08195b98589b1959606a1b6044820152606490fd5b508088168252848383205416611a10565b3a11611a6b573861152d565b815162461bcd60e51b815260048101869052601260248201527108ec2e640e0e4d2c6ca40e8dede40d0d2ced60731b6044820152606490fd5b508360095416808814908115611abb575b50611528565b90508489161438611ab5565b815162461bcd60e51b815260048101869052600b60248201526a109b1858dadb1a5cdd195960aa1b6044820152606490fd5b50828716815283828220541615611517565b5082811615156114ef565b91909161ffff8080941691160191821161148157565b9160006060604051611b3d8161124c565b828152826020820152826040820152015261ffff9081611b6682611b618688611b16565b611b16565b16926107d08411611b985782908160405196611b818861124c565b168652166020850152166040830152606082015290565b60405162461bcd60e51b815260206004820152601660248201527546656520746f6f206869676820286d6178203230252960501b6044820152606490fd5b6000308152600560205260408120548015611fd557600a546001600160a01b03168015611fd0576009546001600160a01b031615611fd057600c5461ffff808260301c168015611efe57611c35611c3a92611c419460101c1686611497565b6114aa565b80936114ca565b91611c63611c5b611c558360011c846114ca565b85611474565b8093306113fe565b60405191476060840167ffffffffffffffff811185821017611fbc576040526002845260208401936040368637805115611fa857308552600a546040516315ab88c960e31b81526004966001600160a01b0390921691906020818981865afa908115611f9d578a91611f7e575b50835160011015611f6b576001600160a01b03166040840152813b15611f675791889160405193849263791ac94760e01b845260a4840190888b86015285602486015260a060448601525180915260c484019190855b818110611f42575050508383809230606483015242608483015203925af18015611f3757611f06575b50611d5a90476114ca565b8015611efe578591829581611ee2575b505084611d76916114ca565b9380151580611ece575b611e61575b50508060011c151580611e58575b611d9e575b50505050565b60c4606092611dbb8360011c60018060a01b03600a5416306113fe565b600a54865460405163f305d71960e01b8152309381019390935260019490941c602483015260448201879052606482018790526001600160a01b0393841660848301524260a4830152909485938492165af18015611e4d57611e1f575b8080611d98565b606090813d8111611e46575b611e35818361127e565b81010312611e435780611e18565b80fd5b503d611e2b565b6040513d84823e3d90fd5b50821515611d93565b600d54829182918291906001600160a01b03165af1503d15611ec9573d67ffffffffffffffff8111611eb65760405190611ea5601f8201601f19166020018361127e565b81528460203d92013e5b8338611d85565b634e487b7160e01b855260418352602485fd5b611eaf565b50600d546001600160a01b03161515611d80565b82965090611c35611ef692611d7694611497565b949038611d6a565b505050505050565b67ffffffffffffffff8197929711611f245760405294611d5a611d4f565b634e487b7160e01b825260418552602482fd5b6040513d89823e3d90fd5b82516001600160a01b031684528d965087955060209384019390920191600101611d26565b8880fd5b634e487b7160e01b8a526032885260248afd5b611f97915060203d6020116106795761066b818361127e565b38611cd0565b6040513d8c823e3d90fd5b634e487b7160e01b87526032600452602487fd5b634e487b7160e01b87526041600452602487fd5b505050565b505056fea264697066735822122064199eb12f7e4f1f338ff6470ecb1d89258faa796e669459eb9d82216dac7b5464736f6c63430008140033ddf252ad1be2c89b69c2b068fc378daa952ba7f163c4a11628f55a4df523b3ef",
  "linkReferences": {},
  "deployedLinkReferences": {}
}