{
  "_format": "hh-sol-artifact-1",
  "contractName": "AdvancedLaunchToken",
  "sourceName": "contracts/launch/AdvancedLaunchToken.sol",
  "abi": [
    {
      "inputs": [
        {
          "internalType": "address",
          "name": "initialOwner",
          "type": "address"
        },
        {
          "internalType": "string",
          "name": "tokenName",
          "type": "string"
        },
        {
          "internalType": "string",
          "name": "tokenSymbol",
          "type": "string"
        },
        {
          "internalType": "uint8",
          "name": "tokenDecimals",
          "type": "uint8"
        },
        {
          "internalType": "uint256",
          "name": "initialSupply",
          "type": "uint256"
        },
        {
          "internalType": "address",
          "name": "marketingWallet_",
          "type": "address"
        }
      ],
      "stateMutability": "nonpayable",
      "type": "constructor"
    },
    {
      "anonymous": false,
      "inputs": [
        {
          "indexed": true,
          "internalType": "address",
          "name": "account",
          "type": "address"
        },
        {
          "indexed": false,
          "internalType": "bool",
          "name": "whitelisted",
          "type": "bool"
        },
        {
          "indexed": false,
          "internalType": "bool",
          "name": "blacklisted",
          "type": "bool"
        },
        {
          "indexed": false,
          "internalType": "bool",
          "name": "excludedFees",
          "type": "bool"
        },
        {
          "indexed": false,
          "internalType": "bool",
          "name": "excludedLimits",
          "type": "bool"
        }
      ],
      "name": "AddressFlagsUpdated",
      "type": "event"
    },
    {
      "anonymous": false,
      "inputs": [
        {
          "indexed": true,
          "internalType": "address",
          "name": "owner",
          "type": "address"
        },
        {
          "indexed": true,
          "internalType": "address",
          "name": "spender",
          "type": "address"
        },
        {
          "indexed": false,
          "internalType": "uint256",
          "name": "value",
          "type": "uint256"
        }
      ],
      "name": "Approval",
      "type": "event"
    },
    {
      "anonymous": false,
      "inputs": [
        {
          "indexed": false,
          "internalType": "string",
          "name": "side",
          "type": "string"
        },
        {
          "indexed": false,
          "internalType": "uint16",
          "name": "marketingBps",
          "type": "uint16"
        },
        {
          "indexed": false,
          "internalType": "uint16",
          "name": "liquidityBps",
          "type": "uint16"
        },
        {
          "indexed": false,
          "internalType": "uint16",
          "name": "burnBps",
          "type": "uint16"
        },
        {
          "indexed": false,
          "internalType": "uint16",
          "name": "totalBps",
          "type": "uint16"
        }
      ],
      "name": "FeesUpdated",
      "type": "event"
    },
    {
      "anonymous": false,
      "inputs": [
        {
          "indexed": false,
          "internalType": "uint256",
          "name": "maxGasPriceWei",
          "type": "uint256"
        },
        {
          "indexed": false,
          "internalType": "uint256",
          "name": "deadBlocks",
          "type": "uint256"
        },
        {
          "indexed": false,
          "internalType": "bool",
          "name": "revertEarlyBuys",
          "type": "bool"
        },
        {
          "indexed": false,
          "internalType": "uint256",
          "name": "maxTxAmount",
          "type": "uint256"
        },
        {
          "indexed": false,
          "internalType": "uint256",
          "name": "maxWalletAmount",
          "type": "uint256"
        }
      ],
      "name": "LimitsUpdated",
      "type": "event"
    },
    {
      "anonymous": false,
      "inputs": [
        {
          "indexed": true,
          "internalType": "address",
          "name": "wallet",
          "type": "address"
        }
      ],
      "name": "MarketingWalletSet",
      "type": "event"
    },
    {
      "anonymous": false,
      "inputs": [
        {
          "indexed": true,
          "internalType": "address",
          "name": "previousOwner",
          "type": "address"
        },
        {
          "indexed": true,
          "internalType": "address",
          "name": "newOwner",
          "type": "address"
        }
      ],
      "name": "OwnershipTransferred",
      "type": "event"
    },
    {
      "anonymous": false,
      "inputs": [
        {
          "indexed": true,
          "internalType": "address",
          "name": "router",
          "type": "address"
        },
        {
          "indexed": true,
          "internalType": "address",
          "name": "pair",
          "type": "address"
        }
      ],
      "name": "RouterSet",
      "type": "event"
    },
    {
      "anonymous": false,
      "inputs": [
        {
          "indexed": false,
          "internalType": "bool",
          "name": "enabled",
          "type": "bool"
        },
        {
          "indexed": false,
          "internalType": "uint256",
          "name": "swapTokensAtAmount",
          "type": "uint256"
        }
      ],
      "name": "SwapSettingsUpdated",
      "type": "event"
    },
    {
      "anonymous": false,
      "inputs": [
        {
          "indexed": true,
          "internalType": "uint256",
          "name": "launchBlock",
          "type": "uint256"
        },
        {
          "indexed": true,
          "internalType": "address",
          "name": "pair",
          "type": "address"
        }
      ],
      "name": "TradingEnabled",
      "type": "event"
    },
    {
      "anonymous": false,
      "inputs": [
        {
          "indexed": true,
          "internalType": "address",
          "name": "from",
          "type": "address"
        },
        {
          "indexed": true,
          "internalType": "address",
          "name": "to",
          "type": "address"
        },
        {
          "indexed": false,
          "internalType": "uint256",
          "name": "value",
          "type": "uint256"
        }
      ],
      "name": "Transfer",
      "type": "event"
    },
    {
      "inputs": [],
      "name": "BURN_ADDRESS",
      "outputs": [
        {
          "internalType": "address",
          "name": "",
          "type": "address"
        }
      ],
      "stateMutability": "view",
      "type": "function"
    },
    {
      "inputs": [
        {
          "internalType": "address",
          "name": "owner_",
          "type": "address"
        },
        {
          "internalType": "address",
          "name": "spender",
          "type": "address"
        }
      ],
      "name": "allowance",
      "outputs": [
        {
          "internalType": "uint256",
          "name": "",
          "type": "uint256"
        }
      ],
      "stateMutability": "view",
      "type": "function"
    },
    {
      "inputs": [
        {
          "internalType": "address",
          "name": "spender",
          "type": "address"
        },
        {
          "internalType": "uint256",
          "name": "value",
          "type": "uint256"
        }
      ],
      "name": "approve",
      "outputs": [
        {
          "internalType": "bool",
          "name": "",
          "type": "bool"
        }
      ],
      "stateMutability": "nonpayable",
      "type": "function"
    },
    {
      "inputs": [
        {
          "internalType": "address",
          "name": "account",
          "type": "address"
        }
      ],
      "name": "balanceOf",
      "outputs": [
        {
          "internalType": "uint256",
          "name": "",
          "type": "uint256"
        }
      ],
      "stateMutability": "view",
      "type": "function"
    },
    {
      "inputs": [],
      "name": "buyFee",
      "outputs": [
        {
          "internalType": "uint16",
          "name": "marketingBps",
          "type": "uint16"
        },
        {
          "internalType": "uint16",
          "name": "liquidityBps",
          "type": "uint16"
        },
        {
          "internalType": "uint16",
          "name": "burnBps",
          "type": "uint16"
        },
        {
          "internalType": "uint16",
          "name": "totalBps",
          "type": "uint16"
        }
      ],
      "stateMutability": "view",
      "type": "function"
    },
    {
      "inputs": [],
      "name": "deadBlocks",
      "outputs": [
        {
          "internalType": "uint256",
          "name": "",
          "type": "uint256"
        }
      ],
      "stateMutability": "view",
      "type": "function"
    },
    {
      "inputs": [],
      "name": "decimals",
      "outputs": [
        {
          "internalType": "uint8",
          "name": "",
          "type": "uint8"
        }
      ],
      "stateMutability": "view",
      "type": "function"
    },
    {
      "inputs": [],
      "name": "enableTrading",
      "outputs": [],
      "stateMutability": "nonpayable",
      "type": "function"
    },
    {
      "inputs": [
        {
          "internalType": "address",
          "name": "",
          "type": "address"
        }
      ],
      "name": "isBlacklisted",
      "outputs": [
        {
          "internalType": "bool",
          "name": "",
          "type": "bool"
        }
      ],
      "stateMutability": "view",
      "type": "function"
    },
    {
      "inputs": [
        {
          "internalType": "address",
          "name": "",
          "type": "address"
        }
      ],
      "name": "isExcludedFromFees",
      "outputs": [
        {
          "internalType": "bool",
          "name": "",
          "type": "bool"
        }
      ],
      "stateMutability": "view",
      "type": "function"
    },
    {
      "inputs": [
        {
          "internalType": "address",
          "name": "",
          "type": "address"
        }
      ],
      "name": "isExcludedFromLimits",
      "outputs": [
        {
          "internalType": "bool",
          "name": "",
          "type": "bool"
        }
      ],
      "stateMutability": "view",
      "type": "function"
    },
    {
      "inputs": [
        {
          "internalType": "address",
          "name": "",
          "type": "address"
        }
      ],
      "name": "isWhitelisted",
      "outputs": [
        {
          "internalType": "bool",
          "name": "",
          "type": "bool"
        }
      ],
      "stateMutability": "view",
      "type": "function"
    },
    {
      "inputs": [],
      "name": "launchBlock",
      "outputs": [
        {
          "internalType": "uint256",
          "name": "",
          "type": "uint256"
        }
      ],
      "stateMutability": "view",
      "type": "function"
    },
    {
      "inputs": [],
      "name": "manualSwapBack",
      "outputs": [],
      "stateMutability": "nonpayable",
      "type": "function"
    },
    {
      "inputs": [],
      "name": "marketingWallet",
      "outputs": [
        {
          "internalType": "address",
          "name": "",
          "type": "address"
        }
      ],
      "stateMutability": "view",
      "type": "function"
    },
    {
      "inputs": [],
      "name": "maxGasPriceWei",
      "outputs": [
        {
          "internalType": "uint256",
          "name": "",
          "type": "uint256"
        }
      ],
      "stateMutability": "view",
      "type": "function"
    },
    {
      "inputs": [],
      "name": "maxTxAmount",
      "outputs": [
        {
          "internalType": "uint256",
          "name": "",
          "type": "uint256"
        }
      ],
      "stateMutability": "view",
      "type": "function"
    },
    {
      "inputs": [],
      "name": "maxWalletAmount",
      "outputs": [
        {
          "internalType": "uint256",
          "name": "",
          "type": "uint256"
        }
      ],
      "stateMutability": "view",
      "type": "function"
    },
    {
      "inputs": [],
      "name": "name",
      "outputs": [
        {
          "internalType": "string",
          "name": "",
          "type": "string"
        }
      ],
      "stateMutability": "view",
      "type": "function"
    },
    {
      "inputs": [],
      "name": "owner",
      "outputs": [
        {
          "internalType": "address",
          "name": "",
          "type": "address"
        }
      ],
      "stateMutability": "view",
      "type": "function"
    },
    {
      "inputs": [],
      "name": "revertEarlyBuys",
      "outputs": [
        {
          "internalType": "bool",
          "name": "",
          "type": "bool"
        }
      ],
      "stateMutability": "view",
      "type": "function"
    },
    {
      "inputs": [],
      "name": "sellFee",
      "outputs": [
        {
          "internalType": "uint16",
          "name": "marketingBps",
          "type": "uint16"
        },
        {
          "internalType": "uint16",
          "name": "liquidityBps",
          "type": "uint16"
        },
        {
          "internalType": "uint16",
          "name": "burnBps",
          "type": "uint16"
        },
        {
          "internalType": "uint16",
          "name": "totalBps",
          "type": "uint16"
        }
      ],
      "stateMutability": "view",
      "type": "function"
    },
    {
      "inputs": [
        {
          "internalType": "address",
          "name": "account",
          "type": "address"
        },
        {
          "internalType": "bool",
          "name": "whitelisted",
          "type": "bool"
        },
        {
          "internalType": "bool",
          "name": "blacklisted",
          "type": "bool"
        },
        {
          "internalType": "bool",
          "name": "excludedFees",
          "type": "bool"
        },
        {
          "internalType": "bool",
          "name": "excludedLimits",
          "type": "bool"
        }
      ],
      "name": "setAddressFlags",
      "outputs": [],
      "stateMutability": "nonpayable",
      "type": "function"
    },
    {
      "inputs": [
        {
          "internalType": "uint16",
          "name": "marketingBps",
          "type": "uint16"
        },
        {
          "internalType": "uint16",
          "name": "liquidityBps",
          "type": "uint16"
        },
        {
          "internalType": "uint16",
          "name": "burnBps",
          "type": "uint16"
        }
      ],
      "name": "setBuyFees",
      "outputs": [],
      "stateMutability": "nonpayable",
      "type": "function"
    },
    {
      "inputs": [
        {
          "internalType": "uint256",
          "name": "maxGasPriceWei_",
          "type": "uint256"
        },
        {
          "internalType": "uint256",
          "name": "deadBlocks_",
          "type": "uint256"
        },
        {
          "internalType": "bool",
          "name": "revertEarlyBuys_",
          "type": "bool"
        },
        {
          "internalType": "uint256",
          "name": "maxTxAmount_",
          "type": "uint256"
        },
        {
          "internalType": "uint256",
          "name": "maxWalletAmount_",
          "type": "uint256"
        }
      ],
      "name": "setLimits",
      "outputs": [],
      "stateMutability": "nonpayable",
      "type": "function"
    },
    {
      "inputs": [
        {
          "internalType": "address",
          "name": "wallet",
          "type": "address"
        }
      ],
      "name": "setMarketingWallet",
      "outputs": [],
      "stateMutability": "nonpayable",
      "type": "function"
    },
    {
      "inputs": [
        {
          "internalType": "address",
          "name": "router",
          "type": "address"
        }
      ],
      "name": "setRouter",
      "outputs": [],
      "stateMutability": "nonpayable",
      "type": "function"
    },
    {
      "inputs": [
        {
          "internalType": "uint16",
          "name": "marketingBps",
          "type": "uint16"
        },
        {
          "internalType": "uint16",
          "name": "liquidityBps",
          "type": "uint16"
        },
        {
          "internalType": "uint16",
          "name": "burnBps",
          "type": "uint16"
        }
      ],
      "name": "setSellFees",
      "outputs": [],
      "stateMutability": "nonpayable",
      "type": "function"
    },
    {
      "inputs": [
        {
          "internalType": "bool",
          "name": "enabled",
          "type": "bool"
        },
        {
          "internalType": "uint256",
          "name": "thresholdTokens",
          "type": "uint256"
        }
      ],
      "name": "setSwapSettings",
      "outputs": [],
      "stateMutability": "nonpayable",
      "type": "function"
    },
    {
      "inputs": [],
      "name": "swapEnabled",
      "outputs": [
        {
          "internalType": "bool",
          "name": "",
          "type": "bool"
        }
      ],
      "stateMutability": "view",
      "type": "function"
    },
    {
      "inputs": [],
      "name": "swapTokensAtAmount",
      "outputs": [
        {
          "internalType": "uint256",
          "name": "",
          "type": "uint256"
        }
      ],
      "stateMutability": "view",
      "type": "function"
    },
    {
      "inputs": [],
      "name": "symbol",
      "outputs": [
        {
          "internalType": "string",
          "name": "",
          "type": "string"
        }
      ],
      "stateMutability": "view",
      "type": "function"
    },
    {
      "inputs": [],
      "name": "totalSupply",
      "outputs": [
        {
          "internalType": "uint256",
          "name": "",
          "type": "uint256"
        }
      ],
      "stateMutability": "view",
      "type": "function"
    },
    {
      "inputs": [],
      "name": "tradingEnabled",
      "outputs": [
        {
          "internalType": "bool",
          "name": "",
          "type": "bool"
        }
      ],
      "stateMutability": "view",
      "type": "function"
    },
    {
      "inputs": [
        {
          "internalType": "address",
          "name": "to",
          "type": "address"
        },
        {
          "internalType": "uint256",
          "name": "value",
          "type": "uint256"
        }
      ],
      "name": "transfer",
      "outputs": [
        {
          "internalType": "bool",
          "name": "",
          "type": "bool"
        }
      ],
      "stateMutability": "nonpayable",
      "type": "function"
    },
    {
      "inputs": [
        {
          "internalType": "address",
          "name": "from",
          "type": "address"
        },
        {
          "internalType": "address",
          "name": "to",
          "type": "address"
        },
        {
          "internalType": "uint256",
          "name": "value",
          "type": "uint256"
        }
      ],
      "name": "transferFrom",
      "outputs": [
        {
          "internalType": "bool",
          "name": "",
          "type": "bool"
        }
      ],
      "stateMutability": "nonpayable",
      "type": "function"
    },
    {
      "inputs": [
        {
          "internalType": "address",
          "name": "newOwner",
          "type": "address"
        }
      ],
      "name": "transferOwnership",
      "outputs": [],
      "stateMutability": "nonpayable",
      "type": "function"
    },
    {
      "inputs": [],
      "name": "uniswapV2Pair",
      "outputs": [
        {
          "internalType": "address",
          "name": "",
          "type": "address"
        }
      ],
      "stateMutability": "view",
      "type": "function"
    },
    {
      "inputs": [],
      "name": "uniswapV2Router",
      "outputs": [
        {
          "internalType": "contract IUniswapV2Router02",
          "name": "",
          "type": "address"
        }
      ],
      "stateMutability": "view",
      "type": "function"
    },
    {
      "stateMutability": "payable",
      "type": "receive"
    }
  ],
  "bytecode": "0x608060405234610738576128ee803803806100198161075c565b92833981019060c0818303126107385761003281610781565b60208201519091906001600160401b0381116107385783610054918301610795565b604082015190936001600160401b03821161073857610074918301610795565b60608201519060ff82168092036107385761009660a060808501519401610781565b6001600160a01b039094169485156106f357600080546001600160a01b03191687178155604051959087907f8be0079c531659141344cd1fd0a4f28419497f9722a3daafe3b4186f6b6457e08180a3600d805460ff60a01b1916600160a01b1790556012805460ff191660011790556001600160a01b03169485156106b157508051906001600160401b0382116105ae5760015490600182811c921680156106a7575b602083101461058e5781601f849311610637575b50602090601f83116001146105cf576000926105c4575b50508160011b916000199060031b1c1916176001555b8051906001600160401b0382116105ae5760025490600182811c921680156105a4575b602083101461058e5781601f84931161051e575b50602090601f83116001146104b6576000926104ab575b50508160011b916000199060031b1c1916176002555b6003805460ff1916919091179055600d80546001600160a01b031916831790556127108104600e55600080606061021361073d565b828152826020820152826040820152015261ffff61023b8261023660c880610800565b610800565b166107d081116104665761024d61073d565b60c8808252602080830191909152604082018490526060918201839052600b80546001600160401b0319169490911b65ffff00000000169390931760309290921b67ffff000000000000169190911762c800c8179091556000919082906102b261073d565b828152826020820152826040820152015261ffff6102d68361023661012c80610800565b16906107d08211610466576000937fddf252ad1be2c89b69c2b068fc378daa952ba7f163c4a11628f55a4df523b3ef9360209361031161073d565b9161012c835261ffff8684019361012c8552604081019283526060810193845251169267ffff00000000000065ffff0000000063ffff0000600c54935160101b169351891b16935160301b169367ffff000000000000199165ffffffffffff19161716171717600c558585526017835260408520600160ff198254161790553085526017835260408520600160ff198254161790558085526017835260408520600160ff198254161790558585526018835260408520600160ff198254161790553085526018835260408520600160ff1982541617905584526018825260408420600160ff198254161790558484526015825260408420600160ff198254161790553084526015825260408420600160ff198254161790556104358160045461082c565b600455848452600582526040842061044e82825461082c565b9055604051908152a36040516120b4908161083a8239f35b60405162461bcd60e51b815260206004820152601660248201527f46656520746f6f206869676820286d61782032302529000000000000000000006044820152606490fd5b0151905038806101c8565b600260009081528281209350601f198516905b81811061050657509084600195949392106104ed575b505050811b016002556101de565b015160001960f88460031b161c191690553880806104df565b929360206001819287860151815501950193016104c9565b60026000529091507f405787fa12a823e0f2b7631cc41b3ba8828b3321ca811111fa75cd3aa3bb5ace601f840160051c81019160208510610584575b90601f859493920160051c01905b81811061057557506101b1565b60008155849350600101610568565b909150819061055a565b634e487b7160e01b600052602260045260246000fd5b91607f169161019d565b634e487b7160e01b600052604160045260246000fd5b015190503880610164565b600160009081528281209350601f198516905b81811061061f5750908460019594939210610606575b505050811b0160015561017a565b015160001960f88460031b161c191690553880806105f8565b929360206001819287860151815501950193016105e2565b60016000529091507fb10e2d527612073b26eecdfd717e6a320cf44b4afac2b0732d9fcbe2b7fa0cf6601f840160051c8101916020851061069d575b90601f859493920160051c01905b81811061068e575061014d565b60008155849350600101610681565b9091508190610673565b91607f1691610139565b62461bcd60e51b815260206004820152601460248201527f6d61726b6574696e672077616c6c6574203d20300000000000000000000000006044820152606490fd5b60405162461bcd60e51b815260206004820152601360248201527f4f776e61626c653a207a65726f206f776e6572000000000000000000000000006044820152606490fd5b600080fd5b60405190608082016001600160401b038111838210176105ae57604052565b6040519190601f01601f191682016001600160401b038111838210176105ae57604052565b51906001600160a01b038216820361073857565b81601f82011215610738578051906001600160401b0382116105ae576107c4601f8301601f191660200161075c565b92828452602083830101116107385760005b8281106107eb57505060206000918301015290565b806020809284010151828287010152016107d6565b9061ffff8091169116019061ffff821161081657565b634e487b7160e01b600052601160045260246000fd5b919082018092116108165756fe6080604052600436101561001b575b361561001957600080fd5b005b60003560e01c806306fdde03146111b7578063095ea7b3146111915780631694505e1461116857806318160ddd1461114a57806323b872dd1461105b5780632b14ca561461100e5780632fc0580614610feb578063313ce56714610fca5780633af32abf14610f8b5780634706240214610f3e57806349bd5a5e14610f155780634ada218b14610ef25780634fbee19314610eb35780635cce86cd14610e745780635d098b3814610d9557806366eb378514610d025780636951a07914610c055780636ddd171314610bdf57806370a0823114610ba557806375f0a87414610b7c5780638a8c523c14610a885780638c0b5e2214610a6a5780638da5cb5b14610a4157806392c818d61461090d57806395d89b41146108025780639f52256b14610764578063a9059cbb14610733578063aa4bde2814610715578063c0d786551461052e578063d00efb2f14610510578063d0e103261461048b578063dd62ed3e1461043a578063e2f456051461041c578063ef3881c8146103fe578063f2fde38b1461034a578063fabb0b4f1461032c578063fc6c2bda1461022e578063fccc2813146102115763fe575a870361000e573461020c57602036600319011261020c576001600160a01b036101ee611313565b166000526016602052602060ff604060002054166040519015158152f35b600080fd5b3461020c57600036600319011261020c57602060405161dead8152f35b3461020c57606036600319011261020c577f78a2b7c85fd401563e8af374883543c3ee4188df1c66fc71232dbb7e7ffdb10260e061026a61133f565b61ffff610275611350565b8161027e611361565b61029360018060a01b03600054163314611381565b8161029f828588611fd2565b8181511690600c5463ffff0000602083015160101b169061ffff60301b606065ffff00000000604086015160201b1694015160301b169361ffff60301b199165ffffffffffff191617161717179384600c55816040519760a08952600460a08a0152631cd95b1b60e21b60c08a015216602088015216604086015216606084015260301c166080820152a1005b3461020c57600036600319011261020c576020601154604051908152f35b3461020c57602036600319011261020c57610363611313565b6000546001600160a01b0381169161037c338414611381565b6001600160a01b03169182156103c35782907f8be0079c531659141344cd1fd0a4f28419497f9722a3daafe3b4186f6b6457e0600080a36001600160a01b03191617600055005b60405162461bcd60e51b815260206004820152601360248201527227bbb730b136329d103d32b9379037bbb732b960691b6044820152606490fd5b3461020c57600036600319011261020c576020601054604051908152f35b3461020c57600036600319011261020c576020600e54604051908152f35b3461020c57604036600319011261020c57610453611313565b61045b611329565b6001600160a01b039182166000908152600660209081526040808320949093168252928352819020549051908152f35b3461020c57604036600319011261020c5760043580151580910361020c5760407f06983cb19592d7d4eb4aedd54adc3fb1cd55c1f3cc43ad1bd64f8bc885933ce2916024356104e560018060a01b03600054163314611381565b600d805460ff60a01b191660a084901b60ff60a01b16179055600e81905582519182526020820152a1005b3461020c57600036600319011261020c576020600854604051908152f35b3461020c57602036600319011261020c57610547611313565b61055c60018060a01b03600054163314611381565b6001600160a01b031680156106e557600a80546001600160a01b0319168217905560405163c45a015560e01b8152602081600481855afa90811561069d576000916106c6575b506040516315ab88c960e31b815290602082600481865afa90811561069d57604460209260009485916106a9575b506040516364e329cb60e11b81523060048201526001600160a01b0391821660248201529485938492165af190811561069d5760009161066e575b5060018060a01b031690816bffffffffffffffffffffffff60a01b60095416176009558160005260186020526040600020600160ff198254161790557f8ab4cea230ab04f96aaa9a71fbc4bfa98097c7b9f07e06be33868b500f810028600080a3005b610690915060203d602011610696575b61068881836112a8565b8101906113c2565b8261060b565b503d61067e565b6040513d6000823e3d90fd5b6106c09150843d86116106965761068881836112a8565b866105d0565b6106df915060203d6020116106965761068881836112a8565b826105a2565b60405162461bcd60e51b81526020600482015260086024820152670726f757465723d360c41b6044820152606490fd5b3461020c57600036600319011261020c576020601454604051908152f35b3461020c57604036600319011261020c5761075961074f611313565b6024359033611508565b602060405160018152f35b3461020c5760a036600319011261020c577f030be12a58949831a2ba360cd4c740f0f9277275d25bb2cc31c3656d170fc5c960a06004356024356107a6611372565b9060643590608435926107c3600180881b03600054163314611381565b846010558160115515159060ff196012541660ff83161760125582601355836014556040519485526020850152604084015260608301526080820152a1005b3461020c57600036600319011261020c5760006040519080600254908160011c91600181168015610903575b6020841081146108ef578386529081156108c8575060011461086b575b6108678461085b818603826112a8565b604051918291826112ca565b0390f35b600281527f405787fa12a823e0f2b7631cc41b3ba8828b3321ca811111fa75cd3aa3bb5ace939250905b8082106108ae5750909150810160200161085b8261084b565b919260018160209254838588010152019101909291610895565b60ff191660208087019190915292151560051b8501909201925061085b915083905061084b565b634e487b7160e01b83526022600452602483fd5b92607f169261082e565b3461020c5760a036600319011261020c57610926611313565b602435908115159081830361020c5761093d611372565b9160643580151580820361020c57608435948515159283870361020c577f5de6654a95655d8559604b64d6a2547ab79693a81033f89fd08e7fb3d0d7b39a96610a08610a27926109c660809961099e60018060a01b03600054163314611381565b60018060a01b03169b8c600052601560205260406000209060ff801983541691151516179055565b8a60005260166020526109e98560406000209060ff801983541691151516179055565b8a600052601760205260406000209060ff801983541691151516179055565b88600052601860205260406000209060ff801983541691151516179055565b6040519384521515602084015260408301526060820152a2005b3461020c57600036600319011261020c576000546040516001600160a01b039091168152602090f35b3461020c57600036600319011261020c576020601354604051908152f35b3461020c57600036600319011261020c57610aae60018060a01b03600054163314611381565b60075460ff8116610b37576009546001600160a01b0316908115610b035760ff19166001176007554360088190557fb0153a1d634c9f6da118c6950a6689cff830da150b9872b291e7a8d815316bb7600080a3005b60405162461bcd60e51b815260206004820152600c60248201526b1c185a5c881b9bdd081cd95d60a21b6044820152606490fd5b60405162461bcd60e51b815260206004820152601760248201527f74726164696e6720616c726561647920656e61626c65640000000000000000006044820152606490fd5b3461020c57600036600319011261020c57600d546040516001600160a01b039091168152602090f35b3461020c57602036600319011261020c576001600160a01b03610bc6611313565b1660005260056020526020604060002054604051908152f35b3461020c57600036600319011261020c57602060ff600d5460a01c166040519015158152f35b3461020c57606036600319011261020c577f78a2b7c85fd401563e8af374883543c3ee4188df1c66fc71232dbb7e7ffdb10260e0610c4161133f565b61ffff610c4c611350565b81610c55611361565b610c6a60018060a01b03600054163314611381565b81610c76828588611fd2565b8181511690600b5463ffff0000602083015160101b169061ffff60301b606065ffff00000000604086015160201b1694015160301b169361ffff60301b199165ffffffffffff191617161717179384600b55816040519760a08952600360a08a01526262757960e81b60c08a015216602088015216604086015216606084015260301c166080820152a1005b3461020c57600036600319011261020c576000546001600160a01b031633148015610d81575b15610d4e57600160ff19600f541617600f55610d42611bf3565b600f805460ff19169055005b60405162461bcd60e51b815260206004820152600b60248201526a1b9bdd08185b1b1bddd95960aa1b6044820152606490fd5b50600d546001600160a01b03163314610d28565b3461020c57602036600319011261020c57610dae611313565b610dc360018060a01b03600054163314611381565b6001600160a01b03168015610e4457806bffffffffffffffffffffffff60a01b600d541617600d558060005260176020526040600020600160ff198254161790558060005260186020526040600020600160ff198254161790557ff86e3c0cc66159379bdf420884b6f4be3aa4fb93284e88c539c61ba300646a74600080a2005b60405162461bcd60e51b8152602060048201526008602482015267077616c6c65743d360c41b6044820152606490fd5b3461020c57602036600319011261020c576001600160a01b03610e95611313565b166000526018602052602060ff604060002054166040519015158152f35b3461020c57602036600319011261020c576001600160a01b03610ed4611313565b166000526017602052602060ff604060002054166040519015158152f35b3461020c57600036600319011261020c57602060ff600754166040519015158152f35b3461020c57600036600319011261020c576009546040516001600160a01b039091168152602090f35b3461020c57600036600319011261020c57600b546040805161ffff8084168252601084901c811660208084019190915284901c81169282019290925260309290921c166060820152608090f35b3461020c57602036600319011261020c576001600160a01b03610fac611313565b166000526015602052602060ff604060002054166040519015158152f35b3461020c57600036600319011261020c57602060ff60035416604051908152f35b3461020c57600036600319011261020c57602060ff601254166040519015158152f35b3461020c57600036600319011261020c57600c546040805161ffff8084168252601084901c811660208084019190915284901c81169282019290925260309290921c166060820152608090f35b3461020c57606036600319011261020c57611074611313565b61107c611329565b6001600160a01b03821660008181526006602090815260408083203384529091529020549260443592918385106111055760008181526006602090815260408083203380855290835292819020978790039788905551968752610759969192917f8c5be1e5ebec7d5bd14f71427d1e84f3dd0314c0f7b2291e5b200ac8c7c3b9259190a3611508565b60405162461bcd60e51b815260206004820152601d60248201527f45524332303a20696e73756666696369656e7420616c6c6f77616e63650000006044820152606490fd5b3461020c57600036600319011261020c576020600454604051908152f35b3461020c57600036600319011261020c57600a546040516001600160a01b039091168152602090f35b3461020c57604036600319011261020c576107596111ad611313565b6024359033611423565b3461020c57600036600319011261020c5760006040519080600154908160011c9160018116801561126c575b6020841081146108ef578386529081156108c8575060011461120f576108678461085b818603826112a8565b600181527fb10e2d527612073b26eecdfd717e6a320cf44b4afac2b0732d9fcbe2b7fa0cf6939250905b8082106112525750909150810160200161085b8261084b565b919260018160209254838588010152019101909291611239565b92607f16926111e3565b6080810190811067ffffffffffffffff82111761129257604052565b634e487b7160e01b600052604160045260246000fd5b90601f8019910116810190811067ffffffffffffffff82111761129257604052565b91909160208152825180602083015260005b8181106112fd575060409293506000838284010152601f8019910116010190565b80602080928701015160408286010152016112dc565b600435906001600160a01b038216820361020c57565b602435906001600160a01b038216820361020c57565b6004359061ffff8216820361020c57565b6024359061ffff8216820361020c57565b6044359061ffff8216820361020c57565b60443590811515820361020c57565b1561138857565b60405162461bcd60e51b815260206004820152601260248201527127bbb730b136329d103737ba1037bbb732b960711b6044820152606490fd5b9081602091031261020c57516001600160a01b038116810361020c5790565b156113e857565b60405162461bcd60e51b815260206004820152601360248201527245524332303a207a65726f206164647265737360681b6044820152606490fd5b6001600160a01b0316907f8c5be1e5ebec7d5bd14f71427d1e84f3dd0314c0f7b2291e5b200ac8c7c3b9259060209083151580611493575b611464906113e1565b60008481526006835260408082206001600160a01b0393909316808352928452908190208690555194855293a3565b506001600160a01b038116151561145b565b919082018092116114b257565b634e487b7160e01b600052601160045260246000fd5b818102929181159184041417156114b257565b81156114e5570490565b634e487b7160e01b600052601260045260246000fd5b919082039182116114b257565b6001600160a01b03169081151580611be1575b611524906113e1565b81600052601660205260ff604060002054161580611bbe575b15611b8b5760105480151580611b5a575b611b14575b5060ff60075416928315611a9a575b6009546001600160a01b03168381149290919083611a81575b6001600160a01b0316948286149080611a76575b80611a6f575b80611a56575b6119f0575b84600052601860205260ff6040600020541615806119d7575b6118f8575b8460005260056020526040600020548281106118b3577fddf252ad1be2c89b69c2b068fc378daa952ba7f163c4a11628f55a4df523b3ef94602094600f549060ff82161590816118a3575b8161189b575b81611891575b508061187d575b80611872575b80611859575b611837575b50839260ff600f541615908161181d575b81611803575b816117ea575b50611686575b508192508560005260058452036040600020558460005260058252604060002061167b8282546114a5565b9055604051908152a3565b156117e257600b925b6040519361169c85611276565b549361ffff8516815261ffff8560101c1686820152606061ffff604083019681818a1c16885260301c16910190808252806116d9575b5050611650565b6116e661271091846114c8565b049182156116d25761ffff809695506117116117068561171a95946114fb565b9788975116856114c8565b915116906114db565b80611783575b508061172e575b80806116d2565b80925061173a916114fb565b8560005260058452604060002055306000526005835260406000206117608282546114a5565b90556040519081528484843093a383600052600582528060406000205438611727565b611791816117dc93946114fb565b886000526005875260406000205561dead6000526005865260406000206117b98282546114a5565b905561dead888888604051858152a38760005260058652604060002054926114fb565b38611720565b600c9261168f565b82915081156117fb575b503861164a565b9050386117f4565b9050886000526017865260ff604060002054161590611644565b9050876000526017865260ff60406000205416159061163e565b60ff1916600117600f55611849611bf3565b60ff19600f5416600f553861162d565b503060005260058652604060002054600e541115611628565b50600e541515611622565b50600a546001600160a01b0316151561161c565b9050151538611615565b85915061160f565b600d5460a01c60ff169150611609565b60405162461bcd60e51b815260206004820152601f60248201527f45524332303a207472616e7366657220657863656564732062616c616e6365006044820152606490fd5b601354801515806119c9575b611986575b506014548015158061197f575b611921575b506115be565b866000526005602052611939836040600020546114a5565b11611944573861191b565b60405162461bcd60e51b815260206004820152601360248201527213585e081dd85b1b195d08195e18d959591959606a1b6044820152606490fd5b5084611916565b82116119925738611909565b60405162461bcd60e51b815260206004820152600f60248201526e13585e081d1e08195e18d959591959608a1b6044820152606490fd5b508485611904575081611904565b5085600052601860205260ff60406000205416156115b9565b6119ff600854601154906114a5565b4310156115a05760ff60125416156115a05760405162461bcd60e51b815260206004820152601a60248201527f416e7469426f743a206561726c792062757920626c6f636b65640000000000006044820152606490fd5b5085600052601560205260ff604060002054161561159b565b5083611595565b50601154151561158f565b600a546001600160a01b0380831691161415935061157b565b82600052601560205260ff604060002054168015611af2575b6115625760405162461bcd60e51b8152602060048201526013602482015272151c98591a5b99c81b9bdd08195b98589b1959606a1b6044820152606490fd5b506001600160a01b03821660009081526015602052604090205460ff16611ab3565b3a11611b205738611553565b60405162461bcd60e51b815260206004820152601260248201527108ec2e640e0e4d2c6ca40e8dede40d0d2ced60731b6044820152606490fd5b506009546001600160a01b0316838114908115611b78575b5061154e565b6001600160a01b03841614905038611b72565b60405162461bcd60e51b815260206004820152600b60248201526a109b1858dadb1a5cdd195960aa1b6044820152606490fd5b506001600160a01b03811660009081526016602052604090205460ff161561153d565b506001600160a01b038116151561151b565b6000308152600560205260408120548015611fb857600a546001600160a01b0316908115611fb3576009546001600160a01b031615611fb357600c5461ffff8160301c16908115611fac57611c6291611c5661ffff611c5b9360101c16856114c8565b6114db565b80926114fb565b611c84611c7c611c768460011c80956114fb565b836114a5565b809430611423565b4792606093604051611c9686826112a8565b6002815260208101601f198701368237815115611f9857308152600a546040516315ab88c960e31b81526001600160a01b039091169190602081600481865afa908115611f8d578a91611f6e575b50835160011015611f5a576001600160a01b03166040840152813b15611f565791889160405193849263791ac94760e01b845260a484019088600486015285602486015260a060448601525180915260c484019190855b818110611f31575050508383809230606483015242608483015203925af18015611f2657611f10575b50611d6f90476114fb565b8015611f08578591829381611eec575b505082611d8b916114fb565b9180151580611ed8575b611e6a575b505081151580611e61575b611db0575b50505050565b600a54839190611dcb9084906001600160a01b031630611423565b600a54855460405163f305d71960e01b8152306004820152602481019590955260448501879052606485018790526001600160a01b0390811660848601524260a4860152849260c4928492165af18015611e5657611e2a575b80611daa565b813d8311611e4f575b611e3d81836112a8565b81010312611e4c578080611e24565b80fd5b503d611e33565b6040513d85823e3d90fd5b50801515611da5565b600d54829182918291906001600160a01b03165af1503d15611ed3573d67ffffffffffffffff8111611ebf5760405190611eae601f8201601f1916602001836112a8565b81528460203d92013e5b8338611d9a565b634e487b7160e01b85526041600452602485fd5b611eb8565b50600d546001600160a01b03161515611d95565b82945090611c56611f0092611d8b946114c8565b929038611d7f565b505050505050565b95611f1f81611d6f93986112a8565b9590611d64565b6040513d89823e3d90fd5b82516001600160a01b031684528d965087955060209384019390920191600101611d3b565b8880fd5b634e487b7160e01b8a52603260045260248afd5b611f87915060203d6020116106965761068881836112a8565b38611ce4565b6040513d8c823e3d90fd5b634e487b7160e01b88526032600452602488fd5b5050505050565b505050565b5050565b9061ffff8091169116019061ffff82116114b257565b919060006060604051611fe481611276565b828152826020820152826040820152015261ffff61200b836120068487611fbc565b611fbc565b16916107d083116120405761ffff8092816040519661202988611276565b168652166020850152166040830152606082015290565b60405162461bcd60e51b815260206004820152601660248201527546656520746f6f206869676820286d6178203230252960501b6044820152606490fdfea26469706673582212200eb1c584d8abb6d6641bc55c5c6e4cdcefcbfbe50085405a864c499e230282a964736f6c634300081c0033",
  "linkReferences": {},
  "deployedLinkReferences": {}
}