{
  "_format": "hh-sol-artifact-1",
  "contractName": "LPTimeLock",
  "sourceName": "contracts/launch/LPTimeLock.sol",
  "abi": [
    {
      "anonymous": false,
      "inputs": [
        {
          "indexed": true,
          "internalType": "uint256",
          "name": "id",
          "type": "uint256"
        },
        {
          "indexed": true,
          "internalType": "address",
          "name": "oldBeneficiary",
          "type": "address"
        },
        {
          "indexed": true,
          "internalType": "address",
          "name": "newBeneficiary",
          "type": "address"
        }
      ],
      "name": "LockBeneficiaryUpdated",
      "type": "event"
    },
    {
      "anonymous": false,
      "inputs": [
        {
          "indexed": true,
          "internalType": "uint256",
          "name": "id",
          "type": "uint256"
        },
        {
          "indexed": true,
          "internalType": "address",
          "name": "token",
          "type": "address"
        },
        {
          "indexed": true,
          "internalType": "address",
          "name": "beneficiary",
          "type": "address"
        },
        {
          "indexed": false,
          "internalType": "uint256",
          "name": "amount",
          "type": "uint256"
        },
        {
          "indexed": false,
          "internalType": "uint256",
          "name": "unlockTime",
          "type": "uint256"
        }
      ],
      "name": "LockCreated",
      "type": "event"
    },
    {
      "anonymous": false,
      "inputs": [
        {
          "indexed": true,
          "internalType": "uint256",
          "name": "id",
          "type": "uint256"
        },
        {
          "indexed": false,
          "internalType": "uint256",
          "name": "oldUnlockTime",
          "type": "uint256"
        },
        {
          "indexed": false,
          "internalType": "uint256",
          "name": "newUnlockTime",
          "type": "uint256"
        }
      ],
      "name": "LockExtended",
      "type": "event"
    },
    {
      "anonymous": false,
      "inputs": [
        {
          "indexed": true,
          "internalType": "uint256",
          "name": "id",
          "type": "uint256"
        },
        {
          "indexed": true,
          "internalType": "address",
          "name": "oldOwner",
          "type": "address"
        },
        {
          "indexed": true,
          "internalType": "address",
          "name": "newOwner",
          "type": "address"
        }
      ],
      "name": "LockOwnershipTransferred",
      "type": "event"
    },
    {
      "anonymous": false,
      "inputs": [
        {
          "indexed": true,
          "internalType": "uint256",
          "name": "id",
          "type": "uint256"
        },
        {
          "indexed": true,
          "internalType": "address",
          "name": "beneficiary",
          "type": "address"
        },
        {
          "indexed": false,
          "internalType": "uint256",
          "name": "amount",
          "type": "uint256"
        }
      ],
      "name": "Withdrawn",
      "type": "event"
    },
    {
      "inputs": [
        {
          "internalType": "address",
          "name": "token",
          "type": "address"
        },
        {
          "internalType": "address",
          "name": "beneficiary",
          "type": "address"
        },
        {
          "internalType": "uint256",
          "name": "amount",
          "type": "uint256"
        },
        {
          "internalType": "uint256",
          "name": "unlockTime",
          "type": "uint256"
        }
      ],
      "name": "createLock",
      "outputs": [
        {
          "internalType": "uint256",
          "name": "id",
          "type": "uint256"
        }
      ],
      "stateMutability": "nonpayable",
      "type": "function"
    },
    {
      "inputs": [
        {
          "internalType": "uint256",
          "name": "id",
          "type": "uint256"
        },
        {
          "internalType": "uint256",
          "name": "newUnlockTime",
          "type": "uint256"
        }
      ],
      "name": "extendLock",
      "outputs": [],
      "stateMutability": "nonpayable",
      "type": "function"
    },
    {
      "inputs": [
        {
          "internalType": "uint256",
          "name": "id",
          "type": "uint256"
        }
      ],
      "name": "getLockStatus",
      "outputs": [
        {
          "internalType": "bool",
          "name": "isLocked",
          "type": "bool"
        },
        {
          "internalType": "uint256",
          "name": "remainingSeconds",
          "type": "uint256"
        }
      ],
      "stateMutability": "view",
      "type": "function"
    },
    {
      "inputs": [
        {
          "internalType": "uint256",
          "name": "",
          "type": "uint256"
        }
      ],
      "name": "locks",
      "outputs": [
        {
          "internalType": "address",
          "name": "token",
          "type": "address"
        },
        {
          "internalType": "address",
          "name": "owner",
          "type": "address"
        },
        {
          "internalType": "address",
          "name": "beneficiary",
          "type": "address"
        },
        {
          "internalType": "uint256",
          "name": "amount",
          "type": "uint256"
        },
        {
          "internalType": "uint256",
          "name": "unlockTime",
          "type": "uint256"
        },
        {
          "internalType": "bool",
          "name": "withdrawn",
          "type": "bool"
        }
      ],
      "stateMutability": "view",
      "type": "function"
    },
    {
      "inputs": [],
      "name": "nextId",
      "outputs": [
        {
          "internalType": "uint256",
          "name": "",
          "type": "uint256"
        }
      ],
      "stateMutability": "view",
      "type": "function"
    },
    {
      "inputs": [
        {
          "internalType": "uint256",
          "name": "id",
          "type": "uint256"
        },
        {
          "internalType": "address",
          "name": "newOwner",
          "type": "address"
        }
      ],
      "name": "transferLockOwnership",
      "outputs": [],
      "stateMutability": "nonpayable",
      "type": "function"
    },
    {
      "inputs": [
        {
          "internalType": "uint256",
          "name": "id",
          "type": "uint256"
        },
        {
          "internalType": "address",
          "name": "newBeneficiary",
          "type": "address"
        }
      ],
      "name": "updateBeneficiary",
      "outputs": [],
      "stateMutability": "nonpayable",
      "type": "function"
    },
    {
      "inputs": [
        {
          "internalType": "uint256",
          "name": "id",
          "type": "uint256"
        }
      ],
      "name": "withdraw",
      "outputs": [],
      "stateMutability": "nonpayable",
      "type": "function"
    }
  ],
  "bytecode": "0x60808060405234601a576001600055610a5990816100208239f35b600080fdfe6080604052600436101561001257600080fd5b60003560e01c8063070d66bf146107cb5780632e1a7d4d146106185780633e8eb5a41461052b5780635a04fb691461044457806361b8ce8c146104265780638978b2da146103fa578063f4dadc611461037a5763f6a8d50a1461007457600080fd5b34610375576080366003190112610375576004356001600160a01b03811690819003610375576100a2610899565b60443591606435918115610346576001600160a01b03169081156103115783156102e1574283111561029c5760005492600019841461028657600184016000556040516100ee8161092c565b8281523360208083018281526040808501888152606086018b815260808701888152600060a089018181528d825260018089528683209a518b546001600160a01b039182166001600160a01b0319918216178d559851918c018054928216928a1692909217909155945160028b01805491909616971696909617909355905160038801555160048088019190915592516005909601805460ff191696151560ff1696909617909555516323b872dd60e01b81529081019290925230602483015260448201889052909182906064908290875af190811561027a5760009161024b575b5015610210577f6422b526b1c8aecb4b5678d5c67a4a334dd9539d8da30a39a0f24b71a95faedc60406020968693825191825288820152a4604051908152f35b60405162461bcd60e51b81526020600482015260136024820152721d1c985b9cd9995c919c9bdb4819985a5b1959606a1b6044820152606490fd5b61026d915060203d602011610273575b610265818361095e565b810190610980565b386101d0565b503d61025b565b6040513d6000823e3d90fd5b634e487b7160e01b600052601160045260246000fd5b60405162461bcd60e51b815260206004820152601960248201527f756e6c6f636b54696d65206d75737420626520667574757265000000000000006044820152606490fd5b60405162461bcd60e51b81526020600482015260086024820152670616d6f756e743d360c41b6044820152606490fd5b60405162461bcd60e51b815260206004820152600d60248201526c062656e65666963696172793d3609c1b6044820152606490fd5b60405162461bcd60e51b81526020600482015260076024820152660746f6b656e3d360cc1b6044820152606490fd5b600080fd5b3461037557602036600319011261037557600435600052600160205260c0604060002060018060a01b038154169060018060a01b036001820154169060018060a01b0360028201541660038201549060ff6005600485015494015416936040519586526020860152604085015260608401526080830152151560a0820152f35b34610375576020366003190112610375576040610418600435610998565b825191151582526020820152f35b34610375576000366003190112610375576020600054604051908152f35b3461037557604036600319011261037557600435610460610899565b81600052600160205261048460018060a01b036001604060002001541633146108af565b6001600160a01b03169081156104f957806000526001602052600160406000206104b560ff600583015416156108ec565b0180546001600160a01b0319811684179091556001600160a01b0316907f94cb47eeeeb76a68c4d24f7c656bc9e63d5bc82211fc7784b33e438103b2f873600080a4005b60405162461bcd60e51b815260206004820152600a60248201526906e65774f776e65723d360b41b6044820152606490fd5b3461037557604036600319011261037557600435610547610899565b81600052600160205261056b60018060a01b036001604060002001541633146108af565b6001600160a01b03169081156105e0578060005260016020526002604060002061059c60ff600583015416156108ec565b0180546001600160a01b0319811684179091556001600160a01b0316907fb46dd957666562116725549320e1a014fec61f371662e239650e548197f9f5ef600080a4005b60405162461bcd60e51b815260206004820152601060248201526f06e657742656e65666963696172793d360841b6044820152606490fd5b34610375576020366003190112610375576004358060005260016020526040600020906005820180549261064f60ff8516156108ec565b6002810180546001600160a01b0316949092903386900361079457600483015442106107605760ff191660011790558054600391909101805460405163a9059cbb60e01b8152600481019690965260248601529390602090829060449082906000906001600160a01b03165af190811561027a57600091610741575b501561070a5760207fcf7d23a3cbe4e8b36ff82fd1b05b1b17373dc7804b4ebbd6e2356716ef2023729160018060a01b039054169354604051908152a3005b60405162461bcd60e51b815260206004820152600f60248201526e1d1c985b9cd9995c8819985a5b1959608a1b6044820152606490fd5b61075a915060203d60201161027357610265818361095e565b846106cb565b60405162461bcd60e51b815260206004820152600c60248201526b1cdd1a5b1b081b1bd8dad95960a21b6044820152606490fd5b60405162461bcd60e51b815260206004820152600f60248201526e6e6f742062656e656669636961727960881b6044820152606490fd5b346103755760403660031901126103755760043560243581600052600160205261080660018060a01b036001604060002001541633146108af565b8160005260016020526004604060002061082760ff600583015416156108ec565b0180548083111561086657827f12c0f64f942f99aa5210c23a8ab729735389400457b66b06895b0700315c3b33936040935582519182526020820152a2005b60405162461bcd60e51b815260206004820152600b60248201526a1b5d5cdd08195e1d195b9960aa1b6044820152606490fd5b602435906001600160a01b038216820361037557565b156108b657565b60405162461bcd60e51b815260206004820152600e60248201526d2737ba103637b1b59037bbb732b960911b6044820152606490fd5b156108f357565b60405162461bcd60e51b815260206004820152601160248201527030b63932b0b23c903bb4ba34323930bbb760791b6044820152606490fd5b60c0810190811067ffffffffffffffff82111761094857604052565b634e487b7160e01b600052604160045260246000fd5b90601f8019910116810190811067ffffffffffffffff82111761094857604052565b90816020910312610375575180151581036103755790565b600052600160205260406000209060a06040516109b48161092c565b8354600180841b6000190191821683528501548116602083015260028501541660408201526003840154606082015260048401546080820181905260059094015460ff1615159101819052610a1b5781421015610a1b574282039182116102865760019190565b60009150819056fea2646970667358221220e649ad1dfe16a4d52313d58f490bf1b0532e0e0b33b46c665c4e8920d111633064736f6c634300081c0033",
  "linkReferences": {},
  "deployedLinkReferences": {}
}