{
  "_format": "hh-sol-artifact-1",
  "contractName": "LPTimeLock",
  "sourceName": "contracts/launch/LPTimeLock.sol",
  "abi": [
    {
      "anonymous": false,
      "inputs": [
        {
          "indexed": true,
          "internalType": "uint256",
          "name": "id",
          "type": "uint256"
        },
        {
          "indexed": true,
          "internalType": "address",
          "name": "oldBeneficiary",
          "type": "address"
        },
        {
          "indexed": true,
          "internalType": "address",
          "name": "newBeneficiary",
          "type": "address"
        }
      ],
      "name": "LockBeneficiaryUpdated",
      "type": "event"
    },
    {
      "anonymous": false,
      "inputs": [
        {
          "indexed": true,
          "internalType": "uint256",
          "name": "id",
          "type": "uint256"
        },
        {
          "indexed": true,
          "internalType": "address",
          "name": "token",
          "type": "address"
        },
        {
          "indexed": true,
          "internalType": "address",
          "name": "beneficiary",
          "type": "address"
        },
        {
          "indexed": false,
          "internalType": "uint256",
          "name": "amount",
          "type": "uint256"
        },
        {
          "indexed": false,
          "internalType": "uint256",
          "name": "unlockTime",
          "type": "uint256"
        }
      ],
      "name": "LockCreated",
      "type": "event"
    },
    {
      "anonymous": false,
      "inputs": [
        {
          "indexed": true,
          "internalType": "uint256",
          "name": "id",
          "type": "uint256"
        },
        {
          "indexed": false,
          "internalType": "uint256",
          "name": "oldUnlockTime",
          "type": "uint256"
        },
        {
          "indexed": false,
          "internalType": "uint256",
          "name": "newUnlockTime",
          "type": "uint256"
        }
      ],
      "name": "LockExtended",
      "type": "event"
    },
    {
      "anonymous": false,
      "inputs": [
        {
          "indexed": true,
          "internalType": "uint256",
          "name": "id",
          "type": "uint256"
        },
        {
          "indexed": true,
          "internalType": "address",
          "name": "oldOwner",
          "type": "address"
        },
        {
          "indexed": true,
          "internalType": "address",
          "name": "newOwner",
          "type": "address"
        }
      ],
      "name": "LockOwnershipTransferred",
      "type": "event"
    },
    {
      "anonymous": false,
      "inputs": [
        {
          "indexed": true,
          "internalType": "uint256",
          "name": "id",
          "type": "uint256"
        },
        {
          "indexed": true,
          "internalType": "address",
          "name": "beneficiary",
          "type": "address"
        },
        {
          "indexed": false,
          "internalType": "uint256",
          "name": "amount",
          "type": "uint256"
        }
      ],
      "name": "Withdrawn",
      "type": "event"
    },
    {
      "inputs": [
        {
          "internalType": "address",
          "name": "token",
          "type": "address"
        },
        {
          "internalType": "address",
          "name": "beneficiary",
          "type": "address"
        },
        {
          "internalType": "uint256",
          "name": "amount",
          "type": "uint256"
        },
        {
          "internalType": "uint256",
          "name": "unlockTime",
          "type": "uint256"
        }
      ],
      "name": "createLock",
      "outputs": [
        {
          "internalType": "uint256",
          "name": "id",
          "type": "uint256"
        }
      ],
      "stateMutability": "nonpayable",
      "type": "function"
    },
    {
      "inputs": [
        {
          "internalType": "uint256",
          "name": "id",
          "type": "uint256"
        },
        {
          "internalType": "uint256",
          "name": "newUnlockTime",
          "type": "uint256"
        }
      ],
      "name": "extendLock",
      "outputs": [],
      "stateMutability": "nonpayable",
      "type": "function"
    },
    {
      "inputs": [
        {
          "internalType": "uint256",
          "name": "id",
          "type": "uint256"
        }
      ],
      "name": "getLockStatus",
      "outputs": [
        {
          "internalType": "bool",
          "name": "isLocked",
          "type": "bool"
        },
        {
          "internalType": "uint256",
          "name": "remainingSeconds",
          "type": "uint256"
        }
      ],
      "stateMutability": "view",
      "type": "function"
    },
    {
      "inputs": [
        {
          "internalType": "uint256",
          "name": "",
          "type": "uint256"
        }
      ],
      "name": "locks",
      "outputs": [
        {
          "internalType": "address",
          "name": "token",
          "type": "address"
        },
        {
          "internalType": "address",
          "name": "owner",
          "type": "address"
        },
        {
          "internalType": "address",
          "name": "beneficiary",
          "type": "address"
        },
        {
          "internalType": "uint256",
          "name": "amount",
          "type": "uint256"
        },
        {
          "internalType": "uint256",
          "name": "unlockTime",
          "type": "uint256"
        },
        {
          "internalType": "bool",
          "name": "withdrawn",
          "type": "bool"
        }
      ],
      "stateMutability": "view",
      "type": "function"
    },
    {
      "inputs": [],
      "name": "nextId",
      "outputs": [
        {
          "internalType": "uint256",
          "name": "",
          "type": "uint256"
        }
      ],
      "stateMutability": "view",
      "type": "function"
    },
    {
      "inputs": [
        {
          "internalType": "uint256",
          "name": "id",
          "type": "uint256"
        },
        {
          "internalType": "address",
          "name": "newOwner",
          "type": "address"
        }
      ],
      "name": "transferLockOwnership",
      "outputs": [],
      "stateMutability": "nonpayable",
      "type": "function"
    },
    {
      "inputs": [
        {
          "internalType": "uint256",
          "name": "id",
          "type": "uint256"
        },
        {
          "internalType": "address",
          "name": "newBeneficiary",
          "type": "address"
        }
      ],
      "name": "updateBeneficiary",
      "outputs": [],
      "stateMutability": "nonpayable",
      "type": "function"
    },
    {
      "inputs": [
        {
          "internalType": "uint256",
          "name": "id",
          "type": "uint256"
        }
      ],
      "name": "withdraw",
      "outputs": [],
      "stateMutability": "nonpayable",
      "type": "function"
    }
  ],
  "bytecode": "0x6080806040523461001b5760016000556109f090816100218239f35b600080fdfe6040608081526004908136101561001557600080fd5b600090813560e01c8063070d66bf146107515780632e1a7d4d146105b35780633e8eb5a4146104d85780635a04fb691461040457806361b8ce8c146103e85780638978b2da146103b8578063f4dadc61146103455763f6a8d50a1461007957600080fd5b34610341576080366003190112610341576001600160a01b0391833583811690819003610341576100a861081a565b604435956064359183156103145786169384156102e15787156102b3574283111561027057805496600019881461025d5760058891600183018455888b8151926100f184610835565b89845260208401338152838501918c8352606086019384528060808701958c875260a08801998b8b528b5260016020528a20965116916bffffffffffffffffffffffff60a01b928388541617875581600188019151168382541617905560028601925116908254161790555160038301555185820155019051151560ff8019835416911617905585516323b872dd60e01b8152338382015230602482015288604482015260208160648185895af19182156102525791610223575b50156101ea57507f6422b526b1c8aecb4b5678d5c67a4a334dd9539d8da30a39a0f24b71a95faedc846020978793825191825289820152a451908152f35b606490602086519162461bcd60e51b835282015260136024820152721d1c985b9cd9995c919c9bdb4819985a5b1959606a1b6044820152fd5b610245915060203d60201161024b575b61023d8183610867565b810190610889565b386101ac565b503d610233565b8751903d90823e3d90fd5b506011602492634e487b7160e01b835252fd5b855162461bcd60e51b8152602081840152601960248201527f756e6c6f636b54696d65206d75737420626520667574757265000000000000006044820152606490fd5b855162461bcd60e51b815260208184015260086024820152670616d6f756e743d360c41b6044820152606490fd5b855162461bcd60e51b8152602081840152600d60248201526c062656e65666963696172793d3609c1b6044820152606490fd5b855162461bcd60e51b815260208184015260076024820152660746f6b656e3d360cc1b6044820152606490fd5b5080fd5b5082346103b45760203660031901126103b4578160c0938235815260016020522060018060a01b0391828254169383600184015416936002840154169060ff600560038601549486015495015416948151968752602087015285015260608401526080830152151560a0820152f35b8280fd5b509190346103e55760203660031901126103e557506103d7903561091e565b825191151582526020820152f35b80fd5b5034610341578160031936011261034157602091549051908152f35b508290346103b457806003193601126103b45781359061042261081a565b90828552600160205260018060a01b038092610447826001858a2001541633146108a1565b169384156104a9575060019083865281602052852061046d60ff600583015416156108de565b0180546001600160a01b03198116851790915516907f94cb47eeeeb76a68c4d24f7c656bc9e63d5bc82211fc7784b33e438103b2f8738480a480f35b6020606492519162461bcd60e51b8352820152600a60248201526906e65774f776e65723d360b41b6044820152fd5b508290346103b457806003193601126103b4578135906104f661081a565b90828552600160205260018060a01b03809261051b826001858a2001541633146108a1565b1693841561057e57506002908386526001602052852061054260ff600583015416156108de565b0180546001600160a01b03198116851790915516907fb46dd957666562116725549320e1a014fec61f371662e239650e548197f9f5ef8480a480f35b6020606492519162461bcd60e51b8352820152601060248201526f06e657742656e65666963696172793d360841b6044820152fd5b508290346103b45760208060031936011261074d578235918285526001825280852060058101908154956105ea60ff8816156108de565b600282019160018060a01b03938484541698893303610718578383015442106106e65760019060ff19161790558560038583541692019860448a54918c8951958694859363a9059cbb60e01b85528985015260248401525af19081156106dc5789916106bf575b501561068a5750907fcf7d23a3cbe4e8b36ff82fd1b05b1b17373dc7804b4ebbd6e2356716ef202372939291541694549051908152a380f35b835162461bcd60e51b8152908101859052600f60248201526e1d1c985b9cd9995c8819985a5b1959608a1b6044820152606490fd5b6106d69150863d881161024b5761023d8183610867565b89610651565b85513d8b823e3d90fd5b865162461bcd60e51b8152808501899052600c60248201526b1cdd1a5b1b081b1bd8dad95960a21b6044820152606490fd5b865162461bcd60e51b8152808501899052600f60248201526e6e6f742062656e656669636961727960881b6044820152606490fd5b8380fd5b503461034157806003193601126103415782359060243593828452600160205261078a60018060a01b03600184872001541633146108a1565b8284526001602052808285206107a760ff600583015416156108de565b0194855491828211156107e95750807f12c0f64f942f99aa5210c23a8ab729735389400457b66b06895b0700315c3b339495965582519182526020820152a280f35b606490602085519162461bcd60e51b8352820152600b60248201526a1b5d5cdd08195e1d195b9960aa1b6044820152fd5b602435906001600160a01b038216820361083057565b600080fd5b60c0810190811067ffffffffffffffff82111761085157604052565b634e487b7160e01b600052604160045260246000fd5b90601f8019910116810190811067ffffffffffffffff82111761085157604052565b90816020910312610830575180151581036108305790565b156108a857565b60405162461bcd60e51b815260206004820152600e60248201526d2737ba103637b1b59037bbb732b960911b6044820152606490fd5b156108e557565b60405162461bcd60e51b815260206004820152601160248201527030b63932b0b23c903bb4ba34323930bbb760791b6044820152606490fd5b9060009182526001602052604082209160a060405161093c81610835565b600180831b0380865416825280600187015416602083015260028601541660408201526003850154606082015260ff6005600487015496876080850152015416151591829101526109b457824210156109b4574283039283116109a0575060019190565b634e487b7160e01b81526011600452602490fd5b9150819056fea26469706673582212201a885df70a969e7e3f22230a2c6e7d458cd99897c74a0d7f994ee402fe94db6e64736f6c63430008140033",
  "linkReferences": {},
  "deployedLinkReferences": {}
}