{
  "_format": "hh-sol-artifact-1",
  "contractName": "LPTimeLock",
  "sourceName": "contracts/launch/LPTimeLock.sol",
  "abi": [
    {
      "inputs": [
        {
          "internalType": "uint256",
          "name": "_lockFee",
          "type": "uint256"
        },
        {
          "internalType": "address",
          "name": "_feeRecipient",
          "type": "address"
        }
      ],
      "stateMutability": "nonpayable",
      "type": "constructor"
    },
    {
      "inputs": [
        {
          "internalType": "address",
          "name": "owner",
          "type": "address"
        }
      ],
      "name": "OwnableInvalidOwner",
      "type": "error"
    },
    {
      "inputs": [
        {
          "internalType": "address",
          "name": "account",
          "type": "address"
        }
      ],
      "name": "OwnableUnauthorizedAccount",
      "type": "error"
    },
    {
      "inputs": [],
      "name": "ReentrancyGuardReentrantCall",
      "type": "error"
    },
    {
      "inputs": [
        {
          "internalType": "address",
          "name": "token",
          "type": "address"
        }
      ],
      "name": "SafeERC20FailedOperation",
      "type": "error"
    },
    {
      "anonymous": false,
      "inputs": [
        {
          "indexed": false,
          "internalType": "address",
          "name": "oldRecipient",
          "type": "address"
        },
        {
          "indexed": false,
          "internalType": "address",
          "name": "newRecipient",
          "type": "address"
        }
      ],
      "name": "FeeRecipientUpdated",
      "type": "event"
    },
    {
      "anonymous": false,
      "inputs": [
        {
          "indexed": true,
          "internalType": "uint256",
          "name": "id",
          "type": "uint256"
        },
        {
          "indexed": true,
          "internalType": "address",
          "name": "oldBeneficiary",
          "type": "address"
        },
        {
          "indexed": true,
          "internalType": "address",
          "name": "newBeneficiary",
          "type": "address"
        }
      ],
      "name": "LockBeneficiaryUpdated",
      "type": "event"
    },
    {
      "anonymous": false,
      "inputs": [
        {
          "indexed": true,
          "internalType": "uint256",
          "name": "id",
          "type": "uint256"
        },
        {
          "indexed": true,
          "internalType": "address",
          "name": "token",
          "type": "address"
        },
        {
          "indexed": true,
          "internalType": "address",
          "name": "beneficiary",
          "type": "address"
        },
        {
          "indexed": false,
          "internalType": "uint256",
          "name": "requestedAmount",
          "type": "uint256"
        },
        {
          "indexed": false,
          "internalType": "uint256",
          "name": "receivedAmount",
          "type": "uint256"
        },
        {
          "indexed": false,
          "internalType": "uint256",
          "name": "unlockTime",
          "type": "uint256"
        }
      ],
      "name": "LockCreated",
      "type": "event"
    },
    {
      "anonymous": false,
      "inputs": [
        {
          "indexed": true,
          "internalType": "uint256",
          "name": "id",
          "type": "uint256"
        },
        {
          "indexed": false,
          "internalType": "uint256",
          "name": "oldUnlockTime",
          "type": "uint256"
        },
        {
          "indexed": false,
          "internalType": "uint256",
          "name": "newUnlockTime",
          "type": "uint256"
        }
      ],
      "name": "LockExtended",
      "type": "event"
    },
    {
      "anonymous": false,
      "inputs": [
        {
          "indexed": false,
          "internalType": "uint256",
          "name": "oldFee",
          "type": "uint256"
        },
        {
          "indexed": false,
          "internalType": "uint256",
          "name": "newFee",
          "type": "uint256"
        }
      ],
      "name": "LockFeeUpdated",
      "type": "event"
    },
    {
      "anonymous": false,
      "inputs": [
        {
          "indexed": true,
          "internalType": "uint256",
          "name": "id",
          "type": "uint256"
        },
        {
          "indexed": true,
          "internalType": "address",
          "name": "oldOwner",
          "type": "address"
        },
        {
          "indexed": true,
          "internalType": "address",
          "name": "newOwner",
          "type": "address"
        }
      ],
      "name": "LockOwnershipTransferred",
      "type": "event"
    },
    {
      "anonymous": false,
      "inputs": [
        {
          "indexed": true,
          "internalType": "address",
          "name": "previousOwner",
          "type": "address"
        },
        {
          "indexed": true,
          "internalType": "address",
          "name": "newOwner",
          "type": "address"
        }
      ],
      "name": "OwnershipTransferred",
      "type": "event"
    },
    {
      "anonymous": false,
      "inputs": [
        {
          "indexed": true,
          "internalType": "uint256",
          "name": "id",
          "type": "uint256"
        },
        {
          "indexed": true,
          "internalType": "address",
          "name": "beneficiary",
          "type": "address"
        },
        {
          "indexed": false,
          "internalType": "uint256",
          "name": "amount",
          "type": "uint256"
        }
      ],
      "name": "Withdrawn",
      "type": "event"
    },
    {
      "inputs": [],
      "name": "MIN_LOCK_DURATION",
      "outputs": [
        {
          "internalType": "uint256",
          "name": "",
          "type": "uint256"
        }
      ],
      "stateMutability": "view",
      "type": "function"
    },
    {
      "inputs": [
        {
          "internalType": "address",
          "name": "token",
          "type": "address"
        },
        {
          "internalType": "address",
          "name": "beneficiary",
          "type": "address"
        },
        {
          "internalType": "uint256",
          "name": "amount",
          "type": "uint256"
        },
        {
          "internalType": "uint256",
          "name": "unlockTime",
          "type": "uint256"
        }
      ],
      "name": "createLock",
      "outputs": [
        {
          "internalType": "uint256",
          "name": "id",
          "type": "uint256"
        }
      ],
      "stateMutability": "payable",
      "type": "function"
    },
    {
      "inputs": [
        {
          "internalType": "uint256",
          "name": "id",
          "type": "uint256"
        },
        {
          "internalType": "uint256",
          "name": "newUnlockTime",
          "type": "uint256"
        }
      ],
      "name": "extendLock",
      "outputs": [],
      "stateMutability": "nonpayable",
      "type": "function"
    },
    {
      "inputs": [],
      "name": "feeRecipient",
      "outputs": [
        {
          "internalType": "address",
          "name": "",
          "type": "address"
        }
      ],
      "stateMutability": "view",
      "type": "function"
    },
    {
      "inputs": [
        {
          "internalType": "uint256",
          "name": "id",
          "type": "uint256"
        }
      ],
      "name": "getLockStatus",
      "outputs": [
        {
          "internalType": "bool",
          "name": "isLocked",
          "type": "bool"
        },
        {
          "internalType": "uint256",
          "name": "remainingSeconds",
          "type": "uint256"
        }
      ],
      "stateMutability": "view",
      "type": "function"
    },
    {
      "inputs": [],
      "name": "lockFee",
      "outputs": [
        {
          "internalType": "uint256",
          "name": "",
          "type": "uint256"
        }
      ],
      "stateMutability": "view",
      "type": "function"
    },
    {
      "inputs": [
        {
          "internalType": "uint256",
          "name": "",
          "type": "uint256"
        }
      ],
      "name": "locks",
      "outputs": [
        {
          "internalType": "address",
          "name": "token",
          "type": "address"
        },
        {
          "internalType": "address",
          "name": "owner",
          "type": "address"
        },
        {
          "internalType": "address",
          "name": "beneficiary",
          "type": "address"
        },
        {
          "internalType": "uint256",
          "name": "amount",
          "type": "uint256"
        },
        {
          "internalType": "uint256",
          "name": "unlockTime",
          "type": "uint256"
        },
        {
          "internalType": "bool",
          "name": "exists",
          "type": "bool"
        },
        {
          "internalType": "bool",
          "name": "withdrawn",
          "type": "bool"
        }
      ],
      "stateMutability": "view",
      "type": "function"
    },
    {
      "inputs": [],
      "name": "nextId",
      "outputs": [
        {
          "internalType": "uint256",
          "name": "",
          "type": "uint256"
        }
      ],
      "stateMutability": "view",
      "type": "function"
    },
    {
      "inputs": [],
      "name": "owner",
      "outputs": [
        {
          "internalType": "address",
          "name": "",
          "type": "address"
        }
      ],
      "stateMutability": "view",
      "type": "function"
    },
    {
      "inputs": [],
      "name": "renounceOwnership",
      "outputs": [],
      "stateMutability": "nonpayable",
      "type": "function"
    },
    {
      "inputs": [
        {
          "internalType": "address",
          "name": "newRecipient",
          "type": "address"
        }
      ],
      "name": "setFeeRecipient",
      "outputs": [],
      "stateMutability": "nonpayable",
      "type": "function"
    },
    {
      "inputs": [
        {
          "internalType": "uint256",
          "name": "newFee",
          "type": "uint256"
        }
      ],
      "name": "setLockFee",
      "outputs": [],
      "stateMutability": "nonpayable",
      "type": "function"
    },
    {
      "inputs": [
        {
          "internalType": "uint256",
          "name": "id",
          "type": "uint256"
        },
        {
          "internalType": "address",
          "name": "newOwner",
          "type": "address"
        }
      ],
      "name": "transferLockOwnership",
      "outputs": [],
      "stateMutability": "nonpayable",
      "type": "function"
    },
    {
      "inputs": [
        {
          "internalType": "address",
          "name": "newOwner",
          "type": "address"
        }
      ],
      "name": "transferOwnership",
      "outputs": [],
      "stateMutability": "nonpayable",
      "type": "function"
    },
    {
      "inputs": [
        {
          "internalType": "uint256",
          "name": "id",
          "type": "uint256"
        },
        {
          "internalType": "address",
          "name": "newBeneficiary",
          "type": "address"
        }
      ],
      "name": "updateBeneficiary",
      "outputs": [],
      "stateMutability": "nonpayable",
      "type": "function"
    },
    {
      "inputs": [
        {
          "internalType": "uint256",
          "name": "id",
          "type": "uint256"
        }
      ],
      "name": "withdraw",
      "outputs": [],
      "stateMutability": "nonpayable",
      "type": "function"
    }
  ],
  "bytecode": "0x60803461012657601f6111d238819003918201601f19168301916001600160401b0383118484101761012b5780849260409485528339810103126101265780516020909101516001600160a01b038116919082900361012657600160005533156101105760018054336001600160a01b03198216811790925560405191906001600160a01b03167f8be0079c531659141344cd1fd0a4f28419497f9722a3daafe3b4186f6b6457e0600080a3600160045582156100dd5750600255600380546001600160a01b03191691909117905560405161109090816101428239f35b62461bcd60e51b815260206004820152600e60248201526d0666565526563697069656e743d360941b6044820152606490fd5b631e4fbdf760e01b600052600060045260246000fd5b600080fd5b634e487b7160e01b600052604160045260246000fdfe6080604052600436101561001257600080fd5b60003560e01c8063070d66bf14610ca35780632e1a7d4d14610b265780633e8eb5a414610a1957806346904840146109f057806356a06235146109d25780635a04fb69146108cb57806361b8ce8c146108ad578063715018a61461085057806378b4330f146108325780638978b2da146107ea5780638da5cb5b146107c15780639f7260bd1461076e578063e74b981b146106ba578063f2fde38b14610630578063f4dadc61146105a35763f6a8d50a146100cc57600080fd5b608036600319011261038f576100e0610da7565b6100e8610d91565b60443591606435916100f8610fb4565b6002549182341061056b576001600160a01b031690811561053c576001600160a01b03169182156105075784156104d75762015180420180421161031b578410610492578061042c575b5061014f60025434610ecb565b806103da575b506040516370a0823160e01b8152306004820152602081602481855afa90811561039c576000916103a8575b506101bc6040516323b872dd60e01b6020820152336024820152306044820152866064820152606481526101b6608482610ea9565b83610fff565b6040516370a0823160e01b815230600482015290602082602481865afa801561039c57600090610363575b6101f19250610ecb565b9384156103315760045493600019851461031b57606085927f22b6b8a4d5a914ae1011461bc63aae897aa95e59716646efa0f307cca8a1ae63926020986001860160045560405161024181610e77565b878152338b820190815260408083018b815287840185815260808501878152600160a08701818152600060c089018181528f8252600560208190529188902099518a546001600160a01b039182166001600160a01b0319918216178c559951948b018054958216958b1695909517909455955160028a018054919094169816979097179091559151600387015551600486015551939092018054925161ff0090151560081b1693151560ff1661ffff19909316929092179290921790558051938452838b0191909152820152a46001600055604051908152f35b634e487b7160e01b600052601160045260246000fd5b60405162461bcd60e51b815260206004820152600a602482015269072656365697665643d360b41b6044820152606490fd5b506020823d602011610394575b8161037d60209383610ea9565b8101031261038f576101f191516101e7565b600080fd5b3d9150610370565b6040513d6000823e3d90fd5b90506020813d6020116103d2575b816103c360209383610ea9565b8101031261038f575138610181565b3d91506103b6565b600080808093335af16103eb610f74565b50156103f75738610155565b60405162461bcd60e51b815260206004820152600d60248201526c1c99599d5b990819985a5b1959609a1b6044820152606490fd5b6003546000918291829182916001600160a01b03165af161044b610f74565b50156104575738610142565b60405162461bcd60e51b8152602060048201526013602482015272199959481d1c985b9cd9995c8819985a5b1959606a1b6044820152606490fd5b60405162461bcd60e51b815260206004820152601760248201527f6c6f636b206475726174696f6e20746f6f2073686f72740000000000000000006044820152606490fd5b60405162461bcd60e51b81526020600482015260086024820152670616d6f756e743d360c41b6044820152606490fd5b60405162461bcd60e51b815260206004820152600d60248201526c062656e65666963696172793d3609c1b6044820152606490fd5b60405162461bcd60e51b81526020600482015260076024820152660746f6b656e3d360cc1b6044820152606490fd5b60405162461bcd60e51b815260206004820152601060248201526f696e73756666696369656e742066656560801b6044820152606490fd5b3461038f57602036600319011261038f57600435600052600560205260e0604060002060ff60018060a01b038254169160018060a01b036001820154169060018060a01b0360028201541660038201549060056004840154930154936040519687526020870152604086015260608501526080840152818116151560a084015260081c16151560c0820152f35b3461038f57602036600319011261038f57610649610da7565b610651610fd6565b6001600160a01b031680156106a457600180546001600160a01b0319811683179091556001600160a01b03167f8be0079c531659141344cd1fd0a4f28419497f9722a3daafe3b4186f6b6457e0600080a3005b631e4fbdf760e01b600052600060045260246000fd5b3461038f57602036600319011261038f576106d3610da7565b6106db610fd6565b6001600160a01b0316801561073857600354604080516001600160a01b0383168152602081018490527faaebcf1bfa00580e41d966056b48521fa9f202645c86d4ddf28113e617c1b1d39190a16001600160a01b03191617600355005b60405162461bcd60e51b815260206004820152600e60248201526d0666565526563697069656e743d360941b6044820152606490fd5b3461038f57602036600319011261038f5760043561078a610fd6565b7f58dfc23d20a390782f8a3cead1afe03996409c5373adc193bc5de9467d8d853660406002548151908152836020820152a1600255005b3461038f57600036600319011261038f576001546040516001600160a01b039091168152602090f35b3461038f57602036600319011261038f57604061082460043580600052600560205261081f60ff600585600020015416610dbd565b610ed8565b825191151582526020820152f35b3461038f57600036600319011261038f576020604051620151808152f35b3461038f57600036600319011261038f57610869610fd6565b600180546001600160a01b031981169091556000906001600160a01b03167f8be0079c531659141344cd1fd0a4f28419497f9722a3daafe3b4186f6b6457e08280a3005b3461038f57600036600319011261038f576020600454604051908152f35b3461038f57604036600319011261038f576004356108e7610d91565b81600052600560205261090460ff60056040600020015416610dbd565b81600052600560205261092860018060a01b03600160406000200154163314610dfa565b6001600160a01b03169081156109a0578060005260056020526001604060002061095c60ff600583015460081c1615610e37565b0180546001600160a01b0319811684179091556001600160a01b0316907f94cb47eeeeb76a68c4d24f7c656bc9e63d5bc82211fc7784b33e438103b2f873600080a4005b60405162461bcd60e51b815260206004820152600a60248201526906e65774f776e65723d360b41b6044820152606490fd5b3461038f57600036600319011261038f576020600254604051908152f35b3461038f57600036600319011261038f576003546040516001600160a01b039091168152602090f35b3461038f57604036600319011261038f57600435610a35610d91565b816000526005602052610a5260ff60056040600020015416610dbd565b816000526005602052610a7660018060a01b03600160406000200154163314610dfa565b6001600160a01b0316908115610aee5780600052600560205260026040600020610aaa60ff600583015460081c1615610e37565b0180546001600160a01b0319811684179091556001600160a01b0316907fb46dd957666562116725549320e1a014fec61f371662e239650e548197f9f5ef600080a4005b60405162461bcd60e51b815260206004820152601060248201526f06e657742656e65666963696172793d360841b6044820152606490fd5b3461038f57602036600319011261038f57600435610b42610fb4565b806000526005602052610b5f60ff60056040600020015416610dbd565b80600052600560205260406000209060058201805490610b8560ff8360081c1615610e37565b6002840180546001600160a01b03169233849003610c6c5760048601544210610c38577fcf7d23a3cbe4e8b36ff82fd1b05b1b17373dc7804b4ebbd6e2356716ef20237293602093610100610c1b9361ff001916179055600360018060a01b0388541697019687546040519263a9059cbb60e01b878501526024840152604483015260448252610c16606483610ea9565b610fff565b5493546040519081526001600160a01b0390941693a36001600055005b60405162461bcd60e51b815260206004820152600c60248201526b1cdd1a5b1b081b1bd8dad95960a21b6044820152606490fd5b60405162461bcd60e51b815260206004820152600f60248201526e6e6f742062656e656669636961727960881b6044820152606490fd5b3461038f57604036600319011261038f57600435602435816000526005602052610cd760ff60056040600020015416610dbd565b816000526005602052610cfb60018060a01b03600160406000200154163314610dfa565b81600052600560205260046040600020610d1f60ff600583015460081c1615610e37565b01805480831115610d5e57827f12c0f64f942f99aa5210c23a8ab729735389400457b66b06895b0700315c3b33936040935582519182526020820152a2005b60405162461bcd60e51b815260206004820152600b60248201526a1b5d5cdd08195e1d195b9960aa1b6044820152606490fd5b602435906001600160a01b038216820361038f57565b600435906001600160a01b038216820361038f57565b15610dc457565b60405162461bcd60e51b815260206004820152600e60248201526d1b1bd8dac81b9bdd08199bdd5b9960921b6044820152606490fd5b15610e0157565b60405162461bcd60e51b815260206004820152600e60248201526d2737ba103637b1b59037bbb732b960911b6044820152606490fd5b15610e3e57565b60405162461bcd60e51b815260206004820152601160248201527030b63932b0b23c903bb4ba34323930bbb760791b6044820152606490fd5b60e0810190811067ffffffffffffffff821117610e9357604052565b634e487b7160e01b600052604160045260246000fd5b90601f8019910116810190811067ffffffffffffffff821117610e9357604052565b9190820391821161031b57565b6000526005602052604060002060c0604051610ef381610e77565b82546001600160a01b03908116825260018401548116602083015260028401541660408201526003830154606082015260048301546080820181905260059093015460ff818116151560a084015260089190911c1615159101819052610f6b5780421015610f6b57610f66904290610ecb565b600191565b50600090600090565b3d15610faf573d9067ffffffffffffffff8211610e935760405191610fa3601f8201601f191660200184610ea9565b82523d6000602084013e565b606090565b600260005414610fc5576002600055565b633ee5aeb560e01b60005260046000fd5b6001546001600160a01b03163303610fea57565b63118cdaa760e01b6000523360045260246000fd5b906000602091828151910182855af11561039c576000513d61105157506001600160a01b0381163b155b6110305750565b635274afe760e01b60009081526001600160a01b0391909116600452602490fd5b6001141561102956fea26469706673582212205997fcd9d0fc2498981d7d4fba49cb8116414188d1e86759dd5e29ecccfffd5664736f6c634300081c0033",
  "linkReferences": {},
  "deployedLinkReferences": {}
}