{
  "_format": "hh-sol-artifact-1",
  "contractName": "LinearVestingVaultUpgradeable",
  "sourceName": "contracts/launch/LinearVestingVaultUpgradeable.sol",
  "abi": [
    {
      "inputs": [],
      "name": "InvalidInitialization",
      "type": "error"
    },
    {
      "inputs": [],
      "name": "NotInitializing",
      "type": "error"
    },
    {
      "anonymous": false,
      "inputs": [
        {
          "indexed": false,
          "internalType": "uint64",
          "name": "version",
          "type": "uint64"
        }
      ],
      "name": "Initialized",
      "type": "event"
    },
    {
      "anonymous": false,
      "inputs": [
        {
          "indexed": false,
          "internalType": "uint256",
          "name": "amount",
          "type": "uint256"
        },
        {
          "indexed": false,
          "internalType": "uint256",
          "name": "totalReleased",
          "type": "uint256"
        },
        {
          "indexed": false,
          "internalType": "uint256",
          "name": "remaining",
          "type": "uint256"
        }
      ],
      "name": "Released",
      "type": "event"
    },
    {
      "inputs": [],
      "name": "beneficiary",
      "outputs": [
        {
          "internalType": "address",
          "name": "",
          "type": "address"
        }
      ],
      "stateMutability": "view",
      "type": "function"
    },
    {
      "inputs": [],
      "name": "cliffEndTime",
      "outputs": [
        {
          "internalType": "uint64",
          "name": "",
          "type": "uint64"
        }
      ],
      "stateMutability": "view",
      "type": "function"
    },
    {
      "inputs": [],
      "name": "cliffSeconds",
      "outputs": [
        {
          "internalType": "uint64",
          "name": "",
          "type": "uint64"
        }
      ],
      "stateMutability": "view",
      "type": "function"
    },
    {
      "inputs": [],
      "name": "durationSeconds",
      "outputs": [
        {
          "internalType": "uint64",
          "name": "",
          "type": "uint64"
        }
      ],
      "stateMutability": "view",
      "type": "function"
    },
    {
      "inputs": [],
      "name": "emergencyWithdraw",
      "outputs": [],
      "stateMutability": "nonpayable",
      "type": "function"
    },
    {
      "inputs": [
        {
          "internalType": "address",
          "name": "token_",
          "type": "address"
        },
        {
          "internalType": "address",
          "name": "beneficiary_",
          "type": "address"
        },
        {
          "internalType": "uint64",
          "name": "start_",
          "type": "uint64"
        },
        {
          "internalType": "uint64",
          "name": "cliffSeconds_",
          "type": "uint64"
        },
        {
          "internalType": "uint64",
          "name": "durationSeconds_",
          "type": "uint64"
        },
        {
          "internalType": "uint256",
          "name": "totalAllocation_",
          "type": "uint256"
        }
      ],
      "name": "initialize",
      "outputs": [],
      "stateMutability": "nonpayable",
      "type": "function"
    },
    {
      "inputs": [],
      "name": "isFullyVested",
      "outputs": [
        {
          "internalType": "bool",
          "name": "",
          "type": "bool"
        }
      ],
      "stateMutability": "view",
      "type": "function"
    },
    {
      "inputs": [],
      "name": "releasable",
      "outputs": [
        {
          "internalType": "uint256",
          "name": "",
          "type": "uint256"
        }
      ],
      "stateMutability": "view",
      "type": "function"
    },
    {
      "inputs": [],
      "name": "release",
      "outputs": [],
      "stateMutability": "nonpayable",
      "type": "function"
    },
    {
      "inputs": [],
      "name": "released",
      "outputs": [
        {
          "internalType": "uint256",
          "name": "",
          "type": "uint256"
        }
      ],
      "stateMutability": "view",
      "type": "function"
    },
    {
      "inputs": [],
      "name": "remaining",
      "outputs": [
        {
          "internalType": "uint256",
          "name": "",
          "type": "uint256"
        }
      ],
      "stateMutability": "view",
      "type": "function"
    },
    {
      "inputs": [],
      "name": "start",
      "outputs": [
        {
          "internalType": "uint64",
          "name": "",
          "type": "uint64"
        }
      ],
      "stateMutability": "view",
      "type": "function"
    },
    {
      "inputs": [],
      "name": "token",
      "outputs": [
        {
          "internalType": "contract IERC20",
          "name": "",
          "type": "address"
        }
      ],
      "stateMutability": "view",
      "type": "function"
    },
    {
      "inputs": [],
      "name": "totalAllocation",
      "outputs": [
        {
          "internalType": "uint256",
          "name": "",
          "type": "uint256"
        }
      ],
      "stateMutability": "view",
      "type": "function"
    },
    {
      "inputs": [],
      "name": "totalReleased",
      "outputs": [
        {
          "internalType": "uint256",
          "name": "",
          "type": "uint256"
        }
      ],
      "stateMutability": "view",
      "type": "function"
    },
    {
      "inputs": [
        {
          "internalType": "uint64",
          "name": "timestamp",
          "type": "uint64"
        }
      ],
      "name": "vestedAmount",
      "outputs": [
        {
          "internalType": "uint256",
          "name": "",
          "type": "uint256"
        }
      ],
      "stateMutability": "view",
      "type": "function"
    },
    {
      "inputs": [],
      "name": "vestingEndTime",
      "outputs": [
        {
          "internalType": "uint64",
          "name": "",
          "type": "uint64"
        }
      ],
      "stateMutability": "view",
      "type": "function"
    }
  ],
  "bytecode": "0x60808060405234601557610d39908161001b8239f35b600080fdfe6080604052600436101561001257600080fd5b60003560e01c80630a17b06b14610a16578063160a341e146109df57806338af3eed146109b657806355234ec01461099457806379203dc4146109765780638341ee721461094f57806386d1a69f1461071c57806386fab45e146106d157806396132521146101845780639acba2af146106a7578063be9a65551461067d578063c5fa3da31461033d578063db2e21bc146101a2578063e33b7de314610184578063ef15bf2e14610128578063fbccedae146101055763fc0c546a146100d757600080fd5b34610100576000366003190112610100576000546040516001600160a01b039091168152602090f35b600080fd5b34610100576000366003190112610100576020610120610ca0565b604051908152f35b346101005760003660031901126101005761014c6001600160401b03421115610c5f565b60206001600160401b0361016f8160015460a01c168260025460401c1690610a45565b166001600160401b0342161015604051908152f35b34610100576000366003190112610100576020600454604051908152f35b34610100576000366003190112610100576001546001600160a01b03166101ca338214610b94565b6000546040516370a0823160e01b8152306004820152906001600160a01b0316602082602481845afa9182156102c857600092610306575b5081156102d457600354600490815560405163a9059cbb60e01b81526001600160a01b03949094169084015260248301829052602090839060449082906000905af19081156102c8576102816060927ff854feef4c325cc8fcfad1a693b62c4383c8d228c4ca0bc52f9e06095338a5f194600091610299575b50610c21565b600454604051918252602082015260006040820152a1005b6102bb915060203d6020116102c1575b6102b38183610bd2565b810190610c09565b8561027b565b503d6102a9565b6040513d6000823e3d90fd5b60405162461bcd60e51b815260206004820152600a6024820152696e6f2062616c616e636560b01b6044820152606490fd5b90916020823d602011610335575b8161032160209383610bd2565b810103126103325750519083610202565b80fd5b3d9150610314565b346101005760c0366003190112610100576004356001600160a01b03811690819003610100576024356001600160a01b0381169190829003610100576044356001600160401b0381168103610100576064356001600160401b03811680910361010057608435916001600160401b038316948584036101005760a43594600080516020610ce483398151915254966001600160401b0360ff8960401c1615981680159081610675575b600114908161066b575b159081610662575b50610651578760016001600160401b0319600080516020610ce4833981519152541617600080516020610ce48339815191525561061a575b81156105eb5782156105b657801561058457841161054c578515610518576bffffffffffffffffffffffff60a01b6000541617600055600154916001600160401b0360a01b9060a01b169163ffffffff60e01b1617176001556fffffffffffffffff00000000000000006002549260401b16916fffffffffffffffffffffffffffffffff191617176002556003556104c457005b60ff60401b19600080516020610ce48339815191525416600080516020610ce4833981519152557fc7f505b2f371ae2175ee4913f4499e1f2633a7b5936321eed1cdaeb6115181d2602060405160018152a1005b60405162461bcd60e51b815260206004820152600c60248201526b0616c6c6f636174696f6e3d360a41b6044820152606490fd5b60405162461bcd60e51b815260206004820152601060248201526f323ab930ba34b7b7101e1031b634b33360811b6044820152606490fd5b60405162461bcd60e51b815260206004820152600a60248201526906475726174696f6e3d360b41b6044820152606490fd5b60405162461bcd60e51b815260206004820152600d60248201526c062656e65666963696172793d3609c1b6044820152606490fd5b60405162461bcd60e51b81526020600482015260076024820152660746f6b656e3d360cc1b6044820152606490fd5b6801000000000000000060ff60401b19600080516020610ce4833981519152541617600080516020610ce483398151915255610430565b63f92ee8a960e01b60005260046000fd5b905015896103f8565b303b1591506103f0565b8991506103e6565b346101005760003660031901126101005760206001600160401b0360015460a01c16604051908152f35b346101005760003660031901126101005760206001600160401b0360025460401c16604051908152f35b3461010057600036600319011261010057602061070b6001600160401b0360015460a01c166001600160401b0360025460401c1690610a45565b6001600160401b0360405191168152f35b34610100576000366003190112610100576001546001600160a01b0316610744338214610b94565b61074c610ca0565b801561091557600454916107608284610a9b565b600354106108d0576000546040516370a0823160e01b81523060048201526001600160a01b039091169390602081602481885afa80156102c857849160009161089b575b5010610856576107f2936020926107bc858094610a9b565b600455600060405180978195829463a9059cbb60e01b84526004840160209093929193604081019460018060a01b031681520152565b03925af19081156102c8576108326060927ff854feef4c325cc8fcfad1a693b62c4383c8d228c4ca0bc52f9e06095338a5f1946000916102995750610c21565b6003546108426004548092610b87565b9060405192835260208301526040820152a1005b60405162461bcd60e51b815260206004820152601d60248201527f696e73756666696369656e7420636f6e74726163742062616c616e63650000006044820152606490fd5b9150506020813d6020116108c8575b816108b760209383610bd2565b8101031261010057839051866107a4565b3d91506108aa565b60405162461bcd60e51b815260206004820152601a60248201527f72656c65617365206578636565647320616c6c6f636174696f6e0000000000006044820152606490fd5b60405162461bcd60e51b81526020600482015260126024820152716e6f7468696e6720746f2072656c6561736560701b6044820152606490fd5b346101005760003660031901126101005760206001600160401b0360025416604051908152f35b34610100576000366003190112610100576020600354604051908152f35b3461010057600036600319011261010057602061012060035460045490610b87565b34610100576000366003190112610100576001546040516001600160a01b039091168152602090f35b3461010057600036600319011261010057602061070b6001600160401b0360015460a01c166001600160401b036002541690610a45565b34610100576020366003190112610100576004356001600160401b038116810361010057610120602091610aa8565b906001600160401b03809116911601906001600160401b038211610a6557565b634e487b7160e01b600052601160045260246000fd5b906001600160401b03809116911603906001600160401b038211610a6557565b91908201809211610a6557565b6001600160401b0360015460a01c16600254906001600160401b03821690610ad08282610a45565b926001600160401b038516906001600160401b0385168210610b7c57610b046001600160401b03809260401c168094610a45565b161115610b72576001600160401b0391610b1d91610a7b565b16918215610b69576001600160401b0391610b3791610a7b565b1660035481810291818304811482151715610a655760018101809111610a6557831115610b6357500490565b91505090565b50505060035490565b5050505060035490565b505050505050600090565b91908203918211610a6557565b15610b9b57565b60405162461bcd60e51b815260206004820152600f60248201526e6e6f742062656e656669636961727960881b6044820152606490fd5b90601f801991011681019081106001600160401b03821117610bf357604052565b634e487b7160e01b600052604160045260246000fd5b90816020910312610100575180151581036101005790565b15610c2857565b60405162461bcd60e51b815260206004820152600f60248201526e1d1c985b9cd9995c8819985a5b1959608a1b6044820152606490fd5b15610c6657565b60405162461bcd60e51b815260206004820152601260248201527174696d657374616d70206f766572666c6f7760701b6044820152606490fd5b610cb36001600160401b03421115610c5f565b610cc56001600160401b034216610aa8565b60045480821115610cdc57610cd991610b87565b90565b505060009056fef0c57e16840df040f15088dc2f81fe391c3923bec73e23a9662efc9c229c6a00a2646970667358221220e559187ef87dfbacf32ccd2be254f4268740aff7ff24d0d12fea8857de8e07ca64736f6c634300081c0033",
  "linkReferences": {},
  "deployedLinkReferences": {}
}