{
  "_format": "hh-sol-artifact-1",
  "contractName": "LinearVestingVaultUpgradeable",
  "sourceName": "contracts/launch/LinearVestingVaultUpgradeable.sol",
  "abi": [
    {
      "inputs": [],
      "name": "InvalidInitialization",
      "type": "error"
    },
    {
      "inputs": [],
      "name": "NotInitializing",
      "type": "error"
    },
    {
      "anonymous": false,
      "inputs": [
        {
          "indexed": false,
          "internalType": "uint64",
          "name": "version",
          "type": "uint64"
        }
      ],
      "name": "Initialized",
      "type": "event"
    },
    {
      "anonymous": false,
      "inputs": [
        {
          "indexed": false,
          "internalType": "uint256",
          "name": "amount",
          "type": "uint256"
        },
        {
          "indexed": false,
          "internalType": "uint256",
          "name": "totalReleased",
          "type": "uint256"
        },
        {
          "indexed": false,
          "internalType": "uint256",
          "name": "remaining",
          "type": "uint256"
        }
      ],
      "name": "Released",
      "type": "event"
    },
    {
      "inputs": [],
      "name": "beneficiary",
      "outputs": [
        {
          "internalType": "address",
          "name": "",
          "type": "address"
        }
      ],
      "stateMutability": "view",
      "type": "function"
    },
    {
      "inputs": [],
      "name": "cliffEndTime",
      "outputs": [
        {
          "internalType": "uint64",
          "name": "",
          "type": "uint64"
        }
      ],
      "stateMutability": "view",
      "type": "function"
    },
    {
      "inputs": [],
      "name": "cliffSeconds",
      "outputs": [
        {
          "internalType": "uint64",
          "name": "",
          "type": "uint64"
        }
      ],
      "stateMutability": "view",
      "type": "function"
    },
    {
      "inputs": [],
      "name": "durationSeconds",
      "outputs": [
        {
          "internalType": "uint64",
          "name": "",
          "type": "uint64"
        }
      ],
      "stateMutability": "view",
      "type": "function"
    },
    {
      "inputs": [],
      "name": "emergencyWithdraw",
      "outputs": [],
      "stateMutability": "nonpayable",
      "type": "function"
    },
    {
      "inputs": [
        {
          "internalType": "address",
          "name": "token_",
          "type": "address"
        },
        {
          "internalType": "address",
          "name": "beneficiary_",
          "type": "address"
        },
        {
          "internalType": "uint64",
          "name": "start_",
          "type": "uint64"
        },
        {
          "internalType": "uint64",
          "name": "cliffSeconds_",
          "type": "uint64"
        },
        {
          "internalType": "uint64",
          "name": "durationSeconds_",
          "type": "uint64"
        },
        {
          "internalType": "uint256",
          "name": "totalAllocation_",
          "type": "uint256"
        }
      ],
      "name": "initialize",
      "outputs": [],
      "stateMutability": "nonpayable",
      "type": "function"
    },
    {
      "inputs": [],
      "name": "isFullyVested",
      "outputs": [
        {
          "internalType": "bool",
          "name": "",
          "type": "bool"
        }
      ],
      "stateMutability": "view",
      "type": "function"
    },
    {
      "inputs": [],
      "name": "releasable",
      "outputs": [
        {
          "internalType": "uint256",
          "name": "",
          "type": "uint256"
        }
      ],
      "stateMutability": "view",
      "type": "function"
    },
    {
      "inputs": [],
      "name": "release",
      "outputs": [],
      "stateMutability": "nonpayable",
      "type": "function"
    },
    {
      "inputs": [],
      "name": "released",
      "outputs": [
        {
          "internalType": "uint256",
          "name": "",
          "type": "uint256"
        }
      ],
      "stateMutability": "view",
      "type": "function"
    },
    {
      "inputs": [],
      "name": "remaining",
      "outputs": [
        {
          "internalType": "uint256",
          "name": "",
          "type": "uint256"
        }
      ],
      "stateMutability": "view",
      "type": "function"
    },
    {
      "inputs": [],
      "name": "start",
      "outputs": [
        {
          "internalType": "uint64",
          "name": "",
          "type": "uint64"
        }
      ],
      "stateMutability": "view",
      "type": "function"
    },
    {
      "inputs": [],
      "name": "token",
      "outputs": [
        {
          "internalType": "contract IERC20",
          "name": "",
          "type": "address"
        }
      ],
      "stateMutability": "view",
      "type": "function"
    },
    {
      "inputs": [],
      "name": "totalAllocation",
      "outputs": [
        {
          "internalType": "uint256",
          "name": "",
          "type": "uint256"
        }
      ],
      "stateMutability": "view",
      "type": "function"
    },
    {
      "inputs": [],
      "name": "totalReleased",
      "outputs": [
        {
          "internalType": "uint256",
          "name": "",
          "type": "uint256"
        }
      ],
      "stateMutability": "view",
      "type": "function"
    },
    {
      "inputs": [
        {
          "internalType": "uint64",
          "name": "timestamp",
          "type": "uint64"
        }
      ],
      "name": "vestedAmount",
      "outputs": [
        {
          "internalType": "uint256",
          "name": "",
          "type": "uint256"
        }
      ],
      "stateMutability": "view",
      "type": "function"
    },
    {
      "inputs": [],
      "name": "vestingEndTime",
      "outputs": [
        {
          "internalType": "uint64",
          "name": "",
          "type": "uint64"
        }
      ],
      "stateMutability": "view",
      "type": "function"
    }
  ],
  "bytecode": "0x6080806040523461001657610c9b908161001c8239f35b600080fdfe6040608081526004908136101561001557600080fd5b600091823560e01c9081630a17b06b146109cb578163160a341e1461099857816338af3eed1461096f57816355234ec01461094857816379203dc4146109295781638341ee721461090157816386d1a69f146106b657816386fab45e1461067957816396132521146101795781639acba2af14610650578163be9a655514610625578163c5fa3da314610332578163db2e21bc1461019b578163e33b7de31461017957508063ef15bf2e1461012b578063fbccedae146101085763fc0c546a146100de57600080fd5b34610104578160031936011261010457905490516001600160a01b039091168152602090f35b5080fd5b5034610104578160031936011261010457602090610124610b59565b9051908152f35b50346101045781600319360112610104576020906001600160401b0361015381421115610b0b565b8061016c8160015460a01c1682600254861c16906109fc565b1690421610159051908152f35b90503461019757826003193601126101975760209250549051908152f35b8280fd5b9050346101975782600319360112610197576001546001600160a01b03908116906101c7338314610b95565b845416918351926370a0823160e01b845230828501526020928385602481855afa9485156103285787956102f5575b5084156102c5576003548355855163a9059cbb60e01b81526001600160a01b039091168184019081526020810186905287949392849183919082908890829060400103925af19081156102bb579161027d8594927ff854feef4c325cc8fcfad1a693b62c4383c8d228c4ca0bc52f9e06095338a5f19894606098979161028e575b50610c27565b54908251948552840152820152a180f35b6102ae9150843d86116102b4575b6102a68183610bd3565b810190610c0a565b38610277565b503d61029c565b86513d86823e3d90fd5b855162461bcd60e51b8152808401859052600a6024820152696e6f2062616c616e636560b01b6044820152606490fd5b9094508381813d8311610321575b61030d8183610bd3565b8101031261031d575193386101f6565b8680fd5b503d610303565b86513d89823e3d90fd5b9050346101975760c0366003190112610197576001600160a01b0381358181169081900361062157602492833592831680930361061d5760449182356001600160401b03948582168203610619576064928335938785168095036106155760843595888716978888036106115760ff9a60a435998d7ff0c57e16840df040f15088dc2f81fe391c3923bec73e23a9662efc9c229c6a009d8e5480921c1615809d821680159182610609575b5060011490816105ff575b1590816105f6575b506105e65767ffffffffffffffff1981166001178e558c6105c7575b50851561059e57861561056f5780156105435788116105125789156104e557505050506bffffffffffffffffffffffff60a01b8a5416178955600154916001600160401b0360a01b9060a01b169163ffffffff60e01b1617176001556fffffffffffffffff000000000000000060025492871b16916fffffffffffffffffffffffffffffffff191617176002556003556104a4578280f35b805468ff00000000000000001916905551600181527fc7f505b2f371ae2175ee4913f4499e1f2633a7b5936321eed1cdaeb6115181d290602090a138808280f35b90600c6b0616c6c6f636174696f6e3d360a41b9260208f519562461bcd60e51b8752860152840152820152fd5b9060106f323ab930ba34b7b7101e1031b634b33360811b9260208f519562461bcd60e51b8752860152840152820152fd5b5090600a6906475726174696f6e3d360b41b9260208f519562461bcd60e51b8752860152840152820152fd5b5090600d6c062656e65666963696172793d3609c1b9260208f519562461bcd60e51b8752860152840152820152fd5b50906007660746f6b656e3d360cc1b9260208f519562461bcd60e51b8752860152840152820152fd5b68ffffffffffffffffff191668010000000000000001178d553861040c565b8e5163f92ee8a960e01b81528590fd5b905015386103f0565b303b1591506103e8565b91508e6103dd565b8c80fd5b8a80fd5b8880fd5b8580fd5b8480fd5b5050346101045781600319360112610104576020906001600160401b0360015460a01c169051908152f35b5050346101045781600319360112610104576002548151911c6001600160401b03168152602090f35b5050346101045781600319360112610104576020906001600160401b036106ae8160015460a01c1682600254851c16906109fc565b915191168152f35b9050346101975782600319360112610197576001546001600160a01b03908116916106e2338414610b95565b6106ea610b59565b9283156108c9578154926106fe8585610a46565b6003541061088657865416908551936370a0823160e01b855230848601526020948581602481875afa801561087c5787918a9161084b575b50106108085761078592859261074d888094610a46565b8655885163a9059cbb60e01b81526001600160a01b03909116818701908152602081019390935293849283918b918391604090910190565b03925af19081156107fe57916107c87ff854feef4c325cc8fcfad1a693b62c4383c8d228c4ca0bc52f9e06095338a5f19692606096959489916107e75750610c27565b6107d760035491548092610b4c565b928251948552840152820152a180f35b6102ae9150853d87116102b4576102a68183610bd3565b85513d88823e3d90fd5b865162461bcd60e51b8152808501869052601d60248201527f696e73756666696369656e7420636f6e74726163742062616c616e63650000006044820152606490fd5b809250878092503d8311610875575b6108648183610bd3565b810103126106195786905138610736565b503d61085a565b88513d8b823e3d90fd5b855162461bcd60e51b8152602081850152601a60248201527f72656c65617365206578636565647320616c6c6f636174696f6e0000000000006044820152606490fd5b845162461bcd60e51b815260208184015260126024820152716e6f7468696e6720746f2072656c6561736560701b6044820152606490fd5b5050346101045781600319360112610104576020906001600160401b03600254169051908152f35b5050346101045781600319360112610104576020906003549051908152f35b82843461096c578060031936011261096c5750610124602092600354905490610b4c565b80fd5b50503461010457816003193601126101045760015490516001600160a01b039091168152602090f35b5050346101045781600319360112610104576020906001600160401b036106ae8160015460a01c168260025416906109fc565b9050346101975760203660031901126101975735916001600160401b038316830361096c5750610124602092610a53565b9190916001600160401b0380809416911601918211610a1757565b634e487b7160e01b600052601160045260246000fd5b6001600160401b039182169082160391908211610a1757565b91908201809211610a1757565b6001600160401b038060015460a01c16916002549282841690610a7682826109fc565b94848416908587168210610aff57610a9586809260401c1680946109fc565b161115610af4578391610aa791610a2d565b16928315610aea57610ab891610a2d565b1660035481810291818304811482151715610a175760018101809111610a1757831115610ae457500490565b91505090565b5050505060035490565b505050505060035490565b50505050505050600090565b15610b1257565b60405162461bcd60e51b815260206004820152601260248201527174696d657374616d70206f766572666c6f7760701b6044820152606490fd5b91908203918211610a1757565b610b776001600160401b03610b7081421115610b0b565b4216610a53565b60045480821115610b8e57610b8b91610b4c565b90565b5050600090565b15610b9c57565b60405162461bcd60e51b815260206004820152600f60248201526e6e6f742062656e656669636961727960881b6044820152606490fd5b90601f801991011681019081106001600160401b03821117610bf457604052565b634e487b7160e01b600052604160045260246000fd5b90816020910312610c2257518015158103610c225790565b600080fd5b15610c2e57565b60405162461bcd60e51b815260206004820152600f60248201526e1d1c985b9cd9995c8819985a5b1959608a1b6044820152606490fdfea2646970667358221220e732a2ea74c83b13998796e97697bb3b2a728cc3a69da95649b0fe30209992cf64736f6c63430008140033",
  "linkReferences": {},
  "deployedLinkReferences": {}
}