{
  "_format": "hh-sol-artifact-1",
  "contractName": "SafeLaunchTokenUpgradeable",
  "sourceName": "contracts/launch/SafeLaunchTokenUpgradeable.sol",
  "abi": [
    {
      "inputs": [
        {
          "internalType": "address",
          "name": "spender",
          "type": "address"
        },
        {
          "internalType": "uint256",
          "name": "allowance",
          "type": "uint256"
        },
        {
          "internalType": "uint256",
          "name": "needed",
          "type": "uint256"
        }
      ],
      "name": "ERC20InsufficientAllowance",
      "type": "error"
    },
    {
      "inputs": [
        {
          "internalType": "address",
          "name": "sender",
          "type": "address"
        },
        {
          "internalType": "uint256",
          "name": "balance",
          "type": "uint256"
        },
        {
          "internalType": "uint256",
          "name": "needed",
          "type": "uint256"
        }
      ],
      "name": "ERC20InsufficientBalance",
      "type": "error"
    },
    {
      "inputs": [
        {
          "internalType": "address",
          "name": "approver",
          "type": "address"
        }
      ],
      "name": "ERC20InvalidApprover",
      "type": "error"
    },
    {
      "inputs": [
        {
          "internalType": "address",
          "name": "receiver",
          "type": "address"
        }
      ],
      "name": "ERC20InvalidReceiver",
      "type": "error"
    },
    {
      "inputs": [
        {
          "internalType": "address",
          "name": "sender",
          "type": "address"
        }
      ],
      "name": "ERC20InvalidSender",
      "type": "error"
    },
    {
      "inputs": [
        {
          "internalType": "address",
          "name": "spender",
          "type": "address"
        }
      ],
      "name": "ERC20InvalidSpender",
      "type": "error"
    },
    {
      "inputs": [],
      "name": "InvalidInitialization",
      "type": "error"
    },
    {
      "inputs": [],
      "name": "NotInitializing",
      "type": "error"
    },
    {
      "inputs": [
        {
          "internalType": "address",
          "name": "owner",
          "type": "address"
        }
      ],
      "name": "OwnableInvalidOwner",
      "type": "error"
    },
    {
      "inputs": [
        {
          "internalType": "address",
          "name": "account",
          "type": "address"
        }
      ],
      "name": "OwnableUnauthorizedAccount",
      "type": "error"
    },
    {
      "anonymous": false,
      "inputs": [
        {
          "indexed": true,
          "internalType": "address",
          "name": "owner",
          "type": "address"
        },
        {
          "indexed": true,
          "internalType": "address",
          "name": "spender",
          "type": "address"
        },
        {
          "indexed": false,
          "internalType": "uint256",
          "name": "value",
          "type": "uint256"
        }
      ],
      "name": "Approval",
      "type": "event"
    },
    {
      "anonymous": false,
      "inputs": [
        {
          "indexed": false,
          "internalType": "uint64",
          "name": "version",
          "type": "uint64"
        }
      ],
      "name": "Initialized",
      "type": "event"
    },
    {
      "anonymous": false,
      "inputs": [
        {
          "indexed": true,
          "internalType": "address",
          "name": "previousOwner",
          "type": "address"
        },
        {
          "indexed": true,
          "internalType": "address",
          "name": "newOwner",
          "type": "address"
        }
      ],
      "name": "OwnershipTransferred",
      "type": "event"
    },
    {
      "anonymous": false,
      "inputs": [
        {
          "indexed": true,
          "internalType": "address",
          "name": "pair",
          "type": "address"
        }
      ],
      "name": "PairSet",
      "type": "event"
    },
    {
      "anonymous": false,
      "inputs": [
        {
          "indexed": true,
          "internalType": "address",
          "name": "from",
          "type": "address"
        },
        {
          "indexed": true,
          "internalType": "address",
          "name": "to",
          "type": "address"
        },
        {
          "indexed": false,
          "internalType": "uint256",
          "name": "value",
          "type": "uint256"
        }
      ],
      "name": "Transfer",
      "type": "event"
    },
    {
      "inputs": [
        {
          "internalType": "address",
          "name": "owner",
          "type": "address"
        },
        {
          "internalType": "address",
          "name": "spender",
          "type": "address"
        }
      ],
      "name": "allowance",
      "outputs": [
        {
          "internalType": "uint256",
          "name": "",
          "type": "uint256"
        }
      ],
      "stateMutability": "view",
      "type": "function"
    },
    {
      "inputs": [
        {
          "internalType": "address",
          "name": "spender",
          "type": "address"
        },
        {
          "internalType": "uint256",
          "name": "value",
          "type": "uint256"
        }
      ],
      "name": "approve",
      "outputs": [
        {
          "internalType": "bool",
          "name": "",
          "type": "bool"
        }
      ],
      "stateMutability": "nonpayable",
      "type": "function"
    },
    {
      "inputs": [
        {
          "internalType": "address",
          "name": "account",
          "type": "address"
        }
      ],
      "name": "balanceOf",
      "outputs": [
        {
          "internalType": "uint256",
          "name": "",
          "type": "uint256"
        }
      ],
      "stateMutability": "view",
      "type": "function"
    },
    {
      "inputs": [],
      "name": "buyFeeBps",
      "outputs": [
        {
          "internalType": "uint16",
          "name": "",
          "type": "uint16"
        }
      ],
      "stateMutability": "view",
      "type": "function"
    },
    {
      "inputs": [],
      "name": "decimals",
      "outputs": [
        {
          "internalType": "uint8",
          "name": "",
          "type": "uint8"
        }
      ],
      "stateMutability": "view",
      "type": "function"
    },
    {
      "inputs": [],
      "name": "feesLocked",
      "outputs": [
        {
          "internalType": "bool",
          "name": "",
          "type": "bool"
        }
      ],
      "stateMutability": "view",
      "type": "function"
    },
    {
      "inputs": [
        {
          "internalType": "address",
          "name": "initialOwner_",
          "type": "address"
        },
        {
          "internalType": "string",
          "name": "name_",
          "type": "string"
        },
        {
          "internalType": "string",
          "name": "symbol_",
          "type": "string"
        },
        {
          "internalType": "uint256",
          "name": "supplyRaw_",
          "type": "uint256"
        },
        {
          "internalType": "address",
          "name": "marketingWallet_",
          "type": "address"
        },
        {
          "internalType": "uint16",
          "name": "buyFeeBps_",
          "type": "uint16"
        },
        {
          "internalType": "uint16",
          "name": "sellFeeBps_",
          "type": "uint16"
        }
      ],
      "name": "initialize",
      "outputs": [],
      "stateMutability": "nonpayable",
      "type": "function"
    },
    {
      "inputs": [],
      "name": "marketingWallet",
      "outputs": [
        {
          "internalType": "address",
          "name": "",
          "type": "address"
        }
      ],
      "stateMutability": "view",
      "type": "function"
    },
    {
      "inputs": [],
      "name": "name",
      "outputs": [
        {
          "internalType": "string",
          "name": "",
          "type": "string"
        }
      ],
      "stateMutability": "view",
      "type": "function"
    },
    {
      "inputs": [],
      "name": "owner",
      "outputs": [
        {
          "internalType": "address",
          "name": "",
          "type": "address"
        }
      ],
      "stateMutability": "view",
      "type": "function"
    },
    {
      "inputs": [],
      "name": "renounceOwnership",
      "outputs": [],
      "stateMutability": "nonpayable",
      "type": "function"
    },
    {
      "inputs": [],
      "name": "sellFeeBps",
      "outputs": [
        {
          "internalType": "uint16",
          "name": "",
          "type": "uint16"
        }
      ],
      "stateMutability": "view",
      "type": "function"
    },
    {
      "inputs": [
        {
          "internalType": "address",
          "name": "pair_",
          "type": "address"
        }
      ],
      "name": "setPair",
      "outputs": [],
      "stateMutability": "nonpayable",
      "type": "function"
    },
    {
      "inputs": [],
      "name": "symbol",
      "outputs": [
        {
          "internalType": "string",
          "name": "",
          "type": "string"
        }
      ],
      "stateMutability": "view",
      "type": "function"
    },
    {
      "inputs": [],
      "name": "totalSupply",
      "outputs": [
        {
          "internalType": "uint256",
          "name": "",
          "type": "uint256"
        }
      ],
      "stateMutability": "view",
      "type": "function"
    },
    {
      "inputs": [
        {
          "internalType": "address",
          "name": "to",
          "type": "address"
        },
        {
          "internalType": "uint256",
          "name": "value",
          "type": "uint256"
        }
      ],
      "name": "transfer",
      "outputs": [
        {
          "internalType": "bool",
          "name": "",
          "type": "bool"
        }
      ],
      "stateMutability": "nonpayable",
      "type": "function"
    },
    {
      "inputs": [
        {
          "internalType": "address",
          "name": "from",
          "type": "address"
        },
        {
          "internalType": "address",
          "name": "to",
          "type": "address"
        },
        {
          "internalType": "uint256",
          "name": "value",
          "type": "uint256"
        }
      ],
      "name": "transferFrom",
      "outputs": [
        {
          "internalType": "bool",
          "name": "",
          "type": "bool"
        }
      ],
      "stateMutability": "nonpayable",
      "type": "function"
    },
    {
      "inputs": [
        {
          "internalType": "address",
          "name": "newOwner",
          "type": "address"
        }
      ],
      "name": "transferOwnership",
      "outputs": [],
      "stateMutability": "nonpayable",
      "type": "function"
    },
    {
      "inputs": [],
      "name": "uniswapV2Pair",
      "outputs": [
        {
          "internalType": "address",
          "name": "",
          "type": "address"
        }
      ],
      "stateMutability": "view",
      "type": "function"
    }
  ],
  "bytecode": "0x6080806040523461001657611538908161001c8239f35b600080fdfe608080604052600436101561001357600080fd5b60003560e01c90816306fdde0314610ccd57508063095ea7b314610c4c57806318160ddd14610c2157806323b872dd14610b3c57806323cbe1f314610b17578063313ce56714610afb57806349bd5a5e14610ad25780635a27a1f914610aac57806370a0823114610a65578063715018a6146109fb57806375f0a874146109d257806377d2300e146109ad5780638187f516146109465780638a7fb3e5146102ae5780638da5cb5b1461027857806395d89b411461019a578063a9059cbb14610169578063dd62ed3e146101205763f2fde38b146100f057600080fd5b3461011b57602036600319011261011b5761011961010c610db6565b610114610e10565b610e49565b005b600080fd5b3461011b57604036600319011261011b57610139610db6565b61014a610144610dcc565b91610f19565b9060018060a01b03166000526020526020604060002054604051908152f35b3461011b57604036600319011261011b5761018f610185610db6565b6024359033610f52565b602060405160018152f35b3461011b57600036600319011261011b57604051600060008051602061146383398151915280546101ca81610ebd565b8085529160019180831690811561024e5750600114610204575b610200856101f481870382610ef7565b60405191829182610d6d565b0390f35b600090815292506000805160206114c38339815191525b8284106102365750505081016020016101f4826102006101e4565b8054602085870181019190915290930192810161021b565b869550610200969350602092506101f494915060ff191682840152151560051b82010192936101e4565b3461011b57600036600319011261011b57600080516020611483833981519152546040516001600160a01b039091168152602090f35b3461011b5760e036600319011261011b576102c7610db6565b60243567ffffffffffffffff811161011b576102e7903690600401610de2565b60449291923567ffffffffffffffff811161011b5761030a903690600401610de2565b93906084356001600160a01b038116900361011b5761ffff928360a4351660a4350361011b578360c4351660c4350361011b576000805160206114e3833981519152549367ffffffffffffffff85161580610938575b600167ffffffffffffffff871614908161092e575b159081610925575b5061091357600167ffffffffffffffff198616176000805160206114e38339815191525560ff8560401c16156108e6575b6001600160a01b038616156108b75760643515610887576107d090818160a43516116108525760c435161161081c576103f4926103ec913691610fa8565b943691610fa8565b6103fc610fef565b610404610fef565b835167ffffffffffffffff81116106f65761042d60008051602061142383398151915254610ebd565b601f81116107a6575b506020601f821160011461071757819293949560009261070c575b50508160011b916000199060031b1c191617600080516020611423833981519152555b80519067ffffffffffffffff82116106f65761049e60008051602061146383398151915254610ebd565b601f8111610680575b50602090601f83116001146105ec57918060ff9592610577946000926105e1575b50508160011b916000199060031b1c191617600080516020611463833981519152555b6104f3610fef565b6104fb610fef565b61050481610e49565b6084356001600160a01b0316156105db576084355b600080546001600160a01b0319166001600160a01b03929092169190911790556001805460c43560b01b61ffff60b01b1664ffffffffff60a01b1990911660a43560a01b61ffff60a01b161717600160c01b1790556064359061101e565b60401c161561058257005b68ff0000000000000000196000805160206114e383398151915254166000805160206114e3833981519152557fc7f505b2f371ae2175ee4913f4499e1f2633a7b5936321eed1cdaeb6115181d2602060405160018152a1005b80610519565b0151905086806104c8565b90601f198316916000805160206114638339815191526000526000805160206114c38339815191529260005b81811061066857509260019285926105779660ff99961061064f575b505050811b01600080516020611463833981519152556104eb565b015160001960f88460031b161c19169055868080610634565b92936020600181928786015181550195019301610618565b600080516020611463833981519152600052601f830160051c6000805160206114c383398151915201602084106106e1575b601f820160051c6000805160206114c38339815191520181106106d557506104a7565b600081556001016106b2565b506000805160206114c38339815191526106b2565b634e487b7160e01b600052604160045260246000fd5b015190508580610451565b6000805160206114238339815191526000526000805160206114038339815191529060005b601f198416811061078e575060019394959683601f19811610610775575b505050811b0160008051602061142383398151915255610474565b015160001960f88460031b161c1916905585808061075a565b9091602060018192858b01518155019301910161073c565b600080516020611423833981519152600052601f820160051c6000805160206114038339815191520160208310610807575b601f820160051c6000805160206114038339815191520181106107fb5750610436565b600081556001016107d8565b506000805160206114038339815191526107d8565b60405162461bcd60e51b815260206004820152600e60248201526d73656c6c20666565203e2032302560901b6044820152606490fd5b60405162461bcd60e51b815260206004820152600d60248201526c62757920666565203e2032302560981b6044820152606490fd5b60405162461bcd60e51b81526020600482015260086024820152670737570706c793d360c41b6044820152606490fd5b60405162461bcd60e51b815260206004820152600760248201526606f776e65723d360cc1b6044820152606490fd5b68ffffffffffffffffff19851668010000000000000001176000805160206114e3833981519152556103ae565b60405163f92ee8a960e01b8152600490fd5b9050158861037d565b303b159150610375565b5060ff8560401c1615610360565b3461011b57602036600319011261011b5761095f610db6565b610967610e10565b600180546001600160a01b0319166001600160a01b039290921691821790557fc4a4ea6abc08bd7f8df3db8a1c998f19b3e0c348176f93732cd54db1a4b50136600080a2005b3461011b57600036600319011261011b57602061ffff60015460a01c16604051908152f35b3461011b57600036600319011261011b576000546040516001600160a01b039091168152602090f35b3461011b57600036600319011261011b57610a14610e10565b60008051602061148383398151915280546001600160a01b031981169091556000906001600160a01b03167f8be0079c531659141344cd1fd0a4f28419497f9722a3daafe3b4186f6b6457e08280a3005b3461011b57602036600319011261011b576001600160a01b03610a86610db6565b166000526000805160206114438339815191526020526020604060002054604051908152f35b3461011b57600036600319011261011b57602060ff60015460c01c166040519015158152f35b3461011b57600036600319011261011b576001546040516001600160a01b039091168152602090f35b3461011b57600036600319011261011b57602060405160128152f35b3461011b57600036600319011261011b57602061ffff60015460b01c16604051908152f35b3461011b57606036600319011261011b57610b55610db6565b610b5d610dcc565b60443590610b6a83610f19565b33600052602052604060002054926000198410610b8c575b61018f9350610f52565b828410610bfb576001600160a01b03811615610be2573315610bc9578261018f94610bb683610f19565b3360005260205203604060002055610b82565b604051634a1406b160e11b815260006004820152602490fd5b60405163e602df0560e01b815260006004820152602490fd5b604051637dc7a0d960e11b81523360048201526024810185905260448101849052606490fd5b3461011b57600036600319011261011b5760206000805160206114a383398151915254604051908152f35b3461011b57604036600319011261011b57610c65610db6565b602435903315610be2576001600160a01b0316908115610bc957610c8833610f19565b82600052602052806040600020556040519081527f8c5be1e5ebec7d5bd14f71427d1e84f3dd0314c0f7b2291e5b200ac8c7c3b92560203392a3602060405160018152f35b3461011b57600036600319011261011b5760006000805160206114238339815191528054610cfa81610ebd565b8085529160019180831690811561024e5750600114610d2357610200856101f481870382610ef7565b600090815292506000805160206114038339815191525b828410610d555750505081016020016101f4826102006101e4565b80546020858701810191909152909301928101610d3a565b6020808252825181830181905290939260005b828110610da257505060409293506000838284010152601f8019910116010190565b818101860151848201604001528501610d80565b600435906001600160a01b038216820361011b57565b602435906001600160a01b038216820361011b57565b9181601f8401121561011b5782359167ffffffffffffffff831161011b576020838186019501011161011b57565b600080516020611483833981519152546001600160a01b03163303610e3157565b60405163118cdaa760e01b8152336004820152602490fd5b6001600160a01b03908116908115610ea45760008051602061148383398151915280546001600160a01b031981168417909155167f8be0079c531659141344cd1fd0a4f28419497f9722a3daafe3b4186f6b6457e0600080a3565b604051631e4fbdf760e01b815260006004820152602490fd5b90600182811c92168015610eed575b6020831014610ed757565b634e487b7160e01b600052602260045260246000fd5b91607f1691610ecc565b90601f8019910116810190811067ffffffffffffffff8211176106f657604052565b6001600160a01b031660009081527f52c63247e1f47db19d5ce0460030c497f067ca4cebf71ba98eeadabe20bace016020526040902090565b91906001600160a01b0380841615610f8f57811615610f7657610f7492611137565b565b60405163ec442f0560e01b815260006004820152602490fd5b604051634b637e8f60e11b815260006004820152602490fd5b92919267ffffffffffffffff82116106f65760405191610fd2601f8201601f191660200184610ef7565b82948184528183011161011b578281602093846000960137010152565b60ff6000805160206114e38339815191525460401c161561100c57565b604051631afcd79f60e31b8152600490fd5b90801561112e576001546001600160a01b039061ffff90828116801580159291839182611126575b508361111a575b8161110e575b5080611106575b600092156110ee575082915060a01c165b168061107d575b5050610f7491611241565b80830290838204036110bf5761271090049081156110725781816110ad92600054169081156110d5575b50611241565b81039081116110bf57610f7491611241565b634e487b7160e01b600052601160045260246000fd5b90506000805160206114838339815191525416386110a7565b6110f9575b5061106b565b82915060b01c16386110f3565b50600061105a565b90508487161438611053565b8786161515935061104d565b935038611046565b610f7491611241565b91908115611238576001546001600160a01b039061ffff90828116801515919082908161122c575b83611220575b81611214575b5080611209575b600092156111f1575082915060a01c165b1680611195575b5050610f74926112cc565b80840290848204036110bf57612710900490811561118a5781816111c692600054169081156111d8575b50866112cc565b82039182116110bf57610f74926112cc565b90506000805160206114838339815191525416386111bf565b6111fc575b50611183565b82915060b01c16386111f6565b508387161515611172565b9050848616143861116b565b86861615159350611165565b8886168114935061115f565b610f74926112cc565b906000805160206114a38339815191529182548281018091116110bf5783556001600160a01b0316916000917fddf252ad1be2c89b69c2b068fc378daa952ba7f163c4a11628f55a4df523b3ef9160209190856112a8578181540390555b604051908152a3565b5084845260008051602061144383398151915282526040842081815401905561129f565b6001600160a01b038082169290918361136f5750906000805160206114a3833981519152908154928584018094116110bf577fddf252ad1be2c89b69c2b068fc378daa952ba7f163c4a11628f55a4df523b3ef93602093555b16938461134a576000805160206114a3833981519152818154039055604051908152a3565b846000526000805160206114438339815191528252604060002081815401905561129f565b8360005260008051602061144383398151915280602052604060002054918683106113cf575091857fddf252ad1be2c89b69c2b068fc378daa952ba7f163c4a11628f55a4df523b3ef949260209487600052855203604060002055611325565b60405163391434e360e21b81526001600160a01b0391909116600482015260248101929092525060448101859052606490fdfe2ae08a8e29253f69ac5d979a101956ab8f8d9d7ded63fa7a83b16fc47648eab052c63247e1f47db19d5ce0460030c497f067ca4cebf71ba98eeadabe20bace0352c63247e1f47db19d5ce0460030c497f067ca4cebf71ba98eeadabe20bace0052c63247e1f47db19d5ce0460030c497f067ca4cebf71ba98eeadabe20bace049016d09d72d40fdae2fd8ceac6b6234c7706214fd39c1cd1e609a0528c19930052c63247e1f47db19d5ce0460030c497f067ca4cebf71ba98eeadabe20bace0246a2803e59a4de4e7a4c574b1243f25977ac4c77d5a1a4a609b5394cebb4a2aaf0c57e16840df040f15088dc2f81fe391c3923bec73e23a9662efc9c229c6a00a26469706673582212205b95b5c03d597bc8bce9ef699763d093b0c6d00ecd3a84da24d2d513f51c4d4764736f6c63430008140033",
  "linkReferences": {},
  "deployedLinkReferences": {}
}