{
  "_format": "hh-sol-artifact-1",
  "contractName": "SafeLaunchTokenUpgradeable",
  "sourceName": "contracts/launch/SafeLaunchTokenUpgradeable.sol",
  "abi": [
    {
      "inputs": [
        {
          "internalType": "address",
          "name": "spender",
          "type": "address"
        },
        {
          "internalType": "uint256",
          "name": "allowance",
          "type": "uint256"
        },
        {
          "internalType": "uint256",
          "name": "needed",
          "type": "uint256"
        }
      ],
      "name": "ERC20InsufficientAllowance",
      "type": "error"
    },
    {
      "inputs": [
        {
          "internalType": "address",
          "name": "sender",
          "type": "address"
        },
        {
          "internalType": "uint256",
          "name": "balance",
          "type": "uint256"
        },
        {
          "internalType": "uint256",
          "name": "needed",
          "type": "uint256"
        }
      ],
      "name": "ERC20InsufficientBalance",
      "type": "error"
    },
    {
      "inputs": [
        {
          "internalType": "address",
          "name": "approver",
          "type": "address"
        }
      ],
      "name": "ERC20InvalidApprover",
      "type": "error"
    },
    {
      "inputs": [
        {
          "internalType": "address",
          "name": "receiver",
          "type": "address"
        }
      ],
      "name": "ERC20InvalidReceiver",
      "type": "error"
    },
    {
      "inputs": [
        {
          "internalType": "address",
          "name": "sender",
          "type": "address"
        }
      ],
      "name": "ERC20InvalidSender",
      "type": "error"
    },
    {
      "inputs": [
        {
          "internalType": "address",
          "name": "spender",
          "type": "address"
        }
      ],
      "name": "ERC20InvalidSpender",
      "type": "error"
    },
    {
      "inputs": [],
      "name": "InvalidInitialization",
      "type": "error"
    },
    {
      "inputs": [],
      "name": "NotInitializing",
      "type": "error"
    },
    {
      "inputs": [
        {
          "internalType": "address",
          "name": "owner",
          "type": "address"
        }
      ],
      "name": "OwnableInvalidOwner",
      "type": "error"
    },
    {
      "inputs": [
        {
          "internalType": "address",
          "name": "account",
          "type": "address"
        }
      ],
      "name": "OwnableUnauthorizedAccount",
      "type": "error"
    },
    {
      "anonymous": false,
      "inputs": [
        {
          "indexed": true,
          "internalType": "address",
          "name": "owner",
          "type": "address"
        },
        {
          "indexed": true,
          "internalType": "address",
          "name": "spender",
          "type": "address"
        },
        {
          "indexed": false,
          "internalType": "uint256",
          "name": "value",
          "type": "uint256"
        }
      ],
      "name": "Approval",
      "type": "event"
    },
    {
      "anonymous": false,
      "inputs": [
        {
          "indexed": false,
          "internalType": "uint64",
          "name": "version",
          "type": "uint64"
        }
      ],
      "name": "Initialized",
      "type": "event"
    },
    {
      "anonymous": false,
      "inputs": [
        {
          "indexed": true,
          "internalType": "address",
          "name": "previousOwner",
          "type": "address"
        },
        {
          "indexed": true,
          "internalType": "address",
          "name": "newOwner",
          "type": "address"
        }
      ],
      "name": "OwnershipTransferred",
      "type": "event"
    },
    {
      "anonymous": false,
      "inputs": [
        {
          "indexed": true,
          "internalType": "address",
          "name": "pair",
          "type": "address"
        }
      ],
      "name": "PairSet",
      "type": "event"
    },
    {
      "anonymous": false,
      "inputs": [
        {
          "indexed": true,
          "internalType": "address",
          "name": "from",
          "type": "address"
        },
        {
          "indexed": true,
          "internalType": "address",
          "name": "to",
          "type": "address"
        },
        {
          "indexed": false,
          "internalType": "uint256",
          "name": "value",
          "type": "uint256"
        }
      ],
      "name": "Transfer",
      "type": "event"
    },
    {
      "inputs": [
        {
          "internalType": "address",
          "name": "owner",
          "type": "address"
        },
        {
          "internalType": "address",
          "name": "spender",
          "type": "address"
        }
      ],
      "name": "allowance",
      "outputs": [
        {
          "internalType": "uint256",
          "name": "",
          "type": "uint256"
        }
      ],
      "stateMutability": "view",
      "type": "function"
    },
    {
      "inputs": [
        {
          "internalType": "address",
          "name": "spender",
          "type": "address"
        },
        {
          "internalType": "uint256",
          "name": "value",
          "type": "uint256"
        }
      ],
      "name": "approve",
      "outputs": [
        {
          "internalType": "bool",
          "name": "",
          "type": "bool"
        }
      ],
      "stateMutability": "nonpayable",
      "type": "function"
    },
    {
      "inputs": [
        {
          "internalType": "address",
          "name": "account",
          "type": "address"
        }
      ],
      "name": "balanceOf",
      "outputs": [
        {
          "internalType": "uint256",
          "name": "",
          "type": "uint256"
        }
      ],
      "stateMutability": "view",
      "type": "function"
    },
    {
      "inputs": [],
      "name": "buyFeeBps",
      "outputs": [
        {
          "internalType": "uint16",
          "name": "",
          "type": "uint16"
        }
      ],
      "stateMutability": "view",
      "type": "function"
    },
    {
      "inputs": [],
      "name": "decimals",
      "outputs": [
        {
          "internalType": "uint8",
          "name": "",
          "type": "uint8"
        }
      ],
      "stateMutability": "view",
      "type": "function"
    },
    {
      "inputs": [],
      "name": "feesLocked",
      "outputs": [
        {
          "internalType": "bool",
          "name": "",
          "type": "bool"
        }
      ],
      "stateMutability": "view",
      "type": "function"
    },
    {
      "inputs": [
        {
          "internalType": "address",
          "name": "initialOwner_",
          "type": "address"
        },
        {
          "internalType": "string",
          "name": "name_",
          "type": "string"
        },
        {
          "internalType": "string",
          "name": "symbol_",
          "type": "string"
        },
        {
          "internalType": "uint256",
          "name": "supplyRaw_",
          "type": "uint256"
        },
        {
          "internalType": "address",
          "name": "marketingWallet_",
          "type": "address"
        },
        {
          "internalType": "uint16",
          "name": "buyFeeBps_",
          "type": "uint16"
        },
        {
          "internalType": "uint16",
          "name": "sellFeeBps_",
          "type": "uint16"
        }
      ],
      "name": "initialize",
      "outputs": [],
      "stateMutability": "nonpayable",
      "type": "function"
    },
    {
      "inputs": [],
      "name": "marketingWallet",
      "outputs": [
        {
          "internalType": "address",
          "name": "",
          "type": "address"
        }
      ],
      "stateMutability": "view",
      "type": "function"
    },
    {
      "inputs": [],
      "name": "name",
      "outputs": [
        {
          "internalType": "string",
          "name": "",
          "type": "string"
        }
      ],
      "stateMutability": "view",
      "type": "function"
    },
    {
      "inputs": [],
      "name": "owner",
      "outputs": [
        {
          "internalType": "address",
          "name": "",
          "type": "address"
        }
      ],
      "stateMutability": "view",
      "type": "function"
    },
    {
      "inputs": [],
      "name": "renounceOwnership",
      "outputs": [],
      "stateMutability": "nonpayable",
      "type": "function"
    },
    {
      "inputs": [],
      "name": "sellFeeBps",
      "outputs": [
        {
          "internalType": "uint16",
          "name": "",
          "type": "uint16"
        }
      ],
      "stateMutability": "view",
      "type": "function"
    },
    {
      "inputs": [
        {
          "internalType": "address",
          "name": "pair_",
          "type": "address"
        }
      ],
      "name": "setPair",
      "outputs": [],
      "stateMutability": "nonpayable",
      "type": "function"
    },
    {
      "inputs": [],
      "name": "symbol",
      "outputs": [
        {
          "internalType": "string",
          "name": "",
          "type": "string"
        }
      ],
      "stateMutability": "view",
      "type": "function"
    },
    {
      "inputs": [],
      "name": "totalSupply",
      "outputs": [
        {
          "internalType": "uint256",
          "name": "",
          "type": "uint256"
        }
      ],
      "stateMutability": "view",
      "type": "function"
    },
    {
      "inputs": [
        {
          "internalType": "address",
          "name": "to",
          "type": "address"
        },
        {
          "internalType": "uint256",
          "name": "value",
          "type": "uint256"
        }
      ],
      "name": "transfer",
      "outputs": [
        {
          "internalType": "bool",
          "name": "",
          "type": "bool"
        }
      ],
      "stateMutability": "nonpayable",
      "type": "function"
    },
    {
      "inputs": [
        {
          "internalType": "address",
          "name": "from",
          "type": "address"
        },
        {
          "internalType": "address",
          "name": "to",
          "type": "address"
        },
        {
          "internalType": "uint256",
          "name": "value",
          "type": "uint256"
        }
      ],
      "name": "transferFrom",
      "outputs": [
        {
          "internalType": "bool",
          "name": "",
          "type": "bool"
        }
      ],
      "stateMutability": "nonpayable",
      "type": "function"
    },
    {
      "inputs": [
        {
          "internalType": "address",
          "name": "newOwner",
          "type": "address"
        }
      ],
      "name": "transferOwnership",
      "outputs": [],
      "stateMutability": "nonpayable",
      "type": "function"
    },
    {
      "inputs": [],
      "name": "uniswapV2Pair",
      "outputs": [
        {
          "internalType": "address",
          "name": "",
          "type": "address"
        }
      ],
      "stateMutability": "view",
      "type": "function"
    }
  ],
  "bytecode": "0x608080604052346015576114b5908161001b8239f35b600080fdfe6080604052600436101561001257600080fd5b60003560e01c806306fdde0314610ca2578063095ea7b314610c2157806318160ddd14610bf657806323b872dd14610b1257806323cbe1f314610aed578063313ce56714610ad157806349bd5a5e14610aa85780635a27a1f914610a8257806370a0823114610a3b578063715018a6146109d157806375f0a874146109a857806377d2300e146109835780638187f5161461091c5780638a7fb3e5146102c45780638da5cb5b1461028e57806395d89b4114610197578063a9059cbb14610166578063dd62ed3e1461011d5763f2fde38b146100ed57600080fd5b3461011857602036600319011261011857610116610109610dad565b610111610fb0565b610ee3565b005b600080fd5b3461011857604036600319011261011857610136610dad565b610147610141610dc3565b91610e63565b9060018060a01b03166000526020526020604060002054604051908152f35b346101185760403660031901126101185761018c610182610dad565b6024359033610f59565b602060405160018152f35b34610118576000366003190112610118576040516000600080516020611400833981519152546101c681610e07565b808452906001811690811561026a57506001146101fe575b6101fa836101ee81850382610e41565b60405191829182610d64565b0390f35b60008051602061140083398151915260009081527f46a2803e59a4de4e7a4c574b1243f25977ac4c77d5a1a4a609b5394cebb4a2aa939250905b808210610250575090915081016020016101ee6101de565b919260018160209254838588010152019101909291610238565b60ff191660208086019190915291151560051b840190910191506101ee90506101de565b3461011857600036600319011261011857600080516020611420833981519152546040516001600160a01b039091168152602090f35b346101185760e0366003190112610118576102dd610dad565b60243567ffffffffffffffff8111610118576102fd903690600401610dd9565b60443567ffffffffffffffff81116101185761031d903690600401610dd9565b939092606435926084356001600160a01b0381168082036101185760a4359361ffff8516978886036101185760c4359461ffff861680870361011857600080516020611460833981519152549a60ff8c60401c16159b8c67ffffffffffffffff821680159182610914575b50600114908161090a575b159081610901575b506108f05767ffffffffffffffff198116600117600080516020611460833981519152558c6108c3575b506001600160a01b038a1615610894578a15610864576107d01061082f576107d0106107f957610402926103fa913691610e9c565b993691610e9c565b9761040b61124b565b61041361124b565b80519067ffffffffffffffff82116106d957819061043f6000805160206113c083398151915254610e07565b601f811161077c575b50602090601f83116001146106fa576000926106ef575b50508160011b916000199060031b1c1916176000805160206113c0833981519152555b875167ffffffffffffffff81116106d9576104ab60008051602061140083398151915254610e07565b601f8111610667575b506020601f82116001146105e1578190610570999a6000926105d6575b50508160011b916000199060031b1c191617600080516020611400833981519152555b6104fc61124b565b61050461124b565b61050d85610ee3565b156105cf575b600080546001600160a01b0319166001600160a01b03929092169190911790556001805460b09290921b61ffff60b01b1664ffffffffff60a01b1990921660a09390931b61ffff60a01b169290921717600160c01b179055610fe6565b61057657005b68ff0000000000000000196000805160206114608339815191525416600080516020611460833981519152557fc7f505b2f371ae2175ee4913f4499e1f2633a7b5936321eed1cdaeb6115181d2602060405160018152a1005b5082610513565b015190508a806104d1565b601f19821699600080516020611400833981519152600052816000209a60005b81811061064f5750916105709a9b91846001959410610636575b505050811b01600080516020611400833981519152556104f4565b015160001960f88460031b161c191690558a808061061b565b838301518d556001909c019b60209384019301610601565b6000805160206114008339815191526000527f46a2803e59a4de4e7a4c574b1243f25977ac4c77d5a1a4a609b5394cebb4a2aa601f830160051c810191602084106106cf575b601f0160051c01905b8181106106c357506104b4565b600081556001016106b6565b90915081906106ad565b634e487b7160e01b600052604160045260246000fd5b015190508a8061045f565b6000805160206113c083398151915260009081528281209350601f198516905b818110610764575090846001959493921061074b575b505050811b016000805160206113c083398151915255610482565b015160001960f88460031b161c191690558a8080610730565b9293602060018192878601518155019501930161071a565b6000805160206113c08339815191526000529091507f2ae08a8e29253f69ac5d979a101956ab8f8d9d7ded63fa7a83b16fc47648eab0601f840160051c810191602085106107ef575b90601f859493920160051c01905b8181106107e05750610448565b600081558493506001016107d3565b90915081906107c5565b60405162461bcd60e51b815260206004820152600e60248201526d73656c6c20666565203e2032302560901b6044820152606490fd5b60405162461bcd60e51b815260206004820152600d60248201526c62757920666565203e2032302560981b6044820152606490fd5b60405162461bcd60e51b81526020600482015260086024820152670737570706c793d360c41b6044820152606490fd5b60405162461bcd60e51b815260206004820152600760248201526606f776e65723d360cc1b6044820152606490fd5b68ffffffffffffffffff19166801000000000000000117600080516020611460833981519152558d6103c5565b63f92ee8a960e01b60005260046000fd5b9050158f61039b565b303b159150610393565b91508e610388565b3461011857602036600319011261011857610935610dad565b61093d610fb0565b600180546001600160a01b0319166001600160a01b039290921691821790557fc4a4ea6abc08bd7f8df3db8a1c998f19b3e0c348176f93732cd54db1a4b50136600080a2005b3461011857600036600319011261011857602061ffff60015460a01c16604051908152f35b34610118576000366003190112610118576000546040516001600160a01b039091168152602090f35b34610118576000366003190112610118576109ea610fb0565b60008051602061142083398151915280546001600160a01b031981169091556000906001600160a01b03167f8be0079c531659141344cd1fd0a4f28419497f9722a3daafe3b4186f6b6457e08280a3005b34610118576020366003190112610118576001600160a01b03610a5c610dad565b166000526000805160206113e08339815191526020526020604060002054604051908152f35b3461011857600036600319011261011857602060ff60015460c01c166040519015158152f35b34610118576000366003190112610118576001546040516001600160a01b039091168152602090f35b3461011857600036600319011261011857602060405160128152f35b3461011857600036600319011261011857602061ffff60015460b01c16604051908152f35b3461011857606036600319011261011857610b2b610dad565b610b33610dc3565b60443590610b4083610e63565b3360009081526020919091526040902054926000198410610b66575b61018c9350610f59565b828410610bd9576001600160a01b03811615610bc3573315610bad5761018c93610b8f82610e63565b60018060a01b03331660005260205283604060002091039055610b5c565b634a1406b160e11b600052600060045260246000fd5b63e602df0560e01b600052600060045260246000fd5b8284637dc7a0d960e11b6000523360045260245260445260646000fd5b3461011857600036600319011261011857602060008051602061144083398151915254604051908152f35b3461011857604036600319011261011857610c3a610dad565b602435903315610bc3576001600160a01b0316908115610bad57610c5d33610e63565b82600052602052806040600020556040519081527f8c5be1e5ebec7d5bd14f71427d1e84f3dd0314c0f7b2291e5b200ac8c7c3b92560203392a3602060405160018152f35b346101185760003660031901126101185760405160006000805160206113c083398151915254610cd181610e07565b808452906001811690811561026a5750600114610cf8576101fa836101ee81850382610e41565b6000805160206113c083398151915260009081527f2ae08a8e29253f69ac5d979a101956ab8f8d9d7ded63fa7a83b16fc47648eab0939250905b808210610d4a575090915081016020016101ee6101de565b919260018160209254838588010152019101909291610d32565b91909160208152825180602083015260005b818110610d97575060409293506000838284010152601f8019910116010190565b8060208092870101516040828601015201610d76565b600435906001600160a01b038216820361011857565b602435906001600160a01b038216820361011857565b9181601f840112156101185782359167ffffffffffffffff8311610118576020838186019501011161011857565b90600182811c92168015610e37575b6020831014610e2157565b634e487b7160e01b600052602260045260246000fd5b91607f1691610e16565b90601f8019910116810190811067ffffffffffffffff8211176106d957604052565b6001600160a01b031660009081527f52c63247e1f47db19d5ce0460030c497f067ca4cebf71ba98eeadabe20bace016020526040902090565b92919267ffffffffffffffff82116106d95760405191610ec6601f8201601f191660200184610e41565b829481845281830111610118578281602093846000960137010152565b6001600160a01b03168015610f435760008051602061142083398151915280546001600160a01b0319811683179091556001600160a01b03167f8be0079c531659141344cd1fd0a4f28419497f9722a3daafe3b4186f6b6457e0600080a3565b631e4fbdf760e01b600052600060045260246000fd5b91906001600160a01b03831615610f9a576001600160a01b03811615610f8457610f829261111d565b565b63ec442f0560e01b600052600060045260246000fd5b634b637e8f60e11b600052600060045260246000fd5b600080516020611420833981519152546001600160a01b03163303610fd157565b63118cdaa760e01b6000523360045260246000fd5b9080156111125760015461ffff906001600160a01b03811680158015929183918261110a575b50836110f7575b816110e4575b50806110dc575b600092156110c4575082915060a01c165b1680611044575b50610f82916000611279565b808202908282040361108e5761271090048015611038576000546001600160a01b03168181156110a4575b61107a916000611279565b810390811161108e57610f82916000611279565b634e487b7160e01b600052601160045260246000fd5b600080516020611420833981519152546001600160a01b0316915061106f565b6110cf575b50611031565b82915060b01c16386110c9565b506000611020565b6001600160a01b03871614905038611019565b6001600160a01b03871615159350611013565b93503861100c565b610f82916000611279565b919081156112425760015461ffff906001600160a01b038116801515919082908161122f575b8361121c575b81611209575b50806111f7575b600092156111df575082915060a01c165b1680611178575b50610f8292611279565b808302908382040361108e576127109004801561116e576000546001600160a01b03168181156111bf575b6111ad9186611279565b820391821161108e57610f8292611279565b600080516020611420833981519152546001600160a01b031691506111a3565b6111ea575b50611167565b82915060b01c16386111e4565b506001600160a01b0386161515611156565b6001600160a01b0386161490503861114f565b6001600160a01b03861615159350611149565b6001600160a01b03881681149350611143565b610f8292611279565b60ff6000805160206114608339815191525460401c161561126857565b631afcd79f60e31b60005260046000fd5b6001600160a01b03169081611338576000805160206114408339815191525483810180911161108e577fddf252ad1be2c89b69c2b068fc378daa952ba7f163c4a11628f55a4df523b3ef91602091600080516020611440833981519152555b6001600160a01b0316938461131357806000805160206114408339815191525403600080516020611440833981519152555b604051908152a3565b846000526000805160206113e08339815191528252604060002081815401905561130a565b816000526000805160206113e08339815191526020526040600020548381106113a2577fddf252ad1be2c89b69c2b068fc378daa952ba7f163c4a11628f55a4df523b3ef9184602092856000526000805160206113e08339815191528452036040600020556112d8565b91905063391434e360e21b60005260045260245260445260646000fdfe52c63247e1f47db19d5ce0460030c497f067ca4cebf71ba98eeadabe20bace0352c63247e1f47db19d5ce0460030c497f067ca4cebf71ba98eeadabe20bace0052c63247e1f47db19d5ce0460030c497f067ca4cebf71ba98eeadabe20bace049016d09d72d40fdae2fd8ceac6b6234c7706214fd39c1cd1e609a0528c19930052c63247e1f47db19d5ce0460030c497f067ca4cebf71ba98eeadabe20bace02f0c57e16840df040f15088dc2f81fe391c3923bec73e23a9662efc9c229c6a00a2646970667358221220f09452b6a93e5bd69d4f5ec44a673ee815d97280ca3e12f2a86964018324363f64736f6c634300081c0033",
  "linkReferences": {},
  "deployedLinkReferences": {}
}