{
  "_format": "hh-sol-artifact-1",
  "contractName": "V2LaunchFactory",
  "sourceName": "contracts/launch/V2LaunchFactory.sol",
  "abi": [
    {
      "inputs": [
        {
          "internalType": "address",
          "name": "router_",
          "type": "address"
        },
        {
          "internalType": "address",
          "name": "tokenImplementation_",
          "type": "address"
        }
      ],
      "stateMutability": "nonpayable",
      "type": "constructor"
    },
    {
      "inputs": [],
      "name": "FailedDeployment",
      "type": "error"
    },
    {
      "inputs": [
        {
          "internalType": "uint256",
          "name": "balance",
          "type": "uint256"
        },
        {
          "internalType": "uint256",
          "name": "needed",
          "type": "uint256"
        }
      ],
      "name": "InsufficientBalance",
      "type": "error"
    },
    {
      "anonymous": false,
      "inputs": [
        {
          "indexed": true,
          "internalType": "address",
          "name": "user",
          "type": "address"
        },
        {
          "indexed": true,
          "internalType": "address",
          "name": "token",
          "type": "address"
        },
        {
          "indexed": true,
          "internalType": "address",
          "name": "pair",
          "type": "address"
        },
        {
          "indexed": false,
          "internalType": "address",
          "name": "lpLock",
          "type": "address"
        },
        {
          "indexed": false,
          "internalType": "uint256",
          "name": "lockId",
          "type": "uint256"
        }
      ],
      "name": "Launched",
      "type": "event"
    },
    {
      "inputs": [
        {
          "components": [
            {
              "internalType": "string",
              "name": "name",
              "type": "string"
            },
            {
              "internalType": "string",
              "name": "symbol",
              "type": "string"
            },
            {
              "internalType": "uint256",
              "name": "totalSupplyRaw",
              "type": "uint256"
            },
            {
              "internalType": "address",
              "name": "marketingWallet",
              "type": "address"
            },
            {
              "components": [
                {
                  "internalType": "uint16",
                  "name": "buyMarketingBps",
                  "type": "uint16"
                },
                {
                  "internalType": "uint16",
                  "name": "buyLiquidityBps",
                  "type": "uint16"
                },
                {
                  "internalType": "uint16",
                  "name": "buyBurnBps",
                  "type": "uint16"
                },
                {
                  "internalType": "uint16",
                  "name": "sellMarketingBps",
                  "type": "uint16"
                },
                {
                  "internalType": "uint16",
                  "name": "sellLiquidityBps",
                  "type": "uint16"
                },
                {
                  "internalType": "uint16",
                  "name": "sellBurnBps",
                  "type": "uint16"
                }
              ],
              "internalType": "struct V2LaunchFactory.Fees",
              "name": "fees",
              "type": "tuple"
            },
            {
              "components": [
                {
                  "internalType": "uint256",
                  "name": "maxGasPriceWei",
                  "type": "uint256"
                },
                {
                  "internalType": "uint256",
                  "name": "deadBlocks",
                  "type": "uint256"
                },
                {
                  "internalType": "bool",
                  "name": "revertEarlyBuys",
                  "type": "bool"
                },
                {
                  "internalType": "uint256",
                  "name": "maxTxAmount",
                  "type": "uint256"
                },
                {
                  "internalType": "uint256",
                  "name": "maxWalletAmount",
                  "type": "uint256"
                }
              ],
              "internalType": "struct V2LaunchFactory.Limits",
              "name": "limits",
              "type": "tuple"
            }
          ],
          "internalType": "struct V2LaunchFactory.TokenConfig",
          "name": "cfg",
          "type": "tuple"
        },
        {
          "components": [
            {
              "internalType": "uint256",
              "name": "tokenAmount",
              "type": "uint256"
            },
            {
              "internalType": "uint256",
              "name": "ethAmount",
              "type": "uint256"
            }
          ],
          "internalType": "struct V2LaunchFactory.Liquidity",
          "name": "liq",
          "type": "tuple"
        },
        {
          "internalType": "address",
          "name": "lpBeneficiary",
          "type": "address"
        },
        {
          "internalType": "uint256",
          "name": "lpLockSeconds",
          "type": "uint256"
        },
        {
          "internalType": "address",
          "name": "lpLockAddress",
          "type": "address"
        }
      ],
      "name": "launch",
      "outputs": [
        {
          "internalType": "address",
          "name": "tokenAddr",
          "type": "address"
        },
        {
          "internalType": "address",
          "name": "pairAddr",
          "type": "address"
        },
        {
          "internalType": "address",
          "name": "lockAddr",
          "type": "address"
        },
        {
          "internalType": "uint256",
          "name": "lockId",
          "type": "uint256"
        }
      ],
      "stateMutability": "payable",
      "type": "function"
    },
    {
      "inputs": [],
      "name": "router",
      "outputs": [
        {
          "internalType": "contract IUniswapV2Router02Factory",
          "name": "",
          "type": "address"
        }
      ],
      "stateMutability": "view",
      "type": "function"
    },
    {
      "inputs": [],
      "name": "tokenImplementation",
      "outputs": [
        {
          "internalType": "address",
          "name": "",
          "type": "address"
        }
      ],
      "stateMutability": "view",
      "type": "function"
    }
  ],
  "bytecode": "0x60c03461011157601f6117f738819003918201601f19168301916001600160401b0383118484101761011657808492604094855283398101031261011157610052602061004b8361012c565b920161012c565b906001600160a01b039081169081156100e1578216156100ae5760805260a0526040516116b6908161014182396080518181816057015281816103be0152818161044e01526104d6015260a0518181816101280152610b790152f35b60405162461bcd60e51b815260206004820152600b60248201526a0746f6b656e496d706c3d360ac1b6044820152606490fd5b60405162461bcd60e51b81526020600482015260086024820152670726f757465723d360c41b6044820152606490fd5b600080fd5b634e487b7160e01b600052604160045260246000fd5b51906001600160a01b03821682036101115756fe608080604052600436101561001357600080fd5b600090813560e01c9081632f3a3d5d14610b65575080636fc2e69a146100895763f887ea401461004257600080fd5b346100865780600319360112610086576040517f00000000000000000000000000000000000000000000000000000000000000006001600160a01b03168152602090f35b80fd5b5060c03660031901126100865767ffffffffffffffff60043511610086576101e060043536036003190112610086576040366023190112610086576064356001600160a01b03811681036109fa5760a4356001600160a01b03811690036109fa576044600435013515610b35576001600160a01b03811615610b005760843515610acb573460443503610a8d57602435151580610a82575b15610a4f577f0000000000000000000000000000000000000000000000000000000000000000608881901c62ffffff16763d602d80600a3d3981f3363d3d373d3d3d363d7300000017835260781b6e5af43d82803e903d91602b57fd5bf3176020526001600160a01b036037600984f016908115610a3d576101bc836004356004016101ad8180610c0c565b93909160246004350190610c0c565b90939060043560640135906001600160a01b0382168203610a3957873b15610a3957604051631d1ee28760e21b815230600482015260a06024820152958694859461022293916102109160a4880191610c3f565b85810360031901604487015291610c3f565b6004356044013560648401526001600160a01b039091166084830152038183875af180156108dd57610a26575b508261025f608460043501610c60565b61026d60a460043501610c60565b9061027c60c460043501610c60565b91853b1561092957604051636951a07960e01b815261ffff9283166004820152908216602482015291166044820152818160648183885af180156107e257610a12575b506102ce60e460043501610c60565b6102dd61010460043501610c60565b906102ed61012460043501610c60565b91853b1561092957604051637e3615ed60e11b815261ffff9283166004820152908216602482015291166044820152818160648183885af180156107e2576109fe575b50610184600435013580151581036109fa57833b156109fa5760405190639f52256b60e01b82526101446004350135600483015261016460043501356024830152151560448201526101a4600435013560648201526101c460043501356084820152818160a48183885af180156107e2576109e6575b5050813b156109e25760405163c0d7865560e01b81527f00000000000000000000000000000000000000000000000000000000000000006001600160a01b031660048201528390818160248183885af180156107e2576109ce575b50506040516324dead2f60e11b8152602081600481865afa9081156108dd57849161098c575b506001600160a01b0381161561095e5760405163095ea7b360e01b81526001600160a01b037f0000000000000000000000000000000000000000000000000000000000000000166004820152602480359082015260208160448188885af180156109345761093f575b5060405163f305d71960e01b815283600482015260243560248201528460448201528460648201523060848201524260a482015260608160c48160443560018060a01b037f0000000000000000000000000000000000000000000000000000000000000000165af1801561093457610905575b5060a4356001600160a01b03166108fc57604051610a118082019082821067ffffffffffffffff8311176108e857908291610c708339039085f080156108dd576001600160a01b0316905b6040516370a0823160e01b8152306004820152916020836024816001600160a01b0386165afa9283156108355786936108a9575b5082156108735760405163095ea7b360e01b81526001600160a01b038216600482015260248101849052602081806044810103818a6001600160a01b0388165af1801561078857610854575b50608435420180421161084057604051637b546a8560e11b81526001600160a01b038481166004830152958616602482015260448101949094526064840152919282169160208460848189875af1938415610835578694610801575b50843b156107de576040516322a3148f60e21b815286908181600481838b5af180156107e2576107ed575b5050843b156107de5760405163f2fde38b60e01b815233600482015286908181602481838b5af180156107e2576107ca575b50506040516370a0823160e01b8152306004820152602081602481895afa908115610788578791610793575b5080610725575b50604080516001600160a01b039283168152602081018690526080975091831691869133917f358e82117a0869f9749b4cc3096953b1c9307903561af80988389c2689f453079190a4604080519485526001600160a01b039190911660208501528301526060820152f35b60405163a9059cbb60e01b815233600482015260248101919091526020816044818a8a5af180156107885760809750156106ba5761077a9060203d602011610781575b6107728183610bd2565b810190610bf4565b50386106ba565b503d610768565b6040513d89823e3d90fd5b90506020813d6020116107c2575b816107ae60209383610bd2565b810103126107bd5751386106b3565b600080fd5b3d91506107a1565b6107d390610ba8565b6107de578538610687565b8580fd5b6040513d84823e3d90fd5b6107f690610ba8565b6107de578538610655565b9093506020813d60201161082d575b8161081d60209383610bd2565b810103126107bd5751923861062a565b3d9150610810565b6040513d88823e3d90fd5b634e487b7160e01b87526011600452602487fd5b61086c9060203d602011610781576107728183610bd2565b50386105ce565b60405162461bcd60e51b815260206004820152600e60248201526d1b9bc81314081c9958d95a5d995960921b6044820152606490fd5b9092506020813d6020116108d5575b816108c560209383610bd2565b810103126107bd57519138610582565b3d91506108b8565b6040513d86823e3d90fd5b634e487b7160e01b87526041600452602487fd5b60a4359061054e565b606090813d811161092d575b61091b8183610bd2565b810103126109295738610503565b8380fd5b503d610911565b6040513d87823e3d90fd5b6109579060203d602011610781576107728183610bd2565b5038610490565b60405162461bcd60e51b81526020600482015260066024820152650706169723d360d41b6044820152606490fd5b90506020813d6020116109c6575b816109a760209383610bd2565b8101031261092957516001600160a01b03811681036109295738610427565b3d915061099a565b6109d790610ba8565b6109e2578238610401565b8280fd5b6109ef90610ba8565b6109e25782386103a6565b5080fd5b610a0790610ba8565b6109e2578238610330565b610a1b90610ba8565b6109e25782386102bf565b610a3290939193610ba8565b913861024f565b8480fd5b60405163b06ebf3d60e01b8152600490fd5b60405162461bcd60e51b815260206004820152600b60248201526a06c69717569646974793d360ac1b6044820152606490fd5b506044351515610121565b60405162461bcd60e51b81526020600482015260166024820152751b5cd9cb9d985b1d5948084f48195d1a105b5bdd5b9d60521b6044820152606490fd5b60405162461bcd60e51b815260206004820152600d60248201526c06c6f636b5365636f6e64733d3609c1b6044820152606490fd5b60405162461bcd60e51b815260206004820152600d60248201526c062656e65666963696172793d3609c1b6044820152606490fd5b60405162461bcd60e51b81526020600482015260086024820152670737570706c793d360c41b6044820152606490fd5b9050346109fa57816003193601126109fa577f00000000000000000000000000000000000000000000000000000000000000006001600160a01b03168152602090f35b67ffffffffffffffff8111610bbc57604052565b634e487b7160e01b600052604160045260246000fd5b90601f8019910116810190811067ffffffffffffffff821117610bbc57604052565b908160209103126107bd575180151581036107bd5790565b903590601e19813603018212156107bd570180359067ffffffffffffffff82116107bd576020019181360383136107bd57565b908060209392818452848401376000828201840152601f01601f1916010190565b3561ffff811681036107bd579056fe6080806040523461001b5760016000556109f090816100218239f35b600080fdfe6040608081526004908136101561001557600080fd5b600090813560e01c8063070d66bf146107515780632e1a7d4d146105b35780633e8eb5a4146104d85780635a04fb691461040457806361b8ce8c146103e85780638978b2da146103b8578063f4dadc61146103455763f6a8d50a1461007957600080fd5b34610341576080366003190112610341576001600160a01b0391833583811690819003610341576100a861081a565b604435956064359183156103145786169384156102e15787156102b3574283111561027057805496600019881461025d5760058891600183018455888b8151926100f184610835565b89845260208401338152838501918c8352606086019384528060808701958c875260a08801998b8b528b5260016020528a20965116916bffffffffffffffffffffffff60a01b928388541617875581600188019151168382541617905560028601925116908254161790555160038301555185820155019051151560ff8019835416911617905585516323b872dd60e01b8152338382015230602482015288604482015260208160648185895af19182156102525791610223575b50156101ea57507f6422b526b1c8aecb4b5678d5c67a4a334dd9539d8da30a39a0f24b71a95faedc846020978793825191825289820152a451908152f35b606490602086519162461bcd60e51b835282015260136024820152721d1c985b9cd9995c919c9bdb4819985a5b1959606a1b6044820152fd5b610245915060203d60201161024b575b61023d8183610867565b810190610889565b386101ac565b503d610233565b8751903d90823e3d90fd5b506011602492634e487b7160e01b835252fd5b855162461bcd60e51b8152602081840152601960248201527f756e6c6f636b54696d65206d75737420626520667574757265000000000000006044820152606490fd5b855162461bcd60e51b815260208184015260086024820152670616d6f756e743d360c41b6044820152606490fd5b855162461bcd60e51b8152602081840152600d60248201526c062656e65666963696172793d3609c1b6044820152606490fd5b855162461bcd60e51b815260208184015260076024820152660746f6b656e3d360cc1b6044820152606490fd5b5080fd5b5082346103b45760203660031901126103b4578160c0938235815260016020522060018060a01b0391828254169383600184015416936002840154169060ff600560038601549486015495015416948151968752602087015285015260608401526080830152151560a0820152f35b8280fd5b509190346103e55760203660031901126103e557506103d7903561091e565b825191151582526020820152f35b80fd5b5034610341578160031936011261034157602091549051908152f35b508290346103b457806003193601126103b45781359061042261081a565b90828552600160205260018060a01b038092610447826001858a2001541633146108a1565b169384156104a9575060019083865281602052852061046d60ff600583015416156108de565b0180546001600160a01b03198116851790915516907f94cb47eeeeb76a68c4d24f7c656bc9e63d5bc82211fc7784b33e438103b2f8738480a480f35b6020606492519162461bcd60e51b8352820152600a60248201526906e65774f776e65723d360b41b6044820152fd5b508290346103b457806003193601126103b4578135906104f661081a565b90828552600160205260018060a01b03809261051b826001858a2001541633146108a1565b1693841561057e57506002908386526001602052852061054260ff600583015416156108de565b0180546001600160a01b03198116851790915516907fb46dd957666562116725549320e1a014fec61f371662e239650e548197f9f5ef8480a480f35b6020606492519162461bcd60e51b8352820152601060248201526f06e657742656e65666963696172793d360841b6044820152fd5b508290346103b45760208060031936011261074d578235918285526001825280852060058101908154956105ea60ff8816156108de565b600282019160018060a01b03938484541698893303610718578383015442106106e65760019060ff19161790558560038583541692019860448a54918c8951958694859363a9059cbb60e01b85528985015260248401525af19081156106dc5789916106bf575b501561068a5750907fcf7d23a3cbe4e8b36ff82fd1b05b1b17373dc7804b4ebbd6e2356716ef202372939291541694549051908152a380f35b835162461bcd60e51b8152908101859052600f60248201526e1d1c985b9cd9995c8819985a5b1959608a1b6044820152606490fd5b6106d69150863d881161024b5761023d8183610867565b89610651565b85513d8b823e3d90fd5b865162461bcd60e51b8152808501899052600c60248201526b1cdd1a5b1b081b1bd8dad95960a21b6044820152606490fd5b865162461bcd60e51b8152808501899052600f60248201526e6e6f742062656e656669636961727960881b6044820152606490fd5b8380fd5b503461034157806003193601126103415782359060243593828452600160205261078a60018060a01b03600184872001541633146108a1565b8284526001602052808285206107a760ff600583015416156108de565b0194855491828211156107e95750807f12c0f64f942f99aa5210c23a8ab729735389400457b66b06895b0700315c3b339495965582519182526020820152a280f35b606490602085519162461bcd60e51b8352820152600b60248201526a1b5d5cdd08195e1d195b9960aa1b6044820152fd5b602435906001600160a01b038216820361083057565b600080fd5b60c0810190811067ffffffffffffffff82111761085157604052565b634e487b7160e01b600052604160045260246000fd5b90601f8019910116810190811067ffffffffffffffff82111761085157604052565b90816020910312610830575180151581036108305790565b156108a857565b60405162461bcd60e51b815260206004820152600e60248201526d2737ba103637b1b59037bbb732b960911b6044820152606490fd5b156108e557565b60405162461bcd60e51b815260206004820152601160248201527030b63932b0b23c903bb4ba34323930bbb760791b6044820152606490fd5b9060009182526001602052604082209160a060405161093c81610835565b600180831b0380865416825280600187015416602083015260028601541660408201526003850154606082015260ff6005600487015496876080850152015416151591829101526109b457824210156109b4574283039283116109a0575060019190565b634e487b7160e01b81526011600452602490fd5b9150819056fea26469706673582212201a885df70a969e7e3f22230a2c6e7d458cd99897c74a0d7f994ee402fe94db6e64736f6c63430008140033a2646970667358221220767ad627064fe372c6c90e703c28066a4abcaa21d45f8ad1b94f207d7713546d64736f6c63430008140033",
  "linkReferences": {},
  "deployedLinkReferences": {}
}