{
  "_format": "hh-sol-artifact-1",
  "contractName": "V2LaunchFactory",
  "sourceName": "contracts/launch/V2LaunchFactory.sol",
  "abi": [
    {
      "inputs": [
        {
          "internalType": "address",
          "name": "router_",
          "type": "address"
        },
        {
          "internalType": "address",
          "name": "tokenImplementation_",
          "type": "address"
        }
      ],
      "stateMutability": "nonpayable",
      "type": "constructor"
    },
    {
      "inputs": [],
      "name": "FailedDeployment",
      "type": "error"
    },
    {
      "inputs": [
        {
          "internalType": "uint256",
          "name": "balance",
          "type": "uint256"
        },
        {
          "internalType": "uint256",
          "name": "needed",
          "type": "uint256"
        }
      ],
      "name": "InsufficientBalance",
      "type": "error"
    },
    {
      "anonymous": false,
      "inputs": [
        {
          "indexed": true,
          "internalType": "address",
          "name": "user",
          "type": "address"
        },
        {
          "indexed": true,
          "internalType": "address",
          "name": "token",
          "type": "address"
        },
        {
          "indexed": true,
          "internalType": "address",
          "name": "pair",
          "type": "address"
        },
        {
          "indexed": false,
          "internalType": "address",
          "name": "lpLock",
          "type": "address"
        },
        {
          "indexed": false,
          "internalType": "uint256",
          "name": "lockId",
          "type": "uint256"
        }
      ],
      "name": "Launched",
      "type": "event"
    },
    {
      "inputs": [
        {
          "components": [
            {
              "internalType": "string",
              "name": "name",
              "type": "string"
            },
            {
              "internalType": "string",
              "name": "symbol",
              "type": "string"
            },
            {
              "internalType": "uint256",
              "name": "totalSupplyRaw",
              "type": "uint256"
            },
            {
              "internalType": "address",
              "name": "marketingWallet",
              "type": "address"
            },
            {
              "components": [
                {
                  "internalType": "uint16",
                  "name": "buyMarketingBps",
                  "type": "uint16"
                },
                {
                  "internalType": "uint16",
                  "name": "buyLiquidityBps",
                  "type": "uint16"
                },
                {
                  "internalType": "uint16",
                  "name": "buyBurnBps",
                  "type": "uint16"
                },
                {
                  "internalType": "uint16",
                  "name": "sellMarketingBps",
                  "type": "uint16"
                },
                {
                  "internalType": "uint16",
                  "name": "sellLiquidityBps",
                  "type": "uint16"
                },
                {
                  "internalType": "uint16",
                  "name": "sellBurnBps",
                  "type": "uint16"
                }
              ],
              "internalType": "struct V2LaunchFactory.Fees",
              "name": "fees",
              "type": "tuple"
            },
            {
              "components": [
                {
                  "internalType": "uint256",
                  "name": "maxGasPriceWei",
                  "type": "uint256"
                },
                {
                  "internalType": "uint256",
                  "name": "deadBlocks",
                  "type": "uint256"
                },
                {
                  "internalType": "bool",
                  "name": "revertEarlyBuys",
                  "type": "bool"
                },
                {
                  "internalType": "uint256",
                  "name": "maxTxAmount",
                  "type": "uint256"
                },
                {
                  "internalType": "uint256",
                  "name": "maxWalletAmount",
                  "type": "uint256"
                }
              ],
              "internalType": "struct V2LaunchFactory.Limits",
              "name": "limits",
              "type": "tuple"
            }
          ],
          "internalType": "struct V2LaunchFactory.TokenConfig",
          "name": "cfg",
          "type": "tuple"
        },
        {
          "components": [
            {
              "internalType": "uint256",
              "name": "tokenAmount",
              "type": "uint256"
            },
            {
              "internalType": "uint256",
              "name": "ethAmount",
              "type": "uint256"
            }
          ],
          "internalType": "struct V2LaunchFactory.Liquidity",
          "name": "liq",
          "type": "tuple"
        },
        {
          "internalType": "address",
          "name": "lpBeneficiary",
          "type": "address"
        },
        {
          "internalType": "uint256",
          "name": "lpLockSeconds",
          "type": "uint256"
        },
        {
          "internalType": "address",
          "name": "lpLockAddress",
          "type": "address"
        }
      ],
      "name": "launch",
      "outputs": [
        {
          "internalType": "address",
          "name": "tokenAddr",
          "type": "address"
        },
        {
          "internalType": "address",
          "name": "pairAddr",
          "type": "address"
        },
        {
          "internalType": "address",
          "name": "lockAddr",
          "type": "address"
        },
        {
          "internalType": "uint256",
          "name": "lockId",
          "type": "uint256"
        }
      ],
      "stateMutability": "payable",
      "type": "function"
    },
    {
      "inputs": [],
      "name": "router",
      "outputs": [
        {
          "internalType": "contract IUniswapV2Router02Factory",
          "name": "",
          "type": "address"
        }
      ],
      "stateMutability": "view",
      "type": "function"
    },
    {
      "inputs": [],
      "name": "tokenImplementation",
      "outputs": [
        {
          "internalType": "address",
          "name": "",
          "type": "address"
        }
      ],
      "stateMutability": "view",
      "type": "function"
    }
  ],
  "bytecode": "0x60c03461010857601f611f4538819003918201601f19168301916001600160401b0383118484101761010d57808492604094855283398101031261010857610052602061004b83610123565b9201610123565b906001600160a01b031680156100d8576001600160a01b038216156100a55760805260a052604051611e0d9081610138823960805181818160570152610389015260a05181818161012d0152610b230152f35b60405162461bcd60e51b815260206004820152600b60248201526a0746f6b656e496d706c3d360ac1b6044820152606490fd5b60405162461bcd60e51b81526020600482015260086024820152670726f757465723d360c41b6044820152606490fd5b600080fd5b634e487b7160e01b600052604160045260246000fd5b51906001600160a01b03821682036101085756fe608080604052600436101561001357600080fd5b600090813560e01c9081632f3a3d5d14610b0f575080636fc2e69a146100895763f887ea401461004257600080fd5b346100865780600319360112610086576040517f00000000000000000000000000000000000000000000000000000000000000006001600160a01b03168152602090f35b80fd5b5060c03660031901126100865760043567ffffffffffffffff81116109b35780600401906101e0600319823603011261099a57604036602319011261099a576064356001600160a01b0381169190829003610b0b576084359060a4356001600160a01b0381168082036108ab576044830135928315610adb578515610aa6578415610a715760443590348203610a33576024359485151580610a2a575b156109f7577f0000000000000000000000000000000000000000000000000000000000000000608881901c62ffffff16763d602d80600a3d3981f3363d3d373d3d3d363d73000000178b5260781b6e5af43d82803e903d91602b57fd5bf3176020526001600160a01b03603760098cf0169889156109e857806101ba6101ad828e94610ba2565b9190926024870190610ba2565b90949060648701356001600160a01b03811691908290036109e4578e3b156109e457604051631d1ee28760e21b815230600482015260a060248201529687958695610220939161020e9160a4890191610bd5565b86810360031901604488015291610bd5565b91606484015260848301520381838d5af1801561095d576109d0575b508061024b60848b9301610bf6565b61025760a48301610bf6565b61026360c48401610bf6565b8b3b156109b757604051636951a07960e01b815261ffff9384166004820152918316602483015290911660448201528281606481838e5af19081156107ed5783916109bb575b50506102b760e48201610bf6565b6102c46101048301610bf6565b6102d16101248401610bf6565b8b3b156109b757604051637e3615ed60e11b815261ffff9384166004820152918316602483015290911660448201528281606481838e5af19081156107ed57839161099e575b50506101848101359081151580920361099a57893b1561099a57604051639f52256b60e01b81526101448201356004820152610164820135602482015260448101929092526101a481013560648301526101c401356084820152818160a481838d5af1801561074657610981575b50507f00000000000000000000000000000000000000000000000000000000000000006001600160a01b031693873b1561097d5760405163c0d7865560e01b81526004810186905289908181602481838e5af1801561074657610968575b50506040516324dead2f60e11b81526020816004818c5afa90811561095d578a91610917575b506001600160a01b03169485156108e95760405163095ea7b360e01b81526001600160a01b038216600482015260248101839052916020836044818e8e5af19081156108de5760609360c4926108c1575b50604051948593849263f305d71960e01b84528d600485015260248401528d60448401528d60648401523060848401524260a48401525af180156108b657610887575b5061088157506040516111d28082019082821067ffffffffffffffff83111761086d576040918391610c06833988815230602082015203019086f08015610862576001600160a01b0316945b6040516370a0823160e01b815230600482015292602084602481865afa93841561074657829461082e575b5083156107f85760405163095ea7b360e01b81526001600160a01b03881660048201526024810185905260208160448186885af180156107ed576107d0575b5042018042116107bc5760018060a01b0387169360405195637b546a8560e11b875284600488015260248701526044860152606485015260208460848184875af19384156107af57819461077b575b50843b15610086576040516322a3148f60e21b81528181600481838a5af1801561074657908291610766575b5050843b156100865760405163f2fde38b60e01b81523360048201528181602481838a5af1801561074657908291610751575b50506040516370a0823160e01b8152306004820152602081602481895afa90811561074657829161070f575b5080610692575b5050604080516001600160a01b03969096168652602086018490526080958291869133917f358e82117a0869f9749b4cc3096953b1c9307903561af80988389c2689f4530791a4604051938452602084015260408301526060820152f35b60405163a9059cbb60e01b8152336004820152602481019190915290602082604481848a5af19081156107035750608096839287926106d4575b509650610634565b6106f59060203d6020116106fc575b6106ed8183610b52565b810190610b8a565b50386106cc565b503d6106e3565b604051903d90823e3d90fd5b90506020813d60201161073e575b8161072a60209383610b52565b8101031261073957513861062d565b600080fd5b3d915061071d565b6040513d84823e3d90fd5b8161075b91610b52565b610086578038610601565b8161077091610b52565b6100865780386105ce565b9093506020813d6020116107a7575b8161079760209383610b52565b81010312610739575192386105a2565b3d915061078a565b50604051903d90823e3d90fd5b634e487b7160e01b82526011600452602482fd5b6107e89060203d6020116106fc576106ed8183610b52565b610553565b6040513d85823e3d90fd5b60405162461bcd60e51b815260206004820152600e60248201526d1b9bc81314081c9958d95a5d995960921b6044820152606490fd5b9093506020813d60201161085a575b8161084a60209383610b52565b8101031261073957519238610514565b3d915061083d565b6040513d87823e3d90fd5b634e487b7160e01b88526041600452602488fd5b946104e9565b606090813d83116108af575b61089d8183610b52565b810103126108ab573861049d565b8680fd5b503d610893565b6040513d8a823e3d90fd5b6108d99060203d6020116106fc576106ed8183610b52565b61045a565b6040513d8d823e3d90fd5b60405162461bcd60e51b81526020600482015260066024820152650706169723d360d41b6044820152606490fd5b90506020813d602011610955575b8161093260209383610b52565b8101031261095157516001600160a01b03811681036109515738610409565b8980fd5b3d9150610925565b6040513d8c823e3d90fd5b8161097291610b52565b61097d5788386103e3565b8880fd5b8161098b91610b52565b610996578738610385565b8780fd5b8280fd5b816109a891610b52565b6109b3578138610317565b5080fd5b8480fd5b816109c591610b52565b6109b35781386102a9565b896109dd919a929a610b52565b973861023c565b8580fd5b63b06ebf3d60e01b8b5260048bfd5b60405162461bcd60e51b815260206004820152600b60248201526a06c69717569646974793d360ac1b6044820152606490fd5b50821515610126565b60405162461bcd60e51b81526020600482015260166024820152751b5cd9cb9d985b1d5948084f48195d1a105b5bdd5b9d60521b6044820152606490fd5b60405162461bcd60e51b815260206004820152600d60248201526c06c6f636b5365636f6e64733d3609c1b6044820152606490fd5b60405162461bcd60e51b815260206004820152600d60248201526c062656e65666963696172793d3609c1b6044820152606490fd5b60405162461bcd60e51b81526020600482015260086024820152670737570706c793d360c41b6044820152606490fd5b8380fd5b9050346109b357816003193601126109b3577f00000000000000000000000000000000000000000000000000000000000000006001600160a01b03168152602090f35b90601f8019910116810190811067ffffffffffffffff821117610b7457604052565b634e487b7160e01b600052604160045260246000fd5b90816020910312610739575180151581036107395790565b903590601e1981360301821215610739570180359067ffffffffffffffff82116107395760200191813603831361073957565b908060209392818452848401376000828201840152601f01601f1916010190565b3561ffff81168103610739579056fe60803461012657601f6111d238819003918201601f19168301916001600160401b0383118484101761012b5780849260409485528339810103126101265780516020909101516001600160a01b038116919082900361012657600160005533156101105760018054336001600160a01b03198216811790925560405191906001600160a01b03167f8be0079c531659141344cd1fd0a4f28419497f9722a3daafe3b4186f6b6457e0600080a3600160045582156100dd5750600255600380546001600160a01b03191691909117905560405161109090816101428239f35b62461bcd60e51b815260206004820152600e60248201526d0666565526563697069656e743d360941b6044820152606490fd5b631e4fbdf760e01b600052600060045260246000fd5b600080fd5b634e487b7160e01b600052604160045260246000fdfe6080604052600436101561001257600080fd5b60003560e01c8063070d66bf14610ca35780632e1a7d4d14610b265780633e8eb5a414610a1957806346904840146109f057806356a06235146109d25780635a04fb69146108cb57806361b8ce8c146108ad578063715018a61461085057806378b4330f146108325780638978b2da146107ea5780638da5cb5b146107c15780639f7260bd1461076e578063e74b981b146106ba578063f2fde38b14610630578063f4dadc61146105a35763f6a8d50a146100cc57600080fd5b608036600319011261038f576100e0610da7565b6100e8610d91565b60443591606435916100f8610fb4565b6002549182341061056b576001600160a01b031690811561053c576001600160a01b03169182156105075784156104d75762015180420180421161031b578410610492578061042c575b5061014f60025434610ecb565b806103da575b506040516370a0823160e01b8152306004820152602081602481855afa90811561039c576000916103a8575b506101bc6040516323b872dd60e01b6020820152336024820152306044820152866064820152606481526101b6608482610ea9565b83610fff565b6040516370a0823160e01b815230600482015290602082602481865afa801561039c57600090610363575b6101f19250610ecb565b9384156103315760045493600019851461031b57606085927f22b6b8a4d5a914ae1011461bc63aae897aa95e59716646efa0f307cca8a1ae63926020986001860160045560405161024181610e77565b878152338b820190815260408083018b815287840185815260808501878152600160a08701818152600060c089018181528f8252600560208190529188902099518a546001600160a01b039182166001600160a01b0319918216178c559951948b018054958216958b1695909517909455955160028a018054919094169816979097179091559151600387015551600486015551939092018054925161ff0090151560081b1693151560ff1661ffff19909316929092179290921790558051938452838b0191909152820152a46001600055604051908152f35b634e487b7160e01b600052601160045260246000fd5b60405162461bcd60e51b815260206004820152600a602482015269072656365697665643d360b41b6044820152606490fd5b506020823d602011610394575b8161037d60209383610ea9565b8101031261038f576101f191516101e7565b600080fd5b3d9150610370565b6040513d6000823e3d90fd5b90506020813d6020116103d2575b816103c360209383610ea9565b8101031261038f575138610181565b3d91506103b6565b600080808093335af16103eb610f74565b50156103f75738610155565b60405162461bcd60e51b815260206004820152600d60248201526c1c99599d5b990819985a5b1959609a1b6044820152606490fd5b6003546000918291829182916001600160a01b03165af161044b610f74565b50156104575738610142565b60405162461bcd60e51b8152602060048201526013602482015272199959481d1c985b9cd9995c8819985a5b1959606a1b6044820152606490fd5b60405162461bcd60e51b815260206004820152601760248201527f6c6f636b206475726174696f6e20746f6f2073686f72740000000000000000006044820152606490fd5b60405162461bcd60e51b81526020600482015260086024820152670616d6f756e743d360c41b6044820152606490fd5b60405162461bcd60e51b815260206004820152600d60248201526c062656e65666963696172793d3609c1b6044820152606490fd5b60405162461bcd60e51b81526020600482015260076024820152660746f6b656e3d360cc1b6044820152606490fd5b60405162461bcd60e51b815260206004820152601060248201526f696e73756666696369656e742066656560801b6044820152606490fd5b3461038f57602036600319011261038f57600435600052600560205260e0604060002060ff60018060a01b038254169160018060a01b036001820154169060018060a01b0360028201541660038201549060056004840154930154936040519687526020870152604086015260608501526080840152818116151560a084015260081c16151560c0820152f35b3461038f57602036600319011261038f57610649610da7565b610651610fd6565b6001600160a01b031680156106a457600180546001600160a01b0319811683179091556001600160a01b03167f8be0079c531659141344cd1fd0a4f28419497f9722a3daafe3b4186f6b6457e0600080a3005b631e4fbdf760e01b600052600060045260246000fd5b3461038f57602036600319011261038f576106d3610da7565b6106db610fd6565b6001600160a01b0316801561073857600354604080516001600160a01b0383168152602081018490527faaebcf1bfa00580e41d966056b48521fa9f202645c86d4ddf28113e617c1b1d39190a16001600160a01b03191617600355005b60405162461bcd60e51b815260206004820152600e60248201526d0666565526563697069656e743d360941b6044820152606490fd5b3461038f57602036600319011261038f5760043561078a610fd6565b7f58dfc23d20a390782f8a3cead1afe03996409c5373adc193bc5de9467d8d853660406002548151908152836020820152a1600255005b3461038f57600036600319011261038f576001546040516001600160a01b039091168152602090f35b3461038f57602036600319011261038f57604061082460043580600052600560205261081f60ff600585600020015416610dbd565b610ed8565b825191151582526020820152f35b3461038f57600036600319011261038f576020604051620151808152f35b3461038f57600036600319011261038f57610869610fd6565b600180546001600160a01b031981169091556000906001600160a01b03167f8be0079c531659141344cd1fd0a4f28419497f9722a3daafe3b4186f6b6457e08280a3005b3461038f57600036600319011261038f576020600454604051908152f35b3461038f57604036600319011261038f576004356108e7610d91565b81600052600560205261090460ff60056040600020015416610dbd565b81600052600560205261092860018060a01b03600160406000200154163314610dfa565b6001600160a01b03169081156109a0578060005260056020526001604060002061095c60ff600583015460081c1615610e37565b0180546001600160a01b0319811684179091556001600160a01b0316907f94cb47eeeeb76a68c4d24f7c656bc9e63d5bc82211fc7784b33e438103b2f873600080a4005b60405162461bcd60e51b815260206004820152600a60248201526906e65774f776e65723d360b41b6044820152606490fd5b3461038f57600036600319011261038f576020600254604051908152f35b3461038f57600036600319011261038f576003546040516001600160a01b039091168152602090f35b3461038f57604036600319011261038f57600435610a35610d91565b816000526005602052610a5260ff60056040600020015416610dbd565b816000526005602052610a7660018060a01b03600160406000200154163314610dfa565b6001600160a01b0316908115610aee5780600052600560205260026040600020610aaa60ff600583015460081c1615610e37565b0180546001600160a01b0319811684179091556001600160a01b0316907fb46dd957666562116725549320e1a014fec61f371662e239650e548197f9f5ef600080a4005b60405162461bcd60e51b815260206004820152601060248201526f06e657742656e65666963696172793d360841b6044820152606490fd5b3461038f57602036600319011261038f57600435610b42610fb4565b806000526005602052610b5f60ff60056040600020015416610dbd565b80600052600560205260406000209060058201805490610b8560ff8360081c1615610e37565b6002840180546001600160a01b03169233849003610c6c5760048601544210610c38577fcf7d23a3cbe4e8b36ff82fd1b05b1b17373dc7804b4ebbd6e2356716ef20237293602093610100610c1b9361ff001916179055600360018060a01b0388541697019687546040519263a9059cbb60e01b878501526024840152604483015260448252610c16606483610ea9565b610fff565b5493546040519081526001600160a01b0390941693a36001600055005b60405162461bcd60e51b815260206004820152600c60248201526b1cdd1a5b1b081b1bd8dad95960a21b6044820152606490fd5b60405162461bcd60e51b815260206004820152600f60248201526e6e6f742062656e656669636961727960881b6044820152606490fd5b3461038f57604036600319011261038f57600435602435816000526005602052610cd760ff60056040600020015416610dbd565b816000526005602052610cfb60018060a01b03600160406000200154163314610dfa565b81600052600560205260046040600020610d1f60ff600583015460081c1615610e37565b01805480831115610d5e57827f12c0f64f942f99aa5210c23a8ab729735389400457b66b06895b0700315c3b33936040935582519182526020820152a2005b60405162461bcd60e51b815260206004820152600b60248201526a1b5d5cdd08195e1d195b9960aa1b6044820152606490fd5b602435906001600160a01b038216820361038f57565b600435906001600160a01b038216820361038f57565b15610dc457565b60405162461bcd60e51b815260206004820152600e60248201526d1b1bd8dac81b9bdd08199bdd5b9960921b6044820152606490fd5b15610e0157565b60405162461bcd60e51b815260206004820152600e60248201526d2737ba103637b1b59037bbb732b960911b6044820152606490fd5b15610e3e57565b60405162461bcd60e51b815260206004820152601160248201527030b63932b0b23c903bb4ba34323930bbb760791b6044820152606490fd5b60e0810190811067ffffffffffffffff821117610e9357604052565b634e487b7160e01b600052604160045260246000fd5b90601f8019910116810190811067ffffffffffffffff821117610e9357604052565b9190820391821161031b57565b6000526005602052604060002060c0604051610ef381610e77565b82546001600160a01b03908116825260018401548116602083015260028401541660408201526003830154606082015260048301546080820181905260059093015460ff818116151560a084015260089190911c1615159101819052610f6b5780421015610f6b57610f66904290610ecb565b600191565b50600090600090565b3d15610faf573d9067ffffffffffffffff8211610e935760405191610fa3601f8201601f191660200184610ea9565b82523d6000602084013e565b606090565b600260005414610fc5576002600055565b633ee5aeb560e01b60005260046000fd5b6001546001600160a01b03163303610fea57565b63118cdaa760e01b6000523360045260246000fd5b906000602091828151910182855af11561039c576000513d61105157506001600160a01b0381163b155b6110305750565b635274afe760e01b60009081526001600160a01b0391909116600452602490fd5b6001141561102956fea26469706673582212205997fcd9d0fc2498981d7d4fba49cb8116414188d1e86759dd5e29ecccfffd5664736f6c634300081c0033a2646970667358221220bdf92aed3fcaa86dbd5f6de7aedef9a62dad14387e3ffc37119fa2be13705f0b64736f6c634300081c0033",
  "linkReferences": {},
  "deployedLinkReferences": {}
}