{
  "_format": "hh-sol-artifact-1",
  "contractName": "VestingTimeLock",
  "sourceName": "contracts/launch/VestingTimeLock.sol",
  "abi": [
    {
      "inputs": [
        {
          "internalType": "uint256",
          "name": "_vestingLockFee",
          "type": "uint256"
        },
        {
          "internalType": "address",
          "name": "_feeRecipient",
          "type": "address"
        }
      ],
      "stateMutability": "nonpayable",
      "type": "constructor"
    },
    {
      "inputs": [
        {
          "internalType": "address",
          "name": "owner",
          "type": "address"
        }
      ],
      "name": "OwnableInvalidOwner",
      "type": "error"
    },
    {
      "inputs": [
        {
          "internalType": "address",
          "name": "account",
          "type": "address"
        }
      ],
      "name": "OwnableUnauthorizedAccount",
      "type": "error"
    },
    {
      "inputs": [],
      "name": "ReentrancyGuardReentrantCall",
      "type": "error"
    },
    {
      "inputs": [
        {
          "internalType": "address",
          "name": "token",
          "type": "address"
        }
      ],
      "name": "SafeERC20FailedOperation",
      "type": "error"
    },
    {
      "anonymous": false,
      "inputs": [
        {
          "indexed": false,
          "internalType": "address",
          "name": "oldRecipient",
          "type": "address"
        },
        {
          "indexed": false,
          "internalType": "address",
          "name": "newRecipient",
          "type": "address"
        }
      ],
      "name": "FeeRecipientUpdated",
      "type": "event"
    },
    {
      "anonymous": false,
      "inputs": [
        {
          "indexed": true,
          "internalType": "address",
          "name": "previousOwner",
          "type": "address"
        },
        {
          "indexed": true,
          "internalType": "address",
          "name": "newOwner",
          "type": "address"
        }
      ],
      "name": "OwnershipTransferred",
      "type": "event"
    },
    {
      "anonymous": false,
      "inputs": [
        {
          "indexed": true,
          "internalType": "uint256",
          "name": "id",
          "type": "uint256"
        },
        {
          "indexed": true,
          "internalType": "address",
          "name": "beneficiary",
          "type": "address"
        },
        {
          "indexed": false,
          "internalType": "uint256",
          "name": "amount",
          "type": "uint256"
        }
      ],
      "name": "Released",
      "type": "event"
    },
    {
      "anonymous": false,
      "inputs": [
        {
          "indexed": true,
          "internalType": "uint256",
          "name": "id",
          "type": "uint256"
        },
        {
          "indexed": true,
          "internalType": "address",
          "name": "oldBeneficiary",
          "type": "address"
        },
        {
          "indexed": true,
          "internalType": "address",
          "name": "newBeneficiary",
          "type": "address"
        }
      ],
      "name": "VestingBeneficiaryUpdated",
      "type": "event"
    },
    {
      "anonymous": false,
      "inputs": [
        {
          "indexed": true,
          "internalType": "uint256",
          "name": "id",
          "type": "uint256"
        },
        {
          "indexed": false,
          "internalType": "uint64",
          "name": "oldDurationSeconds",
          "type": "uint64"
        },
        {
          "indexed": false,
          "internalType": "uint64",
          "name": "newDurationSeconds",
          "type": "uint64"
        }
      ],
      "name": "VestingDurationExtended",
      "type": "event"
    },
    {
      "anonymous": false,
      "inputs": [
        {
          "indexed": true,
          "internalType": "uint256",
          "name": "id",
          "type": "uint256"
        },
        {
          "indexed": true,
          "internalType": "address",
          "name": "token",
          "type": "address"
        },
        {
          "indexed": true,
          "internalType": "address",
          "name": "beneficiary",
          "type": "address"
        },
        {
          "indexed": false,
          "internalType": "uint256",
          "name": "requestedAmount",
          "type": "uint256"
        },
        {
          "indexed": false,
          "internalType": "uint256",
          "name": "receivedAmount",
          "type": "uint256"
        },
        {
          "indexed": false,
          "internalType": "uint64",
          "name": "start",
          "type": "uint64"
        },
        {
          "indexed": false,
          "internalType": "uint64",
          "name": "cliffSeconds",
          "type": "uint64"
        },
        {
          "indexed": false,
          "internalType": "uint64",
          "name": "durationSeconds",
          "type": "uint64"
        }
      ],
      "name": "VestingLockCreated",
      "type": "event"
    },
    {
      "anonymous": false,
      "inputs": [
        {
          "indexed": false,
          "internalType": "uint256",
          "name": "oldFee",
          "type": "uint256"
        },
        {
          "indexed": false,
          "internalType": "uint256",
          "name": "newFee",
          "type": "uint256"
        }
      ],
      "name": "VestingLockFeeUpdated",
      "type": "event"
    },
    {
      "anonymous": false,
      "inputs": [
        {
          "indexed": true,
          "internalType": "uint256",
          "name": "id",
          "type": "uint256"
        },
        {
          "indexed": true,
          "internalType": "address",
          "name": "oldOwner",
          "type": "address"
        },
        {
          "indexed": true,
          "internalType": "address",
          "name": "newOwner",
          "type": "address"
        }
      ],
      "name": "VestingLockOwnershipTransferred",
      "type": "event"
    },
    {
      "inputs": [],
      "name": "MIN_VESTING_END_DELAY",
      "outputs": [
        {
          "internalType": "uint256",
          "name": "",
          "type": "uint256"
        }
      ],
      "stateMutability": "view",
      "type": "function"
    },
    {
      "inputs": [
        {
          "internalType": "address",
          "name": "token",
          "type": "address"
        },
        {
          "internalType": "address",
          "name": "beneficiary",
          "type": "address"
        },
        {
          "internalType": "uint64",
          "name": "start",
          "type": "uint64"
        },
        {
          "internalType": "uint64",
          "name": "cliffSeconds",
          "type": "uint64"
        },
        {
          "internalType": "uint64",
          "name": "durationSeconds",
          "type": "uint64"
        },
        {
          "internalType": "uint256",
          "name": "amount",
          "type": "uint256"
        }
      ],
      "name": "createVesting",
      "outputs": [
        {
          "internalType": "uint256",
          "name": "id",
          "type": "uint256"
        }
      ],
      "stateMutability": "payable",
      "type": "function"
    },
    {
      "inputs": [
        {
          "internalType": "uint256",
          "name": "id",
          "type": "uint256"
        },
        {
          "internalType": "uint64",
          "name": "newDurationSeconds",
          "type": "uint64"
        }
      ],
      "name": "extendVestingDuration",
      "outputs": [],
      "stateMutability": "nonpayable",
      "type": "function"
    },
    {
      "inputs": [],
      "name": "feeRecipient",
      "outputs": [
        {
          "internalType": "address",
          "name": "",
          "type": "address"
        }
      ],
      "stateMutability": "view",
      "type": "function"
    },
    {
      "inputs": [],
      "name": "nextId",
      "outputs": [
        {
          "internalType": "uint256",
          "name": "",
          "type": "uint256"
        }
      ],
      "stateMutability": "view",
      "type": "function"
    },
    {
      "inputs": [],
      "name": "owner",
      "outputs": [
        {
          "internalType": "address",
          "name": "",
          "type": "address"
        }
      ],
      "stateMutability": "view",
      "type": "function"
    },
    {
      "inputs": [
        {
          "internalType": "uint256",
          "name": "id",
          "type": "uint256"
        }
      ],
      "name": "releasable",
      "outputs": [
        {
          "internalType": "uint256",
          "name": "",
          "type": "uint256"
        }
      ],
      "stateMutability": "view",
      "type": "function"
    },
    {
      "inputs": [
        {
          "internalType": "uint256",
          "name": "id",
          "type": "uint256"
        }
      ],
      "name": "release",
      "outputs": [],
      "stateMutability": "nonpayable",
      "type": "function"
    },
    {
      "inputs": [],
      "name": "renounceOwnership",
      "outputs": [],
      "stateMutability": "nonpayable",
      "type": "function"
    },
    {
      "inputs": [
        {
          "internalType": "address",
          "name": "newRecipient",
          "type": "address"
        }
      ],
      "name": "setFeeRecipient",
      "outputs": [],
      "stateMutability": "nonpayable",
      "type": "function"
    },
    {
      "inputs": [
        {
          "internalType": "uint256",
          "name": "newFee",
          "type": "uint256"
        }
      ],
      "name": "setVestingLockFee",
      "outputs": [],
      "stateMutability": "nonpayable",
      "type": "function"
    },
    {
      "inputs": [
        {
          "internalType": "address",
          "name": "newOwner",
          "type": "address"
        }
      ],
      "name": "transferOwnership",
      "outputs": [],
      "stateMutability": "nonpayable",
      "type": "function"
    },
    {
      "inputs": [
        {
          "internalType": "uint256",
          "name": "id",
          "type": "uint256"
        },
        {
          "internalType": "address",
          "name": "newOwner",
          "type": "address"
        }
      ],
      "name": "transferVestingLockOwnership",
      "outputs": [],
      "stateMutability": "nonpayable",
      "type": "function"
    },
    {
      "inputs": [
        {
          "internalType": "uint256",
          "name": "id",
          "type": "uint256"
        },
        {
          "internalType": "address",
          "name": "newBeneficiary",
          "type": "address"
        }
      ],
      "name": "updateBeneficiary",
      "outputs": [],
      "stateMutability": "nonpayable",
      "type": "function"
    },
    {
      "inputs": [
        {
          "internalType": "uint256",
          "name": "id",
          "type": "uint256"
        }
      ],
      "name": "vestedAmount",
      "outputs": [
        {
          "internalType": "uint256",
          "name": "",
          "type": "uint256"
        }
      ],
      "stateMutability": "view",
      "type": "function"
    },
    {
      "inputs": [],
      "name": "vestingLockFee",
      "outputs": [
        {
          "internalType": "uint256",
          "name": "",
          "type": "uint256"
        }
      ],
      "stateMutability": "view",
      "type": "function"
    },
    {
      "inputs": [
        {
          "internalType": "uint256",
          "name": "",
          "type": "uint256"
        }
      ],
      "name": "vestingLocks",
      "outputs": [
        {
          "internalType": "address",
          "name": "token",
          "type": "address"
        },
        {
          "internalType": "address",
          "name": "owner",
          "type": "address"
        },
        {
          "internalType": "address",
          "name": "beneficiary",
          "type": "address"
        },
        {
          "internalType": "uint256",
          "name": "totalAmount",
          "type": "uint256"
        },
        {
          "internalType": "uint256",
          "name": "released",
          "type": "uint256"
        },
        {
          "internalType": "uint64",
          "name": "start",
          "type": "uint64"
        },
        {
          "internalType": "uint64",
          "name": "cliffSeconds",
          "type": "uint64"
        },
        {
          "internalType": "uint64",
          "name": "durationSeconds",
          "type": "uint64"
        },
        {
          "internalType": "bool",
          "name": "exists",
          "type": "bool"
        }
      ],
      "stateMutability": "view",
      "type": "function"
    },
    {
      "stateMutability": "payable",
      "type": "receive"
    }
  ],
  "bytecode": "0x60803461012657601f61154438819003918201601f19168301916001600160401b0383118484101761012b5780849260409485528339810103126101265780516020909101516001600160a01b038116919082900361012657600160005533156101105760018054336001600160a01b03198216811790925560405191906001600160a01b03167f8be0079c531659141344cd1fd0a4f28419497f9722a3daafe3b4186f6b6457e0600080a3600160045582156100dd5750600255600380546001600160a01b03191691909117905560405161140290816101428239f35b62461bcd60e51b815260206004820152600e60248201526d0666565526563697069656e743d360941b6044820152606490fd5b631e4fbdf760e01b600052600060045260246000fd5b600080fd5b634e487b7160e01b600052604160045260246000fdfe608080604052600436101561001d575b50361561001b57600080fd5b005b60003560e01c90816302757e6314610f8657508063187c545f14610f335780631bfce85314610ed55780633470d28e14610e1d57806337bdc99b14610cab5780633e8eb5a414610baf5780634690484014610b8657806351cc5c2b14610a9057806352cf7ca41461094f57806361b8ce8c146109315780636fd0127814610327578063715018a6146102ca5780638da5cb5b146102a1578063d31aa60514610283578063e4bf01a814610228578063e74b981b146101745763f2fde38b146100e5573861000f565b3461016f57602036600319011261016f576100fe610fb7565b6101066111d2565b6001600160a01b0316801561015957600180546001600160a01b0319811683179091556001600160a01b03167f8be0079c531659141344cd1fd0a4f28419497f9722a3daafe3b4186f6b6457e0600080a3005b631e4fbdf760e01b600052600060045260246000fd5b600080fd5b3461016f57602036600319011261016f5761018d610fb7565b6101956111d2565b6001600160a01b031680156101f257600354604080516001600160a01b0383168152602081018490527faaebcf1bfa00580e41d966056b48521fa9f202645c86d4ddf28113e617c1b1d39190a16001600160a01b03191617600355005b60405162461bcd60e51b815260206004820152600e60248201526d0666565526563697069656e743d360941b6044820152606490fd5b3461016f57602036600319011261016f5760043580600052600560205261025c60ff60056040600020015460c01c16610fcd565b6000526005602052602061027b6102766040600020611060565b61133e565b604051908152f35b3461016f57600036600319011261016f576020604051620151808152f35b3461016f57600036600319011261016f576001546040516001600160a01b039091168152602090f35b3461016f57600036600319011261016f576102e36111d2565b600180546001600160a01b031981169091556000906001600160a01b03167f8be0079c531659141344cd1fd0a4f28419497f9722a3daafe3b4186f6b6457e08280a3005b60c036600319011261016f5761033b610fb7565b610343610fa1565b90604435906001600160401b03821680920361016f57606435926001600160401b03841680940361016f57608435936001600160401b03851680950361016f5760a4359361038f61131c565b600254938434106108f9576001600160a01b03169283156108ca576001600160a01b0316938415610895578515610865578615610833576103d283881015611147565b6103dc87836110fa565b6201518042019081421161068457106107f65780610790575b50610402600254346111c5565b8061073e575b506040516370a0823160e01b8152306004820152602081602481875afa9081156107005760009161070c575b5061046f6040516323b872dd60e01b60208201523360248201523060448201528760648201526064815261046960848261103f565b85611371565b6040516370a0823160e01b815230600482015290602082602481885afa8015610700576000906106cc575b6104a492506111c5565b801561069a576004549560001987146106845787848460a0947fa4f6f84586eebd492f72cd578d9fbdbe3e2900766d611adef8fab2100c80ede0968b6106426001600160401b0360209f839c8f8f6005908592600189016004556040519161050b8361100d565b825260208201903382526040830190815260608301908c825260808401926000845260a085019c8d5260c0850197885260e0850198895261010085019b60018d52600052602086905260406000209460a0600180911b039060a0600180911b039051161660a06001600160601b03901b86541617855560a0600180911b03905116600185019060a0600180911b031660a06001600160601b03901b82541617905560a0600180911b03905116600284019060a0600180911b031660a06001600160601b03901b825416179055516003830155516004820155019651166fffffffffffffffff00000000000000008754925160401b16916fffffffffffffffffffffffffffffffff191617178555511683908154906001600160401b0360801b9060801b16906001600160401b0360801b1916179055565b51815460ff60c01b191690151560c01b60ff60c01b16179055604080519586528c86019190915284015260608301526080820152a46001600055604051908152f35b634e487b7160e01b600052601160045260246000fd5b60405162461bcd60e51b815260206004820152600a602482015269072656365697665643d360b41b6044820152606490fd5b506020823d6020116106f8575b816106e66020938361103f565b8101031261016f576104a4915161049a565b3d91506106d9565b6040513d6000823e3d90fd5b90506020813d602011610736575b816107276020938361103f565b8101031261016f575187610434565b3d915061071a565b600080808093335af161074f611186565b501561075b5786610408565b60405162461bcd60e51b815260206004820152600d60248201526c1c99599d5b990819985a5b1959609a1b6044820152606490fd5b6003546000918291829182916001600160a01b03165af16107af611186565b50156107bb57866103f5565b60405162461bcd60e51b8152602060048201526013602482015272199959481d1c985b9cd9995c8819985a5b1959606a1b6044820152606490fd5b60405162461bcd60e51b81526020600482015260156024820152743b32b9ba34b7339032b73239903a37b79039b7b7b760591b6044820152606490fd5b60405162461bcd60e51b815260206004820152600a60248201526906475726174696f6e3d360b41b6044820152606490fd5b60405162461bcd60e51b81526020600482015260086024820152670616d6f756e743d360c41b6044820152606490fd5b60405162461bcd60e51b815260206004820152600d60248201526c062656e65666963696172793d3609c1b6044820152606490fd5b60405162461bcd60e51b81526020600482015260076024820152660746f6b656e3d360cc1b6044820152606490fd5b60405162461bcd60e51b815260206004820152601060248201526f696e73756666696369656e742066656560801b6044820152606490fd5b3461016f57600036600319011261016f576020600454604051908152f35b3461016f57604036600319011261016f576004356024356001600160401b03811680820361016f5782600052600560205261099760ff60056040600020015460c01c16610fcd565b8260005260056020526109bb60018060a01b03600160406000200154163314611107565b8260005260056020526005604060002001908154906001600160401b038260801c169182821115610a5d577f202d664f4d26ce0848d7e30547711e5d516a18ecb3c93cf367459ef53a67ef6c94604094610a256001600160401b03610a5094881c16851015611147565b805467ffffffffffffffff60801b191660809290921b67ffffffffffffffff60801b16919091179055565b82519182526020820152a2005b60405162461bcd60e51b815260206004820152600b60248201526a1b5d5cdd08195e1d195b9960aa1b6044820152606490fd5b3461016f57604036600319011261016f57600435610aac610fa1565b816000526005602052610acc60ff60056040600020015460c01c16610fcd565b816000526005602052610af060018060a01b03600160406000200154163314611107565b6001600160a01b0316908115610b5457600081815260056020526040812060010180546001600160a01b0319811685179091556001600160a01b031691907fd4d906e4ff3c227c719f151020d31ab5c094d7b1dee0e66705d784d48285c0229080a4005b60405162461bcd60e51b815260206004820152600a60248201526906e65774f776e65723d360b41b6044820152606490fd5b3461016f57600036600319011261016f576003546040516001600160a01b039091168152602090f35b3461016f57604036600319011261016f57600435610bcb610fa1565b816000526005602052610beb60ff60056040600020015460c01c16610fcd565b816000526005602052610c0f60018060a01b03600160406000200154163314611107565b6001600160a01b0316908115610c7357600081815260056020526040812060020180546001600160a01b0319811685179091556001600160a01b031691907fae42898b0bbc74b7c882285976b72654ba0af1da277ace5d521487a4cfe916ac9080a4005b60405162461bcd60e51b815260206004820152601060248201526f06e657742656e65666963696172793d360841b6044820152606490fd5b3461016f57602036600319011261016f57600435610cc761131c565b806000526005602052610ce760ff60056040600020015460c01c16610fcd565b806000526005602052604060002090600282019160018060a01b03835416803303610de657610d1861027683611060565b938415610dac57610d936020928460047f3bfce8de0db7450cc169b94323c210e69a36c6a4a58c9f5d96bec4973adce3929601610d568982546110fa565b90555460405163a9059cbb60e01b868201526024810192909252604480830189905282526001600160a01b0316610d8e60648361103f565b611371565b546040519485526001600160a01b031693a36001600055005b60405162461bcd60e51b81526020600482015260126024820152716e6f7468696e6720746f2072656c6561736560701b6044820152606490fd5b60405162461bcd60e51b815260206004820152600f60248201526e6e6f742062656e656669636961727960881b6044820152606490fd5b3461016f57602036600319011261016f576004356000526005602052610120604060002060ff60018060a01b038254169160018060a01b036001820154169060018060a01b03600282015416600382015490600560048401549301549360405196875260208701526040860152606085015260808401526001600160401b03811660a08401526001600160401b038160401c1660c08401526001600160401b038160801c1660e084015260c01c161515610100820152f35b3461016f57602036600319011261016f57600435806000526005602052610f0960ff60056040600020015460c01c16610fcd565b6000526005602052602061027b6040600020610f2e6001600160401b03421691611060565b61123b565b3461016f57602036600319011261016f57600435610f4f6111d2565b7fc9b2f903d5df5018a7435f03eeb84f2dcb7ff906f4d1b49190f168b6750092ac60406002548151908152836020820152a1600255005b3461016f57600036600319011261016f576020906002548152f35b602435906001600160a01b038216820361016f57565b600435906001600160a01b038216820361016f57565b15610fd457565b60405162461bcd60e51b81526020600482015260116024820152701d995cdd1a5b99c81b9bdd08199bdd5b99607a1b6044820152606490fd5b61012081019081106001600160401b0382111761102957604052565b634e487b7160e01b600052604160045260246000fd5b90601f801991011681019081106001600160401b0382111761102957604052565b9060405161106d8161100d565b61010060ff6005839560018060a01b03815416855260018060a01b03600182015416602086015260018060a01b036002820154166040860152600381015460608601526004810154608086015201546001600160401b03811660a08501526001600160401b038160401c1660c08501526001600160401b038160801c1660e085015260c01c161515910152565b9190820180921161068457565b1561110e57565b60405162461bcd60e51b81526020600482015260116024820152702737ba103b32b9ba34b7339037bbb732b960791b6044820152606490fd5b1561114e57565b60405162461bcd60e51b815260206004820152601060248201526f323ab930ba34b7b7101e1031b634b33360811b6044820152606490fd5b3d156111c0573d906001600160401b03821161102957604051916111b4601f8201601f19166020018461103f565b82523d6000602084013e565b606090565b9190820391821161068457565b6001546001600160a01b031633036111e657565b63118cdaa760e01b6000523360045260246000fd5b906001600160401b03809116911601906001600160401b03821161068457565b906001600160401b03809116911603906001600160401b03821161068457565b60a081016001600160401b0381511661126360c08401916001600160401b03835116906111fb565b916001600160401b038516906001600160401b0384168210611311576001600160401b03905116906001600160401b036112a560e087019382855116906111fb565b161115611305576001600160401b039182806112c69351169151169061121b565b169283156112fa576112e26060926001600160401b039261121b565b16910151818102918183041490151715610684570490565b505060609150015190565b50505060609150015190565b505050505050600090565b60026000541461132d576002600055565b633ee5aeb560e01b60005260046000fd5b60806113536001600160401b0342168361123b565b9101518082111561136a57611367916111c5565b90565b5050600090565b906000602091828151910182855af115610700576000513d6113c357506001600160a01b0381163b155b6113a25750565b635274afe760e01b60009081526001600160a01b0391909116600452602490fd5b6001141561139b56fea264697066735822122079ef99708484b6498a886535f7bc0586eb572588c3fbb0372afd4a1967cf859d64736f6c634300081c0033",
  "linkReferences": {},
  "deployedLinkReferences": {}
}