{
  "_format": "hh-sol-artifact-1",
  "contractName": "OZAdvancedLaunchToken",
  "sourceName": "contracts/launch/OZAdvancedLaunchToken.sol",
  "abi": [
    {
      "inputs": [
        {
          "internalType": "address",
          "name": "initialOwner",
          "type": "address"
        },
        {
          "internalType": "string",
          "name": "tokenName",
          "type": "string"
        },
        {
          "internalType": "string",
          "name": "tokenSymbol",
          "type": "string"
        },
        {
          "internalType": "uint256",
          "name": "initialSupplyRaw",
          "type": "uint256"
        },
        {
          "internalType": "address",
          "name": "marketingWallet_",
          "type": "address"
        }
      ],
      "stateMutability": "nonpayable",
      "type": "constructor"
    },
    {
      "inputs": [
        {
          "internalType": "address",
          "name": "spender",
          "type": "address"
        },
        {
          "internalType": "uint256",
          "name": "allowance",
          "type": "uint256"
        },
        {
          "internalType": "uint256",
          "name": "needed",
          "type": "uint256"
        }
      ],
      "name": "ERC20InsufficientAllowance",
      "type": "error"
    },
    {
      "inputs": [
        {
          "internalType": "address",
          "name": "sender",
          "type": "address"
        },
        {
          "internalType": "uint256",
          "name": "balance",
          "type": "uint256"
        },
        {
          "internalType": "uint256",
          "name": "needed",
          "type": "uint256"
        }
      ],
      "name": "ERC20InsufficientBalance",
      "type": "error"
    },
    {
      "inputs": [
        {
          "internalType": "address",
          "name": "approver",
          "type": "address"
        }
      ],
      "name": "ERC20InvalidApprover",
      "type": "error"
    },
    {
      "inputs": [
        {
          "internalType": "address",
          "name": "receiver",
          "type": "address"
        }
      ],
      "name": "ERC20InvalidReceiver",
      "type": "error"
    },
    {
      "inputs": [
        {
          "internalType": "address",
          "name": "sender",
          "type": "address"
        }
      ],
      "name": "ERC20InvalidSender",
      "type": "error"
    },
    {
      "inputs": [
        {
          "internalType": "address",
          "name": "spender",
          "type": "address"
        }
      ],
      "name": "ERC20InvalidSpender",
      "type": "error"
    },
    {
      "inputs": [
        {
          "internalType": "address",
          "name": "owner",
          "type": "address"
        }
      ],
      "name": "OwnableInvalidOwner",
      "type": "error"
    },
    {
      "inputs": [
        {
          "internalType": "address",
          "name": "account",
          "type": "address"
        }
      ],
      "name": "OwnableUnauthorizedAccount",
      "type": "error"
    },
    {
      "anonymous": false,
      "inputs": [
        {
          "indexed": true,
          "internalType": "address",
          "name": "account",
          "type": "address"
        },
        {
          "indexed": false,
          "internalType": "bool",
          "name": "whitelisted",
          "type": "bool"
        },
        {
          "indexed": false,
          "internalType": "bool",
          "name": "blacklisted",
          "type": "bool"
        },
        {
          "indexed": false,
          "internalType": "bool",
          "name": "excludedFees",
          "type": "bool"
        },
        {
          "indexed": false,
          "internalType": "bool",
          "name": "excludedLimits",
          "type": "bool"
        }
      ],
      "name": "AddressFlagsUpdated",
      "type": "event"
    },
    {
      "anonymous": false,
      "inputs": [
        {
          "indexed": true,
          "internalType": "address",
          "name": "owner",
          "type": "address"
        },
        {
          "indexed": true,
          "internalType": "address",
          "name": "spender",
          "type": "address"
        },
        {
          "indexed": false,
          "internalType": "uint256",
          "name": "value",
          "type": "uint256"
        }
      ],
      "name": "Approval",
      "type": "event"
    },
    {
      "anonymous": false,
      "inputs": [
        {
          "indexed": false,
          "internalType": "string",
          "name": "side",
          "type": "string"
        },
        {
          "indexed": false,
          "internalType": "uint16",
          "name": "marketingBps",
          "type": "uint16"
        },
        {
          "indexed": false,
          "internalType": "uint16",
          "name": "liquidityBps",
          "type": "uint16"
        },
        {
          "indexed": false,
          "internalType": "uint16",
          "name": "burnBps",
          "type": "uint16"
        },
        {
          "indexed": false,
          "internalType": "uint16",
          "name": "totalBps",
          "type": "uint16"
        }
      ],
      "name": "FeesUpdated",
      "type": "event"
    },
    {
      "anonymous": false,
      "inputs": [
        {
          "indexed": false,
          "internalType": "uint256",
          "name": "maxGasPriceWei",
          "type": "uint256"
        },
        {
          "indexed": false,
          "internalType": "uint256",
          "name": "deadBlocks",
          "type": "uint256"
        },
        {
          "indexed": false,
          "internalType": "bool",
          "name": "revertEarlyBuys",
          "type": "bool"
        },
        {
          "indexed": false,
          "internalType": "uint256",
          "name": "maxTxAmount",
          "type": "uint256"
        },
        {
          "indexed": false,
          "internalType": "uint256",
          "name": "maxWalletAmount",
          "type": "uint256"
        }
      ],
      "name": "LimitsUpdated",
      "type": "event"
    },
    {
      "anonymous": false,
      "inputs": [
        {
          "indexed": true,
          "internalType": "address",
          "name": "wallet",
          "type": "address"
        }
      ],
      "name": "MarketingWalletSet",
      "type": "event"
    },
    {
      "anonymous": false,
      "inputs": [
        {
          "indexed": true,
          "internalType": "address",
          "name": "previousOwner",
          "type": "address"
        },
        {
          "indexed": true,
          "internalType": "address",
          "name": "newOwner",
          "type": "address"
        }
      ],
      "name": "OwnershipTransferred",
      "type": "event"
    },
    {
      "anonymous": false,
      "inputs": [
        {
          "indexed": true,
          "internalType": "address",
          "name": "router",
          "type": "address"
        },
        {
          "indexed": true,
          "internalType": "address",
          "name": "pair",
          "type": "address"
        }
      ],
      "name": "RouterSet",
      "type": "event"
    },
    {
      "anonymous": false,
      "inputs": [
        {
          "indexed": false,
          "internalType": "bool",
          "name": "enabled",
          "type": "bool"
        },
        {
          "indexed": false,
          "internalType": "uint256",
          "name": "thresholdTokens",
          "type": "uint256"
        }
      ],
      "name": "SwapSettingsUpdated",
      "type": "event"
    },
    {
      "anonymous": false,
      "inputs": [
        {
          "indexed": true,
          "internalType": "uint256",
          "name": "launchBlock",
          "type": "uint256"
        },
        {
          "indexed": true,
          "internalType": "address",
          "name": "pair",
          "type": "address"
        }
      ],
      "name": "TradingEnabled",
      "type": "event"
    },
    {
      "anonymous": false,
      "inputs": [
        {
          "indexed": true,
          "internalType": "address",
          "name": "from",
          "type": "address"
        },
        {
          "indexed": true,
          "internalType": "address",
          "name": "to",
          "type": "address"
        },
        {
          "indexed": false,
          "internalType": "uint256",
          "name": "value",
          "type": "uint256"
        }
      ],
      "name": "Transfer",
      "type": "event"
    },
    {
      "inputs": [],
      "name": "BURN_ADDRESS",
      "outputs": [
        {
          "internalType": "address",
          "name": "",
          "type": "address"
        }
      ],
      "stateMutability": "view",
      "type": "function"
    },
    {
      "inputs": [
        {
          "internalType": "address",
          "name": "owner",
          "type": "address"
        },
        {
          "internalType": "address",
          "name": "spender",
          "type": "address"
        }
      ],
      "name": "allowance",
      "outputs": [
        {
          "internalType": "uint256",
          "name": "",
          "type": "uint256"
        }
      ],
      "stateMutability": "view",
      "type": "function"
    },
    {
      "inputs": [
        {
          "internalType": "address",
          "name": "spender",
          "type": "address"
        },
        {
          "internalType": "uint256",
          "name": "value",
          "type": "uint256"
        }
      ],
      "name": "approve",
      "outputs": [
        {
          "internalType": "bool",
          "name": "",
          "type": "bool"
        }
      ],
      "stateMutability": "nonpayable",
      "type": "function"
    },
    {
      "inputs": [
        {
          "internalType": "address",
          "name": "account",
          "type": "address"
        }
      ],
      "name": "balanceOf",
      "outputs": [
        {
          "internalType": "uint256",
          "name": "",
          "type": "uint256"
        }
      ],
      "stateMutability": "view",
      "type": "function"
    },
    {
      "inputs": [],
      "name": "buyFee",
      "outputs": [
        {
          "internalType": "uint16",
          "name": "marketingBps",
          "type": "uint16"
        },
        {
          "internalType": "uint16",
          "name": "liquidityBps",
          "type": "uint16"
        },
        {
          "internalType": "uint16",
          "name": "burnBps",
          "type": "uint16"
        },
        {
          "internalType": "uint16",
          "name": "totalBps",
          "type": "uint16"
        }
      ],
      "stateMutability": "view",
      "type": "function"
    },
    {
      "inputs": [],
      "name": "deadBlocks",
      "outputs": [
        {
          "internalType": "uint256",
          "name": "",
          "type": "uint256"
        }
      ],
      "stateMutability": "view",
      "type": "function"
    },
    {
      "inputs": [],
      "name": "decimals",
      "outputs": [
        {
          "internalType": "uint8",
          "name": "",
          "type": "uint8"
        }
      ],
      "stateMutability": "view",
      "type": "function"
    },
    {
      "inputs": [],
      "name": "enableTrading",
      "outputs": [],
      "stateMutability": "nonpayable",
      "type": "function"
    },
    {
      "inputs": [
        {
          "internalType": "address",
          "name": "",
          "type": "address"
        }
      ],
      "name": "isBlacklisted",
      "outputs": [
        {
          "internalType": "bool",
          "name": "",
          "type": "bool"
        }
      ],
      "stateMutability": "view",
      "type": "function"
    },
    {
      "inputs": [
        {
          "internalType": "address",
          "name": "",
          "type": "address"
        }
      ],
      "name": "isExcludedFromFees",
      "outputs": [
        {
          "internalType": "bool",
          "name": "",
          "type": "bool"
        }
      ],
      "stateMutability": "view",
      "type": "function"
    },
    {
      "inputs": [
        {
          "internalType": "address",
          "name": "",
          "type": "address"
        }
      ],
      "name": "isExcludedFromLimits",
      "outputs": [
        {
          "internalType": "bool",
          "name": "",
          "type": "bool"
        }
      ],
      "stateMutability": "view",
      "type": "function"
    },
    {
      "inputs": [
        {
          "internalType": "address",
          "name": "",
          "type": "address"
        }
      ],
      "name": "isWhitelisted",
      "outputs": [
        {
          "internalType": "bool",
          "name": "",
          "type": "bool"
        }
      ],
      "stateMutability": "view",
      "type": "function"
    },
    {
      "inputs": [],
      "name": "launchBlock",
      "outputs": [
        {
          "internalType": "uint256",
          "name": "",
          "type": "uint256"
        }
      ],
      "stateMutability": "view",
      "type": "function"
    },
    {
      "inputs": [],
      "name": "manualSwapBack",
      "outputs": [],
      "stateMutability": "nonpayable",
      "type": "function"
    },
    {
      "inputs": [],
      "name": "marketingWallet",
      "outputs": [
        {
          "internalType": "address",
          "name": "",
          "type": "address"
        }
      ],
      "stateMutability": "view",
      "type": "function"
    },
    {
      "inputs": [],
      "name": "maxGasPriceWei",
      "outputs": [
        {
          "internalType": "uint256",
          "name": "",
          "type": "uint256"
        }
      ],
      "stateMutability": "view",
      "type": "function"
    },
    {
      "inputs": [],
      "name": "maxTxAmount",
      "outputs": [
        {
          "internalType": "uint256",
          "name": "",
          "type": "uint256"
        }
      ],
      "stateMutability": "view",
      "type": "function"
    },
    {
      "inputs": [],
      "name": "maxWalletAmount",
      "outputs": [
        {
          "internalType": "uint256",
          "name": "",
          "type": "uint256"
        }
      ],
      "stateMutability": "view",
      "type": "function"
    },
    {
      "inputs": [],
      "name": "name",
      "outputs": [
        {
          "internalType": "string",
          "name": "",
          "type": "string"
        }
      ],
      "stateMutability": "view",
      "type": "function"
    },
    {
      "inputs": [],
      "name": "owner",
      "outputs": [
        {
          "internalType": "address",
          "name": "",
          "type": "address"
        }
      ],
      "stateMutability": "view",
      "type": "function"
    },
    {
      "inputs": [],
      "name": "renounceOwnership",
      "outputs": [],
      "stateMutability": "nonpayable",
      "type": "function"
    },
    {
      "inputs": [],
      "name": "revertEarlyBuys",
      "outputs": [
        {
          "internalType": "bool",
          "name": "",
          "type": "bool"
        }
      ],
      "stateMutability": "view",
      "type": "function"
    },
    {
      "inputs": [],
      "name": "sellFee",
      "outputs": [
        {
          "internalType": "uint16",
          "name": "marketingBps",
          "type": "uint16"
        },
        {
          "internalType": "uint16",
          "name": "liquidityBps",
          "type": "uint16"
        },
        {
          "internalType": "uint16",
          "name": "burnBps",
          "type": "uint16"
        },
        {
          "internalType": "uint16",
          "name": "totalBps",
          "type": "uint16"
        }
      ],
      "stateMutability": "view",
      "type": "function"
    },
    {
      "inputs": [
        {
          "internalType": "address",
          "name": "account",
          "type": "address"
        },
        {
          "internalType": "bool",
          "name": "whitelisted",
          "type": "bool"
        },
        {
          "internalType": "bool",
          "name": "blacklisted",
          "type": "bool"
        },
        {
          "internalType": "bool",
          "name": "excludedFees",
          "type": "bool"
        },
        {
          "internalType": "bool",
          "name": "excludedLimits",
          "type": "bool"
        }
      ],
      "name": "setAddressFlags",
      "outputs": [],
      "stateMutability": "nonpayable",
      "type": "function"
    },
    {
      "inputs": [
        {
          "internalType": "uint16",
          "name": "marketingBps",
          "type": "uint16"
        },
        {
          "internalType": "uint16",
          "name": "liquidityBps",
          "type": "uint16"
        },
        {
          "internalType": "uint16",
          "name": "burnBps",
          "type": "uint16"
        }
      ],
      "name": "setBuyFees",
      "outputs": [],
      "stateMutability": "nonpayable",
      "type": "function"
    },
    {
      "inputs": [
        {
          "internalType": "uint256",
          "name": "maxGasPriceWei_",
          "type": "uint256"
        },
        {
          "internalType": "uint256",
          "name": "deadBlocks_",
          "type": "uint256"
        },
        {
          "internalType": "bool",
          "name": "revertEarlyBuys_",
          "type": "bool"
        },
        {
          "internalType": "uint256",
          "name": "maxTxAmount_",
          "type": "uint256"
        },
        {
          "internalType": "uint256",
          "name": "maxWalletAmount_",
          "type": "uint256"
        }
      ],
      "name": "setLimits",
      "outputs": [],
      "stateMutability": "nonpayable",
      "type": "function"
    },
    {
      "inputs": [
        {
          "internalType": "address",
          "name": "wallet",
          "type": "address"
        }
      ],
      "name": "setMarketingWallet",
      "outputs": [],
      "stateMutability": "nonpayable",
      "type": "function"
    },
    {
      "inputs": [
        {
          "internalType": "address",
          "name": "router",
          "type": "address"
        }
      ],
      "name": "setRouter",
      "outputs": [],
      "stateMutability": "nonpayable",
      "type": "function"
    },
    {
      "inputs": [
        {
          "internalType": "uint16",
          "name": "marketingBps",
          "type": "uint16"
        },
        {
          "internalType": "uint16",
          "name": "liquidityBps",
          "type": "uint16"
        },
        {
          "internalType": "uint16",
          "name": "burnBps",
          "type": "uint16"
        }
      ],
      "name": "setSellFees",
      "outputs": [],
      "stateMutability": "nonpayable",
      "type": "function"
    },
    {
      "inputs": [
        {
          "internalType": "bool",
          "name": "enabled",
          "type": "bool"
        },
        {
          "internalType": "uint256",
          "name": "thresholdTokens",
          "type": "uint256"
        }
      ],
      "name": "setSwapSettings",
      "outputs": [],
      "stateMutability": "nonpayable",
      "type": "function"
    },
    {
      "inputs": [],
      "name": "swapEnabled",
      "outputs": [
        {
          "internalType": "bool",
          "name": "",
          "type": "bool"
        }
      ],
      "stateMutability": "view",
      "type": "function"
    },
    {
      "inputs": [],
      "name": "swapTokensAtAmount",
      "outputs": [
        {
          "internalType": "uint256",
          "name": "",
          "type": "uint256"
        }
      ],
      "stateMutability": "view",
      "type": "function"
    },
    {
      "inputs": [],
      "name": "symbol",
      "outputs": [
        {
          "internalType": "string",
          "name": "",
          "type": "string"
        }
      ],
      "stateMutability": "view",
      "type": "function"
    },
    {
      "inputs": [],
      "name": "totalSupply",
      "outputs": [
        {
          "internalType": "uint256",
          "name": "",
          "type": "uint256"
        }
      ],
      "stateMutability": "view",
      "type": "function"
    },
    {
      "inputs": [],
      "name": "tradingEnabled",
      "outputs": [
        {
          "internalType": "bool",
          "name": "",
          "type": "bool"
        }
      ],
      "stateMutability": "view",
      "type": "function"
    },
    {
      "inputs": [
        {
          "internalType": "address",
          "name": "to",
          "type": "address"
        },
        {
          "internalType": "uint256",
          "name": "value",
          "type": "uint256"
        }
      ],
      "name": "transfer",
      "outputs": [
        {
          "internalType": "bool",
          "name": "",
          "type": "bool"
        }
      ],
      "stateMutability": "nonpayable",
      "type": "function"
    },
    {
      "inputs": [
        {
          "internalType": "address",
          "name": "from",
          "type": "address"
        },
        {
          "internalType": "address",
          "name": "to",
          "type": "address"
        },
        {
          "internalType": "uint256",
          "name": "value",
          "type": "uint256"
        }
      ],
      "name": "transferFrom",
      "outputs": [
        {
          "internalType": "bool",
          "name": "",
          "type": "bool"
        }
      ],
      "stateMutability": "nonpayable",
      "type": "function"
    },
    {
      "inputs": [
        {
          "internalType": "address",
          "name": "newOwner",
          "type": "address"
        }
      ],
      "name": "transferOwnership",
      "outputs": [],
      "stateMutability": "nonpayable",
      "type": "function"
    },
    {
      "inputs": [],
      "name": "uniswapV2Pair",
      "outputs": [
        {
          "internalType": "address",
          "name": "",
          "type": "address"
        }
      ],
      "stateMutability": "view",
      "type": "function"
    },
    {
      "inputs": [],
      "name": "uniswapV2Router",
      "outputs": [
        {
          "internalType": "contract IUniswapV2Router02",
          "name": "",
          "type": "address"
        }
      ],
      "stateMutability": "view",
      "type": "function"
    },
    {
      "stateMutability": "payable",
      "type": "receive"
    }
  ],
  "bytecode": "0x60806040818152346200058b57620032768038038091620000218286620005ac565b843982019160a0818403126200058b576200003c81620005d0565b60208281015190946001600160401b03918281116200058b57816200006391860162000601565b9085850151908382116200058b576200007e91860162000601565b62000091608060608701519601620005d0565b92825181811162000485576003908154906001958683811c9316801562000580575b8c8410146200056a5781908c601f9485811162000511575b50508c908d858411600114620004a757506000926200049b575b505060001982851b1c191690861b1782555b8351928311620004855760049384548681811c911680156200047a575b8c8210146200046557908b8284879695941162000408575b50508b9184116001146200039d5760009362000391575b505082851b92600019911b1c19161781555b6001600160a01b03848116919082156200037a57600580546001600160a01b031980821686179092558951919290859082167f8be0079c531659141344cd1fd0a4f28419497f9722a3daafe3b4186f6b6457e0600080a360ff19968688600c541617600c5586886011541617601155169283156200033a57505091816200032c9899926014946006541617600655600060608b51620001f48162000590565b8281528286820152828d820152015261019060608b51620002158162000590565b60c8815260c88682015260008d82015201526702580000012c012c60018060401b0319670190000000c800c881600a541617600a55600060608d828151916200025e8362000590565b818352818a840152820152015261025860608d6000815191620002818362000590565b61012c8084528a8401528201520152600b541617600b556127108804600d558160005260168352896000208587825416179055306000528960002085878254161790558060005289600020858782541617905581600052601783528960002085878254161790553060005289600020858782541617905560005288600020848682541617905560005252856000208183825416179055306000528560002091825416179055620006d2565b5161211990816200113d8239f35b62461bcd60e51b825281018a9052601460248201527f6d61726b6574696e672077616c6c6574203d20300000000000000000000000006044820152606490fd5b8751631e4fbdf760e01b8152600081840152602490fd5b01519150388062000143565b60008681528c812088965093929190601f198616908e5b828210620003f05750508511620003d5575b50505050811b01815562000155565b01519060f884600019921b161c1916905538808080620003c6565b8385015187558a989096019593840193018e620003b4565b9091929394508660005283826000209181880160051c83019388106200045b575b9189918897969594930160051c01915b8281106200044b57508d91506200012c565b6000815587965089910162000439565b9250819262000429565b602286634e487b7160e01b6000525260246000fd5b90607f169062000114565b634e487b7160e01b600052604160045260246000fd5b015190503880620000e5565b9190899450601f1984168760005283600020936000905b828210620004f75750508411620004de575b505050811b018255620000f7565b015160001983871b60f8161c19169055388080620004d0565b8484015186558c97909501949384019390810190620004be565b909192508560005284826000209181860160051c830193861062000560575b918a91869594930160051c01915b8281106200055057508e9150620000cb565b600081558594508a91016200053e565b9250819262000530565b634e487b7160e01b600052602260045260246000fd5b92607f1692620000b3565b600080fd5b608081019081106001600160401b038211176200048557604052565b601f909101601f19168101906001600160401b038211908210176200048557604052565b51906001600160a01b03821682036200058b57565b6001600160401b0381116200048557601f01601f191660200190565b919080601f840112156200058b578251906200061d82620005e5565b916200062d6040519384620005ac565b8083526020918282870101116200058b5760005b8181106200065757508260009394955001015290565b858101830151848201840152820162000641565b811562000676570490565b634e487b7160e01b600052601260045260246000fd5b919082018092116200069a57565b634e487b7160e01b600052601160045260246000fd5b818102929181159184041417156200069a57565b919082039182116200069a57565b9060009182805260206015815260ff604090808287205416158062000c38575b1562000c0657600f548015158062000bd7575b62000b90575b506008546001600160a01b0380821680159360a09390931c8316929184908162000b7d575b808916928314948062000b71575b8062000b69575b8062000b54575b62000aec575b8a80526017885283878c205416158062000adb575b620009e4575b600e5491848316159182620009d7575b82620009ce575b82620009bf575b5081620009b5575b5080620009a9575b8062000993575b6200096f575b5081600e541615928362000950575b508262000947575b826200093c575b8262000926575b8262000910575b5050620007ed575b505050620007eb925062000c52565b565b156200090757600a945b815195620008058762000590565b549561ffff908188168152818860101c1685820152606082858301998181891c168b5260301c169101908082528062000842575b505050620007dc565b620008516127109189620006b0565b049182156200083957620008969181620008846200088e936200087a87620007eb9e9d620006c4565b9b511686620006b0565b915116906200066b565b8092620006c4565b9381620008c3575b5050505080620008b0575b5062000c52565b620008bc903062000c52565b38620008a9565b81620008e260008051602062003256833981519152936002546200068c565b60025561dead9485855284835280852082815401905551908152a3388080806200089e565b600b94620007f7565b88526016855283882054161590503880620007d4565b88805260168652848920548216159250620007cd565b8015159250620007c6565b889250620007bf565b9092508390841562000966575b509138620007b7565b9050386200095d565b60ff19908116600117600e556200098562000cb3565b600e5416600e5538620007a8565b50308a52898752858a2054600d541115620007a2565b50600d5415156200079b565b9050153862000793565b6007541615159150386200078b565b86925062000784565b600c54861692506200077d565b6012548015158062000acb575b62000a87575b506013548b8b898315158062000a7f575b62000a18575b505050506200076d565b828762000a2b9452808d5220546200068c565b1162000a3b57388b8b8962000a0e565b865162461bcd60e51b815260048101899052601360248201527f4d61782077616c6c6574206578636565646564000000000000000000000000006044820152606490fd5b508962000a08565b8a1162000a955738620009f7565b865162461bcd60e51b815260048101899052600f60248201526e13585e081d1e08195e18d959591959608a1b6044820152606490fd5b508687620009f1575085620009f1565b50828b5283878c2054161562000767565b62000afd600954601054906200068c565b43101562000752578360115416156200075257865162461bcd60e51b815260048101899052601a60248201527f416e7469426f743a206561726c792062757920626c6f636b65640000000000006044820152606490fd5b50828b526014885283878c205416156200074c565b508562000745565b5060105415156200073e565b8095506007541685891614159462000730565b3a1162000b9e57386200070b565b815162461bcd60e51b815260048101849052601260248201527108ec2e640e0e4d2c6ca40e8dede40d0d2ced60731b6044820152606490fd5b506008546001600160a01b03908116801591821562000bf9575b505062000705565b8716149050388062000bf1565b815162461bcd60e51b815260048101849052600b60248201526a109b1858dadb1a5cdd195960aa1b6044820152606490fd5b506001600160a01b038416865281862054811615620006f2565b60008051602062003256833981519152602060009262000c75856002546200068c565b6002556001600160a01b0316938415841462000c9d5780600254036002555b604051908152a3565b8484528382526040842081815401905562000c94565b600030815260208181526040808320548015620010a1576007546001600160a01b039390841690811562001099578460085416156200109957600b5461ffff808260301c1680156200108e5762000d1862000d1e9262000d269460101c1687620006b0565b6200066b565b8094620006c4565b600162000d4262000d3b86831c8097620006c4565b836200068c565b9384156200108e578462000d579130620010a7565b855147916001600160401b039060608301828111848210176200107a578952600283528583018936823783511562001066573081528a60075416918a516315ab88c960e31b81528881600481875afa9081156200105a578e9162001019575b50855182101562001005578c168b860152823b1562001001579390918c928c8c5196879463791ac94760e01b865260a48601908d600488015287602488015260a060448801525180915260c4860193928c88915b83831062000fda575050505050508383809230606483015242608483015203925af1801562000fd05762000fa4575b505062000e479047620006c4565b92831562000f9a5762000d1e62000e659162000d188a9487620006b0565b928015158062000f8c575b62000f45575b5050508115158062000f3b575b62000e90575b5050505050565b60c48262000ea6606094876007541630620010a7565b85600754169560055416928551968794859363f305d71960e01b8552306004860152602485015289604485015289606485015260848401524260a48401525af190811562000f32575062000efe575b80808062000e89565b606090813d811162000f2a575b62000f178183620005ac565b8101031262000f27578062000ef5565b80fd5b503d62000f0b565b513d84823e3d90fd5b5080151562000e83565b8180809289600654165af1503d1562000f8557853d9162000f6683620005e5565b9262000f7587519485620005ac565b83523d92013e5b38858162000e76565b5062000f7c565b508660065416151562000e70565b5050505050505050565b819992991162000fbc5786529662000e473862000e39565b634e487b7160e01b82526041600452602482fd5b88513d8c823e3d90fd5b84979950858294979293969950511681520195019101928f9593928f938c8a979562000e0a565b8c80fd5b634e487b7160e01b8e52603260045260248efd5b90508881813d831162001052575b620010338183620005ac565b810103126200104e576200104790620005d0565b3862000db6565b8d80fd5b503d62001027565b8e8d51903d90823e3d90fd5b634e487b7160e01b8c52603260045260248cfd5b634e487b7160e01b8c52604160045260248cfd5b505050505050505050565b505050505050565b50505050565b6001600160a01b039081169182156200112357169182156200110a5760207f8c5be1e5ebec7d5bd14f71427d1e84f3dd0314c0f7b2291e5b200ac8c7c3b925918360005260018252604060002085600052825280604060002055604051908152a3565b604051634a1406b160e11b815260006004820152602490fd5b60405163e602df0560e01b815260006004820152602490fdfe6080604081815260049182361015610022575b505050361561002057600080fd5b005b600092833560e01c91826306fdde031461117a57508163095ea7b3146111505781631694505e1461112757816318160ddd1461110857816323b872dd146110145781632b14ca5614610fc85781632fc0580614610fa4578163313ce56714610f885781633af32abf14610f4a5781634706240214610efe57816349bd5a5e14610ed55781634ada218b14610eae5781634fbee19314610e705781635cce86cd14610e325781635d098b3814610d6857816366eb378514610cd75781636951a07914610be55781636ddd171314610bc157816370a0823114610b8a578163715018a614610b2a57816375f0a87414610b015781638a8c523c14610a215781638c0b5e2214610a025781638da5cb5b146109d957816392c818d6146108ba57816395d89b41146107b75781639f52256b14610723578163a9059cbb146106f2578163aa4bde28146106d3578163c0d78655146104fe578163d00efb2f146104df578163d0e1032614610473578163dd62ed3e1461042a578163e2f456051461040b578163ef3881c8146103ec578163f2fde38b1461035c578163fabb0b4f1461033d578163fc6c2bda1461024657508063fccc28131461022a5763fe575a87146101ea5780610012565b346102265760203660031901126102265760209160ff9082906001600160a01b036102136112b4565b1681526015855220541690519015158152f35b5080fd5b50346102265781600319360112610226576020905161dead8152f35b91905034610339576060366003190112610339577f78a2b7c85fd401563e8af374883543c3ee4188df1c66fc71232dbb7e7ffdb1029160e0916102876112e5565b61028f6112f6565b91610298611307565b6102a0611327565b6102ab818585611c29565b9161ffff80958185818097511690600b549163ffff0000602083015160101b169067ffff000000000000606065ffff000000008a86015160201b1694015160301b169367ffffffffffffffff1916171717179687600b5584519960a08b5260a08b0152631cd95b1b60e21b60c08b0152166020890152169086015216606084015260301c166080820152a180f35b8280fd5b5050346102265781600319360112610226576020906010549051908152f35b905034610339576020366003190112610339576103776112b4565b90610380611327565b6001600160a01b039182169283156103d6575050600554826bffffffffffffffffffffffff60a01b821617600555167f8be0079c531659141344cd1fd0a4f28419497f9722a3daafe3b4186f6b6457e08380a380f35b51631e4fbdf760e01b8152908101849052602490fd5b505034610226578160031936011261022657602090600f549051908152f35b505034610226578160031936011261022657602090600d549051908152f35b505034610226578060031936011261022657806020926104486112b4565b6104506112cf565b6001600160a01b0391821683526001865283832091168252845220549051908152f35b9050346103395781600319360112610339573590811515809203610339577f06983cb19592d7d4eb4aedd54adc3fb1cd55c1f3cc43ad1bd64f8bc885933ce2916024356104be611327565b60ff19600c541660ff831617600c5580600d5582519182526020820152a180f35b5050346102265781600319360112610226576020906009549051908152f35b9190503461033957602090816003193601126106cf5761051c6112b4565b91610525611327565b6001600160a01b039283169283156106a157600780546001600160a01b03199081168617909155835163c45a015560e01b8152909583828281895afa918215610697578892610678575b5084516315ab88c960e31b81529088858383818b5afa92831561066c57918186809694899661064c575b50604493948a5197889687956364e329cb60e11b87523090870152166024850152165af1908115610642579060179392918891610615575b501680956008541617600855848652528320600160ff198254161790557f8ab4cea230ab04f96aaa9a71fbc4bfa98097c7b9f07e06be33868b500f8100288380a380f35b6106359150833d851161063b575b61062d8183611385565b810190611490565b386105d1565b503d610623565b84513d89823e3d90fd5b6044945061066690873d891161063b5761062d8183611385565b93610599565b508651903d90823e3d90fd5b610690919250843d861161063b5761062d8183611385565b903861056f565b85513d8a823e3d90fd5b825162461bcd60e51b815280860183905260086024820152670726f757465723d360c41b6044820152606490fd5b8380fd5b5050346102265781600319360112610226576020906013549051908152f35b50503461022657806003193601126102265760209061071c6107126112b4565b60243590336113a7565b5160018152f35b9050346103395760a0366003190112610339577f030be12a58949831a2ba360cd4c740f0f9277275d25bb2cc31c3656d170fc5c99160a091359060243590610769611318565b91606435916084359361077a611327565b85600f558260105515159160ff196011541660ff84161760115583601255846013558151958652602086015284015260608301526080820152a180f35b838334610226578160031936011261022657805191809380549160019083821c928285169485156108b0575b602095868610811461089d578589529081156108795750600114610821575b61081d8787610813828c0383611385565b519182918261126b565b0390f35b81529295507f8a35acfbc15ff81a39ae7d344fd709f28e8600b4aa8c65c6b64bfe7fe36bd19b5b828410610866575050508261081d9461081392820101948680610802565b8054868501880152928601928101610848565b60ff19168887015250505050151560051b83010192506108138261081d8680610802565b634e487b7160e01b845260228352602484fd5b93607f16936107e3565b5050346102265760a0366003190112610226576108d56112b4565b9060243591821515918284036109d5576108ed611318565b9060643591821515928381036109d15760843590811515958683036109cd57610914611327565b6001600160a01b0316808a526014602052848a20805499151560ff1660ff199a909a16999099179098556015602052838920805460ff191660ff85151516179055601660205283892090610973919060ff801983541691151516179055565b601760205282882090610991919060ff801983541691151516179055565b815194855215156020850152830152606082015260807f5de6654a95655d8559604b64d6a2547ab79693a81033f89fd08e7fb3d0d7b39a91a280f35b8980fd5b8780fd5b8480fd5b50503461022657816003193601126102265760055490516001600160a01b039091168152602090f35b5050346102265781600319360112610226576020906012549051908152f35b905034610339578260031936011261033957610a3b611327565b6008549060ff8260a01c16610acc576001600160a01b038216928315610a9a57505060ff60a01b1916600160a01b176008554360098190557fb0153a1d634c9f6da118c6950a6689cff830da150b9872b291e7a8d815316bb78380a380f35b906020606492519162461bcd60e51b8352820152600c60248201526b1c185a5c881b9bdd081cd95d60a21b6044820152fd5b606490602084519162461bcd60e51b8352820152600f60248201526e185b1c9958591e48195b98589b1959608a1b6044820152fd5b50503461022657816003193601126102265760065490516001600160a01b039091168152602090f35b8334610b875780600319360112610b8757610b43611327565b600580546001600160a01b0319811690915581906001600160a01b03167f8be0079c531659141344cd1fd0a4f28419497f9722a3daafe3b4186f6b6457e08280a380f35b80fd5b5050346102265760203660031901126102265760209181906001600160a01b03610bb26112b4565b16815280845220549051908152f35b50503461022657816003193601126102265760209060ff600c541690519015158152f35b5050346102265760603660031901126102265760e07f78a2b7c85fd401563e8af374883543c3ee4188df1c66fc71232dbb7e7ffdb10291610c246112e5565b90610c2d6112f6565b610c35611307565b610c3d611327565b610c48818386611c29565b9061ffff938483818095511690600a549163ffff0000602083015160101b169067ffff000000000000606065ffff000000008886015160201b1694015160301b169367ffffffffffffffff1916171717179485600a558183519860a08a52600360a08b01526262757960e81b60c08b0152166020890152169086015216606084015260301c166080820152a180f35b91905034610339578260031936011261033957600554336001600160a01b0391821614908115610d5a575b5015610d29578260ff19600181600e541617600e55610d1f611cd3565b600e5416600e5580f35b906020606492519162461bcd60e51b8352820152600b60248201526a1b9bdd08185b1b1bddd95960aa1b6044820152fd5b905060065416331438610d02565b9190503461033957602036600319011261033957610d846112b4565b610d8c611327565b6001600160a01b0316918215610e055750816bffffffffffffffffffffffff60a01b6006541617600655818352601660205260018184209160ff1992828482541617905560176020528420918254161790557ff86e3c0cc66159379bdf420884b6f4be3aa4fb93284e88c539c61ba300646a748280a280f35b6020606492519162461bcd60e51b83528201526008602482015267077616c6c65743d360c41b6044820152fd5b5050346102265760203660031901126102265760209160ff9082906001600160a01b03610e5d6112b4565b1681526017855220541690519015158152f35b5050346102265760203660031901126102265760209160ff9082906001600160a01b03610e9b6112b4565b1681526016855220541690519015158152f35b50503461022657816003193601126102265760209060ff60085460a01c1690519015158152f35b50503461022657816003193601126102265760085490516001600160a01b039091168152602090f35b505034610226578160031936011261022657600a54905161ffff8083168252601083901c811660208084019190915283901c8116604083015260309290921c9091166060820152608090f35b5050346102265760203660031901126102265760209160ff9082906001600160a01b03610f756112b4565b1681526014855220541690519015158152f35b5050346102265781600319360112610226576020905160128152f35b50503461022657816003193601126102265760209060ff6011541690519015158152f35b505034610226578160031936011261022657600b54905161ffff8083168252601083901c811660208084019190915283901c8116604083015260309290921c9091166060820152608090f35b90508234610b87576060366003190112610b87576110306112b4565b6110386112cf565b916044359360018060a01b038316808352600160205286832033845260205286832054916000198310611074575b60208861071c8989896113a7565b8683106110dc5781156110c55733156110ae5750825260016020908152868320338452815291869020908590039055829061071c87611066565b8751634a1406b160e11b8152908101849052602490fd5b875163e602df0560e01b8152908101849052602490fd5b8751637dc7a0d960e11b8152339181019182526020820193909352604081018790528291506060010390fd5b5050346102265781600319360112610226576020906002549051908152f35b50503461022657816003193601126102265760075490516001600160a01b039091168152602090f35b50503461022657806003193601126102265760209061071c6111706112b4565b60243590336113fd565b929150346106cf57836003193601126106cf57600354600181811c9186908281168015611261575b602095868610821461124e575084885290811561122c57506001146111d3575b61081d8686610813828b0383611385565b929550600383527fc2575a0e9e593c00f959f8c92f12db2869c3395a3b0502d05e2516446f71f85b5b828410611219575050508261081d946108139282010194386111c2565b80548685018801529286019281016111fc565b60ff191687860152505050151560051b83010192506108138261081d386111c2565b634e487b7160e01b845260229052602483fd5b93607f16936111a2565b6020808252825181830181905290939260005b8281106112a057505060409293506000838284010152601f8019910116010190565b81810186015184820160400152850161127e565b600435906001600160a01b03821682036112ca57565b600080fd5b602435906001600160a01b03821682036112ca57565b6004359061ffff821682036112ca57565b6024359061ffff821682036112ca57565b6044359061ffff821682036112ca57565b6044359081151582036112ca57565b6005546001600160a01b0316330361133b57565b60405163118cdaa760e01b8152336004820152602490fd5b6080810190811067ffffffffffffffff82111761136f57604052565b634e487b7160e01b600052604160045260246000fd5b90601f8019910116810190811067ffffffffffffffff82111761136f57604052565b91906001600160a01b03808416156113e4578116156113cb576113c992611512565b565b60405163ec442f0560e01b815260006004820152602490fd5b604051634b637e8f60e11b815260006004820152602490fd5b6001600160a01b03908116918215611477571691821561145e5760207f8c5be1e5ebec7d5bd14f71427d1e84f3dd0314c0f7b2291e5b200ac8c7c3b925918360005260018252604060002085600052825280604060002055604051908152a3565b604051634a1406b160e11b815260006004820152602490fd5b60405163e602df0560e01b815260006004820152602490fd5b908160209103126112ca57516001600160a01b03811681036112ca5790565b919082018092116114bc57565b634e487b7160e01b600052601160045260246000fd5b818102929181159184041417156114bc57565b81156114ef570490565b634e487b7160e01b600052601260045260246000fd5b919082039182116114bc57565b92919060018060a01b03938481166000908082526020916015835260ff97604098808a842054161580611b28575b15611af6578990600f5480151580611ad3575b611a89575b5060085483828260a01c169182156119fd575b1680871494856119eb575b808b16928483851496826119df575b826119d7575b826119c2575b505061195e575b878752601789528d872054841615848f8261194d575b5050611870575b600e5491848316159182611864575b8261185c575b8261184e575b5081611844575b5080611839575b80611824575b611803575b5081600e54161592836117e7575b50826117dd575b826117d3575b826117be575b826117a9575b5050611626575b505050506113c9939450611b3a565b156117a157600a915b88519261163b84611353565b549361ffff938486168152848660101c16828201526060858c8301978181861c16895260301c1691019080825280611676575b505050611617565b611683612710918b6114d2565b0494851561166e5790816116af6116b8936116a6896116bf9798999a9b9e611505565b9c5116896114d2565b915116906114e5565b8095611505565b93806116ed575b505050506113c9949550806116dc575b50611b3a565b6116e7903083611b3a565b386116d6565b826117395790816113c9999a6117146000805160206120c4833981519152946002546114af565b6002555b8061dead968781528085522082815401905551908152a385943880806116c6565b8284528382528984205499818b1061177357906000805160206120c48339815191529291816113c99b9c8688528785520381872055611718565b5163391434e360e21b81526001600160a01b0387166004820152602481018b90526044810191909152606490fd5b600b9161162f565b8452601686528a842054161590503880611610565b858552601687528b852054821615925061160a565b8015159250611604565b85151592506115fe565b909250839084156117fb575b5091386115f7565b9050386117f3565b60ff19908116600117600e55611817611cd3565b600e5416600e55386115e9565b503086528588528c862054600d5411156115e4565b50600d5415156115de565b90501515386115d7565b6007541615159150386115d0565b8692506115ca565b600c54861692506115c4565b6012548015158061193f575b6118fd575b506013548e8d821515806118f6575b61189d575b5050506115b5565b6118af91868b528a8d528a20546114af565b116118bc57388e8d611895565b8d5162461bcd60e51b8152600481018a9052601360248201527213585e081dd85b1b195d08195e18d959591959606a1b6044820152606490fd5b5088611890565b8c116119095738611881565b8d5162461bcd60e51b8152600481018a9052600f60248201526e13585e081d1e08195e18d959591959608a1b6044820152606490fd5b50868761187c57508561187c565b858a5289205416159050848f6115ae565b61196d600954601054906114af565b43101561159857836011541615611598578d5162461bcd60e51b8152600481018a9052601a60248201527f416e7469426f743a206561726c792062757920626c6f636b65640000000000006044820152606490fd5b858a5260148c5289205416159050848f611591565b88925061158b565b60105415159250611585565b80955060075416858b16141594611576565b87151580611a7e575b1561156b57919293505085855260148752828c862054168015611a6d575b15611a335790838c939261156b565b8b5162461bcd60e51b8152600481018890526013602482015272151c98591a5b99c81b9bdd08195b98589b1959606a1b6044820152606490fd5b508389168552828c86205416611a24565b50818b161515611a06565b9091503a11611a9a57899038611558565b895162461bcd60e51b815260048101869052601260248201527108ec2e640e0e4d2c6ca40e8dede40d0d2ced60731b6044820152606490fd5b508360085416808714908115611aea575b50611553565b9050848a161438611ae4565b895162461bcd60e51b815260048101869052600b60248201526a109b1858dadb1a5cdd195960aa1b6044820152606490fd5b508187168352808a8420541615611540565b6001600160a01b0380821692909183611ba257506000805160206120c483398151915291602091611b6d866002546114af565b6002555b169384611b8a5780600254036002555b604051908152a3565b84600052600082526040600020818154019055611b81565b60009084825281602052604082205490868210611be157509181604087602095886000805160206120c483398151915298965283875203912055611b71565b60405163391434e360e21b81526001600160a01b03919091166004820152602481019190915260448101869052606490fd5b91909161ffff808094169116019182116114bc57565b9160006060604051611c3a81611353565b828152826020820152826040820152015261ffff9081611c6382611c5e8688611c13565b611c13565b16926107d08411611c955782908160405196611c7e88611353565b168652166020850152166040830152606082015290565b60405162461bcd60e51b815260206004820152601660248201527546656520746f6f206869676820286d6178203230252960501b6044820152606490fd5b600030815280602052604081205480156120bf576007546001600160a01b03169081156120ba576008546001600160a01b0316156120ba57600b5461ffff808260301c168015611fe157611d32611d3792611d3e9460101c16856114d2565b6114e5565b8092611505565b90611d55611d4f8260011c83611505565b836114af565b9283156120b35783611d6791306113fd565b60405191476060840167ffffffffffffffff81118582101761209f57604052600284526020840193604036863780511561208b573085526007546040516315ab88c960e31b81526004966001600160a01b0390921691906020818981865afa908115612080578a91612061575b5083516001101561204e576001600160a01b03166040840152813b1561204a5791889160405193849263791ac94760e01b845260a48401908b8b86015285602486015260a060448601525180915260c484019190855b818110612025575050508383809230606483015242608483015203925af1801561201a57611fe9575b50611e5e9047611505565b938415611fe1576116b8611e7791611d328894886114d2565b9380151580611fcd575b611f60575b50508060011c151580611f57575b611e9f575b50505050565b60c4606092611ebc8360011c60018060a01b0360075416306113fd565b60075460055460405163f305d71960e01b8152309381019390935260019490941c602483015260448201879052606482018790526001600160a01b0393841660848301524260a4830152909485938492165af18015611f4c57611f21575b8080611e99565b606090813d8111611f45575b611f378183611385565b81010312610b875780611f1a565b503d611f2d565b6040513d84823e3d90fd5b50821515611e94565b600654829182918291906001600160a01b03165af1503d15611fc8573d67ffffffffffffffff8111611fb55760405190611fa4601f8201601f191660200183611385565b81528460203d92013e5b8338611e86565b634e487b7160e01b855260418352602485fd5b611fae565b506006546001600160a01b03161515611e81565b505050505050565b67ffffffffffffffff81979297116120075760405294611e5e611e53565b634e487b7160e01b825260418552602482fd5b6040513d89823e3d90fd5b82516001600160a01b031684528d965087955060209384019390920191600101611e2a565b8880fd5b634e487b7160e01b8a526032885260248afd5b61207a915060203d60201161063b5761062d8183611385565b38611dd4565b6040513d8c823e3d90fd5b634e487b7160e01b87526032600452602487fd5b634e487b7160e01b87526041600452602487fd5b5050505050565b505050565b505056feddf252ad1be2c89b69c2b068fc378daa952ba7f163c4a11628f55a4df523b3efa2646970667358221220b68c7d3f7cd7d105e333058a30dd98a2fb561354377f8b86b1785e594cb6012364736f6c63430008140033ddf252ad1be2c89b69c2b068fc378daa952ba7f163c4a11628f55a4df523b3ef",
  "linkReferences": {},
  "deployedLinkReferences": {}
}