{
  "_format": "hh-sol-artifact-1",
  "contractName": "OZAdvancedLaunchToken",
  "sourceName": "contracts/launch/OZAdvancedLaunchToken.sol",
  "abi": [
    {
      "inputs": [
        {
          "internalType": "address",
          "name": "initialOwner",
          "type": "address"
        },
        {
          "internalType": "string",
          "name": "tokenName",
          "type": "string"
        },
        {
          "internalType": "string",
          "name": "tokenSymbol",
          "type": "string"
        },
        {
          "internalType": "uint256",
          "name": "initialSupplyRaw",
          "type": "uint256"
        },
        {
          "internalType": "address",
          "name": "marketingWallet_",
          "type": "address"
        }
      ],
      "stateMutability": "nonpayable",
      "type": "constructor"
    },
    {
      "inputs": [
        {
          "internalType": "address",
          "name": "spender",
          "type": "address"
        },
        {
          "internalType": "uint256",
          "name": "allowance",
          "type": "uint256"
        },
        {
          "internalType": "uint256",
          "name": "needed",
          "type": "uint256"
        }
      ],
      "name": "ERC20InsufficientAllowance",
      "type": "error"
    },
    {
      "inputs": [
        {
          "internalType": "address",
          "name": "sender",
          "type": "address"
        },
        {
          "internalType": "uint256",
          "name": "balance",
          "type": "uint256"
        },
        {
          "internalType": "uint256",
          "name": "needed",
          "type": "uint256"
        }
      ],
      "name": "ERC20InsufficientBalance",
      "type": "error"
    },
    {
      "inputs": [
        {
          "internalType": "address",
          "name": "approver",
          "type": "address"
        }
      ],
      "name": "ERC20InvalidApprover",
      "type": "error"
    },
    {
      "inputs": [
        {
          "internalType": "address",
          "name": "receiver",
          "type": "address"
        }
      ],
      "name": "ERC20InvalidReceiver",
      "type": "error"
    },
    {
      "inputs": [
        {
          "internalType": "address",
          "name": "sender",
          "type": "address"
        }
      ],
      "name": "ERC20InvalidSender",
      "type": "error"
    },
    {
      "inputs": [
        {
          "internalType": "address",
          "name": "spender",
          "type": "address"
        }
      ],
      "name": "ERC20InvalidSpender",
      "type": "error"
    },
    {
      "inputs": [
        {
          "internalType": "address",
          "name": "owner",
          "type": "address"
        }
      ],
      "name": "OwnableInvalidOwner",
      "type": "error"
    },
    {
      "inputs": [
        {
          "internalType": "address",
          "name": "account",
          "type": "address"
        }
      ],
      "name": "OwnableUnauthorizedAccount",
      "type": "error"
    },
    {
      "anonymous": false,
      "inputs": [
        {
          "indexed": true,
          "internalType": "address",
          "name": "account",
          "type": "address"
        },
        {
          "indexed": false,
          "internalType": "bool",
          "name": "whitelisted",
          "type": "bool"
        },
        {
          "indexed": false,
          "internalType": "bool",
          "name": "blacklisted",
          "type": "bool"
        },
        {
          "indexed": false,
          "internalType": "bool",
          "name": "excludedFees",
          "type": "bool"
        },
        {
          "indexed": false,
          "internalType": "bool",
          "name": "excludedLimits",
          "type": "bool"
        }
      ],
      "name": "AddressFlagsUpdated",
      "type": "event"
    },
    {
      "anonymous": false,
      "inputs": [
        {
          "indexed": true,
          "internalType": "address",
          "name": "owner",
          "type": "address"
        },
        {
          "indexed": true,
          "internalType": "address",
          "name": "spender",
          "type": "address"
        },
        {
          "indexed": false,
          "internalType": "uint256",
          "name": "value",
          "type": "uint256"
        }
      ],
      "name": "Approval",
      "type": "event"
    },
    {
      "anonymous": false,
      "inputs": [
        {
          "indexed": false,
          "internalType": "string",
          "name": "side",
          "type": "string"
        },
        {
          "indexed": false,
          "internalType": "uint16",
          "name": "marketingBps",
          "type": "uint16"
        },
        {
          "indexed": false,
          "internalType": "uint16",
          "name": "liquidityBps",
          "type": "uint16"
        },
        {
          "indexed": false,
          "internalType": "uint16",
          "name": "burnBps",
          "type": "uint16"
        },
        {
          "indexed": false,
          "internalType": "uint16",
          "name": "totalBps",
          "type": "uint16"
        }
      ],
      "name": "FeesUpdated",
      "type": "event"
    },
    {
      "anonymous": false,
      "inputs": [
        {
          "indexed": false,
          "internalType": "uint256",
          "name": "maxGasPriceWei",
          "type": "uint256"
        },
        {
          "indexed": false,
          "internalType": "uint256",
          "name": "deadBlocks",
          "type": "uint256"
        },
        {
          "indexed": false,
          "internalType": "bool",
          "name": "revertEarlyBuys",
          "type": "bool"
        },
        {
          "indexed": false,
          "internalType": "uint256",
          "name": "maxTxAmount",
          "type": "uint256"
        },
        {
          "indexed": false,
          "internalType": "uint256",
          "name": "maxWalletAmount",
          "type": "uint256"
        }
      ],
      "name": "LimitsUpdated",
      "type": "event"
    },
    {
      "anonymous": false,
      "inputs": [
        {
          "indexed": true,
          "internalType": "address",
          "name": "wallet",
          "type": "address"
        }
      ],
      "name": "MarketingWalletSet",
      "type": "event"
    },
    {
      "anonymous": false,
      "inputs": [
        {
          "indexed": true,
          "internalType": "address",
          "name": "previousOwner",
          "type": "address"
        },
        {
          "indexed": true,
          "internalType": "address",
          "name": "newOwner",
          "type": "address"
        }
      ],
      "name": "OwnershipTransferred",
      "type": "event"
    },
    {
      "anonymous": false,
      "inputs": [
        {
          "indexed": true,
          "internalType": "address",
          "name": "router",
          "type": "address"
        },
        {
          "indexed": true,
          "internalType": "address",
          "name": "pair",
          "type": "address"
        }
      ],
      "name": "RouterSet",
      "type": "event"
    },
    {
      "anonymous": false,
      "inputs": [
        {
          "indexed": false,
          "internalType": "bool",
          "name": "enabled",
          "type": "bool"
        },
        {
          "indexed": false,
          "internalType": "uint256",
          "name": "thresholdTokens",
          "type": "uint256"
        }
      ],
      "name": "SwapSettingsUpdated",
      "type": "event"
    },
    {
      "anonymous": false,
      "inputs": [
        {
          "indexed": true,
          "internalType": "uint256",
          "name": "launchBlock",
          "type": "uint256"
        },
        {
          "indexed": true,
          "internalType": "address",
          "name": "pair",
          "type": "address"
        }
      ],
      "name": "TradingEnabled",
      "type": "event"
    },
    {
      "anonymous": false,
      "inputs": [
        {
          "indexed": true,
          "internalType": "address",
          "name": "from",
          "type": "address"
        },
        {
          "indexed": true,
          "internalType": "address",
          "name": "to",
          "type": "address"
        },
        {
          "indexed": false,
          "internalType": "uint256",
          "name": "value",
          "type": "uint256"
        }
      ],
      "name": "Transfer",
      "type": "event"
    },
    {
      "inputs": [],
      "name": "BURN_ADDRESS",
      "outputs": [
        {
          "internalType": "address",
          "name": "",
          "type": "address"
        }
      ],
      "stateMutability": "view",
      "type": "function"
    },
    {
      "inputs": [
        {
          "internalType": "address",
          "name": "owner",
          "type": "address"
        },
        {
          "internalType": "address",
          "name": "spender",
          "type": "address"
        }
      ],
      "name": "allowance",
      "outputs": [
        {
          "internalType": "uint256",
          "name": "",
          "type": "uint256"
        }
      ],
      "stateMutability": "view",
      "type": "function"
    },
    {
      "inputs": [
        {
          "internalType": "address",
          "name": "spender",
          "type": "address"
        },
        {
          "internalType": "uint256",
          "name": "value",
          "type": "uint256"
        }
      ],
      "name": "approve",
      "outputs": [
        {
          "internalType": "bool",
          "name": "",
          "type": "bool"
        }
      ],
      "stateMutability": "nonpayable",
      "type": "function"
    },
    {
      "inputs": [
        {
          "internalType": "address",
          "name": "account",
          "type": "address"
        }
      ],
      "name": "balanceOf",
      "outputs": [
        {
          "internalType": "uint256",
          "name": "",
          "type": "uint256"
        }
      ],
      "stateMutability": "view",
      "type": "function"
    },
    {
      "inputs": [],
      "name": "buyFee",
      "outputs": [
        {
          "internalType": "uint16",
          "name": "marketingBps",
          "type": "uint16"
        },
        {
          "internalType": "uint16",
          "name": "liquidityBps",
          "type": "uint16"
        },
        {
          "internalType": "uint16",
          "name": "burnBps",
          "type": "uint16"
        },
        {
          "internalType": "uint16",
          "name": "totalBps",
          "type": "uint16"
        }
      ],
      "stateMutability": "view",
      "type": "function"
    },
    {
      "inputs": [],
      "name": "deadBlocks",
      "outputs": [
        {
          "internalType": "uint256",
          "name": "",
          "type": "uint256"
        }
      ],
      "stateMutability": "view",
      "type": "function"
    },
    {
      "inputs": [],
      "name": "decimals",
      "outputs": [
        {
          "internalType": "uint8",
          "name": "",
          "type": "uint8"
        }
      ],
      "stateMutability": "view",
      "type": "function"
    },
    {
      "inputs": [],
      "name": "enableTrading",
      "outputs": [],
      "stateMutability": "nonpayable",
      "type": "function"
    },
    {
      "inputs": [
        {
          "internalType": "address",
          "name": "",
          "type": "address"
        }
      ],
      "name": "isBlacklisted",
      "outputs": [
        {
          "internalType": "bool",
          "name": "",
          "type": "bool"
        }
      ],
      "stateMutability": "view",
      "type": "function"
    },
    {
      "inputs": [
        {
          "internalType": "address",
          "name": "",
          "type": "address"
        }
      ],
      "name": "isExcludedFromFees",
      "outputs": [
        {
          "internalType": "bool",
          "name": "",
          "type": "bool"
        }
      ],
      "stateMutability": "view",
      "type": "function"
    },
    {
      "inputs": [
        {
          "internalType": "address",
          "name": "",
          "type": "address"
        }
      ],
      "name": "isExcludedFromLimits",
      "outputs": [
        {
          "internalType": "bool",
          "name": "",
          "type": "bool"
        }
      ],
      "stateMutability": "view",
      "type": "function"
    },
    {
      "inputs": [
        {
          "internalType": "address",
          "name": "",
          "type": "address"
        }
      ],
      "name": "isWhitelisted",
      "outputs": [
        {
          "internalType": "bool",
          "name": "",
          "type": "bool"
        }
      ],
      "stateMutability": "view",
      "type": "function"
    },
    {
      "inputs": [],
      "name": "launchBlock",
      "outputs": [
        {
          "internalType": "uint256",
          "name": "",
          "type": "uint256"
        }
      ],
      "stateMutability": "view",
      "type": "function"
    },
    {
      "inputs": [],
      "name": "manualSwapBack",
      "outputs": [],
      "stateMutability": "nonpayable",
      "type": "function"
    },
    {
      "inputs": [],
      "name": "marketingWallet",
      "outputs": [
        {
          "internalType": "address",
          "name": "",
          "type": "address"
        }
      ],
      "stateMutability": "view",
      "type": "function"
    },
    {
      "inputs": [],
      "name": "maxGasPriceWei",
      "outputs": [
        {
          "internalType": "uint256",
          "name": "",
          "type": "uint256"
        }
      ],
      "stateMutability": "view",
      "type": "function"
    },
    {
      "inputs": [],
      "name": "maxTxAmount",
      "outputs": [
        {
          "internalType": "uint256",
          "name": "",
          "type": "uint256"
        }
      ],
      "stateMutability": "view",
      "type": "function"
    },
    {
      "inputs": [],
      "name": "maxWalletAmount",
      "outputs": [
        {
          "internalType": "uint256",
          "name": "",
          "type": "uint256"
        }
      ],
      "stateMutability": "view",
      "type": "function"
    },
    {
      "inputs": [],
      "name": "name",
      "outputs": [
        {
          "internalType": "string",
          "name": "",
          "type": "string"
        }
      ],
      "stateMutability": "view",
      "type": "function"
    },
    {
      "inputs": [],
      "name": "owner",
      "outputs": [
        {
          "internalType": "address",
          "name": "",
          "type": "address"
        }
      ],
      "stateMutability": "view",
      "type": "function"
    },
    {
      "inputs": [],
      "name": "renounceOwnership",
      "outputs": [],
      "stateMutability": "nonpayable",
      "type": "function"
    },
    {
      "inputs": [],
      "name": "revertEarlyBuys",
      "outputs": [
        {
          "internalType": "bool",
          "name": "",
          "type": "bool"
        }
      ],
      "stateMutability": "view",
      "type": "function"
    },
    {
      "inputs": [],
      "name": "sellFee",
      "outputs": [
        {
          "internalType": "uint16",
          "name": "marketingBps",
          "type": "uint16"
        },
        {
          "internalType": "uint16",
          "name": "liquidityBps",
          "type": "uint16"
        },
        {
          "internalType": "uint16",
          "name": "burnBps",
          "type": "uint16"
        },
        {
          "internalType": "uint16",
          "name": "totalBps",
          "type": "uint16"
        }
      ],
      "stateMutability": "view",
      "type": "function"
    },
    {
      "inputs": [
        {
          "internalType": "address",
          "name": "account",
          "type": "address"
        },
        {
          "internalType": "bool",
          "name": "whitelisted",
          "type": "bool"
        },
        {
          "internalType": "bool",
          "name": "blacklisted",
          "type": "bool"
        },
        {
          "internalType": "bool",
          "name": "excludedFees",
          "type": "bool"
        },
        {
          "internalType": "bool",
          "name": "excludedLimits",
          "type": "bool"
        }
      ],
      "name": "setAddressFlags",
      "outputs": [],
      "stateMutability": "nonpayable",
      "type": "function"
    },
    {
      "inputs": [
        {
          "internalType": "uint16",
          "name": "marketingBps",
          "type": "uint16"
        },
        {
          "internalType": "uint16",
          "name": "liquidityBps",
          "type": "uint16"
        },
        {
          "internalType": "uint16",
          "name": "burnBps",
          "type": "uint16"
        }
      ],
      "name": "setBuyFees",
      "outputs": [],
      "stateMutability": "nonpayable",
      "type": "function"
    },
    {
      "inputs": [
        {
          "internalType": "uint256",
          "name": "maxGasPriceWei_",
          "type": "uint256"
        },
        {
          "internalType": "uint256",
          "name": "deadBlocks_",
          "type": "uint256"
        },
        {
          "internalType": "bool",
          "name": "revertEarlyBuys_",
          "type": "bool"
        },
        {
          "internalType": "uint256",
          "name": "maxTxAmount_",
          "type": "uint256"
        },
        {
          "internalType": "uint256",
          "name": "maxWalletAmount_",
          "type": "uint256"
        }
      ],
      "name": "setLimits",
      "outputs": [],
      "stateMutability": "nonpayable",
      "type": "function"
    },
    {
      "inputs": [
        {
          "internalType": "address",
          "name": "wallet",
          "type": "address"
        }
      ],
      "name": "setMarketingWallet",
      "outputs": [],
      "stateMutability": "nonpayable",
      "type": "function"
    },
    {
      "inputs": [
        {
          "internalType": "address",
          "name": "router",
          "type": "address"
        }
      ],
      "name": "setRouter",
      "outputs": [],
      "stateMutability": "nonpayable",
      "type": "function"
    },
    {
      "inputs": [
        {
          "internalType": "uint16",
          "name": "marketingBps",
          "type": "uint16"
        },
        {
          "internalType": "uint16",
          "name": "liquidityBps",
          "type": "uint16"
        },
        {
          "internalType": "uint16",
          "name": "burnBps",
          "type": "uint16"
        }
      ],
      "name": "setSellFees",
      "outputs": [],
      "stateMutability": "nonpayable",
      "type": "function"
    },
    {
      "inputs": [
        {
          "internalType": "bool",
          "name": "enabled",
          "type": "bool"
        },
        {
          "internalType": "uint256",
          "name": "thresholdTokens",
          "type": "uint256"
        }
      ],
      "name": "setSwapSettings",
      "outputs": [],
      "stateMutability": "nonpayable",
      "type": "function"
    },
    {
      "inputs": [],
      "name": "swapEnabled",
      "outputs": [
        {
          "internalType": "bool",
          "name": "",
          "type": "bool"
        }
      ],
      "stateMutability": "view",
      "type": "function"
    },
    {
      "inputs": [],
      "name": "swapTokensAtAmount",
      "outputs": [
        {
          "internalType": "uint256",
          "name": "",
          "type": "uint256"
        }
      ],
      "stateMutability": "view",
      "type": "function"
    },
    {
      "inputs": [],
      "name": "symbol",
      "outputs": [
        {
          "internalType": "string",
          "name": "",
          "type": "string"
        }
      ],
      "stateMutability": "view",
      "type": "function"
    },
    {
      "inputs": [],
      "name": "totalSupply",
      "outputs": [
        {
          "internalType": "uint256",
          "name": "",
          "type": "uint256"
        }
      ],
      "stateMutability": "view",
      "type": "function"
    },
    {
      "inputs": [],
      "name": "tradingEnabled",
      "outputs": [
        {
          "internalType": "bool",
          "name": "",
          "type": "bool"
        }
      ],
      "stateMutability": "view",
      "type": "function"
    },
    {
      "inputs": [
        {
          "internalType": "address",
          "name": "to",
          "type": "address"
        },
        {
          "internalType": "uint256",
          "name": "value",
          "type": "uint256"
        }
      ],
      "name": "transfer",
      "outputs": [
        {
          "internalType": "bool",
          "name": "",
          "type": "bool"
        }
      ],
      "stateMutability": "nonpayable",
      "type": "function"
    },
    {
      "inputs": [
        {
          "internalType": "address",
          "name": "from",
          "type": "address"
        },
        {
          "internalType": "address",
          "name": "to",
          "type": "address"
        },
        {
          "internalType": "uint256",
          "name": "value",
          "type": "uint256"
        }
      ],
      "name": "transferFrom",
      "outputs": [
        {
          "internalType": "bool",
          "name": "",
          "type": "bool"
        }
      ],
      "stateMutability": "nonpayable",
      "type": "function"
    },
    {
      "inputs": [
        {
          "internalType": "address",
          "name": "newOwner",
          "type": "address"
        }
      ],
      "name": "transferOwnership",
      "outputs": [],
      "stateMutability": "nonpayable",
      "type": "function"
    },
    {
      "inputs": [],
      "name": "uniswapV2Pair",
      "outputs": [
        {
          "internalType": "address",
          "name": "",
          "type": "address"
        }
      ],
      "stateMutability": "view",
      "type": "function"
    },
    {
      "inputs": [],
      "name": "uniswapV2Router",
      "outputs": [
        {
          "internalType": "contract IUniswapV2Router02",
          "name": "",
          "type": "address"
        }
      ],
      "stateMutability": "view",
      "type": "function"
    },
    {
      "stateMutability": "payable",
      "type": "receive"
    }
  ],
  "bytecode": "0x6080806040523461067457613341803803809161001c8285610694565b8339810160a08282031261067457610033826106b7565b60208301519092906001600160401b03811161067457826100559183016106e6565b604082015190926001600160401b038211610674576100759183016106e6565b926100876080606084015193016106b7565b835190936001600160401b0382116105715760035490600182811c9216801561066a575b60208310146105515781601f8493116105fa575b50602090601f831160011461059257600092610587575b50508160011b916000199060031b1c1916176003555b83516001600160401b03811161057157600454600181811c91168015610567575b602082101461055157601f81116104ec575b50602094601f82116001146104855794819293949560009261047a575b50508160011b916000199060031b1c1916176004555b6001600160a01b038116801561046457600580546001600160a01b031981168317909155604051949082906001600160a01b03167f8be0079c531659141344cd1fd0a4f28419497f9722a3daafe3b4186f6b6457e0600080a3600160ff19600c541617600c55600160ff19601154161760115560018060a01b03169384156104225750600680546001600160a01b0319168517905560405160009081906060906101fb81610679565b828152826020820152826040820152015261ffff6102238261021e60c880610766565b610766565b166107d081116103dd576040519161023a83610679565b60c880845260208085019190915260408085018390526060948501849052600a80546001600160401b0319169390921b65ffff00000000169290921760309390931b67ffff000000000000169290921762c800c817909155516000959186916102a281610679565b828152826020820152826040820152015261ffff6102c68661021e61012c80610766565b16946107d086116103dd576103ce95604051916102e283610679565b61012c80845260208085019190915260408085018390526060909401839052600b80546001600160401b03191692821b65ffff00000000169290921760309390931b67ffff000000000000169290921763012c012c1790556127108604600d55600084815260168252828120805460ff19908116600190811790925530808452858420805483168417905586845285842080548316841790558784526017855285842080548316841790558084528584208054831684179055958352848320805482168317905595825260149092528281208054861683179055928352912080549092161790556107bf565b6040516120ba90816112678239f35b60405162461bcd60e51b815260206004820152601660248201527f46656520746f6f206869676820286d61782032302529000000000000000000006044820152606490fd5b62461bcd60e51b815260206004820152601460248201527f6d61726b6574696e672077616c6c6574203d20300000000000000000000000006044820152606490fd5b631e4fbdf760e01b600052600060045260246000fd5b01519050388061013c565b601f198216956004600052806000209160005b8881106104d4575083600195969798106104bb575b505050811b01600455610152565b015160001960f88460031b161c191690553880806104ad565b91926020600181928685015181550194019201610498565b60046000527f8a35acfbc15ff81a39ae7d344fd709f28e8600b4aa8c65c6b64bfe7fe36bd19b601f830160051c81019160208410610547575b601f0160051c01905b81811061053b575061011f565b6000815560010161052e565b9091508190610525565b634e487b7160e01b600052602260045260246000fd5b90607f169061010d565b634e487b7160e01b600052604160045260246000fd5b0151905038806100d6565b600360009081528281209350601f198516905b8181106105e257509084600195949392106105c9575b505050811b016003556100ec565b015160001960f88460031b161c191690553880806105bb565b929360206001819287860151815501950193016105a5565b60036000529091507fc2575a0e9e593c00f959f8c92f12db2869c3395a3b0502d05e2516446f71f85b601f840160051c81019160208510610660575b90601f859493920160051c01905b81811061065157506100bf565b60008155849350600101610644565b9091508190610636565b91607f16916100ab565b600080fd5b608081019081106001600160401b0382111761057157604052565b601f909101601f19168101906001600160401b0382119082101761057157604052565b51906001600160a01b038216820361067457565b6001600160401b03811161057157601f01601f191660200190565b81601f82011215610674578051906106fd826106cb565b9261070b6040519485610694565b828452602083830101116106745760005b82811061073157505060206000918301015290565b8060208092840101518282870101520161071c565b8115610750570490565b634e487b7160e01b600052601260045260246000fd5b9061ffff8091169116019061ffff821161077c57565b634e487b7160e01b600052601160045260246000fd5b9190820180921161077c57565b8181029291811591840414171561077c57565b9190820391821161077c57565b9060008052601560205260ff604060002054161580610d3e575b15610d0b57600f5480151580610cdb575b610c95575b506008546001600160a01b03811680159160a01c60ff16908280610c7c575b6001600160a01b0386169182149280610c71575b80610c6a575b80610c51575b610beb575b6000805260176020527fd840e16649f6b9a295d95876f4633d3a6b10b55e8162971cf78afd886d5ec89b5460ff161580610bd2575b610ae9575b600e549060ff8216159081610adc575b81610ad4575b81610abf575b81610ab6575b5080610aab575b80610a91575b610a6f575b5060ff600e5416159182610a53575b5081610a4a575b81610a40575b81610a0a575b816109f0575b506108dd575b506108db91600061110e565b565b156109e857600a915b604051926108f384610679565b549261ffff8416815261ffff8460101c166020820152606061ffff6040830195818160201c16875260301c1691019080825280610933575b5050916108cf565b610940612710918561079f565b0490811561092b5761097661097d9161ffff61096d81610964876108db9b9a6107b2565b9851168661079f565b91511690610746565b80926107b2565b90806109a5575b5080610993575b50600061110e565b61099f9030600061110e565b3861098b565b6000600080516020613321833981519152602061dead936109c881600254610792565b60025584845283825260408420818154019055604051908152a338610984565b600b916108e6565b9050600052601660205260ff6040600020541615386108c9565b6000805260166020527f0263c2b778d062355049effc2dece97bc6547ff8a88a3258daa512061c2153dd5460ff161591506108c3565b80151591506108bd565b600091506108b7565b90915082908315610a67575b5090386108b0565b905038610a5f565b60ff1916600117600e55610a81610d61565b60ff19600e5416600e55386108a1565b50306000526000602052604060002054600d54111561089c565b50600d541515610896565b9050153861088f565b6007546001600160a01b031615159150610889565b849150610883565b600c5460ff16915061087d565b60125480151580610bc4575b610b81575b5060135480151580610b7a575b610b12575b5061086d565b826000526000602052610b2a86604060002054610792565b11610b355738610b0c565b60405162461bcd60e51b815260206004820152601360248201527f4d61782077616c6c6574206578636565646564000000000000000000000000006044820152606490fd5b5084610b07565b8511610b8d5738610afa565b60405162461bcd60e51b815260206004820152600f60248201526e13585e081d1e08195e18d959591959608a1b6044820152606490fd5b508485610af5575083610af5565b5081600052601760205260ff6040600020541615610868565b610bfa60095460105490610792565b4310156108335760ff60115416156108335760405162461bcd60e51b815260206004820152601a60248201527f416e7469426f743a206561726c792062757920626c6f636b65640000000000006044820152606490fd5b5081600052601460205260ff604060002054161561082e565b5083610828565b506010541515610822565b6007546001600160a01b0387811691161415935061080e565b3a11610ca157386107ef565b60405162461bcd60e51b815260206004820152601260248201527108ec2e640e0e4d2c6ca40e8dede40d0d2ced60731b6044820152606490fd5b506008546001600160a01b03168015908115610cf8575b506107ea565b6001600160a01b03851614905038610cf2565b60405162461bcd60e51b815260206004820152600b60248201526a109b1858dadb1a5cdd195960aa1b6044820152606490fd5b506001600160a01b03821660009081526015602052604090205460ff16156107d9565b6000308152806020526040812054801561110a576007546001600160a01b0316908115611105576008546001600160a01b03161561110557600b5461ffff8160301c169081156110fe57610dc891610dc361ffff6109769360101c168561079f565b610746565b91610de0610dda8360011c80946107b2565b84610792565b9081156110fe5781610df291306111d3565b4792606093604051610e048682610694565b6002815260208101601f1987013682378151156110ea573081526007546040516315ab88c960e31b81526001600160a01b039091169190602081600481865afa9081156110df578a916110a1575b5083516001101561108d576001600160a01b03166040840152813b156110895791889160405193849263791ac94760e01b845260a484019089600486015285602486015260a060448601525180915260c484019190855b818110611064575050508383809230606483015242608483015203925af1801561105957611043575b50610edd90476107b2565b91821561103b57610ef6610efd91610dc388948661079f565b80936107b2565b9180151580611027575b610fdd575b505081151580610fd4575b610f22575b50505050565b600754839190610f3d9084906001600160a01b0316306111d3565b60075460055460405163f305d71960e01b8152306004820152602481019590955260448501879052606485018790526001600160a01b0390811660848601524260a4860152849260c4928492165af18015610fc957610f9d575b80610f1c565b813d8311610fc2575b610fb08183610694565b81010312610fbf578080610f97565b80fd5b503d610fa6565b6040513d85823e3d90fd5b50801515610f17565b600654829182918291906001600160a01b03165af1503d15611022573d611003816106cb565b906110116040519283610694565b81528460203d92013e5b8338610f0c565b61101b565b506006546001600160a01b03161515610f07565b505050505050565b9561105281610edd9398610694565b9590610ed2565b6040513d89823e3d90fd5b82516001600160a01b031684528d965087955060209384019390920191600101610ea9565b8880fd5b634e487b7160e01b8a52603260045260248afd5b90506020813d6020116110d7575b816110bc60209383610694565b810103126110d3576110cd906106b7565b38610e52565b8980fd5b3d91506110af565b6040513d8c823e3d90fd5b634e487b7160e01b88526032600452602488fd5b5050505050565b505050565b5050565b6001600160a01b031690816111785760206000805160206133218339815191529161113b85600254610792565b6002555b6001600160a01b031693846111605780600254036002555b604051908152a3565b84600052600082526040600020818154019055611157565b8160005260006020526040600020548381106111b657600080516020613321833981519152918460209285600052600084520360406000205561113f565b91905063391434e360e21b60005260045260245260445260646000fd5b6001600160a01b0316908115611250576001600160a01b031691821561123a5760207f8c5be1e5ebec7d5bd14f71427d1e84f3dd0314c0f7b2291e5b200ac8c7c3b925918360005260018252604060002085600052825280604060002055604051908152a3565b634a1406b160e11b600052600060045260246000fd5b63e602df0560e01b600052600060045260246000fdfe608080604052600436101561001d575b50361561001b57600080fd5b005b60003560e01c90816306fdde031461117b57508063095ea7b3146111555780631694505e1461112c57806318160ddd1461110e57806323b872dd146110215780632b14ca5614610fd45780632fc0580614610fb1578063313ce56714610f955780633af32abf14610f565780634706240214610f0957806349bd5a5e14610ee05780634ada218b14610eba5780634fbee19314610e7b5780635cce86cd14610e3c5780635d098b3814610d6a57806366eb378514610cd75780636951a07914610be75780636ddd171314610bc457806370a0823114610b8a578063715018a614610b2d57806375f0a87414610b045780638a8c523c14610a245780638c0b5e2214610a065780638da5cb5b146109dd57806392c818d6146108b657806395d89b41146107ae5780639f52256b1461071d578063a9059cbb146106ec578063aa4bde28146106ce578063c0d78655146104f4578063d00efb2f146104d6578063d0e1032614610469578063dd62ed3e14610418578063e2f45605146103fa578063ef3881c8146103dc578063f2fde38b14610352578063fabb0b4f14610334578063fc6c2bda14610243578063fccc2813146102265763fe575a87146101e2573861000f565b34610221576020366003190112610221576001600160a01b03610203611280565b166000526015602052602060ff604060002054166040519015158152f35b600080fd5b3461022157600036600319011261022157602060405161dead8152f35b34610221576060366003190112610221577f78a2b7c85fd401563e8af374883543c3ee4188df1c66fc71232dbb7e7ffdb10260e061027f6112ac565b61ffff61028a6112bd565b816102936112ce565b61029b6113b8565b816102a7828588611813565b8181511690600b5463ffff0000602083015160101b169061ffff60301b606065ffff00000000604086015160201b1694015160301b169361ffff60301b199165ffffffffffff191617161717179384600b55816040519760a08952600460a08a0152631cd95b1b60e21b60c08a015216602088015216604086015216606084015260301c166080820152a1005b34610221576000366003190112610221576020601054604051908152f35b346102215760203660031901126102215761036b611280565b6103736113b8565b6001600160a01b031680156103c657600580546001600160a01b0319811683179091556001600160a01b03167f8be0079c531659141344cd1fd0a4f28419497f9722a3daafe3b4186f6b6457e0600080a3005b631e4fbdf760e01b600052600060045260246000fd5b34610221576000366003190112610221576020600f54604051908152f35b34610221576000366003190112610221576020600d54604051908152f35b3461022157604036600319011261022157610431611280565b610439611296565b6001600160a01b039182166000908152600160209081526040808320949093168252928352819020549051908152f35b34610221576040366003190112610221576004358015158091036102215760407f06983cb19592d7d4eb4aedd54adc3fb1cd55c1f3cc43ad1bd64f8bc885933ce2916024356104b66113b8565b60ff19600c541660ff831617600c5580600d5582519182526020820152a1005b34610221576000366003190112610221576020600954604051908152f35b346102215760203660031901126102215761050d611280565b6105156113b8565b6001600160a01b0316801561069e57600780546001600160a01b0319168217905560405163c45a015560e01b8152602081600481855afa9081156106565760009161067f575b506040516315ab88c960e31b815290602082600481865afa9081156106565760446020926000948591610662575b506040516364e329cb60e11b81523060048201526001600160a01b0391821660248201529485938492165af190811561065657600091610627575b5060018060a01b031690816bffffffffffffffffffffffff60a01b60085416176008558160005260176020526040600020600160ff198254161790557f8ab4cea230ab04f96aaa9a71fbc4bfa98097c7b9f07e06be33868b500f810028600080a3005b610649915060203d60201161064f575b6106418183611320565b810190611342565b826105c4565b503d610637565b6040513d6000823e3d90fd5b6106799150843d861161064f576106418183611320565b86610589565b610698915060203d60201161064f576106418183611320565b8261055b565b60405162461bcd60e51b81526020600482015260086024820152670726f757465723d360c41b6044820152606490fd5b34610221576000366003190112610221576020601354604051908152f35b3461022157604036600319011261022157610712610708611280565b6024359033611361565b602060405160018152f35b346102215760a0366003190112610221577f030be12a58949831a2ba360cd4c740f0f9277275d25bb2cc31c3656d170fc5c960a060043560243561075f6112df565b608435916064359161076f6113b8565b84600f558160105515159060ff196011541660ff83161760115582601255836013556040519485526020850152604084015260608301526080820152a1005b346102215760003660031901126102215760405160006004548060011c906001811680156108ac575b602083108114610898578285529081156108745750600114610814575b6108108361080481850382611320565b60405191829182611237565b0390f35b91905060046000527f8a35acfbc15ff81a39ae7d344fd709f28e8600b4aa8c65c6b64bfe7fe36bd19b916000905b80821061085a575090915081016020016108046107f4565b919260018160209254838588010152019101909291610842565b60ff191660208086019190915291151560051b8401909101915061080490506107f4565b634e487b7160e01b84526022600452602484fd5b91607f16916107d7565b346102215760a0366003190112610221576108cf611280565b6024359081151590818303610221576108e66112df565b91606435801515808203610221576084359485151592838703610221577f5de6654a95655d8559604b64d6a2547ab79693a81033f89fd08e7fb3d0d7b39a966109a46109c39261096260809961093a6113b8565b60018060a01b03169b8c600052601460205260406000209060ff801983541691151516179055565b8a60005260156020526109858560406000209060ff801983541691151516179055565b8a600052601660205260406000209060ff801983541691151516179055565b88600052601760205260406000209060ff801983541691151516179055565b6040519384521515602084015260408301526060820152a2005b34610221576000366003190112610221576005546040516001600160a01b039091168152602090f35b34610221576000366003190112610221576020601254604051908152f35b3461022157600036600319011261022157610a3d6113b8565b60085460ff8160a01c16610acd576001600160a01b038116908115610a995760ff60a01b1916600160a01b176008554360098190557fb0153a1d634c9f6da118c6950a6689cff830da150b9872b291e7a8d815316bb7600080a3005b60405162461bcd60e51b815260206004820152600c60248201526b1c185a5c881b9bdd081cd95d60a21b6044820152606490fd5b60405162461bcd60e51b815260206004820152600f60248201526e185b1c9958591e48195b98589b1959608a1b6044820152606490fd5b34610221576000366003190112610221576006546040516001600160a01b039091168152602090f35b3461022157600036600319011261022157610b466113b8565b600580546001600160a01b031981169091556000906001600160a01b03167f8be0079c531659141344cd1fd0a4f28419497f9722a3daafe3b4186f6b6457e08280a3005b34610221576020366003190112610221576001600160a01b03610bab611280565b1660005260006020526020604060002054604051908152f35b3461022157600036600319011261022157602060ff600c54166040519015158152f35b34610221576060366003190112610221577f78a2b7c85fd401563e8af374883543c3ee4188df1c66fc71232dbb7e7ffdb10260e0610c236112ac565b61ffff610c2e6112bd565b81610c376112ce565b610c3f6113b8565b81610c4b828588611813565b8181511690600a5463ffff0000602083015160101b169061ffff60301b606065ffff00000000604086015160201b1694015160301b169361ffff60301b199165ffffffffffff191617161717179384600a55816040519760a08952600360a08a01526262757960e81b60c08a015216602088015216604086015216606084015260301c166080820152a1005b34610221576000366003190112610221576005546001600160a01b031633148015610d56575b15610d2357600160ff19600e541617600e55610d17611444565b600e805460ff19169055005b60405162461bcd60e51b815260206004820152600b60248201526a1b9bdd08185b1b1bddd95960aa1b6044820152606490fd5b506006546001600160a01b03163314610cfd565b3461022157602036600319011261022157610d83611280565b610d8b6113b8565b6001600160a01b03168015610e0c57806bffffffffffffffffffffffff60a01b60065416176006558060005260166020526040600020600160ff198254161790558060005260176020526040600020600160ff198254161790557ff86e3c0cc66159379bdf420884b6f4be3aa4fb93284e88c539c61ba300646a74600080a2005b60405162461bcd60e51b8152602060048201526008602482015267077616c6c65743d360c41b6044820152606490fd5b34610221576020366003190112610221576001600160a01b03610e5d611280565b166000526017602052602060ff604060002054166040519015158152f35b34610221576020366003190112610221576001600160a01b03610e9c611280565b166000526016602052602060ff604060002054166040519015158152f35b3461022157600036600319011261022157602060ff60085460a01c166040519015158152f35b34610221576000366003190112610221576008546040516001600160a01b039091168152602090f35b3461022157600036600319011261022157600a546040805161ffff8084168252601084901c811660208084019190915284901c81169282019290925260309290921c166060820152608090f35b34610221576020366003190112610221576001600160a01b03610f77611280565b166000526014602052602060ff604060002054166040519015158152f35b3461022157600036600319011261022157602060405160128152f35b3461022157600036600319011261022157602060ff601154166040519015158152f35b3461022157600036600319011261022157600b546040805161ffff8084168252601084901c811660208084019190915284901c81169282019290925260309290921c166060820152608090f35b346102215760603660031901126102215761103a611280565b611042611296565b6001600160a01b0382166000818152600160209081526040808320338452909152902054909260443592916000198110611082575b506107129350611361565b8381106110f15784156110db5733156110c557610712946000526001602052604060002060018060a01b0333166000526020528360406000209103905584611077565b634a1406b160e11b600052600060045260246000fd5b63e602df0560e01b600052600060045260246000fd5b8390637dc7a0d960e11b6000523360045260245260445260646000fd5b34610221576000366003190112610221576020600254604051908152f35b34610221576000366003190112610221576007546040516001600160a01b039091168152602090f35b3461022157604036600319011261022157610712611171611280565b60243590336118bf565b346102215760003660031901126102215760006003548060011c9060018116801561122d575b6020831081146108985782855290811561087457506001146111cd576108108361080481850382611320565b91905060036000527fc2575a0e9e593c00f959f8c92f12db2869c3395a3b0502d05e2516446f71f85b916000905b808210611213575090915081016020016108046107f4565b9192600181602092548385880101520191019092916111fb565b91607f16916111a1565b91909160208152825180602083015260005b81811061126a575060409293506000838284010152601f8019910116010190565b8060208092870101516040828601015201611249565b600435906001600160a01b038216820361022157565b602435906001600160a01b038216820361022157565b6004359061ffff8216820361022157565b6024359061ffff8216820361022157565b6044359061ffff8216820361022157565b60443590811515820361022157565b6080810190811067ffffffffffffffff82111761130a57604052565b634e487b7160e01b600052604160045260246000fd5b90601f8019910116810190811067ffffffffffffffff82111761130a57604052565b9081602091031261022157516001600160a01b03811681036102215790565b91906001600160a01b038316156113a2576001600160a01b0381161561138c5761138a92611926565b565b63ec442f0560e01b600052600060045260246000fd5b634b637e8f60e11b600052600060045260246000fd5b6005546001600160a01b031633036113cc57565b63118cdaa760e01b6000523360045260246000fd5b818102929181159184041417156113f457565b634e487b7160e01b600052601160045260246000fd5b8115611414570490565b634e487b7160e01b600052601260045260246000fd5b919082039182116113f457565b919082018092116113f457565b600030815280602052604081205480156117f9576007546001600160a01b03169081156117f4576008546001600160a01b0316156117f457600b5461ffff8160301c169081156117ed576114b2916114a661ffff6114ab9360101c16856113e1565b61140a565b809261142a565b916114ca6114c48360011c809461142a565b84611437565b9081156117ed57816114dc91306118bf565b47926060936040516114ee8682611320565b6002815260208101601f1987013682378151156117d9573081526007546040516315ab88c960e31b81526001600160a01b039091169190602081600481865afa9081156117ce578a916117af575b5083516001101561179b576001600160a01b03166040840152813b156117975791889160405193849263791ac94760e01b845260a484019089600486015285602486015260a060448601525180915260c484019190855b818110611772575050508383809230606483015242608483015203925af1801561176757611751575b506115c7904761142a565b918215611749576115e06115e7916114a68894866113e1565b809361142a565b9180151580611735575b6116c7575b5050811515806116be575b61160c575b50505050565b6007548391906116279084906001600160a01b0316306118bf565b60075460055460405163f305d71960e01b8152306004820152602481019590955260448501879052606485018790526001600160a01b0390811660848601524260a4860152849260c4928492165af180156116b357611687575b80611606565b813d83116116ac575b61169a8183611320565b810103126116a9578080611681565b80fd5b503d611690565b6040513d85823e3d90fd5b50801515611601565b600654829182918291906001600160a01b03165af1503d15611730573d67ffffffffffffffff811161171c576040519061170b601f8201601f191660200183611320565b81528460203d92013e5b83386115f6565b634e487b7160e01b85526041600452602485fd5b611715565b506006546001600160a01b031615156115f1565b505050505050565b95611760816115c79398611320565b95906115bc565b6040513d89823e3d90fd5b82516001600160a01b031684528d965087955060209384019390920191600101611593565b8880fd5b634e487b7160e01b8a52603260045260248afd5b6117c8915060203d60201161064f576106418183611320565b3861153c565b6040513d8c823e3d90fd5b634e487b7160e01b88526032600452602488fd5b5050505050565b505050565b5050565b9061ffff8091169116019061ffff82116113f457565b919060006060604051611825816112ee565b828152826020820152826040820152015261ffff61184c8361184784876117fd565b6117fd565b16916107d083116118815761ffff8092816040519661186a886112ee565b168652166020850152166040830152606082015290565b60405162461bcd60e51b815260206004820152601660248201527546656520746f6f206869676820286d6178203230252960501b6044820152606490fd5b6001600160a01b03169081156110db576001600160a01b03169182156110c55760207f8c5be1e5ebec7d5bd14f71427d1e84f3dd0314c0f7b2291e5b200ac8c7c3b925918360005260018252604060002085600052825280604060002055604051908152a3565b6001600160a01b03811660008181526015602052604090205490949392919060ff161580611f7c575b15611f4957600f5480151580611f18575b611ed2575b5060085460ff8160a01c16908115611e38575b6001600160a01b0316868114919082611e1f575b6001600160a01b0385168181149290919080611e14575b80611e0d575b80611df4575b611d8e575b88600052601760205260ff604060002054161580611d75575b611c96575b600e549060ff8216159081611c89575b81611c81575b81611c6c575b81611c62575b5080611c57575b80611c3d575b611c1b575b5060ff600e5416159182611bff575b5081611bf5575b81611beb575b81611bd0575b81611bb6575b50611a40575b5061138a939450611f9f565b15611baf57600a5b60405190611a55826112ee565b549061ffff8216815261ffff8260101c166020820152606061ffff6040830193818160201c16855260301c1691019080825280611a94575b5050611a34565b611aa161271091876113e1565b04908115611a8d576114ab9061ffff611acc81611ac386611ad597989b61142a565b995116866113e1565b9151169061140a565b9080611b00575b5061138a94955080611aef575b50611f9f565b611afa903083611f9f565b38611ae9565b600087611b54579660008051602061206583398151915260208361138a999a611b2e61dead96600254611437565b6002555b5084600052600082526040600020818154019055604051908152a38594611adc565b878152806020526040812054828110611b95576020838361dead95600080516020612065833981519152948d61138a9d9e9752828552036040822055611b32565b916064928963391434e360e21b8452600452602452604452fd5b600b611a48565b9050600052601660205260ff604060002054161538611a2e565b905086600052601660205260ff604060002054161590611a28565b8015159150611a22565b8715159150611a1c565b90915082908315611c13575b509038611a15565b905038611c0b565b60ff1916600117600e55611c2d611444565b60ff19600e5416600e5538611a06565b50306000526000602052604060002054600d541115611a01565b50600d5415156119fb565b90501515386119f4565b6007546001600160a01b0316151591506119ee565b8491506119e8565b600c5460ff1691506119e2565b60125480151580611d67575b611d24575b5060135480151580611d1d575b611cbf575b506119d2565b826000526000602052611cd788604060002054611437565b11611ce25738611cb9565b60405162461bcd60e51b815260206004820152601360248201527213585e081dd85b1b195d08195e18d959591959606a1b6044820152606490fd5b5084611cb4565b8711611d305738611ca7565b60405162461bcd60e51b815260206004820152600f60248201526e13585e081d1e08195e18d959591959608a1b6044820152606490fd5b508485611ca2575083611ca2565b5081600052601760205260ff60406000205416156119cd565b611d9d60095460105490611437565b4310156119b45760ff60115416156119b45760405162461bcd60e51b815260206004820152601a60248201527f416e7469426f743a206561726c792062757920626c6f636b65640000000000006044820152606490fd5b5081600052601460205260ff60406000205416156119af565b50836119a9565b5060105415156119a3565b6007546001600160a01b0386811691161415925061198c565b86151580611ec0575b156119785786600052601460205260ff604060002054168015611e9e575b6119785760405162461bcd60e51b8152602060048201526013602482015272151c98591a5b99c81b9bdd08195b98589b1959606a1b6044820152606490fd5b506001600160a01b03841660009081526014602052604090205460ff16611e5f565b506001600160a01b0384161515611e41565b3a11611ede5738611965565b60405162461bcd60e51b815260206004820152601260248201527108ec2e640e0e4d2c6ca40e8dede40d0d2ced60731b6044820152606490fd5b506008546001600160a01b0316868114908115611f36575b50611960565b6001600160a01b03851614905038611f30565b60405162461bcd60e51b815260206004820152600b60248201526a109b1858dadb1a5cdd195960aa1b6044820152606490fd5b506001600160a01b03821660009081526015602052604090205460ff161561194f565b6001600160a01b0316908161200957602060008051602061206583398151915291611fcc85600254611437565b6002555b6001600160a01b03169384611ff15780600254036002555b604051908152a3565b84600052600082526040600020818154019055611fe8565b816000526000602052604060002054838110612047576000805160206120658339815191529184602092856000526000845203604060002055611fd0565b91905063391434e360e21b60005260045260245260445260646000fdfeddf252ad1be2c89b69c2b068fc378daa952ba7f163c4a11628f55a4df523b3efa2646970667358221220d155b944c30a28cad98938fe61fa43dfa619dae6054425f699c3951314c001a964736f6c634300081c0033ddf252ad1be2c89b69c2b068fc378daa952ba7f163c4a11628f55a4df523b3ef",
  "linkReferences": {},
  "deployedLinkReferences": {}
}