{
  "_format": "hh-sol-artifact-1",
  "contractName": "LinearVestingVault",
  "sourceName": "contracts/launch/LinearVestingVault.sol",
  "abi": [
    {
      "inputs": [
        {
          "internalType": "address",
          "name": "token_",
          "type": "address"
        },
        {
          "internalType": "address",
          "name": "beneficiary_",
          "type": "address"
        },
        {
          "internalType": "uint64",
          "name": "start_",
          "type": "uint64"
        },
        {
          "internalType": "uint64",
          "name": "cliffSeconds_",
          "type": "uint64"
        },
        {
          "internalType": "uint64",
          "name": "durationSeconds_",
          "type": "uint64"
        },
        {
          "internalType": "uint256",
          "name": "totalAllocation_",
          "type": "uint256"
        }
      ],
      "stateMutability": "nonpayable",
      "type": "constructor"
    },
    {
      "anonymous": false,
      "inputs": [
        {
          "indexed": false,
          "internalType": "uint256",
          "name": "amount",
          "type": "uint256"
        }
      ],
      "name": "Released",
      "type": "event"
    },
    {
      "inputs": [],
      "name": "beneficiary",
      "outputs": [
        {
          "internalType": "address",
          "name": "",
          "type": "address"
        }
      ],
      "stateMutability": "view",
      "type": "function"
    },
    {
      "inputs": [],
      "name": "cliffSeconds",
      "outputs": [
        {
          "internalType": "uint64",
          "name": "",
          "type": "uint64"
        }
      ],
      "stateMutability": "view",
      "type": "function"
    },
    {
      "inputs": [],
      "name": "durationSeconds",
      "outputs": [
        {
          "internalType": "uint64",
          "name": "",
          "type": "uint64"
        }
      ],
      "stateMutability": "view",
      "type": "function"
    },
    {
      "inputs": [],
      "name": "releasable",
      "outputs": [
        {
          "internalType": "uint256",
          "name": "",
          "type": "uint256"
        }
      ],
      "stateMutability": "view",
      "type": "function"
    },
    {
      "inputs": [],
      "name": "release",
      "outputs": [],
      "stateMutability": "nonpayable",
      "type": "function"
    },
    {
      "inputs": [],
      "name": "released",
      "outputs": [
        {
          "internalType": "uint256",
          "name": "",
          "type": "uint256"
        }
      ],
      "stateMutability": "view",
      "type": "function"
    },
    {
      "inputs": [],
      "name": "start",
      "outputs": [
        {
          "internalType": "uint64",
          "name": "",
          "type": "uint64"
        }
      ],
      "stateMutability": "view",
      "type": "function"
    },
    {
      "inputs": [],
      "name": "token",
      "outputs": [
        {
          "internalType": "contract IERC20",
          "name": "",
          "type": "address"
        }
      ],
      "stateMutability": "view",
      "type": "function"
    },
    {
      "inputs": [],
      "name": "totalAllocation",
      "outputs": [
        {
          "internalType": "uint256",
          "name": "",
          "type": "uint256"
        }
      ],
      "stateMutability": "view",
      "type": "function"
    },
    {
      "inputs": [
        {
          "internalType": "uint64",
          "name": "timestamp",
          "type": "uint64"
        }
      ],
      "name": "vestedAmount",
      "outputs": [
        {
          "internalType": "uint256",
          "name": "",
          "type": "uint256"
        }
      ],
      "stateMutability": "view",
      "type": "function"
    }
  ],
  "bytecode": "0x6101403461025757601f61095238819003918201601f19168301916001600160401b0383118484101761025c5780849260c0946040528339810103126102575761004881610272565b9061005560208201610272565b61006160408301610286565b61006d60608401610286565b9160a061007c60808601610286565b940151946001600160a01b03168015610228576001600160a01b038216156101f3576001600160401b03851680156101c1576001600160401b038516116101895785156101555760805260a05260c05260e05261010052610120526040516106b7908161029b823960805181818160a00152610229015260a0518181816101b00152610457015260c05181818161011701526104f7015260e0518181816103e2015261051801526101005181818161015b015261056901526101205181818161041e015281816105c5015281816105fd01526106250152f35b60405162461bcd60e51b815260206004820152600c60248201526b0616c6c6f636174696f6e3d360a41b6044820152606490fd5b60405162461bcd60e51b815260206004820152601060248201526f323ab930ba34b7b7101e1031b634b33360811b6044820152606490fd5b60405162461bcd60e51b815260206004820152600a60248201526906475726174696f6e3d360b41b6044820152606490fd5b60405162461bcd60e51b815260206004820152600d60248201526c062656e65666963696172793d3609c1b6044820152606490fd5b60405162461bcd60e51b81526020600482015260076024820152660746f6b656e3d360cc1b6044820152606490fd5b600080fd5b634e487b7160e01b600052604160045260246000fd5b51906001600160a01b038216820361025757565b51906001600160401b03821682036102575756fe6080604052600436101561001257600080fd5b60003560e01c80630a17b06b1461048657806338af3eed1461044157806379203dc4146104065780638341ee72146103c257806386d1a69f1461019d578063961325211461017f5780639acba2af1461013b578063be9a6555146100f7578063fbccedae146100d45763fc0c546a1461008a57600080fd5b346100cf5760003660031901126100cf576040517f00000000000000000000000000000000000000000000000000000000000000006001600160a01b03168152602090f35b600080fd5b346100cf5760003660031901126100cf5760206100ef610651565b604051908152f35b346100cf5760003660031901126100cf5760206040516001600160401b037f0000000000000000000000000000000000000000000000000000000000000000168152f35b346100cf5760003660031901126100cf5760206040516001600160401b037f0000000000000000000000000000000000000000000000000000000000000000168152f35b346100cf5760003660031901126100cf576020600054604051908152f35b346100cf5760003660031901126100cf577f00000000000000000000000000000000000000000000000000000000000000006001600160a01b03163381900361038b576101e8610651565b9081156103515760005482810180911161033b576000556040519063a9059cbb60e01b82526004820152816024820152602081604481600060018060a01b037f0000000000000000000000000000000000000000000000000000000000000000165af190811561032f576000916102c4575b501561028d5760207ffb81f9b30d73d830c3544b34d827c08142579ee75710b490bab0b3995468c56591604051908152a1005b60405162461bcd60e51b815260206004820152600f60248201526e1d1c985b9cd9995c8819985a5b1959608a1b6044820152606490fd5b60203d602011610328575b601f8101601f191682016001600160401b0381118382101761031457602091839160405281010312610310575190811515820361030d57508261025a565b80fd5b5080fd5b634e487b7160e01b84526041600452602484fd5b503d6102cf565b6040513d6000823e3d90fd5b634e487b7160e01b600052601160045260246000fd5b60405162461bcd60e51b81526020600482015260126024820152716e6f7468696e6720746f2072656c6561736560701b6044820152606490fd5b60405162461bcd60e51b815260206004820152600f60248201526e6e6f742062656e656669636961727960881b6044820152606490fd5b346100cf5760003660031901126100cf5760206040516001600160401b037f0000000000000000000000000000000000000000000000000000000000000000168152f35b346100cf5760003660031901126100cf5760206040517f00000000000000000000000000000000000000000000000000000000000000008152f35b346100cf5760003660031901126100cf576040517f00000000000000000000000000000000000000000000000000000000000000006001600160a01b03168152602090f35b346100cf5760203660031901126100cf576004356001600160401b03811681036100cf576100ef6020916104f5565b906001600160401b03809116911601906001600160401b03821161033b57565b906001600160401b03809116911603906001600160401b03821161033b57565b7f00000000000000000000000000000000000000000000000000000000000000007f000000000000000000000000000000000000000000000000000000000000000061054181836104b5565b916001600160401b0384166001600160401b0384168110610647576001600160401b0361058f7f000000000000000000000000000000000000000000000000000000000000000080946104b5565b16111561061f576001600160401b03916105a8916104d5565b169182156105f8576001600160401b03916105c2916104d5565b167f000000000000000000000000000000000000000000000000000000000000000081810291818304149015171561033b570490565b5050507f000000000000000000000000000000000000000000000000000000000000000090565b505050507f000000000000000000000000000000000000000000000000000000000000000090565b5050505050600090565b6106636001600160401b0342166104f5565b6000548082111561067a57810390811161033b5790565b505060009056fea26469706673582212204e06a40b16ec01284a16c303f50834bbcf51615915c3292eb6b9b46df7e45d9164736f6c634300081c0033",
  "linkReferences": {},
  "deployedLinkReferences": {}
}