{
  "_format": "hh-sol-artifact-1",
  "contractName": "LinearVestingVault",
  "sourceName": "contracts/launch/LinearVestingVault.sol",
  "abi": [
    {
      "inputs": [
        {
          "internalType": "address",
          "name": "token_",
          "type": "address"
        },
        {
          "internalType": "address",
          "name": "beneficiary_",
          "type": "address"
        },
        {
          "internalType": "uint64",
          "name": "start_",
          "type": "uint64"
        },
        {
          "internalType": "uint64",
          "name": "cliffSeconds_",
          "type": "uint64"
        },
        {
          "internalType": "uint64",
          "name": "durationSeconds_",
          "type": "uint64"
        },
        {
          "internalType": "uint256",
          "name": "totalAllocation_",
          "type": "uint256"
        }
      ],
      "stateMutability": "nonpayable",
      "type": "constructor"
    },
    {
      "inputs": [],
      "name": "ReentrancyGuardReentrantCall",
      "type": "error"
    },
    {
      "inputs": [
        {
          "internalType": "address",
          "name": "token",
          "type": "address"
        }
      ],
      "name": "SafeERC20FailedOperation",
      "type": "error"
    },
    {
      "anonymous": false,
      "inputs": [
        {
          "indexed": false,
          "internalType": "uint256",
          "name": "amount",
          "type": "uint256"
        }
      ],
      "name": "Released",
      "type": "event"
    },
    {
      "inputs": [],
      "name": "beneficiary",
      "outputs": [
        {
          "internalType": "address",
          "name": "",
          "type": "address"
        }
      ],
      "stateMutability": "view",
      "type": "function"
    },
    {
      "inputs": [],
      "name": "cliffSeconds",
      "outputs": [
        {
          "internalType": "uint64",
          "name": "",
          "type": "uint64"
        }
      ],
      "stateMutability": "view",
      "type": "function"
    },
    {
      "inputs": [],
      "name": "durationSeconds",
      "outputs": [
        {
          "internalType": "uint64",
          "name": "",
          "type": "uint64"
        }
      ],
      "stateMutability": "view",
      "type": "function"
    },
    {
      "inputs": [],
      "name": "releasable",
      "outputs": [
        {
          "internalType": "uint256",
          "name": "",
          "type": "uint256"
        }
      ],
      "stateMutability": "view",
      "type": "function"
    },
    {
      "inputs": [],
      "name": "release",
      "outputs": [],
      "stateMutability": "nonpayable",
      "type": "function"
    },
    {
      "inputs": [],
      "name": "released",
      "outputs": [
        {
          "internalType": "uint256",
          "name": "",
          "type": "uint256"
        }
      ],
      "stateMutability": "view",
      "type": "function"
    },
    {
      "inputs": [],
      "name": "start",
      "outputs": [
        {
          "internalType": "uint64",
          "name": "",
          "type": "uint64"
        }
      ],
      "stateMutability": "view",
      "type": "function"
    },
    {
      "inputs": [],
      "name": "token",
      "outputs": [
        {
          "internalType": "contract IERC20",
          "name": "",
          "type": "address"
        }
      ],
      "stateMutability": "view",
      "type": "function"
    },
    {
      "inputs": [],
      "name": "totalAllocation",
      "outputs": [
        {
          "internalType": "uint256",
          "name": "",
          "type": "uint256"
        }
      ],
      "stateMutability": "view",
      "type": "function"
    },
    {
      "inputs": [
        {
          "internalType": "uint64",
          "name": "timestamp",
          "type": "uint64"
        }
      ],
      "name": "vestedAmount",
      "outputs": [
        {
          "internalType": "uint256",
          "name": "",
          "type": "uint256"
        }
      ],
      "stateMutability": "view",
      "type": "function"
    }
  ],
  "bytecode": "0x6101403461025c57601f61094238819003918201601f19168301916001600160401b038311848410176102615780849260c09460405283398101031261025c5761004881610277565b9061005560208201610277565b6100616040830161028b565b61006d6060840161028b565b9160a061007c6080860161028b565b9401516001600055946001600160a01b0316801561022d576001600160a01b038216156101f8576001600160401b03851680156101c6576001600160401b0385161161018e57851561015a5760805260a05260c05260e05261010052610120526040516106a290816102a0823960805181818160a00152610210015260a0518181816101bf0152610442015260c05181818161011701526104e2015260e0518181816103cd015261050301526101005181818161015b0152610554015261012051818181610409015281816105b0015281816105e801526106100152f35b60405162461bcd60e51b815260206004820152600c60248201526b0616c6c6f636174696f6e3d360a41b6044820152606490fd5b60405162461bcd60e51b815260206004820152601060248201526f323ab930ba34b7b7101e1031b634b33360811b6044820152606490fd5b60405162461bcd60e51b815260206004820152600a60248201526906475726174696f6e3d360b41b6044820152606490fd5b60405162461bcd60e51b815260206004820152600d60248201526c062656e65666963696172793d3609c1b6044820152606490fd5b60405162461bcd60e51b81526020600482015260076024820152660746f6b656e3d360cc1b6044820152606490fd5b600080fd5b634e487b7160e01b600052604160045260246000fd5b51906001600160a01b038216820361025c57565b51906001600160401b038216820361025c5756fe6080604052600436101561001257600080fd5b60003560e01c80630a17b06b1461047157806338af3eed1461042c57806379203dc4146103f15780638341ee72146103ad57806386d1a69f1461019d578063961325211461017f5780639acba2af1461013b578063be9a6555146100f7578063fbccedae146100d45763fc0c546a1461008a57600080fd5b346100cf5760003660031901126100cf576040517f00000000000000000000000000000000000000000000000000000000000000006001600160a01b03168152602090f35b600080fd5b346100cf5760003660031901126100cf5760206100ef61063c565b604051908152f35b346100cf5760003660031901126100cf5760206040516001600160401b037f0000000000000000000000000000000000000000000000000000000000000000168152f35b346100cf5760003660031901126100cf5760206040516001600160401b037f0000000000000000000000000000000000000000000000000000000000000000168152f35b346100cf5760003660031901126100cf576020600154604051908152f35b346100cf5760003660031901126100cf5760026000541461039c5760026000557f00000000000000000000000000000000000000000000000000000000000000006001600160a01b031633819003610365576101f761063c565b90811561032b57600154828101809111610315576001557f00000000000000000000000000000000000000000000000000000000000000009060405190602082019063a9059cbb60e01b825260248301528360448301526044825260808201908282106001600160401b038311176102ff57602092600092604052519082855af1156102f3576000513d6102ea57506001600160a01b0381163b155b6102c9577ffb81f9b30d73d830c3544b34d827c08142579ee75710b490bab0b3995468c565602083604051908152a16001600055005b635274afe760e01b60009081526001600160a01b0391909116600452602490fd5b60011415610293565b6040513d6000823e3d90fd5b634e487b7160e01b600052604160045260246000fd5b634e487b7160e01b600052601160045260246000fd5b60405162461bcd60e51b81526020600482015260126024820152716e6f7468696e6720746f2072656c6561736560701b6044820152606490fd5b60405162461bcd60e51b815260206004820152600f60248201526e6e6f742062656e656669636961727960881b6044820152606490fd5b633ee5aeb560e01b60005260046000fd5b346100cf5760003660031901126100cf5760206040516001600160401b037f0000000000000000000000000000000000000000000000000000000000000000168152f35b346100cf5760003660031901126100cf5760206040517f00000000000000000000000000000000000000000000000000000000000000008152f35b346100cf5760003660031901126100cf576040517f00000000000000000000000000000000000000000000000000000000000000006001600160a01b03168152602090f35b346100cf5760203660031901126100cf576004356001600160401b03811681036100cf576100ef6020916104e0565b906001600160401b03809116911601906001600160401b03821161031557565b906001600160401b03809116911603906001600160401b03821161031557565b7f00000000000000000000000000000000000000000000000000000000000000007f000000000000000000000000000000000000000000000000000000000000000061052c81836104a0565b916001600160401b0384166001600160401b0384168110610632576001600160401b0361057a7f000000000000000000000000000000000000000000000000000000000000000080946104a0565b16111561060a576001600160401b0391610593916104c0565b169182156105e3576001600160401b03916105ad916104c0565b167f0000000000000000000000000000000000000000000000000000000000000000818102918183041490151715610315570490565b5050507f000000000000000000000000000000000000000000000000000000000000000090565b505050507f000000000000000000000000000000000000000000000000000000000000000090565b5050505050600090565b61064e6001600160401b0342166104e0565b600154808211156106655781039081116103155790565b505060009056fea26469706673582212205e02c32b31ccc37c88127d44b4dbc32eafda13597b2274e0e315f832d40de2f464736f6c634300081c0033",
  "linkReferences": {},
  "deployedLinkReferences": {}
}