{
  "_format": "hh-sol-artifact-1",
  "contractName": "SafeLaunchToken",
  "sourceName": "contracts/launch/SafeLaunchToken.sol",
  "abi": [
    {
      "inputs": [
        {
          "internalType": "address",
          "name": "initialOwner_",
          "type": "address"
        },
        {
          "internalType": "string",
          "name": "name_",
          "type": "string"
        },
        {
          "internalType": "string",
          "name": "symbol_",
          "type": "string"
        },
        {
          "internalType": "uint256",
          "name": "supplyRaw_",
          "type": "uint256"
        },
        {
          "internalType": "address",
          "name": "marketingWallet_",
          "type": "address"
        },
        {
          "internalType": "uint16",
          "name": "buyFeeBps_",
          "type": "uint16"
        },
        {
          "internalType": "uint16",
          "name": "sellFeeBps_",
          "type": "uint16"
        }
      ],
      "stateMutability": "nonpayable",
      "type": "constructor"
    },
    {
      "inputs": [
        {
          "internalType": "address",
          "name": "spender",
          "type": "address"
        },
        {
          "internalType": "uint256",
          "name": "allowance",
          "type": "uint256"
        },
        {
          "internalType": "uint256",
          "name": "needed",
          "type": "uint256"
        }
      ],
      "name": "ERC20InsufficientAllowance",
      "type": "error"
    },
    {
      "inputs": [
        {
          "internalType": "address",
          "name": "sender",
          "type": "address"
        },
        {
          "internalType": "uint256",
          "name": "balance",
          "type": "uint256"
        },
        {
          "internalType": "uint256",
          "name": "needed",
          "type": "uint256"
        }
      ],
      "name": "ERC20InsufficientBalance",
      "type": "error"
    },
    {
      "inputs": [
        {
          "internalType": "address",
          "name": "approver",
          "type": "address"
        }
      ],
      "name": "ERC20InvalidApprover",
      "type": "error"
    },
    {
      "inputs": [
        {
          "internalType": "address",
          "name": "receiver",
          "type": "address"
        }
      ],
      "name": "ERC20InvalidReceiver",
      "type": "error"
    },
    {
      "inputs": [
        {
          "internalType": "address",
          "name": "sender",
          "type": "address"
        }
      ],
      "name": "ERC20InvalidSender",
      "type": "error"
    },
    {
      "inputs": [
        {
          "internalType": "address",
          "name": "spender",
          "type": "address"
        }
      ],
      "name": "ERC20InvalidSpender",
      "type": "error"
    },
    {
      "inputs": [
        {
          "internalType": "address",
          "name": "owner",
          "type": "address"
        }
      ],
      "name": "OwnableInvalidOwner",
      "type": "error"
    },
    {
      "inputs": [
        {
          "internalType": "address",
          "name": "account",
          "type": "address"
        }
      ],
      "name": "OwnableUnauthorizedAccount",
      "type": "error"
    },
    {
      "anonymous": false,
      "inputs": [
        {
          "indexed": true,
          "internalType": "address",
          "name": "owner",
          "type": "address"
        },
        {
          "indexed": true,
          "internalType": "address",
          "name": "spender",
          "type": "address"
        },
        {
          "indexed": false,
          "internalType": "uint256",
          "name": "value",
          "type": "uint256"
        }
      ],
      "name": "Approval",
      "type": "event"
    },
    {
      "anonymous": false,
      "inputs": [
        {
          "indexed": true,
          "internalType": "address",
          "name": "previousOwner",
          "type": "address"
        },
        {
          "indexed": true,
          "internalType": "address",
          "name": "newOwner",
          "type": "address"
        }
      ],
      "name": "OwnershipTransferred",
      "type": "event"
    },
    {
      "anonymous": false,
      "inputs": [
        {
          "indexed": true,
          "internalType": "address",
          "name": "pair",
          "type": "address"
        }
      ],
      "name": "PairSet",
      "type": "event"
    },
    {
      "anonymous": false,
      "inputs": [
        {
          "indexed": true,
          "internalType": "address",
          "name": "from",
          "type": "address"
        },
        {
          "indexed": true,
          "internalType": "address",
          "name": "to",
          "type": "address"
        },
        {
          "indexed": false,
          "internalType": "uint256",
          "name": "value",
          "type": "uint256"
        }
      ],
      "name": "Transfer",
      "type": "event"
    },
    {
      "inputs": [
        {
          "internalType": "address",
          "name": "owner",
          "type": "address"
        },
        {
          "internalType": "address",
          "name": "spender",
          "type": "address"
        }
      ],
      "name": "allowance",
      "outputs": [
        {
          "internalType": "uint256",
          "name": "",
          "type": "uint256"
        }
      ],
      "stateMutability": "view",
      "type": "function"
    },
    {
      "inputs": [
        {
          "internalType": "address",
          "name": "spender",
          "type": "address"
        },
        {
          "internalType": "uint256",
          "name": "value",
          "type": "uint256"
        }
      ],
      "name": "approve",
      "outputs": [
        {
          "internalType": "bool",
          "name": "",
          "type": "bool"
        }
      ],
      "stateMutability": "nonpayable",
      "type": "function"
    },
    {
      "inputs": [
        {
          "internalType": "address",
          "name": "account",
          "type": "address"
        }
      ],
      "name": "balanceOf",
      "outputs": [
        {
          "internalType": "uint256",
          "name": "",
          "type": "uint256"
        }
      ],
      "stateMutability": "view",
      "type": "function"
    },
    {
      "inputs": [],
      "name": "buyFeeBps",
      "outputs": [
        {
          "internalType": "uint16",
          "name": "",
          "type": "uint16"
        }
      ],
      "stateMutability": "view",
      "type": "function"
    },
    {
      "inputs": [],
      "name": "decimals",
      "outputs": [
        {
          "internalType": "uint8",
          "name": "",
          "type": "uint8"
        }
      ],
      "stateMutability": "view",
      "type": "function"
    },
    {
      "inputs": [],
      "name": "feesLocked",
      "outputs": [
        {
          "internalType": "bool",
          "name": "",
          "type": "bool"
        }
      ],
      "stateMutability": "view",
      "type": "function"
    },
    {
      "inputs": [],
      "name": "marketingWallet",
      "outputs": [
        {
          "internalType": "address",
          "name": "",
          "type": "address"
        }
      ],
      "stateMutability": "view",
      "type": "function"
    },
    {
      "inputs": [],
      "name": "name",
      "outputs": [
        {
          "internalType": "string",
          "name": "",
          "type": "string"
        }
      ],
      "stateMutability": "view",
      "type": "function"
    },
    {
      "inputs": [],
      "name": "owner",
      "outputs": [
        {
          "internalType": "address",
          "name": "",
          "type": "address"
        }
      ],
      "stateMutability": "view",
      "type": "function"
    },
    {
      "inputs": [],
      "name": "renounceOwnership",
      "outputs": [],
      "stateMutability": "nonpayable",
      "type": "function"
    },
    {
      "inputs": [],
      "name": "sellFeeBps",
      "outputs": [
        {
          "internalType": "uint16",
          "name": "",
          "type": "uint16"
        }
      ],
      "stateMutability": "view",
      "type": "function"
    },
    {
      "inputs": [
        {
          "internalType": "address",
          "name": "pair_",
          "type": "address"
        }
      ],
      "name": "setPair",
      "outputs": [],
      "stateMutability": "nonpayable",
      "type": "function"
    },
    {
      "inputs": [],
      "name": "symbol",
      "outputs": [
        {
          "internalType": "string",
          "name": "",
          "type": "string"
        }
      ],
      "stateMutability": "view",
      "type": "function"
    },
    {
      "inputs": [],
      "name": "totalSupply",
      "outputs": [
        {
          "internalType": "uint256",
          "name": "",
          "type": "uint256"
        }
      ],
      "stateMutability": "view",
      "type": "function"
    },
    {
      "inputs": [
        {
          "internalType": "address",
          "name": "to",
          "type": "address"
        },
        {
          "internalType": "uint256",
          "name": "value",
          "type": "uint256"
        }
      ],
      "name": "transfer",
      "outputs": [
        {
          "internalType": "bool",
          "name": "",
          "type": "bool"
        }
      ],
      "stateMutability": "nonpayable",
      "type": "function"
    },
    {
      "inputs": [
        {
          "internalType": "address",
          "name": "from",
          "type": "address"
        },
        {
          "internalType": "address",
          "name": "to",
          "type": "address"
        },
        {
          "internalType": "uint256",
          "name": "value",
          "type": "uint256"
        }
      ],
      "name": "transferFrom",
      "outputs": [
        {
          "internalType": "bool",
          "name": "",
          "type": "bool"
        }
      ],
      "stateMutability": "nonpayable",
      "type": "function"
    },
    {
      "inputs": [
        {
          "internalType": "address",
          "name": "newOwner",
          "type": "address"
        }
      ],
      "name": "transferOwnership",
      "outputs": [],
      "stateMutability": "nonpayable",
      "type": "function"
    },
    {
      "inputs": [],
      "name": "uniswapV2Pair",
      "outputs": [
        {
          "internalType": "address",
          "name": "",
          "type": "address"
        }
      ],
      "stateMutability": "view",
      "type": "function"
    }
  ],
  "bytecode": "0x60806040523461050f576112968038038061001981610514565b928339810160e08282031261050f5761003182610539565b60208301516001600160401b03811161050f578261005091850161054d565b604084015190926001600160401b03821161050f5761007091850161054d565b9260608101519261008360808301610539565b9461009c60c061009560a086016105b8565b94016105b8565b825190926001600160401b03821161040c5760035490600182811c92168015610505575b60208310146103ec5781601f849311610495575b50602090601f831160011461042d57600092610422575b50508160011b916000199060031b1c1916176003555b8051906001600160401b03821161040c5760045490600182811c92168015610402575b60208310146103ec5781601f84931161037c575b50602090601f831160011461031457600092610309575b50508160011b916000199060031b1c1916176004555b6001600160a01b03831680156102f357600580546001600160a01b03198116831790915560405191906001600160a01b03167f8be0079c531659141344cd1fd0a4f28419497f9722a3daafe3b4186f6b6457e0600080a384156102c657506107d061ffff831611610291576107d061ffff82161161025b57610245946001600160a01b03811615610254575b600680546001600160a01b0319166001600160a01b03929092169190911790556007805463ffffffff60a01b191660a09390931b61ffff60a01b169290921760b09190911b61ffff60b01b161790556105c7565b604051610abf90816107b78239f35b50826101f1565b60405162461bcd60e51b815260206004820152600e60248201526d73656c6c20666565203e2032302560901b6044820152606490fd5b60405162461bcd60e51b815260206004820152600d60248201526c62757920666565203e2032302560981b6044820152606490fd5b62461bcd60e51b81526020600482015260086024820152670737570706c793d360c41b6044820152606490fd5b631e4fbdf760e01b600052600060045260246000fd5b01519050388061014f565b600460009081528281209350601f198516905b818110610364575090846001959493921061034b575b505050811b01600455610165565b015160001960f88460031b161c1916905538808061033d565b92936020600181928786015181550195019301610327565b60046000529091507f8a35acfbc15ff81a39ae7d344fd709f28e8600b4aa8c65c6b64bfe7fe36bd19b601f840160051c810191602085106103e2575b90601f859493920160051c01905b8181106103d35750610138565b600081558493506001016103c6565b90915081906103b8565b634e487b7160e01b600052602260045260246000fd5b91607f1691610124565b634e487b7160e01b600052604160045260246000fd5b0151905038806100eb565b600360009081528281209350601f198516905b81811061047d5750908460019594939210610464575b505050811b01600355610101565b015160001960f88460031b161c19169055388080610456565b92936020600181928786015181550195019301610440565b60036000529091507fc2575a0e9e593c00f959f8c92f12db2869c3395a3b0502d05e2516446f71f85b601f840160051c810191602085106104fb575b90601f859493920160051c01905b8181106104ec57506100d4565b600081558493506001016104df565b90915081906104d1565b91607f16916100c0565b600080fd5b6040519190601f01601f191682016001600160401b0381118382101761040c57604052565b51906001600160a01b038216820361050f57565b81601f8201121561050f578051906001600160401b03821161040c5761057c601f8301601f1916602001610514565b928284526020838301011161050f5760005b8281106105a357505060206000918301015290565b8060208092840101518282870101520161058e565b519061ffff8216820361050f57565b9080156106e85760075461ffff906001600160a01b0381168015801592918391826106e0575b50836106cd575b816106ba575b50806106b2575b6000921561069a575082915060a01c165b1680610627575b506106259160006106ef565b565b80820290828204036106715761271090048015610619576006546001600160a01b0316818115610687575b61065d9160006106ef565b8103908111610671576106259160006106ef565b634e487b7160e01b600052601160045260246000fd5b6005546001600160a01b03169150610652565b6106a5575b50610612565b82915060b01c163861069f565b506000610601565b6001600160a01b038716149050386105fa565b6001600160a01b038716151593506105f4565b9350386105ed565b6106259160005b6001600160a01b0316908161075b5760025483810180911161067157600080516020611276833981519152916020916002555b6001600160a01b031693846107435780600254036002555b604051908152a3565b8460005260008252604060002081815401905561073a565b816000526000602052604060002054838110610799576000805160206112768339815191529184602092856000526000845203604060002055610722565b91905063391434e360e21b60005260045260245260445260646000fdfe608080604052600436101561001357600080fd5b60003560e01c90816306fdde03146106a357508063095ea7b31461061d57806318160ddd146105ff57806323b872dd1461051257806323cbe1f3146104ed578063313ce567146104d157806349bd5a5e146104a85780635a27a1f91461048c57806370a0823114610452578063715018a6146103f557806375f0a874146103cc57806377d2300e146103a75780638187f516146103405780638da5cb5b1461031757806395d89b41146101f6578063a9059cbb146101c5578063dd62ed3e146101745763f2fde38b146100e557600080fd5b3461016f57602036600319011261016f576100fe6107bf565b610106610842565b6001600160a01b0316801561015957600580546001600160a01b0319811683179091556001600160a01b03167f8be0079c531659141344cd1fd0a4f28419497f9722a3daafe3b4186f6b6457e0600080a3005b631e4fbdf760e01b600052600060045260246000fd5b600080fd5b3461016f57604036600319011261016f5761018d6107bf565b6101956107d5565b6001600160a01b039182166000908152600160209081526040808320949093168252928352819020549051908152f35b3461016f57604036600319011261016f576101eb6101e16107bf565b60243590336107eb565b602060405160018152f35b3461016f57600036600319011261016f5760405160006004548060011c9060018116801561030d575b6020831081146102f9578285529081156102dd5750600114610286575b50819003601f01601f191681019067ffffffffffffffff8211818310176102705761026c82918260405282610776565b0390f35b634e487b7160e01b600052604160045260246000fd5b905060046000527f8a35acfbc15ff81a39ae7d344fd709f28e8600b4aa8c65c6b64bfe7fe36bd19b6000905b8282106102c75750602091508201018261023c565b60018160209254838588010152019101906102b2565b90506020925060ff191682840152151560051b8201018261023c565b634e487b7160e01b84526022600452602484fd5b91607f169161021f565b3461016f57600036600319011261016f576005546040516001600160a01b039091168152602090f35b3461016f57602036600319011261016f576103596107bf565b610361610842565b600780546001600160a01b0319166001600160a01b039290921691821790557fc4a4ea6abc08bd7f8df3db8a1c998f19b3e0c348176f93732cd54db1a4b50136600080a2005b3461016f57600036600319011261016f57602061ffff60075460a01c16604051908152f35b3461016f57600036600319011261016f576006546040516001600160a01b039091168152602090f35b3461016f57600036600319011261016f5761040e610842565b600580546001600160a01b031981169091556000906001600160a01b03167f8be0079c531659141344cd1fd0a4f28419497f9722a3daafe3b4186f6b6457e08280a3005b3461016f57602036600319011261016f576001600160a01b036104736107bf565b1660005260006020526020604060002054604051908152f35b3461016f57600036600319011261016f57602060405160018152f35b3461016f57600036600319011261016f576007546040516001600160a01b039091168152602090f35b3461016f57600036600319011261016f57602060405160128152f35b3461016f57600036600319011261016f57602061ffff60075460b01c16604051908152f35b3461016f57606036600319011261016f5761052b6107bf565b6105336107d5565b6001600160a01b0382166000818152600160209081526040808320338452909152902054909260443592916000198110610573575b506101eb93506107eb565b8381106105e25784156105cc5733156105b6576101eb946000526001602052604060002060018060a01b0333166000526020528360406000209103905584610568565b634a1406b160e11b600052600060045260246000fd5b63e602df0560e01b600052600060045260246000fd5b8390637dc7a0d960e11b6000523360045260245260445260646000fd5b3461016f57600036600319011261016f576020600254604051908152f35b3461016f57604036600319011261016f576106366107bf565b6024359033156105cc576001600160a01b03169081156105b657336000526001602052604060002082600052602052806040600020556040519081527f8c5be1e5ebec7d5bd14f71427d1e84f3dd0314c0f7b2291e5b200ac8c7c3b92560203392a3602060405160018152f35b3461016f57600036600319011261016f5760006003548060011c9060018116801561076c575b6020831081146102f9578285529081156102dd57506001146107155750819003601f01601f191681019067ffffffffffffffff8211818310176102705761026c82918260405282610776565b905060036000527fc2575a0e9e593c00f959f8c92f12db2869c3395a3b0502d05e2516446f71f85b6000905b8282106107565750602091508201018261023c565b6001816020925483858801015201910190610741565b91607f16916106c9565b91909160208152825180602083015260005b8181106107a9575060409293506000838284010152601f8019910116010190565b8060208092870101516040828601015201610788565b600435906001600160a01b038216820361016f57565b602435906001600160a01b038216820361016f57565b91906001600160a01b0383161561082c576001600160a01b03811615610816576108149261086b565b565b63ec442f0560e01b600052600060045260246000fd5b634b637e8f60e11b600052600060045260246000fd5b6005546001600160a01b0316330361085657565b63118cdaa760e01b6000523360045260246000fd5b919081156109995760075461ffff906001600160a01b0381168015159190829081610986575b83610973575b81610960575b508061094e575b60009215610936575082915060a01c165b16806108c6575b506108149261099e565b808302908382040361090d57612710900480156108bc576006546001600160a01b0316818115610923575b6108fb918661099e565b820391821161090d576108149261099e565b634e487b7160e01b600052601160045260246000fd5b6005546001600160a01b031691506108f1565b610941575b506108b5565b82915060b01c163861093b565b506001600160a01b03861615156108a4565b6001600160a01b0386161490503861089d565b6001600160a01b03861615159350610897565b6001600160a01b03881681149350610891565b610814925b6001600160a01b03169081610a1c5760025483810180911161090d577fddf252ad1be2c89b69c2b068fc378daa952ba7f163c4a11628f55a4df523b3ef916020916002555b6001600160a01b03169384610a045780600254036002555b604051908152a3565b846000526000825260406000208181540190556109fb565b816000526000602052604060002054838110610a6c577fddf252ad1be2c89b69c2b068fc378daa952ba7f163c4a11628f55a4df523b3ef91846020928560005260008452036040600020556109e3565b91905063391434e360e21b60005260045260245260445260646000fdfea2646970667358221220452322bcb511c151ccfaae29039aeacad677d74c86c9840b8cf02e51148a1ae464736f6c634300081c0033ddf252ad1be2c89b69c2b068fc378daa952ba7f163c4a11628f55a4df523b3ef",
  "linkReferences": {},
  "deployedLinkReferences": {}
}