{
  "_format": "hh-sol-artifact-1",
  "contractName": "SafeLaunchToken",
  "sourceName": "contracts/launch/SafeLaunchToken.sol",
  "abi": [
    {
      "inputs": [
        {
          "internalType": "address",
          "name": "initialOwner_",
          "type": "address"
        },
        {
          "internalType": "string",
          "name": "name_",
          "type": "string"
        },
        {
          "internalType": "string",
          "name": "symbol_",
          "type": "string"
        },
        {
          "internalType": "uint256",
          "name": "supplyRaw_",
          "type": "uint256"
        },
        {
          "internalType": "address",
          "name": "marketingWallet_",
          "type": "address"
        },
        {
          "internalType": "uint16",
          "name": "buyFeeBps_",
          "type": "uint16"
        },
        {
          "internalType": "uint16",
          "name": "sellFeeBps_",
          "type": "uint16"
        }
      ],
      "stateMutability": "nonpayable",
      "type": "constructor"
    },
    {
      "inputs": [
        {
          "internalType": "address",
          "name": "spender",
          "type": "address"
        },
        {
          "internalType": "uint256",
          "name": "allowance",
          "type": "uint256"
        },
        {
          "internalType": "uint256",
          "name": "needed",
          "type": "uint256"
        }
      ],
      "name": "ERC20InsufficientAllowance",
      "type": "error"
    },
    {
      "inputs": [
        {
          "internalType": "address",
          "name": "sender",
          "type": "address"
        },
        {
          "internalType": "uint256",
          "name": "balance",
          "type": "uint256"
        },
        {
          "internalType": "uint256",
          "name": "needed",
          "type": "uint256"
        }
      ],
      "name": "ERC20InsufficientBalance",
      "type": "error"
    },
    {
      "inputs": [
        {
          "internalType": "address",
          "name": "approver",
          "type": "address"
        }
      ],
      "name": "ERC20InvalidApprover",
      "type": "error"
    },
    {
      "inputs": [
        {
          "internalType": "address",
          "name": "receiver",
          "type": "address"
        }
      ],
      "name": "ERC20InvalidReceiver",
      "type": "error"
    },
    {
      "inputs": [
        {
          "internalType": "address",
          "name": "sender",
          "type": "address"
        }
      ],
      "name": "ERC20InvalidSender",
      "type": "error"
    },
    {
      "inputs": [
        {
          "internalType": "address",
          "name": "spender",
          "type": "address"
        }
      ],
      "name": "ERC20InvalidSpender",
      "type": "error"
    },
    {
      "inputs": [
        {
          "internalType": "address",
          "name": "owner",
          "type": "address"
        }
      ],
      "name": "OwnableInvalidOwner",
      "type": "error"
    },
    {
      "inputs": [
        {
          "internalType": "address",
          "name": "account",
          "type": "address"
        }
      ],
      "name": "OwnableUnauthorizedAccount",
      "type": "error"
    },
    {
      "anonymous": false,
      "inputs": [
        {
          "indexed": true,
          "internalType": "address",
          "name": "owner",
          "type": "address"
        },
        {
          "indexed": true,
          "internalType": "address",
          "name": "spender",
          "type": "address"
        },
        {
          "indexed": false,
          "internalType": "uint256",
          "name": "value",
          "type": "uint256"
        }
      ],
      "name": "Approval",
      "type": "event"
    },
    {
      "anonymous": false,
      "inputs": [
        {
          "indexed": true,
          "internalType": "address",
          "name": "previousOwner",
          "type": "address"
        },
        {
          "indexed": true,
          "internalType": "address",
          "name": "newOwner",
          "type": "address"
        }
      ],
      "name": "OwnershipTransferred",
      "type": "event"
    },
    {
      "anonymous": false,
      "inputs": [
        {
          "indexed": true,
          "internalType": "address",
          "name": "pair",
          "type": "address"
        }
      ],
      "name": "PairSet",
      "type": "event"
    },
    {
      "anonymous": false,
      "inputs": [
        {
          "indexed": true,
          "internalType": "address",
          "name": "from",
          "type": "address"
        },
        {
          "indexed": true,
          "internalType": "address",
          "name": "to",
          "type": "address"
        },
        {
          "indexed": false,
          "internalType": "uint256",
          "name": "value",
          "type": "uint256"
        }
      ],
      "name": "Transfer",
      "type": "event"
    },
    {
      "inputs": [
        {
          "internalType": "address",
          "name": "owner",
          "type": "address"
        },
        {
          "internalType": "address",
          "name": "spender",
          "type": "address"
        }
      ],
      "name": "allowance",
      "outputs": [
        {
          "internalType": "uint256",
          "name": "",
          "type": "uint256"
        }
      ],
      "stateMutability": "view",
      "type": "function"
    },
    {
      "inputs": [
        {
          "internalType": "address",
          "name": "spender",
          "type": "address"
        },
        {
          "internalType": "uint256",
          "name": "value",
          "type": "uint256"
        }
      ],
      "name": "approve",
      "outputs": [
        {
          "internalType": "bool",
          "name": "",
          "type": "bool"
        }
      ],
      "stateMutability": "nonpayable",
      "type": "function"
    },
    {
      "inputs": [
        {
          "internalType": "address",
          "name": "account",
          "type": "address"
        }
      ],
      "name": "balanceOf",
      "outputs": [
        {
          "internalType": "uint256",
          "name": "",
          "type": "uint256"
        }
      ],
      "stateMutability": "view",
      "type": "function"
    },
    {
      "inputs": [],
      "name": "buyFeeBps",
      "outputs": [
        {
          "internalType": "uint16",
          "name": "",
          "type": "uint16"
        }
      ],
      "stateMutability": "view",
      "type": "function"
    },
    {
      "inputs": [],
      "name": "decimals",
      "outputs": [
        {
          "internalType": "uint8",
          "name": "",
          "type": "uint8"
        }
      ],
      "stateMutability": "view",
      "type": "function"
    },
    {
      "inputs": [],
      "name": "feesLocked",
      "outputs": [
        {
          "internalType": "bool",
          "name": "",
          "type": "bool"
        }
      ],
      "stateMutability": "view",
      "type": "function"
    },
    {
      "inputs": [],
      "name": "marketingWallet",
      "outputs": [
        {
          "internalType": "address",
          "name": "",
          "type": "address"
        }
      ],
      "stateMutability": "view",
      "type": "function"
    },
    {
      "inputs": [],
      "name": "name",
      "outputs": [
        {
          "internalType": "string",
          "name": "",
          "type": "string"
        }
      ],
      "stateMutability": "view",
      "type": "function"
    },
    {
      "inputs": [],
      "name": "owner",
      "outputs": [
        {
          "internalType": "address",
          "name": "",
          "type": "address"
        }
      ],
      "stateMutability": "view",
      "type": "function"
    },
    {
      "inputs": [],
      "name": "renounceOwnership",
      "outputs": [],
      "stateMutability": "nonpayable",
      "type": "function"
    },
    {
      "inputs": [],
      "name": "sellFeeBps",
      "outputs": [
        {
          "internalType": "uint16",
          "name": "",
          "type": "uint16"
        }
      ],
      "stateMutability": "view",
      "type": "function"
    },
    {
      "inputs": [
        {
          "internalType": "address",
          "name": "pair_",
          "type": "address"
        }
      ],
      "name": "setPair",
      "outputs": [],
      "stateMutability": "nonpayable",
      "type": "function"
    },
    {
      "inputs": [],
      "name": "symbol",
      "outputs": [
        {
          "internalType": "string",
          "name": "",
          "type": "string"
        }
      ],
      "stateMutability": "view",
      "type": "function"
    },
    {
      "inputs": [],
      "name": "totalSupply",
      "outputs": [
        {
          "internalType": "uint256",
          "name": "",
          "type": "uint256"
        }
      ],
      "stateMutability": "view",
      "type": "function"
    },
    {
      "inputs": [
        {
          "internalType": "address",
          "name": "to",
          "type": "address"
        },
        {
          "internalType": "uint256",
          "name": "value",
          "type": "uint256"
        }
      ],
      "name": "transfer",
      "outputs": [
        {
          "internalType": "bool",
          "name": "",
          "type": "bool"
        }
      ],
      "stateMutability": "nonpayable",
      "type": "function"
    },
    {
      "inputs": [
        {
          "internalType": "address",
          "name": "from",
          "type": "address"
        },
        {
          "internalType": "address",
          "name": "to",
          "type": "address"
        },
        {
          "internalType": "uint256",
          "name": "value",
          "type": "uint256"
        }
      ],
      "name": "transferFrom",
      "outputs": [
        {
          "internalType": "bool",
          "name": "",
          "type": "bool"
        }
      ],
      "stateMutability": "nonpayable",
      "type": "function"
    },
    {
      "inputs": [
        {
          "internalType": "address",
          "name": "newOwner",
          "type": "address"
        }
      ],
      "name": "transferOwnership",
      "outputs": [],
      "stateMutability": "nonpayable",
      "type": "function"
    },
    {
      "inputs": [],
      "name": "uniswapV2Pair",
      "outputs": [
        {
          "internalType": "address",
          "name": "",
          "type": "address"
        }
      ],
      "stateMutability": "view",
      "type": "function"
    }
  ],
  "bytecode": "0x60406080815234620004d0576200123490813803806200001f81620004d5565b938439820160e083820312620004d0576200003a83620004fb565b6020848101519094906001600160401b0390818111620004d057846200006291840162000510565b938583015190828211620004d0576200007d91840162000510565b956060830151946200009260808501620004fb565b90620000af60c0620000a760a0880162000582565b960162000582565b938151818111620003d0576003908154906001948583811c93168015620004c5575b88841014620004af578190601f9384811162000459575b508890848311600114620003f257600092620003e6575b505060001982851b1c191690851b1782555b8b51928311620003d05760049b8c548581811c91168015620003c5575b88821014620003b05782811162000365575b5086918411600114620002fa57938394918492600095620002ee575b50501b92600019911b1c19161788555b6001600160a01b03858116929091908315620002d757600580546001600160a01b031980821687179092558a5191959085167f8be0079c531659141344cd1fd0a4f28419497f9722a3daafe3b4186f6b6457e0600080a38815620002ad57506107d061ffff81818916116200027a578616116200024757509697506200023196808216156200023f575b169060065416176006556007549061ffff60b01b9060b01b169161ffff60a01b9060a01b169063ffffffff60a01b1916171760075562000592565b51610b0890816200072c8239f35b5084620001f6565b896064918a519162461bcd60e51b8352820152600e60248201526d73656c6c20666565203e2032302560901b6044820152fd5b8a5162461bcd60e51b8152808d01849052600d60248201526c62757920666565203e2032302560981b6044820152606490fd5b6064918b62461bcd60e51b835282015260086024820152670737570706c793d360c41b6044820152fd5b8851631e4fbdf760e01b81526000818c0152602490fd5b0151935038806200015c565b9190601f198416928d60005284886000209460005b8a898383106200034d575050501062000332575b50505050811b0188556200016c565b01519060f884600019921b161c191690553880808062000323565b8686015189559097019694850194889350016200030f565b8d600052876000208380870160051c8201928a8810620003a6575b0160051c019086905b8281106200039957505062000140565b6000815501869062000389565b9250819262000380565b60228e634e487b7160e01b6000525260246000fd5b90607f16906200012e565b634e487b7160e01b600052604160045260246000fd5b015190503880620000ff565b90879350601f19831691866000528a6000209260005b8c82821062000442575050841162000429575b505050811b01825562000111565b015160001983871b60f8161c191690553880806200041b565b8385015186558b9790950194938401930162000408565b90915084600052886000208480850160051c8201928b8610620004a5575b918991869594930160051c01915b82811062000495575050620000e8565b6000815585945089910162000485565b9250819262000477565b634e487b7160e01b600052602260045260246000fd5b92607f1692620000d1565b600080fd5b6040519190601f01601f191682016001600160401b03811183821017620003d057604052565b51906001600160a01b0382168203620004d057565b919080601f84011215620004d05782516001600160401b038111620003d05760209062000546601f8201601f19168301620004d5565b92818452828287010111620004d05760005b8181106200056e57508260009394955001015290565b858101830151848201840152820162000558565b519061ffff82168203620004d057565b908015620006b0576007546001600160a01b039061ffff90828116801580159291839182620006a7575b50836200069a575b816200068d575b508062000684575b6000921562000669575082915060a01c165b1680620005fc575b5050620005fa91620006b6565b565b808302908382040362000646576127109004908115620005ed5781816200063192600654169081156200065c575b50620006b6565b81039081116200064657620005fa91620006b6565b634e487b7160e01b600052601160045260246000fd5b905060055416386200062a565b62000676575b50620005e5565b82915060b01c16386200066f565b506000620005d3565b90508487161438620005cb565b87861615159350620005c4565b935038620005bc565b620005fa915b6002549082820180921162000646576002919091556001600160a01b0316906000907fddf252ad1be2c89b69c2b068fc378daa952ba7f163c4a11628f55a4df523b3ef9060209084620007155780600254036002555b604051908152a3565b848452838252604084208181540190556200070c56fe6080604081815260048036101561001557600080fd5b600092833560e01c90816306fdde03146106d257508063095ea7b31461062957806318160ddd1461060a57806323b872dd1461051757806323cbe1f3146104f1578063313ce567146104d557806349bd5a5e146104ac5780635a27a1f91461049057806370a0823114610459578063715018a6146103fc57806375f0a874146103d357806377d2300e146103ad5780638187f516146103425780638da5cb5b1461031957806395d89b41146101f9578063a9059cbb146101c8578063dd62ed3e1461017b5763f2fde38b146100e957600080fd5b3461017757602036600319011261017757610102610810565b9061010b610841565b6001600160a01b03918216928315610161575050600554826bffffffffffffffffffffffff60a01b821617600555167f8be0079c531659141344cd1fd0a4f28419497f9722a3daafe3b4186f6b6457e08380a380f35b51631e4fbdf760e01b8152908101849052602490fd5b8280fd5b5050346101c457806003193601126101c45780602092610199610810565b6101a161082b565b6001600160a01b0391821683526001865283832091168252845220549051908152f35b5080fd5b5050346101c457806003193601126101c4576020906101f26101e8610810565b602435903361086d565b5160018152f35b509190346101c457816003193601126101c457805190828454600181811c9080831692831561030f575b60209384841081146102fc578388529081156102e0575060011461028b575b505050829003601f01601f191682019267ffffffffffffffff84118385101761027857508291826102749252826107c7565b0390f35b634e487b7160e01b815260418552602490fd5b8787529192508591837f8a35acfbc15ff81a39ae7d344fd709f28e8600b4aa8c65c6b64bfe7fe36bd19b5b8385106102cc5750505050830101388080610242565b8054888601830152930192849082016102b6565b60ff1916878501525050151560051b8401019050388080610242565b634e487b7160e01b895260228a52602489fd5b91607f1691610223565b5050346101c457816003193601126101c45760055490516001600160a01b039091168152602090f35b83346103aa5760203660031901126103aa5761035c610810565b610364610841565b600780546001600160a01b0319166001600160a01b039290921691821790557fc4a4ea6abc08bd7f8df3db8a1c998f19b3e0c348176f93732cd54db1a4b501368280a280f35b80fd5b5050346101c457816003193601126101c45760209061ffff60075460a01c169051908152f35b5050346101c457816003193601126101c45760065490516001600160a01b039091168152602090f35b83346103aa57806003193601126103aa57610415610841565b600580546001600160a01b0319811690915581906001600160a01b03167f8be0079c531659141344cd1fd0a4f28419497f9722a3daafe3b4186f6b6457e08280a380f35b5050346101c45760203660031901126101c45760209181906001600160a01b03610481610810565b16815280845220549051908152f35b5050346101c457816003193601126101c4576020905160018152f35b5050346101c457816003193601126101c45760075490516001600160a01b039091168152602090f35b5050346101c457816003193601126101c4576020905160128152f35b5050346101c457816003193601126101c45760209061ffff60075460b01c169051908152f35b5082346103aa5760603660031901126103aa57610532610810565b61053a61082b565b916044359360018060a01b038316808352600160205286832033845260205286832054916000198310610576575b6020886101f289898961086d565b8683106105de5781156105c75733156105b0575082526001602090815286832033845281529186902090859003905582906101f287610568565b8751634a1406b160e11b8152908101849052602490fd5b875163e602df0560e01b8152908101849052602490fd5b8751637dc7a0d960e11b8152339181019182526020820193909352604081018790528291506060010390fd5b5050346101c457816003193601126101c4576020906002549051908152f35b5034610177578160031936011261017757610642610810565b6024359033156106bb576001600160a01b03169182156106a457508083602095338152600187528181208582528752205582519081527f8c5be1e5ebec7d5bd14f71427d1e84f3dd0314c0f7b2291e5b200ac8c7c3b925843392a35160018152f35b8351634a1406b160e11b8152908101859052602490fd5b835163e602df0560e01b8152808401869052602490fd5b849150833461017757826003193601126101775782600354600181811c908083169283156107bd575b60209384841081146102fc578388529081156107a1575060011461074b57505050829003601f01601f191682019267ffffffffffffffff84118385101761027857508291826102749252826107c7565b600387529192508591837fc2575a0e9e593c00f959f8c92f12db2869c3395a3b0502d05e2516446f71f85b5b83851061078d5750505050830101858080610242565b805488860183015293019284908201610777565b60ff1916878501525050151560051b8401019050858080610242565b91607f16916106fb565b6020808252825181830181905290939260005b8281106107fc57505060409293506000838284010152601f8019910116010190565b8181018601518482016040015285016107da565b600435906001600160a01b038216820361082657565b600080fd5b602435906001600160a01b038216820361082657565b6005546001600160a01b0316330361085557565b60405163118cdaa760e01b8152336004820152602490fd5b91906001600160a01b03808416156108aa578116156108915761088f926108c3565b565b60405163ec442f0560e01b815260006004820152602490fd5b604051634b637e8f60e11b815260006004820152602490fd5b919081156109cd576007546001600160a01b039061ffff9082811680151591908290816109c1575b836109b5575b816109a9575b508061099e575b60009215610986575082915060a01c165b1680610921575b505061088f926109d2565b8084029084820403610964576127109004908115610916578181610952926006541690811561097a575b50866109d2565b82039182116109645761088f926109d2565b634e487b7160e01b600052601160045260246000fd5b9050600554163861094b565b610991575b5061090f565b82915060b01c163861098b565b5083871615156108fe565b905084861614386108f7565b868616151593506108f1565b888616811493506108eb565b61088f925b6001600160a01b0380821692909183610a4f57509060025490848201809211610964577fddf252ad1be2c89b69c2b068fc378daa952ba7f163c4a11628f55a4df523b3ef926020926002555b169384610a375780600254036002555b604051908152a3565b84600052600082526040600020818154019055610a2e565b60009084825281602052604082205490868210610aa057509181604087602095887fddf252ad1be2c89b69c2b068fc378daa952ba7f163c4a11628f55a4df523b3ef98965283875203912055610a1e565b60405163391434e360e21b81526001600160a01b03919091166004820152602481019190915260448101869052606490fdfea2646970667358221220f82ae43a7bef6118c43144bacd933ef0e5ffe09b851543c830f2584bdb0439a764736f6c63430008140033",
  "linkReferences": {},
  "deployedLinkReferences": {}
}