{
  "_format": "hh-sol-artifact-1",
  "contractName": "OZAdvancedLaunchTokenUpgradeable",
  "sourceName": "contracts/launch/OZAdvancedLaunchTokenUpgradeable.sol",
  "abi": [
    {
      "inputs": [
        {
          "internalType": "address",
          "name": "spender",
          "type": "address"
        },
        {
          "internalType": "uint256",
          "name": "allowance",
          "type": "uint256"
        },
        {
          "internalType": "uint256",
          "name": "needed",
          "type": "uint256"
        }
      ],
      "name": "ERC20InsufficientAllowance",
      "type": "error"
    },
    {
      "inputs": [
        {
          "internalType": "address",
          "name": "sender",
          "type": "address"
        },
        {
          "internalType": "uint256",
          "name": "balance",
          "type": "uint256"
        },
        {
          "internalType": "uint256",
          "name": "needed",
          "type": "uint256"
        }
      ],
      "name": "ERC20InsufficientBalance",
      "type": "error"
    },
    {
      "inputs": [
        {
          "internalType": "address",
          "name": "approver",
          "type": "address"
        }
      ],
      "name": "ERC20InvalidApprover",
      "type": "error"
    },
    {
      "inputs": [
        {
          "internalType": "address",
          "name": "receiver",
          "type": "address"
        }
      ],
      "name": "ERC20InvalidReceiver",
      "type": "error"
    },
    {
      "inputs": [
        {
          "internalType": "address",
          "name": "sender",
          "type": "address"
        }
      ],
      "name": "ERC20InvalidSender",
      "type": "error"
    },
    {
      "inputs": [
        {
          "internalType": "address",
          "name": "spender",
          "type": "address"
        }
      ],
      "name": "ERC20InvalidSpender",
      "type": "error"
    },
    {
      "inputs": [],
      "name": "InvalidInitialization",
      "type": "error"
    },
    {
      "inputs": [],
      "name": "NotInitializing",
      "type": "error"
    },
    {
      "inputs": [
        {
          "internalType": "address",
          "name": "owner",
          "type": "address"
        }
      ],
      "name": "OwnableInvalidOwner",
      "type": "error"
    },
    {
      "inputs": [
        {
          "internalType": "address",
          "name": "account",
          "type": "address"
        }
      ],
      "name": "OwnableUnauthorizedAccount",
      "type": "error"
    },
    {
      "anonymous": false,
      "inputs": [
        {
          "indexed": true,
          "internalType": "address",
          "name": "account",
          "type": "address"
        },
        {
          "indexed": false,
          "internalType": "bool",
          "name": "whitelisted",
          "type": "bool"
        },
        {
          "indexed": false,
          "internalType": "bool",
          "name": "blacklisted",
          "type": "bool"
        },
        {
          "indexed": false,
          "internalType": "bool",
          "name": "excludedFees",
          "type": "bool"
        },
        {
          "indexed": false,
          "internalType": "bool",
          "name": "excludedLimits",
          "type": "bool"
        }
      ],
      "name": "AddressFlagsUpdated",
      "type": "event"
    },
    {
      "anonymous": false,
      "inputs": [
        {
          "indexed": true,
          "internalType": "address",
          "name": "owner",
          "type": "address"
        },
        {
          "indexed": true,
          "internalType": "address",
          "name": "spender",
          "type": "address"
        },
        {
          "indexed": false,
          "internalType": "uint256",
          "name": "value",
          "type": "uint256"
        }
      ],
      "name": "Approval",
      "type": "event"
    },
    {
      "anonymous": false,
      "inputs": [
        {
          "indexed": false,
          "internalType": "string",
          "name": "side",
          "type": "string"
        },
        {
          "indexed": false,
          "internalType": "uint16",
          "name": "marketingBps",
          "type": "uint16"
        },
        {
          "indexed": false,
          "internalType": "uint16",
          "name": "liquidityBps",
          "type": "uint16"
        },
        {
          "indexed": false,
          "internalType": "uint16",
          "name": "burnBps",
          "type": "uint16"
        },
        {
          "indexed": false,
          "internalType": "uint16",
          "name": "totalBps",
          "type": "uint16"
        }
      ],
      "name": "FeesUpdated",
      "type": "event"
    },
    {
      "anonymous": false,
      "inputs": [
        {
          "indexed": false,
          "internalType": "uint64",
          "name": "version",
          "type": "uint64"
        }
      ],
      "name": "Initialized",
      "type": "event"
    },
    {
      "anonymous": false,
      "inputs": [
        {
          "indexed": false,
          "internalType": "uint256",
          "name": "maxGasPriceWei",
          "type": "uint256"
        },
        {
          "indexed": false,
          "internalType": "uint256",
          "name": "deadBlocks",
          "type": "uint256"
        },
        {
          "indexed": false,
          "internalType": "bool",
          "name": "revertEarlyBuys",
          "type": "bool"
        },
        {
          "indexed": false,
          "internalType": "uint256",
          "name": "maxTxAmount",
          "type": "uint256"
        },
        {
          "indexed": false,
          "internalType": "uint256",
          "name": "maxWalletAmount",
          "type": "uint256"
        }
      ],
      "name": "LimitsUpdated",
      "type": "event"
    },
    {
      "anonymous": false,
      "inputs": [
        {
          "indexed": true,
          "internalType": "address",
          "name": "wallet",
          "type": "address"
        }
      ],
      "name": "MarketingWalletSet",
      "type": "event"
    },
    {
      "anonymous": false,
      "inputs": [
        {
          "indexed": true,
          "internalType": "address",
          "name": "previousOwner",
          "type": "address"
        },
        {
          "indexed": true,
          "internalType": "address",
          "name": "newOwner",
          "type": "address"
        }
      ],
      "name": "OwnershipTransferred",
      "type": "event"
    },
    {
      "anonymous": false,
      "inputs": [
        {
          "indexed": true,
          "internalType": "address",
          "name": "router",
          "type": "address"
        },
        {
          "indexed": true,
          "internalType": "address",
          "name": "pair",
          "type": "address"
        }
      ],
      "name": "RouterSet",
      "type": "event"
    },
    {
      "anonymous": false,
      "inputs": [
        {
          "indexed": false,
          "internalType": "bool",
          "name": "enabled",
          "type": "bool"
        },
        {
          "indexed": false,
          "internalType": "uint256",
          "name": "thresholdTokens",
          "type": "uint256"
        }
      ],
      "name": "SwapSettingsUpdated",
      "type": "event"
    },
    {
      "anonymous": false,
      "inputs": [
        {
          "indexed": true,
          "internalType": "uint256",
          "name": "launchBlock",
          "type": "uint256"
        },
        {
          "indexed": true,
          "internalType": "address",
          "name": "pair",
          "type": "address"
        }
      ],
      "name": "TradingEnabled",
      "type": "event"
    },
    {
      "anonymous": false,
      "inputs": [
        {
          "indexed": true,
          "internalType": "address",
          "name": "from",
          "type": "address"
        },
        {
          "indexed": true,
          "internalType": "address",
          "name": "to",
          "type": "address"
        },
        {
          "indexed": false,
          "internalType": "uint256",
          "name": "value",
          "type": "uint256"
        }
      ],
      "name": "Transfer",
      "type": "event"
    },
    {
      "inputs": [],
      "name": "BURN_ADDRESS",
      "outputs": [
        {
          "internalType": "address",
          "name": "",
          "type": "address"
        }
      ],
      "stateMutability": "view",
      "type": "function"
    },
    {
      "inputs": [
        {
          "internalType": "address",
          "name": "owner",
          "type": "address"
        },
        {
          "internalType": "address",
          "name": "spender",
          "type": "address"
        }
      ],
      "name": "allowance",
      "outputs": [
        {
          "internalType": "uint256",
          "name": "",
          "type": "uint256"
        }
      ],
      "stateMutability": "view",
      "type": "function"
    },
    {
      "inputs": [
        {
          "internalType": "address",
          "name": "spender",
          "type": "address"
        },
        {
          "internalType": "uint256",
          "name": "value",
          "type": "uint256"
        }
      ],
      "name": "approve",
      "outputs": [
        {
          "internalType": "bool",
          "name": "",
          "type": "bool"
        }
      ],
      "stateMutability": "nonpayable",
      "type": "function"
    },
    {
      "inputs": [
        {
          "internalType": "address",
          "name": "account",
          "type": "address"
        }
      ],
      "name": "balanceOf",
      "outputs": [
        {
          "internalType": "uint256",
          "name": "",
          "type": "uint256"
        }
      ],
      "stateMutability": "view",
      "type": "function"
    },
    {
      "inputs": [],
      "name": "buyFee",
      "outputs": [
        {
          "internalType": "uint16",
          "name": "marketingBps",
          "type": "uint16"
        },
        {
          "internalType": "uint16",
          "name": "liquidityBps",
          "type": "uint16"
        },
        {
          "internalType": "uint16",
          "name": "burnBps",
          "type": "uint16"
        },
        {
          "internalType": "uint16",
          "name": "totalBps",
          "type": "uint16"
        }
      ],
      "stateMutability": "view",
      "type": "function"
    },
    {
      "inputs": [],
      "name": "deadBlocks",
      "outputs": [
        {
          "internalType": "uint256",
          "name": "",
          "type": "uint256"
        }
      ],
      "stateMutability": "view",
      "type": "function"
    },
    {
      "inputs": [],
      "name": "decimals",
      "outputs": [
        {
          "internalType": "uint8",
          "name": "",
          "type": "uint8"
        }
      ],
      "stateMutability": "view",
      "type": "function"
    },
    {
      "inputs": [],
      "name": "emergencyWithdrawETH",
      "outputs": [],
      "stateMutability": "nonpayable",
      "type": "function"
    },
    {
      "inputs": [],
      "name": "enableTrading",
      "outputs": [],
      "stateMutability": "nonpayable",
      "type": "function"
    },
    {
      "inputs": [
        {
          "internalType": "address",
          "name": "initialOwner",
          "type": "address"
        },
        {
          "internalType": "string",
          "name": "tokenName",
          "type": "string"
        },
        {
          "internalType": "string",
          "name": "tokenSymbol",
          "type": "string"
        },
        {
          "internalType": "uint256",
          "name": "initialSupplyRaw",
          "type": "uint256"
        },
        {
          "internalType": "address",
          "name": "marketingWallet_",
          "type": "address"
        }
      ],
      "name": "initialize",
      "outputs": [],
      "stateMutability": "nonpayable",
      "type": "function"
    },
    {
      "inputs": [
        {
          "internalType": "address",
          "name": "",
          "type": "address"
        }
      ],
      "name": "isBlacklisted",
      "outputs": [
        {
          "internalType": "bool",
          "name": "",
          "type": "bool"
        }
      ],
      "stateMutability": "view",
      "type": "function"
    },
    {
      "inputs": [
        {
          "internalType": "address",
          "name": "",
          "type": "address"
        }
      ],
      "name": "isExcludedFromFees",
      "outputs": [
        {
          "internalType": "bool",
          "name": "",
          "type": "bool"
        }
      ],
      "stateMutability": "view",
      "type": "function"
    },
    {
      "inputs": [
        {
          "internalType": "address",
          "name": "",
          "type": "address"
        }
      ],
      "name": "isExcludedFromLimits",
      "outputs": [
        {
          "internalType": "bool",
          "name": "",
          "type": "bool"
        }
      ],
      "stateMutability": "view",
      "type": "function"
    },
    {
      "inputs": [
        {
          "internalType": "address",
          "name": "",
          "type": "address"
        }
      ],
      "name": "isWhitelisted",
      "outputs": [
        {
          "internalType": "bool",
          "name": "",
          "type": "bool"
        }
      ],
      "stateMutability": "view",
      "type": "function"
    },
    {
      "inputs": [],
      "name": "launchBlock",
      "outputs": [
        {
          "internalType": "uint256",
          "name": "",
          "type": "uint256"
        }
      ],
      "stateMutability": "view",
      "type": "function"
    },
    {
      "inputs": [],
      "name": "manualSwapBack",
      "outputs": [],
      "stateMutability": "nonpayable",
      "type": "function"
    },
    {
      "inputs": [],
      "name": "marketingWallet",
      "outputs": [
        {
          "internalType": "address",
          "name": "",
          "type": "address"
        }
      ],
      "stateMutability": "view",
      "type": "function"
    },
    {
      "inputs": [],
      "name": "maxGasPriceWei",
      "outputs": [
        {
          "internalType": "uint256",
          "name": "",
          "type": "uint256"
        }
      ],
      "stateMutability": "view",
      "type": "function"
    },
    {
      "inputs": [],
      "name": "maxTxAmount",
      "outputs": [
        {
          "internalType": "uint256",
          "name": "",
          "type": "uint256"
        }
      ],
      "stateMutability": "view",
      "type": "function"
    },
    {
      "inputs": [],
      "name": "maxWalletAmount",
      "outputs": [
        {
          "internalType": "uint256",
          "name": "",
          "type": "uint256"
        }
      ],
      "stateMutability": "view",
      "type": "function"
    },
    {
      "inputs": [],
      "name": "name",
      "outputs": [
        {
          "internalType": "string",
          "name": "",
          "type": "string"
        }
      ],
      "stateMutability": "view",
      "type": "function"
    },
    {
      "inputs": [],
      "name": "owner",
      "outputs": [
        {
          "internalType": "address",
          "name": "",
          "type": "address"
        }
      ],
      "stateMutability": "view",
      "type": "function"
    },
    {
      "inputs": [],
      "name": "renounceOwnership",
      "outputs": [],
      "stateMutability": "nonpayable",
      "type": "function"
    },
    {
      "inputs": [],
      "name": "revertEarlyBuys",
      "outputs": [
        {
          "internalType": "bool",
          "name": "",
          "type": "bool"
        }
      ],
      "stateMutability": "view",
      "type": "function"
    },
    {
      "inputs": [],
      "name": "sellFee",
      "outputs": [
        {
          "internalType": "uint16",
          "name": "marketingBps",
          "type": "uint16"
        },
        {
          "internalType": "uint16",
          "name": "liquidityBps",
          "type": "uint16"
        },
        {
          "internalType": "uint16",
          "name": "burnBps",
          "type": "uint16"
        },
        {
          "internalType": "uint16",
          "name": "totalBps",
          "type": "uint16"
        }
      ],
      "stateMutability": "view",
      "type": "function"
    },
    {
      "inputs": [
        {
          "internalType": "address",
          "name": "account",
          "type": "address"
        },
        {
          "internalType": "bool",
          "name": "whitelisted",
          "type": "bool"
        },
        {
          "internalType": "bool",
          "name": "blacklisted",
          "type": "bool"
        },
        {
          "internalType": "bool",
          "name": "excludedFees",
          "type": "bool"
        },
        {
          "internalType": "bool",
          "name": "excludedLimits",
          "type": "bool"
        }
      ],
      "name": "setAddressFlags",
      "outputs": [],
      "stateMutability": "nonpayable",
      "type": "function"
    },
    {
      "inputs": [
        {
          "internalType": "uint16",
          "name": "marketingBps",
          "type": "uint16"
        },
        {
          "internalType": "uint16",
          "name": "liquidityBps",
          "type": "uint16"
        },
        {
          "internalType": "uint16",
          "name": "burnBps",
          "type": "uint16"
        }
      ],
      "name": "setBuyFees",
      "outputs": [],
      "stateMutability": "nonpayable",
      "type": "function"
    },
    {
      "inputs": [
        {
          "internalType": "uint256",
          "name": "maxGasPriceWei_",
          "type": "uint256"
        },
        {
          "internalType": "uint256",
          "name": "deadBlocks_",
          "type": "uint256"
        },
        {
          "internalType": "bool",
          "name": "revertEarlyBuys_",
          "type": "bool"
        },
        {
          "internalType": "uint256",
          "name": "maxTxAmount_",
          "type": "uint256"
        },
        {
          "internalType": "uint256",
          "name": "maxWalletAmount_",
          "type": "uint256"
        }
      ],
      "name": "setLimits",
      "outputs": [],
      "stateMutability": "nonpayable",
      "type": "function"
    },
    {
      "inputs": [
        {
          "internalType": "address",
          "name": "wallet",
          "type": "address"
        }
      ],
      "name": "setMarketingWallet",
      "outputs": [],
      "stateMutability": "nonpayable",
      "type": "function"
    },
    {
      "inputs": [
        {
          "internalType": "address",
          "name": "router",
          "type": "address"
        }
      ],
      "name": "setRouter",
      "outputs": [],
      "stateMutability": "nonpayable",
      "type": "function"
    },
    {
      "inputs": [
        {
          "internalType": "uint16",
          "name": "marketingBps",
          "type": "uint16"
        },
        {
          "internalType": "uint16",
          "name": "liquidityBps",
          "type": "uint16"
        },
        {
          "internalType": "uint16",
          "name": "burnBps",
          "type": "uint16"
        }
      ],
      "name": "setSellFees",
      "outputs": [],
      "stateMutability": "nonpayable",
      "type": "function"
    },
    {
      "inputs": [
        {
          "internalType": "bool",
          "name": "enabled",
          "type": "bool"
        },
        {
          "internalType": "uint256",
          "name": "thresholdTokens",
          "type": "uint256"
        }
      ],
      "name": "setSwapSettings",
      "outputs": [],
      "stateMutability": "nonpayable",
      "type": "function"
    },
    {
      "inputs": [],
      "name": "swapEnabled",
      "outputs": [
        {
          "internalType": "bool",
          "name": "",
          "type": "bool"
        }
      ],
      "stateMutability": "view",
      "type": "function"
    },
    {
      "inputs": [],
      "name": "swapTokensAtAmount",
      "outputs": [
        {
          "internalType": "uint256",
          "name": "",
          "type": "uint256"
        }
      ],
      "stateMutability": "view",
      "type": "function"
    },
    {
      "inputs": [],
      "name": "symbol",
      "outputs": [
        {
          "internalType": "string",
          "name": "",
          "type": "string"
        }
      ],
      "stateMutability": "view",
      "type": "function"
    },
    {
      "inputs": [],
      "name": "totalSupply",
      "outputs": [
        {
          "internalType": "uint256",
          "name": "",
          "type": "uint256"
        }
      ],
      "stateMutability": "view",
      "type": "function"
    },
    {
      "inputs": [],
      "name": "tradingEnabled",
      "outputs": [
        {
          "internalType": "bool",
          "name": "",
          "type": "bool"
        }
      ],
      "stateMutability": "view",
      "type": "function"
    },
    {
      "inputs": [
        {
          "internalType": "address",
          "name": "to",
          "type": "address"
        },
        {
          "internalType": "uint256",
          "name": "value",
          "type": "uint256"
        }
      ],
      "name": "transfer",
      "outputs": [
        {
          "internalType": "bool",
          "name": "",
          "type": "bool"
        }
      ],
      "stateMutability": "nonpayable",
      "type": "function"
    },
    {
      "inputs": [
        {
          "internalType": "address",
          "name": "from",
          "type": "address"
        },
        {
          "internalType": "address",
          "name": "to",
          "type": "address"
        },
        {
          "internalType": "uint256",
          "name": "value",
          "type": "uint256"
        }
      ],
      "name": "transferFrom",
      "outputs": [
        {
          "internalType": "bool",
          "name": "",
          "type": "bool"
        }
      ],
      "stateMutability": "nonpayable",
      "type": "function"
    },
    {
      "inputs": [
        {
          "internalType": "address",
          "name": "newOwner",
          "type": "address"
        }
      ],
      "name": "transferOwnership",
      "outputs": [],
      "stateMutability": "nonpayable",
      "type": "function"
    },
    {
      "inputs": [],
      "name": "uniswapV2Pair",
      "outputs": [
        {
          "internalType": "address",
          "name": "",
          "type": "address"
        }
      ],
      "stateMutability": "view",
      "type": "function"
    },
    {
      "inputs": [],
      "name": "uniswapV2Router",
      "outputs": [
        {
          "internalType": "contract IUniswapV2Router02Upgradeable",
          "name": "",
          "type": "address"
        }
      ],
      "stateMutability": "view",
      "type": "function"
    },
    {
      "stateMutability": "payable",
      "type": "receive"
    }
  ],
  "bytecode": "0x608080604052346015576130db908161001b8239f35b600080fdfe6080604052600436101561001b575b361561001957600080fd5b005b60003560e01c806306fdde03146119fc578063095ea7b3146119d65780631694505e146119ad57806318160ddd1461198257806323b872dd1461189e5780632b14ca56146118515780632fc058061461182e578063313ce567146118125780633af32abf146117d3578063470624021461178657806349bd5a5e1461175d5780634ada218b146117375780634fbee193146116f85780635cce86cd146116b95780635d098b38146115e757806366eb3785146115ad5780636951a079146114bd5780636ddd17131461149a57806370a0823114611453578063715018a6146113e9578063747b8a1c14610c0c57806375f0a87414610be35780638453601714610b5e5780638a8c523c14610a7e5780638c0b5e2214610a605780638da5cb5b14610a2a57806392c818d61461090357806395d89b411461080c5780639f52256b1461077b578063a9059cbb1461074a578063aa4bde281461072c578063c0d7865514610497578063d00efb2f14610479578063d0e103261461040c578063dd62ed3e146103c3578063e2f45605146103a5578063ef3881c814610387578063f2fde38b1461035e578063fabb0b4f14610340578063fc6c2bda1461024f578063fccc2813146102325763fe575a870361000e573461022d57602036600319011261022d576001600160a01b0361020f611b07565b16600052600f602052602060ff604060002054166040519015158152f35b600080fd5b3461022d57600036600319011261022d57602060405161dead8152f35b3461022d57606036600319011261022d577f78a2b7c85fd401563e8af374883543c3ee4188df1c66fc71232dbb7e7ffdb10260e061028b611b6c565b61ffff610296611b7d565b8161029f611b8e565b6102a7611de3565b816102b382858861223b565b818151169060055463ffff0000602083015160101b169061ffff60301b606065ffff00000000604086015160201b1694015160301b169361ffff60301b199165ffffffffffff191617161717179384600555816040519760a08952600460a08a0152631cd95b1b60e21b60c08a015216602088015216604086015216606084015260301c166080820152a1005b3461022d57600036600319011261022d576020600a54604051908152f35b3461022d57602036600319011261022d5761001961037a611b07565b610382611de3565b611d16565b3461022d57600036600319011261022d576020600954604051908152f35b3461022d57600036600319011261022d576020600754604051908152f35b3461022d57604036600319011261022d576103dc611b07565b6103ed6103e7611b1d565b91611b33565b9060018060a01b03166000526020526020604060002054604051908152f35b3461022d57604036600319011261022d5760043580151580910361022d5760407f06983cb19592d7d4eb4aedd54adc3fb1cd55c1f3cc43ad1bd64f8bc885933ce291602435610459611de3565b60ff196006541660ff8316176006558060075582519182526020820152a1005b3461022d57600036600319011261022d576020600354604051908152f35b3461022d57602036600319011261022d576104b0611b07565b6104b8611de3565b6001600160a01b031680156106fc57600180546001600160a01b0319168217905560405163c45a015560e01b8152602081600481855afa90811561068f576000916106dd575b506040516315ab88c960e31b815290602082600481865afa91821561068f576000926106bc575b5060405163e6a4390560e01b81523060048201526001600160a01b0383811660248301529092911690602083604481855afa92831561068f5760009361069b575b506001600160a01b038316156106165750505b6001600160a01b03169081156105da57600280546001600160a01b031916831790556000828152601160205260408120805460ff191660011790557f8ab4cea230ab04f96aaa9a71fbc4bfa98097c7b9f07e06be33868b500f8100289080a3005b60405162461bcd60e51b81526020600482015260146024820152731c185a5c8818dc99585d1a5bdb8819985a5b195960621b6044820152606490fd5b6040516364e329cb60e11b81523060048201526001600160a01b039190911660248201529150602090829060449082906000905af190811561068f57600091610660575b50610579565b610682915060203d602011610688575b61067a8183611c32565b810190611cf7565b8261065a565b503d610670565b6040513d6000823e3d90fd5b6106b591935060203d6020116106885761067a8183611c32565b9184610566565b6106d691925060203d6020116106885761067a8183611c32565b9083610525565b6106f6915060203d6020116106885761067a8183611c32565b826104fe565b60405162461bcd60e51b81526020600482015260086024820152670726f757465723d360c41b6044820152606490fd5b3461022d57600036600319011261022d576020600d54604051908152f35b3461022d57604036600319011261022d57610770610766611b07565b6024359033611d8c565b602060405160018152f35b3461022d5760a036600319011261022d577f030be12a58949831a2ba360cd4c740f0f9277275d25bb2cc31c3656d170fc5c960a06004356024356107bd611bcd565b60843591606435916107cd611de3565b8460095581600a5515159060ff19600b541660ff831617600b5582600c5583600d556040519485526020850152604084015260608301526080820152a1005b3461022d57600036600319011261022d5760405160006000805160206130068339815191525461083b81611bdc565b80845290600181169081156108df5750600114610873575b61086f8361086381850382611c32565b60405191829182611abe565b0390f35b60008051602061300683398151915260009081527f46a2803e59a4de4e7a4c574b1243f25977ac4c77d5a1a4a609b5394cebb4a2aa939250905b8082106108c557509091508101602001610863610853565b9192600181602092548385880101520191019092916108ad565b60ff191660208086019190915291151560051b840190910191506108639050610853565b3461022d5760a036600319011261022d5761091c611b07565b602435908115159081830361022d57610933611bcd565b9160643580151580820361022d57608435948515159283870361022d577f5de6654a95655d8559604b64d6a2547ab79693a81033f89fd08e7fb3d0d7b39a966109f1610a10926109af608099610987611de3565b60018060a01b03169b8c600052600e60205260406000209060ff801983541691151516179055565b8a600052600f6020526109d28560406000209060ff801983541691151516179055565b8a600052601060205260406000209060ff801983541691151516179055565b88600052601160205260406000209060ff801983541691151516179055565b6040519384521515602084015260408301526060820152a2005b3461022d57600036600319011261022d57600080516020613026833981519152546040516001600160a01b039091168152602090f35b3461022d57600036600319011261022d576020600c54604051908152f35b3461022d57600036600319011261022d57610a97611de3565b60025460ff8160a01c16610b27576001600160a01b038116908115610af35760ff60a01b1916600160a01b176002554360038190557fb0153a1d634c9f6da118c6950a6689cff830da150b9872b291e7a8d815316bb7600080a3005b60405162461bcd60e51b815260206004820152600c60248201526b1c185a5c881b9bdd081cd95d60a21b6044820152606490fd5b60405162461bcd60e51b815260206004820152600f60248201526e185b1c9958591e48195b98589b1959608a1b6044820152606490fd5b3461022d57600036600319011261022d57610b77611de3565b600080808060018060a01b03600080516020613026833981519152541647905af1610ba0611cc7565b5015610ba857005b60405162461bcd60e51b8152602060048201526013602482015272115512081dda5d1a191c985dc819985a5b1959606a1b6044820152606490fd5b3461022d57600036600319011261022d576000546040516001600160a01b039091168152602090f35b3461022d5760a036600319011261022d57610c25611b07565b60243567ffffffffffffffff811161022d57610c45903690600401611b9f565b9160443567ffffffffffffffff811161022d57610c66903690600401611b9f565b90936084356001600160a01b0381169460643594939186900361022d57600080516020613086833981519152549660ff8860401c16159767ffffffffffffffff8116801590816113e1575b60011490816113d7575b1590816113ce575b506113bd5767ffffffffffffffff1981166001176000805160206130868339815191525588611390575b506001600160a01b03851693841561136157871561132e5786156112fe57610d2292610d1a913691611c70565b923691611c70565b90610d2b612d88565b610d33612d88565b80519067ffffffffffffffff82116111de578190610d5f600080516020612fc683398151915254611bdc565b601f8111611281575b50602090601f83116001146111ff576000926111f4575b50508160011b916000199060031b1c191617600080516020612fc6833981519152555b80519067ffffffffffffffff82116111de578190610dce60008051602061300683398151915254611bdc565b601f8111611161575b50602090601f83116001146110df576000926110d4575b50508160011b916000199060031b1c191617600080516020613006833981519152555b610e19612d88565b610e21612d88565b610e2a82611d16565b836bffffffffffffffffffffffff60a01b60005416176000556000806060604051610e5481611c16565b828152826020820152826040820152015261ffff610e7c82610e7760c880612225565b612225565b166107d081116110965760405191610e9383611c16565b60c8808452602080850191909152604080850183905260609485018490526004805467ffffffffffffffff19169390921b65ffff00000000169290921760309390931b61ffff60301b169290921762c800c81790915551600095918691610ef981611c16565b828152826020820152826040820152015261ffff610f1d86610e7761012c80612225565b16946107d08611611096576110379560405191610f3983611c16565b61012c808452602080850191909152604080850183905260609094018390526005805467ffffffffffffffff191692821b65ffff00000000169290921760309390931b61ffff60301b169290921763012c012c1790556006805460ff199081166001908117909255600b805482168317905561271088046007556000868152601084528481208054831684179055308082528582208054841685179055868252858220805484168517905587825260118552858220805484168517905580825285822080548416851790559581528481208054831684179055958652600e909252828520805483168217905592845292208054909216179055612309565b61103d57005b68ff0000000000000000196000805160206130868339815191525416600080516020613086833981519152557fc7f505b2f371ae2175ee4913f4499e1f2633a7b5936321eed1cdaeb6115181d2602060405160018152a1005b60405162461bcd60e51b815260206004820152601660248201527546656520746f6f206869676820286d6178203230252960501b6044820152606490fd5b015190508780610dee565b60008051602061300683398151915260009081528281209350601f198516905b8181106111495750908460019594939210611130575b505050811b0160008051602061300683398151915255610e11565b015160001960f88460031b161c19169055878080611115565b929360206001819287860151815501950193016110ff565b6000805160206130068339815191526000529091507f46a2803e59a4de4e7a4c574b1243f25977ac4c77d5a1a4a609b5394cebb4a2aa601f840160051c810191602085106111d4575b90601f859493920160051c01905b8181106111c55750610dd7565b600081558493506001016111b8565b90915081906111aa565b634e487b7160e01b600052604160045260246000fd5b015190508880610d7f565b600080516020612fc683398151915260009081528281209350601f198516905b8181106112695750908460019594939210611250575b505050811b01600080516020612fc683398151915255610da2565b015160001960f88460031b161c19169055888080611235565b9293602060018192878601518155019501930161121f565b600080516020612fc68339815191526000529091507f2ae08a8e29253f69ac5d979a101956ab8f8d9d7ded63fa7a83b16fc47648eab0601f840160051c810191602085106112f4575b90601f859493920160051c01905b8181106112e55750610d68565b600081558493506001016112d8565b90915081906112ca565b60405162461bcd60e51b81526020600482015260086024820152670737570706c793d360c41b6044820152606490fd5b60405162461bcd60e51b815260206004820152600b60248201526a06d61726b6574696e673d360ac1b6044820152606490fd5b60405162461bcd60e51b815260206004820152600760248201526606f776e65723d360cc1b6044820152606490fd5b68ffffffffffffffffff191668010000000000000001176000805160206130868339815191525588610ced565b63f92ee8a960e01b60005260046000fd5b9050158a610cc3565b303b159150610cbb565b8a9150610cb1565b3461022d57600036600319011261022d57611402611de3565b60008051602061302683398151915280546001600160a01b031981169091556000906001600160a01b03167f8be0079c531659141344cd1fd0a4f28419497f9722a3daafe3b4186f6b6457e08280a3005b3461022d57602036600319011261022d576001600160a01b03611474611b07565b16600052600080516020612fe68339815191526020526020604060002054604051908152f35b3461022d57600036600319011261022d57602060ff600654166040519015158152f35b3461022d57606036600319011261022d577f78a2b7c85fd401563e8af374883543c3ee4188df1c66fc71232dbb7e7ffdb10260e06114f9611b6c565b61ffff611504611b7d565b8161150d611b8e565b611515611de3565b8161152182858861223b565b818151169060045463ffff0000602083015160101b169061ffff60301b606065ffff00000000604086015160201b1694015160301b169361ffff60301b199165ffffffffffff191617161717179384600455816040519760a08952600360a08a01526262757960e81b60c08a015216602088015216604086015216606084015260301c166080820152a1005b3461022d57600036600319011261022d576115c6611de3565b600160ff1960085416176008556115db611e5c565b6008805460ff19169055005b3461022d57602036600319011261022d57611600611b07565b611608611de3565b6001600160a01b0316801561168957806bffffffffffffffffffffffff60a01b60005416176000558060005260106020526040600020600160ff198254161790558060005260116020526040600020600160ff198254161790557ff86e3c0cc66159379bdf420884b6f4be3aa4fb93284e88c539c61ba300646a74600080a2005b60405162461bcd60e51b8152602060048201526008602482015267077616c6c65743d360c41b6044820152606490fd5b3461022d57602036600319011261022d576001600160a01b036116da611b07565b166000526011602052602060ff604060002054166040519015158152f35b3461022d57602036600319011261022d576001600160a01b03611719611b07565b166000526010602052602060ff604060002054166040519015158152f35b3461022d57600036600319011261022d57602060ff60025460a01c166040519015158152f35b3461022d57600036600319011261022d576002546040516001600160a01b039091168152602090f35b3461022d57600036600319011261022d576004546040805161ffff8084168252601084901c811660208084019190915284901c81169282019290925260309290921c166060820152608090f35b3461022d57602036600319011261022d576001600160a01b036117f4611b07565b16600052600e602052602060ff604060002054166040519015158152f35b3461022d57600036600319011261022d57602060405160128152f35b3461022d57600036600319011261022d57602060ff600b54166040519015158152f35b3461022d57600036600319011261022d576005546040805161ffff8084168252601084901c811660208084019190915284901c81169282019290925260309290921c166060820152608090f35b3461022d57606036600319011261022d576118b7611b07565b6118bf611b1d565b604435906118cc83611b33565b33600090815260209190915260409020549260001984106118f2575b6107709350611d8c565b828410611965576001600160a01b0381161561194f573315611939576107709361191b82611b33565b60018060a01b033316600052602052836040600020910390556118e8565b634a1406b160e11b600052600060045260246000fd5b63e602df0560e01b600052600060045260246000fd5b8284637dc7a0d960e11b6000523360045260245260445260646000fd5b3461022d57600036600319011261022d57602060008051602061304683398151915254604051908152f35b3461022d57600036600319011261022d576001546040516001600160a01b039091168152602090f35b3461022d57604036600319011261022d576107706119f2611b07565b60243590336122a4565b3461022d57600036600319011261022d576040516000600080516020612fc683398151915254611a2b81611bdc565b80845290600181169081156108df5750600114611a525761086f8361086381850382611c32565b600080516020612fc683398151915260009081527f2ae08a8e29253f69ac5d979a101956ab8f8d9d7ded63fa7a83b16fc47648eab0939250905b808210611aa457509091508101602001610863610853565b919260018160209254838588010152019101909291611a8c565b91909160208152825180602083015260005b818110611af1575060409293506000838284010152601f8019910116010190565b8060208092870101516040828601015201611ad0565b600435906001600160a01b038216820361022d57565b602435906001600160a01b038216820361022d57565b6001600160a01b031660009081527f52c63247e1f47db19d5ce0460030c497f067ca4cebf71ba98eeadabe20bace016020526040902090565b6004359061ffff8216820361022d57565b6024359061ffff8216820361022d57565b6044359061ffff8216820361022d57565b9181601f8401121561022d5782359167ffffffffffffffff831161022d576020838186019501011161022d57565b60443590811515820361022d57565b90600182811c92168015611c0c575b6020831014611bf657565b634e487b7160e01b600052602260045260246000fd5b91607f1691611beb565b6080810190811067ffffffffffffffff8211176111de57604052565b90601f8019910116810190811067ffffffffffffffff8211176111de57604052565b67ffffffffffffffff81116111de57601f01601f191660200190565b929192611c7c82611c54565b91611c8a6040519384611c32565b82948184528183011161022d578281602093846000960137010152565b8115611cb1570490565b634e487b7160e01b600052601260045260246000fd5b3d15611cf2573d90611cd882611c54565b91611ce66040519384611c32565b82523d6000602084013e565b606090565b9081602091031261022d57516001600160a01b038116810361022d5790565b6001600160a01b03168015611d765760008051602061302683398151915280546001600160a01b0319811683179091556001600160a01b03167f8be0079c531659141344cd1fd0a4f28419497f9722a3daafe3b4186f6b6457e0600080a3565b631e4fbdf760e01b600052600060045260246000fd5b91906001600160a01b03831615611dcd576001600160a01b03811615611db757611db592612880565b565b63ec442f0560e01b600052600060045260246000fd5b634b637e8f60e11b600052600060045260246000fd5b600080516020613026833981519152546001600160a01b03163303611e0457565b63118cdaa760e01b6000523360045260246000fd5b81810292918115918404141715611e2c57565b634e487b7160e01b600052601160045260246000fd5b91908203918211611e2c57565b91908201809211611e2c57565b6000308152600080516020612fe683398151915260205260408120548015612221576001546001600160a01b031690811561221c576002546001600160a01b03161561221c5760055461ffff8160301c1690811561221557611ed891611ecc61ffff611ed19360101c1685611e19565b611ca7565b8092611e42565b91611ef0611eea8360011c8094611e42565b84611e4f565b9081156122155781611f0291306122a4565b4792606093604051611f148682611c32565b6002815260208101601f198701368237815115612201573081526001546040516315ab88c960e31b81526001600160a01b039091169190602081600481865afa9081156121f6578a916121d7575b508351600110156121c3576001600160a01b03166040840152813b156121bf5791889160405193849263791ac94760e01b845260a484019089600486015285602486015260a060448601525180915260c484019190855b81811061219a575050508383809230606483015242608483015203925af1801561218f57612179575b50611fed9047611e42565b9182156121715761200661200d91611ecc889486611e19565b8093611e42565b918015158061215e575b6120fa575b5050811515806120f1575b612032575b50505050565b60015483919061204d9084906001600160a01b0316306122a4565b6001546000805160206130268339815191525460405163f305d71960e01b8152306004820152602481019590955260448501879052606485018790526001600160a01b0390811660848601524260a4860152849260c4928492165af180156120e6576120ba575b8061202c565b813d83116120df575b6120cd8183611c32565b810103126120dc5780806120b4565b80fd5b503d6120c3565b6040513d85823e3d90fd5b50801515612027565b8154829182918291906001600160a01b03165af1612116611cc7565b501561212357833861201c565b60405162461bcd60e51b8152602060048201526013602482015272115512081d1c985b9cd9995c8819985a5b1959606a1b6044820152606490fd5b5081546001600160a01b03161515612017565b505050505050565b9561218881611fed9398611c32565b9590611fe2565b6040513d89823e3d90fd5b82516001600160a01b031684528d965087955060209384019390920191600101611fb9565b8880fd5b634e487b7160e01b8a52603260045260248afd5b6121f0915060203d6020116106885761067a8183611c32565b38611f62565b6040513d8c823e3d90fd5b634e487b7160e01b88526032600452602488fd5b5050505050565b505050565b5050565b9061ffff8091169116019061ffff8211611e2c57565b91906000606060405161224d81611c16565b828152826020820152826040820152015261ffff61226f83610e778487612225565b16916107d083116110965761ffff8092816040519661228d88611c16565b168652166020850152166040830152606082015290565b916001600160a01b03831691821561194f576001600160a01b0316928315611939577f8c5be1e5ebec7d5bd14f71427d1e84f3dd0314c0f7b2291e5b200ac8c7c3b925916122f3602092611b33565b85600052825280604060002055604051908152a3565b9060008052600f60205260ff60406000205416158061285d575b1561282a57600954801515806127fa575b6127b4575b506002546001600160a01b03811680159160a01c60ff1690828061279b575b6001600160a01b0386169182149280612790575b80612789575b80612770575b61270a575b6000805260116020527f4ad3b33220dddc71b994a52d72c06b10862965f7d926534c05c00fb7e819e7b75460ff1615806126f1575b612605575b6008549060ff82161590816125f8575b816125f0575b816125db575b816125d2575b50806125c7575b806125a0575b61257e575b5060ff60085416159182612562575b5081612559575b8161254f575b81612519575b816124ff575b50612425575b50611db5916000612ea5565b156124f7576004915b6040519261243b84611c16565b549261ffff8416815261ffff8460101c166020820152606061ffff6040830195818160201c16875260301c169101908082528061247b575b505091612419565b6124886127109185611e19565b0490811561247357611ed16124be9161ffff6124b5816124ac87611db59b9a611e42565b98511686611e19565b91511690611ca7565b90806124e6575b50806124d4575b506000612ea5565b6124e090306000612ea5565b386124cc565b6124f1906000612db6565b386124c5565b60059161242e565b9050600052601060205260ff604060002054161538612413565b6000805260106020527f6e0956cda88cad152e89927e53611735b61a5c762d1428573c6931b0a5efcb015460ff1615915061240d565b8015159150612407565b60009150612401565b90915082908315612576575b5090386123fa565b90503861256e565b60ff1916600117600855612590611e5c565b60ff1960085416600855386123eb565b5030600052600080516020612fe683398151915260205260406000205460075411156123e6565b5060075415156123e0565b905015386123d9565b6001546001600160a01b0316151591506123d3565b8491506123cd565b60065460ff1691506123c7565b600c54801515806126e3575b6126a0575b50600d5480151580612699575b61262e575b506123b7565b82600052600080516020612fe683398151915260205261265386604060002054611e4f565b1161265e5738612628565b60405162461bcd60e51b815260206004820152601360248201527213585e081dd85b1b195d08195e18d959591959606a1b6044820152606490fd5b5084612623565b85116126ac5738612616565b60405162461bcd60e51b815260206004820152600f60248201526e13585e081d1e08195e18d959591959608a1b6044820152606490fd5b508485612611575083612611565b5081600052601160205260ff60406000205416156123b2565b612719600354600a5490611e4f565b43101561237d5760ff600b54161561237d5760405162461bcd60e51b815260206004820152601a60248201527f416e7469426f743a206561726c792062757920626c6f636b65640000000000006044820152606490fd5b5081600052600e60205260ff6040600020541615612378565b5083612372565b50600a54151561236c565b6001546001600160a01b03878116911614159350612358565b3a116127c05738612339565b60405162461bcd60e51b815260206004820152601260248201527108ec2e640e0e4d2c6ca40e8dede40d0d2ced60731b6044820152606490fd5b506002546001600160a01b03168015908115612817575b50612334565b6001600160a01b03851614905038612811565b60405162461bcd60e51b815260206004820152600b60248201526a109b1858dadb1a5cdd195960aa1b6044820152606490fd5b506001600160a01b0382166000908152600f602052604090205460ff1615612323565b6001600160a01b0381166000818152600f60205260409020549193929160ff161580612d65575b1561282a5760095480151580612d34575b612d28575b5060025460ff8160a01c16908115612c8e575b6001600160a01b03168281149283612c75575b6001600160a01b0385168281149390929080612c6a575b80612c63575b80612c4a575b612be4575b81600052601160205260ff604060002054161580612bcb575b612b51575b6008549060ff8216159081612b44575b81612b3c575b81612b27575b81612b1d575b5080612b12575b80612aeb575b612ac9575b5060ff60085416159283612aad575b5082612aa3575b82612a99575b82612a7d575b5081612a63575b50612996575b50611db592612ea5565b15612a5b576004925b604051936129ac85611c16565b549361ffff8516815261ffff8560101c166020820152606061ffff6040830196818160201c16885260301c16910190808252806129ec575b50509261298c565b6129f96127109186611e19565b049081156129e457611ed1612a269161ffff6124b581612a1d87611db59c9b611e42565b99511686611e19565b9080612a4b575b5080612a3a575b50612ea5565b612a45903083612ea5565b38612a34565b612a559083612db6565b38612a2d565b60059261299f565b9050600052601060205260ff604060002054161538612986565b909150600052601060205260ff6040600020541615903861297f565b8115159250612979565b8015159250612973565b90925083908415612ac1575b50913861296c565b905038612ab9565b60ff1916600117600855612adb611e5c565b60ff19600854166008553861295d565b5030600052600080516020612fe68339815191526020526040600020546007541115612958565b506007541515612952565b905015153861294b565b6001546001600160a01b031615159150612945565b85915061293f565b60065460ff169150612939565b600c5480151580612bbd575b612bb1575b50600d5480151580612baa575b612b7a575b50612929565b83600052600080516020612fe6833981519152602052612b9f88604060002054611e4f565b1161265e5738612b74565b5085612b6f565b87116126ac5738612b62565b508586612b5d575084612b5d565b5082600052601160205260ff6040600020541615612924565b612bf3600354600a5490611e4f565b43101561290b5760ff600b54161561290b5760405162461bcd60e51b815260206004820152601a60248201527f416e7469426f743a206561726c792062757920626c6f636b65640000000000006044820152606490fd5b5082600052600e60205260ff6040600020541615612906565b5084612900565b50600a5415156128fa565b6001546001600160a01b038681169116141593506128e3565b82151580612d16575b156128d05782600052600e60205260ff604060002054168015612cf4575b6128d05760405162461bcd60e51b8152602060048201526013602482015272151c98591a5b99c81b9bdd08195b98589b1959606a1b6044820152606490fd5b506001600160a01b0384166000908152600e602052604090205460ff16612cb5565b506001600160a01b0384161515612c97565b3a116127c057386128bd565b506002546001600160a01b0316828114908115612d52575b506128b8565b6001600160a01b03851614905038612d4c565b506001600160a01b0382166000908152600f602052604090205460ff16156128a7565b60ff6000805160206130868339815191525460401c1615612da557565b631afcd79f60e31b60005260046000fd5b6001600160a01b031690600082612e325760208260008051602061306683398151915292612df761dead969560008051602061304683398151915254611e4f565b600080516020613046833981519152555b5084600052600080516020612fe683398151915282526040600020818154019055604051908152a3565b828152600080516020612fe68339815191526020526040812054828110612e8b578282859460209361dead976000805160206130668339815191529652600080516020612fe68339815191528552036040822055612e08565b916064928463391434e360e21b8452600452602452604452fd5b6001600160a01b03169081612f5057602060008051602061306683398151915291612edf8560008051602061304683398151915254611e4f565b600080516020613046833981519152555b6001600160a01b03169384612f2b57806000805160206130468339815191525403600080516020613046833981519152555b604051908152a3565b84600052600080516020612fe683398151915282526040600020818154019055612f22565b81600052600080516020612fe6833981519152602052604060002054838110612fa857600080516020613066833981519152918460209285600052600080516020612fe6833981519152845203604060002055612ef0565b91905063391434e360e21b60005260045260245260445260646000fdfe52c63247e1f47db19d5ce0460030c497f067ca4cebf71ba98eeadabe20bace0352c63247e1f47db19d5ce0460030c497f067ca4cebf71ba98eeadabe20bace0052c63247e1f47db19d5ce0460030c497f067ca4cebf71ba98eeadabe20bace049016d09d72d40fdae2fd8ceac6b6234c7706214fd39c1cd1e609a0528c19930052c63247e1f47db19d5ce0460030c497f067ca4cebf71ba98eeadabe20bace02ddf252ad1be2c89b69c2b068fc378daa952ba7f163c4a11628f55a4df523b3eff0c57e16840df040f15088dc2f81fe391c3923bec73e23a9662efc9c229c6a00a26469706673582212203e1158884431868e6f27dbd53d8989793bb9b5f6b84b5336478141b41268d15e64736f6c634300081c0033",
  "linkReferences": {},
  "deployedLinkReferences": {}
}