{
  "_format": "hh-sol-artifact-1",
  "contractName": "BatchTransferETH",
  "sourceName": "contracts/batch/BatchTransferETH.sol",
  "abi": [
    {
      "inputs": [
        {
          "internalType": "address",
          "name": "_feeCollector",
          "type": "address"
        }
      ],
      "stateMutability": "nonpayable",
      "type": "constructor"
    },
    {
      "inputs": [
        {
          "internalType": "address",
          "name": "owner",
          "type": "address"
        }
      ],
      "name": "OwnableInvalidOwner",
      "type": "error"
    },
    {
      "inputs": [
        {
          "internalType": "address",
          "name": "account",
          "type": "address"
        }
      ],
      "name": "OwnableUnauthorizedAccount",
      "type": "error"
    },
    {
      "inputs": [],
      "name": "ReentrancyGuardReentrantCall",
      "type": "error"
    },
    {
      "anonymous": false,
      "inputs": [
        {
          "indexed": true,
          "internalType": "address",
          "name": "user",
          "type": "address"
        },
        {
          "indexed": false,
          "internalType": "uint256",
          "name": "amount",
          "type": "uint256"
        },
        {
          "indexed": false,
          "internalType": "string",
          "name": "reason",
          "type": "string"
        }
      ],
      "name": "BalanceAdded",
      "type": "event"
    },
    {
      "anonymous": false,
      "inputs": [
        {
          "indexed": true,
          "internalType": "address",
          "name": "sender",
          "type": "address"
        },
        {
          "indexed": false,
          "internalType": "uint256",
          "name": "successCount",
          "type": "uint256"
        },
        {
          "indexed": false,
          "internalType": "uint256",
          "name": "failureCount",
          "type": "uint256"
        },
        {
          "indexed": false,
          "internalType": "uint256",
          "name": "refundAmount",
          "type": "uint256"
        }
      ],
      "name": "BatchNativeTransfer",
      "type": "event"
    },
    {
      "anonymous": false,
      "inputs": [
        {
          "indexed": true,
          "internalType": "address",
          "name": "sender",
          "type": "address"
        },
        {
          "indexed": true,
          "internalType": "address",
          "name": "token",
          "type": "address"
        },
        {
          "indexed": false,
          "internalType": "uint256",
          "name": "successCount",
          "type": "uint256"
        },
        {
          "indexed": false,
          "internalType": "uint256",
          "name": "failureCount",
          "type": "uint256"
        }
      ],
      "name": "BatchTokenTransfer",
      "type": "event"
    },
    {
      "anonymous": false,
      "inputs": [
        {
          "indexed": true,
          "internalType": "address",
          "name": "oldCollector",
          "type": "address"
        },
        {
          "indexed": true,
          "internalType": "address",
          "name": "newCollector",
          "type": "address"
        }
      ],
      "name": "FeeCollectorUpdated",
      "type": "event"
    },
    {
      "anonymous": false,
      "inputs": [
        {
          "indexed": false,
          "internalType": "uint256",
          "name": "perAddressFee",
          "type": "uint256"
        }
      ],
      "name": "FeeConfigUpdated",
      "type": "event"
    },
    {
      "anonymous": false,
      "inputs": [
        {
          "indexed": false,
          "internalType": "uint256",
          "name": "oldSize",
          "type": "uint256"
        },
        {
          "indexed": false,
          "internalType": "uint256",
          "name": "newSize",
          "type": "uint256"
        }
      ],
      "name": "MaxErc20BatchSizeUpdated",
      "type": "event"
    },
    {
      "anonymous": false,
      "inputs": [
        {
          "indexed": false,
          "internalType": "uint256",
          "name": "oldSize",
          "type": "uint256"
        },
        {
          "indexed": false,
          "internalType": "uint256",
          "name": "newSize",
          "type": "uint256"
        }
      ],
      "name": "MaxNativeBatchSizeUpdated",
      "type": "event"
    },
    {
      "anonymous": false,
      "inputs": [
        {
          "indexed": true,
          "internalType": "address",
          "name": "previousOwner",
          "type": "address"
        },
        {
          "indexed": true,
          "internalType": "address",
          "name": "newOwner",
          "type": "address"
        }
      ],
      "name": "OwnershipTransferred",
      "type": "event"
    },
    {
      "anonymous": false,
      "inputs": [
        {
          "indexed": true,
          "internalType": "address",
          "name": "sender",
          "type": "address"
        },
        {
          "indexed": true,
          "internalType": "uint256",
          "name": "batchIndex",
          "type": "uint256"
        },
        {
          "indexed": false,
          "internalType": "address",
          "name": "to",
          "type": "address"
        },
        {
          "indexed": false,
          "internalType": "uint256",
          "name": "amount",
          "type": "uint256"
        },
        {
          "indexed": false,
          "internalType": "bool",
          "name": "success",
          "type": "bool"
        },
        {
          "indexed": false,
          "internalType": "string",
          "name": "failureReason",
          "type": "string"
        }
      ],
      "name": "TransferDetail",
      "type": "event"
    },
    {
      "anonymous": false,
      "inputs": [
        {
          "indexed": true,
          "internalType": "address",
          "name": "user",
          "type": "address"
        },
        {
          "indexed": false,
          "internalType": "uint256",
          "name": "amount",
          "type": "uint256"
        }
      ],
      "name": "WithdrawalSuccess",
      "type": "event"
    },
    {
      "inputs": [
        {
          "components": [
            {
              "internalType": "address",
              "name": "to",
              "type": "address"
            },
            {
              "internalType": "uint256",
              "name": "amount",
              "type": "uint256"
            }
          ],
          "internalType": "struct BatchTransferETH.Transfer[]",
          "name": "transfers",
          "type": "tuple[]"
        }
      ],
      "name": "batchTransferNative",
      "outputs": [
        {
          "components": [
            {
              "internalType": "address",
              "name": "to",
              "type": "address"
            },
            {
              "internalType": "uint256",
              "name": "amount",
              "type": "uint256"
            },
            {
              "internalType": "bool",
              "name": "success",
              "type": "bool"
            },
            {
              "internalType": "string",
              "name": "failureReason",
              "type": "string"
            }
          ],
          "internalType": "struct BatchTransferETH.TransferResult[]",
          "name": "results",
          "type": "tuple[]"
        }
      ],
      "stateMutability": "payable",
      "type": "function"
    },
    {
      "inputs": [
        {
          "internalType": "address",
          "name": "token",
          "type": "address"
        },
        {
          "components": [
            {
              "internalType": "address",
              "name": "to",
              "type": "address"
            },
            {
              "internalType": "uint256",
              "name": "amount",
              "type": "uint256"
            }
          ],
          "internalType": "struct BatchTransferETH.Transfer[]",
          "name": "transfers",
          "type": "tuple[]"
        }
      ],
      "name": "batchTransferToken",
      "outputs": [
        {
          "components": [
            {
              "internalType": "address",
              "name": "to",
              "type": "address"
            },
            {
              "internalType": "uint256",
              "name": "amount",
              "type": "uint256"
            },
            {
              "internalType": "bool",
              "name": "success",
              "type": "bool"
            },
            {
              "internalType": "string",
              "name": "failureReason",
              "type": "string"
            }
          ],
          "internalType": "struct BatchTransferETH.TransferResult[]",
          "name": "results",
          "type": "tuple[]"
        }
      ],
      "stateMutability": "payable",
      "type": "function"
    },
    {
      "inputs": [
        {
          "internalType": "uint256",
          "name": "addressCount",
          "type": "uint256"
        }
      ],
      "name": "calculateFee",
      "outputs": [
        {
          "internalType": "uint256",
          "name": "",
          "type": "uint256"
        }
      ],
      "stateMutability": "view",
      "type": "function"
    },
    {
      "inputs": [],
      "name": "feeCollector",
      "outputs": [
        {
          "internalType": "address",
          "name": "",
          "type": "address"
        }
      ],
      "stateMutability": "view",
      "type": "function"
    },
    {
      "inputs": [],
      "name": "getFeeConfig",
      "outputs": [
        {
          "internalType": "uint256",
          "name": "",
          "type": "uint256"
        }
      ],
      "stateMutability": "view",
      "type": "function"
    },
    {
      "inputs": [],
      "name": "getMaxErc20BatchSize",
      "outputs": [
        {
          "internalType": "uint256",
          "name": "",
          "type": "uint256"
        }
      ],
      "stateMutability": "view",
      "type": "function"
    },
    {
      "inputs": [],
      "name": "getMaxNativeBatchSize",
      "outputs": [
        {
          "internalType": "uint256",
          "name": "",
          "type": "uint256"
        }
      ],
      "stateMutability": "view",
      "type": "function"
    },
    {
      "inputs": [
        {
          "internalType": "address",
          "name": "user",
          "type": "address"
        }
      ],
      "name": "getPendingWithdrawal",
      "outputs": [
        {
          "internalType": "uint256",
          "name": "",
          "type": "uint256"
        }
      ],
      "stateMutability": "view",
      "type": "function"
    },
    {
      "inputs": [],
      "name": "maxErc20BatchSize",
      "outputs": [
        {
          "internalType": "uint256",
          "name": "",
          "type": "uint256"
        }
      ],
      "stateMutability": "view",
      "type": "function"
    },
    {
      "inputs": [],
      "name": "maxNativeBatchSize",
      "outputs": [
        {
          "internalType": "uint256",
          "name": "",
          "type": "uint256"
        }
      ],
      "stateMutability": "view",
      "type": "function"
    },
    {
      "inputs": [],
      "name": "owner",
      "outputs": [
        {
          "internalType": "address",
          "name": "",
          "type": "address"
        }
      ],
      "stateMutability": "view",
      "type": "function"
    },
    {
      "inputs": [
        {
          "internalType": "address",
          "name": "",
          "type": "address"
        }
      ],
      "name": "pendingWithdrawals",
      "outputs": [
        {
          "internalType": "uint256",
          "name": "",
          "type": "uint256"
        }
      ],
      "stateMutability": "view",
      "type": "function"
    },
    {
      "inputs": [],
      "name": "perAddressFee",
      "outputs": [
        {
          "internalType": "uint256",
          "name": "",
          "type": "uint256"
        }
      ],
      "stateMutability": "view",
      "type": "function"
    },
    {
      "inputs": [],
      "name": "renounceOwnership",
      "outputs": [],
      "stateMutability": "nonpayable",
      "type": "function"
    },
    {
      "inputs": [
        {
          "internalType": "address",
          "name": "_feeCollector",
          "type": "address"
        }
      ],
      "name": "setFeeCollector",
      "outputs": [],
      "stateMutability": "nonpayable",
      "type": "function"
    },
    {
      "inputs": [
        {
          "internalType": "uint256",
          "name": "_perAddressFee",
          "type": "uint256"
        }
      ],
      "name": "setFeeConfig",
      "outputs": [],
      "stateMutability": "nonpayable",
      "type": "function"
    },
    {
      "inputs": [
        {
          "internalType": "uint256",
          "name": "_maxErc20BatchSize",
          "type": "uint256"
        }
      ],
      "name": "setMaxErc20BatchSize",
      "outputs": [],
      "stateMutability": "nonpayable",
      "type": "function"
    },
    {
      "inputs": [
        {
          "internalType": "uint256",
          "name": "_maxNativeBatchSize",
          "type": "uint256"
        }
      ],
      "name": "setMaxNativeBatchSize",
      "outputs": [],
      "stateMutability": "nonpayable",
      "type": "function"
    },
    {
      "inputs": [
        {
          "internalType": "address",
          "name": "newOwner",
          "type": "address"
        }
      ],
      "name": "transferOwnership",
      "outputs": [],
      "stateMutability": "nonpayable",
      "type": "function"
    },
    {
      "inputs": [],
      "name": "withdraw",
      "outputs": [],
      "stateMutability": "nonpayable",
      "type": "function"
    },
    {
      "stateMutability": "payable",
      "type": "receive"
    }
  ],
  "bytecode": "0x60803461012157601f61164538819003918201601f19168301916001600160401b038311848410176101265780849260209460405283398101031261012157516001600160a01b0380821691829003610121573315610108576000549060018060a01b0319913383821617600055604051913391167f8be0079c531659141344cd1fd0a4f28419497f9722a3daafe3b4186f6b6457e0600080a36001805582156100c65750600254161760025561019060045560c8600555604051611508908161013d8239f35b62461bcd60e51b815260206004820152601560248201527f496e76616c69642066656520636f6c6c6563746f7200000000000000000000006044820152606490fd5b604051631e4fbdf760e01b815260006004820152602490fd5b600080fd5b634e487b7160e01b600052604160045260246000fdfe6080604052600436101561001b575b361561001957600080fd5b005b60003560e01c806313b971fe1461014857806319063ffa146101075780633ccfd60b1461014357806341f277581461013e5780634d4d5c34146101165780635fbbc0d21461013e57806360124fee1461013957806361599189146101345780636d2272991461012f578063715018a61461012a5780637ee8b2f8146100fd5780638da5cb5b14610125578063929f8f2f1461012057806399a5d7471461011b5780639e3650c914610116578063a42dce8014610111578063c415b95c1461010c578063ee92b66014610107578063f2fde38b146101025763f3f437030361000e575b61082d565b610c88565b6101aa565b610c5f565b610bb5565b6102cf565b610b92565b610893565b61086a565b6107c1565b6104ac565b610347565b6102ed565b6102b1565b6101c8565b610164565b602090600319011261015f5760043590565b600080fd5b3461015f577f7b7c32820c86188829f5a18638e23b1dd66300db981f6ffa968aea69b474749e60206101953661014d565b61019d610d14565b80600355604051908152a1005b3461015f57600036600319011261015f576020600554604051908152f35b3461015f576000806003193601126102ae5760026001541461029c576002600155338152600660205260408120548015610261573360009081526006602052604090208290556102278280808085335af161022161103c565b506113b3565b60405190815233907fef37270ffd4697852e825c7f163a2505cfbd2d7849a69b6ad9c8829d7f90484a90602090a261025e60018055565b80f35b60405162461bcd60e51b81526020600482015260136024820152724e6f7468696e6720746f20776974686472617760681b6044820152606490fd5b604051633ee5aeb560e01b8152600490fd5b80fd5b3461015f57600036600319011261015f576020600354604051908152f35b3461015f57600036600319011261015f576020600454604051908152f35b3461015f576102fb3661014d565b610303610d14565b61030e8115156113f1565b60055460408051918252602082018390527f0cba753b90a35c7c613bcdd2e8ce8583d25404de36e470e26c1b110f35f04a2791a1600555005b3461015f576103553661014d565b61035d610d14565b6103688115156113f1565b60045460408051918252602082018390527f4ab144ffafeec232b1dd1178685f009d39935737fb3407cdf70c873d3dd7895591a1600455005b9181601f8401121561015f5782359167ffffffffffffffff831161015f576020808501948460061b01011161015f57565b60005b8381106103e55750506000910152565b81810151838201526020016103d5565b9060209161040e815180928185528580860191016103d2565b601f01601f1916010190565b602080820190808352835180925260409283810182858560051b8401019601946000925b85841061044f575050505050505090565b90919293949596858061049b600193603f198682030188528b51858060a01b038151168252838101518483015287810151151588830152606080910151916080809282015201906103f5565b99019401940192959493919061043e565b60208060031936011261015f5760043567ffffffffffffffff811161015f576104d99036906004016103a1565b916104e5831515610d6e565b6104f3600454841115610dac565b600091825b8481106107a2575061052061051861051286600354610d56565b85610e24565b341015610e31565b61052984610f34565b926000928392845b87811061067157505050907f29d76740cbc89bbaa891f53c02a91144201cbd27541018f1222521904b8dc0049161058a61059561058f610574876105c79a611000565b9361058188600354610d56565b93849134611000565b611000565b84610e24565b806105fb575b50806105cb575b506040805194855260208501919091528301523391606090a26040519182918261041a565b0390f35b60008080806105f5946105e560025460018060a01b031690565b5af16105ef61103c565b5061106c565b386105a2565b336000908152600660205260409020610615828254610e24565b90557fef14da62cafebf322bdd38df3ac0bdcc24ff3d69010b3334f3df8f03edc92cc26040518061066833948260809181526040602082015260066040820152651c99599d5b9960d21b60608201520190565b0390a23861059b565b61069b610687610682838b86610e0f565b610fb2565b84610693848c87610e0f565b0135906110ae565b9095898761078d57916106bf849392876106b78680968a610e0f565b013590610e24565b975b868c6106ce85828a610e0f565b6106d790610fb2565b946106e29189610e0f565b01356106ec610efc565b6001600160a01b039094168452838801528015156040808501919091529282606082015261071a858d610fbf565b52610725848c610fbf565b5083878d61073483828b610e0f565b61073d90610fb2565b92610748918a610e0f565b01359351928392339561075b9385610fd3565b037fa6df5a078e66f7b0e1c1657e07c0d94dc5047762340d58aa99c7acfe987f547591a361078890610dea565b610531565b509596829161079c8392610dea565b986106c1565b926107b66107bc91846106b7878987610e0f565b93610dea565b6104f8565b3461015f576000806003193601126102ae576107db610d14565b80546001600160a01b03198116825581906001600160a01b03167f8be0079c531659141344cd1fd0a4f28419497f9722a3daafe3b4186f6b6457e08280a380f35b6001600160a01b0381160361015f57565b3461015f57602036600319011261015f5760043561084a8161081c565b60018060a01b031660005260066020526020604060002054604051908152f35b3461015f57600036600319011261015f576000546040516001600160a01b039091168152602090f35b604036600319011261015f576108aa60043561081c565b60243567ffffffffffffffff811161015f576108ca9036906004016103a1565b6108d5811515610d6e565b6108e3600554821115610dac565b6000805b828210610b72576108fb9150600435611167565b61091261090a82600354610d56565b34101561111b565b61091b81610f34565b916000918291835b828110610a3a5760408051868152602081018690526105c791889161098e91610982918a916001600160a01b03600435169133917ff3dfb960931cb4c24bf2dd9e40374ac223dfb046c20ded274e863cc630308fc991a3600354610d56565b80610a1b575b34611000565b806109a1575b506040519182918261041a565b3360009081526006602052604090206109bb828254610e24565b90557fef14da62cafebf322bdd38df3ac0bdcc24ff3d69010b3334f3df8f03edc92cc260405180610a12339482608091815260406020820152600a60408201526919995957dc99599d5b9960b21b60608201520190565b0390a282610994565b610a356000808080856105e560025460018060a01b031690565b610988565b610a63610a4b610682838686610e0f565b6020610a58848787610e0f565b0135906004356112fd565b90958615610b3a579180917fa6df5a078e66f7b0e1c1657e07c0d94dc5047762340d58aa99c7acfe987f5475610a9b610b3595610dea565b985b610aab610682858a8a610e0f565b6020610ab8868b8b610e0f565b0135610ad4610ac5610efc565b6001600160a01b039093168352565b60208201528115156040820152836060820152610af1858d610fbf565b52610afc848c610fbf565b50610b0b610682858a8a610e0f565b92610b2d6020610b1c878c8c610e0f565b013591604051938493339785610fd3565b0390a3610dea565b610923565b95949180917fa6df5a078e66f7b0e1c1657e07c0d94dc5047762340d58aa99c7acfe987f5475610b6c610b3595610dea565b97610a9d565b610b86610b8c9160206106b7858789610e0f565b91610dea565b906108e7565b3461015f576020610bad610ba53661014d565b600354610d56565b604051908152f35b3461015f57602036600319011261015f57600435610bd28161081c565b610bda610d14565b6001600160a01b03908116908115610c2857816002549182167f5d16ad41baeb009cd23eb8f6c7cde5c2e0cd5acf4a33926ab488875c37c37f38600080a36001600160a01b03191617600255005b60405162461bcd60e51b815260206004820152600f60248201526e496e76616c6964206164647265737360881b6044820152606490fd5b3461015f57600036600319011261015f576002546040516001600160a01b039091168152602090f35b3461015f57602036600319011261015f57600435610ca58161081c565b610cad610d14565b6001600160a01b039081168015610cfb57600080546001600160a01b03198116831782559092167f8be0079c531659141344cd1fd0a4f28419497f9722a3daafe3b4186f6b6457e08380a380f35b604051631e4fbdf760e01b815260006004820152602490fd5b6000546001600160a01b03163303610d2857565b60405163118cdaa760e01b8152336004820152602490fd5b634e487b7160e01b600052601160045260246000fd5b81810292918115918404141715610d6957565b610d40565b15610d7557565b60405162461bcd60e51b815260206004820152600f60248201526e456d707479207472616e736665727360881b6044820152606490fd5b15610db357565b60405162461bcd60e51b815260206004820152600f60248201526e426174636820746f6f206c6172676560881b6044820152606490fd5b6000198114610d695760010190565b634e487b7160e01b600052603260045260246000fd5b9190811015610e1f5760061b0190565b610df9565b91908201809211610d6957565b15610e3857565b60405162461bcd60e51b815260206004820152602160248201527f496e73756666696369656e742076616c75652028616d6f756e74202b206665656044820152602960f81b6064820152608490fd5b634e487b7160e01b600052604160045260246000fd5b6020810190811067ffffffffffffffff821117610eb957604052565b610e87565b6040810190811067ffffffffffffffff821117610eb957604052565b90601f8019910116810190811067ffffffffffffffff821117610eb957604052565b604051906080820182811067ffffffffffffffff821117610eb957604052565b67ffffffffffffffff8111610eb95760051b60200190565b90610f3e82610f1c565b604090610f4d82519182610eda565b8381528093610f5e601f1991610f1c565b0190600092835b838110610f73575050505050565b815190608082019180831067ffffffffffffffff841117610eb95760209284528681528287818301528785830152606080830152828601015201610f65565b35610fbc8161081c565b90565b8051821015610e1f5760209160051b010190565b9092608092610fbc959460018060a01b0316835260208301521515604082015281606082015201906103f5565b91908203918211610d6957565b67ffffffffffffffff8111610eb957601f01601f191660200190565b6040519061103682610e9d565b60008252565b3d15611067573d9061104d8261100d565b9161105b6040519384610eda565b82523d6000602084013e565b606090565b1561107357565b60405162461bcd60e51b8152602060048201526013602482015272119959481d1c985b9cd9995c8819985a5b1959606a1b6044820152606490fd5b91909160008080809581945af16110c361103c565b906111065780516044116110da57610fbc9061142c565b506040516110e781610ebe565b600f81526e151c985b9cd9995c8819985a5b1959608a1b602082015290565b5060405160019261111682610e9d565b815290565b1561112257565b60405162461bcd60e51b815260206004820152601b60248201527f496e73756666696369656e74206e617469766520666f722066656500000000006044820152606490fd5b604051636eb1769f60e11b815233600482015230602482015290602090829060449082906001600160a01b03165afa908115611223576000916111f2575b50106111ad57565b60405162461bcd60e51b815260206004820152601c60248201527f496e73756666696369656e7420746f6b656e20616c6c6f77616e6365000000006044820152606490fd5b906020823d821161121b575b8161120b60209383610eda565b810103126102ae575051386111a5565b3d91506111fe565b6040513d6000823e3d90fd5b9081602091031261015f5751801515810361015f5790565b60009060033d1161125457565b905060046000803e60005160e01c90565b600060443d10610fbc57604051600319913d83016004833e815167ffffffffffffffff918282113d6024840111176112c3578184019485519384116112cb573d850101602084870101116112c35750610fbc92910160200190610eda565b949350505050565b50949350505050565b604051906112e182610ebe565b600d82526c2ab735b737bbb71032b93937b960991b6020830152565b6040516323b872dd60e01b81523360048201526001600160a01b039283166024820152604481019390935260209183916064918391600091165af19081611385575b5061137a5761134c611247565b6308c379a014611362575b600090610fbc6112d4565b61136a611265565b806113755750611357565b600091565b600190610fbc611029565b6113a59060203d81116113ac575b61139d8183610eda565b81019061122f565b503861133f565b503d611393565b156113ba57565b60405162461bcd60e51b815260206004820152600f60248201526e15da5d1a191c985dc819985a5b1959608a1b6044820152606490fd5b156113f857565b60405162461bcd60e51b815260206004820152600c60248201526b496e76616c69642073697a6560a01b6044820152606490fd5b60448151106114a75760048101518101906020816024840193031261015f5760248101519067ffffffffffffffff821161015f57018160438201121561015f57602481015161147a8161100d565b926114886040519485610eda565b8184526044828401011161015f57610fbc9160446020850191016103d2565b506040516114b481610ebe565b600e81526d155b9adb9bdddb881c995d995c9d60921b60208201529056fea26469706673582212201157759b7c996d6663d70a5b11eba14c55143d70f1b9a71d339caf68f3fae79264736f6c63430008140033",
  "linkReferences": {},
  "deployedLinkReferences": {}
}