{
  "_format": "hh-sol-artifact-1",
  "contractName": "BatchTransferETH",
  "sourceName": "contracts/batch/BatchTransferETH.sol",
  "abi": [
    {
      "inputs": [
        {
          "internalType": "address",
          "name": "_feeCollector",
          "type": "address"
        }
      ],
      "stateMutability": "nonpayable",
      "type": "constructor"
    },
    {
      "inputs": [
        {
          "internalType": "address",
          "name": "owner",
          "type": "address"
        }
      ],
      "name": "OwnableInvalidOwner",
      "type": "error"
    },
    {
      "inputs": [
        {
          "internalType": "address",
          "name": "account",
          "type": "address"
        }
      ],
      "name": "OwnableUnauthorizedAccount",
      "type": "error"
    },
    {
      "inputs": [],
      "name": "ReentrancyGuardReentrantCall",
      "type": "error"
    },
    {
      "anonymous": false,
      "inputs": [
        {
          "indexed": true,
          "internalType": "address",
          "name": "sender",
          "type": "address"
        },
        {
          "indexed": false,
          "internalType": "uint256",
          "name": "successCount",
          "type": "uint256"
        },
        {
          "indexed": false,
          "internalType": "uint256",
          "name": "failureCount",
          "type": "uint256"
        },
        {
          "indexed": false,
          "internalType": "uint256",
          "name": "refundAmount",
          "type": "uint256"
        }
      ],
      "name": "BatchNativeTransfer",
      "type": "event"
    },
    {
      "anonymous": false,
      "inputs": [
        {
          "indexed": true,
          "internalType": "address",
          "name": "sender",
          "type": "address"
        },
        {
          "indexed": true,
          "internalType": "address",
          "name": "token",
          "type": "address"
        },
        {
          "indexed": false,
          "internalType": "uint256",
          "name": "successCount",
          "type": "uint256"
        },
        {
          "indexed": false,
          "internalType": "uint256",
          "name": "failureCount",
          "type": "uint256"
        }
      ],
      "name": "BatchTokenTransfer",
      "type": "event"
    },
    {
      "anonymous": false,
      "inputs": [
        {
          "indexed": true,
          "internalType": "address",
          "name": "oldCollector",
          "type": "address"
        },
        {
          "indexed": true,
          "internalType": "address",
          "name": "newCollector",
          "type": "address"
        }
      ],
      "name": "FeeCollectorUpdated",
      "type": "event"
    },
    {
      "anonymous": false,
      "inputs": [
        {
          "indexed": false,
          "internalType": "uint256",
          "name": "perAddressFee",
          "type": "uint256"
        }
      ],
      "name": "FeeConfigUpdated",
      "type": "event"
    },
    {
      "anonymous": false,
      "inputs": [
        {
          "indexed": false,
          "internalType": "uint256",
          "name": "oldSize",
          "type": "uint256"
        },
        {
          "indexed": false,
          "internalType": "uint256",
          "name": "newSize",
          "type": "uint256"
        }
      ],
      "name": "MaxErc20BatchSizeUpdated",
      "type": "event"
    },
    {
      "anonymous": false,
      "inputs": [
        {
          "indexed": false,
          "internalType": "uint256",
          "name": "oldSize",
          "type": "uint256"
        },
        {
          "indexed": false,
          "internalType": "uint256",
          "name": "newSize",
          "type": "uint256"
        }
      ],
      "name": "MaxNativeBatchSizeUpdated",
      "type": "event"
    },
    {
      "anonymous": false,
      "inputs": [
        {
          "indexed": true,
          "internalType": "address",
          "name": "previousOwner",
          "type": "address"
        },
        {
          "indexed": true,
          "internalType": "address",
          "name": "newOwner",
          "type": "address"
        }
      ],
      "name": "OwnershipTransferred",
      "type": "event"
    },
    {
      "anonymous": false,
      "inputs": [
        {
          "indexed": true,
          "internalType": "address",
          "name": "sender",
          "type": "address"
        },
        {
          "indexed": true,
          "internalType": "uint256",
          "name": "batchIndex",
          "type": "uint256"
        },
        {
          "indexed": false,
          "internalType": "address",
          "name": "to",
          "type": "address"
        },
        {
          "indexed": false,
          "internalType": "uint256",
          "name": "amount",
          "type": "uint256"
        }
      ],
      "name": "TransferDetail",
      "type": "event"
    },
    {
      "inputs": [
        {
          "components": [
            {
              "internalType": "address",
              "name": "to",
              "type": "address"
            },
            {
              "internalType": "uint256",
              "name": "amount",
              "type": "uint256"
            }
          ],
          "internalType": "struct BatchTransferETH.Transfer[]",
          "name": "transfers",
          "type": "tuple[]"
        }
      ],
      "name": "batchTransferNative",
      "outputs": [],
      "stateMutability": "payable",
      "type": "function"
    },
    {
      "inputs": [
        {
          "internalType": "address",
          "name": "token",
          "type": "address"
        },
        {
          "components": [
            {
              "internalType": "address",
              "name": "to",
              "type": "address"
            },
            {
              "internalType": "uint256",
              "name": "amount",
              "type": "uint256"
            }
          ],
          "internalType": "struct BatchTransferETH.Transfer[]",
          "name": "transfers",
          "type": "tuple[]"
        }
      ],
      "name": "batchTransferToken",
      "outputs": [],
      "stateMutability": "payable",
      "type": "function"
    },
    {
      "inputs": [
        {
          "internalType": "uint256",
          "name": "addressCount",
          "type": "uint256"
        }
      ],
      "name": "calculateFee",
      "outputs": [
        {
          "internalType": "uint256",
          "name": "",
          "type": "uint256"
        }
      ],
      "stateMutability": "view",
      "type": "function"
    },
    {
      "inputs": [],
      "name": "feeCollector",
      "outputs": [
        {
          "internalType": "address",
          "name": "",
          "type": "address"
        }
      ],
      "stateMutability": "view",
      "type": "function"
    },
    {
      "inputs": [],
      "name": "getFeeConfig",
      "outputs": [
        {
          "internalType": "uint256",
          "name": "",
          "type": "uint256"
        }
      ],
      "stateMutability": "view",
      "type": "function"
    },
    {
      "inputs": [],
      "name": "getMaxErc20BatchSize",
      "outputs": [
        {
          "internalType": "uint256",
          "name": "",
          "type": "uint256"
        }
      ],
      "stateMutability": "view",
      "type": "function"
    },
    {
      "inputs": [],
      "name": "getMaxNativeBatchSize",
      "outputs": [
        {
          "internalType": "uint256",
          "name": "",
          "type": "uint256"
        }
      ],
      "stateMutability": "view",
      "type": "function"
    },
    {
      "inputs": [],
      "name": "maxErc20BatchSize",
      "outputs": [
        {
          "internalType": "uint256",
          "name": "",
          "type": "uint256"
        }
      ],
      "stateMutability": "view",
      "type": "function"
    },
    {
      "inputs": [],
      "name": "maxNativeBatchSize",
      "outputs": [
        {
          "internalType": "uint256",
          "name": "",
          "type": "uint256"
        }
      ],
      "stateMutability": "view",
      "type": "function"
    },
    {
      "inputs": [],
      "name": "owner",
      "outputs": [
        {
          "internalType": "address",
          "name": "",
          "type": "address"
        }
      ],
      "stateMutability": "view",
      "type": "function"
    },
    {
      "inputs": [],
      "name": "perAddressFee",
      "outputs": [
        {
          "internalType": "uint256",
          "name": "",
          "type": "uint256"
        }
      ],
      "stateMutability": "view",
      "type": "function"
    },
    {
      "inputs": [],
      "name": "renounceOwnership",
      "outputs": [],
      "stateMutability": "nonpayable",
      "type": "function"
    },
    {
      "inputs": [
        {
          "internalType": "address",
          "name": "_feeCollector",
          "type": "address"
        }
      ],
      "name": "setFeeCollector",
      "outputs": [],
      "stateMutability": "nonpayable",
      "type": "function"
    },
    {
      "inputs": [
        {
          "internalType": "uint256",
          "name": "_perAddressFee",
          "type": "uint256"
        }
      ],
      "name": "setFeeConfig",
      "outputs": [],
      "stateMutability": "nonpayable",
      "type": "function"
    },
    {
      "inputs": [
        {
          "internalType": "uint256",
          "name": "_maxErc20BatchSize",
          "type": "uint256"
        }
      ],
      "name": "setMaxErc20BatchSize",
      "outputs": [],
      "stateMutability": "nonpayable",
      "type": "function"
    },
    {
      "inputs": [
        {
          "internalType": "uint256",
          "name": "_maxNativeBatchSize",
          "type": "uint256"
        }
      ],
      "name": "setMaxNativeBatchSize",
      "outputs": [],
      "stateMutability": "nonpayable",
      "type": "function"
    },
    {
      "inputs": [
        {
          "internalType": "address",
          "name": "newOwner",
          "type": "address"
        }
      ],
      "name": "transferOwnership",
      "outputs": [],
      "stateMutability": "nonpayable",
      "type": "function"
    },
    {
      "stateMutability": "payable",
      "type": "receive"
    }
  ],
  "bytecode": "0x60803461013057601f610ee138819003918201601f19168301916001600160401b038311848410176101355780849260209460405283398101031261013057516001600160a01b0381169081900361013057331561011a5760008054336001600160a01b03198216811783556040519290916001600160a01b0316907f8be0079c531659141344cd1fd0a4f28419497f9722a3daafe3b4186f6b6457e09080a36001805581156100d85750600280546001600160a01b03191691909117905561019060045560c8600555604051610d95908161014c8239f35b62461bcd60e51b815260206004820152601560248201527f496e76616c69642066656520636f6c6c6563746f7200000000000000000000006044820152606490fd5b631e4fbdf760e01b600052600060045260246000fd5b600080fd5b634e487b7160e01b600052604160045260246000fdfe6080604052600436101561001b575b361561001957600080fd5b005b60003560e01c806313b971fe146109fb57806319063ffa1461016957806341f27758146109dd5780634d4d5c341461025a5780635fbbc0d2146109dd57806360124fee1461097f57806361599189146109215780636d22729914610686578063715018a61461062d5780638da5cb5b14610604578063929f8f2f146102a157806399a5d747146102785780639e3650c91461025a578063a42dce80146101b0578063c415b95c14610187578063ee92b660146101695763f2fde38b0361000e5734610164576020366003190112610164576100f4610a78565b6100fc610c8b565b6001600160a01b0316801561014e57600080546001600160a01b03198116831782556001600160a01b0316907f8be0079c531659141344cd1fd0a4f28419497f9722a3daafe3b4186f6b6457e09080a3005b631e4fbdf760e01b600052600060045260246000fd5b600080fd5b34610164576000366003190112610164576020600554604051908152f35b34610164576000366003190112610164576002546040516001600160a01b039091168152602090f35b34610164576020366003190112610164576101c9610a78565b6101d1610c8b565b6001600160a01b0316801561022357600254816001600160a01b0382167f5d16ad41baeb009cd23eb8f6c7cde5c2e0cd5acf4a33926ab488875c37c37f38600080a36001600160a01b03191617600255005b60405162461bcd60e51b815260206004820152600f60248201526e496e76616c6964206164647265737360881b6044820152606490fd5b34610164576000366003190112610164576020600454604051908152f35b34610164576020366003190112610164576020610299600435600354610b8e565b604051908152f35b6040366003190112610164576102b5610a78565b60243567ffffffffffffffff8111610164576102d5903690600401610a47565b6102e0929192610cb4565b6102eb811515610ac9565b6102f9600554821115610b07565b60009160005b8281106105e15750604051636eb1769f60e11b81523360048201523060248201526001600160a01b0382169390602081604481885afa9081156105d5576000916105a3575b501061055e5761035682600354610b8e565b34106105195792906000936000926000925b808410610455576103be6103b28888886040519083825260208201527ff3dfb960931cb4c24bf2dd9e40374ac223dfb046c20ded274e863cc630308fc960403392a3600354610b8e565b8061042c575b34610bc4565b806103ca575b60018055005b600080808093335af16103db610c09565b50156103e757806103c4565b60405162461bcd60e51b815260206004820152601a60248201527f46656520726566756e64207472616e73666572206661696c65640000000000006044820152606490fd5b61045060008080808560018060a01b03600254165af161044a610c09565b50610c49565b6103b8565b9091929561048561046f61046a898587610b45565b610ba1565b602061047c8a8688610b45565b01359086610cd6565b156104a057610495600191610bb5565b965b01929190610368565b95936104ad600191610bb5565b94806104bd61046a828688610b45565b7f2810545017b09d1f4dcb2f109a63e8827d387ace6e9b868671adad8805f1f61c61051160206104ee85898b610b45565b604080516001600160a01b03909616865291013560208501523393918291820190565b0390a3610497565b60405162461bcd60e51b815260206004820152601b60248201527f496e73756666696369656e74206e617469766520666f722066656500000000006044820152606490fd5b60405162461bcd60e51b815260206004820152601c60248201527f496e73756666696369656e7420746f6b656e20616c6c6f77616e6365000000006044820152606490fd5b90506020813d6020116105cd575b816105be60209383610bd1565b81010312610164575186610344565b3d91506105b1565b6040513d6000823e3d90fd5b926105fd60019160206105f587878a610b45565b013590610b6b565b93016102ff565b34610164576000366003190112610164576000546040516001600160a01b039091168152602090f35b3461016457600036600319011261016457610646610c8b565b600080546001600160a01b0319811682556001600160a01b03167f8be0079c531659141344cd1fd0a4f28419497f9722a3daafe3b4186f6b6457e08280a3005b60203660031901126101645760043567ffffffffffffffff8111610164576106b2903690600401610a47565b906106bb610cb4565b6106c6821515610ac9565b6106d4600454831115610b07565b6000805b83811061090657506106f56106ef84600354610b8e565b82610b6b565b34106108b757600080936000936000905b82821061080d57505061073d6107226107389361074393610bc4565b9361072f87600354610b8e565b93849134610bc4565b610bc4565b84610b6b565b90806107e9575b508061078e575b50604051928352602083015260408201527f29d76740cbc89bbaa891f53c02a91144201cbd27541018f1222521904b8dc00460603392a260018055005b600080808093335af161079f610c09565b50156107ab5783610751565b60405162461bcd60e51b81526020600482015260166024820152751499599d5b99081d1c985b9cd9995c8819985a5b195960521b6044820152606490fd5b60008080806108079460018060a01b03600254165af161044a610c09565b8461074a565b91925093600080808061082461046a8a8989610b45565b60206108318b8a8a610b45565b0135905af161083e610c09565b506108a45761085660019160206105f5888787610b45565b948061086661046a828787610b45565b7f2810545017b09d1f4dcb2f109a63e8827d387ace6e9b868671adad8805f1f61c61089760206104ee858a8a610b45565b0390a35b01859291610706565b93946108b1600191610bb5565b9561089b565b60405162461bcd60e51b815260206004820152602160248201527f496e73756666696369656e742076616c75652028616d6f756e74202b206665656044820152602960f81b6064820152608490fd5b9061091a60019160206105f5858888610b45565b91016106d8565b346101645760203660031901126101645760043561093d610c8b565b610948811515610a8e565b7f4ab144ffafeec232b1dd1178685f009d39935737fb3407cdf70c873d3dd7895560406004548151908152836020820152a1600455005b346101645760203660031901126101645760043561099b610c8b565b6109a6811515610a8e565b7f0cba753b90a35c7c613bcdd2e8ce8583d25404de36e470e26c1b110f35f04a2760406005548151908152836020820152a1600555005b34610164576000366003190112610164576020600354604051908152f35b34610164576020366003190112610164577f7b7c32820c86188829f5a18638e23b1dd66300db981f6ffa968aea69b474749e6020600435610a3a610c8b565b80600355604051908152a1005b9181601f840112156101645782359167ffffffffffffffff8311610164576020808501948460061b01011161016457565b600435906001600160a01b038216820361016457565b15610a9557565b60405162461bcd60e51b815260206004820152600c60248201526b496e76616c69642073697a6560a01b6044820152606490fd5b15610ad057565b60405162461bcd60e51b815260206004820152600f60248201526e456d707479207472616e736665727360881b6044820152606490fd5b15610b0e57565b60405162461bcd60e51b815260206004820152600f60248201526e426174636820746f6f206c6172676560881b6044820152606490fd5b9190811015610b555760061b0190565b634e487b7160e01b600052603260045260246000fd5b91908201809211610b7857565b634e487b7160e01b600052601160045260246000fd5b81810292918115918404141715610b7857565b356001600160a01b03811681036101645790565b6000198114610b785760010190565b91908203918211610b7857565b90601f8019910116810190811067ffffffffffffffff821117610bf357604052565b634e487b7160e01b600052604160045260246000fd5b3d15610c44573d9067ffffffffffffffff8211610bf35760405191610c38601f8201601f191660200184610bd1565b82523d6000602084013e565b606090565b15610c5057565b60405162461bcd60e51b8152602060048201526013602482015272119959481d1c985b9cd9995c8819985a5b1959606a1b6044820152606490fd5b6000546001600160a01b03163303610c9f57565b63118cdaa760e01b6000523360045260246000fd5b600260015414610cc5576002600155565b633ee5aeb560e01b60005260046000fd5b6040516323b872dd60e01b81523360048201526001600160a01b039283166024820152604481019390935260209183916064918391600091165af19081610d27575b50610d2257600090565b600190565b6020813d602011610d57575b81610d4060209383610bd1565b8101031261016457518015158114610d1857600080fd5b3d9150610d3356fea264697066735822122012d68bb8662a975adf6f553c112f5c171e4849328b82bafa70f8777878f397a264736f6c634300081c0033",
  "linkReferences": {},
  "deployedLinkReferences": {}
}