{
  "_format": "hh-sol-artifact-1",
  "contractName": "BatchTransferETH",
  "sourceName": "contracts/batch/BatchTransferETH.sol",
  "abi": [
    {
      "inputs": [
        {
          "internalType": "address",
          "name": "_feeCollector",
          "type": "address"
        }
      ],
      "stateMutability": "nonpayable",
      "type": "constructor"
    },
    {
      "inputs": [
        {
          "internalType": "address",
          "name": "owner",
          "type": "address"
        }
      ],
      "name": "OwnableInvalidOwner",
      "type": "error"
    },
    {
      "inputs": [
        {
          "internalType": "address",
          "name": "account",
          "type": "address"
        }
      ],
      "name": "OwnableUnauthorizedAccount",
      "type": "error"
    },
    {
      "inputs": [],
      "name": "ReentrancyGuardReentrantCall",
      "type": "error"
    },
    {
      "anonymous": false,
      "inputs": [
        {
          "indexed": true,
          "internalType": "address",
          "name": "user",
          "type": "address"
        },
        {
          "indexed": false,
          "internalType": "uint256",
          "name": "amount",
          "type": "uint256"
        },
        {
          "indexed": false,
          "internalType": "string",
          "name": "reason",
          "type": "string"
        }
      ],
      "name": "BalanceAdded",
      "type": "event"
    },
    {
      "anonymous": false,
      "inputs": [
        {
          "indexed": true,
          "internalType": "address",
          "name": "sender",
          "type": "address"
        },
        {
          "indexed": false,
          "internalType": "uint256",
          "name": "successCount",
          "type": "uint256"
        },
        {
          "indexed": false,
          "internalType": "uint256",
          "name": "failureCount",
          "type": "uint256"
        },
        {
          "indexed": false,
          "internalType": "uint256",
          "name": "refundAmount",
          "type": "uint256"
        }
      ],
      "name": "BatchNativeTransfer",
      "type": "event"
    },
    {
      "anonymous": false,
      "inputs": [
        {
          "indexed": true,
          "internalType": "address",
          "name": "sender",
          "type": "address"
        },
        {
          "indexed": true,
          "internalType": "address",
          "name": "token",
          "type": "address"
        },
        {
          "indexed": false,
          "internalType": "uint256",
          "name": "successCount",
          "type": "uint256"
        },
        {
          "indexed": false,
          "internalType": "uint256",
          "name": "failureCount",
          "type": "uint256"
        }
      ],
      "name": "BatchTokenTransfer",
      "type": "event"
    },
    {
      "anonymous": false,
      "inputs": [
        {
          "indexed": true,
          "internalType": "address",
          "name": "oldCollector",
          "type": "address"
        },
        {
          "indexed": true,
          "internalType": "address",
          "name": "newCollector",
          "type": "address"
        }
      ],
      "name": "FeeCollectorUpdated",
      "type": "event"
    },
    {
      "anonymous": false,
      "inputs": [
        {
          "indexed": false,
          "internalType": "uint256",
          "name": "perAddressFee",
          "type": "uint256"
        }
      ],
      "name": "FeeConfigUpdated",
      "type": "event"
    },
    {
      "anonymous": false,
      "inputs": [
        {
          "indexed": false,
          "internalType": "uint256",
          "name": "oldSize",
          "type": "uint256"
        },
        {
          "indexed": false,
          "internalType": "uint256",
          "name": "newSize",
          "type": "uint256"
        }
      ],
      "name": "MaxErc20BatchSizeUpdated",
      "type": "event"
    },
    {
      "anonymous": false,
      "inputs": [
        {
          "indexed": false,
          "internalType": "uint256",
          "name": "oldSize",
          "type": "uint256"
        },
        {
          "indexed": false,
          "internalType": "uint256",
          "name": "newSize",
          "type": "uint256"
        }
      ],
      "name": "MaxNativeBatchSizeUpdated",
      "type": "event"
    },
    {
      "anonymous": false,
      "inputs": [
        {
          "indexed": true,
          "internalType": "address",
          "name": "previousOwner",
          "type": "address"
        },
        {
          "indexed": true,
          "internalType": "address",
          "name": "newOwner",
          "type": "address"
        }
      ],
      "name": "OwnershipTransferred",
      "type": "event"
    },
    {
      "anonymous": false,
      "inputs": [
        {
          "indexed": true,
          "internalType": "address",
          "name": "sender",
          "type": "address"
        },
        {
          "indexed": true,
          "internalType": "uint256",
          "name": "batchIndex",
          "type": "uint256"
        },
        {
          "indexed": false,
          "internalType": "address",
          "name": "to",
          "type": "address"
        },
        {
          "indexed": false,
          "internalType": "uint256",
          "name": "amount",
          "type": "uint256"
        },
        {
          "indexed": false,
          "internalType": "bool",
          "name": "success",
          "type": "bool"
        },
        {
          "indexed": false,
          "internalType": "string",
          "name": "failureReason",
          "type": "string"
        }
      ],
      "name": "TransferDetail",
      "type": "event"
    },
    {
      "anonymous": false,
      "inputs": [
        {
          "indexed": true,
          "internalType": "address",
          "name": "user",
          "type": "address"
        },
        {
          "indexed": false,
          "internalType": "uint256",
          "name": "amount",
          "type": "uint256"
        }
      ],
      "name": "WithdrawalSuccess",
      "type": "event"
    },
    {
      "inputs": [
        {
          "components": [
            {
              "internalType": "address",
              "name": "to",
              "type": "address"
            },
            {
              "internalType": "uint256",
              "name": "amount",
              "type": "uint256"
            }
          ],
          "internalType": "struct BatchTransferETH.Transfer[]",
          "name": "transfers",
          "type": "tuple[]"
        }
      ],
      "name": "batchTransferNative",
      "outputs": [
        {
          "components": [
            {
              "internalType": "address",
              "name": "to",
              "type": "address"
            },
            {
              "internalType": "uint256",
              "name": "amount",
              "type": "uint256"
            },
            {
              "internalType": "bool",
              "name": "success",
              "type": "bool"
            },
            {
              "internalType": "string",
              "name": "failureReason",
              "type": "string"
            }
          ],
          "internalType": "struct BatchTransferETH.TransferResult[]",
          "name": "results",
          "type": "tuple[]"
        }
      ],
      "stateMutability": "payable",
      "type": "function"
    },
    {
      "inputs": [
        {
          "internalType": "address",
          "name": "token",
          "type": "address"
        },
        {
          "components": [
            {
              "internalType": "address",
              "name": "to",
              "type": "address"
            },
            {
              "internalType": "uint256",
              "name": "amount",
              "type": "uint256"
            }
          ],
          "internalType": "struct BatchTransferETH.Transfer[]",
          "name": "transfers",
          "type": "tuple[]"
        }
      ],
      "name": "batchTransferToken",
      "outputs": [
        {
          "components": [
            {
              "internalType": "address",
              "name": "to",
              "type": "address"
            },
            {
              "internalType": "uint256",
              "name": "amount",
              "type": "uint256"
            },
            {
              "internalType": "bool",
              "name": "success",
              "type": "bool"
            },
            {
              "internalType": "string",
              "name": "failureReason",
              "type": "string"
            }
          ],
          "internalType": "struct BatchTransferETH.TransferResult[]",
          "name": "results",
          "type": "tuple[]"
        }
      ],
      "stateMutability": "payable",
      "type": "function"
    },
    {
      "inputs": [
        {
          "internalType": "uint256",
          "name": "addressCount",
          "type": "uint256"
        }
      ],
      "name": "calculateFee",
      "outputs": [
        {
          "internalType": "uint256",
          "name": "",
          "type": "uint256"
        }
      ],
      "stateMutability": "view",
      "type": "function"
    },
    {
      "inputs": [],
      "name": "feeCollector",
      "outputs": [
        {
          "internalType": "address",
          "name": "",
          "type": "address"
        }
      ],
      "stateMutability": "view",
      "type": "function"
    },
    {
      "inputs": [],
      "name": "getFeeConfig",
      "outputs": [
        {
          "internalType": "uint256",
          "name": "",
          "type": "uint256"
        }
      ],
      "stateMutability": "view",
      "type": "function"
    },
    {
      "inputs": [],
      "name": "getMaxErc20BatchSize",
      "outputs": [
        {
          "internalType": "uint256",
          "name": "",
          "type": "uint256"
        }
      ],
      "stateMutability": "view",
      "type": "function"
    },
    {
      "inputs": [],
      "name": "getMaxNativeBatchSize",
      "outputs": [
        {
          "internalType": "uint256",
          "name": "",
          "type": "uint256"
        }
      ],
      "stateMutability": "view",
      "type": "function"
    },
    {
      "inputs": [
        {
          "internalType": "address",
          "name": "user",
          "type": "address"
        }
      ],
      "name": "getPendingWithdrawal",
      "outputs": [
        {
          "internalType": "uint256",
          "name": "",
          "type": "uint256"
        }
      ],
      "stateMutability": "view",
      "type": "function"
    },
    {
      "inputs": [],
      "name": "maxErc20BatchSize",
      "outputs": [
        {
          "internalType": "uint256",
          "name": "",
          "type": "uint256"
        }
      ],
      "stateMutability": "view",
      "type": "function"
    },
    {
      "inputs": [],
      "name": "maxNativeBatchSize",
      "outputs": [
        {
          "internalType": "uint256",
          "name": "",
          "type": "uint256"
        }
      ],
      "stateMutability": "view",
      "type": "function"
    },
    {
      "inputs": [],
      "name": "owner",
      "outputs": [
        {
          "internalType": "address",
          "name": "",
          "type": "address"
        }
      ],
      "stateMutability": "view",
      "type": "function"
    },
    {
      "inputs": [
        {
          "internalType": "address",
          "name": "",
          "type": "address"
        }
      ],
      "name": "pendingWithdrawals",
      "outputs": [
        {
          "internalType": "uint256",
          "name": "",
          "type": "uint256"
        }
      ],
      "stateMutability": "view",
      "type": "function"
    },
    {
      "inputs": [],
      "name": "perAddressFee",
      "outputs": [
        {
          "internalType": "uint256",
          "name": "",
          "type": "uint256"
        }
      ],
      "stateMutability": "view",
      "type": "function"
    },
    {
      "inputs": [],
      "name": "renounceOwnership",
      "outputs": [],
      "stateMutability": "nonpayable",
      "type": "function"
    },
    {
      "inputs": [
        {
          "internalType": "address",
          "name": "_feeCollector",
          "type": "address"
        }
      ],
      "name": "setFeeCollector",
      "outputs": [],
      "stateMutability": "nonpayable",
      "type": "function"
    },
    {
      "inputs": [
        {
          "internalType": "uint256",
          "name": "_perAddressFee",
          "type": "uint256"
        }
      ],
      "name": "setFeeConfig",
      "outputs": [],
      "stateMutability": "nonpayable",
      "type": "function"
    },
    {
      "inputs": [
        {
          "internalType": "uint256",
          "name": "_maxErc20BatchSize",
          "type": "uint256"
        }
      ],
      "name": "setMaxErc20BatchSize",
      "outputs": [],
      "stateMutability": "nonpayable",
      "type": "function"
    },
    {
      "inputs": [
        {
          "internalType": "uint256",
          "name": "_maxNativeBatchSize",
          "type": "uint256"
        }
      ],
      "name": "setMaxNativeBatchSize",
      "outputs": [],
      "stateMutability": "nonpayable",
      "type": "function"
    },
    {
      "inputs": [
        {
          "internalType": "address",
          "name": "newOwner",
          "type": "address"
        }
      ],
      "name": "transferOwnership",
      "outputs": [],
      "stateMutability": "nonpayable",
      "type": "function"
    },
    {
      "inputs": [],
      "name": "withdraw",
      "outputs": [],
      "stateMutability": "nonpayable",
      "type": "function"
    },
    {
      "stateMutability": "payable",
      "type": "receive"
    }
  ],
  "bytecode": "0x60803461013057601f6115dd38819003918201601f19168301916001600160401b038311848410176101355780849260209460405283398101031261013057516001600160a01b0381169081900361013057331561011a5760008054336001600160a01b03198216811783556040519290916001600160a01b0316907f8be0079c531659141344cd1fd0a4f28419497f9722a3daafe3b4186f6b6457e09080a36001805581156100d85750600280546001600160a01b03191691909117905561019060045560c8600555604051611491908161014c8239f35b62461bcd60e51b815260206004820152601560248201527f496e76616c69642066656520636f6c6c6563746f7200000000000000000000006044820152606490fd5b631e4fbdf760e01b600052600060045260246000fd5b600080fd5b634e487b7160e01b600052604160045260246000fdfe6080604052600436101561001b575b361561001957600080fd5b005b60003560e01c806313b971fe1461014857806319063ffa146101075780633ccfd60b1461014357806341f277581461013e5780634d4d5c34146101165780635fbbc0d21461013e57806360124fee1461013957806361599189146101345780636d2272991461012f578063715018a61461012a5780637ee8b2f8146100fd5780638da5cb5b14610125578063929f8f2f1461012057806399a5d7471461011b5780639e3650c914610116578063a42dce8014610111578063c415b95c1461010c578063ee92b66014610107578063f2fde38b146101025763f3f437030361000e575b610804565b610c12565b6101aa565b610be9565b610b3b565b6102c8565b610b18565b61086a565b610841565b61079a565b6104a1565b610340565b6102e6565b6102aa565b6101c8565b610164565b602090600319011261015f5760043590565b600080fd5b3461015f577f7b7c32820c86188829f5a18638e23b1dd66300db981f6ffa968aea69b474749e60206101953661014d565b61019d61108c565b80600355604051908152a1005b3461015f57600036600319011261015f576020600554604051908152f35b3461015f57600036600319011261015f57600260015414610299576002600155336000526006602052604060002054801561025e5733600090815260066020526040812055610227600080808085335af1610221610d1e565b50610d4e565b60405190815233907fef37270ffd4697852e825c7f163a2505cfbd2d7849a69b6ad9c8829d7f90484a90602090a261001960018055565b60405162461bcd60e51b81526020600482015260136024820152724e6f7468696e6720746f20776974686472617760681b6044820152606490fd5b633ee5aeb560e01b60005260046000fd5b3461015f57600036600319011261015f576020600354604051908152f35b3461015f57600036600319011261015f576020600454604051908152f35b3461015f576102f43661014d565b6102fc61108c565b610307811515610d8c565b60055460408051918252602082018390527f0cba753b90a35c7c613bcdd2e8ce8583d25404de36e470e26c1b110f35f04a2791a1600555005b3461015f5761034e3661014d565b61035661108c565b610361811515610d8c565b60045460408051918252602082018390527f4ab144ffafeec232b1dd1178685f009d39935737fb3407cdf70c873d3dd7895591a1600455005b9181601f8401121561015f5782359167ffffffffffffffff831161015f576020808501948460061b01011161015f57565b60005b8381106103de5750506000910152565b81810151838201526020016103ce565b90602091610407815180928185528580860191016103cb565b601f01601f1916010190565b602081016020825282518091526040820191602060408360051b8301019401926000915b83831061044657505050505090565b9091929394602080610492600193603f19868203018752608060608b51878060a01b038151168452858101518685015260408101511515604085015201519181606082015201906103ee565b97019301930191939290610437565b602036600319011261015f5760043567ffffffffffffffff811161015f576104cd90369060040161039a565b6104d8811515610dc7565b6104e6600454821115610e05565b60009060005b81811061077f575061051461050c61050683600354610e96565b84610e84565b341015610ea9565b61051d81610f17565b9160009160009460005b828110610660575050937f29d76740cbc89bbaa891f53c02a91144201cbd27541018f1222521904b8dc0049161057f610584610506610569876105b69a610ff1565b9361057688600354610e96565b93849134610ff1565b610ff1565b806105ea575b50806105ba575b506040805194855260208501919091528301523391606090a260405191829182610413565b0390f35b60008080806105e4946105d460025460018060a01b031690565b5af16105de610d1e565b50610ffe565b38610591565b336000908152600660205260409020610604828254610e84565b90557fef14da62cafebf322bdd38df3ac0bdcc24ff3d69010b3334f3df8f03edc92cc26040518061065733948260809181526040602082015260066040820152651c99599d5b9960d21b60608201520190565b0390a23861058a565b61068b610676610671838686610e59565b610f94565b6020610683848787610e59565b0135906110b5565b90978861075a5791809160008051602061143c8339815191526106bf60019560206106b7868b8b610e59565b013590610e84565b9a5b6106cf610671858a8a610e59565b60206106dc868b8b610e59565b01356106f86106e9610cdc565b6001600160a01b039093168352565b60208201528115156040820152836060820152610715858d610fb0565b52610720848c610fb0565b5061072f610671858a8a610e59565b926107516020610740878c8c610e59565b013591604051938493339785610fc4565b0390a301610527565b979591809160008051602061143c833981519152610779600195610fa1565b986106c1565b9161079360019160206106b7868689610e59565b92016104ec565b3461015f57600036600319011261015f576107b361108c565b600080546001600160a01b0319811682556001600160a01b03167f8be0079c531659141344cd1fd0a4f28419497f9722a3daafe3b4186f6b6457e08280a3005b6001600160a01b0381160361015f57565b3461015f57602036600319011261015f57600435610821816107f3565b60018060a01b031660005260066020526020604060002054604051908152f35b3461015f57600036600319011261015f576000546040516001600160a01b039091168152602090f35b604036600319011261015f57600435610882816107f3565b60243567ffffffffffffffff811161015f576108a290369060040161039a565b916108ae831515610dc7565b6108bc600554841115610e05565b6000805b848210610afd576108d2915082611181565b6108e96108e184600354610e96565b341015611040565b6108f283610f17565b9160009360009160005b828110610a115760408051888152602081018690526105b691889161096591610959918c916001600160a01b038c169133917ff3dfb960931cb4c24bf2dd9e40374ac223dfb046c20ded274e863cc630308fc991a3600354610e96565b806109f2575b34610ff1565b80610978575b5060405191829182610413565b336000908152600660205260409020610992828254610e84565b90557fef14da62cafebf322bdd38df3ac0bdcc24ff3d69010b3334f3df8f03edc92cc2604051806109e9339482608091815260406020820152600a60408201526919995957dc99599d5b9960b21b60608201520190565b0390a28261096b565b610a0c6000808080856105d460025460018060a01b031690565b61095f565b610a38610a22610671838686610e59565b6020610a2f848787610e59565b013590876112e1565b90978815610ad85791809160008051602061143c833981519152610a5d600195610fa1565b9a5b610a6d610671858a8a610e59565b6020610a7a868b8b610e59565b0135610a876106e9610cdc565b60208201528115156040820152836060820152610aa4858d610fb0565b52610aaf848c610fb0565b50610abe610671858a8a610e59565b92610acf6020610740878c8c610e59565b0390a3016108fc565b979491809160008051602061143c833981519152610af7600195610fa1565b97610a5f565b610b1060019160206106b7858989610e59565b9101906108c0565b3461015f576020610b33610b2b3661014d565b600354610e96565b604051908152f35b3461015f57602036600319011261015f57600435610b58816107f3565b610b6061108c565b6001600160a01b03168015610bb257600254816001600160a01b0382167f5d16ad41baeb009cd23eb8f6c7cde5c2e0cd5acf4a33926ab488875c37c37f38600080a36001600160a01b03191617600255005b60405162461bcd60e51b815260206004820152600f60248201526e496e76616c6964206164647265737360881b6044820152606490fd5b3461015f57600036600319011261015f576002546040516001600160a01b039091168152602090f35b3461015f57602036600319011261015f57600435610c2f816107f3565b610c3761108c565b6001600160a01b03168015610c8957600080546001600160a01b03198116831782556001600160a01b0316907f8be0079c531659141344cd1fd0a4f28419497f9722a3daafe3b4186f6b6457e09080a3005b631e4fbdf760e01b600052600060045260246000fd5b634e487b7160e01b600052604160045260246000fd5b90601f8019910116810190811067ffffffffffffffff821117610cd757604052565b610c9f565b60405190610ceb608083610cb5565b565b67ffffffffffffffff8111610cd757601f01601f191660200190565b60405190610d18602083610cb5565b60008252565b3d15610d49573d90610d2f82610ced565b91610d3d6040519384610cb5565b82523d6000602084013e565b606090565b15610d5557565b60405162461bcd60e51b815260206004820152600f60248201526e15da5d1a191c985dc819985a5b1959608a1b6044820152606490fd5b15610d9357565b60405162461bcd60e51b815260206004820152600c60248201526b496e76616c69642073697a6560a01b6044820152606490fd5b15610dce57565b60405162461bcd60e51b815260206004820152600f60248201526e456d707479207472616e736665727360881b6044820152606490fd5b15610e0c57565b60405162461bcd60e51b815260206004820152600f60248201526e426174636820746f6f206c6172676560881b6044820152606490fd5b634e487b7160e01b600052603260045260246000fd5b9190811015610e695760061b0190565b610e43565b634e487b7160e01b600052601160045260246000fd5b91908201809211610e9157565b610e6e565b81810292918115918404141715610e9157565b15610eb057565b60405162461bcd60e51b815260206004820152602160248201527f496e73756666696369656e742076616c75652028616d6f756e74202b206665656044820152602960f81b6064820152608490fd5b67ffffffffffffffff8111610cd75760051b60200190565b90610f2182610eff565b610f2e6040519182610cb5565b8281528092610f3f601f1991610eff565b0160005b818110610f4f57505050565b60405190608082019180831067ffffffffffffffff841117610cd757602092604052600081526000838201526000604082015260608082015282828601015201610f43565b35610f9e816107f3565b90565b6000198114610e915760010190565b8051821015610e695760209160051b010190565b9092608092610f9e959460018060a01b0316835260208301521515604082015281606082015201906103ee565b91908203918211610e9157565b1561100557565b60405162461bcd60e51b8152602060048201526013602482015272119959481d1c985b9cd9995c8819985a5b1959606a1b6044820152606490fd5b1561104757565b60405162461bcd60e51b815260206004820152601b60248201527f496e73756666696369656e74206e617469766520666f722066656500000000006044820152606490fd5b6000546001600160a01b031633036110a057565b63118cdaa760e01b6000523360045260246000fd5b600080809381935af16110c6610d1e565b9061111c578051600091906044116110ea576110e29150611391565b905b60009190565b50506040516110fa604082610cb5565b600f81526e151c985b9cd9995c8819985a5b1959608a1b6020820152906110e4565b5060019060405161112e602082610cb5565b6000815290565b1561113c57565b60405162461bcd60e51b815260206004820152601c60248201527f496e73756666696369656e7420746f6b656e20616c6c6f77616e6365000000006044820152606490fd5b604051636eb1769f60e11b81523360048201523060248201529190602090839060449082906001600160a01b03165afa80156111ff576000906111cb575b610ceb92501015611135565b506020823d6020116111f7575b816111e560209383610cb5565b8101031261015f57610ceb91516111bf565b3d91506111d8565b6040513d6000823e3d90fd5b9081602091031261015f5751801515810361015f5790565b60009060033d1161123057565b905060046000803e60005160e01c90565b600060443d10610f9e576040513d600319016004823e8051913d602484011167ffffffffffffffff8411176112b0578282019283519167ffffffffffffffff83116112a8573d840160031901858401602001116112a85750610f9e92910160200190610cb5565b949350505050565b92915050565b604051906112c5604083610cb5565b600d82526c2ab735b737bbb71032b93937b960991b6020830152565b6040516323b872dd60e01b81523360048201526001600160a01b039283166024820152604481019390935260209183916064918391600091165af19081611364575b5061135957611330611223565b6308c379a014611346575b600090610f9e6112b6565b61134e611241565b806110e2575061133b565b600190610f9e610d09565b6113859060203d60201161138a575b61137d8183610cb5565b81019061120b565b611323565b503d611373565b604481511061140e57600481015181016024810191906020908290031261015f5760248101519067ffffffffffffffff821161015f57018160438201121561015f5760248101516113e181610ced565b926113ef6040519485610cb5565b8184526044838301011161015f57610f9e9160446020850191016103cb565b5060405161141d604082610cb5565b600e81526d155b9adb9bdddb881c995d995c9d60921b60208201529056fea6df5a078e66f7b0e1c1657e07c0d94dc5047762340d58aa99c7acfe987f5475a264697066735822122099e630fbfa4618fbff76c8e630ccc50fe3b4e0c6a342df7d3da45c1117025c3b64736f6c634300081c0033",
  "linkReferences": {},
  "deployedLinkReferences": {}
}