{"contracts/launch/VestingTimeLock.sol":{"VestingTimeLock":{"abi":[{"inputs":[{"internalType":"uint256","name":"_vestingLockFee","type":"uint256"},{"internalType":"address","name":"_feeRecipient","type":"address"}],"stateMutability":"nonpayable","type":"constructor"},{"inputs":[{"internalType":"address","name":"owner","type":"address"}],"name":"OwnableInvalidOwner","type":"error"},{"inputs":[{"internalType":"address","name":"account","type":"address"}],"name":"OwnableUnauthorizedAccount","type":"error"},{"inputs":[],"name":"ReentrancyGuardReentrantCall","type":"error"},{"inputs":[{"internalType":"address","name":"token","type":"address"}],"name":"SafeERC20FailedOperation","type":"error"},{"anonymous":false,"inputs":[{"indexed":false,"internalType":"address","name":"oldRecipient","type":"address"},{"indexed":false,"internalType":"address","name":"newRecipient","type":"address"}],"name":"FeeRecipientUpdated","type":"event"},{"anonymous":false,"inputs":[{"indexed":true,"internalType":"address","name":"previousOwner","type":"address"},{"indexed":true,"internalType":"address","name":"newOwner","type":"address"}],"name":"OwnershipTransferred","type":"event"},{"anonymous":false,"inputs":[{"indexed":true,"internalType":"uint256","name":"id","type":"uint256"},{"indexed":true,"internalType":"address","name":"beneficiary","type":"address"},{"indexed":false,"internalType":"uint256","name":"amount","type":"uint256"}],"name":"Released","type":"event"},{"anonymous":false,"inputs":[{"indexed":true,"internalType":"uint256","name":"id","type":"uint256"},{"indexed":true,"internalType":"address","name":"oldBeneficiary","type":"address"},{"indexed":true,"internalType":"address","name":"newBeneficiary","type":"address"}],"name":"VestingBeneficiaryUpdated","type":"event"},{"anonymous":false,"inputs":[{"indexed":true,"internalType":"uint256","name":"id","type":"uint256"},{"indexed":false,"internalType":"uint64","name":"oldDurationSeconds","type":"uint64"},{"indexed":false,"internalType":"uint64","name":"newDurationSeconds","type":"uint64"}],"name":"VestingDurationExtended","type":"event"},{"anonymous":false,"inputs":[{"indexed":true,"internalType":"uint256","name":"id","type":"uint256"},{"indexed":true,"internalType":"address","name":"token","type":"address"},{"indexed":true,"internalType":"address","name":"beneficiary","type":"address"},{"indexed":false,"internalType":"uint256","name":"requestedAmount","type":"uint256"},{"indexed":false,"internalType":"uint256","name":"receivedAmount","type":"uint256"},{"indexed":false,"internalType":"uint64","name":"start","type":"uint64"},{"indexed":false,"internalType":"uint64","name":"cliffSeconds","type":"uint64"},{"indexed":false,"internalType":"uint64","name":"durationSeconds","type":"uint64"}],"name":"VestingLockCreated","type":"event"},{"anonymous":false,"inputs":[{"indexed":false,"internalType":"uint256","name":"oldFee","type":"uint256"},{"indexed":false,"internalType":"uint256","name":"newFee","type":"uint256"}],"name":"VestingLockFeeUpdated","type":"event"},{"anonymous":false,"inputs":[{"indexed":true,"internalType":"uint256","name":"id","type":"uint256"},{"indexed":true,"internalType":"address","name":"oldOwner","type":"address"},{"indexed":true,"internalType":"address","name":"newOwner","type":"address"}],"name":"VestingLockOwnershipTransferred","type":"event"},{"inputs":[],"name":"MIN_VESTING_END_DELAY","outputs":[{"internalType":"uint256","name":"","type":"uint256"}],"stateMutability":"view","type":"function"},{"inputs":[{"internalType":"address","name":"token","type":"address"},{"internalType":"address","name":"beneficiary","type":"address"},{"internalType":"uint64","name":"start","type":"uint64"},{"internalType":"uint64","name":"cliffSeconds","type":"uint64"},{"internalType":"uint64","name":"durationSeconds","type":"uint64"},{"internalType":"uint256","name":"amount","type":"uint256"}],"name":"createVesting","outputs":[{"internalType":"uint256","name":"id","type":"uint256"}],"stateMutability":"payable","type":"function"},{"inputs":[{"internalType":"uint256","name":"id","type":"uint256"},{"internalType":"uint64","name":"newDurationSeconds","type":"uint64"}],"name":"extendVestingDuration","outputs":[],"stateMutability":"nonpayable","type":"function"},{"inputs":[],"name":"feeRecipient","outputs":[{"internalType":"address","name":"","type":"address"}],"stateMutability":"view","type":"function"},{"inputs":[],"name":"nextId","outputs":[{"internalType":"uint256","name":"","type":"uint256"}],"stateMutability":"view","type":"function"},{"inputs":[],"name":"owner","outputs":[{"internalType":"address","name":"","type":"address"}],"stateMutability":"view","type":"function"},{"inputs":[{"internalType":"uint256","name":"id","type":"uint256"}],"name":"releasable","outputs":[{"internalType":"uint256","name":"","type":"uint256"}],"stateMutability":"view","type":"function"},{"inputs":[{"internalType":"uint256","name":"id","type":"uint256"}],"name":"release","outputs":[],"stateMutability":"nonpayable","type":"function"},{"inputs":[],"name":"renounceOwnership","outputs":[],"stateMutability":"nonpayable","type":"function"},{"inputs":[{"internalType":"address","name":"newRecipient","type":"address"}],"name":"setFeeRecipient","outputs":[],"stateMutability":"nonpayable","type":"function"},{"inputs":[{"internalType":"uint256","name":"newFee","type":"uint256"}],"name":"setVestingLockFee","outputs":[],"stateMutability":"nonpayable","type":"function"},{"inputs":[{"internalType":"address","name":"newOwner","type":"address"}],"name":"transferOwnership","outputs":[],"stateMutability":"nonpayable","type":"function"},{"inputs":[{"internalType":"uint256","name":"id","type":"uint256"},{"internalType":"address","name":"newOwner","type":"address"}],"name":"transferVestingLockOwnership","outputs":[],"stateMutability":"nonpayable","type":"function"},{"inputs":[{"internalType":"uint256","name":"id","type":"uint256"},{"internalType":"address","name":"newBeneficiary","type":"address"}],"name":"updateBeneficiary","outputs":[],"stateMutability":"nonpayable","type":"function"},{"inputs":[{"internalType":"uint256","name":"id","type":"uint256"}],"name":"vestedAmount","outputs":[{"internalType":"uint256","name":"","type":"uint256"}],"stateMutability":"view","type":"function"},{"inputs":[],"name":"vestingLockFee","outputs":[{"internalType":"uint256","name":"","type":"uint256"}],"stateMutability":"view","type":"function"},{"inputs":[{"internalType":"uint256","name":"","type":"uint256"}],"name":"vestingLocks","outputs":[{"internalType":"address","name":"token","type":"address"},{"internalType":"address","name":"owner","type":"address"},{"internalType":"address","name":"beneficiary","type":"address"},{"internalType":"uint256","name":"totalAmount","type":"uint256"},{"internalType":"uint256","name":"released","type":"uint256"},{"internalType":"uint64","name":"start","type":"uint64"},{"internalType":"uint64","name":"cliffSeconds","type":"uint64"},{"internalType":"uint64","name":"durationSeconds","type":"uint64"},{"internalType":"bool","name":"exists","type":"bool"}],"stateMutability":"view","type":"function"},{"stateMutability":"payable","type":"receive"}],"evm":{"bytecode":{"linkReferences":{},"object":"60803461012657601f61154438819003918201601f19168301916001600160401b0383118484101761012b5780849260409485528339810103126101265780516020909101516001600160a01b038116919082900361012657600160005533156101105760018054336001600160a01b03198216811790925560405191906001600160a01b03167f8be0079c531659141344cd1fd0a4f28419497f9722a3daafe3b4186f6b6457e0600080a3600160045582156100dd5750600255600380546001600160a01b03191691909117905560405161140290816101428239f35b62461bcd60e51b815260206004820152600e60248201526d0666565526563697069656e743d360941b6044820152606490fd5b631e4fbdf760e01b600052600060045260246000fd5b600080fd5b634e487b7160e01b600052604160045260246000fdfe608080604052600436101561001d575b50361561001b57600080fd5b005b60003560e01c90816302757e6314610f8657508063187c545f14610f335780631bfce85314610ed55780633470d28e14610e1d57806337bdc99b14610cab5780633e8eb5a414610baf5780634690484014610b8657806351cc5c2b14610a9057806352cf7ca41461094f57806361b8ce8c146109315780636fd0127814610327578063715018a6146102ca5780638da5cb5b146102a1578063d31aa60514610283578063e4bf01a814610228578063e74b981b146101745763f2fde38b146100e5573861000f565b3461016f57602036600319011261016f576100fe610fb7565b6101066111d2565b6001600160a01b0316801561015957600180546001600160a01b0319811683179091556001600160a01b03167f8be0079c531659141344cd1fd0a4f28419497f9722a3daafe3b4186f6b6457e0600080a3005b631e4fbdf760e01b600052600060045260246000fd5b600080fd5b3461016f57602036600319011261016f5761018d610fb7565b6101956111d2565b6001600160a01b031680156101f257600354604080516001600160a01b0383168152602081018490527faaebcf1bfa00580e41d966056b48521fa9f202645c86d4ddf28113e617c1b1d39190a16001600160a01b03191617600355005b60405162461bcd60e51b815260206004820152600e60248201526d0666565526563697069656e743d360941b6044820152606490fd5b3461016f57602036600319011261016f5760043580600052600560205261025c60ff60056040600020015460c01c16610fcd565b6000526005602052602061027b6102766040600020611060565b61133e565b604051908152f35b3461016f57600036600319011261016f576020604051620151808152f35b3461016f57600036600319011261016f576001546040516001600160a01b039091168152602090f35b3461016f57600036600319011261016f576102e36111d2565b600180546001600160a01b031981169091556000906001600160a01b03167f8be0079c531659141344cd1fd0a4f28419497f9722a3daafe3b4186f6b6457e08280a3005b60c036600319011261016f5761033b610fb7565b610343610fa1565b90604435906001600160401b03821680920361016f57606435926001600160401b03841680940361016f57608435936001600160401b03851680950361016f5760a4359361038f61131c565b600254938434106108f9576001600160a01b03169283156108ca576001600160a01b0316938415610895578515610865578615610833576103d283881015611147565b6103dc87836110fa565b6201518042019081421161068457106107f65780610790575b50610402600254346111c5565b8061073e575b506040516370a0823160e01b8152306004820152602081602481875afa9081156107005760009161070c575b5061046f6040516323b872dd60e01b60208201523360248201523060448201528760648201526064815261046960848261103f565b85611371565b6040516370a0823160e01b815230600482015290602082602481885afa8015610700576000906106cc575b6104a492506111c5565b801561069a576004549560001987146106845787848460a0947fa4f6f84586eebd492f72cd578d9fbdbe3e2900766d611adef8fab2100c80ede0968b6106426001600160401b0360209f839c8f8f6005908592600189016004556040519161050b8361100d565b825260208201903382526040830190815260608301908c825260808401926000845260a085019c8d5260c0850197885260e0850198895261010085019b60018d52600052602086905260406000209460a0600180911b039060a0600180911b039051161660a06001600160601b03901b86541617855560a0600180911b03905116600185019060a0600180911b031660a06001600160601b03901b82541617905560a0600180911b03905116600284019060a0600180911b031660a06001600160601b03901b825416179055516003830155516004820155019651166fffffffffffffffff00000000000000008754925160401b16916fffffffffffffffffffffffffffffffff191617178555511683908154906001600160401b0360801b9060801b16906001600160401b0360801b1916179055565b51815460ff60c01b191690151560c01b60ff60c01b16179055604080519586528c86019190915284015260608301526080820152a46001600055604051908152f35b634e487b7160e01b600052601160045260246000fd5b60405162461bcd60e51b815260206004820152600a602482015269072656365697665643d360b41b6044820152606490fd5b506020823d6020116106f8575b816106e66020938361103f565b8101031261016f576104a4915161049a565b3d91506106d9565b6040513d6000823e3d90fd5b90506020813d602011610736575b816107276020938361103f565b8101031261016f575187610434565b3d915061071a565b600080808093335af161074f611186565b501561075b5786610408565b60405162461bcd60e51b815260206004820152600d60248201526c1c99599d5b990819985a5b1959609a1b6044820152606490fd5b6003546000918291829182916001600160a01b03165af16107af611186565b50156107bb57866103f5565b60405162461bcd60e51b8152602060048201526013602482015272199959481d1c985b9cd9995c8819985a5b1959606a1b6044820152606490fd5b60405162461bcd60e51b81526020600482015260156024820152743b32b9ba34b7339032b73239903a37b79039b7b7b760591b6044820152606490fd5b60405162461bcd60e51b815260206004820152600a60248201526906475726174696f6e3d360b41b6044820152606490fd5b60405162461bcd60e51b81526020600482015260086024820152670616d6f756e743d360c41b6044820152606490fd5b60405162461bcd60e51b815260206004820152600d60248201526c062656e65666963696172793d3609c1b6044820152606490fd5b60405162461bcd60e51b81526020600482015260076024820152660746f6b656e3d360cc1b6044820152606490fd5b60405162461bcd60e51b815260206004820152601060248201526f696e73756666696369656e742066656560801b6044820152606490fd5b3461016f57600036600319011261016f576020600454604051908152f35b3461016f57604036600319011261016f576004356024356001600160401b03811680820361016f5782600052600560205261099760ff60056040600020015460c01c16610fcd565b8260005260056020526109bb60018060a01b03600160406000200154163314611107565b8260005260056020526005604060002001908154906001600160401b038260801c169182821115610a5d577f202d664f4d26ce0848d7e30547711e5d516a18ecb3c93cf367459ef53a67ef6c94604094610a256001600160401b03610a5094881c16851015611147565b805467ffffffffffffffff60801b191660809290921b67ffffffffffffffff60801b16919091179055565b82519182526020820152a2005b60405162461bcd60e51b815260206004820152600b60248201526a1b5d5cdd08195e1d195b9960aa1b6044820152606490fd5b3461016f57604036600319011261016f57600435610aac610fa1565b816000526005602052610acc60ff60056040600020015460c01c16610fcd565b816000526005602052610af060018060a01b03600160406000200154163314611107565b6001600160a01b0316908115610b5457600081815260056020526040812060010180546001600160a01b0319811685179091556001600160a01b031691907fd4d906e4ff3c227c719f151020d31ab5c094d7b1dee0e66705d784d48285c0229080a4005b60405162461bcd60e51b815260206004820152600a60248201526906e65774f776e65723d360b41b6044820152606490fd5b3461016f57600036600319011261016f576003546040516001600160a01b039091168152602090f35b3461016f57604036600319011261016f57600435610bcb610fa1565b816000526005602052610beb60ff60056040600020015460c01c16610fcd565b816000526005602052610c0f60018060a01b03600160406000200154163314611107565b6001600160a01b0316908115610c7357600081815260056020526040812060020180546001600160a01b0319811685179091556001600160a01b031691907fae42898b0bbc74b7c882285976b72654ba0af1da277ace5d521487a4cfe916ac9080a4005b60405162461bcd60e51b815260206004820152601060248201526f06e657742656e65666963696172793d360841b6044820152606490fd5b3461016f57602036600319011261016f57600435610cc761131c565b806000526005602052610ce760ff60056040600020015460c01c16610fcd565b806000526005602052604060002090600282019160018060a01b03835416803303610de657610d1861027683611060565b938415610dac57610d936020928460047f3bfce8de0db7450cc169b94323c210e69a36c6a4a58c9f5d96bec4973adce3929601610d568982546110fa565b90555460405163a9059cbb60e01b868201526024810192909252604480830189905282526001600160a01b0316610d8e60648361103f565b611371565b546040519485526001600160a01b031693a36001600055005b60405162461bcd60e51b81526020600482015260126024820152716e6f7468696e6720746f2072656c6561736560701b6044820152606490fd5b60405162461bcd60e51b815260206004820152600f60248201526e6e6f742062656e656669636961727960881b6044820152606490fd5b3461016f57602036600319011261016f576004356000526005602052610120604060002060ff60018060a01b038254169160018060a01b036001820154169060018060a01b03600282015416600382015490600560048401549301549360405196875260208701526040860152606085015260808401526001600160401b03811660a08401526001600160401b038160401c1660c08401526001600160401b038160801c1660e084015260c01c161515610100820152f35b3461016f57602036600319011261016f57600435806000526005602052610f0960ff60056040600020015460c01c16610fcd565b6000526005602052602061027b6040600020610f2e6001600160401b03421691611060565b61123b565b3461016f57602036600319011261016f57600435610f4f6111d2565b7fc9b2f903d5df5018a7435f03eeb84f2dcb7ff906f4d1b49190f168b6750092ac60406002548151908152836020820152a1600255005b3461016f57600036600319011261016f576020906002548152f35b602435906001600160a01b038216820361016f57565b600435906001600160a01b038216820361016f57565b15610fd457565b60405162461bcd60e51b81526020600482015260116024820152701d995cdd1a5b99c81b9bdd08199bdd5b99607a1b6044820152606490fd5b61012081019081106001600160401b0382111761102957604052565b634e487b7160e01b600052604160045260246000fd5b90601f801991011681019081106001600160401b0382111761102957604052565b9060405161106d8161100d565b61010060ff6005839560018060a01b03815416855260018060a01b03600182015416602086015260018060a01b036002820154166040860152600381015460608601526004810154608086015201546001600160401b03811660a08501526001600160401b038160401c1660c08501526001600160401b038160801c1660e085015260c01c161515910152565b9190820180921161068457565b1561110e57565b60405162461bcd60e51b81526020600482015260116024820152702737ba103b32b9ba34b7339037bbb732b960791b6044820152606490fd5b1561114e57565b60405162461bcd60e51b815260206004820152601060248201526f323ab930ba34b7b7101e1031b634b33360811b6044820152606490fd5b3d156111c0573d906001600160401b03821161102957604051916111b4601f8201601f19166020018461103f565b82523d6000602084013e565b606090565b9190820391821161068457565b6001546001600160a01b031633036111e657565b63118cdaa760e01b6000523360045260246000fd5b906001600160401b03809116911601906001600160401b03821161068457565b906001600160401b03809116911603906001600160401b03821161068457565b60a081016001600160401b0381511661126360c08401916001600160401b03835116906111fb565b916001600160401b038516906001600160401b0384168210611311576001600160401b03905116906001600160401b036112a560e087019382855116906111fb565b161115611305576001600160401b039182806112c69351169151169061121b565b169283156112fa576112e26060926001600160401b039261121b565b16910151818102918183041490151715610684570490565b505060609150015190565b50505060609150015190565b505050505050600090565b60026000541461132d576002600055565b633ee5aeb560e01b60005260046000fd5b60806113536001600160401b0342168361123b565b9101518082111561136a57611367916111c5565b90565b5050600090565b906000602091828151910182855af115610700576000513d6113c357506001600160a01b0381163b155b6113a25750565b635274afe760e01b60009081526001600160a01b0391909116600452602490fd5b6001141561139b56fea264697066735822122079ef99708484b6498a886535f7bc0586eb572588c3fbb0372afd4a1967cf859d64736f6c634300081c0033","opcodes":"PUSH1 0x80 CALLVALUE PUSH2 0x126 JUMPI PUSH1 0x1F PUSH2 0x1544 CODESIZE DUP2 SWAP1 SUB SWAP2 DUP3 ADD PUSH1 0x1F NOT AND DUP4 ADD SWAP2 PUSH1 0x1 PUSH1 0x1 PUSH1 0x40 SHL SUB DUP4 GT DUP5 DUP5 LT OR PUSH2 0x12B JUMPI DUP1 DUP5 SWAP3 PUSH1 0x40 SWAP5 DUP6 MSTORE DUP4 CODECOPY DUP2 ADD SUB SLT PUSH2 0x126 JUMPI DUP1 MLOAD PUSH1 0x20 SWAP1 SWAP2 ADD MLOAD PUSH1 0x1 PUSH1 0x1 PUSH1 0xA0 SHL SUB DUP2 AND SWAP2 SWAP1 DUP3 SWAP1 SUB PUSH2 0x126 JUMPI PUSH1 0x1 PUSH1 0x0 SSTORE CALLER ISZERO PUSH2 0x110 JUMPI PUSH1 0x1 DUP1 SLOAD CALLER PUSH1 0x1 PUSH1 0x1 PUSH1 0xA0 SHL SUB NOT DUP3 AND DUP2 OR SWAP1 SWAP3 SSTORE PUSH1 0x40 MLOAD SWAP2 SWAP1 PUSH1 0x1 PUSH1 0x1 PUSH1 0xA0 SHL SUB AND PUSH32 0x8BE0079C531659141344CD1FD0A4F28419497F9722A3DAAFE3B4186F6B6457E0 PUSH1 0x0 DUP1 LOG3 PUSH1 0x1 PUSH1 0x4 SSTORE DUP3 ISZERO PUSH2 0xDD JUMPI POP PUSH1 0x2 SSTORE PUSH1 0x3 DUP1 SLOAD PUSH1 0x1 PUSH1 0x1 PUSH1 0xA0 SHL SUB NOT AND SWAP2 SWAP1 SWAP2 OR SWAP1 SSTORE PUSH1 0x40 MLOAD PUSH2 0x1402 SWAP1 DUP2 PUSH2 0x142 DUP3 CODECOPY RETURN JUMPDEST PUSH3 0x461BCD PUSH1 0xE5 SHL DUP2 MSTORE PUSH1 0x20 PUSH1 0x4 DUP3 ADD MSTORE PUSH1 0xE PUSH1 0x24 DUP3 ADD MSTORE PUSH14 0x666565526563697069656E743D3 PUSH1 0x94 SHL PUSH1 0x44 DUP3 ADD MSTORE PUSH1 0x64 SWAP1 REVERT JUMPDEST PUSH4 0x1E4FBDF7 PUSH1 0xE0 SHL PUSH1 0x0 MSTORE PUSH1 0x0 PUSH1 0x4 MSTORE PUSH1 0x24 PUSH1 0x0 REVERT JUMPDEST PUSH1 0x0 DUP1 REVERT JUMPDEST PUSH4 0x4E487B71 PUSH1 0xE0 SHL PUSH1 0x0 MSTORE PUSH1 0x41 PUSH1 0x4 MSTORE PUSH1 0x24 PUSH1 0x0 REVERT INVALID PUSH1 0x80 DUP1 PUSH1 0x40 MSTORE PUSH1 0x4 CALLDATASIZE LT ISZERO PUSH2 0x1D JUMPI JUMPDEST POP CALLDATASIZE ISZERO PUSH2 0x1B JUMPI PUSH1 0x0 DUP1 REVERT JUMPDEST STOP JUMPDEST PUSH1 0x0 CALLDATALOAD PUSH1 0xE0 SHR SWAP1 DUP2 PUSH4 0x2757E63 EQ PUSH2 0xF86 JUMPI POP DUP1 PUSH4 0x187C545F EQ PUSH2 0xF33 JUMPI DUP1 PUSH4 0x1BFCE853 EQ PUSH2 0xED5 JUMPI DUP1 PUSH4 0x3470D28E EQ PUSH2 0xE1D JUMPI DUP1 PUSH4 0x37BDC99B EQ PUSH2 0xCAB JUMPI DUP1 PUSH4 0x3E8EB5A4 EQ PUSH2 0xBAF JUMPI DUP1 PUSH4 0x46904840 EQ PUSH2 0xB86 JUMPI DUP1 PUSH4 0x51CC5C2B EQ PUSH2 0xA90 JUMPI DUP1 PUSH4 0x52CF7CA4 EQ PUSH2 0x94F JUMPI DUP1 PUSH4 0x61B8CE8C EQ PUSH2 0x931 JUMPI DUP1 PUSH4 0x6FD01278 EQ PUSH2 0x327 JUMPI DUP1 PUSH4 0x715018A6 EQ PUSH2 0x2CA JUMPI DUP1 PUSH4 0x8DA5CB5B EQ PUSH2 0x2A1 JUMPI DUP1 PUSH4 0xD31AA605 EQ PUSH2 0x283 JUMPI DUP1 PUSH4 0xE4BF01A8 EQ PUSH2 0x228 JUMPI DUP1 PUSH4 0xE74B981B EQ PUSH2 0x174 JUMPI PUSH4 0xF2FDE38B EQ PUSH2 0xE5 JUMPI CODESIZE PUSH2 0xF JUMP JUMPDEST CALLVALUE PUSH2 0x16F JUMPI PUSH1 0x20 CALLDATASIZE PUSH1 0x3 NOT ADD SLT PUSH2 0x16F JUMPI PUSH2 0xFE PUSH2 0xFB7 JUMP JUMPDEST PUSH2 0x106 PUSH2 0x11D2 JUMP JUMPDEST PUSH1 0x1 PUSH1 0x1 PUSH1 0xA0 SHL SUB AND DUP1 ISZERO PUSH2 0x159 JUMPI PUSH1 0x1 DUP1 SLOAD PUSH1 0x1 PUSH1 0x1 PUSH1 0xA0 SHL SUB NOT DUP2 AND DUP4 OR SWAP1 SWAP2 SSTORE PUSH1 0x1 PUSH1 0x1 PUSH1 0xA0 SHL SUB AND PUSH32 0x8BE0079C531659141344CD1FD0A4F28419497F9722A3DAAFE3B4186F6B6457E0 PUSH1 0x0 DUP1 LOG3 STOP JUMPDEST PUSH4 0x1E4FBDF7 PUSH1 0xE0 SHL PUSH1 0x0 MSTORE PUSH1 0x0 PUSH1 0x4 MSTORE PUSH1 0x24 PUSH1 0x0 REVERT JUMPDEST PUSH1 0x0 DUP1 REVERT JUMPDEST CALLVALUE PUSH2 0x16F JUMPI PUSH1 0x20 CALLDATASIZE PUSH1 0x3 NOT ADD SLT PUSH2 0x16F JUMPI PUSH2 0x18D PUSH2 0xFB7 JUMP JUMPDEST PUSH2 0x195 PUSH2 0x11D2 JUMP JUMPDEST PUSH1 0x1 PUSH1 0x1 PUSH1 0xA0 SHL SUB AND DUP1 ISZERO PUSH2 0x1F2 JUMPI PUSH1 0x3 SLOAD PUSH1 0x40 DUP1 MLOAD PUSH1 0x1 PUSH1 0x1 PUSH1 0xA0 SHL SUB DUP4 AND DUP2 MSTORE PUSH1 0x20 DUP2 ADD DUP5 SWAP1 MSTORE PUSH32 0xAAEBCF1BFA00580E41D966056B48521FA9F202645C86D4DDF28113E617C1B1D3 SWAP2 SWAP1 LOG1 PUSH1 0x1 PUSH1 0x1 PUSH1 0xA0 SHL SUB NOT AND OR PUSH1 0x3 SSTORE STOP JUMPDEST PUSH1 0x40 MLOAD PUSH3 0x461BCD PUSH1 0xE5 SHL DUP2 MSTORE PUSH1 0x20 PUSH1 0x4 DUP3 ADD MSTORE PUSH1 0xE PUSH1 0x24 DUP3 ADD MSTORE PUSH14 0x666565526563697069656E743D3 PUSH1 0x94 SHL PUSH1 0x44 DUP3 ADD MSTORE PUSH1 0x64 SWAP1 REVERT JUMPDEST CALLVALUE PUSH2 0x16F JUMPI PUSH1 0x20 CALLDATASIZE PUSH1 0x3 NOT ADD SLT PUSH2 0x16F JUMPI PUSH1 0x4 CALLDATALOAD DUP1 PUSH1 0x0 MSTORE PUSH1 0x5 PUSH1 0x20 MSTORE PUSH2 0x25C PUSH1 0xFF PUSH1 0x5 PUSH1 0x40 PUSH1 0x0 KECCAK256 ADD SLOAD PUSH1 0xC0 SHR AND PUSH2 0xFCD JUMP JUMPDEST PUSH1 0x0 MSTORE PUSH1 0x5 PUSH1 0x20 MSTORE PUSH1 0x20 PUSH2 0x27B PUSH2 0x276 PUSH1 0x40 PUSH1 0x0 KECCAK256 PUSH2 0x1060 JUMP JUMPDEST PUSH2 0x133E JUMP JUMPDEST PUSH1 0x40 MLOAD SWAP1 DUP2 MSTORE RETURN JUMPDEST CALLVALUE PUSH2 0x16F JUMPI PUSH1 0x0 CALLDATASIZE PUSH1 0x3 NOT ADD SLT PUSH2 0x16F JUMPI PUSH1 0x20 PUSH1 0x40 MLOAD PUSH3 0x15180 DUP2 MSTORE RETURN JUMPDEST CALLVALUE PUSH2 0x16F JUMPI PUSH1 0x0 CALLDATASIZE PUSH1 0x3 NOT ADD SLT PUSH2 0x16F JUMPI PUSH1 0x1 SLOAD PUSH1 0x40 MLOAD PUSH1 0x1 PUSH1 0x1 PUSH1 0xA0 SHL SUB SWAP1 SWAP2 AND DUP2 MSTORE PUSH1 0x20 SWAP1 RETURN JUMPDEST CALLVALUE PUSH2 0x16F JUMPI PUSH1 0x0 CALLDATASIZE PUSH1 0x3 NOT ADD SLT PUSH2 0x16F JUMPI PUSH2 0x2E3 PUSH2 0x11D2 JUMP JUMPDEST PUSH1 0x1 DUP1 SLOAD PUSH1 0x1 PUSH1 0x1 PUSH1 0xA0 SHL SUB NOT DUP2 AND SWAP1 SWAP2 SSTORE PUSH1 0x0 SWAP1 PUSH1 0x1 PUSH1 0x1 PUSH1 0xA0 SHL SUB AND PUSH32 0x8BE0079C531659141344CD1FD0A4F28419497F9722A3DAAFE3B4186F6B6457E0 DUP3 DUP1 LOG3 STOP JUMPDEST PUSH1 0xC0 CALLDATASIZE PUSH1 0x3 NOT ADD SLT PUSH2 0x16F JUMPI PUSH2 0x33B PUSH2 0xFB7 JUMP JUMPDEST PUSH2 0x343 PUSH2 0xFA1 JUMP JUMPDEST SWAP1 PUSH1 0x44 CALLDATALOAD SWAP1 PUSH1 0x1 PUSH1 0x1 PUSH1 0x40 SHL SUB DUP3 AND DUP1 SWAP3 SUB PUSH2 0x16F JUMPI PUSH1 0x64 CALLDATALOAD SWAP3 PUSH1 0x1 PUSH1 0x1 PUSH1 0x40 SHL SUB DUP5 AND DUP1 SWAP5 SUB PUSH2 0x16F JUMPI PUSH1 0x84 CALLDATALOAD SWAP4 PUSH1 0x1 PUSH1 0x1 PUSH1 0x40 SHL SUB DUP6 AND DUP1 SWAP6 SUB PUSH2 0x16F JUMPI PUSH1 0xA4 CALLDATALOAD SWAP4 PUSH2 0x38F PUSH2 0x131C JUMP JUMPDEST PUSH1 0x2 SLOAD SWAP4 DUP5 CALLVALUE LT PUSH2 0x8F9 JUMPI PUSH1 0x1 PUSH1 0x1 PUSH1 0xA0 SHL SUB AND SWAP3 DUP4 ISZERO PUSH2 0x8CA JUMPI PUSH1 0x1 PUSH1 0x1 PUSH1 0xA0 SHL SUB AND SWAP4 DUP5 ISZERO PUSH2 0x895 JUMPI DUP6 ISZERO PUSH2 0x865 JUMPI DUP7 ISZERO PUSH2 0x833 JUMPI PUSH2 0x3D2 DUP4 DUP9 LT ISZERO PUSH2 0x1147 JUMP JUMPDEST PUSH2 0x3DC DUP8 DUP4 PUSH2 0x10FA JUMP JUMPDEST PUSH3 0x15180 TIMESTAMP ADD SWAP1 DUP2 TIMESTAMP GT PUSH2 0x684 JUMPI LT PUSH2 0x7F6 JUMPI DUP1 PUSH2 0x790 JUMPI JUMPDEST POP PUSH2 0x402 PUSH1 0x2 SLOAD CALLVALUE PUSH2 0x11C5 JUMP JUMPDEST DUP1 PUSH2 0x73E JUMPI JUMPDEST POP PUSH1 0x40 MLOAD PUSH4 0x70A08231 PUSH1 0xE0 SHL DUP2 MSTORE ADDRESS PUSH1 0x4 DUP3 ADD MSTORE PUSH1 0x20 DUP2 PUSH1 0x24 DUP2 DUP8 GAS STATICCALL SWAP1 DUP2 ISZERO PUSH2 0x700 JUMPI PUSH1 0x0 SWAP2 PUSH2 0x70C JUMPI JUMPDEST POP PUSH2 0x46F PUSH1 0x40 MLOAD PUSH4 0x23B872DD PUSH1 0xE0 SHL PUSH1 0x20 DUP3 ADD MSTORE CALLER PUSH1 0x24 DUP3 ADD MSTORE ADDRESS PUSH1 0x44 DUP3 ADD MSTORE DUP8 PUSH1 0x64 DUP3 ADD MSTORE PUSH1 0x64 DUP2 MSTORE PUSH2 0x469 PUSH1 0x84 DUP3 PUSH2 0x103F JUMP JUMPDEST DUP6 PUSH2 0x1371 JUMP JUMPDEST PUSH1 0x40 MLOAD PUSH4 0x70A08231 PUSH1 0xE0 SHL DUP2 MSTORE ADDRESS PUSH1 0x4 DUP3 ADD MSTORE SWAP1 PUSH1 0x20 DUP3 PUSH1 0x24 DUP2 DUP9 GAS STATICCALL DUP1 ISZERO PUSH2 0x700 JUMPI PUSH1 0x0 SWAP1 PUSH2 0x6CC JUMPI JUMPDEST PUSH2 0x4A4 SWAP3 POP PUSH2 0x11C5 JUMP JUMPDEST DUP1 ISZERO PUSH2 0x69A JUMPI PUSH1 0x4 SLOAD SWAP6 PUSH1 0x0 NOT DUP8 EQ PUSH2 0x684 JUMPI DUP8 DUP5 DUP5 PUSH1 0xA0 SWAP5 PUSH32 0xA4F6F84586EEBD492F72CD578D9FBDBE3E2900766D611ADEF8FAB2100C80EDE0 SWAP7 DUP12 PUSH2 0x642 PUSH1 0x1 PUSH1 0x1 PUSH1 0x40 SHL SUB PUSH1 0x20 SWAP16 DUP4 SWAP13 DUP16 DUP16 PUSH1 0x5 SWAP1 DUP6 SWAP3 PUSH1 0x1 DUP10 ADD PUSH1 0x4 SSTORE PUSH1 0x40 MLOAD SWAP2 PUSH2 0x50B DUP4 PUSH2 0x100D JUMP JUMPDEST DUP3 MSTORE PUSH1 0x20 DUP3 ADD SWAP1 CALLER DUP3 MSTORE PUSH1 0x40 DUP4 ADD SWAP1 DUP2 MSTORE PUSH1 0x60 DUP4 ADD SWAP1 DUP13 DUP3 MSTORE PUSH1 0x80 DUP5 ADD SWAP3 PUSH1 0x0 DUP5 MSTORE PUSH1 0xA0 DUP6 ADD SWAP13 DUP14 MSTORE PUSH1 0xC0 DUP6 ADD SWAP8 DUP9 MSTORE PUSH1 0xE0 DUP6 ADD SWAP9 DUP10 MSTORE PUSH2 0x100 DUP6 ADD SWAP12 PUSH1 0x1 DUP14 MSTORE PUSH1 0x0 MSTORE PUSH1 0x20 DUP7 SWAP1 MSTORE PUSH1 0x40 PUSH1 0x0 KECCAK256 SWAP5 PUSH1 0xA0 PUSH1 0x1 DUP1 SWAP2 SHL SUB SWAP1 PUSH1 0xA0 PUSH1 0x1 DUP1 SWAP2 SHL SUB SWAP1 MLOAD AND AND PUSH1 0xA0 PUSH1 0x1 PUSH1 0x1 PUSH1 0x60 SHL SUB SWAP1 SHL DUP7 SLOAD AND OR DUP6 SSTORE PUSH1 0xA0 PUSH1 0x1 DUP1 SWAP2 SHL SUB SWAP1 MLOAD AND PUSH1 0x1 DUP6 ADD SWAP1 PUSH1 0xA0 PUSH1 0x1 DUP1 SWAP2 SHL SUB AND PUSH1 0xA0 PUSH1 0x1 PUSH1 0x1 PUSH1 0x60 SHL SUB SWAP1 SHL DUP3 SLOAD AND OR SWAP1 SSTORE PUSH1 0xA0 PUSH1 0x1 DUP1 SWAP2 SHL SUB SWAP1 MLOAD AND PUSH1 0x2 DUP5 ADD SWAP1 PUSH1 0xA0 PUSH1 0x1 DUP1 SWAP2 SHL SUB AND PUSH1 0xA0 PUSH1 0x1 PUSH1 0x1 PUSH1 0x60 SHL SUB SWAP1 SHL DUP3 SLOAD AND OR SWAP1 SSTORE MLOAD PUSH1 0x3 DUP4 ADD SSTORE MLOAD PUSH1 0x4 DUP3 ADD SSTORE ADD SWAP7 MLOAD AND PUSH16 0xFFFFFFFFFFFFFFFF0000000000000000 DUP8 SLOAD SWAP3 MLOAD PUSH1 0x40 SHL AND SWAP2 PUSH16 0xFFFFFFFFFFFFFFFFFFFFFFFFFFFFFFFF NOT AND OR OR DUP6 SSTORE MLOAD AND DUP4 SWAP1 DUP2 SLOAD SWAP1 PUSH1 0x1 PUSH1 0x1 PUSH1 0x40 SHL SUB PUSH1 0x80 SHL SWAP1 PUSH1 0x80 SHL AND SWAP1 PUSH1 0x1 PUSH1 0x1 PUSH1 0x40 SHL SUB PUSH1 0x80 SHL NOT AND OR SWAP1 SSTORE JUMP JUMPDEST MLOAD DUP2 SLOAD PUSH1 0xFF PUSH1 0xC0 SHL NOT AND SWAP1 ISZERO ISZERO PUSH1 0xC0 SHL PUSH1 0xFF PUSH1 0xC0 SHL AND OR SWAP1 SSTORE PUSH1 0x40 DUP1 MLOAD SWAP6 DUP7 MSTORE DUP13 DUP7 ADD SWAP2 SWAP1 SWAP2 MSTORE DUP5 ADD MSTORE PUSH1 0x60 DUP4 ADD MSTORE PUSH1 0x80 DUP3 ADD MSTORE LOG4 PUSH1 0x1 PUSH1 0x0 SSTORE PUSH1 0x40 MLOAD SWAP1 DUP2 MSTORE RETURN JUMPDEST PUSH4 0x4E487B71 PUSH1 0xE0 SHL PUSH1 0x0 MSTORE PUSH1 0x11 PUSH1 0x4 MSTORE PUSH1 0x24 PUSH1 0x0 REVERT JUMPDEST PUSH1 0x40 MLOAD PUSH3 0x461BCD PUSH1 0xE5 SHL DUP2 MSTORE PUSH1 0x20 PUSH1 0x4 DUP3 ADD MSTORE PUSH1 0xA PUSH1 0x24 DUP3 ADD MSTORE PUSH10 0x72656365697665643D3 PUSH1 0xB4 SHL PUSH1 0x44 DUP3 ADD MSTORE PUSH1 0x64 SWAP1 REVERT JUMPDEST POP PUSH1 0x20 DUP3 RETURNDATASIZE PUSH1 0x20 GT PUSH2 0x6F8 JUMPI JUMPDEST DUP2 PUSH2 0x6E6 PUSH1 0x20 SWAP4 DUP4 PUSH2 0x103F JUMP JUMPDEST DUP2 ADD SUB SLT PUSH2 0x16F JUMPI PUSH2 0x4A4 SWAP2 MLOAD PUSH2 0x49A JUMP JUMPDEST RETURNDATASIZE SWAP2 POP PUSH2 0x6D9 JUMP JUMPDEST PUSH1 0x40 MLOAD RETURNDATASIZE PUSH1 0x0 DUP3 RETURNDATACOPY RETURNDATASIZE SWAP1 REVERT JUMPDEST SWAP1 POP PUSH1 0x20 DUP2 RETURNDATASIZE PUSH1 0x20 GT PUSH2 0x736 JUMPI JUMPDEST DUP2 PUSH2 0x727 PUSH1 0x20 SWAP4 DUP4 PUSH2 0x103F JUMP JUMPDEST DUP2 ADD SUB SLT PUSH2 0x16F JUMPI MLOAD DUP8 PUSH2 0x434 JUMP JUMPDEST RETURNDATASIZE SWAP2 POP PUSH2 0x71A JUMP JUMPDEST PUSH1 0x0 DUP1 DUP1 DUP1 SWAP4 CALLER GAS CALL PUSH2 0x74F PUSH2 0x1186 JUMP JUMPDEST POP ISZERO PUSH2 0x75B JUMPI DUP7 PUSH2 0x408 JUMP JUMPDEST PUSH1 0x40 MLOAD PUSH3 0x461BCD PUSH1 0xE5 SHL DUP2 MSTORE PUSH1 0x20 PUSH1 0x4 DUP3 ADD MSTORE PUSH1 0xD PUSH1 0x24 DUP3 ADD MSTORE PUSH13 0x1C99599D5B990819985A5B1959 PUSH1 0x9A SHL PUSH1 0x44 DUP3 ADD MSTORE PUSH1 0x64 SWAP1 REVERT JUMPDEST PUSH1 0x3 SLOAD PUSH1 0x0 SWAP2 DUP3 SWAP2 DUP3 SWAP2 DUP3 SWAP2 PUSH1 0x1 PUSH1 0x1 PUSH1 0xA0 SHL SUB AND GAS CALL PUSH2 0x7AF PUSH2 0x1186 JUMP JUMPDEST POP ISZERO PUSH2 0x7BB JUMPI DUP7 PUSH2 0x3F5 JUMP JUMPDEST PUSH1 0x40 MLOAD PUSH3 0x461BCD PUSH1 0xE5 SHL DUP2 MSTORE PUSH1 0x20 PUSH1 0x4 DUP3 ADD MSTORE PUSH1 0x13 PUSH1 0x24 DUP3 ADD MSTORE PUSH19 0x199959481D1C985B9CD9995C8819985A5B1959 PUSH1 0x6A SHL PUSH1 0x44 DUP3 ADD MSTORE PUSH1 0x64 SWAP1 REVERT JUMPDEST PUSH1 0x40 MLOAD PUSH3 0x461BCD PUSH1 0xE5 SHL DUP2 MSTORE PUSH1 0x20 PUSH1 0x4 DUP3 ADD MSTORE PUSH1 0x15 PUSH1 0x24 DUP3 ADD MSTORE PUSH21 0x3B32B9BA34B7339032B73239903A37B79039B7B7B7 PUSH1 0x59 SHL PUSH1 0x44 DUP3 ADD MSTORE PUSH1 0x64 SWAP1 REVERT JUMPDEST PUSH1 0x40 MLOAD PUSH3 0x461BCD PUSH1 0xE5 SHL DUP2 MSTORE PUSH1 0x20 PUSH1 0x4 DUP3 ADD MSTORE PUSH1 0xA PUSH1 0x24 DUP3 ADD MSTORE PUSH10 0x6475726174696F6E3D3 PUSH1 0xB4 SHL PUSH1 0x44 DUP3 ADD MSTORE PUSH1 0x64 SWAP1 REVERT JUMPDEST PUSH1 0x40 MLOAD PUSH3 0x461BCD PUSH1 0xE5 SHL DUP2 MSTORE PUSH1 0x20 PUSH1 0x4 DUP3 ADD MSTORE PUSH1 0x8 PUSH1 0x24 DUP3 ADD MSTORE PUSH8 0x616D6F756E743D3 PUSH1 0xC4 SHL PUSH1 0x44 DUP3 ADD MSTORE PUSH1 0x64 SWAP1 REVERT JUMPDEST PUSH1 0x40 MLOAD PUSH3 0x461BCD PUSH1 0xE5 SHL DUP2 MSTORE PUSH1 0x20 PUSH1 0x4 DUP3 ADD MSTORE PUSH1 0xD PUSH1 0x24 DUP3 ADD MSTORE PUSH13 0x62656E65666963696172793D3 PUSH1 0x9C SHL PUSH1 0x44 DUP3 ADD MSTORE PUSH1 0x64 SWAP1 REVERT JUMPDEST PUSH1 0x40 MLOAD PUSH3 0x461BCD PUSH1 0xE5 SHL DUP2 MSTORE PUSH1 0x20 PUSH1 0x4 DUP3 ADD MSTORE PUSH1 0x7 PUSH1 0x24 DUP3 ADD MSTORE PUSH7 0x746F6B656E3D3 PUSH1 0xCC SHL PUSH1 0x44 DUP3 ADD MSTORE PUSH1 0x64 SWAP1 REVERT JUMPDEST PUSH1 0x40 MLOAD PUSH3 0x461BCD PUSH1 0xE5 SHL DUP2 MSTORE PUSH1 0x20 PUSH1 0x4 DUP3 ADD MSTORE PUSH1 0x10 PUSH1 0x24 DUP3 ADD MSTORE PUSH16 0x696E73756666696369656E7420666565 PUSH1 0x80 SHL PUSH1 0x44 DUP3 ADD MSTORE PUSH1 0x64 SWAP1 REVERT JUMPDEST CALLVALUE PUSH2 0x16F JUMPI PUSH1 0x0 CALLDATASIZE PUSH1 0x3 NOT ADD SLT PUSH2 0x16F JUMPI PUSH1 0x20 PUSH1 0x4 SLOAD PUSH1 0x40 MLOAD SWAP1 DUP2 MSTORE RETURN JUMPDEST CALLVALUE PUSH2 0x16F JUMPI PUSH1 0x40 CALLDATASIZE PUSH1 0x3 NOT ADD SLT PUSH2 0x16F JUMPI PUSH1 0x4 CALLDATALOAD PUSH1 0x24 CALLDATALOAD PUSH1 0x1 PUSH1 0x1 PUSH1 0x40 SHL SUB DUP2 AND DUP1 DUP3 SUB PUSH2 0x16F JUMPI DUP3 PUSH1 0x0 MSTORE PUSH1 0x5 PUSH1 0x20 MSTORE PUSH2 0x997 PUSH1 0xFF PUSH1 0x5 PUSH1 0x40 PUSH1 0x0 KECCAK256 ADD SLOAD PUSH1 0xC0 SHR AND PUSH2 0xFCD JUMP JUMPDEST DUP3 PUSH1 0x0 MSTORE PUSH1 0x5 PUSH1 0x20 MSTORE PUSH2 0x9BB PUSH1 0x1 DUP1 PUSH1 0xA0 SHL SUB PUSH1 0x1 PUSH1 0x40 PUSH1 0x0 KECCAK256 ADD SLOAD AND CALLER EQ PUSH2 0x1107 JUMP JUMPDEST DUP3 PUSH1 0x0 MSTORE PUSH1 0x5 PUSH1 0x20 MSTORE PUSH1 0x5 PUSH1 0x40 PUSH1 0x0 KECCAK256 ADD SWAP1 DUP2 SLOAD SWAP1 PUSH1 0x1 PUSH1 0x1 PUSH1 0x40 SHL SUB DUP3 PUSH1 0x80 SHR AND SWAP2 DUP3 DUP3 GT ISZERO PUSH2 0xA5D JUMPI PUSH32 0x202D664F4D26CE0848D7E30547711E5D516A18ECB3C93CF367459EF53A67EF6C SWAP5 PUSH1 0x40 SWAP5 PUSH2 0xA25 PUSH1 0x1 PUSH1 0x1 PUSH1 0x40 SHL SUB PUSH2 0xA50 SWAP5 DUP9 SHR AND DUP6 LT ISZERO PUSH2 0x1147 JUMP JUMPDEST DUP1 SLOAD PUSH8 0xFFFFFFFFFFFFFFFF PUSH1 0x80 SHL NOT AND PUSH1 0x80 SWAP3 SWAP1 SWAP3 SHL PUSH8 0xFFFFFFFFFFFFFFFF PUSH1 0x80 SHL AND SWAP2 SWAP1 SWAP2 OR SWAP1 SSTORE JUMP JUMPDEST DUP3 MLOAD SWAP2 DUP3 MSTORE PUSH1 0x20 DUP3 ADD MSTORE LOG2 STOP JUMPDEST PUSH1 0x40 MLOAD PUSH3 0x461BCD PUSH1 0xE5 SHL DUP2 MSTORE PUSH1 0x20 PUSH1 0x4 DUP3 ADD MSTORE PUSH1 0xB PUSH1 0x24 DUP3 ADD MSTORE PUSH11 0x1B5D5CDD08195E1D195B99 PUSH1 0xAA SHL PUSH1 0x44 DUP3 ADD MSTORE PUSH1 0x64 SWAP1 REVERT JUMPDEST CALLVALUE PUSH2 0x16F JUMPI PUSH1 0x40 CALLDATASIZE PUSH1 0x3 NOT ADD SLT PUSH2 0x16F JUMPI PUSH1 0x4 CALLDATALOAD PUSH2 0xAAC PUSH2 0xFA1 JUMP JUMPDEST DUP2 PUSH1 0x0 MSTORE PUSH1 0x5 PUSH1 0x20 MSTORE PUSH2 0xACC PUSH1 0xFF PUSH1 0x5 PUSH1 0x40 PUSH1 0x0 KECCAK256 ADD SLOAD PUSH1 0xC0 SHR AND PUSH2 0xFCD JUMP JUMPDEST DUP2 PUSH1 0x0 MSTORE PUSH1 0x5 PUSH1 0x20 MSTORE PUSH2 0xAF0 PUSH1 0x1 DUP1 PUSH1 0xA0 SHL SUB PUSH1 0x1 PUSH1 0x40 PUSH1 0x0 KECCAK256 ADD SLOAD AND CALLER EQ PUSH2 0x1107 JUMP JUMPDEST PUSH1 0x1 PUSH1 0x1 PUSH1 0xA0 SHL SUB AND SWAP1 DUP2 ISZERO PUSH2 0xB54 JUMPI PUSH1 0x0 DUP2 DUP2 MSTORE PUSH1 0x5 PUSH1 0x20 MSTORE PUSH1 0x40 DUP2 KECCAK256 PUSH1 0x1 ADD DUP1 SLOAD PUSH1 0x1 PUSH1 0x1 PUSH1 0xA0 SHL SUB NOT DUP2 AND DUP6 OR SWAP1 SWAP2 SSTORE PUSH1 0x1 PUSH1 0x1 PUSH1 0xA0 SHL SUB AND SWAP2 SWAP1 PUSH32 0xD4D906E4FF3C227C719F151020D31AB5C094D7B1DEE0E66705D784D48285C022 SWAP1 DUP1 LOG4 STOP JUMPDEST PUSH1 0x40 MLOAD PUSH3 0x461BCD PUSH1 0xE5 SHL DUP2 MSTORE PUSH1 0x20 PUSH1 0x4 DUP3 ADD MSTORE PUSH1 0xA PUSH1 0x24 DUP3 ADD MSTORE PUSH10 0x6E65774F776E65723D3 PUSH1 0xB4 SHL PUSH1 0x44 DUP3 ADD MSTORE PUSH1 0x64 SWAP1 REVERT JUMPDEST CALLVALUE PUSH2 0x16F JUMPI PUSH1 0x0 CALLDATASIZE PUSH1 0x3 NOT ADD SLT PUSH2 0x16F JUMPI PUSH1 0x3 SLOAD PUSH1 0x40 MLOAD PUSH1 0x1 PUSH1 0x1 PUSH1 0xA0 SHL SUB SWAP1 SWAP2 AND DUP2 MSTORE PUSH1 0x20 SWAP1 RETURN JUMPDEST CALLVALUE PUSH2 0x16F JUMPI PUSH1 0x40 CALLDATASIZE PUSH1 0x3 NOT ADD SLT PUSH2 0x16F JUMPI PUSH1 0x4 CALLDATALOAD PUSH2 0xBCB PUSH2 0xFA1 JUMP JUMPDEST DUP2 PUSH1 0x0 MSTORE PUSH1 0x5 PUSH1 0x20 MSTORE PUSH2 0xBEB PUSH1 0xFF PUSH1 0x5 PUSH1 0x40 PUSH1 0x0 KECCAK256 ADD SLOAD PUSH1 0xC0 SHR AND PUSH2 0xFCD JUMP JUMPDEST DUP2 PUSH1 0x0 MSTORE PUSH1 0x5 PUSH1 0x20 MSTORE PUSH2 0xC0F PUSH1 0x1 DUP1 PUSH1 0xA0 SHL SUB PUSH1 0x1 PUSH1 0x40 PUSH1 0x0 KECCAK256 ADD SLOAD AND CALLER EQ PUSH2 0x1107 JUMP JUMPDEST PUSH1 0x1 PUSH1 0x1 PUSH1 0xA0 SHL SUB AND SWAP1 DUP2 ISZERO PUSH2 0xC73 JUMPI PUSH1 0x0 DUP2 DUP2 MSTORE PUSH1 0x5 PUSH1 0x20 MSTORE PUSH1 0x40 DUP2 KECCAK256 PUSH1 0x2 ADD DUP1 SLOAD PUSH1 0x1 PUSH1 0x1 PUSH1 0xA0 SHL SUB NOT DUP2 AND DUP6 OR SWAP1 SWAP2 SSTORE PUSH1 0x1 PUSH1 0x1 PUSH1 0xA0 SHL SUB AND SWAP2 SWAP1 PUSH32 0xAE42898B0BBC74B7C882285976B72654BA0AF1DA277ACE5D521487A4CFE916AC SWAP1 DUP1 LOG4 STOP JUMPDEST PUSH1 0x40 MLOAD PUSH3 0x461BCD PUSH1 0xE5 SHL DUP2 MSTORE PUSH1 0x20 PUSH1 0x4 DUP3 ADD MSTORE PUSH1 0x10 PUSH1 0x24 DUP3 ADD MSTORE PUSH16 0x6E657742656E65666963696172793D3 PUSH1 0x84 SHL PUSH1 0x44 DUP3 ADD MSTORE PUSH1 0x64 SWAP1 REVERT JUMPDEST CALLVALUE PUSH2 0x16F JUMPI PUSH1 0x20 CALLDATASIZE PUSH1 0x3 NOT ADD SLT PUSH2 0x16F JUMPI PUSH1 0x4 CALLDATALOAD PUSH2 0xCC7 PUSH2 0x131C JUMP JUMPDEST DUP1 PUSH1 0x0 MSTORE PUSH1 0x5 PUSH1 0x20 MSTORE PUSH2 0xCE7 PUSH1 0xFF PUSH1 0x5 PUSH1 0x40 PUSH1 0x0 KECCAK256 ADD SLOAD PUSH1 0xC0 SHR AND PUSH2 0xFCD JUMP JUMPDEST DUP1 PUSH1 0x0 MSTORE PUSH1 0x5 PUSH1 0x20 MSTORE PUSH1 0x40 PUSH1 0x0 KECCAK256 SWAP1 PUSH1 0x2 DUP3 ADD SWAP2 PUSH1 0x1 DUP1 PUSH1 0xA0 SHL SUB DUP4 SLOAD AND DUP1 CALLER SUB PUSH2 0xDE6 JUMPI PUSH2 0xD18 PUSH2 0x276 DUP4 PUSH2 0x1060 JUMP JUMPDEST SWAP4 DUP5 ISZERO PUSH2 0xDAC JUMPI PUSH2 0xD93 PUSH1 0x20 SWAP3 DUP5 PUSH1 0x4 PUSH32 0x3BFCE8DE0DB7450CC169B94323C210E69A36C6A4A58C9F5D96BEC4973ADCE392 SWAP7 ADD PUSH2 0xD56 DUP10 DUP3 SLOAD PUSH2 0x10FA JUMP JUMPDEST SWAP1 SSTORE SLOAD PUSH1 0x40 MLOAD PUSH4 0xA9059CBB PUSH1 0xE0 SHL DUP7 DUP3 ADD MSTORE PUSH1 0x24 DUP2 ADD SWAP3 SWAP1 SWAP3 MSTORE PUSH1 0x44 DUP1 DUP4 ADD DUP10 SWAP1 MSTORE DUP3 MSTORE PUSH1 0x1 PUSH1 0x1 PUSH1 0xA0 SHL SUB AND PUSH2 0xD8E PUSH1 0x64 DUP4 PUSH2 0x103F JUMP JUMPDEST PUSH2 0x1371 JUMP JUMPDEST SLOAD PUSH1 0x40 MLOAD SWAP5 DUP6 MSTORE PUSH1 0x1 PUSH1 0x1 PUSH1 0xA0 SHL SUB AND SWAP4 LOG3 PUSH1 0x1 PUSH1 0x0 SSTORE STOP JUMPDEST PUSH1 0x40 MLOAD PUSH3 0x461BCD PUSH1 0xE5 SHL DUP2 MSTORE PUSH1 0x20 PUSH1 0x4 DUP3 ADD MSTORE PUSH1 0x12 PUSH1 0x24 DUP3 ADD MSTORE PUSH18 0x6E6F7468696E6720746F2072656C65617365 PUSH1 0x70 SHL PUSH1 0x44 DUP3 ADD MSTORE PUSH1 0x64 SWAP1 REVERT JUMPDEST PUSH1 0x40 MLOAD PUSH3 0x461BCD PUSH1 0xE5 SHL DUP2 MSTORE PUSH1 0x20 PUSH1 0x4 DUP3 ADD MSTORE PUSH1 0xF PUSH1 0x24 DUP3 ADD MSTORE PUSH15 0x6E6F742062656E6566696369617279 PUSH1 0x88 SHL PUSH1 0x44 DUP3 ADD MSTORE PUSH1 0x64 SWAP1 REVERT JUMPDEST CALLVALUE PUSH2 0x16F JUMPI PUSH1 0x20 CALLDATASIZE PUSH1 0x3 NOT ADD SLT PUSH2 0x16F JUMPI PUSH1 0x4 CALLDATALOAD PUSH1 0x0 MSTORE PUSH1 0x5 PUSH1 0x20 MSTORE PUSH2 0x120 PUSH1 0x40 PUSH1 0x0 KECCAK256 PUSH1 0xFF PUSH1 0x1 DUP1 PUSH1 0xA0 SHL SUB DUP3 SLOAD AND SWAP2 PUSH1 0x1 DUP1 PUSH1 0xA0 SHL SUB PUSH1 0x1 DUP3 ADD SLOAD AND SWAP1 PUSH1 0x1 DUP1 PUSH1 0xA0 SHL SUB PUSH1 0x2 DUP3 ADD SLOAD AND PUSH1 0x3 DUP3 ADD SLOAD SWAP1 PUSH1 0x5 PUSH1 0x4 DUP5 ADD SLOAD SWAP4 ADD SLOAD SWAP4 PUSH1 0x40 MLOAD SWAP7 DUP8 MSTORE PUSH1 0x20 DUP8 ADD MSTORE PUSH1 0x40 DUP7 ADD MSTORE PUSH1 0x60 DUP6 ADD MSTORE PUSH1 0x80 DUP5 ADD MSTORE PUSH1 0x1 PUSH1 0x1 PUSH1 0x40 SHL SUB DUP2 AND PUSH1 0xA0 DUP5 ADD MSTORE PUSH1 0x1 PUSH1 0x1 PUSH1 0x40 SHL SUB DUP2 PUSH1 0x40 SHR AND PUSH1 0xC0 DUP5 ADD MSTORE PUSH1 0x1 PUSH1 0x1 PUSH1 0x40 SHL SUB DUP2 PUSH1 0x80 SHR AND PUSH1 0xE0 DUP5 ADD MSTORE PUSH1 0xC0 SHR AND ISZERO ISZERO PUSH2 0x100 DUP3 ADD MSTORE RETURN JUMPDEST CALLVALUE PUSH2 0x16F JUMPI PUSH1 0x20 CALLDATASIZE PUSH1 0x3 NOT ADD SLT PUSH2 0x16F JUMPI PUSH1 0x4 CALLDATALOAD DUP1 PUSH1 0x0 MSTORE PUSH1 0x5 PUSH1 0x20 MSTORE PUSH2 0xF09 PUSH1 0xFF PUSH1 0x5 PUSH1 0x40 PUSH1 0x0 KECCAK256 ADD SLOAD PUSH1 0xC0 SHR AND PUSH2 0xFCD JUMP JUMPDEST PUSH1 0x0 MSTORE PUSH1 0x5 PUSH1 0x20 MSTORE PUSH1 0x20 PUSH2 0x27B PUSH1 0x40 PUSH1 0x0 KECCAK256 PUSH2 0xF2E PUSH1 0x1 PUSH1 0x1 PUSH1 0x40 SHL SUB TIMESTAMP AND SWAP2 PUSH2 0x1060 JUMP JUMPDEST PUSH2 0x123B JUMP JUMPDEST CALLVALUE PUSH2 0x16F JUMPI PUSH1 0x20 CALLDATASIZE PUSH1 0x3 NOT ADD SLT PUSH2 0x16F JUMPI PUSH1 0x4 CALLDATALOAD PUSH2 0xF4F PUSH2 0x11D2 JUMP JUMPDEST PUSH32 0xC9B2F903D5DF5018A7435F03EEB84F2DCB7FF906F4D1B49190F168B6750092AC PUSH1 0x40 PUSH1 0x2 SLOAD DUP2 MLOAD SWAP1 DUP2 MSTORE DUP4 PUSH1 0x20 DUP3 ADD MSTORE LOG1 PUSH1 0x2 SSTORE STOP JUMPDEST CALLVALUE PUSH2 0x16F JUMPI PUSH1 0x0 CALLDATASIZE PUSH1 0x3 NOT ADD SLT PUSH2 0x16F JUMPI PUSH1 0x20 SWAP1 PUSH1 0x2 SLOAD DUP2 MSTORE RETURN JUMPDEST PUSH1 0x24 CALLDATALOAD SWAP1 PUSH1 0x1 PUSH1 0x1 PUSH1 0xA0 SHL SUB DUP3 AND DUP3 SUB PUSH2 0x16F JUMPI JUMP JUMPDEST PUSH1 0x4 CALLDATALOAD SWAP1 PUSH1 0x1 PUSH1 0x1 PUSH1 0xA0 SHL SUB DUP3 AND DUP3 SUB PUSH2 0x16F JUMPI JUMP JUMPDEST ISZERO PUSH2 0xFD4 JUMPI JUMP JUMPDEST PUSH1 0x40 MLOAD PUSH3 0x461BCD PUSH1 0xE5 SHL DUP2 MSTORE PUSH1 0x20 PUSH1 0x4 DUP3 ADD MSTORE PUSH1 0x11 PUSH1 0x24 DUP3 ADD MSTORE PUSH17 0x1D995CDD1A5B99C81B9BDD08199BDD5B99 PUSH1 0x7A SHL PUSH1 0x44 DUP3 ADD MSTORE PUSH1 0x64 SWAP1 REVERT JUMPDEST PUSH2 0x120 DUP2 ADD SWAP1 DUP2 LT PUSH1 0x1 PUSH1 0x1 PUSH1 0x40 SHL SUB DUP3 GT OR PUSH2 0x1029 JUMPI PUSH1 0x40 MSTORE JUMP JUMPDEST PUSH4 0x4E487B71 PUSH1 0xE0 SHL PUSH1 0x0 MSTORE PUSH1 0x41 PUSH1 0x4 MSTORE PUSH1 0x24 PUSH1 0x0 REVERT JUMPDEST SWAP1 PUSH1 0x1F DUP1 NOT SWAP2 ADD AND DUP2 ADD SWAP1 DUP2 LT PUSH1 0x1 PUSH1 0x1 PUSH1 0x40 SHL SUB DUP3 GT OR PUSH2 0x1029 JUMPI PUSH1 0x40 MSTORE JUMP JUMPDEST SWAP1 PUSH1 0x40 MLOAD PUSH2 0x106D DUP2 PUSH2 0x100D JUMP JUMPDEST PUSH2 0x100 PUSH1 0xFF PUSH1 0x5 DUP4 SWAP6 PUSH1 0x1 DUP1 PUSH1 0xA0 SHL SUB DUP2 SLOAD AND DUP6 MSTORE PUSH1 0x1 DUP1 PUSH1 0xA0 SHL SUB PUSH1 0x1 DUP3 ADD SLOAD AND PUSH1 0x20 DUP7 ADD MSTORE PUSH1 0x1 DUP1 PUSH1 0xA0 SHL SUB PUSH1 0x2 DUP3 ADD SLOAD AND PUSH1 0x40 DUP7 ADD MSTORE PUSH1 0x3 DUP2 ADD SLOAD PUSH1 0x60 DUP7 ADD MSTORE PUSH1 0x4 DUP2 ADD SLOAD PUSH1 0x80 DUP7 ADD MSTORE ADD SLOAD PUSH1 0x1 PUSH1 0x1 PUSH1 0x40 SHL SUB DUP2 AND PUSH1 0xA0 DUP6 ADD MSTORE PUSH1 0x1 PUSH1 0x1 PUSH1 0x40 SHL SUB DUP2 PUSH1 0x40 SHR AND PUSH1 0xC0 DUP6 ADD MSTORE PUSH1 0x1 PUSH1 0x1 PUSH1 0x40 SHL SUB DUP2 PUSH1 0x80 SHR AND PUSH1 0xE0 DUP6 ADD MSTORE PUSH1 0xC0 SHR AND ISZERO ISZERO SWAP2 ADD MSTORE JUMP JUMPDEST SWAP2 SWAP1 DUP3 ADD DUP1 SWAP3 GT PUSH2 0x684 JUMPI JUMP JUMPDEST ISZERO PUSH2 0x110E JUMPI JUMP JUMPDEST PUSH1 0x40 MLOAD PUSH3 0x461BCD PUSH1 0xE5 SHL DUP2 MSTORE PUSH1 0x20 PUSH1 0x4 DUP3 ADD MSTORE PUSH1 0x11 PUSH1 0x24 DUP3 ADD MSTORE PUSH17 0x2737BA103B32B9BA34B7339037BBB732B9 PUSH1 0x79 SHL PUSH1 0x44 DUP3 ADD MSTORE PUSH1 0x64 SWAP1 REVERT JUMPDEST ISZERO PUSH2 0x114E JUMPI JUMP JUMPDEST PUSH1 0x40 MLOAD PUSH3 0x461BCD PUSH1 0xE5 SHL DUP2 MSTORE PUSH1 0x20 PUSH1 0x4 DUP3 ADD MSTORE PUSH1 0x10 PUSH1 0x24 DUP3 ADD MSTORE PUSH16 0x323AB930BA34B7B7101E1031B634B333 PUSH1 0x81 SHL PUSH1 0x44 DUP3 ADD MSTORE PUSH1 0x64 SWAP1 REVERT JUMPDEST RETURNDATASIZE ISZERO PUSH2 0x11C0 JUMPI RETURNDATASIZE SWAP1 PUSH1 0x1 PUSH1 0x1 PUSH1 0x40 SHL SUB DUP3 GT PUSH2 0x1029 JUMPI PUSH1 0x40 MLOAD SWAP2 PUSH2 0x11B4 PUSH1 0x1F DUP3 ADD PUSH1 0x1F NOT AND PUSH1 0x20 ADD DUP5 PUSH2 0x103F JUMP JUMPDEST DUP3 MSTORE RETURNDATASIZE PUSH1 0x0 PUSH1 0x20 DUP5 ADD RETURNDATACOPY JUMP JUMPDEST PUSH1 0x60 SWAP1 JUMP JUMPDEST SWAP2 SWAP1 DUP3 SUB SWAP2 DUP3 GT PUSH2 0x684 JUMPI JUMP JUMPDEST PUSH1 0x1 SLOAD PUSH1 0x1 PUSH1 0x1 PUSH1 0xA0 SHL SUB AND CALLER SUB PUSH2 0x11E6 JUMPI JUMP JUMPDEST PUSH4 0x118CDAA7 PUSH1 0xE0 SHL PUSH1 0x0 MSTORE CALLER PUSH1 0x4 MSTORE PUSH1 0x24 PUSH1 0x0 REVERT JUMPDEST SWAP1 PUSH1 0x1 PUSH1 0x1 PUSH1 0x40 SHL SUB DUP1 SWAP2 AND SWAP2 AND ADD SWAP1 PUSH1 0x1 PUSH1 0x1 PUSH1 0x40 SHL SUB DUP3 GT PUSH2 0x684 JUMPI JUMP JUMPDEST SWAP1 PUSH1 0x1 PUSH1 0x1 PUSH1 0x40 SHL SUB DUP1 SWAP2 AND SWAP2 AND SUB SWAP1 PUSH1 0x1 PUSH1 0x1 PUSH1 0x40 SHL SUB DUP3 GT PUSH2 0x684 JUMPI JUMP JUMPDEST PUSH1 0xA0 DUP2 ADD PUSH1 0x1 PUSH1 0x1 PUSH1 0x40 SHL SUB DUP2 MLOAD AND PUSH2 0x1263 PUSH1 0xC0 DUP5 ADD SWAP2 PUSH1 0x1 PUSH1 0x1 PUSH1 0x40 SHL SUB DUP4 MLOAD AND SWAP1 PUSH2 0x11FB JUMP JUMPDEST SWAP2 PUSH1 0x1 PUSH1 0x1 PUSH1 0x40 SHL SUB DUP6 AND SWAP1 PUSH1 0x1 PUSH1 0x1 PUSH1 0x40 SHL SUB DUP5 AND DUP3 LT PUSH2 0x1311 JUMPI PUSH1 0x1 PUSH1 0x1 PUSH1 0x40 SHL SUB SWAP1 MLOAD AND SWAP1 PUSH1 0x1 PUSH1 0x1 PUSH1 0x40 SHL SUB PUSH2 0x12A5 PUSH1 0xE0 DUP8 ADD SWAP4 DUP3 DUP6 MLOAD AND SWAP1 PUSH2 0x11FB JUMP JUMPDEST AND GT ISZERO PUSH2 0x1305 JUMPI PUSH1 0x1 PUSH1 0x1 PUSH1 0x40 SHL SUB SWAP2 DUP3 DUP1 PUSH2 0x12C6 SWAP4 MLOAD AND SWAP2 MLOAD AND SWAP1 PUSH2 0x121B JUMP JUMPDEST AND SWAP3 DUP4 ISZERO PUSH2 0x12FA JUMPI PUSH2 0x12E2 PUSH1 0x60 SWAP3 PUSH1 0x1 PUSH1 0x1 PUSH1 0x40 SHL SUB SWAP3 PUSH2 0x121B JUMP JUMPDEST AND SWAP2 ADD MLOAD DUP2 DUP2 MUL SWAP2 DUP2 DUP4 DIV EQ SWAP1 ISZERO OR ISZERO PUSH2 0x684 JUMPI DIV SWAP1 JUMP JUMPDEST POP POP PUSH1 0x60 SWAP2 POP ADD MLOAD SWAP1 JUMP JUMPDEST POP POP POP PUSH1 0x60 SWAP2 POP ADD MLOAD SWAP1 JUMP JUMPDEST POP POP POP POP POP POP PUSH1 0x0 SWAP1 JUMP JUMPDEST PUSH1 0x2 PUSH1 0x0 SLOAD EQ PUSH2 0x132D JUMPI PUSH1 0x2 PUSH1 0x0 SSTORE JUMP JUMPDEST PUSH4 0x3EE5AEB5 PUSH1 0xE0 SHL PUSH1 0x0 MSTORE PUSH1 0x4 PUSH1 0x0 REVERT JUMPDEST PUSH1 0x80 PUSH2 0x1353 PUSH1 0x1 PUSH1 0x1 PUSH1 0x40 SHL SUB TIMESTAMP AND DUP4 PUSH2 0x123B JUMP JUMPDEST SWAP2 ADD MLOAD DUP1 DUP3 GT ISZERO PUSH2 0x136A JUMPI PUSH2 0x1367 SWAP2 PUSH2 0x11C5 JUMP JUMPDEST SWAP1 JUMP JUMPDEST POP POP PUSH1 0x0 SWAP1 JUMP JUMPDEST SWAP1 PUSH1 0x0 PUSH1 0x20 SWAP2 DUP3 DUP2 MLOAD SWAP2 ADD DUP3 DUP6 GAS CALL ISZERO PUSH2 0x700 JUMPI PUSH1 0x0 MLOAD RETURNDATASIZE PUSH2 0x13C3 JUMPI POP PUSH1 0x1 PUSH1 0x1 PUSH1 0xA0 SHL SUB DUP2 AND EXTCODESIZE ISZERO JUMPDEST PUSH2 0x13A2 JUMPI POP JUMP JUMPDEST PUSH4 0x5274AFE7 PUSH1 0xE0 SHL PUSH1 0x0 SWAP1 DUP2 MSTORE PUSH1 0x1 PUSH1 0x1 PUSH1 0xA0 SHL SUB SWAP2 SWAP1 SWAP2 AND PUSH1 0x4 MSTORE PUSH1 0x24 SWAP1 REVERT JUMPDEST PUSH1 0x1 EQ ISZERO PUSH2 0x139B JUMP INVALID LOG2 PUSH5 0x6970667358 0x22 SLT KECCAK256 PUSH26 0xEF99708484B6498A886535F7BC0586EB572588C3FBB0372AFD4A NOT PUSH8 0xCF859D64736F6C63 NUMBER STOP ADDMOD SHR STOP CALLER "},"methodIdentifiers":{"MIN_VESTING_END_DELAY()":"d31aa605","createVesting(address,address,uint64,uint64,uint64,uint256)":"6fd01278","extendVestingDuration(uint256,uint64)":"52cf7ca4","feeRecipient()":"46904840","nextId()":"61b8ce8c","owner()":"8da5cb5b","releasable(uint256)":"e4bf01a8","release(uint256)":"37bdc99b","renounceOwnership()":"715018a6","setFeeRecipient(address)":"e74b981b","setVestingLockFee(uint256)":"187c545f","transferOwnership(address)":"f2fde38b","transferVestingLockOwnership(uint256,address)":"51cc5c2b","updateBeneficiary(uint256,address)":"3e8eb5a4","vestedAmount(uint256)":"1bfce853","vestingLockFee()":"02757e63","vestingLocks(uint256)":"3470d28e"}}}}}