{"contracts/launch/TokenFactory.sol":{"TokenFactory":{"abi":[{"inputs":[],"stateMutability":"nonpayable","type":"constructor"},{"inputs":[],"name":"ReentrancyGuardReentrantCall","type":"error"},{"inputs":[{"internalType":"address","name":"token","type":"address"}],"name":"SafeERC20FailedOperation","type":"error"},{"anonymous":false,"inputs":[{"indexed":false,"internalType":"uint256","name":"oldBasicFeeWei","type":"uint256"},{"indexed":false,"internalType":"uint256","name":"oldDistributionFeeWei","type":"uint256"},{"indexed":false,"internalType":"uint256","name":"oldVestingFeeWei","type":"uint256"},{"indexed":false,"internalType":"uint256","name":"newBasicFeeWei","type":"uint256"},{"indexed":false,"internalType":"uint256","name":"newDistributionFeeWei","type":"uint256"},{"indexed":false,"internalType":"uint256","name":"newVestingFeeWei","type":"uint256"}],"name":"FeesUpdated","type":"event"},{"anonymous":false,"inputs":[{"indexed":true,"internalType":"address","name":"to","type":"address"},{"indexed":false,"internalType":"uint256","name":"amountWei","type":"uint256"}],"name":"FeesWithdrawn","type":"event"},{"anonymous":false,"inputs":[{"indexed":true,"internalType":"address","name":"previousOwner","type":"address"},{"indexed":true,"internalType":"address","name":"newOwner","type":"address"}],"name":"OwnershipTransferred","type":"event"},{"anonymous":false,"inputs":[{"indexed":true,"internalType":"address","name":"creator","type":"address"},{"indexed":true,"internalType":"address","name":"token","type":"address"}],"name":"TokenCreated","type":"event"},{"anonymous":false,"inputs":[{"indexed":true,"internalType":"address","name":"token","type":"address"},{"indexed":true,"internalType":"address","name":"to","type":"address"},{"indexed":false,"internalType":"uint256","name":"amount","type":"uint256"}],"name":"TokenDistributed","type":"event"},{"anonymous":false,"inputs":[{"indexed":true,"internalType":"address","name":"token","type":"address"},{"indexed":true,"internalType":"address","name":"vault","type":"address"},{"indexed":true,"internalType":"address","name":"beneficiary","type":"address"},{"indexed":false,"internalType":"uint256","name":"amount","type":"uint256"}],"name":"VestingCreated","type":"event"},{"inputs":[],"name":"basicFeeWei","outputs":[{"internalType":"uint256","name":"","type":"uint256"}],"stateMutability":"view","type":"function"},{"inputs":[{"components":[{"internalType":"string","name":"name","type":"string"},{"internalType":"string","name":"symbol","type":"string"},{"internalType":"uint256","name":"totalSupplyRaw","type":"uint256"},{"internalType":"uint8","name":"decimals","type":"uint8"}],"internalType":"struct TokenFactory.TokenConfig","name":"cfg","type":"tuple"}],"name":"createToken","outputs":[{"internalType":"address","name":"tokenAddr","type":"address"}],"stateMutability":"payable","type":"function"},{"inputs":[{"components":[{"internalType":"string","name":"name","type":"string"},{"internalType":"string","name":"symbol","type":"string"},{"internalType":"uint256","name":"totalSupplyRaw","type":"uint256"},{"internalType":"uint8","name":"decimals","type":"uint8"}],"internalType":"struct TokenFactory.TokenConfig","name":"cfg","type":"tuple"},{"internalType":"address[]","name":"recipients","type":"address[]"},{"internalType":"uint256[]","name":"amounts","type":"uint256[]"}],"name":"createTokenWithDistribution","outputs":[{"internalType":"address","name":"tokenAddr","type":"address"}],"stateMutability":"payable","type":"function"},{"inputs":[{"components":[{"internalType":"string","name":"name","type":"string"},{"internalType":"string","name":"symbol","type":"string"},{"internalType":"uint256","name":"totalSupplyRaw","type":"uint256"},{"internalType":"uint8","name":"decimals","type":"uint8"}],"internalType":"struct TokenFactory.TokenConfig","name":"cfg","type":"tuple"},{"internalType":"address[]","name":"recipients","type":"address[]"},{"internalType":"uint256[]","name":"amounts","type":"uint256[]"},{"components":[{"internalType":"address","name":"beneficiary","type":"address"},{"internalType":"uint64","name":"start","type":"uint64"},{"internalType":"uint64","name":"cliffSeconds","type":"uint64"},{"internalType":"uint64","name":"durationSeconds","type":"uint64"},{"internalType":"uint256","name":"amount","type":"uint256"}],"internalType":"struct TokenFactory.Vesting[]","name":"vestings","type":"tuple[]"}],"name":"createTokenWithDistributionAndVesting","outputs":[{"internalType":"address","name":"tokenAddr","type":"address"}],"stateMutability":"payable","type":"function"},{"inputs":[],"name":"distributionFeeWei","outputs":[{"internalType":"uint256","name":"","type":"uint256"}],"stateMutability":"view","type":"function"},{"inputs":[],"name":"owner","outputs":[{"internalType":"address","name":"","type":"address"}],"stateMutability":"view","type":"function"},{"inputs":[{"internalType":"uint256","name":"newBasicFeeWei","type":"uint256"},{"internalType":"uint256","name":"newDistributionFeeWei","type":"uint256"},{"internalType":"uint256","name":"newVestingFeeWei","type":"uint256"}],"name":"setFeesWei","outputs":[],"stateMutability":"nonpayable","type":"function"},{"inputs":[{"internalType":"address","name":"newOwner","type":"address"}],"name":"transferOwnership","outputs":[],"stateMutability":"nonpayable","type":"function"},{"inputs":[],"name":"vestingFeeWei","outputs":[{"internalType":"uint256","name":"","type":"uint256"}],"stateMutability":"view","type":"function"},{"inputs":[{"internalType":"address payable","name":"to","type":"address"},{"internalType":"uint256","name":"amountWei","type":"uint256"}],"name":"withdrawFees","outputs":[],"stateMutability":"nonpayable","type":"function"}],"evm":{"bytecode":{"linkReferences":{},"object":"608080604052346073576001600081815581546001600160a01b031916339081179092557f8be0079c531659141344cd1fd0a4f28419497f9722a3daafe3b4186f6b6457e08180a3655af3107a400060025566038d7ea4c680006003556611c37937e080006004556128f490816100798239f35b600080fdfe6080604052600436101561001257600080fd5b6000803560e01c80630dbd2ce314610b44578063308cc33d14610b265780633db315ba146109ae5780634f3cff1e1461084f5780637904673214610831578063791a178d146103165780638da5cb5b146102ed578063ad3b1b4714610158578063c48b374d1461013a5763f2fde38b1461008b57600080fd5b34610137576020366003190112610137576004356001600160a01b03811690819003610135576001546001600160a01b038116906100ca338314610e75565b8215610106576001600160a01b03191682176001557f8be0079c531659141344cd1fd0a4f28419497f9722a3daafe3b4186f6b6457e08380a380f35b60405162461bcd60e51b815260206004820152600760248201526606f776e65723d360cc1b6044820152606490fd5b505b80fd5b50346101375780600319360112610137576020600454604051908152f35b5034610137576040366003190112610137576004356001600160a01b038116908181036102e957600154602435916001600160a01b039091169061019d338314610e75565b60028554146102da576002855592156102d2575b50806102cc575047905b4782116102905782808093819360018060a01b0316807fc0819c13be868895eb93e40eaceb96de976442fa1d404e5c55f14bb65a8c489a6020604051858152a25af13d1561028b573d6001600160401b038111610277576040519061022a601f8201601f191660200183610e3e565b81528260203d92013e5b15610240576001815580f35b60405162461bcd60e51b815260206004820152600f60248201526e1dda5d1a191c985dc819985a5b1959608a1b6044820152606490fd5b634e487b7160e01b83526041600452602483fd5b610234565b60405162461bcd60e51b8152602060048201526014602482015273696e73756666696369656e742062616c616e636560601b6044820152606490fd5b906101bb565b9150386101b1565b633ee5aeb560e01b8552600485fd5b8280fd5b50346101375780600319360112610137576001546040516001600160a01b039091168152602090f35b506080366003190112610137576004356001600160401b0381116101355760806003198236030112610135576024356001600160401b0381116102e957610361903690600401610d9d565b91906044356001600160401b03811161082d57610382903690600401610d9d565b9290606435926001600160401b0384116108295736602385011215610829578360040135926001600160401b0384116108255760248501946024369160a08702010111610825576103d4600454610ebd565b60448101356103e4811515610dcd565b6103f187858a8685610f9f565b603286116107ec578998979695995b8a811061073357506104209291610418911115610f5b565b600401611124565b959094875b8281106106b2575050505050839461095290611f4d905b80881061057e576040516370a0823160e01b81523060048201528790879082906001600160a01b03891690602081602481855afa908115610504578391610544575b508061050f575b50803b1561013557819060246040518094819363f2fde38b60e01b83523360048401525af18015610504576104ef575b6040516020906001600160a01b03841680337fd5f9bdf12adf29dab0248c349842c3822d53ae2bb4f36352f301630d018c81398880a38152f35b6104fa838092610e3e565b61013557826104b5565b6040513d85823e3d90fd5b6001600160a01b0384166105248233836111d1565b60405191825260008051602061289f83398151915260203393a384610485565b9250506020823d602011610576575b8161056060209383610e3e565b81010312610571578391518561047e565b600080fd5b3d9150610553565b610589888286610ead565b9761059389610e2a565b906105a060208b01611262565b996105ad60408201611262565b906105ba60608201611262565b91608082013592604051918983019e8f6001600160401b0385821091111761069e579e8e9f8e9f9e936001600160401b038694818f948f98829660c09a8a396001600160a01b039081168089529e16602088015216604086015216606084015216608082015260a081018690520301908bf0938415610693576001946001600160a01b0316917f1b138257231d2c00719335bc377b9c84f462339563b691e1dab140fbef52b41e906020906106708686866111d1565b61067f888060a01b0391610e2a565b1694604051908152a401975095949561043c565b6040513d8c823e3d90fd5b634e487b7160e01b8f52604160045260248ffd5b806106c660019284889d999a9b9c9d610e04565b35801561072d57828060a01b038b166106f2826106ec6106e7868a8c610e04565b610e2a565b836111d1565b60008051602061289f8339815191526020858060a01b036107176106e7878b8d610e04565b1693604051908152a35b01989796959498610425565b50610721565b90610744828c899a9b9c9d99610ead565b6001600160a01b0361075582610e2a565b16156107b7576080013590811561077f5760019161077291610f38565b9101999897969599610400565b60405162461bcd60e51b815260206004820152601060248201526f076657374696e6720616d6f756e743d360841b6044820152606490fd5b60405162461bcd60e51b815260206004820152600d60248201526c062656e65666963696172793d3609c1b6044820152606490fd5b60405162461bcd60e51b8152602060048201526011602482015270746f6f206d616e792076657374696e677360781b6044820152606490fd5b8780fd5b8680fd5b8480fd5b50346101375780600319360112610137576020600354604051908152f35b506020366003190112610137576004356001600160401b0381116101355760806003198236030112610135576108999061088a600254610ebd565b61041860448201351515610dcd565b6001600160a01b039091169190823b156101355760405163f2fde38b60e01b8152336004820152828160248183885af1801561050457610999575b506020602493604051948580926370a0823160e01b82523060048301525afa801561098e57829061095b575b6020935080610941575b5060018060a01b031680604051927fd5f9bdf12adf29dab0248c349842c3822d53ae2bb4f36352f301630d018c8139339180a38152f35b61095590336001600160a01b0384166111d1565b3861090a565b506020833d602011610986575b8161097560209383610e3e565b810103126105715760209251610900565b3d9150610968565b6040513d84823e3d90fd5b6109a4838092610e3e565b61013557386108d4565b503461013757606036600319011261013757600435602435604435916109df60018060a01b03600154163314610e75565b670de0b6b3a76400008111610aec57670de0b6b3a76400008211610aa757670de0b6b3a76400008311610a6b577f2e494fbb5d1bda2269c90d7124ba22ca99044b61d2a920ece35a1a1726ff0c379260c0926002549260035460045490826002558360035584600455604051958652602086015260408501526060840152608083015260a0820152a180f35b60405162461bcd60e51b81526020600482015260146024820152730eccae6e8d2dcce40cccaca40e8dede40d0d2ced60631b6044820152606490fd5b60405162461bcd60e51b815260206004820152601960248201527f646973747269627574696f6e2066656520746f6f2068696768000000000000006044820152606490fd5b60405162461bcd60e51b81526020600482015260126024820152710c4c2e6d2c640cccaca40e8dede40d0d2ced60731b6044820152606490fd5b50346101375780600319360112610137576020600254604051908152f35b506060366003190112610137576004356001600160401b0381116101355760806003198236030112610135576024356001600160401b0381116102e957610b8f903690600401610d9d565b91604435916001600160401b03831161082d5790610be991610bb686943690600401610d9d565b939092610bc4600354610ebd565b610be0858589866044860135610bdb811515610dcd565b610f9f565b50600401611124565b959093855b828110610d2657505050505060018060a01b03166040516370a0823160e01b8152306004820152602081602481855afa908115610504578391610cf4575b5080610cbf575b50803b1561013557819060246040518096819363f2fde38b60e01b83523360048401525af1928315610cb257602093610ca2575b50604051916001600160a01b031690819033907fd5f9bdf12adf29dab0248c349842c3822d53ae2bb4f36352f301630d018c81399080a38152f35b81610cac91610e3e565b38610c67565b50604051903d90823e3d90fd5b6001600160a01b038416610cd48233836111d1565b60405191825260008051602061289f83398151915260203393a338610c33565b90506020813d602011610d1e575b81610d0f60209383610e3e565b810103126102e9575138610c2c565b3d9150610d02565b84959650610d3a8183600194959697610e04565b358015610d9757828060a01b038916610d5b826106ec6106e7868a8c610e04565b60008051602061289f8339815191526020858060a01b03610d806106e7878b8d610e04565b1693604051908152a35b0190879594939291610bee565b50610d8a565b9181601f84011215610571578235916001600160401b038311610571576020808501948460051b01011161057157565b15610dd457565b60405162461bcd60e51b81526020600482015260086024820152670737570706c793d360c41b6044820152606490fd5b9190811015610e145760051b0190565b634e487b7160e01b600052603260045260246000fd5b356001600160a01b03811681036105715790565b90601f801991011681019081106001600160401b03821117610e5f57604052565b634e487b7160e01b600052604160045260246000fd5b15610e7c57565b60405162461bcd60e51b81526020600482015260096024820152683737ba1037bbb732b960b91b6044820152606490fd5b9190811015610e145760a0020190565b80610f01575034610eca57565b60405162461bcd60e51b815260206004820152600f60248201526e1b9bc8199959481c995c5d5a5c9959608a1b6044820152606490fd5b3403610f0957565b60405162461bcd60e51b81526020600482015260076024820152666261642066656560c81b6044820152606490fd5b91908201809211610f4557565b634e487b7160e01b600052601160045260246000fd5b15610f6257565b60405162461bcd60e51b8152602060048201526015602482015274646973747269627574696f6e203e20737570706c7960581b6044820152606490fd5b929190949360009581830361109a576064831161105f579291906000935b828510610fd7575050505050610fd590831115610f5b565b565b909192939660018060a01b03610ff16106e78a8786610e04565b161561102c57611002888487610e04565b359081156110225760019161101691610f38565b975b0193929190610fbd565b9760019150611018565b60405162461bcd60e51b815260206004820152600b60248201526a0726563697069656e743d360ac1b6044820152606490fd5b60405162461bcd60e51b8152602060048201526013602482015272746f6f206d616e7920726563697069656e747360681b6044820152606490fd5b60405162461bcd60e51b815260206004820152600f60248201526e0d8cadccee8d040dad2e6dac2e8c6d608b1b6044820152606490fd5b903590601e198136030182121561057157018035906001600160401b0382116105715760200191813603831361057157565b908060209392818452848401376000828201840152601f01601f1916010190565b61112e81806110d1565b909161113d60208201826110d1565b9260608301359160ff83168093036105715760405195610cd692838801928884106001600160401b03851117610e5f5788976111956040946111a2946080986112778d3930885260a0602089015260a0880191611103565b9185830385870152611103565b9401356060820152015203906000f09081156111c5576001600160a01b03821690565b6040513d6000823e3d90fd5b60405163a9059cbb60e01b60208281019182526001600160a01b0390941660248301526044808301959095529381529092600091611210606482610e3e565b519082855af1156111c5576000513d61125957506001600160a01b0381163b155b6112385750565b635274afe760e01b60009081526001600160a01b0391909116600452602490fd5b60011415611231565b356001600160401b0381168103610571579056fe60a06040523461047057610cd68038038061001981610475565b92833981019060a0818303126104705780516001600160a01b03811691908290036104705760208101516001600160401b038111610470578361005d91830161049a565b604082015190936001600160401b0382116104705761007d91830161049a565b92608060608301519201519060ff82168203610470578051906001600160401b03821161036d5760035490600182811c92168015610466575b602083101461034d5781601f8493116103f6575b50602090601f831160011461038e57600092610383575b50508160011b916000199060031b1c1916176003555b83516001600160401b03811161036d57600454600181811c91168015610363575b602082101461034d57601f81116102e8575b50602094601f821160011461028157948192939495600092610276575b50508160011b916000199060031b1c1916176004555b821561026057600580546001600160a01b0319811685179091556040519084906001600160a01b03167f8be0079c531659141344cd1fd0a4f28419497f9722a3daafe3b4186f6b6457e0600080a382156102335750608052600060025482810180911161021f576000927fddf252ad1be2c89b69c2b068fc378daa952ba7f163c4a11628f55a4df523b3ef926020926002555084845283825260408420818154019055604051908152a36040516107d090816105068239608051816103af0152f35b634e487b7160e01b82526011600452602482fd5b62461bcd60e51b81526020600482015260086024820152670737570706c793d360c41b6044820152606490fd5b631e4fbdf760e01b600052600060045260246000fd5b015190503880610147565b601f198216956004600052806000209160005b8881106102d0575083600195969798106102b7575b505050811b0160045561015d565b015160001960f88460031b161c191690553880806102a9565b91926020600181928685015181550194019201610294565b60046000527f8a35acfbc15ff81a39ae7d344fd709f28e8600b4aa8c65c6b64bfe7fe36bd19b601f830160051c81019160208410610343575b601f0160051c01905b818110610337575061012a565b6000815560010161032a565b9091508190610321565b634e487b7160e01b600052602260045260246000fd5b90607f1690610118565b634e487b7160e01b600052604160045260246000fd5b0151905038806100e1565b600360009081528281209350601f198516905b8181106103de57509084600195949392106103c5575b505050811b016003556100f7565b015160001960f88460031b161c191690553880806103b7565b929360206001819287860151815501950193016103a1565b60036000529091507fc2575a0e9e593c00f959f8c92f12db2869c3395a3b0502d05e2516446f71f85b601f840160051c8101916020851061045c575b90601f859493920160051c01905b81811061044d57506100ca565b60008155849350600101610440565b9091508190610432565b91607f16916100b6565b600080fd5b6040519190601f01601f191682016001600160401b0381118382101761036d57604052565b81601f82011215610470578051906001600160401b03821161036d576104c9601f8301601f1916602001610475565b92828452602083830101116104705760005b8281106104f057505060206000918301015290565b806020809284010151828287010152016104db56fe608080604052600436101561001357600080fd5b60003560e01c90816306fdde031461056457508063095ea7b3146104de57806318160ddd146104c057806323b872dd146103d3578063313ce5671461039557806370a082311461035b578063715018a6146102fe5780638da5cb5b146102d557806395d89b41146101b4578063a9059cbb14610183578063dd62ed3e146101325763f2fde38b146100a357600080fd5b3461012d57602036600319011261012d576100bc610680565b6100c4610771565b6001600160a01b0316801561011757600580546001600160a01b0319811683179091556001600160a01b03167f8be0079c531659141344cd1fd0a4f28419497f9722a3daafe3b4186f6b6457e0600080a3005b631e4fbdf760e01b600052600060045260246000fd5b600080fd5b3461012d57604036600319011261012d5761014b610680565b610153610696565b6001600160a01b039182166000908152600160209081526040808320949093168252928352819020549051908152f35b3461012d57604036600319011261012d576101a961019f610680565b60243590336106ac565b602060405160018152f35b3461012d57600036600319011261012d5760405160006004548060011c906001811680156102cb575b6020831081146102b75782855290811561029b5750600114610244575b50819003601f01601f191681019067ffffffffffffffff82118183101761022e5761022a82918260405282610637565b0390f35b634e487b7160e01b600052604160045260246000fd5b905060046000527f8a35acfbc15ff81a39ae7d344fd709f28e8600b4aa8c65c6b64bfe7fe36bd19b6000905b828210610285575060209150820101826101fa565b6001816020925483858801015201910190610270565b90506020925060ff191682840152151560051b820101826101fa565b634e487b7160e01b84526022600452602484fd5b91607f16916101dd565b3461012d57600036600319011261012d576005546040516001600160a01b039091168152602090f35b3461012d57600036600319011261012d57610317610771565b600580546001600160a01b031981169091556000906001600160a01b03167f8be0079c531659141344cd1fd0a4f28419497f9722a3daafe3b4186f6b6457e08280a3005b3461012d57602036600319011261012d576001600160a01b0361037c610680565b1660005260006020526020604060002054604051908152f35b3461012d57600036600319011261012d57602060405160ff7f0000000000000000000000000000000000000000000000000000000000000000168152f35b3461012d57606036600319011261012d576103ec610680565b6103f4610696565b6001600160a01b0382166000818152600160209081526040808320338452909152902054909260443592916000198110610434575b506101a993506106ac565b8381106104a357841561048d573315610477576101a9946000526001602052604060002060018060a01b0333166000526020528360406000209103905584610429565b634a1406b160e11b600052600060045260246000fd5b63e602df0560e01b600052600060045260246000fd5b8390637dc7a0d960e11b6000523360045260245260445260646000fd5b3461012d57600036600319011261012d576020600254604051908152f35b3461012d57604036600319011261012d576104f7610680565b60243590331561048d576001600160a01b031690811561047757336000526001602052604060002082600052602052806040600020556040519081527f8c5be1e5ebec7d5bd14f71427d1e84f3dd0314c0f7b2291e5b200ac8c7c3b92560203392a3602060405160018152f35b3461012d57600036600319011261012d5760006003548060011c9060018116801561062d575b6020831081146102b75782855290811561029b57506001146105d65750819003601f01601f191681019067ffffffffffffffff82118183101761022e5761022a82918260405282610637565b905060036000527fc2575a0e9e593c00f959f8c92f12db2869c3395a3b0502d05e2516446f71f85b6000905b828210610617575060209150820101826101fa565b6001816020925483858801015201910190610602565b91607f169161058a565b91909160208152825180602083015260005b81811061066a575060409293506000838284010152601f8019910116010190565b8060208092870101516040828601015201610649565b600435906001600160a01b038216820361012d57565b602435906001600160a01b038216820361012d57565b6001600160a01b031690811561075b576001600160a01b031691821561074557600082815280602052604081205482811061072b5791604082827fddf252ad1be2c89b69c2b068fc378daa952ba7f163c4a11628f55a4df523b3ef958760209652828652038282205586815280845220818154019055604051908152a3565b916064928463391434e360e21b8452600452602452604452fd5b63ec442f0560e01b600052600060045260246000fd5b634b637e8f60e11b600052600060045260246000fd5b6005546001600160a01b0316330361078557565b63118cdaa760e01b6000523360045260246000fdfea264697066735822122009ca4edbdfc4b89891f6ccf192b6bb112ed52ff43fa4291683a0c92e4678970764736f6c634300081c00336101403461025757601f61095238819003918201601f19168301916001600160401b0383118484101761025c5780849260c0946040528339810103126102575761004881610272565b9061005560208201610272565b61006160408301610286565b61006d60608401610286565b9160a061007c60808601610286565b940151946001600160a01b03168015610228576001600160a01b038216156101f3576001600160401b03851680156101c1576001600160401b038516116101895785156101555760805260a05260c05260e05261010052610120526040516106b7908161029b823960805181818160a00152610229015260a0518181816101b00152610457015260c05181818161011701526104f7015260e0518181816103e2015261051801526101005181818161015b015261056901526101205181818161041e015281816105c5015281816105fd01526106250152f35b60405162461bcd60e51b815260206004820152600c60248201526b0616c6c6f636174696f6e3d360a41b6044820152606490fd5b60405162461bcd60e51b815260206004820152601060248201526f323ab930ba34b7b7101e1031b634b33360811b6044820152606490fd5b60405162461bcd60e51b815260206004820152600a60248201526906475726174696f6e3d360b41b6044820152606490fd5b60405162461bcd60e51b815260206004820152600d60248201526c062656e65666963696172793d3609c1b6044820152606490fd5b60405162461bcd60e51b81526020600482015260076024820152660746f6b656e3d360cc1b6044820152606490fd5b600080fd5b634e487b7160e01b600052604160045260246000fd5b51906001600160a01b038216820361025757565b51906001600160401b03821682036102575756fe6080604052600436101561001257600080fd5b60003560e01c80630a17b06b1461048657806338af3eed1461044157806379203dc4146104065780638341ee72146103c257806386d1a69f1461019d578063961325211461017f5780639acba2af1461013b578063be9a6555146100f7578063fbccedae146100d45763fc0c546a1461008a57600080fd5b346100cf5760003660031901126100cf576040517f00000000000000000000000000000000000000000000000000000000000000006001600160a01b03168152602090f35b600080fd5b346100cf5760003660031901126100cf5760206100ef610651565b604051908152f35b346100cf5760003660031901126100cf5760206040516001600160401b037f0000000000000000000000000000000000000000000000000000000000000000168152f35b346100cf5760003660031901126100cf5760206040516001600160401b037f0000000000000000000000000000000000000000000000000000000000000000168152f35b346100cf5760003660031901126100cf576020600054604051908152f35b346100cf5760003660031901126100cf577f00000000000000000000000000000000000000000000000000000000000000006001600160a01b03163381900361038b576101e8610651565b9081156103515760005482810180911161033b576000556040519063a9059cbb60e01b82526004820152816024820152602081604481600060018060a01b037f0000000000000000000000000000000000000000000000000000000000000000165af190811561032f576000916102c4575b501561028d5760207ffb81f9b30d73d830c3544b34d827c08142579ee75710b490bab0b3995468c56591604051908152a1005b60405162461bcd60e51b815260206004820152600f60248201526e1d1c985b9cd9995c8819985a5b1959608a1b6044820152606490fd5b60203d602011610328575b601f8101601f191682016001600160401b0381118382101761031457602091839160405281010312610310575190811515820361030d57508261025a565b80fd5b5080fd5b634e487b7160e01b84526041600452602484fd5b503d6102cf565b6040513d6000823e3d90fd5b634e487b7160e01b600052601160045260246000fd5b60405162461bcd60e51b81526020600482015260126024820152716e6f7468696e6720746f2072656c6561736560701b6044820152606490fd5b60405162461bcd60e51b815260206004820152600f60248201526e6e6f742062656e656669636961727960881b6044820152606490fd5b346100cf5760003660031901126100cf5760206040516001600160401b037f0000000000000000000000000000000000000000000000000000000000000000168152f35b346100cf5760003660031901126100cf5760206040517f00000000000000000000000000000000000000000000000000000000000000008152f35b346100cf5760003660031901126100cf576040517f00000000000000000000000000000000000000000000000000000000000000006001600160a01b03168152602090f35b346100cf5760203660031901126100cf576004356001600160401b03811681036100cf576100ef6020916104f5565b906001600160401b03809116911601906001600160401b03821161033b57565b906001600160401b03809116911603906001600160401b03821161033b57565b7f00000000000000000000000000000000000000000000000000000000000000007f000000000000000000000000000000000000000000000000000000000000000061054181836104b5565b916001600160401b0384166001600160401b0384168110610647576001600160401b0361058f7f000000000000000000000000000000000000000000000000000000000000000080946104b5565b16111561061f576001600160401b03916105a8916104d5565b169182156105f8576001600160401b03916105c2916104d5565b167f000000000000000000000000000000000000000000000000000000000000000081810291818304149015171561033b570490565b5050507f000000000000000000000000000000000000000000000000000000000000000090565b505050507f000000000000000000000000000000000000000000000000000000000000000090565b5050505050600090565b6106636001600160401b0342166104f5565b6000548082111561067a57810390811161033b5790565b505060009056fea26469706673582212204e06a40b16ec01284a16c303f50834bbcf51615915c3292eb6b9b46df7e45d9164736f6c634300081c003367226bacccef969dab310a9e55dc1cf821363658e433fd330344f5cc00c79ac8a2646970667358221220163e7e4ec4bfac31efdbc904bc03419b09e69db9f344ed2fffb5f0e61f21d25664736f6c634300081c0033","opcodes":"PUSH1 0x80 DUP1 PUSH1 0x40 MSTORE CALLVALUE PUSH1 0x73 JUMPI PUSH1 0x1 PUSH1 0x0 DUP2 DUP2 SSTORE DUP2 SLOAD PUSH1 0x1 PUSH1 0x1 PUSH1 0xA0 SHL SUB NOT AND CALLER SWAP1 DUP2 OR SWAP1 SWAP3 SSTORE PUSH32 0x8BE0079C531659141344CD1FD0A4F28419497F9722A3DAAFE3B4186F6B6457E0 DUP2 DUP1 LOG3 PUSH6 0x5AF3107A4000 PUSH1 0x2 SSTORE PUSH7 0x38D7EA4C68000 PUSH1 0x3 SSTORE PUSH7 0x11C37937E08000 PUSH1 0x4 SSTORE PUSH2 0x28F4 SWAP1 DUP2 PUSH2 0x79 DUP3 CODECOPY RETURN JUMPDEST PUSH1 0x0 DUP1 REVERT INVALID PUSH1 0x80 PUSH1 0x40 MSTORE PUSH1 0x4 CALLDATASIZE LT ISZERO PUSH2 0x12 JUMPI PUSH1 0x0 DUP1 REVERT JUMPDEST PUSH1 0x0 DUP1 CALLDATALOAD PUSH1 0xE0 SHR DUP1 PUSH4 0xDBD2CE3 EQ PUSH2 0xB44 JUMPI DUP1 PUSH4 0x308CC33D EQ PUSH2 0xB26 JUMPI DUP1 PUSH4 0x3DB315BA EQ PUSH2 0x9AE JUMPI DUP1 PUSH4 0x4F3CFF1E EQ PUSH2 0x84F JUMPI DUP1 PUSH4 0x79046732 EQ PUSH2 0x831 JUMPI DUP1 PUSH4 0x791A178D EQ PUSH2 0x316 JUMPI DUP1 PUSH4 0x8DA5CB5B EQ PUSH2 0x2ED JUMPI DUP1 PUSH4 0xAD3B1B47 EQ PUSH2 0x158 JUMPI DUP1 PUSH4 0xC48B374D EQ PUSH2 0x13A JUMPI PUSH4 0xF2FDE38B EQ PUSH2 0x8B JUMPI PUSH1 0x0 DUP1 REVERT JUMPDEST CALLVALUE PUSH2 0x137 JUMPI PUSH1 0x20 CALLDATASIZE PUSH1 0x3 NOT ADD SLT PUSH2 0x137 JUMPI PUSH1 0x4 CALLDATALOAD PUSH1 0x1 PUSH1 0x1 PUSH1 0xA0 SHL SUB DUP2 AND SWAP1 DUP2 SWAP1 SUB PUSH2 0x135 JUMPI PUSH1 0x1 SLOAD PUSH1 0x1 PUSH1 0x1 PUSH1 0xA0 SHL SUB DUP2 AND SWAP1 PUSH2 0xCA CALLER DUP4 EQ PUSH2 0xE75 JUMP JUMPDEST DUP3 ISZERO PUSH2 0x106 JUMPI PUSH1 0x1 PUSH1 0x1 PUSH1 0xA0 SHL SUB NOT AND DUP3 OR PUSH1 0x1 SSTORE PUSH32 0x8BE0079C531659141344CD1FD0A4F28419497F9722A3DAAFE3B4186F6B6457E0 DUP4 DUP1 LOG3 DUP1 RETURN JUMPDEST PUSH1 0x40 MLOAD PUSH3 0x461BCD PUSH1 0xE5 SHL DUP2 MSTORE PUSH1 0x20 PUSH1 0x4 DUP3 ADD MSTORE PUSH1 0x7 PUSH1 0x24 DUP3 ADD MSTORE PUSH7 0x6F776E65723D3 PUSH1 0xCC SHL PUSH1 0x44 DUP3 ADD MSTORE PUSH1 0x64 SWAP1 REVERT JUMPDEST POP JUMPDEST DUP1 REVERT JUMPDEST POP CALLVALUE PUSH2 0x137 JUMPI DUP1 PUSH1 0x3 NOT CALLDATASIZE ADD SLT PUSH2 0x137 JUMPI PUSH1 0x20 PUSH1 0x4 SLOAD PUSH1 0x40 MLOAD SWAP1 DUP2 MSTORE RETURN JUMPDEST POP CALLVALUE PUSH2 0x137 JUMPI PUSH1 0x40 CALLDATASIZE PUSH1 0x3 NOT ADD SLT PUSH2 0x137 JUMPI PUSH1 0x4 CALLDATALOAD PUSH1 0x1 PUSH1 0x1 PUSH1 0xA0 SHL SUB DUP2 AND SWAP1 DUP2 DUP2 SUB PUSH2 0x2E9 JUMPI PUSH1 0x1 SLOAD PUSH1 0x24 CALLDATALOAD SWAP2 PUSH1 0x1 PUSH1 0x1 PUSH1 0xA0 SHL SUB SWAP1 SWAP2 AND SWAP1 PUSH2 0x19D CALLER DUP4 EQ PUSH2 0xE75 JUMP JUMPDEST PUSH1 0x2 DUP6 SLOAD EQ PUSH2 0x2DA JUMPI PUSH1 0x2 DUP6 SSTORE SWAP3 ISZERO PUSH2 0x2D2 JUMPI JUMPDEST POP DUP1 PUSH2 0x2CC JUMPI POP SELFBALANCE SWAP1 JUMPDEST SELFBALANCE DUP3 GT PUSH2 0x290 JUMPI DUP3 DUP1 DUP1 SWAP4 DUP2 SWAP4 PUSH1 0x1 DUP1 PUSH1 0xA0 SHL SUB AND DUP1 PUSH32 0xC0819C13BE868895EB93E40EACEB96DE976442FA1D404E5C55F14BB65A8C489A PUSH1 0x20 PUSH1 0x40 MLOAD DUP6 DUP2 MSTORE LOG2 GAS CALL RETURNDATASIZE ISZERO PUSH2 0x28B JUMPI RETURNDATASIZE PUSH1 0x1 PUSH1 0x1 PUSH1 0x40 SHL SUB DUP2 GT PUSH2 0x277 JUMPI PUSH1 0x40 MLOAD SWAP1 PUSH2 0x22A PUSH1 0x1F DUP3 ADD PUSH1 0x1F NOT AND PUSH1 0x20 ADD DUP4 PUSH2 0xE3E JUMP JUMPDEST DUP2 MSTORE DUP3 PUSH1 0x20 RETURNDATASIZE SWAP3 ADD RETURNDATACOPY JUMPDEST ISZERO PUSH2 0x240 JUMPI PUSH1 0x1 DUP2 SSTORE DUP1 RETURN JUMPDEST PUSH1 0x40 MLOAD PUSH3 0x461BCD PUSH1 0xE5 SHL DUP2 MSTORE PUSH1 0x20 PUSH1 0x4 DUP3 ADD MSTORE PUSH1 0xF PUSH1 0x24 DUP3 ADD MSTORE PUSH15 0x1DDA5D1A191C985DC819985A5B1959 PUSH1 0x8A SHL PUSH1 0x44 DUP3 ADD MSTORE PUSH1 0x64 SWAP1 REVERT JUMPDEST PUSH4 0x4E487B71 PUSH1 0xE0 SHL DUP4 MSTORE PUSH1 0x41 PUSH1 0x4 MSTORE PUSH1 0x24 DUP4 REVERT JUMPDEST PUSH2 0x234 JUMP JUMPDEST PUSH1 0x40 MLOAD PUSH3 0x461BCD PUSH1 0xE5 SHL DUP2 MSTORE PUSH1 0x20 PUSH1 0x4 DUP3 ADD MSTORE PUSH1 0x14 PUSH1 0x24 DUP3 ADD MSTORE PUSH20 0x696E73756666696369656E742062616C616E6365 PUSH1 0x60 SHL PUSH1 0x44 DUP3 ADD MSTORE PUSH1 0x64 SWAP1 REVERT JUMPDEST SWAP1 PUSH2 0x1BB JUMP JUMPDEST SWAP2 POP CODESIZE PUSH2 0x1B1 JUMP JUMPDEST PUSH4 0x3EE5AEB5 PUSH1 0xE0 SHL DUP6 MSTORE PUSH1 0x4 DUP6 REVERT JUMPDEST DUP3 DUP1 REVERT JUMPDEST POP CALLVALUE PUSH2 0x137 JUMPI DUP1 PUSH1 0x3 NOT CALLDATASIZE ADD SLT PUSH2 0x137 JUMPI PUSH1 0x1 SLOAD PUSH1 0x40 MLOAD PUSH1 0x1 PUSH1 0x1 PUSH1 0xA0 SHL SUB SWAP1 SWAP2 AND DUP2 MSTORE PUSH1 0x20 SWAP1 RETURN JUMPDEST POP PUSH1 0x80 CALLDATASIZE PUSH1 0x3 NOT ADD SLT PUSH2 0x137 JUMPI PUSH1 0x4 CALLDATALOAD PUSH1 0x1 PUSH1 0x1 PUSH1 0x40 SHL SUB DUP2 GT PUSH2 0x135 JUMPI PUSH1 0x80 PUSH1 0x3 NOT DUP3 CALLDATASIZE SUB ADD SLT PUSH2 0x135 JUMPI PUSH1 0x24 CALLDATALOAD PUSH1 0x1 PUSH1 0x1 PUSH1 0x40 SHL SUB DUP2 GT PUSH2 0x2E9 JUMPI PUSH2 0x361 SWAP1 CALLDATASIZE SWAP1 PUSH1 0x4 ADD PUSH2 0xD9D JUMP JUMPDEST SWAP2 SWAP1 PUSH1 0x44 CALLDATALOAD PUSH1 0x1 PUSH1 0x1 PUSH1 0x40 SHL SUB DUP2 GT PUSH2 0x82D JUMPI PUSH2 0x382 SWAP1 CALLDATASIZE SWAP1 PUSH1 0x4 ADD PUSH2 0xD9D JUMP JUMPDEST SWAP3 SWAP1 PUSH1 0x64 CALLDATALOAD SWAP3 PUSH1 0x1 PUSH1 0x1 PUSH1 0x40 SHL SUB DUP5 GT PUSH2 0x829 JUMPI CALLDATASIZE PUSH1 0x23 DUP6 ADD SLT ISZERO PUSH2 0x829 JUMPI DUP4 PUSH1 0x4 ADD CALLDATALOAD SWAP3 PUSH1 0x1 PUSH1 0x1 PUSH1 0x40 SHL SUB DUP5 GT PUSH2 0x825 JUMPI PUSH1 0x24 DUP6 ADD SWAP5 PUSH1 0x24 CALLDATASIZE SWAP2 PUSH1 0xA0 DUP8 MUL ADD ADD GT PUSH2 0x825 JUMPI PUSH2 0x3D4 PUSH1 0x4 SLOAD PUSH2 0xEBD JUMP JUMPDEST PUSH1 0x44 DUP2 ADD CALLDATALOAD PUSH2 0x3E4 DUP2 ISZERO ISZERO PUSH2 0xDCD JUMP JUMPDEST PUSH2 0x3F1 DUP8 DUP6 DUP11 DUP7 DUP6 PUSH2 0xF9F JUMP JUMPDEST PUSH1 0x32 DUP7 GT PUSH2 0x7EC JUMPI DUP10 SWAP9 SWAP8 SWAP7 SWAP6 SWAP10 JUMPDEST DUP11 DUP2 LT PUSH2 0x733 JUMPI POP PUSH2 0x420 SWAP3 SWAP2 PUSH2 0x418 SWAP2 GT ISZERO PUSH2 0xF5B JUMP JUMPDEST PUSH1 0x4 ADD PUSH2 0x1124 JUMP JUMPDEST SWAP6 SWAP1 SWAP5 DUP8 JUMPDEST DUP3 DUP2 LT PUSH2 0x6B2 JUMPI POP POP POP POP POP DUP4 SWAP5 PUSH2 0x952 SWAP1 PUSH2 0x1F4D SWAP1 JUMPDEST DUP1 DUP9 LT PUSH2 0x57E JUMPI PUSH1 0x40 MLOAD PUSH4 0x70A08231 PUSH1 0xE0 SHL DUP2 MSTORE ADDRESS PUSH1 0x4 DUP3 ADD MSTORE DUP8 SWAP1 DUP8 SWAP1 DUP3 SWAP1 PUSH1 0x1 PUSH1 0x1 PUSH1 0xA0 SHL SUB DUP10 AND SWAP1 PUSH1 0x20 DUP2 PUSH1 0x24 DUP2 DUP6 GAS STATICCALL SWAP1 DUP2 ISZERO PUSH2 0x504 JUMPI DUP4 SWAP2 PUSH2 0x544 JUMPI JUMPDEST POP DUP1 PUSH2 0x50F JUMPI JUMPDEST POP DUP1 EXTCODESIZE ISZERO PUSH2 0x135 JUMPI DUP2 SWAP1 PUSH1 0x24 PUSH1 0x40 MLOAD DUP1 SWAP5 DUP2 SWAP4 PUSH4 0xF2FDE38B PUSH1 0xE0 SHL DUP4 MSTORE CALLER PUSH1 0x4 DUP5 ADD MSTORE GAS CALL DUP1 ISZERO PUSH2 0x504 JUMPI PUSH2 0x4EF JUMPI JUMPDEST PUSH1 0x40 MLOAD PUSH1 0x20 SWAP1 PUSH1 0x1 PUSH1 0x1 PUSH1 0xA0 SHL SUB DUP5 AND DUP1 CALLER PUSH32 0xD5F9BDF12ADF29DAB0248C349842C3822D53AE2BB4F36352F301630D018C8139 DUP9 DUP1 LOG3 DUP2 MSTORE RETURN JUMPDEST PUSH2 0x4FA DUP4 DUP1 SWAP3 PUSH2 0xE3E JUMP JUMPDEST PUSH2 0x135 JUMPI DUP3 PUSH2 0x4B5 JUMP JUMPDEST PUSH1 0x40 MLOAD RETURNDATASIZE DUP6 DUP3 RETURNDATACOPY RETURNDATASIZE SWAP1 REVERT JUMPDEST PUSH1 0x1 PUSH1 0x1 PUSH1 0xA0 SHL SUB DUP5 AND PUSH2 0x524 DUP3 CALLER DUP4 PUSH2 0x11D1 JUMP JUMPDEST PUSH1 0x40 MLOAD SWAP2 DUP3 MSTORE PUSH1 0x0 DUP1 MLOAD PUSH1 0x20 PUSH2 0x289F DUP4 CODECOPY DUP2 MLOAD SWAP2 MSTORE PUSH1 0x20 CALLER SWAP4 LOG3 DUP5 PUSH2 0x485 JUMP JUMPDEST SWAP3 POP POP PUSH1 0x20 DUP3 RETURNDATASIZE PUSH1 0x20 GT PUSH2 0x576 JUMPI JUMPDEST DUP2 PUSH2 0x560 PUSH1 0x20 SWAP4 DUP4 PUSH2 0xE3E JUMP JUMPDEST DUP2 ADD SUB SLT PUSH2 0x571 JUMPI DUP4 SWAP2 MLOAD DUP6 PUSH2 0x47E JUMP JUMPDEST PUSH1 0x0 DUP1 REVERT JUMPDEST RETURNDATASIZE SWAP2 POP PUSH2 0x553 JUMP JUMPDEST PUSH2 0x589 DUP9 DUP3 DUP7 PUSH2 0xEAD JUMP JUMPDEST SWAP8 PUSH2 0x593 DUP10 PUSH2 0xE2A JUMP JUMPDEST SWAP1 PUSH2 0x5A0 PUSH1 0x20 DUP12 ADD PUSH2 0x1262 JUMP JUMPDEST SWAP10 PUSH2 0x5AD PUSH1 0x40 DUP3 ADD PUSH2 0x1262 JUMP JUMPDEST SWAP1 PUSH2 0x5BA PUSH1 0x60 DUP3 ADD PUSH2 0x1262 JUMP JUMPDEST SWAP2 PUSH1 0x80 DUP3 ADD CALLDATALOAD SWAP3 PUSH1 0x40 MLOAD SWAP2 DUP10 DUP4 ADD SWAP15 DUP16 PUSH1 0x1 PUSH1 0x1 PUSH1 0x40 SHL SUB DUP6 DUP3 LT SWAP2 GT OR PUSH2 0x69E JUMPI SWAP15 DUP15 SWAP16 DUP15 SWAP16 SWAP15 SWAP4 PUSH1 0x1 PUSH1 0x1 PUSH1 0x40 SHL SUB DUP7 SWAP5 DUP2 DUP16 SWAP5 DUP16 SWAP9 DUP3 SWAP7 PUSH1 0xC0 SWAP11 DUP11 CODECOPY PUSH1 0x1 PUSH1 0x1 PUSH1 0xA0 SHL SUB SWAP1 DUP2 AND DUP1 DUP10 MSTORE SWAP15 AND PUSH1 0x20 DUP9 ADD MSTORE AND PUSH1 0x40 DUP7 ADD MSTORE AND PUSH1 0x60 DUP5 ADD MSTORE AND PUSH1 0x80 DUP3 ADD MSTORE PUSH1 0xA0 DUP2 ADD DUP7 SWAP1 MSTORE SUB ADD SWAP1 DUP12 CREATE SWAP4 DUP5 ISZERO PUSH2 0x693 JUMPI PUSH1 0x1 SWAP5 PUSH1 0x1 PUSH1 0x1 PUSH1 0xA0 SHL SUB AND SWAP2 PUSH32 0x1B138257231D2C00719335BC377B9C84F462339563B691E1DAB140FBEF52B41E SWAP1 PUSH1 0x20 SWAP1 PUSH2 0x670 DUP7 DUP7 DUP7 PUSH2 0x11D1 JUMP JUMPDEST PUSH2 0x67F DUP9 DUP1 PUSH1 0xA0 SHL SUB SWAP2 PUSH2 0xE2A JUMP JUMPDEST AND SWAP5 PUSH1 0x40 MLOAD SWAP1 DUP2 MSTORE LOG4 ADD SWAP8 POP SWAP6 SWAP5 SWAP6 PUSH2 0x43C JUMP JUMPDEST PUSH1 0x40 MLOAD RETURNDATASIZE DUP13 DUP3 RETURNDATACOPY RETURNDATASIZE SWAP1 REVERT JUMPDEST PUSH4 0x4E487B71 PUSH1 0xE0 SHL DUP16 MSTORE PUSH1 0x41 PUSH1 0x4 MSTORE PUSH1 0x24 DUP16 REVERT JUMPDEST DUP1 PUSH2 0x6C6 PUSH1 0x1 SWAP3 DUP5 DUP9 SWAP14 SWAP10 SWAP11 SWAP12 SWAP13 SWAP14 PUSH2 0xE04 JUMP JUMPDEST CALLDATALOAD DUP1 ISZERO PUSH2 0x72D JUMPI DUP3 DUP1 PUSH1 0xA0 SHL SUB DUP12 AND PUSH2 0x6F2 DUP3 PUSH2 0x6EC PUSH2 0x6E7 DUP7 DUP11 DUP13 PUSH2 0xE04 JUMP JUMPDEST PUSH2 0xE2A JUMP JUMPDEST DUP4 PUSH2 0x11D1 JUMP JUMPDEST PUSH1 0x0 DUP1 MLOAD PUSH1 0x20 PUSH2 0x289F DUP4 CODECOPY DUP2 MLOAD SWAP2 MSTORE PUSH1 0x20 DUP6 DUP1 PUSH1 0xA0 SHL SUB PUSH2 0x717 PUSH2 0x6E7 DUP8 DUP12 DUP14 PUSH2 0xE04 JUMP JUMPDEST AND SWAP4 PUSH1 0x40 MLOAD SWAP1 DUP2 MSTORE LOG3 JUMPDEST ADD SWAP9 SWAP8 SWAP7 SWAP6 SWAP5 SWAP9 PUSH2 0x425 JUMP JUMPDEST POP PUSH2 0x721 JUMP JUMPDEST SWAP1 PUSH2 0x744 DUP3 DUP13 DUP10 SWAP11 SWAP12 SWAP13 SWAP14 SWAP10 PUSH2 0xEAD JUMP JUMPDEST PUSH1 0x1 PUSH1 0x1 PUSH1 0xA0 SHL SUB PUSH2 0x755 DUP3 PUSH2 0xE2A JUMP JUMPDEST AND ISZERO PUSH2 0x7B7 JUMPI PUSH1 0x80 ADD CALLDATALOAD SWAP1 DUP2 ISZERO PUSH2 0x77F JUMPI PUSH1 0x1 SWAP2 PUSH2 0x772 SWAP2 PUSH2 0xF38 JUMP JUMPDEST SWAP2 ADD SWAP10 SWAP9 SWAP8 SWAP7 SWAP6 SWAP10 PUSH2 0x400 JUMP JUMPDEST PUSH1 0x40 MLOAD PUSH3 0x461BCD PUSH1 0xE5 SHL DUP2 MSTORE PUSH1 0x20 PUSH1 0x4 DUP3 ADD MSTORE PUSH1 0x10 PUSH1 0x24 DUP3 ADD MSTORE PUSH16 0x76657374696E6720616D6F756E743D3 PUSH1 0x84 SHL PUSH1 0x44 DUP3 ADD MSTORE PUSH1 0x64 SWAP1 REVERT JUMPDEST PUSH1 0x40 MLOAD PUSH3 0x461BCD PUSH1 0xE5 SHL DUP2 MSTORE PUSH1 0x20 PUSH1 0x4 DUP3 ADD MSTORE PUSH1 0xD PUSH1 0x24 DUP3 ADD MSTORE PUSH13 0x62656E65666963696172793D3 PUSH1 0x9C SHL PUSH1 0x44 DUP3 ADD MSTORE PUSH1 0x64 SWAP1 REVERT JUMPDEST PUSH1 0x40 MLOAD PUSH3 0x461BCD PUSH1 0xE5 SHL DUP2 MSTORE PUSH1 0x20 PUSH1 0x4 DUP3 ADD MSTORE PUSH1 0x11 PUSH1 0x24 DUP3 ADD MSTORE PUSH17 0x746F6F206D616E792076657374696E6773 PUSH1 0x78 SHL PUSH1 0x44 DUP3 ADD MSTORE PUSH1 0x64 SWAP1 REVERT JUMPDEST DUP8 DUP1 REVERT JUMPDEST DUP7 DUP1 REVERT JUMPDEST DUP5 DUP1 REVERT JUMPDEST POP CALLVALUE PUSH2 0x137 JUMPI DUP1 PUSH1 0x3 NOT CALLDATASIZE ADD SLT PUSH2 0x137 JUMPI PUSH1 0x20 PUSH1 0x3 SLOAD PUSH1 0x40 MLOAD SWAP1 DUP2 MSTORE RETURN JUMPDEST POP PUSH1 0x20 CALLDATASIZE PUSH1 0x3 NOT ADD SLT PUSH2 0x137 JUMPI PUSH1 0x4 CALLDATALOAD PUSH1 0x1 PUSH1 0x1 PUSH1 0x40 SHL SUB DUP2 GT PUSH2 0x135 JUMPI PUSH1 0x80 PUSH1 0x3 NOT DUP3 CALLDATASIZE SUB ADD SLT PUSH2 0x135 JUMPI PUSH2 0x899 SWAP1 PUSH2 0x88A PUSH1 0x2 SLOAD PUSH2 0xEBD JUMP JUMPDEST PUSH2 0x418 PUSH1 0x44 DUP3 ADD CALLDATALOAD ISZERO ISZERO PUSH2 0xDCD JUMP JUMPDEST PUSH1 0x1 PUSH1 0x1 PUSH1 0xA0 SHL SUB SWAP1 SWAP2 AND SWAP2 SWAP1 DUP3 EXTCODESIZE ISZERO PUSH2 0x135 JUMPI PUSH1 0x40 MLOAD PUSH4 0xF2FDE38B PUSH1 0xE0 SHL DUP2 MSTORE CALLER PUSH1 0x4 DUP3 ADD MSTORE DUP3 DUP2 PUSH1 0x24 DUP2 DUP4 DUP9 GAS CALL DUP1 ISZERO PUSH2 0x504 JUMPI PUSH2 0x999 JUMPI JUMPDEST POP PUSH1 0x20 PUSH1 0x24 SWAP4 PUSH1 0x40 MLOAD SWAP5 DUP6 DUP1 SWAP3 PUSH4 0x70A08231 PUSH1 0xE0 SHL DUP3 MSTORE ADDRESS PUSH1 0x4 DUP4 ADD MSTORE GAS STATICCALL DUP1 ISZERO PUSH2 0x98E JUMPI DUP3 SWAP1 PUSH2 0x95B JUMPI JUMPDEST PUSH1 0x20 SWAP4 POP DUP1 PUSH2 0x941 JUMPI JUMPDEST POP PUSH1 0x1 DUP1 PUSH1 0xA0 SHL SUB AND DUP1 PUSH1 0x40 MLOAD SWAP3 PUSH32 0xD5F9BDF12ADF29DAB0248C349842C3822D53AE2BB4F36352F301630D018C8139 CALLER SWAP2 DUP1 LOG3 DUP2 MSTORE RETURN JUMPDEST PUSH2 0x955 SWAP1 CALLER PUSH1 0x1 PUSH1 0x1 PUSH1 0xA0 SHL SUB DUP5 AND PUSH2 0x11D1 JUMP JUMPDEST CODESIZE PUSH2 0x90A JUMP JUMPDEST POP PUSH1 0x20 DUP4 RETURNDATASIZE PUSH1 0x20 GT PUSH2 0x986 JUMPI JUMPDEST DUP2 PUSH2 0x975 PUSH1 0x20 SWAP4 DUP4 PUSH2 0xE3E JUMP JUMPDEST DUP2 ADD SUB SLT PUSH2 0x571 JUMPI PUSH1 0x20 SWAP3 MLOAD PUSH2 0x900 JUMP JUMPDEST RETURNDATASIZE SWAP2 POP PUSH2 0x968 JUMP JUMPDEST PUSH1 0x40 MLOAD RETURNDATASIZE DUP5 DUP3 RETURNDATACOPY RETURNDATASIZE SWAP1 REVERT JUMPDEST PUSH2 0x9A4 DUP4 DUP1 SWAP3 PUSH2 0xE3E JUMP JUMPDEST PUSH2 0x135 JUMPI CODESIZE PUSH2 0x8D4 JUMP JUMPDEST POP CALLVALUE PUSH2 0x137 JUMPI PUSH1 0x60 CALLDATASIZE PUSH1 0x3 NOT ADD SLT PUSH2 0x137 JUMPI PUSH1 0x4 CALLDATALOAD PUSH1 0x24 CALLDATALOAD PUSH1 0x44 CALLDATALOAD SWAP2 PUSH2 0x9DF PUSH1 0x1 DUP1 PUSH1 0xA0 SHL SUB PUSH1 0x1 SLOAD AND CALLER EQ PUSH2 0xE75 JUMP JUMPDEST PUSH8 0xDE0B6B3A7640000 DUP2 GT PUSH2 0xAEC JUMPI PUSH8 0xDE0B6B3A7640000 DUP3 GT PUSH2 0xAA7 JUMPI PUSH8 0xDE0B6B3A7640000 DUP4 GT PUSH2 0xA6B JUMPI PUSH32 0x2E494FBB5D1BDA2269C90D7124BA22CA99044B61D2A920ECE35A1A1726FF0C37 SWAP3 PUSH1 0xC0 SWAP3 PUSH1 0x2 SLOAD SWAP3 PUSH1 0x3 SLOAD PUSH1 0x4 SLOAD SWAP1 DUP3 PUSH1 0x2 SSTORE DUP4 PUSH1 0x3 SSTORE DUP5 PUSH1 0x4 SSTORE PUSH1 0x40 MLOAD SWAP6 DUP7 MSTORE PUSH1 0x20 DUP7 ADD MSTORE PUSH1 0x40 DUP6 ADD MSTORE PUSH1 0x60 DUP5 ADD MSTORE PUSH1 0x80 DUP4 ADD MSTORE PUSH1 0xA0 DUP3 ADD MSTORE LOG1 DUP1 RETURN JUMPDEST PUSH1 0x40 MLOAD PUSH3 0x461BCD PUSH1 0xE5 SHL DUP2 MSTORE PUSH1 0x20 PUSH1 0x4 DUP3 ADD MSTORE PUSH1 0x14 PUSH1 0x24 DUP3 ADD MSTORE PUSH20 0xECCAE6E8D2DCCE40CCCACA40E8DEDE40D0D2CED PUSH1 0x63 SHL PUSH1 0x44 DUP3 ADD MSTORE PUSH1 0x64 SWAP1 REVERT JUMPDEST PUSH1 0x40 MLOAD PUSH3 0x461BCD PUSH1 0xE5 SHL DUP2 MSTORE PUSH1 0x20 PUSH1 0x4 DUP3 ADD MSTORE PUSH1 0x19 PUSH1 0x24 DUP3 ADD MSTORE PUSH32 0x646973747269627574696F6E2066656520746F6F206869676800000000000000 PUSH1 0x44 DUP3 ADD MSTORE PUSH1 0x64 SWAP1 REVERT JUMPDEST PUSH1 0x40 MLOAD PUSH3 0x461BCD PUSH1 0xE5 SHL DUP2 MSTORE PUSH1 0x20 PUSH1 0x4 DUP3 ADD MSTORE PUSH1 0x12 PUSH1 0x24 DUP3 ADD MSTORE PUSH18 0xC4C2E6D2C640CCCACA40E8DEDE40D0D2CED PUSH1 0x73 SHL PUSH1 0x44 DUP3 ADD MSTORE PUSH1 0x64 SWAP1 REVERT JUMPDEST POP CALLVALUE PUSH2 0x137 JUMPI DUP1 PUSH1 0x3 NOT CALLDATASIZE ADD SLT PUSH2 0x137 JUMPI PUSH1 0x20 PUSH1 0x2 SLOAD PUSH1 0x40 MLOAD SWAP1 DUP2 MSTORE RETURN JUMPDEST POP PUSH1 0x60 CALLDATASIZE PUSH1 0x3 NOT ADD SLT PUSH2 0x137 JUMPI PUSH1 0x4 CALLDATALOAD PUSH1 0x1 PUSH1 0x1 PUSH1 0x40 SHL SUB DUP2 GT PUSH2 0x135 JUMPI PUSH1 0x80 PUSH1 0x3 NOT DUP3 CALLDATASIZE SUB ADD SLT PUSH2 0x135 JUMPI PUSH1 0x24 CALLDATALOAD PUSH1 0x1 PUSH1 0x1 PUSH1 0x40 SHL SUB DUP2 GT PUSH2 0x2E9 JUMPI PUSH2 0xB8F SWAP1 CALLDATASIZE SWAP1 PUSH1 0x4 ADD PUSH2 0xD9D JUMP JUMPDEST SWAP2 PUSH1 0x44 CALLDATALOAD SWAP2 PUSH1 0x1 PUSH1 0x1 PUSH1 0x40 SHL SUB DUP4 GT PUSH2 0x82D JUMPI SWAP1 PUSH2 0xBE9 SWAP2 PUSH2 0xBB6 DUP7 SWAP5 CALLDATASIZE SWAP1 PUSH1 0x4 ADD PUSH2 0xD9D JUMP JUMPDEST SWAP4 SWAP1 SWAP3 PUSH2 0xBC4 PUSH1 0x3 SLOAD PUSH2 0xEBD JUMP JUMPDEST PUSH2 0xBE0 DUP6 DUP6 DUP10 DUP7 PUSH1 0x44 DUP7 ADD CALLDATALOAD PUSH2 0xBDB DUP2 ISZERO ISZERO PUSH2 0xDCD JUMP JUMPDEST PUSH2 0xF9F JUMP JUMPDEST POP PUSH1 0x4 ADD PUSH2 0x1124 JUMP JUMPDEST SWAP6 SWAP1 SWAP4 DUP6 JUMPDEST DUP3 DUP2 LT PUSH2 0xD26 JUMPI POP POP POP POP POP PUSH1 0x1 DUP1 PUSH1 0xA0 SHL SUB AND PUSH1 0x40 MLOAD PUSH4 0x70A08231 PUSH1 0xE0 SHL DUP2 MSTORE ADDRESS PUSH1 0x4 DUP3 ADD MSTORE PUSH1 0x20 DUP2 PUSH1 0x24 DUP2 DUP6 GAS STATICCALL SWAP1 DUP2 ISZERO PUSH2 0x504 JUMPI DUP4 SWAP2 PUSH2 0xCF4 JUMPI JUMPDEST POP DUP1 PUSH2 0xCBF JUMPI JUMPDEST POP DUP1 EXTCODESIZE ISZERO PUSH2 0x135 JUMPI DUP2 SWAP1 PUSH1 0x24 PUSH1 0x40 MLOAD DUP1 SWAP7 DUP2 SWAP4 PUSH4 0xF2FDE38B PUSH1 0xE0 SHL DUP4 MSTORE CALLER PUSH1 0x4 DUP5 ADD MSTORE GAS CALL SWAP3 DUP4 ISZERO PUSH2 0xCB2 JUMPI PUSH1 0x20 SWAP4 PUSH2 0xCA2 JUMPI JUMPDEST POP PUSH1 0x40 MLOAD SWAP2 PUSH1 0x1 PUSH1 0x1 PUSH1 0xA0 SHL SUB AND SWAP1 DUP2 SWAP1 CALLER SWAP1 PUSH32 0xD5F9BDF12ADF29DAB0248C349842C3822D53AE2BB4F36352F301630D018C8139 SWAP1 DUP1 LOG3 DUP2 MSTORE RETURN JUMPDEST DUP2 PUSH2 0xCAC SWAP2 PUSH2 0xE3E JUMP JUMPDEST CODESIZE PUSH2 0xC67 JUMP JUMPDEST POP PUSH1 0x40 MLOAD SWAP1 RETURNDATASIZE SWAP1 DUP3 RETURNDATACOPY RETURNDATASIZE SWAP1 REVERT JUMPDEST PUSH1 0x1 PUSH1 0x1 PUSH1 0xA0 SHL SUB DUP5 AND PUSH2 0xCD4 DUP3 CALLER DUP4 PUSH2 0x11D1 JUMP JUMPDEST PUSH1 0x40 MLOAD SWAP2 DUP3 MSTORE PUSH1 0x0 DUP1 MLOAD PUSH1 0x20 PUSH2 0x289F DUP4 CODECOPY DUP2 MLOAD SWAP2 MSTORE PUSH1 0x20 CALLER SWAP4 LOG3 CODESIZE PUSH2 0xC33 JUMP JUMPDEST SWAP1 POP PUSH1 0x20 DUP2 RETURNDATASIZE PUSH1 0x20 GT PUSH2 0xD1E JUMPI JUMPDEST DUP2 PUSH2 0xD0F PUSH1 0x20 SWAP4 DUP4 PUSH2 0xE3E JUMP JUMPDEST DUP2 ADD SUB SLT PUSH2 0x2E9 JUMPI MLOAD CODESIZE PUSH2 0xC2C JUMP JUMPDEST RETURNDATASIZE SWAP2 POP PUSH2 0xD02 JUMP JUMPDEST DUP5 SWAP6 SWAP7 POP PUSH2 0xD3A DUP2 DUP4 PUSH1 0x1 SWAP5 SWAP6 SWAP7 SWAP8 PUSH2 0xE04 JUMP JUMPDEST CALLDATALOAD DUP1 ISZERO PUSH2 0xD97 JUMPI DUP3 DUP1 PUSH1 0xA0 SHL SUB DUP10 AND PUSH2 0xD5B DUP3 PUSH2 0x6EC PUSH2 0x6E7 DUP7 DUP11 DUP13 PUSH2 0xE04 JUMP JUMPDEST PUSH1 0x0 DUP1 MLOAD PUSH1 0x20 PUSH2 0x289F DUP4 CODECOPY DUP2 MLOAD SWAP2 MSTORE PUSH1 0x20 DUP6 DUP1 PUSH1 0xA0 SHL SUB PUSH2 0xD80 PUSH2 0x6E7 DUP8 DUP12 DUP14 PUSH2 0xE04 JUMP JUMPDEST AND SWAP4 PUSH1 0x40 MLOAD SWAP1 DUP2 MSTORE LOG3 JUMPDEST ADD SWAP1 DUP8 SWAP6 SWAP5 SWAP4 SWAP3 SWAP2 PUSH2 0xBEE JUMP JUMPDEST POP PUSH2 0xD8A JUMP JUMPDEST SWAP2 DUP2 PUSH1 0x1F DUP5 ADD SLT ISZERO PUSH2 0x571 JUMPI DUP3 CALLDATALOAD SWAP2 PUSH1 0x1 PUSH1 0x1 PUSH1 0x40 SHL SUB DUP4 GT PUSH2 0x571 JUMPI PUSH1 0x20 DUP1 DUP6 ADD SWAP5 DUP5 PUSH1 0x5 SHL ADD ADD GT PUSH2 0x571 JUMPI JUMP JUMPDEST ISZERO PUSH2 0xDD4 JUMPI JUMP JUMPDEST PUSH1 0x40 MLOAD PUSH3 0x461BCD PUSH1 0xE5 SHL DUP2 MSTORE PUSH1 0x20 PUSH1 0x4 DUP3 ADD MSTORE PUSH1 0x8 PUSH1 0x24 DUP3 ADD MSTORE PUSH8 0x737570706C793D3 PUSH1 0xC4 SHL PUSH1 0x44 DUP3 ADD MSTORE PUSH1 0x64 SWAP1 REVERT JUMPDEST SWAP2 SWAP1 DUP2 LT ISZERO PUSH2 0xE14 JUMPI PUSH1 0x5 SHL ADD SWAP1 JUMP JUMPDEST PUSH4 0x4E487B71 PUSH1 0xE0 SHL PUSH1 0x0 MSTORE PUSH1 0x32 PUSH1 0x4 MSTORE PUSH1 0x24 PUSH1 0x0 REVERT JUMPDEST CALLDATALOAD PUSH1 0x1 PUSH1 0x1 PUSH1 0xA0 SHL SUB DUP2 AND DUP2 SUB PUSH2 0x571 JUMPI SWAP1 JUMP JUMPDEST SWAP1 PUSH1 0x1F DUP1 NOT SWAP2 ADD AND DUP2 ADD SWAP1 DUP2 LT PUSH1 0x1 PUSH1 0x1 PUSH1 0x40 SHL SUB DUP3 GT OR PUSH2 0xE5F JUMPI PUSH1 0x40 MSTORE JUMP JUMPDEST PUSH4 0x4E487B71 PUSH1 0xE0 SHL PUSH1 0x0 MSTORE PUSH1 0x41 PUSH1 0x4 MSTORE PUSH1 0x24 PUSH1 0x0 REVERT JUMPDEST ISZERO PUSH2 0xE7C JUMPI JUMP JUMPDEST PUSH1 0x40 MLOAD PUSH3 0x461BCD PUSH1 0xE5 SHL DUP2 MSTORE PUSH1 0x20 PUSH1 0x4 DUP3 ADD MSTORE PUSH1 0x9 PUSH1 0x24 DUP3 ADD MSTORE PUSH9 0x3737BA1037BBB732B9 PUSH1 0xB9 SHL PUSH1 0x44 DUP3 ADD MSTORE PUSH1 0x64 SWAP1 REVERT JUMPDEST SWAP2 SWAP1 DUP2 LT ISZERO PUSH2 0xE14 JUMPI PUSH1 0xA0 MUL ADD SWAP1 JUMP JUMPDEST DUP1 PUSH2 0xF01 JUMPI POP CALLVALUE PUSH2 0xECA JUMPI JUMP JUMPDEST PUSH1 0x40 MLOAD PUSH3 0x461BCD PUSH1 0xE5 SHL DUP2 MSTORE PUSH1 0x20 PUSH1 0x4 DUP3 ADD MSTORE PUSH1 0xF PUSH1 0x24 DUP3 ADD MSTORE PUSH15 0x1B9BC8199959481C995C5D5A5C9959 PUSH1 0x8A SHL PUSH1 0x44 DUP3 ADD MSTORE PUSH1 0x64 SWAP1 REVERT JUMPDEST CALLVALUE SUB PUSH2 0xF09 JUMPI JUMP JUMPDEST PUSH1 0x40 MLOAD PUSH3 0x461BCD PUSH1 0xE5 SHL DUP2 MSTORE PUSH1 0x20 PUSH1 0x4 DUP3 ADD MSTORE PUSH1 0x7 PUSH1 0x24 DUP3 ADD MSTORE PUSH7 0x62616420666565 PUSH1 0xC8 SHL PUSH1 0x44 DUP3 ADD MSTORE PUSH1 0x64 SWAP1 REVERT JUMPDEST SWAP2 SWAP1 DUP3 ADD DUP1 SWAP3 GT PUSH2 0xF45 JUMPI JUMP JUMPDEST PUSH4 0x4E487B71 PUSH1 0xE0 SHL PUSH1 0x0 MSTORE PUSH1 0x11 PUSH1 0x4 MSTORE PUSH1 0x24 PUSH1 0x0 REVERT JUMPDEST ISZERO PUSH2 0xF62 JUMPI JUMP JUMPDEST PUSH1 0x40 MLOAD PUSH3 0x461BCD PUSH1 0xE5 SHL DUP2 MSTORE PUSH1 0x20 PUSH1 0x4 DUP3 ADD MSTORE PUSH1 0x15 PUSH1 0x24 DUP3 ADD MSTORE PUSH21 0x646973747269627574696F6E203E20737570706C79 PUSH1 0x58 SHL PUSH1 0x44 DUP3 ADD MSTORE PUSH1 0x64 SWAP1 REVERT JUMPDEST SWAP3 SWAP2 SWAP1 SWAP5 SWAP4 PUSH1 0x0 SWAP6 DUP2 DUP4 SUB PUSH2 0x109A JUMPI PUSH1 0x64 DUP4 GT PUSH2 0x105F JUMPI SWAP3 SWAP2 SWAP1 PUSH1 0x0 SWAP4 JUMPDEST DUP3 DUP6 LT PUSH2 0xFD7 JUMPI POP POP POP POP POP PUSH2 0xFD5 SWAP1 DUP4 GT ISZERO PUSH2 0xF5B JUMP JUMPDEST JUMP JUMPDEST SWAP1 SWAP2 SWAP3 SWAP4 SWAP7 PUSH1 0x1 DUP1 PUSH1 0xA0 SHL SUB PUSH2 0xFF1 PUSH2 0x6E7 DUP11 DUP8 DUP7 PUSH2 0xE04 JUMP JUMPDEST AND ISZERO PUSH2 0x102C JUMPI PUSH2 0x1002 DUP9 DUP5 DUP8 PUSH2 0xE04 JUMP JUMPDEST CALLDATALOAD SWAP1 DUP2 ISZERO PUSH2 0x1022 JUMPI PUSH1 0x1 SWAP2 PUSH2 0x1016 SWAP2 PUSH2 0xF38 JUMP JUMPDEST SWAP8 JUMPDEST ADD SWAP4 SWAP3 SWAP2 SWAP1 PUSH2 0xFBD JUMP JUMPDEST SWAP8 PUSH1 0x1 SWAP2 POP PUSH2 0x1018 JUMP JUMPDEST PUSH1 0x40 MLOAD PUSH3 0x461BCD PUSH1 0xE5 SHL DUP2 MSTORE PUSH1 0x20 PUSH1 0x4 DUP3 ADD MSTORE PUSH1 0xB PUSH1 0x24 DUP3 ADD MSTORE PUSH11 0x726563697069656E743D3 PUSH1 0xAC SHL PUSH1 0x44 DUP3 ADD MSTORE PUSH1 0x64 SWAP1 REVERT JUMPDEST PUSH1 0x40 MLOAD PUSH3 0x461BCD PUSH1 0xE5 SHL DUP2 MSTORE PUSH1 0x20 PUSH1 0x4 DUP3 ADD MSTORE PUSH1 0x13 PUSH1 0x24 DUP3 ADD MSTORE PUSH19 0x746F6F206D616E7920726563697069656E7473 PUSH1 0x68 SHL PUSH1 0x44 DUP3 ADD MSTORE PUSH1 0x64 SWAP1 REVERT JUMPDEST PUSH1 0x40 MLOAD PUSH3 0x461BCD PUSH1 0xE5 SHL DUP2 MSTORE PUSH1 0x20 PUSH1 0x4 DUP3 ADD MSTORE PUSH1 0xF PUSH1 0x24 DUP3 ADD MSTORE PUSH15 0xD8CADCCEE8D040DAD2E6DAC2E8C6D PUSH1 0x8B SHL PUSH1 0x44 DUP3 ADD MSTORE PUSH1 0x64 SWAP1 REVERT JUMPDEST SWAP1 CALLDATALOAD SWAP1 PUSH1 0x1E NOT DUP2 CALLDATASIZE SUB ADD DUP3 SLT ISZERO PUSH2 0x571 JUMPI ADD DUP1 CALLDATALOAD SWAP1 PUSH1 0x1 PUSH1 0x1 PUSH1 0x40 SHL SUB DUP3 GT PUSH2 0x571 JUMPI PUSH1 0x20 ADD SWAP2 DUP2 CALLDATASIZE SUB DUP4 SGT PUSH2 0x571 JUMPI JUMP JUMPDEST SWAP1 DUP1 PUSH1 0x20 SWAP4 SWAP3 DUP2 DUP5 MSTORE DUP5 DUP5 ADD CALLDATACOPY PUSH1 0x0 DUP3 DUP3 ADD DUP5 ADD MSTORE PUSH1 0x1F ADD PUSH1 0x1F NOT AND ADD ADD SWAP1 JUMP JUMPDEST PUSH2 0x112E DUP2 DUP1 PUSH2 0x10D1 JUMP JUMPDEST SWAP1 SWAP2 PUSH2 0x113D PUSH1 0x20 DUP3 ADD DUP3 PUSH2 0x10D1 JUMP JUMPDEST SWAP3 PUSH1 0x60 DUP4 ADD CALLDATALOAD SWAP2 PUSH1 0xFF DUP4 AND DUP1 SWAP4 SUB PUSH2 0x571 JUMPI PUSH1 0x40 MLOAD SWAP6 PUSH2 0xCD6 SWAP3 DUP4 DUP9 ADD SWAP3 DUP9 DUP5 LT PUSH1 0x1 PUSH1 0x1 PUSH1 0x40 SHL SUB DUP6 GT OR PUSH2 0xE5F JUMPI DUP9 SWAP8 PUSH2 0x1195 PUSH1 0x40 SWAP5 PUSH2 0x11A2 SWAP5 PUSH1 0x80 SWAP9 PUSH2 0x1277 DUP14 CODECOPY ADDRESS DUP9 MSTORE PUSH1 0xA0 PUSH1 0x20 DUP10 ADD MSTORE PUSH1 0xA0 DUP9 ADD SWAP2 PUSH2 0x1103 JUMP JUMPDEST SWAP2 DUP6 DUP4 SUB DUP6 DUP8 ADD MSTORE PUSH2 0x1103 JUMP JUMPDEST SWAP5 ADD CALLDATALOAD PUSH1 0x60 DUP3 ADD MSTORE ADD MSTORE SUB SWAP1 PUSH1 0x0 CREATE SWAP1 DUP2 ISZERO PUSH2 0x11C5 JUMPI PUSH1 0x1 PUSH1 0x1 PUSH1 0xA0 SHL SUB DUP3 AND SWAP1 JUMP JUMPDEST PUSH1 0x40 MLOAD RETURNDATASIZE PUSH1 0x0 DUP3 RETURNDATACOPY RETURNDATASIZE SWAP1 REVERT JUMPDEST PUSH1 0x40 MLOAD PUSH4 0xA9059CBB PUSH1 0xE0 SHL PUSH1 0x20 DUP3 DUP2 ADD SWAP2 DUP3 MSTORE PUSH1 0x1 PUSH1 0x1 PUSH1 0xA0 SHL SUB SWAP1 SWAP5 AND PUSH1 0x24 DUP4 ADD MSTORE PUSH1 0x44 DUP1 DUP4 ADD SWAP6 SWAP1 SWAP6 MSTORE SWAP4 DUP2 MSTORE SWAP1 SWAP3 PUSH1 0x0 SWAP2 PUSH2 0x1210 PUSH1 0x64 DUP3 PUSH2 0xE3E JUMP JUMPDEST MLOAD SWAP1 DUP3 DUP6 GAS CALL ISZERO PUSH2 0x11C5 JUMPI PUSH1 0x0 MLOAD RETURNDATASIZE PUSH2 0x1259 JUMPI POP PUSH1 0x1 PUSH1 0x1 PUSH1 0xA0 SHL SUB DUP2 AND EXTCODESIZE ISZERO JUMPDEST PUSH2 0x1238 JUMPI POP JUMP JUMPDEST PUSH4 0x5274AFE7 PUSH1 0xE0 SHL PUSH1 0x0 SWAP1 DUP2 MSTORE PUSH1 0x1 PUSH1 0x1 PUSH1 0xA0 SHL SUB SWAP2 SWAP1 SWAP2 AND PUSH1 0x4 MSTORE PUSH1 0x24 SWAP1 REVERT JUMPDEST PUSH1 0x1 EQ ISZERO PUSH2 0x1231 JUMP JUMPDEST CALLDATALOAD PUSH1 0x1 PUSH1 0x1 PUSH1 0x40 SHL SUB DUP2 AND DUP2 SUB PUSH2 0x571 JUMPI SWAP1 JUMP INVALID PUSH1 0xA0 PUSH1 0x40 MSTORE CALLVALUE PUSH2 0x470 JUMPI PUSH2 0xCD6 DUP1 CODESIZE SUB DUP1 PUSH2 0x19 DUP2 PUSH2 0x475 JUMP JUMPDEST SWAP3 DUP4 CODECOPY DUP2 ADD SWAP1 PUSH1 0xA0 DUP2 DUP4 SUB SLT PUSH2 0x470 JUMPI DUP1 MLOAD PUSH1 0x1 PUSH1 0x1 PUSH1 0xA0 SHL SUB DUP2 AND SWAP2 SWAP1 DUP3 SWAP1 SUB PUSH2 0x470 JUMPI PUSH1 0x20 DUP2 ADD MLOAD PUSH1 0x1 PUSH1 0x1 PUSH1 0x40 SHL SUB DUP2 GT PUSH2 0x470 JUMPI DUP4 PUSH2 0x5D SWAP2 DUP4 ADD PUSH2 0x49A JUMP JUMPDEST PUSH1 0x40 DUP3 ADD MLOAD SWAP1 SWAP4 PUSH1 0x1 PUSH1 0x1 PUSH1 0x40 SHL SUB DUP3 GT PUSH2 0x470 JUMPI PUSH2 0x7D SWAP2 DUP4 ADD PUSH2 0x49A JUMP JUMPDEST SWAP3 PUSH1 0x80 PUSH1 0x60 DUP4 ADD MLOAD SWAP3 ADD MLOAD SWAP1 PUSH1 0xFF DUP3 AND DUP3 SUB PUSH2 0x470 JUMPI DUP1 MLOAD SWAP1 PUSH1 0x1 PUSH1 0x1 PUSH1 0x40 SHL SUB DUP3 GT PUSH2 0x36D JUMPI PUSH1 0x3 SLOAD SWAP1 PUSH1 0x1 DUP3 DUP2 SHR SWAP3 AND DUP1 ISZERO PUSH2 0x466 JUMPI JUMPDEST PUSH1 0x20 DUP4 LT EQ PUSH2 0x34D JUMPI DUP2 PUSH1 0x1F DUP5 SWAP4 GT PUSH2 0x3F6 JUMPI JUMPDEST POP PUSH1 0x20 SWAP1 PUSH1 0x1F DUP4 GT PUSH1 0x1 EQ PUSH2 0x38E JUMPI PUSH1 0x0 SWAP3 PUSH2 0x383 JUMPI JUMPDEST POP POP DUP2 PUSH1 0x1 SHL SWAP2 PUSH1 0x0 NOT SWAP1 PUSH1 0x3 SHL SHR NOT AND OR PUSH1 0x3 SSTORE JUMPDEST DUP4 MLOAD PUSH1 0x1 PUSH1 0x1 PUSH1 0x40 SHL SUB DUP2 GT PUSH2 0x36D JUMPI PUSH1 0x4 SLOAD PUSH1 0x1 DUP2 DUP2 SHR SWAP2 AND DUP1 ISZERO PUSH2 0x363 JUMPI JUMPDEST PUSH1 0x20 DUP3 LT EQ PUSH2 0x34D JUMPI PUSH1 0x1F DUP2 GT PUSH2 0x2E8 JUMPI JUMPDEST POP PUSH1 0x20 SWAP5 PUSH1 0x1F DUP3 GT PUSH1 0x1 EQ PUSH2 0x281 JUMPI SWAP5 DUP2 SWAP3 SWAP4 SWAP5 SWAP6 PUSH1 0x0 SWAP3 PUSH2 0x276 JUMPI JUMPDEST POP POP DUP2 PUSH1 0x1 SHL SWAP2 PUSH1 0x0 NOT SWAP1 PUSH1 0x3 SHL SHR NOT AND OR PUSH1 0x4 SSTORE JUMPDEST DUP3 ISZERO PUSH2 0x260 JUMPI PUSH1 0x5 DUP1 SLOAD PUSH1 0x1 PUSH1 0x1 PUSH1 0xA0 SHL SUB NOT DUP2 AND DUP6 OR SWAP1 SWAP2 SSTORE PUSH1 0x40 MLOAD SWAP1 DUP5 SWAP1 PUSH1 0x1 PUSH1 0x1 PUSH1 0xA0 SHL SUB AND PUSH32 0x8BE0079C531659141344CD1FD0A4F28419497F9722A3DAAFE3B4186F6B6457E0 PUSH1 0x0 DUP1 LOG3 DUP3 ISZERO PUSH2 0x233 JUMPI POP PUSH1 0x80 MSTORE PUSH1 0x0 PUSH1 0x2 SLOAD DUP3 DUP2 ADD DUP1 SWAP2 GT PUSH2 0x21F JUMPI PUSH1 0x0 SWAP3 PUSH32 0xDDF252AD1BE2C89B69C2B068FC378DAA952BA7F163C4A11628F55A4DF523B3EF SWAP3 PUSH1 0x20 SWAP3 PUSH1 0x2 SSTORE POP DUP5 DUP5 MSTORE DUP4 DUP3 MSTORE PUSH1 0x40 DUP5 KECCAK256 DUP2 DUP2 SLOAD ADD SWAP1 SSTORE PUSH1 0x40 MLOAD SWAP1 DUP2 MSTORE LOG3 PUSH1 0x40 MLOAD PUSH2 0x7D0 SWAP1 DUP2 PUSH2 0x506 DUP3 CODECOPY PUSH1 0x80 MLOAD DUP2 PUSH2 0x3AF ADD MSTORE RETURN JUMPDEST PUSH4 0x4E487B71 PUSH1 0xE0 SHL DUP3 MSTORE PUSH1 0x11 PUSH1 0x4 MSTORE PUSH1 0x24 DUP3 REVERT JUMPDEST PUSH3 0x461BCD PUSH1 0xE5 SHL DUP2 MSTORE PUSH1 0x20 PUSH1 0x4 DUP3 ADD MSTORE PUSH1 0x8 PUSH1 0x24 DUP3 ADD MSTORE PUSH8 0x737570706C793D3 PUSH1 0xC4 SHL PUSH1 0x44 DUP3 ADD MSTORE PUSH1 0x64 SWAP1 REVERT JUMPDEST PUSH4 0x1E4FBDF7 PUSH1 0xE0 SHL PUSH1 0x0 MSTORE PUSH1 0x0 PUSH1 0x4 MSTORE PUSH1 0x24 PUSH1 0x0 REVERT JUMPDEST ADD MLOAD SWAP1 POP CODESIZE DUP1 PUSH2 0x147 JUMP JUMPDEST PUSH1 0x1F NOT DUP3 AND SWAP6 PUSH1 0x4 PUSH1 0x0 MSTORE DUP1 PUSH1 0x0 KECCAK256 SWAP2 PUSH1 0x0 JUMPDEST DUP9 DUP2 LT PUSH2 0x2D0 JUMPI POP DUP4 PUSH1 0x1 SWAP6 SWAP7 SWAP8 SWAP9 LT PUSH2 0x2B7 JUMPI JUMPDEST POP POP POP DUP2 SHL ADD PUSH1 0x4 SSTORE PUSH2 0x15D JUMP JUMPDEST ADD MLOAD PUSH1 0x0 NOT PUSH1 0xF8 DUP5 PUSH1 0x3 SHL AND SHR NOT AND SWAP1 SSTORE CODESIZE DUP1 DUP1 PUSH2 0x2A9 JUMP JUMPDEST SWAP2 SWAP3 PUSH1 0x20 PUSH1 0x1 DUP2 SWAP3 DUP7 DUP6 ADD MLOAD DUP2 SSTORE ADD SWAP5 ADD SWAP3 ADD PUSH2 0x294 JUMP JUMPDEST PUSH1 0x4 PUSH1 0x0 MSTORE PUSH32 0x8A35ACFBC15FF81A39AE7D344FD709F28E8600B4AA8C65C6B64BFE7FE36BD19B PUSH1 0x1F DUP4 ADD PUSH1 0x5 SHR DUP2 ADD SWAP2 PUSH1 0x20 DUP5 LT PUSH2 0x343 JUMPI JUMPDEST PUSH1 0x1F ADD PUSH1 0x5 SHR ADD SWAP1 JUMPDEST DUP2 DUP2 LT PUSH2 0x337 JUMPI POP PUSH2 0x12A JUMP JUMPDEST PUSH1 0x0 DUP2 SSTORE PUSH1 0x1 ADD PUSH2 0x32A JUMP JUMPDEST SWAP1 SWAP2 POP DUP2 SWAP1 PUSH2 0x321 JUMP JUMPDEST PUSH4 0x4E487B71 PUSH1 0xE0 SHL PUSH1 0x0 MSTORE PUSH1 0x22 PUSH1 0x4 MSTORE PUSH1 0x24 PUSH1 0x0 REVERT JUMPDEST SWAP1 PUSH1 0x7F AND SWAP1 PUSH2 0x118 JUMP JUMPDEST PUSH4 0x4E487B71 PUSH1 0xE0 SHL PUSH1 0x0 MSTORE PUSH1 0x41 PUSH1 0x4 MSTORE PUSH1 0x24 PUSH1 0x0 REVERT JUMPDEST ADD MLOAD SWAP1 POP CODESIZE DUP1 PUSH2 0xE1 JUMP JUMPDEST PUSH1 0x3 PUSH1 0x0 SWAP1 DUP2 MSTORE DUP3 DUP2 KECCAK256 SWAP4 POP PUSH1 0x1F NOT DUP6 AND SWAP1 JUMPDEST DUP2 DUP2 LT PUSH2 0x3DE JUMPI POP SWAP1 DUP5 PUSH1 0x1 SWAP6 SWAP5 SWAP4 SWAP3 LT PUSH2 0x3C5 JUMPI JUMPDEST POP POP POP DUP2 SHL ADD PUSH1 0x3 SSTORE PUSH2 0xF7 JUMP JUMPDEST ADD MLOAD PUSH1 0x0 NOT PUSH1 0xF8 DUP5 PUSH1 0x3 SHL AND SHR NOT AND SWAP1 SSTORE CODESIZE DUP1 DUP1 PUSH2 0x3B7 JUMP JUMPDEST SWAP3 SWAP4 PUSH1 0x20 PUSH1 0x1 DUP2 SWAP3 DUP8 DUP7 ADD MLOAD DUP2 SSTORE ADD SWAP6 ADD SWAP4 ADD PUSH2 0x3A1 JUMP JUMPDEST PUSH1 0x3 PUSH1 0x0 MSTORE SWAP1 SWAP2 POP PUSH32 0xC2575A0E9E593C00F959F8C92F12DB2869C3395A3B0502D05E2516446F71F85B PUSH1 0x1F DUP5 ADD PUSH1 0x5 SHR DUP2 ADD SWAP2 PUSH1 0x20 DUP6 LT PUSH2 0x45C JUMPI JUMPDEST SWAP1 PUSH1 0x1F DUP6 SWAP5 SWAP4 SWAP3 ADD PUSH1 0x5 SHR ADD SWAP1 JUMPDEST DUP2 DUP2 LT PUSH2 0x44D JUMPI POP PUSH2 0xCA JUMP JUMPDEST PUSH1 0x0 DUP2 SSTORE DUP5 SWAP4 POP PUSH1 0x1 ADD PUSH2 0x440 JUMP JUMPDEST SWAP1 SWAP2 POP DUP2 SWAP1 PUSH2 0x432 JUMP JUMPDEST SWAP2 PUSH1 0x7F AND SWAP2 PUSH2 0xB6 JUMP JUMPDEST PUSH1 0x0 DUP1 REVERT JUMPDEST PUSH1 0x40 MLOAD SWAP2 SWAP1 PUSH1 0x1F ADD PUSH1 0x1F NOT AND DUP3 ADD PUSH1 0x1 PUSH1 0x1 PUSH1 0x40 SHL SUB DUP2 GT DUP4 DUP3 LT OR PUSH2 0x36D JUMPI PUSH1 0x40 MSTORE JUMP JUMPDEST DUP2 PUSH1 0x1F DUP3 ADD SLT ISZERO PUSH2 0x470 JUMPI DUP1 MLOAD SWAP1 PUSH1 0x1 PUSH1 0x1 PUSH1 0x40 SHL SUB DUP3 GT PUSH2 0x36D JUMPI PUSH2 0x4C9 PUSH1 0x1F DUP4 ADD PUSH1 0x1F NOT AND PUSH1 0x20 ADD PUSH2 0x475 JUMP JUMPDEST SWAP3 DUP3 DUP5 MSTORE PUSH1 0x20 DUP4 DUP4 ADD ADD GT PUSH2 0x470 JUMPI PUSH1 0x0 JUMPDEST DUP3 DUP2 LT PUSH2 0x4F0 JUMPI POP POP PUSH1 0x20 PUSH1 0x0 SWAP2 DUP4 ADD ADD MSTORE SWAP1 JUMP JUMPDEST DUP1 PUSH1 0x20 DUP1 SWAP3 DUP5 ADD ADD MLOAD DUP3 DUP3 DUP8 ADD ADD MSTORE ADD PUSH2 0x4DB JUMP INVALID PUSH1 0x80 DUP1 PUSH1 0x40 MSTORE PUSH1 0x4 CALLDATASIZE LT ISZERO PUSH2 0x13 JUMPI PUSH1 0x0 DUP1 REVERT JUMPDEST PUSH1 0x0 CALLDATALOAD PUSH1 0xE0 SHR SWAP1 DUP2 PUSH4 0x6FDDE03 EQ PUSH2 0x564 JUMPI POP DUP1 PUSH4 0x95EA7B3 EQ PUSH2 0x4DE JUMPI DUP1 PUSH4 0x18160DDD EQ PUSH2 0x4C0 JUMPI DUP1 PUSH4 0x23B872DD EQ PUSH2 0x3D3 JUMPI DUP1 PUSH4 0x313CE567 EQ PUSH2 0x395 JUMPI DUP1 PUSH4 0x70A08231 EQ PUSH2 0x35B JUMPI DUP1 PUSH4 0x715018A6 EQ PUSH2 0x2FE JUMPI DUP1 PUSH4 0x8DA5CB5B EQ PUSH2 0x2D5 JUMPI DUP1 PUSH4 0x95D89B41 EQ PUSH2 0x1B4 JUMPI DUP1 PUSH4 0xA9059CBB EQ PUSH2 0x183 JUMPI DUP1 PUSH4 0xDD62ED3E EQ PUSH2 0x132 JUMPI PUSH4 0xF2FDE38B EQ PUSH2 0xA3 JUMPI PUSH1 0x0 DUP1 REVERT JUMPDEST CALLVALUE PUSH2 0x12D JUMPI PUSH1 0x20 CALLDATASIZE PUSH1 0x3 NOT ADD SLT PUSH2 0x12D JUMPI PUSH2 0xBC PUSH2 0x680 JUMP JUMPDEST PUSH2 0xC4 PUSH2 0x771 JUMP JUMPDEST PUSH1 0x1 PUSH1 0x1 PUSH1 0xA0 SHL SUB AND DUP1 ISZERO PUSH2 0x117 JUMPI PUSH1 0x5 DUP1 SLOAD PUSH1 0x1 PUSH1 0x1 PUSH1 0xA0 SHL SUB NOT DUP2 AND DUP4 OR SWAP1 SWAP2 SSTORE PUSH1 0x1 PUSH1 0x1 PUSH1 0xA0 SHL SUB AND PUSH32 0x8BE0079C531659141344CD1FD0A4F28419497F9722A3DAAFE3B4186F6B6457E0 PUSH1 0x0 DUP1 LOG3 STOP JUMPDEST PUSH4 0x1E4FBDF7 PUSH1 0xE0 SHL PUSH1 0x0 MSTORE PUSH1 0x0 PUSH1 0x4 MSTORE PUSH1 0x24 PUSH1 0x0 REVERT JUMPDEST PUSH1 0x0 DUP1 REVERT JUMPDEST CALLVALUE PUSH2 0x12D JUMPI PUSH1 0x40 CALLDATASIZE PUSH1 0x3 NOT ADD SLT PUSH2 0x12D JUMPI PUSH2 0x14B PUSH2 0x680 JUMP JUMPDEST PUSH2 0x153 PUSH2 0x696 JUMP JUMPDEST PUSH1 0x1 PUSH1 0x1 PUSH1 0xA0 SHL SUB SWAP2 DUP3 AND PUSH1 0x0 SWAP1 DUP2 MSTORE PUSH1 0x1 PUSH1 0x20 SWAP1 DUP2 MSTORE PUSH1 0x40 DUP1 DUP4 KECCAK256 SWAP5 SWAP1 SWAP4 AND DUP3 MSTORE SWAP3 DUP4 MSTORE DUP2 SWAP1 KECCAK256 SLOAD SWAP1 MLOAD SWAP1 DUP2 MSTORE RETURN JUMPDEST CALLVALUE PUSH2 0x12D JUMPI PUSH1 0x40 CALLDATASIZE PUSH1 0x3 NOT ADD SLT PUSH2 0x12D JUMPI PUSH2 0x1A9 PUSH2 0x19F PUSH2 0x680 JUMP JUMPDEST PUSH1 0x24 CALLDATALOAD SWAP1 CALLER PUSH2 0x6AC JUMP JUMPDEST PUSH1 0x20 PUSH1 0x40 MLOAD PUSH1 0x1 DUP2 MSTORE RETURN JUMPDEST CALLVALUE PUSH2 0x12D JUMPI PUSH1 0x0 CALLDATASIZE PUSH1 0x3 NOT ADD SLT PUSH2 0x12D JUMPI PUSH1 0x40 MLOAD PUSH1 0x0 PUSH1 0x4 SLOAD DUP1 PUSH1 0x1 SHR SWAP1 PUSH1 0x1 DUP2 AND DUP1 ISZERO PUSH2 0x2CB JUMPI JUMPDEST PUSH1 0x20 DUP4 LT DUP2 EQ PUSH2 0x2B7 JUMPI DUP3 DUP6 MSTORE SWAP1 DUP2 ISZERO PUSH2 0x29B JUMPI POP PUSH1 0x1 EQ PUSH2 0x244 JUMPI JUMPDEST POP DUP2 SWAP1 SUB PUSH1 0x1F ADD PUSH1 0x1F NOT AND DUP2 ADD SWAP1 PUSH8 0xFFFFFFFFFFFFFFFF DUP3 GT DUP2 DUP4 LT OR PUSH2 0x22E JUMPI PUSH2 0x22A DUP3 SWAP2 DUP3 PUSH1 0x40 MSTORE DUP3 PUSH2 0x637 JUMP JUMPDEST SUB SWAP1 RETURN JUMPDEST PUSH4 0x4E487B71 PUSH1 0xE0 SHL PUSH1 0x0 MSTORE PUSH1 0x41 PUSH1 0x4 MSTORE PUSH1 0x24 PUSH1 0x0 REVERT JUMPDEST SWAP1 POP PUSH1 0x4 PUSH1 0x0 MSTORE PUSH32 0x8A35ACFBC15FF81A39AE7D344FD709F28E8600B4AA8C65C6B64BFE7FE36BD19B PUSH1 0x0 SWAP1 JUMPDEST DUP3 DUP3 LT PUSH2 0x285 JUMPI POP PUSH1 0x20 SWAP2 POP DUP3 ADD ADD DUP3 PUSH2 0x1FA JUMP JUMPDEST PUSH1 0x1 DUP2 PUSH1 0x20 SWAP3 SLOAD DUP4 DUP6 DUP9 ADD ADD MSTORE ADD SWAP2 ADD SWAP1 PUSH2 0x270 JUMP JUMPDEST SWAP1 POP PUSH1 0x20 SWAP3 POP PUSH1 0xFF NOT AND DUP3 DUP5 ADD MSTORE ISZERO ISZERO PUSH1 0x5 SHL DUP3 ADD ADD DUP3 PUSH2 0x1FA JUMP JUMPDEST PUSH4 0x4E487B71 PUSH1 0xE0 SHL DUP5 MSTORE PUSH1 0x22 PUSH1 0x4 MSTORE PUSH1 0x24 DUP5 REVERT JUMPDEST SWAP2 PUSH1 0x7F AND SWAP2 PUSH2 0x1DD JUMP JUMPDEST CALLVALUE PUSH2 0x12D JUMPI PUSH1 0x0 CALLDATASIZE PUSH1 0x3 NOT ADD SLT PUSH2 0x12D JUMPI PUSH1 0x5 SLOAD PUSH1 0x40 MLOAD PUSH1 0x1 PUSH1 0x1 PUSH1 0xA0 SHL SUB SWAP1 SWAP2 AND DUP2 MSTORE PUSH1 0x20 SWAP1 RETURN JUMPDEST CALLVALUE PUSH2 0x12D JUMPI PUSH1 0x0 CALLDATASIZE PUSH1 0x3 NOT ADD SLT PUSH2 0x12D JUMPI PUSH2 0x317 PUSH2 0x771 JUMP JUMPDEST PUSH1 0x5 DUP1 SLOAD PUSH1 0x1 PUSH1 0x1 PUSH1 0xA0 SHL SUB NOT DUP2 AND SWAP1 SWAP2 SSTORE PUSH1 0x0 SWAP1 PUSH1 0x1 PUSH1 0x1 PUSH1 0xA0 SHL SUB AND PUSH32 0x8BE0079C531659141344CD1FD0A4F28419497F9722A3DAAFE3B4186F6B6457E0 DUP3 DUP1 LOG3 STOP JUMPDEST CALLVALUE PUSH2 0x12D JUMPI PUSH1 0x20 CALLDATASIZE PUSH1 0x3 NOT ADD SLT PUSH2 0x12D JUMPI PUSH1 0x1 PUSH1 0x1 PUSH1 0xA0 SHL SUB PUSH2 0x37C PUSH2 0x680 JUMP JUMPDEST AND PUSH1 0x0 MSTORE PUSH1 0x0 PUSH1 0x20 MSTORE PUSH1 0x20 PUSH1 0x40 PUSH1 0x0 KECCAK256 SLOAD PUSH1 0x40 MLOAD SWAP1 DUP2 MSTORE RETURN JUMPDEST CALLVALUE PUSH2 0x12D JUMPI PUSH1 0x0 CALLDATASIZE PUSH1 0x3 NOT ADD SLT PUSH2 0x12D JUMPI PUSH1 0x20 PUSH1 0x40 MLOAD PUSH1 0xFF PUSH32 0x0 AND DUP2 MSTORE RETURN JUMPDEST CALLVALUE PUSH2 0x12D JUMPI PUSH1 0x60 CALLDATASIZE PUSH1 0x3 NOT ADD SLT PUSH2 0x12D JUMPI PUSH2 0x3EC PUSH2 0x680 JUMP JUMPDEST PUSH2 0x3F4 PUSH2 0x696 JUMP JUMPDEST PUSH1 0x1 PUSH1 0x1 PUSH1 0xA0 SHL SUB DUP3 AND PUSH1 0x0 DUP2 DUP2 MSTORE PUSH1 0x1 PUSH1 0x20 SWAP1 DUP2 MSTORE PUSH1 0x40 DUP1 DUP4 KECCAK256 CALLER DUP5 MSTORE SWAP1 SWAP2 MSTORE SWAP1 KECCAK256 SLOAD SWAP1 SWAP3 PUSH1 0x44 CALLDATALOAD SWAP3 SWAP2 PUSH1 0x0 NOT DUP2 LT PUSH2 0x434 JUMPI JUMPDEST POP PUSH2 0x1A9 SWAP4 POP PUSH2 0x6AC JUMP JUMPDEST DUP4 DUP2 LT PUSH2 0x4A3 JUMPI DUP5 ISZERO PUSH2 0x48D JUMPI CALLER ISZERO PUSH2 0x477 JUMPI PUSH2 0x1A9 SWAP5 PUSH1 0x0 MSTORE PUSH1 0x1 PUSH1 0x20 MSTORE PUSH1 0x40 PUSH1 0x0 KECCAK256 PUSH1 0x1 DUP1 PUSH1 0xA0 SHL SUB CALLER AND PUSH1 0x0 MSTORE PUSH1 0x20 MSTORE DUP4 PUSH1 0x40 PUSH1 0x0 KECCAK256 SWAP2 SUB SWAP1 SSTORE DUP5 PUSH2 0x429 JUMP JUMPDEST PUSH4 0x4A1406B1 PUSH1 0xE1 SHL PUSH1 0x0 MSTORE PUSH1 0x0 PUSH1 0x4 MSTORE PUSH1 0x24 PUSH1 0x0 REVERT JUMPDEST PUSH4 0xE602DF05 PUSH1 0xE0 SHL PUSH1 0x0 MSTORE PUSH1 0x0 PUSH1 0x4 MSTORE PUSH1 0x24 PUSH1 0x0 REVERT JUMPDEST DUP4 SWAP1 PUSH4 0x7DC7A0D9 PUSH1 0xE1 SHL PUSH1 0x0 MSTORE CALLER PUSH1 0x4 MSTORE PUSH1 0x24 MSTORE PUSH1 0x44 MSTORE PUSH1 0x64 PUSH1 0x0 REVERT JUMPDEST CALLVALUE PUSH2 0x12D JUMPI PUSH1 0x0 CALLDATASIZE PUSH1 0x3 NOT ADD SLT PUSH2 0x12D JUMPI PUSH1 0x20 PUSH1 0x2 SLOAD PUSH1 0x40 MLOAD SWAP1 DUP2 MSTORE RETURN JUMPDEST CALLVALUE PUSH2 0x12D JUMPI PUSH1 0x40 CALLDATASIZE PUSH1 0x3 NOT ADD SLT PUSH2 0x12D JUMPI PUSH2 0x4F7 PUSH2 0x680 JUMP JUMPDEST PUSH1 0x24 CALLDATALOAD SWAP1 CALLER ISZERO PUSH2 0x48D JUMPI PUSH1 0x1 PUSH1 0x1 PUSH1 0xA0 SHL SUB AND SWAP1 DUP2 ISZERO PUSH2 0x477 JUMPI CALLER PUSH1 0x0 MSTORE PUSH1 0x1 PUSH1 0x20 MSTORE PUSH1 0x40 PUSH1 0x0 KECCAK256 DUP3 PUSH1 0x0 MSTORE PUSH1 0x20 MSTORE DUP1 PUSH1 0x40 PUSH1 0x0 KECCAK256 SSTORE PUSH1 0x40 MLOAD SWAP1 DUP2 MSTORE PUSH32 0x8C5BE1E5EBEC7D5BD14F71427D1E84F3DD0314C0F7B2291E5B200AC8C7C3B925 PUSH1 0x20 CALLER SWAP3 LOG3 PUSH1 0x20 PUSH1 0x40 MLOAD PUSH1 0x1 DUP2 MSTORE RETURN JUMPDEST CALLVALUE PUSH2 0x12D JUMPI PUSH1 0x0 CALLDATASIZE PUSH1 0x3 NOT ADD SLT PUSH2 0x12D JUMPI PUSH1 0x0 PUSH1 0x3 SLOAD DUP1 PUSH1 0x1 SHR SWAP1 PUSH1 0x1 DUP2 AND DUP1 ISZERO PUSH2 0x62D JUMPI JUMPDEST PUSH1 0x20 DUP4 LT DUP2 EQ PUSH2 0x2B7 JUMPI DUP3 DUP6 MSTORE SWAP1 DUP2 ISZERO PUSH2 0x29B JUMPI POP PUSH1 0x1 EQ PUSH2 0x5D6 JUMPI POP DUP2 SWAP1 SUB PUSH1 0x1F ADD PUSH1 0x1F NOT AND DUP2 ADD SWAP1 PUSH8 0xFFFFFFFFFFFFFFFF DUP3 GT DUP2 DUP4 LT OR PUSH2 0x22E JUMPI PUSH2 0x22A DUP3 SWAP2 DUP3 PUSH1 0x40 MSTORE DUP3 PUSH2 0x637 JUMP JUMPDEST SWAP1 POP PUSH1 0x3 PUSH1 0x0 MSTORE PUSH32 0xC2575A0E9E593C00F959F8C92F12DB2869C3395A3B0502D05E2516446F71F85B PUSH1 0x0 SWAP1 JUMPDEST DUP3 DUP3 LT PUSH2 0x617 JUMPI POP PUSH1 0x20 SWAP2 POP DUP3 ADD ADD DUP3 PUSH2 0x1FA JUMP JUMPDEST PUSH1 0x1 DUP2 PUSH1 0x20 SWAP3 SLOAD DUP4 DUP6 DUP9 ADD ADD MSTORE ADD SWAP2 ADD SWAP1 PUSH2 0x602 JUMP JUMPDEST SWAP2 PUSH1 0x7F AND SWAP2 PUSH2 0x58A JUMP JUMPDEST SWAP2 SWAP1 SWAP2 PUSH1 0x20 DUP2 MSTORE DUP3 MLOAD DUP1 PUSH1 0x20 DUP4 ADD MSTORE PUSH1 0x0 JUMPDEST DUP2 DUP2 LT PUSH2 0x66A JUMPI POP PUSH1 0x40 SWAP3 SWAP4 POP PUSH1 0x0 DUP4 DUP3 DUP5 ADD ADD MSTORE PUSH1 0x1F DUP1 NOT SWAP2 ADD AND ADD ADD SWAP1 JUMP JUMPDEST DUP1 PUSH1 0x20 DUP1 SWAP3 DUP8 ADD ADD MLOAD PUSH1 0x40 DUP3 DUP7 ADD ADD MSTORE ADD PUSH2 0x649 JUMP JUMPDEST PUSH1 0x4 CALLDATALOAD SWAP1 PUSH1 0x1 PUSH1 0x1 PUSH1 0xA0 SHL SUB DUP3 AND DUP3 SUB PUSH2 0x12D JUMPI JUMP JUMPDEST PUSH1 0x24 CALLDATALOAD SWAP1 PUSH1 0x1 PUSH1 0x1 PUSH1 0xA0 SHL SUB DUP3 AND DUP3 SUB PUSH2 0x12D JUMPI JUMP JUMPDEST PUSH1 0x1 PUSH1 0x1 PUSH1 0xA0 SHL SUB AND SWAP1 DUP2 ISZERO PUSH2 0x75B JUMPI PUSH1 0x1 PUSH1 0x1 PUSH1 0xA0 SHL SUB AND SWAP2 DUP3 ISZERO PUSH2 0x745 JUMPI PUSH1 0x0 DUP3 DUP2 MSTORE DUP1 PUSH1 0x20 MSTORE PUSH1 0x40 DUP2 KECCAK256 SLOAD DUP3 DUP2 LT PUSH2 0x72B JUMPI SWAP2 PUSH1 0x40 DUP3 DUP3 PUSH32 0xDDF252AD1BE2C89B69C2B068FC378DAA952BA7F163C4A11628F55A4DF523B3EF SWAP6 DUP8 PUSH1 0x20 SWAP7 MSTORE DUP3 DUP7 MSTORE SUB DUP3 DUP3 KECCAK256 SSTORE DUP7 DUP2 MSTORE DUP1 DUP5 MSTORE KECCAK256 DUP2 DUP2 SLOAD ADD SWAP1 SSTORE PUSH1 0x40 MLOAD SWAP1 DUP2 MSTORE LOG3 JUMP JUMPDEST SWAP2 PUSH1 0x64 SWAP3 DUP5 PUSH4 0x391434E3 PUSH1 0xE2 SHL DUP5 MSTORE PUSH1 0x4 MSTORE PUSH1 0x24 MSTORE PUSH1 0x44 MSTORE REVERT JUMPDEST PUSH4 0xEC442F05 PUSH1 0xE0 SHL PUSH1 0x0 MSTORE PUSH1 0x0 PUSH1 0x4 MSTORE PUSH1 0x24 PUSH1 0x0 REVERT JUMPDEST PUSH4 0x4B637E8F PUSH1 0xE1 SHL PUSH1 0x0 MSTORE PUSH1 0x0 PUSH1 0x4 MSTORE PUSH1 0x24 PUSH1 0x0 REVERT JUMPDEST PUSH1 0x5 SLOAD PUSH1 0x1 PUSH1 0x1 PUSH1 0xA0 SHL SUB AND CALLER SUB PUSH2 0x785 JUMPI JUMP JUMPDEST PUSH4 0x118CDAA7 PUSH1 0xE0 SHL PUSH1 0x0 MSTORE CALLER PUSH1 0x4 MSTORE PUSH1 0x24 PUSH1 0x0 REVERT INVALID LOG2 PUSH5 0x6970667358 0x22 SLT KECCAK256 MULMOD 0xCA 0x4E 0xDB 0xDF 0xC4 0xB8 SWAP9 SWAP2 0xF6 0xCC CALL SWAP3 0xB6 0xBB GT 0x2E 0xD5 0x2F DELEGATECALL EXTCODEHASH LOG4 0x29 AND DUP4 LOG0 0xC9 0x2E CHAINID PUSH25 0x970764736F6C634300081C00336101403461025757601F6109 MSTORE CODESIZE DUP2 SWAP1 SUB SWAP2 DUP3 ADD PUSH1 0x1F NOT AND DUP4 ADD SWAP2 PUSH1 0x1 PUSH1 0x1 PUSH1 0x40 SHL SUB DUP4 GT DUP5 DUP5 LT OR PUSH2 0x25C JUMPI DUP1 DUP5 SWAP3 PUSH1 0xC0 SWAP5 PUSH1 0x40 MSTORE DUP4 CODECOPY DUP2 ADD SUB SLT PUSH2 0x257 JUMPI PUSH2 0x48 DUP2 PUSH2 0x272 JUMP JUMPDEST SWAP1 PUSH2 0x55 PUSH1 0x20 DUP3 ADD PUSH2 0x272 JUMP JUMPDEST PUSH2 0x61 PUSH1 0x40 DUP4 ADD PUSH2 0x286 JUMP JUMPDEST PUSH2 0x6D PUSH1 0x60 DUP5 ADD PUSH2 0x286 JUMP JUMPDEST SWAP2 PUSH1 0xA0 PUSH2 0x7C PUSH1 0x80 DUP7 ADD PUSH2 0x286 JUMP JUMPDEST SWAP5 ADD MLOAD SWAP5 PUSH1 0x1 PUSH1 0x1 PUSH1 0xA0 SHL SUB AND DUP1 ISZERO PUSH2 0x228 JUMPI PUSH1 0x1 PUSH1 0x1 PUSH1 0xA0 SHL SUB DUP3 AND ISZERO PUSH2 0x1F3 JUMPI PUSH1 0x1 PUSH1 0x1 PUSH1 0x40 SHL SUB DUP6 AND DUP1 ISZERO PUSH2 0x1C1 JUMPI PUSH1 0x1 PUSH1 0x1 PUSH1 0x40 SHL SUB DUP6 AND GT PUSH2 0x189 JUMPI DUP6 ISZERO PUSH2 0x155 JUMPI PUSH1 0x80 MSTORE PUSH1 0xA0 MSTORE PUSH1 0xC0 MSTORE PUSH1 0xE0 MSTORE PUSH2 0x100 MSTORE PUSH2 0x120 MSTORE PUSH1 0x40 MLOAD PUSH2 0x6B7 SWAP1 DUP2 PUSH2 0x29B DUP3 CODECOPY PUSH1 0x80 MLOAD DUP2 DUP2 DUP2 PUSH1 0xA0 ADD MSTORE PUSH2 0x229 ADD MSTORE PUSH1 0xA0 MLOAD DUP2 DUP2 DUP2 PUSH2 0x1B0 ADD MSTORE PUSH2 0x457 ADD MSTORE PUSH1 0xC0 MLOAD DUP2 DUP2 DUP2 PUSH2 0x117 ADD MSTORE PUSH2 0x4F7 ADD MSTORE PUSH1 0xE0 MLOAD DUP2 DUP2 DUP2 PUSH2 0x3E2 ADD MSTORE PUSH2 0x518 ADD MSTORE PUSH2 0x100 MLOAD DUP2 DUP2 DUP2 PUSH2 0x15B ADD MSTORE PUSH2 0x569 ADD MSTORE PUSH2 0x120 MLOAD DUP2 DUP2 DUP2 PUSH2 0x41E ADD MSTORE DUP2 DUP2 PUSH2 0x5C5 ADD MSTORE DUP2 DUP2 PUSH2 0x5FD ADD MSTORE PUSH2 0x625 ADD MSTORE RETURN JUMPDEST PUSH1 0x40 MLOAD PUSH3 0x461BCD PUSH1 0xE5 SHL DUP2 MSTORE PUSH1 0x20 PUSH1 0x4 DUP3 ADD MSTORE PUSH1 0xC PUSH1 0x24 DUP3 ADD MSTORE PUSH12 0x616C6C6F636174696F6E3D3 PUSH1 0xA4 SHL PUSH1 0x44 DUP3 ADD MSTORE PUSH1 0x64 SWAP1 REVERT JUMPDEST PUSH1 0x40 MLOAD PUSH3 0x461BCD PUSH1 0xE5 SHL DUP2 MSTORE PUSH1 0x20 PUSH1 0x4 DUP3 ADD MSTORE PUSH1 0x10 PUSH1 0x24 DUP3 ADD MSTORE PUSH16 0x323AB930BA34B7B7101E1031B634B333 PUSH1 0x81 SHL PUSH1 0x44 DUP3 ADD MSTORE PUSH1 0x64 SWAP1 REVERT JUMPDEST PUSH1 0x40 MLOAD PUSH3 0x461BCD PUSH1 0xE5 SHL DUP2 MSTORE PUSH1 0x20 PUSH1 0x4 DUP3 ADD MSTORE PUSH1 0xA PUSH1 0x24 DUP3 ADD MSTORE PUSH10 0x6475726174696F6E3D3 PUSH1 0xB4 SHL PUSH1 0x44 DUP3 ADD MSTORE PUSH1 0x64 SWAP1 REVERT JUMPDEST PUSH1 0x40 MLOAD PUSH3 0x461BCD PUSH1 0xE5 SHL DUP2 MSTORE PUSH1 0x20 PUSH1 0x4 DUP3 ADD MSTORE PUSH1 0xD PUSH1 0x24 DUP3 ADD MSTORE PUSH13 0x62656E65666963696172793D3 PUSH1 0x9C SHL PUSH1 0x44 DUP3 ADD MSTORE PUSH1 0x64 SWAP1 REVERT JUMPDEST PUSH1 0x40 MLOAD PUSH3 0x461BCD PUSH1 0xE5 SHL DUP2 MSTORE PUSH1 0x20 PUSH1 0x4 DUP3 ADD MSTORE PUSH1 0x7 PUSH1 0x24 DUP3 ADD MSTORE PUSH7 0x746F6B656E3D3 PUSH1 0xCC SHL PUSH1 0x44 DUP3 ADD MSTORE PUSH1 0x64 SWAP1 REVERT JUMPDEST PUSH1 0x0 DUP1 REVERT JUMPDEST PUSH4 0x4E487B71 PUSH1 0xE0 SHL PUSH1 0x0 MSTORE PUSH1 0x41 PUSH1 0x4 MSTORE PUSH1 0x24 PUSH1 0x0 REVERT JUMPDEST MLOAD SWAP1 PUSH1 0x1 PUSH1 0x1 PUSH1 0xA0 SHL SUB DUP3 AND DUP3 SUB PUSH2 0x257 JUMPI JUMP JUMPDEST MLOAD SWAP1 PUSH1 0x1 PUSH1 0x1 PUSH1 0x40 SHL SUB DUP3 AND DUP3 SUB PUSH2 0x257 JUMPI JUMP INVALID PUSH1 0x80 PUSH1 0x40 MSTORE PUSH1 0x4 CALLDATASIZE LT ISZERO PUSH2 0x12 JUMPI PUSH1 0x0 DUP1 REVERT JUMPDEST PUSH1 0x0 CALLDATALOAD PUSH1 0xE0 SHR DUP1 PUSH4 0xA17B06B EQ PUSH2 0x486 JUMPI DUP1 PUSH4 0x38AF3EED EQ PUSH2 0x441 JUMPI DUP1 PUSH4 0x79203DC4 EQ PUSH2 0x406 JUMPI DUP1 PUSH4 0x8341EE72 EQ PUSH2 0x3C2 JUMPI DUP1 PUSH4 0x86D1A69F EQ PUSH2 0x19D JUMPI DUP1 PUSH4 0x96132521 EQ PUSH2 0x17F JUMPI DUP1 PUSH4 0x9ACBA2AF EQ PUSH2 0x13B JUMPI DUP1 PUSH4 0xBE9A6555 EQ PUSH2 0xF7 JUMPI DUP1 PUSH4 0xFBCCEDAE EQ PUSH2 0xD4 JUMPI PUSH4 0xFC0C546A EQ PUSH2 0x8A JUMPI PUSH1 0x0 DUP1 REVERT JUMPDEST CALLVALUE PUSH2 0xCF JUMPI PUSH1 0x0 CALLDATASIZE PUSH1 0x3 NOT ADD SLT PUSH2 0xCF JUMPI PUSH1 0x40 MLOAD PUSH32 0x0 PUSH1 0x1 PUSH1 0x1 PUSH1 0xA0 SHL SUB AND DUP2 MSTORE PUSH1 0x20 SWAP1 RETURN JUMPDEST PUSH1 0x0 DUP1 REVERT JUMPDEST CALLVALUE PUSH2 0xCF JUMPI PUSH1 0x0 CALLDATASIZE PUSH1 0x3 NOT ADD SLT PUSH2 0xCF JUMPI PUSH1 0x20 PUSH2 0xEF PUSH2 0x651 JUMP JUMPDEST PUSH1 0x40 MLOAD SWAP1 DUP2 MSTORE RETURN JUMPDEST CALLVALUE PUSH2 0xCF JUMPI PUSH1 0x0 CALLDATASIZE PUSH1 0x3 NOT ADD SLT PUSH2 0xCF JUMPI PUSH1 0x20 PUSH1 0x40 MLOAD PUSH1 0x1 PUSH1 0x1 PUSH1 0x40 SHL SUB PUSH32 0x0 AND DUP2 MSTORE RETURN JUMPDEST CALLVALUE PUSH2 0xCF JUMPI PUSH1 0x0 CALLDATASIZE PUSH1 0x3 NOT ADD SLT PUSH2 0xCF JUMPI PUSH1 0x20 PUSH1 0x40 MLOAD PUSH1 0x1 PUSH1 0x1 PUSH1 0x40 SHL SUB PUSH32 0x0 AND DUP2 MSTORE RETURN JUMPDEST CALLVALUE PUSH2 0xCF JUMPI PUSH1 0x0 CALLDATASIZE PUSH1 0x3 NOT ADD SLT PUSH2 0xCF JUMPI PUSH1 0x20 PUSH1 0x0 SLOAD PUSH1 0x40 MLOAD SWAP1 DUP2 MSTORE RETURN JUMPDEST CALLVALUE PUSH2 0xCF JUMPI PUSH1 0x0 CALLDATASIZE PUSH1 0x3 NOT ADD SLT PUSH2 0xCF JUMPI PUSH32 0x0 PUSH1 0x1 PUSH1 0x1 PUSH1 0xA0 SHL SUB AND CALLER DUP2 SWAP1 SUB PUSH2 0x38B JUMPI PUSH2 0x1E8 PUSH2 0x651 JUMP JUMPDEST SWAP1 DUP2 ISZERO PUSH2 0x351 JUMPI PUSH1 0x0 SLOAD DUP3 DUP2 ADD DUP1 SWAP2 GT PUSH2 0x33B JUMPI PUSH1 0x0 SSTORE PUSH1 0x40 MLOAD SWAP1 PUSH4 0xA9059CBB PUSH1 0xE0 SHL DUP3 MSTORE PUSH1 0x4 DUP3 ADD MSTORE DUP2 PUSH1 0x24 DUP3 ADD MSTORE PUSH1 0x20 DUP2 PUSH1 0x44 DUP2 PUSH1 0x0 PUSH1 0x1 DUP1 PUSH1 0xA0 SHL SUB PUSH32 0x0 AND GAS CALL SWAP1 DUP2 ISZERO PUSH2 0x32F JUMPI PUSH1 0x0 SWAP2 PUSH2 0x2C4 JUMPI JUMPDEST POP ISZERO PUSH2 0x28D JUMPI PUSH1 0x20 PUSH32 0xFB81F9B30D73D830C3544B34D827C08142579EE75710B490BAB0B3995468C565 SWAP2 PUSH1 0x40 MLOAD SWAP1 DUP2 MSTORE LOG1 STOP JUMPDEST PUSH1 0x40 MLOAD PUSH3 0x461BCD PUSH1 0xE5 SHL DUP2 MSTORE PUSH1 0x20 PUSH1 0x4 DUP3 ADD MSTORE PUSH1 0xF PUSH1 0x24 DUP3 ADD MSTORE PUSH15 0x1D1C985B9CD9995C8819985A5B1959 PUSH1 0x8A SHL PUSH1 0x44 DUP3 ADD MSTORE PUSH1 0x64 SWAP1 REVERT JUMPDEST PUSH1 0x20 RETURNDATASIZE PUSH1 0x20 GT PUSH2 0x328 JUMPI JUMPDEST PUSH1 0x1F DUP2 ADD PUSH1 0x1F NOT AND DUP3 ADD PUSH1 0x1 PUSH1 0x1 PUSH1 0x40 SHL SUB DUP2 GT DUP4 DUP3 LT OR PUSH2 0x314 JUMPI PUSH1 0x20 SWAP2 DUP4 SWAP2 PUSH1 0x40 MSTORE DUP2 ADD SUB SLT PUSH2 0x310 JUMPI MLOAD SWAP1 DUP2 ISZERO ISZERO DUP3 SUB PUSH2 0x30D JUMPI POP DUP3 PUSH2 0x25A JUMP JUMPDEST DUP1 REVERT JUMPDEST POP DUP1 REVERT JUMPDEST PUSH4 0x4E487B71 PUSH1 0xE0 SHL DUP5 MSTORE PUSH1 0x41 PUSH1 0x4 MSTORE PUSH1 0x24 DUP5 REVERT JUMPDEST POP RETURNDATASIZE PUSH2 0x2CF JUMP JUMPDEST PUSH1 0x40 MLOAD RETURNDATASIZE PUSH1 0x0 DUP3 RETURNDATACOPY RETURNDATASIZE SWAP1 REVERT JUMPDEST PUSH4 0x4E487B71 PUSH1 0xE0 SHL PUSH1 0x0 MSTORE PUSH1 0x11 PUSH1 0x4 MSTORE PUSH1 0x24 PUSH1 0x0 REVERT JUMPDEST PUSH1 0x40 MLOAD PUSH3 0x461BCD PUSH1 0xE5 SHL DUP2 MSTORE PUSH1 0x20 PUSH1 0x4 DUP3 ADD MSTORE PUSH1 0x12 PUSH1 0x24 DUP3 ADD MSTORE PUSH18 0x6E6F7468696E6720746F2072656C65617365 PUSH1 0x70 SHL PUSH1 0x44 DUP3 ADD MSTORE PUSH1 0x64 SWAP1 REVERT JUMPDEST PUSH1 0x40 MLOAD PUSH3 0x461BCD PUSH1 0xE5 SHL DUP2 MSTORE PUSH1 0x20 PUSH1 0x4 DUP3 ADD MSTORE PUSH1 0xF PUSH1 0x24 DUP3 ADD MSTORE PUSH15 0x6E6F742062656E6566696369617279 PUSH1 0x88 SHL PUSH1 0x44 DUP3 ADD MSTORE PUSH1 0x64 SWAP1 REVERT JUMPDEST CALLVALUE PUSH2 0xCF JUMPI PUSH1 0x0 CALLDATASIZE PUSH1 0x3 NOT ADD SLT PUSH2 0xCF JUMPI PUSH1 0x20 PUSH1 0x40 MLOAD PUSH1 0x1 PUSH1 0x1 PUSH1 0x40 SHL SUB PUSH32 0x0 AND DUP2 MSTORE RETURN JUMPDEST CALLVALUE PUSH2 0xCF JUMPI PUSH1 0x0 CALLDATASIZE PUSH1 0x3 NOT ADD SLT PUSH2 0xCF JUMPI PUSH1 0x20 PUSH1 0x40 MLOAD PUSH32 0x0 DUP2 MSTORE RETURN JUMPDEST CALLVALUE PUSH2 0xCF JUMPI PUSH1 0x0 CALLDATASIZE PUSH1 0x3 NOT ADD SLT PUSH2 0xCF JUMPI PUSH1 0x40 MLOAD PUSH32 0x0 PUSH1 0x1 PUSH1 0x1 PUSH1 0xA0 SHL SUB AND DUP2 MSTORE PUSH1 0x20 SWAP1 RETURN JUMPDEST CALLVALUE PUSH2 0xCF JUMPI PUSH1 0x20 CALLDATASIZE PUSH1 0x3 NOT ADD SLT PUSH2 0xCF JUMPI PUSH1 0x4 CALLDATALOAD PUSH1 0x1 PUSH1 0x1 PUSH1 0x40 SHL SUB DUP2 AND DUP2 SUB PUSH2 0xCF JUMPI PUSH2 0xEF PUSH1 0x20 SWAP2 PUSH2 0x4F5 JUMP JUMPDEST SWAP1 PUSH1 0x1 PUSH1 0x1 PUSH1 0x40 SHL SUB DUP1 SWAP2 AND SWAP2 AND ADD SWAP1 PUSH1 0x1 PUSH1 0x1 PUSH1 0x40 SHL SUB DUP3 GT PUSH2 0x33B JUMPI JUMP JUMPDEST SWAP1 PUSH1 0x1 PUSH1 0x1 PUSH1 0x40 SHL SUB DUP1 SWAP2 AND SWAP2 AND SUB SWAP1 PUSH1 0x1 PUSH1 0x1 PUSH1 0x40 SHL SUB DUP3 GT PUSH2 0x33B JUMPI JUMP JUMPDEST PUSH32 0x0 PUSH32 0x0 PUSH2 0x541 DUP2 DUP4 PUSH2 0x4B5 JUMP JUMPDEST SWAP2 PUSH1 0x1 PUSH1 0x1 PUSH1 0x40 SHL SUB DUP5 AND PUSH1 0x1 PUSH1 0x1 PUSH1 0x40 SHL SUB DUP5 AND DUP2 LT PUSH2 0x647 JUMPI PUSH1 0x1 PUSH1 0x1 PUSH1 0x40 SHL SUB PUSH2 0x58F PUSH32 0x0 DUP1 SWAP5 PUSH2 0x4B5 JUMP JUMPDEST AND GT ISZERO PUSH2 0x61F JUMPI PUSH1 0x1 PUSH1 0x1 PUSH1 0x40 SHL SUB SWAP2 PUSH2 0x5A8 SWAP2 PUSH2 0x4D5 JUMP JUMPDEST AND SWAP2 DUP3 ISZERO PUSH2 0x5F8 JUMPI PUSH1 0x1 PUSH1 0x1 PUSH1 0x40 SHL SUB SWAP2 PUSH2 0x5C2 SWAP2 PUSH2 0x4D5 JUMP JUMPDEST AND PUSH32 0x0 DUP2 DUP2 MUL SWAP2 DUP2 DUP4 DIV EQ SWAP1 ISZERO OR ISZERO PUSH2 0x33B JUMPI DIV SWAP1 JUMP JUMPDEST POP POP POP PUSH32 0x0 SWAP1 JUMP JUMPDEST POP POP POP POP PUSH32 0x0 SWAP1 JUMP JUMPDEST POP POP POP POP POP PUSH1 0x0 SWAP1 JUMP JUMPDEST PUSH2 0x663 PUSH1 0x1 PUSH1 0x1 PUSH1 0x40 SHL SUB TIMESTAMP AND PUSH2 0x4F5 JUMP JUMPDEST PUSH1 0x0 SLOAD DUP1 DUP3 GT ISZERO PUSH2 0x67A JUMPI DUP2 SUB SWAP1 DUP2 GT PUSH2 0x33B JUMPI SWAP1 JUMP JUMPDEST POP POP PUSH1 0x0 SWAP1 JUMP INVALID LOG2 PUSH5 0x6970667358 0x22 SLT KECCAK256 0x4E MOD LOG4 SIGNEXTEND AND 0xEC ADD 0x28 BLOBBASEFEE AND 0xC3 SUB CREATE2 ADDMOD CALLVALUE 0xBB 0xCF MLOAD PUSH2 0x5915 0xC3 0x29 0x2E 0xB6 0xB9 0xB4 PUSH14 0xF7E45D9164736F6C634300081C00 CALLER PUSH8 0x226BACCCEF969DAB BALANCE EXP SWAP15 SSTORE 0xDC SHR 0xF8 0x21 CALLDATASIZE CALLDATASIZE PC 0xE4 CALLER REVERT CALLER SUB PREVRANDAO CREATE2 0xCC STOP 0xC7 SWAP11 0xC8 LOG2 PUSH5 0x6970667358 0x22 SLT KECCAK256 AND RETURNDATACOPY PUSH31 0x4EC4BFAC31EFDBC904BC03419B09E69DB9F344ED2FFFB5F0E61F21D2566473 PUSH16 0x6C634300081C00330000000000000000 "},"methodIdentifiers":{"basicFeeWei()":"308cc33d","createToken((string,string,uint256,uint8))":"4f3cff1e","createTokenWithDistribution((string,string,uint256,uint8),address[],uint256[])":"0dbd2ce3","createTokenWithDistributionAndVesting((string,string,uint256,uint8),address[],uint256[],(address,uint64,uint64,uint64,uint256)[])":"791a178d","distributionFeeWei()":"79046732","owner()":"8da5cb5b","setFeesWei(uint256,uint256,uint256)":"3db315ba","transferOwnership(address)":"f2fde38b","vestingFeeWei()":"c48b374d","withdrawFees(address,uint256)":"ad3b1b47"}}}}}