{"contracts/launch/LinearVestingVault.sol":{"LinearVestingVault":{"abi":[{"inputs":[{"internalType":"address","name":"token_","type":"address"},{"internalType":"address","name":"beneficiary_","type":"address"},{"internalType":"uint64","name":"start_","type":"uint64"},{"internalType":"uint64","name":"cliffSeconds_","type":"uint64"},{"internalType":"uint64","name":"durationSeconds_","type":"uint64"},{"internalType":"uint256","name":"totalAllocation_","type":"uint256"}],"stateMutability":"nonpayable","type":"constructor"},{"anonymous":false,"inputs":[{"indexed":false,"internalType":"uint256","name":"amount","type":"uint256"}],"name":"Released","type":"event"},{"inputs":[],"name":"beneficiary","outputs":[{"internalType":"address","name":"","type":"address"}],"stateMutability":"view","type":"function"},{"inputs":[],"name":"cliffSeconds","outputs":[{"internalType":"uint64","name":"","type":"uint64"}],"stateMutability":"view","type":"function"},{"inputs":[],"name":"durationSeconds","outputs":[{"internalType":"uint64","name":"","type":"uint64"}],"stateMutability":"view","type":"function"},{"inputs":[],"name":"releasable","outputs":[{"internalType":"uint256","name":"","type":"uint256"}],"stateMutability":"view","type":"function"},{"inputs":[],"name":"release","outputs":[],"stateMutability":"nonpayable","type":"function"},{"inputs":[],"name":"released","outputs":[{"internalType":"uint256","name":"","type":"uint256"}],"stateMutability":"view","type":"function"},{"inputs":[],"name":"start","outputs":[{"internalType":"uint64","name":"","type":"uint64"}],"stateMutability":"view","type":"function"},{"inputs":[],"name":"token","outputs":[{"internalType":"contract IERC20","name":"","type":"address"}],"stateMutability":"view","type":"function"},{"inputs":[],"name":"totalAllocation","outputs":[{"internalType":"uint256","name":"","type":"uint256"}],"stateMutability":"view","type":"function"},{"inputs":[{"internalType":"uint64","name":"timestamp","type":"uint64"}],"name":"vestedAmount","outputs":[{"internalType":"uint256","name":"","type":"uint256"}],"stateMutability":"view","type":"function"}],"evm":{"bytecode":{"linkReferences":{},"object":"6101403461025757601f61095238819003918201601f19168301916001600160401b0383118484101761025c5780849260c0946040528339810103126102575761004881610272565b9061005560208201610272565b61006160408301610286565b61006d60608401610286565b9160a061007c60808601610286565b940151946001600160a01b03168015610228576001600160a01b038216156101f3576001600160401b03851680156101c1576001600160401b038516116101895785156101555760805260a05260c05260e05261010052610120526040516106b7908161029b823960805181818160a00152610229015260a0518181816101b00152610457015260c05181818161011701526104f7015260e0518181816103e2015261051801526101005181818161015b015261056901526101205181818161041e015281816105c5015281816105fd01526106250152f35b60405162461bcd60e51b815260206004820152600c60248201526b0616c6c6f636174696f6e3d360a41b6044820152606490fd5b60405162461bcd60e51b815260206004820152601060248201526f323ab930ba34b7b7101e1031b634b33360811b6044820152606490fd5b60405162461bcd60e51b815260206004820152600a60248201526906475726174696f6e3d360b41b6044820152606490fd5b60405162461bcd60e51b815260206004820152600d60248201526c062656e65666963696172793d3609c1b6044820152606490fd5b60405162461bcd60e51b81526020600482015260076024820152660746f6b656e3d360cc1b6044820152606490fd5b600080fd5b634e487b7160e01b600052604160045260246000fd5b51906001600160a01b038216820361025757565b51906001600160401b03821682036102575756fe6080604052600436101561001257600080fd5b60003560e01c80630a17b06b1461048657806338af3eed1461044157806379203dc4146104065780638341ee72146103c257806386d1a69f1461019d578063961325211461017f5780639acba2af1461013b578063be9a6555146100f7578063fbccedae146100d45763fc0c546a1461008a57600080fd5b346100cf5760003660031901126100cf576040517f00000000000000000000000000000000000000000000000000000000000000006001600160a01b03168152602090f35b600080fd5b346100cf5760003660031901126100cf5760206100ef610651565b604051908152f35b346100cf5760003660031901126100cf5760206040516001600160401b037f0000000000000000000000000000000000000000000000000000000000000000168152f35b346100cf5760003660031901126100cf5760206040516001600160401b037f0000000000000000000000000000000000000000000000000000000000000000168152f35b346100cf5760003660031901126100cf576020600054604051908152f35b346100cf5760003660031901126100cf577f00000000000000000000000000000000000000000000000000000000000000006001600160a01b03163381900361038b576101e8610651565b9081156103515760005482810180911161033b576000556040519063a9059cbb60e01b82526004820152816024820152602081604481600060018060a01b037f0000000000000000000000000000000000000000000000000000000000000000165af190811561032f576000916102c4575b501561028d5760207ffb81f9b30d73d830c3544b34d827c08142579ee75710b490bab0b3995468c56591604051908152a1005b60405162461bcd60e51b815260206004820152600f60248201526e1d1c985b9cd9995c8819985a5b1959608a1b6044820152606490fd5b60203d602011610328575b601f8101601f191682016001600160401b0381118382101761031457602091839160405281010312610310575190811515820361030d57508261025a565b80fd5b5080fd5b634e487b7160e01b84526041600452602484fd5b503d6102cf565b6040513d6000823e3d90fd5b634e487b7160e01b600052601160045260246000fd5b60405162461bcd60e51b81526020600482015260126024820152716e6f7468696e6720746f2072656c6561736560701b6044820152606490fd5b60405162461bcd60e51b815260206004820152600f60248201526e6e6f742062656e656669636961727960881b6044820152606490fd5b346100cf5760003660031901126100cf5760206040516001600160401b037f0000000000000000000000000000000000000000000000000000000000000000168152f35b346100cf5760003660031901126100cf5760206040517f00000000000000000000000000000000000000000000000000000000000000008152f35b346100cf5760003660031901126100cf576040517f00000000000000000000000000000000000000000000000000000000000000006001600160a01b03168152602090f35b346100cf5760203660031901126100cf576004356001600160401b03811681036100cf576100ef6020916104f5565b906001600160401b03809116911601906001600160401b03821161033b57565b906001600160401b03809116911603906001600160401b03821161033b57565b7f00000000000000000000000000000000000000000000000000000000000000007f000000000000000000000000000000000000000000000000000000000000000061054181836104b5565b916001600160401b0384166001600160401b0384168110610647576001600160401b0361058f7f000000000000000000000000000000000000000000000000000000000000000080946104b5565b16111561061f576001600160401b03916105a8916104d5565b169182156105f8576001600160401b03916105c2916104d5565b167f000000000000000000000000000000000000000000000000000000000000000081810291818304149015171561033b570490565b5050507f000000000000000000000000000000000000000000000000000000000000000090565b505050507f000000000000000000000000000000000000000000000000000000000000000090565b5050505050600090565b6106636001600160401b0342166104f5565b6000548082111561067a57810390811161033b5790565b505060009056fea26469706673582212204e06a40b16ec01284a16c303f50834bbcf51615915c3292eb6b9b46df7e45d9164736f6c634300081c0033","opcodes":"PUSH2 0x140 CALLVALUE PUSH2 0x257 JUMPI PUSH1 0x1F PUSH2 0x952 CODESIZE DUP2 SWAP1 SUB SWAP2 DUP3 ADD PUSH1 0x1F NOT AND DUP4 ADD SWAP2 PUSH1 0x1 PUSH1 0x1 PUSH1 0x40 SHL SUB DUP4 GT DUP5 DUP5 LT OR PUSH2 0x25C JUMPI DUP1 DUP5 SWAP3 PUSH1 0xC0 SWAP5 PUSH1 0x40 MSTORE DUP4 CODECOPY DUP2 ADD SUB SLT PUSH2 0x257 JUMPI PUSH2 0x48 DUP2 PUSH2 0x272 JUMP JUMPDEST SWAP1 PUSH2 0x55 PUSH1 0x20 DUP3 ADD PUSH2 0x272 JUMP JUMPDEST PUSH2 0x61 PUSH1 0x40 DUP4 ADD PUSH2 0x286 JUMP JUMPDEST PUSH2 0x6D PUSH1 0x60 DUP5 ADD PUSH2 0x286 JUMP JUMPDEST SWAP2 PUSH1 0xA0 PUSH2 0x7C PUSH1 0x80 DUP7 ADD PUSH2 0x286 JUMP JUMPDEST SWAP5 ADD MLOAD SWAP5 PUSH1 0x1 PUSH1 0x1 PUSH1 0xA0 SHL SUB AND DUP1 ISZERO PUSH2 0x228 JUMPI PUSH1 0x1 PUSH1 0x1 PUSH1 0xA0 SHL SUB DUP3 AND ISZERO PUSH2 0x1F3 JUMPI PUSH1 0x1 PUSH1 0x1 PUSH1 0x40 SHL SUB DUP6 AND DUP1 ISZERO PUSH2 0x1C1 JUMPI PUSH1 0x1 PUSH1 0x1 PUSH1 0x40 SHL SUB DUP6 AND GT PUSH2 0x189 JUMPI DUP6 ISZERO PUSH2 0x155 JUMPI PUSH1 0x80 MSTORE PUSH1 0xA0 MSTORE PUSH1 0xC0 MSTORE PUSH1 0xE0 MSTORE PUSH2 0x100 MSTORE PUSH2 0x120 MSTORE PUSH1 0x40 MLOAD PUSH2 0x6B7 SWAP1 DUP2 PUSH2 0x29B DUP3 CODECOPY PUSH1 0x80 MLOAD DUP2 DUP2 DUP2 PUSH1 0xA0 ADD MSTORE PUSH2 0x229 ADD MSTORE PUSH1 0xA0 MLOAD DUP2 DUP2 DUP2 PUSH2 0x1B0 ADD MSTORE PUSH2 0x457 ADD MSTORE PUSH1 0xC0 MLOAD DUP2 DUP2 DUP2 PUSH2 0x117 ADD MSTORE PUSH2 0x4F7 ADD MSTORE PUSH1 0xE0 MLOAD DUP2 DUP2 DUP2 PUSH2 0x3E2 ADD MSTORE PUSH2 0x518 ADD MSTORE PUSH2 0x100 MLOAD DUP2 DUP2 DUP2 PUSH2 0x15B ADD MSTORE PUSH2 0x569 ADD MSTORE PUSH2 0x120 MLOAD DUP2 DUP2 DUP2 PUSH2 0x41E ADD MSTORE DUP2 DUP2 PUSH2 0x5C5 ADD MSTORE DUP2 DUP2 PUSH2 0x5FD ADD MSTORE PUSH2 0x625 ADD MSTORE RETURN JUMPDEST PUSH1 0x40 MLOAD PUSH3 0x461BCD PUSH1 0xE5 SHL DUP2 MSTORE PUSH1 0x20 PUSH1 0x4 DUP3 ADD MSTORE PUSH1 0xC PUSH1 0x24 DUP3 ADD MSTORE PUSH12 0x616C6C6F636174696F6E3D3 PUSH1 0xA4 SHL PUSH1 0x44 DUP3 ADD MSTORE PUSH1 0x64 SWAP1 REVERT JUMPDEST PUSH1 0x40 MLOAD PUSH3 0x461BCD PUSH1 0xE5 SHL DUP2 MSTORE PUSH1 0x20 PUSH1 0x4 DUP3 ADD MSTORE PUSH1 0x10 PUSH1 0x24 DUP3 ADD MSTORE PUSH16 0x323AB930BA34B7B7101E1031B634B333 PUSH1 0x81 SHL PUSH1 0x44 DUP3 ADD MSTORE PUSH1 0x64 SWAP1 REVERT JUMPDEST PUSH1 0x40 MLOAD PUSH3 0x461BCD PUSH1 0xE5 SHL DUP2 MSTORE PUSH1 0x20 PUSH1 0x4 DUP3 ADD MSTORE PUSH1 0xA PUSH1 0x24 DUP3 ADD MSTORE PUSH10 0x6475726174696F6E3D3 PUSH1 0xB4 SHL PUSH1 0x44 DUP3 ADD MSTORE PUSH1 0x64 SWAP1 REVERT JUMPDEST PUSH1 0x40 MLOAD PUSH3 0x461BCD PUSH1 0xE5 SHL DUP2 MSTORE PUSH1 0x20 PUSH1 0x4 DUP3 ADD MSTORE PUSH1 0xD PUSH1 0x24 DUP3 ADD MSTORE PUSH13 0x62656E65666963696172793D3 PUSH1 0x9C SHL PUSH1 0x44 DUP3 ADD MSTORE PUSH1 0x64 SWAP1 REVERT JUMPDEST PUSH1 0x40 MLOAD PUSH3 0x461BCD PUSH1 0xE5 SHL DUP2 MSTORE PUSH1 0x20 PUSH1 0x4 DUP3 ADD MSTORE PUSH1 0x7 PUSH1 0x24 DUP3 ADD MSTORE PUSH7 0x746F6B656E3D3 PUSH1 0xCC SHL PUSH1 0x44 DUP3 ADD MSTORE PUSH1 0x64 SWAP1 REVERT JUMPDEST PUSH1 0x0 DUP1 REVERT JUMPDEST PUSH4 0x4E487B71 PUSH1 0xE0 SHL PUSH1 0x0 MSTORE PUSH1 0x41 PUSH1 0x4 MSTORE PUSH1 0x24 PUSH1 0x0 REVERT JUMPDEST MLOAD SWAP1 PUSH1 0x1 PUSH1 0x1 PUSH1 0xA0 SHL SUB DUP3 AND DUP3 SUB PUSH2 0x257 JUMPI JUMP JUMPDEST MLOAD SWAP1 PUSH1 0x1 PUSH1 0x1 PUSH1 0x40 SHL SUB DUP3 AND DUP3 SUB PUSH2 0x257 JUMPI JUMP INVALID PUSH1 0x80 PUSH1 0x40 MSTORE PUSH1 0x4 CALLDATASIZE LT ISZERO PUSH2 0x12 JUMPI PUSH1 0x0 DUP1 REVERT JUMPDEST PUSH1 0x0 CALLDATALOAD PUSH1 0xE0 SHR DUP1 PUSH4 0xA17B06B EQ PUSH2 0x486 JUMPI DUP1 PUSH4 0x38AF3EED EQ PUSH2 0x441 JUMPI DUP1 PUSH4 0x79203DC4 EQ PUSH2 0x406 JUMPI DUP1 PUSH4 0x8341EE72 EQ PUSH2 0x3C2 JUMPI DUP1 PUSH4 0x86D1A69F EQ PUSH2 0x19D JUMPI DUP1 PUSH4 0x96132521 EQ PUSH2 0x17F JUMPI DUP1 PUSH4 0x9ACBA2AF EQ PUSH2 0x13B JUMPI DUP1 PUSH4 0xBE9A6555 EQ PUSH2 0xF7 JUMPI DUP1 PUSH4 0xFBCCEDAE EQ PUSH2 0xD4 JUMPI PUSH4 0xFC0C546A EQ PUSH2 0x8A JUMPI PUSH1 0x0 DUP1 REVERT JUMPDEST CALLVALUE PUSH2 0xCF JUMPI PUSH1 0x0 CALLDATASIZE PUSH1 0x3 NOT ADD SLT PUSH2 0xCF JUMPI PUSH1 0x40 MLOAD PUSH32 0x0 PUSH1 0x1 PUSH1 0x1 PUSH1 0xA0 SHL SUB AND DUP2 MSTORE PUSH1 0x20 SWAP1 RETURN JUMPDEST PUSH1 0x0 DUP1 REVERT JUMPDEST CALLVALUE PUSH2 0xCF JUMPI PUSH1 0x0 CALLDATASIZE PUSH1 0x3 NOT ADD SLT PUSH2 0xCF JUMPI PUSH1 0x20 PUSH2 0xEF PUSH2 0x651 JUMP JUMPDEST PUSH1 0x40 MLOAD SWAP1 DUP2 MSTORE RETURN JUMPDEST CALLVALUE PUSH2 0xCF JUMPI PUSH1 0x0 CALLDATASIZE PUSH1 0x3 NOT ADD SLT PUSH2 0xCF JUMPI PUSH1 0x20 PUSH1 0x40 MLOAD PUSH1 0x1 PUSH1 0x1 PUSH1 0x40 SHL SUB PUSH32 0x0 AND DUP2 MSTORE RETURN JUMPDEST CALLVALUE PUSH2 0xCF JUMPI PUSH1 0x0 CALLDATASIZE PUSH1 0x3 NOT ADD SLT PUSH2 0xCF JUMPI PUSH1 0x20 PUSH1 0x40 MLOAD PUSH1 0x1 PUSH1 0x1 PUSH1 0x40 SHL SUB PUSH32 0x0 AND DUP2 MSTORE RETURN JUMPDEST CALLVALUE PUSH2 0xCF JUMPI PUSH1 0x0 CALLDATASIZE PUSH1 0x3 NOT ADD SLT PUSH2 0xCF JUMPI PUSH1 0x20 PUSH1 0x0 SLOAD PUSH1 0x40 MLOAD SWAP1 DUP2 MSTORE RETURN JUMPDEST CALLVALUE PUSH2 0xCF JUMPI PUSH1 0x0 CALLDATASIZE PUSH1 0x3 NOT ADD SLT PUSH2 0xCF JUMPI PUSH32 0x0 PUSH1 0x1 PUSH1 0x1 PUSH1 0xA0 SHL SUB AND CALLER DUP2 SWAP1 SUB PUSH2 0x38B JUMPI PUSH2 0x1E8 PUSH2 0x651 JUMP JUMPDEST SWAP1 DUP2 ISZERO PUSH2 0x351 JUMPI PUSH1 0x0 SLOAD DUP3 DUP2 ADD DUP1 SWAP2 GT PUSH2 0x33B JUMPI PUSH1 0x0 SSTORE PUSH1 0x40 MLOAD SWAP1 PUSH4 0xA9059CBB PUSH1 0xE0 SHL DUP3 MSTORE PUSH1 0x4 DUP3 ADD MSTORE DUP2 PUSH1 0x24 DUP3 ADD MSTORE PUSH1 0x20 DUP2 PUSH1 0x44 DUP2 PUSH1 0x0 PUSH1 0x1 DUP1 PUSH1 0xA0 SHL SUB PUSH32 0x0 AND GAS CALL SWAP1 DUP2 ISZERO PUSH2 0x32F JUMPI PUSH1 0x0 SWAP2 PUSH2 0x2C4 JUMPI JUMPDEST POP ISZERO PUSH2 0x28D JUMPI PUSH1 0x20 PUSH32 0xFB81F9B30D73D830C3544B34D827C08142579EE75710B490BAB0B3995468C565 SWAP2 PUSH1 0x40 MLOAD SWAP1 DUP2 MSTORE LOG1 STOP JUMPDEST PUSH1 0x40 MLOAD PUSH3 0x461BCD PUSH1 0xE5 SHL DUP2 MSTORE PUSH1 0x20 PUSH1 0x4 DUP3 ADD MSTORE PUSH1 0xF PUSH1 0x24 DUP3 ADD MSTORE PUSH15 0x1D1C985B9CD9995C8819985A5B1959 PUSH1 0x8A SHL PUSH1 0x44 DUP3 ADD MSTORE PUSH1 0x64 SWAP1 REVERT JUMPDEST PUSH1 0x20 RETURNDATASIZE PUSH1 0x20 GT PUSH2 0x328 JUMPI JUMPDEST PUSH1 0x1F DUP2 ADD PUSH1 0x1F NOT AND DUP3 ADD PUSH1 0x1 PUSH1 0x1 PUSH1 0x40 SHL SUB DUP2 GT DUP4 DUP3 LT OR PUSH2 0x314 JUMPI PUSH1 0x20 SWAP2 DUP4 SWAP2 PUSH1 0x40 MSTORE DUP2 ADD SUB SLT PUSH2 0x310 JUMPI MLOAD SWAP1 DUP2 ISZERO ISZERO DUP3 SUB PUSH2 0x30D JUMPI POP DUP3 PUSH2 0x25A JUMP JUMPDEST DUP1 REVERT JUMPDEST POP DUP1 REVERT JUMPDEST PUSH4 0x4E487B71 PUSH1 0xE0 SHL DUP5 MSTORE PUSH1 0x41 PUSH1 0x4 MSTORE PUSH1 0x24 DUP5 REVERT JUMPDEST POP RETURNDATASIZE PUSH2 0x2CF JUMP JUMPDEST PUSH1 0x40 MLOAD RETURNDATASIZE PUSH1 0x0 DUP3 RETURNDATACOPY RETURNDATASIZE SWAP1 REVERT JUMPDEST PUSH4 0x4E487B71 PUSH1 0xE0 SHL PUSH1 0x0 MSTORE PUSH1 0x11 PUSH1 0x4 MSTORE PUSH1 0x24 PUSH1 0x0 REVERT JUMPDEST PUSH1 0x40 MLOAD PUSH3 0x461BCD PUSH1 0xE5 SHL DUP2 MSTORE PUSH1 0x20 PUSH1 0x4 DUP3 ADD MSTORE PUSH1 0x12 PUSH1 0x24 DUP3 ADD MSTORE PUSH18 0x6E6F7468696E6720746F2072656C65617365 PUSH1 0x70 SHL PUSH1 0x44 DUP3 ADD MSTORE PUSH1 0x64 SWAP1 REVERT JUMPDEST PUSH1 0x40 MLOAD PUSH3 0x461BCD PUSH1 0xE5 SHL DUP2 MSTORE PUSH1 0x20 PUSH1 0x4 DUP3 ADD MSTORE PUSH1 0xF PUSH1 0x24 DUP3 ADD MSTORE PUSH15 0x6E6F742062656E6566696369617279 PUSH1 0x88 SHL PUSH1 0x44 DUP3 ADD MSTORE PUSH1 0x64 SWAP1 REVERT JUMPDEST CALLVALUE PUSH2 0xCF JUMPI PUSH1 0x0 CALLDATASIZE PUSH1 0x3 NOT ADD SLT PUSH2 0xCF JUMPI PUSH1 0x20 PUSH1 0x40 MLOAD PUSH1 0x1 PUSH1 0x1 PUSH1 0x40 SHL SUB PUSH32 0x0 AND DUP2 MSTORE RETURN JUMPDEST CALLVALUE PUSH2 0xCF JUMPI PUSH1 0x0 CALLDATASIZE PUSH1 0x3 NOT ADD SLT PUSH2 0xCF JUMPI PUSH1 0x20 PUSH1 0x40 MLOAD PUSH32 0x0 DUP2 MSTORE RETURN JUMPDEST CALLVALUE PUSH2 0xCF JUMPI PUSH1 0x0 CALLDATASIZE PUSH1 0x3 NOT ADD SLT PUSH2 0xCF JUMPI PUSH1 0x40 MLOAD PUSH32 0x0 PUSH1 0x1 PUSH1 0x1 PUSH1 0xA0 SHL SUB AND DUP2 MSTORE PUSH1 0x20 SWAP1 RETURN JUMPDEST CALLVALUE PUSH2 0xCF JUMPI PUSH1 0x20 CALLDATASIZE PUSH1 0x3 NOT ADD SLT PUSH2 0xCF JUMPI PUSH1 0x4 CALLDATALOAD PUSH1 0x1 PUSH1 0x1 PUSH1 0x40 SHL SUB DUP2 AND DUP2 SUB PUSH2 0xCF JUMPI PUSH2 0xEF PUSH1 0x20 SWAP2 PUSH2 0x4F5 JUMP JUMPDEST SWAP1 PUSH1 0x1 PUSH1 0x1 PUSH1 0x40 SHL SUB DUP1 SWAP2 AND SWAP2 AND ADD SWAP1 PUSH1 0x1 PUSH1 0x1 PUSH1 0x40 SHL SUB DUP3 GT PUSH2 0x33B JUMPI JUMP JUMPDEST SWAP1 PUSH1 0x1 PUSH1 0x1 PUSH1 0x40 SHL SUB DUP1 SWAP2 AND SWAP2 AND SUB SWAP1 PUSH1 0x1 PUSH1 0x1 PUSH1 0x40 SHL SUB DUP3 GT PUSH2 0x33B JUMPI JUMP JUMPDEST PUSH32 0x0 PUSH32 0x0 PUSH2 0x541 DUP2 DUP4 PUSH2 0x4B5 JUMP JUMPDEST SWAP2 PUSH1 0x1 PUSH1 0x1 PUSH1 0x40 SHL SUB DUP5 AND PUSH1 0x1 PUSH1 0x1 PUSH1 0x40 SHL SUB DUP5 AND DUP2 LT PUSH2 0x647 JUMPI PUSH1 0x1 PUSH1 0x1 PUSH1 0x40 SHL SUB PUSH2 0x58F PUSH32 0x0 DUP1 SWAP5 PUSH2 0x4B5 JUMP JUMPDEST AND GT ISZERO PUSH2 0x61F JUMPI PUSH1 0x1 PUSH1 0x1 PUSH1 0x40 SHL SUB SWAP2 PUSH2 0x5A8 SWAP2 PUSH2 0x4D5 JUMP JUMPDEST AND SWAP2 DUP3 ISZERO PUSH2 0x5F8 JUMPI PUSH1 0x1 PUSH1 0x1 PUSH1 0x40 SHL SUB SWAP2 PUSH2 0x5C2 SWAP2 PUSH2 0x4D5 JUMP JUMPDEST AND PUSH32 0x0 DUP2 DUP2 MUL SWAP2 DUP2 DUP4 DIV EQ SWAP1 ISZERO OR ISZERO PUSH2 0x33B JUMPI DIV SWAP1 JUMP JUMPDEST POP POP POP PUSH32 0x0 SWAP1 JUMP JUMPDEST POP POP POP POP PUSH32 0x0 SWAP1 JUMP JUMPDEST POP POP POP POP POP PUSH1 0x0 SWAP1 JUMP JUMPDEST PUSH2 0x663 PUSH1 0x1 PUSH1 0x1 PUSH1 0x40 SHL SUB TIMESTAMP AND PUSH2 0x4F5 JUMP JUMPDEST PUSH1 0x0 SLOAD DUP1 DUP3 GT ISZERO PUSH2 0x67A JUMPI DUP2 SUB SWAP1 DUP2 GT PUSH2 0x33B JUMPI SWAP1 JUMP JUMPDEST POP POP PUSH1 0x0 SWAP1 JUMP INVALID LOG2 PUSH5 0x6970667358 0x22 SLT KECCAK256 0x4E MOD LOG4 SIGNEXTEND AND 0xEC ADD 0x28 BLOBBASEFEE AND 0xC3 SUB CREATE2 ADDMOD CALLVALUE 0xBB 0xCF MLOAD PUSH2 0x5915 0xC3 0x29 0x2E 0xB6 0xB9 0xB4 PUSH14 0xF7E45D9164736F6C634300081C00 CALLER "},"methodIdentifiers":{"beneficiary()":"38af3eed","cliffSeconds()":"8341ee72","durationSeconds()":"9acba2af","releasable()":"fbccedae","release()":"86d1a69f","released()":"96132521","start()":"be9a6555","token()":"fc0c546a","totalAllocation()":"79203dc4","vestedAmount(uint64)":"0a17b06b"}}}}}