{"contracts/launch/SafeLaunchTokenUpgradeable.sol":{"SafeLaunchTokenUpgradeable":{"abi":[{"inputs":[{"internalType":"address","name":"spender","type":"address"},{"internalType":"uint256","name":"allowance","type":"uint256"},{"internalType":"uint256","name":"needed","type":"uint256"}],"name":"ERC20InsufficientAllowance","type":"error"},{"inputs":[{"internalType":"address","name":"sender","type":"address"},{"internalType":"uint256","name":"balance","type":"uint256"},{"internalType":"uint256","name":"needed","type":"uint256"}],"name":"ERC20InsufficientBalance","type":"error"},{"inputs":[{"internalType":"address","name":"approver","type":"address"}],"name":"ERC20InvalidApprover","type":"error"},{"inputs":[{"internalType":"address","name":"receiver","type":"address"}],"name":"ERC20InvalidReceiver","type":"error"},{"inputs":[{"internalType":"address","name":"sender","type":"address"}],"name":"ERC20InvalidSender","type":"error"},{"inputs":[{"internalType":"address","name":"spender","type":"address"}],"name":"ERC20InvalidSpender","type":"error"},{"inputs":[],"name":"InvalidInitialization","type":"error"},{"inputs":[],"name":"NotInitializing","type":"error"},{"inputs":[{"internalType":"address","name":"owner","type":"address"}],"name":"OwnableInvalidOwner","type":"error"},{"inputs":[{"internalType":"address","name":"account","type":"address"}],"name":"OwnableUnauthorizedAccount","type":"error"},{"anonymous":false,"inputs":[{"indexed":true,"internalType":"address","name":"owner","type":"address"},{"indexed":true,"internalType":"address","name":"spender","type":"address"},{"indexed":false,"internalType":"uint256","name":"value","type":"uint256"}],"name":"Approval","type":"event"},{"anonymous":false,"inputs":[{"indexed":false,"internalType":"uint64","name":"version","type":"uint64"}],"name":"Initialized","type":"event"},{"anonymous":false,"inputs":[{"indexed":true,"internalType":"address","name":"previousOwner","type":"address"},{"indexed":true,"internalType":"address","name":"newOwner","type":"address"}],"name":"OwnershipTransferred","type":"event"},{"anonymous":false,"inputs":[{"indexed":true,"internalType":"address","name":"pair","type":"address"}],"name":"PairSet","type":"event"},{"anonymous":false,"inputs":[{"indexed":true,"internalType":"address","name":"from","type":"address"},{"indexed":true,"internalType":"address","name":"to","type":"address"},{"indexed":false,"internalType":"uint256","name":"value","type":"uint256"}],"name":"Transfer","type":"event"},{"inputs":[{"internalType":"address","name":"owner","type":"address"},{"internalType":"address","name":"spender","type":"address"}],"name":"allowance","outputs":[{"internalType":"uint256","name":"","type":"uint256"}],"stateMutability":"view","type":"function"},{"inputs":[{"internalType":"address","name":"spender","type":"address"},{"internalType":"uint256","name":"value","type":"uint256"}],"name":"approve","outputs":[{"internalType":"bool","name":"","type":"bool"}],"stateMutability":"nonpayable","type":"function"},{"inputs":[{"internalType":"address","name":"account","type":"address"}],"name":"balanceOf","outputs":[{"internalType":"uint256","name":"","type":"uint256"}],"stateMutability":"view","type":"function"},{"inputs":[],"name":"buyFeeBps","outputs":[{"internalType":"uint16","name":"","type":"uint16"}],"stateMutability":"view","type":"function"},{"inputs":[],"name":"decimals","outputs":[{"internalType":"uint8","name":"","type":"uint8"}],"stateMutability":"view","type":"function"},{"inputs":[],"name":"feesLocked","outputs":[{"internalType":"bool","name":"","type":"bool"}],"stateMutability":"view","type":"function"},{"inputs":[{"internalType":"address","name":"initialOwner_","type":"address"},{"internalType":"string","name":"name_","type":"string"},{"internalType":"string","name":"symbol_","type":"string"},{"internalType":"uint256","name":"supplyRaw_","type":"uint256"},{"internalType":"address","name":"marketingWallet_","type":"address"},{"internalType":"uint16","name":"buyFeeBps_","type":"uint16"},{"internalType":"uint16","name":"sellFeeBps_","type":"uint16"}],"name":"initialize","outputs":[],"stateMutability":"nonpayable","type":"function"},{"inputs":[],"name":"marketingWallet","outputs":[{"internalType":"address","name":"","type":"address"}],"stateMutability":"view","type":"function"},{"inputs":[],"name":"name","outputs":[{"internalType":"string","name":"","type":"string"}],"stateMutability":"view","type":"function"},{"inputs":[],"name":"owner","outputs":[{"internalType":"address","name":"","type":"address"}],"stateMutability":"view","type":"function"},{"inputs":[],"name":"renounceOwnership","outputs":[],"stateMutability":"nonpayable","type":"function"},{"inputs":[],"name":"sellFeeBps","outputs":[{"internalType":"uint16","name":"","type":"uint16"}],"stateMutability":"view","type":"function"},{"inputs":[{"internalType":"address","name":"pair_","type":"address"}],"name":"setPair","outputs":[],"stateMutability":"nonpayable","type":"function"},{"inputs":[],"name":"symbol","outputs":[{"internalType":"string","name":"","type":"string"}],"stateMutability":"view","type":"function"},{"inputs":[],"name":"totalSupply","outputs":[{"internalType":"uint256","name":"","type":"uint256"}],"stateMutability":"view","type":"function"},{"inputs":[{"internalType":"address","name":"to","type":"address"},{"internalType":"uint256","name":"value","type":"uint256"}],"name":"transfer","outputs":[{"internalType":"bool","name":"","type":"bool"}],"stateMutability":"nonpayable","type":"function"},{"inputs":[{"internalType":"address","name":"from","type":"address"},{"internalType":"address","name":"to","type":"address"},{"internalType":"uint256","name":"value","type":"uint256"}],"name":"transferFrom","outputs":[{"internalType":"bool","name":"","type":"bool"}],"stateMutability":"nonpayable","type":"function"},{"inputs":[{"internalType":"address","name":"newOwner","type":"address"}],"name":"transferOwnership","outputs":[],"stateMutability":"nonpayable","type":"function"},{"inputs":[],"name":"uniswapV2Pair","outputs":[{"internalType":"address","name":"","type":"address"}],"stateMutability":"view","type":"function"}],"evm":{"bytecode":{"linkReferences":{},"object":"6080806040523461001657611538908161001c8239f35b600080fdfe608080604052600436101561001357600080fd5b60003560e01c90816306fdde0314610ccd57508063095ea7b314610c4c57806318160ddd14610c2157806323b872dd14610b3c57806323cbe1f314610b17578063313ce56714610afb57806349bd5a5e14610ad25780635a27a1f914610aac57806370a0823114610a65578063715018a6146109fb57806375f0a874146109d257806377d2300e146109ad5780638187f516146109465780638a7fb3e5146102ae5780638da5cb5b1461027857806395d89b411461019a578063a9059cbb14610169578063dd62ed3e146101205763f2fde38b146100f057600080fd5b3461011b57602036600319011261011b5761011961010c610db6565b610114610e10565b610e49565b005b600080fd5b3461011b57604036600319011261011b57610139610db6565b61014a610144610dcc565b91610f19565b9060018060a01b03166000526020526020604060002054604051908152f35b3461011b57604036600319011261011b5761018f610185610db6565b6024359033610f52565b602060405160018152f35b3461011b57600036600319011261011b57604051600060008051602061146383398151915280546101ca81610ebd565b8085529160019180831690811561024e5750600114610204575b610200856101f481870382610ef7565b60405191829182610d6d565b0390f35b600090815292506000805160206114c38339815191525b8284106102365750505081016020016101f4826102006101e4565b8054602085870181019190915290930192810161021b565b869550610200969350602092506101f494915060ff191682840152151560051b82010192936101e4565b3461011b57600036600319011261011b57600080516020611483833981519152546040516001600160a01b039091168152602090f35b3461011b5760e036600319011261011b576102c7610db6565b60243567ffffffffffffffff811161011b576102e7903690600401610de2565b60449291923567ffffffffffffffff811161011b5761030a903690600401610de2565b93906084356001600160a01b038116900361011b5761ffff928360a4351660a4350361011b578360c4351660c4350361011b576000805160206114e3833981519152549367ffffffffffffffff85161580610938575b600167ffffffffffffffff871614908161092e575b159081610925575b5061091357600167ffffffffffffffff198616176000805160206114e38339815191525560ff8560401c16156108e6575b6001600160a01b038616156108b75760643515610887576107d090818160a43516116108525760c435161161081c576103f4926103ec913691610fa8565b943691610fa8565b6103fc610fef565b610404610fef565b835167ffffffffffffffff81116106f65761042d60008051602061142383398151915254610ebd565b601f81116107a6575b506020601f821160011461071757819293949560009261070c575b50508160011b916000199060031b1c191617600080516020611423833981519152555b80519067ffffffffffffffff82116106f65761049e60008051602061146383398151915254610ebd565b601f8111610680575b50602090601f83116001146105ec57918060ff9592610577946000926105e1575b50508160011b916000199060031b1c191617600080516020611463833981519152555b6104f3610fef565b6104fb610fef565b61050481610e49565b6084356001600160a01b0316156105db576084355b600080546001600160a01b0319166001600160a01b03929092169190911790556001805460c43560b01b61ffff60b01b1664ffffffffff60a01b1990911660a43560a01b61ffff60a01b161717600160c01b1790556064359061101e565b60401c161561058257005b68ff0000000000000000196000805160206114e383398151915254166000805160206114e3833981519152557fc7f505b2f371ae2175ee4913f4499e1f2633a7b5936321eed1cdaeb6115181d2602060405160018152a1005b80610519565b0151905086806104c8565b90601f198316916000805160206114638339815191526000526000805160206114c38339815191529260005b81811061066857509260019285926105779660ff99961061064f575b505050811b01600080516020611463833981519152556104eb565b015160001960f88460031b161c19169055868080610634565b92936020600181928786015181550195019301610618565b600080516020611463833981519152600052601f830160051c6000805160206114c383398151915201602084106106e1575b601f820160051c6000805160206114c38339815191520181106106d557506104a7565b600081556001016106b2565b506000805160206114c38339815191526106b2565b634e487b7160e01b600052604160045260246000fd5b015190508580610451565b6000805160206114238339815191526000526000805160206114038339815191529060005b601f198416811061078e575060019394959683601f19811610610775575b505050811b0160008051602061142383398151915255610474565b015160001960f88460031b161c1916905585808061075a565b9091602060018192858b01518155019301910161073c565b600080516020611423833981519152600052601f820160051c6000805160206114038339815191520160208310610807575b601f820160051c6000805160206114038339815191520181106107fb5750610436565b600081556001016107d8565b506000805160206114038339815191526107d8565b60405162461bcd60e51b815260206004820152600e60248201526d73656c6c20666565203e2032302560901b6044820152606490fd5b60405162461bcd60e51b815260206004820152600d60248201526c62757920666565203e2032302560981b6044820152606490fd5b60405162461bcd60e51b81526020600482015260086024820152670737570706c793d360c41b6044820152606490fd5b60405162461bcd60e51b815260206004820152600760248201526606f776e65723d360cc1b6044820152606490fd5b68ffffffffffffffffff19851668010000000000000001176000805160206114e3833981519152556103ae565b60405163f92ee8a960e01b8152600490fd5b9050158861037d565b303b159150610375565b5060ff8560401c1615610360565b3461011b57602036600319011261011b5761095f610db6565b610967610e10565b600180546001600160a01b0319166001600160a01b039290921691821790557fc4a4ea6abc08bd7f8df3db8a1c998f19b3e0c348176f93732cd54db1a4b50136600080a2005b3461011b57600036600319011261011b57602061ffff60015460a01c16604051908152f35b3461011b57600036600319011261011b576000546040516001600160a01b039091168152602090f35b3461011b57600036600319011261011b57610a14610e10565b60008051602061148383398151915280546001600160a01b031981169091556000906001600160a01b03167f8be0079c531659141344cd1fd0a4f28419497f9722a3daafe3b4186f6b6457e08280a3005b3461011b57602036600319011261011b576001600160a01b03610a86610db6565b166000526000805160206114438339815191526020526020604060002054604051908152f35b3461011b57600036600319011261011b57602060ff60015460c01c166040519015158152f35b3461011b57600036600319011261011b576001546040516001600160a01b039091168152602090f35b3461011b57600036600319011261011b57602060405160128152f35b3461011b57600036600319011261011b57602061ffff60015460b01c16604051908152f35b3461011b57606036600319011261011b57610b55610db6565b610b5d610dcc565b60443590610b6a83610f19565b33600052602052604060002054926000198410610b8c575b61018f9350610f52565b828410610bfb576001600160a01b03811615610be2573315610bc9578261018f94610bb683610f19565b3360005260205203604060002055610b82565b604051634a1406b160e11b815260006004820152602490fd5b60405163e602df0560e01b815260006004820152602490fd5b604051637dc7a0d960e11b81523360048201526024810185905260448101849052606490fd5b3461011b57600036600319011261011b5760206000805160206114a383398151915254604051908152f35b3461011b57604036600319011261011b57610c65610db6565b602435903315610be2576001600160a01b0316908115610bc957610c8833610f19565b82600052602052806040600020556040519081527f8c5be1e5ebec7d5bd14f71427d1e84f3dd0314c0f7b2291e5b200ac8c7c3b92560203392a3602060405160018152f35b3461011b57600036600319011261011b5760006000805160206114238339815191528054610cfa81610ebd565b8085529160019180831690811561024e5750600114610d2357610200856101f481870382610ef7565b600090815292506000805160206114038339815191525b828410610d555750505081016020016101f4826102006101e4565b80546020858701810191909152909301928101610d3a565b6020808252825181830181905290939260005b828110610da257505060409293506000838284010152601f8019910116010190565b818101860151848201604001528501610d80565b600435906001600160a01b038216820361011b57565b602435906001600160a01b038216820361011b57565b9181601f8401121561011b5782359167ffffffffffffffff831161011b576020838186019501011161011b57565b600080516020611483833981519152546001600160a01b03163303610e3157565b60405163118cdaa760e01b8152336004820152602490fd5b6001600160a01b03908116908115610ea45760008051602061148383398151915280546001600160a01b031981168417909155167f8be0079c531659141344cd1fd0a4f28419497f9722a3daafe3b4186f6b6457e0600080a3565b604051631e4fbdf760e01b815260006004820152602490fd5b90600182811c92168015610eed575b6020831014610ed757565b634e487b7160e01b600052602260045260246000fd5b91607f1691610ecc565b90601f8019910116810190811067ffffffffffffffff8211176106f657604052565b6001600160a01b031660009081527f52c63247e1f47db19d5ce0460030c497f067ca4cebf71ba98eeadabe20bace016020526040902090565b91906001600160a01b0380841615610f8f57811615610f7657610f7492611137565b565b60405163ec442f0560e01b815260006004820152602490fd5b604051634b637e8f60e11b815260006004820152602490fd5b92919267ffffffffffffffff82116106f65760405191610fd2601f8201601f191660200184610ef7565b82948184528183011161011b578281602093846000960137010152565b60ff6000805160206114e38339815191525460401c161561100c57565b604051631afcd79f60e31b8152600490fd5b90801561112e576001546001600160a01b039061ffff90828116801580159291839182611126575b508361111a575b8161110e575b5080611106575b600092156110ee575082915060a01c165b168061107d575b5050610f7491611241565b80830290838204036110bf5761271090049081156110725781816110ad92600054169081156110d5575b50611241565b81039081116110bf57610f7491611241565b634e487b7160e01b600052601160045260246000fd5b90506000805160206114838339815191525416386110a7565b6110f9575b5061106b565b82915060b01c16386110f3565b50600061105a565b90508487161438611053565b8786161515935061104d565b935038611046565b610f7491611241565b91908115611238576001546001600160a01b039061ffff90828116801515919082908161122c575b83611220575b81611214575b5080611209575b600092156111f1575082915060a01c165b1680611195575b5050610f74926112cc565b80840290848204036110bf57612710900490811561118a5781816111c692600054169081156111d8575b50866112cc565b82039182116110bf57610f74926112cc565b90506000805160206114838339815191525416386111bf565b6111fc575b50611183565b82915060b01c16386111f6565b508387161515611172565b9050848616143861116b565b86861615159350611165565b8886168114935061115f565b610f74926112cc565b906000805160206114a38339815191529182548281018091116110bf5783556001600160a01b0316916000917fddf252ad1be2c89b69c2b068fc378daa952ba7f163c4a11628f55a4df523b3ef9160209190856112a8578181540390555b604051908152a3565b5084845260008051602061144383398151915282526040842081815401905561129f565b6001600160a01b038082169290918361136f5750906000805160206114a3833981519152908154928584018094116110bf577fddf252ad1be2c89b69c2b068fc378daa952ba7f163c4a11628f55a4df523b3ef93602093555b16938461134a576000805160206114a3833981519152818154039055604051908152a3565b846000526000805160206114438339815191528252604060002081815401905561129f565b8360005260008051602061144383398151915280602052604060002054918683106113cf575091857fddf252ad1be2c89b69c2b068fc378daa952ba7f163c4a11628f55a4df523b3ef949260209487600052855203604060002055611325565b60405163391434e360e21b81526001600160a01b0391909116600482015260248101929092525060448101859052606490fdfe2ae08a8e29253f69ac5d979a101956ab8f8d9d7ded63fa7a83b16fc47648eab052c63247e1f47db19d5ce0460030c497f067ca4cebf71ba98eeadabe20bace0352c63247e1f47db19d5ce0460030c497f067ca4cebf71ba98eeadabe20bace0052c63247e1f47db19d5ce0460030c497f067ca4cebf71ba98eeadabe20bace049016d09d72d40fdae2fd8ceac6b6234c7706214fd39c1cd1e609a0528c19930052c63247e1f47db19d5ce0460030c497f067ca4cebf71ba98eeadabe20bace0246a2803e59a4de4e7a4c574b1243f25977ac4c77d5a1a4a609b5394cebb4a2aaf0c57e16840df040f15088dc2f81fe391c3923bec73e23a9662efc9c229c6a00a26469706673582212205b95b5c03d597bc8bce9ef699763d093b0c6d00ecd3a84da24d2d513f51c4d4764736f6c63430008140033","opcodes":"PUSH1 0x80 DUP1 PUSH1 0x40 MSTORE CALLVALUE PUSH2 0x16 JUMPI PUSH2 0x1538 SWAP1 DUP2 PUSH2 0x1C DUP3 CODECOPY RETURN JUMPDEST PUSH1 0x0 DUP1 REVERT INVALID PUSH1 0x80 DUP1 PUSH1 0x40 MSTORE PUSH1 0x4 CALLDATASIZE LT ISZERO PUSH2 0x13 JUMPI PUSH1 0x0 DUP1 REVERT JUMPDEST PUSH1 0x0 CALLDATALOAD PUSH1 0xE0 SHR SWAP1 DUP2 PUSH4 0x6FDDE03 EQ PUSH2 0xCCD JUMPI POP DUP1 PUSH4 0x95EA7B3 EQ PUSH2 0xC4C JUMPI DUP1 PUSH4 0x18160DDD EQ PUSH2 0xC21 JUMPI DUP1 PUSH4 0x23B872DD EQ PUSH2 0xB3C JUMPI DUP1 PUSH4 0x23CBE1F3 EQ PUSH2 0xB17 JUMPI DUP1 PUSH4 0x313CE567 EQ PUSH2 0xAFB JUMPI DUP1 PUSH4 0x49BD5A5E EQ PUSH2 0xAD2 JUMPI DUP1 PUSH4 0x5A27A1F9 EQ PUSH2 0xAAC JUMPI DUP1 PUSH4 0x70A08231 EQ PUSH2 0xA65 JUMPI DUP1 PUSH4 0x715018A6 EQ PUSH2 0x9FB JUMPI DUP1 PUSH4 0x75F0A874 EQ PUSH2 0x9D2 JUMPI DUP1 PUSH4 0x77D2300E EQ PUSH2 0x9AD JUMPI DUP1 PUSH4 0x8187F516 EQ PUSH2 0x946 JUMPI DUP1 PUSH4 0x8A7FB3E5 EQ PUSH2 0x2AE JUMPI DUP1 PUSH4 0x8DA5CB5B EQ PUSH2 0x278 JUMPI DUP1 PUSH4 0x95D89B41 EQ PUSH2 0x19A JUMPI DUP1 PUSH4 0xA9059CBB EQ PUSH2 0x169 JUMPI DUP1 PUSH4 0xDD62ED3E EQ PUSH2 0x120 JUMPI PUSH4 0xF2FDE38B EQ PUSH2 0xF0 JUMPI PUSH1 0x0 DUP1 REVERT JUMPDEST CALLVALUE PUSH2 0x11B JUMPI PUSH1 0x20 CALLDATASIZE PUSH1 0x3 NOT ADD SLT PUSH2 0x11B JUMPI PUSH2 0x119 PUSH2 0x10C PUSH2 0xDB6 JUMP JUMPDEST PUSH2 0x114 PUSH2 0xE10 JUMP JUMPDEST PUSH2 0xE49 JUMP JUMPDEST STOP JUMPDEST PUSH1 0x0 DUP1 REVERT JUMPDEST CALLVALUE PUSH2 0x11B JUMPI PUSH1 0x40 CALLDATASIZE PUSH1 0x3 NOT ADD SLT PUSH2 0x11B JUMPI PUSH2 0x139 PUSH2 0xDB6 JUMP JUMPDEST PUSH2 0x14A PUSH2 0x144 PUSH2 0xDCC JUMP JUMPDEST SWAP2 PUSH2 0xF19 JUMP JUMPDEST SWAP1 PUSH1 0x1 DUP1 PUSH1 0xA0 SHL SUB AND PUSH1 0x0 MSTORE PUSH1 0x20 MSTORE PUSH1 0x20 PUSH1 0x40 PUSH1 0x0 KECCAK256 SLOAD PUSH1 0x40 MLOAD SWAP1 DUP2 MSTORE RETURN JUMPDEST CALLVALUE PUSH2 0x11B JUMPI PUSH1 0x40 CALLDATASIZE PUSH1 0x3 NOT ADD SLT PUSH2 0x11B JUMPI PUSH2 0x18F PUSH2 0x185 PUSH2 0xDB6 JUMP JUMPDEST PUSH1 0x24 CALLDATALOAD SWAP1 CALLER PUSH2 0xF52 JUMP JUMPDEST PUSH1 0x20 PUSH1 0x40 MLOAD PUSH1 0x1 DUP2 MSTORE RETURN JUMPDEST CALLVALUE PUSH2 0x11B JUMPI PUSH1 0x0 CALLDATASIZE PUSH1 0x3 NOT ADD SLT PUSH2 0x11B JUMPI PUSH1 0x40 MLOAD PUSH1 0x0 PUSH1 0x0 DUP1 MLOAD PUSH1 0x20 PUSH2 0x1463 DUP4 CODECOPY DUP2 MLOAD SWAP2 MSTORE DUP1 SLOAD PUSH2 0x1CA DUP2 PUSH2 0xEBD JUMP JUMPDEST DUP1 DUP6 MSTORE SWAP2 PUSH1 0x1 SWAP2 DUP1 DUP4 AND SWAP1 DUP2 ISZERO PUSH2 0x24E JUMPI POP PUSH1 0x1 EQ PUSH2 0x204 JUMPI JUMPDEST PUSH2 0x200 DUP6 PUSH2 0x1F4 DUP2 DUP8 SUB DUP3 PUSH2 0xEF7 JUMP JUMPDEST PUSH1 0x40 MLOAD SWAP2 DUP3 SWAP2 DUP3 PUSH2 0xD6D JUMP JUMPDEST SUB SWAP1 RETURN JUMPDEST PUSH1 0x0 SWAP1 DUP2 MSTORE SWAP3 POP PUSH1 0x0 DUP1 MLOAD PUSH1 0x20 PUSH2 0x14C3 DUP4 CODECOPY DUP2 MLOAD SWAP2 MSTORE JUMPDEST DUP3 DUP5 LT PUSH2 0x236 JUMPI POP POP POP DUP2 ADD PUSH1 0x20 ADD PUSH2 0x1F4 DUP3 PUSH2 0x200 PUSH2 0x1E4 JUMP JUMPDEST DUP1 SLOAD PUSH1 0x20 DUP6 DUP8 ADD DUP2 ADD SWAP2 SWAP1 SWAP2 MSTORE SWAP1 SWAP4 ADD SWAP3 DUP2 ADD PUSH2 0x21B JUMP JUMPDEST DUP7 SWAP6 POP PUSH2 0x200 SWAP7 SWAP4 POP PUSH1 0x20 SWAP3 POP PUSH2 0x1F4 SWAP5 SWAP2 POP PUSH1 0xFF NOT AND DUP3 DUP5 ADD MSTORE ISZERO ISZERO PUSH1 0x5 SHL DUP3 ADD ADD SWAP3 SWAP4 PUSH2 0x1E4 JUMP JUMPDEST CALLVALUE PUSH2 0x11B JUMPI PUSH1 0x0 CALLDATASIZE PUSH1 0x3 NOT ADD SLT PUSH2 0x11B JUMPI PUSH1 0x0 DUP1 MLOAD PUSH1 0x20 PUSH2 0x1483 DUP4 CODECOPY DUP2 MLOAD SWAP2 MSTORE SLOAD PUSH1 0x40 MLOAD PUSH1 0x1 PUSH1 0x1 PUSH1 0xA0 SHL SUB SWAP1 SWAP2 AND DUP2 MSTORE PUSH1 0x20 SWAP1 RETURN JUMPDEST CALLVALUE PUSH2 0x11B JUMPI PUSH1 0xE0 CALLDATASIZE PUSH1 0x3 NOT ADD SLT PUSH2 0x11B JUMPI PUSH2 0x2C7 PUSH2 0xDB6 JUMP JUMPDEST PUSH1 0x24 CALLDATALOAD PUSH8 0xFFFFFFFFFFFFFFFF DUP2 GT PUSH2 0x11B JUMPI PUSH2 0x2E7 SWAP1 CALLDATASIZE SWAP1 PUSH1 0x4 ADD PUSH2 0xDE2 JUMP JUMPDEST PUSH1 0x44 SWAP3 SWAP2 SWAP3 CALLDATALOAD PUSH8 0xFFFFFFFFFFFFFFFF DUP2 GT PUSH2 0x11B JUMPI PUSH2 0x30A SWAP1 CALLDATASIZE SWAP1 PUSH1 0x4 ADD PUSH2 0xDE2 JUMP JUMPDEST SWAP4 SWAP1 PUSH1 0x84 CALLDATALOAD PUSH1 0x1 PUSH1 0x1 PUSH1 0xA0 SHL SUB DUP2 AND SWAP1 SUB PUSH2 0x11B JUMPI PUSH2 0xFFFF SWAP3 DUP4 PUSH1 0xA4 CALLDATALOAD AND PUSH1 0xA4 CALLDATALOAD SUB PUSH2 0x11B JUMPI DUP4 PUSH1 0xC4 CALLDATALOAD AND PUSH1 0xC4 CALLDATALOAD SUB PUSH2 0x11B JUMPI PUSH1 0x0 DUP1 MLOAD PUSH1 0x20 PUSH2 0x14E3 DUP4 CODECOPY DUP2 MLOAD SWAP2 MSTORE SLOAD SWAP4 PUSH8 0xFFFFFFFFFFFFFFFF DUP6 AND ISZERO DUP1 PUSH2 0x938 JUMPI JUMPDEST PUSH1 0x1 PUSH8 0xFFFFFFFFFFFFFFFF DUP8 AND EQ SWAP1 DUP2 PUSH2 0x92E JUMPI JUMPDEST ISZERO SWAP1 DUP2 PUSH2 0x925 JUMPI JUMPDEST POP PUSH2 0x913 JUMPI PUSH1 0x1 PUSH8 0xFFFFFFFFFFFFFFFF NOT DUP7 AND OR PUSH1 0x0 DUP1 MLOAD PUSH1 0x20 PUSH2 0x14E3 DUP4 CODECOPY DUP2 MLOAD SWAP2 MSTORE SSTORE PUSH1 0xFF DUP6 PUSH1 0x40 SHR AND ISZERO PUSH2 0x8E6 JUMPI JUMPDEST PUSH1 0x1 PUSH1 0x1 PUSH1 0xA0 SHL SUB DUP7 AND ISZERO PUSH2 0x8B7 JUMPI PUSH1 0x64 CALLDATALOAD ISZERO PUSH2 0x887 JUMPI PUSH2 0x7D0 SWAP1 DUP2 DUP2 PUSH1 0xA4 CALLDATALOAD AND GT PUSH2 0x852 JUMPI PUSH1 0xC4 CALLDATALOAD AND GT PUSH2 0x81C JUMPI PUSH2 0x3F4 SWAP3 PUSH2 0x3EC SWAP2 CALLDATASIZE SWAP2 PUSH2 0xFA8 JUMP JUMPDEST SWAP5 CALLDATASIZE SWAP2 PUSH2 0xFA8 JUMP JUMPDEST PUSH2 0x3FC PUSH2 0xFEF JUMP JUMPDEST PUSH2 0x404 PUSH2 0xFEF JUMP JUMPDEST DUP4 MLOAD PUSH8 0xFFFFFFFFFFFFFFFF DUP2 GT PUSH2 0x6F6 JUMPI PUSH2 0x42D PUSH1 0x0 DUP1 MLOAD PUSH1 0x20 PUSH2 0x1423 DUP4 CODECOPY DUP2 MLOAD SWAP2 MSTORE SLOAD PUSH2 0xEBD JUMP JUMPDEST PUSH1 0x1F DUP2 GT PUSH2 0x7A6 JUMPI JUMPDEST POP PUSH1 0x20 PUSH1 0x1F DUP3 GT PUSH1 0x1 EQ PUSH2 0x717 JUMPI DUP2 SWAP3 SWAP4 SWAP5 SWAP6 PUSH1 0x0 SWAP3 PUSH2 0x70C JUMPI JUMPDEST POP POP DUP2 PUSH1 0x1 SHL SWAP2 PUSH1 0x0 NOT SWAP1 PUSH1 0x3 SHL SHR NOT AND OR PUSH1 0x0 DUP1 MLOAD PUSH1 0x20 PUSH2 0x1423 DUP4 CODECOPY DUP2 MLOAD SWAP2 MSTORE SSTORE JUMPDEST DUP1 MLOAD SWAP1 PUSH8 0xFFFFFFFFFFFFFFFF DUP3 GT PUSH2 0x6F6 JUMPI PUSH2 0x49E PUSH1 0x0 DUP1 MLOAD PUSH1 0x20 PUSH2 0x1463 DUP4 CODECOPY DUP2 MLOAD SWAP2 MSTORE SLOAD PUSH2 0xEBD JUMP JUMPDEST PUSH1 0x1F DUP2 GT PUSH2 0x680 JUMPI JUMPDEST POP PUSH1 0x20 SWAP1 PUSH1 0x1F DUP4 GT PUSH1 0x1 EQ PUSH2 0x5EC JUMPI SWAP2 DUP1 PUSH1 0xFF SWAP6 SWAP3 PUSH2 0x577 SWAP5 PUSH1 0x0 SWAP3 PUSH2 0x5E1 JUMPI JUMPDEST POP POP DUP2 PUSH1 0x1 SHL SWAP2 PUSH1 0x0 NOT SWAP1 PUSH1 0x3 SHL SHR NOT AND OR PUSH1 0x0 DUP1 MLOAD PUSH1 0x20 PUSH2 0x1463 DUP4 CODECOPY DUP2 MLOAD SWAP2 MSTORE SSTORE JUMPDEST PUSH2 0x4F3 PUSH2 0xFEF JUMP JUMPDEST PUSH2 0x4FB PUSH2 0xFEF JUMP JUMPDEST PUSH2 0x504 DUP2 PUSH2 0xE49 JUMP JUMPDEST PUSH1 0x84 CALLDATALOAD PUSH1 0x1 PUSH1 0x1 PUSH1 0xA0 SHL SUB AND ISZERO PUSH2 0x5DB JUMPI PUSH1 0x84 CALLDATALOAD JUMPDEST PUSH1 0x0 DUP1 SLOAD PUSH1 0x1 PUSH1 0x1 PUSH1 0xA0 SHL SUB NOT AND PUSH1 0x1 PUSH1 0x1 PUSH1 0xA0 SHL SUB SWAP3 SWAP1 SWAP3 AND SWAP2 SWAP1 SWAP2 OR SWAP1 SSTORE PUSH1 0x1 DUP1 SLOAD PUSH1 0xC4 CALLDATALOAD PUSH1 0xB0 SHL PUSH2 0xFFFF PUSH1 0xB0 SHL AND PUSH5 0xFFFFFFFFFF PUSH1 0xA0 SHL NOT SWAP1 SWAP2 AND PUSH1 0xA4 CALLDATALOAD PUSH1 0xA0 SHL PUSH2 0xFFFF PUSH1 0xA0 SHL AND OR OR PUSH1 0x1 PUSH1 0xC0 SHL OR SWAP1 SSTORE PUSH1 0x64 CALLDATALOAD SWAP1 PUSH2 0x101E JUMP JUMPDEST PUSH1 0x40 SHR AND ISZERO PUSH2 0x582 JUMPI STOP JUMPDEST PUSH9 0xFF0000000000000000 NOT PUSH1 0x0 DUP1 MLOAD PUSH1 0x20 PUSH2 0x14E3 DUP4 CODECOPY DUP2 MLOAD SWAP2 MSTORE SLOAD AND PUSH1 0x0 DUP1 MLOAD PUSH1 0x20 PUSH2 0x14E3 DUP4 CODECOPY DUP2 MLOAD SWAP2 MSTORE SSTORE PUSH32 0xC7F505B2F371AE2175EE4913F4499E1F2633A7B5936321EED1CDAEB6115181D2 PUSH1 0x20 PUSH1 0x40 MLOAD PUSH1 0x1 DUP2 MSTORE LOG1 STOP JUMPDEST DUP1 PUSH2 0x519 JUMP JUMPDEST ADD MLOAD SWAP1 POP DUP7 DUP1 PUSH2 0x4C8 JUMP JUMPDEST SWAP1 PUSH1 0x1F NOT DUP4 AND SWAP2 PUSH1 0x0 DUP1 MLOAD PUSH1 0x20 PUSH2 0x1463 DUP4 CODECOPY DUP2 MLOAD SWAP2 MSTORE PUSH1 0x0 MSTORE PUSH1 0x0 DUP1 MLOAD PUSH1 0x20 PUSH2 0x14C3 DUP4 CODECOPY DUP2 MLOAD SWAP2 MSTORE SWAP3 PUSH1 0x0 JUMPDEST DUP2 DUP2 LT PUSH2 0x668 JUMPI POP SWAP3 PUSH1 0x1 SWAP3 DUP6 SWAP3 PUSH2 0x577 SWAP7 PUSH1 0xFF SWAP10 SWAP7 LT PUSH2 0x64F JUMPI JUMPDEST POP POP POP DUP2 SHL ADD PUSH1 0x0 DUP1 MLOAD PUSH1 0x20 PUSH2 0x1463 DUP4 CODECOPY DUP2 MLOAD SWAP2 MSTORE SSTORE PUSH2 0x4EB JUMP JUMPDEST ADD MLOAD PUSH1 0x0 NOT PUSH1 0xF8 DUP5 PUSH1 0x3 SHL AND SHR NOT AND SWAP1 SSTORE DUP7 DUP1 DUP1 PUSH2 0x634 JUMP JUMPDEST SWAP3 SWAP4 PUSH1 0x20 PUSH1 0x1 DUP2 SWAP3 DUP8 DUP7 ADD MLOAD DUP2 SSTORE ADD SWAP6 ADD SWAP4 ADD PUSH2 0x618 JUMP JUMPDEST PUSH1 0x0 DUP1 MLOAD PUSH1 0x20 PUSH2 0x1463 DUP4 CODECOPY DUP2 MLOAD SWAP2 MSTORE PUSH1 0x0 MSTORE PUSH1 0x1F DUP4 ADD PUSH1 0x5 SHR PUSH1 0x0 DUP1 MLOAD PUSH1 0x20 PUSH2 0x14C3 DUP4 CODECOPY DUP2 MLOAD SWAP2 MSTORE ADD PUSH1 0x20 DUP5 LT PUSH2 0x6E1 JUMPI JUMPDEST PUSH1 0x1F DUP3 ADD PUSH1 0x5 SHR PUSH1 0x0 DUP1 MLOAD PUSH1 0x20 PUSH2 0x14C3 DUP4 CODECOPY DUP2 MLOAD SWAP2 MSTORE ADD DUP2 LT PUSH2 0x6D5 JUMPI POP PUSH2 0x4A7 JUMP JUMPDEST PUSH1 0x0 DUP2 SSTORE PUSH1 0x1 ADD PUSH2 0x6B2 JUMP JUMPDEST POP PUSH1 0x0 DUP1 MLOAD PUSH1 0x20 PUSH2 0x14C3 DUP4 CODECOPY DUP2 MLOAD SWAP2 MSTORE PUSH2 0x6B2 JUMP JUMPDEST PUSH4 0x4E487B71 PUSH1 0xE0 SHL PUSH1 0x0 MSTORE PUSH1 0x41 PUSH1 0x4 MSTORE PUSH1 0x24 PUSH1 0x0 REVERT JUMPDEST ADD MLOAD SWAP1 POP DUP6 DUP1 PUSH2 0x451 JUMP JUMPDEST PUSH1 0x0 DUP1 MLOAD PUSH1 0x20 PUSH2 0x1423 DUP4 CODECOPY DUP2 MLOAD SWAP2 MSTORE PUSH1 0x0 MSTORE PUSH1 0x0 DUP1 MLOAD PUSH1 0x20 PUSH2 0x1403 DUP4 CODECOPY DUP2 MLOAD SWAP2 MSTORE SWAP1 PUSH1 0x0 JUMPDEST PUSH1 0x1F NOT DUP5 AND DUP2 LT PUSH2 0x78E JUMPI POP PUSH1 0x1 SWAP4 SWAP5 SWAP6 SWAP7 DUP4 PUSH1 0x1F NOT DUP2 AND LT PUSH2 0x775 JUMPI JUMPDEST POP POP POP DUP2 SHL ADD PUSH1 0x0 DUP1 MLOAD PUSH1 0x20 PUSH2 0x1423 DUP4 CODECOPY DUP2 MLOAD SWAP2 MSTORE SSTORE PUSH2 0x474 JUMP JUMPDEST ADD MLOAD PUSH1 0x0 NOT PUSH1 0xF8 DUP5 PUSH1 0x3 SHL AND SHR NOT AND SWAP1 SSTORE DUP6 DUP1 DUP1 PUSH2 0x75A JUMP JUMPDEST SWAP1 SWAP2 PUSH1 0x20 PUSH1 0x1 DUP2 SWAP3 DUP6 DUP12 ADD MLOAD DUP2 SSTORE ADD SWAP4 ADD SWAP2 ADD PUSH2 0x73C JUMP JUMPDEST PUSH1 0x0 DUP1 MLOAD PUSH1 0x20 PUSH2 0x1423 DUP4 CODECOPY DUP2 MLOAD SWAP2 MSTORE PUSH1 0x0 MSTORE PUSH1 0x1F DUP3 ADD PUSH1 0x5 SHR PUSH1 0x0 DUP1 MLOAD PUSH1 0x20 PUSH2 0x1403 DUP4 CODECOPY DUP2 MLOAD SWAP2 MSTORE ADD PUSH1 0x20 DUP4 LT PUSH2 0x807 JUMPI JUMPDEST PUSH1 0x1F DUP3 ADD PUSH1 0x5 SHR PUSH1 0x0 DUP1 MLOAD PUSH1 0x20 PUSH2 0x1403 DUP4 CODECOPY DUP2 MLOAD SWAP2 MSTORE ADD DUP2 LT PUSH2 0x7FB JUMPI POP PUSH2 0x436 JUMP JUMPDEST PUSH1 0x0 DUP2 SSTORE PUSH1 0x1 ADD PUSH2 0x7D8 JUMP JUMPDEST POP PUSH1 0x0 DUP1 MLOAD PUSH1 0x20 PUSH2 0x1403 DUP4 CODECOPY DUP2 MLOAD SWAP2 MSTORE PUSH2 0x7D8 JUMP JUMPDEST PUSH1 0x40 MLOAD PUSH3 0x461BCD PUSH1 0xE5 SHL DUP2 MSTORE PUSH1 0x20 PUSH1 0x4 DUP3 ADD MSTORE PUSH1 0xE PUSH1 0x24 DUP3 ADD MSTORE PUSH14 0x73656C6C20666565203E20323025 PUSH1 0x90 SHL PUSH1 0x44 DUP3 ADD MSTORE PUSH1 0x64 SWAP1 REVERT JUMPDEST PUSH1 0x40 MLOAD PUSH3 0x461BCD PUSH1 0xE5 SHL DUP2 MSTORE PUSH1 0x20 PUSH1 0x4 DUP3 ADD MSTORE PUSH1 0xD PUSH1 0x24 DUP3 ADD MSTORE PUSH13 0x62757920666565203E20323025 PUSH1 0x98 SHL PUSH1 0x44 DUP3 ADD MSTORE PUSH1 0x64 SWAP1 REVERT JUMPDEST PUSH1 0x40 MLOAD PUSH3 0x461BCD PUSH1 0xE5 SHL DUP2 MSTORE PUSH1 0x20 PUSH1 0x4 DUP3 ADD MSTORE PUSH1 0x8 PUSH1 0x24 DUP3 ADD MSTORE PUSH8 0x737570706C793D3 PUSH1 0xC4 SHL PUSH1 0x44 DUP3 ADD MSTORE PUSH1 0x64 SWAP1 REVERT JUMPDEST PUSH1 0x40 MLOAD PUSH3 0x461BCD PUSH1 0xE5 SHL DUP2 MSTORE PUSH1 0x20 PUSH1 0x4 DUP3 ADD MSTORE PUSH1 0x7 PUSH1 0x24 DUP3 ADD MSTORE PUSH7 0x6F776E65723D3 PUSH1 0xCC SHL PUSH1 0x44 DUP3 ADD MSTORE PUSH1 0x64 SWAP1 REVERT JUMPDEST PUSH9 0xFFFFFFFFFFFFFFFFFF NOT DUP6 AND PUSH9 0x10000000000000001 OR PUSH1 0x0 DUP1 MLOAD PUSH1 0x20 PUSH2 0x14E3 DUP4 CODECOPY DUP2 MLOAD SWAP2 MSTORE SSTORE PUSH2 0x3AE JUMP JUMPDEST PUSH1 0x40 MLOAD PUSH4 0xF92EE8A9 PUSH1 0xE0 SHL DUP2 MSTORE PUSH1 0x4 SWAP1 REVERT JUMPDEST SWAP1 POP ISZERO DUP9 PUSH2 0x37D JUMP JUMPDEST ADDRESS EXTCODESIZE ISZERO SWAP2 POP PUSH2 0x375 JUMP JUMPDEST POP PUSH1 0xFF DUP6 PUSH1 0x40 SHR AND ISZERO PUSH2 0x360 JUMP JUMPDEST CALLVALUE PUSH2 0x11B JUMPI PUSH1 0x20 CALLDATASIZE PUSH1 0x3 NOT ADD SLT PUSH2 0x11B JUMPI PUSH2 0x95F PUSH2 0xDB6 JUMP JUMPDEST PUSH2 0x967 PUSH2 0xE10 JUMP JUMPDEST PUSH1 0x1 DUP1 SLOAD PUSH1 0x1 PUSH1 0x1 PUSH1 0xA0 SHL SUB NOT AND PUSH1 0x1 PUSH1 0x1 PUSH1 0xA0 SHL SUB SWAP3 SWAP1 SWAP3 AND SWAP2 DUP3 OR SWAP1 SSTORE PUSH32 0xC4A4EA6ABC08BD7F8DF3DB8A1C998F19B3E0C348176F93732CD54DB1A4B50136 PUSH1 0x0 DUP1 LOG2 STOP JUMPDEST CALLVALUE PUSH2 0x11B JUMPI PUSH1 0x0 CALLDATASIZE PUSH1 0x3 NOT ADD SLT PUSH2 0x11B JUMPI PUSH1 0x20 PUSH2 0xFFFF PUSH1 0x1 SLOAD PUSH1 0xA0 SHR AND PUSH1 0x40 MLOAD SWAP1 DUP2 MSTORE RETURN JUMPDEST CALLVALUE PUSH2 0x11B JUMPI PUSH1 0x0 CALLDATASIZE PUSH1 0x3 NOT ADD SLT PUSH2 0x11B JUMPI PUSH1 0x0 SLOAD PUSH1 0x40 MLOAD PUSH1 0x1 PUSH1 0x1 PUSH1 0xA0 SHL SUB SWAP1 SWAP2 AND DUP2 MSTORE PUSH1 0x20 SWAP1 RETURN JUMPDEST CALLVALUE PUSH2 0x11B JUMPI PUSH1 0x0 CALLDATASIZE PUSH1 0x3 NOT ADD SLT PUSH2 0x11B JUMPI PUSH2 0xA14 PUSH2 0xE10 JUMP JUMPDEST PUSH1 0x0 DUP1 MLOAD PUSH1 0x20 PUSH2 0x1483 DUP4 CODECOPY DUP2 MLOAD SWAP2 MSTORE DUP1 SLOAD PUSH1 0x1 PUSH1 0x1 PUSH1 0xA0 SHL SUB NOT DUP2 AND SWAP1 SWAP2 SSTORE PUSH1 0x0 SWAP1 PUSH1 0x1 PUSH1 0x1 PUSH1 0xA0 SHL SUB AND PUSH32 0x8BE0079C531659141344CD1FD0A4F28419497F9722A3DAAFE3B4186F6B6457E0 DUP3 DUP1 LOG3 STOP JUMPDEST CALLVALUE PUSH2 0x11B JUMPI PUSH1 0x20 CALLDATASIZE PUSH1 0x3 NOT ADD SLT PUSH2 0x11B JUMPI PUSH1 0x1 PUSH1 0x1 PUSH1 0xA0 SHL SUB PUSH2 0xA86 PUSH2 0xDB6 JUMP JUMPDEST AND PUSH1 0x0 MSTORE PUSH1 0x0 DUP1 MLOAD PUSH1 0x20 PUSH2 0x1443 DUP4 CODECOPY DUP2 MLOAD SWAP2 MSTORE PUSH1 0x20 MSTORE PUSH1 0x20 PUSH1 0x40 PUSH1 0x0 KECCAK256 SLOAD PUSH1 0x40 MLOAD SWAP1 DUP2 MSTORE RETURN JUMPDEST CALLVALUE PUSH2 0x11B JUMPI PUSH1 0x0 CALLDATASIZE PUSH1 0x3 NOT ADD SLT PUSH2 0x11B JUMPI PUSH1 0x20 PUSH1 0xFF PUSH1 0x1 SLOAD PUSH1 0xC0 SHR AND PUSH1 0x40 MLOAD SWAP1 ISZERO ISZERO DUP2 MSTORE RETURN JUMPDEST CALLVALUE PUSH2 0x11B JUMPI PUSH1 0x0 CALLDATASIZE PUSH1 0x3 NOT ADD SLT PUSH2 0x11B JUMPI PUSH1 0x1 SLOAD PUSH1 0x40 MLOAD PUSH1 0x1 PUSH1 0x1 PUSH1 0xA0 SHL SUB SWAP1 SWAP2 AND DUP2 MSTORE PUSH1 0x20 SWAP1 RETURN JUMPDEST CALLVALUE PUSH2 0x11B JUMPI PUSH1 0x0 CALLDATASIZE PUSH1 0x3 NOT ADD SLT PUSH2 0x11B JUMPI PUSH1 0x20 PUSH1 0x40 MLOAD PUSH1 0x12 DUP2 MSTORE RETURN JUMPDEST CALLVALUE PUSH2 0x11B JUMPI PUSH1 0x0 CALLDATASIZE PUSH1 0x3 NOT ADD SLT PUSH2 0x11B JUMPI PUSH1 0x20 PUSH2 0xFFFF PUSH1 0x1 SLOAD PUSH1 0xB0 SHR AND PUSH1 0x40 MLOAD SWAP1 DUP2 MSTORE RETURN JUMPDEST CALLVALUE PUSH2 0x11B JUMPI PUSH1 0x60 CALLDATASIZE PUSH1 0x3 NOT ADD SLT PUSH2 0x11B JUMPI PUSH2 0xB55 PUSH2 0xDB6 JUMP JUMPDEST PUSH2 0xB5D PUSH2 0xDCC JUMP JUMPDEST PUSH1 0x44 CALLDATALOAD SWAP1 PUSH2 0xB6A DUP4 PUSH2 0xF19 JUMP JUMPDEST CALLER PUSH1 0x0 MSTORE PUSH1 0x20 MSTORE PUSH1 0x40 PUSH1 0x0 KECCAK256 SLOAD SWAP3 PUSH1 0x0 NOT DUP5 LT PUSH2 0xB8C JUMPI JUMPDEST PUSH2 0x18F SWAP4 POP PUSH2 0xF52 JUMP JUMPDEST DUP3 DUP5 LT PUSH2 0xBFB JUMPI PUSH1 0x1 PUSH1 0x1 PUSH1 0xA0 SHL SUB DUP2 AND ISZERO PUSH2 0xBE2 JUMPI CALLER ISZERO PUSH2 0xBC9 JUMPI DUP3 PUSH2 0x18F SWAP5 PUSH2 0xBB6 DUP4 PUSH2 0xF19 JUMP JUMPDEST CALLER PUSH1 0x0 MSTORE PUSH1 0x20 MSTORE SUB PUSH1 0x40 PUSH1 0x0 KECCAK256 SSTORE PUSH2 0xB82 JUMP JUMPDEST PUSH1 0x40 MLOAD PUSH4 0x4A1406B1 PUSH1 0xE1 SHL DUP2 MSTORE PUSH1 0x0 PUSH1 0x4 DUP3 ADD MSTORE PUSH1 0x24 SWAP1 REVERT JUMPDEST PUSH1 0x40 MLOAD PUSH4 0xE602DF05 PUSH1 0xE0 SHL DUP2 MSTORE PUSH1 0x0 PUSH1 0x4 DUP3 ADD MSTORE PUSH1 0x24 SWAP1 REVERT JUMPDEST PUSH1 0x40 MLOAD PUSH4 0x7DC7A0D9 PUSH1 0xE1 SHL DUP2 MSTORE CALLER PUSH1 0x4 DUP3 ADD MSTORE PUSH1 0x24 DUP2 ADD DUP6 SWAP1 MSTORE PUSH1 0x44 DUP2 ADD DUP5 SWAP1 MSTORE PUSH1 0x64 SWAP1 REVERT JUMPDEST CALLVALUE PUSH2 0x11B JUMPI PUSH1 0x0 CALLDATASIZE PUSH1 0x3 NOT ADD SLT PUSH2 0x11B JUMPI PUSH1 0x20 PUSH1 0x0 DUP1 MLOAD PUSH1 0x20 PUSH2 0x14A3 DUP4 CODECOPY DUP2 MLOAD SWAP2 MSTORE SLOAD PUSH1 0x40 MLOAD SWAP1 DUP2 MSTORE RETURN JUMPDEST CALLVALUE PUSH2 0x11B JUMPI PUSH1 0x40 CALLDATASIZE PUSH1 0x3 NOT ADD SLT PUSH2 0x11B JUMPI PUSH2 0xC65 PUSH2 0xDB6 JUMP JUMPDEST PUSH1 0x24 CALLDATALOAD SWAP1 CALLER ISZERO PUSH2 0xBE2 JUMPI PUSH1 0x1 PUSH1 0x1 PUSH1 0xA0 SHL SUB AND SWAP1 DUP2 ISZERO PUSH2 0xBC9 JUMPI PUSH2 0xC88 CALLER PUSH2 0xF19 JUMP JUMPDEST DUP3 PUSH1 0x0 MSTORE PUSH1 0x20 MSTORE DUP1 PUSH1 0x40 PUSH1 0x0 KECCAK256 SSTORE PUSH1 0x40 MLOAD SWAP1 DUP2 MSTORE PUSH32 0x8C5BE1E5EBEC7D5BD14F71427D1E84F3DD0314C0F7B2291E5B200AC8C7C3B925 PUSH1 0x20 CALLER SWAP3 LOG3 PUSH1 0x20 PUSH1 0x40 MLOAD PUSH1 0x1 DUP2 MSTORE RETURN JUMPDEST CALLVALUE PUSH2 0x11B JUMPI PUSH1 0x0 CALLDATASIZE PUSH1 0x3 NOT ADD SLT PUSH2 0x11B JUMPI PUSH1 0x0 PUSH1 0x0 DUP1 MLOAD PUSH1 0x20 PUSH2 0x1423 DUP4 CODECOPY DUP2 MLOAD SWAP2 MSTORE DUP1 SLOAD PUSH2 0xCFA DUP2 PUSH2 0xEBD JUMP JUMPDEST DUP1 DUP6 MSTORE SWAP2 PUSH1 0x1 SWAP2 DUP1 DUP4 AND SWAP1 DUP2 ISZERO PUSH2 0x24E JUMPI POP PUSH1 0x1 EQ PUSH2 0xD23 JUMPI PUSH2 0x200 DUP6 PUSH2 0x1F4 DUP2 DUP8 SUB DUP3 PUSH2 0xEF7 JUMP JUMPDEST PUSH1 0x0 SWAP1 DUP2 MSTORE SWAP3 POP PUSH1 0x0 DUP1 MLOAD PUSH1 0x20 PUSH2 0x1403 DUP4 CODECOPY DUP2 MLOAD SWAP2 MSTORE JUMPDEST DUP3 DUP5 LT PUSH2 0xD55 JUMPI POP POP POP DUP2 ADD PUSH1 0x20 ADD PUSH2 0x1F4 DUP3 PUSH2 0x200 PUSH2 0x1E4 JUMP JUMPDEST DUP1 SLOAD PUSH1 0x20 DUP6 DUP8 ADD DUP2 ADD SWAP2 SWAP1 SWAP2 MSTORE SWAP1 SWAP4 ADD SWAP3 DUP2 ADD PUSH2 0xD3A JUMP JUMPDEST PUSH1 0x20 DUP1 DUP3 MSTORE DUP3 MLOAD DUP2 DUP4 ADD DUP2 SWAP1 MSTORE SWAP1 SWAP4 SWAP3 PUSH1 0x0 JUMPDEST DUP3 DUP2 LT PUSH2 0xDA2 JUMPI POP POP PUSH1 0x40 SWAP3 SWAP4 POP PUSH1 0x0 DUP4 DUP3 DUP5 ADD ADD MSTORE PUSH1 0x1F DUP1 NOT SWAP2 ADD AND ADD ADD SWAP1 JUMP JUMPDEST DUP2 DUP2 ADD DUP7 ADD MLOAD DUP5 DUP3 ADD PUSH1 0x40 ADD MSTORE DUP6 ADD PUSH2 0xD80 JUMP JUMPDEST PUSH1 0x4 CALLDATALOAD SWAP1 PUSH1 0x1 PUSH1 0x1 PUSH1 0xA0 SHL SUB DUP3 AND DUP3 SUB PUSH2 0x11B JUMPI JUMP JUMPDEST PUSH1 0x24 CALLDATALOAD SWAP1 PUSH1 0x1 PUSH1 0x1 PUSH1 0xA0 SHL SUB DUP3 AND DUP3 SUB PUSH2 0x11B JUMPI JUMP JUMPDEST SWAP2 DUP2 PUSH1 0x1F DUP5 ADD SLT ISZERO PUSH2 0x11B JUMPI DUP3 CALLDATALOAD SWAP2 PUSH8 0xFFFFFFFFFFFFFFFF DUP4 GT PUSH2 0x11B JUMPI PUSH1 0x20 DUP4 DUP2 DUP7 ADD SWAP6 ADD ADD GT PUSH2 0x11B JUMPI JUMP JUMPDEST PUSH1 0x0 DUP1 MLOAD PUSH1 0x20 PUSH2 0x1483 DUP4 CODECOPY DUP2 MLOAD SWAP2 MSTORE SLOAD PUSH1 0x1 PUSH1 0x1 PUSH1 0xA0 SHL SUB AND CALLER SUB PUSH2 0xE31 JUMPI JUMP JUMPDEST PUSH1 0x40 MLOAD PUSH4 0x118CDAA7 PUSH1 0xE0 SHL DUP2 MSTORE CALLER PUSH1 0x4 DUP3 ADD MSTORE PUSH1 0x24 SWAP1 REVERT JUMPDEST PUSH1 0x1 PUSH1 0x1 PUSH1 0xA0 SHL SUB SWAP1 DUP2 AND SWAP1 DUP2 ISZERO PUSH2 0xEA4 JUMPI PUSH1 0x0 DUP1 MLOAD PUSH1 0x20 PUSH2 0x1483 DUP4 CODECOPY DUP2 MLOAD SWAP2 MSTORE DUP1 SLOAD PUSH1 0x1 PUSH1 0x1 PUSH1 0xA0 SHL SUB NOT DUP2 AND DUP5 OR SWAP1 SWAP2 SSTORE AND PUSH32 0x8BE0079C531659141344CD1FD0A4F28419497F9722A3DAAFE3B4186F6B6457E0 PUSH1 0x0 DUP1 LOG3 JUMP JUMPDEST PUSH1 0x40 MLOAD PUSH4 0x1E4FBDF7 PUSH1 0xE0 SHL DUP2 MSTORE PUSH1 0x0 PUSH1 0x4 DUP3 ADD MSTORE PUSH1 0x24 SWAP1 REVERT JUMPDEST SWAP1 PUSH1 0x1 DUP3 DUP2 SHR SWAP3 AND DUP1 ISZERO PUSH2 0xEED JUMPI JUMPDEST PUSH1 0x20 DUP4 LT EQ PUSH2 0xED7 JUMPI JUMP JUMPDEST PUSH4 0x4E487B71 PUSH1 0xE0 SHL PUSH1 0x0 MSTORE PUSH1 0x22 PUSH1 0x4 MSTORE PUSH1 0x24 PUSH1 0x0 REVERT JUMPDEST SWAP2 PUSH1 0x7F AND SWAP2 PUSH2 0xECC JUMP JUMPDEST SWAP1 PUSH1 0x1F DUP1 NOT SWAP2 ADD AND DUP2 ADD SWAP1 DUP2 LT PUSH8 0xFFFFFFFFFFFFFFFF DUP3 GT OR PUSH2 0x6F6 JUMPI PUSH1 0x40 MSTORE JUMP JUMPDEST PUSH1 0x1 PUSH1 0x1 PUSH1 0xA0 SHL SUB AND PUSH1 0x0 SWAP1 DUP2 MSTORE PUSH32 0x52C63247E1F47DB19D5CE0460030C497F067CA4CEBF71BA98EEADABE20BACE01 PUSH1 0x20 MSTORE PUSH1 0x40 SWAP1 KECCAK256 SWAP1 JUMP JUMPDEST SWAP2 SWAP1 PUSH1 0x1 PUSH1 0x1 PUSH1 0xA0 SHL SUB DUP1 DUP5 AND ISZERO PUSH2 0xF8F JUMPI DUP2 AND ISZERO PUSH2 0xF76 JUMPI PUSH2 0xF74 SWAP3 PUSH2 0x1137 JUMP JUMPDEST JUMP JUMPDEST PUSH1 0x40 MLOAD PUSH4 0xEC442F05 PUSH1 0xE0 SHL DUP2 MSTORE PUSH1 0x0 PUSH1 0x4 DUP3 ADD MSTORE PUSH1 0x24 SWAP1 REVERT JUMPDEST PUSH1 0x40 MLOAD PUSH4 0x4B637E8F PUSH1 0xE1 SHL DUP2 MSTORE PUSH1 0x0 PUSH1 0x4 DUP3 ADD MSTORE PUSH1 0x24 SWAP1 REVERT JUMPDEST SWAP3 SWAP2 SWAP3 PUSH8 0xFFFFFFFFFFFFFFFF DUP3 GT PUSH2 0x6F6 JUMPI PUSH1 0x40 MLOAD SWAP2 PUSH2 0xFD2 PUSH1 0x1F DUP3 ADD PUSH1 0x1F NOT AND PUSH1 0x20 ADD DUP5 PUSH2 0xEF7 JUMP JUMPDEST DUP3 SWAP5 DUP2 DUP5 MSTORE DUP2 DUP4 ADD GT PUSH2 0x11B JUMPI DUP3 DUP2 PUSH1 0x20 SWAP4 DUP5 PUSH1 0x0 SWAP7 ADD CALLDATACOPY ADD ADD MSTORE JUMP JUMPDEST PUSH1 0xFF PUSH1 0x0 DUP1 MLOAD PUSH1 0x20 PUSH2 0x14E3 DUP4 CODECOPY DUP2 MLOAD SWAP2 MSTORE SLOAD PUSH1 0x40 SHR AND ISZERO PUSH2 0x100C JUMPI JUMP JUMPDEST PUSH1 0x40 MLOAD PUSH4 0x1AFCD79F PUSH1 0xE3 SHL DUP2 MSTORE PUSH1 0x4 SWAP1 REVERT JUMPDEST SWAP1 DUP1 ISZERO PUSH2 0x112E JUMPI PUSH1 0x1 SLOAD PUSH1 0x1 PUSH1 0x1 PUSH1 0xA0 SHL SUB SWAP1 PUSH2 0xFFFF SWAP1 DUP3 DUP2 AND DUP1 ISZERO DUP1 ISZERO SWAP3 SWAP2 DUP4 SWAP2 DUP3 PUSH2 0x1126 JUMPI JUMPDEST POP DUP4 PUSH2 0x111A JUMPI JUMPDEST DUP2 PUSH2 0x110E JUMPI JUMPDEST POP DUP1 PUSH2 0x1106 JUMPI JUMPDEST PUSH1 0x0 SWAP3 ISZERO PUSH2 0x10EE JUMPI POP DUP3 SWAP2 POP PUSH1 0xA0 SHR AND JUMPDEST AND DUP1 PUSH2 0x107D JUMPI JUMPDEST POP POP PUSH2 0xF74 SWAP2 PUSH2 0x1241 JUMP JUMPDEST DUP1 DUP4 MUL SWAP1 DUP4 DUP3 DIV SUB PUSH2 0x10BF JUMPI PUSH2 0x2710 SWAP1 DIV SWAP1 DUP2 ISZERO PUSH2 0x1072 JUMPI DUP2 DUP2 PUSH2 0x10AD SWAP3 PUSH1 0x0 SLOAD AND SWAP1 DUP2 ISZERO PUSH2 0x10D5 JUMPI JUMPDEST POP PUSH2 0x1241 JUMP JUMPDEST DUP2 SUB SWAP1 DUP2 GT PUSH2 0x10BF JUMPI PUSH2 0xF74 SWAP2 PUSH2 0x1241 JUMP JUMPDEST PUSH4 0x4E487B71 PUSH1 0xE0 SHL PUSH1 0x0 MSTORE PUSH1 0x11 PUSH1 0x4 MSTORE PUSH1 0x24 PUSH1 0x0 REVERT JUMPDEST SWAP1 POP PUSH1 0x0 DUP1 MLOAD PUSH1 0x20 PUSH2 0x1483 DUP4 CODECOPY DUP2 MLOAD SWAP2 MSTORE SLOAD AND CODESIZE PUSH2 0x10A7 JUMP JUMPDEST PUSH2 0x10F9 JUMPI JUMPDEST POP PUSH2 0x106B JUMP JUMPDEST DUP3 SWAP2 POP PUSH1 0xB0 SHR AND CODESIZE PUSH2 0x10F3 JUMP JUMPDEST POP PUSH1 0x0 PUSH2 0x105A JUMP JUMPDEST SWAP1 POP DUP5 DUP8 AND EQ CODESIZE PUSH2 0x1053 JUMP JUMPDEST DUP8 DUP7 AND ISZERO ISZERO SWAP4 POP PUSH2 0x104D JUMP JUMPDEST SWAP4 POP CODESIZE PUSH2 0x1046 JUMP JUMPDEST PUSH2 0xF74 SWAP2 PUSH2 0x1241 JUMP JUMPDEST SWAP2 SWAP1 DUP2 ISZERO PUSH2 0x1238 JUMPI PUSH1 0x1 SLOAD PUSH1 0x1 PUSH1 0x1 PUSH1 0xA0 SHL SUB SWAP1 PUSH2 0xFFFF SWAP1 DUP3 DUP2 AND DUP1 ISZERO ISZERO SWAP2 SWAP1 DUP3 SWAP1 DUP2 PUSH2 0x122C JUMPI JUMPDEST DUP4 PUSH2 0x1220 JUMPI JUMPDEST DUP2 PUSH2 0x1214 JUMPI JUMPDEST POP DUP1 PUSH2 0x1209 JUMPI JUMPDEST PUSH1 0x0 SWAP3 ISZERO PUSH2 0x11F1 JUMPI POP DUP3 SWAP2 POP PUSH1 0xA0 SHR AND JUMPDEST AND DUP1 PUSH2 0x1195 JUMPI JUMPDEST POP POP PUSH2 0xF74 SWAP3 PUSH2 0x12CC JUMP JUMPDEST DUP1 DUP5 MUL SWAP1 DUP5 DUP3 DIV SUB PUSH2 0x10BF JUMPI PUSH2 0x2710 SWAP1 DIV SWAP1 DUP2 ISZERO PUSH2 0x118A JUMPI DUP2 DUP2 PUSH2 0x11C6 SWAP3 PUSH1 0x0 SLOAD AND SWAP1 DUP2 ISZERO PUSH2 0x11D8 JUMPI JUMPDEST POP DUP7 PUSH2 0x12CC JUMP JUMPDEST DUP3 SUB SWAP2 DUP3 GT PUSH2 0x10BF JUMPI PUSH2 0xF74 SWAP3 PUSH2 0x12CC JUMP JUMPDEST SWAP1 POP PUSH1 0x0 DUP1 MLOAD PUSH1 0x20 PUSH2 0x1483 DUP4 CODECOPY DUP2 MLOAD SWAP2 MSTORE SLOAD AND CODESIZE PUSH2 0x11BF JUMP JUMPDEST PUSH2 0x11FC JUMPI JUMPDEST POP PUSH2 0x1183 JUMP JUMPDEST DUP3 SWAP2 POP PUSH1 0xB0 SHR AND CODESIZE PUSH2 0x11F6 JUMP JUMPDEST POP DUP4 DUP8 AND ISZERO ISZERO PUSH2 0x1172 JUMP JUMPDEST SWAP1 POP DUP5 DUP7 AND EQ CODESIZE PUSH2 0x116B JUMP JUMPDEST DUP7 DUP7 AND ISZERO ISZERO SWAP4 POP PUSH2 0x1165 JUMP JUMPDEST DUP9 DUP7 AND DUP2 EQ SWAP4 POP PUSH2 0x115F JUMP JUMPDEST PUSH2 0xF74 SWAP3 PUSH2 0x12CC JUMP JUMPDEST SWAP1 PUSH1 0x0 DUP1 MLOAD PUSH1 0x20 PUSH2 0x14A3 DUP4 CODECOPY DUP2 MLOAD SWAP2 MSTORE SWAP2 DUP3 SLOAD DUP3 DUP2 ADD DUP1 SWAP2 GT PUSH2 0x10BF JUMPI DUP4 SSTORE PUSH1 0x1 PUSH1 0x1 PUSH1 0xA0 SHL SUB AND SWAP2 PUSH1 0x0 SWAP2 PUSH32 0xDDF252AD1BE2C89B69C2B068FC378DAA952BA7F163C4A11628F55A4DF523B3EF SWAP2 PUSH1 0x20 SWAP2 SWAP1 DUP6 PUSH2 0x12A8 JUMPI DUP2 DUP2 SLOAD SUB SWAP1 SSTORE JUMPDEST PUSH1 0x40 MLOAD SWAP1 DUP2 MSTORE LOG3 JUMP JUMPDEST POP DUP5 DUP5 MSTORE PUSH1 0x0 DUP1 MLOAD PUSH1 0x20 PUSH2 0x1443 DUP4 CODECOPY DUP2 MLOAD SWAP2 MSTORE DUP3 MSTORE PUSH1 0x40 DUP5 KECCAK256 DUP2 DUP2 SLOAD ADD SWAP1 SSTORE PUSH2 0x129F JUMP JUMPDEST PUSH1 0x1 PUSH1 0x1 PUSH1 0xA0 SHL SUB DUP1 DUP3 AND SWAP3 SWAP1 SWAP2 DUP4 PUSH2 0x136F JUMPI POP SWAP1 PUSH1 0x0 DUP1 MLOAD PUSH1 0x20 PUSH2 0x14A3 DUP4 CODECOPY DUP2 MLOAD SWAP2 MSTORE SWAP1 DUP2 SLOAD SWAP3 DUP6 DUP5 ADD DUP1 SWAP5 GT PUSH2 0x10BF JUMPI PUSH32 0xDDF252AD1BE2C89B69C2B068FC378DAA952BA7F163C4A11628F55A4DF523B3EF SWAP4 PUSH1 0x20 SWAP4 SSTORE JUMPDEST AND SWAP4 DUP5 PUSH2 0x134A JUMPI PUSH1 0x0 DUP1 MLOAD PUSH1 0x20 PUSH2 0x14A3 DUP4 CODECOPY DUP2 MLOAD SWAP2 MSTORE DUP2 DUP2 SLOAD SUB SWAP1 SSTORE PUSH1 0x40 MLOAD SWAP1 DUP2 MSTORE LOG3 JUMP JUMPDEST DUP5 PUSH1 0x0 MSTORE PUSH1 0x0 DUP1 MLOAD PUSH1 0x20 PUSH2 0x1443 DUP4 CODECOPY DUP2 MLOAD SWAP2 MSTORE DUP3 MSTORE PUSH1 0x40 PUSH1 0x0 KECCAK256 DUP2 DUP2 SLOAD ADD SWAP1 SSTORE PUSH2 0x129F JUMP JUMPDEST DUP4 PUSH1 0x0 MSTORE PUSH1 0x0 DUP1 MLOAD PUSH1 0x20 PUSH2 0x1443 DUP4 CODECOPY DUP2 MLOAD SWAP2 MSTORE DUP1 PUSH1 0x20 MSTORE PUSH1 0x40 PUSH1 0x0 KECCAK256 SLOAD SWAP2 DUP7 DUP4 LT PUSH2 0x13CF JUMPI POP SWAP2 DUP6 PUSH32 0xDDF252AD1BE2C89B69C2B068FC378DAA952BA7F163C4A11628F55A4DF523B3EF SWAP5 SWAP3 PUSH1 0x20 SWAP5 DUP8 PUSH1 0x0 MSTORE DUP6 MSTORE SUB PUSH1 0x40 PUSH1 0x0 KECCAK256 SSTORE PUSH2 0x1325 JUMP JUMPDEST PUSH1 0x40 MLOAD PUSH4 0x391434E3 PUSH1 0xE2 SHL DUP2 MSTORE PUSH1 0x1 PUSH1 0x1 PUSH1 0xA0 SHL SUB SWAP2 SWAP1 SWAP2 AND PUSH1 0x4 DUP3 ADD MSTORE PUSH1 0x24 DUP2 ADD SWAP3 SWAP1 SWAP3 MSTORE POP PUSH1 0x44 DUP2 ADD DUP6 SWAP1 MSTORE PUSH1 0x64 SWAP1 REVERT INVALID 0x2A 0xE0 DUP11 DUP15 0x29 0x25 EXTCODEHASH PUSH10 0xAC5D979A101956AB8F8D SWAP14 PUSH30 0xED63FA7A83B16FC47648EAB052C63247E1F47DB19D5CE0460030C497F067 0xCA 0x4C 0xEB 0xF7 SHL 0xA9 DUP15 0xEA 0xDA 0xBE KECCAK256 0xBA 0xCE SUB MSTORE 0xC6 ORIGIN SELFBALANCE 0xE1 DELEGATECALL PUSH30 0xB19D5CE0460030C497F067CA4CEBF71BA98EEADABE20BACE0052C63247E1 DELEGATECALL PUSH30 0xB19D5CE0460030C497F067CA4CEBF71BA98EEADABE20BACE049016D09D72 0xD4 0xF 0xDA 0xE2 REVERT DUP13 0xEA 0xC6 0xB6 0x23 0x4C PUSH24 0x6214FD39C1CD1E609A0528C19930052C63247E1F47DB19D 0x5C 0xE0 CHAINID STOP ADDRESS 0xC4 SWAP8 CREATE PUSH8 0xCA4CEBF71BA98EEA 0xDA 0xBE KECCAK256 0xBA 0xCE MUL CHAINID LOG2 DUP1 RETURNDATACOPY MSIZE LOG4 0xDE 0x4E PUSH27 0x4C574B1243F25977AC4C77D5A1A4A609B5394CEBB4A2AAF0C57E16 DUP5 0xD CREATE BLOCKHASH CALL POP DUP9 0xDC 0x2F DUP2 INVALID CODECOPY SHR CODECOPY 0x23 0xBE 0xC7 RETURNDATACOPY 0x23 0xA9 PUSH7 0x2EFC9C229C6A00 LOG2 PUSH5 0x6970667358 0x22 SLT KECCAK256 JUMPDEST SWAP6 0xB5 0xC0 RETURNDATASIZE MSIZE PUSH28 0xC8BCE9EF699763D093B0C6D00ECD3A84DA24D2D513F51C4D4764736F PUSH13 0x63430008140033000000000000 "},"methodIdentifiers":{"allowance(address,address)":"dd62ed3e","approve(address,uint256)":"095ea7b3","balanceOf(address)":"70a08231","buyFeeBps()":"77d2300e","decimals()":"313ce567","feesLocked()":"5a27a1f9","initialize(address,string,string,uint256,address,uint16,uint16)":"8a7fb3e5","marketingWallet()":"75f0a874","name()":"06fdde03","owner()":"8da5cb5b","renounceOwnership()":"715018a6","sellFeeBps()":"23cbe1f3","setPair(address)":"8187f516","symbol()":"95d89b41","totalSupply()":"18160ddd","transfer(address,uint256)":"a9059cbb","transferFrom(address,address,uint256)":"23b872dd","transferOwnership(address)":"f2fde38b","uniswapV2Pair()":"49bd5a5e"}}}}}