{"contracts/launch/LinearVestingVaultUpgradeable.sol":{"LinearVestingVaultUpgradeable":{"abi":[{"inputs":[],"name":"InvalidInitialization","type":"error"},{"inputs":[],"name":"NotInitializing","type":"error"},{"anonymous":false,"inputs":[{"indexed":false,"internalType":"uint64","name":"version","type":"uint64"}],"name":"Initialized","type":"event"},{"anonymous":false,"inputs":[{"indexed":false,"internalType":"uint256","name":"amount","type":"uint256"},{"indexed":false,"internalType":"uint256","name":"totalReleased","type":"uint256"},{"indexed":false,"internalType":"uint256","name":"remaining","type":"uint256"}],"name":"Released","type":"event"},{"inputs":[],"name":"beneficiary","outputs":[{"internalType":"address","name":"","type":"address"}],"stateMutability":"view","type":"function"},{"inputs":[],"name":"cliffEndTime","outputs":[{"internalType":"uint64","name":"","type":"uint64"}],"stateMutability":"view","type":"function"},{"inputs":[],"name":"cliffSeconds","outputs":[{"internalType":"uint64","name":"","type":"uint64"}],"stateMutability":"view","type":"function"},{"inputs":[],"name":"durationSeconds","outputs":[{"internalType":"uint64","name":"","type":"uint64"}],"stateMutability":"view","type":"function"},{"inputs":[],"name":"emergencyWithdraw","outputs":[],"stateMutability":"nonpayable","type":"function"},{"inputs":[{"internalType":"address","name":"token_","type":"address"},{"internalType":"address","name":"beneficiary_","type":"address"},{"internalType":"uint64","name":"start_","type":"uint64"},{"internalType":"uint64","name":"cliffSeconds_","type":"uint64"},{"internalType":"uint64","name":"durationSeconds_","type":"uint64"},{"internalType":"uint256","name":"totalAllocation_","type":"uint256"}],"name":"initialize","outputs":[],"stateMutability":"nonpayable","type":"function"},{"inputs":[],"name":"isFullyVested","outputs":[{"internalType":"bool","name":"","type":"bool"}],"stateMutability":"view","type":"function"},{"inputs":[],"name":"releasable","outputs":[{"internalType":"uint256","name":"","type":"uint256"}],"stateMutability":"view","type":"function"},{"inputs":[],"name":"release","outputs":[],"stateMutability":"nonpayable","type":"function"},{"inputs":[],"name":"released","outputs":[{"internalType":"uint256","name":"","type":"uint256"}],"stateMutability":"view","type":"function"},{"inputs":[],"name":"remaining","outputs":[{"internalType":"uint256","name":"","type":"uint256"}],"stateMutability":"view","type":"function"},{"inputs":[],"name":"start","outputs":[{"internalType":"uint64","name":"","type":"uint64"}],"stateMutability":"view","type":"function"},{"inputs":[],"name":"token","outputs":[{"internalType":"contract IERC20","name":"","type":"address"}],"stateMutability":"view","type":"function"},{"inputs":[],"name":"totalAllocation","outputs":[{"internalType":"uint256","name":"","type":"uint256"}],"stateMutability":"view","type":"function"},{"inputs":[],"name":"totalReleased","outputs":[{"internalType":"uint256","name":"","type":"uint256"}],"stateMutability":"view","type":"function"},{"inputs":[{"internalType":"uint64","name":"timestamp","type":"uint64"}],"name":"vestedAmount","outputs":[{"internalType":"uint256","name":"","type":"uint256"}],"stateMutability":"view","type":"function"},{"inputs":[],"name":"vestingEndTime","outputs":[{"internalType":"uint64","name":"","type":"uint64"}],"stateMutability":"view","type":"function"}],"evm":{"bytecode":{"linkReferences":{},"object":"6080806040523461001657610c9b908161001c8239f35b600080fdfe6040608081526004908136101561001557600080fd5b600091823560e01c9081630a17b06b146109cb578163160a341e1461099857816338af3eed1461096f57816355234ec01461094857816379203dc4146109295781638341ee721461090157816386d1a69f146106b657816386fab45e1461067957816396132521146101795781639acba2af14610650578163be9a655514610625578163c5fa3da314610332578163db2e21bc1461019b578163e33b7de31461017957508063ef15bf2e1461012b578063fbccedae146101085763fc0c546a146100de57600080fd5b34610104578160031936011261010457905490516001600160a01b039091168152602090f35b5080fd5b5034610104578160031936011261010457602090610124610b59565b9051908152f35b50346101045781600319360112610104576020906001600160401b0361015381421115610b0b565b8061016c8160015460a01c1682600254861c16906109fc565b1690421610159051908152f35b90503461019757826003193601126101975760209250549051908152f35b8280fd5b9050346101975782600319360112610197576001546001600160a01b03908116906101c7338314610b95565b845416918351926370a0823160e01b845230828501526020928385602481855afa9485156103285787956102f5575b5084156102c5576003548355855163a9059cbb60e01b81526001600160a01b039091168184019081526020810186905287949392849183919082908890829060400103925af19081156102bb579161027d8594927ff854feef4c325cc8fcfad1a693b62c4383c8d228c4ca0bc52f9e06095338a5f19894606098979161028e575b50610c27565b54908251948552840152820152a180f35b6102ae9150843d86116102b4575b6102a68183610bd3565b810190610c0a565b38610277565b503d61029c565b86513d86823e3d90fd5b855162461bcd60e51b8152808401859052600a6024820152696e6f2062616c616e636560b01b6044820152606490fd5b9094508381813d8311610321575b61030d8183610bd3565b8101031261031d575193386101f6565b8680fd5b503d610303565b86513d89823e3d90fd5b9050346101975760c0366003190112610197576001600160a01b0381358181169081900361062157602492833592831680930361061d5760449182356001600160401b03948582168203610619576064928335938785168095036106155760843595888716978888036106115760ff9a60a435998d7ff0c57e16840df040f15088dc2f81fe391c3923bec73e23a9662efc9c229c6a009d8e5480921c1615809d821680159182610609575b5060011490816105ff575b1590816105f6575b506105e65767ffffffffffffffff1981166001178e558c6105c7575b50851561059e57861561056f5780156105435788116105125789156104e557505050506bffffffffffffffffffffffff60a01b8a5416178955600154916001600160401b0360a01b9060a01b169163ffffffff60e01b1617176001556fffffffffffffffff000000000000000060025492871b16916fffffffffffffffffffffffffffffffff191617176002556003556104a4578280f35b805468ff00000000000000001916905551600181527fc7f505b2f371ae2175ee4913f4499e1f2633a7b5936321eed1cdaeb6115181d290602090a138808280f35b90600c6b0616c6c6f636174696f6e3d360a41b9260208f519562461bcd60e51b8752860152840152820152fd5b9060106f323ab930ba34b7b7101e1031b634b33360811b9260208f519562461bcd60e51b8752860152840152820152fd5b5090600a6906475726174696f6e3d360b41b9260208f519562461bcd60e51b8752860152840152820152fd5b5090600d6c062656e65666963696172793d3609c1b9260208f519562461bcd60e51b8752860152840152820152fd5b50906007660746f6b656e3d360cc1b9260208f519562461bcd60e51b8752860152840152820152fd5b68ffffffffffffffffff191668010000000000000001178d553861040c565b8e5163f92ee8a960e01b81528590fd5b905015386103f0565b303b1591506103e8565b91508e6103dd565b8c80fd5b8a80fd5b8880fd5b8580fd5b8480fd5b5050346101045781600319360112610104576020906001600160401b0360015460a01c169051908152f35b5050346101045781600319360112610104576002548151911c6001600160401b03168152602090f35b5050346101045781600319360112610104576020906001600160401b036106ae8160015460a01c1682600254851c16906109fc565b915191168152f35b9050346101975782600319360112610197576001546001600160a01b03908116916106e2338414610b95565b6106ea610b59565b9283156108c9578154926106fe8585610a46565b6003541061088657865416908551936370a0823160e01b855230848601526020948581602481875afa801561087c5787918a9161084b575b50106108085761078592859261074d888094610a46565b8655885163a9059cbb60e01b81526001600160a01b03909116818701908152602081019390935293849283918b918391604090910190565b03925af19081156107fe57916107c87ff854feef4c325cc8fcfad1a693b62c4383c8d228c4ca0bc52f9e06095338a5f19692606096959489916107e75750610c27565b6107d760035491548092610b4c565b928251948552840152820152a180f35b6102ae9150853d87116102b4576102a68183610bd3565b85513d88823e3d90fd5b865162461bcd60e51b8152808501869052601d60248201527f696e73756666696369656e7420636f6e74726163742062616c616e63650000006044820152606490fd5b809250878092503d8311610875575b6108648183610bd3565b810103126106195786905138610736565b503d61085a565b88513d8b823e3d90fd5b855162461bcd60e51b8152602081850152601a60248201527f72656c65617365206578636565647320616c6c6f636174696f6e0000000000006044820152606490fd5b845162461bcd60e51b815260208184015260126024820152716e6f7468696e6720746f2072656c6561736560701b6044820152606490fd5b5050346101045781600319360112610104576020906001600160401b03600254169051908152f35b5050346101045781600319360112610104576020906003549051908152f35b82843461096c578060031936011261096c5750610124602092600354905490610b4c565b80fd5b50503461010457816003193601126101045760015490516001600160a01b039091168152602090f35b5050346101045781600319360112610104576020906001600160401b036106ae8160015460a01c168260025416906109fc565b9050346101975760203660031901126101975735916001600160401b038316830361096c5750610124602092610a53565b9190916001600160401b0380809416911601918211610a1757565b634e487b7160e01b600052601160045260246000fd5b6001600160401b039182169082160391908211610a1757565b91908201809211610a1757565b6001600160401b038060015460a01c16916002549282841690610a7682826109fc565b94848416908587168210610aff57610a9586809260401c1680946109fc565b161115610af4578391610aa791610a2d565b16928315610aea57610ab891610a2d565b1660035481810291818304811482151715610a175760018101809111610a1757831115610ae457500490565b91505090565b5050505060035490565b505050505060035490565b50505050505050600090565b15610b1257565b60405162461bcd60e51b815260206004820152601260248201527174696d657374616d70206f766572666c6f7760701b6044820152606490fd5b91908203918211610a1757565b610b776001600160401b03610b7081421115610b0b565b4216610a53565b60045480821115610b8e57610b8b91610b4c565b90565b5050600090565b15610b9c57565b60405162461bcd60e51b815260206004820152600f60248201526e6e6f742062656e656669636961727960881b6044820152606490fd5b90601f801991011681019081106001600160401b03821117610bf457604052565b634e487b7160e01b600052604160045260246000fd5b90816020910312610c2257518015158103610c225790565b600080fd5b15610c2e57565b60405162461bcd60e51b815260206004820152600f60248201526e1d1c985b9cd9995c8819985a5b1959608a1b6044820152606490fdfea2646970667358221220e732a2ea74c83b13998796e97697bb3b2a728cc3a69da95649b0fe30209992cf64736f6c63430008140033","opcodes":"PUSH1 0x80 DUP1 PUSH1 0x40 MSTORE CALLVALUE PUSH2 0x16 JUMPI PUSH2 0xC9B SWAP1 DUP2 PUSH2 0x1C DUP3 CODECOPY RETURN JUMPDEST PUSH1 0x0 DUP1 REVERT INVALID PUSH1 0x40 PUSH1 0x80 DUP2 MSTORE PUSH1 0x4 SWAP1 DUP2 CALLDATASIZE LT ISZERO PUSH2 0x15 JUMPI PUSH1 0x0 DUP1 REVERT JUMPDEST PUSH1 0x0 SWAP2 DUP3 CALLDATALOAD PUSH1 0xE0 SHR SWAP1 DUP2 PUSH4 0xA17B06B EQ PUSH2 0x9CB JUMPI DUP2 PUSH4 0x160A341E EQ PUSH2 0x998 JUMPI DUP2 PUSH4 0x38AF3EED EQ PUSH2 0x96F JUMPI DUP2 PUSH4 0x55234EC0 EQ PUSH2 0x948 JUMPI DUP2 PUSH4 0x79203DC4 EQ PUSH2 0x929 JUMPI DUP2 PUSH4 0x8341EE72 EQ PUSH2 0x901 JUMPI DUP2 PUSH4 0x86D1A69F EQ PUSH2 0x6B6 JUMPI DUP2 PUSH4 0x86FAB45E EQ PUSH2 0x679 JUMPI DUP2 PUSH4 0x96132521 EQ PUSH2 0x179 JUMPI DUP2 PUSH4 0x9ACBA2AF EQ PUSH2 0x650 JUMPI DUP2 PUSH4 0xBE9A6555 EQ PUSH2 0x625 JUMPI DUP2 PUSH4 0xC5FA3DA3 EQ PUSH2 0x332 JUMPI DUP2 PUSH4 0xDB2E21BC EQ PUSH2 0x19B JUMPI DUP2 PUSH4 0xE33B7DE3 EQ PUSH2 0x179 JUMPI POP DUP1 PUSH4 0xEF15BF2E EQ PUSH2 0x12B JUMPI DUP1 PUSH4 0xFBCCEDAE EQ PUSH2 0x108 JUMPI PUSH4 0xFC0C546A EQ PUSH2 0xDE JUMPI PUSH1 0x0 DUP1 REVERT JUMPDEST CALLVALUE PUSH2 0x104 JUMPI DUP2 PUSH1 0x3 NOT CALLDATASIZE ADD SLT PUSH2 0x104 JUMPI SWAP1 SLOAD SWAP1 MLOAD PUSH1 0x1 PUSH1 0x1 PUSH1 0xA0 SHL SUB SWAP1 SWAP2 AND DUP2 MSTORE PUSH1 0x20 SWAP1 RETURN JUMPDEST POP DUP1 REVERT JUMPDEST POP CALLVALUE PUSH2 0x104 JUMPI DUP2 PUSH1 0x3 NOT CALLDATASIZE ADD SLT PUSH2 0x104 JUMPI PUSH1 0x20 SWAP1 PUSH2 0x124 PUSH2 0xB59 JUMP JUMPDEST SWAP1 MLOAD SWAP1 DUP2 MSTORE RETURN JUMPDEST POP CALLVALUE PUSH2 0x104 JUMPI DUP2 PUSH1 0x3 NOT CALLDATASIZE ADD SLT PUSH2 0x104 JUMPI PUSH1 0x20 SWAP1 PUSH1 0x1 PUSH1 0x1 PUSH1 0x40 SHL SUB PUSH2 0x153 DUP2 TIMESTAMP GT ISZERO PUSH2 0xB0B JUMP JUMPDEST DUP1 PUSH2 0x16C DUP2 PUSH1 0x1 SLOAD PUSH1 0xA0 SHR AND DUP3 PUSH1 0x2 SLOAD DUP7 SHR AND SWAP1 PUSH2 0x9FC JUMP JUMPDEST AND SWAP1 TIMESTAMP AND LT ISZERO SWAP1 MLOAD SWAP1 DUP2 MSTORE RETURN JUMPDEST SWAP1 POP CALLVALUE PUSH2 0x197 JUMPI DUP3 PUSH1 0x3 NOT CALLDATASIZE ADD SLT PUSH2 0x197 JUMPI PUSH1 0x20 SWAP3 POP SLOAD SWAP1 MLOAD SWAP1 DUP2 MSTORE RETURN JUMPDEST DUP3 DUP1 REVERT JUMPDEST SWAP1 POP CALLVALUE PUSH2 0x197 JUMPI DUP3 PUSH1 0x3 NOT CALLDATASIZE ADD SLT PUSH2 0x197 JUMPI PUSH1 0x1 SLOAD PUSH1 0x1 PUSH1 0x1 PUSH1 0xA0 SHL SUB SWAP1 DUP2 AND SWAP1 PUSH2 0x1C7 CALLER DUP4 EQ PUSH2 0xB95 JUMP JUMPDEST DUP5 SLOAD AND SWAP2 DUP4 MLOAD SWAP3 PUSH4 0x70A08231 PUSH1 0xE0 SHL DUP5 MSTORE ADDRESS DUP3 DUP6 ADD MSTORE PUSH1 0x20 SWAP3 DUP4 DUP6 PUSH1 0x24 DUP2 DUP6 GAS STATICCALL SWAP5 DUP6 ISZERO PUSH2 0x328 JUMPI DUP8 SWAP6 PUSH2 0x2F5 JUMPI JUMPDEST POP DUP5 ISZERO PUSH2 0x2C5 JUMPI PUSH1 0x3 SLOAD DUP4 SSTORE DUP6 MLOAD PUSH4 0xA9059CBB PUSH1 0xE0 SHL DUP2 MSTORE PUSH1 0x1 PUSH1 0x1 PUSH1 0xA0 SHL SUB SWAP1 SWAP2 AND DUP2 DUP5 ADD SWAP1 DUP2 MSTORE PUSH1 0x20 DUP2 ADD DUP7 SWAP1 MSTORE DUP8 SWAP5 SWAP4 SWAP3 DUP5 SWAP2 DUP4 SWAP2 SWAP1 DUP3 SWAP1 DUP9 SWAP1 DUP3 SWAP1 PUSH1 0x40 ADD SUB SWAP3 GAS CALL SWAP1 DUP2 ISZERO PUSH2 0x2BB JUMPI SWAP2 PUSH2 0x27D DUP6 SWAP5 SWAP3 PUSH32 0xF854FEEF4C325CC8FCFAD1A693B62C4383C8D228C4CA0BC52F9E06095338A5F1 SWAP9 SWAP5 PUSH1 0x60 SWAP9 SWAP8 SWAP2 PUSH2 0x28E JUMPI JUMPDEST POP PUSH2 0xC27 JUMP JUMPDEST SLOAD SWAP1 DUP3 MLOAD SWAP5 DUP6 MSTORE DUP5 ADD MSTORE DUP3 ADD MSTORE LOG1 DUP1 RETURN JUMPDEST PUSH2 0x2AE SWAP2 POP DUP5 RETURNDATASIZE DUP7 GT PUSH2 0x2B4 JUMPI JUMPDEST PUSH2 0x2A6 DUP2 DUP4 PUSH2 0xBD3 JUMP JUMPDEST DUP2 ADD SWAP1 PUSH2 0xC0A JUMP JUMPDEST CODESIZE PUSH2 0x277 JUMP JUMPDEST POP RETURNDATASIZE PUSH2 0x29C JUMP JUMPDEST DUP7 MLOAD RETURNDATASIZE DUP7 DUP3 RETURNDATACOPY RETURNDATASIZE SWAP1 REVERT JUMPDEST DUP6 MLOAD PUSH3 0x461BCD PUSH1 0xE5 SHL DUP2 MSTORE DUP1 DUP5 ADD DUP6 SWAP1 MSTORE PUSH1 0xA PUSH1 0x24 DUP3 ADD MSTORE PUSH10 0x6E6F2062616C616E6365 PUSH1 0xB0 SHL PUSH1 0x44 DUP3 ADD MSTORE PUSH1 0x64 SWAP1 REVERT JUMPDEST SWAP1 SWAP5 POP DUP4 DUP2 DUP2 RETURNDATASIZE DUP4 GT PUSH2 0x321 JUMPI JUMPDEST PUSH2 0x30D DUP2 DUP4 PUSH2 0xBD3 JUMP JUMPDEST DUP2 ADD SUB SLT PUSH2 0x31D JUMPI MLOAD SWAP4 CODESIZE PUSH2 0x1F6 JUMP JUMPDEST DUP7 DUP1 REVERT JUMPDEST POP RETURNDATASIZE PUSH2 0x303 JUMP JUMPDEST DUP7 MLOAD RETURNDATASIZE DUP10 DUP3 RETURNDATACOPY RETURNDATASIZE SWAP1 REVERT JUMPDEST SWAP1 POP CALLVALUE PUSH2 0x197 JUMPI PUSH1 0xC0 CALLDATASIZE PUSH1 0x3 NOT ADD SLT PUSH2 0x197 JUMPI PUSH1 0x1 PUSH1 0x1 PUSH1 0xA0 SHL SUB DUP2 CALLDATALOAD DUP2 DUP2 AND SWAP1 DUP2 SWAP1 SUB PUSH2 0x621 JUMPI PUSH1 0x24 SWAP3 DUP4 CALLDATALOAD SWAP3 DUP4 AND DUP1 SWAP4 SUB PUSH2 0x61D JUMPI PUSH1 0x44 SWAP2 DUP3 CALLDATALOAD PUSH1 0x1 PUSH1 0x1 PUSH1 0x40 SHL SUB SWAP5 DUP6 DUP3 AND DUP3 SUB PUSH2 0x619 JUMPI PUSH1 0x64 SWAP3 DUP4 CALLDATALOAD SWAP4 DUP8 DUP6 AND DUP1 SWAP6 SUB PUSH2 0x615 JUMPI PUSH1 0x84 CALLDATALOAD SWAP6 DUP9 DUP8 AND SWAP8 DUP9 DUP9 SUB PUSH2 0x611 JUMPI PUSH1 0xFF SWAP11 PUSH1 0xA4 CALLDATALOAD SWAP10 DUP14 PUSH32 0xF0C57E16840DF040F15088DC2F81FE391C3923BEC73E23A9662EFC9C229C6A00 SWAP14 DUP15 SLOAD DUP1 SWAP3 SHR AND ISZERO DUP1 SWAP14 DUP3 AND DUP1 ISZERO SWAP2 DUP3 PUSH2 0x609 JUMPI JUMPDEST POP PUSH1 0x1 EQ SWAP1 DUP2 PUSH2 0x5FF JUMPI JUMPDEST ISZERO SWAP1 DUP2 PUSH2 0x5F6 JUMPI JUMPDEST POP PUSH2 0x5E6 JUMPI PUSH8 0xFFFFFFFFFFFFFFFF NOT DUP2 AND PUSH1 0x1 OR DUP15 SSTORE DUP13 PUSH2 0x5C7 JUMPI JUMPDEST POP DUP6 ISZERO PUSH2 0x59E JUMPI DUP7 ISZERO PUSH2 0x56F JUMPI DUP1 ISZERO PUSH2 0x543 JUMPI DUP9 GT PUSH2 0x512 JUMPI DUP10 ISZERO PUSH2 0x4E5 JUMPI POP POP POP POP PUSH12 0xFFFFFFFFFFFFFFFFFFFFFFFF PUSH1 0xA0 SHL DUP11 SLOAD AND OR DUP10 SSTORE PUSH1 0x1 SLOAD SWAP2 PUSH1 0x1 PUSH1 0x1 PUSH1 0x40 SHL SUB PUSH1 0xA0 SHL SWAP1 PUSH1 0xA0 SHL AND SWAP2 PUSH4 0xFFFFFFFF PUSH1 0xE0 SHL AND OR OR PUSH1 0x1 SSTORE PUSH16 0xFFFFFFFFFFFFFFFF0000000000000000 PUSH1 0x2 SLOAD SWAP3 DUP8 SHL AND SWAP2 PUSH16 0xFFFFFFFFFFFFFFFFFFFFFFFFFFFFFFFF NOT AND OR OR PUSH1 0x2 SSTORE PUSH1 0x3 SSTORE PUSH2 0x4A4 JUMPI DUP3 DUP1 RETURN JUMPDEST DUP1 SLOAD PUSH9 0xFF0000000000000000 NOT AND SWAP1 SSTORE MLOAD PUSH1 0x1 DUP2 MSTORE PUSH32 0xC7F505B2F371AE2175EE4913F4499E1F2633A7B5936321EED1CDAEB6115181D2 SWAP1 PUSH1 0x20 SWAP1 LOG1 CODESIZE DUP1 DUP3 DUP1 RETURN JUMPDEST SWAP1 PUSH1 0xC PUSH12 0x616C6C6F636174696F6E3D3 PUSH1 0xA4 SHL SWAP3 PUSH1 0x20 DUP16 MLOAD SWAP6 PUSH3 0x461BCD PUSH1 0xE5 SHL DUP8 MSTORE DUP7 ADD MSTORE DUP5 ADD MSTORE DUP3 ADD MSTORE REVERT JUMPDEST SWAP1 PUSH1 0x10 PUSH16 0x323AB930BA34B7B7101E1031B634B333 PUSH1 0x81 SHL SWAP3 PUSH1 0x20 DUP16 MLOAD SWAP6 PUSH3 0x461BCD PUSH1 0xE5 SHL DUP8 MSTORE DUP7 ADD MSTORE DUP5 ADD MSTORE DUP3 ADD MSTORE REVERT JUMPDEST POP SWAP1 PUSH1 0xA PUSH10 0x6475726174696F6E3D3 PUSH1 0xB4 SHL SWAP3 PUSH1 0x20 DUP16 MLOAD SWAP6 PUSH3 0x461BCD PUSH1 0xE5 SHL DUP8 MSTORE DUP7 ADD MSTORE DUP5 ADD MSTORE DUP3 ADD MSTORE REVERT JUMPDEST POP SWAP1 PUSH1 0xD PUSH13 0x62656E65666963696172793D3 PUSH1 0x9C SHL SWAP3 PUSH1 0x20 DUP16 MLOAD SWAP6 PUSH3 0x461BCD PUSH1 0xE5 SHL DUP8 MSTORE DUP7 ADD MSTORE DUP5 ADD MSTORE DUP3 ADD MSTORE REVERT JUMPDEST POP SWAP1 PUSH1 0x7 PUSH7 0x746F6B656E3D3 PUSH1 0xCC SHL SWAP3 PUSH1 0x20 DUP16 MLOAD SWAP6 PUSH3 0x461BCD PUSH1 0xE5 SHL DUP8 MSTORE DUP7 ADD MSTORE DUP5 ADD MSTORE DUP3 ADD MSTORE REVERT JUMPDEST PUSH9 0xFFFFFFFFFFFFFFFFFF NOT AND PUSH9 0x10000000000000001 OR DUP14 SSTORE CODESIZE PUSH2 0x40C JUMP JUMPDEST DUP15 MLOAD PUSH4 0xF92EE8A9 PUSH1 0xE0 SHL DUP2 MSTORE DUP6 SWAP1 REVERT JUMPDEST SWAP1 POP ISZERO CODESIZE PUSH2 0x3F0 JUMP JUMPDEST ADDRESS EXTCODESIZE ISZERO SWAP2 POP PUSH2 0x3E8 JUMP JUMPDEST SWAP2 POP DUP15 PUSH2 0x3DD JUMP JUMPDEST DUP13 DUP1 REVERT JUMPDEST DUP11 DUP1 REVERT JUMPDEST DUP9 DUP1 REVERT JUMPDEST DUP6 DUP1 REVERT JUMPDEST DUP5 DUP1 REVERT JUMPDEST POP POP CALLVALUE PUSH2 0x104 JUMPI DUP2 PUSH1 0x3 NOT CALLDATASIZE ADD SLT PUSH2 0x104 JUMPI PUSH1 0x20 SWAP1 PUSH1 0x1 PUSH1 0x1 PUSH1 0x40 SHL SUB PUSH1 0x1 SLOAD PUSH1 0xA0 SHR AND SWAP1 MLOAD SWAP1 DUP2 MSTORE RETURN JUMPDEST POP POP CALLVALUE PUSH2 0x104 JUMPI DUP2 PUSH1 0x3 NOT CALLDATASIZE ADD SLT PUSH2 0x104 JUMPI PUSH1 0x2 SLOAD DUP2 MLOAD SWAP2 SHR PUSH1 0x1 PUSH1 0x1 PUSH1 0x40 SHL SUB AND DUP2 MSTORE PUSH1 0x20 SWAP1 RETURN JUMPDEST POP POP CALLVALUE PUSH2 0x104 JUMPI DUP2 PUSH1 0x3 NOT CALLDATASIZE ADD SLT PUSH2 0x104 JUMPI PUSH1 0x20 SWAP1 PUSH1 0x1 PUSH1 0x1 PUSH1 0x40 SHL SUB PUSH2 0x6AE DUP2 PUSH1 0x1 SLOAD PUSH1 0xA0 SHR AND DUP3 PUSH1 0x2 SLOAD DUP6 SHR AND SWAP1 PUSH2 0x9FC JUMP JUMPDEST SWAP2 MLOAD SWAP2 AND DUP2 MSTORE RETURN JUMPDEST SWAP1 POP CALLVALUE PUSH2 0x197 JUMPI DUP3 PUSH1 0x3 NOT CALLDATASIZE ADD SLT PUSH2 0x197 JUMPI PUSH1 0x1 SLOAD PUSH1 0x1 PUSH1 0x1 PUSH1 0xA0 SHL SUB SWAP1 DUP2 AND SWAP2 PUSH2 0x6E2 CALLER DUP5 EQ PUSH2 0xB95 JUMP JUMPDEST PUSH2 0x6EA PUSH2 0xB59 JUMP JUMPDEST SWAP3 DUP4 ISZERO PUSH2 0x8C9 JUMPI DUP2 SLOAD SWAP3 PUSH2 0x6FE DUP6 DUP6 PUSH2 0xA46 JUMP JUMPDEST PUSH1 0x3 SLOAD LT PUSH2 0x886 JUMPI DUP7 SLOAD AND SWAP1 DUP6 MLOAD SWAP4 PUSH4 0x70A08231 PUSH1 0xE0 SHL DUP6 MSTORE ADDRESS DUP5 DUP7 ADD MSTORE PUSH1 0x20 SWAP5 DUP6 DUP2 PUSH1 0x24 DUP2 DUP8 GAS STATICCALL DUP1 ISZERO PUSH2 0x87C JUMPI DUP8 SWAP2 DUP11 SWAP2 PUSH2 0x84B JUMPI JUMPDEST POP LT PUSH2 0x808 JUMPI PUSH2 0x785 SWAP3 DUP6 SWAP3 PUSH2 0x74D DUP9 DUP1 SWAP5 PUSH2 0xA46 JUMP JUMPDEST DUP7 SSTORE DUP9 MLOAD PUSH4 0xA9059CBB PUSH1 0xE0 SHL DUP2 MSTORE PUSH1 0x1 PUSH1 0x1 PUSH1 0xA0 SHL SUB SWAP1 SWAP2 AND DUP2 DUP8 ADD SWAP1 DUP2 MSTORE PUSH1 0x20 DUP2 ADD SWAP4 SWAP1 SWAP4 MSTORE SWAP4 DUP5 SWAP3 DUP4 SWAP2 DUP12 SWAP2 DUP4 SWAP2 PUSH1 0x40 SWAP1 SWAP2 ADD SWAP1 JUMP JUMPDEST SUB SWAP3 GAS CALL SWAP1 DUP2 ISZERO PUSH2 0x7FE JUMPI SWAP2 PUSH2 0x7C8 PUSH32 0xF854FEEF4C325CC8FCFAD1A693B62C4383C8D228C4CA0BC52F9E06095338A5F1 SWAP7 SWAP3 PUSH1 0x60 SWAP7 SWAP6 SWAP5 DUP10 SWAP2 PUSH2 0x7E7 JUMPI POP PUSH2 0xC27 JUMP JUMPDEST PUSH2 0x7D7 PUSH1 0x3 SLOAD SWAP2 SLOAD DUP1 SWAP3 PUSH2 0xB4C JUMP JUMPDEST SWAP3 DUP3 MLOAD SWAP5 DUP6 MSTORE DUP5 ADD MSTORE DUP3 ADD MSTORE LOG1 DUP1 RETURN JUMPDEST PUSH2 0x2AE SWAP2 POP DUP6 RETURNDATASIZE DUP8 GT PUSH2 0x2B4 JUMPI PUSH2 0x2A6 DUP2 DUP4 PUSH2 0xBD3 JUMP JUMPDEST DUP6 MLOAD RETURNDATASIZE DUP9 DUP3 RETURNDATACOPY RETURNDATASIZE SWAP1 REVERT JUMPDEST DUP7 MLOAD PUSH3 0x461BCD PUSH1 0xE5 SHL DUP2 MSTORE DUP1 DUP6 ADD DUP7 SWAP1 MSTORE PUSH1 0x1D PUSH1 0x24 DUP3 ADD MSTORE PUSH32 0x696E73756666696369656E7420636F6E74726163742062616C616E6365000000 PUSH1 0x44 DUP3 ADD MSTORE PUSH1 0x64 SWAP1 REVERT JUMPDEST DUP1 SWAP3 POP DUP8 DUP1 SWAP3 POP RETURNDATASIZE DUP4 GT PUSH2 0x875 JUMPI JUMPDEST PUSH2 0x864 DUP2 DUP4 PUSH2 0xBD3 JUMP JUMPDEST DUP2 ADD SUB SLT PUSH2 0x619 JUMPI DUP7 SWAP1 MLOAD CODESIZE PUSH2 0x736 JUMP JUMPDEST POP RETURNDATASIZE PUSH2 0x85A JUMP JUMPDEST DUP9 MLOAD RETURNDATASIZE DUP12 DUP3 RETURNDATACOPY RETURNDATASIZE SWAP1 REVERT JUMPDEST DUP6 MLOAD PUSH3 0x461BCD PUSH1 0xE5 SHL DUP2 MSTORE PUSH1 0x20 DUP2 DUP6 ADD MSTORE PUSH1 0x1A PUSH1 0x24 DUP3 ADD MSTORE PUSH32 0x72656C65617365206578636565647320616C6C6F636174696F6E000000000000 PUSH1 0x44 DUP3 ADD MSTORE PUSH1 0x64 SWAP1 REVERT JUMPDEST DUP5 MLOAD PUSH3 0x461BCD PUSH1 0xE5 SHL DUP2 MSTORE PUSH1 0x20 DUP2 DUP5 ADD MSTORE PUSH1 0x12 PUSH1 0x24 DUP3 ADD MSTORE PUSH18 0x6E6F7468696E6720746F2072656C65617365 PUSH1 0x70 SHL PUSH1 0x44 DUP3 ADD MSTORE PUSH1 0x64 SWAP1 REVERT JUMPDEST POP POP CALLVALUE PUSH2 0x104 JUMPI DUP2 PUSH1 0x3 NOT CALLDATASIZE ADD SLT PUSH2 0x104 JUMPI PUSH1 0x20 SWAP1 PUSH1 0x1 PUSH1 0x1 PUSH1 0x40 SHL SUB PUSH1 0x2 SLOAD AND SWAP1 MLOAD SWAP1 DUP2 MSTORE RETURN JUMPDEST POP POP CALLVALUE PUSH2 0x104 JUMPI DUP2 PUSH1 0x3 NOT CALLDATASIZE ADD SLT PUSH2 0x104 JUMPI PUSH1 0x20 SWAP1 PUSH1 0x3 SLOAD SWAP1 MLOAD SWAP1 DUP2 MSTORE RETURN JUMPDEST DUP3 DUP5 CALLVALUE PUSH2 0x96C JUMPI DUP1 PUSH1 0x3 NOT CALLDATASIZE ADD SLT PUSH2 0x96C JUMPI POP PUSH2 0x124 PUSH1 0x20 SWAP3 PUSH1 0x3 SLOAD SWAP1 SLOAD SWAP1 PUSH2 0xB4C JUMP JUMPDEST DUP1 REVERT JUMPDEST POP POP CALLVALUE PUSH2 0x104 JUMPI DUP2 PUSH1 0x3 NOT CALLDATASIZE ADD SLT PUSH2 0x104 JUMPI PUSH1 0x1 SLOAD SWAP1 MLOAD PUSH1 0x1 PUSH1 0x1 PUSH1 0xA0 SHL SUB SWAP1 SWAP2 AND DUP2 MSTORE PUSH1 0x20 SWAP1 RETURN JUMPDEST POP POP CALLVALUE PUSH2 0x104 JUMPI DUP2 PUSH1 0x3 NOT CALLDATASIZE ADD SLT PUSH2 0x104 JUMPI PUSH1 0x20 SWAP1 PUSH1 0x1 PUSH1 0x1 PUSH1 0x40 SHL SUB PUSH2 0x6AE DUP2 PUSH1 0x1 SLOAD PUSH1 0xA0 SHR AND DUP3 PUSH1 0x2 SLOAD AND SWAP1 PUSH2 0x9FC JUMP JUMPDEST SWAP1 POP CALLVALUE PUSH2 0x197 JUMPI PUSH1 0x20 CALLDATASIZE PUSH1 0x3 NOT ADD SLT PUSH2 0x197 JUMPI CALLDATALOAD SWAP2 PUSH1 0x1 PUSH1 0x1 PUSH1 0x40 SHL SUB DUP4 AND DUP4 SUB PUSH2 0x96C JUMPI POP PUSH2 0x124 PUSH1 0x20 SWAP3 PUSH2 0xA53 JUMP JUMPDEST SWAP2 SWAP1 SWAP2 PUSH1 0x1 PUSH1 0x1 PUSH1 0x40 SHL SUB DUP1 DUP1 SWAP5 AND SWAP2 AND ADD SWAP2 DUP3 GT PUSH2 0xA17 JUMPI JUMP JUMPDEST PUSH4 0x4E487B71 PUSH1 0xE0 SHL PUSH1 0x0 MSTORE PUSH1 0x11 PUSH1 0x4 MSTORE PUSH1 0x24 PUSH1 0x0 REVERT JUMPDEST PUSH1 0x1 PUSH1 0x1 PUSH1 0x40 SHL SUB SWAP2 DUP3 AND SWAP1 DUP3 AND SUB SWAP2 SWAP1 DUP3 GT PUSH2 0xA17 JUMPI JUMP JUMPDEST SWAP2 SWAP1 DUP3 ADD DUP1 SWAP3 GT PUSH2 0xA17 JUMPI JUMP JUMPDEST PUSH1 0x1 PUSH1 0x1 PUSH1 0x40 SHL SUB DUP1 PUSH1 0x1 SLOAD PUSH1 0xA0 SHR AND SWAP2 PUSH1 0x2 SLOAD SWAP3 DUP3 DUP5 AND SWAP1 PUSH2 0xA76 DUP3 DUP3 PUSH2 0x9FC JUMP JUMPDEST SWAP5 DUP5 DUP5 AND SWAP1 DUP6 DUP8 AND DUP3 LT PUSH2 0xAFF JUMPI PUSH2 0xA95 DUP7 DUP1 SWAP3 PUSH1 0x40 SHR AND DUP1 SWAP5 PUSH2 0x9FC JUMP JUMPDEST AND GT ISZERO PUSH2 0xAF4 JUMPI DUP4 SWAP2 PUSH2 0xAA7 SWAP2 PUSH2 0xA2D JUMP JUMPDEST AND SWAP3 DUP4 ISZERO PUSH2 0xAEA JUMPI PUSH2 0xAB8 SWAP2 PUSH2 0xA2D JUMP JUMPDEST AND PUSH1 0x3 SLOAD DUP2 DUP2 MUL SWAP2 DUP2 DUP4 DIV DUP2 EQ DUP3 ISZERO OR ISZERO PUSH2 0xA17 JUMPI PUSH1 0x1 DUP2 ADD DUP1 SWAP2 GT PUSH2 0xA17 JUMPI DUP4 GT ISZERO PUSH2 0xAE4 JUMPI POP DIV SWAP1 JUMP JUMPDEST SWAP2 POP POP SWAP1 JUMP JUMPDEST POP POP POP POP PUSH1 0x3 SLOAD SWAP1 JUMP JUMPDEST POP POP POP POP POP PUSH1 0x3 SLOAD SWAP1 JUMP JUMPDEST POP POP POP POP POP POP POP PUSH1 0x0 SWAP1 JUMP JUMPDEST ISZERO PUSH2 0xB12 JUMPI JUMP JUMPDEST PUSH1 0x40 MLOAD PUSH3 0x461BCD PUSH1 0xE5 SHL DUP2 MSTORE PUSH1 0x20 PUSH1 0x4 DUP3 ADD MSTORE PUSH1 0x12 PUSH1 0x24 DUP3 ADD MSTORE PUSH18 0x74696D657374616D70206F766572666C6F77 PUSH1 0x70 SHL PUSH1 0x44 DUP3 ADD MSTORE PUSH1 0x64 SWAP1 REVERT JUMPDEST SWAP2 SWAP1 DUP3 SUB SWAP2 DUP3 GT PUSH2 0xA17 JUMPI JUMP JUMPDEST PUSH2 0xB77 PUSH1 0x1 PUSH1 0x1 PUSH1 0x40 SHL SUB PUSH2 0xB70 DUP2 TIMESTAMP GT ISZERO PUSH2 0xB0B JUMP JUMPDEST TIMESTAMP AND PUSH2 0xA53 JUMP JUMPDEST PUSH1 0x4 SLOAD DUP1 DUP3 GT ISZERO PUSH2 0xB8E JUMPI PUSH2 0xB8B SWAP2 PUSH2 0xB4C JUMP JUMPDEST SWAP1 JUMP JUMPDEST POP POP PUSH1 0x0 SWAP1 JUMP JUMPDEST ISZERO PUSH2 0xB9C JUMPI JUMP JUMPDEST PUSH1 0x40 MLOAD PUSH3 0x461BCD PUSH1 0xE5 SHL DUP2 MSTORE PUSH1 0x20 PUSH1 0x4 DUP3 ADD MSTORE PUSH1 0xF PUSH1 0x24 DUP3 ADD MSTORE PUSH15 0x6E6F742062656E6566696369617279 PUSH1 0x88 SHL PUSH1 0x44 DUP3 ADD MSTORE PUSH1 0x64 SWAP1 REVERT JUMPDEST SWAP1 PUSH1 0x1F DUP1 NOT SWAP2 ADD AND DUP2 ADD SWAP1 DUP2 LT PUSH1 0x1 PUSH1 0x1 PUSH1 0x40 SHL SUB DUP3 GT OR PUSH2 0xBF4 JUMPI PUSH1 0x40 MSTORE JUMP JUMPDEST PUSH4 0x4E487B71 PUSH1 0xE0 SHL PUSH1 0x0 MSTORE PUSH1 0x41 PUSH1 0x4 MSTORE PUSH1 0x24 PUSH1 0x0 REVERT JUMPDEST SWAP1 DUP2 PUSH1 0x20 SWAP2 SUB SLT PUSH2 0xC22 JUMPI MLOAD DUP1 ISZERO ISZERO DUP2 SUB PUSH2 0xC22 JUMPI SWAP1 JUMP JUMPDEST PUSH1 0x0 DUP1 REVERT JUMPDEST ISZERO PUSH2 0xC2E JUMPI JUMP JUMPDEST PUSH1 0x40 MLOAD PUSH3 0x461BCD PUSH1 0xE5 SHL DUP2 MSTORE PUSH1 0x20 PUSH1 0x4 DUP3 ADD MSTORE PUSH1 0xF PUSH1 0x24 DUP3 ADD MSTORE PUSH15 0x1D1C985B9CD9995C8819985A5B1959 PUSH1 0x8A SHL PUSH1 0x44 DUP3 ADD MSTORE PUSH1 0x64 SWAP1 REVERT INVALID LOG2 PUSH5 0x6970667358 0x22 SLT KECCAK256 0xE7 ORIGIN LOG2 0xEA PUSH21 0xC83B13998796E97697BB3B2A728CC3A69DA95649B0 INVALID ADDRESS KECCAK256 SWAP10 SWAP3 0xCF PUSH5 0x736F6C6343 STOP ADDMOD EQ STOP CALLER "},"methodIdentifiers":{"beneficiary()":"38af3eed","cliffEndTime()":"160a341e","cliffSeconds()":"8341ee72","durationSeconds()":"9acba2af","emergencyWithdraw()":"db2e21bc","initialize(address,address,uint64,uint64,uint64,uint256)":"c5fa3da3","isFullyVested()":"ef15bf2e","releasable()":"fbccedae","release()":"86d1a69f","released()":"96132521","remaining()":"55234ec0","start()":"be9a6555","token()":"fc0c546a","totalAllocation()":"79203dc4","totalReleased()":"e33b7de3","vestedAmount(uint64)":"0a17b06b","vestingEndTime()":"86fab45e"}}}}}