{"contracts/launch/TokenFactory.sol":{"TokenFactory":{"abi":[{"inputs":[{"internalType":"address","name":"tokenImplementation_","type":"address"},{"internalType":"address","name":"vestingImplementation_","type":"address"}],"stateMutability":"nonpayable","type":"constructor"},{"inputs":[],"name":"FailedDeployment","type":"error"},{"inputs":[{"internalType":"uint256","name":"balance","type":"uint256"},{"internalType":"uint256","name":"needed","type":"uint256"}],"name":"InsufficientBalance","type":"error"},{"inputs":[],"name":"ReentrancyGuardReentrantCall","type":"error"},{"inputs":[{"internalType":"address","name":"token","type":"address"}],"name":"SafeERC20FailedOperation","type":"error"},{"anonymous":false,"inputs":[{"indexed":false,"internalType":"uint256","name":"oldBasicFeeWei","type":"uint256"},{"indexed":false,"internalType":"uint256","name":"oldDistributionFeeWei","type":"uint256"},{"indexed":false,"internalType":"uint256","name":"oldVestingFeeWei","type":"uint256"},{"indexed":false,"internalType":"uint256","name":"newBasicFeeWei","type":"uint256"},{"indexed":false,"internalType":"uint256","name":"newDistributionFeeWei","type":"uint256"},{"indexed":false,"internalType":"uint256","name":"newVestingFeeWei","type":"uint256"}],"name":"FeesUpdated","type":"event"},{"anonymous":false,"inputs":[{"indexed":true,"internalType":"address","name":"to","type":"address"},{"indexed":false,"internalType":"uint256","name":"amountWei","type":"uint256"}],"name":"FeesWithdrawn","type":"event"},{"anonymous":false,"inputs":[{"indexed":true,"internalType":"address","name":"previousOwner","type":"address"},{"indexed":true,"internalType":"address","name":"newOwner","type":"address"}],"name":"OwnershipTransferred","type":"event"},{"anonymous":false,"inputs":[{"indexed":true,"internalType":"address","name":"creator","type":"address"},{"indexed":true,"internalType":"address","name":"token","type":"address"}],"name":"TokenCreated","type":"event"},{"anonymous":false,"inputs":[{"indexed":true,"internalType":"address","name":"token","type":"address"},{"indexed":true,"internalType":"address","name":"to","type":"address"},{"indexed":false,"internalType":"uint256","name":"amount","type":"uint256"}],"name":"TokenDistributed","type":"event"},{"anonymous":false,"inputs":[{"indexed":true,"internalType":"address","name":"token","type":"address"},{"indexed":true,"internalType":"address","name":"vault","type":"address"},{"indexed":true,"internalType":"address","name":"beneficiary","type":"address"},{"indexed":false,"internalType":"uint256","name":"amount","type":"uint256"}],"name":"VestingCreated","type":"event"},{"inputs":[],"name":"basicFeeWei","outputs":[{"internalType":"uint256","name":"","type":"uint256"}],"stateMutability":"view","type":"function"},{"inputs":[{"components":[{"internalType":"string","name":"name","type":"string"},{"internalType":"string","name":"symbol","type":"string"},{"internalType":"uint256","name":"totalSupplyRaw","type":"uint256"},{"internalType":"address","name":"marketingWallet","type":"address"},{"components":[{"internalType":"uint16","name":"buyMarketingBps","type":"uint16"},{"internalType":"uint16","name":"buyLiquidityBps","type":"uint16"},{"internalType":"uint16","name":"buyBurnBps","type":"uint16"},{"internalType":"uint16","name":"sellMarketingBps","type":"uint16"},{"internalType":"uint16","name":"sellLiquidityBps","type":"uint16"},{"internalType":"uint16","name":"sellBurnBps","type":"uint16"}],"internalType":"struct TokenFactory.Fees","name":"fees","type":"tuple"},{"components":[{"internalType":"uint256","name":"maxGasPriceWei","type":"uint256"},{"internalType":"uint256","name":"deadBlocks","type":"uint256"},{"internalType":"bool","name":"revertEarlyBuys","type":"bool"},{"internalType":"uint256","name":"maxTxAmount","type":"uint256"},{"internalType":"uint256","name":"maxWalletAmount","type":"uint256"}],"internalType":"struct TokenFactory.Limits","name":"limits","type":"tuple"}],"internalType":"struct TokenFactory.TokenConfig","name":"cfg","type":"tuple"}],"name":"createToken","outputs":[{"internalType":"address","name":"tokenAddr","type":"address"}],"stateMutability":"payable","type":"function"},{"inputs":[{"components":[{"internalType":"string","name":"name","type":"string"},{"internalType":"string","name":"symbol","type":"string"},{"internalType":"uint256","name":"totalSupplyRaw","type":"uint256"},{"internalType":"address","name":"marketingWallet","type":"address"},{"components":[{"internalType":"uint16","name":"buyMarketingBps","type":"uint16"},{"internalType":"uint16","name":"buyLiquidityBps","type":"uint16"},{"internalType":"uint16","name":"buyBurnBps","type":"uint16"},{"internalType":"uint16","name":"sellMarketingBps","type":"uint16"},{"internalType":"uint16","name":"sellLiquidityBps","type":"uint16"},{"internalType":"uint16","name":"sellBurnBps","type":"uint16"}],"internalType":"struct TokenFactory.Fees","name":"fees","type":"tuple"},{"components":[{"internalType":"uint256","name":"maxGasPriceWei","type":"uint256"},{"internalType":"uint256","name":"deadBlocks","type":"uint256"},{"internalType":"bool","name":"revertEarlyBuys","type":"bool"},{"internalType":"uint256","name":"maxTxAmount","type":"uint256"},{"internalType":"uint256","name":"maxWalletAmount","type":"uint256"}],"internalType":"struct TokenFactory.Limits","name":"limits","type":"tuple"}],"internalType":"struct TokenFactory.TokenConfig","name":"cfg","type":"tuple"},{"internalType":"address[]","name":"recipients","type":"address[]"},{"internalType":"uint256[]","name":"amounts","type":"uint256[]"}],"name":"createTokenWithDistribution","outputs":[{"internalType":"address","name":"tokenAddr","type":"address"}],"stateMutability":"payable","type":"function"},{"inputs":[{"components":[{"internalType":"string","name":"name","type":"string"},{"internalType":"string","name":"symbol","type":"string"},{"internalType":"uint256","name":"totalSupplyRaw","type":"uint256"},{"internalType":"address","name":"marketingWallet","type":"address"},{"components":[{"internalType":"uint16","name":"buyMarketingBps","type":"uint16"},{"internalType":"uint16","name":"buyLiquidityBps","type":"uint16"},{"internalType":"uint16","name":"buyBurnBps","type":"uint16"},{"internalType":"uint16","name":"sellMarketingBps","type":"uint16"},{"internalType":"uint16","name":"sellLiquidityBps","type":"uint16"},{"internalType":"uint16","name":"sellBurnBps","type":"uint16"}],"internalType":"struct TokenFactory.Fees","name":"fees","type":"tuple"},{"components":[{"internalType":"uint256","name":"maxGasPriceWei","type":"uint256"},{"internalType":"uint256","name":"deadBlocks","type":"uint256"},{"internalType":"bool","name":"revertEarlyBuys","type":"bool"},{"internalType":"uint256","name":"maxTxAmount","type":"uint256"},{"internalType":"uint256","name":"maxWalletAmount","type":"uint256"}],"internalType":"struct TokenFactory.Limits","name":"limits","type":"tuple"}],"internalType":"struct TokenFactory.TokenConfig","name":"cfg","type":"tuple"},{"internalType":"address[]","name":"recipients","type":"address[]"},{"internalType":"uint256[]","name":"amounts","type":"uint256[]"},{"components":[{"internalType":"address","name":"beneficiary","type":"address"},{"internalType":"uint64","name":"start","type":"uint64"},{"internalType":"uint64","name":"cliffSeconds","type":"uint64"},{"internalType":"uint64","name":"durationSeconds","type":"uint64"},{"internalType":"uint256","name":"amount","type":"uint256"}],"internalType":"struct TokenFactory.Vesting[]","name":"vestings","type":"tuple[]"}],"name":"createTokenWithDistributionAndVesting","outputs":[{"internalType":"address","name":"tokenAddr","type":"address"}],"stateMutability":"payable","type":"function"},{"inputs":[],"name":"distributionFeeWei","outputs":[{"internalType":"uint256","name":"","type":"uint256"}],"stateMutability":"view","type":"function"},{"inputs":[],"name":"owner","outputs":[{"internalType":"address","name":"","type":"address"}],"stateMutability":"view","type":"function"},{"inputs":[{"internalType":"uint256","name":"newBasicFeeWei","type":"uint256"},{"internalType":"uint256","name":"newDistributionFeeWei","type":"uint256"},{"internalType":"uint256","name":"newVestingFeeWei","type":"uint256"}],"name":"setFeesWei","outputs":[],"stateMutability":"nonpayable","type":"function"},{"inputs":[],"name":"tokenImplementation","outputs":[{"internalType":"address","name":"","type":"address"}],"stateMutability":"view","type":"function"},{"inputs":[{"internalType":"address","name":"newOwner","type":"address"}],"name":"transferOwnership","outputs":[],"stateMutability":"nonpayable","type":"function"},{"inputs":[],"name":"vestingFeeWei","outputs":[{"internalType":"uint256","name":"","type":"uint256"}],"stateMutability":"view","type":"function"},{"inputs":[],"name":"vestingImplementation","outputs":[{"internalType":"address","name":"","type":"address"}],"stateMutability":"view","type":"function"},{"inputs":[{"internalType":"address payable","name":"to","type":"address"},{"internalType":"uint256","name":"amountWei","type":"uint256"}],"name":"withdrawFees","outputs":[],"stateMutability":"nonpayable","type":"function"}],"evm":{"bytecode":{"linkReferences":{},"object":"60c03461016857601f6115fd38819003918201601f19168301916001600160401b0383118484101761016d57808492604094855283398101031261016857610052602061004b83610183565b9201610183565b6001600055906001600160a01b0380821615610135578216156101005760805260a052600180546001600160a01b031916339081179091556040519060007f8be0079c531659141344cd1fd0a4f28419497f9722a3daafe3b4186f6b6457e08180a3655af3107a400060025566038d7ea4c680006003556611c37937e0800060045561146590816101988239608051818181610d50015261106d015260a0518181816106cd0152610a750152f35b60405162461bcd60e51b815260206004820152600d60248201526c076657374696e67496d706c3d3609c1b6044820152606490fd5b60405162461bcd60e51b815260206004820152600b60248201526a0746f6b656e496d706c3d360ac1b6044820152606490fd5b600080fd5b634e487b7160e01b600052604160045260246000fd5b51906001600160a01b03821682036101685756fe608080604052600436101561001357600080fd5b60003560e01c9081632f3a3d5d14610d3d57508063308cc33d14610d1f5780633cb35165146108805780633db315ba1461071a57806379046732146106fc5780638882a2f6146106b75780638da5cb5b1461068e578063ad3b1b4714610503578063b93c95f3146103c5578063c48b374d146103a7578063d9a3c8211461014c5763f2fde38b146100a357600080fd5b34610147576020366003190112610147576004356001600160a01b038181169182900361014757600154908116906100dc823314610daf565b8215610118576001600160a01b03191682176001557f8be0079c531659141344cd1fd0a4f28419497f9722a3daafe3b4186f6b6457e0600080a3005b60405162461bcd60e51b815260206004820152600760248201526606f776e65723d360cc1b6044820152606490fd5b600080fd5b60031960603682011261014757600435906001600160401b0390818311610147576101e09083360301126101475760243581811161014757610192903690600401610d7f565b9290604435928311610147576101af6101e2933690600401610d7f565b9390926101bd600354610ee7565b6101d98585888660448601356101d4811515610e1b565b6112d2565b50600401610fc9565b94909360005b82811061031c576040516370a0823160e01b81523060048201526020906001600160a01b03908990828a16908481602481855afa9081156102a4576000916102ef575b50806102b0575b50803b15610147576000809160246040518094819363f2fde38b60e01b83523360048401525af180156102a457610295575b50166040519080337fd5f9bdf12adf29dab0248c349842c3822d53ae2bb4f36352f301630d018c8139600080a38152f35b61029e90610de7565b83610264565b6040513d6000823e3d90fd5b8383166102be823383610e52565b6040519182527f67226bacccef969dab310a9e55dc1cf821363658e433fd330344f5cc00c79ac8863393a384610232565b90508481813d8311610315575b6103068183610dfa565b8101031261014757518561022b565b503d6102fc565b8061032b61039c92848861125b565b3580156103a1576001600160a01b03808a16907f67226bacccef969dab310a9e55dc1cf821363658e433fd330344f5cc00c79ac8906020906103808561037a610375898d8f61125b565b610f62565b86610e52565b61038e610375878b8d61125b565b1693604051908152a361124c565b6101e8565b5061124c565b34610147576000366003190112610147576020600454604051908152f35b6020600319818136011261014757600435906001600160401b038211610147576101e09082360301126101475761041890610401600254610ee7565b61041060448201351515610e1b565b600401610fc9565b6001600160a01b03918216803b156101475760405163f2fde38b60e01b81523360048201529060008260248183855af19081156102a45760249286926104f4575b506040516370a0823160e01b815230600482015292839182905afa9081156102a4576000916104c7575b50806104ba5750166040519080337fd5f9bdf12adf29dab0248c349842c3822d53ae2bb4f36352f301630d018c8139600080a38152f35b61029e9033848416610e52565b90508381813d83116104ed575b6104de8183610dfa565b81010312610147575184610483565b503d6104d4565b6104fd90610de7565b86610459565b34610147576040366003190112610147576004356001600160a01b0381811691828103610147576024359082600154169061053f823314610daf565b60026000541461067c5760026000559315610674575b508061066e575047905b47821161063257600080809381938616807fc0819c13be868895eb93e40eaceb96de976442fa1d404e5c55f14bb65a8c489a6020604051858152a25af13d1561062d573d6001600160401b03811161061757604051906105c9601f8201601f191660200183610dfa565b8152600060203d92013e5b156105e0576001600055005b60405162461bcd60e51b815260206004820152600f60248201526e1dda5d1a191c985dc819985a5b1959608a1b6044820152606490fd5b634e487b7160e01b600052604160045260246000fd5b6105d4565b60405162461bcd60e51b8152602060048201526014602482015273696e73756666696369656e742062616c616e636560601b6044820152606490fd5b9061055f565b925083610555565b604051633ee5aeb560e01b8152600490fd5b34610147576000366003190112610147576001546040516001600160a01b039091168152602090f35b34610147576000366003190112610147576040517f00000000000000000000000000000000000000000000000000000000000000006001600160a01b03168152602090f35b34610147576000366003190112610147576020600354604051908152f35b34610147576060366003190112610147576004356024356044359161074a60018060a01b03600154163314610daf565b670de0b6b3a7640000808211610846578083116108015783116107c5577f2e494fbb5d1bda2269c90d7124ba22ca99044b61d2a920ece35a1a1726ff0c379260c0926002549260035460045490826002558360035584600455604051958652602086015260408501526060840152608083015260a0820152a1005b60405162461bcd60e51b81526020600482015260146024820152730eccae6e8d2dcce40cccaca40e8dede40d0d2ced60631b6044820152606490fd5b60405162461bcd60e51b815260206004820152601960248201527f646973747269627574696f6e2066656520746f6f2068696768000000000000006044820152606490fd5b60405162461bcd60e51b81526020600482015260126024820152710c4c2e6d2c640cccaca40e8dede40d0d2ced60731b6044820152606490fd5b600319608036820112610147576001600160401b0360043511610147576101e09060043536030112610147576024356001600160401b038111610147576108cb903690600401610d7f565b906044356001600160401b038111610147576108eb903690600401610d7f565b9190606435916001600160401b0383116101475736602384011215610147576001600160401b038360040135116101475736602460a0856004013502850101116101475761093a600454610ee7565b61094b604460043501351515610e1b565b61095e84838784604460043501356112d2565b6032846004013511610ce6576000905b84600401358210610c2c5761098c915060446004350135101561128e565b61099a600435600401610fc9565b95909460005b828110610bce5787878760005b81600401358110610a5d5750506040516370a0823160e01b81523060048201526020926001600160a01b03929091908316908481602481855afa9081156102a4576000916102ef5750806102b05750803b15610147576000809160246040518094819363f2fde38b60e01b83523360048401525af180156102a4576102955750166040519080337fd5f9bdf12adf29dab0248c349842c3822d53ae2bb4f36352f301630d018c8139600080a38152f35b610a6f8183600401356024850161140b565b90610a997f00000000000000000000000000000000000000000000000000000000000000006111a9565b610aa283610f62565b92610aaf6020820161141b565b610abb6040830161141b565b90610ac86060840161141b565b906001600160a01b0385163b156101475760405163c5fa3da360e01b81526001600160a01b03808c16600483015297881660248201526001600160401b0391821660448201529281166064840152166084820152608082013560a482015293600090859060c4908290849087165af19384156102a457610bba94610bbf575b50610b606080820135836001600160a01b038a16610e52565b6001600160a01b03610b7182610f62565b60405160809390930135835216916001600160a01b0390811691908816907f1b138257231d2c00719335bc377b9c84f462339563b691e1dab140fbef52b41e90602090a461124c565b6109ad565b610bc890610de7565b87610b47565b80610bdd610c2792848861125b565b3580156103a1576001600160a01b03808b16907f67226bacccef969dab310a9e55dc1cf821363658e433fd330344f5cc00c79ac8906020906103808561037a610375898d8f61125b565b6109a0565b610c3e8286600401356024880161140b565b6001600160a01b03610c4f82610f62565b1615610cb15760800135908115610c7957610c7391610c6d91611281565b9161124c565b9061096e565b60405162461bcd60e51b815260206004820152601060248201526f076657374696e6720616d6f756e743d360841b6044820152606490fd5b60405162461bcd60e51b815260206004820152600d60248201526c062656e65666963696172793d3609c1b6044820152606490fd5b60405162461bcd60e51b8152602060048201526011602482015270746f6f206d616e792076657374696e677360781b6044820152606490fd5b34610147576000366003190112610147576020600254604051908152f35b34610147576000366003190112610147577f00000000000000000000000000000000000000000000000000000000000000006001600160a01b03168152602090f35b9181601f84011215610147578235916001600160401b038311610147576020808501948460051b01011161014757565b15610db657565b60405162461bcd60e51b81526020600482015260096024820152683737ba1037bbb732b960b91b6044820152606490fd5b6001600160401b03811161061757604052565b90601f801991011681019081106001600160401b0382111761061757604052565b15610e2257565b60405162461bcd60e51b81526020600482015260086024820152670737570706c793d360c41b6044820152606490fd5b60405163a9059cbb60e01b602082019081526001600160a01b039384166024830152604480830195909552938152909260808201906001600160401b0382118383101761061757602092600092604052519082865af1156102a4576000513d610ede57508082163b155b610ec4575050565b604051635274afe760e01b81529116600482015260249150fd5b60011415610ebc565b80610f2b575034610ef457565b60405162461bcd60e51b815260206004820152600f60248201526e1b9bc8199959481c995c5d5a5c9959608a1b6044820152606490fd5b3403610f3357565b60405162461bcd60e51b81526020600482015260076024820152666261642066656560c81b6044820152606490fd5b356001600160a01b03811681036101475790565b903590601e198136030182121561014757018035906001600160401b0382116101475760200191813603831361014757565b908060209392818452848401376000828201840152601f01601f1916010190565b90610ffa610fee610fdc60808501611211565b610fe860a08601611211565b90611220565b610fe860c08501611211565b9061102761101a61100d60e08601611211565b610fe86101008701611211565b610fe86101208601611211565b61ffff809316926107d091828511611174571690811161113e576001600160a01b03606085018161105782610f62565b16156111365761106690610f62565b935b6110917f00000000000000000000000000000000000000000000000000000000000000006111a9565b94828616966110a08180610f76565b9590936110b06020840184610f76565b9690948b3b1561014757604061110060249760009a6110ee60e09b85519e8f9d8e9d8e638a7fb3e5831b8152306004820152015260e48d0191610fa8565b8a81036003190160448c015291610fa8565b950135606487015216608485015260a484015260c4830152038183885af180156102a45761112b5750565b61113490610de7565b565b503393611068565b60405162461bcd60e51b815260206004820152600e60248201526d73656c6c20666565203e2032302560901b6044820152606490fd5b60405162461bcd60e51b815260206004820152600d60248201526c62757920666565203e2032302560981b6044820152606490fd5b6e5af43d82803e903d91602b57fd5bf390763d602d80600a3d3981f3363d3d373d3d3d363d7300000062ffffff8260881c161760005260781b17602052603760096000f0906001600160a01b038216156111ff57565b60405163b06ebf3d60e01b8152600490fd5b3561ffff811681036101475790565b91909161ffff8080941691160191821161123657565b634e487b7160e01b600052601160045260246000fd5b60001981146112365760010190565b919081101561126b5760051b0190565b634e487b7160e01b600052603260045260246000fd5b9190820180921161123657565b1561129557565b60405162461bcd60e51b8152602060048201526015602482015274646973747269627574696f6e203e20737570706c7960581b6044820152606490fd5b9294939190946000958383036113d45760649081841161139b57939291906000945b83861061130d575050505050506111349083111561128e565b90919293949760018060a01b036113286103758b888661125b565b16156113695761133989878661125b565b3590811561135e576113549161134e91611281565b9861124c565b94939291906112f4565b98611354915061124c565b60405162461bcd60e51b815260206004820152600b60248201526a0726563697069656e743d360ac1b60448201528390fd5b5060405162461bcd60e51b8152602060048201526013602482015272746f6f206d616e7920726563697069656e747360681b6044820152fd5b60405162461bcd60e51b815260206004820152600f60248201526e0d8cadccee8d040dad2e6dac2e8c6d608b1b6044820152606490fd5b919081101561126b5760a0020190565b356001600160401b0381168103610147579056fea2646970667358221220b7678065a502b0cc21fb12be6e6b74a16bf3ebabefd798c6569050368f8cebae64736f6c63430008140033","opcodes":"PUSH1 0xC0 CALLVALUE PUSH2 0x168 JUMPI PUSH1 0x1F PUSH2 0x15FD CODESIZE DUP2 SWAP1 SUB SWAP2 DUP3 ADD PUSH1 0x1F NOT AND DUP4 ADD SWAP2 PUSH1 0x1 PUSH1 0x1 PUSH1 0x40 SHL SUB DUP4 GT DUP5 DUP5 LT OR PUSH2 0x16D JUMPI DUP1 DUP5 SWAP3 PUSH1 0x40 SWAP5 DUP6 MSTORE DUP4 CODECOPY DUP2 ADD SUB SLT PUSH2 0x168 JUMPI PUSH2 0x52 PUSH1 0x20 PUSH2 0x4B DUP4 PUSH2 0x183 JUMP JUMPDEST SWAP3 ADD PUSH2 0x183 JUMP JUMPDEST PUSH1 0x1 PUSH1 0x0 SSTORE SWAP1 PUSH1 0x1 PUSH1 0x1 PUSH1 0xA0 SHL SUB DUP1 DUP3 AND ISZERO PUSH2 0x135 JUMPI DUP3 AND ISZERO PUSH2 0x100 JUMPI PUSH1 0x80 MSTORE PUSH1 0xA0 MSTORE PUSH1 0x1 DUP1 SLOAD PUSH1 0x1 PUSH1 0x1 PUSH1 0xA0 SHL SUB NOT AND CALLER SWAP1 DUP2 OR SWAP1 SWAP2 SSTORE PUSH1 0x40 MLOAD SWAP1 PUSH1 0x0 PUSH32 0x8BE0079C531659141344CD1FD0A4F28419497F9722A3DAAFE3B4186F6B6457E0 DUP2 DUP1 LOG3 PUSH6 0x5AF3107A4000 PUSH1 0x2 SSTORE PUSH7 0x38D7EA4C68000 PUSH1 0x3 SSTORE PUSH7 0x11C37937E08000 PUSH1 0x4 SSTORE PUSH2 0x1465 SWAP1 DUP2 PUSH2 0x198 DUP3 CODECOPY PUSH1 0x80 MLOAD DUP2 DUP2 DUP2 PUSH2 0xD50 ADD MSTORE PUSH2 0x106D ADD MSTORE PUSH1 0xA0 MLOAD DUP2 DUP2 DUP2 PUSH2 0x6CD ADD MSTORE PUSH2 0xA75 ADD MSTORE RETURN JUMPDEST PUSH1 0x40 MLOAD PUSH3 0x461BCD PUSH1 0xE5 SHL DUP2 MSTORE PUSH1 0x20 PUSH1 0x4 DUP3 ADD MSTORE PUSH1 0xD PUSH1 0x24 DUP3 ADD MSTORE PUSH13 0x76657374696E67496D706C3D3 PUSH1 0x9C SHL PUSH1 0x44 DUP3 ADD MSTORE PUSH1 0x64 SWAP1 REVERT JUMPDEST PUSH1 0x40 MLOAD PUSH3 0x461BCD PUSH1 0xE5 SHL DUP2 MSTORE PUSH1 0x20 PUSH1 0x4 DUP3 ADD MSTORE PUSH1 0xB PUSH1 0x24 DUP3 ADD MSTORE PUSH11 0x746F6B656E496D706C3D3 PUSH1 0xAC SHL PUSH1 0x44 DUP3 ADD MSTORE PUSH1 0x64 SWAP1 REVERT JUMPDEST PUSH1 0x0 DUP1 REVERT JUMPDEST PUSH4 0x4E487B71 PUSH1 0xE0 SHL PUSH1 0x0 MSTORE PUSH1 0x41 PUSH1 0x4 MSTORE PUSH1 0x24 PUSH1 0x0 REVERT JUMPDEST MLOAD SWAP1 PUSH1 0x1 PUSH1 0x1 PUSH1 0xA0 SHL SUB DUP3 AND DUP3 SUB PUSH2 0x168 JUMPI JUMP INVALID PUSH1 0x80 DUP1 PUSH1 0x40 MSTORE PUSH1 0x4 CALLDATASIZE LT ISZERO PUSH2 0x13 JUMPI PUSH1 0x0 DUP1 REVERT JUMPDEST PUSH1 0x0 CALLDATALOAD PUSH1 0xE0 SHR SWAP1 DUP2 PUSH4 0x2F3A3D5D EQ PUSH2 0xD3D JUMPI POP DUP1 PUSH4 0x308CC33D EQ PUSH2 0xD1F JUMPI DUP1 PUSH4 0x3CB35165 EQ PUSH2 0x880 JUMPI DUP1 PUSH4 0x3DB315BA EQ PUSH2 0x71A JUMPI DUP1 PUSH4 0x79046732 EQ PUSH2 0x6FC JUMPI DUP1 PUSH4 0x8882A2F6 EQ PUSH2 0x6B7 JUMPI DUP1 PUSH4 0x8DA5CB5B EQ PUSH2 0x68E JUMPI DUP1 PUSH4 0xAD3B1B47 EQ PUSH2 0x503 JUMPI DUP1 PUSH4 0xB93C95F3 EQ PUSH2 0x3C5 JUMPI DUP1 PUSH4 0xC48B374D EQ PUSH2 0x3A7 JUMPI DUP1 PUSH4 0xD9A3C821 EQ PUSH2 0x14C JUMPI PUSH4 0xF2FDE38B EQ PUSH2 0xA3 JUMPI PUSH1 0x0 DUP1 REVERT JUMPDEST CALLVALUE PUSH2 0x147 JUMPI PUSH1 0x20 CALLDATASIZE PUSH1 0x3 NOT ADD SLT PUSH2 0x147 JUMPI PUSH1 0x4 CALLDATALOAD PUSH1 0x1 PUSH1 0x1 PUSH1 0xA0 SHL SUB DUP2 DUP2 AND SWAP2 DUP3 SWAP1 SUB PUSH2 0x147 JUMPI PUSH1 0x1 SLOAD SWAP1 DUP2 AND SWAP1 PUSH2 0xDC DUP3 CALLER EQ PUSH2 0xDAF JUMP JUMPDEST DUP3 ISZERO PUSH2 0x118 JUMPI PUSH1 0x1 PUSH1 0x1 PUSH1 0xA0 SHL SUB NOT AND DUP3 OR PUSH1 0x1 SSTORE PUSH32 0x8BE0079C531659141344CD1FD0A4F28419497F9722A3DAAFE3B4186F6B6457E0 PUSH1 0x0 DUP1 LOG3 STOP JUMPDEST PUSH1 0x40 MLOAD PUSH3 0x461BCD PUSH1 0xE5 SHL DUP2 MSTORE PUSH1 0x20 PUSH1 0x4 DUP3 ADD MSTORE PUSH1 0x7 PUSH1 0x24 DUP3 ADD MSTORE PUSH7 0x6F776E65723D3 PUSH1 0xCC SHL PUSH1 0x44 DUP3 ADD MSTORE PUSH1 0x64 SWAP1 REVERT JUMPDEST PUSH1 0x0 DUP1 REVERT JUMPDEST PUSH1 0x3 NOT PUSH1 0x60 CALLDATASIZE DUP3 ADD SLT PUSH2 0x147 JUMPI PUSH1 0x4 CALLDATALOAD SWAP1 PUSH1 0x1 PUSH1 0x1 PUSH1 0x40 SHL SUB SWAP1 DUP2 DUP4 GT PUSH2 0x147 JUMPI PUSH2 0x1E0 SWAP1 DUP4 CALLDATASIZE SUB ADD SLT PUSH2 0x147 JUMPI PUSH1 0x24 CALLDATALOAD DUP2 DUP2 GT PUSH2 0x147 JUMPI PUSH2 0x192 SWAP1 CALLDATASIZE SWAP1 PUSH1 0x4 ADD PUSH2 0xD7F JUMP JUMPDEST SWAP3 SWAP1 PUSH1 0x44 CALLDATALOAD SWAP3 DUP4 GT PUSH2 0x147 JUMPI PUSH2 0x1AF PUSH2 0x1E2 SWAP4 CALLDATASIZE SWAP1 PUSH1 0x4 ADD PUSH2 0xD7F JUMP JUMPDEST SWAP4 SWAP1 SWAP3 PUSH2 0x1BD PUSH1 0x3 SLOAD PUSH2 0xEE7 JUMP JUMPDEST PUSH2 0x1D9 DUP6 DUP6 DUP9 DUP7 PUSH1 0x44 DUP7 ADD CALLDATALOAD PUSH2 0x1D4 DUP2 ISZERO ISZERO PUSH2 0xE1B JUMP JUMPDEST PUSH2 0x12D2 JUMP JUMPDEST POP PUSH1 0x4 ADD PUSH2 0xFC9 JUMP JUMPDEST SWAP5 SWAP1 SWAP4 PUSH1 0x0 JUMPDEST DUP3 DUP2 LT PUSH2 0x31C JUMPI PUSH1 0x40 MLOAD PUSH4 0x70A08231 PUSH1 0xE0 SHL DUP2 MSTORE ADDRESS PUSH1 0x4 DUP3 ADD MSTORE PUSH1 0x20 SWAP1 PUSH1 0x1 PUSH1 0x1 PUSH1 0xA0 SHL SUB SWAP1 DUP10 SWAP1 DUP3 DUP11 AND SWAP1 DUP5 DUP2 PUSH1 0x24 DUP2 DUP6 GAS STATICCALL SWAP1 DUP2 ISZERO PUSH2 0x2A4 JUMPI PUSH1 0x0 SWAP2 PUSH2 0x2EF JUMPI JUMPDEST POP DUP1 PUSH2 0x2B0 JUMPI JUMPDEST POP DUP1 EXTCODESIZE ISZERO PUSH2 0x147 JUMPI PUSH1 0x0 DUP1 SWAP2 PUSH1 0x24 PUSH1 0x40 MLOAD DUP1 SWAP5 DUP2 SWAP4 PUSH4 0xF2FDE38B PUSH1 0xE0 SHL DUP4 MSTORE CALLER PUSH1 0x4 DUP5 ADD MSTORE GAS CALL DUP1 ISZERO PUSH2 0x2A4 JUMPI PUSH2 0x295 JUMPI JUMPDEST POP AND PUSH1 0x40 MLOAD SWAP1 DUP1 CALLER PUSH32 0xD5F9BDF12ADF29DAB0248C349842C3822D53AE2BB4F36352F301630D018C8139 PUSH1 0x0 DUP1 LOG3 DUP2 MSTORE RETURN JUMPDEST PUSH2 0x29E SWAP1 PUSH2 0xDE7 JUMP JUMPDEST DUP4 PUSH2 0x264 JUMP JUMPDEST PUSH1 0x40 MLOAD RETURNDATASIZE PUSH1 0x0 DUP3 RETURNDATACOPY RETURNDATASIZE SWAP1 REVERT JUMPDEST DUP4 DUP4 AND PUSH2 0x2BE DUP3 CALLER DUP4 PUSH2 0xE52 JUMP JUMPDEST PUSH1 0x40 MLOAD SWAP2 DUP3 MSTORE PUSH32 0x67226BACCCEF969DAB310A9E55DC1CF821363658E433FD330344F5CC00C79AC8 DUP7 CALLER SWAP4 LOG3 DUP5 PUSH2 0x232 JUMP JUMPDEST SWAP1 POP DUP5 DUP2 DUP2 RETURNDATASIZE DUP4 GT PUSH2 0x315 JUMPI JUMPDEST PUSH2 0x306 DUP2 DUP4 PUSH2 0xDFA JUMP JUMPDEST DUP2 ADD SUB SLT PUSH2 0x147 JUMPI MLOAD DUP6 PUSH2 0x22B JUMP JUMPDEST POP RETURNDATASIZE PUSH2 0x2FC JUMP JUMPDEST DUP1 PUSH2 0x32B PUSH2 0x39C SWAP3 DUP5 DUP9 PUSH2 0x125B JUMP JUMPDEST CALLDATALOAD DUP1 ISZERO PUSH2 0x3A1 JUMPI PUSH1 0x1 PUSH1 0x1 PUSH1 0xA0 SHL SUB DUP1 DUP11 AND SWAP1 PUSH32 0x67226BACCCEF969DAB310A9E55DC1CF821363658E433FD330344F5CC00C79AC8 SWAP1 PUSH1 0x20 SWAP1 PUSH2 0x380 DUP6 PUSH2 0x37A PUSH2 0x375 DUP10 DUP14 DUP16 PUSH2 0x125B JUMP JUMPDEST PUSH2 0xF62 JUMP JUMPDEST DUP7 PUSH2 0xE52 JUMP JUMPDEST PUSH2 0x38E PUSH2 0x375 DUP8 DUP12 DUP14 PUSH2 0x125B JUMP JUMPDEST AND SWAP4 PUSH1 0x40 MLOAD SWAP1 DUP2 MSTORE LOG3 PUSH2 0x124C JUMP JUMPDEST PUSH2 0x1E8 JUMP JUMPDEST POP PUSH2 0x124C JUMP JUMPDEST CALLVALUE PUSH2 0x147 JUMPI PUSH1 0x0 CALLDATASIZE PUSH1 0x3 NOT ADD SLT PUSH2 0x147 JUMPI PUSH1 0x20 PUSH1 0x4 SLOAD PUSH1 0x40 MLOAD SWAP1 DUP2 MSTORE RETURN JUMPDEST PUSH1 0x20 PUSH1 0x3 NOT DUP2 DUP2 CALLDATASIZE ADD SLT PUSH2 0x147 JUMPI PUSH1 0x4 CALLDATALOAD SWAP1 PUSH1 0x1 PUSH1 0x1 PUSH1 0x40 SHL SUB DUP3 GT PUSH2 0x147 JUMPI PUSH2 0x1E0 SWAP1 DUP3 CALLDATASIZE SUB ADD SLT PUSH2 0x147 JUMPI PUSH2 0x418 SWAP1 PUSH2 0x401 PUSH1 0x2 SLOAD PUSH2 0xEE7 JUMP JUMPDEST PUSH2 0x410 PUSH1 0x44 DUP3 ADD CALLDATALOAD ISZERO ISZERO PUSH2 0xE1B JUMP JUMPDEST PUSH1 0x4 ADD PUSH2 0xFC9 JUMP JUMPDEST PUSH1 0x1 PUSH1 0x1 PUSH1 0xA0 SHL SUB SWAP2 DUP3 AND DUP1 EXTCODESIZE ISZERO PUSH2 0x147 JUMPI PUSH1 0x40 MLOAD PUSH4 0xF2FDE38B PUSH1 0xE0 SHL DUP2 MSTORE CALLER PUSH1 0x4 DUP3 ADD MSTORE SWAP1 PUSH1 0x0 DUP3 PUSH1 0x24 DUP2 DUP4 DUP6 GAS CALL SWAP1 DUP2 ISZERO PUSH2 0x2A4 JUMPI PUSH1 0x24 SWAP3 DUP7 SWAP3 PUSH2 0x4F4 JUMPI JUMPDEST POP PUSH1 0x40 MLOAD PUSH4 0x70A08231 PUSH1 0xE0 SHL DUP2 MSTORE ADDRESS PUSH1 0x4 DUP3 ADD MSTORE SWAP3 DUP4 SWAP2 DUP3 SWAP1 GAS STATICCALL SWAP1 DUP2 ISZERO PUSH2 0x2A4 JUMPI PUSH1 0x0 SWAP2 PUSH2 0x4C7 JUMPI JUMPDEST POP DUP1 PUSH2 0x4BA JUMPI POP AND PUSH1 0x40 MLOAD SWAP1 DUP1 CALLER PUSH32 0xD5F9BDF12ADF29DAB0248C349842C3822D53AE2BB4F36352F301630D018C8139 PUSH1 0x0 DUP1 LOG3 DUP2 MSTORE RETURN JUMPDEST PUSH2 0x29E SWAP1 CALLER DUP5 DUP5 AND PUSH2 0xE52 JUMP JUMPDEST SWAP1 POP DUP4 DUP2 DUP2 RETURNDATASIZE DUP4 GT PUSH2 0x4ED JUMPI JUMPDEST PUSH2 0x4DE DUP2 DUP4 PUSH2 0xDFA JUMP JUMPDEST DUP2 ADD SUB SLT PUSH2 0x147 JUMPI MLOAD DUP5 PUSH2 0x483 JUMP JUMPDEST POP RETURNDATASIZE PUSH2 0x4D4 JUMP JUMPDEST PUSH2 0x4FD SWAP1 PUSH2 0xDE7 JUMP JUMPDEST DUP7 PUSH2 0x459 JUMP JUMPDEST CALLVALUE PUSH2 0x147 JUMPI PUSH1 0x40 CALLDATASIZE PUSH1 0x3 NOT ADD SLT PUSH2 0x147 JUMPI PUSH1 0x4 CALLDATALOAD PUSH1 0x1 PUSH1 0x1 PUSH1 0xA0 SHL SUB DUP2 DUP2 AND SWAP2 DUP3 DUP2 SUB PUSH2 0x147 JUMPI PUSH1 0x24 CALLDATALOAD SWAP1 DUP3 PUSH1 0x1 SLOAD AND SWAP1 PUSH2 0x53F DUP3 CALLER EQ PUSH2 0xDAF JUMP JUMPDEST PUSH1 0x2 PUSH1 0x0 SLOAD EQ PUSH2 0x67C JUMPI PUSH1 0x2 PUSH1 0x0 SSTORE SWAP4 ISZERO PUSH2 0x674 JUMPI JUMPDEST POP DUP1 PUSH2 0x66E JUMPI POP SELFBALANCE SWAP1 JUMPDEST SELFBALANCE DUP3 GT PUSH2 0x632 JUMPI PUSH1 0x0 DUP1 DUP1 SWAP4 DUP2 SWAP4 DUP7 AND DUP1 PUSH32 0xC0819C13BE868895EB93E40EACEB96DE976442FA1D404E5C55F14BB65A8C489A PUSH1 0x20 PUSH1 0x40 MLOAD DUP6 DUP2 MSTORE LOG2 GAS CALL RETURNDATASIZE ISZERO PUSH2 0x62D JUMPI RETURNDATASIZE PUSH1 0x1 PUSH1 0x1 PUSH1 0x40 SHL SUB DUP2 GT PUSH2 0x617 JUMPI PUSH1 0x40 MLOAD SWAP1 PUSH2 0x5C9 PUSH1 0x1F DUP3 ADD PUSH1 0x1F NOT AND PUSH1 0x20 ADD DUP4 PUSH2 0xDFA JUMP JUMPDEST DUP2 MSTORE PUSH1 0x0 PUSH1 0x20 RETURNDATASIZE SWAP3 ADD RETURNDATACOPY JUMPDEST ISZERO PUSH2 0x5E0 JUMPI PUSH1 0x1 PUSH1 0x0 SSTORE STOP JUMPDEST PUSH1 0x40 MLOAD PUSH3 0x461BCD PUSH1 0xE5 SHL DUP2 MSTORE PUSH1 0x20 PUSH1 0x4 DUP3 ADD MSTORE PUSH1 0xF PUSH1 0x24 DUP3 ADD MSTORE PUSH15 0x1DDA5D1A191C985DC819985A5B1959 PUSH1 0x8A SHL PUSH1 0x44 DUP3 ADD MSTORE PUSH1 0x64 SWAP1 REVERT JUMPDEST PUSH4 0x4E487B71 PUSH1 0xE0 SHL PUSH1 0x0 MSTORE PUSH1 0x41 PUSH1 0x4 MSTORE PUSH1 0x24 PUSH1 0x0 REVERT JUMPDEST PUSH2 0x5D4 JUMP JUMPDEST PUSH1 0x40 MLOAD PUSH3 0x461BCD PUSH1 0xE5 SHL DUP2 MSTORE PUSH1 0x20 PUSH1 0x4 DUP3 ADD MSTORE PUSH1 0x14 PUSH1 0x24 DUP3 ADD MSTORE PUSH20 0x696E73756666696369656E742062616C616E6365 PUSH1 0x60 SHL PUSH1 0x44 DUP3 ADD MSTORE PUSH1 0x64 SWAP1 REVERT JUMPDEST SWAP1 PUSH2 0x55F JUMP JUMPDEST SWAP3 POP DUP4 PUSH2 0x555 JUMP JUMPDEST PUSH1 0x40 MLOAD PUSH4 0x3EE5AEB5 PUSH1 0xE0 SHL DUP2 MSTORE PUSH1 0x4 SWAP1 REVERT JUMPDEST CALLVALUE PUSH2 0x147 JUMPI PUSH1 0x0 CALLDATASIZE PUSH1 0x3 NOT ADD SLT PUSH2 0x147 JUMPI PUSH1 0x1 SLOAD PUSH1 0x40 MLOAD PUSH1 0x1 PUSH1 0x1 PUSH1 0xA0 SHL SUB SWAP1 SWAP2 AND DUP2 MSTORE PUSH1 0x20 SWAP1 RETURN JUMPDEST CALLVALUE PUSH2 0x147 JUMPI PUSH1 0x0 CALLDATASIZE PUSH1 0x3 NOT ADD SLT PUSH2 0x147 JUMPI PUSH1 0x40 MLOAD PUSH32 0x0 PUSH1 0x1 PUSH1 0x1 PUSH1 0xA0 SHL SUB AND DUP2 MSTORE PUSH1 0x20 SWAP1 RETURN JUMPDEST CALLVALUE PUSH2 0x147 JUMPI PUSH1 0x0 CALLDATASIZE PUSH1 0x3 NOT ADD SLT PUSH2 0x147 JUMPI PUSH1 0x20 PUSH1 0x3 SLOAD PUSH1 0x40 MLOAD SWAP1 DUP2 MSTORE RETURN JUMPDEST CALLVALUE PUSH2 0x147 JUMPI PUSH1 0x60 CALLDATASIZE PUSH1 0x3 NOT ADD SLT PUSH2 0x147 JUMPI PUSH1 0x4 CALLDATALOAD PUSH1 0x24 CALLDATALOAD PUSH1 0x44 CALLDATALOAD SWAP2 PUSH2 0x74A PUSH1 0x1 DUP1 PUSH1 0xA0 SHL SUB PUSH1 0x1 SLOAD AND CALLER EQ PUSH2 0xDAF JUMP JUMPDEST PUSH8 0xDE0B6B3A7640000 DUP1 DUP3 GT PUSH2 0x846 JUMPI DUP1 DUP4 GT PUSH2 0x801 JUMPI DUP4 GT PUSH2 0x7C5 JUMPI PUSH32 0x2E494FBB5D1BDA2269C90D7124BA22CA99044B61D2A920ECE35A1A1726FF0C37 SWAP3 PUSH1 0xC0 SWAP3 PUSH1 0x2 SLOAD SWAP3 PUSH1 0x3 SLOAD PUSH1 0x4 SLOAD SWAP1 DUP3 PUSH1 0x2 SSTORE DUP4 PUSH1 0x3 SSTORE DUP5 PUSH1 0x4 SSTORE PUSH1 0x40 MLOAD SWAP6 DUP7 MSTORE PUSH1 0x20 DUP7 ADD MSTORE PUSH1 0x40 DUP6 ADD MSTORE PUSH1 0x60 DUP5 ADD MSTORE PUSH1 0x80 DUP4 ADD MSTORE PUSH1 0xA0 DUP3 ADD MSTORE LOG1 STOP JUMPDEST PUSH1 0x40 MLOAD PUSH3 0x461BCD PUSH1 0xE5 SHL DUP2 MSTORE PUSH1 0x20 PUSH1 0x4 DUP3 ADD MSTORE PUSH1 0x14 PUSH1 0x24 DUP3 ADD MSTORE PUSH20 0xECCAE6E8D2DCCE40CCCACA40E8DEDE40D0D2CED PUSH1 0x63 SHL PUSH1 0x44 DUP3 ADD MSTORE PUSH1 0x64 SWAP1 REVERT JUMPDEST PUSH1 0x40 MLOAD PUSH3 0x461BCD PUSH1 0xE5 SHL DUP2 MSTORE PUSH1 0x20 PUSH1 0x4 DUP3 ADD MSTORE PUSH1 0x19 PUSH1 0x24 DUP3 ADD MSTORE PUSH32 0x646973747269627574696F6E2066656520746F6F206869676800000000000000 PUSH1 0x44 DUP3 ADD MSTORE PUSH1 0x64 SWAP1 REVERT JUMPDEST PUSH1 0x40 MLOAD PUSH3 0x461BCD PUSH1 0xE5 SHL DUP2 MSTORE PUSH1 0x20 PUSH1 0x4 DUP3 ADD MSTORE PUSH1 0x12 PUSH1 0x24 DUP3 ADD MSTORE PUSH18 0xC4C2E6D2C640CCCACA40E8DEDE40D0D2CED PUSH1 0x73 SHL PUSH1 0x44 DUP3 ADD MSTORE PUSH1 0x64 SWAP1 REVERT JUMPDEST PUSH1 0x3 NOT PUSH1 0x80 CALLDATASIZE DUP3 ADD SLT PUSH2 0x147 JUMPI PUSH1 0x1 PUSH1 0x1 PUSH1 0x40 SHL SUB PUSH1 0x4 CALLDATALOAD GT PUSH2 0x147 JUMPI PUSH2 0x1E0 SWAP1 PUSH1 0x4 CALLDATALOAD CALLDATASIZE SUB ADD SLT PUSH2 0x147 JUMPI PUSH1 0x24 CALLDATALOAD PUSH1 0x1 PUSH1 0x1 PUSH1 0x40 SHL SUB DUP2 GT PUSH2 0x147 JUMPI PUSH2 0x8CB SWAP1 CALLDATASIZE SWAP1 PUSH1 0x4 ADD PUSH2 0xD7F JUMP JUMPDEST SWAP1 PUSH1 0x44 CALLDATALOAD PUSH1 0x1 PUSH1 0x1 PUSH1 0x40 SHL SUB DUP2 GT PUSH2 0x147 JUMPI PUSH2 0x8EB SWAP1 CALLDATASIZE SWAP1 PUSH1 0x4 ADD PUSH2 0xD7F JUMP JUMPDEST SWAP2 SWAP1 PUSH1 0x64 CALLDATALOAD SWAP2 PUSH1 0x1 PUSH1 0x1 PUSH1 0x40 SHL SUB DUP4 GT PUSH2 0x147 JUMPI CALLDATASIZE PUSH1 0x23 DUP5 ADD SLT ISZERO PUSH2 0x147 JUMPI PUSH1 0x1 PUSH1 0x1 PUSH1 0x40 SHL SUB DUP4 PUSH1 0x4 ADD CALLDATALOAD GT PUSH2 0x147 JUMPI CALLDATASIZE PUSH1 0x24 PUSH1 0xA0 DUP6 PUSH1 0x4 ADD CALLDATALOAD MUL DUP6 ADD ADD GT PUSH2 0x147 JUMPI PUSH2 0x93A PUSH1 0x4 SLOAD PUSH2 0xEE7 JUMP JUMPDEST PUSH2 0x94B PUSH1 0x44 PUSH1 0x4 CALLDATALOAD ADD CALLDATALOAD ISZERO ISZERO PUSH2 0xE1B JUMP JUMPDEST PUSH2 0x95E DUP5 DUP4 DUP8 DUP5 PUSH1 0x44 PUSH1 0x4 CALLDATALOAD ADD CALLDATALOAD PUSH2 0x12D2 JUMP JUMPDEST PUSH1 0x32 DUP5 PUSH1 0x4 ADD CALLDATALOAD GT PUSH2 0xCE6 JUMPI PUSH1 0x0 SWAP1 JUMPDEST DUP5 PUSH1 0x4 ADD CALLDATALOAD DUP3 LT PUSH2 0xC2C JUMPI PUSH2 0x98C SWAP2 POP PUSH1 0x44 PUSH1 0x4 CALLDATALOAD ADD CALLDATALOAD LT ISZERO PUSH2 0x128E JUMP JUMPDEST PUSH2 0x99A PUSH1 0x4 CALLDATALOAD PUSH1 0x4 ADD PUSH2 0xFC9 JUMP JUMPDEST SWAP6 SWAP1 SWAP5 PUSH1 0x0 JUMPDEST DUP3 DUP2 LT PUSH2 0xBCE JUMPI DUP8 DUP8 DUP8 PUSH1 0x0 JUMPDEST DUP2 PUSH1 0x4 ADD CALLDATALOAD DUP2 LT PUSH2 0xA5D JUMPI POP POP PUSH1 0x40 MLOAD PUSH4 0x70A08231 PUSH1 0xE0 SHL DUP2 MSTORE ADDRESS PUSH1 0x4 DUP3 ADD MSTORE PUSH1 0x20 SWAP3 PUSH1 0x1 PUSH1 0x1 PUSH1 0xA0 SHL SUB SWAP3 SWAP1 SWAP2 SWAP1 DUP4 AND SWAP1 DUP5 DUP2 PUSH1 0x24 DUP2 DUP6 GAS STATICCALL SWAP1 DUP2 ISZERO PUSH2 0x2A4 JUMPI PUSH1 0x0 SWAP2 PUSH2 0x2EF JUMPI POP DUP1 PUSH2 0x2B0 JUMPI POP DUP1 EXTCODESIZE ISZERO PUSH2 0x147 JUMPI PUSH1 0x0 DUP1 SWAP2 PUSH1 0x24 PUSH1 0x40 MLOAD DUP1 SWAP5 DUP2 SWAP4 PUSH4 0xF2FDE38B PUSH1 0xE0 SHL DUP4 MSTORE CALLER PUSH1 0x4 DUP5 ADD MSTORE GAS CALL DUP1 ISZERO PUSH2 0x2A4 JUMPI PUSH2 0x295 JUMPI POP AND PUSH1 0x40 MLOAD SWAP1 DUP1 CALLER PUSH32 0xD5F9BDF12ADF29DAB0248C349842C3822D53AE2BB4F36352F301630D018C8139 PUSH1 0x0 DUP1 LOG3 DUP2 MSTORE RETURN JUMPDEST PUSH2 0xA6F DUP2 DUP4 PUSH1 0x4 ADD CALLDATALOAD PUSH1 0x24 DUP6 ADD PUSH2 0x140B JUMP JUMPDEST SWAP1 PUSH2 0xA99 PUSH32 0x0 PUSH2 0x11A9 JUMP JUMPDEST PUSH2 0xAA2 DUP4 PUSH2 0xF62 JUMP JUMPDEST SWAP3 PUSH2 0xAAF PUSH1 0x20 DUP3 ADD PUSH2 0x141B JUMP JUMPDEST PUSH2 0xABB PUSH1 0x40 DUP4 ADD PUSH2 0x141B JUMP JUMPDEST SWAP1 PUSH2 0xAC8 PUSH1 0x60 DUP5 ADD PUSH2 0x141B JUMP JUMPDEST SWAP1 PUSH1 0x1 PUSH1 0x1 PUSH1 0xA0 SHL SUB DUP6 AND EXTCODESIZE ISZERO PUSH2 0x147 JUMPI PUSH1 0x40 MLOAD PUSH4 0xC5FA3DA3 PUSH1 0xE0 SHL DUP2 MSTORE PUSH1 0x1 PUSH1 0x1 PUSH1 0xA0 SHL SUB DUP1 DUP13 AND PUSH1 0x4 DUP4 ADD MSTORE SWAP8 DUP9 AND PUSH1 0x24 DUP3 ADD MSTORE PUSH1 0x1 PUSH1 0x1 PUSH1 0x40 SHL SUB SWAP2 DUP3 AND PUSH1 0x44 DUP3 ADD MSTORE SWAP3 DUP2 AND PUSH1 0x64 DUP5 ADD MSTORE AND PUSH1 0x84 DUP3 ADD MSTORE PUSH1 0x80 DUP3 ADD CALLDATALOAD PUSH1 0xA4 DUP3 ADD MSTORE SWAP4 PUSH1 0x0 SWAP1 DUP6 SWAP1 PUSH1 0xC4 SWAP1 DUP3 SWAP1 DUP5 SWAP1 DUP8 AND GAS CALL SWAP4 DUP5 ISZERO PUSH2 0x2A4 JUMPI PUSH2 0xBBA SWAP5 PUSH2 0xBBF JUMPI JUMPDEST POP PUSH2 0xB60 PUSH1 0x80 DUP3 ADD CALLDATALOAD DUP4 PUSH1 0x1 PUSH1 0x1 PUSH1 0xA0 SHL SUB DUP11 AND PUSH2 0xE52 JUMP JUMPDEST PUSH1 0x1 PUSH1 0x1 PUSH1 0xA0 SHL SUB PUSH2 0xB71 DUP3 PUSH2 0xF62 JUMP JUMPDEST PUSH1 0x40 MLOAD PUSH1 0x80 SWAP4 SWAP1 SWAP4 ADD CALLDATALOAD DUP4 MSTORE AND SWAP2 PUSH1 0x1 PUSH1 0x1 PUSH1 0xA0 SHL SUB SWAP1 DUP2 AND SWAP2 SWAP1 DUP9 AND SWAP1 PUSH32 0x1B138257231D2C00719335BC377B9C84F462339563B691E1DAB140FBEF52B41E SWAP1 PUSH1 0x20 SWAP1 LOG4 PUSH2 0x124C JUMP JUMPDEST PUSH2 0x9AD JUMP JUMPDEST PUSH2 0xBC8 SWAP1 PUSH2 0xDE7 JUMP JUMPDEST DUP8 PUSH2 0xB47 JUMP JUMPDEST DUP1 PUSH2 0xBDD PUSH2 0xC27 SWAP3 DUP5 DUP9 PUSH2 0x125B JUMP JUMPDEST CALLDATALOAD DUP1 ISZERO PUSH2 0x3A1 JUMPI PUSH1 0x1 PUSH1 0x1 PUSH1 0xA0 SHL SUB DUP1 DUP12 AND SWAP1 PUSH32 0x67226BACCCEF969DAB310A9E55DC1CF821363658E433FD330344F5CC00C79AC8 SWAP1 PUSH1 0x20 SWAP1 PUSH2 0x380 DUP6 PUSH2 0x37A PUSH2 0x375 DUP10 DUP14 DUP16 PUSH2 0x125B JUMP JUMPDEST PUSH2 0x9A0 JUMP JUMPDEST PUSH2 0xC3E DUP3 DUP7 PUSH1 0x4 ADD CALLDATALOAD PUSH1 0x24 DUP9 ADD PUSH2 0x140B JUMP JUMPDEST PUSH1 0x1 PUSH1 0x1 PUSH1 0xA0 SHL SUB PUSH2 0xC4F DUP3 PUSH2 0xF62 JUMP JUMPDEST AND ISZERO PUSH2 0xCB1 JUMPI PUSH1 0x80 ADD CALLDATALOAD SWAP1 DUP2 ISZERO PUSH2 0xC79 JUMPI PUSH2 0xC73 SWAP2 PUSH2 0xC6D SWAP2 PUSH2 0x1281 JUMP JUMPDEST SWAP2 PUSH2 0x124C JUMP JUMPDEST SWAP1 PUSH2 0x96E JUMP JUMPDEST PUSH1 0x40 MLOAD PUSH3 0x461BCD PUSH1 0xE5 SHL DUP2 MSTORE PUSH1 0x20 PUSH1 0x4 DUP3 ADD MSTORE PUSH1 0x10 PUSH1 0x24 DUP3 ADD MSTORE PUSH16 0x76657374696E6720616D6F756E743D3 PUSH1 0x84 SHL PUSH1 0x44 DUP3 ADD MSTORE PUSH1 0x64 SWAP1 REVERT JUMPDEST PUSH1 0x40 MLOAD PUSH3 0x461BCD PUSH1 0xE5 SHL DUP2 MSTORE PUSH1 0x20 PUSH1 0x4 DUP3 ADD MSTORE PUSH1 0xD PUSH1 0x24 DUP3 ADD MSTORE PUSH13 0x62656E65666963696172793D3 PUSH1 0x9C SHL PUSH1 0x44 DUP3 ADD MSTORE PUSH1 0x64 SWAP1 REVERT JUMPDEST PUSH1 0x40 MLOAD PUSH3 0x461BCD PUSH1 0xE5 SHL DUP2 MSTORE PUSH1 0x20 PUSH1 0x4 DUP3 ADD MSTORE PUSH1 0x11 PUSH1 0x24 DUP3 ADD MSTORE PUSH17 0x746F6F206D616E792076657374696E6773 PUSH1 0x78 SHL PUSH1 0x44 DUP3 ADD MSTORE PUSH1 0x64 SWAP1 REVERT JUMPDEST CALLVALUE PUSH2 0x147 JUMPI PUSH1 0x0 CALLDATASIZE PUSH1 0x3 NOT ADD SLT PUSH2 0x147 JUMPI PUSH1 0x20 PUSH1 0x2 SLOAD PUSH1 0x40 MLOAD SWAP1 DUP2 MSTORE RETURN JUMPDEST CALLVALUE PUSH2 0x147 JUMPI PUSH1 0x0 CALLDATASIZE PUSH1 0x3 NOT ADD SLT PUSH2 0x147 JUMPI PUSH32 0x0 PUSH1 0x1 PUSH1 0x1 PUSH1 0xA0 SHL SUB AND DUP2 MSTORE PUSH1 0x20 SWAP1 RETURN JUMPDEST SWAP2 DUP2 PUSH1 0x1F DUP5 ADD SLT ISZERO PUSH2 0x147 JUMPI DUP3 CALLDATALOAD SWAP2 PUSH1 0x1 PUSH1 0x1 PUSH1 0x40 SHL SUB DUP4 GT PUSH2 0x147 JUMPI PUSH1 0x20 DUP1 DUP6 ADD SWAP5 DUP5 PUSH1 0x5 SHL ADD ADD GT PUSH2 0x147 JUMPI JUMP JUMPDEST ISZERO PUSH2 0xDB6 JUMPI JUMP JUMPDEST PUSH1 0x40 MLOAD PUSH3 0x461BCD PUSH1 0xE5 SHL DUP2 MSTORE PUSH1 0x20 PUSH1 0x4 DUP3 ADD MSTORE PUSH1 0x9 PUSH1 0x24 DUP3 ADD MSTORE PUSH9 0x3737BA1037BBB732B9 PUSH1 0xB9 SHL PUSH1 0x44 DUP3 ADD MSTORE PUSH1 0x64 SWAP1 REVERT JUMPDEST PUSH1 0x1 PUSH1 0x1 PUSH1 0x40 SHL SUB DUP2 GT PUSH2 0x617 JUMPI PUSH1 0x40 MSTORE JUMP JUMPDEST SWAP1 PUSH1 0x1F DUP1 NOT SWAP2 ADD AND DUP2 ADD SWAP1 DUP2 LT PUSH1 0x1 PUSH1 0x1 PUSH1 0x40 SHL SUB DUP3 GT OR PUSH2 0x617 JUMPI PUSH1 0x40 MSTORE JUMP JUMPDEST ISZERO PUSH2 0xE22 JUMPI JUMP JUMPDEST PUSH1 0x40 MLOAD PUSH3 0x461BCD PUSH1 0xE5 SHL DUP2 MSTORE PUSH1 0x20 PUSH1 0x4 DUP3 ADD MSTORE PUSH1 0x8 PUSH1 0x24 DUP3 ADD MSTORE PUSH8 0x737570706C793D3 PUSH1 0xC4 SHL PUSH1 0x44 DUP3 ADD MSTORE PUSH1 0x64 SWAP1 REVERT JUMPDEST PUSH1 0x40 MLOAD PUSH4 0xA9059CBB PUSH1 0xE0 SHL PUSH1 0x20 DUP3 ADD SWAP1 DUP2 MSTORE PUSH1 0x1 PUSH1 0x1 PUSH1 0xA0 SHL SUB SWAP4 DUP5 AND PUSH1 0x24 DUP4 ADD MSTORE PUSH1 0x44 DUP1 DUP4 ADD SWAP6 SWAP1 SWAP6 MSTORE SWAP4 DUP2 MSTORE SWAP1 SWAP3 PUSH1 0x80 DUP3 ADD SWAP1 PUSH1 0x1 PUSH1 0x1 PUSH1 0x40 SHL SUB DUP3 GT DUP4 DUP4 LT OR PUSH2 0x617 JUMPI PUSH1 0x20 SWAP3 PUSH1 0x0 SWAP3 PUSH1 0x40 MSTORE MLOAD SWAP1 DUP3 DUP7 GAS CALL ISZERO PUSH2 0x2A4 JUMPI PUSH1 0x0 MLOAD RETURNDATASIZE PUSH2 0xEDE JUMPI POP DUP1 DUP3 AND EXTCODESIZE ISZERO JUMPDEST PUSH2 0xEC4 JUMPI POP POP JUMP JUMPDEST PUSH1 0x40 MLOAD PUSH4 0x5274AFE7 PUSH1 0xE0 SHL DUP2 MSTORE SWAP2 AND PUSH1 0x4 DUP3 ADD MSTORE PUSH1 0x24 SWAP2 POP REVERT JUMPDEST PUSH1 0x1 EQ ISZERO PUSH2 0xEBC JUMP JUMPDEST DUP1 PUSH2 0xF2B JUMPI POP CALLVALUE PUSH2 0xEF4 JUMPI JUMP JUMPDEST PUSH1 0x40 MLOAD PUSH3 0x461BCD PUSH1 0xE5 SHL DUP2 MSTORE PUSH1 0x20 PUSH1 0x4 DUP3 ADD MSTORE PUSH1 0xF PUSH1 0x24 DUP3 ADD MSTORE PUSH15 0x1B9BC8199959481C995C5D5A5C9959 PUSH1 0x8A SHL PUSH1 0x44 DUP3 ADD MSTORE PUSH1 0x64 SWAP1 REVERT JUMPDEST CALLVALUE SUB PUSH2 0xF33 JUMPI JUMP JUMPDEST PUSH1 0x40 MLOAD PUSH3 0x461BCD PUSH1 0xE5 SHL DUP2 MSTORE PUSH1 0x20 PUSH1 0x4 DUP3 ADD MSTORE PUSH1 0x7 PUSH1 0x24 DUP3 ADD MSTORE PUSH7 0x62616420666565 PUSH1 0xC8 SHL PUSH1 0x44 DUP3 ADD MSTORE PUSH1 0x64 SWAP1 REVERT JUMPDEST CALLDATALOAD PUSH1 0x1 PUSH1 0x1 PUSH1 0xA0 SHL SUB DUP2 AND DUP2 SUB PUSH2 0x147 JUMPI SWAP1 JUMP JUMPDEST SWAP1 CALLDATALOAD SWAP1 PUSH1 0x1E NOT DUP2 CALLDATASIZE SUB ADD DUP3 SLT ISZERO PUSH2 0x147 JUMPI ADD DUP1 CALLDATALOAD SWAP1 PUSH1 0x1 PUSH1 0x1 PUSH1 0x40 SHL SUB DUP3 GT PUSH2 0x147 JUMPI PUSH1 0x20 ADD SWAP2 DUP2 CALLDATASIZE SUB DUP4 SGT PUSH2 0x147 JUMPI JUMP JUMPDEST SWAP1 DUP1 PUSH1 0x20 SWAP4 SWAP3 DUP2 DUP5 MSTORE DUP5 DUP5 ADD CALLDATACOPY PUSH1 0x0 DUP3 DUP3 ADD DUP5 ADD MSTORE PUSH1 0x1F ADD PUSH1 0x1F NOT AND ADD ADD SWAP1 JUMP JUMPDEST SWAP1 PUSH2 0xFFA PUSH2 0xFEE PUSH2 0xFDC PUSH1 0x80 DUP6 ADD PUSH2 0x1211 JUMP JUMPDEST PUSH2 0xFE8 PUSH1 0xA0 DUP7 ADD PUSH2 0x1211 JUMP JUMPDEST SWAP1 PUSH2 0x1220 JUMP JUMPDEST PUSH2 0xFE8 PUSH1 0xC0 DUP6 ADD PUSH2 0x1211 JUMP JUMPDEST SWAP1 PUSH2 0x1027 PUSH2 0x101A PUSH2 0x100D PUSH1 0xE0 DUP7 ADD PUSH2 0x1211 JUMP JUMPDEST PUSH2 0xFE8 PUSH2 0x100 DUP8 ADD PUSH2 0x1211 JUMP JUMPDEST PUSH2 0xFE8 PUSH2 0x120 DUP7 ADD PUSH2 0x1211 JUMP JUMPDEST PUSH2 0xFFFF DUP1 SWAP4 AND SWAP3 PUSH2 0x7D0 SWAP2 DUP3 DUP6 GT PUSH2 0x1174 JUMPI AND SWAP1 DUP2 GT PUSH2 0x113E JUMPI PUSH1 0x1 PUSH1 0x1 PUSH1 0xA0 SHL SUB PUSH1 0x60 DUP6 ADD DUP2 PUSH2 0x1057 DUP3 PUSH2 0xF62 JUMP JUMPDEST AND ISZERO PUSH2 0x1136 JUMPI PUSH2 0x1066 SWAP1 PUSH2 0xF62 JUMP JUMPDEST SWAP4 JUMPDEST PUSH2 0x1091 PUSH32 0x0 PUSH2 0x11A9 JUMP JUMPDEST SWAP5 DUP3 DUP7 AND SWAP7 PUSH2 0x10A0 DUP2 DUP1 PUSH2 0xF76 JUMP JUMPDEST SWAP6 SWAP1 SWAP4 PUSH2 0x10B0 PUSH1 0x20 DUP5 ADD DUP5 PUSH2 0xF76 JUMP JUMPDEST SWAP7 SWAP1 SWAP5 DUP12 EXTCODESIZE ISZERO PUSH2 0x147 JUMPI PUSH1 0x40 PUSH2 0x1100 PUSH1 0x24 SWAP8 PUSH1 0x0 SWAP11 PUSH2 0x10EE PUSH1 0xE0 SWAP12 DUP6 MLOAD SWAP15 DUP16 SWAP14 DUP15 SWAP14 DUP15 PUSH4 0x8A7FB3E5 DUP4 SHL DUP2 MSTORE ADDRESS PUSH1 0x4 DUP3 ADD MSTORE ADD MSTORE PUSH1 0xE4 DUP14 ADD SWAP2 PUSH2 0xFA8 JUMP JUMPDEST DUP11 DUP2 SUB PUSH1 0x3 NOT ADD PUSH1 0x44 DUP13 ADD MSTORE SWAP2 PUSH2 0xFA8 JUMP JUMPDEST SWAP6 ADD CALLDATALOAD PUSH1 0x64 DUP8 ADD MSTORE AND PUSH1 0x84 DUP6 ADD MSTORE PUSH1 0xA4 DUP5 ADD MSTORE PUSH1 0xC4 DUP4 ADD MSTORE SUB DUP2 DUP4 DUP9 GAS CALL DUP1 ISZERO PUSH2 0x2A4 JUMPI PUSH2 0x112B JUMPI POP JUMP JUMPDEST PUSH2 0x1134 SWAP1 PUSH2 0xDE7 JUMP JUMPDEST JUMP JUMPDEST POP CALLER SWAP4 PUSH2 0x1068 JUMP JUMPDEST PUSH1 0x40 MLOAD PUSH3 0x461BCD PUSH1 0xE5 SHL DUP2 MSTORE PUSH1 0x20 PUSH1 0x4 DUP3 ADD MSTORE PUSH1 0xE PUSH1 0x24 DUP3 ADD MSTORE PUSH14 0x73656C6C20666565203E20323025 PUSH1 0x90 SHL PUSH1 0x44 DUP3 ADD MSTORE PUSH1 0x64 SWAP1 REVERT JUMPDEST PUSH1 0x40 MLOAD PUSH3 0x461BCD PUSH1 0xE5 SHL DUP2 MSTORE PUSH1 0x20 PUSH1 0x4 DUP3 ADD MSTORE PUSH1 0xD PUSH1 0x24 DUP3 ADD MSTORE PUSH13 0x62757920666565203E20323025 PUSH1 0x98 SHL PUSH1 0x44 DUP3 ADD MSTORE PUSH1 0x64 SWAP1 REVERT JUMPDEST PUSH15 0x5AF43D82803E903D91602B57FD5BF3 SWAP1 PUSH23 0x3D602D80600A3D3981F3363D3D373D3D3D363D73000000 PUSH3 0xFFFFFF DUP3 PUSH1 0x88 SHR AND OR PUSH1 0x0 MSTORE PUSH1 0x78 SHL OR PUSH1 0x20 MSTORE PUSH1 0x37 PUSH1 0x9 PUSH1 0x0 CREATE SWAP1 PUSH1 0x1 PUSH1 0x1 PUSH1 0xA0 SHL SUB DUP3 AND ISZERO PUSH2 0x11FF JUMPI JUMP JUMPDEST PUSH1 0x40 MLOAD PUSH4 0xB06EBF3D PUSH1 0xE0 SHL DUP2 MSTORE PUSH1 0x4 SWAP1 REVERT JUMPDEST CALLDATALOAD PUSH2 0xFFFF DUP2 AND DUP2 SUB PUSH2 0x147 JUMPI SWAP1 JUMP JUMPDEST SWAP2 SWAP1 SWAP2 PUSH2 0xFFFF DUP1 DUP1 SWAP5 AND SWAP2 AND ADD SWAP2 DUP3 GT PUSH2 0x1236 JUMPI JUMP JUMPDEST PUSH4 0x4E487B71 PUSH1 0xE0 SHL PUSH1 0x0 MSTORE PUSH1 0x11 PUSH1 0x4 MSTORE PUSH1 0x24 PUSH1 0x0 REVERT JUMPDEST PUSH1 0x0 NOT DUP2 EQ PUSH2 0x1236 JUMPI PUSH1 0x1 ADD SWAP1 JUMP JUMPDEST SWAP2 SWAP1 DUP2 LT ISZERO PUSH2 0x126B JUMPI PUSH1 0x5 SHL ADD SWAP1 JUMP JUMPDEST PUSH4 0x4E487B71 PUSH1 0xE0 SHL PUSH1 0x0 MSTORE PUSH1 0x32 PUSH1 0x4 MSTORE PUSH1 0x24 PUSH1 0x0 REVERT JUMPDEST SWAP2 SWAP1 DUP3 ADD DUP1 SWAP3 GT PUSH2 0x1236 JUMPI JUMP JUMPDEST ISZERO PUSH2 0x1295 JUMPI JUMP JUMPDEST PUSH1 0x40 MLOAD PUSH3 0x461BCD PUSH1 0xE5 SHL DUP2 MSTORE PUSH1 0x20 PUSH1 0x4 DUP3 ADD MSTORE PUSH1 0x15 PUSH1 0x24 DUP3 ADD MSTORE PUSH21 0x646973747269627574696F6E203E20737570706C79 PUSH1 0x58 SHL PUSH1 0x44 DUP3 ADD MSTORE PUSH1 0x64 SWAP1 REVERT JUMPDEST SWAP3 SWAP5 SWAP4 SWAP2 SWAP1 SWAP5 PUSH1 0x0 SWAP6 DUP4 DUP4 SUB PUSH2 0x13D4 JUMPI PUSH1 0x64 SWAP1 DUP2 DUP5 GT PUSH2 0x139B JUMPI SWAP4 SWAP3 SWAP2 SWAP1 PUSH1 0x0 SWAP5 JUMPDEST DUP4 DUP7 LT PUSH2 0x130D JUMPI POP POP POP POP POP POP PUSH2 0x1134 SWAP1 DUP4 GT ISZERO PUSH2 0x128E JUMP JUMPDEST SWAP1 SWAP2 SWAP3 SWAP4 SWAP5 SWAP8 PUSH1 0x1 DUP1 PUSH1 0xA0 SHL SUB PUSH2 0x1328 PUSH2 0x375 DUP12 DUP9 DUP7 PUSH2 0x125B JUMP JUMPDEST AND ISZERO PUSH2 0x1369 JUMPI PUSH2 0x1339 DUP10 DUP8 DUP7 PUSH2 0x125B JUMP JUMPDEST CALLDATALOAD SWAP1 DUP2 ISZERO PUSH2 0x135E JUMPI PUSH2 0x1354 SWAP2 PUSH2 0x134E SWAP2 PUSH2 0x1281 JUMP JUMPDEST SWAP9 PUSH2 0x124C JUMP JUMPDEST SWAP5 SWAP4 SWAP3 SWAP2 SWAP1 PUSH2 0x12F4 JUMP JUMPDEST SWAP9 PUSH2 0x1354 SWAP2 POP PUSH2 0x124C JUMP JUMPDEST PUSH1 0x40 MLOAD PUSH3 0x461BCD PUSH1 0xE5 SHL DUP2 MSTORE PUSH1 0x20 PUSH1 0x4 DUP3 ADD MSTORE PUSH1 0xB PUSH1 0x24 DUP3 ADD MSTORE PUSH11 0x726563697069656E743D3 PUSH1 0xAC SHL PUSH1 0x44 DUP3 ADD MSTORE DUP4 SWAP1 REVERT JUMPDEST POP PUSH1 0x40 MLOAD PUSH3 0x461BCD PUSH1 0xE5 SHL DUP2 MSTORE PUSH1 0x20 PUSH1 0x4 DUP3 ADD MSTORE PUSH1 0x13 PUSH1 0x24 DUP3 ADD MSTORE PUSH19 0x746F6F206D616E7920726563697069656E7473 PUSH1 0x68 SHL PUSH1 0x44 DUP3 ADD MSTORE REVERT JUMPDEST PUSH1 0x40 MLOAD PUSH3 0x461BCD PUSH1 0xE5 SHL DUP2 MSTORE PUSH1 0x20 PUSH1 0x4 DUP3 ADD MSTORE PUSH1 0xF PUSH1 0x24 DUP3 ADD MSTORE PUSH15 0xD8CADCCEE8D040DAD2E6DAC2E8C6D PUSH1 0x8B SHL PUSH1 0x44 DUP3 ADD MSTORE PUSH1 0x64 SWAP1 REVERT JUMPDEST SWAP2 SWAP1 DUP2 LT ISZERO PUSH2 0x126B JUMPI PUSH1 0xA0 MUL ADD SWAP1 JUMP JUMPDEST CALLDATALOAD PUSH1 0x1 PUSH1 0x1 PUSH1 0x40 SHL SUB DUP2 AND DUP2 SUB PUSH2 0x147 JUMPI SWAP1 JUMP INVALID LOG2 PUSH5 0x6970667358 0x22 SLT KECCAK256 0xB7 PUSH8 0x8065A502B0CC21FB SLT 0xBE PUSH15 0x6B74A16BF3EBABEFD798C656905036 DUP16 DUP13 0xEB 0xAE PUSH5 0x736F6C6343 STOP ADDMOD EQ STOP CALLER "},"methodIdentifiers":{"basicFeeWei()":"308cc33d","createToken((string,string,uint256,address,(uint16,uint16,uint16,uint16,uint16,uint16),(uint256,uint256,bool,uint256,uint256)))":"b93c95f3","createTokenWithDistribution((string,string,uint256,address,(uint16,uint16,uint16,uint16,uint16,uint16),(uint256,uint256,bool,uint256,uint256)),address[],uint256[])":"d9a3c821","createTokenWithDistributionAndVesting((string,string,uint256,address,(uint16,uint16,uint16,uint16,uint16,uint16),(uint256,uint256,bool,uint256,uint256)),address[],uint256[],(address,uint64,uint64,uint64,uint256)[])":"3cb35165","distributionFeeWei()":"79046732","owner()":"8da5cb5b","setFeesWei(uint256,uint256,uint256)":"3db315ba","tokenImplementation()":"2f3a3d5d","transferOwnership(address)":"f2fde38b","vestingFeeWei()":"c48b374d","vestingImplementation()":"8882a2f6","withdrawFees(address,uint256)":"ad3b1b47"}}}}}