{"contracts/launch/TokenFactory.sol":{"TokenFactory":{"abi":[{"inputs":[{"internalType":"address","name":"vestingImplementation_","type":"address"}],"stateMutability":"nonpayable","type":"constructor"},{"inputs":[],"name":"FailedDeployment","type":"error"},{"inputs":[{"internalType":"uint256","name":"balance","type":"uint256"},{"internalType":"uint256","name":"needed","type":"uint256"}],"name":"InsufficientBalance","type":"error"},{"inputs":[],"name":"ReentrancyGuardReentrantCall","type":"error"},{"inputs":[{"internalType":"address","name":"token","type":"address"}],"name":"SafeERC20FailedOperation","type":"error"},{"anonymous":false,"inputs":[{"indexed":false,"internalType":"uint256","name":"oldBasicFeeWei","type":"uint256"},{"indexed":false,"internalType":"uint256","name":"oldDistributionFeeWei","type":"uint256"},{"indexed":false,"internalType":"uint256","name":"oldVestingFeeWei","type":"uint256"},{"indexed":false,"internalType":"uint256","name":"newBasicFeeWei","type":"uint256"},{"indexed":false,"internalType":"uint256","name":"newDistributionFeeWei","type":"uint256"},{"indexed":false,"internalType":"uint256","name":"newVestingFeeWei","type":"uint256"}],"name":"FeesUpdated","type":"event"},{"anonymous":false,"inputs":[{"indexed":true,"internalType":"address","name":"to","type":"address"},{"indexed":false,"internalType":"uint256","name":"amountWei","type":"uint256"}],"name":"FeesWithdrawn","type":"event"},{"anonymous":false,"inputs":[{"indexed":true,"internalType":"address","name":"previousOwner","type":"address"},{"indexed":true,"internalType":"address","name":"newOwner","type":"address"}],"name":"OwnershipTransferred","type":"event"},{"anonymous":false,"inputs":[{"indexed":true,"internalType":"address","name":"creator","type":"address"},{"indexed":true,"internalType":"address","name":"token","type":"address"}],"name":"TokenCreated","type":"event"},{"anonymous":false,"inputs":[{"indexed":true,"internalType":"address","name":"token","type":"address"},{"indexed":true,"internalType":"address","name":"to","type":"address"},{"indexed":false,"internalType":"uint256","name":"amount","type":"uint256"}],"name":"TokenDistributed","type":"event"},{"anonymous":false,"inputs":[{"indexed":true,"internalType":"address","name":"token","type":"address"},{"indexed":true,"internalType":"address","name":"vault","type":"address"},{"indexed":true,"internalType":"address","name":"beneficiary","type":"address"},{"indexed":false,"internalType":"uint256","name":"amount","type":"uint256"}],"name":"VestingCreated","type":"event"},{"inputs":[],"name":"basicFeeWei","outputs":[{"internalType":"uint256","name":"","type":"uint256"}],"stateMutability":"view","type":"function"},{"inputs":[{"components":[{"internalType":"string","name":"name","type":"string"},{"internalType":"string","name":"symbol","type":"string"},{"internalType":"uint256","name":"totalSupplyRaw","type":"uint256"},{"internalType":"address","name":"marketingWallet","type":"address"},{"components":[{"internalType":"uint16","name":"buyMarketingBps","type":"uint16"},{"internalType":"uint16","name":"buyLiquidityBps","type":"uint16"},{"internalType":"uint16","name":"buyBurnBps","type":"uint16"},{"internalType":"uint16","name":"sellMarketingBps","type":"uint16"},{"internalType":"uint16","name":"sellLiquidityBps","type":"uint16"},{"internalType":"uint16","name":"sellBurnBps","type":"uint16"}],"internalType":"struct TokenFactory.Fees","name":"fees","type":"tuple"},{"components":[{"internalType":"uint256","name":"maxGasPriceWei","type":"uint256"},{"internalType":"uint256","name":"deadBlocks","type":"uint256"},{"internalType":"bool","name":"revertEarlyBuys","type":"bool"},{"internalType":"uint256","name":"maxTxAmount","type":"uint256"},{"internalType":"uint256","name":"maxWalletAmount","type":"uint256"}],"internalType":"struct TokenFactory.Limits","name":"limits","type":"tuple"}],"internalType":"struct TokenFactory.TokenConfig","name":"cfg","type":"tuple"}],"name":"createToken","outputs":[{"internalType":"address","name":"tokenAddr","type":"address"}],"stateMutability":"payable","type":"function"},{"inputs":[{"components":[{"internalType":"string","name":"name","type":"string"},{"internalType":"string","name":"symbol","type":"string"},{"internalType":"uint256","name":"totalSupplyRaw","type":"uint256"},{"internalType":"address","name":"marketingWallet","type":"address"},{"components":[{"internalType":"uint16","name":"buyMarketingBps","type":"uint16"},{"internalType":"uint16","name":"buyLiquidityBps","type":"uint16"},{"internalType":"uint16","name":"buyBurnBps","type":"uint16"},{"internalType":"uint16","name":"sellMarketingBps","type":"uint16"},{"internalType":"uint16","name":"sellLiquidityBps","type":"uint16"},{"internalType":"uint16","name":"sellBurnBps","type":"uint16"}],"internalType":"struct TokenFactory.Fees","name":"fees","type":"tuple"},{"components":[{"internalType":"uint256","name":"maxGasPriceWei","type":"uint256"},{"internalType":"uint256","name":"deadBlocks","type":"uint256"},{"internalType":"bool","name":"revertEarlyBuys","type":"bool"},{"internalType":"uint256","name":"maxTxAmount","type":"uint256"},{"internalType":"uint256","name":"maxWalletAmount","type":"uint256"}],"internalType":"struct TokenFactory.Limits","name":"limits","type":"tuple"}],"internalType":"struct TokenFactory.TokenConfig","name":"cfg","type":"tuple"},{"internalType":"address[]","name":"recipients","type":"address[]"},{"internalType":"uint256[]","name":"amounts","type":"uint256[]"}],"name":"createTokenWithDistribution","outputs":[{"internalType":"address","name":"tokenAddr","type":"address"}],"stateMutability":"payable","type":"function"},{"inputs":[{"components":[{"internalType":"string","name":"name","type":"string"},{"internalType":"string","name":"symbol","type":"string"},{"internalType":"uint256","name":"totalSupplyRaw","type":"uint256"},{"internalType":"address","name":"marketingWallet","type":"address"},{"components":[{"internalType":"uint16","name":"buyMarketingBps","type":"uint16"},{"internalType":"uint16","name":"buyLiquidityBps","type":"uint16"},{"internalType":"uint16","name":"buyBurnBps","type":"uint16"},{"internalType":"uint16","name":"sellMarketingBps","type":"uint16"},{"internalType":"uint16","name":"sellLiquidityBps","type":"uint16"},{"internalType":"uint16","name":"sellBurnBps","type":"uint16"}],"internalType":"struct TokenFactory.Fees","name":"fees","type":"tuple"},{"components":[{"internalType":"uint256","name":"maxGasPriceWei","type":"uint256"},{"internalType":"uint256","name":"deadBlocks","type":"uint256"},{"internalType":"bool","name":"revertEarlyBuys","type":"bool"},{"internalType":"uint256","name":"maxTxAmount","type":"uint256"},{"internalType":"uint256","name":"maxWalletAmount","type":"uint256"}],"internalType":"struct TokenFactory.Limits","name":"limits","type":"tuple"}],"internalType":"struct TokenFactory.TokenConfig","name":"cfg","type":"tuple"},{"internalType":"address[]","name":"recipients","type":"address[]"},{"internalType":"uint256[]","name":"amounts","type":"uint256[]"},{"components":[{"internalType":"address","name":"beneficiary","type":"address"},{"internalType":"uint64","name":"start","type":"uint64"},{"internalType":"uint64","name":"cliffSeconds","type":"uint64"},{"internalType":"uint64","name":"durationSeconds","type":"uint64"},{"internalType":"uint256","name":"amount","type":"uint256"}],"internalType":"struct TokenFactory.Vesting[]","name":"vestings","type":"tuple[]"}],"name":"createTokenWithDistributionAndVesting","outputs":[{"internalType":"address","name":"tokenAddr","type":"address"}],"stateMutability":"payable","type":"function"},{"inputs":[],"name":"distributionFeeWei","outputs":[{"internalType":"uint256","name":"","type":"uint256"}],"stateMutability":"view","type":"function"},{"inputs":[],"name":"owner","outputs":[{"internalType":"address","name":"","type":"address"}],"stateMutability":"view","type":"function"},{"inputs":[{"internalType":"uint256","name":"newBasicFeeWei","type":"uint256"},{"internalType":"uint256","name":"newDistributionFeeWei","type":"uint256"},{"internalType":"uint256","name":"newVestingFeeWei","type":"uint256"}],"name":"setFeesWei","outputs":[],"stateMutability":"nonpayable","type":"function"},{"inputs":[{"internalType":"address","name":"newOwner","type":"address"}],"name":"transferOwnership","outputs":[],"stateMutability":"nonpayable","type":"function"},{"inputs":[],"name":"vestingFeeWei","outputs":[{"internalType":"uint256","name":"","type":"uint256"}],"stateMutability":"view","type":"function"},{"inputs":[],"name":"vestingImplementation","outputs":[{"internalType":"address","name":"","type":"address"}],"stateMutability":"view","type":"function"},{"inputs":[{"internalType":"address payable","name":"to","type":"address"},{"internalType":"uint256","name":"amountWei","type":"uint256"}],"name":"withdrawFees","outputs":[],"stateMutability":"nonpayable","type":"function"}],"evm":{"bytecode":{"linkReferences":{},"object":"60a03461010d57601f61285638819003918201601f19168301916001600160401b038311848410176101125780849260209460405283398101031261010d57516001600160a01b03811680820361010d576001600055156100d857608052600180546001600160a01b031916339081179091556040519060007f8be0079c531659141344cd1fd0a4f28419497f9722a3daafe3b4186f6b6457e08180a3655af3107a400060025566038d7ea4c680006003556611c37937e0800060045561272d908161012982396080518181816107390152610a3a0152f35b60405162461bcd60e51b815260206004820152600d60248201526c076657374696e67496d706c3d3609c1b6044820152606490fd5b600080fd5b634e487b7160e01b600052604160045260246000fdfe60808060405260043610156200001457600080fd5b60003560e01c908163308cc33d1462000e3e575080633cb3516514620008f55780633db315ba14620007885780637904673214620007685780638882a2f614620007215780638da5cb5b14620006f6578063ad3b1b47146200055a578063b93c95f31462000402578063c48b374d14620003e2578063d9a3c82114620001535763f2fde38b14620000a457600080fd5b346200014e5760203660031901126200014e576004356001600160a01b03818116918290036200014e5760015490811690620000e282331462000e8e565b82156200011f576001600160a01b03191682176001557f8be0079c531659141344cd1fd0a4f28419497f9722a3daafe3b4186f6b6457e0600080a3005b60405162461bcd60e51b815260206004820152600760248201526606f776e65723d360cc1b6044820152606490fd5b600080fd5b6003196060368201126200014e57600435906001600160401b03908183116200014e576101e09083360301126200014e576024358181116200014e576200019f90369060040162000e5b565b92906044359283116200014e57620001c0620001fa93369060040162000e5b565b939092620001d060035462000fcf565b620001f0858588866044860135620001ea81151562000efd565b6200134f565b50600401620010b8565b94909360005b82811062000347576040516370a0823160e01b81523060048201526020906001600160a01b03908990828a16908481602481855afa908115620002c65760009162000314575b5080620002d2575b50803b156200014e576000809160246040518094819363f2fde38b60e01b83523360048401525af18015620002c657620002b4575b50166040519080337fd5f9bdf12adf29dab0248c349842c3822d53ae2bb4f36352f301630d018c8139600080a38152f35b620002bf9062000ec7565b8362000283565b6040513d6000823e3d90fd5b838316620002e282338362000f35565b6040519182527f67226bacccef969dab310a9e55dc1cf821363658e433fd330344f5cc00c79ac8863393a3846200024e565b90508481813d83116200033f575b6200032e818362000edb565b810103126200014e57518562000246565b503d62000322565b8062000359620003d5928488620012d5565b358015620003db576001600160a01b03808a16907f67226bacccef969dab310a9e55dc1cf821363658e433fd330344f5cc00c79ac890602090620003b585620003ae620003a8898d8f620012d5565b6200104d565b8662000f35565b620003c6620003a8878b8d620012d5565b1693604051908152a3620012c5565b62000200565b50620012c5565b346200014e5760003660031901126200014e576020600454604051908152f35b602060031981813601126200014e57600435906001600160401b0382116200014e576101e09082360301126200014e576200045e906200044460025462000fcf565b620004556044820135151562000efd565b600401620010b8565b6001600160a01b03918216803b156200014e5760405163f2fde38b60e01b81523360048201529060008260248183855af1908115620002c657602492869262000548575b506040516370a0823160e01b815230600482015292839182905afa908115620002c65760009162000515575b5080620005065750166040519080337fd5f9bdf12adf29dab0248c349842c3822d53ae2bb4f36352f301630d018c8139600080a38152f35b620002bf903384841662000f35565b90508381813d831162000540575b6200052f818362000edb565b810103126200014e575184620004ce565b503d62000523565b620005539062000ec7565b86620004a2565b346200014e5760403660031901126200014e576004356001600160a01b03818116918281036200014e57602435908260015416906200059b82331462000e8e565b600260005414620006e45760026000559315620006db575b5080620006d4575047905b4782116200069857600080809381938616807fc0819c13be868895eb93e40eaceb96de976442fa1d404e5c55f14bb65a8c489a6020604051858152a25af13d1562000692573d6001600160401b0381116200067c57604051906200062d601f8201601f19166020018362000edb565b8152600060203d92013e5b1562000645576001600055005b60405162461bcd60e51b815260206004820152600f60248201526e1dda5d1a191c985dc819985a5b1959608a1b6044820152606490fd5b634e487b7160e01b600052604160045260246000fd5b62000638565b60405162461bcd60e51b8152602060048201526014602482015273696e73756666696369656e742062616c616e636560601b6044820152606490fd5b90620005be565b925083620005b3565b604051633ee5aeb560e01b8152600490fd5b346200014e5760003660031901126200014e576001546040516001600160a01b039091168152602090f35b346200014e5760003660031901126200014e576040517f00000000000000000000000000000000000000000000000000000000000000006001600160a01b03168152602090f35b346200014e5760003660031901126200014e576020600354604051908152f35b346200014e5760603660031901126200014e5760043560243560443591620007bc60018060a01b0360015416331462000e8e565b670de0b6b3a7640000808211620008bb57808311620008765783116200083a577f2e494fbb5d1bda2269c90d7124ba22ca99044b61d2a920ece35a1a1726ff0c379260c0926002549260035460045490826002558360035584600455604051958652602086015260408501526060840152608083015260a0820152a1005b60405162461bcd60e51b81526020600482015260146024820152730eccae6e8d2dcce40cccaca40e8dede40d0d2ced60631b6044820152606490fd5b60405162461bcd60e51b815260206004820152601960248201527f646973747269627574696f6e2066656520746f6f2068696768000000000000006044820152606490fd5b60405162461bcd60e51b81526020600482015260126024820152710c4c2e6d2c640cccaca40e8dede40d0d2ced60731b6044820152606490fd5b6003196080368201126200014e576001600160401b03600435116200014e576101e090600435360301126200014e576024356001600160401b0381116200014e576200094690369060040162000e5b565b906044356001600160401b0381116200014e576200096990369060040162000e5b565b9190606435916001600160401b0383116200014e57366023840112156200014e576001600160401b038360040135116200014e5736602460a0856004013502850101116200014e57620009be60045462000fcf565b620009d160446004350135151562000efd565b620009e684838784604460043501356200134f565b603284600401351162000e05576000905b8460040135821062000d405762000a1891506044600435013510156200130a565b62000a28600435600401620010b8565b95909460005b82811062000cd95787877f00000000000000000000000000000000000000000000000000000000000000008860005b8160040135811062000b145750506040516370a0823160e01b81523060048201526020936001600160a01b03939092508316908481602481855afa908115620002c65760009162000314575080620002d25750803b156200014e576000809160246040518094819363f2fde38b60e01b83523360048401525af18015620002c657620002b45750166040519080337fd5f9bdf12adf29dab0248c349842c3822d53ae2bb4f36352f301630d018c8139600080a38152f35b62000b28818360040135602485016200149d565b90763d602d80600a3d3981f3363d3d373d3d3d363d7300000062ffffff8560881c16176000526e5af43d82803e903d91602b57fd5bf38460781b17602052603760096000f06001600160a01b0381161562000cc75762000b88836200104d565b9262000b9760208201620014ae565b9362000ba660408301620014ae565b9462000bb560608401620014ae565b906001600160a01b0385163b156200014e5760405163c5fa3da360e01b81526001600160a01b03808d16600483015293841660248201526001600160401b0391821660448201529681166064880152166084860152608082013560a4860152600090859060c4908290849087165af1938415620002c65762000caf9462000cb5575b5062000c526080820135836001600160a01b038b1662000f35565b6001600160a01b0362000c65826200104d565b60405160809390930135835216916001600160a01b0390811691908916907f1b138257231d2c00719335bc377b9c84f462339563b691e1dab140fbef52b41e90602090a4620012c5565b62000a5d565b62000cc09062000ec7565b8862000c37565b60405163b06ebf3d60e01b8152600490fd5b8062000ceb62000d3a928488620012d5565b358015620003db576001600160a01b03808b16907f67226bacccef969dab310a9e55dc1cf821363658e433fd330344f5cc00c79ac890602090620003b585620003ae620003a8898d8f620012d5565b62000a2e565b62000d54828660040135602488016200149d565b6001600160a01b0362000d67826200104d565b161562000dd0576080013590811562000d985762000d919162000d8a91620012fc565b91620012c5565b90620009f7565b60405162461bcd60e51b815260206004820152601060248201526f076657374696e6720616d6f756e743d360841b6044820152606490fd5b60405162461bcd60e51b815260206004820152600d60248201526c062656e65666963696172793d3609c1b6044820152606490fd5b60405162461bcd60e51b8152602060048201526011602482015270746f6f206d616e792076657374696e677360781b6044820152606490fd5b346200014e5760003660031901126200014e576020906002548152f35b9181601f840112156200014e578235916001600160401b0383116200014e576020808501948460051b0101116200014e57565b1562000e9657565b60405162461bcd60e51b81526020600482015260096024820152683737ba1037bbb732b960b91b6044820152606490fd5b6001600160401b0381116200067c57604052565b90601f801991011681019081106001600160401b038211176200067c57604052565b1562000f0557565b60405162461bcd60e51b81526020600482015260086024820152670737570706c793d360c41b6044820152606490fd5b60405163a9059cbb60e01b602082019081526001600160a01b039384166024830152604480830195909552938152909260808201906001600160401b038211838310176200067c57602092600092604052519082865af115620002c6576000513d62000fc557508082163b155b62000fab575050565b604051635274afe760e01b81529116600482015260249150fd5b6001141562000fa2565b806200101557503462000fde57565b60405162461bcd60e51b815260206004820152600f60248201526e1b9bc8199959481c995c5d5a5c9959608a1b6044820152606490fd5b34036200101e57565b60405162461bcd60e51b81526020600482015260076024820152666261642066656560c81b6044820152606490fd5b356001600160a01b03811681036200014e5790565b903590601e19813603018212156200014e57018035906001600160401b0382116200014e576020019181360383136200014e57565b908060209392818452848401376000828201840152601f01601f1916010190565b90620010f2620010e4620010cf6080850162001288565b620010dd60a0860162001288565b9062001298565b620010dd60c0850162001288565b62001126620011176200110860e0860162001288565b620010dd610100870162001288565b620010dd610120860162001288565b6107d09161ffff908116918383116200125357169182116200121d576001600160a01b039360608101856200115b826200104d565b161562001214576200116d906200104d565b925b6200117b828062001062565b6200118d602085969396018562001062565b9290956040519761123491828a01948a86106001600160401b038711176200067c578a9960c097620011df8f9694620011ed946040968f620014c49039308b5260e060208c015260e08b019162001097565b91888303858a015262001097565b970135606085015216608083015260a0820152015203906000f0918215620002c657821690565b5033926200116f565b60405162461bcd60e51b815260206004820152600e60248201526d73656c6c20666565203e2032302560901b6044820152606490fd5b60405162461bcd60e51b815260206004820152600d60248201526c62757920666565203e2032302560981b6044820152606490fd5b3561ffff811681036200014e5790565b91909161ffff80809416911601918211620012af57565b634e487b7160e01b600052601160045260246000fd5b6000198114620012af5760010190565b9190811015620012e65760051b0190565b634e487b7160e01b600052603260045260246000fd5b91908201809211620012af57565b156200131257565b60405162461bcd60e51b8152602060048201526015602482015274646973747269627574696f6e203e20737570706c7960581b6044820152606490fd5b92949391909460009583830362001466576064908184116200142d57939291906000945b83861062001391575050505050506200138f908311156200130a565b565b90919293949760018060a01b03620013af620003a88b8886620012d5565b1615620013fb57620013c3898786620012d5565b35908115620013ee57620013e391620013dc91620012fc565b98620012c5565b949392919062001373565b98620013e39150620012c5565b60405162461bcd60e51b815260206004820152600b60248201526a0726563697069656e743d360ac1b60448201528390fd5b5060405162461bcd60e51b8152602060048201526013602482015272746f6f206d616e7920726563697069656e747360681b6044820152fd5b60405162461bcd60e51b815260206004820152600f60248201526e0d8cadccee8d040dad2e6dac2e8c6d608b1b6044820152606490fd5b9190811015620012e65760a0020190565b356001600160401b03811681036200014e579056fe60406080815234620004d0576200123490813803806200001f81620004d5565b938439820160e083820312620004d0576200003a83620004fb565b6020848101519094906001600160401b0390818111620004d057846200006291840162000510565b938583015190828211620004d0576200007d91840162000510565b956060830151946200009260808501620004fb565b90620000af60c0620000a760a0880162000582565b960162000582565b938151818111620003d0576003908154906001948583811c93168015620004c5575b88841014620004af578190601f9384811162000459575b508890848311600114620003f257600092620003e6575b505060001982851b1c191690851b1782555b8b51928311620003d05760049b8c548581811c91168015620003c5575b88821014620003b05782811162000365575b5086918411600114620002fa57938394918492600095620002ee575b50501b92600019911b1c19161788555b6001600160a01b03858116929091908315620002d757600580546001600160a01b031980821687179092558a5191959085167f8be0079c531659141344cd1fd0a4f28419497f9722a3daafe3b4186f6b6457e0600080a38815620002ad57506107d061ffff81818916116200027a578616116200024757509697506200023196808216156200023f575b169060065416176006556007549061ffff60b01b9060b01b169161ffff60a01b9060a01b169063ffffffff60a01b1916171760075562000592565b51610b0890816200072c8239f35b5084620001f6565b896064918a519162461bcd60e51b8352820152600e60248201526d73656c6c20666565203e2032302560901b6044820152fd5b8a5162461bcd60e51b8152808d01849052600d60248201526c62757920666565203e2032302560981b6044820152606490fd5b6064918b62461bcd60e51b835282015260086024820152670737570706c793d360c41b6044820152fd5b8851631e4fbdf760e01b81526000818c0152602490fd5b0151935038806200015c565b9190601f198416928d60005284886000209460005b8a898383106200034d575050501062000332575b50505050811b0188556200016c565b01519060f884600019921b161c191690553880808062000323565b8686015189559097019694850194889350016200030f565b8d600052876000208380870160051c8201928a8810620003a6575b0160051c019086905b8281106200039957505062000140565b6000815501869062000389565b9250819262000380565b60228e634e487b7160e01b6000525260246000fd5b90607f16906200012e565b634e487b7160e01b600052604160045260246000fd5b015190503880620000ff565b90879350601f19831691866000528a6000209260005b8c82821062000442575050841162000429575b505050811b01825562000111565b015160001983871b60f8161c191690553880806200041b565b8385015186558b9790950194938401930162000408565b90915084600052886000208480850160051c8201928b8610620004a5575b918991869594930160051c01915b82811062000495575050620000e8565b6000815585945089910162000485565b9250819262000477565b634e487b7160e01b600052602260045260246000fd5b92607f1692620000d1565b600080fd5b6040519190601f01601f191682016001600160401b03811183821017620003d057604052565b51906001600160a01b0382168203620004d057565b919080601f84011215620004d05782516001600160401b038111620003d05760209062000546601f8201601f19168301620004d5565b92818452828287010111620004d05760005b8181106200056e57508260009394955001015290565b858101830151848201840152820162000558565b519061ffff82168203620004d057565b908015620006b0576007546001600160a01b039061ffff90828116801580159291839182620006a7575b50836200069a575b816200068d575b508062000684575b6000921562000669575082915060a01c165b1680620005fc575b5050620005fa91620006b6565b565b808302908382040362000646576127109004908115620005ed5781816200063192600654169081156200065c575b50620006b6565b81039081116200064657620005fa91620006b6565b634e487b7160e01b600052601160045260246000fd5b905060055416386200062a565b62000676575b50620005e5565b82915060b01c16386200066f565b506000620005d3565b90508487161438620005cb565b87861615159350620005c4565b935038620005bc565b620005fa915b6002549082820180921162000646576002919091556001600160a01b0316906000907fddf252ad1be2c89b69c2b068fc378daa952ba7f163c4a11628f55a4df523b3ef9060209084620007155780600254036002555b604051908152a3565b848452838252604084208181540190556200070c56fe6080604081815260048036101561001557600080fd5b600092833560e01c90816306fdde03146106d257508063095ea7b31461062957806318160ddd1461060a57806323b872dd1461051757806323cbe1f3146104f1578063313ce567146104d557806349bd5a5e146104ac5780635a27a1f91461049057806370a0823114610459578063715018a6146103fc57806375f0a874146103d357806377d2300e146103ad5780638187f516146103425780638da5cb5b1461031957806395d89b41146101f9578063a9059cbb146101c8578063dd62ed3e1461017b5763f2fde38b146100e957600080fd5b3461017757602036600319011261017757610102610810565b9061010b610841565b6001600160a01b03918216928315610161575050600554826bffffffffffffffffffffffff60a01b821617600555167f8be0079c531659141344cd1fd0a4f28419497f9722a3daafe3b4186f6b6457e08380a380f35b51631e4fbdf760e01b8152908101849052602490fd5b8280fd5b5050346101c457806003193601126101c45780602092610199610810565b6101a161082b565b6001600160a01b0391821683526001865283832091168252845220549051908152f35b5080fd5b5050346101c457806003193601126101c4576020906101f26101e8610810565b602435903361086d565b5160018152f35b509190346101c457816003193601126101c457805190828454600181811c9080831692831561030f575b60209384841081146102fc578388529081156102e0575060011461028b575b505050829003601f01601f191682019267ffffffffffffffff84118385101761027857508291826102749252826107c7565b0390f35b634e487b7160e01b815260418552602490fd5b8787529192508591837f8a35acfbc15ff81a39ae7d344fd709f28e8600b4aa8c65c6b64bfe7fe36bd19b5b8385106102cc5750505050830101388080610242565b8054888601830152930192849082016102b6565b60ff1916878501525050151560051b8401019050388080610242565b634e487b7160e01b895260228a52602489fd5b91607f1691610223565b5050346101c457816003193601126101c45760055490516001600160a01b039091168152602090f35b83346103aa5760203660031901126103aa5761035c610810565b610364610841565b600780546001600160a01b0319166001600160a01b039290921691821790557fc4a4ea6abc08bd7f8df3db8a1c998f19b3e0c348176f93732cd54db1a4b501368280a280f35b80fd5b5050346101c457816003193601126101c45760209061ffff60075460a01c169051908152f35b5050346101c457816003193601126101c45760065490516001600160a01b039091168152602090f35b83346103aa57806003193601126103aa57610415610841565b600580546001600160a01b0319811690915581906001600160a01b03167f8be0079c531659141344cd1fd0a4f28419497f9722a3daafe3b4186f6b6457e08280a380f35b5050346101c45760203660031901126101c45760209181906001600160a01b03610481610810565b16815280845220549051908152f35b5050346101c457816003193601126101c4576020905160018152f35b5050346101c457816003193601126101c45760075490516001600160a01b039091168152602090f35b5050346101c457816003193601126101c4576020905160128152f35b5050346101c457816003193601126101c45760209061ffff60075460b01c169051908152f35b5082346103aa5760603660031901126103aa57610532610810565b61053a61082b565b916044359360018060a01b038316808352600160205286832033845260205286832054916000198310610576575b6020886101f289898961086d565b8683106105de5781156105c75733156105b0575082526001602090815286832033845281529186902090859003905582906101f287610568565b8751634a1406b160e11b8152908101849052602490fd5b875163e602df0560e01b8152908101849052602490fd5b8751637dc7a0d960e11b8152339181019182526020820193909352604081018790528291506060010390fd5b5050346101c457816003193601126101c4576020906002549051908152f35b5034610177578160031936011261017757610642610810565b6024359033156106bb576001600160a01b03169182156106a457508083602095338152600187528181208582528752205582519081527f8c5be1e5ebec7d5bd14f71427d1e84f3dd0314c0f7b2291e5b200ac8c7c3b925843392a35160018152f35b8351634a1406b160e11b8152908101859052602490fd5b835163e602df0560e01b8152808401869052602490fd5b849150833461017757826003193601126101775782600354600181811c908083169283156107bd575b60209384841081146102fc578388529081156107a1575060011461074b57505050829003601f01601f191682019267ffffffffffffffff84118385101761027857508291826102749252826107c7565b600387529192508591837fc2575a0e9e593c00f959f8c92f12db2869c3395a3b0502d05e2516446f71f85b5b83851061078d5750505050830101858080610242565b805488860183015293019284908201610777565b60ff1916878501525050151560051b8401019050858080610242565b91607f16916106fb565b6020808252825181830181905290939260005b8281106107fc57505060409293506000838284010152601f8019910116010190565b8181018601518482016040015285016107da565b600435906001600160a01b038216820361082657565b600080fd5b602435906001600160a01b038216820361082657565b6005546001600160a01b0316330361085557565b60405163118cdaa760e01b8152336004820152602490fd5b91906001600160a01b03808416156108aa578116156108915761088f926108c3565b565b60405163ec442f0560e01b815260006004820152602490fd5b604051634b637e8f60e11b815260006004820152602490fd5b919081156109cd576007546001600160a01b039061ffff9082811680151591908290816109c1575b836109b5575b816109a9575b508061099e575b60009215610986575082915060a01c165b1680610921575b505061088f926109d2565b8084029084820403610964576127109004908115610916578181610952926006541690811561097a575b50866109d2565b82039182116109645761088f926109d2565b634e487b7160e01b600052601160045260246000fd5b9050600554163861094b565b610991575b5061090f565b82915060b01c163861098b565b5083871615156108fe565b905084861614386108f7565b868616151593506108f1565b888616811493506108eb565b61088f925b6001600160a01b0380821692909183610a4f57509060025490848201809211610964577fddf252ad1be2c89b69c2b068fc378daa952ba7f163c4a11628f55a4df523b3ef926020926002555b169384610a375780600254036002555b604051908152a3565b84600052600082526040600020818154019055610a2e565b60009084825281602052604082205490868210610aa057509181604087602095887fddf252ad1be2c89b69c2b068fc378daa952ba7f163c4a11628f55a4df523b3ef98965283875203912055610a1e565b60405163391434e360e21b81526001600160a01b03919091166004820152602481019190915260448101869052606490fdfea2646970667358221220f82ae43a7bef6118c43144bacd933ef0e5ffe09b851543c830f2584bdb0439a764736f6c63430008140033a2646970667358221220c2c39ce8bd6bf26bc52a62b22af039c2e0eb0e83b7242bf4a297fa26edbaf0dd64736f6c63430008140033","opcodes":"PUSH1 0xA0 CALLVALUE PUSH2 0x10D JUMPI PUSH1 0x1F PUSH2 0x2856 CODESIZE DUP2 SWAP1 SUB SWAP2 DUP3 ADD PUSH1 0x1F NOT AND DUP4 ADD SWAP2 PUSH1 0x1 PUSH1 0x1 PUSH1 0x40 SHL SUB DUP4 GT DUP5 DUP5 LT OR PUSH2 0x112 JUMPI DUP1 DUP5 SWAP3 PUSH1 0x20 SWAP5 PUSH1 0x40 MSTORE DUP4 CODECOPY DUP2 ADD SUB SLT PUSH2 0x10D JUMPI MLOAD PUSH1 0x1 PUSH1 0x1 PUSH1 0xA0 SHL SUB DUP2 AND DUP1 DUP3 SUB PUSH2 0x10D JUMPI PUSH1 0x1 PUSH1 0x0 SSTORE ISZERO PUSH2 0xD8 JUMPI PUSH1 0x80 MSTORE PUSH1 0x1 DUP1 SLOAD PUSH1 0x1 PUSH1 0x1 PUSH1 0xA0 SHL SUB NOT AND CALLER SWAP1 DUP2 OR SWAP1 SWAP2 SSTORE PUSH1 0x40 MLOAD SWAP1 PUSH1 0x0 PUSH32 0x8BE0079C531659141344CD1FD0A4F28419497F9722A3DAAFE3B4186F6B6457E0 DUP2 DUP1 LOG3 PUSH6 0x5AF3107A4000 PUSH1 0x2 SSTORE PUSH7 0x38D7EA4C68000 PUSH1 0x3 SSTORE PUSH7 0x11C37937E08000 PUSH1 0x4 SSTORE PUSH2 0x272D SWAP1 DUP2 PUSH2 0x129 DUP3 CODECOPY PUSH1 0x80 MLOAD DUP2 DUP2 DUP2 PUSH2 0x739 ADD MSTORE PUSH2 0xA3A ADD MSTORE RETURN JUMPDEST PUSH1 0x40 MLOAD PUSH3 0x461BCD PUSH1 0xE5 SHL DUP2 MSTORE PUSH1 0x20 PUSH1 0x4 DUP3 ADD MSTORE PUSH1 0xD PUSH1 0x24 DUP3 ADD MSTORE PUSH13 0x76657374696E67496D706C3D3 PUSH1 0x9C SHL PUSH1 0x44 DUP3 ADD MSTORE PUSH1 0x64 SWAP1 REVERT JUMPDEST PUSH1 0x0 DUP1 REVERT JUMPDEST PUSH4 0x4E487B71 PUSH1 0xE0 SHL PUSH1 0x0 MSTORE PUSH1 0x41 PUSH1 0x4 MSTORE PUSH1 0x24 PUSH1 0x0 REVERT INVALID PUSH1 0x80 DUP1 PUSH1 0x40 MSTORE PUSH1 0x4 CALLDATASIZE LT ISZERO PUSH3 0x14 JUMPI PUSH1 0x0 DUP1 REVERT JUMPDEST PUSH1 0x0 CALLDATALOAD PUSH1 0xE0 SHR SWAP1 DUP2 PUSH4 0x308CC33D EQ PUSH3 0xE3E JUMPI POP DUP1 PUSH4 0x3CB35165 EQ PUSH3 0x8F5 JUMPI DUP1 PUSH4 0x3DB315BA EQ PUSH3 0x788 JUMPI DUP1 PUSH4 0x79046732 EQ PUSH3 0x768 JUMPI DUP1 PUSH4 0x8882A2F6 EQ PUSH3 0x721 JUMPI DUP1 PUSH4 0x8DA5CB5B EQ PUSH3 0x6F6 JUMPI DUP1 PUSH4 0xAD3B1B47 EQ PUSH3 0x55A JUMPI DUP1 PUSH4 0xB93C95F3 EQ PUSH3 0x402 JUMPI DUP1 PUSH4 0xC48B374D EQ PUSH3 0x3E2 JUMPI DUP1 PUSH4 0xD9A3C821 EQ PUSH3 0x153 JUMPI PUSH4 0xF2FDE38B EQ PUSH3 0xA4 JUMPI PUSH1 0x0 DUP1 REVERT JUMPDEST CALLVALUE PUSH3 0x14E JUMPI PUSH1 0x20 CALLDATASIZE PUSH1 0x3 NOT ADD SLT PUSH3 0x14E JUMPI PUSH1 0x4 CALLDATALOAD PUSH1 0x1 PUSH1 0x1 PUSH1 0xA0 SHL SUB DUP2 DUP2 AND SWAP2 DUP3 SWAP1 SUB PUSH3 0x14E JUMPI PUSH1 0x1 SLOAD SWAP1 DUP2 AND SWAP1 PUSH3 0xE2 DUP3 CALLER EQ PUSH3 0xE8E JUMP JUMPDEST DUP3 ISZERO PUSH3 0x11F JUMPI PUSH1 0x1 PUSH1 0x1 PUSH1 0xA0 SHL SUB NOT AND DUP3 OR PUSH1 0x1 SSTORE PUSH32 0x8BE0079C531659141344CD1FD0A4F28419497F9722A3DAAFE3B4186F6B6457E0 PUSH1 0x0 DUP1 LOG3 STOP JUMPDEST PUSH1 0x40 MLOAD PUSH3 0x461BCD PUSH1 0xE5 SHL DUP2 MSTORE PUSH1 0x20 PUSH1 0x4 DUP3 ADD MSTORE PUSH1 0x7 PUSH1 0x24 DUP3 ADD MSTORE PUSH7 0x6F776E65723D3 PUSH1 0xCC SHL PUSH1 0x44 DUP3 ADD MSTORE PUSH1 0x64 SWAP1 REVERT JUMPDEST PUSH1 0x0 DUP1 REVERT JUMPDEST PUSH1 0x3 NOT PUSH1 0x60 CALLDATASIZE DUP3 ADD SLT PUSH3 0x14E JUMPI PUSH1 0x4 CALLDATALOAD SWAP1 PUSH1 0x1 PUSH1 0x1 PUSH1 0x40 SHL SUB SWAP1 DUP2 DUP4 GT PUSH3 0x14E JUMPI PUSH2 0x1E0 SWAP1 DUP4 CALLDATASIZE SUB ADD SLT PUSH3 0x14E JUMPI PUSH1 0x24 CALLDATALOAD DUP2 DUP2 GT PUSH3 0x14E JUMPI PUSH3 0x19F SWAP1 CALLDATASIZE SWAP1 PUSH1 0x4 ADD PUSH3 0xE5B JUMP JUMPDEST SWAP3 SWAP1 PUSH1 0x44 CALLDATALOAD SWAP3 DUP4 GT PUSH3 0x14E JUMPI PUSH3 0x1C0 PUSH3 0x1FA SWAP4 CALLDATASIZE SWAP1 PUSH1 0x4 ADD PUSH3 0xE5B JUMP JUMPDEST SWAP4 SWAP1 SWAP3 PUSH3 0x1D0 PUSH1 0x3 SLOAD PUSH3 0xFCF JUMP JUMPDEST PUSH3 0x1F0 DUP6 DUP6 DUP9 DUP7 PUSH1 0x44 DUP7 ADD CALLDATALOAD PUSH3 0x1EA DUP2 ISZERO ISZERO PUSH3 0xEFD JUMP JUMPDEST PUSH3 0x134F JUMP JUMPDEST POP PUSH1 0x4 ADD PUSH3 0x10B8 JUMP JUMPDEST SWAP5 SWAP1 SWAP4 PUSH1 0x0 JUMPDEST DUP3 DUP2 LT PUSH3 0x347 JUMPI PUSH1 0x40 MLOAD PUSH4 0x70A08231 PUSH1 0xE0 SHL DUP2 MSTORE ADDRESS PUSH1 0x4 DUP3 ADD MSTORE PUSH1 0x20 SWAP1 PUSH1 0x1 PUSH1 0x1 PUSH1 0xA0 SHL SUB SWAP1 DUP10 SWAP1 DUP3 DUP11 AND SWAP1 DUP5 DUP2 PUSH1 0x24 DUP2 DUP6 GAS STATICCALL SWAP1 DUP2 ISZERO PUSH3 0x2C6 JUMPI PUSH1 0x0 SWAP2 PUSH3 0x314 JUMPI JUMPDEST POP DUP1 PUSH3 0x2D2 JUMPI JUMPDEST POP DUP1 EXTCODESIZE ISZERO PUSH3 0x14E JUMPI PUSH1 0x0 DUP1 SWAP2 PUSH1 0x24 PUSH1 0x40 MLOAD DUP1 SWAP5 DUP2 SWAP4 PUSH4 0xF2FDE38B PUSH1 0xE0 SHL DUP4 MSTORE CALLER PUSH1 0x4 DUP5 ADD MSTORE GAS CALL DUP1 ISZERO PUSH3 0x2C6 JUMPI PUSH3 0x2B4 JUMPI JUMPDEST POP AND PUSH1 0x40 MLOAD SWAP1 DUP1 CALLER PUSH32 0xD5F9BDF12ADF29DAB0248C349842C3822D53AE2BB4F36352F301630D018C8139 PUSH1 0x0 DUP1 LOG3 DUP2 MSTORE RETURN JUMPDEST PUSH3 0x2BF SWAP1 PUSH3 0xEC7 JUMP JUMPDEST DUP4 PUSH3 0x283 JUMP JUMPDEST PUSH1 0x40 MLOAD RETURNDATASIZE PUSH1 0x0 DUP3 RETURNDATACOPY RETURNDATASIZE SWAP1 REVERT JUMPDEST DUP4 DUP4 AND PUSH3 0x2E2 DUP3 CALLER DUP4 PUSH3 0xF35 JUMP JUMPDEST PUSH1 0x40 MLOAD SWAP2 DUP3 MSTORE PUSH32 0x67226BACCCEF969DAB310A9E55DC1CF821363658E433FD330344F5CC00C79AC8 DUP7 CALLER SWAP4 LOG3 DUP5 PUSH3 0x24E JUMP JUMPDEST SWAP1 POP DUP5 DUP2 DUP2 RETURNDATASIZE DUP4 GT PUSH3 0x33F JUMPI JUMPDEST PUSH3 0x32E DUP2 DUP4 PUSH3 0xEDB JUMP JUMPDEST DUP2 ADD SUB SLT PUSH3 0x14E JUMPI MLOAD DUP6 PUSH3 0x246 JUMP JUMPDEST POP RETURNDATASIZE PUSH3 0x322 JUMP JUMPDEST DUP1 PUSH3 0x359 PUSH3 0x3D5 SWAP3 DUP5 DUP9 PUSH3 0x12D5 JUMP JUMPDEST CALLDATALOAD DUP1 ISZERO PUSH3 0x3DB JUMPI PUSH1 0x1 PUSH1 0x1 PUSH1 0xA0 SHL SUB DUP1 DUP11 AND SWAP1 PUSH32 0x67226BACCCEF969DAB310A9E55DC1CF821363658E433FD330344F5CC00C79AC8 SWAP1 PUSH1 0x20 SWAP1 PUSH3 0x3B5 DUP6 PUSH3 0x3AE PUSH3 0x3A8 DUP10 DUP14 DUP16 PUSH3 0x12D5 JUMP JUMPDEST PUSH3 0x104D JUMP JUMPDEST DUP7 PUSH3 0xF35 JUMP JUMPDEST PUSH3 0x3C6 PUSH3 0x3A8 DUP8 DUP12 DUP14 PUSH3 0x12D5 JUMP JUMPDEST AND SWAP4 PUSH1 0x40 MLOAD SWAP1 DUP2 MSTORE LOG3 PUSH3 0x12C5 JUMP JUMPDEST PUSH3 0x200 JUMP JUMPDEST POP PUSH3 0x12C5 JUMP JUMPDEST CALLVALUE PUSH3 0x14E JUMPI PUSH1 0x0 CALLDATASIZE PUSH1 0x3 NOT ADD SLT PUSH3 0x14E JUMPI PUSH1 0x20 PUSH1 0x4 SLOAD PUSH1 0x40 MLOAD SWAP1 DUP2 MSTORE RETURN JUMPDEST PUSH1 0x20 PUSH1 0x3 NOT DUP2 DUP2 CALLDATASIZE ADD SLT PUSH3 0x14E JUMPI PUSH1 0x4 CALLDATALOAD SWAP1 PUSH1 0x1 PUSH1 0x1 PUSH1 0x40 SHL SUB DUP3 GT PUSH3 0x14E JUMPI PUSH2 0x1E0 SWAP1 DUP3 CALLDATASIZE SUB ADD SLT PUSH3 0x14E JUMPI PUSH3 0x45E SWAP1 PUSH3 0x444 PUSH1 0x2 SLOAD PUSH3 0xFCF JUMP JUMPDEST PUSH3 0x455 PUSH1 0x44 DUP3 ADD CALLDATALOAD ISZERO ISZERO PUSH3 0xEFD JUMP JUMPDEST PUSH1 0x4 ADD PUSH3 0x10B8 JUMP JUMPDEST PUSH1 0x1 PUSH1 0x1 PUSH1 0xA0 SHL SUB SWAP2 DUP3 AND DUP1 EXTCODESIZE ISZERO PUSH3 0x14E JUMPI PUSH1 0x40 MLOAD PUSH4 0xF2FDE38B PUSH1 0xE0 SHL DUP2 MSTORE CALLER PUSH1 0x4 DUP3 ADD MSTORE SWAP1 PUSH1 0x0 DUP3 PUSH1 0x24 DUP2 DUP4 DUP6 GAS CALL SWAP1 DUP2 ISZERO PUSH3 0x2C6 JUMPI PUSH1 0x24 SWAP3 DUP7 SWAP3 PUSH3 0x548 JUMPI JUMPDEST POP PUSH1 0x40 MLOAD PUSH4 0x70A08231 PUSH1 0xE0 SHL DUP2 MSTORE ADDRESS PUSH1 0x4 DUP3 ADD MSTORE SWAP3 DUP4 SWAP2 DUP3 SWAP1 GAS STATICCALL SWAP1 DUP2 ISZERO PUSH3 0x2C6 JUMPI PUSH1 0x0 SWAP2 PUSH3 0x515 JUMPI JUMPDEST POP DUP1 PUSH3 0x506 JUMPI POP AND PUSH1 0x40 MLOAD SWAP1 DUP1 CALLER PUSH32 0xD5F9BDF12ADF29DAB0248C349842C3822D53AE2BB4F36352F301630D018C8139 PUSH1 0x0 DUP1 LOG3 DUP2 MSTORE RETURN JUMPDEST PUSH3 0x2BF SWAP1 CALLER DUP5 DUP5 AND PUSH3 0xF35 JUMP JUMPDEST SWAP1 POP DUP4 DUP2 DUP2 RETURNDATASIZE DUP4 GT PUSH3 0x540 JUMPI JUMPDEST PUSH3 0x52F DUP2 DUP4 PUSH3 0xEDB JUMP JUMPDEST DUP2 ADD SUB SLT PUSH3 0x14E JUMPI MLOAD DUP5 PUSH3 0x4CE JUMP JUMPDEST POP RETURNDATASIZE PUSH3 0x523 JUMP JUMPDEST PUSH3 0x553 SWAP1 PUSH3 0xEC7 JUMP JUMPDEST DUP7 PUSH3 0x4A2 JUMP JUMPDEST CALLVALUE PUSH3 0x14E JUMPI PUSH1 0x40 CALLDATASIZE PUSH1 0x3 NOT ADD SLT PUSH3 0x14E JUMPI PUSH1 0x4 CALLDATALOAD PUSH1 0x1 PUSH1 0x1 PUSH1 0xA0 SHL SUB DUP2 DUP2 AND SWAP2 DUP3 DUP2 SUB PUSH3 0x14E JUMPI PUSH1 0x24 CALLDATALOAD SWAP1 DUP3 PUSH1 0x1 SLOAD AND SWAP1 PUSH3 0x59B DUP3 CALLER EQ PUSH3 0xE8E JUMP JUMPDEST PUSH1 0x2 PUSH1 0x0 SLOAD EQ PUSH3 0x6E4 JUMPI PUSH1 0x2 PUSH1 0x0 SSTORE SWAP4 ISZERO PUSH3 0x6DB JUMPI JUMPDEST POP DUP1 PUSH3 0x6D4 JUMPI POP SELFBALANCE SWAP1 JUMPDEST SELFBALANCE DUP3 GT PUSH3 0x698 JUMPI PUSH1 0x0 DUP1 DUP1 SWAP4 DUP2 SWAP4 DUP7 AND DUP1 PUSH32 0xC0819C13BE868895EB93E40EACEB96DE976442FA1D404E5C55F14BB65A8C489A PUSH1 0x20 PUSH1 0x40 MLOAD DUP6 DUP2 MSTORE LOG2 GAS CALL RETURNDATASIZE ISZERO PUSH3 0x692 JUMPI RETURNDATASIZE PUSH1 0x1 PUSH1 0x1 PUSH1 0x40 SHL SUB DUP2 GT PUSH3 0x67C JUMPI PUSH1 0x40 MLOAD SWAP1 PUSH3 0x62D PUSH1 0x1F DUP3 ADD PUSH1 0x1F NOT AND PUSH1 0x20 ADD DUP4 PUSH3 0xEDB JUMP JUMPDEST DUP2 MSTORE PUSH1 0x0 PUSH1 0x20 RETURNDATASIZE SWAP3 ADD RETURNDATACOPY JUMPDEST ISZERO PUSH3 0x645 JUMPI PUSH1 0x1 PUSH1 0x0 SSTORE STOP JUMPDEST PUSH1 0x40 MLOAD PUSH3 0x461BCD PUSH1 0xE5 SHL DUP2 MSTORE PUSH1 0x20 PUSH1 0x4 DUP3 ADD MSTORE PUSH1 0xF PUSH1 0x24 DUP3 ADD MSTORE PUSH15 0x1DDA5D1A191C985DC819985A5B1959 PUSH1 0x8A SHL PUSH1 0x44 DUP3 ADD MSTORE PUSH1 0x64 SWAP1 REVERT JUMPDEST PUSH4 0x4E487B71 PUSH1 0xE0 SHL PUSH1 0x0 MSTORE PUSH1 0x41 PUSH1 0x4 MSTORE PUSH1 0x24 PUSH1 0x0 REVERT JUMPDEST PUSH3 0x638 JUMP JUMPDEST PUSH1 0x40 MLOAD PUSH3 0x461BCD PUSH1 0xE5 SHL DUP2 MSTORE PUSH1 0x20 PUSH1 0x4 DUP3 ADD MSTORE PUSH1 0x14 PUSH1 0x24 DUP3 ADD MSTORE PUSH20 0x696E73756666696369656E742062616C616E6365 PUSH1 0x60 SHL PUSH1 0x44 DUP3 ADD MSTORE PUSH1 0x64 SWAP1 REVERT JUMPDEST SWAP1 PUSH3 0x5BE JUMP JUMPDEST SWAP3 POP DUP4 PUSH3 0x5B3 JUMP JUMPDEST PUSH1 0x40 MLOAD PUSH4 0x3EE5AEB5 PUSH1 0xE0 SHL DUP2 MSTORE PUSH1 0x4 SWAP1 REVERT JUMPDEST CALLVALUE PUSH3 0x14E JUMPI PUSH1 0x0 CALLDATASIZE PUSH1 0x3 NOT ADD SLT PUSH3 0x14E JUMPI PUSH1 0x1 SLOAD PUSH1 0x40 MLOAD PUSH1 0x1 PUSH1 0x1 PUSH1 0xA0 SHL SUB SWAP1 SWAP2 AND DUP2 MSTORE PUSH1 0x20 SWAP1 RETURN JUMPDEST CALLVALUE PUSH3 0x14E JUMPI PUSH1 0x0 CALLDATASIZE PUSH1 0x3 NOT ADD SLT PUSH3 0x14E JUMPI PUSH1 0x40 MLOAD PUSH32 0x0 PUSH1 0x1 PUSH1 0x1 PUSH1 0xA0 SHL SUB AND DUP2 MSTORE PUSH1 0x20 SWAP1 RETURN JUMPDEST CALLVALUE PUSH3 0x14E JUMPI PUSH1 0x0 CALLDATASIZE PUSH1 0x3 NOT ADD SLT PUSH3 0x14E JUMPI PUSH1 0x20 PUSH1 0x3 SLOAD PUSH1 0x40 MLOAD SWAP1 DUP2 MSTORE RETURN JUMPDEST CALLVALUE PUSH3 0x14E JUMPI PUSH1 0x60 CALLDATASIZE PUSH1 0x3 NOT ADD SLT PUSH3 0x14E JUMPI PUSH1 0x4 CALLDATALOAD PUSH1 0x24 CALLDATALOAD PUSH1 0x44 CALLDATALOAD SWAP2 PUSH3 0x7BC PUSH1 0x1 DUP1 PUSH1 0xA0 SHL SUB PUSH1 0x1 SLOAD AND CALLER EQ PUSH3 0xE8E JUMP JUMPDEST PUSH8 0xDE0B6B3A7640000 DUP1 DUP3 GT PUSH3 0x8BB JUMPI DUP1 DUP4 GT PUSH3 0x876 JUMPI DUP4 GT PUSH3 0x83A JUMPI PUSH32 0x2E494FBB5D1BDA2269C90D7124BA22CA99044B61D2A920ECE35A1A1726FF0C37 SWAP3 PUSH1 0xC0 SWAP3 PUSH1 0x2 SLOAD SWAP3 PUSH1 0x3 SLOAD PUSH1 0x4 SLOAD SWAP1 DUP3 PUSH1 0x2 SSTORE DUP4 PUSH1 0x3 SSTORE DUP5 PUSH1 0x4 SSTORE PUSH1 0x40 MLOAD SWAP6 DUP7 MSTORE PUSH1 0x20 DUP7 ADD MSTORE PUSH1 0x40 DUP6 ADD MSTORE PUSH1 0x60 DUP5 ADD MSTORE PUSH1 0x80 DUP4 ADD MSTORE PUSH1 0xA0 DUP3 ADD MSTORE LOG1 STOP JUMPDEST PUSH1 0x40 MLOAD PUSH3 0x461BCD PUSH1 0xE5 SHL DUP2 MSTORE PUSH1 0x20 PUSH1 0x4 DUP3 ADD MSTORE PUSH1 0x14 PUSH1 0x24 DUP3 ADD MSTORE PUSH20 0xECCAE6E8D2DCCE40CCCACA40E8DEDE40D0D2CED PUSH1 0x63 SHL PUSH1 0x44 DUP3 ADD MSTORE PUSH1 0x64 SWAP1 REVERT JUMPDEST PUSH1 0x40 MLOAD PUSH3 0x461BCD PUSH1 0xE5 SHL DUP2 MSTORE PUSH1 0x20 PUSH1 0x4 DUP3 ADD MSTORE PUSH1 0x19 PUSH1 0x24 DUP3 ADD MSTORE PUSH32 0x646973747269627574696F6E2066656520746F6F206869676800000000000000 PUSH1 0x44 DUP3 ADD MSTORE PUSH1 0x64 SWAP1 REVERT JUMPDEST PUSH1 0x40 MLOAD PUSH3 0x461BCD PUSH1 0xE5 SHL DUP2 MSTORE PUSH1 0x20 PUSH1 0x4 DUP3 ADD MSTORE PUSH1 0x12 PUSH1 0x24 DUP3 ADD MSTORE PUSH18 0xC4C2E6D2C640CCCACA40E8DEDE40D0D2CED PUSH1 0x73 SHL PUSH1 0x44 DUP3 ADD MSTORE PUSH1 0x64 SWAP1 REVERT JUMPDEST PUSH1 0x3 NOT PUSH1 0x80 CALLDATASIZE DUP3 ADD SLT PUSH3 0x14E JUMPI PUSH1 0x1 PUSH1 0x1 PUSH1 0x40 SHL SUB PUSH1 0x4 CALLDATALOAD GT PUSH3 0x14E JUMPI PUSH2 0x1E0 SWAP1 PUSH1 0x4 CALLDATALOAD CALLDATASIZE SUB ADD SLT PUSH3 0x14E JUMPI PUSH1 0x24 CALLDATALOAD PUSH1 0x1 PUSH1 0x1 PUSH1 0x40 SHL SUB DUP2 GT PUSH3 0x14E JUMPI PUSH3 0x946 SWAP1 CALLDATASIZE SWAP1 PUSH1 0x4 ADD PUSH3 0xE5B JUMP JUMPDEST SWAP1 PUSH1 0x44 CALLDATALOAD PUSH1 0x1 PUSH1 0x1 PUSH1 0x40 SHL SUB DUP2 GT PUSH3 0x14E JUMPI PUSH3 0x969 SWAP1 CALLDATASIZE SWAP1 PUSH1 0x4 ADD PUSH3 0xE5B JUMP JUMPDEST SWAP2 SWAP1 PUSH1 0x64 CALLDATALOAD SWAP2 PUSH1 0x1 PUSH1 0x1 PUSH1 0x40 SHL SUB DUP4 GT PUSH3 0x14E JUMPI CALLDATASIZE PUSH1 0x23 DUP5 ADD SLT ISZERO PUSH3 0x14E JUMPI PUSH1 0x1 PUSH1 0x1 PUSH1 0x40 SHL SUB DUP4 PUSH1 0x4 ADD CALLDATALOAD GT PUSH3 0x14E JUMPI CALLDATASIZE PUSH1 0x24 PUSH1 0xA0 DUP6 PUSH1 0x4 ADD CALLDATALOAD MUL DUP6 ADD ADD GT PUSH3 0x14E JUMPI PUSH3 0x9BE PUSH1 0x4 SLOAD PUSH3 0xFCF JUMP JUMPDEST PUSH3 0x9D1 PUSH1 0x44 PUSH1 0x4 CALLDATALOAD ADD CALLDATALOAD ISZERO ISZERO PUSH3 0xEFD JUMP JUMPDEST PUSH3 0x9E6 DUP5 DUP4 DUP8 DUP5 PUSH1 0x44 PUSH1 0x4 CALLDATALOAD ADD CALLDATALOAD PUSH3 0x134F JUMP JUMPDEST PUSH1 0x32 DUP5 PUSH1 0x4 ADD CALLDATALOAD GT PUSH3 0xE05 JUMPI PUSH1 0x0 SWAP1 JUMPDEST DUP5 PUSH1 0x4 ADD CALLDATALOAD DUP3 LT PUSH3 0xD40 JUMPI PUSH3 0xA18 SWAP2 POP PUSH1 0x44 PUSH1 0x4 CALLDATALOAD ADD CALLDATALOAD LT ISZERO PUSH3 0x130A JUMP JUMPDEST PUSH3 0xA28 PUSH1 0x4 CALLDATALOAD PUSH1 0x4 ADD PUSH3 0x10B8 JUMP JUMPDEST SWAP6 SWAP1 SWAP5 PUSH1 0x0 JUMPDEST DUP3 DUP2 LT PUSH3 0xCD9 JUMPI DUP8 DUP8 PUSH32 0x0 DUP9 PUSH1 0x0 JUMPDEST DUP2 PUSH1 0x4 ADD CALLDATALOAD DUP2 LT PUSH3 0xB14 JUMPI POP POP PUSH1 0x40 MLOAD PUSH4 0x70A08231 PUSH1 0xE0 SHL DUP2 MSTORE ADDRESS PUSH1 0x4 DUP3 ADD MSTORE PUSH1 0x20 SWAP4 PUSH1 0x1 PUSH1 0x1 PUSH1 0xA0 SHL SUB SWAP4 SWAP1 SWAP3 POP DUP4 AND SWAP1 DUP5 DUP2 PUSH1 0x24 DUP2 DUP6 GAS STATICCALL SWAP1 DUP2 ISZERO PUSH3 0x2C6 JUMPI PUSH1 0x0 SWAP2 PUSH3 0x314 JUMPI POP DUP1 PUSH3 0x2D2 JUMPI POP DUP1 EXTCODESIZE ISZERO PUSH3 0x14E JUMPI PUSH1 0x0 DUP1 SWAP2 PUSH1 0x24 PUSH1 0x40 MLOAD DUP1 SWAP5 DUP2 SWAP4 PUSH4 0xF2FDE38B PUSH1 0xE0 SHL DUP4 MSTORE CALLER PUSH1 0x4 DUP5 ADD MSTORE GAS CALL DUP1 ISZERO PUSH3 0x2C6 JUMPI PUSH3 0x2B4 JUMPI POP AND PUSH1 0x40 MLOAD SWAP1 DUP1 CALLER PUSH32 0xD5F9BDF12ADF29DAB0248C349842C3822D53AE2BB4F36352F301630D018C8139 PUSH1 0x0 DUP1 LOG3 DUP2 MSTORE RETURN JUMPDEST PUSH3 0xB28 DUP2 DUP4 PUSH1 0x4 ADD CALLDATALOAD PUSH1 0x24 DUP6 ADD PUSH3 0x149D JUMP JUMPDEST SWAP1 PUSH23 0x3D602D80600A3D3981F3363D3D373D3D3D363D73000000 PUSH3 0xFFFFFF DUP6 PUSH1 0x88 SHR AND OR PUSH1 0x0 MSTORE PUSH15 0x5AF43D82803E903D91602B57FD5BF3 DUP5 PUSH1 0x78 SHL OR PUSH1 0x20 MSTORE PUSH1 0x37 PUSH1 0x9 PUSH1 0x0 CREATE PUSH1 0x1 PUSH1 0x1 PUSH1 0xA0 SHL SUB DUP2 AND ISZERO PUSH3 0xCC7 JUMPI PUSH3 0xB88 DUP4 PUSH3 0x104D JUMP JUMPDEST SWAP3 PUSH3 0xB97 PUSH1 0x20 DUP3 ADD PUSH3 0x14AE JUMP JUMPDEST SWAP4 PUSH3 0xBA6 PUSH1 0x40 DUP4 ADD PUSH3 0x14AE JUMP JUMPDEST SWAP5 PUSH3 0xBB5 PUSH1 0x60 DUP5 ADD PUSH3 0x14AE JUMP JUMPDEST SWAP1 PUSH1 0x1 PUSH1 0x1 PUSH1 0xA0 SHL SUB DUP6 AND EXTCODESIZE ISZERO PUSH3 0x14E JUMPI PUSH1 0x40 MLOAD PUSH4 0xC5FA3DA3 PUSH1 0xE0 SHL DUP2 MSTORE PUSH1 0x1 PUSH1 0x1 PUSH1 0xA0 SHL SUB DUP1 DUP14 AND PUSH1 0x4 DUP4 ADD MSTORE SWAP4 DUP5 AND PUSH1 0x24 DUP3 ADD MSTORE PUSH1 0x1 PUSH1 0x1 PUSH1 0x40 SHL SUB SWAP2 DUP3 AND PUSH1 0x44 DUP3 ADD MSTORE SWAP7 DUP2 AND PUSH1 0x64 DUP9 ADD MSTORE AND PUSH1 0x84 DUP7 ADD MSTORE PUSH1 0x80 DUP3 ADD CALLDATALOAD PUSH1 0xA4 DUP7 ADD MSTORE PUSH1 0x0 SWAP1 DUP6 SWAP1 PUSH1 0xC4 SWAP1 DUP3 SWAP1 DUP5 SWAP1 DUP8 AND GAS CALL SWAP4 DUP5 ISZERO PUSH3 0x2C6 JUMPI PUSH3 0xCAF SWAP5 PUSH3 0xCB5 JUMPI JUMPDEST POP PUSH3 0xC52 PUSH1 0x80 DUP3 ADD CALLDATALOAD DUP4 PUSH1 0x1 PUSH1 0x1 PUSH1 0xA0 SHL SUB DUP12 AND PUSH3 0xF35 JUMP JUMPDEST PUSH1 0x1 PUSH1 0x1 PUSH1 0xA0 SHL SUB PUSH3 0xC65 DUP3 PUSH3 0x104D JUMP JUMPDEST PUSH1 0x40 MLOAD PUSH1 0x80 SWAP4 SWAP1 SWAP4 ADD CALLDATALOAD DUP4 MSTORE AND SWAP2 PUSH1 0x1 PUSH1 0x1 PUSH1 0xA0 SHL SUB SWAP1 DUP2 AND SWAP2 SWAP1 DUP10 AND SWAP1 PUSH32 0x1B138257231D2C00719335BC377B9C84F462339563B691E1DAB140FBEF52B41E SWAP1 PUSH1 0x20 SWAP1 LOG4 PUSH3 0x12C5 JUMP JUMPDEST PUSH3 0xA5D JUMP JUMPDEST PUSH3 0xCC0 SWAP1 PUSH3 0xEC7 JUMP JUMPDEST DUP9 PUSH3 0xC37 JUMP JUMPDEST PUSH1 0x40 MLOAD PUSH4 0xB06EBF3D PUSH1 0xE0 SHL DUP2 MSTORE PUSH1 0x4 SWAP1 REVERT JUMPDEST DUP1 PUSH3 0xCEB PUSH3 0xD3A SWAP3 DUP5 DUP9 PUSH3 0x12D5 JUMP JUMPDEST CALLDATALOAD DUP1 ISZERO PUSH3 0x3DB JUMPI PUSH1 0x1 PUSH1 0x1 PUSH1 0xA0 SHL SUB DUP1 DUP12 AND SWAP1 PUSH32 0x67226BACCCEF969DAB310A9E55DC1CF821363658E433FD330344F5CC00C79AC8 SWAP1 PUSH1 0x20 SWAP1 PUSH3 0x3B5 DUP6 PUSH3 0x3AE PUSH3 0x3A8 DUP10 DUP14 DUP16 PUSH3 0x12D5 JUMP JUMPDEST PUSH3 0xA2E JUMP JUMPDEST PUSH3 0xD54 DUP3 DUP7 PUSH1 0x4 ADD CALLDATALOAD PUSH1 0x24 DUP9 ADD PUSH3 0x149D JUMP JUMPDEST PUSH1 0x1 PUSH1 0x1 PUSH1 0xA0 SHL SUB PUSH3 0xD67 DUP3 PUSH3 0x104D JUMP JUMPDEST AND ISZERO PUSH3 0xDD0 JUMPI PUSH1 0x80 ADD CALLDATALOAD SWAP1 DUP2 ISZERO PUSH3 0xD98 JUMPI PUSH3 0xD91 SWAP2 PUSH3 0xD8A SWAP2 PUSH3 0x12FC JUMP JUMPDEST SWAP2 PUSH3 0x12C5 JUMP JUMPDEST SWAP1 PUSH3 0x9F7 JUMP JUMPDEST PUSH1 0x40 MLOAD PUSH3 0x461BCD PUSH1 0xE5 SHL DUP2 MSTORE PUSH1 0x20 PUSH1 0x4 DUP3 ADD MSTORE PUSH1 0x10 PUSH1 0x24 DUP3 ADD MSTORE PUSH16 0x76657374696E6720616D6F756E743D3 PUSH1 0x84 SHL PUSH1 0x44 DUP3 ADD MSTORE PUSH1 0x64 SWAP1 REVERT JUMPDEST PUSH1 0x40 MLOAD PUSH3 0x461BCD PUSH1 0xE5 SHL DUP2 MSTORE PUSH1 0x20 PUSH1 0x4 DUP3 ADD MSTORE PUSH1 0xD PUSH1 0x24 DUP3 ADD MSTORE PUSH13 0x62656E65666963696172793D3 PUSH1 0x9C SHL PUSH1 0x44 DUP3 ADD MSTORE PUSH1 0x64 SWAP1 REVERT JUMPDEST PUSH1 0x40 MLOAD PUSH3 0x461BCD PUSH1 0xE5 SHL DUP2 MSTORE PUSH1 0x20 PUSH1 0x4 DUP3 ADD MSTORE PUSH1 0x11 PUSH1 0x24 DUP3 ADD MSTORE PUSH17 0x746F6F206D616E792076657374696E6773 PUSH1 0x78 SHL PUSH1 0x44 DUP3 ADD MSTORE PUSH1 0x64 SWAP1 REVERT JUMPDEST CALLVALUE PUSH3 0x14E JUMPI PUSH1 0x0 CALLDATASIZE PUSH1 0x3 NOT ADD SLT PUSH3 0x14E JUMPI PUSH1 0x20 SWAP1 PUSH1 0x2 SLOAD DUP2 MSTORE RETURN JUMPDEST SWAP2 DUP2 PUSH1 0x1F DUP5 ADD SLT ISZERO PUSH3 0x14E JUMPI DUP3 CALLDATALOAD SWAP2 PUSH1 0x1 PUSH1 0x1 PUSH1 0x40 SHL SUB DUP4 GT PUSH3 0x14E JUMPI PUSH1 0x20 DUP1 DUP6 ADD SWAP5 DUP5 PUSH1 0x5 SHL ADD ADD GT PUSH3 0x14E JUMPI JUMP JUMPDEST ISZERO PUSH3 0xE96 JUMPI JUMP JUMPDEST PUSH1 0x40 MLOAD PUSH3 0x461BCD PUSH1 0xE5 SHL DUP2 MSTORE PUSH1 0x20 PUSH1 0x4 DUP3 ADD MSTORE PUSH1 0x9 PUSH1 0x24 DUP3 ADD MSTORE PUSH9 0x3737BA1037BBB732B9 PUSH1 0xB9 SHL PUSH1 0x44 DUP3 ADD MSTORE PUSH1 0x64 SWAP1 REVERT JUMPDEST PUSH1 0x1 PUSH1 0x1 PUSH1 0x40 SHL SUB DUP2 GT PUSH3 0x67C JUMPI PUSH1 0x40 MSTORE JUMP JUMPDEST SWAP1 PUSH1 0x1F DUP1 NOT SWAP2 ADD AND DUP2 ADD SWAP1 DUP2 LT PUSH1 0x1 PUSH1 0x1 PUSH1 0x40 SHL SUB DUP3 GT OR PUSH3 0x67C JUMPI PUSH1 0x40 MSTORE JUMP JUMPDEST ISZERO PUSH3 0xF05 JUMPI JUMP JUMPDEST PUSH1 0x40 MLOAD PUSH3 0x461BCD PUSH1 0xE5 SHL DUP2 MSTORE PUSH1 0x20 PUSH1 0x4 DUP3 ADD MSTORE PUSH1 0x8 PUSH1 0x24 DUP3 ADD MSTORE PUSH8 0x737570706C793D3 PUSH1 0xC4 SHL PUSH1 0x44 DUP3 ADD MSTORE PUSH1 0x64 SWAP1 REVERT JUMPDEST PUSH1 0x40 MLOAD PUSH4 0xA9059CBB PUSH1 0xE0 SHL PUSH1 0x20 DUP3 ADD SWAP1 DUP2 MSTORE PUSH1 0x1 PUSH1 0x1 PUSH1 0xA0 SHL SUB SWAP4 DUP5 AND PUSH1 0x24 DUP4 ADD MSTORE PUSH1 0x44 DUP1 DUP4 ADD SWAP6 SWAP1 SWAP6 MSTORE SWAP4 DUP2 MSTORE SWAP1 SWAP3 PUSH1 0x80 DUP3 ADD SWAP1 PUSH1 0x1 PUSH1 0x1 PUSH1 0x40 SHL SUB DUP3 GT DUP4 DUP4 LT OR PUSH3 0x67C JUMPI PUSH1 0x20 SWAP3 PUSH1 0x0 SWAP3 PUSH1 0x40 MSTORE MLOAD SWAP1 DUP3 DUP7 GAS CALL ISZERO PUSH3 0x2C6 JUMPI PUSH1 0x0 MLOAD RETURNDATASIZE PUSH3 0xFC5 JUMPI POP DUP1 DUP3 AND EXTCODESIZE ISZERO JUMPDEST PUSH3 0xFAB JUMPI POP POP JUMP JUMPDEST PUSH1 0x40 MLOAD PUSH4 0x5274AFE7 PUSH1 0xE0 SHL DUP2 MSTORE SWAP2 AND PUSH1 0x4 DUP3 ADD MSTORE PUSH1 0x24 SWAP2 POP REVERT JUMPDEST PUSH1 0x1 EQ ISZERO PUSH3 0xFA2 JUMP JUMPDEST DUP1 PUSH3 0x1015 JUMPI POP CALLVALUE PUSH3 0xFDE JUMPI JUMP JUMPDEST PUSH1 0x40 MLOAD PUSH3 0x461BCD PUSH1 0xE5 SHL DUP2 MSTORE PUSH1 0x20 PUSH1 0x4 DUP3 ADD MSTORE PUSH1 0xF PUSH1 0x24 DUP3 ADD MSTORE PUSH15 0x1B9BC8199959481C995C5D5A5C9959 PUSH1 0x8A SHL PUSH1 0x44 DUP3 ADD MSTORE PUSH1 0x64 SWAP1 REVERT JUMPDEST CALLVALUE SUB PUSH3 0x101E JUMPI JUMP JUMPDEST PUSH1 0x40 MLOAD PUSH3 0x461BCD PUSH1 0xE5 SHL DUP2 MSTORE PUSH1 0x20 PUSH1 0x4 DUP3 ADD MSTORE PUSH1 0x7 PUSH1 0x24 DUP3 ADD MSTORE PUSH7 0x62616420666565 PUSH1 0xC8 SHL PUSH1 0x44 DUP3 ADD MSTORE PUSH1 0x64 SWAP1 REVERT JUMPDEST CALLDATALOAD PUSH1 0x1 PUSH1 0x1 PUSH1 0xA0 SHL SUB DUP2 AND DUP2 SUB PUSH3 0x14E JUMPI SWAP1 JUMP JUMPDEST SWAP1 CALLDATALOAD SWAP1 PUSH1 0x1E NOT DUP2 CALLDATASIZE SUB ADD DUP3 SLT ISZERO PUSH3 0x14E JUMPI ADD DUP1 CALLDATALOAD SWAP1 PUSH1 0x1 PUSH1 0x1 PUSH1 0x40 SHL SUB DUP3 GT PUSH3 0x14E JUMPI PUSH1 0x20 ADD SWAP2 DUP2 CALLDATASIZE SUB DUP4 SGT PUSH3 0x14E JUMPI JUMP JUMPDEST SWAP1 DUP1 PUSH1 0x20 SWAP4 SWAP3 DUP2 DUP5 MSTORE DUP5 DUP5 ADD CALLDATACOPY PUSH1 0x0 DUP3 DUP3 ADD DUP5 ADD MSTORE PUSH1 0x1F ADD PUSH1 0x1F NOT AND ADD ADD SWAP1 JUMP JUMPDEST SWAP1 PUSH3 0x10F2 PUSH3 0x10E4 PUSH3 0x10CF PUSH1 0x80 DUP6 ADD PUSH3 0x1288 JUMP JUMPDEST PUSH3 0x10DD PUSH1 0xA0 DUP7 ADD PUSH3 0x1288 JUMP JUMPDEST SWAP1 PUSH3 0x1298 JUMP JUMPDEST PUSH3 0x10DD PUSH1 0xC0 DUP6 ADD PUSH3 0x1288 JUMP JUMPDEST PUSH3 0x1126 PUSH3 0x1117 PUSH3 0x1108 PUSH1 0xE0 DUP7 ADD PUSH3 0x1288 JUMP JUMPDEST PUSH3 0x10DD PUSH2 0x100 DUP8 ADD PUSH3 0x1288 JUMP JUMPDEST PUSH3 0x10DD PUSH2 0x120 DUP7 ADD PUSH3 0x1288 JUMP JUMPDEST PUSH2 0x7D0 SWAP2 PUSH2 0xFFFF SWAP1 DUP2 AND SWAP2 DUP4 DUP4 GT PUSH3 0x1253 JUMPI AND SWAP2 DUP3 GT PUSH3 0x121D JUMPI PUSH1 0x1 PUSH1 0x1 PUSH1 0xA0 SHL SUB SWAP4 PUSH1 0x60 DUP2 ADD DUP6 PUSH3 0x115B DUP3 PUSH3 0x104D JUMP JUMPDEST AND ISZERO PUSH3 0x1214 JUMPI PUSH3 0x116D SWAP1 PUSH3 0x104D JUMP JUMPDEST SWAP3 JUMPDEST PUSH3 0x117B DUP3 DUP1 PUSH3 0x1062 JUMP JUMPDEST PUSH3 0x118D PUSH1 0x20 DUP6 SWAP7 SWAP4 SWAP7 ADD DUP6 PUSH3 0x1062 JUMP JUMPDEST SWAP3 SWAP1 SWAP6 PUSH1 0x40 MLOAD SWAP8 PUSH2 0x1234 SWAP2 DUP3 DUP11 ADD SWAP5 DUP11 DUP7 LT PUSH1 0x1 PUSH1 0x1 PUSH1 0x40 SHL SUB DUP8 GT OR PUSH3 0x67C JUMPI DUP11 SWAP10 PUSH1 0xC0 SWAP8 PUSH3 0x11DF DUP16 SWAP7 SWAP5 PUSH3 0x11ED SWAP5 PUSH1 0x40 SWAP7 DUP16 PUSH3 0x14C4 SWAP1 CODECOPY ADDRESS DUP12 MSTORE PUSH1 0xE0 PUSH1 0x20 DUP13 ADD MSTORE PUSH1 0xE0 DUP12 ADD SWAP2 PUSH3 0x1097 JUMP JUMPDEST SWAP2 DUP9 DUP4 SUB DUP6 DUP11 ADD MSTORE PUSH3 0x1097 JUMP JUMPDEST SWAP8 ADD CALLDATALOAD PUSH1 0x60 DUP6 ADD MSTORE AND PUSH1 0x80 DUP4 ADD MSTORE PUSH1 0xA0 DUP3 ADD MSTORE ADD MSTORE SUB SWAP1 PUSH1 0x0 CREATE SWAP2 DUP3 ISZERO PUSH3 0x2C6 JUMPI DUP3 AND SWAP1 JUMP JUMPDEST POP CALLER SWAP3 PUSH3 0x116F JUMP JUMPDEST PUSH1 0x40 MLOAD PUSH3 0x461BCD PUSH1 0xE5 SHL DUP2 MSTORE PUSH1 0x20 PUSH1 0x4 DUP3 ADD MSTORE PUSH1 0xE PUSH1 0x24 DUP3 ADD MSTORE PUSH14 0x73656C6C20666565203E20323025 PUSH1 0x90 SHL PUSH1 0x44 DUP3 ADD MSTORE PUSH1 0x64 SWAP1 REVERT JUMPDEST PUSH1 0x40 MLOAD PUSH3 0x461BCD PUSH1 0xE5 SHL DUP2 MSTORE PUSH1 0x20 PUSH1 0x4 DUP3 ADD MSTORE PUSH1 0xD PUSH1 0x24 DUP3 ADD MSTORE PUSH13 0x62757920666565203E20323025 PUSH1 0x98 SHL PUSH1 0x44 DUP3 ADD MSTORE PUSH1 0x64 SWAP1 REVERT JUMPDEST CALLDATALOAD PUSH2 0xFFFF DUP2 AND DUP2 SUB PUSH3 0x14E JUMPI SWAP1 JUMP JUMPDEST SWAP2 SWAP1 SWAP2 PUSH2 0xFFFF DUP1 DUP1 SWAP5 AND SWAP2 AND ADD SWAP2 DUP3 GT PUSH3 0x12AF JUMPI JUMP JUMPDEST PUSH4 0x4E487B71 PUSH1 0xE0 SHL PUSH1 0x0 MSTORE PUSH1 0x11 PUSH1 0x4 MSTORE PUSH1 0x24 PUSH1 0x0 REVERT JUMPDEST PUSH1 0x0 NOT DUP2 EQ PUSH3 0x12AF JUMPI PUSH1 0x1 ADD SWAP1 JUMP JUMPDEST SWAP2 SWAP1 DUP2 LT ISZERO PUSH3 0x12E6 JUMPI PUSH1 0x5 SHL ADD SWAP1 JUMP JUMPDEST PUSH4 0x4E487B71 PUSH1 0xE0 SHL PUSH1 0x0 MSTORE PUSH1 0x32 PUSH1 0x4 MSTORE PUSH1 0x24 PUSH1 0x0 REVERT JUMPDEST SWAP2 SWAP1 DUP3 ADD DUP1 SWAP3 GT PUSH3 0x12AF JUMPI JUMP JUMPDEST ISZERO PUSH3 0x1312 JUMPI JUMP JUMPDEST PUSH1 0x40 MLOAD PUSH3 0x461BCD PUSH1 0xE5 SHL DUP2 MSTORE PUSH1 0x20 PUSH1 0x4 DUP3 ADD MSTORE PUSH1 0x15 PUSH1 0x24 DUP3 ADD MSTORE PUSH21 0x646973747269627574696F6E203E20737570706C79 PUSH1 0x58 SHL PUSH1 0x44 DUP3 ADD MSTORE PUSH1 0x64 SWAP1 REVERT JUMPDEST SWAP3 SWAP5 SWAP4 SWAP2 SWAP1 SWAP5 PUSH1 0x0 SWAP6 DUP4 DUP4 SUB PUSH3 0x1466 JUMPI PUSH1 0x64 SWAP1 DUP2 DUP5 GT PUSH3 0x142D JUMPI SWAP4 SWAP3 SWAP2 SWAP1 PUSH1 0x0 SWAP5 JUMPDEST DUP4 DUP7 LT PUSH3 0x1391 JUMPI POP POP POP POP POP POP PUSH3 0x138F SWAP1 DUP4 GT ISZERO PUSH3 0x130A JUMP JUMPDEST JUMP JUMPDEST SWAP1 SWAP2 SWAP3 SWAP4 SWAP5 SWAP8 PUSH1 0x1 DUP1 PUSH1 0xA0 SHL SUB PUSH3 0x13AF PUSH3 0x3A8 DUP12 DUP9 DUP7 PUSH3 0x12D5 JUMP JUMPDEST AND ISZERO PUSH3 0x13FB JUMPI PUSH3 0x13C3 DUP10 DUP8 DUP7 PUSH3 0x12D5 JUMP JUMPDEST CALLDATALOAD SWAP1 DUP2 ISZERO PUSH3 0x13EE JUMPI PUSH3 0x13E3 SWAP2 PUSH3 0x13DC SWAP2 PUSH3 0x12FC JUMP JUMPDEST SWAP9 PUSH3 0x12C5 JUMP JUMPDEST SWAP5 SWAP4 SWAP3 SWAP2 SWAP1 PUSH3 0x1373 JUMP JUMPDEST SWAP9 PUSH3 0x13E3 SWAP2 POP PUSH3 0x12C5 JUMP JUMPDEST PUSH1 0x40 MLOAD PUSH3 0x461BCD PUSH1 0xE5 SHL DUP2 MSTORE PUSH1 0x20 PUSH1 0x4 DUP3 ADD MSTORE PUSH1 0xB PUSH1 0x24 DUP3 ADD MSTORE PUSH11 0x726563697069656E743D3 PUSH1 0xAC SHL PUSH1 0x44 DUP3 ADD MSTORE DUP4 SWAP1 REVERT JUMPDEST POP PUSH1 0x40 MLOAD PUSH3 0x461BCD PUSH1 0xE5 SHL DUP2 MSTORE PUSH1 0x20 PUSH1 0x4 DUP3 ADD MSTORE PUSH1 0x13 PUSH1 0x24 DUP3 ADD MSTORE PUSH19 0x746F6F206D616E7920726563697069656E7473 PUSH1 0x68 SHL PUSH1 0x44 DUP3 ADD MSTORE REVERT JUMPDEST PUSH1 0x40 MLOAD PUSH3 0x461BCD PUSH1 0xE5 SHL DUP2 MSTORE PUSH1 0x20 PUSH1 0x4 DUP3 ADD MSTORE PUSH1 0xF PUSH1 0x24 DUP3 ADD MSTORE PUSH15 0xD8CADCCEE8D040DAD2E6DAC2E8C6D PUSH1 0x8B SHL PUSH1 0x44 DUP3 ADD MSTORE PUSH1 0x64 SWAP1 REVERT JUMPDEST SWAP2 SWAP1 DUP2 LT ISZERO PUSH3 0x12E6 JUMPI PUSH1 0xA0 MUL ADD SWAP1 JUMP JUMPDEST CALLDATALOAD PUSH1 0x1 PUSH1 0x1 PUSH1 0x40 SHL SUB DUP2 AND DUP2 SUB PUSH3 0x14E JUMPI SWAP1 JUMP INVALID PUSH1 0x40 PUSH1 0x80 DUP2 MSTORE CALLVALUE PUSH3 0x4D0 JUMPI PUSH3 0x1234 SWAP1 DUP2 CODESIZE SUB DUP1 PUSH3 0x1F DUP2 PUSH3 0x4D5 JUMP JUMPDEST SWAP4 DUP5 CODECOPY DUP3 ADD PUSH1 0xE0 DUP4 DUP3 SUB SLT PUSH3 0x4D0 JUMPI PUSH3 0x3A DUP4 PUSH3 0x4FB JUMP JUMPDEST PUSH1 0x20 DUP5 DUP2 ADD MLOAD SWAP1 SWAP5 SWAP1 PUSH1 0x1 PUSH1 0x1 PUSH1 0x40 SHL SUB SWAP1 DUP2 DUP2 GT PUSH3 0x4D0 JUMPI DUP5 PUSH3 0x62 SWAP2 DUP5 ADD PUSH3 0x510 JUMP JUMPDEST SWAP4 DUP6 DUP4 ADD MLOAD SWAP1 DUP3 DUP3 GT PUSH3 0x4D0 JUMPI PUSH3 0x7D SWAP2 DUP5 ADD PUSH3 0x510 JUMP JUMPDEST SWAP6 PUSH1 0x60 DUP4 ADD MLOAD SWAP5 PUSH3 0x92 PUSH1 0x80 DUP6 ADD PUSH3 0x4FB JUMP JUMPDEST SWAP1 PUSH3 0xAF PUSH1 0xC0 PUSH3 0xA7 PUSH1 0xA0 DUP9 ADD PUSH3 0x582 JUMP JUMPDEST SWAP7 ADD PUSH3 0x582 JUMP JUMPDEST SWAP4 DUP2 MLOAD DUP2 DUP2 GT PUSH3 0x3D0 JUMPI PUSH1 0x3 SWAP1 DUP2 SLOAD SWAP1 PUSH1 0x1 SWAP5 DUP6 DUP4 DUP2 SHR SWAP4 AND DUP1 ISZERO PUSH3 0x4C5 JUMPI JUMPDEST DUP9 DUP5 LT EQ PUSH3 0x4AF JUMPI DUP2 SWAP1 PUSH1 0x1F SWAP4 DUP5 DUP2 GT PUSH3 0x459 JUMPI JUMPDEST POP DUP9 SWAP1 DUP5 DUP4 GT PUSH1 0x1 EQ PUSH3 0x3F2 JUMPI PUSH1 0x0 SWAP3 PUSH3 0x3E6 JUMPI JUMPDEST POP POP PUSH1 0x0 NOT DUP3 DUP6 SHL SHR NOT AND SWAP1 DUP6 SHL OR DUP3 SSTORE JUMPDEST DUP12 MLOAD SWAP3 DUP4 GT PUSH3 0x3D0 JUMPI PUSH1 0x4 SWAP12 DUP13 SLOAD DUP6 DUP2 DUP2 SHR SWAP2 AND DUP1 ISZERO PUSH3 0x3C5 JUMPI JUMPDEST DUP9 DUP3 LT EQ PUSH3 0x3B0 JUMPI DUP3 DUP2 GT PUSH3 0x365 JUMPI JUMPDEST POP DUP7 SWAP2 DUP5 GT PUSH1 0x1 EQ PUSH3 0x2FA JUMPI SWAP4 DUP4 SWAP5 SWAP2 DUP5 SWAP3 PUSH1 0x0 SWAP6 PUSH3 0x2EE JUMPI JUMPDEST POP POP SHL SWAP3 PUSH1 0x0 NOT SWAP2 SHL SHR NOT AND OR DUP9 SSTORE JUMPDEST PUSH1 0x1 PUSH1 0x1 PUSH1 0xA0 SHL SUB DUP6 DUP2 AND SWAP3 SWAP1 SWAP2 SWAP1 DUP4 ISZERO PUSH3 0x2D7 JUMPI PUSH1 0x5 DUP1 SLOAD PUSH1 0x1 PUSH1 0x1 PUSH1 0xA0 SHL SUB NOT DUP1 DUP3 AND DUP8 OR SWAP1 SWAP3 SSTORE DUP11 MLOAD SWAP2 SWAP6 SWAP1 DUP6 AND PUSH32 0x8BE0079C531659141344CD1FD0A4F28419497F9722A3DAAFE3B4186F6B6457E0 PUSH1 0x0 DUP1 LOG3 DUP9 ISZERO PUSH3 0x2AD JUMPI POP PUSH2 0x7D0 PUSH2 0xFFFF DUP2 DUP2 DUP10 AND GT PUSH3 0x27A JUMPI DUP7 AND GT PUSH3 0x247 JUMPI POP SWAP7 SWAP8 POP PUSH3 0x231 SWAP7 DUP1 DUP3 AND ISZERO PUSH3 0x23F JUMPI JUMPDEST AND SWAP1 PUSH1 0x6 SLOAD AND OR PUSH1 0x6 SSTORE PUSH1 0x7 SLOAD SWAP1 PUSH2 0xFFFF PUSH1 0xB0 SHL SWAP1 PUSH1 0xB0 SHL AND SWAP2 PUSH2 0xFFFF PUSH1 0xA0 SHL SWAP1 PUSH1 0xA0 SHL AND SWAP1 PUSH4 0xFFFFFFFF PUSH1 0xA0 SHL NOT AND OR OR PUSH1 0x7 SSTORE PUSH3 0x592 JUMP JUMPDEST MLOAD PUSH2 0xB08 SWAP1 DUP2 PUSH3 0x72C DUP3 CODECOPY RETURN JUMPDEST POP DUP5 PUSH3 0x1F6 JUMP JUMPDEST DUP10 PUSH1 0x64 SWAP2 DUP11 MLOAD SWAP2 PUSH3 0x461BCD PUSH1 0xE5 SHL DUP4 MSTORE DUP3 ADD MSTORE PUSH1 0xE PUSH1 0x24 DUP3 ADD MSTORE PUSH14 0x73656C6C20666565203E20323025 PUSH1 0x90 SHL PUSH1 0x44 DUP3 ADD MSTORE REVERT JUMPDEST DUP11 MLOAD PUSH3 0x461BCD PUSH1 0xE5 SHL DUP2 MSTORE DUP1 DUP14 ADD DUP5 SWAP1 MSTORE PUSH1 0xD PUSH1 0x24 DUP3 ADD MSTORE PUSH13 0x62757920666565203E20323025 PUSH1 0x98 SHL PUSH1 0x44 DUP3 ADD MSTORE PUSH1 0x64 SWAP1 REVERT JUMPDEST PUSH1 0x64 SWAP2 DUP12 PUSH3 0x461BCD PUSH1 0xE5 SHL DUP4 MSTORE DUP3 ADD MSTORE PUSH1 0x8 PUSH1 0x24 DUP3 ADD MSTORE PUSH8 0x737570706C793D3 PUSH1 0xC4 SHL PUSH1 0x44 DUP3 ADD MSTORE REVERT JUMPDEST DUP9 MLOAD PUSH4 0x1E4FBDF7 PUSH1 0xE0 SHL DUP2 MSTORE PUSH1 0x0 DUP2 DUP13 ADD MSTORE PUSH1 0x24 SWAP1 REVERT JUMPDEST ADD MLOAD SWAP4 POP CODESIZE DUP1 PUSH3 0x15C JUMP JUMPDEST SWAP2 SWAP1 PUSH1 0x1F NOT DUP5 AND SWAP3 DUP14 PUSH1 0x0 MSTORE DUP5 DUP9 PUSH1 0x0 KECCAK256 SWAP5 PUSH1 0x0 JUMPDEST DUP11 DUP10 DUP4 DUP4 LT PUSH3 0x34D JUMPI POP POP POP LT PUSH3 0x332 JUMPI JUMPDEST POP POP POP POP DUP2 SHL ADD DUP9 SSTORE PUSH3 0x16C JUMP JUMPDEST ADD MLOAD SWAP1 PUSH1 0xF8 DUP5 PUSH1 0x0 NOT SWAP3 SHL AND SHR NOT AND SWAP1 SSTORE CODESIZE DUP1 DUP1 DUP1 PUSH3 0x323 JUMP JUMPDEST DUP7 DUP7 ADD MLOAD DUP10 SSTORE SWAP1 SWAP8 ADD SWAP7 SWAP5 DUP6 ADD SWAP5 DUP9 SWAP4 POP ADD PUSH3 0x30F JUMP JUMPDEST DUP14 PUSH1 0x0 MSTORE DUP8 PUSH1 0x0 KECCAK256 DUP4 DUP1 DUP8 ADD PUSH1 0x5 SHR DUP3 ADD SWAP3 DUP11 DUP9 LT PUSH3 0x3A6 JUMPI JUMPDEST ADD PUSH1 0x5 SHR ADD SWAP1 DUP7 SWAP1 JUMPDEST DUP3 DUP2 LT PUSH3 0x399 JUMPI POP POP PUSH3 0x140 JUMP JUMPDEST PUSH1 0x0 DUP2 SSTORE ADD DUP7 SWAP1 PUSH3 0x389 JUMP JUMPDEST SWAP3 POP DUP2 SWAP3 PUSH3 0x380 JUMP JUMPDEST PUSH1 0x22 DUP15 PUSH4 0x4E487B71 PUSH1 0xE0 SHL PUSH1 0x0 MSTORE MSTORE PUSH1 0x24 PUSH1 0x0 REVERT JUMPDEST SWAP1 PUSH1 0x7F AND SWAP1 PUSH3 0x12E JUMP JUMPDEST PUSH4 0x4E487B71 PUSH1 0xE0 SHL PUSH1 0x0 MSTORE PUSH1 0x41 PUSH1 0x4 MSTORE PUSH1 0x24 PUSH1 0x0 REVERT JUMPDEST ADD MLOAD SWAP1 POP CODESIZE DUP1 PUSH3 0xFF JUMP JUMPDEST SWAP1 DUP8 SWAP4 POP PUSH1 0x1F NOT DUP4 AND SWAP2 DUP7 PUSH1 0x0 MSTORE DUP11 PUSH1 0x0 KECCAK256 SWAP3 PUSH1 0x0 JUMPDEST DUP13 DUP3 DUP3 LT PUSH3 0x442 JUMPI POP POP DUP5 GT PUSH3 0x429 JUMPI JUMPDEST POP POP POP DUP2 SHL ADD DUP3 SSTORE PUSH3 0x111 JUMP JUMPDEST ADD MLOAD PUSH1 0x0 NOT DUP4 DUP8 SHL PUSH1 0xF8 AND SHR NOT AND SWAP1 SSTORE CODESIZE DUP1 DUP1 PUSH3 0x41B JUMP JUMPDEST DUP4 DUP6 ADD MLOAD DUP7 SSTORE DUP12 SWAP8 SWAP1 SWAP6 ADD SWAP5 SWAP4 DUP5 ADD SWAP4 ADD PUSH3 0x408 JUMP JUMPDEST SWAP1 SWAP2 POP DUP5 PUSH1 0x0 MSTORE DUP9 PUSH1 0x0 KECCAK256 DUP5 DUP1 DUP6 ADD PUSH1 0x5 SHR DUP3 ADD SWAP3 DUP12 DUP7 LT PUSH3 0x4A5 JUMPI JUMPDEST SWAP2 DUP10 SWAP2 DUP7 SWAP6 SWAP5 SWAP4 ADD PUSH1 0x5 SHR ADD SWAP2 JUMPDEST DUP3 DUP2 LT PUSH3 0x495 JUMPI POP POP PUSH3 0xE8 JUMP JUMPDEST PUSH1 0x0 DUP2 SSTORE DUP6 SWAP5 POP DUP10 SWAP2 ADD PUSH3 0x485 JUMP JUMPDEST SWAP3 POP DUP2 SWAP3 PUSH3 0x477 JUMP JUMPDEST PUSH4 0x4E487B71 PUSH1 0xE0 SHL PUSH1 0x0 MSTORE PUSH1 0x22 PUSH1 0x4 MSTORE PUSH1 0x24 PUSH1 0x0 REVERT JUMPDEST SWAP3 PUSH1 0x7F AND SWAP3 PUSH3 0xD1 JUMP JUMPDEST PUSH1 0x0 DUP1 REVERT JUMPDEST PUSH1 0x40 MLOAD SWAP2 SWAP1 PUSH1 0x1F ADD PUSH1 0x1F NOT AND DUP3 ADD PUSH1 0x1 PUSH1 0x1 PUSH1 0x40 SHL SUB DUP2 GT DUP4 DUP3 LT OR PUSH3 0x3D0 JUMPI PUSH1 0x40 MSTORE JUMP JUMPDEST MLOAD SWAP1 PUSH1 0x1 PUSH1 0x1 PUSH1 0xA0 SHL SUB DUP3 AND DUP3 SUB PUSH3 0x4D0 JUMPI JUMP JUMPDEST SWAP2 SWAP1 DUP1 PUSH1 0x1F DUP5 ADD SLT ISZERO PUSH3 0x4D0 JUMPI DUP3 MLOAD PUSH1 0x1 PUSH1 0x1 PUSH1 0x40 SHL SUB DUP2 GT PUSH3 0x3D0 JUMPI PUSH1 0x20 SWAP1 PUSH3 0x546 PUSH1 0x1F DUP3 ADD PUSH1 0x1F NOT AND DUP4 ADD PUSH3 0x4D5 JUMP JUMPDEST SWAP3 DUP2 DUP5 MSTORE DUP3 DUP3 DUP8 ADD ADD GT PUSH3 0x4D0 JUMPI PUSH1 0x0 JUMPDEST DUP2 DUP2 LT PUSH3 0x56E JUMPI POP DUP3 PUSH1 0x0 SWAP4 SWAP5 SWAP6 POP ADD ADD MSTORE SWAP1 JUMP JUMPDEST DUP6 DUP2 ADD DUP4 ADD MLOAD DUP5 DUP3 ADD DUP5 ADD MSTORE DUP3 ADD PUSH3 0x558 JUMP JUMPDEST MLOAD SWAP1 PUSH2 0xFFFF DUP3 AND DUP3 SUB PUSH3 0x4D0 JUMPI JUMP JUMPDEST SWAP1 DUP1 ISZERO PUSH3 0x6B0 JUMPI PUSH1 0x7 SLOAD PUSH1 0x1 PUSH1 0x1 PUSH1 0xA0 SHL SUB SWAP1 PUSH2 0xFFFF SWAP1 DUP3 DUP2 AND DUP1 ISZERO DUP1 ISZERO SWAP3 SWAP2 DUP4 SWAP2 DUP3 PUSH3 0x6A7 JUMPI JUMPDEST POP DUP4 PUSH3 0x69A JUMPI JUMPDEST DUP2 PUSH3 0x68D JUMPI JUMPDEST POP DUP1 PUSH3 0x684 JUMPI JUMPDEST PUSH1 0x0 SWAP3 ISZERO PUSH3 0x669 JUMPI POP DUP3 SWAP2 POP PUSH1 0xA0 SHR AND JUMPDEST AND DUP1 PUSH3 0x5FC JUMPI JUMPDEST POP POP PUSH3 0x5FA SWAP2 PUSH3 0x6B6 JUMP JUMPDEST JUMP JUMPDEST DUP1 DUP4 MUL SWAP1 DUP4 DUP3 DIV SUB PUSH3 0x646 JUMPI PUSH2 0x2710 SWAP1 DIV SWAP1 DUP2 ISZERO PUSH3 0x5ED JUMPI DUP2 DUP2 PUSH3 0x631 SWAP3 PUSH1 0x6 SLOAD AND SWAP1 DUP2 ISZERO PUSH3 0x65C JUMPI JUMPDEST POP PUSH3 0x6B6 JUMP JUMPDEST DUP2 SUB SWAP1 DUP2 GT PUSH3 0x646 JUMPI PUSH3 0x5FA SWAP2 PUSH3 0x6B6 JUMP JUMPDEST PUSH4 0x4E487B71 PUSH1 0xE0 SHL PUSH1 0x0 MSTORE PUSH1 0x11 PUSH1 0x4 MSTORE PUSH1 0x24 PUSH1 0x0 REVERT JUMPDEST SWAP1 POP PUSH1 0x5 SLOAD AND CODESIZE PUSH3 0x62A JUMP JUMPDEST PUSH3 0x676 JUMPI JUMPDEST POP PUSH3 0x5E5 JUMP JUMPDEST DUP3 SWAP2 POP PUSH1 0xB0 SHR AND CODESIZE PUSH3 0x66F JUMP JUMPDEST POP PUSH1 0x0 PUSH3 0x5D3 JUMP JUMPDEST SWAP1 POP DUP5 DUP8 AND EQ CODESIZE PUSH3 0x5CB JUMP JUMPDEST DUP8 DUP7 AND ISZERO ISZERO SWAP4 POP PUSH3 0x5C4 JUMP JUMPDEST SWAP4 POP CODESIZE PUSH3 0x5BC JUMP JUMPDEST PUSH3 0x5FA SWAP2 JUMPDEST PUSH1 0x2 SLOAD SWAP1 DUP3 DUP3 ADD DUP1 SWAP3 GT PUSH3 0x646 JUMPI PUSH1 0x2 SWAP2 SWAP1 SWAP2 SSTORE PUSH1 0x1 PUSH1 0x1 PUSH1 0xA0 SHL SUB AND SWAP1 PUSH1 0x0 SWAP1 PUSH32 0xDDF252AD1BE2C89B69C2B068FC378DAA952BA7F163C4A11628F55A4DF523B3EF SWAP1 PUSH1 0x20 SWAP1 DUP5 PUSH3 0x715 JUMPI DUP1 PUSH1 0x2 SLOAD SUB PUSH1 0x2 SSTORE JUMPDEST PUSH1 0x40 MLOAD SWAP1 DUP2 MSTORE LOG3 JUMP JUMPDEST DUP5 DUP5 MSTORE DUP4 DUP3 MSTORE PUSH1 0x40 DUP5 KECCAK256 DUP2 DUP2 SLOAD ADD SWAP1 SSTORE PUSH3 0x70C JUMP INVALID PUSH1 0x80 PUSH1 0x40 DUP2 DUP2 MSTORE PUSH1 0x4 DUP1 CALLDATASIZE LT ISZERO PUSH2 0x15 JUMPI PUSH1 0x0 DUP1 REVERT JUMPDEST PUSH1 0x0 SWAP3 DUP4 CALLDATALOAD PUSH1 0xE0 SHR SWAP1 DUP2 PUSH4 0x6FDDE03 EQ PUSH2 0x6D2 JUMPI POP DUP1 PUSH4 0x95EA7B3 EQ PUSH2 0x629 JUMPI DUP1 PUSH4 0x18160DDD EQ PUSH2 0x60A JUMPI DUP1 PUSH4 0x23B872DD EQ PUSH2 0x517 JUMPI DUP1 PUSH4 0x23CBE1F3 EQ PUSH2 0x4F1 JUMPI DUP1 PUSH4 0x313CE567 EQ PUSH2 0x4D5 JUMPI DUP1 PUSH4 0x49BD5A5E EQ PUSH2 0x4AC JUMPI DUP1 PUSH4 0x5A27A1F9 EQ PUSH2 0x490 JUMPI DUP1 PUSH4 0x70A08231 EQ PUSH2 0x459 JUMPI DUP1 PUSH4 0x715018A6 EQ PUSH2 0x3FC JUMPI DUP1 PUSH4 0x75F0A874 EQ PUSH2 0x3D3 JUMPI DUP1 PUSH4 0x77D2300E EQ PUSH2 0x3AD JUMPI DUP1 PUSH4 0x8187F516 EQ PUSH2 0x342 JUMPI DUP1 PUSH4 0x8DA5CB5B EQ PUSH2 0x319 JUMPI DUP1 PUSH4 0x95D89B41 EQ PUSH2 0x1F9 JUMPI DUP1 PUSH4 0xA9059CBB EQ PUSH2 0x1C8 JUMPI DUP1 PUSH4 0xDD62ED3E EQ PUSH2 0x17B JUMPI PUSH4 0xF2FDE38B EQ PUSH2 0xE9 JUMPI PUSH1 0x0 DUP1 REVERT JUMPDEST CALLVALUE PUSH2 0x177 JUMPI PUSH1 0x20 CALLDATASIZE PUSH1 0x3 NOT ADD SLT PUSH2 0x177 JUMPI PUSH2 0x102 PUSH2 0x810 JUMP JUMPDEST SWAP1 PUSH2 0x10B PUSH2 0x841 JUMP JUMPDEST PUSH1 0x1 PUSH1 0x1 PUSH1 0xA0 SHL SUB SWAP2 DUP3 AND SWAP3 DUP4 ISZERO PUSH2 0x161 JUMPI POP POP PUSH1 0x5 SLOAD DUP3 PUSH12 0xFFFFFFFFFFFFFFFFFFFFFFFF PUSH1 0xA0 SHL DUP3 AND OR PUSH1 0x5 SSTORE AND PUSH32 0x8BE0079C531659141344CD1FD0A4F28419497F9722A3DAAFE3B4186F6B6457E0 DUP4 DUP1 LOG3 DUP1 RETURN JUMPDEST MLOAD PUSH4 0x1E4FBDF7 PUSH1 0xE0 SHL DUP2 MSTORE SWAP1 DUP2 ADD DUP5 SWAP1 MSTORE PUSH1 0x24 SWAP1 REVERT JUMPDEST DUP3 DUP1 REVERT JUMPDEST POP POP CALLVALUE PUSH2 0x1C4 JUMPI DUP1 PUSH1 0x3 NOT CALLDATASIZE ADD SLT PUSH2 0x1C4 JUMPI DUP1 PUSH1 0x20 SWAP3 PUSH2 0x199 PUSH2 0x810 JUMP JUMPDEST PUSH2 0x1A1 PUSH2 0x82B JUMP JUMPDEST PUSH1 0x1 PUSH1 0x1 PUSH1 0xA0 SHL SUB SWAP2 DUP3 AND DUP4 MSTORE PUSH1 0x1 DUP7 MSTORE DUP4 DUP4 KECCAK256 SWAP2 AND DUP3 MSTORE DUP5 MSTORE KECCAK256 SLOAD SWAP1 MLOAD SWAP1 DUP2 MSTORE RETURN JUMPDEST POP DUP1 REVERT JUMPDEST POP POP CALLVALUE PUSH2 0x1C4 JUMPI DUP1 PUSH1 0x3 NOT CALLDATASIZE ADD SLT PUSH2 0x1C4 JUMPI PUSH1 0x20 SWAP1 PUSH2 0x1F2 PUSH2 0x1E8 PUSH2 0x810 JUMP JUMPDEST PUSH1 0x24 CALLDATALOAD SWAP1 CALLER PUSH2 0x86D JUMP JUMPDEST MLOAD PUSH1 0x1 DUP2 MSTORE RETURN JUMPDEST POP SWAP2 SWAP1 CALLVALUE PUSH2 0x1C4 JUMPI DUP2 PUSH1 0x3 NOT CALLDATASIZE ADD SLT PUSH2 0x1C4 JUMPI DUP1 MLOAD SWAP1 DUP3 DUP5 SLOAD PUSH1 0x1 DUP2 DUP2 SHR SWAP1 DUP1 DUP4 AND SWAP3 DUP4 ISZERO PUSH2 0x30F JUMPI JUMPDEST PUSH1 0x20 SWAP4 DUP5 DUP5 LT DUP2 EQ PUSH2 0x2FC JUMPI DUP4 DUP9 MSTORE SWAP1 DUP2 ISZERO PUSH2 0x2E0 JUMPI POP PUSH1 0x1 EQ PUSH2 0x28B JUMPI JUMPDEST POP POP POP DUP3 SWAP1 SUB PUSH1 0x1F ADD PUSH1 0x1F NOT AND DUP3 ADD SWAP3 PUSH8 0xFFFFFFFFFFFFFFFF DUP5 GT DUP4 DUP6 LT OR PUSH2 0x278 JUMPI POP DUP3 SWAP2 DUP3 PUSH2 0x274 SWAP3 MSTORE DUP3 PUSH2 0x7C7 JUMP JUMPDEST SUB SWAP1 RETURN JUMPDEST PUSH4 0x4E487B71 PUSH1 0xE0 SHL DUP2 MSTORE PUSH1 0x41 DUP6 MSTORE PUSH1 0x24 SWAP1 REVERT JUMPDEST DUP8 DUP8 MSTORE SWAP2 SWAP3 POP DUP6 SWAP2 DUP4 PUSH32 0x8A35ACFBC15FF81A39AE7D344FD709F28E8600B4AA8C65C6B64BFE7FE36BD19B JUMPDEST DUP4 DUP6 LT PUSH2 0x2CC JUMPI POP POP POP POP DUP4 ADD ADD CODESIZE DUP1 DUP1 PUSH2 0x242 JUMP JUMPDEST DUP1 SLOAD DUP9 DUP7 ADD DUP4 ADD MSTORE SWAP4 ADD SWAP3 DUP5 SWAP1 DUP3 ADD PUSH2 0x2B6 JUMP JUMPDEST PUSH1 0xFF NOT AND DUP8 DUP6 ADD MSTORE POP POP ISZERO ISZERO PUSH1 0x5 SHL DUP5 ADD ADD SWAP1 POP CODESIZE DUP1 DUP1 PUSH2 0x242 JUMP JUMPDEST PUSH4 0x4E487B71 PUSH1 0xE0 SHL DUP10 MSTORE PUSH1 0x22 DUP11 MSTORE PUSH1 0x24 DUP10 REVERT JUMPDEST SWAP2 PUSH1 0x7F AND SWAP2 PUSH2 0x223 JUMP JUMPDEST POP POP CALLVALUE PUSH2 0x1C4 JUMPI DUP2 PUSH1 0x3 NOT CALLDATASIZE ADD SLT PUSH2 0x1C4 JUMPI PUSH1 0x5 SLOAD SWAP1 MLOAD PUSH1 0x1 PUSH1 0x1 PUSH1 0xA0 SHL SUB SWAP1 SWAP2 AND DUP2 MSTORE PUSH1 0x20 SWAP1 RETURN JUMPDEST DUP4 CALLVALUE PUSH2 0x3AA JUMPI PUSH1 0x20 CALLDATASIZE PUSH1 0x3 NOT ADD SLT PUSH2 0x3AA JUMPI PUSH2 0x35C PUSH2 0x810 JUMP JUMPDEST PUSH2 0x364 PUSH2 0x841 JUMP JUMPDEST PUSH1 0x7 DUP1 SLOAD PUSH1 0x1 PUSH1 0x1 PUSH1 0xA0 SHL SUB NOT AND PUSH1 0x1 PUSH1 0x1 PUSH1 0xA0 SHL SUB SWAP3 SWAP1 SWAP3 AND SWAP2 DUP3 OR SWAP1 SSTORE PUSH32 0xC4A4EA6ABC08BD7F8DF3DB8A1C998F19B3E0C348176F93732CD54DB1A4B50136 DUP3 DUP1 LOG2 DUP1 RETURN JUMPDEST DUP1 REVERT JUMPDEST POP POP CALLVALUE PUSH2 0x1C4 JUMPI DUP2 PUSH1 0x3 NOT CALLDATASIZE ADD SLT PUSH2 0x1C4 JUMPI PUSH1 0x20 SWAP1 PUSH2 0xFFFF PUSH1 0x7 SLOAD PUSH1 0xA0 SHR AND SWAP1 MLOAD SWAP1 DUP2 MSTORE RETURN JUMPDEST POP POP CALLVALUE PUSH2 0x1C4 JUMPI DUP2 PUSH1 0x3 NOT CALLDATASIZE ADD SLT PUSH2 0x1C4 JUMPI PUSH1 0x6 SLOAD SWAP1 MLOAD PUSH1 0x1 PUSH1 0x1 PUSH1 0xA0 SHL SUB SWAP1 SWAP2 AND DUP2 MSTORE PUSH1 0x20 SWAP1 RETURN JUMPDEST DUP4 CALLVALUE PUSH2 0x3AA JUMPI DUP1 PUSH1 0x3 NOT CALLDATASIZE ADD SLT PUSH2 0x3AA JUMPI PUSH2 0x415 PUSH2 0x841 JUMP JUMPDEST PUSH1 0x5 DUP1 SLOAD PUSH1 0x1 PUSH1 0x1 PUSH1 0xA0 SHL SUB NOT DUP2 AND SWAP1 SWAP2 SSTORE DUP2 SWAP1 PUSH1 0x1 PUSH1 0x1 PUSH1 0xA0 SHL SUB AND PUSH32 0x8BE0079C531659141344CD1FD0A4F28419497F9722A3DAAFE3B4186F6B6457E0 DUP3 DUP1 LOG3 DUP1 RETURN JUMPDEST POP POP CALLVALUE PUSH2 0x1C4 JUMPI PUSH1 0x20 CALLDATASIZE PUSH1 0x3 NOT ADD SLT PUSH2 0x1C4 JUMPI PUSH1 0x20 SWAP2 DUP2 SWAP1 PUSH1 0x1 PUSH1 0x1 PUSH1 0xA0 SHL SUB PUSH2 0x481 PUSH2 0x810 JUMP JUMPDEST AND DUP2 MSTORE DUP1 DUP5 MSTORE KECCAK256 SLOAD SWAP1 MLOAD SWAP1 DUP2 MSTORE RETURN JUMPDEST POP POP CALLVALUE PUSH2 0x1C4 JUMPI DUP2 PUSH1 0x3 NOT CALLDATASIZE ADD SLT PUSH2 0x1C4 JUMPI PUSH1 0x20 SWAP1 MLOAD PUSH1 0x1 DUP2 MSTORE RETURN JUMPDEST POP POP CALLVALUE PUSH2 0x1C4 JUMPI DUP2 PUSH1 0x3 NOT CALLDATASIZE ADD SLT PUSH2 0x1C4 JUMPI PUSH1 0x7 SLOAD SWAP1 MLOAD PUSH1 0x1 PUSH1 0x1 PUSH1 0xA0 SHL SUB SWAP1 SWAP2 AND DUP2 MSTORE PUSH1 0x20 SWAP1 RETURN JUMPDEST POP POP CALLVALUE PUSH2 0x1C4 JUMPI DUP2 PUSH1 0x3 NOT CALLDATASIZE ADD SLT PUSH2 0x1C4 JUMPI PUSH1 0x20 SWAP1 MLOAD PUSH1 0x12 DUP2 MSTORE RETURN JUMPDEST POP POP CALLVALUE PUSH2 0x1C4 JUMPI DUP2 PUSH1 0x3 NOT CALLDATASIZE ADD SLT PUSH2 0x1C4 JUMPI PUSH1 0x20 SWAP1 PUSH2 0xFFFF PUSH1 0x7 SLOAD PUSH1 0xB0 SHR AND SWAP1 MLOAD SWAP1 DUP2 MSTORE RETURN JUMPDEST POP DUP3 CALLVALUE PUSH2 0x3AA JUMPI PUSH1 0x60 CALLDATASIZE PUSH1 0x3 NOT ADD SLT PUSH2 0x3AA JUMPI PUSH2 0x532 PUSH2 0x810 JUMP JUMPDEST PUSH2 0x53A PUSH2 0x82B JUMP JUMPDEST SWAP2 PUSH1 0x44 CALLDATALOAD SWAP4 PUSH1 0x1 DUP1 PUSH1 0xA0 SHL SUB DUP4 AND DUP1 DUP4 MSTORE PUSH1 0x1 PUSH1 0x20 MSTORE DUP7 DUP4 KECCAK256 CALLER DUP5 MSTORE PUSH1 0x20 MSTORE DUP7 DUP4 KECCAK256 SLOAD SWAP2 PUSH1 0x0 NOT DUP4 LT PUSH2 0x576 JUMPI JUMPDEST PUSH1 0x20 DUP9 PUSH2 0x1F2 DUP10 DUP10 DUP10 PUSH2 0x86D JUMP JUMPDEST DUP7 DUP4 LT PUSH2 0x5DE JUMPI DUP2 ISZERO PUSH2 0x5C7 JUMPI CALLER ISZERO PUSH2 0x5B0 JUMPI POP DUP3 MSTORE PUSH1 0x1 PUSH1 0x20 SWAP1 DUP2 MSTORE DUP7 DUP4 KECCAK256 CALLER DUP5 MSTORE DUP2 MSTORE SWAP2 DUP7 SWAP1 KECCAK256 SWAP1 DUP6 SWAP1 SUB SWAP1 SSTORE DUP3 SWAP1 PUSH2 0x1F2 DUP8 PUSH2 0x568 JUMP JUMPDEST DUP8 MLOAD PUSH4 0x4A1406B1 PUSH1 0xE1 SHL DUP2 MSTORE SWAP1 DUP2 ADD DUP5 SWAP1 MSTORE PUSH1 0x24 SWAP1 REVERT JUMPDEST DUP8 MLOAD PUSH4 0xE602DF05 PUSH1 0xE0 SHL DUP2 MSTORE SWAP1 DUP2 ADD DUP5 SWAP1 MSTORE PUSH1 0x24 SWAP1 REVERT JUMPDEST DUP8 MLOAD PUSH4 0x7DC7A0D9 PUSH1 0xE1 SHL DUP2 MSTORE CALLER SWAP2 DUP2 ADD SWAP2 DUP3 MSTORE PUSH1 0x20 DUP3 ADD SWAP4 SWAP1 SWAP4 MSTORE PUSH1 0x40 DUP2 ADD DUP8 SWAP1 MSTORE DUP3 SWAP2 POP PUSH1 0x60 ADD SUB SWAP1 REVERT JUMPDEST POP POP CALLVALUE PUSH2 0x1C4 JUMPI DUP2 PUSH1 0x3 NOT CALLDATASIZE ADD SLT PUSH2 0x1C4 JUMPI PUSH1 0x20 SWAP1 PUSH1 0x2 SLOAD SWAP1 MLOAD SWAP1 DUP2 MSTORE RETURN JUMPDEST POP CALLVALUE PUSH2 0x177 JUMPI DUP2 PUSH1 0x3 NOT CALLDATASIZE ADD SLT PUSH2 0x177 JUMPI PUSH2 0x642 PUSH2 0x810 JUMP JUMPDEST PUSH1 0x24 CALLDATALOAD SWAP1 CALLER ISZERO PUSH2 0x6BB JUMPI PUSH1 0x1 PUSH1 0x1 PUSH1 0xA0 SHL SUB AND SWAP2 DUP3 ISZERO PUSH2 0x6A4 JUMPI POP DUP1 DUP4 PUSH1 0x20 SWAP6 CALLER DUP2 MSTORE PUSH1 0x1 DUP8 MSTORE DUP2 DUP2 KECCAK256 DUP6 DUP3 MSTORE DUP8 MSTORE KECCAK256 SSTORE DUP3 MLOAD SWAP1 DUP2 MSTORE PUSH32 0x8C5BE1E5EBEC7D5BD14F71427D1E84F3DD0314C0F7B2291E5B200AC8C7C3B925 DUP5 CALLER SWAP3 LOG3 MLOAD PUSH1 0x1 DUP2 MSTORE RETURN JUMPDEST DUP4 MLOAD PUSH4 0x4A1406B1 PUSH1 0xE1 SHL DUP2 MSTORE SWAP1 DUP2 ADD DUP6 SWAP1 MSTORE PUSH1 0x24 SWAP1 REVERT JUMPDEST DUP4 MLOAD PUSH4 0xE602DF05 PUSH1 0xE0 SHL DUP2 MSTORE DUP1 DUP5 ADD DUP7 SWAP1 MSTORE PUSH1 0x24 SWAP1 REVERT JUMPDEST DUP5 SWAP2 POP DUP4 CALLVALUE PUSH2 0x177 JUMPI DUP3 PUSH1 0x3 NOT CALLDATASIZE ADD SLT PUSH2 0x177 JUMPI DUP3 PUSH1 0x3 SLOAD PUSH1 0x1 DUP2 DUP2 SHR SWAP1 DUP1 DUP4 AND SWAP3 DUP4 ISZERO PUSH2 0x7BD JUMPI JUMPDEST PUSH1 0x20 SWAP4 DUP5 DUP5 LT DUP2 EQ PUSH2 0x2FC JUMPI DUP4 DUP9 MSTORE SWAP1 DUP2 ISZERO PUSH2 0x7A1 JUMPI POP PUSH1 0x1 EQ PUSH2 0x74B JUMPI POP POP POP DUP3 SWAP1 SUB PUSH1 0x1F ADD PUSH1 0x1F NOT AND DUP3 ADD SWAP3 PUSH8 0xFFFFFFFFFFFFFFFF DUP5 GT DUP4 DUP6 LT OR PUSH2 0x278 JUMPI POP DUP3 SWAP2 DUP3 PUSH2 0x274 SWAP3 MSTORE DUP3 PUSH2 0x7C7 JUMP JUMPDEST PUSH1 0x3 DUP8 MSTORE SWAP2 SWAP3 POP DUP6 SWAP2 DUP4 PUSH32 0xC2575A0E9E593C00F959F8C92F12DB2869C3395A3B0502D05E2516446F71F85B JUMPDEST DUP4 DUP6 LT PUSH2 0x78D JUMPI POP POP POP POP DUP4 ADD ADD DUP6 DUP1 DUP1 PUSH2 0x242 JUMP JUMPDEST DUP1 SLOAD DUP9 DUP7 ADD DUP4 ADD MSTORE SWAP4 ADD SWAP3 DUP5 SWAP1 DUP3 ADD PUSH2 0x777 JUMP JUMPDEST PUSH1 0xFF NOT AND DUP8 DUP6 ADD MSTORE POP POP ISZERO ISZERO PUSH1 0x5 SHL DUP5 ADD ADD SWAP1 POP DUP6 DUP1 DUP1 PUSH2 0x242 JUMP JUMPDEST SWAP2 PUSH1 0x7F AND SWAP2 PUSH2 0x6FB JUMP JUMPDEST PUSH1 0x20 DUP1 DUP3 MSTORE DUP3 MLOAD DUP2 DUP4 ADD DUP2 SWAP1 MSTORE SWAP1 SWAP4 SWAP3 PUSH1 0x0 JUMPDEST DUP3 DUP2 LT PUSH2 0x7FC JUMPI POP POP PUSH1 0x40 SWAP3 SWAP4 POP PUSH1 0x0 DUP4 DUP3 DUP5 ADD ADD MSTORE PUSH1 0x1F DUP1 NOT SWAP2 ADD AND ADD ADD SWAP1 JUMP JUMPDEST DUP2 DUP2 ADD DUP7 ADD MLOAD DUP5 DUP3 ADD PUSH1 0x40 ADD MSTORE DUP6 ADD PUSH2 0x7DA JUMP JUMPDEST PUSH1 0x4 CALLDATALOAD SWAP1 PUSH1 0x1 PUSH1 0x1 PUSH1 0xA0 SHL SUB DUP3 AND DUP3 SUB PUSH2 0x826 JUMPI JUMP JUMPDEST PUSH1 0x0 DUP1 REVERT JUMPDEST PUSH1 0x24 CALLDATALOAD SWAP1 PUSH1 0x1 PUSH1 0x1 PUSH1 0xA0 SHL SUB DUP3 AND DUP3 SUB PUSH2 0x826 JUMPI JUMP JUMPDEST PUSH1 0x5 SLOAD PUSH1 0x1 PUSH1 0x1 PUSH1 0xA0 SHL SUB AND CALLER SUB PUSH2 0x855 JUMPI JUMP JUMPDEST PUSH1 0x40 MLOAD PUSH4 0x118CDAA7 PUSH1 0xE0 SHL DUP2 MSTORE CALLER PUSH1 0x4 DUP3 ADD MSTORE PUSH1 0x24 SWAP1 REVERT JUMPDEST SWAP2 SWAP1 PUSH1 0x1 PUSH1 0x1 PUSH1 0xA0 SHL SUB DUP1 DUP5 AND ISZERO PUSH2 0x8AA JUMPI DUP2 AND ISZERO PUSH2 0x891 JUMPI PUSH2 0x88F SWAP3 PUSH2 0x8C3 JUMP JUMPDEST JUMP JUMPDEST PUSH1 0x40 MLOAD PUSH4 0xEC442F05 PUSH1 0xE0 SHL DUP2 MSTORE PUSH1 0x0 PUSH1 0x4 DUP3 ADD MSTORE PUSH1 0x24 SWAP1 REVERT JUMPDEST PUSH1 0x40 MLOAD PUSH4 0x4B637E8F PUSH1 0xE1 SHL DUP2 MSTORE PUSH1 0x0 PUSH1 0x4 DUP3 ADD MSTORE PUSH1 0x24 SWAP1 REVERT JUMPDEST SWAP2 SWAP1 DUP2 ISZERO PUSH2 0x9CD JUMPI PUSH1 0x7 SLOAD PUSH1 0x1 PUSH1 0x1 PUSH1 0xA0 SHL SUB SWAP1 PUSH2 0xFFFF SWAP1 DUP3 DUP2 AND DUP1 ISZERO ISZERO SWAP2 SWAP1 DUP3 SWAP1 DUP2 PUSH2 0x9C1 JUMPI JUMPDEST DUP4 PUSH2 0x9B5 JUMPI JUMPDEST DUP2 PUSH2 0x9A9 JUMPI JUMPDEST POP DUP1 PUSH2 0x99E JUMPI JUMPDEST PUSH1 0x0 SWAP3 ISZERO PUSH2 0x986 JUMPI POP DUP3 SWAP2 POP PUSH1 0xA0 SHR AND JUMPDEST AND DUP1 PUSH2 0x921 JUMPI JUMPDEST POP POP PUSH2 0x88F SWAP3 PUSH2 0x9D2 JUMP JUMPDEST DUP1 DUP5 MUL SWAP1 DUP5 DUP3 DIV SUB PUSH2 0x964 JUMPI PUSH2 0x2710 SWAP1 DIV SWAP1 DUP2 ISZERO PUSH2 0x916 JUMPI DUP2 DUP2 PUSH2 0x952 SWAP3 PUSH1 0x6 SLOAD AND SWAP1 DUP2 ISZERO PUSH2 0x97A JUMPI JUMPDEST POP DUP7 PUSH2 0x9D2 JUMP JUMPDEST DUP3 SUB SWAP2 DUP3 GT PUSH2 0x964 JUMPI PUSH2 0x88F SWAP3 PUSH2 0x9D2 JUMP JUMPDEST PUSH4 0x4E487B71 PUSH1 0xE0 SHL PUSH1 0x0 MSTORE PUSH1 0x11 PUSH1 0x4 MSTORE PUSH1 0x24 PUSH1 0x0 REVERT JUMPDEST SWAP1 POP PUSH1 0x5 SLOAD AND CODESIZE PUSH2 0x94B JUMP JUMPDEST PUSH2 0x991 JUMPI JUMPDEST POP PUSH2 0x90F JUMP JUMPDEST DUP3 SWAP2 POP PUSH1 0xB0 SHR AND CODESIZE PUSH2 0x98B JUMP JUMPDEST POP DUP4 DUP8 AND ISZERO ISZERO PUSH2 0x8FE JUMP JUMPDEST SWAP1 POP DUP5 DUP7 AND EQ CODESIZE PUSH2 0x8F7 JUMP JUMPDEST DUP7 DUP7 AND ISZERO ISZERO SWAP4 POP PUSH2 0x8F1 JUMP JUMPDEST DUP9 DUP7 AND DUP2 EQ SWAP4 POP PUSH2 0x8EB JUMP JUMPDEST PUSH2 0x88F SWAP3 JUMPDEST PUSH1 0x1 PUSH1 0x1 PUSH1 0xA0 SHL SUB DUP1 DUP3 AND SWAP3 SWAP1 SWAP2 DUP4 PUSH2 0xA4F JUMPI POP SWAP1 PUSH1 0x2 SLOAD SWAP1 DUP5 DUP3 ADD DUP1 SWAP3 GT PUSH2 0x964 JUMPI PUSH32 0xDDF252AD1BE2C89B69C2B068FC378DAA952BA7F163C4A11628F55A4DF523B3EF SWAP3 PUSH1 0x20 SWAP3 PUSH1 0x2 SSTORE JUMPDEST AND SWAP4 DUP5 PUSH2 0xA37 JUMPI DUP1 PUSH1 0x2 SLOAD SUB PUSH1 0x2 SSTORE JUMPDEST PUSH1 0x40 MLOAD SWAP1 DUP2 MSTORE LOG3 JUMP JUMPDEST DUP5 PUSH1 0x0 MSTORE PUSH1 0x0 DUP3 MSTORE PUSH1 0x40 PUSH1 0x0 KECCAK256 DUP2 DUP2 SLOAD ADD SWAP1 SSTORE PUSH2 0xA2E JUMP JUMPDEST PUSH1 0x0 SWAP1 DUP5 DUP3 MSTORE DUP2 PUSH1 0x20 MSTORE PUSH1 0x40 DUP3 KECCAK256 SLOAD SWAP1 DUP7 DUP3 LT PUSH2 0xAA0 JUMPI POP SWAP2 DUP2 PUSH1 0x40 DUP8 PUSH1 0x20 SWAP6 DUP9 PUSH32 0xDDF252AD1BE2C89B69C2B068FC378DAA952BA7F163C4A11628F55A4DF523B3EF SWAP9 SWAP7 MSTORE DUP4 DUP8 MSTORE SUB SWAP2 KECCAK256 SSTORE PUSH2 0xA1E JUMP JUMPDEST PUSH1 0x40 MLOAD PUSH4 0x391434E3 PUSH1 0xE2 SHL DUP2 MSTORE PUSH1 0x1 PUSH1 0x1 PUSH1 0xA0 SHL SUB SWAP2 SWAP1 SWAP2 AND PUSH1 0x4 DUP3 ADD MSTORE PUSH1 0x24 DUP2 ADD SWAP2 SWAP1 SWAP2 MSTORE PUSH1 0x44 DUP2 ADD DUP7 SWAP1 MSTORE PUSH1 0x64 SWAP1 REVERT INVALID LOG2 PUSH5 0x6970667358 0x22 SLT KECCAK256 0xF8 0x2A 0xE4 GASPRICE PUSH28 0xEF6118C43144BACD933EF0E5FFE09B851543C830F2584BDB0439A764 PUSH20 0x6F6C63430008140033A2646970667358221220C2 0xC3 SWAP13 0xE8 0xBD PUSH12 0xF26BC52A62B22AF039C2E0EB 0xE DUP4 0xB7 0x24 0x2B DELEGATECALL LOG2 SWAP8 STATICCALL 0x26 0xED 0xBA CREATE 0xDD PUSH5 0x736F6C6343 STOP ADDMOD EQ STOP CALLER "},"methodIdentifiers":{"basicFeeWei()":"308cc33d","createToken((string,string,uint256,address,(uint16,uint16,uint16,uint16,uint16,uint16),(uint256,uint256,bool,uint256,uint256)))":"b93c95f3","createTokenWithDistribution((string,string,uint256,address,(uint16,uint16,uint16,uint16,uint16,uint16),(uint256,uint256,bool,uint256,uint256)),address[],uint256[])":"d9a3c821","createTokenWithDistributionAndVesting((string,string,uint256,address,(uint16,uint16,uint16,uint16,uint16,uint16),(uint256,uint256,bool,uint256,uint256)),address[],uint256[],(address,uint64,uint64,uint64,uint256)[])":"3cb35165","distributionFeeWei()":"79046732","owner()":"8da5cb5b","setFeesWei(uint256,uint256,uint256)":"3db315ba","transferOwnership(address)":"f2fde38b","vestingFeeWei()":"c48b374d","vestingImplementation()":"8882a2f6","withdrawFees(address,uint256)":"ad3b1b47"}}}}}