{"contracts/launch/SafeLaunchToken.sol":{"SafeLaunchToken":{"abi":[{"inputs":[{"internalType":"address","name":"initialOwner_","type":"address"},{"internalType":"string","name":"name_","type":"string"},{"internalType":"string","name":"symbol_","type":"string"},{"internalType":"uint256","name":"supplyRaw_","type":"uint256"},{"internalType":"address","name":"marketingWallet_","type":"address"},{"internalType":"uint16","name":"buyFeeBps_","type":"uint16"},{"internalType":"uint16","name":"sellFeeBps_","type":"uint16"}],"stateMutability":"nonpayable","type":"constructor"},{"inputs":[{"internalType":"address","name":"spender","type":"address"},{"internalType":"uint256","name":"allowance","type":"uint256"},{"internalType":"uint256","name":"needed","type":"uint256"}],"name":"ERC20InsufficientAllowance","type":"error"},{"inputs":[{"internalType":"address","name":"sender","type":"address"},{"internalType":"uint256","name":"balance","type":"uint256"},{"internalType":"uint256","name":"needed","type":"uint256"}],"name":"ERC20InsufficientBalance","type":"error"},{"inputs":[{"internalType":"address","name":"approver","type":"address"}],"name":"ERC20InvalidApprover","type":"error"},{"inputs":[{"internalType":"address","name":"receiver","type":"address"}],"name":"ERC20InvalidReceiver","type":"error"},{"inputs":[{"internalType":"address","name":"sender","type":"address"}],"name":"ERC20InvalidSender","type":"error"},{"inputs":[{"internalType":"address","name":"spender","type":"address"}],"name":"ERC20InvalidSpender","type":"error"},{"inputs":[{"internalType":"address","name":"owner","type":"address"}],"name":"OwnableInvalidOwner","type":"error"},{"inputs":[{"internalType":"address","name":"account","type":"address"}],"name":"OwnableUnauthorizedAccount","type":"error"},{"anonymous":false,"inputs":[{"indexed":true,"internalType":"address","name":"owner","type":"address"},{"indexed":true,"internalType":"address","name":"spender","type":"address"},{"indexed":false,"internalType":"uint256","name":"value","type":"uint256"}],"name":"Approval","type":"event"},{"anonymous":false,"inputs":[{"indexed":true,"internalType":"address","name":"previousOwner","type":"address"},{"indexed":true,"internalType":"address","name":"newOwner","type":"address"}],"name":"OwnershipTransferred","type":"event"},{"anonymous":false,"inputs":[{"indexed":true,"internalType":"address","name":"pair","type":"address"}],"name":"PairSet","type":"event"},{"anonymous":false,"inputs":[{"indexed":true,"internalType":"address","name":"from","type":"address"},{"indexed":true,"internalType":"address","name":"to","type":"address"},{"indexed":false,"internalType":"uint256","name":"value","type":"uint256"}],"name":"Transfer","type":"event"},{"inputs":[{"internalType":"address","name":"owner","type":"address"},{"internalType":"address","name":"spender","type":"address"}],"name":"allowance","outputs":[{"internalType":"uint256","name":"","type":"uint256"}],"stateMutability":"view","type":"function"},{"inputs":[{"internalType":"address","name":"spender","type":"address"},{"internalType":"uint256","name":"value","type":"uint256"}],"name":"approve","outputs":[{"internalType":"bool","name":"","type":"bool"}],"stateMutability":"nonpayable","type":"function"},{"inputs":[{"internalType":"address","name":"account","type":"address"}],"name":"balanceOf","outputs":[{"internalType":"uint256","name":"","type":"uint256"}],"stateMutability":"view","type":"function"},{"inputs":[],"name":"buyFeeBps","outputs":[{"internalType":"uint16","name":"","type":"uint16"}],"stateMutability":"view","type":"function"},{"inputs":[],"name":"decimals","outputs":[{"internalType":"uint8","name":"","type":"uint8"}],"stateMutability":"view","type":"function"},{"inputs":[],"name":"feesLocked","outputs":[{"internalType":"bool","name":"","type":"bool"}],"stateMutability":"view","type":"function"},{"inputs":[],"name":"marketingWallet","outputs":[{"internalType":"address","name":"","type":"address"}],"stateMutability":"view","type":"function"},{"inputs":[],"name":"name","outputs":[{"internalType":"string","name":"","type":"string"}],"stateMutability":"view","type":"function"},{"inputs":[],"name":"owner","outputs":[{"internalType":"address","name":"","type":"address"}],"stateMutability":"view","type":"function"},{"inputs":[],"name":"renounceOwnership","outputs":[],"stateMutability":"nonpayable","type":"function"},{"inputs":[],"name":"sellFeeBps","outputs":[{"internalType":"uint16","name":"","type":"uint16"}],"stateMutability":"view","type":"function"},{"inputs":[{"internalType":"address","name":"pair_","type":"address"}],"name":"setPair","outputs":[],"stateMutability":"nonpayable","type":"function"},{"inputs":[],"name":"symbol","outputs":[{"internalType":"string","name":"","type":"string"}],"stateMutability":"view","type":"function"},{"inputs":[],"name":"totalSupply","outputs":[{"internalType":"uint256","name":"","type":"uint256"}],"stateMutability":"view","type":"function"},{"inputs":[{"internalType":"address","name":"to","type":"address"},{"internalType":"uint256","name":"value","type":"uint256"}],"name":"transfer","outputs":[{"internalType":"bool","name":"","type":"bool"}],"stateMutability":"nonpayable","type":"function"},{"inputs":[{"internalType":"address","name":"from","type":"address"},{"internalType":"address","name":"to","type":"address"},{"internalType":"uint256","name":"value","type":"uint256"}],"name":"transferFrom","outputs":[{"internalType":"bool","name":"","type":"bool"}],"stateMutability":"nonpayable","type":"function"},{"inputs":[{"internalType":"address","name":"newOwner","type":"address"}],"name":"transferOwnership","outputs":[],"stateMutability":"nonpayable","type":"function"},{"inputs":[],"name":"uniswapV2Pair","outputs":[{"internalType":"address","name":"","type":"address"}],"stateMutability":"view","type":"function"}],"evm":{"bytecode":{"linkReferences":{},"object":"60406080815234620004d0576200123490813803806200001f81620004d5565b938439820160e083820312620004d0576200003a83620004fb565b6020848101519094906001600160401b0390818111620004d057846200006291840162000510565b938583015190828211620004d0576200007d91840162000510565b956060830151946200009260808501620004fb565b90620000af60c0620000a760a0880162000582565b960162000582565b938151818111620003d0576003908154906001948583811c93168015620004c5575b88841014620004af578190601f9384811162000459575b508890848311600114620003f257600092620003e6575b505060001982851b1c191690851b1782555b8b51928311620003d05760049b8c548581811c91168015620003c5575b88821014620003b05782811162000365575b5086918411600114620002fa57938394918492600095620002ee575b50501b92600019911b1c19161788555b6001600160a01b03858116929091908315620002d757600580546001600160a01b031980821687179092558a5191959085167f8be0079c531659141344cd1fd0a4f28419497f9722a3daafe3b4186f6b6457e0600080a38815620002ad57506107d061ffff81818916116200027a578616116200024757509697506200023196808216156200023f575b169060065416176006556007549061ffff60b01b9060b01b169161ffff60a01b9060a01b169063ffffffff60a01b1916171760075562000592565b51610b0890816200072c8239f35b5084620001f6565b896064918a519162461bcd60e51b8352820152600e60248201526d73656c6c20666565203e2032302560901b6044820152fd5b8a5162461bcd60e51b8152808d01849052600d60248201526c62757920666565203e2032302560981b6044820152606490fd5b6064918b62461bcd60e51b835282015260086024820152670737570706c793d360c41b6044820152fd5b8851631e4fbdf760e01b81526000818c0152602490fd5b0151935038806200015c565b9190601f198416928d60005284886000209460005b8a898383106200034d575050501062000332575b50505050811b0188556200016c565b01519060f884600019921b161c191690553880808062000323565b8686015189559097019694850194889350016200030f565b8d600052876000208380870160051c8201928a8810620003a6575b0160051c019086905b8281106200039957505062000140565b6000815501869062000389565b9250819262000380565b60228e634e487b7160e01b6000525260246000fd5b90607f16906200012e565b634e487b7160e01b600052604160045260246000fd5b015190503880620000ff565b90879350601f19831691866000528a6000209260005b8c82821062000442575050841162000429575b505050811b01825562000111565b015160001983871b60f8161c191690553880806200041b565b8385015186558b9790950194938401930162000408565b90915084600052886000208480850160051c8201928b8610620004a5575b918991869594930160051c01915b82811062000495575050620000e8565b6000815585945089910162000485565b9250819262000477565b634e487b7160e01b600052602260045260246000fd5b92607f1692620000d1565b600080fd5b6040519190601f01601f191682016001600160401b03811183821017620003d057604052565b51906001600160a01b0382168203620004d057565b919080601f84011215620004d05782516001600160401b038111620003d05760209062000546601f8201601f19168301620004d5565b92818452828287010111620004d05760005b8181106200056e57508260009394955001015290565b858101830151848201840152820162000558565b519061ffff82168203620004d057565b908015620006b0576007546001600160a01b039061ffff90828116801580159291839182620006a7575b50836200069a575b816200068d575b508062000684575b6000921562000669575082915060a01c165b1680620005fc575b5050620005fa91620006b6565b565b808302908382040362000646576127109004908115620005ed5781816200063192600654169081156200065c575b50620006b6565b81039081116200064657620005fa91620006b6565b634e487b7160e01b600052601160045260246000fd5b905060055416386200062a565b62000676575b50620005e5565b82915060b01c16386200066f565b506000620005d3565b90508487161438620005cb565b87861615159350620005c4565b935038620005bc565b620005fa915b6002549082820180921162000646576002919091556001600160a01b0316906000907fddf252ad1be2c89b69c2b068fc378daa952ba7f163c4a11628f55a4df523b3ef9060209084620007155780600254036002555b604051908152a3565b848452838252604084208181540190556200070c56fe6080604081815260048036101561001557600080fd5b600092833560e01c90816306fdde03146106d257508063095ea7b31461062957806318160ddd1461060a57806323b872dd1461051757806323cbe1f3146104f1578063313ce567146104d557806349bd5a5e146104ac5780635a27a1f91461049057806370a0823114610459578063715018a6146103fc57806375f0a874146103d357806377d2300e146103ad5780638187f516146103425780638da5cb5b1461031957806395d89b41146101f9578063a9059cbb146101c8578063dd62ed3e1461017b5763f2fde38b146100e957600080fd5b3461017757602036600319011261017757610102610810565b9061010b610841565b6001600160a01b03918216928315610161575050600554826bffffffffffffffffffffffff60a01b821617600555167f8be0079c531659141344cd1fd0a4f28419497f9722a3daafe3b4186f6b6457e08380a380f35b51631e4fbdf760e01b8152908101849052602490fd5b8280fd5b5050346101c457806003193601126101c45780602092610199610810565b6101a161082b565b6001600160a01b0391821683526001865283832091168252845220549051908152f35b5080fd5b5050346101c457806003193601126101c4576020906101f26101e8610810565b602435903361086d565b5160018152f35b509190346101c457816003193601126101c457805190828454600181811c9080831692831561030f575b60209384841081146102fc578388529081156102e0575060011461028b575b505050829003601f01601f191682019267ffffffffffffffff84118385101761027857508291826102749252826107c7565b0390f35b634e487b7160e01b815260418552602490fd5b8787529192508591837f8a35acfbc15ff81a39ae7d344fd709f28e8600b4aa8c65c6b64bfe7fe36bd19b5b8385106102cc5750505050830101388080610242565b8054888601830152930192849082016102b6565b60ff1916878501525050151560051b8401019050388080610242565b634e487b7160e01b895260228a52602489fd5b91607f1691610223565b5050346101c457816003193601126101c45760055490516001600160a01b039091168152602090f35b83346103aa5760203660031901126103aa5761035c610810565b610364610841565b600780546001600160a01b0319166001600160a01b039290921691821790557fc4a4ea6abc08bd7f8df3db8a1c998f19b3e0c348176f93732cd54db1a4b501368280a280f35b80fd5b5050346101c457816003193601126101c45760209061ffff60075460a01c169051908152f35b5050346101c457816003193601126101c45760065490516001600160a01b039091168152602090f35b83346103aa57806003193601126103aa57610415610841565b600580546001600160a01b0319811690915581906001600160a01b03167f8be0079c531659141344cd1fd0a4f28419497f9722a3daafe3b4186f6b6457e08280a380f35b5050346101c45760203660031901126101c45760209181906001600160a01b03610481610810565b16815280845220549051908152f35b5050346101c457816003193601126101c4576020905160018152f35b5050346101c457816003193601126101c45760075490516001600160a01b039091168152602090f35b5050346101c457816003193601126101c4576020905160128152f35b5050346101c457816003193601126101c45760209061ffff60075460b01c169051908152f35b5082346103aa5760603660031901126103aa57610532610810565b61053a61082b565b916044359360018060a01b038316808352600160205286832033845260205286832054916000198310610576575b6020886101f289898961086d565b8683106105de5781156105c75733156105b0575082526001602090815286832033845281529186902090859003905582906101f287610568565b8751634a1406b160e11b8152908101849052602490fd5b875163e602df0560e01b8152908101849052602490fd5b8751637dc7a0d960e11b8152339181019182526020820193909352604081018790528291506060010390fd5b5050346101c457816003193601126101c4576020906002549051908152f35b5034610177578160031936011261017757610642610810565b6024359033156106bb576001600160a01b03169182156106a457508083602095338152600187528181208582528752205582519081527f8c5be1e5ebec7d5bd14f71427d1e84f3dd0314c0f7b2291e5b200ac8c7c3b925843392a35160018152f35b8351634a1406b160e11b8152908101859052602490fd5b835163e602df0560e01b8152808401869052602490fd5b849150833461017757826003193601126101775782600354600181811c908083169283156107bd575b60209384841081146102fc578388529081156107a1575060011461074b57505050829003601f01601f191682019267ffffffffffffffff84118385101761027857508291826102749252826107c7565b600387529192508591837fc2575a0e9e593c00f959f8c92f12db2869c3395a3b0502d05e2516446f71f85b5b83851061078d5750505050830101858080610242565b805488860183015293019284908201610777565b60ff1916878501525050151560051b8401019050858080610242565b91607f16916106fb565b6020808252825181830181905290939260005b8281106107fc57505060409293506000838284010152601f8019910116010190565b8181018601518482016040015285016107da565b600435906001600160a01b038216820361082657565b600080fd5b602435906001600160a01b038216820361082657565b6005546001600160a01b0316330361085557565b60405163118cdaa760e01b8152336004820152602490fd5b91906001600160a01b03808416156108aa578116156108915761088f926108c3565b565b60405163ec442f0560e01b815260006004820152602490fd5b604051634b637e8f60e11b815260006004820152602490fd5b919081156109cd576007546001600160a01b039061ffff9082811680151591908290816109c1575b836109b5575b816109a9575b508061099e575b60009215610986575082915060a01c165b1680610921575b505061088f926109d2565b8084029084820403610964576127109004908115610916578181610952926006541690811561097a575b50866109d2565b82039182116109645761088f926109d2565b634e487b7160e01b600052601160045260246000fd5b9050600554163861094b565b610991575b5061090f565b82915060b01c163861098b565b5083871615156108fe565b905084861614386108f7565b868616151593506108f1565b888616811493506108eb565b61088f925b6001600160a01b0380821692909183610a4f57509060025490848201809211610964577fddf252ad1be2c89b69c2b068fc378daa952ba7f163c4a11628f55a4df523b3ef926020926002555b169384610a375780600254036002555b604051908152a3565b84600052600082526040600020818154019055610a2e565b60009084825281602052604082205490868210610aa057509181604087602095887fddf252ad1be2c89b69c2b068fc378daa952ba7f163c4a11628f55a4df523b3ef98965283875203912055610a1e565b60405163391434e360e21b81526001600160a01b03919091166004820152602481019190915260448101869052606490fdfea2646970667358221220f82ae43a7bef6118c43144bacd933ef0e5ffe09b851543c830f2584bdb0439a764736f6c63430008140033","opcodes":"PUSH1 0x40 PUSH1 0x80 DUP2 MSTORE CALLVALUE PUSH3 0x4D0 JUMPI PUSH3 0x1234 SWAP1 DUP2 CODESIZE SUB DUP1 PUSH3 0x1F DUP2 PUSH3 0x4D5 JUMP JUMPDEST SWAP4 DUP5 CODECOPY DUP3 ADD PUSH1 0xE0 DUP4 DUP3 SUB SLT PUSH3 0x4D0 JUMPI PUSH3 0x3A DUP4 PUSH3 0x4FB JUMP JUMPDEST PUSH1 0x20 DUP5 DUP2 ADD MLOAD SWAP1 SWAP5 SWAP1 PUSH1 0x1 PUSH1 0x1 PUSH1 0x40 SHL SUB SWAP1 DUP2 DUP2 GT PUSH3 0x4D0 JUMPI DUP5 PUSH3 0x62 SWAP2 DUP5 ADD PUSH3 0x510 JUMP JUMPDEST SWAP4 DUP6 DUP4 ADD MLOAD SWAP1 DUP3 DUP3 GT PUSH3 0x4D0 JUMPI PUSH3 0x7D SWAP2 DUP5 ADD PUSH3 0x510 JUMP JUMPDEST SWAP6 PUSH1 0x60 DUP4 ADD MLOAD SWAP5 PUSH3 0x92 PUSH1 0x80 DUP6 ADD PUSH3 0x4FB JUMP JUMPDEST SWAP1 PUSH3 0xAF PUSH1 0xC0 PUSH3 0xA7 PUSH1 0xA0 DUP9 ADD PUSH3 0x582 JUMP JUMPDEST SWAP7 ADD PUSH3 0x582 JUMP JUMPDEST SWAP4 DUP2 MLOAD DUP2 DUP2 GT PUSH3 0x3D0 JUMPI PUSH1 0x3 SWAP1 DUP2 SLOAD SWAP1 PUSH1 0x1 SWAP5 DUP6 DUP4 DUP2 SHR SWAP4 AND DUP1 ISZERO PUSH3 0x4C5 JUMPI JUMPDEST DUP9 DUP5 LT EQ PUSH3 0x4AF JUMPI DUP2 SWAP1 PUSH1 0x1F SWAP4 DUP5 DUP2 GT PUSH3 0x459 JUMPI JUMPDEST POP DUP9 SWAP1 DUP5 DUP4 GT PUSH1 0x1 EQ PUSH3 0x3F2 JUMPI PUSH1 0x0 SWAP3 PUSH3 0x3E6 JUMPI JUMPDEST POP POP PUSH1 0x0 NOT DUP3 DUP6 SHL SHR NOT AND SWAP1 DUP6 SHL OR DUP3 SSTORE JUMPDEST DUP12 MLOAD SWAP3 DUP4 GT PUSH3 0x3D0 JUMPI PUSH1 0x4 SWAP12 DUP13 SLOAD DUP6 DUP2 DUP2 SHR SWAP2 AND DUP1 ISZERO PUSH3 0x3C5 JUMPI JUMPDEST DUP9 DUP3 LT EQ PUSH3 0x3B0 JUMPI DUP3 DUP2 GT PUSH3 0x365 JUMPI JUMPDEST POP DUP7 SWAP2 DUP5 GT PUSH1 0x1 EQ PUSH3 0x2FA JUMPI SWAP4 DUP4 SWAP5 SWAP2 DUP5 SWAP3 PUSH1 0x0 SWAP6 PUSH3 0x2EE JUMPI JUMPDEST POP POP SHL SWAP3 PUSH1 0x0 NOT SWAP2 SHL SHR NOT AND OR DUP9 SSTORE JUMPDEST PUSH1 0x1 PUSH1 0x1 PUSH1 0xA0 SHL SUB DUP6 DUP2 AND SWAP3 SWAP1 SWAP2 SWAP1 DUP4 ISZERO PUSH3 0x2D7 JUMPI PUSH1 0x5 DUP1 SLOAD PUSH1 0x1 PUSH1 0x1 PUSH1 0xA0 SHL SUB NOT DUP1 DUP3 AND DUP8 OR SWAP1 SWAP3 SSTORE DUP11 MLOAD SWAP2 SWAP6 SWAP1 DUP6 AND PUSH32 0x8BE0079C531659141344CD1FD0A4F28419497F9722A3DAAFE3B4186F6B6457E0 PUSH1 0x0 DUP1 LOG3 DUP9 ISZERO PUSH3 0x2AD JUMPI POP PUSH2 0x7D0 PUSH2 0xFFFF DUP2 DUP2 DUP10 AND GT PUSH3 0x27A JUMPI DUP7 AND GT PUSH3 0x247 JUMPI POP SWAP7 SWAP8 POP PUSH3 0x231 SWAP7 DUP1 DUP3 AND ISZERO PUSH3 0x23F JUMPI JUMPDEST AND SWAP1 PUSH1 0x6 SLOAD AND OR PUSH1 0x6 SSTORE PUSH1 0x7 SLOAD SWAP1 PUSH2 0xFFFF PUSH1 0xB0 SHL SWAP1 PUSH1 0xB0 SHL AND SWAP2 PUSH2 0xFFFF PUSH1 0xA0 SHL SWAP1 PUSH1 0xA0 SHL AND SWAP1 PUSH4 0xFFFFFFFF PUSH1 0xA0 SHL NOT AND OR OR PUSH1 0x7 SSTORE PUSH3 0x592 JUMP JUMPDEST MLOAD PUSH2 0xB08 SWAP1 DUP2 PUSH3 0x72C DUP3 CODECOPY RETURN JUMPDEST POP DUP5 PUSH3 0x1F6 JUMP JUMPDEST DUP10 PUSH1 0x64 SWAP2 DUP11 MLOAD SWAP2 PUSH3 0x461BCD PUSH1 0xE5 SHL DUP4 MSTORE DUP3 ADD MSTORE PUSH1 0xE PUSH1 0x24 DUP3 ADD MSTORE PUSH14 0x73656C6C20666565203E20323025 PUSH1 0x90 SHL PUSH1 0x44 DUP3 ADD MSTORE REVERT JUMPDEST DUP11 MLOAD PUSH3 0x461BCD PUSH1 0xE5 SHL DUP2 MSTORE DUP1 DUP14 ADD DUP5 SWAP1 MSTORE PUSH1 0xD PUSH1 0x24 DUP3 ADD MSTORE PUSH13 0x62757920666565203E20323025 PUSH1 0x98 SHL PUSH1 0x44 DUP3 ADD MSTORE PUSH1 0x64 SWAP1 REVERT JUMPDEST PUSH1 0x64 SWAP2 DUP12 PUSH3 0x461BCD PUSH1 0xE5 SHL DUP4 MSTORE DUP3 ADD MSTORE PUSH1 0x8 PUSH1 0x24 DUP3 ADD MSTORE PUSH8 0x737570706C793D3 PUSH1 0xC4 SHL PUSH1 0x44 DUP3 ADD MSTORE REVERT JUMPDEST DUP9 MLOAD PUSH4 0x1E4FBDF7 PUSH1 0xE0 SHL DUP2 MSTORE PUSH1 0x0 DUP2 DUP13 ADD MSTORE PUSH1 0x24 SWAP1 REVERT JUMPDEST ADD MLOAD SWAP4 POP CODESIZE DUP1 PUSH3 0x15C JUMP JUMPDEST SWAP2 SWAP1 PUSH1 0x1F NOT DUP5 AND SWAP3 DUP14 PUSH1 0x0 MSTORE DUP5 DUP9 PUSH1 0x0 KECCAK256 SWAP5 PUSH1 0x0 JUMPDEST DUP11 DUP10 DUP4 DUP4 LT PUSH3 0x34D JUMPI POP POP POP LT PUSH3 0x332 JUMPI JUMPDEST POP POP POP POP DUP2 SHL ADD DUP9 SSTORE PUSH3 0x16C JUMP JUMPDEST ADD MLOAD SWAP1 PUSH1 0xF8 DUP5 PUSH1 0x0 NOT SWAP3 SHL AND SHR NOT AND SWAP1 SSTORE CODESIZE DUP1 DUP1 DUP1 PUSH3 0x323 JUMP JUMPDEST DUP7 DUP7 ADD MLOAD DUP10 SSTORE SWAP1 SWAP8 ADD SWAP7 SWAP5 DUP6 ADD SWAP5 DUP9 SWAP4 POP ADD PUSH3 0x30F JUMP JUMPDEST DUP14 PUSH1 0x0 MSTORE DUP8 PUSH1 0x0 KECCAK256 DUP4 DUP1 DUP8 ADD PUSH1 0x5 SHR DUP3 ADD SWAP3 DUP11 DUP9 LT PUSH3 0x3A6 JUMPI JUMPDEST ADD PUSH1 0x5 SHR ADD SWAP1 DUP7 SWAP1 JUMPDEST DUP3 DUP2 LT PUSH3 0x399 JUMPI POP POP PUSH3 0x140 JUMP JUMPDEST PUSH1 0x0 DUP2 SSTORE ADD DUP7 SWAP1 PUSH3 0x389 JUMP JUMPDEST SWAP3 POP DUP2 SWAP3 PUSH3 0x380 JUMP JUMPDEST PUSH1 0x22 DUP15 PUSH4 0x4E487B71 PUSH1 0xE0 SHL PUSH1 0x0 MSTORE MSTORE PUSH1 0x24 PUSH1 0x0 REVERT JUMPDEST SWAP1 PUSH1 0x7F AND SWAP1 PUSH3 0x12E JUMP JUMPDEST PUSH4 0x4E487B71 PUSH1 0xE0 SHL PUSH1 0x0 MSTORE PUSH1 0x41 PUSH1 0x4 MSTORE PUSH1 0x24 PUSH1 0x0 REVERT JUMPDEST ADD MLOAD SWAP1 POP CODESIZE DUP1 PUSH3 0xFF JUMP JUMPDEST SWAP1 DUP8 SWAP4 POP PUSH1 0x1F NOT DUP4 AND SWAP2 DUP7 PUSH1 0x0 MSTORE DUP11 PUSH1 0x0 KECCAK256 SWAP3 PUSH1 0x0 JUMPDEST DUP13 DUP3 DUP3 LT PUSH3 0x442 JUMPI POP POP DUP5 GT PUSH3 0x429 JUMPI JUMPDEST POP POP POP DUP2 SHL ADD DUP3 SSTORE PUSH3 0x111 JUMP JUMPDEST ADD MLOAD PUSH1 0x0 NOT DUP4 DUP8 SHL PUSH1 0xF8 AND SHR NOT AND SWAP1 SSTORE CODESIZE DUP1 DUP1 PUSH3 0x41B JUMP JUMPDEST DUP4 DUP6 ADD MLOAD DUP7 SSTORE DUP12 SWAP8 SWAP1 SWAP6 ADD SWAP5 SWAP4 DUP5 ADD SWAP4 ADD PUSH3 0x408 JUMP JUMPDEST SWAP1 SWAP2 POP DUP5 PUSH1 0x0 MSTORE DUP9 PUSH1 0x0 KECCAK256 DUP5 DUP1 DUP6 ADD PUSH1 0x5 SHR DUP3 ADD SWAP3 DUP12 DUP7 LT PUSH3 0x4A5 JUMPI JUMPDEST SWAP2 DUP10 SWAP2 DUP7 SWAP6 SWAP5 SWAP4 ADD PUSH1 0x5 SHR ADD SWAP2 JUMPDEST DUP3 DUP2 LT PUSH3 0x495 JUMPI POP POP PUSH3 0xE8 JUMP JUMPDEST PUSH1 0x0 DUP2 SSTORE DUP6 SWAP5 POP DUP10 SWAP2 ADD PUSH3 0x485 JUMP JUMPDEST SWAP3 POP DUP2 SWAP3 PUSH3 0x477 JUMP JUMPDEST PUSH4 0x4E487B71 PUSH1 0xE0 SHL PUSH1 0x0 MSTORE PUSH1 0x22 PUSH1 0x4 MSTORE PUSH1 0x24 PUSH1 0x0 REVERT JUMPDEST SWAP3 PUSH1 0x7F AND SWAP3 PUSH3 0xD1 JUMP JUMPDEST PUSH1 0x0 DUP1 REVERT JUMPDEST PUSH1 0x40 MLOAD SWAP2 SWAP1 PUSH1 0x1F ADD PUSH1 0x1F NOT AND DUP3 ADD PUSH1 0x1 PUSH1 0x1 PUSH1 0x40 SHL SUB DUP2 GT DUP4 DUP3 LT OR PUSH3 0x3D0 JUMPI PUSH1 0x40 MSTORE JUMP JUMPDEST MLOAD SWAP1 PUSH1 0x1 PUSH1 0x1 PUSH1 0xA0 SHL SUB DUP3 AND DUP3 SUB PUSH3 0x4D0 JUMPI JUMP JUMPDEST SWAP2 SWAP1 DUP1 PUSH1 0x1F DUP5 ADD SLT ISZERO PUSH3 0x4D0 JUMPI DUP3 MLOAD PUSH1 0x1 PUSH1 0x1 PUSH1 0x40 SHL SUB DUP2 GT PUSH3 0x3D0 JUMPI PUSH1 0x20 SWAP1 PUSH3 0x546 PUSH1 0x1F DUP3 ADD PUSH1 0x1F NOT AND DUP4 ADD PUSH3 0x4D5 JUMP JUMPDEST SWAP3 DUP2 DUP5 MSTORE DUP3 DUP3 DUP8 ADD ADD GT PUSH3 0x4D0 JUMPI PUSH1 0x0 JUMPDEST DUP2 DUP2 LT PUSH3 0x56E JUMPI POP DUP3 PUSH1 0x0 SWAP4 SWAP5 SWAP6 POP ADD ADD MSTORE SWAP1 JUMP JUMPDEST DUP6 DUP2 ADD DUP4 ADD MLOAD DUP5 DUP3 ADD DUP5 ADD MSTORE DUP3 ADD PUSH3 0x558 JUMP JUMPDEST MLOAD SWAP1 PUSH2 0xFFFF DUP3 AND DUP3 SUB PUSH3 0x4D0 JUMPI JUMP JUMPDEST SWAP1 DUP1 ISZERO PUSH3 0x6B0 JUMPI PUSH1 0x7 SLOAD PUSH1 0x1 PUSH1 0x1 PUSH1 0xA0 SHL SUB SWAP1 PUSH2 0xFFFF SWAP1 DUP3 DUP2 AND DUP1 ISZERO DUP1 ISZERO SWAP3 SWAP2 DUP4 SWAP2 DUP3 PUSH3 0x6A7 JUMPI JUMPDEST POP DUP4 PUSH3 0x69A JUMPI JUMPDEST DUP2 PUSH3 0x68D JUMPI JUMPDEST POP DUP1 PUSH3 0x684 JUMPI JUMPDEST PUSH1 0x0 SWAP3 ISZERO PUSH3 0x669 JUMPI POP DUP3 SWAP2 POP PUSH1 0xA0 SHR AND JUMPDEST AND DUP1 PUSH3 0x5FC JUMPI JUMPDEST POP POP PUSH3 0x5FA SWAP2 PUSH3 0x6B6 JUMP JUMPDEST JUMP JUMPDEST DUP1 DUP4 MUL SWAP1 DUP4 DUP3 DIV SUB PUSH3 0x646 JUMPI PUSH2 0x2710 SWAP1 DIV SWAP1 DUP2 ISZERO PUSH3 0x5ED JUMPI DUP2 DUP2 PUSH3 0x631 SWAP3 PUSH1 0x6 SLOAD AND SWAP1 DUP2 ISZERO PUSH3 0x65C JUMPI JUMPDEST POP PUSH3 0x6B6 JUMP JUMPDEST DUP2 SUB SWAP1 DUP2 GT PUSH3 0x646 JUMPI PUSH3 0x5FA SWAP2 PUSH3 0x6B6 JUMP JUMPDEST PUSH4 0x4E487B71 PUSH1 0xE0 SHL PUSH1 0x0 MSTORE PUSH1 0x11 PUSH1 0x4 MSTORE PUSH1 0x24 PUSH1 0x0 REVERT JUMPDEST SWAP1 POP PUSH1 0x5 SLOAD AND CODESIZE PUSH3 0x62A JUMP JUMPDEST PUSH3 0x676 JUMPI JUMPDEST POP PUSH3 0x5E5 JUMP JUMPDEST DUP3 SWAP2 POP PUSH1 0xB0 SHR AND CODESIZE PUSH3 0x66F JUMP JUMPDEST POP PUSH1 0x0 PUSH3 0x5D3 JUMP JUMPDEST SWAP1 POP DUP5 DUP8 AND EQ CODESIZE PUSH3 0x5CB JUMP JUMPDEST DUP8 DUP7 AND ISZERO ISZERO SWAP4 POP PUSH3 0x5C4 JUMP JUMPDEST SWAP4 POP CODESIZE PUSH3 0x5BC JUMP JUMPDEST PUSH3 0x5FA SWAP2 JUMPDEST PUSH1 0x2 SLOAD SWAP1 DUP3 DUP3 ADD DUP1 SWAP3 GT PUSH3 0x646 JUMPI PUSH1 0x2 SWAP2 SWAP1 SWAP2 SSTORE PUSH1 0x1 PUSH1 0x1 PUSH1 0xA0 SHL SUB AND SWAP1 PUSH1 0x0 SWAP1 PUSH32 0xDDF252AD1BE2C89B69C2B068FC378DAA952BA7F163C4A11628F55A4DF523B3EF SWAP1 PUSH1 0x20 SWAP1 DUP5 PUSH3 0x715 JUMPI DUP1 PUSH1 0x2 SLOAD SUB PUSH1 0x2 SSTORE JUMPDEST PUSH1 0x40 MLOAD SWAP1 DUP2 MSTORE LOG3 JUMP JUMPDEST DUP5 DUP5 MSTORE DUP4 DUP3 MSTORE PUSH1 0x40 DUP5 KECCAK256 DUP2 DUP2 SLOAD ADD SWAP1 SSTORE PUSH3 0x70C JUMP INVALID PUSH1 0x80 PUSH1 0x40 DUP2 DUP2 MSTORE PUSH1 0x4 DUP1 CALLDATASIZE LT ISZERO PUSH2 0x15 JUMPI PUSH1 0x0 DUP1 REVERT JUMPDEST PUSH1 0x0 SWAP3 DUP4 CALLDATALOAD PUSH1 0xE0 SHR SWAP1 DUP2 PUSH4 0x6FDDE03 EQ PUSH2 0x6D2 JUMPI POP DUP1 PUSH4 0x95EA7B3 EQ PUSH2 0x629 JUMPI DUP1 PUSH4 0x18160DDD EQ PUSH2 0x60A JUMPI DUP1 PUSH4 0x23B872DD EQ PUSH2 0x517 JUMPI DUP1 PUSH4 0x23CBE1F3 EQ PUSH2 0x4F1 JUMPI DUP1 PUSH4 0x313CE567 EQ PUSH2 0x4D5 JUMPI DUP1 PUSH4 0x49BD5A5E EQ PUSH2 0x4AC JUMPI DUP1 PUSH4 0x5A27A1F9 EQ PUSH2 0x490 JUMPI DUP1 PUSH4 0x70A08231 EQ PUSH2 0x459 JUMPI DUP1 PUSH4 0x715018A6 EQ PUSH2 0x3FC JUMPI DUP1 PUSH4 0x75F0A874 EQ PUSH2 0x3D3 JUMPI DUP1 PUSH4 0x77D2300E EQ PUSH2 0x3AD JUMPI DUP1 PUSH4 0x8187F516 EQ PUSH2 0x342 JUMPI DUP1 PUSH4 0x8DA5CB5B EQ PUSH2 0x319 JUMPI DUP1 PUSH4 0x95D89B41 EQ PUSH2 0x1F9 JUMPI DUP1 PUSH4 0xA9059CBB EQ PUSH2 0x1C8 JUMPI DUP1 PUSH4 0xDD62ED3E EQ PUSH2 0x17B JUMPI PUSH4 0xF2FDE38B EQ PUSH2 0xE9 JUMPI PUSH1 0x0 DUP1 REVERT JUMPDEST CALLVALUE PUSH2 0x177 JUMPI PUSH1 0x20 CALLDATASIZE PUSH1 0x3 NOT ADD SLT PUSH2 0x177 JUMPI PUSH2 0x102 PUSH2 0x810 JUMP JUMPDEST SWAP1 PUSH2 0x10B PUSH2 0x841 JUMP JUMPDEST PUSH1 0x1 PUSH1 0x1 PUSH1 0xA0 SHL SUB SWAP2 DUP3 AND SWAP3 DUP4 ISZERO PUSH2 0x161 JUMPI POP POP PUSH1 0x5 SLOAD DUP3 PUSH12 0xFFFFFFFFFFFFFFFFFFFFFFFF PUSH1 0xA0 SHL DUP3 AND OR PUSH1 0x5 SSTORE AND PUSH32 0x8BE0079C531659141344CD1FD0A4F28419497F9722A3DAAFE3B4186F6B6457E0 DUP4 DUP1 LOG3 DUP1 RETURN JUMPDEST MLOAD PUSH4 0x1E4FBDF7 PUSH1 0xE0 SHL DUP2 MSTORE SWAP1 DUP2 ADD DUP5 SWAP1 MSTORE PUSH1 0x24 SWAP1 REVERT JUMPDEST DUP3 DUP1 REVERT JUMPDEST POP POP CALLVALUE PUSH2 0x1C4 JUMPI DUP1 PUSH1 0x3 NOT CALLDATASIZE ADD SLT PUSH2 0x1C4 JUMPI DUP1 PUSH1 0x20 SWAP3 PUSH2 0x199 PUSH2 0x810 JUMP JUMPDEST PUSH2 0x1A1 PUSH2 0x82B JUMP JUMPDEST PUSH1 0x1 PUSH1 0x1 PUSH1 0xA0 SHL SUB SWAP2 DUP3 AND DUP4 MSTORE PUSH1 0x1 DUP7 MSTORE DUP4 DUP4 KECCAK256 SWAP2 AND DUP3 MSTORE DUP5 MSTORE KECCAK256 SLOAD SWAP1 MLOAD SWAP1 DUP2 MSTORE RETURN JUMPDEST POP DUP1 REVERT JUMPDEST POP POP CALLVALUE PUSH2 0x1C4 JUMPI DUP1 PUSH1 0x3 NOT CALLDATASIZE ADD SLT PUSH2 0x1C4 JUMPI PUSH1 0x20 SWAP1 PUSH2 0x1F2 PUSH2 0x1E8 PUSH2 0x810 JUMP JUMPDEST PUSH1 0x24 CALLDATALOAD SWAP1 CALLER PUSH2 0x86D JUMP JUMPDEST MLOAD PUSH1 0x1 DUP2 MSTORE RETURN JUMPDEST POP SWAP2 SWAP1 CALLVALUE PUSH2 0x1C4 JUMPI DUP2 PUSH1 0x3 NOT CALLDATASIZE ADD SLT PUSH2 0x1C4 JUMPI DUP1 MLOAD SWAP1 DUP3 DUP5 SLOAD PUSH1 0x1 DUP2 DUP2 SHR SWAP1 DUP1 DUP4 AND SWAP3 DUP4 ISZERO PUSH2 0x30F JUMPI JUMPDEST PUSH1 0x20 SWAP4 DUP5 DUP5 LT DUP2 EQ PUSH2 0x2FC JUMPI DUP4 DUP9 MSTORE SWAP1 DUP2 ISZERO PUSH2 0x2E0 JUMPI POP PUSH1 0x1 EQ PUSH2 0x28B JUMPI JUMPDEST POP POP POP DUP3 SWAP1 SUB PUSH1 0x1F ADD PUSH1 0x1F NOT AND DUP3 ADD SWAP3 PUSH8 0xFFFFFFFFFFFFFFFF DUP5 GT DUP4 DUP6 LT OR PUSH2 0x278 JUMPI POP DUP3 SWAP2 DUP3 PUSH2 0x274 SWAP3 MSTORE DUP3 PUSH2 0x7C7 JUMP JUMPDEST SUB SWAP1 RETURN JUMPDEST PUSH4 0x4E487B71 PUSH1 0xE0 SHL DUP2 MSTORE PUSH1 0x41 DUP6 MSTORE PUSH1 0x24 SWAP1 REVERT JUMPDEST DUP8 DUP8 MSTORE SWAP2 SWAP3 POP DUP6 SWAP2 DUP4 PUSH32 0x8A35ACFBC15FF81A39AE7D344FD709F28E8600B4AA8C65C6B64BFE7FE36BD19B JUMPDEST DUP4 DUP6 LT PUSH2 0x2CC JUMPI POP POP POP POP DUP4 ADD ADD CODESIZE DUP1 DUP1 PUSH2 0x242 JUMP JUMPDEST DUP1 SLOAD DUP9 DUP7 ADD DUP4 ADD MSTORE SWAP4 ADD SWAP3 DUP5 SWAP1 DUP3 ADD PUSH2 0x2B6 JUMP JUMPDEST PUSH1 0xFF NOT AND DUP8 DUP6 ADD MSTORE POP POP ISZERO ISZERO PUSH1 0x5 SHL DUP5 ADD ADD SWAP1 POP CODESIZE DUP1 DUP1 PUSH2 0x242 JUMP JUMPDEST PUSH4 0x4E487B71 PUSH1 0xE0 SHL DUP10 MSTORE PUSH1 0x22 DUP11 MSTORE PUSH1 0x24 DUP10 REVERT JUMPDEST SWAP2 PUSH1 0x7F AND SWAP2 PUSH2 0x223 JUMP JUMPDEST POP POP CALLVALUE PUSH2 0x1C4 JUMPI DUP2 PUSH1 0x3 NOT CALLDATASIZE ADD SLT PUSH2 0x1C4 JUMPI PUSH1 0x5 SLOAD SWAP1 MLOAD PUSH1 0x1 PUSH1 0x1 PUSH1 0xA0 SHL SUB SWAP1 SWAP2 AND DUP2 MSTORE PUSH1 0x20 SWAP1 RETURN JUMPDEST DUP4 CALLVALUE PUSH2 0x3AA JUMPI PUSH1 0x20 CALLDATASIZE PUSH1 0x3 NOT ADD SLT PUSH2 0x3AA JUMPI PUSH2 0x35C PUSH2 0x810 JUMP JUMPDEST PUSH2 0x364 PUSH2 0x841 JUMP JUMPDEST PUSH1 0x7 DUP1 SLOAD PUSH1 0x1 PUSH1 0x1 PUSH1 0xA0 SHL SUB NOT AND PUSH1 0x1 PUSH1 0x1 PUSH1 0xA0 SHL SUB SWAP3 SWAP1 SWAP3 AND SWAP2 DUP3 OR SWAP1 SSTORE PUSH32 0xC4A4EA6ABC08BD7F8DF3DB8A1C998F19B3E0C348176F93732CD54DB1A4B50136 DUP3 DUP1 LOG2 DUP1 RETURN JUMPDEST DUP1 REVERT JUMPDEST POP POP CALLVALUE PUSH2 0x1C4 JUMPI DUP2 PUSH1 0x3 NOT CALLDATASIZE ADD SLT PUSH2 0x1C4 JUMPI PUSH1 0x20 SWAP1 PUSH2 0xFFFF PUSH1 0x7 SLOAD PUSH1 0xA0 SHR AND SWAP1 MLOAD SWAP1 DUP2 MSTORE RETURN JUMPDEST POP POP CALLVALUE PUSH2 0x1C4 JUMPI DUP2 PUSH1 0x3 NOT CALLDATASIZE ADD SLT PUSH2 0x1C4 JUMPI PUSH1 0x6 SLOAD SWAP1 MLOAD PUSH1 0x1 PUSH1 0x1 PUSH1 0xA0 SHL SUB SWAP1 SWAP2 AND DUP2 MSTORE PUSH1 0x20 SWAP1 RETURN JUMPDEST DUP4 CALLVALUE PUSH2 0x3AA JUMPI DUP1 PUSH1 0x3 NOT CALLDATASIZE ADD SLT PUSH2 0x3AA JUMPI PUSH2 0x415 PUSH2 0x841 JUMP JUMPDEST PUSH1 0x5 DUP1 SLOAD PUSH1 0x1 PUSH1 0x1 PUSH1 0xA0 SHL SUB NOT DUP2 AND SWAP1 SWAP2 SSTORE DUP2 SWAP1 PUSH1 0x1 PUSH1 0x1 PUSH1 0xA0 SHL SUB AND PUSH32 0x8BE0079C531659141344CD1FD0A4F28419497F9722A3DAAFE3B4186F6B6457E0 DUP3 DUP1 LOG3 DUP1 RETURN JUMPDEST POP POP CALLVALUE PUSH2 0x1C4 JUMPI PUSH1 0x20 CALLDATASIZE PUSH1 0x3 NOT ADD SLT PUSH2 0x1C4 JUMPI PUSH1 0x20 SWAP2 DUP2 SWAP1 PUSH1 0x1 PUSH1 0x1 PUSH1 0xA0 SHL SUB PUSH2 0x481 PUSH2 0x810 JUMP JUMPDEST AND DUP2 MSTORE DUP1 DUP5 MSTORE KECCAK256 SLOAD SWAP1 MLOAD SWAP1 DUP2 MSTORE RETURN JUMPDEST POP POP CALLVALUE PUSH2 0x1C4 JUMPI DUP2 PUSH1 0x3 NOT CALLDATASIZE ADD SLT PUSH2 0x1C4 JUMPI PUSH1 0x20 SWAP1 MLOAD PUSH1 0x1 DUP2 MSTORE RETURN JUMPDEST POP POP CALLVALUE PUSH2 0x1C4 JUMPI DUP2 PUSH1 0x3 NOT CALLDATASIZE ADD SLT PUSH2 0x1C4 JUMPI PUSH1 0x7 SLOAD SWAP1 MLOAD PUSH1 0x1 PUSH1 0x1 PUSH1 0xA0 SHL SUB SWAP1 SWAP2 AND DUP2 MSTORE PUSH1 0x20 SWAP1 RETURN JUMPDEST POP POP CALLVALUE PUSH2 0x1C4 JUMPI DUP2 PUSH1 0x3 NOT CALLDATASIZE ADD SLT PUSH2 0x1C4 JUMPI PUSH1 0x20 SWAP1 MLOAD PUSH1 0x12 DUP2 MSTORE RETURN JUMPDEST POP POP CALLVALUE PUSH2 0x1C4 JUMPI DUP2 PUSH1 0x3 NOT CALLDATASIZE ADD SLT PUSH2 0x1C4 JUMPI PUSH1 0x20 SWAP1 PUSH2 0xFFFF PUSH1 0x7 SLOAD PUSH1 0xB0 SHR AND SWAP1 MLOAD SWAP1 DUP2 MSTORE RETURN JUMPDEST POP DUP3 CALLVALUE PUSH2 0x3AA JUMPI PUSH1 0x60 CALLDATASIZE PUSH1 0x3 NOT ADD SLT PUSH2 0x3AA JUMPI PUSH2 0x532 PUSH2 0x810 JUMP JUMPDEST PUSH2 0x53A PUSH2 0x82B JUMP JUMPDEST SWAP2 PUSH1 0x44 CALLDATALOAD SWAP4 PUSH1 0x1 DUP1 PUSH1 0xA0 SHL SUB DUP4 AND DUP1 DUP4 MSTORE PUSH1 0x1 PUSH1 0x20 MSTORE DUP7 DUP4 KECCAK256 CALLER DUP5 MSTORE PUSH1 0x20 MSTORE DUP7 DUP4 KECCAK256 SLOAD SWAP2 PUSH1 0x0 NOT DUP4 LT PUSH2 0x576 JUMPI JUMPDEST PUSH1 0x20 DUP9 PUSH2 0x1F2 DUP10 DUP10 DUP10 PUSH2 0x86D JUMP JUMPDEST DUP7 DUP4 LT PUSH2 0x5DE JUMPI DUP2 ISZERO PUSH2 0x5C7 JUMPI CALLER ISZERO PUSH2 0x5B0 JUMPI POP DUP3 MSTORE PUSH1 0x1 PUSH1 0x20 SWAP1 DUP2 MSTORE DUP7 DUP4 KECCAK256 CALLER DUP5 MSTORE DUP2 MSTORE SWAP2 DUP7 SWAP1 KECCAK256 SWAP1 DUP6 SWAP1 SUB SWAP1 SSTORE DUP3 SWAP1 PUSH2 0x1F2 DUP8 PUSH2 0x568 JUMP JUMPDEST DUP8 MLOAD PUSH4 0x4A1406B1 PUSH1 0xE1 SHL DUP2 MSTORE SWAP1 DUP2 ADD DUP5 SWAP1 MSTORE PUSH1 0x24 SWAP1 REVERT JUMPDEST DUP8 MLOAD PUSH4 0xE602DF05 PUSH1 0xE0 SHL DUP2 MSTORE SWAP1 DUP2 ADD DUP5 SWAP1 MSTORE PUSH1 0x24 SWAP1 REVERT JUMPDEST DUP8 MLOAD PUSH4 0x7DC7A0D9 PUSH1 0xE1 SHL DUP2 MSTORE CALLER SWAP2 DUP2 ADD SWAP2 DUP3 MSTORE PUSH1 0x20 DUP3 ADD SWAP4 SWAP1 SWAP4 MSTORE PUSH1 0x40 DUP2 ADD DUP8 SWAP1 MSTORE DUP3 SWAP2 POP PUSH1 0x60 ADD SUB SWAP1 REVERT JUMPDEST POP POP CALLVALUE PUSH2 0x1C4 JUMPI DUP2 PUSH1 0x3 NOT CALLDATASIZE ADD SLT PUSH2 0x1C4 JUMPI PUSH1 0x20 SWAP1 PUSH1 0x2 SLOAD SWAP1 MLOAD SWAP1 DUP2 MSTORE RETURN JUMPDEST POP CALLVALUE PUSH2 0x177 JUMPI DUP2 PUSH1 0x3 NOT CALLDATASIZE ADD SLT PUSH2 0x177 JUMPI PUSH2 0x642 PUSH2 0x810 JUMP JUMPDEST PUSH1 0x24 CALLDATALOAD SWAP1 CALLER ISZERO PUSH2 0x6BB JUMPI PUSH1 0x1 PUSH1 0x1 PUSH1 0xA0 SHL SUB AND SWAP2 DUP3 ISZERO PUSH2 0x6A4 JUMPI POP DUP1 DUP4 PUSH1 0x20 SWAP6 CALLER DUP2 MSTORE PUSH1 0x1 DUP8 MSTORE DUP2 DUP2 KECCAK256 DUP6 DUP3 MSTORE DUP8 MSTORE KECCAK256 SSTORE DUP3 MLOAD SWAP1 DUP2 MSTORE PUSH32 0x8C5BE1E5EBEC7D5BD14F71427D1E84F3DD0314C0F7B2291E5B200AC8C7C3B925 DUP5 CALLER SWAP3 LOG3 MLOAD PUSH1 0x1 DUP2 MSTORE RETURN JUMPDEST DUP4 MLOAD PUSH4 0x4A1406B1 PUSH1 0xE1 SHL DUP2 MSTORE SWAP1 DUP2 ADD DUP6 SWAP1 MSTORE PUSH1 0x24 SWAP1 REVERT JUMPDEST DUP4 MLOAD PUSH4 0xE602DF05 PUSH1 0xE0 SHL DUP2 MSTORE DUP1 DUP5 ADD DUP7 SWAP1 MSTORE PUSH1 0x24 SWAP1 REVERT JUMPDEST DUP5 SWAP2 POP DUP4 CALLVALUE PUSH2 0x177 JUMPI DUP3 PUSH1 0x3 NOT CALLDATASIZE ADD SLT PUSH2 0x177 JUMPI DUP3 PUSH1 0x3 SLOAD PUSH1 0x1 DUP2 DUP2 SHR SWAP1 DUP1 DUP4 AND SWAP3 DUP4 ISZERO PUSH2 0x7BD JUMPI JUMPDEST PUSH1 0x20 SWAP4 DUP5 DUP5 LT DUP2 EQ PUSH2 0x2FC JUMPI DUP4 DUP9 MSTORE SWAP1 DUP2 ISZERO PUSH2 0x7A1 JUMPI POP PUSH1 0x1 EQ PUSH2 0x74B JUMPI POP POP POP DUP3 SWAP1 SUB PUSH1 0x1F ADD PUSH1 0x1F NOT AND DUP3 ADD SWAP3 PUSH8 0xFFFFFFFFFFFFFFFF DUP5 GT DUP4 DUP6 LT OR PUSH2 0x278 JUMPI POP DUP3 SWAP2 DUP3 PUSH2 0x274 SWAP3 MSTORE DUP3 PUSH2 0x7C7 JUMP JUMPDEST PUSH1 0x3 DUP8 MSTORE SWAP2 SWAP3 POP DUP6 SWAP2 DUP4 PUSH32 0xC2575A0E9E593C00F959F8C92F12DB2869C3395A3B0502D05E2516446F71F85B JUMPDEST DUP4 DUP6 LT PUSH2 0x78D JUMPI POP POP POP POP DUP4 ADD ADD DUP6 DUP1 DUP1 PUSH2 0x242 JUMP JUMPDEST DUP1 SLOAD DUP9 DUP7 ADD DUP4 ADD MSTORE SWAP4 ADD SWAP3 DUP5 SWAP1 DUP3 ADD PUSH2 0x777 JUMP JUMPDEST PUSH1 0xFF NOT AND DUP8 DUP6 ADD MSTORE POP POP ISZERO ISZERO PUSH1 0x5 SHL DUP5 ADD ADD SWAP1 POP DUP6 DUP1 DUP1 PUSH2 0x242 JUMP JUMPDEST SWAP2 PUSH1 0x7F AND SWAP2 PUSH2 0x6FB JUMP JUMPDEST PUSH1 0x20 DUP1 DUP3 MSTORE DUP3 MLOAD DUP2 DUP4 ADD DUP2 SWAP1 MSTORE SWAP1 SWAP4 SWAP3 PUSH1 0x0 JUMPDEST DUP3 DUP2 LT PUSH2 0x7FC JUMPI POP POP PUSH1 0x40 SWAP3 SWAP4 POP PUSH1 0x0 DUP4 DUP3 DUP5 ADD ADD MSTORE PUSH1 0x1F DUP1 NOT SWAP2 ADD AND ADD ADD SWAP1 JUMP JUMPDEST DUP2 DUP2 ADD DUP7 ADD MLOAD DUP5 DUP3 ADD PUSH1 0x40 ADD MSTORE DUP6 ADD PUSH2 0x7DA JUMP JUMPDEST PUSH1 0x4 CALLDATALOAD SWAP1 PUSH1 0x1 PUSH1 0x1 PUSH1 0xA0 SHL SUB DUP3 AND DUP3 SUB PUSH2 0x826 JUMPI JUMP JUMPDEST PUSH1 0x0 DUP1 REVERT JUMPDEST PUSH1 0x24 CALLDATALOAD SWAP1 PUSH1 0x1 PUSH1 0x1 PUSH1 0xA0 SHL SUB DUP3 AND DUP3 SUB PUSH2 0x826 JUMPI JUMP JUMPDEST PUSH1 0x5 SLOAD PUSH1 0x1 PUSH1 0x1 PUSH1 0xA0 SHL SUB AND CALLER SUB PUSH2 0x855 JUMPI JUMP JUMPDEST PUSH1 0x40 MLOAD PUSH4 0x118CDAA7 PUSH1 0xE0 SHL DUP2 MSTORE CALLER PUSH1 0x4 DUP3 ADD MSTORE PUSH1 0x24 SWAP1 REVERT JUMPDEST SWAP2 SWAP1 PUSH1 0x1 PUSH1 0x1 PUSH1 0xA0 SHL SUB DUP1 DUP5 AND ISZERO PUSH2 0x8AA JUMPI DUP2 AND ISZERO PUSH2 0x891 JUMPI PUSH2 0x88F SWAP3 PUSH2 0x8C3 JUMP JUMPDEST JUMP JUMPDEST PUSH1 0x40 MLOAD PUSH4 0xEC442F05 PUSH1 0xE0 SHL DUP2 MSTORE PUSH1 0x0 PUSH1 0x4 DUP3 ADD MSTORE PUSH1 0x24 SWAP1 REVERT JUMPDEST PUSH1 0x40 MLOAD PUSH4 0x4B637E8F PUSH1 0xE1 SHL DUP2 MSTORE PUSH1 0x0 PUSH1 0x4 DUP3 ADD MSTORE PUSH1 0x24 SWAP1 REVERT JUMPDEST SWAP2 SWAP1 DUP2 ISZERO PUSH2 0x9CD JUMPI PUSH1 0x7 SLOAD PUSH1 0x1 PUSH1 0x1 PUSH1 0xA0 SHL SUB SWAP1 PUSH2 0xFFFF SWAP1 DUP3 DUP2 AND DUP1 ISZERO ISZERO SWAP2 SWAP1 DUP3 SWAP1 DUP2 PUSH2 0x9C1 JUMPI JUMPDEST DUP4 PUSH2 0x9B5 JUMPI JUMPDEST DUP2 PUSH2 0x9A9 JUMPI JUMPDEST POP DUP1 PUSH2 0x99E JUMPI JUMPDEST PUSH1 0x0 SWAP3 ISZERO PUSH2 0x986 JUMPI POP DUP3 SWAP2 POP PUSH1 0xA0 SHR AND JUMPDEST AND DUP1 PUSH2 0x921 JUMPI JUMPDEST POP POP PUSH2 0x88F SWAP3 PUSH2 0x9D2 JUMP JUMPDEST DUP1 DUP5 MUL SWAP1 DUP5 DUP3 DIV SUB PUSH2 0x964 JUMPI PUSH2 0x2710 SWAP1 DIV SWAP1 DUP2 ISZERO PUSH2 0x916 JUMPI DUP2 DUP2 PUSH2 0x952 SWAP3 PUSH1 0x6 SLOAD AND SWAP1 DUP2 ISZERO PUSH2 0x97A JUMPI JUMPDEST POP DUP7 PUSH2 0x9D2 JUMP JUMPDEST DUP3 SUB SWAP2 DUP3 GT PUSH2 0x964 JUMPI PUSH2 0x88F SWAP3 PUSH2 0x9D2 JUMP JUMPDEST PUSH4 0x4E487B71 PUSH1 0xE0 SHL PUSH1 0x0 MSTORE PUSH1 0x11 PUSH1 0x4 MSTORE PUSH1 0x24 PUSH1 0x0 REVERT JUMPDEST SWAP1 POP PUSH1 0x5 SLOAD AND CODESIZE PUSH2 0x94B JUMP JUMPDEST PUSH2 0x991 JUMPI JUMPDEST POP PUSH2 0x90F JUMP JUMPDEST DUP3 SWAP2 POP PUSH1 0xB0 SHR AND CODESIZE PUSH2 0x98B JUMP JUMPDEST POP DUP4 DUP8 AND ISZERO ISZERO PUSH2 0x8FE JUMP JUMPDEST SWAP1 POP DUP5 DUP7 AND EQ CODESIZE PUSH2 0x8F7 JUMP JUMPDEST DUP7 DUP7 AND ISZERO ISZERO SWAP4 POP PUSH2 0x8F1 JUMP JUMPDEST DUP9 DUP7 AND DUP2 EQ SWAP4 POP PUSH2 0x8EB JUMP JUMPDEST PUSH2 0x88F SWAP3 JUMPDEST PUSH1 0x1 PUSH1 0x1 PUSH1 0xA0 SHL SUB DUP1 DUP3 AND SWAP3 SWAP1 SWAP2 DUP4 PUSH2 0xA4F JUMPI POP SWAP1 PUSH1 0x2 SLOAD SWAP1 DUP5 DUP3 ADD DUP1 SWAP3 GT PUSH2 0x964 JUMPI PUSH32 0xDDF252AD1BE2C89B69C2B068FC378DAA952BA7F163C4A11628F55A4DF523B3EF SWAP3 PUSH1 0x20 SWAP3 PUSH1 0x2 SSTORE JUMPDEST AND SWAP4 DUP5 PUSH2 0xA37 JUMPI DUP1 PUSH1 0x2 SLOAD SUB PUSH1 0x2 SSTORE JUMPDEST PUSH1 0x40 MLOAD SWAP1 DUP2 MSTORE LOG3 JUMP JUMPDEST DUP5 PUSH1 0x0 MSTORE PUSH1 0x0 DUP3 MSTORE PUSH1 0x40 PUSH1 0x0 KECCAK256 DUP2 DUP2 SLOAD ADD SWAP1 SSTORE PUSH2 0xA2E JUMP JUMPDEST PUSH1 0x0 SWAP1 DUP5 DUP3 MSTORE DUP2 PUSH1 0x20 MSTORE PUSH1 0x40 DUP3 KECCAK256 SLOAD SWAP1 DUP7 DUP3 LT PUSH2 0xAA0 JUMPI POP SWAP2 DUP2 PUSH1 0x40 DUP8 PUSH1 0x20 SWAP6 DUP9 PUSH32 0xDDF252AD1BE2C89B69C2B068FC378DAA952BA7F163C4A11628F55A4DF523B3EF SWAP9 SWAP7 MSTORE DUP4 DUP8 MSTORE SUB SWAP2 KECCAK256 SSTORE PUSH2 0xA1E JUMP JUMPDEST PUSH1 0x40 MLOAD PUSH4 0x391434E3 PUSH1 0xE2 SHL DUP2 MSTORE PUSH1 0x1 PUSH1 0x1 PUSH1 0xA0 SHL SUB SWAP2 SWAP1 SWAP2 AND PUSH1 0x4 DUP3 ADD MSTORE PUSH1 0x24 DUP2 ADD SWAP2 SWAP1 SWAP2 MSTORE PUSH1 0x44 DUP2 ADD DUP7 SWAP1 MSTORE PUSH1 0x64 SWAP1 REVERT INVALID LOG2 PUSH5 0x6970667358 0x22 SLT KECCAK256 0xF8 0x2A 0xE4 GASPRICE PUSH28 0xEF6118C43144BACD933EF0E5FFE09B851543C830F2584BDB0439A764 PUSH20 0x6F6C634300081400330000000000000000000000 "},"methodIdentifiers":{"allowance(address,address)":"dd62ed3e","approve(address,uint256)":"095ea7b3","balanceOf(address)":"70a08231","buyFeeBps()":"77d2300e","decimals()":"313ce567","feesLocked()":"5a27a1f9","marketingWallet()":"75f0a874","name()":"06fdde03","owner()":"8da5cb5b","renounceOwnership()":"715018a6","sellFeeBps()":"23cbe1f3","setPair(address)":"8187f516","symbol()":"95d89b41","totalSupply()":"18160ddd","transfer(address,uint256)":"a9059cbb","transferFrom(address,address,uint256)":"23b872dd","transferOwnership(address)":"f2fde38b","uniswapV2Pair()":"49bd5a5e"}}}}}