{"contracts/batch/BatchTransferETH.sol":{"BatchTransferETH":{"abi":[{"inputs":[{"internalType":"address","name":"_feeCollector","type":"address"}],"stateMutability":"nonpayable","type":"constructor"},{"inputs":[{"internalType":"address","name":"owner","type":"address"}],"name":"OwnableInvalidOwner","type":"error"},{"inputs":[{"internalType":"address","name":"account","type":"address"}],"name":"OwnableUnauthorizedAccount","type":"error"},{"inputs":[],"name":"ReentrancyGuardReentrantCall","type":"error"},{"anonymous":false,"inputs":[{"indexed":true,"internalType":"address","name":"user","type":"address"},{"indexed":false,"internalType":"uint256","name":"amount","type":"uint256"},{"indexed":false,"internalType":"string","name":"reason","type":"string"}],"name":"BalanceAdded","type":"event"},{"anonymous":false,"inputs":[{"indexed":true,"internalType":"address","name":"sender","type":"address"},{"indexed":false,"internalType":"uint256","name":"successCount","type":"uint256"},{"indexed":false,"internalType":"uint256","name":"failureCount","type":"uint256"},{"indexed":false,"internalType":"uint256","name":"refundAmount","type":"uint256"}],"name":"BatchNativeTransfer","type":"event"},{"anonymous":false,"inputs":[{"indexed":true,"internalType":"address","name":"sender","type":"address"},{"indexed":true,"internalType":"address","name":"token","type":"address"},{"indexed":false,"internalType":"uint256","name":"successCount","type":"uint256"},{"indexed":false,"internalType":"uint256","name":"failureCount","type":"uint256"}],"name":"BatchTokenTransfer","type":"event"},{"anonymous":false,"inputs":[{"indexed":true,"internalType":"address","name":"oldCollector","type":"address"},{"indexed":true,"internalType":"address","name":"newCollector","type":"address"}],"name":"FeeCollectorUpdated","type":"event"},{"anonymous":false,"inputs":[{"indexed":false,"internalType":"uint256","name":"perAddressFee","type":"uint256"}],"name":"FeeConfigUpdated","type":"event"},{"anonymous":false,"inputs":[{"indexed":false,"internalType":"uint256","name":"oldSize","type":"uint256"},{"indexed":false,"internalType":"uint256","name":"newSize","type":"uint256"}],"name":"MaxErc20BatchSizeUpdated","type":"event"},{"anonymous":false,"inputs":[{"indexed":false,"internalType":"uint256","name":"oldSize","type":"uint256"},{"indexed":false,"internalType":"uint256","name":"newSize","type":"uint256"}],"name":"MaxNativeBatchSizeUpdated","type":"event"},{"anonymous":false,"inputs":[{"indexed":true,"internalType":"address","name":"previousOwner","type":"address"},{"indexed":true,"internalType":"address","name":"newOwner","type":"address"}],"name":"OwnershipTransferred","type":"event"},{"anonymous":false,"inputs":[{"indexed":true,"internalType":"address","name":"sender","type":"address"},{"indexed":true,"internalType":"uint256","name":"batchIndex","type":"uint256"},{"indexed":false,"internalType":"address","name":"to","type":"address"},{"indexed":false,"internalType":"uint256","name":"amount","type":"uint256"},{"indexed":false,"internalType":"bool","name":"success","type":"bool"},{"indexed":false,"internalType":"string","name":"failureReason","type":"string"}],"name":"TransferDetail","type":"event"},{"anonymous":false,"inputs":[{"indexed":true,"internalType":"address","name":"user","type":"address"},{"indexed":false,"internalType":"uint256","name":"amount","type":"uint256"}],"name":"WithdrawalSuccess","type":"event"},{"inputs":[{"components":[{"internalType":"address","name":"to","type":"address"},{"internalType":"uint256","name":"amount","type":"uint256"}],"internalType":"struct BatchTransferETH.Transfer[]","name":"transfers","type":"tuple[]"}],"name":"batchTransferNative","outputs":[{"components":[{"internalType":"address","name":"to","type":"address"},{"internalType":"uint256","name":"amount","type":"uint256"},{"internalType":"bool","name":"success","type":"bool"},{"internalType":"string","name":"failureReason","type":"string"}],"internalType":"struct BatchTransferETH.TransferResult[]","name":"results","type":"tuple[]"}],"stateMutability":"payable","type":"function"},{"inputs":[{"internalType":"address","name":"token","type":"address"},{"components":[{"internalType":"address","name":"to","type":"address"},{"internalType":"uint256","name":"amount","type":"uint256"}],"internalType":"struct BatchTransferETH.Transfer[]","name":"transfers","type":"tuple[]"}],"name":"batchTransferToken","outputs":[{"components":[{"internalType":"address","name":"to","type":"address"},{"internalType":"uint256","name":"amount","type":"uint256"},{"internalType":"bool","name":"success","type":"bool"},{"internalType":"string","name":"failureReason","type":"string"}],"internalType":"struct BatchTransferETH.TransferResult[]","name":"results","type":"tuple[]"}],"stateMutability":"payable","type":"function"},{"inputs":[{"internalType":"uint256","name":"addressCount","type":"uint256"}],"name":"calculateFee","outputs":[{"internalType":"uint256","name":"","type":"uint256"}],"stateMutability":"view","type":"function"},{"inputs":[],"name":"feeCollector","outputs":[{"internalType":"address","name":"","type":"address"}],"stateMutability":"view","type":"function"},{"inputs":[],"name":"getFeeConfig","outputs":[{"internalType":"uint256","name":"","type":"uint256"}],"stateMutability":"view","type":"function"},{"inputs":[],"name":"getMaxErc20BatchSize","outputs":[{"internalType":"uint256","name":"","type":"uint256"}],"stateMutability":"view","type":"function"},{"inputs":[],"name":"getMaxNativeBatchSize","outputs":[{"internalType":"uint256","name":"","type":"uint256"}],"stateMutability":"view","type":"function"},{"inputs":[{"internalType":"address","name":"user","type":"address"}],"name":"getPendingWithdrawal","outputs":[{"internalType":"uint256","name":"","type":"uint256"}],"stateMutability":"view","type":"function"},{"inputs":[],"name":"maxErc20BatchSize","outputs":[{"internalType":"uint256","name":"","type":"uint256"}],"stateMutability":"view","type":"function"},{"inputs":[],"name":"maxNativeBatchSize","outputs":[{"internalType":"uint256","name":"","type":"uint256"}],"stateMutability":"view","type":"function"},{"inputs":[],"name":"owner","outputs":[{"internalType":"address","name":"","type":"address"}],"stateMutability":"view","type":"function"},{"inputs":[{"internalType":"address","name":"","type":"address"}],"name":"pendingWithdrawals","outputs":[{"internalType":"uint256","name":"","type":"uint256"}],"stateMutability":"view","type":"function"},{"inputs":[],"name":"perAddressFee","outputs":[{"internalType":"uint256","name":"","type":"uint256"}],"stateMutability":"view","type":"function"},{"inputs":[],"name":"renounceOwnership","outputs":[],"stateMutability":"nonpayable","type":"function"},{"inputs":[{"internalType":"address","name":"_feeCollector","type":"address"}],"name":"setFeeCollector","outputs":[],"stateMutability":"nonpayable","type":"function"},{"inputs":[{"internalType":"uint256","name":"_perAddressFee","type":"uint256"}],"name":"setFeeConfig","outputs":[],"stateMutability":"nonpayable","type":"function"},{"inputs":[{"internalType":"uint256","name":"_maxErc20BatchSize","type":"uint256"}],"name":"setMaxErc20BatchSize","outputs":[],"stateMutability":"nonpayable","type":"function"},{"inputs":[{"internalType":"uint256","name":"_maxNativeBatchSize","type":"uint256"}],"name":"setMaxNativeBatchSize","outputs":[],"stateMutability":"nonpayable","type":"function"},{"inputs":[{"internalType":"address","name":"newOwner","type":"address"}],"name":"transferOwnership","outputs":[],"stateMutability":"nonpayable","type":"function"},{"inputs":[],"name":"withdraw","outputs":[],"stateMutability":"nonpayable","type":"function"},{"stateMutability":"payable","type":"receive"}],"evm":{"bytecode":{"linkReferences":{},"object":"60803461013057601f6115dd38819003918201601f19168301916001600160401b038311848410176101355780849260209460405283398101031261013057516001600160a01b0381169081900361013057331561011a5760008054336001600160a01b03198216811783556040519290916001600160a01b0316907f8be0079c531659141344cd1fd0a4f28419497f9722a3daafe3b4186f6b6457e09080a36001805581156100d85750600280546001600160a01b03191691909117905561019060045560c8600555604051611491908161014c8239f35b62461bcd60e51b815260206004820152601560248201527f496e76616c69642066656520636f6c6c6563746f7200000000000000000000006044820152606490fd5b631e4fbdf760e01b600052600060045260246000fd5b600080fd5b634e487b7160e01b600052604160045260246000fdfe6080604052600436101561001b575b361561001957600080fd5b005b60003560e01c806313b971fe1461014857806319063ffa146101075780633ccfd60b1461014357806341f277581461013e5780634d4d5c34146101165780635fbbc0d21461013e57806360124fee1461013957806361599189146101345780636d2272991461012f578063715018a61461012a5780637ee8b2f8146100fd5780638da5cb5b14610125578063929f8f2f1461012057806399a5d7471461011b5780639e3650c914610116578063a42dce8014610111578063c415b95c1461010c578063ee92b66014610107578063f2fde38b146101025763f3f437030361000e575b610804565b610c12565b6101aa565b610be9565b610b3b565b6102c8565b610b18565b61086a565b610841565b61079a565b6104a1565b610340565b6102e6565b6102aa565b6101c8565b610164565b602090600319011261015f5760043590565b600080fd5b3461015f577f7b7c32820c86188829f5a18638e23b1dd66300db981f6ffa968aea69b474749e60206101953661014d565b61019d61108c565b80600355604051908152a1005b3461015f57600036600319011261015f576020600554604051908152f35b3461015f57600036600319011261015f57600260015414610299576002600155336000526006602052604060002054801561025e5733600090815260066020526040812055610227600080808085335af1610221610d1e565b50610d4e565b60405190815233907fef37270ffd4697852e825c7f163a2505cfbd2d7849a69b6ad9c8829d7f90484a90602090a261001960018055565b60405162461bcd60e51b81526020600482015260136024820152724e6f7468696e6720746f20776974686472617760681b6044820152606490fd5b633ee5aeb560e01b60005260046000fd5b3461015f57600036600319011261015f576020600354604051908152f35b3461015f57600036600319011261015f576020600454604051908152f35b3461015f576102f43661014d565b6102fc61108c565b610307811515610d8c565b60055460408051918252602082018390527f0cba753b90a35c7c613bcdd2e8ce8583d25404de36e470e26c1b110f35f04a2791a1600555005b3461015f5761034e3661014d565b61035661108c565b610361811515610d8c565b60045460408051918252602082018390527f4ab144ffafeec232b1dd1178685f009d39935737fb3407cdf70c873d3dd7895591a1600455005b9181601f8401121561015f5782359167ffffffffffffffff831161015f576020808501948460061b01011161015f57565b60005b8381106103de5750506000910152565b81810151838201526020016103ce565b90602091610407815180928185528580860191016103cb565b601f01601f1916010190565b602081016020825282518091526040820191602060408360051b8301019401926000915b83831061044657505050505090565b9091929394602080610492600193603f19868203018752608060608b51878060a01b038151168452858101518685015260408101511515604085015201519181606082015201906103ee565b97019301930191939290610437565b602036600319011261015f5760043567ffffffffffffffff811161015f576104cd90369060040161039a565b6104d8811515610dc7565b6104e6600454821115610e05565b60009060005b81811061077f575061051461050c61050683600354610e96565b84610e84565b341015610ea9565b61051d81610f17565b9160009160009460005b828110610660575050937f29d76740cbc89bbaa891f53c02a91144201cbd27541018f1222521904b8dc0049161057f610584610506610569876105b69a610ff1565b9361057688600354610e96565b93849134610ff1565b610ff1565b806105ea575b50806105ba575b506040805194855260208501919091528301523391606090a260405191829182610413565b0390f35b60008080806105e4946105d460025460018060a01b031690565b5af16105de610d1e565b50610ffe565b38610591565b336000908152600660205260409020610604828254610e84565b90557fef14da62cafebf322bdd38df3ac0bdcc24ff3d69010b3334f3df8f03edc92cc26040518061065733948260809181526040602082015260066040820152651c99599d5b9960d21b60608201520190565b0390a23861058a565b61068b610676610671838686610e59565b610f94565b6020610683848787610e59565b0135906110b5565b90978861075a5791809160008051602061143c8339815191526106bf60019560206106b7868b8b610e59565b013590610e84565b9a5b6106cf610671858a8a610e59565b60206106dc868b8b610e59565b01356106f86106e9610cdc565b6001600160a01b039093168352565b60208201528115156040820152836060820152610715858d610fb0565b52610720848c610fb0565b5061072f610671858a8a610e59565b926107516020610740878c8c610e59565b013591604051938493339785610fc4565b0390a301610527565b979591809160008051602061143c833981519152610779600195610fa1565b986106c1565b9161079360019160206106b7868689610e59565b92016104ec565b3461015f57600036600319011261015f576107b361108c565b600080546001600160a01b0319811682556001600160a01b03167f8be0079c531659141344cd1fd0a4f28419497f9722a3daafe3b4186f6b6457e08280a3005b6001600160a01b0381160361015f57565b3461015f57602036600319011261015f57600435610821816107f3565b60018060a01b031660005260066020526020604060002054604051908152f35b3461015f57600036600319011261015f576000546040516001600160a01b039091168152602090f35b604036600319011261015f57600435610882816107f3565b60243567ffffffffffffffff811161015f576108a290369060040161039a565b916108ae831515610dc7565b6108bc600554841115610e05565b6000805b848210610afd576108d2915082611181565b6108e96108e184600354610e96565b341015611040565b6108f283610f17565b9160009360009160005b828110610a115760408051888152602081018690526105b691889161096591610959918c916001600160a01b038c169133917ff3dfb960931cb4c24bf2dd9e40374ac223dfb046c20ded274e863cc630308fc991a3600354610e96565b806109f2575b34610ff1565b80610978575b5060405191829182610413565b336000908152600660205260409020610992828254610e84565b90557fef14da62cafebf322bdd38df3ac0bdcc24ff3d69010b3334f3df8f03edc92cc2604051806109e9339482608091815260406020820152600a60408201526919995957dc99599d5b9960b21b60608201520190565b0390a28261096b565b610a0c6000808080856105d460025460018060a01b031690565b61095f565b610a38610a22610671838686610e59565b6020610a2f848787610e59565b013590876112e1565b90978815610ad85791809160008051602061143c833981519152610a5d600195610fa1565b9a5b610a6d610671858a8a610e59565b6020610a7a868b8b610e59565b0135610a876106e9610cdc565b60208201528115156040820152836060820152610aa4858d610fb0565b52610aaf848c610fb0565b50610abe610671858a8a610e59565b92610acf6020610740878c8c610e59565b0390a3016108fc565b979491809160008051602061143c833981519152610af7600195610fa1565b97610a5f565b610b1060019160206106b7858989610e59565b9101906108c0565b3461015f576020610b33610b2b3661014d565b600354610e96565b604051908152f35b3461015f57602036600319011261015f57600435610b58816107f3565b610b6061108c565b6001600160a01b03168015610bb257600254816001600160a01b0382167f5d16ad41baeb009cd23eb8f6c7cde5c2e0cd5acf4a33926ab488875c37c37f38600080a36001600160a01b03191617600255005b60405162461bcd60e51b815260206004820152600f60248201526e496e76616c6964206164647265737360881b6044820152606490fd5b3461015f57600036600319011261015f576002546040516001600160a01b039091168152602090f35b3461015f57602036600319011261015f57600435610c2f816107f3565b610c3761108c565b6001600160a01b03168015610c8957600080546001600160a01b03198116831782556001600160a01b0316907f8be0079c531659141344cd1fd0a4f28419497f9722a3daafe3b4186f6b6457e09080a3005b631e4fbdf760e01b600052600060045260246000fd5b634e487b7160e01b600052604160045260246000fd5b90601f8019910116810190811067ffffffffffffffff821117610cd757604052565b610c9f565b60405190610ceb608083610cb5565b565b67ffffffffffffffff8111610cd757601f01601f191660200190565b60405190610d18602083610cb5565b60008252565b3d15610d49573d90610d2f82610ced565b91610d3d6040519384610cb5565b82523d6000602084013e565b606090565b15610d5557565b60405162461bcd60e51b815260206004820152600f60248201526e15da5d1a191c985dc819985a5b1959608a1b6044820152606490fd5b15610d9357565b60405162461bcd60e51b815260206004820152600c60248201526b496e76616c69642073697a6560a01b6044820152606490fd5b15610dce57565b60405162461bcd60e51b815260206004820152600f60248201526e456d707479207472616e736665727360881b6044820152606490fd5b15610e0c57565b60405162461bcd60e51b815260206004820152600f60248201526e426174636820746f6f206c6172676560881b6044820152606490fd5b634e487b7160e01b600052603260045260246000fd5b9190811015610e695760061b0190565b610e43565b634e487b7160e01b600052601160045260246000fd5b91908201809211610e9157565b610e6e565b81810292918115918404141715610e9157565b15610eb057565b60405162461bcd60e51b815260206004820152602160248201527f496e73756666696369656e742076616c75652028616d6f756e74202b206665656044820152602960f81b6064820152608490fd5b67ffffffffffffffff8111610cd75760051b60200190565b90610f2182610eff565b610f2e6040519182610cb5565b8281528092610f3f601f1991610eff565b0160005b818110610f4f57505050565b60405190608082019180831067ffffffffffffffff841117610cd757602092604052600081526000838201526000604082015260608082015282828601015201610f43565b35610f9e816107f3565b90565b6000198114610e915760010190565b8051821015610e695760209160051b010190565b9092608092610f9e959460018060a01b0316835260208301521515604082015281606082015201906103ee565b91908203918211610e9157565b1561100557565b60405162461bcd60e51b8152602060048201526013602482015272119959481d1c985b9cd9995c8819985a5b1959606a1b6044820152606490fd5b1561104757565b60405162461bcd60e51b815260206004820152601b60248201527f496e73756666696369656e74206e617469766520666f722066656500000000006044820152606490fd5b6000546001600160a01b031633036110a057565b63118cdaa760e01b6000523360045260246000fd5b600080809381935af16110c6610d1e565b9061111c578051600091906044116110ea576110e29150611391565b905b60009190565b50506040516110fa604082610cb5565b600f81526e151c985b9cd9995c8819985a5b1959608a1b6020820152906110e4565b5060019060405161112e602082610cb5565b6000815290565b1561113c57565b60405162461bcd60e51b815260206004820152601c60248201527f496e73756666696369656e7420746f6b656e20616c6c6f77616e6365000000006044820152606490fd5b604051636eb1769f60e11b81523360048201523060248201529190602090839060449082906001600160a01b03165afa80156111ff576000906111cb575b610ceb92501015611135565b506020823d6020116111f7575b816111e560209383610cb5565b8101031261015f57610ceb91516111bf565b3d91506111d8565b6040513d6000823e3d90fd5b9081602091031261015f5751801515810361015f5790565b60009060033d1161123057565b905060046000803e60005160e01c90565b600060443d10610f9e576040513d600319016004823e8051913d602484011167ffffffffffffffff8411176112b0578282019283519167ffffffffffffffff83116112a8573d840160031901858401602001116112a85750610f9e92910160200190610cb5565b949350505050565b92915050565b604051906112c5604083610cb5565b600d82526c2ab735b737bbb71032b93937b960991b6020830152565b6040516323b872dd60e01b81523360048201526001600160a01b039283166024820152604481019390935260209183916064918391600091165af19081611364575b5061135957611330611223565b6308c379a014611346575b600090610f9e6112b6565b61134e611241565b806110e2575061133b565b600190610f9e610d09565b6113859060203d60201161138a575b61137d8183610cb5565b81019061120b565b611323565b503d611373565b604481511061140e57600481015181016024810191906020908290031261015f5760248101519067ffffffffffffffff821161015f57018160438201121561015f5760248101516113e181610ced565b926113ef6040519485610cb5565b8184526044838301011161015f57610f9e9160446020850191016103cb565b5060405161141d604082610cb5565b600e81526d155b9adb9bdddb881c995d995c9d60921b60208201529056fea6df5a078e66f7b0e1c1657e07c0d94dc5047762340d58aa99c7acfe987f5475a264697066735822122099e630fbfa4618fbff76c8e630ccc50fe3b4e0c6a342df7d3da45c1117025c3b64736f6c634300081c0033","opcodes":"PUSH1 0x80 CALLVALUE PUSH2 0x130 JUMPI PUSH1 0x1F PUSH2 0x15DD CODESIZE DUP2 SWAP1 SUB SWAP2 DUP3 ADD PUSH1 0x1F NOT AND DUP4 ADD SWAP2 PUSH1 0x1 PUSH1 0x1 PUSH1 0x40 SHL SUB DUP4 GT DUP5 DUP5 LT OR PUSH2 0x135 JUMPI DUP1 DUP5 SWAP3 PUSH1 0x20 SWAP5 PUSH1 0x40 MSTORE DUP4 CODECOPY DUP2 ADD SUB SLT PUSH2 0x130 JUMPI MLOAD PUSH1 0x1 PUSH1 0x1 PUSH1 0xA0 SHL SUB DUP2 AND SWAP1 DUP2 SWAP1 SUB PUSH2 0x130 JUMPI CALLER ISZERO PUSH2 0x11A JUMPI PUSH1 0x0 DUP1 SLOAD CALLER PUSH1 0x1 PUSH1 0x1 PUSH1 0xA0 SHL SUB NOT DUP3 AND DUP2 OR DUP4 SSTORE PUSH1 0x40 MLOAD SWAP3 SWAP1 SWAP2 PUSH1 0x1 PUSH1 0x1 PUSH1 0xA0 SHL SUB AND SWAP1 PUSH32 0x8BE0079C531659141344CD1FD0A4F28419497F9722A3DAAFE3B4186F6B6457E0 SWAP1 DUP1 LOG3 PUSH1 0x1 DUP1 SSTORE DUP2 ISZERO PUSH2 0xD8 JUMPI POP PUSH1 0x2 DUP1 SLOAD PUSH1 0x1 PUSH1 0x1 PUSH1 0xA0 SHL SUB NOT AND SWAP2 SWAP1 SWAP2 OR SWAP1 SSTORE PUSH2 0x190 PUSH1 0x4 SSTORE PUSH1 0xC8 PUSH1 0x5 SSTORE PUSH1 0x40 MLOAD PUSH2 0x1491 SWAP1 DUP2 PUSH2 0x14C DUP3 CODECOPY RETURN JUMPDEST PUSH3 0x461BCD PUSH1 0xE5 SHL DUP2 MSTORE PUSH1 0x20 PUSH1 0x4 DUP3 ADD MSTORE PUSH1 0x15 PUSH1 0x24 DUP3 ADD MSTORE PUSH32 0x496E76616C69642066656520636F6C6C6563746F720000000000000000000000 PUSH1 0x44 DUP3 ADD MSTORE PUSH1 0x64 SWAP1 REVERT JUMPDEST PUSH4 0x1E4FBDF7 PUSH1 0xE0 SHL PUSH1 0x0 MSTORE PUSH1 0x0 PUSH1 0x4 MSTORE PUSH1 0x24 PUSH1 0x0 REVERT JUMPDEST PUSH1 0x0 DUP1 REVERT JUMPDEST PUSH4 0x4E487B71 PUSH1 0xE0 SHL PUSH1 0x0 MSTORE PUSH1 0x41 PUSH1 0x4 MSTORE PUSH1 0x24 PUSH1 0x0 REVERT INVALID PUSH1 0x80 PUSH1 0x40 MSTORE PUSH1 0x4 CALLDATASIZE LT ISZERO PUSH2 0x1B JUMPI JUMPDEST CALLDATASIZE ISZERO PUSH2 0x19 JUMPI PUSH1 0x0 DUP1 REVERT JUMPDEST STOP JUMPDEST PUSH1 0x0 CALLDATALOAD PUSH1 0xE0 SHR DUP1 PUSH4 0x13B971FE EQ PUSH2 0x148 JUMPI DUP1 PUSH4 0x19063FFA EQ PUSH2 0x107 JUMPI DUP1 PUSH4 0x3CCFD60B EQ PUSH2 0x143 JUMPI DUP1 PUSH4 0x41F27758 EQ PUSH2 0x13E JUMPI DUP1 PUSH4 0x4D4D5C34 EQ PUSH2 0x116 JUMPI DUP1 PUSH4 0x5FBBC0D2 EQ PUSH2 0x13E JUMPI DUP1 PUSH4 0x60124FEE EQ PUSH2 0x139 JUMPI DUP1 PUSH4 0x61599189 EQ PUSH2 0x134 JUMPI DUP1 PUSH4 0x6D227299 EQ PUSH2 0x12F JUMPI DUP1 PUSH4 0x715018A6 EQ PUSH2 0x12A JUMPI DUP1 PUSH4 0x7EE8B2F8 EQ PUSH2 0xFD JUMPI DUP1 PUSH4 0x8DA5CB5B EQ PUSH2 0x125 JUMPI DUP1 PUSH4 0x929F8F2F EQ PUSH2 0x120 JUMPI DUP1 PUSH4 0x99A5D747 EQ PUSH2 0x11B JUMPI DUP1 PUSH4 0x9E3650C9 EQ PUSH2 0x116 JUMPI DUP1 PUSH4 0xA42DCE80 EQ PUSH2 0x111 JUMPI DUP1 PUSH4 0xC415B95C EQ PUSH2 0x10C JUMPI DUP1 PUSH4 0xEE92B660 EQ PUSH2 0x107 JUMPI DUP1 PUSH4 0xF2FDE38B EQ PUSH2 0x102 JUMPI PUSH4 0xF3F43703 SUB PUSH2 0xE JUMPI JUMPDEST PUSH2 0x804 JUMP JUMPDEST PUSH2 0xC12 JUMP JUMPDEST PUSH2 0x1AA JUMP JUMPDEST PUSH2 0xBE9 JUMP JUMPDEST PUSH2 0xB3B JUMP JUMPDEST PUSH2 0x2C8 JUMP JUMPDEST PUSH2 0xB18 JUMP JUMPDEST PUSH2 0x86A JUMP JUMPDEST PUSH2 0x841 JUMP JUMPDEST PUSH2 0x79A JUMP JUMPDEST PUSH2 0x4A1 JUMP JUMPDEST PUSH2 0x340 JUMP JUMPDEST PUSH2 0x2E6 JUMP JUMPDEST PUSH2 0x2AA JUMP JUMPDEST PUSH2 0x1C8 JUMP JUMPDEST PUSH2 0x164 JUMP JUMPDEST PUSH1 0x20 SWAP1 PUSH1 0x3 NOT ADD SLT PUSH2 0x15F JUMPI PUSH1 0x4 CALLDATALOAD SWAP1 JUMP JUMPDEST PUSH1 0x0 DUP1 REVERT JUMPDEST CALLVALUE PUSH2 0x15F JUMPI PUSH32 0x7B7C32820C86188829F5A18638E23B1DD66300DB981F6FFA968AEA69B474749E PUSH1 0x20 PUSH2 0x195 CALLDATASIZE PUSH2 0x14D JUMP JUMPDEST PUSH2 0x19D PUSH2 0x108C JUMP JUMPDEST DUP1 PUSH1 0x3 SSTORE PUSH1 0x40 MLOAD SWAP1 DUP2 MSTORE LOG1 STOP JUMPDEST CALLVALUE PUSH2 0x15F JUMPI PUSH1 0x0 CALLDATASIZE PUSH1 0x3 NOT ADD SLT PUSH2 0x15F JUMPI PUSH1 0x20 PUSH1 0x5 SLOAD PUSH1 0x40 MLOAD SWAP1 DUP2 MSTORE RETURN JUMPDEST CALLVALUE PUSH2 0x15F JUMPI PUSH1 0x0 CALLDATASIZE PUSH1 0x3 NOT ADD SLT PUSH2 0x15F JUMPI PUSH1 0x2 PUSH1 0x1 SLOAD EQ PUSH2 0x299 JUMPI PUSH1 0x2 PUSH1 0x1 SSTORE CALLER PUSH1 0x0 MSTORE PUSH1 0x6 PUSH1 0x20 MSTORE PUSH1 0x40 PUSH1 0x0 KECCAK256 SLOAD DUP1 ISZERO PUSH2 0x25E JUMPI CALLER PUSH1 0x0 SWAP1 DUP2 MSTORE PUSH1 0x6 PUSH1 0x20 MSTORE PUSH1 0x40 DUP2 KECCAK256 SSTORE PUSH2 0x227 PUSH1 0x0 DUP1 DUP1 DUP1 DUP6 CALLER GAS CALL PUSH2 0x221 PUSH2 0xD1E JUMP JUMPDEST POP PUSH2 0xD4E JUMP JUMPDEST PUSH1 0x40 MLOAD SWAP1 DUP2 MSTORE CALLER SWAP1 PUSH32 0xEF37270FFD4697852E825C7F163A2505CFBD2D7849A69B6AD9C8829D7F90484A SWAP1 PUSH1 0x20 SWAP1 LOG2 PUSH2 0x19 PUSH1 0x1 DUP1 SSTORE JUMP JUMPDEST PUSH1 0x40 MLOAD PUSH3 0x461BCD PUSH1 0xE5 SHL DUP2 MSTORE PUSH1 0x20 PUSH1 0x4 DUP3 ADD MSTORE PUSH1 0x13 PUSH1 0x24 DUP3 ADD MSTORE PUSH19 0x4E6F7468696E6720746F207769746864726177 PUSH1 0x68 SHL PUSH1 0x44 DUP3 ADD MSTORE PUSH1 0x64 SWAP1 REVERT JUMPDEST PUSH4 0x3EE5AEB5 PUSH1 0xE0 SHL PUSH1 0x0 MSTORE PUSH1 0x4 PUSH1 0x0 REVERT JUMPDEST CALLVALUE PUSH2 0x15F JUMPI PUSH1 0x0 CALLDATASIZE PUSH1 0x3 NOT ADD SLT PUSH2 0x15F JUMPI PUSH1 0x20 PUSH1 0x3 SLOAD PUSH1 0x40 MLOAD SWAP1 DUP2 MSTORE RETURN JUMPDEST CALLVALUE PUSH2 0x15F JUMPI PUSH1 0x0 CALLDATASIZE PUSH1 0x3 NOT ADD SLT PUSH2 0x15F JUMPI PUSH1 0x20 PUSH1 0x4 SLOAD PUSH1 0x40 MLOAD SWAP1 DUP2 MSTORE RETURN JUMPDEST CALLVALUE PUSH2 0x15F JUMPI PUSH2 0x2F4 CALLDATASIZE PUSH2 0x14D JUMP JUMPDEST PUSH2 0x2FC PUSH2 0x108C JUMP JUMPDEST PUSH2 0x307 DUP2 ISZERO ISZERO PUSH2 0xD8C JUMP JUMPDEST PUSH1 0x5 SLOAD PUSH1 0x40 DUP1 MLOAD SWAP2 DUP3 MSTORE PUSH1 0x20 DUP3 ADD DUP4 SWAP1 MSTORE PUSH32 0xCBA753B90A35C7C613BCDD2E8CE8583D25404DE36E470E26C1B110F35F04A27 SWAP2 LOG1 PUSH1 0x5 SSTORE STOP JUMPDEST CALLVALUE PUSH2 0x15F JUMPI PUSH2 0x34E CALLDATASIZE PUSH2 0x14D JUMP JUMPDEST PUSH2 0x356 PUSH2 0x108C JUMP JUMPDEST PUSH2 0x361 DUP2 ISZERO ISZERO PUSH2 0xD8C JUMP JUMPDEST PUSH1 0x4 SLOAD PUSH1 0x40 DUP1 MLOAD SWAP2 DUP3 MSTORE PUSH1 0x20 DUP3 ADD DUP4 SWAP1 MSTORE PUSH32 0x4AB144FFAFEEC232B1DD1178685F009D39935737FB3407CDF70C873D3DD78955 SWAP2 LOG1 PUSH1 0x4 SSTORE STOP JUMPDEST SWAP2 DUP2 PUSH1 0x1F DUP5 ADD SLT ISZERO PUSH2 0x15F JUMPI DUP3 CALLDATALOAD SWAP2 PUSH8 0xFFFFFFFFFFFFFFFF DUP4 GT PUSH2 0x15F JUMPI PUSH1 0x20 DUP1 DUP6 ADD SWAP5 DUP5 PUSH1 0x6 SHL ADD ADD GT PUSH2 0x15F JUMPI JUMP JUMPDEST PUSH1 0x0 JUMPDEST DUP4 DUP2 LT PUSH2 0x3DE JUMPI POP POP PUSH1 0x0 SWAP2 ADD MSTORE JUMP JUMPDEST DUP2 DUP2 ADD MLOAD DUP4 DUP3 ADD MSTORE PUSH1 0x20 ADD PUSH2 0x3CE JUMP JUMPDEST SWAP1 PUSH1 0x20 SWAP2 PUSH2 0x407 DUP2 MLOAD DUP1 SWAP3 DUP2 DUP6 MSTORE DUP6 DUP1 DUP7 ADD SWAP2 ADD PUSH2 0x3CB JUMP JUMPDEST PUSH1 0x1F ADD PUSH1 0x1F NOT AND ADD ADD SWAP1 JUMP JUMPDEST PUSH1 0x20 DUP2 ADD PUSH1 0x20 DUP3 MSTORE DUP3 MLOAD DUP1 SWAP2 MSTORE PUSH1 0x40 DUP3 ADD SWAP2 PUSH1 0x20 PUSH1 0x40 DUP4 PUSH1 0x5 SHL DUP4 ADD ADD SWAP5 ADD SWAP3 PUSH1 0x0 SWAP2 JUMPDEST DUP4 DUP4 LT PUSH2 0x446 JUMPI POP POP POP POP POP SWAP1 JUMP JUMPDEST SWAP1 SWAP2 SWAP3 SWAP4 SWAP5 PUSH1 0x20 DUP1 PUSH2 0x492 PUSH1 0x1 SWAP4 PUSH1 0x3F NOT DUP7 DUP3 SUB ADD DUP8 MSTORE PUSH1 0x80 PUSH1 0x60 DUP12 MLOAD DUP8 DUP1 PUSH1 0xA0 SHL SUB DUP2 MLOAD AND DUP5 MSTORE DUP6 DUP2 ADD MLOAD DUP7 DUP6 ADD MSTORE PUSH1 0x40 DUP2 ADD MLOAD ISZERO ISZERO PUSH1 0x40 DUP6 ADD MSTORE ADD MLOAD SWAP2 DUP2 PUSH1 0x60 DUP3 ADD MSTORE ADD SWAP1 PUSH2 0x3EE JUMP JUMPDEST SWAP8 ADD SWAP4 ADD SWAP4 ADD SWAP2 SWAP4 SWAP3 SWAP1 PUSH2 0x437 JUMP JUMPDEST PUSH1 0x20 CALLDATASIZE PUSH1 0x3 NOT ADD SLT PUSH2 0x15F JUMPI PUSH1 0x4 CALLDATALOAD PUSH8 0xFFFFFFFFFFFFFFFF DUP2 GT PUSH2 0x15F JUMPI PUSH2 0x4CD SWAP1 CALLDATASIZE SWAP1 PUSH1 0x4 ADD PUSH2 0x39A JUMP JUMPDEST PUSH2 0x4D8 DUP2 ISZERO ISZERO PUSH2 0xDC7 JUMP JUMPDEST PUSH2 0x4E6 PUSH1 0x4 SLOAD DUP3 GT ISZERO PUSH2 0xE05 JUMP JUMPDEST PUSH1 0x0 SWAP1 PUSH1 0x0 JUMPDEST DUP2 DUP2 LT PUSH2 0x77F JUMPI POP PUSH2 0x514 PUSH2 0x50C PUSH2 0x506 DUP4 PUSH1 0x3 SLOAD PUSH2 0xE96 JUMP JUMPDEST DUP5 PUSH2 0xE84 JUMP JUMPDEST CALLVALUE LT ISZERO PUSH2 0xEA9 JUMP JUMPDEST PUSH2 0x51D DUP2 PUSH2 0xF17 JUMP JUMPDEST SWAP2 PUSH1 0x0 SWAP2 PUSH1 0x0 SWAP5 PUSH1 0x0 JUMPDEST DUP3 DUP2 LT PUSH2 0x660 JUMPI POP POP SWAP4 PUSH32 0x29D76740CBC89BBAA891F53C02A91144201CBD27541018F1222521904B8DC004 SWAP2 PUSH2 0x57F PUSH2 0x584 PUSH2 0x506 PUSH2 0x569 DUP8 PUSH2 0x5B6 SWAP11 PUSH2 0xFF1 JUMP JUMPDEST SWAP4 PUSH2 0x576 DUP9 PUSH1 0x3 SLOAD PUSH2 0xE96 JUMP JUMPDEST SWAP4 DUP5 SWAP2 CALLVALUE PUSH2 0xFF1 JUMP JUMPDEST PUSH2 0xFF1 JUMP JUMPDEST DUP1 PUSH2 0x5EA JUMPI JUMPDEST POP DUP1 PUSH2 0x5BA JUMPI JUMPDEST POP PUSH1 0x40 DUP1 MLOAD SWAP5 DUP6 MSTORE PUSH1 0x20 DUP6 ADD SWAP2 SWAP1 SWAP2 MSTORE DUP4 ADD MSTORE CALLER SWAP2 PUSH1 0x60 SWAP1 LOG2 PUSH1 0x40 MLOAD SWAP2 DUP3 SWAP2 DUP3 PUSH2 0x413 JUMP JUMPDEST SUB SWAP1 RETURN JUMPDEST PUSH1 0x0 DUP1 DUP1 DUP1 PUSH2 0x5E4 SWAP5 PUSH2 0x5D4 PUSH1 0x2 SLOAD PUSH1 0x1 DUP1 PUSH1 0xA0 SHL SUB AND SWAP1 JUMP JUMPDEST GAS CALL PUSH2 0x5DE PUSH2 0xD1E JUMP JUMPDEST POP PUSH2 0xFFE JUMP JUMPDEST CODESIZE PUSH2 0x591 JUMP JUMPDEST CALLER PUSH1 0x0 SWAP1 DUP2 MSTORE PUSH1 0x6 PUSH1 0x20 MSTORE PUSH1 0x40 SWAP1 KECCAK256 PUSH2 0x604 DUP3 DUP3 SLOAD PUSH2 0xE84 JUMP JUMPDEST SWAP1 SSTORE PUSH32 0xEF14DA62CAFEBF322BDD38DF3AC0BDCC24FF3D69010B3334F3DF8F03EDC92CC2 PUSH1 0x40 MLOAD DUP1 PUSH2 0x657 CALLER SWAP5 DUP3 PUSH1 0x80 SWAP2 DUP2 MSTORE PUSH1 0x40 PUSH1 0x20 DUP3 ADD MSTORE PUSH1 0x6 PUSH1 0x40 DUP3 ADD MSTORE PUSH6 0x1C99599D5B99 PUSH1 0xD2 SHL PUSH1 0x60 DUP3 ADD MSTORE ADD SWAP1 JUMP JUMPDEST SUB SWAP1 LOG2 CODESIZE PUSH2 0x58A JUMP JUMPDEST PUSH2 0x68B PUSH2 0x676 PUSH2 0x671 DUP4 DUP7 DUP7 PUSH2 0xE59 JUMP JUMPDEST PUSH2 0xF94 JUMP JUMPDEST PUSH1 0x20 PUSH2 0x683 DUP5 DUP8 DUP8 PUSH2 0xE59 JUMP JUMPDEST ADD CALLDATALOAD SWAP1 PUSH2 0x10B5 JUMP JUMPDEST SWAP1 SWAP8 DUP9 PUSH2 0x75A JUMPI SWAP2 DUP1 SWAP2 PUSH1 0x0 DUP1 MLOAD PUSH1 0x20 PUSH2 0x143C DUP4 CODECOPY DUP2 MLOAD SWAP2 MSTORE PUSH2 0x6BF PUSH1 0x1 SWAP6 PUSH1 0x20 PUSH2 0x6B7 DUP7 DUP12 DUP12 PUSH2 0xE59 JUMP JUMPDEST ADD CALLDATALOAD SWAP1 PUSH2 0xE84 JUMP JUMPDEST SWAP11 JUMPDEST PUSH2 0x6CF PUSH2 0x671 DUP6 DUP11 DUP11 PUSH2 0xE59 JUMP JUMPDEST PUSH1 0x20 PUSH2 0x6DC DUP7 DUP12 DUP12 PUSH2 0xE59 JUMP JUMPDEST ADD CALLDATALOAD PUSH2 0x6F8 PUSH2 0x6E9 PUSH2 0xCDC JUMP JUMPDEST PUSH1 0x1 PUSH1 0x1 PUSH1 0xA0 SHL SUB SWAP1 SWAP4 AND DUP4 MSTORE JUMP JUMPDEST PUSH1 0x20 DUP3 ADD MSTORE DUP2 ISZERO ISZERO PUSH1 0x40 DUP3 ADD MSTORE DUP4 PUSH1 0x60 DUP3 ADD MSTORE PUSH2 0x715 DUP6 DUP14 PUSH2 0xFB0 JUMP JUMPDEST MSTORE PUSH2 0x720 DUP5 DUP13 PUSH2 0xFB0 JUMP JUMPDEST POP PUSH2 0x72F PUSH2 0x671 DUP6 DUP11 DUP11 PUSH2 0xE59 JUMP JUMPDEST SWAP3 PUSH2 0x751 PUSH1 0x20 PUSH2 0x740 DUP8 DUP13 DUP13 PUSH2 0xE59 JUMP JUMPDEST ADD CALLDATALOAD SWAP2 PUSH1 0x40 MLOAD SWAP4 DUP5 SWAP4 CALLER SWAP8 DUP6 PUSH2 0xFC4 JUMP JUMPDEST SUB SWAP1 LOG3 ADD PUSH2 0x527 JUMP JUMPDEST SWAP8 SWAP6 SWAP2 DUP1 SWAP2 PUSH1 0x0 DUP1 MLOAD PUSH1 0x20 PUSH2 0x143C DUP4 CODECOPY DUP2 MLOAD SWAP2 MSTORE PUSH2 0x779 PUSH1 0x1 SWAP6 PUSH2 0xFA1 JUMP JUMPDEST SWAP9 PUSH2 0x6C1 JUMP JUMPDEST SWAP2 PUSH2 0x793 PUSH1 0x1 SWAP2 PUSH1 0x20 PUSH2 0x6B7 DUP7 DUP7 DUP10 PUSH2 0xE59 JUMP JUMPDEST SWAP3 ADD PUSH2 0x4EC JUMP JUMPDEST CALLVALUE PUSH2 0x15F JUMPI PUSH1 0x0 CALLDATASIZE PUSH1 0x3 NOT ADD SLT PUSH2 0x15F JUMPI PUSH2 0x7B3 PUSH2 0x108C JUMP JUMPDEST PUSH1 0x0 DUP1 SLOAD PUSH1 0x1 PUSH1 0x1 PUSH1 0xA0 SHL SUB NOT DUP2 AND DUP3 SSTORE PUSH1 0x1 PUSH1 0x1 PUSH1 0xA0 SHL SUB AND PUSH32 0x8BE0079C531659141344CD1FD0A4F28419497F9722A3DAAFE3B4186F6B6457E0 DUP3 DUP1 LOG3 STOP JUMPDEST PUSH1 0x1 PUSH1 0x1 PUSH1 0xA0 SHL SUB DUP2 AND SUB PUSH2 0x15F JUMPI JUMP JUMPDEST CALLVALUE PUSH2 0x15F JUMPI PUSH1 0x20 CALLDATASIZE PUSH1 0x3 NOT ADD SLT PUSH2 0x15F JUMPI PUSH1 0x4 CALLDATALOAD PUSH2 0x821 DUP2 PUSH2 0x7F3 JUMP JUMPDEST PUSH1 0x1 DUP1 PUSH1 0xA0 SHL SUB AND PUSH1 0x0 MSTORE PUSH1 0x6 PUSH1 0x20 MSTORE PUSH1 0x20 PUSH1 0x40 PUSH1 0x0 KECCAK256 SLOAD PUSH1 0x40 MLOAD SWAP1 DUP2 MSTORE RETURN JUMPDEST CALLVALUE PUSH2 0x15F JUMPI PUSH1 0x0 CALLDATASIZE PUSH1 0x3 NOT ADD SLT PUSH2 0x15F JUMPI PUSH1 0x0 SLOAD PUSH1 0x40 MLOAD PUSH1 0x1 PUSH1 0x1 PUSH1 0xA0 SHL SUB SWAP1 SWAP2 AND DUP2 MSTORE PUSH1 0x20 SWAP1 RETURN JUMPDEST PUSH1 0x40 CALLDATASIZE PUSH1 0x3 NOT ADD SLT PUSH2 0x15F JUMPI PUSH1 0x4 CALLDATALOAD PUSH2 0x882 DUP2 PUSH2 0x7F3 JUMP JUMPDEST PUSH1 0x24 CALLDATALOAD PUSH8 0xFFFFFFFFFFFFFFFF DUP2 GT PUSH2 0x15F JUMPI PUSH2 0x8A2 SWAP1 CALLDATASIZE SWAP1 PUSH1 0x4 ADD PUSH2 0x39A JUMP JUMPDEST SWAP2 PUSH2 0x8AE DUP4 ISZERO ISZERO PUSH2 0xDC7 JUMP JUMPDEST PUSH2 0x8BC PUSH1 0x5 SLOAD DUP5 GT ISZERO PUSH2 0xE05 JUMP JUMPDEST PUSH1 0x0 DUP1 JUMPDEST DUP5 DUP3 LT PUSH2 0xAFD JUMPI PUSH2 0x8D2 SWAP2 POP DUP3 PUSH2 0x1181 JUMP JUMPDEST PUSH2 0x8E9 PUSH2 0x8E1 DUP5 PUSH1 0x3 SLOAD PUSH2 0xE96 JUMP JUMPDEST CALLVALUE LT ISZERO PUSH2 0x1040 JUMP JUMPDEST PUSH2 0x8F2 DUP4 PUSH2 0xF17 JUMP JUMPDEST SWAP2 PUSH1 0x0 SWAP4 PUSH1 0x0 SWAP2 PUSH1 0x0 JUMPDEST DUP3 DUP2 LT PUSH2 0xA11 JUMPI PUSH1 0x40 DUP1 MLOAD DUP9 DUP2 MSTORE PUSH1 0x20 DUP2 ADD DUP7 SWAP1 MSTORE PUSH2 0x5B6 SWAP2 DUP9 SWAP2 PUSH2 0x965 SWAP2 PUSH2 0x959 SWAP2 DUP13 SWAP2 PUSH1 0x1 PUSH1 0x1 PUSH1 0xA0 SHL SUB DUP13 AND SWAP2 CALLER SWAP2 PUSH32 0xF3DFB960931CB4C24BF2DD9E40374AC223DFB046C20DED274E863CC630308FC9 SWAP2 LOG3 PUSH1 0x3 SLOAD PUSH2 0xE96 JUMP JUMPDEST DUP1 PUSH2 0x9F2 JUMPI JUMPDEST CALLVALUE PUSH2 0xFF1 JUMP JUMPDEST DUP1 PUSH2 0x978 JUMPI JUMPDEST POP PUSH1 0x40 MLOAD SWAP2 DUP3 SWAP2 DUP3 PUSH2 0x413 JUMP JUMPDEST CALLER PUSH1 0x0 SWAP1 DUP2 MSTORE PUSH1 0x6 PUSH1 0x20 MSTORE PUSH1 0x40 SWAP1 KECCAK256 PUSH2 0x992 DUP3 DUP3 SLOAD PUSH2 0xE84 JUMP JUMPDEST SWAP1 SSTORE PUSH32 0xEF14DA62CAFEBF322BDD38DF3AC0BDCC24FF3D69010B3334F3DF8F03EDC92CC2 PUSH1 0x40 MLOAD DUP1 PUSH2 0x9E9 CALLER SWAP5 DUP3 PUSH1 0x80 SWAP2 DUP2 MSTORE PUSH1 0x40 PUSH1 0x20 DUP3 ADD MSTORE PUSH1 0xA PUSH1 0x40 DUP3 ADD MSTORE PUSH10 0x19995957DC99599D5B99 PUSH1 0xB2 SHL PUSH1 0x60 DUP3 ADD MSTORE ADD SWAP1 JUMP JUMPDEST SUB SWAP1 LOG2 DUP3 PUSH2 0x96B JUMP JUMPDEST PUSH2 0xA0C PUSH1 0x0 DUP1 DUP1 DUP1 DUP6 PUSH2 0x5D4 PUSH1 0x2 SLOAD PUSH1 0x1 DUP1 PUSH1 0xA0 SHL SUB AND SWAP1 JUMP JUMPDEST PUSH2 0x95F JUMP JUMPDEST PUSH2 0xA38 PUSH2 0xA22 PUSH2 0x671 DUP4 DUP7 DUP7 PUSH2 0xE59 JUMP JUMPDEST PUSH1 0x20 PUSH2 0xA2F DUP5 DUP8 DUP8 PUSH2 0xE59 JUMP JUMPDEST ADD CALLDATALOAD SWAP1 DUP8 PUSH2 0x12E1 JUMP JUMPDEST SWAP1 SWAP8 DUP9 ISZERO PUSH2 0xAD8 JUMPI SWAP2 DUP1 SWAP2 PUSH1 0x0 DUP1 MLOAD PUSH1 0x20 PUSH2 0x143C DUP4 CODECOPY DUP2 MLOAD SWAP2 MSTORE PUSH2 0xA5D PUSH1 0x1 SWAP6 PUSH2 0xFA1 JUMP JUMPDEST SWAP11 JUMPDEST PUSH2 0xA6D PUSH2 0x671 DUP6 DUP11 DUP11 PUSH2 0xE59 JUMP JUMPDEST PUSH1 0x20 PUSH2 0xA7A DUP7 DUP12 DUP12 PUSH2 0xE59 JUMP JUMPDEST ADD CALLDATALOAD PUSH2 0xA87 PUSH2 0x6E9 PUSH2 0xCDC JUMP JUMPDEST PUSH1 0x20 DUP3 ADD MSTORE DUP2 ISZERO ISZERO PUSH1 0x40 DUP3 ADD MSTORE DUP4 PUSH1 0x60 DUP3 ADD MSTORE PUSH2 0xAA4 DUP6 DUP14 PUSH2 0xFB0 JUMP JUMPDEST MSTORE PUSH2 0xAAF DUP5 DUP13 PUSH2 0xFB0 JUMP JUMPDEST POP PUSH2 0xABE PUSH2 0x671 DUP6 DUP11 DUP11 PUSH2 0xE59 JUMP JUMPDEST SWAP3 PUSH2 0xACF PUSH1 0x20 PUSH2 0x740 DUP8 DUP13 DUP13 PUSH2 0xE59 JUMP JUMPDEST SUB SWAP1 LOG3 ADD PUSH2 0x8FC JUMP JUMPDEST SWAP8 SWAP5 SWAP2 DUP1 SWAP2 PUSH1 0x0 DUP1 MLOAD PUSH1 0x20 PUSH2 0x143C DUP4 CODECOPY DUP2 MLOAD SWAP2 MSTORE PUSH2 0xAF7 PUSH1 0x1 SWAP6 PUSH2 0xFA1 JUMP JUMPDEST SWAP8 PUSH2 0xA5F JUMP JUMPDEST PUSH2 0xB10 PUSH1 0x1 SWAP2 PUSH1 0x20 PUSH2 0x6B7 DUP6 DUP10 DUP10 PUSH2 0xE59 JUMP JUMPDEST SWAP2 ADD SWAP1 PUSH2 0x8C0 JUMP JUMPDEST CALLVALUE PUSH2 0x15F JUMPI PUSH1 0x20 PUSH2 0xB33 PUSH2 0xB2B CALLDATASIZE PUSH2 0x14D JUMP JUMPDEST PUSH1 0x3 SLOAD PUSH2 0xE96 JUMP JUMPDEST PUSH1 0x40 MLOAD SWAP1 DUP2 MSTORE RETURN JUMPDEST CALLVALUE PUSH2 0x15F JUMPI PUSH1 0x20 CALLDATASIZE PUSH1 0x3 NOT ADD SLT PUSH2 0x15F JUMPI PUSH1 0x4 CALLDATALOAD PUSH2 0xB58 DUP2 PUSH2 0x7F3 JUMP JUMPDEST PUSH2 0xB60 PUSH2 0x108C JUMP JUMPDEST PUSH1 0x1 PUSH1 0x1 PUSH1 0xA0 SHL SUB AND DUP1 ISZERO PUSH2 0xBB2 JUMPI PUSH1 0x2 SLOAD DUP2 PUSH1 0x1 PUSH1 0x1 PUSH1 0xA0 SHL SUB DUP3 AND PUSH32 0x5D16AD41BAEB009CD23EB8F6C7CDE5C2E0CD5ACF4A33926AB488875C37C37F38 PUSH1 0x0 DUP1 LOG3 PUSH1 0x1 PUSH1 0x1 PUSH1 0xA0 SHL SUB NOT AND OR PUSH1 0x2 SSTORE STOP JUMPDEST PUSH1 0x40 MLOAD PUSH3 0x461BCD PUSH1 0xE5 SHL DUP2 MSTORE PUSH1 0x20 PUSH1 0x4 DUP3 ADD MSTORE PUSH1 0xF PUSH1 0x24 DUP3 ADD MSTORE PUSH15 0x496E76616C69642061646472657373 PUSH1 0x88 SHL PUSH1 0x44 DUP3 ADD MSTORE PUSH1 0x64 SWAP1 REVERT JUMPDEST CALLVALUE PUSH2 0x15F JUMPI PUSH1 0x0 CALLDATASIZE PUSH1 0x3 NOT ADD SLT PUSH2 0x15F JUMPI PUSH1 0x2 SLOAD PUSH1 0x40 MLOAD PUSH1 0x1 PUSH1 0x1 PUSH1 0xA0 SHL SUB SWAP1 SWAP2 AND DUP2 MSTORE PUSH1 0x20 SWAP1 RETURN JUMPDEST CALLVALUE PUSH2 0x15F JUMPI PUSH1 0x20 CALLDATASIZE PUSH1 0x3 NOT ADD SLT PUSH2 0x15F JUMPI PUSH1 0x4 CALLDATALOAD PUSH2 0xC2F DUP2 PUSH2 0x7F3 JUMP JUMPDEST PUSH2 0xC37 PUSH2 0x108C JUMP JUMPDEST PUSH1 0x1 PUSH1 0x1 PUSH1 0xA0 SHL SUB AND DUP1 ISZERO PUSH2 0xC89 JUMPI PUSH1 0x0 DUP1 SLOAD PUSH1 0x1 PUSH1 0x1 PUSH1 0xA0 SHL SUB NOT DUP2 AND DUP4 OR DUP3 SSTORE PUSH1 0x1 PUSH1 0x1 PUSH1 0xA0 SHL SUB AND SWAP1 PUSH32 0x8BE0079C531659141344CD1FD0A4F28419497F9722A3DAAFE3B4186F6B6457E0 SWAP1 DUP1 LOG3 STOP JUMPDEST PUSH4 0x1E4FBDF7 PUSH1 0xE0 SHL PUSH1 0x0 MSTORE PUSH1 0x0 PUSH1 0x4 MSTORE PUSH1 0x24 PUSH1 0x0 REVERT JUMPDEST PUSH4 0x4E487B71 PUSH1 0xE0 SHL PUSH1 0x0 MSTORE PUSH1 0x41 PUSH1 0x4 MSTORE PUSH1 0x24 PUSH1 0x0 REVERT JUMPDEST SWAP1 PUSH1 0x1F DUP1 NOT SWAP2 ADD AND DUP2 ADD SWAP1 DUP2 LT PUSH8 0xFFFFFFFFFFFFFFFF DUP3 GT OR PUSH2 0xCD7 JUMPI PUSH1 0x40 MSTORE JUMP JUMPDEST PUSH2 0xC9F JUMP JUMPDEST PUSH1 0x40 MLOAD SWAP1 PUSH2 0xCEB PUSH1 0x80 DUP4 PUSH2 0xCB5 JUMP JUMPDEST JUMP JUMPDEST PUSH8 0xFFFFFFFFFFFFFFFF DUP2 GT PUSH2 0xCD7 JUMPI PUSH1 0x1F ADD PUSH1 0x1F NOT AND PUSH1 0x20 ADD SWAP1 JUMP JUMPDEST PUSH1 0x40 MLOAD SWAP1 PUSH2 0xD18 PUSH1 0x20 DUP4 PUSH2 0xCB5 JUMP JUMPDEST PUSH1 0x0 DUP3 MSTORE JUMP JUMPDEST RETURNDATASIZE ISZERO PUSH2 0xD49 JUMPI RETURNDATASIZE SWAP1 PUSH2 0xD2F DUP3 PUSH2 0xCED JUMP JUMPDEST SWAP2 PUSH2 0xD3D PUSH1 0x40 MLOAD SWAP4 DUP5 PUSH2 0xCB5 JUMP JUMPDEST DUP3 MSTORE RETURNDATASIZE PUSH1 0x0 PUSH1 0x20 DUP5 ADD RETURNDATACOPY JUMP JUMPDEST PUSH1 0x60 SWAP1 JUMP JUMPDEST ISZERO PUSH2 0xD55 JUMPI JUMP JUMPDEST PUSH1 0x40 MLOAD PUSH3 0x461BCD PUSH1 0xE5 SHL DUP2 MSTORE PUSH1 0x20 PUSH1 0x4 DUP3 ADD MSTORE PUSH1 0xF PUSH1 0x24 DUP3 ADD MSTORE PUSH15 0x15DA5D1A191C985DC819985A5B1959 PUSH1 0x8A SHL PUSH1 0x44 DUP3 ADD MSTORE PUSH1 0x64 SWAP1 REVERT JUMPDEST ISZERO PUSH2 0xD93 JUMPI JUMP JUMPDEST PUSH1 0x40 MLOAD PUSH3 0x461BCD PUSH1 0xE5 SHL DUP2 MSTORE PUSH1 0x20 PUSH1 0x4 DUP3 ADD MSTORE PUSH1 0xC PUSH1 0x24 DUP3 ADD MSTORE PUSH12 0x496E76616C69642073697A65 PUSH1 0xA0 SHL PUSH1 0x44 DUP3 ADD MSTORE PUSH1 0x64 SWAP1 REVERT JUMPDEST ISZERO PUSH2 0xDCE JUMPI JUMP JUMPDEST PUSH1 0x40 MLOAD PUSH3 0x461BCD PUSH1 0xE5 SHL DUP2 MSTORE PUSH1 0x20 PUSH1 0x4 DUP3 ADD MSTORE PUSH1 0xF PUSH1 0x24 DUP3 ADD MSTORE PUSH15 0x456D707479207472616E7366657273 PUSH1 0x88 SHL PUSH1 0x44 DUP3 ADD MSTORE PUSH1 0x64 SWAP1 REVERT JUMPDEST ISZERO PUSH2 0xE0C JUMPI JUMP JUMPDEST PUSH1 0x40 MLOAD PUSH3 0x461BCD PUSH1 0xE5 SHL DUP2 MSTORE PUSH1 0x20 PUSH1 0x4 DUP3 ADD MSTORE PUSH1 0xF PUSH1 0x24 DUP3 ADD MSTORE PUSH15 0x426174636820746F6F206C61726765 PUSH1 0x88 SHL PUSH1 0x44 DUP3 ADD MSTORE PUSH1 0x64 SWAP1 REVERT JUMPDEST PUSH4 0x4E487B71 PUSH1 0xE0 SHL PUSH1 0x0 MSTORE PUSH1 0x32 PUSH1 0x4 MSTORE PUSH1 0x24 PUSH1 0x0 REVERT JUMPDEST SWAP2 SWAP1 DUP2 LT ISZERO PUSH2 0xE69 JUMPI PUSH1 0x6 SHL ADD SWAP1 JUMP JUMPDEST PUSH2 0xE43 JUMP JUMPDEST PUSH4 0x4E487B71 PUSH1 0xE0 SHL PUSH1 0x0 MSTORE PUSH1 0x11 PUSH1 0x4 MSTORE PUSH1 0x24 PUSH1 0x0 REVERT JUMPDEST SWAP2 SWAP1 DUP3 ADD DUP1 SWAP3 GT PUSH2 0xE91 JUMPI JUMP JUMPDEST PUSH2 0xE6E JUMP JUMPDEST DUP2 DUP2 MUL SWAP3 SWAP2 DUP2 ISZERO SWAP2 DUP5 DIV EQ OR ISZERO PUSH2 0xE91 JUMPI JUMP JUMPDEST ISZERO PUSH2 0xEB0 JUMPI JUMP JUMPDEST PUSH1 0x40 MLOAD PUSH3 0x461BCD PUSH1 0xE5 SHL DUP2 MSTORE PUSH1 0x20 PUSH1 0x4 DUP3 ADD MSTORE PUSH1 0x21 PUSH1 0x24 DUP3 ADD MSTORE PUSH32 0x496E73756666696369656E742076616C75652028616D6F756E74202B20666565 PUSH1 0x44 DUP3 ADD MSTORE PUSH1 0x29 PUSH1 0xF8 SHL PUSH1 0x64 DUP3 ADD MSTORE PUSH1 0x84 SWAP1 REVERT JUMPDEST PUSH8 0xFFFFFFFFFFFFFFFF DUP2 GT PUSH2 0xCD7 JUMPI PUSH1 0x5 SHL PUSH1 0x20 ADD SWAP1 JUMP JUMPDEST SWAP1 PUSH2 0xF21 DUP3 PUSH2 0xEFF JUMP JUMPDEST PUSH2 0xF2E PUSH1 0x40 MLOAD SWAP2 DUP3 PUSH2 0xCB5 JUMP JUMPDEST DUP3 DUP2 MSTORE DUP1 SWAP3 PUSH2 0xF3F PUSH1 0x1F NOT SWAP2 PUSH2 0xEFF JUMP JUMPDEST ADD PUSH1 0x0 JUMPDEST DUP2 DUP2 LT PUSH2 0xF4F JUMPI POP POP POP JUMP JUMPDEST PUSH1 0x40 MLOAD SWAP1 PUSH1 0x80 DUP3 ADD SWAP2 DUP1 DUP4 LT PUSH8 0xFFFFFFFFFFFFFFFF DUP5 GT OR PUSH2 0xCD7 JUMPI PUSH1 0x20 SWAP3 PUSH1 0x40 MSTORE PUSH1 0x0 DUP2 MSTORE PUSH1 0x0 DUP4 DUP3 ADD MSTORE PUSH1 0x0 PUSH1 0x40 DUP3 ADD MSTORE PUSH1 0x60 DUP1 DUP3 ADD MSTORE DUP3 DUP3 DUP7 ADD ADD MSTORE ADD PUSH2 0xF43 JUMP JUMPDEST CALLDATALOAD PUSH2 0xF9E DUP2 PUSH2 0x7F3 JUMP JUMPDEST SWAP1 JUMP JUMPDEST PUSH1 0x0 NOT DUP2 EQ PUSH2 0xE91 JUMPI PUSH1 0x1 ADD SWAP1 JUMP JUMPDEST DUP1 MLOAD DUP3 LT ISZERO PUSH2 0xE69 JUMPI PUSH1 0x20 SWAP2 PUSH1 0x5 SHL ADD ADD SWAP1 JUMP JUMPDEST SWAP1 SWAP3 PUSH1 0x80 SWAP3 PUSH2 0xF9E SWAP6 SWAP5 PUSH1 0x1 DUP1 PUSH1 0xA0 SHL SUB AND DUP4 MSTORE PUSH1 0x20 DUP4 ADD MSTORE ISZERO ISZERO PUSH1 0x40 DUP3 ADD MSTORE DUP2 PUSH1 0x60 DUP3 ADD MSTORE ADD SWAP1 PUSH2 0x3EE JUMP JUMPDEST SWAP2 SWAP1 DUP3 SUB SWAP2 DUP3 GT PUSH2 0xE91 JUMPI JUMP JUMPDEST ISZERO PUSH2 0x1005 JUMPI JUMP JUMPDEST PUSH1 0x40 MLOAD PUSH3 0x461BCD PUSH1 0xE5 SHL DUP2 MSTORE PUSH1 0x20 PUSH1 0x4 DUP3 ADD MSTORE PUSH1 0x13 PUSH1 0x24 DUP3 ADD MSTORE PUSH19 0x119959481D1C985B9CD9995C8819985A5B1959 PUSH1 0x6A SHL PUSH1 0x44 DUP3 ADD MSTORE PUSH1 0x64 SWAP1 REVERT JUMPDEST ISZERO PUSH2 0x1047 JUMPI JUMP JUMPDEST PUSH1 0x40 MLOAD PUSH3 0x461BCD PUSH1 0xE5 SHL DUP2 MSTORE PUSH1 0x20 PUSH1 0x4 DUP3 ADD MSTORE PUSH1 0x1B PUSH1 0x24 DUP3 ADD MSTORE PUSH32 0x496E73756666696369656E74206E617469766520666F72206665650000000000 PUSH1 0x44 DUP3 ADD MSTORE PUSH1 0x64 SWAP1 REVERT JUMPDEST PUSH1 0x0 SLOAD PUSH1 0x1 PUSH1 0x1 PUSH1 0xA0 SHL SUB AND CALLER SUB PUSH2 0x10A0 JUMPI JUMP JUMPDEST PUSH4 0x118CDAA7 PUSH1 0xE0 SHL PUSH1 0x0 MSTORE CALLER PUSH1 0x4 MSTORE PUSH1 0x24 PUSH1 0x0 REVERT JUMPDEST PUSH1 0x0 DUP1 DUP1 SWAP4 DUP2 SWAP4 GAS CALL PUSH2 0x10C6 PUSH2 0xD1E JUMP JUMPDEST SWAP1 PUSH2 0x111C JUMPI DUP1 MLOAD PUSH1 0x0 SWAP2 SWAP1 PUSH1 0x44 GT PUSH2 0x10EA JUMPI PUSH2 0x10E2 SWAP2 POP PUSH2 0x1391 JUMP JUMPDEST SWAP1 JUMPDEST PUSH1 0x0 SWAP2 SWAP1 JUMP JUMPDEST POP POP PUSH1 0x40 MLOAD PUSH2 0x10FA PUSH1 0x40 DUP3 PUSH2 0xCB5 JUMP JUMPDEST PUSH1 0xF DUP2 MSTORE PUSH15 0x151C985B9CD9995C8819985A5B1959 PUSH1 0x8A SHL PUSH1 0x20 DUP3 ADD MSTORE SWAP1 PUSH2 0x10E4 JUMP JUMPDEST POP PUSH1 0x1 SWAP1 PUSH1 0x40 MLOAD PUSH2 0x112E PUSH1 0x20 DUP3 PUSH2 0xCB5 JUMP JUMPDEST PUSH1 0x0 DUP2 MSTORE SWAP1 JUMP JUMPDEST ISZERO PUSH2 0x113C JUMPI JUMP JUMPDEST PUSH1 0x40 MLOAD PUSH3 0x461BCD PUSH1 0xE5 SHL DUP2 MSTORE PUSH1 0x20 PUSH1 0x4 DUP3 ADD MSTORE PUSH1 0x1C PUSH1 0x24 DUP3 ADD MSTORE PUSH32 0x496E73756666696369656E7420746F6B656E20616C6C6F77616E636500000000 PUSH1 0x44 DUP3 ADD MSTORE PUSH1 0x64 SWAP1 REVERT JUMPDEST PUSH1 0x40 MLOAD PUSH4 0x6EB1769F PUSH1 0xE1 SHL DUP2 MSTORE CALLER PUSH1 0x4 DUP3 ADD MSTORE ADDRESS PUSH1 0x24 DUP3 ADD MSTORE SWAP2 SWAP1 PUSH1 0x20 SWAP1 DUP4 SWAP1 PUSH1 0x44 SWAP1 DUP3 SWAP1 PUSH1 0x1 PUSH1 0x1 PUSH1 0xA0 SHL SUB AND GAS STATICCALL DUP1 ISZERO PUSH2 0x11FF JUMPI PUSH1 0x0 SWAP1 PUSH2 0x11CB JUMPI JUMPDEST PUSH2 0xCEB SWAP3 POP LT ISZERO PUSH2 0x1135 JUMP JUMPDEST POP PUSH1 0x20 DUP3 RETURNDATASIZE PUSH1 0x20 GT PUSH2 0x11F7 JUMPI JUMPDEST DUP2 PUSH2 0x11E5 PUSH1 0x20 SWAP4 DUP4 PUSH2 0xCB5 JUMP JUMPDEST DUP2 ADD SUB SLT PUSH2 0x15F JUMPI PUSH2 0xCEB SWAP2 MLOAD PUSH2 0x11BF JUMP JUMPDEST RETURNDATASIZE SWAP2 POP PUSH2 0x11D8 JUMP JUMPDEST PUSH1 0x40 MLOAD RETURNDATASIZE PUSH1 0x0 DUP3 RETURNDATACOPY RETURNDATASIZE SWAP1 REVERT JUMPDEST SWAP1 DUP2 PUSH1 0x20 SWAP2 SUB SLT PUSH2 0x15F JUMPI MLOAD DUP1 ISZERO ISZERO DUP2 SUB PUSH2 0x15F JUMPI SWAP1 JUMP JUMPDEST PUSH1 0x0 SWAP1 PUSH1 0x3 RETURNDATASIZE GT PUSH2 0x1230 JUMPI JUMP JUMPDEST SWAP1 POP PUSH1 0x4 PUSH1 0x0 DUP1 RETURNDATACOPY PUSH1 0x0 MLOAD PUSH1 0xE0 SHR SWAP1 JUMP JUMPDEST PUSH1 0x0 PUSH1 0x44 RETURNDATASIZE LT PUSH2 0xF9E JUMPI PUSH1 0x40 MLOAD RETURNDATASIZE PUSH1 0x3 NOT ADD PUSH1 0x4 DUP3 RETURNDATACOPY DUP1 MLOAD SWAP2 RETURNDATASIZE PUSH1 0x24 DUP5 ADD GT PUSH8 0xFFFFFFFFFFFFFFFF DUP5 GT OR PUSH2 0x12B0 JUMPI DUP3 DUP3 ADD SWAP3 DUP4 MLOAD SWAP2 PUSH8 0xFFFFFFFFFFFFFFFF DUP4 GT PUSH2 0x12A8 JUMPI RETURNDATASIZE DUP5 ADD PUSH1 0x3 NOT ADD DUP6 DUP5 ADD PUSH1 0x20 ADD GT PUSH2 0x12A8 JUMPI POP PUSH2 0xF9E SWAP3 SWAP2 ADD PUSH1 0x20 ADD SWAP1 PUSH2 0xCB5 JUMP JUMPDEST SWAP5 SWAP4 POP POP POP POP JUMP JUMPDEST SWAP3 SWAP2 POP POP JUMP JUMPDEST PUSH1 0x40 MLOAD SWAP1 PUSH2 0x12C5 PUSH1 0x40 DUP4 PUSH2 0xCB5 JUMP JUMPDEST PUSH1 0xD DUP3 MSTORE PUSH13 0x2AB735B737BBB71032B93937B9 PUSH1 0x99 SHL PUSH1 0x20 DUP4 ADD MSTORE JUMP JUMPDEST PUSH1 0x40 MLOAD PUSH4 0x23B872DD PUSH1 0xE0 SHL DUP2 MSTORE CALLER PUSH1 0x4 DUP3 ADD MSTORE PUSH1 0x1 PUSH1 0x1 PUSH1 0xA0 SHL SUB SWAP3 DUP4 AND PUSH1 0x24 DUP3 ADD MSTORE PUSH1 0x44 DUP2 ADD SWAP4 SWAP1 SWAP4 MSTORE PUSH1 0x20 SWAP2 DUP4 SWAP2 PUSH1 0x64 SWAP2 DUP4 SWAP2 PUSH1 0x0 SWAP2 AND GAS CALL SWAP1 DUP2 PUSH2 0x1364 JUMPI JUMPDEST POP PUSH2 0x1359 JUMPI PUSH2 0x1330 PUSH2 0x1223 JUMP JUMPDEST PUSH4 0x8C379A0 EQ PUSH2 0x1346 JUMPI JUMPDEST PUSH1 0x0 SWAP1 PUSH2 0xF9E PUSH2 0x12B6 JUMP JUMPDEST PUSH2 0x134E PUSH2 0x1241 JUMP JUMPDEST DUP1 PUSH2 0x10E2 JUMPI POP PUSH2 0x133B JUMP JUMPDEST PUSH1 0x1 SWAP1 PUSH2 0xF9E PUSH2 0xD09 JUMP JUMPDEST PUSH2 0x1385 SWAP1 PUSH1 0x20 RETURNDATASIZE PUSH1 0x20 GT PUSH2 0x138A JUMPI JUMPDEST PUSH2 0x137D DUP2 DUP4 PUSH2 0xCB5 JUMP JUMPDEST DUP2 ADD SWAP1 PUSH2 0x120B JUMP JUMPDEST PUSH2 0x1323 JUMP JUMPDEST POP RETURNDATASIZE PUSH2 0x1373 JUMP JUMPDEST PUSH1 0x44 DUP2 MLOAD LT PUSH2 0x140E JUMPI PUSH1 0x4 DUP2 ADD MLOAD DUP2 ADD PUSH1 0x24 DUP2 ADD SWAP2 SWAP1 PUSH1 0x20 SWAP1 DUP3 SWAP1 SUB SLT PUSH2 0x15F JUMPI PUSH1 0x24 DUP2 ADD MLOAD SWAP1 PUSH8 0xFFFFFFFFFFFFFFFF DUP3 GT PUSH2 0x15F JUMPI ADD DUP2 PUSH1 0x43 DUP3 ADD SLT ISZERO PUSH2 0x15F JUMPI PUSH1 0x24 DUP2 ADD MLOAD PUSH2 0x13E1 DUP2 PUSH2 0xCED JUMP JUMPDEST SWAP3 PUSH2 0x13EF PUSH1 0x40 MLOAD SWAP5 DUP6 PUSH2 0xCB5 JUMP JUMPDEST DUP2 DUP5 MSTORE PUSH1 0x44 DUP4 DUP4 ADD ADD GT PUSH2 0x15F JUMPI PUSH2 0xF9E SWAP2 PUSH1 0x44 PUSH1 0x20 DUP6 ADD SWAP2 ADD PUSH2 0x3CB JUMP JUMPDEST POP PUSH1 0x40 MLOAD PUSH2 0x141D PUSH1 0x40 DUP3 PUSH2 0xCB5 JUMP JUMPDEST PUSH1 0xE DUP2 MSTORE PUSH14 0x155B9ADB9BDDDB881C995D995C9D PUSH1 0x92 SHL PUSH1 0x20 DUP3 ADD MSTORE SWAP1 JUMP INVALID 0xA6 0xDF GAS SMOD DUP15 PUSH7 0xF7B0E1C1657E07 0xC0 0xD9 0x4D 0xC5 DIV PUSH24 0x62340D58AA99C7ACFE987F5475A264697066735822122099 0xE6 ADDRESS 0xFB STATICCALL CHAINID XOR 0xFB SELFDESTRUCT PUSH23 0xC8E630CCC50FE3B4E0C6A342DF7D3DA45C1117025C3B64 PUSH20 0x6F6C634300081C00330000000000000000000000 "},"methodIdentifiers":{"batchTransferNative((address,uint256)[])":"6d227299","batchTransferToken(address,(address,uint256)[])":"929f8f2f","calculateFee(uint256)":"99a5d747","feeCollector()":"c415b95c","getFeeConfig()":"5fbbc0d2","getMaxErc20BatchSize()":"ee92b660","getMaxNativeBatchSize()":"4d4d5c34","getPendingWithdrawal(address)":"7ee8b2f8","maxErc20BatchSize()":"19063ffa","maxNativeBatchSize()":"9e3650c9","owner()":"8da5cb5b","pendingWithdrawals(address)":"f3f43703","perAddressFee()":"41f27758","renounceOwnership()":"715018a6","setFeeCollector(address)":"a42dce80","setFeeConfig(uint256)":"13b971fe","setMaxErc20BatchSize(uint256)":"60124fee","setMaxNativeBatchSize(uint256)":"61599189","transferOwnership(address)":"f2fde38b","withdraw()":"3ccfd60b"}}}}}