{"contracts/launch/V2LaunchFactory.sol":{"V2LaunchFactory":{"abi":[{"inputs":[{"internalType":"address","name":"router_","type":"address"},{"internalType":"address","name":"tokenImplementation_","type":"address"}],"stateMutability":"nonpayable","type":"constructor"},{"inputs":[],"name":"FailedDeployment","type":"error"},{"inputs":[{"internalType":"uint256","name":"balance","type":"uint256"},{"internalType":"uint256","name":"needed","type":"uint256"}],"name":"InsufficientBalance","type":"error"},{"anonymous":false,"inputs":[{"indexed":true,"internalType":"address","name":"user","type":"address"},{"indexed":true,"internalType":"address","name":"token","type":"address"},{"indexed":true,"internalType":"address","name":"pair","type":"address"},{"indexed":false,"internalType":"address","name":"lpLock","type":"address"},{"indexed":false,"internalType":"uint256","name":"lockId","type":"uint256"}],"name":"Launched","type":"event"},{"inputs":[{"components":[{"internalType":"string","name":"name","type":"string"},{"internalType":"string","name":"symbol","type":"string"},{"internalType":"uint256","name":"totalSupplyRaw","type":"uint256"},{"internalType":"address","name":"marketingWallet","type":"address"},{"components":[{"internalType":"uint16","name":"buyMarketingBps","type":"uint16"},{"internalType":"uint16","name":"buyLiquidityBps","type":"uint16"},{"internalType":"uint16","name":"buyBurnBps","type":"uint16"},{"internalType":"uint16","name":"sellMarketingBps","type":"uint16"},{"internalType":"uint16","name":"sellLiquidityBps","type":"uint16"},{"internalType":"uint16","name":"sellBurnBps","type":"uint16"}],"internalType":"struct V2LaunchFactory.Fees","name":"fees","type":"tuple"},{"components":[{"internalType":"uint256","name":"maxGasPriceWei","type":"uint256"},{"internalType":"uint256","name":"deadBlocks","type":"uint256"},{"internalType":"bool","name":"revertEarlyBuys","type":"bool"},{"internalType":"uint256","name":"maxTxAmount","type":"uint256"},{"internalType":"uint256","name":"maxWalletAmount","type":"uint256"}],"internalType":"struct V2LaunchFactory.Limits","name":"limits","type":"tuple"}],"internalType":"struct V2LaunchFactory.TokenConfig","name":"cfg","type":"tuple"},{"components":[{"internalType":"uint256","name":"tokenAmount","type":"uint256"},{"internalType":"uint256","name":"ethAmount","type":"uint256"}],"internalType":"struct V2LaunchFactory.Liquidity","name":"liq","type":"tuple"},{"internalType":"address","name":"lpBeneficiary","type":"address"},{"internalType":"uint256","name":"lpLockSeconds","type":"uint256"},{"internalType":"address","name":"lpLockAddress","type":"address"}],"name":"launch","outputs":[{"internalType":"address","name":"tokenAddr","type":"address"},{"internalType":"address","name":"pairAddr","type":"address"},{"internalType":"address","name":"lockAddr","type":"address"},{"internalType":"uint256","name":"lockId","type":"uint256"}],"stateMutability":"payable","type":"function"},{"inputs":[],"name":"router","outputs":[{"internalType":"contract IUniswapV2Router02Factory","name":"","type":"address"}],"stateMutability":"view","type":"function"},{"inputs":[],"name":"tokenImplementation","outputs":[{"internalType":"address","name":"","type":"address"}],"stateMutability":"view","type":"function"}],"evm":{"bytecode":{"linkReferences":{},"object":"60c03461011157601f6117f738819003918201601f19168301916001600160401b0383118484101761011657808492604094855283398101031261011157610052602061004b8361012c565b920161012c565b906001600160a01b039081169081156100e1578216156100ae5760805260a0526040516116b6908161014182396080518181816057015281816103be0152818161044e01526104d6015260a0518181816101280152610b790152f35b60405162461bcd60e51b815260206004820152600b60248201526a0746f6b656e496d706c3d360ac1b6044820152606490fd5b60405162461bcd60e51b81526020600482015260086024820152670726f757465723d360c41b6044820152606490fd5b600080fd5b634e487b7160e01b600052604160045260246000fd5b51906001600160a01b03821682036101115756fe608080604052600436101561001357600080fd5b600090813560e01c9081632f3a3d5d14610b65575080636fc2e69a146100895763f887ea401461004257600080fd5b346100865780600319360112610086576040517f00000000000000000000000000000000000000000000000000000000000000006001600160a01b03168152602090f35b80fd5b5060c03660031901126100865767ffffffffffffffff60043511610086576101e060043536036003190112610086576040366023190112610086576064356001600160a01b03811681036109fa5760a4356001600160a01b03811690036109fa576044600435013515610b35576001600160a01b03811615610b005760843515610acb573460443503610a8d57602435151580610a82575b15610a4f577f0000000000000000000000000000000000000000000000000000000000000000608881901c62ffffff16763d602d80600a3d3981f3363d3d373d3d3d363d7300000017835260781b6e5af43d82803e903d91602b57fd5bf3176020526001600160a01b036037600984f016908115610a3d576101bc836004356004016101ad8180610c0c565b93909160246004350190610c0c565b90939060043560640135906001600160a01b0382168203610a3957873b15610a3957604051631d1ee28760e21b815230600482015260a06024820152958694859461022293916102109160a4880191610c3f565b85810360031901604487015291610c3f565b6004356044013560648401526001600160a01b039091166084830152038183875af180156108dd57610a26575b508261025f608460043501610c60565b61026d60a460043501610c60565b9061027c60c460043501610c60565b91853b1561092957604051636951a07960e01b815261ffff9283166004820152908216602482015291166044820152818160648183885af180156107e257610a12575b506102ce60e460043501610c60565b6102dd61010460043501610c60565b906102ed61012460043501610c60565b91853b1561092957604051637e3615ed60e11b815261ffff9283166004820152908216602482015291166044820152818160648183885af180156107e2576109fe575b50610184600435013580151581036109fa57833b156109fa5760405190639f52256b60e01b82526101446004350135600483015261016460043501356024830152151560448201526101a4600435013560648201526101c460043501356084820152818160a48183885af180156107e2576109e6575b5050813b156109e25760405163c0d7865560e01b81527f00000000000000000000000000000000000000000000000000000000000000006001600160a01b031660048201528390818160248183885af180156107e2576109ce575b50506040516324dead2f60e11b8152602081600481865afa9081156108dd57849161098c575b506001600160a01b0381161561095e5760405163095ea7b360e01b81526001600160a01b037f0000000000000000000000000000000000000000000000000000000000000000166004820152602480359082015260208160448188885af180156109345761093f575b5060405163f305d71960e01b815283600482015260243560248201528460448201528460648201523060848201524260a482015260608160c48160443560018060a01b037f0000000000000000000000000000000000000000000000000000000000000000165af1801561093457610905575b5060a4356001600160a01b03166108fc57604051610a118082019082821067ffffffffffffffff8311176108e857908291610c708339039085f080156108dd576001600160a01b0316905b6040516370a0823160e01b8152306004820152916020836024816001600160a01b0386165afa9283156108355786936108a9575b5082156108735760405163095ea7b360e01b81526001600160a01b038216600482015260248101849052602081806044810103818a6001600160a01b0388165af1801561078857610854575b50608435420180421161084057604051637b546a8560e11b81526001600160a01b038481166004830152958616602482015260448101949094526064840152919282169160208460848189875af1938415610835578694610801575b50843b156107de576040516322a3148f60e21b815286908181600481838b5af180156107e2576107ed575b5050843b156107de5760405163f2fde38b60e01b815233600482015286908181602481838b5af180156107e2576107ca575b50506040516370a0823160e01b8152306004820152602081602481895afa908115610788578791610793575b5080610725575b50604080516001600160a01b039283168152602081018690526080975091831691869133917f358e82117a0869f9749b4cc3096953b1c9307903561af80988389c2689f453079190a4604080519485526001600160a01b039190911660208501528301526060820152f35b60405163a9059cbb60e01b815233600482015260248101919091526020816044818a8a5af180156107885760809750156106ba5761077a9060203d602011610781575b6107728183610bd2565b810190610bf4565b50386106ba565b503d610768565b6040513d89823e3d90fd5b90506020813d6020116107c2575b816107ae60209383610bd2565b810103126107bd5751386106b3565b600080fd5b3d91506107a1565b6107d390610ba8565b6107de578538610687565b8580fd5b6040513d84823e3d90fd5b6107f690610ba8565b6107de578538610655565b9093506020813d60201161082d575b8161081d60209383610bd2565b810103126107bd5751923861062a565b3d9150610810565b6040513d88823e3d90fd5b634e487b7160e01b87526011600452602487fd5b61086c9060203d602011610781576107728183610bd2565b50386105ce565b60405162461bcd60e51b815260206004820152600e60248201526d1b9bc81314081c9958d95a5d995960921b6044820152606490fd5b9092506020813d6020116108d5575b816108c560209383610bd2565b810103126107bd57519138610582565b3d91506108b8565b6040513d86823e3d90fd5b634e487b7160e01b87526041600452602487fd5b60a4359061054e565b606090813d811161092d575b61091b8183610bd2565b810103126109295738610503565b8380fd5b503d610911565b6040513d87823e3d90fd5b6109579060203d602011610781576107728183610bd2565b5038610490565b60405162461bcd60e51b81526020600482015260066024820152650706169723d360d41b6044820152606490fd5b90506020813d6020116109c6575b816109a760209383610bd2565b8101031261092957516001600160a01b03811681036109295738610427565b3d915061099a565b6109d790610ba8565b6109e2578238610401565b8280fd5b6109ef90610ba8565b6109e25782386103a6565b5080fd5b610a0790610ba8565b6109e2578238610330565b610a1b90610ba8565b6109e25782386102bf565b610a3290939193610ba8565b913861024f565b8480fd5b60405163b06ebf3d60e01b8152600490fd5b60405162461bcd60e51b815260206004820152600b60248201526a06c69717569646974793d360ac1b6044820152606490fd5b506044351515610121565b60405162461bcd60e51b81526020600482015260166024820152751b5cd9cb9d985b1d5948084f48195d1a105b5bdd5b9d60521b6044820152606490fd5b60405162461bcd60e51b815260206004820152600d60248201526c06c6f636b5365636f6e64733d3609c1b6044820152606490fd5b60405162461bcd60e51b815260206004820152600d60248201526c062656e65666963696172793d3609c1b6044820152606490fd5b60405162461bcd60e51b81526020600482015260086024820152670737570706c793d360c41b6044820152606490fd5b9050346109fa57816003193601126109fa577f00000000000000000000000000000000000000000000000000000000000000006001600160a01b03168152602090f35b67ffffffffffffffff8111610bbc57604052565b634e487b7160e01b600052604160045260246000fd5b90601f8019910116810190811067ffffffffffffffff821117610bbc57604052565b908160209103126107bd575180151581036107bd5790565b903590601e19813603018212156107bd570180359067ffffffffffffffff82116107bd576020019181360383136107bd57565b908060209392818452848401376000828201840152601f01601f1916010190565b3561ffff811681036107bd579056fe6080806040523461001b5760016000556109f090816100218239f35b600080fdfe6040608081526004908136101561001557600080fd5b600090813560e01c8063070d66bf146107515780632e1a7d4d146105b35780633e8eb5a4146104d85780635a04fb691461040457806361b8ce8c146103e85780638978b2da146103b8578063f4dadc61146103455763f6a8d50a1461007957600080fd5b34610341576080366003190112610341576001600160a01b0391833583811690819003610341576100a861081a565b604435956064359183156103145786169384156102e15787156102b3574283111561027057805496600019881461025d5760058891600183018455888b8151926100f184610835565b89845260208401338152838501918c8352606086019384528060808701958c875260a08801998b8b528b5260016020528a20965116916bffffffffffffffffffffffff60a01b928388541617875581600188019151168382541617905560028601925116908254161790555160038301555185820155019051151560ff8019835416911617905585516323b872dd60e01b8152338382015230602482015288604482015260208160648185895af19182156102525791610223575b50156101ea57507f6422b526b1c8aecb4b5678d5c67a4a334dd9539d8da30a39a0f24b71a95faedc846020978793825191825289820152a451908152f35b606490602086519162461bcd60e51b835282015260136024820152721d1c985b9cd9995c919c9bdb4819985a5b1959606a1b6044820152fd5b610245915060203d60201161024b575b61023d8183610867565b810190610889565b386101ac565b503d610233565b8751903d90823e3d90fd5b506011602492634e487b7160e01b835252fd5b855162461bcd60e51b8152602081840152601960248201527f756e6c6f636b54696d65206d75737420626520667574757265000000000000006044820152606490fd5b855162461bcd60e51b815260208184015260086024820152670616d6f756e743d360c41b6044820152606490fd5b855162461bcd60e51b8152602081840152600d60248201526c062656e65666963696172793d3609c1b6044820152606490fd5b855162461bcd60e51b815260208184015260076024820152660746f6b656e3d360cc1b6044820152606490fd5b5080fd5b5082346103b45760203660031901126103b4578160c0938235815260016020522060018060a01b0391828254169383600184015416936002840154169060ff600560038601549486015495015416948151968752602087015285015260608401526080830152151560a0820152f35b8280fd5b509190346103e55760203660031901126103e557506103d7903561091e565b825191151582526020820152f35b80fd5b5034610341578160031936011261034157602091549051908152f35b508290346103b457806003193601126103b45781359061042261081a565b90828552600160205260018060a01b038092610447826001858a2001541633146108a1565b169384156104a9575060019083865281602052852061046d60ff600583015416156108de565b0180546001600160a01b03198116851790915516907f94cb47eeeeb76a68c4d24f7c656bc9e63d5bc82211fc7784b33e438103b2f8738480a480f35b6020606492519162461bcd60e51b8352820152600a60248201526906e65774f776e65723d360b41b6044820152fd5b508290346103b457806003193601126103b4578135906104f661081a565b90828552600160205260018060a01b03809261051b826001858a2001541633146108a1565b1693841561057e57506002908386526001602052852061054260ff600583015416156108de565b0180546001600160a01b03198116851790915516907fb46dd957666562116725549320e1a014fec61f371662e239650e548197f9f5ef8480a480f35b6020606492519162461bcd60e51b8352820152601060248201526f06e657742656e65666963696172793d360841b6044820152fd5b508290346103b45760208060031936011261074d578235918285526001825280852060058101908154956105ea60ff8816156108de565b600282019160018060a01b03938484541698893303610718578383015442106106e65760019060ff19161790558560038583541692019860448a54918c8951958694859363a9059cbb60e01b85528985015260248401525af19081156106dc5789916106bf575b501561068a5750907fcf7d23a3cbe4e8b36ff82fd1b05b1b17373dc7804b4ebbd6e2356716ef202372939291541694549051908152a380f35b835162461bcd60e51b8152908101859052600f60248201526e1d1c985b9cd9995c8819985a5b1959608a1b6044820152606490fd5b6106d69150863d881161024b5761023d8183610867565b89610651565b85513d8b823e3d90fd5b865162461bcd60e51b8152808501899052600c60248201526b1cdd1a5b1b081b1bd8dad95960a21b6044820152606490fd5b865162461bcd60e51b8152808501899052600f60248201526e6e6f742062656e656669636961727960881b6044820152606490fd5b8380fd5b503461034157806003193601126103415782359060243593828452600160205261078a60018060a01b03600184872001541633146108a1565b8284526001602052808285206107a760ff600583015416156108de565b0194855491828211156107e95750807f12c0f64f942f99aa5210c23a8ab729735389400457b66b06895b0700315c3b339495965582519182526020820152a280f35b606490602085519162461bcd60e51b8352820152600b60248201526a1b5d5cdd08195e1d195b9960aa1b6044820152fd5b602435906001600160a01b038216820361083057565b600080fd5b60c0810190811067ffffffffffffffff82111761085157604052565b634e487b7160e01b600052604160045260246000fd5b90601f8019910116810190811067ffffffffffffffff82111761085157604052565b90816020910312610830575180151581036108305790565b156108a857565b60405162461bcd60e51b815260206004820152600e60248201526d2737ba103637b1b59037bbb732b960911b6044820152606490fd5b156108e557565b60405162461bcd60e51b815260206004820152601160248201527030b63932b0b23c903bb4ba34323930bbb760791b6044820152606490fd5b9060009182526001602052604082209160a060405161093c81610835565b600180831b0380865416825280600187015416602083015260028601541660408201526003850154606082015260ff6005600487015496876080850152015416151591829101526109b457824210156109b4574283039283116109a0575060019190565b634e487b7160e01b81526011600452602490fd5b9150819056fea26469706673582212201a885df70a969e7e3f22230a2c6e7d458cd99897c74a0d7f994ee402fe94db6e64736f6c63430008140033a2646970667358221220767ad627064fe372c6c90e703c28066a4abcaa21d45f8ad1b94f207d7713546d64736f6c63430008140033","opcodes":"PUSH1 0xC0 CALLVALUE PUSH2 0x111 JUMPI PUSH1 0x1F PUSH2 0x17F7 CODESIZE DUP2 SWAP1 SUB SWAP2 DUP3 ADD PUSH1 0x1F NOT AND DUP4 ADD SWAP2 PUSH1 0x1 PUSH1 0x1 PUSH1 0x40 SHL SUB DUP4 GT DUP5 DUP5 LT OR PUSH2 0x116 JUMPI DUP1 DUP5 SWAP3 PUSH1 0x40 SWAP5 DUP6 MSTORE DUP4 CODECOPY DUP2 ADD SUB SLT PUSH2 0x111 JUMPI PUSH2 0x52 PUSH1 0x20 PUSH2 0x4B DUP4 PUSH2 0x12C JUMP JUMPDEST SWAP3 ADD PUSH2 0x12C JUMP JUMPDEST SWAP1 PUSH1 0x1 PUSH1 0x1 PUSH1 0xA0 SHL SUB SWAP1 DUP2 AND SWAP1 DUP2 ISZERO PUSH2 0xE1 JUMPI DUP3 AND ISZERO PUSH2 0xAE JUMPI PUSH1 0x80 MSTORE PUSH1 0xA0 MSTORE PUSH1 0x40 MLOAD PUSH2 0x16B6 SWAP1 DUP2 PUSH2 0x141 DUP3 CODECOPY PUSH1 0x80 MLOAD DUP2 DUP2 DUP2 PUSH1 0x57 ADD MSTORE DUP2 DUP2 PUSH2 0x3BE ADD MSTORE DUP2 DUP2 PUSH2 0x44E ADD MSTORE PUSH2 0x4D6 ADD MSTORE PUSH1 0xA0 MLOAD DUP2 DUP2 DUP2 PUSH2 0x128 ADD MSTORE PUSH2 0xB79 ADD MSTORE RETURN JUMPDEST PUSH1 0x40 MLOAD PUSH3 0x461BCD PUSH1 0xE5 SHL DUP2 MSTORE PUSH1 0x20 PUSH1 0x4 DUP3 ADD MSTORE PUSH1 0xB PUSH1 0x24 DUP3 ADD MSTORE PUSH11 0x746F6B656E496D706C3D3 PUSH1 0xAC SHL PUSH1 0x44 DUP3 ADD MSTORE PUSH1 0x64 SWAP1 REVERT JUMPDEST PUSH1 0x40 MLOAD PUSH3 0x461BCD PUSH1 0xE5 SHL DUP2 MSTORE PUSH1 0x20 PUSH1 0x4 DUP3 ADD MSTORE PUSH1 0x8 PUSH1 0x24 DUP3 ADD MSTORE PUSH8 0x726F757465723D3 PUSH1 0xC4 SHL PUSH1 0x44 DUP3 ADD MSTORE PUSH1 0x64 SWAP1 REVERT JUMPDEST PUSH1 0x0 DUP1 REVERT JUMPDEST PUSH4 0x4E487B71 PUSH1 0xE0 SHL PUSH1 0x0 MSTORE PUSH1 0x41 PUSH1 0x4 MSTORE PUSH1 0x24 PUSH1 0x0 REVERT JUMPDEST MLOAD SWAP1 PUSH1 0x1 PUSH1 0x1 PUSH1 0xA0 SHL SUB DUP3 AND DUP3 SUB PUSH2 0x111 JUMPI JUMP INVALID PUSH1 0x80 DUP1 PUSH1 0x40 MSTORE PUSH1 0x4 CALLDATASIZE LT ISZERO PUSH2 0x13 JUMPI PUSH1 0x0 DUP1 REVERT JUMPDEST PUSH1 0x0 SWAP1 DUP2 CALLDATALOAD PUSH1 0xE0 SHR SWAP1 DUP2 PUSH4 0x2F3A3D5D EQ PUSH2 0xB65 JUMPI POP DUP1 PUSH4 0x6FC2E69A EQ PUSH2 0x89 JUMPI PUSH4 0xF887EA40 EQ PUSH2 0x42 JUMPI PUSH1 0x0 DUP1 REVERT JUMPDEST CALLVALUE PUSH2 0x86 JUMPI DUP1 PUSH1 0x3 NOT CALLDATASIZE ADD SLT PUSH2 0x86 JUMPI PUSH1 0x40 MLOAD PUSH32 0x0 PUSH1 0x1 PUSH1 0x1 PUSH1 0xA0 SHL SUB AND DUP2 MSTORE PUSH1 0x20 SWAP1 RETURN JUMPDEST DUP1 REVERT JUMPDEST POP PUSH1 0xC0 CALLDATASIZE PUSH1 0x3 NOT ADD SLT PUSH2 0x86 JUMPI PUSH8 0xFFFFFFFFFFFFFFFF PUSH1 0x4 CALLDATALOAD GT PUSH2 0x86 JUMPI PUSH2 0x1E0 PUSH1 0x4 CALLDATALOAD CALLDATASIZE SUB PUSH1 0x3 NOT ADD SLT PUSH2 0x86 JUMPI PUSH1 0x40 CALLDATASIZE PUSH1 0x23 NOT ADD SLT PUSH2 0x86 JUMPI PUSH1 0x64 CALLDATALOAD PUSH1 0x1 PUSH1 0x1 PUSH1 0xA0 SHL SUB DUP2 AND DUP2 SUB PUSH2 0x9FA JUMPI PUSH1 0xA4 CALLDATALOAD PUSH1 0x1 PUSH1 0x1 PUSH1 0xA0 SHL SUB DUP2 AND SWAP1 SUB PUSH2 0x9FA JUMPI PUSH1 0x44 PUSH1 0x4 CALLDATALOAD ADD CALLDATALOAD ISZERO PUSH2 0xB35 JUMPI PUSH1 0x1 PUSH1 0x1 PUSH1 0xA0 SHL SUB DUP2 AND ISZERO PUSH2 0xB00 JUMPI PUSH1 0x84 CALLDATALOAD ISZERO PUSH2 0xACB JUMPI CALLVALUE PUSH1 0x44 CALLDATALOAD SUB PUSH2 0xA8D JUMPI PUSH1 0x24 CALLDATALOAD ISZERO ISZERO DUP1 PUSH2 0xA82 JUMPI JUMPDEST ISZERO PUSH2 0xA4F JUMPI PUSH32 0x0 PUSH1 0x88 DUP2 SWAP1 SHR PUSH3 0xFFFFFF AND PUSH23 0x3D602D80600A3D3981F3363D3D373D3D3D363D73000000 OR DUP4 MSTORE PUSH1 0x78 SHL PUSH15 0x5AF43D82803E903D91602B57FD5BF3 OR PUSH1 0x20 MSTORE PUSH1 0x1 PUSH1 0x1 PUSH1 0xA0 SHL SUB PUSH1 0x37 PUSH1 0x9 DUP5 CREATE AND SWAP1 DUP2 ISZERO PUSH2 0xA3D JUMPI PUSH2 0x1BC DUP4 PUSH1 0x4 CALLDATALOAD PUSH1 0x4 ADD PUSH2 0x1AD DUP2 DUP1 PUSH2 0xC0C JUMP JUMPDEST SWAP4 SWAP1 SWAP2 PUSH1 0x24 PUSH1 0x4 CALLDATALOAD ADD SWAP1 PUSH2 0xC0C JUMP JUMPDEST SWAP1 SWAP4 SWAP1 PUSH1 0x4 CALLDATALOAD PUSH1 0x64 ADD CALLDATALOAD SWAP1 PUSH1 0x1 PUSH1 0x1 PUSH1 0xA0 SHL SUB DUP3 AND DUP3 SUB PUSH2 0xA39 JUMPI DUP8 EXTCODESIZE ISZERO PUSH2 0xA39 JUMPI PUSH1 0x40 MLOAD PUSH4 0x1D1EE287 PUSH1 0xE2 SHL DUP2 MSTORE ADDRESS PUSH1 0x4 DUP3 ADD MSTORE PUSH1 0xA0 PUSH1 0x24 DUP3 ADD MSTORE SWAP6 DUP7 SWAP5 DUP6 SWAP5 PUSH2 0x222 SWAP4 SWAP2 PUSH2 0x210 SWAP2 PUSH1 0xA4 DUP9 ADD SWAP2 PUSH2 0xC3F JUMP JUMPDEST DUP6 DUP2 SUB PUSH1 0x3 NOT ADD PUSH1 0x44 DUP8 ADD MSTORE SWAP2 PUSH2 0xC3F JUMP JUMPDEST PUSH1 0x4 CALLDATALOAD PUSH1 0x44 ADD CALLDATALOAD PUSH1 0x64 DUP5 ADD MSTORE PUSH1 0x1 PUSH1 0x1 PUSH1 0xA0 SHL SUB SWAP1 SWAP2 AND PUSH1 0x84 DUP4 ADD MSTORE SUB DUP2 DUP4 DUP8 GAS CALL DUP1 ISZERO PUSH2 0x8DD JUMPI PUSH2 0xA26 JUMPI JUMPDEST POP DUP3 PUSH2 0x25F PUSH1 0x84 PUSH1 0x4 CALLDATALOAD ADD PUSH2 0xC60 JUMP JUMPDEST PUSH2 0x26D PUSH1 0xA4 PUSH1 0x4 CALLDATALOAD ADD PUSH2 0xC60 JUMP JUMPDEST SWAP1 PUSH2 0x27C PUSH1 0xC4 PUSH1 0x4 CALLDATALOAD ADD PUSH2 0xC60 JUMP JUMPDEST SWAP2 DUP6 EXTCODESIZE ISZERO PUSH2 0x929 JUMPI PUSH1 0x40 MLOAD PUSH4 0x6951A079 PUSH1 0xE0 SHL DUP2 MSTORE PUSH2 0xFFFF SWAP3 DUP4 AND PUSH1 0x4 DUP3 ADD MSTORE SWAP1 DUP3 AND PUSH1 0x24 DUP3 ADD MSTORE SWAP2 AND PUSH1 0x44 DUP3 ADD MSTORE DUP2 DUP2 PUSH1 0x64 DUP2 DUP4 DUP9 GAS CALL DUP1 ISZERO PUSH2 0x7E2 JUMPI PUSH2 0xA12 JUMPI JUMPDEST POP PUSH2 0x2CE PUSH1 0xE4 PUSH1 0x4 CALLDATALOAD ADD PUSH2 0xC60 JUMP JUMPDEST PUSH2 0x2DD PUSH2 0x104 PUSH1 0x4 CALLDATALOAD ADD PUSH2 0xC60 JUMP JUMPDEST SWAP1 PUSH2 0x2ED PUSH2 0x124 PUSH1 0x4 CALLDATALOAD ADD PUSH2 0xC60 JUMP JUMPDEST SWAP2 DUP6 EXTCODESIZE ISZERO PUSH2 0x929 JUMPI PUSH1 0x40 MLOAD PUSH4 0x7E3615ED PUSH1 0xE1 SHL DUP2 MSTORE PUSH2 0xFFFF SWAP3 DUP4 AND PUSH1 0x4 DUP3 ADD MSTORE SWAP1 DUP3 AND PUSH1 0x24 DUP3 ADD MSTORE SWAP2 AND PUSH1 0x44 DUP3 ADD MSTORE DUP2 DUP2 PUSH1 0x64 DUP2 DUP4 DUP9 GAS CALL DUP1 ISZERO PUSH2 0x7E2 JUMPI PUSH2 0x9FE JUMPI JUMPDEST POP PUSH2 0x184 PUSH1 0x4 CALLDATALOAD ADD CALLDATALOAD DUP1 ISZERO ISZERO DUP2 SUB PUSH2 0x9FA JUMPI DUP4 EXTCODESIZE ISZERO PUSH2 0x9FA JUMPI PUSH1 0x40 MLOAD SWAP1 PUSH4 0x9F52256B PUSH1 0xE0 SHL DUP3 MSTORE PUSH2 0x144 PUSH1 0x4 CALLDATALOAD ADD CALLDATALOAD PUSH1 0x4 DUP4 ADD MSTORE PUSH2 0x164 PUSH1 0x4 CALLDATALOAD ADD CALLDATALOAD PUSH1 0x24 DUP4 ADD MSTORE ISZERO ISZERO PUSH1 0x44 DUP3 ADD MSTORE PUSH2 0x1A4 PUSH1 0x4 CALLDATALOAD ADD CALLDATALOAD PUSH1 0x64 DUP3 ADD MSTORE PUSH2 0x1C4 PUSH1 0x4 CALLDATALOAD ADD CALLDATALOAD PUSH1 0x84 DUP3 ADD MSTORE DUP2 DUP2 PUSH1 0xA4 DUP2 DUP4 DUP9 GAS CALL DUP1 ISZERO PUSH2 0x7E2 JUMPI PUSH2 0x9E6 JUMPI JUMPDEST POP POP DUP2 EXTCODESIZE ISZERO PUSH2 0x9E2 JUMPI PUSH1 0x40 MLOAD PUSH4 0xC0D78655 PUSH1 0xE0 SHL DUP2 MSTORE PUSH32 0x0 PUSH1 0x1 PUSH1 0x1 PUSH1 0xA0 SHL SUB AND PUSH1 0x4 DUP3 ADD MSTORE DUP4 SWAP1 DUP2 DUP2 PUSH1 0x24 DUP2 DUP4 DUP9 GAS CALL DUP1 ISZERO PUSH2 0x7E2 JUMPI PUSH2 0x9CE JUMPI JUMPDEST POP POP PUSH1 0x40 MLOAD PUSH4 0x24DEAD2F PUSH1 0xE1 SHL DUP2 MSTORE PUSH1 0x20 DUP2 PUSH1 0x4 DUP2 DUP7 GAS STATICCALL SWAP1 DUP2 ISZERO PUSH2 0x8DD JUMPI DUP5 SWAP2 PUSH2 0x98C JUMPI JUMPDEST POP PUSH1 0x1 PUSH1 0x1 PUSH1 0xA0 SHL SUB DUP2 AND ISZERO PUSH2 0x95E JUMPI PUSH1 0x40 MLOAD PUSH4 0x95EA7B3 PUSH1 0xE0 SHL DUP2 MSTORE PUSH1 0x1 PUSH1 0x1 PUSH1 0xA0 SHL SUB PUSH32 0x0 AND PUSH1 0x4 DUP3 ADD MSTORE PUSH1 0x24 DUP1 CALLDATALOAD SWAP1 DUP3 ADD MSTORE PUSH1 0x20 DUP2 PUSH1 0x44 DUP2 DUP9 DUP9 GAS CALL DUP1 ISZERO PUSH2 0x934 JUMPI PUSH2 0x93F JUMPI JUMPDEST POP PUSH1 0x40 MLOAD PUSH4 0xF305D719 PUSH1 0xE0 SHL DUP2 MSTORE DUP4 PUSH1 0x4 DUP3 ADD MSTORE PUSH1 0x24 CALLDATALOAD PUSH1 0x24 DUP3 ADD MSTORE DUP5 PUSH1 0x44 DUP3 ADD MSTORE DUP5 PUSH1 0x64 DUP3 ADD MSTORE ADDRESS PUSH1 0x84 DUP3 ADD MSTORE TIMESTAMP PUSH1 0xA4 DUP3 ADD MSTORE PUSH1 0x60 DUP2 PUSH1 0xC4 DUP2 PUSH1 0x44 CALLDATALOAD PUSH1 0x1 DUP1 PUSH1 0xA0 SHL SUB PUSH32 0x0 AND GAS CALL DUP1 ISZERO PUSH2 0x934 JUMPI PUSH2 0x905 JUMPI JUMPDEST POP PUSH1 0xA4 CALLDATALOAD PUSH1 0x1 PUSH1 0x1 PUSH1 0xA0 SHL SUB AND PUSH2 0x8FC JUMPI PUSH1 0x40 MLOAD PUSH2 0xA11 DUP1 DUP3 ADD SWAP1 DUP3 DUP3 LT PUSH8 0xFFFFFFFFFFFFFFFF DUP4 GT OR PUSH2 0x8E8 JUMPI SWAP1 DUP3 SWAP2 PUSH2 0xC70 DUP4 CODECOPY SUB SWAP1 DUP6 CREATE DUP1 ISZERO PUSH2 0x8DD JUMPI PUSH1 0x1 PUSH1 0x1 PUSH1 0xA0 SHL SUB AND SWAP1 JUMPDEST PUSH1 0x40 MLOAD PUSH4 0x70A08231 PUSH1 0xE0 SHL DUP2 MSTORE ADDRESS PUSH1 0x4 DUP3 ADD MSTORE SWAP2 PUSH1 0x20 DUP4 PUSH1 0x24 DUP2 PUSH1 0x1 PUSH1 0x1 PUSH1 0xA0 SHL SUB DUP7 AND GAS STATICCALL SWAP3 DUP4 ISZERO PUSH2 0x835 JUMPI DUP7 SWAP4 PUSH2 0x8A9 JUMPI JUMPDEST POP DUP3 ISZERO PUSH2 0x873 JUMPI PUSH1 0x40 MLOAD PUSH4 0x95EA7B3 PUSH1 0xE0 SHL DUP2 MSTORE PUSH1 0x1 PUSH1 0x1 PUSH1 0xA0 SHL SUB DUP3 AND PUSH1 0x4 DUP3 ADD MSTORE PUSH1 0x24 DUP2 ADD DUP5 SWAP1 MSTORE PUSH1 0x20 DUP2 DUP1 PUSH1 0x44 DUP2 ADD SUB DUP2 DUP11 PUSH1 0x1 PUSH1 0x1 PUSH1 0xA0 SHL SUB DUP9 AND GAS CALL DUP1 ISZERO PUSH2 0x788 JUMPI PUSH2 0x854 JUMPI JUMPDEST POP PUSH1 0x84 CALLDATALOAD TIMESTAMP ADD DUP1 TIMESTAMP GT PUSH2 0x840 JUMPI PUSH1 0x40 MLOAD PUSH4 0x7B546A85 PUSH1 0xE1 SHL DUP2 MSTORE PUSH1 0x1 PUSH1 0x1 PUSH1 0xA0 SHL SUB DUP5 DUP2 AND PUSH1 0x4 DUP4 ADD MSTORE SWAP6 DUP7 AND PUSH1 0x24 DUP3 ADD MSTORE PUSH1 0x44 DUP2 ADD SWAP5 SWAP1 SWAP5 MSTORE PUSH1 0x64 DUP5 ADD MSTORE SWAP2 SWAP3 DUP3 AND SWAP2 PUSH1 0x20 DUP5 PUSH1 0x84 DUP2 DUP10 DUP8 GAS CALL SWAP4 DUP5 ISZERO PUSH2 0x835 JUMPI DUP7 SWAP5 PUSH2 0x801 JUMPI JUMPDEST POP DUP5 EXTCODESIZE ISZERO PUSH2 0x7DE JUMPI PUSH1 0x40 MLOAD PUSH4 0x22A3148F PUSH1 0xE2 SHL DUP2 MSTORE DUP7 SWAP1 DUP2 DUP2 PUSH1 0x4 DUP2 DUP4 DUP12 GAS CALL DUP1 ISZERO PUSH2 0x7E2 JUMPI PUSH2 0x7ED JUMPI JUMPDEST POP POP DUP5 EXTCODESIZE ISZERO PUSH2 0x7DE JUMPI PUSH1 0x40 MLOAD PUSH4 0xF2FDE38B PUSH1 0xE0 SHL DUP2 MSTORE CALLER PUSH1 0x4 DUP3 ADD MSTORE DUP7 SWAP1 DUP2 DUP2 PUSH1 0x24 DUP2 DUP4 DUP12 GAS CALL DUP1 ISZERO PUSH2 0x7E2 JUMPI PUSH2 0x7CA JUMPI JUMPDEST POP POP PUSH1 0x40 MLOAD PUSH4 0x70A08231 PUSH1 0xE0 SHL DUP2 MSTORE ADDRESS PUSH1 0x4 DUP3 ADD MSTORE PUSH1 0x20 DUP2 PUSH1 0x24 DUP2 DUP10 GAS STATICCALL SWAP1 DUP2 ISZERO PUSH2 0x788 JUMPI DUP8 SWAP2 PUSH2 0x793 JUMPI JUMPDEST POP DUP1 PUSH2 0x725 JUMPI JUMPDEST POP PUSH1 0x40 DUP1 MLOAD PUSH1 0x1 PUSH1 0x1 PUSH1 0xA0 SHL SUB SWAP3 DUP4 AND DUP2 MSTORE PUSH1 0x20 DUP2 ADD DUP7 SWAP1 MSTORE PUSH1 0x80 SWAP8 POP SWAP2 DUP4 AND SWAP2 DUP7 SWAP2 CALLER SWAP2 PUSH32 0x358E82117A0869F9749B4CC3096953B1C9307903561AF80988389C2689F45307 SWAP2 SWAP1 LOG4 PUSH1 0x40 DUP1 MLOAD SWAP5 DUP6 MSTORE PUSH1 0x1 PUSH1 0x1 PUSH1 0xA0 SHL SUB SWAP2 SWAP1 SWAP2 AND PUSH1 0x20 DUP6 ADD MSTORE DUP4 ADD MSTORE PUSH1 0x60 DUP3 ADD MSTORE RETURN JUMPDEST PUSH1 0x40 MLOAD PUSH4 0xA9059CBB PUSH1 0xE0 SHL DUP2 MSTORE CALLER PUSH1 0x4 DUP3 ADD MSTORE PUSH1 0x24 DUP2 ADD SWAP2 SWAP1 SWAP2 MSTORE PUSH1 0x20 DUP2 PUSH1 0x44 DUP2 DUP11 DUP11 GAS CALL DUP1 ISZERO PUSH2 0x788 JUMPI PUSH1 0x80 SWAP8 POP ISZERO PUSH2 0x6BA JUMPI PUSH2 0x77A SWAP1 PUSH1 0x20 RETURNDATASIZE PUSH1 0x20 GT PUSH2 0x781 JUMPI JUMPDEST PUSH2 0x772 DUP2 DUP4 PUSH2 0xBD2 JUMP JUMPDEST DUP2 ADD SWAP1 PUSH2 0xBF4 JUMP JUMPDEST POP CODESIZE PUSH2 0x6BA JUMP JUMPDEST POP RETURNDATASIZE PUSH2 0x768 JUMP JUMPDEST PUSH1 0x40 MLOAD RETURNDATASIZE DUP10 DUP3 RETURNDATACOPY RETURNDATASIZE SWAP1 REVERT JUMPDEST SWAP1 POP PUSH1 0x20 DUP2 RETURNDATASIZE PUSH1 0x20 GT PUSH2 0x7C2 JUMPI JUMPDEST DUP2 PUSH2 0x7AE PUSH1 0x20 SWAP4 DUP4 PUSH2 0xBD2 JUMP JUMPDEST DUP2 ADD SUB SLT PUSH2 0x7BD JUMPI MLOAD CODESIZE PUSH2 0x6B3 JUMP JUMPDEST PUSH1 0x0 DUP1 REVERT JUMPDEST RETURNDATASIZE SWAP2 POP PUSH2 0x7A1 JUMP JUMPDEST PUSH2 0x7D3 SWAP1 PUSH2 0xBA8 JUMP JUMPDEST PUSH2 0x7DE JUMPI DUP6 CODESIZE PUSH2 0x687 JUMP JUMPDEST DUP6 DUP1 REVERT JUMPDEST PUSH1 0x40 MLOAD RETURNDATASIZE DUP5 DUP3 RETURNDATACOPY RETURNDATASIZE SWAP1 REVERT JUMPDEST PUSH2 0x7F6 SWAP1 PUSH2 0xBA8 JUMP JUMPDEST PUSH2 0x7DE JUMPI DUP6 CODESIZE PUSH2 0x655 JUMP JUMPDEST SWAP1 SWAP4 POP PUSH1 0x20 DUP2 RETURNDATASIZE PUSH1 0x20 GT PUSH2 0x82D JUMPI JUMPDEST DUP2 PUSH2 0x81D PUSH1 0x20 SWAP4 DUP4 PUSH2 0xBD2 JUMP JUMPDEST DUP2 ADD SUB SLT PUSH2 0x7BD JUMPI MLOAD SWAP3 CODESIZE PUSH2 0x62A JUMP JUMPDEST RETURNDATASIZE SWAP2 POP PUSH2 0x810 JUMP JUMPDEST PUSH1 0x40 MLOAD RETURNDATASIZE DUP9 DUP3 RETURNDATACOPY RETURNDATASIZE SWAP1 REVERT JUMPDEST PUSH4 0x4E487B71 PUSH1 0xE0 SHL DUP8 MSTORE PUSH1 0x11 PUSH1 0x4 MSTORE PUSH1 0x24 DUP8 REVERT JUMPDEST PUSH2 0x86C SWAP1 PUSH1 0x20 RETURNDATASIZE PUSH1 0x20 GT PUSH2 0x781 JUMPI PUSH2 0x772 DUP2 DUP4 PUSH2 0xBD2 JUMP JUMPDEST POP CODESIZE PUSH2 0x5CE JUMP JUMPDEST PUSH1 0x40 MLOAD PUSH3 0x461BCD PUSH1 0xE5 SHL DUP2 MSTORE PUSH1 0x20 PUSH1 0x4 DUP3 ADD MSTORE PUSH1 0xE PUSH1 0x24 DUP3 ADD MSTORE PUSH14 0x1B9BC81314081C9958D95A5D9959 PUSH1 0x92 SHL PUSH1 0x44 DUP3 ADD MSTORE PUSH1 0x64 SWAP1 REVERT JUMPDEST SWAP1 SWAP3 POP PUSH1 0x20 DUP2 RETURNDATASIZE PUSH1 0x20 GT PUSH2 0x8D5 JUMPI JUMPDEST DUP2 PUSH2 0x8C5 PUSH1 0x20 SWAP4 DUP4 PUSH2 0xBD2 JUMP JUMPDEST DUP2 ADD SUB SLT PUSH2 0x7BD JUMPI MLOAD SWAP2 CODESIZE PUSH2 0x582 JUMP JUMPDEST RETURNDATASIZE SWAP2 POP PUSH2 0x8B8 JUMP JUMPDEST PUSH1 0x40 MLOAD RETURNDATASIZE DUP7 DUP3 RETURNDATACOPY RETURNDATASIZE SWAP1 REVERT JUMPDEST PUSH4 0x4E487B71 PUSH1 0xE0 SHL DUP8 MSTORE PUSH1 0x41 PUSH1 0x4 MSTORE PUSH1 0x24 DUP8 REVERT JUMPDEST PUSH1 0xA4 CALLDATALOAD SWAP1 PUSH2 0x54E JUMP JUMPDEST PUSH1 0x60 SWAP1 DUP2 RETURNDATASIZE DUP2 GT PUSH2 0x92D JUMPI JUMPDEST PUSH2 0x91B DUP2 DUP4 PUSH2 0xBD2 JUMP JUMPDEST DUP2 ADD SUB SLT PUSH2 0x929 JUMPI CODESIZE PUSH2 0x503 JUMP JUMPDEST DUP4 DUP1 REVERT JUMPDEST POP RETURNDATASIZE PUSH2 0x911 JUMP JUMPDEST PUSH1 0x40 MLOAD RETURNDATASIZE DUP8 DUP3 RETURNDATACOPY RETURNDATASIZE SWAP1 REVERT JUMPDEST PUSH2 0x957 SWAP1 PUSH1 0x20 RETURNDATASIZE PUSH1 0x20 GT PUSH2 0x781 JUMPI PUSH2 0x772 DUP2 DUP4 PUSH2 0xBD2 JUMP JUMPDEST POP CODESIZE PUSH2 0x490 JUMP JUMPDEST PUSH1 0x40 MLOAD PUSH3 0x461BCD PUSH1 0xE5 SHL DUP2 MSTORE PUSH1 0x20 PUSH1 0x4 DUP3 ADD MSTORE PUSH1 0x6 PUSH1 0x24 DUP3 ADD MSTORE PUSH6 0x706169723D3 PUSH1 0xD4 SHL PUSH1 0x44 DUP3 ADD MSTORE PUSH1 0x64 SWAP1 REVERT JUMPDEST SWAP1 POP PUSH1 0x20 DUP2 RETURNDATASIZE PUSH1 0x20 GT PUSH2 0x9C6 JUMPI JUMPDEST DUP2 PUSH2 0x9A7 PUSH1 0x20 SWAP4 DUP4 PUSH2 0xBD2 JUMP JUMPDEST DUP2 ADD SUB SLT PUSH2 0x929 JUMPI MLOAD PUSH1 0x1 PUSH1 0x1 PUSH1 0xA0 SHL SUB DUP2 AND DUP2 SUB PUSH2 0x929 JUMPI CODESIZE PUSH2 0x427 JUMP JUMPDEST RETURNDATASIZE SWAP2 POP PUSH2 0x99A JUMP JUMPDEST PUSH2 0x9D7 SWAP1 PUSH2 0xBA8 JUMP JUMPDEST PUSH2 0x9E2 JUMPI DUP3 CODESIZE PUSH2 0x401 JUMP JUMPDEST DUP3 DUP1 REVERT JUMPDEST PUSH2 0x9EF SWAP1 PUSH2 0xBA8 JUMP JUMPDEST PUSH2 0x9E2 JUMPI DUP3 CODESIZE PUSH2 0x3A6 JUMP JUMPDEST POP DUP1 REVERT JUMPDEST PUSH2 0xA07 SWAP1 PUSH2 0xBA8 JUMP JUMPDEST PUSH2 0x9E2 JUMPI DUP3 CODESIZE PUSH2 0x330 JUMP JUMPDEST PUSH2 0xA1B SWAP1 PUSH2 0xBA8 JUMP JUMPDEST PUSH2 0x9E2 JUMPI DUP3 CODESIZE PUSH2 0x2BF JUMP JUMPDEST PUSH2 0xA32 SWAP1 SWAP4 SWAP2 SWAP4 PUSH2 0xBA8 JUMP JUMPDEST SWAP2 CODESIZE PUSH2 0x24F JUMP JUMPDEST DUP5 DUP1 REVERT JUMPDEST PUSH1 0x40 MLOAD PUSH4 0xB06EBF3D PUSH1 0xE0 SHL DUP2 MSTORE PUSH1 0x4 SWAP1 REVERT JUMPDEST PUSH1 0x40 MLOAD PUSH3 0x461BCD PUSH1 0xE5 SHL DUP2 MSTORE PUSH1 0x20 PUSH1 0x4 DUP3 ADD MSTORE PUSH1 0xB PUSH1 0x24 DUP3 ADD MSTORE PUSH11 0x6C69717569646974793D3 PUSH1 0xAC SHL PUSH1 0x44 DUP3 ADD MSTORE PUSH1 0x64 SWAP1 REVERT JUMPDEST POP PUSH1 0x44 CALLDATALOAD ISZERO ISZERO PUSH2 0x121 JUMP JUMPDEST PUSH1 0x40 MLOAD PUSH3 0x461BCD PUSH1 0xE5 SHL DUP2 MSTORE PUSH1 0x20 PUSH1 0x4 DUP3 ADD MSTORE PUSH1 0x16 PUSH1 0x24 DUP3 ADD MSTORE PUSH22 0x1B5CD9CB9D985B1D5948084F48195D1A105B5BDD5B9D PUSH1 0x52 SHL PUSH1 0x44 DUP3 ADD MSTORE PUSH1 0x64 SWAP1 REVERT JUMPDEST PUSH1 0x40 MLOAD PUSH3 0x461BCD PUSH1 0xE5 SHL DUP2 MSTORE PUSH1 0x20 PUSH1 0x4 DUP3 ADD MSTORE PUSH1 0xD PUSH1 0x24 DUP3 ADD MSTORE PUSH13 0x6C6F636B5365636F6E64733D3 PUSH1 0x9C SHL PUSH1 0x44 DUP3 ADD MSTORE PUSH1 0x64 SWAP1 REVERT JUMPDEST PUSH1 0x40 MLOAD PUSH3 0x461BCD PUSH1 0xE5 SHL DUP2 MSTORE PUSH1 0x20 PUSH1 0x4 DUP3 ADD MSTORE PUSH1 0xD PUSH1 0x24 DUP3 ADD MSTORE PUSH13 0x62656E65666963696172793D3 PUSH1 0x9C SHL PUSH1 0x44 DUP3 ADD MSTORE PUSH1 0x64 SWAP1 REVERT JUMPDEST PUSH1 0x40 MLOAD PUSH3 0x461BCD PUSH1 0xE5 SHL DUP2 MSTORE PUSH1 0x20 PUSH1 0x4 DUP3 ADD MSTORE PUSH1 0x8 PUSH1 0x24 DUP3 ADD MSTORE PUSH8 0x737570706C793D3 PUSH1 0xC4 SHL PUSH1 0x44 DUP3 ADD MSTORE PUSH1 0x64 SWAP1 REVERT JUMPDEST SWAP1 POP CALLVALUE PUSH2 0x9FA JUMPI DUP2 PUSH1 0x3 NOT CALLDATASIZE ADD SLT PUSH2 0x9FA JUMPI PUSH32 0x0 PUSH1 0x1 PUSH1 0x1 PUSH1 0xA0 SHL SUB AND DUP2 MSTORE PUSH1 0x20 SWAP1 RETURN JUMPDEST PUSH8 0xFFFFFFFFFFFFFFFF DUP2 GT PUSH2 0xBBC JUMPI PUSH1 0x40 MSTORE JUMP JUMPDEST PUSH4 0x4E487B71 PUSH1 0xE0 SHL PUSH1 0x0 MSTORE PUSH1 0x41 PUSH1 0x4 MSTORE PUSH1 0x24 PUSH1 0x0 REVERT JUMPDEST SWAP1 PUSH1 0x1F DUP1 NOT SWAP2 ADD AND DUP2 ADD SWAP1 DUP2 LT PUSH8 0xFFFFFFFFFFFFFFFF DUP3 GT OR PUSH2 0xBBC JUMPI PUSH1 0x40 MSTORE JUMP JUMPDEST SWAP1 DUP2 PUSH1 0x20 SWAP2 SUB SLT PUSH2 0x7BD JUMPI MLOAD DUP1 ISZERO ISZERO DUP2 SUB PUSH2 0x7BD JUMPI SWAP1 JUMP JUMPDEST SWAP1 CALLDATALOAD SWAP1 PUSH1 0x1E NOT DUP2 CALLDATASIZE SUB ADD DUP3 SLT ISZERO PUSH2 0x7BD JUMPI ADD DUP1 CALLDATALOAD SWAP1 PUSH8 0xFFFFFFFFFFFFFFFF DUP3 GT PUSH2 0x7BD JUMPI PUSH1 0x20 ADD SWAP2 DUP2 CALLDATASIZE SUB DUP4 SGT PUSH2 0x7BD JUMPI JUMP JUMPDEST SWAP1 DUP1 PUSH1 0x20 SWAP4 SWAP3 DUP2 DUP5 MSTORE DUP5 DUP5 ADD CALLDATACOPY PUSH1 0x0 DUP3 DUP3 ADD DUP5 ADD MSTORE PUSH1 0x1F ADD PUSH1 0x1F NOT AND ADD ADD SWAP1 JUMP JUMPDEST CALLDATALOAD PUSH2 0xFFFF DUP2 AND DUP2 SUB PUSH2 0x7BD JUMPI SWAP1 JUMP INVALID PUSH1 0x80 DUP1 PUSH1 0x40 MSTORE CALLVALUE PUSH2 0x1B JUMPI PUSH1 0x1 PUSH1 0x0 SSTORE PUSH2 0x9F0 SWAP1 DUP2 PUSH2 0x21 DUP3 CODECOPY RETURN JUMPDEST PUSH1 0x0 DUP1 REVERT INVALID PUSH1 0x40 PUSH1 0x80 DUP2 MSTORE PUSH1 0x4 SWAP1 DUP2 CALLDATASIZE LT ISZERO PUSH2 0x15 JUMPI PUSH1 0x0 DUP1 REVERT JUMPDEST PUSH1 0x0 SWAP1 DUP2 CALLDATALOAD PUSH1 0xE0 SHR DUP1 PUSH4 0x70D66BF EQ PUSH2 0x751 JUMPI DUP1 PUSH4 0x2E1A7D4D EQ PUSH2 0x5B3 JUMPI DUP1 PUSH4 0x3E8EB5A4 EQ PUSH2 0x4D8 JUMPI DUP1 PUSH4 0x5A04FB69 EQ PUSH2 0x404 JUMPI DUP1 PUSH4 0x61B8CE8C EQ PUSH2 0x3E8 JUMPI DUP1 PUSH4 0x8978B2DA EQ PUSH2 0x3B8 JUMPI DUP1 PUSH4 0xF4DADC61 EQ PUSH2 0x345 JUMPI PUSH4 0xF6A8D50A EQ PUSH2 0x79 JUMPI PUSH1 0x0 DUP1 REVERT JUMPDEST CALLVALUE PUSH2 0x341 JUMPI PUSH1 0x80 CALLDATASIZE PUSH1 0x3 NOT ADD SLT PUSH2 0x341 JUMPI PUSH1 0x1 PUSH1 0x1 PUSH1 0xA0 SHL SUB SWAP2 DUP4 CALLDATALOAD DUP4 DUP2 AND SWAP1 DUP2 SWAP1 SUB PUSH2 0x341 JUMPI PUSH2 0xA8 PUSH2 0x81A JUMP JUMPDEST PUSH1 0x44 CALLDATALOAD SWAP6 PUSH1 0x64 CALLDATALOAD SWAP2 DUP4 ISZERO PUSH2 0x314 JUMPI DUP7 AND SWAP4 DUP5 ISZERO PUSH2 0x2E1 JUMPI DUP8 ISZERO PUSH2 0x2B3 JUMPI TIMESTAMP DUP4 GT ISZERO PUSH2 0x270 JUMPI DUP1 SLOAD SWAP7 PUSH1 0x0 NOT DUP9 EQ PUSH2 0x25D JUMPI PUSH1 0x5 DUP9 SWAP2 PUSH1 0x1 DUP4 ADD DUP5 SSTORE DUP9 DUP12 DUP2 MLOAD SWAP3 PUSH2 0xF1 DUP5 PUSH2 0x835 JUMP JUMPDEST DUP10 DUP5 MSTORE PUSH1 0x20 DUP5 ADD CALLER DUP2 MSTORE DUP4 DUP6 ADD SWAP2 DUP13 DUP4 MSTORE PUSH1 0x60 DUP7 ADD SWAP4 DUP5 MSTORE DUP1 PUSH1 0x80 DUP8 ADD SWAP6 DUP13 DUP8 MSTORE PUSH1 0xA0 DUP9 ADD SWAP10 DUP12 DUP12 MSTORE DUP12 MSTORE PUSH1 0x1 PUSH1 0x20 MSTORE DUP11 KECCAK256 SWAP7 MLOAD AND SWAP2 PUSH12 0xFFFFFFFFFFFFFFFFFFFFFFFF PUSH1 0xA0 SHL SWAP3 DUP4 DUP9 SLOAD AND OR DUP8 SSTORE DUP2 PUSH1 0x1 DUP9 ADD SWAP2 MLOAD AND DUP4 DUP3 SLOAD AND OR SWAP1 SSTORE PUSH1 0x2 DUP7 ADD SWAP3 MLOAD AND SWAP1 DUP3 SLOAD AND OR SWAP1 SSTORE MLOAD PUSH1 0x3 DUP4 ADD SSTORE MLOAD DUP6 DUP3 ADD SSTORE ADD SWAP1 MLOAD ISZERO ISZERO PUSH1 0xFF DUP1 NOT DUP4 SLOAD AND SWAP2 AND OR SWAP1 SSTORE DUP6 MLOAD PUSH4 0x23B872DD PUSH1 0xE0 SHL DUP2 MSTORE CALLER DUP4 DUP3 ADD MSTORE ADDRESS PUSH1 0x24 DUP3 ADD MSTORE DUP9 PUSH1 0x44 DUP3 ADD MSTORE PUSH1 0x20 DUP2 PUSH1 0x64 DUP2 DUP6 DUP10 GAS CALL SWAP2 DUP3 ISZERO PUSH2 0x252 JUMPI SWAP2 PUSH2 0x223 JUMPI JUMPDEST POP ISZERO PUSH2 0x1EA JUMPI POP PUSH32 0x6422B526B1C8AECB4B5678D5C67A4A334DD9539D8DA30A39A0F24B71A95FAEDC DUP5 PUSH1 0x20 SWAP8 DUP8 SWAP4 DUP3 MLOAD SWAP2 DUP3 MSTORE DUP10 DUP3 ADD MSTORE LOG4 MLOAD SWAP1 DUP2 MSTORE RETURN JUMPDEST PUSH1 0x64 SWAP1 PUSH1 0x20 DUP7 MLOAD SWAP2 PUSH3 0x461BCD PUSH1 0xE5 SHL DUP4 MSTORE DUP3 ADD MSTORE PUSH1 0x13 PUSH1 0x24 DUP3 ADD MSTORE PUSH19 0x1D1C985B9CD9995C919C9BDB4819985A5B1959 PUSH1 0x6A SHL PUSH1 0x44 DUP3 ADD MSTORE REVERT JUMPDEST PUSH2 0x245 SWAP2 POP PUSH1 0x20 RETURNDATASIZE PUSH1 0x20 GT PUSH2 0x24B JUMPI JUMPDEST PUSH2 0x23D DUP2 DUP4 PUSH2 0x867 JUMP JUMPDEST DUP2 ADD SWAP1 PUSH2 0x889 JUMP JUMPDEST CODESIZE PUSH2 0x1AC JUMP JUMPDEST POP RETURNDATASIZE PUSH2 0x233 JUMP JUMPDEST DUP8 MLOAD SWAP1 RETURNDATASIZE SWAP1 DUP3 RETURNDATACOPY RETURNDATASIZE SWAP1 REVERT JUMPDEST POP PUSH1 0x11 PUSH1 0x24 SWAP3 PUSH4 0x4E487B71 PUSH1 0xE0 SHL DUP4 MSTORE MSTORE REVERT JUMPDEST DUP6 MLOAD PUSH3 0x461BCD PUSH1 0xE5 SHL DUP2 MSTORE PUSH1 0x20 DUP2 DUP5 ADD MSTORE PUSH1 0x19 PUSH1 0x24 DUP3 ADD MSTORE PUSH32 0x756E6C6F636B54696D65206D7573742062652066757475726500000000000000 PUSH1 0x44 DUP3 ADD MSTORE PUSH1 0x64 SWAP1 REVERT JUMPDEST DUP6 MLOAD PUSH3 0x461BCD PUSH1 0xE5 SHL DUP2 MSTORE PUSH1 0x20 DUP2 DUP5 ADD MSTORE PUSH1 0x8 PUSH1 0x24 DUP3 ADD MSTORE PUSH8 0x616D6F756E743D3 PUSH1 0xC4 SHL PUSH1 0x44 DUP3 ADD MSTORE PUSH1 0x64 SWAP1 REVERT JUMPDEST DUP6 MLOAD PUSH3 0x461BCD PUSH1 0xE5 SHL DUP2 MSTORE PUSH1 0x20 DUP2 DUP5 ADD MSTORE PUSH1 0xD PUSH1 0x24 DUP3 ADD MSTORE PUSH13 0x62656E65666963696172793D3 PUSH1 0x9C SHL PUSH1 0x44 DUP3 ADD MSTORE PUSH1 0x64 SWAP1 REVERT JUMPDEST DUP6 MLOAD PUSH3 0x461BCD PUSH1 0xE5 SHL DUP2 MSTORE PUSH1 0x20 DUP2 DUP5 ADD MSTORE PUSH1 0x7 PUSH1 0x24 DUP3 ADD MSTORE PUSH7 0x746F6B656E3D3 PUSH1 0xCC SHL PUSH1 0x44 DUP3 ADD MSTORE PUSH1 0x64 SWAP1 REVERT JUMPDEST POP DUP1 REVERT JUMPDEST POP DUP3 CALLVALUE PUSH2 0x3B4 JUMPI PUSH1 0x20 CALLDATASIZE PUSH1 0x3 NOT ADD SLT PUSH2 0x3B4 JUMPI DUP2 PUSH1 0xC0 SWAP4 DUP3 CALLDATALOAD DUP2 MSTORE PUSH1 0x1 PUSH1 0x20 MSTORE KECCAK256 PUSH1 0x1 DUP1 PUSH1 0xA0 SHL SUB SWAP2 DUP3 DUP3 SLOAD AND SWAP4 DUP4 PUSH1 0x1 DUP5 ADD SLOAD AND SWAP4 PUSH1 0x2 DUP5 ADD SLOAD AND SWAP1 PUSH1 0xFF PUSH1 0x5 PUSH1 0x3 DUP7 ADD SLOAD SWAP5 DUP7 ADD SLOAD SWAP6 ADD SLOAD AND SWAP5 DUP2 MLOAD SWAP7 DUP8 MSTORE PUSH1 0x20 DUP8 ADD MSTORE DUP6 ADD MSTORE PUSH1 0x60 DUP5 ADD MSTORE PUSH1 0x80 DUP4 ADD MSTORE ISZERO ISZERO PUSH1 0xA0 DUP3 ADD MSTORE RETURN JUMPDEST DUP3 DUP1 REVERT JUMPDEST POP SWAP2 SWAP1 CALLVALUE PUSH2 0x3E5 JUMPI PUSH1 0x20 CALLDATASIZE PUSH1 0x3 NOT ADD SLT PUSH2 0x3E5 JUMPI POP PUSH2 0x3D7 SWAP1 CALLDATALOAD PUSH2 0x91E JUMP JUMPDEST DUP3 MLOAD SWAP2 ISZERO ISZERO DUP3 MSTORE PUSH1 0x20 DUP3 ADD MSTORE RETURN JUMPDEST DUP1 REVERT JUMPDEST POP CALLVALUE PUSH2 0x341 JUMPI DUP2 PUSH1 0x3 NOT CALLDATASIZE ADD SLT PUSH2 0x341 JUMPI PUSH1 0x20 SWAP2 SLOAD SWAP1 MLOAD SWAP1 DUP2 MSTORE RETURN JUMPDEST POP DUP3 SWAP1 CALLVALUE PUSH2 0x3B4 JUMPI DUP1 PUSH1 0x3 NOT CALLDATASIZE ADD SLT PUSH2 0x3B4 JUMPI DUP2 CALLDATALOAD SWAP1 PUSH2 0x422 PUSH2 0x81A JUMP JUMPDEST SWAP1 DUP3 DUP6 MSTORE PUSH1 0x1 PUSH1 0x20 MSTORE PUSH1 0x1 DUP1 PUSH1 0xA0 SHL SUB DUP1 SWAP3 PUSH2 0x447 DUP3 PUSH1 0x1 DUP6 DUP11 KECCAK256 ADD SLOAD AND CALLER EQ PUSH2 0x8A1 JUMP JUMPDEST AND SWAP4 DUP5 ISZERO PUSH2 0x4A9 JUMPI POP PUSH1 0x1 SWAP1 DUP4 DUP7 MSTORE DUP2 PUSH1 0x20 MSTORE DUP6 KECCAK256 PUSH2 0x46D PUSH1 0xFF PUSH1 0x5 DUP4 ADD SLOAD AND ISZERO PUSH2 0x8DE JUMP JUMPDEST ADD DUP1 SLOAD PUSH1 0x1 PUSH1 0x1 PUSH1 0xA0 SHL SUB NOT DUP2 AND DUP6 OR SWAP1 SWAP2 SSTORE AND SWAP1 PUSH32 0x94CB47EEEEB76A68C4D24F7C656BC9E63D5BC82211FC7784B33E438103B2F873 DUP5 DUP1 LOG4 DUP1 RETURN JUMPDEST PUSH1 0x20 PUSH1 0x64 SWAP3 MLOAD SWAP2 PUSH3 0x461BCD PUSH1 0xE5 SHL DUP4 MSTORE DUP3 ADD MSTORE PUSH1 0xA PUSH1 0x24 DUP3 ADD MSTORE PUSH10 0x6E65774F776E65723D3 PUSH1 0xB4 SHL PUSH1 0x44 DUP3 ADD MSTORE REVERT JUMPDEST POP DUP3 SWAP1 CALLVALUE PUSH2 0x3B4 JUMPI DUP1 PUSH1 0x3 NOT CALLDATASIZE ADD SLT PUSH2 0x3B4 JUMPI DUP2 CALLDATALOAD SWAP1 PUSH2 0x4F6 PUSH2 0x81A JUMP JUMPDEST SWAP1 DUP3 DUP6 MSTORE PUSH1 0x1 PUSH1 0x20 MSTORE PUSH1 0x1 DUP1 PUSH1 0xA0 SHL SUB DUP1 SWAP3 PUSH2 0x51B DUP3 PUSH1 0x1 DUP6 DUP11 KECCAK256 ADD SLOAD AND CALLER EQ PUSH2 0x8A1 JUMP JUMPDEST AND SWAP4 DUP5 ISZERO PUSH2 0x57E JUMPI POP PUSH1 0x2 SWAP1 DUP4 DUP7 MSTORE PUSH1 0x1 PUSH1 0x20 MSTORE DUP6 KECCAK256 PUSH2 0x542 PUSH1 0xFF PUSH1 0x5 DUP4 ADD SLOAD AND ISZERO PUSH2 0x8DE JUMP JUMPDEST ADD DUP1 SLOAD PUSH1 0x1 PUSH1 0x1 PUSH1 0xA0 SHL SUB NOT DUP2 AND DUP6 OR SWAP1 SWAP2 SSTORE AND SWAP1 PUSH32 0xB46DD957666562116725549320E1A014FEC61F371662E239650E548197F9F5EF DUP5 DUP1 LOG4 DUP1 RETURN JUMPDEST PUSH1 0x20 PUSH1 0x64 SWAP3 MLOAD SWAP2 PUSH3 0x461BCD PUSH1 0xE5 SHL DUP4 MSTORE DUP3 ADD MSTORE PUSH1 0x10 PUSH1 0x24 DUP3 ADD MSTORE PUSH16 0x6E657742656E65666963696172793D3 PUSH1 0x84 SHL PUSH1 0x44 DUP3 ADD MSTORE REVERT JUMPDEST POP DUP3 SWAP1 CALLVALUE PUSH2 0x3B4 JUMPI PUSH1 0x20 DUP1 PUSH1 0x3 NOT CALLDATASIZE ADD SLT PUSH2 0x74D JUMPI DUP3 CALLDATALOAD SWAP2 DUP3 DUP6 MSTORE PUSH1 0x1 DUP3 MSTORE DUP1 DUP6 KECCAK256 PUSH1 0x5 DUP2 ADD SWAP1 DUP2 SLOAD SWAP6 PUSH2 0x5EA PUSH1 0xFF DUP9 AND ISZERO PUSH2 0x8DE JUMP JUMPDEST PUSH1 0x2 DUP3 ADD SWAP2 PUSH1 0x1 DUP1 PUSH1 0xA0 SHL SUB SWAP4 DUP5 DUP5 SLOAD AND SWAP9 DUP10 CALLER SUB PUSH2 0x718 JUMPI DUP4 DUP4 ADD SLOAD TIMESTAMP LT PUSH2 0x6E6 JUMPI PUSH1 0x1 SWAP1 PUSH1 0xFF NOT AND OR SWAP1 SSTORE DUP6 PUSH1 0x3 DUP6 DUP4 SLOAD AND SWAP3 ADD SWAP9 PUSH1 0x44 DUP11 SLOAD SWAP2 DUP13 DUP10 MLOAD SWAP6 DUP7 SWAP5 DUP6 SWAP4 PUSH4 0xA9059CBB PUSH1 0xE0 SHL DUP6 MSTORE DUP10 DUP6 ADD MSTORE PUSH1 0x24 DUP5 ADD MSTORE GAS CALL SWAP1 DUP2 ISZERO PUSH2 0x6DC JUMPI DUP10 SWAP2 PUSH2 0x6BF JUMPI JUMPDEST POP ISZERO PUSH2 0x68A JUMPI POP SWAP1 PUSH32 0xCF7D23A3CBE4E8B36FF82FD1B05B1B17373DC7804B4EBBD6E2356716EF202372 SWAP4 SWAP3 SWAP2 SLOAD AND SWAP5 SLOAD SWAP1 MLOAD SWAP1 DUP2 MSTORE LOG3 DUP1 RETURN JUMPDEST DUP4 MLOAD PUSH3 0x461BCD PUSH1 0xE5 SHL DUP2 MSTORE SWAP1 DUP2 ADD DUP6 SWAP1 MSTORE PUSH1 0xF PUSH1 0x24 DUP3 ADD MSTORE PUSH15 0x1D1C985B9CD9995C8819985A5B1959 PUSH1 0x8A SHL PUSH1 0x44 DUP3 ADD MSTORE PUSH1 0x64 SWAP1 REVERT JUMPDEST PUSH2 0x6D6 SWAP2 POP DUP7 RETURNDATASIZE DUP9 GT PUSH2 0x24B JUMPI PUSH2 0x23D DUP2 DUP4 PUSH2 0x867 JUMP JUMPDEST DUP10 PUSH2 0x651 JUMP JUMPDEST DUP6 MLOAD RETURNDATASIZE DUP12 DUP3 RETURNDATACOPY RETURNDATASIZE SWAP1 REVERT JUMPDEST DUP7 MLOAD PUSH3 0x461BCD PUSH1 0xE5 SHL DUP2 MSTORE DUP1 DUP6 ADD DUP10 SWAP1 MSTORE PUSH1 0xC PUSH1 0x24 DUP3 ADD MSTORE PUSH12 0x1CDD1A5B1B081B1BD8DAD959 PUSH1 0xA2 SHL PUSH1 0x44 DUP3 ADD MSTORE PUSH1 0x64 SWAP1 REVERT JUMPDEST DUP7 MLOAD PUSH3 0x461BCD PUSH1 0xE5 SHL DUP2 MSTORE DUP1 DUP6 ADD DUP10 SWAP1 MSTORE PUSH1 0xF PUSH1 0x24 DUP3 ADD MSTORE PUSH15 0x6E6F742062656E6566696369617279 PUSH1 0x88 SHL PUSH1 0x44 DUP3 ADD MSTORE PUSH1 0x64 SWAP1 REVERT JUMPDEST DUP4 DUP1 REVERT JUMPDEST POP CALLVALUE PUSH2 0x341 JUMPI DUP1 PUSH1 0x3 NOT CALLDATASIZE ADD SLT PUSH2 0x341 JUMPI DUP3 CALLDATALOAD SWAP1 PUSH1 0x24 CALLDATALOAD SWAP4 DUP3 DUP5 MSTORE PUSH1 0x1 PUSH1 0x20 MSTORE PUSH2 0x78A PUSH1 0x1 DUP1 PUSH1 0xA0 SHL SUB PUSH1 0x1 DUP5 DUP8 KECCAK256 ADD SLOAD AND CALLER EQ PUSH2 0x8A1 JUMP JUMPDEST DUP3 DUP5 MSTORE PUSH1 0x1 PUSH1 0x20 MSTORE DUP1 DUP3 DUP6 KECCAK256 PUSH2 0x7A7 PUSH1 0xFF PUSH1 0x5 DUP4 ADD SLOAD AND ISZERO PUSH2 0x8DE JUMP JUMPDEST ADD SWAP5 DUP6 SLOAD SWAP2 DUP3 DUP3 GT ISZERO PUSH2 0x7E9 JUMPI POP DUP1 PUSH32 0x12C0F64F942F99AA5210C23A8AB729735389400457B66B06895B0700315C3B33 SWAP5 SWAP6 SWAP7 SSTORE DUP3 MLOAD SWAP2 DUP3 MSTORE PUSH1 0x20 DUP3 ADD MSTORE LOG2 DUP1 RETURN JUMPDEST PUSH1 0x64 SWAP1 PUSH1 0x20 DUP6 MLOAD SWAP2 PUSH3 0x461BCD PUSH1 0xE5 SHL DUP4 MSTORE DUP3 ADD MSTORE PUSH1 0xB PUSH1 0x24 DUP3 ADD MSTORE PUSH11 0x1B5D5CDD08195E1D195B99 PUSH1 0xAA SHL PUSH1 0x44 DUP3 ADD MSTORE REVERT JUMPDEST PUSH1 0x24 CALLDATALOAD SWAP1 PUSH1 0x1 PUSH1 0x1 PUSH1 0xA0 SHL SUB DUP3 AND DUP3 SUB PUSH2 0x830 JUMPI JUMP JUMPDEST PUSH1 0x0 DUP1 REVERT JUMPDEST PUSH1 0xC0 DUP2 ADD SWAP1 DUP2 LT PUSH8 0xFFFFFFFFFFFFFFFF DUP3 GT OR PUSH2 0x851 JUMPI PUSH1 0x40 MSTORE JUMP JUMPDEST PUSH4 0x4E487B71 PUSH1 0xE0 SHL PUSH1 0x0 MSTORE PUSH1 0x41 PUSH1 0x4 MSTORE PUSH1 0x24 PUSH1 0x0 REVERT JUMPDEST SWAP1 PUSH1 0x1F DUP1 NOT SWAP2 ADD AND DUP2 ADD SWAP1 DUP2 LT PUSH8 0xFFFFFFFFFFFFFFFF DUP3 GT OR PUSH2 0x851 JUMPI PUSH1 0x40 MSTORE JUMP JUMPDEST SWAP1 DUP2 PUSH1 0x20 SWAP2 SUB SLT PUSH2 0x830 JUMPI MLOAD DUP1 ISZERO ISZERO DUP2 SUB PUSH2 0x830 JUMPI SWAP1 JUMP JUMPDEST ISZERO PUSH2 0x8A8 JUMPI JUMP JUMPDEST PUSH1 0x40 MLOAD PUSH3 0x461BCD PUSH1 0xE5 SHL DUP2 MSTORE PUSH1 0x20 PUSH1 0x4 DUP3 ADD MSTORE PUSH1 0xE PUSH1 0x24 DUP3 ADD MSTORE PUSH14 0x2737BA103637B1B59037BBB732B9 PUSH1 0x91 SHL PUSH1 0x44 DUP3 ADD MSTORE PUSH1 0x64 SWAP1 REVERT JUMPDEST ISZERO PUSH2 0x8E5 JUMPI JUMP JUMPDEST PUSH1 0x40 MLOAD PUSH3 0x461BCD PUSH1 0xE5 SHL DUP2 MSTORE PUSH1 0x20 PUSH1 0x4 DUP3 ADD MSTORE PUSH1 0x11 PUSH1 0x24 DUP3 ADD MSTORE PUSH17 0x30B63932B0B23C903BB4BA34323930BBB7 PUSH1 0x79 SHL PUSH1 0x44 DUP3 ADD MSTORE PUSH1 0x64 SWAP1 REVERT JUMPDEST SWAP1 PUSH1 0x0 SWAP2 DUP3 MSTORE PUSH1 0x1 PUSH1 0x20 MSTORE PUSH1 0x40 DUP3 KECCAK256 SWAP2 PUSH1 0xA0 PUSH1 0x40 MLOAD PUSH2 0x93C DUP2 PUSH2 0x835 JUMP JUMPDEST PUSH1 0x1 DUP1 DUP4 SHL SUB DUP1 DUP7 SLOAD AND DUP3 MSTORE DUP1 PUSH1 0x1 DUP8 ADD SLOAD AND PUSH1 0x20 DUP4 ADD MSTORE PUSH1 0x2 DUP7 ADD SLOAD AND PUSH1 0x40 DUP3 ADD MSTORE PUSH1 0x3 DUP6 ADD SLOAD PUSH1 0x60 DUP3 ADD MSTORE PUSH1 0xFF PUSH1 0x5 PUSH1 0x4 DUP8 ADD SLOAD SWAP7 DUP8 PUSH1 0x80 DUP6 ADD MSTORE ADD SLOAD AND ISZERO ISZERO SWAP2 DUP3 SWAP2 ADD MSTORE PUSH2 0x9B4 JUMPI DUP3 TIMESTAMP LT ISZERO PUSH2 0x9B4 JUMPI TIMESTAMP DUP4 SUB SWAP3 DUP4 GT PUSH2 0x9A0 JUMPI POP PUSH1 0x1 SWAP2 SWAP1 JUMP JUMPDEST PUSH4 0x4E487B71 PUSH1 0xE0 SHL DUP2 MSTORE PUSH1 0x11 PUSH1 0x4 MSTORE PUSH1 0x24 SWAP1 REVERT JUMPDEST SWAP2 POP DUP2 SWAP1 JUMP INVALID LOG2 PUSH5 0x6970667358 0x22 SLT KECCAK256 BYTE DUP9 0x5D 0xF7 EXP SWAP7 SWAP15 PUSH31 0x3F22230A2C6E7D458CD99897C74A0D7F994EE402FE94DB6E64736F6C634300 ADDMOD EQ STOP CALLER LOG2 PUSH5 0x6970667358 0x22 SLT KECCAK256 PUSH23 0x7AD627064FE372C6C90E703C28066A4ABCAA21D45F8AD1 0xB9 0x4F KECCAK256 PUSH30 0x7713546D64736F6C63430008140033000000000000000000000000000000 "},"methodIdentifiers":{"launch((string,string,uint256,address,(uint16,uint16,uint16,uint16,uint16,uint16),(uint256,uint256,bool,uint256,uint256)),(uint256,uint256),address,uint256,address)":"6fc2e69a","router()":"f887ea40","tokenImplementation()":"2f3a3d5d"}}}}}