{"contracts/launch/TokenFactory.sol":{"TokenFactory":{"abi":[{"inputs":[{"internalType":"address","name":"tokenImplementation_","type":"address"},{"internalType":"address","name":"vestingImplementation_","type":"address"}],"stateMutability":"nonpayable","type":"constructor"},{"inputs":[],"name":"FailedDeployment","type":"error"},{"inputs":[{"internalType":"uint256","name":"balance","type":"uint256"},{"internalType":"uint256","name":"needed","type":"uint256"}],"name":"InsufficientBalance","type":"error"},{"inputs":[],"name":"ReentrancyGuardReentrantCall","type":"error"},{"inputs":[{"internalType":"address","name":"token","type":"address"}],"name":"SafeERC20FailedOperation","type":"error"},{"anonymous":false,"inputs":[{"indexed":false,"internalType":"uint256","name":"oldBasicFeeWei","type":"uint256"},{"indexed":false,"internalType":"uint256","name":"oldDistributionFeeWei","type":"uint256"},{"indexed":false,"internalType":"uint256","name":"oldVestingFeeWei","type":"uint256"},{"indexed":false,"internalType":"uint256","name":"newBasicFeeWei","type":"uint256"},{"indexed":false,"internalType":"uint256","name":"newDistributionFeeWei","type":"uint256"},{"indexed":false,"internalType":"uint256","name":"newVestingFeeWei","type":"uint256"}],"name":"FeesUpdated","type":"event"},{"anonymous":false,"inputs":[{"indexed":true,"internalType":"address","name":"to","type":"address"},{"indexed":false,"internalType":"uint256","name":"amountWei","type":"uint256"}],"name":"FeesWithdrawn","type":"event"},{"anonymous":false,"inputs":[{"indexed":true,"internalType":"address","name":"previousOwner","type":"address"},{"indexed":true,"internalType":"address","name":"newOwner","type":"address"}],"name":"OwnershipTransferred","type":"event"},{"anonymous":false,"inputs":[{"indexed":true,"internalType":"address","name":"creator","type":"address"},{"indexed":true,"internalType":"address","name":"token","type":"address"}],"name":"TokenCreated","type":"event"},{"anonymous":false,"inputs":[{"indexed":true,"internalType":"address","name":"token","type":"address"},{"indexed":true,"internalType":"address","name":"to","type":"address"},{"indexed":false,"internalType":"uint256","name":"amount","type":"uint256"}],"name":"TokenDistributed","type":"event"},{"anonymous":false,"inputs":[{"indexed":true,"internalType":"address","name":"token","type":"address"},{"indexed":true,"internalType":"address","name":"vault","type":"address"},{"indexed":true,"internalType":"address","name":"beneficiary","type":"address"},{"indexed":false,"internalType":"uint256","name":"amount","type":"uint256"}],"name":"VestingCreated","type":"event"},{"inputs":[],"name":"basicFeeWei","outputs":[{"internalType":"uint256","name":"","type":"uint256"}],"stateMutability":"view","type":"function"},{"inputs":[{"components":[{"internalType":"string","name":"name","type":"string"},{"internalType":"string","name":"symbol","type":"string"},{"internalType":"uint256","name":"totalSupplyRaw","type":"uint256"},{"internalType":"address","name":"marketingWallet","type":"address"},{"components":[{"internalType":"uint16","name":"buyMarketingBps","type":"uint16"},{"internalType":"uint16","name":"buyLiquidityBps","type":"uint16"},{"internalType":"uint16","name":"buyBurnBps","type":"uint16"},{"internalType":"uint16","name":"sellMarketingBps","type":"uint16"},{"internalType":"uint16","name":"sellLiquidityBps","type":"uint16"},{"internalType":"uint16","name":"sellBurnBps","type":"uint16"}],"internalType":"struct TokenFactory.Fees","name":"fees","type":"tuple"},{"components":[{"internalType":"uint256","name":"maxGasPriceWei","type":"uint256"},{"internalType":"uint256","name":"deadBlocks","type":"uint256"},{"internalType":"bool","name":"revertEarlyBuys","type":"bool"},{"internalType":"uint256","name":"maxTxAmount","type":"uint256"},{"internalType":"uint256","name":"maxWalletAmount","type":"uint256"}],"internalType":"struct TokenFactory.Limits","name":"limits","type":"tuple"}],"internalType":"struct TokenFactory.TokenConfig","name":"cfg","type":"tuple"}],"name":"createToken","outputs":[{"internalType":"address","name":"tokenAddr","type":"address"}],"stateMutability":"payable","type":"function"},{"inputs":[{"components":[{"internalType":"string","name":"name","type":"string"},{"internalType":"string","name":"symbol","type":"string"},{"internalType":"uint256","name":"totalSupplyRaw","type":"uint256"},{"internalType":"address","name":"marketingWallet","type":"address"},{"components":[{"internalType":"uint16","name":"buyMarketingBps","type":"uint16"},{"internalType":"uint16","name":"buyLiquidityBps","type":"uint16"},{"internalType":"uint16","name":"buyBurnBps","type":"uint16"},{"internalType":"uint16","name":"sellMarketingBps","type":"uint16"},{"internalType":"uint16","name":"sellLiquidityBps","type":"uint16"},{"internalType":"uint16","name":"sellBurnBps","type":"uint16"}],"internalType":"struct TokenFactory.Fees","name":"fees","type":"tuple"},{"components":[{"internalType":"uint256","name":"maxGasPriceWei","type":"uint256"},{"internalType":"uint256","name":"deadBlocks","type":"uint256"},{"internalType":"bool","name":"revertEarlyBuys","type":"bool"},{"internalType":"uint256","name":"maxTxAmount","type":"uint256"},{"internalType":"uint256","name":"maxWalletAmount","type":"uint256"}],"internalType":"struct TokenFactory.Limits","name":"limits","type":"tuple"}],"internalType":"struct TokenFactory.TokenConfig","name":"cfg","type":"tuple"},{"internalType":"address[]","name":"recipients","type":"address[]"},{"internalType":"uint256[]","name":"amounts","type":"uint256[]"}],"name":"createTokenWithDistribution","outputs":[{"internalType":"address","name":"tokenAddr","type":"address"}],"stateMutability":"payable","type":"function"},{"inputs":[{"components":[{"internalType":"string","name":"name","type":"string"},{"internalType":"string","name":"symbol","type":"string"},{"internalType":"uint256","name":"totalSupplyRaw","type":"uint256"},{"internalType":"address","name":"marketingWallet","type":"address"},{"components":[{"internalType":"uint16","name":"buyMarketingBps","type":"uint16"},{"internalType":"uint16","name":"buyLiquidityBps","type":"uint16"},{"internalType":"uint16","name":"buyBurnBps","type":"uint16"},{"internalType":"uint16","name":"sellMarketingBps","type":"uint16"},{"internalType":"uint16","name":"sellLiquidityBps","type":"uint16"},{"internalType":"uint16","name":"sellBurnBps","type":"uint16"}],"internalType":"struct TokenFactory.Fees","name":"fees","type":"tuple"},{"components":[{"internalType":"uint256","name":"maxGasPriceWei","type":"uint256"},{"internalType":"uint256","name":"deadBlocks","type":"uint256"},{"internalType":"bool","name":"revertEarlyBuys","type":"bool"},{"internalType":"uint256","name":"maxTxAmount","type":"uint256"},{"internalType":"uint256","name":"maxWalletAmount","type":"uint256"}],"internalType":"struct TokenFactory.Limits","name":"limits","type":"tuple"}],"internalType":"struct TokenFactory.TokenConfig","name":"cfg","type":"tuple"},{"internalType":"address[]","name":"recipients","type":"address[]"},{"internalType":"uint256[]","name":"amounts","type":"uint256[]"},{"components":[{"internalType":"address","name":"beneficiary","type":"address"},{"internalType":"uint64","name":"start","type":"uint64"},{"internalType":"uint64","name":"cliffSeconds","type":"uint64"},{"internalType":"uint64","name":"durationSeconds","type":"uint64"},{"internalType":"uint256","name":"amount","type":"uint256"}],"internalType":"struct TokenFactory.Vesting[]","name":"vestings","type":"tuple[]"}],"name":"createTokenWithDistributionAndVesting","outputs":[{"internalType":"address","name":"tokenAddr","type":"address"}],"stateMutability":"payable","type":"function"},{"inputs":[],"name":"distributionFeeWei","outputs":[{"internalType":"uint256","name":"","type":"uint256"}],"stateMutability":"view","type":"function"},{"inputs":[],"name":"owner","outputs":[{"internalType":"address","name":"","type":"address"}],"stateMutability":"view","type":"function"},{"inputs":[{"internalType":"uint256","name":"newBasicFeeWei","type":"uint256"},{"internalType":"uint256","name":"newDistributionFeeWei","type":"uint256"},{"internalType":"uint256","name":"newVestingFeeWei","type":"uint256"}],"name":"setFeesWei","outputs":[],"stateMutability":"nonpayable","type":"function"},{"inputs":[],"name":"tokenImplementation","outputs":[{"internalType":"address","name":"","type":"address"}],"stateMutability":"view","type":"function"},{"inputs":[{"internalType":"address","name":"newOwner","type":"address"}],"name":"transferOwnership","outputs":[],"stateMutability":"nonpayable","type":"function"},{"inputs":[],"name":"vestingFeeWei","outputs":[{"internalType":"uint256","name":"","type":"uint256"}],"stateMutability":"view","type":"function"},{"inputs":[],"name":"vestingImplementation","outputs":[{"internalType":"address","name":"","type":"address"}],"stateMutability":"view","type":"function"},{"inputs":[{"internalType":"address payable","name":"to","type":"address"},{"internalType":"uint256","name":"amountWei","type":"uint256"}],"name":"withdrawFees","outputs":[],"stateMutability":"nonpayable","type":"function"}],"evm":{"bytecode":{"linkReferences":{},"object":"60c03461016957601f6116d938819003918201601f19168301916001600160401b0383118484101761016e57808492604094855283398101031261016957610052602061004b83610184565b9201610184565b6001600055906001600160a01b0380821615610136578216156101015760805260a052600180546001600160a01b031916339081179091556040519060007f8be0079c531659141344cd1fd0a4f28419497f9722a3daafe3b4186f6b6457e08180a36601c6bf52634000600255660aa87bee5380006003556611c37937e0800060045561154090816101998239608051818181610d7c015261102b015260a0518181816106d40152610a7b0152f35b60405162461bcd60e51b815260206004820152600d60248201526c076657374696e67496d706c3d3609c1b6044820152606490fd5b60405162461bcd60e51b815260206004820152600b60248201526a0746f6b656e496d706c3d360ac1b6044820152606490fd5b600080fd5b634e487b7160e01b600052604160045260246000fd5b51906001600160a01b03821682036101695756fe608080604052600436101561001357600080fd5b60003560e01c9081632f3a3d5d14610d6957508063308cc33d14610d4b5780633cb35165146108875780633db315ba1461072157806379046732146107035780638882a2f6146106be5780638da5cb5b14610695578063ad3b1b471461050a578063b93c95f3146103cb578063c48b374d146103ad578063d9a3c8211461014c5763f2fde38b146100a357600080fd5b34610147576020366003190112610147576004356001600160a01b038181169182900361014757600154908116906100dc823314610ddb565b8215610118576001600160a01b03191682176001557f8be0079c531659141344cd1fd0a4f28419497f9722a3daafe3b4186f6b6457e0600080a3005b60405162461bcd60e51b815260206004820152600760248201526606f776e65723d360cc1b6044820152606490fd5b600080fd5b60031960603682011261014757600435906001600160401b0390818311610147576101e09083360301126101475760243581811161014757610192903690600401610dab565b604493919335928311610147576101b06101e3933690600401610dab565b9390926101be600354610f13565b6101da8585858960448601356101d5811515610e47565b6113ab565b50600401611004565b94909360005b83811061031e576040516370a0823160e01b81523060048201526020906001600160a01b03908990828a16908481602481855afa9081156102a5576000916102f1575b50806102b1575b50803b15610147576000809160246040518094819363f2fde38b60e01b83523360048401525af180156102a557610296575b50166040519080337fd5f9bdf12adf29dab0248c349842c3822d53ae2bb4f36352f301630d018c8139600080a38152f35b61029f90610e13565b83610265565b6040513d6000823e3d90fd5b6102bc813384610e7e565b60405190815233907f67226bacccef969dab310a9e55dc1cf821363658e433fd330344f5cc00c79ac88686861692a384610233565b90508481813d8311610317575b6103088183610e26565b8101031261014757518561022c565b503d6102fe565b8061032d6103a2928488611334565b3580156103a757610347610342838888611334565b610f8e565b6001600160a01b03919061035f9082908b8516610e7e565b7f67226bacccef969dab310a9e55dc1cf821363658e433fd330344f5cc00c79ac8602083610391610342878c8c611334565b60405194855216938c1692a361130f565b6101e9565b5061130f565b34610147576000366003190112610147576020600454604051908152f35b6020600319818136011261014757600435906001600160401b038211610147576101e09082360301126101475761041e90610407600254610f13565b61041660448201351515610e47565b600401611004565b6001600160a01b03918216803b156101475760405163f2fde38b60e01b815233600482015260008160248183865af180156102a5576104fb575b506040516370a0823160e01b81523060048201528481602481855afa9081156102a5576000916104ce575b50806104bc575b5050166040519080337fd5f9bdf12adf29dab0248c349842c3822d53ae2bb4f36352f301630d018c8139600080a38152f35b6104c7913390610e7e565b838061048a565b90508481813d83116104f4575b6104e58183610e26565b81010312610147575185610483565b503d6104db565b61050490610e13565b84610458565b34610147576040366003190112610147576004356001600160a01b03818116918281036101475760243590826001541690610546823314610ddb565b600260005414610683576002600055931561067b575b5080610675575047905b47821161063957600080809381938616807fc0819c13be868895eb93e40eaceb96de976442fa1d404e5c55f14bb65a8c489a6020604051858152a25af13d15610634573d6001600160401b03811161061e57604051906105d0601f8201601f191660200183610e26565b8152600060203d92013e5b156105e7576001600055005b60405162461bcd60e51b815260206004820152600f60248201526e1dda5d1a191c985dc819985a5b1959608a1b6044820152606490fd5b634e487b7160e01b600052604160045260246000fd5b6105db565b60405162461bcd60e51b8152602060048201526014602482015273696e73756666696369656e742062616c616e636560601b6044820152606490fd5b90610566565b92508361055c565b604051633ee5aeb560e01b8152600490fd5b34610147576000366003190112610147576001546040516001600160a01b039091168152602090f35b34610147576000366003190112610147576040517f00000000000000000000000000000000000000000000000000000000000000006001600160a01b03168152602090f35b34610147576000366003190112610147576020600354604051908152f35b34610147576060366003190112610147576004356024356044359161075160018060a01b03600154163314610ddb565b670de0b6b3a764000080821161084d578083116108085783116107cc577f2e494fbb5d1bda2269c90d7124ba22ca99044b61d2a920ece35a1a1726ff0c379260c0926002549260035460045490826002558360035584600455604051958652602086015260408501526060840152608083015260a0820152a1005b60405162461bcd60e51b81526020600482015260146024820152730eccae6e8d2dcce40cccaca40e8dede40d0d2ced60631b6044820152606490fd5b60405162461bcd60e51b815260206004820152601960248201527f646973747269627574696f6e2066656520746f6f2068696768000000000000006044820152606490fd5b60405162461bcd60e51b81526020600482015260126024820152710c4c2e6d2c640cccaca40e8dede40d0d2ced60731b6044820152606490fd5b600319608036820112610147576001600160401b0360043511610147576101e09060043536030112610147576024356001600160401b038111610147576108d2903690600401610dab565b6044356001600160401b038111610147576108f1903690600401610dab565b9190606435916001600160401b0383116101475736602384011215610147576001600160401b038360040135116101475736602460a08560040135028501011161014757610940600454610f13565b610951604460043501351515610e47565b61096484838388604460043501356113ab565b6032846004013511610d12576000905b84600401358210610c58576109929150604460043501351015611367565b6109a0600435600401611004565b95909460005b838110610bd45787878760005b81600401358110610a635750506040516370a0823160e01b81523060048201526020926001600160a01b03929091908316908481602481855afa9081156102a5576000916102f15750806102b15750803b15610147576000809160246040518094819363f2fde38b60e01b83523360048401525af180156102a5576102965750166040519080337fd5f9bdf12adf29dab0248c349842c3822d53ae2bb4f36352f301630d018c8139600080a38152f35b610a75818360040135602485016114e6565b90610a9f7f00000000000000000000000000000000000000000000000000000000000000006112a7565b610aa883610f8e565b92610ab5602082016114f6565b610ac1604083016114f6565b90610ace606084016114f6565b906001600160a01b0385163b156101475760405163c5fa3da360e01b81526001600160a01b03808c16600483015297881660248201526001600160401b0391821660448201529281166064840152166084820152608082013560a482015293600090859060c4908290849087165af19384156102a557610bc094610bc5575b50610b666080820135836001600160a01b038916610e7e565b6001600160a01b03610b7782610f8e565b60405160809390930135835216916001600160a01b0390811691908816907f1b138257231d2c00719335bc377b9c84f462339563b691e1dab140fbef52b41e90602090a461130f565b6109b3565b610bce90610e13565b87610b4d565b80610be3610c53928488611334565b3580156103a757610bf8610342838888611334565b6001600160a01b039190610c109082908c8516610e7e565b7f67226bacccef969dab310a9e55dc1cf821363658e433fd330344f5cc00c79ac8602083610c42610342878c8c611334565b60405194855216938d1692a361130f565b6109a6565b610c6a828660040135602488016114e6565b6001600160a01b03610c7b82610f8e565b1615610cdd5760800135908115610ca557610c9f91610c999161135a565b9161130f565b90610974565b60405162461bcd60e51b815260206004820152601060248201526f076657374696e6720616d6f756e743d360841b6044820152606490fd5b60405162461bcd60e51b815260206004820152600d60248201526c062656e65666963696172793d3609c1b6044820152606490fd5b60405162461bcd60e51b8152602060048201526011602482015270746f6f206d616e792076657374696e677360781b6044820152606490fd5b34610147576000366003190112610147576020600254604051908152f35b34610147576000366003190112610147577f00000000000000000000000000000000000000000000000000000000000000006001600160a01b03168152602090f35b9181601f84011215610147578235916001600160401b038311610147576020808501948460051b01011161014757565b15610de257565b60405162461bcd60e51b81526020600482015260096024820152683737ba1037bbb732b960b91b6044820152606490fd5b6001600160401b03811161061e57604052565b90601f801991011681019081106001600160401b0382111761061e57604052565b15610e4e57565b60405162461bcd60e51b81526020600482015260086024820152670737570706c793d360c41b6044820152606490fd5b60405163a9059cbb60e01b602082019081526001600160a01b039384166024830152604480830195909552938152909260808201906001600160401b0382118383101761061e57602092600092604052519082865af1156102a5576000513d610f0a57508082163b155b610ef0575050565b604051635274afe760e01b81529116600482015260249150fd5b60011415610ee8565b80610f57575034610f2057565b60405162461bcd60e51b815260206004820152600f60248201526e1b9bc8199959481c995c5d5a5c9959608a1b6044820152606490fd5b3403610f5f57565b60405162461bcd60e51b81526020600482015260076024820152666261642066656560c81b6044820152606490fd5b356001600160a01b03811681036101475790565b903590601e198136030182121561014757018035906001600160401b0382116101475760200191813603831361014757565b908060209392818452848401376000828201840152601f01601f1916010190565b3561ffff811681036101475790565b61101060608201610f8e565b916001600160a01b03916000908385161561129f575b61104f7f00000000000000000000000000000000000000000000000000000000000000006112a7565b938085169561105e8380610fa2565b909161106d6020860186610fa2565b94908a3b1561129b57918793916110bf6110ad969460409889519889978897631d1ee28760e21b89523060048a015260a060248a015260a4890191610fd4565b86810360031901604488015291610fd4565b918789013560648501521660848301520381838b5af1801561126657611288575b506110ed60808301610ff5565b6110f960a08401610ff5565b61110560c08501610ff5565b91883b15611270578351636951a07960e01b815261ffff918216600482015291811660248301529190911660448201528381606481838b5af1801561126657908491611274575b505061115a60e08301610ff5565b6111676101008401610ff5565b6111746101208501610ff5565b91883b15611270578351637e3615ed60e11b815261ffff918216600482015291811660248301529190911660448201528381606481838b5af180156112665790849161124e575b50506101808201359182151580930361124a57863b1561124a578151639f52256b60e01b81526101408201356004820152610160820135602482015260448101939093526101a081013560648401526101c001356084830152828260a481838a5af1908115611241575061122d575050565b6112378291610e13565b61123e5750565b80fd5b513d84823e3d90fd5b8380fd5b61125790610e13565b6112625782386111bb565b8280fd5b82513d86823e3d90fd5b8580fd5b61127d90610e13565b61126257823861114c565b61129490939193610e13565b91386110e0565b8780fd5b339450611026565b6e5af43d82803e903d91602b57fd5bf390763d602d80600a3d3981f3363d3d373d3d3d363d7300000062ffffff8260881c161760005260781b17602052603760096000f0906001600160a01b038216156112fd57565b60405163b06ebf3d60e01b8152600490fd5b600019811461131e5760010190565b634e487b7160e01b600052601160045260246000fd5b91908110156113445760051b0190565b634e487b7160e01b600052603260045260246000fd5b9190820180921161131e57565b1561136e57565b60405162461bcd60e51b8152602060048201526015602482015274646973747269627574696f6e203e20737570706c7960581b6044820152606490fd5b9294939190946000958383036114af5760649081841161147657939291906000945b8386106113e8575050505050506113e690831115611367565b565b90919293949760018060a01b036114036103428b8886611334565b161561144457611414898786611334565b359081156114395761142f916114299161135a565b9861130f565b94939291906113cd565b9861142f915061130f565b60405162461bcd60e51b815260206004820152600b60248201526a0726563697069656e743d360ac1b60448201528390fd5b5060405162461bcd60e51b8152602060048201526013602482015272746f6f206d616e7920726563697069656e747360681b6044820152fd5b60405162461bcd60e51b815260206004820152600f60248201526e0d8cadccee8d040dad2e6dac2e8c6d608b1b6044820152606490fd5b91908110156113445760a0020190565b356001600160401b0381168103610147579056fea2646970667358221220b04366844a2b229f11e574489d074f342cc8a7d3bc8e01c2ccc5fa152f04e96164736f6c63430008140033","opcodes":"PUSH1 0xC0 CALLVALUE PUSH2 0x169 JUMPI PUSH1 0x1F PUSH2 0x16D9 CODESIZE DUP2 SWAP1 SUB SWAP2 DUP3 ADD PUSH1 0x1F NOT AND DUP4 ADD SWAP2 PUSH1 0x1 PUSH1 0x1 PUSH1 0x40 SHL SUB DUP4 GT DUP5 DUP5 LT OR PUSH2 0x16E JUMPI DUP1 DUP5 SWAP3 PUSH1 0x40 SWAP5 DUP6 MSTORE DUP4 CODECOPY DUP2 ADD SUB SLT PUSH2 0x169 JUMPI PUSH2 0x52 PUSH1 0x20 PUSH2 0x4B DUP4 PUSH2 0x184 JUMP JUMPDEST SWAP3 ADD PUSH2 0x184 JUMP JUMPDEST PUSH1 0x1 PUSH1 0x0 SSTORE SWAP1 PUSH1 0x1 PUSH1 0x1 PUSH1 0xA0 SHL SUB DUP1 DUP3 AND ISZERO PUSH2 0x136 JUMPI DUP3 AND ISZERO PUSH2 0x101 JUMPI PUSH1 0x80 MSTORE PUSH1 0xA0 MSTORE PUSH1 0x1 DUP1 SLOAD PUSH1 0x1 PUSH1 0x1 PUSH1 0xA0 SHL SUB NOT AND CALLER SWAP1 DUP2 OR SWAP1 SWAP2 SSTORE PUSH1 0x40 MLOAD SWAP1 PUSH1 0x0 PUSH32 0x8BE0079C531659141344CD1FD0A4F28419497F9722A3DAAFE3B4186F6B6457E0 DUP2 DUP1 LOG3 PUSH7 0x1C6BF52634000 PUSH1 0x2 SSTORE PUSH7 0xAA87BEE538000 PUSH1 0x3 SSTORE PUSH7 0x11C37937E08000 PUSH1 0x4 SSTORE PUSH2 0x1540 SWAP1 DUP2 PUSH2 0x199 DUP3 CODECOPY PUSH1 0x80 MLOAD DUP2 DUP2 DUP2 PUSH2 0xD7C ADD MSTORE PUSH2 0x102B ADD MSTORE PUSH1 0xA0 MLOAD DUP2 DUP2 DUP2 PUSH2 0x6D4 ADD MSTORE PUSH2 0xA7B ADD MSTORE RETURN JUMPDEST PUSH1 0x40 MLOAD PUSH3 0x461BCD PUSH1 0xE5 SHL DUP2 MSTORE PUSH1 0x20 PUSH1 0x4 DUP3 ADD MSTORE PUSH1 0xD PUSH1 0x24 DUP3 ADD MSTORE PUSH13 0x76657374696E67496D706C3D3 PUSH1 0x9C SHL PUSH1 0x44 DUP3 ADD MSTORE PUSH1 0x64 SWAP1 REVERT JUMPDEST PUSH1 0x40 MLOAD PUSH3 0x461BCD PUSH1 0xE5 SHL DUP2 MSTORE PUSH1 0x20 PUSH1 0x4 DUP3 ADD MSTORE PUSH1 0xB PUSH1 0x24 DUP3 ADD MSTORE PUSH11 0x746F6B656E496D706C3D3 PUSH1 0xAC SHL PUSH1 0x44 DUP3 ADD MSTORE PUSH1 0x64 SWAP1 REVERT JUMPDEST PUSH1 0x0 DUP1 REVERT JUMPDEST PUSH4 0x4E487B71 PUSH1 0xE0 SHL PUSH1 0x0 MSTORE PUSH1 0x41 PUSH1 0x4 MSTORE PUSH1 0x24 PUSH1 0x0 REVERT JUMPDEST MLOAD SWAP1 PUSH1 0x1 PUSH1 0x1 PUSH1 0xA0 SHL SUB DUP3 AND DUP3 SUB PUSH2 0x169 JUMPI JUMP INVALID PUSH1 0x80 DUP1 PUSH1 0x40 MSTORE PUSH1 0x4 CALLDATASIZE LT ISZERO PUSH2 0x13 JUMPI PUSH1 0x0 DUP1 REVERT JUMPDEST PUSH1 0x0 CALLDATALOAD PUSH1 0xE0 SHR SWAP1 DUP2 PUSH4 0x2F3A3D5D EQ PUSH2 0xD69 JUMPI POP DUP1 PUSH4 0x308CC33D EQ PUSH2 0xD4B JUMPI DUP1 PUSH4 0x3CB35165 EQ PUSH2 0x887 JUMPI DUP1 PUSH4 0x3DB315BA EQ PUSH2 0x721 JUMPI DUP1 PUSH4 0x79046732 EQ PUSH2 0x703 JUMPI DUP1 PUSH4 0x8882A2F6 EQ PUSH2 0x6BE JUMPI DUP1 PUSH4 0x8DA5CB5B EQ PUSH2 0x695 JUMPI DUP1 PUSH4 0xAD3B1B47 EQ PUSH2 0x50A JUMPI DUP1 PUSH4 0xB93C95F3 EQ PUSH2 0x3CB JUMPI DUP1 PUSH4 0xC48B374D EQ PUSH2 0x3AD JUMPI DUP1 PUSH4 0xD9A3C821 EQ PUSH2 0x14C JUMPI PUSH4 0xF2FDE38B EQ PUSH2 0xA3 JUMPI PUSH1 0x0 DUP1 REVERT JUMPDEST CALLVALUE PUSH2 0x147 JUMPI PUSH1 0x20 CALLDATASIZE PUSH1 0x3 NOT ADD SLT PUSH2 0x147 JUMPI PUSH1 0x4 CALLDATALOAD PUSH1 0x1 PUSH1 0x1 PUSH1 0xA0 SHL SUB DUP2 DUP2 AND SWAP2 DUP3 SWAP1 SUB PUSH2 0x147 JUMPI PUSH1 0x1 SLOAD SWAP1 DUP2 AND SWAP1 PUSH2 0xDC DUP3 CALLER EQ PUSH2 0xDDB JUMP JUMPDEST DUP3 ISZERO PUSH2 0x118 JUMPI PUSH1 0x1 PUSH1 0x1 PUSH1 0xA0 SHL SUB NOT AND DUP3 OR PUSH1 0x1 SSTORE PUSH32 0x8BE0079C531659141344CD1FD0A4F28419497F9722A3DAAFE3B4186F6B6457E0 PUSH1 0x0 DUP1 LOG3 STOP JUMPDEST PUSH1 0x40 MLOAD PUSH3 0x461BCD PUSH1 0xE5 SHL DUP2 MSTORE PUSH1 0x20 PUSH1 0x4 DUP3 ADD MSTORE PUSH1 0x7 PUSH1 0x24 DUP3 ADD MSTORE PUSH7 0x6F776E65723D3 PUSH1 0xCC SHL PUSH1 0x44 DUP3 ADD MSTORE PUSH1 0x64 SWAP1 REVERT JUMPDEST PUSH1 0x0 DUP1 REVERT JUMPDEST PUSH1 0x3 NOT PUSH1 0x60 CALLDATASIZE DUP3 ADD SLT PUSH2 0x147 JUMPI PUSH1 0x4 CALLDATALOAD SWAP1 PUSH1 0x1 PUSH1 0x1 PUSH1 0x40 SHL SUB SWAP1 DUP2 DUP4 GT PUSH2 0x147 JUMPI PUSH2 0x1E0 SWAP1 DUP4 CALLDATASIZE SUB ADD SLT PUSH2 0x147 JUMPI PUSH1 0x24 CALLDATALOAD DUP2 DUP2 GT PUSH2 0x147 JUMPI PUSH2 0x192 SWAP1 CALLDATASIZE SWAP1 PUSH1 0x4 ADD PUSH2 0xDAB JUMP JUMPDEST PUSH1 0x44 SWAP4 SWAP2 SWAP4 CALLDATALOAD SWAP3 DUP4 GT PUSH2 0x147 JUMPI PUSH2 0x1B0 PUSH2 0x1E3 SWAP4 CALLDATASIZE SWAP1 PUSH1 0x4 ADD PUSH2 0xDAB JUMP JUMPDEST SWAP4 SWAP1 SWAP3 PUSH2 0x1BE PUSH1 0x3 SLOAD PUSH2 0xF13 JUMP JUMPDEST PUSH2 0x1DA DUP6 DUP6 DUP6 DUP10 PUSH1 0x44 DUP7 ADD CALLDATALOAD PUSH2 0x1D5 DUP2 ISZERO ISZERO PUSH2 0xE47 JUMP JUMPDEST PUSH2 0x13AB JUMP JUMPDEST POP PUSH1 0x4 ADD PUSH2 0x1004 JUMP JUMPDEST SWAP5 SWAP1 SWAP4 PUSH1 0x0 JUMPDEST DUP4 DUP2 LT PUSH2 0x31E JUMPI PUSH1 0x40 MLOAD PUSH4 0x70A08231 PUSH1 0xE0 SHL DUP2 MSTORE ADDRESS PUSH1 0x4 DUP3 ADD MSTORE PUSH1 0x20 SWAP1 PUSH1 0x1 PUSH1 0x1 PUSH1 0xA0 SHL SUB SWAP1 DUP10 SWAP1 DUP3 DUP11 AND SWAP1 DUP5 DUP2 PUSH1 0x24 DUP2 DUP6 GAS STATICCALL SWAP1 DUP2 ISZERO PUSH2 0x2A5 JUMPI PUSH1 0x0 SWAP2 PUSH2 0x2F1 JUMPI JUMPDEST POP DUP1 PUSH2 0x2B1 JUMPI JUMPDEST POP DUP1 EXTCODESIZE ISZERO PUSH2 0x147 JUMPI PUSH1 0x0 DUP1 SWAP2 PUSH1 0x24 PUSH1 0x40 MLOAD DUP1 SWAP5 DUP2 SWAP4 PUSH4 0xF2FDE38B PUSH1 0xE0 SHL DUP4 MSTORE CALLER PUSH1 0x4 DUP5 ADD MSTORE GAS CALL DUP1 ISZERO PUSH2 0x2A5 JUMPI PUSH2 0x296 JUMPI JUMPDEST POP AND PUSH1 0x40 MLOAD SWAP1 DUP1 CALLER PUSH32 0xD5F9BDF12ADF29DAB0248C349842C3822D53AE2BB4F36352F301630D018C8139 PUSH1 0x0 DUP1 LOG3 DUP2 MSTORE RETURN JUMPDEST PUSH2 0x29F SWAP1 PUSH2 0xE13 JUMP JUMPDEST DUP4 PUSH2 0x265 JUMP JUMPDEST PUSH1 0x40 MLOAD RETURNDATASIZE PUSH1 0x0 DUP3 RETURNDATACOPY RETURNDATASIZE SWAP1 REVERT JUMPDEST PUSH2 0x2BC DUP2 CALLER DUP5 PUSH2 0xE7E JUMP JUMPDEST PUSH1 0x40 MLOAD SWAP1 DUP2 MSTORE CALLER SWAP1 PUSH32 0x67226BACCCEF969DAB310A9E55DC1CF821363658E433FD330344F5CC00C79AC8 DUP7 DUP7 DUP7 AND SWAP3 LOG3 DUP5 PUSH2 0x233 JUMP JUMPDEST SWAP1 POP DUP5 DUP2 DUP2 RETURNDATASIZE DUP4 GT PUSH2 0x317 JUMPI JUMPDEST PUSH2 0x308 DUP2 DUP4 PUSH2 0xE26 JUMP JUMPDEST DUP2 ADD SUB SLT PUSH2 0x147 JUMPI MLOAD DUP6 PUSH2 0x22C JUMP JUMPDEST POP RETURNDATASIZE PUSH2 0x2FE JUMP JUMPDEST DUP1 PUSH2 0x32D PUSH2 0x3A2 SWAP3 DUP5 DUP9 PUSH2 0x1334 JUMP JUMPDEST CALLDATALOAD DUP1 ISZERO PUSH2 0x3A7 JUMPI PUSH2 0x347 PUSH2 0x342 DUP4 DUP9 DUP9 PUSH2 0x1334 JUMP JUMPDEST PUSH2 0xF8E JUMP JUMPDEST PUSH1 0x1 PUSH1 0x1 PUSH1 0xA0 SHL SUB SWAP2 SWAP1 PUSH2 0x35F SWAP1 DUP3 SWAP1 DUP12 DUP6 AND PUSH2 0xE7E JUMP JUMPDEST PUSH32 0x67226BACCCEF969DAB310A9E55DC1CF821363658E433FD330344F5CC00C79AC8 PUSH1 0x20 DUP4 PUSH2 0x391 PUSH2 0x342 DUP8 DUP13 DUP13 PUSH2 0x1334 JUMP JUMPDEST PUSH1 0x40 MLOAD SWAP5 DUP6 MSTORE AND SWAP4 DUP13 AND SWAP3 LOG3 PUSH2 0x130F JUMP JUMPDEST PUSH2 0x1E9 JUMP JUMPDEST POP PUSH2 0x130F JUMP JUMPDEST CALLVALUE PUSH2 0x147 JUMPI PUSH1 0x0 CALLDATASIZE PUSH1 0x3 NOT ADD SLT PUSH2 0x147 JUMPI PUSH1 0x20 PUSH1 0x4 SLOAD PUSH1 0x40 MLOAD SWAP1 DUP2 MSTORE RETURN JUMPDEST PUSH1 0x20 PUSH1 0x3 NOT DUP2 DUP2 CALLDATASIZE ADD SLT PUSH2 0x147 JUMPI PUSH1 0x4 CALLDATALOAD SWAP1 PUSH1 0x1 PUSH1 0x1 PUSH1 0x40 SHL SUB DUP3 GT PUSH2 0x147 JUMPI PUSH2 0x1E0 SWAP1 DUP3 CALLDATASIZE SUB ADD SLT PUSH2 0x147 JUMPI PUSH2 0x41E SWAP1 PUSH2 0x407 PUSH1 0x2 SLOAD PUSH2 0xF13 JUMP JUMPDEST PUSH2 0x416 PUSH1 0x44 DUP3 ADD CALLDATALOAD ISZERO ISZERO PUSH2 0xE47 JUMP JUMPDEST PUSH1 0x4 ADD PUSH2 0x1004 JUMP JUMPDEST PUSH1 0x1 PUSH1 0x1 PUSH1 0xA0 SHL SUB SWAP2 DUP3 AND DUP1 EXTCODESIZE ISZERO PUSH2 0x147 JUMPI PUSH1 0x40 MLOAD PUSH4 0xF2FDE38B PUSH1 0xE0 SHL DUP2 MSTORE CALLER PUSH1 0x4 DUP3 ADD MSTORE PUSH1 0x0 DUP2 PUSH1 0x24 DUP2 DUP4 DUP7 GAS CALL DUP1 ISZERO PUSH2 0x2A5 JUMPI PUSH2 0x4FB JUMPI JUMPDEST POP PUSH1 0x40 MLOAD PUSH4 0x70A08231 PUSH1 0xE0 SHL DUP2 MSTORE ADDRESS PUSH1 0x4 DUP3 ADD MSTORE DUP5 DUP2 PUSH1 0x24 DUP2 DUP6 GAS STATICCALL SWAP1 DUP2 ISZERO PUSH2 0x2A5 JUMPI PUSH1 0x0 SWAP2 PUSH2 0x4CE JUMPI JUMPDEST POP DUP1 PUSH2 0x4BC JUMPI JUMPDEST POP POP AND PUSH1 0x40 MLOAD SWAP1 DUP1 CALLER PUSH32 0xD5F9BDF12ADF29DAB0248C349842C3822D53AE2BB4F36352F301630D018C8139 PUSH1 0x0 DUP1 LOG3 DUP2 MSTORE RETURN JUMPDEST PUSH2 0x4C7 SWAP2 CALLER SWAP1 PUSH2 0xE7E JUMP JUMPDEST DUP4 DUP1 PUSH2 0x48A JUMP JUMPDEST SWAP1 POP DUP5 DUP2 DUP2 RETURNDATASIZE DUP4 GT PUSH2 0x4F4 JUMPI JUMPDEST PUSH2 0x4E5 DUP2 DUP4 PUSH2 0xE26 JUMP JUMPDEST DUP2 ADD SUB SLT PUSH2 0x147 JUMPI MLOAD DUP6 PUSH2 0x483 JUMP JUMPDEST POP RETURNDATASIZE PUSH2 0x4DB JUMP JUMPDEST PUSH2 0x504 SWAP1 PUSH2 0xE13 JUMP JUMPDEST DUP5 PUSH2 0x458 JUMP JUMPDEST CALLVALUE PUSH2 0x147 JUMPI PUSH1 0x40 CALLDATASIZE PUSH1 0x3 NOT ADD SLT PUSH2 0x147 JUMPI PUSH1 0x4 CALLDATALOAD PUSH1 0x1 PUSH1 0x1 PUSH1 0xA0 SHL SUB DUP2 DUP2 AND SWAP2 DUP3 DUP2 SUB PUSH2 0x147 JUMPI PUSH1 0x24 CALLDATALOAD SWAP1 DUP3 PUSH1 0x1 SLOAD AND SWAP1 PUSH2 0x546 DUP3 CALLER EQ PUSH2 0xDDB JUMP JUMPDEST PUSH1 0x2 PUSH1 0x0 SLOAD EQ PUSH2 0x683 JUMPI PUSH1 0x2 PUSH1 0x0 SSTORE SWAP4 ISZERO PUSH2 0x67B JUMPI JUMPDEST POP DUP1 PUSH2 0x675 JUMPI POP SELFBALANCE SWAP1 JUMPDEST SELFBALANCE DUP3 GT PUSH2 0x639 JUMPI PUSH1 0x0 DUP1 DUP1 SWAP4 DUP2 SWAP4 DUP7 AND DUP1 PUSH32 0xC0819C13BE868895EB93E40EACEB96DE976442FA1D404E5C55F14BB65A8C489A PUSH1 0x20 PUSH1 0x40 MLOAD DUP6 DUP2 MSTORE LOG2 GAS CALL RETURNDATASIZE ISZERO PUSH2 0x634 JUMPI RETURNDATASIZE PUSH1 0x1 PUSH1 0x1 PUSH1 0x40 SHL SUB DUP2 GT PUSH2 0x61E JUMPI PUSH1 0x40 MLOAD SWAP1 PUSH2 0x5D0 PUSH1 0x1F DUP3 ADD PUSH1 0x1F NOT AND PUSH1 0x20 ADD DUP4 PUSH2 0xE26 JUMP JUMPDEST DUP2 MSTORE PUSH1 0x0 PUSH1 0x20 RETURNDATASIZE SWAP3 ADD RETURNDATACOPY JUMPDEST ISZERO PUSH2 0x5E7 JUMPI PUSH1 0x1 PUSH1 0x0 SSTORE STOP JUMPDEST PUSH1 0x40 MLOAD PUSH3 0x461BCD PUSH1 0xE5 SHL DUP2 MSTORE PUSH1 0x20 PUSH1 0x4 DUP3 ADD MSTORE PUSH1 0xF PUSH1 0x24 DUP3 ADD MSTORE PUSH15 0x1DDA5D1A191C985DC819985A5B1959 PUSH1 0x8A SHL PUSH1 0x44 DUP3 ADD MSTORE PUSH1 0x64 SWAP1 REVERT JUMPDEST PUSH4 0x4E487B71 PUSH1 0xE0 SHL PUSH1 0x0 MSTORE PUSH1 0x41 PUSH1 0x4 MSTORE PUSH1 0x24 PUSH1 0x0 REVERT JUMPDEST PUSH2 0x5DB JUMP JUMPDEST PUSH1 0x40 MLOAD PUSH3 0x461BCD PUSH1 0xE5 SHL DUP2 MSTORE PUSH1 0x20 PUSH1 0x4 DUP3 ADD MSTORE PUSH1 0x14 PUSH1 0x24 DUP3 ADD MSTORE PUSH20 0x696E73756666696369656E742062616C616E6365 PUSH1 0x60 SHL PUSH1 0x44 DUP3 ADD MSTORE PUSH1 0x64 SWAP1 REVERT JUMPDEST SWAP1 PUSH2 0x566 JUMP JUMPDEST SWAP3 POP DUP4 PUSH2 0x55C JUMP JUMPDEST PUSH1 0x40 MLOAD PUSH4 0x3EE5AEB5 PUSH1 0xE0 SHL DUP2 MSTORE PUSH1 0x4 SWAP1 REVERT JUMPDEST CALLVALUE PUSH2 0x147 JUMPI PUSH1 0x0 CALLDATASIZE PUSH1 0x3 NOT ADD SLT PUSH2 0x147 JUMPI PUSH1 0x1 SLOAD PUSH1 0x40 MLOAD PUSH1 0x1 PUSH1 0x1 PUSH1 0xA0 SHL SUB SWAP1 SWAP2 AND DUP2 MSTORE PUSH1 0x20 SWAP1 RETURN JUMPDEST CALLVALUE PUSH2 0x147 JUMPI PUSH1 0x0 CALLDATASIZE PUSH1 0x3 NOT ADD SLT PUSH2 0x147 JUMPI PUSH1 0x40 MLOAD PUSH32 0x0 PUSH1 0x1 PUSH1 0x1 PUSH1 0xA0 SHL SUB AND DUP2 MSTORE PUSH1 0x20 SWAP1 RETURN JUMPDEST CALLVALUE PUSH2 0x147 JUMPI PUSH1 0x0 CALLDATASIZE PUSH1 0x3 NOT ADD SLT PUSH2 0x147 JUMPI PUSH1 0x20 PUSH1 0x3 SLOAD PUSH1 0x40 MLOAD SWAP1 DUP2 MSTORE RETURN JUMPDEST CALLVALUE PUSH2 0x147 JUMPI PUSH1 0x60 CALLDATASIZE PUSH1 0x3 NOT ADD SLT PUSH2 0x147 JUMPI PUSH1 0x4 CALLDATALOAD PUSH1 0x24 CALLDATALOAD PUSH1 0x44 CALLDATALOAD SWAP2 PUSH2 0x751 PUSH1 0x1 DUP1 PUSH1 0xA0 SHL SUB PUSH1 0x1 SLOAD AND CALLER EQ PUSH2 0xDDB JUMP JUMPDEST PUSH8 0xDE0B6B3A7640000 DUP1 DUP3 GT PUSH2 0x84D JUMPI DUP1 DUP4 GT PUSH2 0x808 JUMPI DUP4 GT PUSH2 0x7CC JUMPI PUSH32 0x2E494FBB5D1BDA2269C90D7124BA22CA99044B61D2A920ECE35A1A1726FF0C37 SWAP3 PUSH1 0xC0 SWAP3 PUSH1 0x2 SLOAD SWAP3 PUSH1 0x3 SLOAD PUSH1 0x4 SLOAD SWAP1 DUP3 PUSH1 0x2 SSTORE DUP4 PUSH1 0x3 SSTORE DUP5 PUSH1 0x4 SSTORE PUSH1 0x40 MLOAD SWAP6 DUP7 MSTORE PUSH1 0x20 DUP7 ADD MSTORE PUSH1 0x40 DUP6 ADD MSTORE PUSH1 0x60 DUP5 ADD MSTORE PUSH1 0x80 DUP4 ADD MSTORE PUSH1 0xA0 DUP3 ADD MSTORE LOG1 STOP JUMPDEST PUSH1 0x40 MLOAD PUSH3 0x461BCD PUSH1 0xE5 SHL DUP2 MSTORE PUSH1 0x20 PUSH1 0x4 DUP3 ADD MSTORE PUSH1 0x14 PUSH1 0x24 DUP3 ADD MSTORE PUSH20 0xECCAE6E8D2DCCE40CCCACA40E8DEDE40D0D2CED PUSH1 0x63 SHL PUSH1 0x44 DUP3 ADD MSTORE PUSH1 0x64 SWAP1 REVERT JUMPDEST PUSH1 0x40 MLOAD PUSH3 0x461BCD PUSH1 0xE5 SHL DUP2 MSTORE PUSH1 0x20 PUSH1 0x4 DUP3 ADD MSTORE PUSH1 0x19 PUSH1 0x24 DUP3 ADD MSTORE PUSH32 0x646973747269627574696F6E2066656520746F6F206869676800000000000000 PUSH1 0x44 DUP3 ADD MSTORE PUSH1 0x64 SWAP1 REVERT JUMPDEST PUSH1 0x40 MLOAD PUSH3 0x461BCD PUSH1 0xE5 SHL DUP2 MSTORE PUSH1 0x20 PUSH1 0x4 DUP3 ADD MSTORE PUSH1 0x12 PUSH1 0x24 DUP3 ADD MSTORE PUSH18 0xC4C2E6D2C640CCCACA40E8DEDE40D0D2CED PUSH1 0x73 SHL PUSH1 0x44 DUP3 ADD MSTORE PUSH1 0x64 SWAP1 REVERT JUMPDEST PUSH1 0x3 NOT PUSH1 0x80 CALLDATASIZE DUP3 ADD SLT PUSH2 0x147 JUMPI PUSH1 0x1 PUSH1 0x1 PUSH1 0x40 SHL SUB PUSH1 0x4 CALLDATALOAD GT PUSH2 0x147 JUMPI PUSH2 0x1E0 SWAP1 PUSH1 0x4 CALLDATALOAD CALLDATASIZE SUB ADD SLT PUSH2 0x147 JUMPI PUSH1 0x24 CALLDATALOAD PUSH1 0x1 PUSH1 0x1 PUSH1 0x40 SHL SUB DUP2 GT PUSH2 0x147 JUMPI PUSH2 0x8D2 SWAP1 CALLDATASIZE SWAP1 PUSH1 0x4 ADD PUSH2 0xDAB JUMP JUMPDEST PUSH1 0x44 CALLDATALOAD PUSH1 0x1 PUSH1 0x1 PUSH1 0x40 SHL SUB DUP2 GT PUSH2 0x147 JUMPI PUSH2 0x8F1 SWAP1 CALLDATASIZE SWAP1 PUSH1 0x4 ADD PUSH2 0xDAB JUMP JUMPDEST SWAP2 SWAP1 PUSH1 0x64 CALLDATALOAD SWAP2 PUSH1 0x1 PUSH1 0x1 PUSH1 0x40 SHL SUB DUP4 GT PUSH2 0x147 JUMPI CALLDATASIZE PUSH1 0x23 DUP5 ADD SLT ISZERO PUSH2 0x147 JUMPI PUSH1 0x1 PUSH1 0x1 PUSH1 0x40 SHL SUB DUP4 PUSH1 0x4 ADD CALLDATALOAD GT PUSH2 0x147 JUMPI CALLDATASIZE PUSH1 0x24 PUSH1 0xA0 DUP6 PUSH1 0x4 ADD CALLDATALOAD MUL DUP6 ADD ADD GT PUSH2 0x147 JUMPI PUSH2 0x940 PUSH1 0x4 SLOAD PUSH2 0xF13 JUMP JUMPDEST PUSH2 0x951 PUSH1 0x44 PUSH1 0x4 CALLDATALOAD ADD CALLDATALOAD ISZERO ISZERO PUSH2 0xE47 JUMP JUMPDEST PUSH2 0x964 DUP5 DUP4 DUP4 DUP9 PUSH1 0x44 PUSH1 0x4 CALLDATALOAD ADD CALLDATALOAD PUSH2 0x13AB JUMP JUMPDEST PUSH1 0x32 DUP5 PUSH1 0x4 ADD CALLDATALOAD GT PUSH2 0xD12 JUMPI PUSH1 0x0 SWAP1 JUMPDEST DUP5 PUSH1 0x4 ADD CALLDATALOAD DUP3 LT PUSH2 0xC58 JUMPI PUSH2 0x992 SWAP2 POP PUSH1 0x44 PUSH1 0x4 CALLDATALOAD ADD CALLDATALOAD LT ISZERO PUSH2 0x1367 JUMP JUMPDEST PUSH2 0x9A0 PUSH1 0x4 CALLDATALOAD PUSH1 0x4 ADD PUSH2 0x1004 JUMP JUMPDEST SWAP6 SWAP1 SWAP5 PUSH1 0x0 JUMPDEST DUP4 DUP2 LT PUSH2 0xBD4 JUMPI DUP8 DUP8 DUP8 PUSH1 0x0 JUMPDEST DUP2 PUSH1 0x4 ADD CALLDATALOAD DUP2 LT PUSH2 0xA63 JUMPI POP POP PUSH1 0x40 MLOAD PUSH4 0x70A08231 PUSH1 0xE0 SHL DUP2 MSTORE ADDRESS PUSH1 0x4 DUP3 ADD MSTORE PUSH1 0x20 SWAP3 PUSH1 0x1 PUSH1 0x1 PUSH1 0xA0 SHL SUB SWAP3 SWAP1 SWAP2 SWAP1 DUP4 AND SWAP1 DUP5 DUP2 PUSH1 0x24 DUP2 DUP6 GAS STATICCALL SWAP1 DUP2 ISZERO PUSH2 0x2A5 JUMPI PUSH1 0x0 SWAP2 PUSH2 0x2F1 JUMPI POP DUP1 PUSH2 0x2B1 JUMPI POP DUP1 EXTCODESIZE ISZERO PUSH2 0x147 JUMPI PUSH1 0x0 DUP1 SWAP2 PUSH1 0x24 PUSH1 0x40 MLOAD DUP1 SWAP5 DUP2 SWAP4 PUSH4 0xF2FDE38B PUSH1 0xE0 SHL DUP4 MSTORE CALLER PUSH1 0x4 DUP5 ADD MSTORE GAS CALL DUP1 ISZERO PUSH2 0x2A5 JUMPI PUSH2 0x296 JUMPI POP AND PUSH1 0x40 MLOAD SWAP1 DUP1 CALLER PUSH32 0xD5F9BDF12ADF29DAB0248C349842C3822D53AE2BB4F36352F301630D018C8139 PUSH1 0x0 DUP1 LOG3 DUP2 MSTORE RETURN JUMPDEST PUSH2 0xA75 DUP2 DUP4 PUSH1 0x4 ADD CALLDATALOAD PUSH1 0x24 DUP6 ADD PUSH2 0x14E6 JUMP JUMPDEST SWAP1 PUSH2 0xA9F PUSH32 0x0 PUSH2 0x12A7 JUMP JUMPDEST PUSH2 0xAA8 DUP4 PUSH2 0xF8E JUMP JUMPDEST SWAP3 PUSH2 0xAB5 PUSH1 0x20 DUP3 ADD PUSH2 0x14F6 JUMP JUMPDEST PUSH2 0xAC1 PUSH1 0x40 DUP4 ADD PUSH2 0x14F6 JUMP JUMPDEST SWAP1 PUSH2 0xACE PUSH1 0x60 DUP5 ADD PUSH2 0x14F6 JUMP JUMPDEST SWAP1 PUSH1 0x1 PUSH1 0x1 PUSH1 0xA0 SHL SUB DUP6 AND EXTCODESIZE ISZERO PUSH2 0x147 JUMPI PUSH1 0x40 MLOAD PUSH4 0xC5FA3DA3 PUSH1 0xE0 SHL DUP2 MSTORE PUSH1 0x1 PUSH1 0x1 PUSH1 0xA0 SHL SUB DUP1 DUP13 AND PUSH1 0x4 DUP4 ADD MSTORE SWAP8 DUP9 AND PUSH1 0x24 DUP3 ADD MSTORE PUSH1 0x1 PUSH1 0x1 PUSH1 0x40 SHL SUB SWAP2 DUP3 AND PUSH1 0x44 DUP3 ADD MSTORE SWAP3 DUP2 AND PUSH1 0x64 DUP5 ADD MSTORE AND PUSH1 0x84 DUP3 ADD MSTORE PUSH1 0x80 DUP3 ADD CALLDATALOAD PUSH1 0xA4 DUP3 ADD MSTORE SWAP4 PUSH1 0x0 SWAP1 DUP6 SWAP1 PUSH1 0xC4 SWAP1 DUP3 SWAP1 DUP5 SWAP1 DUP8 AND GAS CALL SWAP4 DUP5 ISZERO PUSH2 0x2A5 JUMPI PUSH2 0xBC0 SWAP5 PUSH2 0xBC5 JUMPI JUMPDEST POP PUSH2 0xB66 PUSH1 0x80 DUP3 ADD CALLDATALOAD DUP4 PUSH1 0x1 PUSH1 0x1 PUSH1 0xA0 SHL SUB DUP10 AND PUSH2 0xE7E JUMP JUMPDEST PUSH1 0x1 PUSH1 0x1 PUSH1 0xA0 SHL SUB PUSH2 0xB77 DUP3 PUSH2 0xF8E JUMP JUMPDEST PUSH1 0x40 MLOAD PUSH1 0x80 SWAP4 SWAP1 SWAP4 ADD CALLDATALOAD DUP4 MSTORE AND SWAP2 PUSH1 0x1 PUSH1 0x1 PUSH1 0xA0 SHL SUB SWAP1 DUP2 AND SWAP2 SWAP1 DUP9 AND SWAP1 PUSH32 0x1B138257231D2C00719335BC377B9C84F462339563B691E1DAB140FBEF52B41E SWAP1 PUSH1 0x20 SWAP1 LOG4 PUSH2 0x130F JUMP JUMPDEST PUSH2 0x9B3 JUMP JUMPDEST PUSH2 0xBCE SWAP1 PUSH2 0xE13 JUMP JUMPDEST DUP8 PUSH2 0xB4D JUMP JUMPDEST DUP1 PUSH2 0xBE3 PUSH2 0xC53 SWAP3 DUP5 DUP9 PUSH2 0x1334 JUMP JUMPDEST CALLDATALOAD DUP1 ISZERO PUSH2 0x3A7 JUMPI PUSH2 0xBF8 PUSH2 0x342 DUP4 DUP9 DUP9 PUSH2 0x1334 JUMP JUMPDEST PUSH1 0x1 PUSH1 0x1 PUSH1 0xA0 SHL SUB SWAP2 SWAP1 PUSH2 0xC10 SWAP1 DUP3 SWAP1 DUP13 DUP6 AND PUSH2 0xE7E JUMP JUMPDEST PUSH32 0x67226BACCCEF969DAB310A9E55DC1CF821363658E433FD330344F5CC00C79AC8 PUSH1 0x20 DUP4 PUSH2 0xC42 PUSH2 0x342 DUP8 DUP13 DUP13 PUSH2 0x1334 JUMP JUMPDEST PUSH1 0x40 MLOAD SWAP5 DUP6 MSTORE AND SWAP4 DUP14 AND SWAP3 LOG3 PUSH2 0x130F JUMP JUMPDEST PUSH2 0x9A6 JUMP JUMPDEST PUSH2 0xC6A DUP3 DUP7 PUSH1 0x4 ADD CALLDATALOAD PUSH1 0x24 DUP9 ADD PUSH2 0x14E6 JUMP JUMPDEST PUSH1 0x1 PUSH1 0x1 PUSH1 0xA0 SHL SUB PUSH2 0xC7B DUP3 PUSH2 0xF8E JUMP JUMPDEST AND ISZERO PUSH2 0xCDD JUMPI PUSH1 0x80 ADD CALLDATALOAD SWAP1 DUP2 ISZERO PUSH2 0xCA5 JUMPI PUSH2 0xC9F SWAP2 PUSH2 0xC99 SWAP2 PUSH2 0x135A JUMP JUMPDEST SWAP2 PUSH2 0x130F JUMP JUMPDEST SWAP1 PUSH2 0x974 JUMP JUMPDEST PUSH1 0x40 MLOAD PUSH3 0x461BCD PUSH1 0xE5 SHL DUP2 MSTORE PUSH1 0x20 PUSH1 0x4 DUP3 ADD MSTORE PUSH1 0x10 PUSH1 0x24 DUP3 ADD MSTORE PUSH16 0x76657374696E6720616D6F756E743D3 PUSH1 0x84 SHL PUSH1 0x44 DUP3 ADD MSTORE PUSH1 0x64 SWAP1 REVERT JUMPDEST PUSH1 0x40 MLOAD PUSH3 0x461BCD PUSH1 0xE5 SHL DUP2 MSTORE PUSH1 0x20 PUSH1 0x4 DUP3 ADD MSTORE PUSH1 0xD PUSH1 0x24 DUP3 ADD MSTORE PUSH13 0x62656E65666963696172793D3 PUSH1 0x9C SHL PUSH1 0x44 DUP3 ADD MSTORE PUSH1 0x64 SWAP1 REVERT JUMPDEST PUSH1 0x40 MLOAD PUSH3 0x461BCD PUSH1 0xE5 SHL DUP2 MSTORE PUSH1 0x20 PUSH1 0x4 DUP3 ADD MSTORE PUSH1 0x11 PUSH1 0x24 DUP3 ADD MSTORE PUSH17 0x746F6F206D616E792076657374696E6773 PUSH1 0x78 SHL PUSH1 0x44 DUP3 ADD MSTORE PUSH1 0x64 SWAP1 REVERT JUMPDEST CALLVALUE PUSH2 0x147 JUMPI PUSH1 0x0 CALLDATASIZE PUSH1 0x3 NOT ADD SLT PUSH2 0x147 JUMPI PUSH1 0x20 PUSH1 0x2 SLOAD PUSH1 0x40 MLOAD SWAP1 DUP2 MSTORE RETURN JUMPDEST CALLVALUE PUSH2 0x147 JUMPI PUSH1 0x0 CALLDATASIZE PUSH1 0x3 NOT ADD SLT PUSH2 0x147 JUMPI PUSH32 0x0 PUSH1 0x1 PUSH1 0x1 PUSH1 0xA0 SHL SUB AND DUP2 MSTORE PUSH1 0x20 SWAP1 RETURN JUMPDEST SWAP2 DUP2 PUSH1 0x1F DUP5 ADD SLT ISZERO PUSH2 0x147 JUMPI DUP3 CALLDATALOAD SWAP2 PUSH1 0x1 PUSH1 0x1 PUSH1 0x40 SHL SUB DUP4 GT PUSH2 0x147 JUMPI PUSH1 0x20 DUP1 DUP6 ADD SWAP5 DUP5 PUSH1 0x5 SHL ADD ADD GT PUSH2 0x147 JUMPI JUMP JUMPDEST ISZERO PUSH2 0xDE2 JUMPI JUMP JUMPDEST PUSH1 0x40 MLOAD PUSH3 0x461BCD PUSH1 0xE5 SHL DUP2 MSTORE PUSH1 0x20 PUSH1 0x4 DUP3 ADD MSTORE PUSH1 0x9 PUSH1 0x24 DUP3 ADD MSTORE PUSH9 0x3737BA1037BBB732B9 PUSH1 0xB9 SHL PUSH1 0x44 DUP3 ADD MSTORE PUSH1 0x64 SWAP1 REVERT JUMPDEST PUSH1 0x1 PUSH1 0x1 PUSH1 0x40 SHL SUB DUP2 GT PUSH2 0x61E JUMPI PUSH1 0x40 MSTORE JUMP JUMPDEST SWAP1 PUSH1 0x1F DUP1 NOT SWAP2 ADD AND DUP2 ADD SWAP1 DUP2 LT PUSH1 0x1 PUSH1 0x1 PUSH1 0x40 SHL SUB DUP3 GT OR PUSH2 0x61E JUMPI PUSH1 0x40 MSTORE JUMP JUMPDEST ISZERO PUSH2 0xE4E JUMPI JUMP JUMPDEST PUSH1 0x40 MLOAD PUSH3 0x461BCD PUSH1 0xE5 SHL DUP2 MSTORE PUSH1 0x20 PUSH1 0x4 DUP3 ADD MSTORE PUSH1 0x8 PUSH1 0x24 DUP3 ADD MSTORE PUSH8 0x737570706C793D3 PUSH1 0xC4 SHL PUSH1 0x44 DUP3 ADD MSTORE PUSH1 0x64 SWAP1 REVERT JUMPDEST PUSH1 0x40 MLOAD PUSH4 0xA9059CBB PUSH1 0xE0 SHL PUSH1 0x20 DUP3 ADD SWAP1 DUP2 MSTORE PUSH1 0x1 PUSH1 0x1 PUSH1 0xA0 SHL SUB SWAP4 DUP5 AND PUSH1 0x24 DUP4 ADD MSTORE PUSH1 0x44 DUP1 DUP4 ADD SWAP6 SWAP1 SWAP6 MSTORE SWAP4 DUP2 MSTORE SWAP1 SWAP3 PUSH1 0x80 DUP3 ADD SWAP1 PUSH1 0x1 PUSH1 0x1 PUSH1 0x40 SHL SUB DUP3 GT DUP4 DUP4 LT OR PUSH2 0x61E JUMPI PUSH1 0x20 SWAP3 PUSH1 0x0 SWAP3 PUSH1 0x40 MSTORE MLOAD SWAP1 DUP3 DUP7 GAS CALL ISZERO PUSH2 0x2A5 JUMPI PUSH1 0x0 MLOAD RETURNDATASIZE PUSH2 0xF0A JUMPI POP DUP1 DUP3 AND EXTCODESIZE ISZERO JUMPDEST PUSH2 0xEF0 JUMPI POP POP JUMP JUMPDEST PUSH1 0x40 MLOAD PUSH4 0x5274AFE7 PUSH1 0xE0 SHL DUP2 MSTORE SWAP2 AND PUSH1 0x4 DUP3 ADD MSTORE PUSH1 0x24 SWAP2 POP REVERT JUMPDEST PUSH1 0x1 EQ ISZERO PUSH2 0xEE8 JUMP JUMPDEST DUP1 PUSH2 0xF57 JUMPI POP CALLVALUE PUSH2 0xF20 JUMPI JUMP JUMPDEST PUSH1 0x40 MLOAD PUSH3 0x461BCD PUSH1 0xE5 SHL DUP2 MSTORE PUSH1 0x20 PUSH1 0x4 DUP3 ADD MSTORE PUSH1 0xF PUSH1 0x24 DUP3 ADD MSTORE PUSH15 0x1B9BC8199959481C995C5D5A5C9959 PUSH1 0x8A SHL PUSH1 0x44 DUP3 ADD MSTORE PUSH1 0x64 SWAP1 REVERT JUMPDEST CALLVALUE SUB PUSH2 0xF5F JUMPI JUMP JUMPDEST PUSH1 0x40 MLOAD PUSH3 0x461BCD PUSH1 0xE5 SHL DUP2 MSTORE PUSH1 0x20 PUSH1 0x4 DUP3 ADD MSTORE PUSH1 0x7 PUSH1 0x24 DUP3 ADD MSTORE PUSH7 0x62616420666565 PUSH1 0xC8 SHL PUSH1 0x44 DUP3 ADD MSTORE PUSH1 0x64 SWAP1 REVERT JUMPDEST CALLDATALOAD PUSH1 0x1 PUSH1 0x1 PUSH1 0xA0 SHL SUB DUP2 AND DUP2 SUB PUSH2 0x147 JUMPI SWAP1 JUMP JUMPDEST SWAP1 CALLDATALOAD SWAP1 PUSH1 0x1E NOT DUP2 CALLDATASIZE SUB ADD DUP3 SLT ISZERO PUSH2 0x147 JUMPI ADD DUP1 CALLDATALOAD SWAP1 PUSH1 0x1 PUSH1 0x1 PUSH1 0x40 SHL SUB DUP3 GT PUSH2 0x147 JUMPI PUSH1 0x20 ADD SWAP2 DUP2 CALLDATASIZE SUB DUP4 SGT PUSH2 0x147 JUMPI JUMP JUMPDEST SWAP1 DUP1 PUSH1 0x20 SWAP4 SWAP3 DUP2 DUP5 MSTORE DUP5 DUP5 ADD CALLDATACOPY PUSH1 0x0 DUP3 DUP3 ADD DUP5 ADD MSTORE PUSH1 0x1F ADD PUSH1 0x1F NOT AND ADD ADD SWAP1 JUMP JUMPDEST CALLDATALOAD PUSH2 0xFFFF DUP2 AND DUP2 SUB PUSH2 0x147 JUMPI SWAP1 JUMP JUMPDEST PUSH2 0x1010 PUSH1 0x60 DUP3 ADD PUSH2 0xF8E JUMP JUMPDEST SWAP2 PUSH1 0x1 PUSH1 0x1 PUSH1 0xA0 SHL SUB SWAP2 PUSH1 0x0 SWAP1 DUP4 DUP6 AND ISZERO PUSH2 0x129F JUMPI JUMPDEST PUSH2 0x104F PUSH32 0x0 PUSH2 0x12A7 JUMP JUMPDEST SWAP4 DUP1 DUP6 AND SWAP6 PUSH2 0x105E DUP4 DUP1 PUSH2 0xFA2 JUMP JUMPDEST SWAP1 SWAP2 PUSH2 0x106D PUSH1 0x20 DUP7 ADD DUP7 PUSH2 0xFA2 JUMP JUMPDEST SWAP5 SWAP1 DUP11 EXTCODESIZE ISZERO PUSH2 0x129B JUMPI SWAP2 DUP8 SWAP4 SWAP2 PUSH2 0x10BF PUSH2 0x10AD SWAP7 SWAP5 PUSH1 0x40 SWAP9 DUP10 MLOAD SWAP9 DUP10 SWAP8 DUP9 SWAP8 PUSH4 0x1D1EE287 PUSH1 0xE2 SHL DUP10 MSTORE ADDRESS PUSH1 0x4 DUP11 ADD MSTORE PUSH1 0xA0 PUSH1 0x24 DUP11 ADD MSTORE PUSH1 0xA4 DUP10 ADD SWAP2 PUSH2 0xFD4 JUMP JUMPDEST DUP7 DUP2 SUB PUSH1 0x3 NOT ADD PUSH1 0x44 DUP9 ADD MSTORE SWAP2 PUSH2 0xFD4 JUMP JUMPDEST SWAP2 DUP8 DUP10 ADD CALLDATALOAD PUSH1 0x64 DUP6 ADD MSTORE AND PUSH1 0x84 DUP4 ADD MSTORE SUB DUP2 DUP4 DUP12 GAS CALL DUP1 ISZERO PUSH2 0x1266 JUMPI PUSH2 0x1288 JUMPI JUMPDEST POP PUSH2 0x10ED PUSH1 0x80 DUP4 ADD PUSH2 0xFF5 JUMP JUMPDEST PUSH2 0x10F9 PUSH1 0xA0 DUP5 ADD PUSH2 0xFF5 JUMP JUMPDEST PUSH2 0x1105 PUSH1 0xC0 DUP6 ADD PUSH2 0xFF5 JUMP JUMPDEST SWAP2 DUP9 EXTCODESIZE ISZERO PUSH2 0x1270 JUMPI DUP4 MLOAD PUSH4 0x6951A079 PUSH1 0xE0 SHL DUP2 MSTORE PUSH2 0xFFFF SWAP2 DUP3 AND PUSH1 0x4 DUP3 ADD MSTORE SWAP2 DUP2 AND PUSH1 0x24 DUP4 ADD MSTORE SWAP2 SWAP1 SWAP2 AND PUSH1 0x44 DUP3 ADD MSTORE DUP4 DUP2 PUSH1 0x64 DUP2 DUP4 DUP12 GAS CALL DUP1 ISZERO PUSH2 0x1266 JUMPI SWAP1 DUP5 SWAP2 PUSH2 0x1274 JUMPI JUMPDEST POP POP PUSH2 0x115A PUSH1 0xE0 DUP4 ADD PUSH2 0xFF5 JUMP JUMPDEST PUSH2 0x1167 PUSH2 0x100 DUP5 ADD PUSH2 0xFF5 JUMP JUMPDEST PUSH2 0x1174 PUSH2 0x120 DUP6 ADD PUSH2 0xFF5 JUMP JUMPDEST SWAP2 DUP9 EXTCODESIZE ISZERO PUSH2 0x1270 JUMPI DUP4 MLOAD PUSH4 0x7E3615ED PUSH1 0xE1 SHL DUP2 MSTORE PUSH2 0xFFFF SWAP2 DUP3 AND PUSH1 0x4 DUP3 ADD MSTORE SWAP2 DUP2 AND PUSH1 0x24 DUP4 ADD MSTORE SWAP2 SWAP1 SWAP2 AND PUSH1 0x44 DUP3 ADD MSTORE DUP4 DUP2 PUSH1 0x64 DUP2 DUP4 DUP12 GAS CALL DUP1 ISZERO PUSH2 0x1266 JUMPI SWAP1 DUP5 SWAP2 PUSH2 0x124E JUMPI JUMPDEST POP POP PUSH2 0x180 DUP3 ADD CALLDATALOAD SWAP2 DUP3 ISZERO ISZERO DUP1 SWAP4 SUB PUSH2 0x124A JUMPI DUP7 EXTCODESIZE ISZERO PUSH2 0x124A JUMPI DUP2 MLOAD PUSH4 0x9F52256B PUSH1 0xE0 SHL DUP2 MSTORE PUSH2 0x140 DUP3 ADD CALLDATALOAD PUSH1 0x4 DUP3 ADD MSTORE PUSH2 0x160 DUP3 ADD CALLDATALOAD PUSH1 0x24 DUP3 ADD MSTORE PUSH1 0x44 DUP2 ADD SWAP4 SWAP1 SWAP4 MSTORE PUSH2 0x1A0 DUP2 ADD CALLDATALOAD PUSH1 0x64 DUP5 ADD MSTORE PUSH2 0x1C0 ADD CALLDATALOAD PUSH1 0x84 DUP4 ADD MSTORE DUP3 DUP3 PUSH1 0xA4 DUP2 DUP4 DUP11 GAS CALL SWAP1 DUP2 ISZERO PUSH2 0x1241 JUMPI POP PUSH2 0x122D JUMPI POP POP JUMP JUMPDEST PUSH2 0x1237 DUP3 SWAP2 PUSH2 0xE13 JUMP JUMPDEST PUSH2 0x123E JUMPI POP JUMP JUMPDEST DUP1 REVERT JUMPDEST MLOAD RETURNDATASIZE DUP5 DUP3 RETURNDATACOPY RETURNDATASIZE SWAP1 REVERT JUMPDEST DUP4 DUP1 REVERT JUMPDEST PUSH2 0x1257 SWAP1 PUSH2 0xE13 JUMP JUMPDEST PUSH2 0x1262 JUMPI DUP3 CODESIZE PUSH2 0x11BB JUMP JUMPDEST DUP3 DUP1 REVERT JUMPDEST DUP3 MLOAD RETURNDATASIZE DUP7 DUP3 RETURNDATACOPY RETURNDATASIZE SWAP1 REVERT JUMPDEST DUP6 DUP1 REVERT JUMPDEST PUSH2 0x127D SWAP1 PUSH2 0xE13 JUMP JUMPDEST PUSH2 0x1262 JUMPI DUP3 CODESIZE PUSH2 0x114C JUMP JUMPDEST PUSH2 0x1294 SWAP1 SWAP4 SWAP2 SWAP4 PUSH2 0xE13 JUMP JUMPDEST SWAP2 CODESIZE PUSH2 0x10E0 JUMP JUMPDEST DUP8 DUP1 REVERT JUMPDEST CALLER SWAP5 POP PUSH2 0x1026 JUMP JUMPDEST PUSH15 0x5AF43D82803E903D91602B57FD5BF3 SWAP1 PUSH23 0x3D602D80600A3D3981F3363D3D373D3D3D363D73000000 PUSH3 0xFFFFFF DUP3 PUSH1 0x88 SHR AND OR PUSH1 0x0 MSTORE PUSH1 0x78 SHL OR PUSH1 0x20 MSTORE PUSH1 0x37 PUSH1 0x9 PUSH1 0x0 CREATE SWAP1 PUSH1 0x1 PUSH1 0x1 PUSH1 0xA0 SHL SUB DUP3 AND ISZERO PUSH2 0x12FD JUMPI JUMP JUMPDEST PUSH1 0x40 MLOAD PUSH4 0xB06EBF3D PUSH1 0xE0 SHL DUP2 MSTORE PUSH1 0x4 SWAP1 REVERT JUMPDEST PUSH1 0x0 NOT DUP2 EQ PUSH2 0x131E JUMPI PUSH1 0x1 ADD SWAP1 JUMP JUMPDEST PUSH4 0x4E487B71 PUSH1 0xE0 SHL PUSH1 0x0 MSTORE PUSH1 0x11 PUSH1 0x4 MSTORE PUSH1 0x24 PUSH1 0x0 REVERT JUMPDEST SWAP2 SWAP1 DUP2 LT ISZERO PUSH2 0x1344 JUMPI PUSH1 0x5 SHL ADD SWAP1 JUMP JUMPDEST PUSH4 0x4E487B71 PUSH1 0xE0 SHL PUSH1 0x0 MSTORE PUSH1 0x32 PUSH1 0x4 MSTORE PUSH1 0x24 PUSH1 0x0 REVERT JUMPDEST SWAP2 SWAP1 DUP3 ADD DUP1 SWAP3 GT PUSH2 0x131E JUMPI JUMP JUMPDEST ISZERO PUSH2 0x136E JUMPI JUMP JUMPDEST PUSH1 0x40 MLOAD PUSH3 0x461BCD PUSH1 0xE5 SHL DUP2 MSTORE PUSH1 0x20 PUSH1 0x4 DUP3 ADD MSTORE PUSH1 0x15 PUSH1 0x24 DUP3 ADD MSTORE PUSH21 0x646973747269627574696F6E203E20737570706C79 PUSH1 0x58 SHL PUSH1 0x44 DUP3 ADD MSTORE PUSH1 0x64 SWAP1 REVERT JUMPDEST SWAP3 SWAP5 SWAP4 SWAP2 SWAP1 SWAP5 PUSH1 0x0 SWAP6 DUP4 DUP4 SUB PUSH2 0x14AF JUMPI PUSH1 0x64 SWAP1 DUP2 DUP5 GT PUSH2 0x1476 JUMPI SWAP4 SWAP3 SWAP2 SWAP1 PUSH1 0x0 SWAP5 JUMPDEST DUP4 DUP7 LT PUSH2 0x13E8 JUMPI POP POP POP POP POP POP PUSH2 0x13E6 SWAP1 DUP4 GT ISZERO PUSH2 0x1367 JUMP JUMPDEST JUMP JUMPDEST SWAP1 SWAP2 SWAP3 SWAP4 SWAP5 SWAP8 PUSH1 0x1 DUP1 PUSH1 0xA0 SHL SUB PUSH2 0x1403 PUSH2 0x342 DUP12 DUP9 DUP7 PUSH2 0x1334 JUMP JUMPDEST AND ISZERO PUSH2 0x1444 JUMPI PUSH2 0x1414 DUP10 DUP8 DUP7 PUSH2 0x1334 JUMP JUMPDEST CALLDATALOAD SWAP1 DUP2 ISZERO PUSH2 0x1439 JUMPI PUSH2 0x142F SWAP2 PUSH2 0x1429 SWAP2 PUSH2 0x135A JUMP JUMPDEST SWAP9 PUSH2 0x130F JUMP JUMPDEST SWAP5 SWAP4 SWAP3 SWAP2 SWAP1 PUSH2 0x13CD JUMP JUMPDEST SWAP9 PUSH2 0x142F SWAP2 POP PUSH2 0x130F JUMP JUMPDEST PUSH1 0x40 MLOAD PUSH3 0x461BCD PUSH1 0xE5 SHL DUP2 MSTORE PUSH1 0x20 PUSH1 0x4 DUP3 ADD MSTORE PUSH1 0xB PUSH1 0x24 DUP3 ADD MSTORE PUSH11 0x726563697069656E743D3 PUSH1 0xAC SHL PUSH1 0x44 DUP3 ADD MSTORE DUP4 SWAP1 REVERT JUMPDEST POP PUSH1 0x40 MLOAD PUSH3 0x461BCD PUSH1 0xE5 SHL DUP2 MSTORE PUSH1 0x20 PUSH1 0x4 DUP3 ADD MSTORE PUSH1 0x13 PUSH1 0x24 DUP3 ADD MSTORE PUSH19 0x746F6F206D616E7920726563697069656E7473 PUSH1 0x68 SHL PUSH1 0x44 DUP3 ADD MSTORE REVERT JUMPDEST PUSH1 0x40 MLOAD PUSH3 0x461BCD PUSH1 0xE5 SHL DUP2 MSTORE PUSH1 0x20 PUSH1 0x4 DUP3 ADD MSTORE PUSH1 0xF PUSH1 0x24 DUP3 ADD MSTORE PUSH15 0xD8CADCCEE8D040DAD2E6DAC2E8C6D PUSH1 0x8B SHL PUSH1 0x44 DUP3 ADD MSTORE PUSH1 0x64 SWAP1 REVERT JUMPDEST SWAP2 SWAP1 DUP2 LT ISZERO PUSH2 0x1344 JUMPI PUSH1 0xA0 MUL ADD SWAP1 JUMP JUMPDEST CALLDATALOAD PUSH1 0x1 PUSH1 0x1 PUSH1 0x40 SHL SUB DUP2 AND DUP2 SUB PUSH2 0x147 JUMPI SWAP1 JUMP INVALID LOG2 PUSH5 0x6970667358 0x22 SLT KECCAK256 0xB0 NUMBER PUSH7 0x844A2B229F11E5 PUSH21 0x489D074F342CC8A7D3BC8E01C2CCC5FA152F04E961 PUSH5 0x736F6C6343 STOP ADDMOD EQ STOP CALLER "},"methodIdentifiers":{"basicFeeWei()":"308cc33d","createToken((string,string,uint256,address,(uint16,uint16,uint16,uint16,uint16,uint16),(uint256,uint256,bool,uint256,uint256)))":"b93c95f3","createTokenWithDistribution((string,string,uint256,address,(uint16,uint16,uint16,uint16,uint16,uint16),(uint256,uint256,bool,uint256,uint256)),address[],uint256[])":"d9a3c821","createTokenWithDistributionAndVesting((string,string,uint256,address,(uint16,uint16,uint16,uint16,uint16,uint16),(uint256,uint256,bool,uint256,uint256)),address[],uint256[],(address,uint64,uint64,uint64,uint256)[])":"3cb35165","distributionFeeWei()":"79046732","owner()":"8da5cb5b","setFeesWei(uint256,uint256,uint256)":"3db315ba","tokenImplementation()":"2f3a3d5d","transferOwnership(address)":"f2fde38b","vestingFeeWei()":"c48b374d","vestingImplementation()":"8882a2f6","withdrawFees(address,uint256)":"ad3b1b47"}}}}}