{"contracts/launch/OZAdvancedLaunchTokenUpgradeable.sol":{"OZAdvancedLaunchTokenUpgradeable":{"abi":[{"inputs":[{"internalType":"address","name":"spender","type":"address"},{"internalType":"uint256","name":"allowance","type":"uint256"},{"internalType":"uint256","name":"needed","type":"uint256"}],"name":"ERC20InsufficientAllowance","type":"error"},{"inputs":[{"internalType":"address","name":"sender","type":"address"},{"internalType":"uint256","name":"balance","type":"uint256"},{"internalType":"uint256","name":"needed","type":"uint256"}],"name":"ERC20InsufficientBalance","type":"error"},{"inputs":[{"internalType":"address","name":"approver","type":"address"}],"name":"ERC20InvalidApprover","type":"error"},{"inputs":[{"internalType":"address","name":"receiver","type":"address"}],"name":"ERC20InvalidReceiver","type":"error"},{"inputs":[{"internalType":"address","name":"sender","type":"address"}],"name":"ERC20InvalidSender","type":"error"},{"inputs":[{"internalType":"address","name":"spender","type":"address"}],"name":"ERC20InvalidSpender","type":"error"},{"inputs":[],"name":"InvalidInitialization","type":"error"},{"inputs":[],"name":"NotInitializing","type":"error"},{"inputs":[{"internalType":"address","name":"owner","type":"address"}],"name":"OwnableInvalidOwner","type":"error"},{"inputs":[{"internalType":"address","name":"account","type":"address"}],"name":"OwnableUnauthorizedAccount","type":"error"},{"anonymous":false,"inputs":[{"indexed":true,"internalType":"address","name":"account","type":"address"},{"indexed":false,"internalType":"bool","name":"whitelisted","type":"bool"},{"indexed":false,"internalType":"bool","name":"blacklisted","type":"bool"},{"indexed":false,"internalType":"bool","name":"excludedFees","type":"bool"},{"indexed":false,"internalType":"bool","name":"excludedLimits","type":"bool"}],"name":"AddressFlagsUpdated","type":"event"},{"anonymous":false,"inputs":[{"indexed":true,"internalType":"address","name":"owner","type":"address"},{"indexed":true,"internalType":"address","name":"spender","type":"address"},{"indexed":false,"internalType":"uint256","name":"value","type":"uint256"}],"name":"Approval","type":"event"},{"anonymous":false,"inputs":[{"indexed":false,"internalType":"string","name":"side","type":"string"},{"indexed":false,"internalType":"uint16","name":"marketingBps","type":"uint16"},{"indexed":false,"internalType":"uint16","name":"liquidityBps","type":"uint16"},{"indexed":false,"internalType":"uint16","name":"burnBps","type":"uint16"},{"indexed":false,"internalType":"uint16","name":"totalBps","type":"uint16"}],"name":"FeesUpdated","type":"event"},{"anonymous":false,"inputs":[{"indexed":false,"internalType":"uint64","name":"version","type":"uint64"}],"name":"Initialized","type":"event"},{"anonymous":false,"inputs":[{"indexed":false,"internalType":"uint256","name":"maxGasPriceWei","type":"uint256"},{"indexed":false,"internalType":"uint256","name":"deadBlocks","type":"uint256"},{"indexed":false,"internalType":"bool","name":"revertEarlyBuys","type":"bool"},{"indexed":false,"internalType":"uint256","name":"maxTxAmount","type":"uint256"},{"indexed":false,"internalType":"uint256","name":"maxWalletAmount","type":"uint256"}],"name":"LimitsUpdated","type":"event"},{"anonymous":false,"inputs":[{"indexed":true,"internalType":"address","name":"wallet","type":"address"}],"name":"MarketingWalletSet","type":"event"},{"anonymous":false,"inputs":[{"indexed":true,"internalType":"address","name":"previousOwner","type":"address"},{"indexed":true,"internalType":"address","name":"newOwner","type":"address"}],"name":"OwnershipTransferred","type":"event"},{"anonymous":false,"inputs":[{"indexed":true,"internalType":"address","name":"router","type":"address"},{"indexed":true,"internalType":"address","name":"pair","type":"address"}],"name":"RouterSet","type":"event"},{"anonymous":false,"inputs":[{"indexed":false,"internalType":"bool","name":"enabled","type":"bool"},{"indexed":false,"internalType":"uint256","name":"thresholdTokens","type":"uint256"}],"name":"SwapSettingsUpdated","type":"event"},{"anonymous":false,"inputs":[{"indexed":true,"internalType":"uint256","name":"launchBlock","type":"uint256"},{"indexed":true,"internalType":"address","name":"pair","type":"address"}],"name":"TradingEnabled","type":"event"},{"anonymous":false,"inputs":[{"indexed":true,"internalType":"address","name":"from","type":"address"},{"indexed":true,"internalType":"address","name":"to","type":"address"},{"indexed":false,"internalType":"uint256","name":"value","type":"uint256"}],"name":"Transfer","type":"event"},{"inputs":[],"name":"BURN_ADDRESS","outputs":[{"internalType":"address","name":"","type":"address"}],"stateMutability":"view","type":"function"},{"inputs":[{"internalType":"address","name":"owner","type":"address"},{"internalType":"address","name":"spender","type":"address"}],"name":"allowance","outputs":[{"internalType":"uint256","name":"","type":"uint256"}],"stateMutability":"view","type":"function"},{"inputs":[{"internalType":"address","name":"spender","type":"address"},{"internalType":"uint256","name":"value","type":"uint256"}],"name":"approve","outputs":[{"internalType":"bool","name":"","type":"bool"}],"stateMutability":"nonpayable","type":"function"},{"inputs":[{"internalType":"address","name":"account","type":"address"}],"name":"balanceOf","outputs":[{"internalType":"uint256","name":"","type":"uint256"}],"stateMutability":"view","type":"function"},{"inputs":[],"name":"buyFee","outputs":[{"internalType":"uint16","name":"marketingBps","type":"uint16"},{"internalType":"uint16","name":"liquidityBps","type":"uint16"},{"internalType":"uint16","name":"burnBps","type":"uint16"},{"internalType":"uint16","name":"totalBps","type":"uint16"}],"stateMutability":"view","type":"function"},{"inputs":[],"name":"deadBlocks","outputs":[{"internalType":"uint256","name":"","type":"uint256"}],"stateMutability":"view","type":"function"},{"inputs":[],"name":"decimals","outputs":[{"internalType":"uint8","name":"","type":"uint8"}],"stateMutability":"view","type":"function"},{"inputs":[],"name":"emergencyWithdrawETH","outputs":[],"stateMutability":"nonpayable","type":"function"},{"inputs":[],"name":"enableTrading","outputs":[],"stateMutability":"nonpayable","type":"function"},{"inputs":[{"internalType":"address","name":"initialOwner","type":"address"},{"internalType":"string","name":"tokenName","type":"string"},{"internalType":"string","name":"tokenSymbol","type":"string"},{"internalType":"uint256","name":"initialSupplyRaw","type":"uint256"},{"internalType":"address","name":"marketingWallet_","type":"address"}],"name":"initialize","outputs":[],"stateMutability":"nonpayable","type":"function"},{"inputs":[{"internalType":"address","name":"","type":"address"}],"name":"isBlacklisted","outputs":[{"internalType":"bool","name":"","type":"bool"}],"stateMutability":"view","type":"function"},{"inputs":[{"internalType":"address","name":"","type":"address"}],"name":"isExcludedFromFees","outputs":[{"internalType":"bool","name":"","type":"bool"}],"stateMutability":"view","type":"function"},{"inputs":[{"internalType":"address","name":"","type":"address"}],"name":"isExcludedFromLimits","outputs":[{"internalType":"bool","name":"","type":"bool"}],"stateMutability":"view","type":"function"},{"inputs":[{"internalType":"address","name":"","type":"address"}],"name":"isWhitelisted","outputs":[{"internalType":"bool","name":"","type":"bool"}],"stateMutability":"view","type":"function"},{"inputs":[],"name":"launchBlock","outputs":[{"internalType":"uint256","name":"","type":"uint256"}],"stateMutability":"view","type":"function"},{"inputs":[],"name":"manualSwapBack","outputs":[],"stateMutability":"nonpayable","type":"function"},{"inputs":[],"name":"marketingWallet","outputs":[{"internalType":"address","name":"","type":"address"}],"stateMutability":"view","type":"function"},{"inputs":[],"name":"maxGasPriceWei","outputs":[{"internalType":"uint256","name":"","type":"uint256"}],"stateMutability":"view","type":"function"},{"inputs":[],"name":"maxTxAmount","outputs":[{"internalType":"uint256","name":"","type":"uint256"}],"stateMutability":"view","type":"function"},{"inputs":[],"name":"maxWalletAmount","outputs":[{"internalType":"uint256","name":"","type":"uint256"}],"stateMutability":"view","type":"function"},{"inputs":[],"name":"name","outputs":[{"internalType":"string","name":"","type":"string"}],"stateMutability":"view","type":"function"},{"inputs":[],"name":"owner","outputs":[{"internalType":"address","name":"","type":"address"}],"stateMutability":"view","type":"function"},{"inputs":[],"name":"renounceOwnership","outputs":[],"stateMutability":"nonpayable","type":"function"},{"inputs":[],"name":"revertEarlyBuys","outputs":[{"internalType":"bool","name":"","type":"bool"}],"stateMutability":"view","type":"function"},{"inputs":[],"name":"sellFee","outputs":[{"internalType":"uint16","name":"marketingBps","type":"uint16"},{"internalType":"uint16","name":"liquidityBps","type":"uint16"},{"internalType":"uint16","name":"burnBps","type":"uint16"},{"internalType":"uint16","name":"totalBps","type":"uint16"}],"stateMutability":"view","type":"function"},{"inputs":[{"internalType":"address","name":"account","type":"address"},{"internalType":"bool","name":"whitelisted","type":"bool"},{"internalType":"bool","name":"blacklisted","type":"bool"},{"internalType":"bool","name":"excludedFees","type":"bool"},{"internalType":"bool","name":"excludedLimits","type":"bool"}],"name":"setAddressFlags","outputs":[],"stateMutability":"nonpayable","type":"function"},{"inputs":[{"internalType":"uint16","name":"marketingBps","type":"uint16"},{"internalType":"uint16","name":"liquidityBps","type":"uint16"},{"internalType":"uint16","name":"burnBps","type":"uint16"}],"name":"setBuyFees","outputs":[],"stateMutability":"nonpayable","type":"function"},{"inputs":[{"internalType":"uint256","name":"maxGasPriceWei_","type":"uint256"},{"internalType":"uint256","name":"deadBlocks_","type":"uint256"},{"internalType":"bool","name":"revertEarlyBuys_","type":"bool"},{"internalType":"uint256","name":"maxTxAmount_","type":"uint256"},{"internalType":"uint256","name":"maxWalletAmount_","type":"uint256"}],"name":"setLimits","outputs":[],"stateMutability":"nonpayable","type":"function"},{"inputs":[{"internalType":"address","name":"wallet","type":"address"}],"name":"setMarketingWallet","outputs":[],"stateMutability":"nonpayable","type":"function"},{"inputs":[{"internalType":"address","name":"router","type":"address"}],"name":"setRouter","outputs":[],"stateMutability":"nonpayable","type":"function"},{"inputs":[{"internalType":"uint16","name":"marketingBps","type":"uint16"},{"internalType":"uint16","name":"liquidityBps","type":"uint16"},{"internalType":"uint16","name":"burnBps","type":"uint16"}],"name":"setSellFees","outputs":[],"stateMutability":"nonpayable","type":"function"},{"inputs":[{"internalType":"bool","name":"enabled","type":"bool"},{"internalType":"uint256","name":"thresholdTokens","type":"uint256"}],"name":"setSwapSettings","outputs":[],"stateMutability":"nonpayable","type":"function"},{"inputs":[],"name":"swapEnabled","outputs":[{"internalType":"bool","name":"","type":"bool"}],"stateMutability":"view","type":"function"},{"inputs":[],"name":"swapTokensAtAmount","outputs":[{"internalType":"uint256","name":"","type":"uint256"}],"stateMutability":"view","type":"function"},{"inputs":[],"name":"symbol","outputs":[{"internalType":"string","name":"","type":"string"}],"stateMutability":"view","type":"function"},{"inputs":[],"name":"totalSupply","outputs":[{"internalType":"uint256","name":"","type":"uint256"}],"stateMutability":"view","type":"function"},{"inputs":[],"name":"tradingEnabled","outputs":[{"internalType":"bool","name":"","type":"bool"}],"stateMutability":"view","type":"function"},{"inputs":[{"internalType":"address","name":"to","type":"address"},{"internalType":"uint256","name":"value","type":"uint256"}],"name":"transfer","outputs":[{"internalType":"bool","name":"","type":"bool"}],"stateMutability":"nonpayable","type":"function"},{"inputs":[{"internalType":"address","name":"from","type":"address"},{"internalType":"address","name":"to","type":"address"},{"internalType":"uint256","name":"value","type":"uint256"}],"name":"transferFrom","outputs":[{"internalType":"bool","name":"","type":"bool"}],"stateMutability":"nonpayable","type":"function"},{"inputs":[{"internalType":"address","name":"newOwner","type":"address"}],"name":"transferOwnership","outputs":[],"stateMutability":"nonpayable","type":"function"},{"inputs":[],"name":"uniswapV2Pair","outputs":[{"internalType":"address","name":"","type":"address"}],"stateMutability":"view","type":"function"},{"inputs":[],"name":"uniswapV2Router","outputs":[{"internalType":"contract IUniswapV2Router02Upgradeable","name":"","type":"address"}],"stateMutability":"view","type":"function"},{"stateMutability":"payable","type":"receive"}],"evm":{"bytecode":{"linkReferences":{},"object":"6080806040523461001657613148908161001c8239f35b600080fdfe608080604052600436101561001d575b50361561001b57600080fd5b005b60003560e01c90816306fdde031461194657508063095ea7b3146119205780631694505e146118f757806318160ddd146118cc57806323b872dd146117e75780632b14ca561461179a5780632fc0580614611777578063313ce5671461175b5780633af32abf1461171c57806347062402146116cf57806349bd5a5e146116a65780634ada218b146116805780634fbee193146116415780635cce86cd146116025780635d098b381461153457806366eb3785146114f95780636951a0791461140a5780636ddd1713146113e757806370a08231146113a0578063715018a614611336578063747b8a1c14610bd857806375f0a87414610baf5780638453601714610b2a5780638a8c523c14610a4a5780638c0b5e2214610a2c5780638da5cb5b146109f657806392c818d6146108db57806395d89b41146107fd5780639f52256b1461076c578063a9059cbb1461073b578063aa4bde281461071d578063c0d78655146104a0578063d00efb2f14610482578063d0e1032614610415578063dd62ed3e146103cc578063e2f45605146103ae578063ef3881c814610390578063f2fde38b14610367578063fabb0b4f14610349578063fc6c2bda14610259578063fccc28131461023c5763fe575a87146101f8573861000f565b34610237576020366003190112610237576001600160a01b03610219611a2f565b16600052600f602052602060ff604060002054166040519015158152f35b600080fd5b3461023757600036600319011261023757602060405161dead8152f35b34610237576060366003190112610237577f78a2b7c85fd401563e8af374883543c3ee4188df1c66fc71232dbb7e7ffdb10260e0610295611a94565b61029d611aa5565b6102a5611ab6565b906102ae611b03565b6102b9828285612b58565b61ffff9283828180945116906005549163ffff0000602083015160101b169067ffff000000000000606065ffff00000000604086015160201b1694015160301b16936001600160401b031916171717179384600555816040519760a08952600460a08a0152631cd95b1b60e21b60c08a015216602088015216604086015216606084015260301c166080820152a1005b34610237576000366003190112610237576020600a54604051908152f35b346102375760203660031901126102375761001b610383611a2f565b61038b611b03565b611b3c565b34610237576000366003190112610237576020600954604051908152f35b34610237576000366003190112610237576020600754604051908152f35b34610237576040366003190112610237576103e5611a2f565b6103f66103f0611a45565b91611a5b565b9060018060a01b03166000526020526020604060002054604051908152f35b34610237576040366003190112610237576004358015158091036102375760407f06983cb19592d7d4eb4aedd54adc3fb1cd55c1f3cc43ad1bd64f8bc885933ce291602435610462611b03565b60ff196006541660ff8316176006558060075582519182526020820152a1005b34610237576000366003190112610237576020600354604051908152f35b3461023757602080600319360112610237576104ba611a2f565b906104c3611b03565b6001600160a01b039182169081156106ee576bffffffffffffffffffffffff60a01b928284600154161760015560405163c45a015560e01b81528281600481875afa908115610687576000916106d1575b506040516315ab88c960e31b81528381600481885afa9182156106875783916000936106b2575b5060405163e6a4390560e01b81523060048201526001600160a01b038416602482015291168482604481845afa928315610687578592600094610693575b5083851615610613575050505b169283156105d7579083601192600254161760025583600052526040600020600160ff198254161790557f8ab4cea230ab04f96aaa9a71fbc4bfa98097c7b9f07e06be33868b500f810028600080a3005b60405162461bcd60e51b81526004810183905260146024820152731c185a5c8818dc99585d1a5bdb8819985a5b195960621b6044820152606490fd5b6040516364e329cb60e11b81523060048201526001600160a01b039190911660248201529250829060449082906000905af19081156106875760009161065a575b50610586565b61067a9150833d8511610680575b6106728183611c05565b810190611dab565b85610654565b503d610668565b6040513d6000823e3d90fd5b6106ab919450833d8511610680576106728183611c05565b9288610579565b6106ca919350853d8711610680576106728183611c05565b918761053b565b6106e89150833d8511610680576106728183611c05565b85610514565b6064906040519062461bcd60e51b8252600482015260086024820152670726f757465723d360c41b6044820152fd5b34610237576000366003190112610237576020600d54604051908152f35b3461023757604036600319011261023757610761610757611a2f565b6024359033611c26565b602060405160018152f35b346102375760a0366003190112610237577f030be12a58949831a2ba360cd4c740f0f9277275d25bb2cc31c3656d170fc5c960a06004356024356107ae611af4565b60843591606435916107be611b03565b8460095581600a5515159060ff19600b541660ff831617600b5582600c5583600d556040519485526020850152604084015260608301526080820152a1005b34610237576000366003190112610237576040516000600080516020613053833981519152805461082d81611bb0565b808552916001918083169081156108b15750600114610867575b6108638561085781870382611c05565b604051918291826119e6565b0390f35b600090815292506000805160206130d38339815191525b82841061089957505050810160200161085782610863610847565b8054602085870181019190915290930192810161087e565b8695506108639693506020925061085794915060ff191682840152151560051b8201019293610847565b346102375760a0366003190112610237576108f4611a2f565b60243590811515908183036102375761090b611af4565b91606435801515808203610237576084359485151592838703610237577f5de6654a95655d8559604b64d6a2547ab79693a81033f89fd08e7fb3d0d7b39a966109c16109dc9261098760809961095f611b03565b60018060a01b03169b8c600052600e60205260406000209060ff801983541691151516179055565b600f6020526109a68560406000209060ff801983541691151516179055565b601060205260406000209060ff801983541691151516179055565b601160205260406000209060ff801983541691151516179055565b6040519384521515602084015260408301526060820152a2005b3461023757600036600319011261023757600080516020613073833981519152546040516001600160a01b039091168152602090f35b34610237576000366003190112610237576020600c54604051908152f35b3461023757600036600319011261023757610a63611b03565b60025460ff8160a01c16610af3576001600160a01b038116908115610abf5760ff60a01b1916600160a01b176002554360038190557fb0153a1d634c9f6da118c6950a6689cff830da150b9872b291e7a8d815316bb7600080a3005b60405162461bcd60e51b815260206004820152600c60248201526b1c185a5c881b9bdd081cd95d60a21b6044820152606490fd5b60405162461bcd60e51b815260206004820152600f60248201526e185b1c9958591e48195b98589b1959608a1b6044820152606490fd5b3461023757600036600319011261023757610b43611b03565b600080808060018060a01b03600080516020613073833981519152541647905af1610b6c611d7b565b5015610b7457005b60405162461bcd60e51b8152602060048201526013602482015272115512081dda5d1a191c985dc819985a5b1959606a1b6044820152606490fd5b34610237576000366003190112610237576000546040516001600160a01b039091168152602090f35b346102375760a036600319011261023757610bf1611a2f565b6024356001600160401b03811161023757610c10903690600401611ac7565b906044356001600160401b03811161023757610c30903690600401611ac7565b608435926001600160a01b03928385168503610237576000805160206130f383398151915254956001600160401b03871680159081611326575b600114908161131c575b159081611313575b506113015760016001600160401b03198816176000805160206130f38339815191525560ff8760401c16156112d4575b848816156112a55784861615611272576064351561124257610cdb92610cd3913691611cf5565b923691611cf5565b90610ce4611d4c565b610cec611d4c565b8051906001600160401b03821161110e578190610d1760008051602061301383398151915254611bb0565b601f81116111c1575b50602090601f831160011461112f57600092611124575b50508160011b916000199060031b1c191617600080516020613013833981519152555b8051906001600160401b03821161110e57610d8360008051602061305383398151915254611bb0565b601f8111611098575b50602090601f831160011461100057918060ff979492610f919694600092610ff5575b50508160011b916000199060031b1c191617600080516020613053833981519152555b610dda611d4c565b610de2611d4c565b610deb83611b3c565b600080546001600160a01b031916838316178155604051606090610e0e81611bea565b82815282602082015282604082015201526101906060604051610e3081611bea565b60c8815260c86020820152600060408201520152670190000000c800c86001600160401b0319600454161760045560006060604051610e6e81611bea565b82815282602082015282604082015201526102586060604051610e9081611bea565b61012c80825260208201526000604082015201526702580000012c012c6001600160401b03196005541617600555808619926001846006541617600655600184600b541617600b5561271060643504600755818516600052601060205260406000206001858254161790553060005260406000206001858254161790558181166000526040600020600185825416179055818516600052601160205260406000206001858254161790553060005260406000206001858254161790551660005260406000206001838254161790558216600052600e602052604060002060018282541617905530600052600160406000209182541617905560643590611e0d565b60401c1615610f9c57005b68ff0000000000000000196000805160206130f383398151915254166000805160206130f3833981519152557fc7f505b2f371ae2175ee4913f4499e1f2633a7b5936321eed1cdaeb6115181d2602060405160018152a1005b015190508880610daf565b906000805160206130538339815191526000526000805160206130d38339815191529160005b601f198516811061108057509260ff979492600192610f91979583601f19811610611067575b505050811b0160008051602061305383398151915255610dd2565b015160001960f88460031b161c1916905588808061104c565b91926020600181928685015181550194019201611026565b600080516020613053833981519152600052601f830160051c6000805160206130d383398151915201602084106110f9575b601f820160051c6000805160206130d38339815191520181106110ed5750610d8c565b600081556001016110ca565b506000805160206130d38339815191526110ca565b634e487b7160e01b600052604160045260246000fd5b015190508780610d37565b9250600080516020613013833981519152600052600080516020612ff3833981519152906000935b601f19841685106111a6576001945083601f1981161061118d575b505050811b0160008051602061301383398151915255610d5a565b015160001960f88460031b161c19169055878080611172565b81810151835560209485019460019093019290910190611157565b909150600080516020613013833981519152600052601f830160051c600080516020612ff3833981519152016020841061122d575b908392915b601f820160051c600080516020612ff383398151915201811061121e5750610d20565b600081558493506001016111fb565b50600080516020612ff38339815191526111f6565b60405162461bcd60e51b81526020600482015260086024820152670737570706c793d360c41b6044820152606490fd5b60405162461bcd60e51b815260206004820152600b60248201526a06d61726b6574696e673d360ac1b6044820152606490fd5b60405162461bcd60e51b815260206004820152600760248201526606f776e65723d360cc1b6044820152606490fd5b68ffffffffffffffffff19871668010000000000000001176000805160206130f383398151915255610cac565b60405163f92ee8a960e01b8152600490fd5b90501589610c7c565b303b159150610c74565b604089901c60ff16159150610c6a565b346102375760003660031901126102375761134f611b03565b60008051602061307383398151915280546001600160a01b031981169091556000906001600160a01b03167f8be0079c531659141344cd1fd0a4f28419497f9722a3daafe3b4186f6b6457e08280a3005b34610237576020366003190112610237576001600160a01b036113c1611a2f565b166000526000805160206130338339815191526020526020604060002054604051908152f35b3461023757600036600319011261023757602060ff600654166040519015158152f35b34610237576060366003190112610237577f78a2b7c85fd401563e8af374883543c3ee4188df1c66fc71232dbb7e7ffdb10260e0611446611a94565b61144e611aa5565b611456611ab6565b9061145f611b03565b61146a828285612b58565b61ffff9283828180945116906004549163ffff0000602083015160101b169067ffff000000000000606065ffff00000000604086015160201b1694015160301b16936001600160401b031916171717179384600455816040519760a08952600360a08a01526262757960e81b60c08a015216602088015216604086015216606084015260301c166080820152a1005b3461023757600036600319011261023757611512611b03565b60ff196001816008541617600855611528612c02565b60085416600855600080f35b346102375760203660031901126102375761154d611a2f565b611555611b03565b6001600160a01b031680156115d257806bffffffffffffffffffffffff60a01b6000541617600055806000526010602052604060002060ff1990600182825416179055601160205260016040600020918254161790557ff86e3c0cc66159379bdf420884b6f4be3aa4fb93284e88c539c61ba300646a74600080a2005b60405162461bcd60e51b8152602060048201526008602482015267077616c6c65743d360c41b6044820152606490fd5b34610237576020366003190112610237576001600160a01b03611623611a2f565b166000526011602052602060ff604060002054166040519015158152f35b34610237576020366003190112610237576001600160a01b03611662611a2f565b166000526010602052602060ff604060002054166040519015158152f35b3461023757600036600319011261023757602060ff60025460a01c166040519015158152f35b34610237576000366003190112610237576002546040516001600160a01b039091168152602090f35b34610237576000366003190112610237576004546040805161ffff8084168252601084901c811660208084019190915284901c81169282019290925260309290921c166060820152608090f35b34610237576020366003190112610237576001600160a01b0361173d611a2f565b16600052600e602052602060ff604060002054166040519015158152f35b3461023757600036600319011261023757602060405160128152f35b3461023757600036600319011261023757602060ff600b54166040519015158152f35b34610237576000366003190112610237576005546040805161ffff8084168252601084901c811660208084019190915284901c81169282019290925260309290921c166060820152608090f35b3461023757606036600319011261023757611800611a2f565b611808611a45565b6044359061181583611a5b565b33600052602052604060002054926000198410611837575b6107619350611c26565b8284106118a6576001600160a01b0381161561188d57331561187457826107619461186183611a5b565b336000526020520360406000205561182d565b604051634a1406b160e11b815260006004820152602490fd5b60405163e602df0560e01b815260006004820152602490fd5b604051637dc7a0d960e11b81523360048201526024810185905260448101849052606490fd5b3461023757600036600319011261023757602060008051602061309383398151915254604051908152f35b34610237576000366003190112610237576001546040516001600160a01b039091168152602090f35b346102375760403660031901126102375761076161193c611a2f565b6024359033611c7c565b34610237576000366003190112610237576000600080516020613013833981519152805461197381611bb0565b808552916001918083169081156108b1575060011461199c576108638561085781870382611c05565b60009081529250600080516020612ff38339815191525b8284106119ce57505050810160200161085782610863610847565b805460208587018101919091529093019281016119b3565b6020808252825181830181905290939260005b828110611a1b57505060409293506000838284010152601f8019910116010190565b8181018601518482016040015285016119f9565b600435906001600160a01b038216820361023757565b602435906001600160a01b038216820361023757565b6001600160a01b031660009081527f52c63247e1f47db19d5ce0460030c497f067ca4cebf71ba98eeadabe20bace016020526040902090565b6004359061ffff8216820361023757565b6024359061ffff8216820361023757565b6044359061ffff8216820361023757565b9181601f84011215610237578235916001600160401b038311610237576020838186019501011161023757565b60443590811515820361023757565b600080516020613073833981519152546001600160a01b03163303611b2457565b60405163118cdaa760e01b8152336004820152602490fd5b6001600160a01b03908116908115611b975760008051602061307383398151915280546001600160a01b031981168417909155167f8be0079c531659141344cd1fd0a4f28419497f9722a3daafe3b4186f6b6457e0600080a3565b604051631e4fbdf760e01b815260006004820152602490fd5b90600182811c92168015611be0575b6020831014611bca57565b634e487b7160e01b600052602260045260246000fd5b91607f1691611bbf565b608081019081106001600160401b0382111761110e57604052565b90601f801991011681019081106001600160401b0382111761110e57604052565b91906001600160a01b0380841615611c6357811615611c4a57611c4892612355565b565b60405163ec442f0560e01b815260006004820152602490fd5b604051634b637e8f60e11b815260006004820152602490fd5b916001600160a01b0380841692831561188d5716928315611874577f8c5be1e5ebec7d5bd14f71427d1e84f3dd0314c0f7b2291e5b200ac8c7c3b92591611cc4602092611a5b565b85600052825280604060002055604051908152a3565b6001600160401b03811161110e57601f01601f191660200190565b929192611d0182611cda565b91611d0f6040519384611c05565b829481845281830111610237578281602093846000960137010152565b8115611d36570490565b634e487b7160e01b600052601260045260246000fd5b60ff6000805160206130f38339815191525460401c1615611d6957565b604051631afcd79f60e31b8152600490fd5b3d15611da6573d90611d8c82611cda565b91611d9a6040519384611c05565b82523d6000602084013e565b606090565b9081602091031261023757516001600160a01b03811681036102375790565b91908201809211611dd757565b634e487b7160e01b600052601160045260246000fd5b81810292918115918404141715611dd757565b91908203918211611dd757565b906000918280526020600f815260ff604090808287205416158061233c575b1561230a57600954801515806122de575b612299575b506002546001600160a01b0380821680159360a09390931c83169291849081612287575b808916928314948061227c575b80612275575b80612261575b6121fd575b8a80526011885283878c20541615806121ed575b612100575b600854918483161591826120f4575b826120ec575b826120de575b50816120d5575b50806120ca575b806120a7575b612086575b50816008541615928361206a575b5082612062575b82612058575b82612043575b8261202e575b5050611f0c575b505050611c4892506129bb565b15612026576004945b815195611f2187611bea565b549561ffff908188168152818860101c1685820152606082858301998181891c168b5260301c1691019080825280611f5c575b505050611eff565b611f696127109189611ded565b04918215611f5457611fa49181611f94611f9d93611f8b87611c489e9d611e00565b9b511686611ded565b91511690611d2c565b8092611e00565b9381611fcb575b5050505080611fbb575b506129bb565b611fc590306129bb565b38611fb5565b6000805160206130b383398151915291600080516020613093833981519152611ff5828254611dca565b905561dead94858552600080516020613033833981519152835280852082815401905551908152a338808080611fab565b600594611f15565b88526010855283882054161590503880611ef8565b88805260108652848920548216159250611ef2565b8015159250611eec565b889250611ee6565b9092508390841561207e575b509138611edf565b905038612076565b60ff1990811660011760085561209a612c02565b6008541660085538611ed1565b50308a526000805160206130338339815191528752858a20546007541115611ecc565b506007541515611ec6565b90501538611ebf565b600154161515915038611eb8565b869250611eb2565b60065486169250611eac565b600c54801515806121df575b61219d575b50600d548b8b8983151580612196575b61212f575b50505050611e9d565b828761214e94526000805160206130338339815191528d522054611dca565b1161215c57388b8b89612126565b865162461bcd60e51b815260048101899052601360248201527213585e081dd85b1b195d08195e18d959591959606a1b6044820152606490fd5b5089612121565b8a116121a95738612111565b865162461bcd60e51b815260048101899052600f60248201526e13585e081d1e08195e18d959591959608a1b6044820152606490fd5b50868761210c57508561210c565b50828b5283878c20541615611e98565b61220c600354600a5490611dca565b431015611e845783600b541615611e8457865162461bcd60e51b815260048101899052601a60248201527f416e7469426f743a206561726c792062757920626c6f636b65640000000000006044820152606490fd5b50828b52600e885283878c20541615611e7f565b5085611e79565b50600a541515611e73565b80955060015416858916141594611e66565b3a116122a55738611e42565b815162461bcd60e51b815260048101849052601260248201527108ec2e640e0e4d2c6ca40e8dede40d0d2ced60731b6044820152606490fd5b506002546001600160a01b0390811680159182156122fe575b5050611e3d565b871614905038806122f7565b815162461bcd60e51b815260048101849052600b60248201526a109b1858dadb1a5cdd195960aa1b6044820152606490fd5b506001600160a01b038416865281862054811615611e2c565b92919060018060a01b0393848116600090808252602091600f835260ff97604098808a8420541615806129a9575b1561297757899060095480151580612954575b61290a575b5060025483828260a01c1691821561287e575b16808714948561286c575b808b1692848385149682612860575b82612858575b82612843575b50506127df575b878752601189528d872054841615848f826127ce575b50506126e3575b600854918483161591826126d7575b826126cf575b826126c1575b50816126b7575b50806126ac575b80612689575b612668575b50816008541615928361264c575b5082612642575b82612638575b82612623575b8261260e575b5050612469575b50505050611c48939450612a33565b15612606576004915b88519261247e84611bea565b549361ffff938486168152848660101c16828201526060858c8301978181861c16895260301c16910190808252806124b9575b50505061245a565b6124c6612710918b611ded565b049485156124b1579081611f946124f2936124e9896124f99798999a9b9e611e00565b9c511689611ded565b8095611e00565b9380612527575b50505050611c4894955080612516575b50612a33565b612521903083612a33565b38612510565b8261258e57906000805160206130b383398151915291611c48999a60008051602061309383398151915261255c838254611dca565b90555b8061dead9687815260008051602061303383398151915285522082815401905551908152a38594388080612500565b828452600080516020613033833981519152998a8352808520549a828c106125d8579082611c489b9c6000805160206130b38339815191529594938789528552038187205561255f565b815163391434e360e21b81526001600160a01b0389166004820152602481018d905260448101849052606490fd5b600591612472565b8452601086528a842054161590503880612453565b858552601087528b852054821615925061244d565b8015159250612447565b8515159250612441565b90925083908415612660575b50913861243a565b905038612658565b60ff1990811660011760085561267c612c02565b600854166008553861242c565b5030865260008051602061303383398151915288528c8620546007541115612427565b506007541515612421565b905015153861241a565b600154161515915038612413565b86925061240d565b60065486169250612407565b600c54801515806127c0575b61277e575b50600d548e8d82151580612777575b612710575b5050506123f8565b61273091868b526000805160206130338339815191528d528a2054611dca565b1161273d57388e8d612708565b8d5162461bcd60e51b8152600481018a9052601360248201527213585e081dd85b1b195d08195e18d959591959606a1b6044820152606490fd5b5088612703565b8c1161278a57386126f4565b8d5162461bcd60e51b8152600481018a9052600f60248201526e13585e081d1e08195e18d959591959608a1b6044820152606490fd5b5086876126ef5750856126ef565b858a5289205416159050848f6123f1565b6127ee600354600a5490611dca565b4310156123db5783600b5416156123db578d5162461bcd60e51b8152600481018a9052601a60248201527f416e7469426f743a206561726c792062757920626c6f636b65640000000000006044820152606490fd5b858a52600e8c5289205416159050848f6123d4565b8892506123ce565b600a54151592506123c8565b80955060015416858b161415946123b9565b871515806128ff575b156123ae579192935050858552600e8752828c8620541680156128ee575b156128b45790838c93926123ae565b8b5162461bcd60e51b8152600481018890526013602482015272151c98591a5b99c81b9bdd08195b98589b1959606a1b6044820152606490fd5b508389168552828c862054166128a5565b50818b161515612887565b9091503a1161291b5789903861239b565b895162461bcd60e51b815260048101869052601260248201527108ec2e640e0e4d2c6ca40e8dede40d0d2ced60731b6044820152606490fd5b50836002541680871490811561296b575b50612396565b9050848a161438612965565b895162461bcd60e51b815260048101869052600b60248201526a109b1858dadb1a5cdd195960aa1b6044820152606490fd5b508187168352808a8420541615612383565b906000805160206130b38339815191526020600092600080516020613093833981519152946129eb828754611dca565b86556001600160a01b03169485158514612a0f578181540390555b604051908152a3565b50848452600080516020613033833981519152825260408420818154019055612a06565b6001600160a01b0380821692909183612ac157506000805160206130b383398151915291602091600080516020613093833981519152612a74878254611dca565b90555b169384612a9c57600080516020613093833981519152818154039055604051908152a3565b8460005260008051602061303383398151915282526040600020818154019055612a06565b836000526000805160206130338339815191528060205260406000205491868310612b0f575091856000805160206130b3833981519152949260209487600052855203604060002055612a77565b60405163391434e360e21b81526001600160a01b0391909116600482015260248101929092525060448101859052606490fd5b91909161ffff80809416911601918211611dd757565b9160006060604051612b6981611bea565b828152826020820152826040820152015261ffff9081612b9282612b8d8688612b42565b612b42565b16926107d08411612bc45782908160405196612bad88611bea565b168652166020850152166040830152606082015290565b60405162461bcd60e51b815260206004820152601660248201527546656520746f6f206869676820286d6178203230252960501b6044820152606490fd5b600030815260008051602061303383398151915260205260408120548015612fee57600180546001600160a01b0316918215612dc9576002546001600160a01b031615612dc95760055461ffff808260301c168015612fe557612c70611f9d92612c759460101c1685611ded565b611d2c565b612c8a612c8483851c84611e00565b82611dca565b938415612f145784612c9c9130611c7c565b47604051606081018181106001600160401b03821117612fd15760405260028152602081016040368237815115612fbd5730815285546040516315ab88c960e31b81526001600160a01b039091169190602081600481865afa908115612fb2578a91612f93575b508351881015612f7f576001600160a01b03166040840152813b15612f7b5791889160405193849263791ac94760e01b845260a48401908b600486015285602486015260a060448601525180915260c484019190855b8b828210612f5857505050508383809230606483015242608483015203925af18015612f4d57612f1c575b50612d8f9047611e00565b938415612f14576124f2612da891612c70889488611ded565b9380151580612f01575b612e9d575b505080821c151580612e94575b612dcf575b50505050565b815460609260c491612dee9084831c906001600160a01b031630611c7c565b80546000805160206130738339815191525460405163f305d71960e01b81523060048201529490921c602485015260448401879052606484018790526001600160a01b0391821660848501524260a4850152929485938492165af18015612e8957612e5b575b8080612dc9565b606090813d8111612e82575b612e718183611c05565b81010312612e7f5780612e54565b80fd5b503d612e67565b6040513d84823e3d90fd5b50821515612dc4565b8154829182918291906001600160a01b03165af1612eb9611d7b565b5015612ec6578338612db7565b60405162461bcd60e51b8152602060048201526013602482015272115512081d1c985b9cd9995c8819985a5b1959606a1b6044820152606490fd5b5081546001600160a01b03161515612db2565b505050505050565b6001600160401b038197929711612f395760405294612d8f612d84565b634e487b7160e01b82526041600452602482fd5b6040513d89823e3d90fd5b83516001600160a01b031685528e97508896506020948501949093019201612d59565b8880fd5b634e487b7160e01b8a52603260045260248afd5b612fac915060203d602011610680576106728183611c05565b38612d03565b6040513d8c823e3d90fd5b634e487b7160e01b88526032600452602488fd5b634e487b7160e01b88526041600452602488fd5b50505050505050565b505056fe2ae08a8e29253f69ac5d979a101956ab8f8d9d7ded63fa7a83b16fc47648eab052c63247e1f47db19d5ce0460030c497f067ca4cebf71ba98eeadabe20bace0352c63247e1f47db19d5ce0460030c497f067ca4cebf71ba98eeadabe20bace0052c63247e1f47db19d5ce0460030c497f067ca4cebf71ba98eeadabe20bace049016d09d72d40fdae2fd8ceac6b6234c7706214fd39c1cd1e609a0528c19930052c63247e1f47db19d5ce0460030c497f067ca4cebf71ba98eeadabe20bace02ddf252ad1be2c89b69c2b068fc378daa952ba7f163c4a11628f55a4df523b3ef46a2803e59a4de4e7a4c574b1243f25977ac4c77d5a1a4a609b5394cebb4a2aaf0c57e16840df040f15088dc2f81fe391c3923bec73e23a9662efc9c229c6a00a26469706673582212203e61152841131f446a842f9627330b327f727c91cbc5d3049c35c72b53e378e264736f6c63430008140033","opcodes":"PUSH1 0x80 DUP1 PUSH1 0x40 MSTORE CALLVALUE PUSH2 0x16 JUMPI PUSH2 0x3148 SWAP1 DUP2 PUSH2 0x1C DUP3 CODECOPY RETURN JUMPDEST PUSH1 0x0 DUP1 REVERT INVALID PUSH1 0x80 DUP1 PUSH1 0x40 MSTORE PUSH1 0x4 CALLDATASIZE LT ISZERO PUSH2 0x1D JUMPI JUMPDEST POP CALLDATASIZE ISZERO PUSH2 0x1B JUMPI PUSH1 0x0 DUP1 REVERT JUMPDEST STOP JUMPDEST PUSH1 0x0 CALLDATALOAD PUSH1 0xE0 SHR SWAP1 DUP2 PUSH4 0x6FDDE03 EQ PUSH2 0x1946 JUMPI POP DUP1 PUSH4 0x95EA7B3 EQ PUSH2 0x1920 JUMPI DUP1 PUSH4 0x1694505E EQ PUSH2 0x18F7 JUMPI DUP1 PUSH4 0x18160DDD EQ PUSH2 0x18CC JUMPI DUP1 PUSH4 0x23B872DD EQ PUSH2 0x17E7 JUMPI DUP1 PUSH4 0x2B14CA56 EQ PUSH2 0x179A JUMPI DUP1 PUSH4 0x2FC05806 EQ PUSH2 0x1777 JUMPI DUP1 PUSH4 0x313CE567 EQ PUSH2 0x175B JUMPI DUP1 PUSH4 0x3AF32ABF EQ PUSH2 0x171C JUMPI DUP1 PUSH4 0x47062402 EQ PUSH2 0x16CF JUMPI DUP1 PUSH4 0x49BD5A5E EQ PUSH2 0x16A6 JUMPI DUP1 PUSH4 0x4ADA218B EQ PUSH2 0x1680 JUMPI DUP1 PUSH4 0x4FBEE193 EQ PUSH2 0x1641 JUMPI DUP1 PUSH4 0x5CCE86CD EQ PUSH2 0x1602 JUMPI DUP1 PUSH4 0x5D098B38 EQ PUSH2 0x1534 JUMPI DUP1 PUSH4 0x66EB3785 EQ PUSH2 0x14F9 JUMPI DUP1 PUSH4 0x6951A079 EQ PUSH2 0x140A JUMPI DUP1 PUSH4 0x6DDD1713 EQ PUSH2 0x13E7 JUMPI DUP1 PUSH4 0x70A08231 EQ PUSH2 0x13A0 JUMPI DUP1 PUSH4 0x715018A6 EQ PUSH2 0x1336 JUMPI DUP1 PUSH4 0x747B8A1C EQ PUSH2 0xBD8 JUMPI DUP1 PUSH4 0x75F0A874 EQ PUSH2 0xBAF JUMPI DUP1 PUSH4 0x84536017 EQ PUSH2 0xB2A JUMPI DUP1 PUSH4 0x8A8C523C EQ PUSH2 0xA4A JUMPI DUP1 PUSH4 0x8C0B5E22 EQ PUSH2 0xA2C JUMPI DUP1 PUSH4 0x8DA5CB5B EQ PUSH2 0x9F6 JUMPI DUP1 PUSH4 0x92C818D6 EQ PUSH2 0x8DB JUMPI DUP1 PUSH4 0x95D89B41 EQ PUSH2 0x7FD JUMPI DUP1 PUSH4 0x9F52256B EQ PUSH2 0x76C JUMPI DUP1 PUSH4 0xA9059CBB EQ PUSH2 0x73B JUMPI DUP1 PUSH4 0xAA4BDE28 EQ PUSH2 0x71D JUMPI DUP1 PUSH4 0xC0D78655 EQ PUSH2 0x4A0 JUMPI DUP1 PUSH4 0xD00EFB2F EQ PUSH2 0x482 JUMPI DUP1 PUSH4 0xD0E10326 EQ PUSH2 0x415 JUMPI DUP1 PUSH4 0xDD62ED3E EQ PUSH2 0x3CC JUMPI DUP1 PUSH4 0xE2F45605 EQ PUSH2 0x3AE JUMPI DUP1 PUSH4 0xEF3881C8 EQ PUSH2 0x390 JUMPI DUP1 PUSH4 0xF2FDE38B EQ PUSH2 0x367 JUMPI DUP1 PUSH4 0xFABB0B4F EQ PUSH2 0x349 JUMPI DUP1 PUSH4 0xFC6C2BDA EQ PUSH2 0x259 JUMPI DUP1 PUSH4 0xFCCC2813 EQ PUSH2 0x23C JUMPI PUSH4 0xFE575A87 EQ PUSH2 0x1F8 JUMPI CODESIZE PUSH2 0xF JUMP JUMPDEST CALLVALUE PUSH2 0x237 JUMPI PUSH1 0x20 CALLDATASIZE PUSH1 0x3 NOT ADD SLT PUSH2 0x237 JUMPI PUSH1 0x1 PUSH1 0x1 PUSH1 0xA0 SHL SUB PUSH2 0x219 PUSH2 0x1A2F JUMP JUMPDEST AND PUSH1 0x0 MSTORE PUSH1 0xF PUSH1 0x20 MSTORE PUSH1 0x20 PUSH1 0xFF PUSH1 0x40 PUSH1 0x0 KECCAK256 SLOAD AND PUSH1 0x40 MLOAD SWAP1 ISZERO ISZERO DUP2 MSTORE RETURN JUMPDEST PUSH1 0x0 DUP1 REVERT JUMPDEST CALLVALUE PUSH2 0x237 JUMPI PUSH1 0x0 CALLDATASIZE PUSH1 0x3 NOT ADD SLT PUSH2 0x237 JUMPI PUSH1 0x20 PUSH1 0x40 MLOAD PUSH2 0xDEAD DUP2 MSTORE RETURN JUMPDEST CALLVALUE PUSH2 0x237 JUMPI PUSH1 0x60 CALLDATASIZE PUSH1 0x3 NOT ADD SLT PUSH2 0x237 JUMPI PUSH32 0x78A2B7C85FD401563E8AF374883543C3EE4188DF1C66FC71232DBB7E7FFDB102 PUSH1 0xE0 PUSH2 0x295 PUSH2 0x1A94 JUMP JUMPDEST PUSH2 0x29D PUSH2 0x1AA5 JUMP JUMPDEST PUSH2 0x2A5 PUSH2 0x1AB6 JUMP JUMPDEST SWAP1 PUSH2 0x2AE PUSH2 0x1B03 JUMP JUMPDEST PUSH2 0x2B9 DUP3 DUP3 DUP6 PUSH2 0x2B58 JUMP JUMPDEST PUSH2 0xFFFF SWAP3 DUP4 DUP3 DUP2 DUP1 SWAP5 MLOAD AND SWAP1 PUSH1 0x5 SLOAD SWAP2 PUSH4 0xFFFF0000 PUSH1 0x20 DUP4 ADD MLOAD PUSH1 0x10 SHL AND SWAP1 PUSH8 0xFFFF000000000000 PUSH1 0x60 PUSH6 0xFFFF00000000 PUSH1 0x40 DUP7 ADD MLOAD PUSH1 0x20 SHL AND SWAP5 ADD MLOAD PUSH1 0x30 SHL AND SWAP4 PUSH1 0x1 PUSH1 0x1 PUSH1 0x40 SHL SUB NOT AND OR OR OR OR SWAP4 DUP5 PUSH1 0x5 SSTORE DUP2 PUSH1 0x40 MLOAD SWAP8 PUSH1 0xA0 DUP10 MSTORE PUSH1 0x4 PUSH1 0xA0 DUP11 ADD MSTORE PUSH4 0x1CD95B1B PUSH1 0xE2 SHL PUSH1 0xC0 DUP11 ADD MSTORE AND PUSH1 0x20 DUP9 ADD MSTORE AND PUSH1 0x40 DUP7 ADD MSTORE AND PUSH1 0x60 DUP5 ADD MSTORE PUSH1 0x30 SHR AND PUSH1 0x80 DUP3 ADD MSTORE LOG1 STOP JUMPDEST CALLVALUE PUSH2 0x237 JUMPI PUSH1 0x0 CALLDATASIZE PUSH1 0x3 NOT ADD SLT PUSH2 0x237 JUMPI PUSH1 0x20 PUSH1 0xA SLOAD PUSH1 0x40 MLOAD SWAP1 DUP2 MSTORE RETURN JUMPDEST CALLVALUE PUSH2 0x237 JUMPI PUSH1 0x20 CALLDATASIZE PUSH1 0x3 NOT ADD SLT PUSH2 0x237 JUMPI PUSH2 0x1B PUSH2 0x383 PUSH2 0x1A2F JUMP JUMPDEST PUSH2 0x38B PUSH2 0x1B03 JUMP JUMPDEST PUSH2 0x1B3C JUMP JUMPDEST CALLVALUE PUSH2 0x237 JUMPI PUSH1 0x0 CALLDATASIZE PUSH1 0x3 NOT ADD SLT PUSH2 0x237 JUMPI PUSH1 0x20 PUSH1 0x9 SLOAD PUSH1 0x40 MLOAD SWAP1 DUP2 MSTORE RETURN JUMPDEST CALLVALUE PUSH2 0x237 JUMPI PUSH1 0x0 CALLDATASIZE PUSH1 0x3 NOT ADD SLT PUSH2 0x237 JUMPI PUSH1 0x20 PUSH1 0x7 SLOAD PUSH1 0x40 MLOAD SWAP1 DUP2 MSTORE RETURN JUMPDEST CALLVALUE PUSH2 0x237 JUMPI PUSH1 0x40 CALLDATASIZE PUSH1 0x3 NOT ADD SLT PUSH2 0x237 JUMPI PUSH2 0x3E5 PUSH2 0x1A2F JUMP JUMPDEST PUSH2 0x3F6 PUSH2 0x3F0 PUSH2 0x1A45 JUMP JUMPDEST SWAP2 PUSH2 0x1A5B JUMP JUMPDEST SWAP1 PUSH1 0x1 DUP1 PUSH1 0xA0 SHL SUB AND PUSH1 0x0 MSTORE PUSH1 0x20 MSTORE PUSH1 0x20 PUSH1 0x40 PUSH1 0x0 KECCAK256 SLOAD PUSH1 0x40 MLOAD SWAP1 DUP2 MSTORE RETURN JUMPDEST CALLVALUE PUSH2 0x237 JUMPI PUSH1 0x40 CALLDATASIZE PUSH1 0x3 NOT ADD SLT PUSH2 0x237 JUMPI PUSH1 0x4 CALLDATALOAD DUP1 ISZERO ISZERO DUP1 SWAP2 SUB PUSH2 0x237 JUMPI PUSH1 0x40 PUSH32 0x6983CB19592D7D4EB4AEDD54ADC3FB1CD55C1F3CC43AD1BD64F8BC885933CE2 SWAP2 PUSH1 0x24 CALLDATALOAD PUSH2 0x462 PUSH2 0x1B03 JUMP JUMPDEST PUSH1 0xFF NOT PUSH1 0x6 SLOAD AND PUSH1 0xFF DUP4 AND OR PUSH1 0x6 SSTORE DUP1 PUSH1 0x7 SSTORE DUP3 MLOAD SWAP2 DUP3 MSTORE PUSH1 0x20 DUP3 ADD MSTORE LOG1 STOP JUMPDEST CALLVALUE PUSH2 0x237 JUMPI PUSH1 0x0 CALLDATASIZE PUSH1 0x3 NOT ADD SLT PUSH2 0x237 JUMPI PUSH1 0x20 PUSH1 0x3 SLOAD PUSH1 0x40 MLOAD SWAP1 DUP2 MSTORE RETURN JUMPDEST CALLVALUE PUSH2 0x237 JUMPI PUSH1 0x20 DUP1 PUSH1 0x3 NOT CALLDATASIZE ADD SLT PUSH2 0x237 JUMPI PUSH2 0x4BA PUSH2 0x1A2F JUMP JUMPDEST SWAP1 PUSH2 0x4C3 PUSH2 0x1B03 JUMP JUMPDEST PUSH1 0x1 PUSH1 0x1 PUSH1 0xA0 SHL SUB SWAP2 DUP3 AND SWAP1 DUP2 ISZERO PUSH2 0x6EE JUMPI PUSH12 0xFFFFFFFFFFFFFFFFFFFFFFFF PUSH1 0xA0 SHL SWAP3 DUP3 DUP5 PUSH1 0x1 SLOAD AND OR PUSH1 0x1 SSTORE PUSH1 0x40 MLOAD PUSH4 0xC45A0155 PUSH1 0xE0 SHL DUP2 MSTORE DUP3 DUP2 PUSH1 0x4 DUP2 DUP8 GAS STATICCALL SWAP1 DUP2 ISZERO PUSH2 0x687 JUMPI PUSH1 0x0 SWAP2 PUSH2 0x6D1 JUMPI JUMPDEST POP PUSH1 0x40 MLOAD PUSH4 0x15AB88C9 PUSH1 0xE3 SHL DUP2 MSTORE DUP4 DUP2 PUSH1 0x4 DUP2 DUP9 GAS STATICCALL SWAP2 DUP3 ISZERO PUSH2 0x687 JUMPI DUP4 SWAP2 PUSH1 0x0 SWAP4 PUSH2 0x6B2 JUMPI JUMPDEST POP PUSH1 0x40 MLOAD PUSH4 0xE6A43905 PUSH1 0xE0 SHL DUP2 MSTORE ADDRESS PUSH1 0x4 DUP3 ADD MSTORE PUSH1 0x1 PUSH1 0x1 PUSH1 0xA0 SHL SUB DUP5 AND PUSH1 0x24 DUP3 ADD MSTORE SWAP2 AND DUP5 DUP3 PUSH1 0x44 DUP2 DUP5 GAS STATICCALL SWAP3 DUP4 ISZERO PUSH2 0x687 JUMPI DUP6 SWAP3 PUSH1 0x0 SWAP5 PUSH2 0x693 JUMPI JUMPDEST POP DUP4 DUP6 AND ISZERO PUSH2 0x613 JUMPI POP POP POP JUMPDEST AND SWAP3 DUP4 ISZERO PUSH2 0x5D7 JUMPI SWAP1 DUP4 PUSH1 0x11 SWAP3 PUSH1 0x2 SLOAD AND OR PUSH1 0x2 SSTORE DUP4 PUSH1 0x0 MSTORE MSTORE PUSH1 0x40 PUSH1 0x0 KECCAK256 PUSH1 0x1 PUSH1 0xFF NOT DUP3 SLOAD AND OR SWAP1 SSTORE PUSH32 0x8AB4CEA230AB04F96AAA9A71FBC4BFA98097C7B9F07E06BE33868B500F810028 PUSH1 0x0 DUP1 LOG3 STOP JUMPDEST PUSH1 0x40 MLOAD PUSH3 0x461BCD PUSH1 0xE5 SHL DUP2 MSTORE PUSH1 0x4 DUP2 ADD DUP4 SWAP1 MSTORE PUSH1 0x14 PUSH1 0x24 DUP3 ADD MSTORE PUSH20 0x1C185A5C8818DC99585D1A5BDB8819985A5B1959 PUSH1 0x62 SHL PUSH1 0x44 DUP3 ADD MSTORE PUSH1 0x64 SWAP1 REVERT JUMPDEST PUSH1 0x40 MLOAD PUSH4 0x64E329CB PUSH1 0xE1 SHL DUP2 MSTORE ADDRESS PUSH1 0x4 DUP3 ADD MSTORE PUSH1 0x1 PUSH1 0x1 PUSH1 0xA0 SHL SUB SWAP2 SWAP1 SWAP2 AND PUSH1 0x24 DUP3 ADD MSTORE SWAP3 POP DUP3 SWAP1 PUSH1 0x44 SWAP1 DUP3 SWAP1 PUSH1 0x0 SWAP1 GAS CALL SWAP1 DUP2 ISZERO PUSH2 0x687 JUMPI PUSH1 0x0 SWAP2 PUSH2 0x65A JUMPI JUMPDEST POP PUSH2 0x586 JUMP JUMPDEST PUSH2 0x67A SWAP2 POP DUP4 RETURNDATASIZE DUP6 GT PUSH2 0x680 JUMPI JUMPDEST PUSH2 0x672 DUP2 DUP4 PUSH2 0x1C05 JUMP JUMPDEST DUP2 ADD SWAP1 PUSH2 0x1DAB JUMP JUMPDEST DUP6 PUSH2 0x654 JUMP JUMPDEST POP RETURNDATASIZE PUSH2 0x668 JUMP JUMPDEST PUSH1 0x40 MLOAD RETURNDATASIZE PUSH1 0x0 DUP3 RETURNDATACOPY RETURNDATASIZE SWAP1 REVERT JUMPDEST PUSH2 0x6AB SWAP2 SWAP5 POP DUP4 RETURNDATASIZE DUP6 GT PUSH2 0x680 JUMPI PUSH2 0x672 DUP2 DUP4 PUSH2 0x1C05 JUMP JUMPDEST SWAP3 DUP9 PUSH2 0x579 JUMP JUMPDEST PUSH2 0x6CA SWAP2 SWAP4 POP DUP6 RETURNDATASIZE DUP8 GT PUSH2 0x680 JUMPI PUSH2 0x672 DUP2 DUP4 PUSH2 0x1C05 JUMP JUMPDEST SWAP2 DUP8 PUSH2 0x53B JUMP JUMPDEST PUSH2 0x6E8 SWAP2 POP DUP4 RETURNDATASIZE DUP6 GT PUSH2 0x680 JUMPI PUSH2 0x672 DUP2 DUP4 PUSH2 0x1C05 JUMP JUMPDEST DUP6 PUSH2 0x514 JUMP JUMPDEST PUSH1 0x64 SWAP1 PUSH1 0x40 MLOAD SWAP1 PUSH3 0x461BCD PUSH1 0xE5 SHL DUP3 MSTORE PUSH1 0x4 DUP3 ADD MSTORE PUSH1 0x8 PUSH1 0x24 DUP3 ADD MSTORE PUSH8 0x726F757465723D3 PUSH1 0xC4 SHL PUSH1 0x44 DUP3 ADD MSTORE REVERT JUMPDEST CALLVALUE PUSH2 0x237 JUMPI PUSH1 0x0 CALLDATASIZE PUSH1 0x3 NOT ADD SLT PUSH2 0x237 JUMPI PUSH1 0x20 PUSH1 0xD SLOAD PUSH1 0x40 MLOAD SWAP1 DUP2 MSTORE RETURN JUMPDEST CALLVALUE PUSH2 0x237 JUMPI PUSH1 0x40 CALLDATASIZE PUSH1 0x3 NOT ADD SLT PUSH2 0x237 JUMPI PUSH2 0x761 PUSH2 0x757 PUSH2 0x1A2F JUMP JUMPDEST PUSH1 0x24 CALLDATALOAD SWAP1 CALLER PUSH2 0x1C26 JUMP JUMPDEST PUSH1 0x20 PUSH1 0x40 MLOAD PUSH1 0x1 DUP2 MSTORE RETURN JUMPDEST CALLVALUE PUSH2 0x237 JUMPI PUSH1 0xA0 CALLDATASIZE PUSH1 0x3 NOT ADD SLT PUSH2 0x237 JUMPI PUSH32 0x30BE12A58949831A2BA360CD4C740F0F9277275D25BB2CC31C3656D170FC5C9 PUSH1 0xA0 PUSH1 0x4 CALLDATALOAD PUSH1 0x24 CALLDATALOAD PUSH2 0x7AE PUSH2 0x1AF4 JUMP JUMPDEST PUSH1 0x84 CALLDATALOAD SWAP2 PUSH1 0x64 CALLDATALOAD SWAP2 PUSH2 0x7BE PUSH2 0x1B03 JUMP JUMPDEST DUP5 PUSH1 0x9 SSTORE DUP2 PUSH1 0xA SSTORE ISZERO ISZERO SWAP1 PUSH1 0xFF NOT PUSH1 0xB SLOAD AND PUSH1 0xFF DUP4 AND OR PUSH1 0xB SSTORE DUP3 PUSH1 0xC SSTORE DUP4 PUSH1 0xD SSTORE PUSH1 0x40 MLOAD SWAP5 DUP6 MSTORE PUSH1 0x20 DUP6 ADD MSTORE PUSH1 0x40 DUP5 ADD MSTORE PUSH1 0x60 DUP4 ADD MSTORE PUSH1 0x80 DUP3 ADD MSTORE LOG1 STOP JUMPDEST CALLVALUE PUSH2 0x237 JUMPI PUSH1 0x0 CALLDATASIZE PUSH1 0x3 NOT ADD SLT PUSH2 0x237 JUMPI PUSH1 0x40 MLOAD PUSH1 0x0 PUSH1 0x0 DUP1 MLOAD PUSH1 0x20 PUSH2 0x3053 DUP4 CODECOPY DUP2 MLOAD SWAP2 MSTORE DUP1 SLOAD PUSH2 0x82D DUP2 PUSH2 0x1BB0 JUMP JUMPDEST DUP1 DUP6 MSTORE SWAP2 PUSH1 0x1 SWAP2 DUP1 DUP4 AND SWAP1 DUP2 ISZERO PUSH2 0x8B1 JUMPI POP PUSH1 0x1 EQ PUSH2 0x867 JUMPI JUMPDEST PUSH2 0x863 DUP6 PUSH2 0x857 DUP2 DUP8 SUB DUP3 PUSH2 0x1C05 JUMP JUMPDEST PUSH1 0x40 MLOAD SWAP2 DUP3 SWAP2 DUP3 PUSH2 0x19E6 JUMP JUMPDEST SUB SWAP1 RETURN JUMPDEST PUSH1 0x0 SWAP1 DUP2 MSTORE SWAP3 POP PUSH1 0x0 DUP1 MLOAD PUSH1 0x20 PUSH2 0x30D3 DUP4 CODECOPY DUP2 MLOAD SWAP2 MSTORE JUMPDEST DUP3 DUP5 LT PUSH2 0x899 JUMPI POP POP POP DUP2 ADD PUSH1 0x20 ADD PUSH2 0x857 DUP3 PUSH2 0x863 PUSH2 0x847 JUMP JUMPDEST DUP1 SLOAD PUSH1 0x20 DUP6 DUP8 ADD DUP2 ADD SWAP2 SWAP1 SWAP2 MSTORE SWAP1 SWAP4 ADD SWAP3 DUP2 ADD PUSH2 0x87E JUMP JUMPDEST DUP7 SWAP6 POP PUSH2 0x863 SWAP7 SWAP4 POP PUSH1 0x20 SWAP3 POP PUSH2 0x857 SWAP5 SWAP2 POP PUSH1 0xFF NOT AND DUP3 DUP5 ADD MSTORE ISZERO ISZERO PUSH1 0x5 SHL DUP3 ADD ADD SWAP3 SWAP4 PUSH2 0x847 JUMP JUMPDEST CALLVALUE PUSH2 0x237 JUMPI PUSH1 0xA0 CALLDATASIZE PUSH1 0x3 NOT ADD SLT PUSH2 0x237 JUMPI PUSH2 0x8F4 PUSH2 0x1A2F JUMP JUMPDEST PUSH1 0x24 CALLDATALOAD SWAP1 DUP2 ISZERO ISZERO SWAP1 DUP2 DUP4 SUB PUSH2 0x237 JUMPI PUSH2 0x90B PUSH2 0x1AF4 JUMP JUMPDEST SWAP2 PUSH1 0x64 CALLDATALOAD DUP1 ISZERO ISZERO DUP1 DUP3 SUB PUSH2 0x237 JUMPI PUSH1 0x84 CALLDATALOAD SWAP5 DUP6 ISZERO ISZERO SWAP3 DUP4 DUP8 SUB PUSH2 0x237 JUMPI PUSH32 0x5DE6654A95655D8559604B64D6A2547AB79693A81033F89FD08E7FB3D0D7B39A SWAP7 PUSH2 0x9C1 PUSH2 0x9DC SWAP3 PUSH2 0x987 PUSH1 0x80 SWAP10 PUSH2 0x95F PUSH2 0x1B03 JUMP JUMPDEST PUSH1 0x1 DUP1 PUSH1 0xA0 SHL SUB AND SWAP12 DUP13 PUSH1 0x0 MSTORE PUSH1 0xE PUSH1 0x20 MSTORE PUSH1 0x40 PUSH1 0x0 KECCAK256 SWAP1 PUSH1 0xFF DUP1 NOT DUP4 SLOAD AND SWAP2 ISZERO ISZERO AND OR SWAP1 SSTORE JUMP JUMPDEST PUSH1 0xF PUSH1 0x20 MSTORE PUSH2 0x9A6 DUP6 PUSH1 0x40 PUSH1 0x0 KECCAK256 SWAP1 PUSH1 0xFF DUP1 NOT DUP4 SLOAD AND SWAP2 ISZERO ISZERO AND OR SWAP1 SSTORE JUMP JUMPDEST PUSH1 0x10 PUSH1 0x20 MSTORE PUSH1 0x40 PUSH1 0x0 KECCAK256 SWAP1 PUSH1 0xFF DUP1 NOT DUP4 SLOAD AND SWAP2 ISZERO ISZERO AND OR SWAP1 SSTORE JUMP JUMPDEST PUSH1 0x11 PUSH1 0x20 MSTORE PUSH1 0x40 PUSH1 0x0 KECCAK256 SWAP1 PUSH1 0xFF DUP1 NOT DUP4 SLOAD AND SWAP2 ISZERO ISZERO AND OR SWAP1 SSTORE JUMP JUMPDEST PUSH1 0x40 MLOAD SWAP4 DUP5 MSTORE ISZERO ISZERO PUSH1 0x20 DUP5 ADD MSTORE PUSH1 0x40 DUP4 ADD MSTORE PUSH1 0x60 DUP3 ADD MSTORE LOG2 STOP JUMPDEST CALLVALUE PUSH2 0x237 JUMPI PUSH1 0x0 CALLDATASIZE PUSH1 0x3 NOT ADD SLT PUSH2 0x237 JUMPI PUSH1 0x0 DUP1 MLOAD PUSH1 0x20 PUSH2 0x3073 DUP4 CODECOPY DUP2 MLOAD SWAP2 MSTORE SLOAD PUSH1 0x40 MLOAD PUSH1 0x1 PUSH1 0x1 PUSH1 0xA0 SHL SUB SWAP1 SWAP2 AND DUP2 MSTORE PUSH1 0x20 SWAP1 RETURN JUMPDEST CALLVALUE PUSH2 0x237 JUMPI PUSH1 0x0 CALLDATASIZE PUSH1 0x3 NOT ADD SLT PUSH2 0x237 JUMPI PUSH1 0x20 PUSH1 0xC SLOAD PUSH1 0x40 MLOAD SWAP1 DUP2 MSTORE RETURN JUMPDEST CALLVALUE PUSH2 0x237 JUMPI PUSH1 0x0 CALLDATASIZE PUSH1 0x3 NOT ADD SLT PUSH2 0x237 JUMPI PUSH2 0xA63 PUSH2 0x1B03 JUMP JUMPDEST PUSH1 0x2 SLOAD PUSH1 0xFF DUP2 PUSH1 0xA0 SHR AND PUSH2 0xAF3 JUMPI PUSH1 0x1 PUSH1 0x1 PUSH1 0xA0 SHL SUB DUP2 AND SWAP1 DUP2 ISZERO PUSH2 0xABF JUMPI PUSH1 0xFF PUSH1 0xA0 SHL NOT AND PUSH1 0x1 PUSH1 0xA0 SHL OR PUSH1 0x2 SSTORE NUMBER PUSH1 0x3 DUP2 SWAP1 SSTORE PUSH32 0xB0153A1D634C9F6DA118C6950A6689CFF830DA150B9872B291E7A8D815316BB7 PUSH1 0x0 DUP1 LOG3 STOP JUMPDEST PUSH1 0x40 MLOAD PUSH3 0x461BCD PUSH1 0xE5 SHL DUP2 MSTORE PUSH1 0x20 PUSH1 0x4 DUP3 ADD MSTORE PUSH1 0xC PUSH1 0x24 DUP3 ADD MSTORE PUSH12 0x1C185A5C881B9BDD081CD95D PUSH1 0xA2 SHL PUSH1 0x44 DUP3 ADD MSTORE PUSH1 0x64 SWAP1 REVERT JUMPDEST PUSH1 0x40 MLOAD PUSH3 0x461BCD PUSH1 0xE5 SHL DUP2 MSTORE PUSH1 0x20 PUSH1 0x4 DUP3 ADD MSTORE PUSH1 0xF PUSH1 0x24 DUP3 ADD MSTORE PUSH15 0x185B1C9958591E48195B98589B1959 PUSH1 0x8A SHL PUSH1 0x44 DUP3 ADD MSTORE PUSH1 0x64 SWAP1 REVERT JUMPDEST CALLVALUE PUSH2 0x237 JUMPI PUSH1 0x0 CALLDATASIZE PUSH1 0x3 NOT ADD SLT PUSH2 0x237 JUMPI PUSH2 0xB43 PUSH2 0x1B03 JUMP JUMPDEST PUSH1 0x0 DUP1 DUP1 DUP1 PUSH1 0x1 DUP1 PUSH1 0xA0 SHL SUB PUSH1 0x0 DUP1 MLOAD PUSH1 0x20 PUSH2 0x3073 DUP4 CODECOPY DUP2 MLOAD SWAP2 MSTORE SLOAD AND SELFBALANCE SWAP1 GAS CALL PUSH2 0xB6C PUSH2 0x1D7B JUMP JUMPDEST POP ISZERO PUSH2 0xB74 JUMPI STOP JUMPDEST PUSH1 0x40 MLOAD PUSH3 0x461BCD PUSH1 0xE5 SHL DUP2 MSTORE PUSH1 0x20 PUSH1 0x4 DUP3 ADD MSTORE PUSH1 0x13 PUSH1 0x24 DUP3 ADD MSTORE PUSH19 0x115512081DDA5D1A191C985DC819985A5B1959 PUSH1 0x6A SHL PUSH1 0x44 DUP3 ADD MSTORE PUSH1 0x64 SWAP1 REVERT JUMPDEST CALLVALUE PUSH2 0x237 JUMPI PUSH1 0x0 CALLDATASIZE PUSH1 0x3 NOT ADD SLT PUSH2 0x237 JUMPI PUSH1 0x0 SLOAD PUSH1 0x40 MLOAD PUSH1 0x1 PUSH1 0x1 PUSH1 0xA0 SHL SUB SWAP1 SWAP2 AND DUP2 MSTORE PUSH1 0x20 SWAP1 RETURN JUMPDEST CALLVALUE PUSH2 0x237 JUMPI PUSH1 0xA0 CALLDATASIZE PUSH1 0x3 NOT ADD SLT PUSH2 0x237 JUMPI PUSH2 0xBF1 PUSH2 0x1A2F JUMP JUMPDEST PUSH1 0x24 CALLDATALOAD PUSH1 0x1 PUSH1 0x1 PUSH1 0x40 SHL SUB DUP2 GT PUSH2 0x237 JUMPI PUSH2 0xC10 SWAP1 CALLDATASIZE SWAP1 PUSH1 0x4 ADD PUSH2 0x1AC7 JUMP JUMPDEST SWAP1 PUSH1 0x44 CALLDATALOAD PUSH1 0x1 PUSH1 0x1 PUSH1 0x40 SHL SUB DUP2 GT PUSH2 0x237 JUMPI PUSH2 0xC30 SWAP1 CALLDATASIZE SWAP1 PUSH1 0x4 ADD PUSH2 0x1AC7 JUMP JUMPDEST PUSH1 0x84 CALLDATALOAD SWAP3 PUSH1 0x1 PUSH1 0x1 PUSH1 0xA0 SHL SUB SWAP3 DUP4 DUP6 AND DUP6 SUB PUSH2 0x237 JUMPI PUSH1 0x0 DUP1 MLOAD PUSH1 0x20 PUSH2 0x30F3 DUP4 CODECOPY DUP2 MLOAD SWAP2 MSTORE SLOAD SWAP6 PUSH1 0x1 PUSH1 0x1 PUSH1 0x40 SHL SUB DUP8 AND DUP1 ISZERO SWAP1 DUP2 PUSH2 0x1326 JUMPI JUMPDEST PUSH1 0x1 EQ SWAP1 DUP2 PUSH2 0x131C JUMPI JUMPDEST ISZERO SWAP1 DUP2 PUSH2 0x1313 JUMPI JUMPDEST POP PUSH2 0x1301 JUMPI PUSH1 0x1 PUSH1 0x1 PUSH1 0x1 PUSH1 0x40 SHL SUB NOT DUP9 AND OR PUSH1 0x0 DUP1 MLOAD PUSH1 0x20 PUSH2 0x30F3 DUP4 CODECOPY DUP2 MLOAD SWAP2 MSTORE SSTORE PUSH1 0xFF DUP8 PUSH1 0x40 SHR AND ISZERO PUSH2 0x12D4 JUMPI JUMPDEST DUP5 DUP9 AND ISZERO PUSH2 0x12A5 JUMPI DUP5 DUP7 AND ISZERO PUSH2 0x1272 JUMPI PUSH1 0x64 CALLDATALOAD ISZERO PUSH2 0x1242 JUMPI PUSH2 0xCDB SWAP3 PUSH2 0xCD3 SWAP2 CALLDATASIZE SWAP2 PUSH2 0x1CF5 JUMP JUMPDEST SWAP3 CALLDATASIZE SWAP2 PUSH2 0x1CF5 JUMP JUMPDEST SWAP1 PUSH2 0xCE4 PUSH2 0x1D4C JUMP JUMPDEST PUSH2 0xCEC PUSH2 0x1D4C JUMP JUMPDEST DUP1 MLOAD SWAP1 PUSH1 0x1 PUSH1 0x1 PUSH1 0x40 SHL SUB DUP3 GT PUSH2 0x110E JUMPI DUP2 SWAP1 PUSH2 0xD17 PUSH1 0x0 DUP1 MLOAD PUSH1 0x20 PUSH2 0x3013 DUP4 CODECOPY DUP2 MLOAD SWAP2 MSTORE SLOAD PUSH2 0x1BB0 JUMP JUMPDEST PUSH1 0x1F DUP2 GT PUSH2 0x11C1 JUMPI JUMPDEST POP PUSH1 0x20 SWAP1 PUSH1 0x1F DUP4 GT PUSH1 0x1 EQ PUSH2 0x112F JUMPI PUSH1 0x0 SWAP3 PUSH2 0x1124 JUMPI JUMPDEST POP POP DUP2 PUSH1 0x1 SHL SWAP2 PUSH1 0x0 NOT SWAP1 PUSH1 0x3 SHL SHR NOT AND OR PUSH1 0x0 DUP1 MLOAD PUSH1 0x20 PUSH2 0x3013 DUP4 CODECOPY DUP2 MLOAD SWAP2 MSTORE SSTORE JUMPDEST DUP1 MLOAD SWAP1 PUSH1 0x1 PUSH1 0x1 PUSH1 0x40 SHL SUB DUP3 GT PUSH2 0x110E JUMPI PUSH2 0xD83 PUSH1 0x0 DUP1 MLOAD PUSH1 0x20 PUSH2 0x3053 DUP4 CODECOPY DUP2 MLOAD SWAP2 MSTORE SLOAD PUSH2 0x1BB0 JUMP JUMPDEST PUSH1 0x1F DUP2 GT PUSH2 0x1098 JUMPI JUMPDEST POP PUSH1 0x20 SWAP1 PUSH1 0x1F DUP4 GT PUSH1 0x1 EQ PUSH2 0x1000 JUMPI SWAP2 DUP1 PUSH1 0xFF SWAP8 SWAP5 SWAP3 PUSH2 0xF91 SWAP7 SWAP5 PUSH1 0x0 SWAP3 PUSH2 0xFF5 JUMPI JUMPDEST POP POP DUP2 PUSH1 0x1 SHL SWAP2 PUSH1 0x0 NOT SWAP1 PUSH1 0x3 SHL SHR NOT AND OR PUSH1 0x0 DUP1 MLOAD PUSH1 0x20 PUSH2 0x3053 DUP4 CODECOPY DUP2 MLOAD SWAP2 MSTORE SSTORE JUMPDEST PUSH2 0xDDA PUSH2 0x1D4C JUMP JUMPDEST PUSH2 0xDE2 PUSH2 0x1D4C JUMP JUMPDEST PUSH2 0xDEB DUP4 PUSH2 0x1B3C JUMP JUMPDEST PUSH1 0x0 DUP1 SLOAD PUSH1 0x1 PUSH1 0x1 PUSH1 0xA0 SHL SUB NOT AND DUP4 DUP4 AND OR DUP2 SSTORE PUSH1 0x40 MLOAD PUSH1 0x60 SWAP1 PUSH2 0xE0E DUP2 PUSH2 0x1BEA JUMP JUMPDEST DUP3 DUP2 MSTORE DUP3 PUSH1 0x20 DUP3 ADD MSTORE DUP3 PUSH1 0x40 DUP3 ADD MSTORE ADD MSTORE PUSH2 0x190 PUSH1 0x60 PUSH1 0x40 MLOAD PUSH2 0xE30 DUP2 PUSH2 0x1BEA JUMP JUMPDEST PUSH1 0xC8 DUP2 MSTORE PUSH1 0xC8 PUSH1 0x20 DUP3 ADD MSTORE PUSH1 0x0 PUSH1 0x40 DUP3 ADD MSTORE ADD MSTORE PUSH8 0x190000000C800C8 PUSH1 0x1 PUSH1 0x1 PUSH1 0x40 SHL SUB NOT PUSH1 0x4 SLOAD AND OR PUSH1 0x4 SSTORE PUSH1 0x0 PUSH1 0x60 PUSH1 0x40 MLOAD PUSH2 0xE6E DUP2 PUSH2 0x1BEA JUMP JUMPDEST DUP3 DUP2 MSTORE DUP3 PUSH1 0x20 DUP3 ADD MSTORE DUP3 PUSH1 0x40 DUP3 ADD MSTORE ADD MSTORE PUSH2 0x258 PUSH1 0x60 PUSH1 0x40 MLOAD PUSH2 0xE90 DUP2 PUSH2 0x1BEA JUMP JUMPDEST PUSH2 0x12C DUP1 DUP3 MSTORE PUSH1 0x20 DUP3 ADD MSTORE PUSH1 0x0 PUSH1 0x40 DUP3 ADD MSTORE ADD MSTORE PUSH8 0x2580000012C012C PUSH1 0x1 PUSH1 0x1 PUSH1 0x40 SHL SUB NOT PUSH1 0x5 SLOAD AND OR PUSH1 0x5 SSTORE DUP1 DUP7 NOT SWAP3 PUSH1 0x1 DUP5 PUSH1 0x6 SLOAD AND OR PUSH1 0x6 SSTORE PUSH1 0x1 DUP5 PUSH1 0xB SLOAD AND OR PUSH1 0xB SSTORE PUSH2 0x2710 PUSH1 0x64 CALLDATALOAD DIV PUSH1 0x7 SSTORE DUP2 DUP6 AND PUSH1 0x0 MSTORE PUSH1 0x10 PUSH1 0x20 MSTORE PUSH1 0x40 PUSH1 0x0 KECCAK256 PUSH1 0x1 DUP6 DUP3 SLOAD AND OR SWAP1 SSTORE ADDRESS PUSH1 0x0 MSTORE PUSH1 0x40 PUSH1 0x0 KECCAK256 PUSH1 0x1 DUP6 DUP3 SLOAD AND OR SWAP1 SSTORE DUP2 DUP2 AND PUSH1 0x0 MSTORE PUSH1 0x40 PUSH1 0x0 KECCAK256 PUSH1 0x1 DUP6 DUP3 SLOAD AND OR SWAP1 SSTORE DUP2 DUP6 AND PUSH1 0x0 MSTORE PUSH1 0x11 PUSH1 0x20 MSTORE PUSH1 0x40 PUSH1 0x0 KECCAK256 PUSH1 0x1 DUP6 DUP3 SLOAD AND OR SWAP1 SSTORE ADDRESS PUSH1 0x0 MSTORE PUSH1 0x40 PUSH1 0x0 KECCAK256 PUSH1 0x1 DUP6 DUP3 SLOAD AND OR SWAP1 SSTORE AND PUSH1 0x0 MSTORE PUSH1 0x40 PUSH1 0x0 KECCAK256 PUSH1 0x1 DUP4 DUP3 SLOAD AND OR SWAP1 SSTORE DUP3 AND PUSH1 0x0 MSTORE PUSH1 0xE PUSH1 0x20 MSTORE PUSH1 0x40 PUSH1 0x0 KECCAK256 PUSH1 0x1 DUP3 DUP3 SLOAD AND OR SWAP1 SSTORE ADDRESS PUSH1 0x0 MSTORE PUSH1 0x1 PUSH1 0x40 PUSH1 0x0 KECCAK256 SWAP2 DUP3 SLOAD AND OR SWAP1 SSTORE PUSH1 0x64 CALLDATALOAD SWAP1 PUSH2 0x1E0D JUMP JUMPDEST PUSH1 0x40 SHR AND ISZERO PUSH2 0xF9C JUMPI STOP JUMPDEST PUSH9 0xFF0000000000000000 NOT PUSH1 0x0 DUP1 MLOAD PUSH1 0x20 PUSH2 0x30F3 DUP4 CODECOPY DUP2 MLOAD SWAP2 MSTORE SLOAD AND PUSH1 0x0 DUP1 MLOAD PUSH1 0x20 PUSH2 0x30F3 DUP4 CODECOPY DUP2 MLOAD SWAP2 MSTORE SSTORE PUSH32 0xC7F505B2F371AE2175EE4913F4499E1F2633A7B5936321EED1CDAEB6115181D2 PUSH1 0x20 PUSH1 0x40 MLOAD PUSH1 0x1 DUP2 MSTORE LOG1 STOP JUMPDEST ADD MLOAD SWAP1 POP DUP9 DUP1 PUSH2 0xDAF JUMP JUMPDEST SWAP1 PUSH1 0x0 DUP1 MLOAD PUSH1 0x20 PUSH2 0x3053 DUP4 CODECOPY DUP2 MLOAD SWAP2 MSTORE PUSH1 0x0 MSTORE PUSH1 0x0 DUP1 MLOAD PUSH1 0x20 PUSH2 0x30D3 DUP4 CODECOPY DUP2 MLOAD SWAP2 MSTORE SWAP2 PUSH1 0x0 JUMPDEST PUSH1 0x1F NOT DUP6 AND DUP2 LT PUSH2 0x1080 JUMPI POP SWAP3 PUSH1 0xFF SWAP8 SWAP5 SWAP3 PUSH1 0x1 SWAP3 PUSH2 0xF91 SWAP8 SWAP6 DUP4 PUSH1 0x1F NOT DUP2 AND LT PUSH2 0x1067 JUMPI JUMPDEST POP POP POP DUP2 SHL ADD PUSH1 0x0 DUP1 MLOAD PUSH1 0x20 PUSH2 0x3053 DUP4 CODECOPY DUP2 MLOAD SWAP2 MSTORE SSTORE PUSH2 0xDD2 JUMP JUMPDEST ADD MLOAD PUSH1 0x0 NOT PUSH1 0xF8 DUP5 PUSH1 0x3 SHL AND SHR NOT AND SWAP1 SSTORE DUP9 DUP1 DUP1 PUSH2 0x104C JUMP JUMPDEST SWAP2 SWAP3 PUSH1 0x20 PUSH1 0x1 DUP2 SWAP3 DUP7 DUP6 ADD MLOAD DUP2 SSTORE ADD SWAP5 ADD SWAP3 ADD PUSH2 0x1026 JUMP JUMPDEST PUSH1 0x0 DUP1 MLOAD PUSH1 0x20 PUSH2 0x3053 DUP4 CODECOPY DUP2 MLOAD SWAP2 MSTORE PUSH1 0x0 MSTORE PUSH1 0x1F DUP4 ADD PUSH1 0x5 SHR PUSH1 0x0 DUP1 MLOAD PUSH1 0x20 PUSH2 0x30D3 DUP4 CODECOPY DUP2 MLOAD SWAP2 MSTORE ADD PUSH1 0x20 DUP5 LT PUSH2 0x10F9 JUMPI JUMPDEST PUSH1 0x1F DUP3 ADD PUSH1 0x5 SHR PUSH1 0x0 DUP1 MLOAD PUSH1 0x20 PUSH2 0x30D3 DUP4 CODECOPY DUP2 MLOAD SWAP2 MSTORE ADD DUP2 LT PUSH2 0x10ED JUMPI POP PUSH2 0xD8C JUMP JUMPDEST PUSH1 0x0 DUP2 SSTORE PUSH1 0x1 ADD PUSH2 0x10CA JUMP JUMPDEST POP PUSH1 0x0 DUP1 MLOAD PUSH1 0x20 PUSH2 0x30D3 DUP4 CODECOPY DUP2 MLOAD SWAP2 MSTORE PUSH2 0x10CA JUMP JUMPDEST PUSH4 0x4E487B71 PUSH1 0xE0 SHL PUSH1 0x0 MSTORE PUSH1 0x41 PUSH1 0x4 MSTORE PUSH1 0x24 PUSH1 0x0 REVERT JUMPDEST ADD MLOAD SWAP1 POP DUP8 DUP1 PUSH2 0xD37 JUMP JUMPDEST SWAP3 POP PUSH1 0x0 DUP1 MLOAD PUSH1 0x20 PUSH2 0x3013 DUP4 CODECOPY DUP2 MLOAD SWAP2 MSTORE PUSH1 0x0 MSTORE PUSH1 0x0 DUP1 MLOAD PUSH1 0x20 PUSH2 0x2FF3 DUP4 CODECOPY DUP2 MLOAD SWAP2 MSTORE SWAP1 PUSH1 0x0 SWAP4 JUMPDEST PUSH1 0x1F NOT DUP5 AND DUP6 LT PUSH2 0x11A6 JUMPI PUSH1 0x1 SWAP5 POP DUP4 PUSH1 0x1F NOT DUP2 AND LT PUSH2 0x118D JUMPI JUMPDEST POP POP POP DUP2 SHL ADD PUSH1 0x0 DUP1 MLOAD PUSH1 0x20 PUSH2 0x3013 DUP4 CODECOPY DUP2 MLOAD SWAP2 MSTORE SSTORE PUSH2 0xD5A JUMP JUMPDEST ADD MLOAD PUSH1 0x0 NOT PUSH1 0xF8 DUP5 PUSH1 0x3 SHL AND SHR NOT AND SWAP1 SSTORE DUP8 DUP1 DUP1 PUSH2 0x1172 JUMP JUMPDEST DUP2 DUP2 ADD MLOAD DUP4 SSTORE PUSH1 0x20 SWAP5 DUP6 ADD SWAP5 PUSH1 0x1 SWAP1 SWAP4 ADD SWAP3 SWAP1 SWAP2 ADD SWAP1 PUSH2 0x1157 JUMP JUMPDEST SWAP1 SWAP2 POP PUSH1 0x0 DUP1 MLOAD PUSH1 0x20 PUSH2 0x3013 DUP4 CODECOPY DUP2 MLOAD SWAP2 MSTORE PUSH1 0x0 MSTORE PUSH1 0x1F DUP4 ADD PUSH1 0x5 SHR PUSH1 0x0 DUP1 MLOAD PUSH1 0x20 PUSH2 0x2FF3 DUP4 CODECOPY DUP2 MLOAD SWAP2 MSTORE ADD PUSH1 0x20 DUP5 LT PUSH2 0x122D JUMPI JUMPDEST SWAP1 DUP4 SWAP3 SWAP2 JUMPDEST PUSH1 0x1F DUP3 ADD PUSH1 0x5 SHR PUSH1 0x0 DUP1 MLOAD PUSH1 0x20 PUSH2 0x2FF3 DUP4 CODECOPY DUP2 MLOAD SWAP2 MSTORE ADD DUP2 LT PUSH2 0x121E JUMPI POP PUSH2 0xD20 JUMP JUMPDEST PUSH1 0x0 DUP2 SSTORE DUP5 SWAP4 POP PUSH1 0x1 ADD PUSH2 0x11FB JUMP JUMPDEST POP PUSH1 0x0 DUP1 MLOAD PUSH1 0x20 PUSH2 0x2FF3 DUP4 CODECOPY DUP2 MLOAD SWAP2 MSTORE PUSH2 0x11F6 JUMP JUMPDEST PUSH1 0x40 MLOAD PUSH3 0x461BCD PUSH1 0xE5 SHL DUP2 MSTORE PUSH1 0x20 PUSH1 0x4 DUP3 ADD MSTORE PUSH1 0x8 PUSH1 0x24 DUP3 ADD MSTORE PUSH8 0x737570706C793D3 PUSH1 0xC4 SHL PUSH1 0x44 DUP3 ADD MSTORE PUSH1 0x64 SWAP1 REVERT JUMPDEST PUSH1 0x40 MLOAD PUSH3 0x461BCD PUSH1 0xE5 SHL DUP2 MSTORE PUSH1 0x20 PUSH1 0x4 DUP3 ADD MSTORE PUSH1 0xB PUSH1 0x24 DUP3 ADD MSTORE PUSH11 0x6D61726B6574696E673D3 PUSH1 0xAC SHL PUSH1 0x44 DUP3 ADD MSTORE PUSH1 0x64 SWAP1 REVERT JUMPDEST PUSH1 0x40 MLOAD PUSH3 0x461BCD PUSH1 0xE5 SHL DUP2 MSTORE PUSH1 0x20 PUSH1 0x4 DUP3 ADD MSTORE PUSH1 0x7 PUSH1 0x24 DUP3 ADD MSTORE PUSH7 0x6F776E65723D3 PUSH1 0xCC SHL PUSH1 0x44 DUP3 ADD MSTORE PUSH1 0x64 SWAP1 REVERT JUMPDEST PUSH9 0xFFFFFFFFFFFFFFFFFF NOT DUP8 AND PUSH9 0x10000000000000001 OR PUSH1 0x0 DUP1 MLOAD PUSH1 0x20 PUSH2 0x30F3 DUP4 CODECOPY DUP2 MLOAD SWAP2 MSTORE SSTORE PUSH2 0xCAC JUMP JUMPDEST PUSH1 0x40 MLOAD PUSH4 0xF92EE8A9 PUSH1 0xE0 SHL DUP2 MSTORE PUSH1 0x4 SWAP1 REVERT JUMPDEST SWAP1 POP ISZERO DUP10 PUSH2 0xC7C JUMP JUMPDEST ADDRESS EXTCODESIZE ISZERO SWAP2 POP PUSH2 0xC74 JUMP JUMPDEST PUSH1 0x40 DUP10 SWAP1 SHR PUSH1 0xFF AND ISZERO SWAP2 POP PUSH2 0xC6A JUMP JUMPDEST CALLVALUE PUSH2 0x237 JUMPI PUSH1 0x0 CALLDATASIZE PUSH1 0x3 NOT ADD SLT PUSH2 0x237 JUMPI PUSH2 0x134F PUSH2 0x1B03 JUMP JUMPDEST PUSH1 0x0 DUP1 MLOAD PUSH1 0x20 PUSH2 0x3073 DUP4 CODECOPY DUP2 MLOAD SWAP2 MSTORE DUP1 SLOAD PUSH1 0x1 PUSH1 0x1 PUSH1 0xA0 SHL SUB NOT DUP2 AND SWAP1 SWAP2 SSTORE PUSH1 0x0 SWAP1 PUSH1 0x1 PUSH1 0x1 PUSH1 0xA0 SHL SUB AND PUSH32 0x8BE0079C531659141344CD1FD0A4F28419497F9722A3DAAFE3B4186F6B6457E0 DUP3 DUP1 LOG3 STOP JUMPDEST CALLVALUE PUSH2 0x237 JUMPI PUSH1 0x20 CALLDATASIZE PUSH1 0x3 NOT ADD SLT PUSH2 0x237 JUMPI PUSH1 0x1 PUSH1 0x1 PUSH1 0xA0 SHL SUB PUSH2 0x13C1 PUSH2 0x1A2F JUMP JUMPDEST AND PUSH1 0x0 MSTORE PUSH1 0x0 DUP1 MLOAD PUSH1 0x20 PUSH2 0x3033 DUP4 CODECOPY DUP2 MLOAD SWAP2 MSTORE PUSH1 0x20 MSTORE PUSH1 0x20 PUSH1 0x40 PUSH1 0x0 KECCAK256 SLOAD PUSH1 0x40 MLOAD SWAP1 DUP2 MSTORE RETURN JUMPDEST CALLVALUE PUSH2 0x237 JUMPI PUSH1 0x0 CALLDATASIZE PUSH1 0x3 NOT ADD SLT PUSH2 0x237 JUMPI PUSH1 0x20 PUSH1 0xFF PUSH1 0x6 SLOAD AND PUSH1 0x40 MLOAD SWAP1 ISZERO ISZERO DUP2 MSTORE RETURN JUMPDEST CALLVALUE PUSH2 0x237 JUMPI PUSH1 0x60 CALLDATASIZE PUSH1 0x3 NOT ADD SLT PUSH2 0x237 JUMPI PUSH32 0x78A2B7C85FD401563E8AF374883543C3EE4188DF1C66FC71232DBB7E7FFDB102 PUSH1 0xE0 PUSH2 0x1446 PUSH2 0x1A94 JUMP JUMPDEST PUSH2 0x144E PUSH2 0x1AA5 JUMP JUMPDEST PUSH2 0x1456 PUSH2 0x1AB6 JUMP JUMPDEST SWAP1 PUSH2 0x145F PUSH2 0x1B03 JUMP JUMPDEST PUSH2 0x146A DUP3 DUP3 DUP6 PUSH2 0x2B58 JUMP JUMPDEST PUSH2 0xFFFF SWAP3 DUP4 DUP3 DUP2 DUP1 SWAP5 MLOAD AND SWAP1 PUSH1 0x4 SLOAD SWAP2 PUSH4 0xFFFF0000 PUSH1 0x20 DUP4 ADD MLOAD PUSH1 0x10 SHL AND SWAP1 PUSH8 0xFFFF000000000000 PUSH1 0x60 PUSH6 0xFFFF00000000 PUSH1 0x40 DUP7 ADD MLOAD PUSH1 0x20 SHL AND SWAP5 ADD MLOAD PUSH1 0x30 SHL AND SWAP4 PUSH1 0x1 PUSH1 0x1 PUSH1 0x40 SHL SUB NOT AND OR OR OR OR SWAP4 DUP5 PUSH1 0x4 SSTORE DUP2 PUSH1 0x40 MLOAD SWAP8 PUSH1 0xA0 DUP10 MSTORE PUSH1 0x3 PUSH1 0xA0 DUP11 ADD MSTORE PUSH3 0x627579 PUSH1 0xE8 SHL PUSH1 0xC0 DUP11 ADD MSTORE AND PUSH1 0x20 DUP9 ADD MSTORE AND PUSH1 0x40 DUP7 ADD MSTORE AND PUSH1 0x60 DUP5 ADD MSTORE PUSH1 0x30 SHR AND PUSH1 0x80 DUP3 ADD MSTORE LOG1 STOP JUMPDEST CALLVALUE PUSH2 0x237 JUMPI PUSH1 0x0 CALLDATASIZE PUSH1 0x3 NOT ADD SLT PUSH2 0x237 JUMPI PUSH2 0x1512 PUSH2 0x1B03 JUMP JUMPDEST PUSH1 0xFF NOT PUSH1 0x1 DUP2 PUSH1 0x8 SLOAD AND OR PUSH1 0x8 SSTORE PUSH2 0x1528 PUSH2 0x2C02 JUMP JUMPDEST PUSH1 0x8 SLOAD AND PUSH1 0x8 SSTORE PUSH1 0x0 DUP1 RETURN JUMPDEST CALLVALUE PUSH2 0x237 JUMPI PUSH1 0x20 CALLDATASIZE PUSH1 0x3 NOT ADD SLT PUSH2 0x237 JUMPI PUSH2 0x154D PUSH2 0x1A2F JUMP JUMPDEST PUSH2 0x1555 PUSH2 0x1B03 JUMP JUMPDEST PUSH1 0x1 PUSH1 0x1 PUSH1 0xA0 SHL SUB AND DUP1 ISZERO PUSH2 0x15D2 JUMPI DUP1 PUSH12 0xFFFFFFFFFFFFFFFFFFFFFFFF PUSH1 0xA0 SHL PUSH1 0x0 SLOAD AND OR PUSH1 0x0 SSTORE DUP1 PUSH1 0x0 MSTORE PUSH1 0x10 PUSH1 0x20 MSTORE PUSH1 0x40 PUSH1 0x0 KECCAK256 PUSH1 0xFF NOT SWAP1 PUSH1 0x1 DUP3 DUP3 SLOAD AND OR SWAP1 SSTORE PUSH1 0x11 PUSH1 0x20 MSTORE PUSH1 0x1 PUSH1 0x40 PUSH1 0x0 KECCAK256 SWAP2 DUP3 SLOAD AND OR SWAP1 SSTORE PUSH32 0xF86E3C0CC66159379BDF420884B6F4BE3AA4FB93284E88C539C61BA300646A74 PUSH1 0x0 DUP1 LOG2 STOP JUMPDEST PUSH1 0x40 MLOAD PUSH3 0x461BCD PUSH1 0xE5 SHL DUP2 MSTORE PUSH1 0x20 PUSH1 0x4 DUP3 ADD MSTORE PUSH1 0x8 PUSH1 0x24 DUP3 ADD MSTORE PUSH8 0x77616C6C65743D3 PUSH1 0xC4 SHL PUSH1 0x44 DUP3 ADD MSTORE PUSH1 0x64 SWAP1 REVERT JUMPDEST CALLVALUE PUSH2 0x237 JUMPI PUSH1 0x20 CALLDATASIZE PUSH1 0x3 NOT ADD SLT PUSH2 0x237 JUMPI PUSH1 0x1 PUSH1 0x1 PUSH1 0xA0 SHL SUB PUSH2 0x1623 PUSH2 0x1A2F JUMP JUMPDEST AND PUSH1 0x0 MSTORE PUSH1 0x11 PUSH1 0x20 MSTORE PUSH1 0x20 PUSH1 0xFF PUSH1 0x40 PUSH1 0x0 KECCAK256 SLOAD AND PUSH1 0x40 MLOAD SWAP1 ISZERO ISZERO DUP2 MSTORE RETURN JUMPDEST CALLVALUE PUSH2 0x237 JUMPI PUSH1 0x20 CALLDATASIZE PUSH1 0x3 NOT ADD SLT PUSH2 0x237 JUMPI PUSH1 0x1 PUSH1 0x1 PUSH1 0xA0 SHL SUB PUSH2 0x1662 PUSH2 0x1A2F JUMP JUMPDEST AND PUSH1 0x0 MSTORE PUSH1 0x10 PUSH1 0x20 MSTORE PUSH1 0x20 PUSH1 0xFF PUSH1 0x40 PUSH1 0x0 KECCAK256 SLOAD AND PUSH1 0x40 MLOAD SWAP1 ISZERO ISZERO DUP2 MSTORE RETURN JUMPDEST CALLVALUE PUSH2 0x237 JUMPI PUSH1 0x0 CALLDATASIZE PUSH1 0x3 NOT ADD SLT PUSH2 0x237 JUMPI PUSH1 0x20 PUSH1 0xFF PUSH1 0x2 SLOAD PUSH1 0xA0 SHR AND PUSH1 0x40 MLOAD SWAP1 ISZERO ISZERO DUP2 MSTORE RETURN JUMPDEST CALLVALUE PUSH2 0x237 JUMPI PUSH1 0x0 CALLDATASIZE PUSH1 0x3 NOT ADD SLT PUSH2 0x237 JUMPI PUSH1 0x2 SLOAD PUSH1 0x40 MLOAD PUSH1 0x1 PUSH1 0x1 PUSH1 0xA0 SHL SUB SWAP1 SWAP2 AND DUP2 MSTORE PUSH1 0x20 SWAP1 RETURN JUMPDEST CALLVALUE PUSH2 0x237 JUMPI PUSH1 0x0 CALLDATASIZE PUSH1 0x3 NOT ADD SLT PUSH2 0x237 JUMPI PUSH1 0x4 SLOAD PUSH1 0x40 DUP1 MLOAD PUSH2 0xFFFF DUP1 DUP5 AND DUP3 MSTORE PUSH1 0x10 DUP5 SWAP1 SHR DUP2 AND PUSH1 0x20 DUP1 DUP5 ADD SWAP2 SWAP1 SWAP2 MSTORE DUP5 SWAP1 SHR DUP2 AND SWAP3 DUP3 ADD SWAP3 SWAP1 SWAP3 MSTORE PUSH1 0x30 SWAP3 SWAP1 SWAP3 SHR AND PUSH1 0x60 DUP3 ADD MSTORE PUSH1 0x80 SWAP1 RETURN JUMPDEST CALLVALUE PUSH2 0x237 JUMPI PUSH1 0x20 CALLDATASIZE PUSH1 0x3 NOT ADD SLT PUSH2 0x237 JUMPI PUSH1 0x1 PUSH1 0x1 PUSH1 0xA0 SHL SUB PUSH2 0x173D PUSH2 0x1A2F JUMP JUMPDEST AND PUSH1 0x0 MSTORE PUSH1 0xE PUSH1 0x20 MSTORE PUSH1 0x20 PUSH1 0xFF PUSH1 0x40 PUSH1 0x0 KECCAK256 SLOAD AND PUSH1 0x40 MLOAD SWAP1 ISZERO ISZERO DUP2 MSTORE RETURN JUMPDEST CALLVALUE PUSH2 0x237 JUMPI PUSH1 0x0 CALLDATASIZE PUSH1 0x3 NOT ADD SLT PUSH2 0x237 JUMPI PUSH1 0x20 PUSH1 0x40 MLOAD PUSH1 0x12 DUP2 MSTORE RETURN JUMPDEST CALLVALUE PUSH2 0x237 JUMPI PUSH1 0x0 CALLDATASIZE PUSH1 0x3 NOT ADD SLT PUSH2 0x237 JUMPI PUSH1 0x20 PUSH1 0xFF PUSH1 0xB SLOAD AND PUSH1 0x40 MLOAD SWAP1 ISZERO ISZERO DUP2 MSTORE RETURN JUMPDEST CALLVALUE PUSH2 0x237 JUMPI PUSH1 0x0 CALLDATASIZE PUSH1 0x3 NOT ADD SLT PUSH2 0x237 JUMPI PUSH1 0x5 SLOAD PUSH1 0x40 DUP1 MLOAD PUSH2 0xFFFF DUP1 DUP5 AND DUP3 MSTORE PUSH1 0x10 DUP5 SWAP1 SHR DUP2 AND PUSH1 0x20 DUP1 DUP5 ADD SWAP2 SWAP1 SWAP2 MSTORE DUP5 SWAP1 SHR DUP2 AND SWAP3 DUP3 ADD SWAP3 SWAP1 SWAP3 MSTORE PUSH1 0x30 SWAP3 SWAP1 SWAP3 SHR AND PUSH1 0x60 DUP3 ADD MSTORE PUSH1 0x80 SWAP1 RETURN JUMPDEST CALLVALUE PUSH2 0x237 JUMPI PUSH1 0x60 CALLDATASIZE PUSH1 0x3 NOT ADD SLT PUSH2 0x237 JUMPI PUSH2 0x1800 PUSH2 0x1A2F JUMP JUMPDEST PUSH2 0x1808 PUSH2 0x1A45 JUMP JUMPDEST PUSH1 0x44 CALLDATALOAD SWAP1 PUSH2 0x1815 DUP4 PUSH2 0x1A5B JUMP JUMPDEST CALLER PUSH1 0x0 MSTORE PUSH1 0x20 MSTORE PUSH1 0x40 PUSH1 0x0 KECCAK256 SLOAD SWAP3 PUSH1 0x0 NOT DUP5 LT PUSH2 0x1837 JUMPI JUMPDEST PUSH2 0x761 SWAP4 POP PUSH2 0x1C26 JUMP JUMPDEST DUP3 DUP5 LT PUSH2 0x18A6 JUMPI PUSH1 0x1 PUSH1 0x1 PUSH1 0xA0 SHL SUB DUP2 AND ISZERO PUSH2 0x188D JUMPI CALLER ISZERO PUSH2 0x1874 JUMPI DUP3 PUSH2 0x761 SWAP5 PUSH2 0x1861 DUP4 PUSH2 0x1A5B JUMP JUMPDEST CALLER PUSH1 0x0 MSTORE PUSH1 0x20 MSTORE SUB PUSH1 0x40 PUSH1 0x0 KECCAK256 SSTORE PUSH2 0x182D JUMP JUMPDEST PUSH1 0x40 MLOAD PUSH4 0x4A1406B1 PUSH1 0xE1 SHL DUP2 MSTORE PUSH1 0x0 PUSH1 0x4 DUP3 ADD MSTORE PUSH1 0x24 SWAP1 REVERT JUMPDEST PUSH1 0x40 MLOAD PUSH4 0xE602DF05 PUSH1 0xE0 SHL DUP2 MSTORE PUSH1 0x0 PUSH1 0x4 DUP3 ADD MSTORE PUSH1 0x24 SWAP1 REVERT JUMPDEST PUSH1 0x40 MLOAD PUSH4 0x7DC7A0D9 PUSH1 0xE1 SHL DUP2 MSTORE CALLER PUSH1 0x4 DUP3 ADD MSTORE PUSH1 0x24 DUP2 ADD DUP6 SWAP1 MSTORE PUSH1 0x44 DUP2 ADD DUP5 SWAP1 MSTORE PUSH1 0x64 SWAP1 REVERT JUMPDEST CALLVALUE PUSH2 0x237 JUMPI PUSH1 0x0 CALLDATASIZE PUSH1 0x3 NOT ADD SLT PUSH2 0x237 JUMPI PUSH1 0x20 PUSH1 0x0 DUP1 MLOAD PUSH1 0x20 PUSH2 0x3093 DUP4 CODECOPY DUP2 MLOAD SWAP2 MSTORE SLOAD PUSH1 0x40 MLOAD SWAP1 DUP2 MSTORE RETURN JUMPDEST CALLVALUE PUSH2 0x237 JUMPI PUSH1 0x0 CALLDATASIZE PUSH1 0x3 NOT ADD SLT PUSH2 0x237 JUMPI PUSH1 0x1 SLOAD PUSH1 0x40 MLOAD PUSH1 0x1 PUSH1 0x1 PUSH1 0xA0 SHL SUB SWAP1 SWAP2 AND DUP2 MSTORE PUSH1 0x20 SWAP1 RETURN JUMPDEST CALLVALUE PUSH2 0x237 JUMPI PUSH1 0x40 CALLDATASIZE PUSH1 0x3 NOT ADD SLT PUSH2 0x237 JUMPI PUSH2 0x761 PUSH2 0x193C PUSH2 0x1A2F JUMP JUMPDEST PUSH1 0x24 CALLDATALOAD SWAP1 CALLER PUSH2 0x1C7C JUMP JUMPDEST CALLVALUE PUSH2 0x237 JUMPI PUSH1 0x0 CALLDATASIZE PUSH1 0x3 NOT ADD SLT PUSH2 0x237 JUMPI PUSH1 0x0 PUSH1 0x0 DUP1 MLOAD PUSH1 0x20 PUSH2 0x3013 DUP4 CODECOPY DUP2 MLOAD SWAP2 MSTORE DUP1 SLOAD PUSH2 0x1973 DUP2 PUSH2 0x1BB0 JUMP JUMPDEST DUP1 DUP6 MSTORE SWAP2 PUSH1 0x1 SWAP2 DUP1 DUP4 AND SWAP1 DUP2 ISZERO PUSH2 0x8B1 JUMPI POP PUSH1 0x1 EQ PUSH2 0x199C JUMPI PUSH2 0x863 DUP6 PUSH2 0x857 DUP2 DUP8 SUB DUP3 PUSH2 0x1C05 JUMP JUMPDEST PUSH1 0x0 SWAP1 DUP2 MSTORE SWAP3 POP PUSH1 0x0 DUP1 MLOAD PUSH1 0x20 PUSH2 0x2FF3 DUP4 CODECOPY DUP2 MLOAD SWAP2 MSTORE JUMPDEST DUP3 DUP5 LT PUSH2 0x19CE JUMPI POP POP POP DUP2 ADD PUSH1 0x20 ADD PUSH2 0x857 DUP3 PUSH2 0x863 PUSH2 0x847 JUMP JUMPDEST DUP1 SLOAD PUSH1 0x20 DUP6 DUP8 ADD DUP2 ADD SWAP2 SWAP1 SWAP2 MSTORE SWAP1 SWAP4 ADD SWAP3 DUP2 ADD PUSH2 0x19B3 JUMP JUMPDEST PUSH1 0x20 DUP1 DUP3 MSTORE DUP3 MLOAD DUP2 DUP4 ADD DUP2 SWAP1 MSTORE SWAP1 SWAP4 SWAP3 PUSH1 0x0 JUMPDEST DUP3 DUP2 LT PUSH2 0x1A1B JUMPI POP POP PUSH1 0x40 SWAP3 SWAP4 POP PUSH1 0x0 DUP4 DUP3 DUP5 ADD ADD MSTORE PUSH1 0x1F DUP1 NOT SWAP2 ADD AND ADD ADD SWAP1 JUMP JUMPDEST DUP2 DUP2 ADD DUP7 ADD MLOAD DUP5 DUP3 ADD PUSH1 0x40 ADD MSTORE DUP6 ADD PUSH2 0x19F9 JUMP JUMPDEST PUSH1 0x4 CALLDATALOAD SWAP1 PUSH1 0x1 PUSH1 0x1 PUSH1 0xA0 SHL SUB DUP3 AND DUP3 SUB PUSH2 0x237 JUMPI JUMP JUMPDEST PUSH1 0x24 CALLDATALOAD SWAP1 PUSH1 0x1 PUSH1 0x1 PUSH1 0xA0 SHL SUB DUP3 AND DUP3 SUB PUSH2 0x237 JUMPI JUMP JUMPDEST PUSH1 0x1 PUSH1 0x1 PUSH1 0xA0 SHL SUB AND PUSH1 0x0 SWAP1 DUP2 MSTORE PUSH32 0x52C63247E1F47DB19D5CE0460030C497F067CA4CEBF71BA98EEADABE20BACE01 PUSH1 0x20 MSTORE PUSH1 0x40 SWAP1 KECCAK256 SWAP1 JUMP JUMPDEST PUSH1 0x4 CALLDATALOAD SWAP1 PUSH2 0xFFFF DUP3 AND DUP3 SUB PUSH2 0x237 JUMPI JUMP JUMPDEST PUSH1 0x24 CALLDATALOAD SWAP1 PUSH2 0xFFFF DUP3 AND DUP3 SUB PUSH2 0x237 JUMPI JUMP JUMPDEST PUSH1 0x44 CALLDATALOAD SWAP1 PUSH2 0xFFFF DUP3 AND DUP3 SUB PUSH2 0x237 JUMPI JUMP JUMPDEST SWAP2 DUP2 PUSH1 0x1F DUP5 ADD SLT ISZERO PUSH2 0x237 JUMPI DUP3 CALLDATALOAD SWAP2 PUSH1 0x1 PUSH1 0x1 PUSH1 0x40 SHL SUB DUP4 GT PUSH2 0x237 JUMPI PUSH1 0x20 DUP4 DUP2 DUP7 ADD SWAP6 ADD ADD GT PUSH2 0x237 JUMPI JUMP JUMPDEST PUSH1 0x44 CALLDATALOAD SWAP1 DUP2 ISZERO ISZERO DUP3 SUB PUSH2 0x237 JUMPI JUMP JUMPDEST PUSH1 0x0 DUP1 MLOAD PUSH1 0x20 PUSH2 0x3073 DUP4 CODECOPY DUP2 MLOAD SWAP2 MSTORE SLOAD PUSH1 0x1 PUSH1 0x1 PUSH1 0xA0 SHL SUB AND CALLER SUB PUSH2 0x1B24 JUMPI JUMP JUMPDEST PUSH1 0x40 MLOAD PUSH4 0x118CDAA7 PUSH1 0xE0 SHL DUP2 MSTORE CALLER PUSH1 0x4 DUP3 ADD MSTORE PUSH1 0x24 SWAP1 REVERT JUMPDEST PUSH1 0x1 PUSH1 0x1 PUSH1 0xA0 SHL SUB SWAP1 DUP2 AND SWAP1 DUP2 ISZERO PUSH2 0x1B97 JUMPI PUSH1 0x0 DUP1 MLOAD PUSH1 0x20 PUSH2 0x3073 DUP4 CODECOPY DUP2 MLOAD SWAP2 MSTORE DUP1 SLOAD PUSH1 0x1 PUSH1 0x1 PUSH1 0xA0 SHL SUB NOT DUP2 AND DUP5 OR SWAP1 SWAP2 SSTORE AND PUSH32 0x8BE0079C531659141344CD1FD0A4F28419497F9722A3DAAFE3B4186F6B6457E0 PUSH1 0x0 DUP1 LOG3 JUMP JUMPDEST PUSH1 0x40 MLOAD PUSH4 0x1E4FBDF7 PUSH1 0xE0 SHL DUP2 MSTORE PUSH1 0x0 PUSH1 0x4 DUP3 ADD MSTORE PUSH1 0x24 SWAP1 REVERT JUMPDEST SWAP1 PUSH1 0x1 DUP3 DUP2 SHR SWAP3 AND DUP1 ISZERO PUSH2 0x1BE0 JUMPI JUMPDEST PUSH1 0x20 DUP4 LT EQ PUSH2 0x1BCA JUMPI JUMP JUMPDEST PUSH4 0x4E487B71 PUSH1 0xE0 SHL PUSH1 0x0 MSTORE PUSH1 0x22 PUSH1 0x4 MSTORE PUSH1 0x24 PUSH1 0x0 REVERT JUMPDEST SWAP2 PUSH1 0x7F AND SWAP2 PUSH2 0x1BBF JUMP JUMPDEST PUSH1 0x80 DUP2 ADD SWAP1 DUP2 LT PUSH1 0x1 PUSH1 0x1 PUSH1 0x40 SHL SUB DUP3 GT OR PUSH2 0x110E JUMPI PUSH1 0x40 MSTORE JUMP JUMPDEST SWAP1 PUSH1 0x1F DUP1 NOT SWAP2 ADD AND DUP2 ADD SWAP1 DUP2 LT PUSH1 0x1 PUSH1 0x1 PUSH1 0x40 SHL SUB DUP3 GT OR PUSH2 0x110E JUMPI PUSH1 0x40 MSTORE JUMP JUMPDEST SWAP2 SWAP1 PUSH1 0x1 PUSH1 0x1 PUSH1 0xA0 SHL SUB DUP1 DUP5 AND ISZERO PUSH2 0x1C63 JUMPI DUP2 AND ISZERO PUSH2 0x1C4A JUMPI PUSH2 0x1C48 SWAP3 PUSH2 0x2355 JUMP JUMPDEST JUMP JUMPDEST PUSH1 0x40 MLOAD PUSH4 0xEC442F05 PUSH1 0xE0 SHL DUP2 MSTORE PUSH1 0x0 PUSH1 0x4 DUP3 ADD MSTORE PUSH1 0x24 SWAP1 REVERT JUMPDEST PUSH1 0x40 MLOAD PUSH4 0x4B637E8F PUSH1 0xE1 SHL DUP2 MSTORE PUSH1 0x0 PUSH1 0x4 DUP3 ADD MSTORE PUSH1 0x24 SWAP1 REVERT JUMPDEST SWAP2 PUSH1 0x1 PUSH1 0x1 PUSH1 0xA0 SHL SUB DUP1 DUP5 AND SWAP3 DUP4 ISZERO PUSH2 0x188D JUMPI AND SWAP3 DUP4 ISZERO PUSH2 0x1874 JUMPI PUSH32 0x8C5BE1E5EBEC7D5BD14F71427D1E84F3DD0314C0F7B2291E5B200AC8C7C3B925 SWAP2 PUSH2 0x1CC4 PUSH1 0x20 SWAP3 PUSH2 0x1A5B JUMP JUMPDEST DUP6 PUSH1 0x0 MSTORE DUP3 MSTORE DUP1 PUSH1 0x40 PUSH1 0x0 KECCAK256 SSTORE PUSH1 0x40 MLOAD SWAP1 DUP2 MSTORE LOG3 JUMP JUMPDEST PUSH1 0x1 PUSH1 0x1 PUSH1 0x40 SHL SUB DUP2 GT PUSH2 0x110E JUMPI PUSH1 0x1F ADD PUSH1 0x1F NOT AND PUSH1 0x20 ADD SWAP1 JUMP JUMPDEST SWAP3 SWAP2 SWAP3 PUSH2 0x1D01 DUP3 PUSH2 0x1CDA JUMP JUMPDEST SWAP2 PUSH2 0x1D0F PUSH1 0x40 MLOAD SWAP4 DUP5 PUSH2 0x1C05 JUMP JUMPDEST DUP3 SWAP5 DUP2 DUP5 MSTORE DUP2 DUP4 ADD GT PUSH2 0x237 JUMPI DUP3 DUP2 PUSH1 0x20 SWAP4 DUP5 PUSH1 0x0 SWAP7 ADD CALLDATACOPY ADD ADD MSTORE JUMP JUMPDEST DUP2 ISZERO PUSH2 0x1D36 JUMPI DIV SWAP1 JUMP JUMPDEST PUSH4 0x4E487B71 PUSH1 0xE0 SHL PUSH1 0x0 MSTORE PUSH1 0x12 PUSH1 0x4 MSTORE PUSH1 0x24 PUSH1 0x0 REVERT JUMPDEST PUSH1 0xFF PUSH1 0x0 DUP1 MLOAD PUSH1 0x20 PUSH2 0x30F3 DUP4 CODECOPY DUP2 MLOAD SWAP2 MSTORE SLOAD PUSH1 0x40 SHR AND ISZERO PUSH2 0x1D69 JUMPI JUMP JUMPDEST PUSH1 0x40 MLOAD PUSH4 0x1AFCD79F PUSH1 0xE3 SHL DUP2 MSTORE PUSH1 0x4 SWAP1 REVERT JUMPDEST RETURNDATASIZE ISZERO PUSH2 0x1DA6 JUMPI RETURNDATASIZE SWAP1 PUSH2 0x1D8C DUP3 PUSH2 0x1CDA JUMP JUMPDEST SWAP2 PUSH2 0x1D9A PUSH1 0x40 MLOAD SWAP4 DUP5 PUSH2 0x1C05 JUMP JUMPDEST DUP3 MSTORE RETURNDATASIZE PUSH1 0x0 PUSH1 0x20 DUP5 ADD RETURNDATACOPY JUMP JUMPDEST PUSH1 0x60 SWAP1 JUMP JUMPDEST SWAP1 DUP2 PUSH1 0x20 SWAP2 SUB SLT PUSH2 0x237 JUMPI MLOAD PUSH1 0x1 PUSH1 0x1 PUSH1 0xA0 SHL SUB DUP2 AND DUP2 SUB PUSH2 0x237 JUMPI SWAP1 JUMP JUMPDEST SWAP2 SWAP1 DUP3 ADD DUP1 SWAP3 GT PUSH2 0x1DD7 JUMPI JUMP JUMPDEST PUSH4 0x4E487B71 PUSH1 0xE0 SHL PUSH1 0x0 MSTORE PUSH1 0x11 PUSH1 0x4 MSTORE PUSH1 0x24 PUSH1 0x0 REVERT JUMPDEST DUP2 DUP2 MUL SWAP3 SWAP2 DUP2 ISZERO SWAP2 DUP5 DIV EQ OR ISZERO PUSH2 0x1DD7 JUMPI JUMP JUMPDEST SWAP2 SWAP1 DUP3 SUB SWAP2 DUP3 GT PUSH2 0x1DD7 JUMPI JUMP JUMPDEST SWAP1 PUSH1 0x0 SWAP2 DUP3 DUP1 MSTORE PUSH1 0x20 PUSH1 0xF DUP2 MSTORE PUSH1 0xFF PUSH1 0x40 SWAP1 DUP1 DUP3 DUP8 KECCAK256 SLOAD AND ISZERO DUP1 PUSH2 0x233C JUMPI JUMPDEST ISZERO PUSH2 0x230A JUMPI PUSH1 0x9 SLOAD DUP1 ISZERO ISZERO DUP1 PUSH2 0x22DE JUMPI JUMPDEST PUSH2 0x2299 JUMPI JUMPDEST POP PUSH1 0x2 SLOAD PUSH1 0x1 PUSH1 0x1 PUSH1 0xA0 SHL SUB DUP1 DUP3 AND DUP1 ISZERO SWAP4 PUSH1 0xA0 SWAP4 SWAP1 SWAP4 SHR DUP4 AND SWAP3 SWAP2 DUP5 SWAP1 DUP2 PUSH2 0x2287 JUMPI JUMPDEST DUP1 DUP10 AND SWAP3 DUP4 EQ SWAP5 DUP1 PUSH2 0x227C JUMPI JUMPDEST DUP1 PUSH2 0x2275 JUMPI JUMPDEST DUP1 PUSH2 0x2261 JUMPI JUMPDEST PUSH2 0x21FD JUMPI JUMPDEST DUP11 DUP1 MSTORE PUSH1 0x11 DUP9 MSTORE DUP4 DUP8 DUP13 KECCAK256 SLOAD AND ISZERO DUP1 PUSH2 0x21ED JUMPI JUMPDEST PUSH2 0x2100 JUMPI JUMPDEST PUSH1 0x8 SLOAD SWAP2 DUP5 DUP4 AND ISZERO SWAP2 DUP3 PUSH2 0x20F4 JUMPI JUMPDEST DUP3 PUSH2 0x20EC JUMPI JUMPDEST DUP3 PUSH2 0x20DE JUMPI JUMPDEST POP DUP2 PUSH2 0x20D5 JUMPI JUMPDEST POP DUP1 PUSH2 0x20CA JUMPI JUMPDEST DUP1 PUSH2 0x20A7 JUMPI JUMPDEST PUSH2 0x2086 JUMPI JUMPDEST POP DUP2 PUSH1 0x8 SLOAD AND ISZERO SWAP3 DUP4 PUSH2 0x206A JUMPI JUMPDEST POP DUP3 PUSH2 0x2062 JUMPI JUMPDEST DUP3 PUSH2 0x2058 JUMPI JUMPDEST DUP3 PUSH2 0x2043 JUMPI JUMPDEST DUP3 PUSH2 0x202E JUMPI JUMPDEST POP POP PUSH2 0x1F0C JUMPI JUMPDEST POP POP POP PUSH2 0x1C48 SWAP3 POP PUSH2 0x29BB JUMP JUMPDEST ISZERO PUSH2 0x2026 JUMPI PUSH1 0x4 SWAP5 JUMPDEST DUP2 MLOAD SWAP6 PUSH2 0x1F21 DUP8 PUSH2 0x1BEA JUMP JUMPDEST SLOAD SWAP6 PUSH2 0xFFFF SWAP1 DUP2 DUP9 AND DUP2 MSTORE DUP2 DUP9 PUSH1 0x10 SHR AND DUP6 DUP3 ADD MSTORE PUSH1 0x60 DUP3 DUP6 DUP4 ADD SWAP10 DUP2 DUP2 DUP10 SHR AND DUP12 MSTORE PUSH1 0x30 SHR AND SWAP2 ADD SWAP1 DUP1 DUP3 MSTORE DUP1 PUSH2 0x1F5C JUMPI JUMPDEST POP POP POP PUSH2 0x1EFF JUMP JUMPDEST PUSH2 0x1F69 PUSH2 0x2710 SWAP2 DUP10 PUSH2 0x1DED JUMP JUMPDEST DIV SWAP2 DUP3 ISZERO PUSH2 0x1F54 JUMPI PUSH2 0x1FA4 SWAP2 DUP2 PUSH2 0x1F94 PUSH2 0x1F9D SWAP4 PUSH2 0x1F8B DUP8 PUSH2 0x1C48 SWAP15 SWAP14 PUSH2 0x1E00 JUMP JUMPDEST SWAP12 MLOAD AND DUP7 PUSH2 0x1DED JUMP JUMPDEST SWAP2 MLOAD AND SWAP1 PUSH2 0x1D2C JUMP JUMPDEST DUP1 SWAP3 PUSH2 0x1E00 JUMP JUMPDEST SWAP4 DUP2 PUSH2 0x1FCB JUMPI JUMPDEST POP POP POP POP DUP1 PUSH2 0x1FBB JUMPI JUMPDEST POP PUSH2 0x29BB JUMP JUMPDEST PUSH2 0x1FC5 SWAP1 ADDRESS PUSH2 0x29BB JUMP JUMPDEST CODESIZE PUSH2 0x1FB5 JUMP JUMPDEST PUSH1 0x0 DUP1 MLOAD PUSH1 0x20 PUSH2 0x30B3 DUP4 CODECOPY DUP2 MLOAD SWAP2 MSTORE SWAP2 PUSH1 0x0 DUP1 MLOAD PUSH1 0x20 PUSH2 0x3093 DUP4 CODECOPY DUP2 MLOAD SWAP2 MSTORE PUSH2 0x1FF5 DUP3 DUP3 SLOAD PUSH2 0x1DCA JUMP JUMPDEST SWAP1 SSTORE PUSH2 0xDEAD SWAP5 DUP6 DUP6 MSTORE PUSH1 0x0 DUP1 MLOAD PUSH1 0x20 PUSH2 0x3033 DUP4 CODECOPY DUP2 MLOAD SWAP2 MSTORE DUP4 MSTORE DUP1 DUP6 KECCAK256 DUP3 DUP2 SLOAD ADD SWAP1 SSTORE MLOAD SWAP1 DUP2 MSTORE LOG3 CODESIZE DUP1 DUP1 DUP1 PUSH2 0x1FAB JUMP JUMPDEST PUSH1 0x5 SWAP5 PUSH2 0x1F15 JUMP JUMPDEST DUP9 MSTORE PUSH1 0x10 DUP6 MSTORE DUP4 DUP9 KECCAK256 SLOAD AND ISZERO SWAP1 POP CODESIZE DUP1 PUSH2 0x1EF8 JUMP JUMPDEST DUP9 DUP1 MSTORE PUSH1 0x10 DUP7 MSTORE DUP5 DUP10 KECCAK256 SLOAD DUP3 AND ISZERO SWAP3 POP PUSH2 0x1EF2 JUMP JUMPDEST DUP1 ISZERO ISZERO SWAP3 POP PUSH2 0x1EEC JUMP JUMPDEST DUP9 SWAP3 POP PUSH2 0x1EE6 JUMP JUMPDEST SWAP1 SWAP3 POP DUP4 SWAP1 DUP5 ISZERO PUSH2 0x207E JUMPI JUMPDEST POP SWAP2 CODESIZE PUSH2 0x1EDF JUMP JUMPDEST SWAP1 POP CODESIZE PUSH2 0x2076 JUMP JUMPDEST PUSH1 0xFF NOT SWAP1 DUP2 AND PUSH1 0x1 OR PUSH1 0x8 SSTORE PUSH2 0x209A PUSH2 0x2C02 JUMP JUMPDEST PUSH1 0x8 SLOAD AND PUSH1 0x8 SSTORE CODESIZE PUSH2 0x1ED1 JUMP JUMPDEST POP ADDRESS DUP11 MSTORE PUSH1 0x0 DUP1 MLOAD PUSH1 0x20 PUSH2 0x3033 DUP4 CODECOPY DUP2 MLOAD SWAP2 MSTORE DUP8 MSTORE DUP6 DUP11 KECCAK256 SLOAD PUSH1 0x7 SLOAD GT ISZERO PUSH2 0x1ECC JUMP JUMPDEST POP PUSH1 0x7 SLOAD ISZERO ISZERO PUSH2 0x1EC6 JUMP JUMPDEST SWAP1 POP ISZERO CODESIZE PUSH2 0x1EBF JUMP JUMPDEST PUSH1 0x1 SLOAD AND ISZERO ISZERO SWAP2 POP CODESIZE PUSH2 0x1EB8 JUMP JUMPDEST DUP7 SWAP3 POP PUSH2 0x1EB2 JUMP JUMPDEST PUSH1 0x6 SLOAD DUP7 AND SWAP3 POP PUSH2 0x1EAC JUMP JUMPDEST PUSH1 0xC SLOAD DUP1 ISZERO ISZERO DUP1 PUSH2 0x21DF JUMPI JUMPDEST PUSH2 0x219D JUMPI JUMPDEST POP PUSH1 0xD SLOAD DUP12 DUP12 DUP10 DUP4 ISZERO ISZERO DUP1 PUSH2 0x2196 JUMPI JUMPDEST PUSH2 0x212F JUMPI JUMPDEST POP POP POP POP PUSH2 0x1E9D JUMP JUMPDEST DUP3 DUP8 PUSH2 0x214E SWAP5 MSTORE PUSH1 0x0 DUP1 MLOAD PUSH1 0x20 PUSH2 0x3033 DUP4 CODECOPY DUP2 MLOAD SWAP2 MSTORE DUP14 MSTORE KECCAK256 SLOAD PUSH2 0x1DCA JUMP JUMPDEST GT PUSH2 0x215C JUMPI CODESIZE DUP12 DUP12 DUP10 PUSH2 0x2126 JUMP JUMPDEST DUP7 MLOAD PUSH3 0x461BCD PUSH1 0xE5 SHL DUP2 MSTORE PUSH1 0x4 DUP2 ADD DUP10 SWAP1 MSTORE PUSH1 0x13 PUSH1 0x24 DUP3 ADD MSTORE PUSH19 0x13585E081DD85B1B195D08195E18D959591959 PUSH1 0x6A SHL PUSH1 0x44 DUP3 ADD MSTORE PUSH1 0x64 SWAP1 REVERT JUMPDEST POP DUP10 PUSH2 0x2121 JUMP JUMPDEST DUP11 GT PUSH2 0x21A9 JUMPI CODESIZE PUSH2 0x2111 JUMP JUMPDEST DUP7 MLOAD PUSH3 0x461BCD PUSH1 0xE5 SHL DUP2 MSTORE PUSH1 0x4 DUP2 ADD DUP10 SWAP1 MSTORE PUSH1 0xF PUSH1 0x24 DUP3 ADD MSTORE PUSH15 0x13585E081D1E08195E18D959591959 PUSH1 0x8A SHL PUSH1 0x44 DUP3 ADD MSTORE PUSH1 0x64 SWAP1 REVERT JUMPDEST POP DUP7 DUP8 PUSH2 0x210C JUMPI POP DUP6 PUSH2 0x210C JUMP JUMPDEST POP DUP3 DUP12 MSTORE DUP4 DUP8 DUP13 KECCAK256 SLOAD AND ISZERO PUSH2 0x1E98 JUMP JUMPDEST PUSH2 0x220C PUSH1 0x3 SLOAD PUSH1 0xA SLOAD SWAP1 PUSH2 0x1DCA JUMP JUMPDEST NUMBER LT ISZERO PUSH2 0x1E84 JUMPI DUP4 PUSH1 0xB SLOAD AND ISZERO PUSH2 0x1E84 JUMPI DUP7 MLOAD PUSH3 0x461BCD PUSH1 0xE5 SHL DUP2 MSTORE PUSH1 0x4 DUP2 ADD DUP10 SWAP1 MSTORE PUSH1 0x1A PUSH1 0x24 DUP3 ADD MSTORE PUSH32 0x416E7469426F743A206561726C792062757920626C6F636B6564000000000000 PUSH1 0x44 DUP3 ADD MSTORE PUSH1 0x64 SWAP1 REVERT JUMPDEST POP DUP3 DUP12 MSTORE PUSH1 0xE DUP9 MSTORE DUP4 DUP8 DUP13 KECCAK256 SLOAD AND ISZERO PUSH2 0x1E7F JUMP JUMPDEST POP DUP6 PUSH2 0x1E79 JUMP JUMPDEST POP PUSH1 0xA SLOAD ISZERO ISZERO PUSH2 0x1E73 JUMP JUMPDEST DUP1 SWAP6 POP PUSH1 0x1 SLOAD AND DUP6 DUP10 AND EQ ISZERO SWAP5 PUSH2 0x1E66 JUMP JUMPDEST GASPRICE GT PUSH2 0x22A5 JUMPI CODESIZE PUSH2 0x1E42 JUMP JUMPDEST DUP2 MLOAD PUSH3 0x461BCD PUSH1 0xE5 SHL DUP2 MSTORE PUSH1 0x4 DUP2 ADD DUP5 SWAP1 MSTORE PUSH1 0x12 PUSH1 0x24 DUP3 ADD MSTORE PUSH18 0x8EC2E640E0E4D2C6CA40E8DEDE40D0D2CED PUSH1 0x73 SHL PUSH1 0x44 DUP3 ADD MSTORE PUSH1 0x64 SWAP1 REVERT JUMPDEST POP PUSH1 0x2 SLOAD PUSH1 0x1 PUSH1 0x1 PUSH1 0xA0 SHL SUB SWAP1 DUP2 AND DUP1 ISZERO SWAP2 DUP3 ISZERO PUSH2 0x22FE JUMPI JUMPDEST POP POP PUSH2 0x1E3D JUMP JUMPDEST DUP8 AND EQ SWAP1 POP CODESIZE DUP1 PUSH2 0x22F7 JUMP JUMPDEST DUP2 MLOAD PUSH3 0x461BCD PUSH1 0xE5 SHL DUP2 MSTORE PUSH1 0x4 DUP2 ADD DUP5 SWAP1 MSTORE PUSH1 0xB PUSH1 0x24 DUP3 ADD MSTORE PUSH11 0x109B1858DADB1A5CDD1959 PUSH1 0xAA SHL PUSH1 0x44 DUP3 ADD MSTORE PUSH1 0x64 SWAP1 REVERT JUMPDEST POP PUSH1 0x1 PUSH1 0x1 PUSH1 0xA0 SHL SUB DUP5 AND DUP7 MSTORE DUP2 DUP7 KECCAK256 SLOAD DUP2 AND ISZERO PUSH2 0x1E2C JUMP JUMPDEST SWAP3 SWAP2 SWAP1 PUSH1 0x1 DUP1 PUSH1 0xA0 SHL SUB SWAP4 DUP5 DUP2 AND PUSH1 0x0 SWAP1 DUP1 DUP3 MSTORE PUSH1 0x20 SWAP2 PUSH1 0xF DUP4 MSTORE PUSH1 0xFF SWAP8 PUSH1 0x40 SWAP9 DUP1 DUP11 DUP5 KECCAK256 SLOAD AND ISZERO DUP1 PUSH2 0x29A9 JUMPI JUMPDEST ISZERO PUSH2 0x2977 JUMPI DUP10 SWAP1 PUSH1 0x9 SLOAD DUP1 ISZERO ISZERO DUP1 PUSH2 0x2954 JUMPI JUMPDEST PUSH2 0x290A JUMPI JUMPDEST POP PUSH1 0x2 SLOAD DUP4 DUP3 DUP3 PUSH1 0xA0 SHR AND SWAP2 DUP3 ISZERO PUSH2 0x287E JUMPI JUMPDEST AND DUP1 DUP8 EQ SWAP5 DUP6 PUSH2 0x286C JUMPI JUMPDEST DUP1 DUP12 AND SWAP3 DUP5 DUP4 DUP6 EQ SWAP7 DUP3 PUSH2 0x2860 JUMPI JUMPDEST DUP3 PUSH2 0x2858 JUMPI JUMPDEST DUP3 PUSH2 0x2843 JUMPI JUMPDEST POP POP PUSH2 0x27DF JUMPI JUMPDEST DUP8 DUP8 MSTORE PUSH1 0x11 DUP10 MSTORE DUP14 DUP8 KECCAK256 SLOAD DUP5 AND ISZERO DUP5 DUP16 DUP3 PUSH2 0x27CE JUMPI JUMPDEST POP POP PUSH2 0x26E3 JUMPI JUMPDEST PUSH1 0x8 SLOAD SWAP2 DUP5 DUP4 AND ISZERO SWAP2 DUP3 PUSH2 0x26D7 JUMPI JUMPDEST DUP3 PUSH2 0x26CF JUMPI JUMPDEST DUP3 PUSH2 0x26C1 JUMPI JUMPDEST POP DUP2 PUSH2 0x26B7 JUMPI JUMPDEST POP DUP1 PUSH2 0x26AC JUMPI JUMPDEST DUP1 PUSH2 0x2689 JUMPI JUMPDEST PUSH2 0x2668 JUMPI JUMPDEST POP DUP2 PUSH1 0x8 SLOAD AND ISZERO SWAP3 DUP4 PUSH2 0x264C JUMPI JUMPDEST POP DUP3 PUSH2 0x2642 JUMPI JUMPDEST DUP3 PUSH2 0x2638 JUMPI JUMPDEST DUP3 PUSH2 0x2623 JUMPI JUMPDEST DUP3 PUSH2 0x260E JUMPI JUMPDEST POP POP PUSH2 0x2469 JUMPI JUMPDEST POP POP POP POP PUSH2 0x1C48 SWAP4 SWAP5 POP PUSH2 0x2A33 JUMP JUMPDEST ISZERO PUSH2 0x2606 JUMPI PUSH1 0x4 SWAP2 JUMPDEST DUP9 MLOAD SWAP3 PUSH2 0x247E DUP5 PUSH2 0x1BEA JUMP JUMPDEST SLOAD SWAP4 PUSH2 0xFFFF SWAP4 DUP5 DUP7 AND DUP2 MSTORE DUP5 DUP7 PUSH1 0x10 SHR AND DUP3 DUP3 ADD MSTORE PUSH1 0x60 DUP6 DUP13 DUP4 ADD SWAP8 DUP2 DUP2 DUP7 SHR AND DUP10 MSTORE PUSH1 0x30 SHR AND SWAP2 ADD SWAP1 DUP1 DUP3 MSTORE DUP1 PUSH2 0x24B9 JUMPI JUMPDEST POP POP POP PUSH2 0x245A JUMP JUMPDEST PUSH2 0x24C6 PUSH2 0x2710 SWAP2 DUP12 PUSH2 0x1DED JUMP JUMPDEST DIV SWAP5 DUP6 ISZERO PUSH2 0x24B1 JUMPI SWAP1 DUP2 PUSH2 0x1F94 PUSH2 0x24F2 SWAP4 PUSH2 0x24E9 DUP10 PUSH2 0x24F9 SWAP8 SWAP9 SWAP10 SWAP11 SWAP12 SWAP15 PUSH2 0x1E00 JUMP JUMPDEST SWAP13 MLOAD AND DUP10 PUSH2 0x1DED JUMP JUMPDEST DUP1 SWAP6 PUSH2 0x1E00 JUMP JUMPDEST SWAP4 DUP1 PUSH2 0x2527 JUMPI JUMPDEST POP POP POP POP PUSH2 0x1C48 SWAP5 SWAP6 POP DUP1 PUSH2 0x2516 JUMPI JUMPDEST POP PUSH2 0x2A33 JUMP JUMPDEST PUSH2 0x2521 SWAP1 ADDRESS DUP4 PUSH2 0x2A33 JUMP JUMPDEST CODESIZE PUSH2 0x2510 JUMP JUMPDEST DUP3 PUSH2 0x258E JUMPI SWAP1 PUSH1 0x0 DUP1 MLOAD PUSH1 0x20 PUSH2 0x30B3 DUP4 CODECOPY DUP2 MLOAD SWAP2 MSTORE SWAP2 PUSH2 0x1C48 SWAP10 SWAP11 PUSH1 0x0 DUP1 MLOAD PUSH1 0x20 PUSH2 0x3093 DUP4 CODECOPY DUP2 MLOAD SWAP2 MSTORE PUSH2 0x255C DUP4 DUP3 SLOAD PUSH2 0x1DCA JUMP JUMPDEST SWAP1 SSTORE JUMPDEST DUP1 PUSH2 0xDEAD SWAP7 DUP8 DUP2 MSTORE PUSH1 0x0 DUP1 MLOAD PUSH1 0x20 PUSH2 0x3033 DUP4 CODECOPY DUP2 MLOAD SWAP2 MSTORE DUP6 MSTORE KECCAK256 DUP3 DUP2 SLOAD ADD SWAP1 SSTORE MLOAD SWAP1 DUP2 MSTORE LOG3 DUP6 SWAP5 CODESIZE DUP1 DUP1 PUSH2 0x2500 JUMP JUMPDEST DUP3 DUP5 MSTORE PUSH1 0x0 DUP1 MLOAD PUSH1 0x20 PUSH2 0x3033 DUP4 CODECOPY DUP2 MLOAD SWAP2 MSTORE SWAP10 DUP11 DUP4 MSTORE DUP1 DUP6 KECCAK256 SLOAD SWAP11 DUP3 DUP13 LT PUSH2 0x25D8 JUMPI SWAP1 DUP3 PUSH2 0x1C48 SWAP12 SWAP13 PUSH1 0x0 DUP1 MLOAD PUSH1 0x20 PUSH2 0x30B3 DUP4 CODECOPY DUP2 MLOAD SWAP2 MSTORE SWAP6 SWAP5 SWAP4 DUP8 DUP10 MSTORE DUP6 MSTORE SUB DUP2 DUP8 KECCAK256 SSTORE PUSH2 0x255F JUMP JUMPDEST DUP2 MLOAD PUSH4 0x391434E3 PUSH1 0xE2 SHL DUP2 MSTORE PUSH1 0x1 PUSH1 0x1 PUSH1 0xA0 SHL SUB DUP10 AND PUSH1 0x4 DUP3 ADD MSTORE PUSH1 0x24 DUP2 ADD DUP14 SWAP1 MSTORE PUSH1 0x44 DUP2 ADD DUP5 SWAP1 MSTORE PUSH1 0x64 SWAP1 REVERT JUMPDEST PUSH1 0x5 SWAP2 PUSH2 0x2472 JUMP JUMPDEST DUP5 MSTORE PUSH1 0x10 DUP7 MSTORE DUP11 DUP5 KECCAK256 SLOAD AND ISZERO SWAP1 POP CODESIZE DUP1 PUSH2 0x2453 JUMP JUMPDEST DUP6 DUP6 MSTORE PUSH1 0x10 DUP8 MSTORE DUP12 DUP6 KECCAK256 SLOAD DUP3 AND ISZERO SWAP3 POP PUSH2 0x244D JUMP JUMPDEST DUP1 ISZERO ISZERO SWAP3 POP PUSH2 0x2447 JUMP JUMPDEST DUP6 ISZERO ISZERO SWAP3 POP PUSH2 0x2441 JUMP JUMPDEST SWAP1 SWAP3 POP DUP4 SWAP1 DUP5 ISZERO PUSH2 0x2660 JUMPI JUMPDEST POP SWAP2 CODESIZE PUSH2 0x243A JUMP JUMPDEST SWAP1 POP CODESIZE PUSH2 0x2658 JUMP JUMPDEST PUSH1 0xFF NOT SWAP1 DUP2 AND PUSH1 0x1 OR PUSH1 0x8 SSTORE PUSH2 0x267C PUSH2 0x2C02 JUMP JUMPDEST PUSH1 0x8 SLOAD AND PUSH1 0x8 SSTORE CODESIZE PUSH2 0x242C JUMP JUMPDEST POP ADDRESS DUP7 MSTORE PUSH1 0x0 DUP1 MLOAD PUSH1 0x20 PUSH2 0x3033 DUP4 CODECOPY DUP2 MLOAD SWAP2 MSTORE DUP9 MSTORE DUP13 DUP7 KECCAK256 SLOAD PUSH1 0x7 SLOAD GT ISZERO PUSH2 0x2427 JUMP JUMPDEST POP PUSH1 0x7 SLOAD ISZERO ISZERO PUSH2 0x2421 JUMP JUMPDEST SWAP1 POP ISZERO ISZERO CODESIZE PUSH2 0x241A JUMP JUMPDEST PUSH1 0x1 SLOAD AND ISZERO ISZERO SWAP2 POP CODESIZE PUSH2 0x2413 JUMP JUMPDEST DUP7 SWAP3 POP PUSH2 0x240D JUMP JUMPDEST PUSH1 0x6 SLOAD DUP7 AND SWAP3 POP PUSH2 0x2407 JUMP JUMPDEST PUSH1 0xC SLOAD DUP1 ISZERO ISZERO DUP1 PUSH2 0x27C0 JUMPI JUMPDEST PUSH2 0x277E JUMPI JUMPDEST POP PUSH1 0xD SLOAD DUP15 DUP14 DUP3 ISZERO ISZERO DUP1 PUSH2 0x2777 JUMPI JUMPDEST PUSH2 0x2710 JUMPI JUMPDEST POP POP POP PUSH2 0x23F8 JUMP JUMPDEST PUSH2 0x2730 SWAP2 DUP7 DUP12 MSTORE PUSH1 0x0 DUP1 MLOAD PUSH1 0x20 PUSH2 0x3033 DUP4 CODECOPY DUP2 MLOAD SWAP2 MSTORE DUP14 MSTORE DUP11 KECCAK256 SLOAD PUSH2 0x1DCA JUMP JUMPDEST GT PUSH2 0x273D JUMPI CODESIZE DUP15 DUP14 PUSH2 0x2708 JUMP JUMPDEST DUP14 MLOAD PUSH3 0x461BCD PUSH1 0xE5 SHL DUP2 MSTORE PUSH1 0x4 DUP2 ADD DUP11 SWAP1 MSTORE PUSH1 0x13 PUSH1 0x24 DUP3 ADD MSTORE PUSH19 0x13585E081DD85B1B195D08195E18D959591959 PUSH1 0x6A SHL PUSH1 0x44 DUP3 ADD MSTORE PUSH1 0x64 SWAP1 REVERT JUMPDEST POP DUP9 PUSH2 0x2703 JUMP JUMPDEST DUP13 GT PUSH2 0x278A JUMPI CODESIZE PUSH2 0x26F4 JUMP JUMPDEST DUP14 MLOAD PUSH3 0x461BCD PUSH1 0xE5 SHL DUP2 MSTORE PUSH1 0x4 DUP2 ADD DUP11 SWAP1 MSTORE PUSH1 0xF PUSH1 0x24 DUP3 ADD MSTORE PUSH15 0x13585E081D1E08195E18D959591959 PUSH1 0x8A SHL PUSH1 0x44 DUP3 ADD MSTORE PUSH1 0x64 SWAP1 REVERT JUMPDEST POP DUP7 DUP8 PUSH2 0x26EF JUMPI POP DUP6 PUSH2 0x26EF JUMP JUMPDEST DUP6 DUP11 MSTORE DUP10 KECCAK256 SLOAD AND ISZERO SWAP1 POP DUP5 DUP16 PUSH2 0x23F1 JUMP JUMPDEST PUSH2 0x27EE PUSH1 0x3 SLOAD PUSH1 0xA SLOAD SWAP1 PUSH2 0x1DCA JUMP JUMPDEST NUMBER LT ISZERO PUSH2 0x23DB JUMPI DUP4 PUSH1 0xB SLOAD AND ISZERO PUSH2 0x23DB JUMPI DUP14 MLOAD PUSH3 0x461BCD PUSH1 0xE5 SHL DUP2 MSTORE PUSH1 0x4 DUP2 ADD DUP11 SWAP1 MSTORE PUSH1 0x1A PUSH1 0x24 DUP3 ADD MSTORE PUSH32 0x416E7469426F743A206561726C792062757920626C6F636B6564000000000000 PUSH1 0x44 DUP3 ADD MSTORE PUSH1 0x64 SWAP1 REVERT JUMPDEST DUP6 DUP11 MSTORE PUSH1 0xE DUP13 MSTORE DUP10 KECCAK256 SLOAD AND ISZERO SWAP1 POP DUP5 DUP16 PUSH2 0x23D4 JUMP JUMPDEST DUP9 SWAP3 POP PUSH2 0x23CE JUMP JUMPDEST PUSH1 0xA SLOAD ISZERO ISZERO SWAP3 POP PUSH2 0x23C8 JUMP JUMPDEST DUP1 SWAP6 POP PUSH1 0x1 SLOAD AND DUP6 DUP12 AND EQ ISZERO SWAP5 PUSH2 0x23B9 JUMP JUMPDEST DUP8 ISZERO ISZERO DUP1 PUSH2 0x28FF JUMPI JUMPDEST ISZERO PUSH2 0x23AE JUMPI SWAP2 SWAP3 SWAP4 POP POP DUP6 DUP6 MSTORE PUSH1 0xE DUP8 MSTORE DUP3 DUP13 DUP7 KECCAK256 SLOAD AND DUP1 ISZERO PUSH2 0x28EE JUMPI JUMPDEST ISZERO PUSH2 0x28B4 JUMPI SWAP1 DUP4 DUP13 SWAP4 SWAP3 PUSH2 0x23AE JUMP JUMPDEST DUP12 MLOAD PUSH3 0x461BCD PUSH1 0xE5 SHL DUP2 MSTORE PUSH1 0x4 DUP2 ADD DUP9 SWAP1 MSTORE PUSH1 0x13 PUSH1 0x24 DUP3 ADD MSTORE PUSH19 0x151C98591A5B99C81B9BDD08195B98589B1959 PUSH1 0x6A SHL PUSH1 0x44 DUP3 ADD MSTORE PUSH1 0x64 SWAP1 REVERT JUMPDEST POP DUP4 DUP10 AND DUP6 MSTORE DUP3 DUP13 DUP7 KECCAK256 SLOAD AND PUSH2 0x28A5 JUMP JUMPDEST POP DUP2 DUP12 AND ISZERO ISZERO PUSH2 0x2887 JUMP JUMPDEST SWAP1 SWAP2 POP GASPRICE GT PUSH2 0x291B JUMPI DUP10 SWAP1 CODESIZE PUSH2 0x239B JUMP JUMPDEST DUP10 MLOAD PUSH3 0x461BCD PUSH1 0xE5 SHL DUP2 MSTORE PUSH1 0x4 DUP2 ADD DUP7 SWAP1 MSTORE PUSH1 0x12 PUSH1 0x24 DUP3 ADD MSTORE PUSH18 0x8EC2E640E0E4D2C6CA40E8DEDE40D0D2CED PUSH1 0x73 SHL PUSH1 0x44 DUP3 ADD MSTORE PUSH1 0x64 SWAP1 REVERT JUMPDEST POP DUP4 PUSH1 0x2 SLOAD AND DUP1 DUP8 EQ SWAP1 DUP2 ISZERO PUSH2 0x296B JUMPI JUMPDEST POP PUSH2 0x2396 JUMP JUMPDEST SWAP1 POP DUP5 DUP11 AND EQ CODESIZE PUSH2 0x2965 JUMP JUMPDEST DUP10 MLOAD PUSH3 0x461BCD PUSH1 0xE5 SHL DUP2 MSTORE PUSH1 0x4 DUP2 ADD DUP7 SWAP1 MSTORE PUSH1 0xB PUSH1 0x24 DUP3 ADD MSTORE PUSH11 0x109B1858DADB1A5CDD1959 PUSH1 0xAA SHL PUSH1 0x44 DUP3 ADD MSTORE PUSH1 0x64 SWAP1 REVERT JUMPDEST POP DUP2 DUP8 AND DUP4 MSTORE DUP1 DUP11 DUP5 KECCAK256 SLOAD AND ISZERO PUSH2 0x2383 JUMP JUMPDEST SWAP1 PUSH1 0x0 DUP1 MLOAD PUSH1 0x20 PUSH2 0x30B3 DUP4 CODECOPY DUP2 MLOAD SWAP2 MSTORE PUSH1 0x20 PUSH1 0x0 SWAP3 PUSH1 0x0 DUP1 MLOAD PUSH1 0x20 PUSH2 0x3093 DUP4 CODECOPY DUP2 MLOAD SWAP2 MSTORE SWAP5 PUSH2 0x29EB DUP3 DUP8 SLOAD PUSH2 0x1DCA JUMP JUMPDEST DUP7 SSTORE PUSH1 0x1 PUSH1 0x1 PUSH1 0xA0 SHL SUB AND SWAP5 DUP6 ISZERO DUP6 EQ PUSH2 0x2A0F JUMPI DUP2 DUP2 SLOAD SUB SWAP1 SSTORE JUMPDEST PUSH1 0x40 MLOAD SWAP1 DUP2 MSTORE LOG3 JUMP JUMPDEST POP DUP5 DUP5 MSTORE PUSH1 0x0 DUP1 MLOAD PUSH1 0x20 PUSH2 0x3033 DUP4 CODECOPY DUP2 MLOAD SWAP2 MSTORE DUP3 MSTORE PUSH1 0x40 DUP5 KECCAK256 DUP2 DUP2 SLOAD ADD SWAP1 SSTORE PUSH2 0x2A06 JUMP JUMPDEST PUSH1 0x1 PUSH1 0x1 PUSH1 0xA0 SHL SUB DUP1 DUP3 AND SWAP3 SWAP1 SWAP2 DUP4 PUSH2 0x2AC1 JUMPI POP PUSH1 0x0 DUP1 MLOAD PUSH1 0x20 PUSH2 0x30B3 DUP4 CODECOPY DUP2 MLOAD SWAP2 MSTORE SWAP2 PUSH1 0x20 SWAP2 PUSH1 0x0 DUP1 MLOAD PUSH1 0x20 PUSH2 0x3093 DUP4 CODECOPY DUP2 MLOAD SWAP2 MSTORE PUSH2 0x2A74 DUP8 DUP3 SLOAD PUSH2 0x1DCA JUMP JUMPDEST SWAP1 SSTORE JUMPDEST AND SWAP4 DUP5 PUSH2 0x2A9C JUMPI PUSH1 0x0 DUP1 MLOAD PUSH1 0x20 PUSH2 0x3093 DUP4 CODECOPY DUP2 MLOAD SWAP2 MSTORE DUP2 DUP2 SLOAD SUB SWAP1 SSTORE PUSH1 0x40 MLOAD SWAP1 DUP2 MSTORE LOG3 JUMP JUMPDEST DUP5 PUSH1 0x0 MSTORE PUSH1 0x0 DUP1 MLOAD PUSH1 0x20 PUSH2 0x3033 DUP4 CODECOPY DUP2 MLOAD SWAP2 MSTORE DUP3 MSTORE PUSH1 0x40 PUSH1 0x0 KECCAK256 DUP2 DUP2 SLOAD ADD SWAP1 SSTORE PUSH2 0x2A06 JUMP JUMPDEST DUP4 PUSH1 0x0 MSTORE PUSH1 0x0 DUP1 MLOAD PUSH1 0x20 PUSH2 0x3033 DUP4 CODECOPY DUP2 MLOAD SWAP2 MSTORE DUP1 PUSH1 0x20 MSTORE PUSH1 0x40 PUSH1 0x0 KECCAK256 SLOAD SWAP2 DUP7 DUP4 LT PUSH2 0x2B0F JUMPI POP SWAP2 DUP6 PUSH1 0x0 DUP1 MLOAD PUSH1 0x20 PUSH2 0x30B3 DUP4 CODECOPY DUP2 MLOAD SWAP2 MSTORE SWAP5 SWAP3 PUSH1 0x20 SWAP5 DUP8 PUSH1 0x0 MSTORE DUP6 MSTORE SUB PUSH1 0x40 PUSH1 0x0 KECCAK256 SSTORE PUSH2 0x2A77 JUMP JUMPDEST PUSH1 0x40 MLOAD PUSH4 0x391434E3 PUSH1 0xE2 SHL DUP2 MSTORE PUSH1 0x1 PUSH1 0x1 PUSH1 0xA0 SHL SUB SWAP2 SWAP1 SWAP2 AND PUSH1 0x4 DUP3 ADD MSTORE PUSH1 0x24 DUP2 ADD SWAP3 SWAP1 SWAP3 MSTORE POP PUSH1 0x44 DUP2 ADD DUP6 SWAP1 MSTORE PUSH1 0x64 SWAP1 REVERT JUMPDEST SWAP2 SWAP1 SWAP2 PUSH2 0xFFFF DUP1 DUP1 SWAP5 AND SWAP2 AND ADD SWAP2 DUP3 GT PUSH2 0x1DD7 JUMPI JUMP JUMPDEST SWAP2 PUSH1 0x0 PUSH1 0x60 PUSH1 0x40 MLOAD PUSH2 0x2B69 DUP2 PUSH2 0x1BEA JUMP JUMPDEST DUP3 DUP2 MSTORE DUP3 PUSH1 0x20 DUP3 ADD MSTORE DUP3 PUSH1 0x40 DUP3 ADD MSTORE ADD MSTORE PUSH2 0xFFFF SWAP1 DUP2 PUSH2 0x2B92 DUP3 PUSH2 0x2B8D DUP7 DUP9 PUSH2 0x2B42 JUMP JUMPDEST PUSH2 0x2B42 JUMP JUMPDEST AND SWAP3 PUSH2 0x7D0 DUP5 GT PUSH2 0x2BC4 JUMPI DUP3 SWAP1 DUP2 PUSH1 0x40 MLOAD SWAP7 PUSH2 0x2BAD DUP9 PUSH2 0x1BEA JUMP JUMPDEST AND DUP7 MSTORE AND PUSH1 0x20 DUP6 ADD MSTORE AND PUSH1 0x40 DUP4 ADD MSTORE PUSH1 0x60 DUP3 ADD MSTORE SWAP1 JUMP JUMPDEST PUSH1 0x40 MLOAD PUSH3 0x461BCD PUSH1 0xE5 SHL DUP2 MSTORE PUSH1 0x20 PUSH1 0x4 DUP3 ADD MSTORE PUSH1 0x16 PUSH1 0x24 DUP3 ADD MSTORE PUSH22 0x46656520746F6F206869676820286D61782032302529 PUSH1 0x50 SHL PUSH1 0x44 DUP3 ADD MSTORE PUSH1 0x64 SWAP1 REVERT JUMPDEST PUSH1 0x0 ADDRESS DUP2 MSTORE PUSH1 0x0 DUP1 MLOAD PUSH1 0x20 PUSH2 0x3033 DUP4 CODECOPY DUP2 MLOAD SWAP2 MSTORE PUSH1 0x20 MSTORE PUSH1 0x40 DUP2 KECCAK256 SLOAD DUP1 ISZERO PUSH2 0x2FEE JUMPI PUSH1 0x1 DUP1 SLOAD PUSH1 0x1 PUSH1 0x1 PUSH1 0xA0 SHL SUB AND SWAP2 DUP3 ISZERO PUSH2 0x2DC9 JUMPI PUSH1 0x2 SLOAD PUSH1 0x1 PUSH1 0x1 PUSH1 0xA0 SHL SUB AND ISZERO PUSH2 0x2DC9 JUMPI PUSH1 0x5 SLOAD PUSH2 0xFFFF DUP1 DUP3 PUSH1 0x30 SHR AND DUP1 ISZERO PUSH2 0x2FE5 JUMPI PUSH2 0x2C70 PUSH2 0x1F9D SWAP3 PUSH2 0x2C75 SWAP5 PUSH1 0x10 SHR AND DUP6 PUSH2 0x1DED JUMP JUMPDEST PUSH2 0x1D2C JUMP JUMPDEST PUSH2 0x2C8A PUSH2 0x2C84 DUP4 DUP6 SHR DUP5 PUSH2 0x1E00 JUMP JUMPDEST DUP3 PUSH2 0x1DCA JUMP JUMPDEST SWAP4 DUP5 ISZERO PUSH2 0x2F14 JUMPI DUP5 PUSH2 0x2C9C SWAP2 ADDRESS PUSH2 0x1C7C JUMP JUMPDEST SELFBALANCE PUSH1 0x40 MLOAD PUSH1 0x60 DUP2 ADD DUP2 DUP2 LT PUSH1 0x1 PUSH1 0x1 PUSH1 0x40 SHL SUB DUP3 GT OR PUSH2 0x2FD1 JUMPI PUSH1 0x40 MSTORE PUSH1 0x2 DUP2 MSTORE PUSH1 0x20 DUP2 ADD PUSH1 0x40 CALLDATASIZE DUP3 CALLDATACOPY DUP2 MLOAD ISZERO PUSH2 0x2FBD JUMPI ADDRESS DUP2 MSTORE DUP6 SLOAD PUSH1 0x40 MLOAD PUSH4 0x15AB88C9 PUSH1 0xE3 SHL DUP2 MSTORE PUSH1 0x1 PUSH1 0x1 PUSH1 0xA0 SHL SUB SWAP1 SWAP2 AND SWAP2 SWAP1 PUSH1 0x20 DUP2 PUSH1 0x4 DUP2 DUP7 GAS STATICCALL SWAP1 DUP2 ISZERO PUSH2 0x2FB2 JUMPI DUP11 SWAP2 PUSH2 0x2F93 JUMPI JUMPDEST POP DUP4 MLOAD DUP9 LT ISZERO PUSH2 0x2F7F JUMPI PUSH1 0x1 PUSH1 0x1 PUSH1 0xA0 SHL SUB AND PUSH1 0x40 DUP5 ADD MSTORE DUP2 EXTCODESIZE ISZERO PUSH2 0x2F7B JUMPI SWAP2 DUP9 SWAP2 PUSH1 0x40 MLOAD SWAP4 DUP5 SWAP3 PUSH4 0x791AC947 PUSH1 0xE0 SHL DUP5 MSTORE PUSH1 0xA4 DUP5 ADD SWAP1 DUP12 PUSH1 0x4 DUP7 ADD MSTORE DUP6 PUSH1 0x24 DUP7 ADD MSTORE PUSH1 0xA0 PUSH1 0x44 DUP7 ADD MSTORE MLOAD DUP1 SWAP2 MSTORE PUSH1 0xC4 DUP5 ADD SWAP2 SWAP1 DUP6 JUMPDEST DUP12 DUP3 DUP3 LT PUSH2 0x2F58 JUMPI POP POP POP POP DUP4 DUP4 DUP1 SWAP3 ADDRESS PUSH1 0x64 DUP4 ADD MSTORE TIMESTAMP PUSH1 0x84 DUP4 ADD MSTORE SUB SWAP3 GAS CALL DUP1 ISZERO PUSH2 0x2F4D JUMPI PUSH2 0x2F1C JUMPI JUMPDEST POP PUSH2 0x2D8F SWAP1 SELFBALANCE PUSH2 0x1E00 JUMP JUMPDEST SWAP4 DUP5 ISZERO PUSH2 0x2F14 JUMPI PUSH2 0x24F2 PUSH2 0x2DA8 SWAP2 PUSH2 0x2C70 DUP9 SWAP5 DUP9 PUSH2 0x1DED JUMP JUMPDEST SWAP4 DUP1 ISZERO ISZERO DUP1 PUSH2 0x2F01 JUMPI JUMPDEST PUSH2 0x2E9D JUMPI JUMPDEST POP POP DUP1 DUP3 SHR ISZERO ISZERO DUP1 PUSH2 0x2E94 JUMPI JUMPDEST PUSH2 0x2DCF JUMPI JUMPDEST POP POP POP POP JUMP JUMPDEST DUP2 SLOAD PUSH1 0x60 SWAP3 PUSH1 0xC4 SWAP2 PUSH2 0x2DEE SWAP1 DUP5 DUP4 SHR SWAP1 PUSH1 0x1 PUSH1 0x1 PUSH1 0xA0 SHL SUB AND ADDRESS PUSH2 0x1C7C JUMP JUMPDEST DUP1 SLOAD PUSH1 0x0 DUP1 MLOAD PUSH1 0x20 PUSH2 0x3073 DUP4 CODECOPY DUP2 MLOAD SWAP2 MSTORE SLOAD PUSH1 0x40 MLOAD PUSH4 0xF305D719 PUSH1 0xE0 SHL DUP2 MSTORE ADDRESS PUSH1 0x4 DUP3 ADD MSTORE SWAP5 SWAP1 SWAP3 SHR PUSH1 0x24 DUP6 ADD MSTORE PUSH1 0x44 DUP5 ADD DUP8 SWAP1 MSTORE PUSH1 0x64 DUP5 ADD DUP8 SWAP1 MSTORE PUSH1 0x1 PUSH1 0x1 PUSH1 0xA0 SHL SUB SWAP2 DUP3 AND PUSH1 0x84 DUP6 ADD MSTORE TIMESTAMP PUSH1 0xA4 DUP6 ADD MSTORE SWAP3 SWAP5 DUP6 SWAP4 DUP5 SWAP3 AND GAS CALL DUP1 ISZERO PUSH2 0x2E89 JUMPI PUSH2 0x2E5B JUMPI JUMPDEST DUP1 DUP1 PUSH2 0x2DC9 JUMP JUMPDEST PUSH1 0x60 SWAP1 DUP2 RETURNDATASIZE DUP2 GT PUSH2 0x2E82 JUMPI JUMPDEST PUSH2 0x2E71 DUP2 DUP4 PUSH2 0x1C05 JUMP JUMPDEST DUP2 ADD SUB SLT PUSH2 0x2E7F JUMPI DUP1 PUSH2 0x2E54 JUMP JUMPDEST DUP1 REVERT JUMPDEST POP RETURNDATASIZE PUSH2 0x2E67 JUMP JUMPDEST PUSH1 0x40 MLOAD RETURNDATASIZE DUP5 DUP3 RETURNDATACOPY RETURNDATASIZE SWAP1 REVERT JUMPDEST POP DUP3 ISZERO ISZERO PUSH2 0x2DC4 JUMP JUMPDEST DUP2 SLOAD DUP3 SWAP2 DUP3 SWAP2 DUP3 SWAP2 SWAP1 PUSH1 0x1 PUSH1 0x1 PUSH1 0xA0 SHL SUB AND GAS CALL PUSH2 0x2EB9 PUSH2 0x1D7B JUMP JUMPDEST POP ISZERO PUSH2 0x2EC6 JUMPI DUP4 CODESIZE PUSH2 0x2DB7 JUMP JUMPDEST PUSH1 0x40 MLOAD PUSH3 0x461BCD PUSH1 0xE5 SHL DUP2 MSTORE PUSH1 0x20 PUSH1 0x4 DUP3 ADD MSTORE PUSH1 0x13 PUSH1 0x24 DUP3 ADD MSTORE PUSH19 0x115512081D1C985B9CD9995C8819985A5B1959 PUSH1 0x6A SHL PUSH1 0x44 DUP3 ADD MSTORE PUSH1 0x64 SWAP1 REVERT JUMPDEST POP DUP2 SLOAD PUSH1 0x1 PUSH1 0x1 PUSH1 0xA0 SHL SUB AND ISZERO ISZERO PUSH2 0x2DB2 JUMP JUMPDEST POP POP POP POP POP POP JUMP JUMPDEST PUSH1 0x1 PUSH1 0x1 PUSH1 0x40 SHL SUB DUP2 SWAP8 SWAP3 SWAP8 GT PUSH2 0x2F39 JUMPI PUSH1 0x40 MSTORE SWAP5 PUSH2 0x2D8F PUSH2 0x2D84 JUMP JUMPDEST PUSH4 0x4E487B71 PUSH1 0xE0 SHL DUP3 MSTORE PUSH1 0x41 PUSH1 0x4 MSTORE PUSH1 0x24 DUP3 REVERT JUMPDEST PUSH1 0x40 MLOAD RETURNDATASIZE DUP10 DUP3 RETURNDATACOPY RETURNDATASIZE SWAP1 REVERT JUMPDEST DUP4 MLOAD PUSH1 0x1 PUSH1 0x1 PUSH1 0xA0 SHL SUB AND DUP6 MSTORE DUP15 SWAP8 POP DUP9 SWAP7 POP PUSH1 0x20 SWAP5 DUP6 ADD SWAP5 SWAP1 SWAP4 ADD SWAP3 ADD PUSH2 0x2D59 JUMP JUMPDEST DUP9 DUP1 REVERT JUMPDEST PUSH4 0x4E487B71 PUSH1 0xE0 SHL DUP11 MSTORE PUSH1 0x32 PUSH1 0x4 MSTORE PUSH1 0x24 DUP11 REVERT JUMPDEST PUSH2 0x2FAC SWAP2 POP PUSH1 0x20 RETURNDATASIZE PUSH1 0x20 GT PUSH2 0x680 JUMPI PUSH2 0x672 DUP2 DUP4 PUSH2 0x1C05 JUMP JUMPDEST CODESIZE PUSH2 0x2D03 JUMP JUMPDEST PUSH1 0x40 MLOAD RETURNDATASIZE DUP13 DUP3 RETURNDATACOPY RETURNDATASIZE SWAP1 REVERT JUMPDEST PUSH4 0x4E487B71 PUSH1 0xE0 SHL DUP9 MSTORE PUSH1 0x32 PUSH1 0x4 MSTORE PUSH1 0x24 DUP9 REVERT JUMPDEST PUSH4 0x4E487B71 PUSH1 0xE0 SHL DUP9 MSTORE PUSH1 0x41 PUSH1 0x4 MSTORE PUSH1 0x24 DUP9 REVERT JUMPDEST POP POP POP POP POP POP POP JUMP JUMPDEST POP POP JUMP INVALID 0x2A 0xE0 DUP11 DUP15 0x29 0x25 EXTCODEHASH PUSH10 0xAC5D979A101956AB8F8D SWAP14 PUSH30 0xED63FA7A83B16FC47648EAB052C63247E1F47DB19D5CE0460030C497F067 0xCA 0x4C 0xEB 0xF7 SHL 0xA9 DUP15 0xEA 0xDA 0xBE KECCAK256 0xBA 0xCE SUB MSTORE 0xC6 ORIGIN SELFBALANCE 0xE1 DELEGATECALL PUSH30 0xB19D5CE0460030C497F067CA4CEBF71BA98EEADABE20BACE0052C63247E1 DELEGATECALL PUSH30 0xB19D5CE0460030C497F067CA4CEBF71BA98EEADABE20BACE049016D09D72 0xD4 0xF 0xDA 0xE2 REVERT DUP13 0xEA 0xC6 0xB6 0x23 0x4C PUSH24 0x6214FD39C1CD1E609A0528C19930052C63247E1F47DB19D 0x5C 0xE0 CHAINID STOP ADDRESS 0xC4 SWAP8 CREATE PUSH8 0xCA4CEBF71BA98EEA 0xDA 0xBE KECCAK256 0xBA 0xCE MUL 0xDD CALLCODE MSTORE 0xAD SHL 0xE2 0xC8 SWAP12 PUSH10 0xC2B068FC378DAA952BA7 CALL PUSH4 0xC4A11628 CREATE2 GAS 0x4D CREATE2 0x23 0xB3 0xEF CHAINID LOG2 DUP1 RETURNDATACOPY MSIZE LOG4 0xDE 0x4E PUSH27 0x4C574B1243F25977AC4C77D5A1A4A609B5394CEBB4A2AAF0C57E16 DUP5 0xD CREATE BLOCKHASH CALL POP DUP9 0xDC 0x2F DUP2 INVALID CODECOPY SHR CODECOPY 0x23 0xBE 0xC7 RETURNDATACOPY 0x23 0xA9 PUSH7 0x2EFC9C229C6A00 LOG2 PUSH5 0x6970667358 0x22 SLT KECCAK256 RETURNDATACOPY PUSH2 0x1528 COINBASE SGT 0x1F PREVRANDAO PUSH11 0x842F9627330B327F727C91 0xCB 0xC5 0xD3 DIV SWAP13 CALLDATALOAD 0xC7 0x2B MSTORE8 0xE3 PUSH25 0xE264736F6C6343000814003300000000000000000000000000 "},"methodIdentifiers":{"BURN_ADDRESS()":"fccc2813","allowance(address,address)":"dd62ed3e","approve(address,uint256)":"095ea7b3","balanceOf(address)":"70a08231","buyFee()":"47062402","deadBlocks()":"fabb0b4f","decimals()":"313ce567","emergencyWithdrawETH()":"84536017","enableTrading()":"8a8c523c","initialize(address,string,string,uint256,address)":"747b8a1c","isBlacklisted(address)":"fe575a87","isExcludedFromFees(address)":"4fbee193","isExcludedFromLimits(address)":"5cce86cd","isWhitelisted(address)":"3af32abf","launchBlock()":"d00efb2f","manualSwapBack()":"66eb3785","marketingWallet()":"75f0a874","maxGasPriceWei()":"ef3881c8","maxTxAmount()":"8c0b5e22","maxWalletAmount()":"aa4bde28","name()":"06fdde03","owner()":"8da5cb5b","renounceOwnership()":"715018a6","revertEarlyBuys()":"2fc05806","sellFee()":"2b14ca56","setAddressFlags(address,bool,bool,bool,bool)":"92c818d6","setBuyFees(uint16,uint16,uint16)":"6951a079","setLimits(uint256,uint256,bool,uint256,uint256)":"9f52256b","setMarketingWallet(address)":"5d098b38","setRouter(address)":"c0d78655","setSellFees(uint16,uint16,uint16)":"fc6c2bda","setSwapSettings(bool,uint256)":"d0e10326","swapEnabled()":"6ddd1713","swapTokensAtAmount()":"e2f45605","symbol()":"95d89b41","totalSupply()":"18160ddd","tradingEnabled()":"4ada218b","transfer(address,uint256)":"a9059cbb","transferFrom(address,address,uint256)":"23b872dd","transferOwnership(address)":"f2fde38b","uniswapV2Pair()":"49bd5a5e","uniswapV2Router()":"1694505e"}}}}}