{"contracts/batch/BatchTransferETH.sol":{"BatchTransferETH":{"abi":[{"inputs":[{"internalType":"address","name":"_feeCollector","type":"address"}],"stateMutability":"nonpayable","type":"constructor"},{"inputs":[{"internalType":"address","name":"owner","type":"address"}],"name":"OwnableInvalidOwner","type":"error"},{"inputs":[{"internalType":"address","name":"account","type":"address"}],"name":"OwnableUnauthorizedAccount","type":"error"},{"inputs":[{"internalType":"address","name":"token","type":"address"}],"name":"SafeERC20FailedOperation","type":"error"},{"anonymous":false,"inputs":[{"indexed":true,"internalType":"address","name":"user","type":"address"},{"indexed":false,"internalType":"uint256","name":"amount","type":"uint256"},{"indexed":false,"internalType":"string","name":"reason","type":"string"}],"name":"BalanceAdded","type":"event"},{"anonymous":false,"inputs":[{"indexed":true,"internalType":"address","name":"sender","type":"address"},{"indexed":false,"internalType":"uint256","name":"successCount","type":"uint256"},{"indexed":false,"internalType":"uint256","name":"failureCount","type":"uint256"},{"indexed":false,"internalType":"uint256","name":"refundAmount","type":"uint256"}],"name":"BatchNativeTransfer","type":"event"},{"anonymous":false,"inputs":[{"indexed":true,"internalType":"address","name":"sender","type":"address"},{"indexed":true,"internalType":"address","name":"token","type":"address"},{"indexed":false,"internalType":"uint256","name":"successCount","type":"uint256"},{"indexed":false,"internalType":"uint256","name":"failureCount","type":"uint256"}],"name":"BatchTokenTransfer","type":"event"},{"anonymous":false,"inputs":[{"indexed":true,"internalType":"address","name":"oldCollector","type":"address"},{"indexed":true,"internalType":"address","name":"newCollector","type":"address"}],"name":"FeeCollectorUpdated","type":"event"},{"anonymous":false,"inputs":[{"indexed":false,"internalType":"uint256","name":"baseFee","type":"uint256"},{"indexed":false,"internalType":"uint256","name":"perAddressFee","type":"uint256"}],"name":"FeeConfigUpdated","type":"event"},{"anonymous":false,"inputs":[{"indexed":false,"internalType":"uint256","name":"oldRatio","type":"uint256"},{"indexed":false,"internalType":"uint256","name":"newRatio","type":"uint256"}],"name":"GasLimitRatioUpdated","type":"event"},{"anonymous":false,"inputs":[{"indexed":false,"internalType":"uint256","name":"nativeTransferGas","type":"uint256"},{"indexed":false,"internalType":"uint256","name":"tokenTransferGas","type":"uint256"},{"indexed":false,"internalType":"uint256","name":"baseGas","type":"uint256"}],"name":"GasParametersUpdated","type":"event"},{"anonymous":false,"inputs":[{"indexed":true,"internalType":"address","name":"kol","type":"address"}],"name":"KOLReferralRateRemoved","type":"event"},{"anonymous":false,"inputs":[{"indexed":true,"internalType":"address","name":"kol","type":"address"},{"indexed":false,"internalType":"uint256","name":"rate","type":"uint256"}],"name":"KOLReferralRateSet","type":"event"},{"anonymous":false,"inputs":[{"indexed":true,"internalType":"address","name":"previousOwner","type":"address"},{"indexed":true,"internalType":"address","name":"newOwner","type":"address"}],"name":"OwnershipTransferred","type":"event"},{"anonymous":false,"inputs":[{"indexed":false,"internalType":"uint256","name":"oldRate","type":"uint256"},{"indexed":false,"internalType":"uint256","name":"newRate","type":"uint256"}],"name":"ReferralRateUpdated","type":"event"},{"anonymous":false,"inputs":[{"indexed":true,"internalType":"address","name":"referrer","type":"address"},{"indexed":true,"internalType":"address","name":"user","type":"address"},{"indexed":false,"internalType":"uint256","name":"amount","type":"uint256"}],"name":"ReferralReward","type":"event"},{"anonymous":false,"inputs":[{"indexed":true,"internalType":"address","name":"user","type":"address"},{"indexed":true,"internalType":"address","name":"referrer","type":"address"}],"name":"ReferrerSet","type":"event"},{"anonymous":false,"inputs":[{"indexed":true,"internalType":"address","name":"sender","type":"address"},{"indexed":true,"internalType":"uint256","name":"batchIndex","type":"uint256"},{"indexed":false,"internalType":"address","name":"to","type":"address"},{"indexed":false,"internalType":"uint256","name":"amount","type":"uint256"},{"indexed":false,"internalType":"bool","name":"success","type":"bool"},{"indexed":false,"internalType":"string","name":"failureReason","type":"string"}],"name":"TransferDetail","type":"event"},{"anonymous":false,"inputs":[{"indexed":true,"internalType":"address","name":"user","type":"address"},{"indexed":false,"internalType":"uint256","name":"amount","type":"uint256"}],"name":"WithdrawalSuccess","type":"event"},{"inputs":[{"internalType":"contract IERC20","name":"token","type":"address"},{"internalType":"address","name":"from","type":"address"},{"internalType":"address","name":"to","type":"address"},{"internalType":"uint256","name":"amount","type":"uint256"}],"name":"_safeTransferFromHelper","outputs":[],"stateMutability":"nonpayable","type":"function"},{"inputs":[],"name":"baseFee","outputs":[{"internalType":"uint256","name":"","type":"uint256"}],"stateMutability":"view","type":"function"},{"inputs":[],"name":"baseGas","outputs":[{"internalType":"uint256","name":"","type":"uint256"}],"stateMutability":"view","type":"function"},{"inputs":[{"components":[{"internalType":"address","name":"to","type":"address"},{"internalType":"uint256","name":"amount","type":"uint256"}],"internalType":"struct BatchTransferETH.Transfer[]","name":"transfers","type":"tuple[]"},{"internalType":"address","name":"referrer","type":"address"}],"name":"batchTransferNative","outputs":[{"components":[{"internalType":"address","name":"to","type":"address"},{"internalType":"uint256","name":"amount","type":"uint256"},{"internalType":"bool","name":"success","type":"bool"},{"internalType":"string","name":"failureReason","type":"string"}],"internalType":"struct BatchTransferETH.TransferResult[]","name":"results","type":"tuple[]"}],"stateMutability":"payable","type":"function"},{"inputs":[{"internalType":"address","name":"token","type":"address"},{"components":[{"internalType":"address","name":"to","type":"address"},{"internalType":"uint256","name":"amount","type":"uint256"}],"internalType":"struct BatchTransferETH.Transfer[]","name":"transfers","type":"tuple[]"},{"internalType":"address","name":"referrer","type":"address"}],"name":"batchTransferToken","outputs":[{"components":[{"internalType":"address","name":"to","type":"address"},{"internalType":"uint256","name":"amount","type":"uint256"},{"internalType":"bool","name":"success","type":"bool"},{"internalType":"string","name":"failureReason","type":"string"}],"internalType":"struct BatchTransferETH.TransferResult[]","name":"results","type":"tuple[]"}],"stateMutability":"payable","type":"function"},{"inputs":[{"internalType":"uint256","name":"addressCount","type":"uint256"}],"name":"calculateFee","outputs":[{"internalType":"uint256","name":"","type":"uint256"}],"stateMutability":"view","type":"function"},{"inputs":[],"name":"feeCollector","outputs":[{"internalType":"address","name":"","type":"address"}],"stateMutability":"view","type":"function"},{"inputs":[],"name":"gasLimitRatio","outputs":[{"internalType":"uint256","name":"","type":"uint256"}],"stateMutability":"view","type":"function"},{"inputs":[{"internalType":"address","name":"referrer","type":"address"}],"name":"getEffectiveReferralRate","outputs":[{"internalType":"uint256","name":"","type":"uint256"}],"stateMutability":"view","type":"function"},{"inputs":[],"name":"getFeeConfig","outputs":[{"internalType":"uint256","name":"","type":"uint256"},{"internalType":"uint256","name":"","type":"uint256"}],"stateMutability":"view","type":"function"},{"inputs":[],"name":"getGasParameters","outputs":[{"internalType":"uint256","name":"","type":"uint256"},{"internalType":"uint256","name":"","type":"uint256"},{"internalType":"uint256","name":"","type":"uint256"},{"internalType":"uint256","name":"","type":"uint256"}],"stateMutability":"view","type":"function"},{"inputs":[{"internalType":"address","name":"kol","type":"address"}],"name":"getKOLReferralRate","outputs":[{"internalType":"uint256","name":"","type":"uint256"}],"stateMutability":"view","type":"function"},{"inputs":[],"name":"getMaxErc20TransferCount","outputs":[{"internalType":"uint256","name":"","type":"uint256"}],"stateMutability":"view","type":"function"},{"inputs":[],"name":"getMaxNativeTransferCount","outputs":[{"internalType":"uint256","name":"","type":"uint256"}],"stateMutability":"view","type":"function"},{"inputs":[{"internalType":"address","name":"user","type":"address"}],"name":"getPendingWithdrawal","outputs":[{"internalType":"uint256","name":"","type":"uint256"}],"stateMutability":"view","type":"function"},{"inputs":[],"name":"getReferralRate","outputs":[{"internalType":"uint256","name":"","type":"uint256"}],"stateMutability":"view","type":"function"},{"inputs":[{"internalType":"address","name":"user","type":"address"}],"name":"getUserReferrer","outputs":[{"internalType":"address","name":"","type":"address"}],"stateMutability":"view","type":"function"},{"inputs":[{"internalType":"address","name":"","type":"address"}],"name":"kolReferralRates","outputs":[{"internalType":"uint256","name":"","type":"uint256"}],"stateMutability":"view","type":"function"},{"inputs":[],"name":"nativeTransferGas","outputs":[{"internalType":"uint256","name":"","type":"uint256"}],"stateMutability":"view","type":"function"},{"inputs":[],"name":"owner","outputs":[{"internalType":"address","name":"","type":"address"}],"stateMutability":"view","type":"function"},{"inputs":[{"internalType":"address","name":"","type":"address"}],"name":"pendingWithdrawals","outputs":[{"internalType":"uint256","name":"","type":"uint256"}],"stateMutability":"view","type":"function"},{"inputs":[],"name":"perAddressFee","outputs":[{"internalType":"uint256","name":"","type":"uint256"}],"stateMutability":"view","type":"function"},{"inputs":[],"name":"referralRate","outputs":[{"internalType":"uint256","name":"","type":"uint256"}],"stateMutability":"view","type":"function"},{"inputs":[{"internalType":"address","name":"kol","type":"address"}],"name":"removeKOLReferralRate","outputs":[],"stateMutability":"nonpayable","type":"function"},{"inputs":[],"name":"renounceOwnership","outputs":[],"stateMutability":"nonpayable","type":"function"},{"inputs":[{"internalType":"address","name":"_feeCollector","type":"address"}],"name":"setFeeCollector","outputs":[],"stateMutability":"nonpayable","type":"function"},{"inputs":[{"internalType":"uint256","name":"_baseFee","type":"uint256"},{"internalType":"uint256","name":"_perAddressFee","type":"uint256"}],"name":"setFeeConfig","outputs":[],"stateMutability":"nonpayable","type":"function"},{"inputs":[{"internalType":"uint256","name":"_gasLimitRatio","type":"uint256"}],"name":"setGasLimitRatio","outputs":[],"stateMutability":"nonpayable","type":"function"},{"inputs":[{"internalType":"uint256","name":"_nativeTransferGas","type":"uint256"},{"internalType":"uint256","name":"_tokenTransferGas","type":"uint256"},{"internalType":"uint256","name":"_baseGas","type":"uint256"}],"name":"setGasParameters","outputs":[],"stateMutability":"nonpayable","type":"function"},{"inputs":[{"internalType":"address","name":"kol","type":"address"},{"internalType":"uint256","name":"rate","type":"uint256"}],"name":"setKOLReferralRate","outputs":[],"stateMutability":"nonpayable","type":"function"},{"inputs":[{"internalType":"uint256","name":"_referralRate","type":"uint256"}],"name":"setReferralRate","outputs":[],"stateMutability":"nonpayable","type":"function"},{"inputs":[],"name":"tokenTransferGas","outputs":[{"internalType":"uint256","name":"","type":"uint256"}],"stateMutability":"view","type":"function"},{"inputs":[{"internalType":"address","name":"newOwner","type":"address"}],"name":"transferOwnership","outputs":[],"stateMutability":"nonpayable","type":"function"},{"inputs":[{"internalType":"address","name":"","type":"address"}],"name":"userReferrers","outputs":[{"internalType":"address","name":"","type":"address"}],"stateMutability":"view","type":"function"},{"inputs":[],"name":"withdraw","outputs":[],"stateMutability":"nonpayable","type":"function"},{"stateMutability":"payable","type":"receive"}],"evm":{"bytecode":{"linkReferences":{},"object":"60803461012757601f611c9c38819003918201601f19168301916001600160401b0383118484101761012c5780849260209460405283398101031261012757516001600160a01b038082169182900361012757331561010e576000549060018060a01b0319913383821617600055604051913391167f8be0079c531659141344cd1fd0a4f28419497f9722a3daafe3b4186f6b6457e0600080a382156100cc575060015416176001556152088060085561fde8600955600a5560c8600b55604051611b5990816101438239f35b62461bcd60e51b815260206004820152601560248201527f496e76616c69642066656520636f6c6c6563746f7200000000000000000000006044820152606490fd5b604051631e4fbdf760e01b815260006004820152602490fd5b600080fd5b634e487b7160e01b600052604160045260246000fdfe6080604052600436101561001b575b361561001957600080fd5b005b60003560e01c806304708845146102385780630629dc5e146102335780631d6dc68b1461022e5780632726e2ee1461022957806336144c9a146101d957806338250ea6146102245780633ccfd60b1461021f57806341f277581461021a57806342159f4014610215578063583bbc40146102105780635932305b1461020b5780635fbbc0d214610206578063641d9bbc146102015780636ef25c3a146101fc578063715018a6146101f75780637a580736146101f25780637ee8b2f8146101a2578063851b1c4e146101ed5780638998cea5146101e857806389ace1ed146101e35780638da5cb5b146101de5780638f63489d146101d957806399a5d747146101d4578063a053ce1f146101ca578063a42dce80146101cf578063bc9bbcd8146101ca578063be1b33c0146101c5578063c415b95c146101c0578063ca4863fd146101bb578063cccbb9b5146101b6578063d8378647146101b6578063dd5d1e3e146101b1578063eee9f20a146101ac578063f2fde38b146101a75763f3f437030361000e575b610b6b565b611233565b6111cc565b6111b1565b611174565b611111565b6110e8565b6110c1565b610ff9565b611017565b610fdb565b6107d9565b610fb2565b610f8f565b610c96565b610ba8565b610b07565b610aac565b610a8e565b610a70565b610a47565b610a29565b610a0b565b61098e565b610970565b6108b1565b610818565b610422565b6102cf565b61025b565b34610256576000366003190112610256576020600b54604051908152f35b600080fd5b34610256576060366003190112610256577fa5801b007372d0623488a3aa478f88d8063ba2317686061e02cea1bba6e1eb2c6024356004356102ca6044356102a16112bf565b826008558360095580600a55604051938493846040919493926060820195825260208201520152565b0390a1005b34610256576000366003190112610256576080600854600954600a54600b5491604051938452602084015260408301526060820152f35b9181601f840112156102565782359167ffffffffffffffff8311610256576020808501948460061b01011161025657565b6001600160a01b0381160361025657565b60005b83811061035b5750506000910152565b818101518382015260200161034b565b9060209161038481518092818552858086019101610348565b601f01601f1916010190565b602080820190808352835180925260409283810182858560051b8401019601946000925b8584106103c5575050505050505090565b909192939495968580610411600193603f198682030188528b51858060a01b0381511682528381015184830152878101511515888301526060809101519160808092820152019061036b565b9901940194019295949391906103b4565b60403660031901126102565760043567ffffffffffffffff81116102565761044e903690600401610306565b9060243561045b81610337565b6104668315156113f6565b600090815b8481106107b957509061049e6104a39261049961049161048a88611326565b8095611319565b34101561146e565b61182e565b61190a565b80610742575b50906104b481611543565b90600090819082946104d56104ce600854600b5490611301565b6064900490565b91845b8181106105ab5761053187877f29d76740cbc89bbaa891f53c02a91144201cbd27541018f1222521904b8dc0048b8981610535575b6040805194855260208501919091528301523391606090a260405191829182610390565b0390f35b33600090815260076020526040902061054f838254611319565b90556040517fef14da62cafebf322bdd38df3ac0bdcc24ff3d69010b3334f3df8f03edc92cc23391806105a3868260809181526040602082015260066040820152651c99599d5b9960d21b60608201520190565b0390a261050d565b839760008080808b986105c76105c2888a8c611459565b6115c1565b60206105d4898b8d611459565b013591f1906105e161160b565b60608361070257507fa6df5a078e66f7b0e1c1657e07c0d94dc5047762340d58aa99c7acfe987f54758493876106a18661065061064a82986106e59b8960448f9b5110156000146106ee5760209161063b61064292611a7d565b9b89611459565b013590611319565b9d611434565b9b5b602061066d838d6106676105c283838b611459565b97611459565b013561068961067a61150b565b6001600160a01b039096168652565b60208501528415156040850152866060850152611666565b526106ac848d611666565b506106bb6105c285898b611459565b926106dd60206106cc878b8d611459565b01359160405193849333978561167a565b0390a3611434565b969293966104d8565b506106426020916106fd61163b565b61063b565b90507fa6df5a078e66f7b0e1c1657e07c0d94dc5047762340d58aa99c7acfe987f54758493876106a18661073c6106e599979d9c9e611434565b9d610652565b33600090815260076020526040902061075c828254611319565b90557fef14da62cafebf322bdd38df3ac0bdcc24ff3d69010b3334f3df8f03edc92cc2604051806107b03394826080918152604060208201526007604082015266737572706c757360c81b60608201520190565b0390a2386104a9565b916107ce6107d4916020610642868989611459565b92611434565b61046b565b346102565760203660031901126102565760206004356107f881610337565b60018060a01b038091166000526006825260406000205416604051908152f35b34610256576020366003190112610256576004356108346112bf565b6064811061087557600b5460408051918252602082018390527f9b089bc99ec16bc0ed0e841c1e4afd5c8d686f9c6e6c82ee7abbc47b7a47b7bc91a1600b55005b60405162461bcd60e51b81526020600482015260146024820152730526174696f206d757374206265203e3d203130360641b6044820152606490fd5b346102565760008060031936011261096d57338152600760205260408120548015610932573360009081526007602052604090208290556109018280808085335af16108fb61160b565b506117b4565b60405190815233907fef37270ffd4697852e825c7f163a2505cfbd2d7849a69b6ad9c8829d7f90484a90602090a280f35b60405162461bcd60e51b81526020600482015260136024820152724e6f7468696e6720746f20776974686472617760681b6044820152606490fd5b80fd5b34610256576000366003190112610256576020600354604051908152f35b34610256576040366003190112610256576004356109ab81610337565b7f2920cdc2cda3871d3b54294b7e38e403636917c549f9c6960686677819f173de6020602435926109da6112bf565b6109e86127108511156117f2565b6001600160a01b03166000818152600583526040908190208590555193845292a2005b34610256576000366003190112610256576020600a54604051908152f35b34610256576000366003190112610256576020600954604051908152f35b346102565760003660031901126102565760025460035460408051928352602083019190915290f35b34610256576000366003190112610256576020600854604051908152f35b34610256576000366003190112610256576020600254604051908152f35b346102565760008060031936011261096d57610ac66112bf565b80546001600160a01b03198116825581906001600160a01b03167f8be0079c531659141344cd1fd0a4f28419497f9722a3daafe3b4186f6b6457e08280a380f35b34610256576040366003190112610256577f1eab951da250f7e001396235b296e29bc73945b6a52fd471dd8f3de3398634be602435600435610b476112bf565b80600255816003556102ca6040519283928360209093929193604081019481520152565b3461025657602036600319011261025657600435610b8881610337565b60018060a01b031660005260076020526020604060002054604051908152f35b3461025657608036600319011261025657600435610bc581610337565b60243590610bd282610337565b6020610c23610c3160443594610be786610337565b6040516323b872dd60e01b8582019081526001600160a01b03928316602483015296909116604482015260648035908201529182906084820190565b03601f1981018352826114e9565b6000938491519082855af115610c895781513d610c8057506001600160a01b0381163b155b610c5e575080f35b604051635274afe760e01b81526001600160a01b039091166004820152602490fd5b60011415610c56565b50604051903d90823e3d90fd5b60608060031936011261025657600490813590610cb282610337565b60243567ffffffffffffffff81116102565791610cd3849336908501610306565b93610d07604435610ce381610337565b610cee8715156113f6565b61049e610cfa88611326565b91610499833410156116a7565b50610d1185611543565b936001600160a01b0390931692600092839290835b888110610d75576040805187815260208101879052610531918a918a9133917ff3dfb960931cb4c24bf2dd9e40374ac223dfb046c20ded274e863cc630308fc99190a360405191829182610390565b88610d846105c2838386611459565b6020610dd88180610d9687878a611459565b604080516323b872dd60e01b815233818d019081526001600160a01b03909816602089015292909101358682015294909283918e918391600091839160600190565b03925af19081610f62575b50610f01576001610df26116fe565b6308c379a014610e80575b610e13575b505050610e0e90611434565b610d26565b91600084989284610e7595610e3a88610e336105c2610e0e9b898e611459565b968b611459565b013590610e4861067a61150b565b840152820152610e5661178b565b87820152610e64888c611666565b52610e6f878b611666565b50611434565b949050888a80610e02565b8b610e8961171c565b9081610e97575b5050610dfd565b610ef9925086610e6f918960009d948e88610ec1868d610ebb6105c283838a611459565b96611459565b0135610edd610ece61150b565b6001600160a01b039095168552565b89840152898301528d820152610ef38383611666565b52611666565b978d8c610e90565b91610f3b84999284610f5c95610f2288610e336105c2610e0e9b898e611459565b013590610f3061067a61150b565b840152820160019052565b610f436115e7565b87820152610f51898c611666565b52610e6f888b611666565b95611434565b610f8190833d8511610f88575b610f7981836114e9565b8101906116e6565b508d610de3565b503d610f6f565b34610256576000366003190112610256576020610faa611361565b604051908152f35b34610256576000366003190112610256576000546040516001600160a01b039091168152602090f35b34610256576020366003190112610256576020610faa600435611326565b34610256576000366003190112610256576020600454604051908152f35b346102565760203660031901126102565760043561103481610337565b61103c6112bf565b6001600160a01b0390811690811561108a57816001549182167f5d16ad41baeb009cd23eb8f6c7cde5c2e0cd5acf4a33926ab488875c37c37f38600080a36001600160a01b03191617600155005b60405162461bcd60e51b815260206004820152600f60248201526e496e76616c6964206164647265737360881b6044820152606490fd5b34610256576020366003190112610256576020610faa6004356110e381610337565b6113ce565b34610256576000366003190112610256576001546040516001600160a01b039091168152602090f35b346102565760203660031901126102565760043561112d6112bf565b61113b6127108211156117f2565b60045460408051918252602082018390527f9f954e76fd757f4d7bf028f3bbc26deff901086a8fd3e4d197576d0d4eb0526791a1600455005b346102565760203660031901126102565760043561119181610337565b60018060a01b031660005260056020526020604060002054604051908152f35b34610256576000366003190112610256576020610faa61139c565b34610256576020366003190112610256576004356111e981610337565b6111f16112bf565b6001600160a01b03166000818152600560205260408120819055907fb2845c69c6aec6b30d59e97655473a5b6dc306d19ecb63422074fb2e8b186bcf8280a280f35b346102565760203660031901126102565760043561125081610337565b6112586112bf565b6001600160a01b0390811680156112a657600080546001600160a01b03198116831782559092167f8be0079c531659141344cd1fd0a4f28419497f9722a3daafe3b4186f6b6457e08380a380f35b604051631e4fbdf760e01b815260006004820152602490fd5b6000546001600160a01b031633036112d357565b60405163118cdaa760e01b8152336004820152602490fd5b634e487b7160e01b600052601160045260246000fd5b8181029291811591840414171561131457565b6112eb565b9190820180921161131457565b61133560025491600354611301565b81018091116113145790565b811561134b570490565b634e487b7160e01b600052601260045260246000fd5b60085480156113955760644502458104606414451517156113145761138c61139292600b5490611301565b90611341565b90565b506101f490565b60095480156113c75760644502458104606414451517156113145761138c61139292600b5490611301565b5061012c90565b6001600160a01b031660009081526005602052604090205480156113ef5790565b5060045490565b156113fd57565b60405162461bcd60e51b815260206004820152600f60248201526e456d707479207472616e736665727360881b6044820152606490fd5b60001981146113145760010190565b634e487b7160e01b600052603260045260246000fd5b91908110156114695760061b0190565b611443565b1561147557565b60405162461bcd60e51b8152602060048201526015602482015274125b9cdd59999a58da595b9d08115512081cd95b9d605a1b6044820152606490fd5b634e487b7160e01b600052604160045260246000fd5b6040810190811067ffffffffffffffff8211176114e457604052565b6114b2565b90601f8019910116810190811067ffffffffffffffff8211176114e457604052565b604051906080820182811067ffffffffffffffff8211176114e457604052565b67ffffffffffffffff81116114e45760051b60200190565b9061154d8261152b565b60409061155c825191826114e9565b838152809361156d601f199161152b565b0190600092835b838110611582575050505050565b815190608082019180831067ffffffffffffffff8411176114e45760209284528681528287818301528785830152606080830152828601015201611574565b3561139281610337565b67ffffffffffffffff81116114e457601f01601f191660200190565b604051906020820182811067ffffffffffffffff8211176114e45760405260008252565b3d15611636573d9061161c826115cb565b9161162a60405193846114e9565b82523d6000602084013e565b606090565b60405190611648826114c8565b600f82526e151c985b9cd9995c8819985a5b1959608a1b6020830152565b80518210156114695760209160051b010190565b9092608092611392959460018060a01b03168352602083015215156040820152816060820152019061036b565b156116ae57565b60405162461bcd60e51b815260206004820152601060248201526f496e73756666696369656e742066656560801b6044820152606490fd5b90816020910312610256575180151581036102565790565b60009060033d1161170b57565b905060046000803e60005160e01c90565b600060443d1061139257604051600319913d83016004833e815167ffffffffffffffff918282113d60248401111761177a57818401948551938411611782573d8501016020848701011161177a5750611392929101602001906114e9565b949350505050565b50949350505050565b60405190611798826114c8565b600d82526c2ab735b737bbb71032b93937b960991b6020830152565b156117bb57565b60405162461bcd60e51b815260206004820152600f60248201526e15da5d1a191c985dc819985a5b1959608a1b6044820152606490fd5b156117f957565b60405162461bcd60e51b815260206004820152600d60248201526c0a4c2e8ca40e8dede40d0d2ced609b1b6044820152606490fd5b6001600160a01b039081169081151590816118b0575b81611897575b506118525750565b33600081815260066020526040812080546001600160a01b031916841790557f5f7165288eef601591cf549e15ff19ef9060b7f71b9c115be946fa1fe7ebf68a9080a3565b905033600052600660205260406000205416153861184a565b338314159150611844565b9190820391821161131457565b156118cf57565b60405162461bcd60e51b8152602060048201526013602482015272119959481d1c985b9cd9995c8819985a5b1959606a1b6044820152606490fd5b8015611a77573360009081526006602052604081205461193d91906001600160a01b03168080611990575b5050826118bb565b80611960575b5060009080341160001461195c576113929150346118bb565b5090565b600080808061198a9461197a60015460018060a01b031690565b5af161198461160b565b506118c8565b38611943565b611999826113ce565b806119a5575b50611935565b6119dd919293506119b96119c19187611301565b612710900490565b6001600160a01b03909316600090815260076020526040902090565b6119e8838254611319565b9055807fef14da62cafebf322bdd38df3ac0bdcc24ff3d69010b3334f3df8f03edc92cc260405180611a3d868260809181526040602082015260086040820152671c9959995c9c985b60c21b60608201520190565b0390a26040518281523391907f53958b9c644a1d5529da7c36929d59417eb9a996f08e02a52632bfe20c92ef4890602090a338808061199f565b50600090565b6044815110611af8576004810151810190602081602484019303126102565760248101519067ffffffffffffffff8211610256570181604382011215610256576024810151611acb816115cb565b92611ad960405194856114e9565b8184526044828401011161025657611392916044602085019101610348565b50604051611b05816114c8565b600e81526d155b9adb9bdddb881c995d995c9d60921b60208201529056fea26469706673582212200c17c462e02fd3c78a21fb0c028ac99c4ec7d9dcf09636dd236204c327857fdb64736f6c63430008140033","opcodes":"PUSH1 0x80 CALLVALUE PUSH2 0x127 JUMPI PUSH1 0x1F PUSH2 0x1C9C CODESIZE DUP2 SWAP1 SUB SWAP2 DUP3 ADD PUSH1 0x1F NOT AND DUP4 ADD SWAP2 PUSH1 0x1 PUSH1 0x1 PUSH1 0x40 SHL SUB DUP4 GT DUP5 DUP5 LT OR PUSH2 0x12C JUMPI DUP1 DUP5 SWAP3 PUSH1 0x20 SWAP5 PUSH1 0x40 MSTORE DUP4 CODECOPY DUP2 ADD SUB SLT PUSH2 0x127 JUMPI MLOAD PUSH1 0x1 PUSH1 0x1 PUSH1 0xA0 SHL SUB DUP1 DUP3 AND SWAP2 DUP3 SWAP1 SUB PUSH2 0x127 JUMPI CALLER ISZERO PUSH2 0x10E JUMPI PUSH1 0x0 SLOAD SWAP1 PUSH1 0x1 DUP1 PUSH1 0xA0 SHL SUB NOT SWAP2 CALLER DUP4 DUP3 AND OR PUSH1 0x0 SSTORE PUSH1 0x40 MLOAD SWAP2 CALLER SWAP2 AND PUSH32 0x8BE0079C531659141344CD1FD0A4F28419497F9722A3DAAFE3B4186F6B6457E0 PUSH1 0x0 DUP1 LOG3 DUP3 ISZERO PUSH2 0xCC JUMPI POP PUSH1 0x1 SLOAD AND OR PUSH1 0x1 SSTORE PUSH2 0x5208 DUP1 PUSH1 0x8 SSTORE PUSH2 0xFDE8 PUSH1 0x9 SSTORE PUSH1 0xA SSTORE PUSH1 0xC8 PUSH1 0xB SSTORE PUSH1 0x40 MLOAD PUSH2 0x1B59 SWAP1 DUP2 PUSH2 0x143 DUP3 CODECOPY RETURN JUMPDEST PUSH3 0x461BCD PUSH1 0xE5 SHL DUP2 MSTORE PUSH1 0x20 PUSH1 0x4 DUP3 ADD MSTORE PUSH1 0x15 PUSH1 0x24 DUP3 ADD MSTORE PUSH32 0x496E76616C69642066656520636F6C6C6563746F720000000000000000000000 PUSH1 0x44 DUP3 ADD MSTORE PUSH1 0x64 SWAP1 REVERT JUMPDEST PUSH1 0x40 MLOAD PUSH4 0x1E4FBDF7 PUSH1 0xE0 SHL DUP2 MSTORE PUSH1 0x0 PUSH1 0x4 DUP3 ADD MSTORE PUSH1 0x24 SWAP1 REVERT JUMPDEST PUSH1 0x0 DUP1 REVERT JUMPDEST PUSH4 0x4E487B71 PUSH1 0xE0 SHL PUSH1 0x0 MSTORE PUSH1 0x41 PUSH1 0x4 MSTORE PUSH1 0x24 PUSH1 0x0 REVERT INVALID PUSH1 0x80 PUSH1 0x40 MSTORE PUSH1 0x4 CALLDATASIZE LT ISZERO PUSH2 0x1B JUMPI JUMPDEST CALLDATASIZE ISZERO PUSH2 0x19 JUMPI PUSH1 0x0 DUP1 REVERT JUMPDEST STOP JUMPDEST PUSH1 0x0 CALLDATALOAD PUSH1 0xE0 SHR DUP1 PUSH4 0x4708845 EQ PUSH2 0x238 JUMPI DUP1 PUSH4 0x629DC5E EQ PUSH2 0x233 JUMPI DUP1 PUSH4 0x1D6DC68B EQ PUSH2 0x22E JUMPI DUP1 PUSH4 0x2726E2EE EQ PUSH2 0x229 JUMPI DUP1 PUSH4 0x36144C9A EQ PUSH2 0x1D9 JUMPI DUP1 PUSH4 0x38250EA6 EQ PUSH2 0x224 JUMPI DUP1 PUSH4 0x3CCFD60B EQ PUSH2 0x21F JUMPI DUP1 PUSH4 0x41F27758 EQ PUSH2 0x21A JUMPI DUP1 PUSH4 0x42159F40 EQ PUSH2 0x215 JUMPI DUP1 PUSH4 0x583BBC40 EQ PUSH2 0x210 JUMPI DUP1 PUSH4 0x5932305B EQ PUSH2 0x20B JUMPI DUP1 PUSH4 0x5FBBC0D2 EQ PUSH2 0x206 JUMPI DUP1 PUSH4 0x641D9BBC EQ PUSH2 0x201 JUMPI DUP1 PUSH4 0x6EF25C3A EQ PUSH2 0x1FC JUMPI DUP1 PUSH4 0x715018A6 EQ PUSH2 0x1F7 JUMPI DUP1 PUSH4 0x7A580736 EQ PUSH2 0x1F2 JUMPI DUP1 PUSH4 0x7EE8B2F8 EQ PUSH2 0x1A2 JUMPI DUP1 PUSH4 0x851B1C4E EQ PUSH2 0x1ED JUMPI DUP1 PUSH4 0x8998CEA5 EQ PUSH2 0x1E8 JUMPI DUP1 PUSH4 0x89ACE1ED EQ PUSH2 0x1E3 JUMPI DUP1 PUSH4 0x8DA5CB5B EQ PUSH2 0x1DE JUMPI DUP1 PUSH4 0x8F63489D EQ PUSH2 0x1D9 JUMPI DUP1 PUSH4 0x99A5D747 EQ PUSH2 0x1D4 JUMPI DUP1 PUSH4 0xA053CE1F EQ PUSH2 0x1CA JUMPI DUP1 PUSH4 0xA42DCE80 EQ PUSH2 0x1CF JUMPI DUP1 PUSH4 0xBC9BBCD8 EQ PUSH2 0x1CA JUMPI DUP1 PUSH4 0xBE1B33C0 EQ PUSH2 0x1C5 JUMPI DUP1 PUSH4 0xC415B95C EQ PUSH2 0x1C0 JUMPI DUP1 PUSH4 0xCA4863FD EQ PUSH2 0x1BB JUMPI DUP1 PUSH4 0xCCCBB9B5 EQ PUSH2 0x1B6 JUMPI DUP1 PUSH4 0xD8378647 EQ PUSH2 0x1B6 JUMPI DUP1 PUSH4 0xDD5D1E3E EQ PUSH2 0x1B1 JUMPI DUP1 PUSH4 0xEEE9F20A EQ PUSH2 0x1AC JUMPI DUP1 PUSH4 0xF2FDE38B EQ PUSH2 0x1A7 JUMPI PUSH4 0xF3F43703 SUB PUSH2 0xE JUMPI JUMPDEST PUSH2 0xB6B JUMP JUMPDEST PUSH2 0x1233 JUMP JUMPDEST PUSH2 0x11CC JUMP JUMPDEST PUSH2 0x11B1 JUMP JUMPDEST PUSH2 0x1174 JUMP JUMPDEST PUSH2 0x1111 JUMP JUMPDEST PUSH2 0x10E8 JUMP JUMPDEST PUSH2 0x10C1 JUMP JUMPDEST PUSH2 0xFF9 JUMP JUMPDEST PUSH2 0x1017 JUMP JUMPDEST PUSH2 0xFDB JUMP JUMPDEST PUSH2 0x7D9 JUMP JUMPDEST PUSH2 0xFB2 JUMP JUMPDEST PUSH2 0xF8F JUMP JUMPDEST PUSH2 0xC96 JUMP JUMPDEST PUSH2 0xBA8 JUMP JUMPDEST PUSH2 0xB07 JUMP JUMPDEST PUSH2 0xAAC JUMP JUMPDEST PUSH2 0xA8E JUMP JUMPDEST PUSH2 0xA70 JUMP JUMPDEST PUSH2 0xA47 JUMP JUMPDEST PUSH2 0xA29 JUMP JUMPDEST PUSH2 0xA0B JUMP JUMPDEST PUSH2 0x98E JUMP JUMPDEST PUSH2 0x970 JUMP JUMPDEST PUSH2 0x8B1 JUMP JUMPDEST PUSH2 0x818 JUMP JUMPDEST PUSH2 0x422 JUMP JUMPDEST PUSH2 0x2CF JUMP JUMPDEST PUSH2 0x25B JUMP JUMPDEST CALLVALUE PUSH2 0x256 JUMPI PUSH1 0x0 CALLDATASIZE PUSH1 0x3 NOT ADD SLT PUSH2 0x256 JUMPI PUSH1 0x20 PUSH1 0xB SLOAD PUSH1 0x40 MLOAD SWAP1 DUP2 MSTORE RETURN JUMPDEST PUSH1 0x0 DUP1 REVERT JUMPDEST CALLVALUE PUSH2 0x256 JUMPI PUSH1 0x60 CALLDATASIZE PUSH1 0x3 NOT ADD SLT PUSH2 0x256 JUMPI PUSH32 0xA5801B007372D0623488A3AA478F88D8063BA2317686061E02CEA1BBA6E1EB2C PUSH1 0x24 CALLDATALOAD PUSH1 0x4 CALLDATALOAD PUSH2 0x2CA PUSH1 0x44 CALLDATALOAD PUSH2 0x2A1 PUSH2 0x12BF JUMP JUMPDEST DUP3 PUSH1 0x8 SSTORE DUP4 PUSH1 0x9 SSTORE DUP1 PUSH1 0xA SSTORE PUSH1 0x40 MLOAD SWAP4 DUP5 SWAP4 DUP5 PUSH1 0x40 SWAP2 SWAP5 SWAP4 SWAP3 PUSH1 0x60 DUP3 ADD SWAP6 DUP3 MSTORE PUSH1 0x20 DUP3 ADD MSTORE ADD MSTORE JUMP JUMPDEST SUB SWAP1 LOG1 STOP JUMPDEST CALLVALUE PUSH2 0x256 JUMPI PUSH1 0x0 CALLDATASIZE PUSH1 0x3 NOT ADD SLT PUSH2 0x256 JUMPI PUSH1 0x80 PUSH1 0x8 SLOAD PUSH1 0x9 SLOAD PUSH1 0xA SLOAD PUSH1 0xB SLOAD SWAP2 PUSH1 0x40 MLOAD SWAP4 DUP5 MSTORE PUSH1 0x20 DUP5 ADD MSTORE PUSH1 0x40 DUP4 ADD MSTORE PUSH1 0x60 DUP3 ADD MSTORE RETURN JUMPDEST SWAP2 DUP2 PUSH1 0x1F DUP5 ADD SLT ISZERO PUSH2 0x256 JUMPI DUP3 CALLDATALOAD SWAP2 PUSH8 0xFFFFFFFFFFFFFFFF DUP4 GT PUSH2 0x256 JUMPI PUSH1 0x20 DUP1 DUP6 ADD SWAP5 DUP5 PUSH1 0x6 SHL ADD ADD GT PUSH2 0x256 JUMPI JUMP JUMPDEST PUSH1 0x1 PUSH1 0x1 PUSH1 0xA0 SHL SUB DUP2 AND SUB PUSH2 0x256 JUMPI JUMP JUMPDEST PUSH1 0x0 JUMPDEST DUP4 DUP2 LT PUSH2 0x35B JUMPI POP POP PUSH1 0x0 SWAP2 ADD MSTORE JUMP JUMPDEST DUP2 DUP2 ADD MLOAD DUP4 DUP3 ADD MSTORE PUSH1 0x20 ADD PUSH2 0x34B JUMP JUMPDEST SWAP1 PUSH1 0x20 SWAP2 PUSH2 0x384 DUP2 MLOAD DUP1 SWAP3 DUP2 DUP6 MSTORE DUP6 DUP1 DUP7 ADD SWAP2 ADD PUSH2 0x348 JUMP JUMPDEST PUSH1 0x1F ADD PUSH1 0x1F NOT AND ADD ADD SWAP1 JUMP JUMPDEST PUSH1 0x20 DUP1 DUP3 ADD SWAP1 DUP1 DUP4 MSTORE DUP4 MLOAD DUP1 SWAP3 MSTORE PUSH1 0x40 SWAP3 DUP4 DUP2 ADD DUP3 DUP6 DUP6 PUSH1 0x5 SHL DUP5 ADD ADD SWAP7 ADD SWAP5 PUSH1 0x0 SWAP3 JUMPDEST DUP6 DUP5 LT PUSH2 0x3C5 JUMPI POP POP POP POP POP POP POP SWAP1 JUMP JUMPDEST SWAP1 SWAP2 SWAP3 SWAP4 SWAP5 SWAP6 SWAP7 DUP6 DUP1 PUSH2 0x411 PUSH1 0x1 SWAP4 PUSH1 0x3F NOT DUP7 DUP3 SUB ADD DUP9 MSTORE DUP12 MLOAD DUP6 DUP1 PUSH1 0xA0 SHL SUB DUP2 MLOAD AND DUP3 MSTORE DUP4 DUP2 ADD MLOAD DUP5 DUP4 ADD MSTORE DUP8 DUP2 ADD MLOAD ISZERO ISZERO DUP9 DUP4 ADD MSTORE PUSH1 0x60 DUP1 SWAP2 ADD MLOAD SWAP2 PUSH1 0x80 DUP1 SWAP3 DUP3 ADD MSTORE ADD SWAP1 PUSH2 0x36B JUMP JUMPDEST SWAP10 ADD SWAP5 ADD SWAP5 ADD SWAP3 SWAP6 SWAP5 SWAP4 SWAP2 SWAP1 PUSH2 0x3B4 JUMP JUMPDEST PUSH1 0x40 CALLDATASIZE PUSH1 0x3 NOT ADD SLT PUSH2 0x256 JUMPI PUSH1 0x4 CALLDATALOAD PUSH8 0xFFFFFFFFFFFFFFFF DUP2 GT PUSH2 0x256 JUMPI PUSH2 0x44E SWAP1 CALLDATASIZE SWAP1 PUSH1 0x4 ADD PUSH2 0x306 JUMP JUMPDEST SWAP1 PUSH1 0x24 CALLDATALOAD PUSH2 0x45B DUP2 PUSH2 0x337 JUMP JUMPDEST PUSH2 0x466 DUP4 ISZERO ISZERO PUSH2 0x13F6 JUMP JUMPDEST PUSH1 0x0 SWAP1 DUP2 JUMPDEST DUP5 DUP2 LT PUSH2 0x7B9 JUMPI POP SWAP1 PUSH2 0x49E PUSH2 0x4A3 SWAP3 PUSH2 0x499 PUSH2 0x491 PUSH2 0x48A DUP9 PUSH2 0x1326 JUMP JUMPDEST DUP1 SWAP6 PUSH2 0x1319 JUMP JUMPDEST CALLVALUE LT ISZERO PUSH2 0x146E JUMP JUMPDEST PUSH2 0x182E JUMP JUMPDEST PUSH2 0x190A JUMP JUMPDEST DUP1 PUSH2 0x742 JUMPI JUMPDEST POP SWAP1 PUSH2 0x4B4 DUP2 PUSH2 0x1543 JUMP JUMPDEST SWAP1 PUSH1 0x0 SWAP1 DUP2 SWAP1 DUP3 SWAP5 PUSH2 0x4D5 PUSH2 0x4CE PUSH1 0x8 SLOAD PUSH1 0xB SLOAD SWAP1 PUSH2 0x1301 JUMP JUMPDEST PUSH1 0x64 SWAP1 DIV SWAP1 JUMP JUMPDEST SWAP2 DUP5 JUMPDEST DUP2 DUP2 LT PUSH2 0x5AB JUMPI PUSH2 0x531 DUP8 DUP8 PUSH32 0x29D76740CBC89BBAA891F53C02A91144201CBD27541018F1222521904B8DC004 DUP12 DUP10 DUP2 PUSH2 0x535 JUMPI JUMPDEST PUSH1 0x40 DUP1 MLOAD SWAP5 DUP6 MSTORE PUSH1 0x20 DUP6 ADD SWAP2 SWAP1 SWAP2 MSTORE DUP4 ADD MSTORE CALLER SWAP2 PUSH1 0x60 SWAP1 LOG2 PUSH1 0x40 MLOAD SWAP2 DUP3 SWAP2 DUP3 PUSH2 0x390 JUMP JUMPDEST SUB SWAP1 RETURN JUMPDEST CALLER PUSH1 0x0 SWAP1 DUP2 MSTORE PUSH1 0x7 PUSH1 0x20 MSTORE PUSH1 0x40 SWAP1 KECCAK256 PUSH2 0x54F DUP4 DUP3 SLOAD PUSH2 0x1319 JUMP JUMPDEST SWAP1 SSTORE PUSH1 0x40 MLOAD PUSH32 0xEF14DA62CAFEBF322BDD38DF3AC0BDCC24FF3D69010B3334F3DF8F03EDC92CC2 CALLER SWAP2 DUP1 PUSH2 0x5A3 DUP7 DUP3 PUSH1 0x80 SWAP2 DUP2 MSTORE PUSH1 0x40 PUSH1 0x20 DUP3 ADD MSTORE PUSH1 0x6 PUSH1 0x40 DUP3 ADD MSTORE PUSH6 0x1C99599D5B99 PUSH1 0xD2 SHL PUSH1 0x60 DUP3 ADD MSTORE ADD SWAP1 JUMP JUMPDEST SUB SWAP1 LOG2 PUSH2 0x50D JUMP JUMPDEST DUP4 SWAP8 PUSH1 0x0 DUP1 DUP1 DUP1 DUP12 SWAP9 PUSH2 0x5C7 PUSH2 0x5C2 DUP9 DUP11 DUP13 PUSH2 0x1459 JUMP JUMPDEST PUSH2 0x15C1 JUMP JUMPDEST PUSH1 0x20 PUSH2 0x5D4 DUP10 DUP12 DUP14 PUSH2 0x1459 JUMP JUMPDEST ADD CALLDATALOAD SWAP2 CALL SWAP1 PUSH2 0x5E1 PUSH2 0x160B JUMP JUMPDEST PUSH1 0x60 DUP4 PUSH2 0x702 JUMPI POP PUSH32 0xA6DF5A078E66F7B0E1C1657E07C0D94DC5047762340D58AA99C7ACFE987F5475 DUP5 SWAP4 DUP8 PUSH2 0x6A1 DUP7 PUSH2 0x650 PUSH2 0x64A DUP3 SWAP9 PUSH2 0x6E5 SWAP12 DUP10 PUSH1 0x44 DUP16 SWAP12 MLOAD LT ISZERO PUSH1 0x0 EQ PUSH2 0x6EE JUMPI PUSH1 0x20 SWAP2 PUSH2 0x63B PUSH2 0x642 SWAP3 PUSH2 0x1A7D JUMP JUMPDEST SWAP12 DUP10 PUSH2 0x1459 JUMP JUMPDEST ADD CALLDATALOAD SWAP1 PUSH2 0x1319 JUMP JUMPDEST SWAP14 PUSH2 0x1434 JUMP JUMPDEST SWAP12 JUMPDEST PUSH1 0x20 PUSH2 0x66D DUP4 DUP14 PUSH2 0x667 PUSH2 0x5C2 DUP4 DUP4 DUP12 PUSH2 0x1459 JUMP JUMPDEST SWAP8 PUSH2 0x1459 JUMP JUMPDEST ADD CALLDATALOAD PUSH2 0x689 PUSH2 0x67A PUSH2 0x150B JUMP JUMPDEST PUSH1 0x1 PUSH1 0x1 PUSH1 0xA0 SHL SUB SWAP1 SWAP7 AND DUP7 MSTORE JUMP JUMPDEST PUSH1 0x20 DUP6 ADD MSTORE DUP5 ISZERO ISZERO PUSH1 0x40 DUP6 ADD MSTORE DUP7 PUSH1 0x60 DUP6 ADD MSTORE PUSH2 0x1666 JUMP JUMPDEST MSTORE PUSH2 0x6AC DUP5 DUP14 PUSH2 0x1666 JUMP JUMPDEST POP PUSH2 0x6BB PUSH2 0x5C2 DUP6 DUP10 DUP12 PUSH2 0x1459 JUMP JUMPDEST SWAP3 PUSH2 0x6DD PUSH1 0x20 PUSH2 0x6CC DUP8 DUP12 DUP14 PUSH2 0x1459 JUMP JUMPDEST ADD CALLDATALOAD SWAP2 PUSH1 0x40 MLOAD SWAP4 DUP5 SWAP4 CALLER SWAP8 DUP6 PUSH2 0x167A JUMP JUMPDEST SUB SWAP1 LOG3 PUSH2 0x1434 JUMP JUMPDEST SWAP7 SWAP3 SWAP4 SWAP7 PUSH2 0x4D8 JUMP JUMPDEST POP PUSH2 0x642 PUSH1 0x20 SWAP2 PUSH2 0x6FD PUSH2 0x163B JUMP JUMPDEST PUSH2 0x63B JUMP JUMPDEST SWAP1 POP PUSH32 0xA6DF5A078E66F7B0E1C1657E07C0D94DC5047762340D58AA99C7ACFE987F5475 DUP5 SWAP4 DUP8 PUSH2 0x6A1 DUP7 PUSH2 0x73C PUSH2 0x6E5 SWAP10 SWAP8 SWAP14 SWAP13 SWAP15 PUSH2 0x1434 JUMP JUMPDEST SWAP14 PUSH2 0x652 JUMP JUMPDEST CALLER PUSH1 0x0 SWAP1 DUP2 MSTORE PUSH1 0x7 PUSH1 0x20 MSTORE PUSH1 0x40 SWAP1 KECCAK256 PUSH2 0x75C DUP3 DUP3 SLOAD PUSH2 0x1319 JUMP JUMPDEST SWAP1 SSTORE PUSH32 0xEF14DA62CAFEBF322BDD38DF3AC0BDCC24FF3D69010B3334F3DF8F03EDC92CC2 PUSH1 0x40 MLOAD DUP1 PUSH2 0x7B0 CALLER SWAP5 DUP3 PUSH1 0x80 SWAP2 DUP2 MSTORE PUSH1 0x40 PUSH1 0x20 DUP3 ADD MSTORE PUSH1 0x7 PUSH1 0x40 DUP3 ADD MSTORE PUSH7 0x737572706C7573 PUSH1 0xC8 SHL PUSH1 0x60 DUP3 ADD MSTORE ADD SWAP1 JUMP JUMPDEST SUB SWAP1 LOG2 CODESIZE PUSH2 0x4A9 JUMP JUMPDEST SWAP2 PUSH2 0x7CE PUSH2 0x7D4 SWAP2 PUSH1 0x20 PUSH2 0x642 DUP7 DUP10 DUP10 PUSH2 0x1459 JUMP JUMPDEST SWAP3 PUSH2 0x1434 JUMP JUMPDEST PUSH2 0x46B JUMP JUMPDEST CALLVALUE PUSH2 0x256 JUMPI PUSH1 0x20 CALLDATASIZE PUSH1 0x3 NOT ADD SLT PUSH2 0x256 JUMPI PUSH1 0x20 PUSH1 0x4 CALLDATALOAD PUSH2 0x7F8 DUP2 PUSH2 0x337 JUMP JUMPDEST PUSH1 0x1 DUP1 PUSH1 0xA0 SHL SUB DUP1 SWAP2 AND PUSH1 0x0 MSTORE PUSH1 0x6 DUP3 MSTORE PUSH1 0x40 PUSH1 0x0 KECCAK256 SLOAD AND PUSH1 0x40 MLOAD SWAP1 DUP2 MSTORE RETURN JUMPDEST CALLVALUE PUSH2 0x256 JUMPI PUSH1 0x20 CALLDATASIZE PUSH1 0x3 NOT ADD SLT PUSH2 0x256 JUMPI PUSH1 0x4 CALLDATALOAD PUSH2 0x834 PUSH2 0x12BF JUMP JUMPDEST PUSH1 0x64 DUP2 LT PUSH2 0x875 JUMPI PUSH1 0xB SLOAD PUSH1 0x40 DUP1 MLOAD SWAP2 DUP3 MSTORE PUSH1 0x20 DUP3 ADD DUP4 SWAP1 MSTORE PUSH32 0x9B089BC99EC16BC0ED0E841C1E4AFD5C8D686F9C6E6C82EE7ABBC47B7A47B7BC SWAP2 LOG1 PUSH1 0xB SSTORE STOP JUMPDEST PUSH1 0x40 MLOAD PUSH3 0x461BCD PUSH1 0xE5 SHL DUP2 MSTORE PUSH1 0x20 PUSH1 0x4 DUP3 ADD MSTORE PUSH1 0x14 PUSH1 0x24 DUP3 ADD MSTORE PUSH20 0x526174696F206D757374206265203E3D2031303 PUSH1 0x64 SHL PUSH1 0x44 DUP3 ADD MSTORE PUSH1 0x64 SWAP1 REVERT JUMPDEST CALLVALUE PUSH2 0x256 JUMPI PUSH1 0x0 DUP1 PUSH1 0x3 NOT CALLDATASIZE ADD SLT PUSH2 0x96D JUMPI CALLER DUP2 MSTORE PUSH1 0x7 PUSH1 0x20 MSTORE PUSH1 0x40 DUP2 KECCAK256 SLOAD DUP1 ISZERO PUSH2 0x932 JUMPI CALLER PUSH1 0x0 SWAP1 DUP2 MSTORE PUSH1 0x7 PUSH1 0x20 MSTORE PUSH1 0x40 SWAP1 KECCAK256 DUP3 SWAP1 SSTORE PUSH2 0x901 DUP3 DUP1 DUP1 DUP1 DUP6 CALLER GAS CALL PUSH2 0x8FB PUSH2 0x160B JUMP JUMPDEST POP PUSH2 0x17B4 JUMP JUMPDEST PUSH1 0x40 MLOAD SWAP1 DUP2 MSTORE CALLER SWAP1 PUSH32 0xEF37270FFD4697852E825C7F163A2505CFBD2D7849A69B6AD9C8829D7F90484A SWAP1 PUSH1 0x20 SWAP1 LOG2 DUP1 RETURN JUMPDEST PUSH1 0x40 MLOAD PUSH3 0x461BCD PUSH1 0xE5 SHL DUP2 MSTORE PUSH1 0x20 PUSH1 0x4 DUP3 ADD MSTORE PUSH1 0x13 PUSH1 0x24 DUP3 ADD MSTORE PUSH19 0x4E6F7468696E6720746F207769746864726177 PUSH1 0x68 SHL PUSH1 0x44 DUP3 ADD MSTORE PUSH1 0x64 SWAP1 REVERT JUMPDEST DUP1 REVERT JUMPDEST CALLVALUE PUSH2 0x256 JUMPI PUSH1 0x0 CALLDATASIZE PUSH1 0x3 NOT ADD SLT PUSH2 0x256 JUMPI PUSH1 0x20 PUSH1 0x3 SLOAD PUSH1 0x40 MLOAD SWAP1 DUP2 MSTORE RETURN JUMPDEST CALLVALUE PUSH2 0x256 JUMPI PUSH1 0x40 CALLDATASIZE PUSH1 0x3 NOT ADD SLT PUSH2 0x256 JUMPI PUSH1 0x4 CALLDATALOAD PUSH2 0x9AB DUP2 PUSH2 0x337 JUMP JUMPDEST PUSH32 0x2920CDC2CDA3871D3B54294B7E38E403636917C549F9C6960686677819F173DE PUSH1 0x20 PUSH1 0x24 CALLDATALOAD SWAP3 PUSH2 0x9DA PUSH2 0x12BF JUMP JUMPDEST PUSH2 0x9E8 PUSH2 0x2710 DUP6 GT ISZERO PUSH2 0x17F2 JUMP JUMPDEST PUSH1 0x1 PUSH1 0x1 PUSH1 0xA0 SHL SUB AND PUSH1 0x0 DUP2 DUP2 MSTORE PUSH1 0x5 DUP4 MSTORE PUSH1 0x40 SWAP1 DUP2 SWAP1 KECCAK256 DUP6 SWAP1 SSTORE MLOAD SWAP4 DUP5 MSTORE SWAP3 LOG2 STOP JUMPDEST CALLVALUE PUSH2 0x256 JUMPI PUSH1 0x0 CALLDATASIZE PUSH1 0x3 NOT ADD SLT PUSH2 0x256 JUMPI PUSH1 0x20 PUSH1 0xA SLOAD PUSH1 0x40 MLOAD SWAP1 DUP2 MSTORE RETURN JUMPDEST CALLVALUE PUSH2 0x256 JUMPI PUSH1 0x0 CALLDATASIZE PUSH1 0x3 NOT ADD SLT PUSH2 0x256 JUMPI PUSH1 0x20 PUSH1 0x9 SLOAD PUSH1 0x40 MLOAD SWAP1 DUP2 MSTORE RETURN JUMPDEST CALLVALUE PUSH2 0x256 JUMPI PUSH1 0x0 CALLDATASIZE PUSH1 0x3 NOT ADD SLT PUSH2 0x256 JUMPI PUSH1 0x2 SLOAD PUSH1 0x3 SLOAD PUSH1 0x40 DUP1 MLOAD SWAP3 DUP4 MSTORE PUSH1 0x20 DUP4 ADD SWAP2 SWAP1 SWAP2 MSTORE SWAP1 RETURN JUMPDEST CALLVALUE PUSH2 0x256 JUMPI PUSH1 0x0 CALLDATASIZE PUSH1 0x3 NOT ADD SLT PUSH2 0x256 JUMPI PUSH1 0x20 PUSH1 0x8 SLOAD PUSH1 0x40 MLOAD SWAP1 DUP2 MSTORE RETURN JUMPDEST CALLVALUE PUSH2 0x256 JUMPI PUSH1 0x0 CALLDATASIZE PUSH1 0x3 NOT ADD SLT PUSH2 0x256 JUMPI PUSH1 0x20 PUSH1 0x2 SLOAD PUSH1 0x40 MLOAD SWAP1 DUP2 MSTORE RETURN JUMPDEST CALLVALUE PUSH2 0x256 JUMPI PUSH1 0x0 DUP1 PUSH1 0x3 NOT CALLDATASIZE ADD SLT PUSH2 0x96D JUMPI PUSH2 0xAC6 PUSH2 0x12BF JUMP JUMPDEST DUP1 SLOAD PUSH1 0x1 PUSH1 0x1 PUSH1 0xA0 SHL SUB NOT DUP2 AND DUP3 SSTORE DUP2 SWAP1 PUSH1 0x1 PUSH1 0x1 PUSH1 0xA0 SHL SUB AND PUSH32 0x8BE0079C531659141344CD1FD0A4F28419497F9722A3DAAFE3B4186F6B6457E0 DUP3 DUP1 LOG3 DUP1 RETURN JUMPDEST CALLVALUE PUSH2 0x256 JUMPI PUSH1 0x40 CALLDATASIZE PUSH1 0x3 NOT ADD SLT PUSH2 0x256 JUMPI PUSH32 0x1EAB951DA250F7E001396235B296E29BC73945B6A52FD471DD8F3DE3398634BE PUSH1 0x24 CALLDATALOAD PUSH1 0x4 CALLDATALOAD PUSH2 0xB47 PUSH2 0x12BF JUMP JUMPDEST DUP1 PUSH1 0x2 SSTORE DUP2 PUSH1 0x3 SSTORE PUSH2 0x2CA PUSH1 0x40 MLOAD SWAP3 DUP4 SWAP3 DUP4 PUSH1 0x20 SWAP1 SWAP4 SWAP3 SWAP2 SWAP4 PUSH1 0x40 DUP2 ADD SWAP5 DUP2 MSTORE ADD MSTORE JUMP JUMPDEST CALLVALUE PUSH2 0x256 JUMPI PUSH1 0x20 CALLDATASIZE PUSH1 0x3 NOT ADD SLT PUSH2 0x256 JUMPI PUSH1 0x4 CALLDATALOAD PUSH2 0xB88 DUP2 PUSH2 0x337 JUMP JUMPDEST PUSH1 0x1 DUP1 PUSH1 0xA0 SHL SUB AND PUSH1 0x0 MSTORE PUSH1 0x7 PUSH1 0x20 MSTORE PUSH1 0x20 PUSH1 0x40 PUSH1 0x0 KECCAK256 SLOAD PUSH1 0x40 MLOAD SWAP1 DUP2 MSTORE RETURN JUMPDEST CALLVALUE PUSH2 0x256 JUMPI PUSH1 0x80 CALLDATASIZE PUSH1 0x3 NOT ADD SLT PUSH2 0x256 JUMPI PUSH1 0x4 CALLDATALOAD PUSH2 0xBC5 DUP2 PUSH2 0x337 JUMP JUMPDEST PUSH1 0x24 CALLDATALOAD SWAP1 PUSH2 0xBD2 DUP3 PUSH2 0x337 JUMP JUMPDEST PUSH1 0x20 PUSH2 0xC23 PUSH2 0xC31 PUSH1 0x44 CALLDATALOAD SWAP5 PUSH2 0xBE7 DUP7 PUSH2 0x337 JUMP JUMPDEST PUSH1 0x40 MLOAD PUSH4 0x23B872DD PUSH1 0xE0 SHL DUP6 DUP3 ADD SWAP1 DUP2 MSTORE PUSH1 0x1 PUSH1 0x1 PUSH1 0xA0 SHL SUB SWAP3 DUP4 AND PUSH1 0x24 DUP4 ADD MSTORE SWAP7 SWAP1 SWAP2 AND PUSH1 0x44 DUP3 ADD MSTORE PUSH1 0x64 DUP1 CALLDATALOAD SWAP1 DUP3 ADD MSTORE SWAP2 DUP3 SWAP1 PUSH1 0x84 DUP3 ADD SWAP1 JUMP JUMPDEST SUB PUSH1 0x1F NOT DUP2 ADD DUP4 MSTORE DUP3 PUSH2 0x14E9 JUMP JUMPDEST PUSH1 0x0 SWAP4 DUP5 SWAP2 MLOAD SWAP1 DUP3 DUP6 GAS CALL ISZERO PUSH2 0xC89 JUMPI DUP2 MLOAD RETURNDATASIZE PUSH2 0xC80 JUMPI POP PUSH1 0x1 PUSH1 0x1 PUSH1 0xA0 SHL SUB DUP2 AND EXTCODESIZE ISZERO JUMPDEST PUSH2 0xC5E JUMPI POP DUP1 RETURN JUMPDEST PUSH1 0x40 MLOAD PUSH4 0x5274AFE7 PUSH1 0xE0 SHL DUP2 MSTORE PUSH1 0x1 PUSH1 0x1 PUSH1 0xA0 SHL SUB SWAP1 SWAP2 AND PUSH1 0x4 DUP3 ADD MSTORE PUSH1 0x24 SWAP1 REVERT JUMPDEST PUSH1 0x1 EQ ISZERO PUSH2 0xC56 JUMP JUMPDEST POP PUSH1 0x40 MLOAD SWAP1 RETURNDATASIZE SWAP1 DUP3 RETURNDATACOPY RETURNDATASIZE SWAP1 REVERT JUMPDEST PUSH1 0x60 DUP1 PUSH1 0x3 NOT CALLDATASIZE ADD SLT PUSH2 0x256 JUMPI PUSH1 0x4 SWAP1 DUP2 CALLDATALOAD SWAP1 PUSH2 0xCB2 DUP3 PUSH2 0x337 JUMP JUMPDEST PUSH1 0x24 CALLDATALOAD PUSH8 0xFFFFFFFFFFFFFFFF DUP2 GT PUSH2 0x256 JUMPI SWAP2 PUSH2 0xCD3 DUP5 SWAP4 CALLDATASIZE SWAP1 DUP6 ADD PUSH2 0x306 JUMP JUMPDEST SWAP4 PUSH2 0xD07 PUSH1 0x44 CALLDATALOAD PUSH2 0xCE3 DUP2 PUSH2 0x337 JUMP JUMPDEST PUSH2 0xCEE DUP8 ISZERO ISZERO PUSH2 0x13F6 JUMP JUMPDEST PUSH2 0x49E PUSH2 0xCFA DUP9 PUSH2 0x1326 JUMP JUMPDEST SWAP2 PUSH2 0x499 DUP4 CALLVALUE LT ISZERO PUSH2 0x16A7 JUMP JUMPDEST POP PUSH2 0xD11 DUP6 PUSH2 0x1543 JUMP JUMPDEST SWAP4 PUSH1 0x1 PUSH1 0x1 PUSH1 0xA0 SHL SUB SWAP1 SWAP4 AND SWAP3 PUSH1 0x0 SWAP3 DUP4 SWAP3 SWAP1 DUP4 JUMPDEST DUP9 DUP2 LT PUSH2 0xD75 JUMPI PUSH1 0x40 DUP1 MLOAD DUP8 DUP2 MSTORE PUSH1 0x20 DUP2 ADD DUP8 SWAP1 MSTORE PUSH2 0x531 SWAP2 DUP11 SWAP2 DUP11 SWAP2 CALLER SWAP2 PUSH32 0xF3DFB960931CB4C24BF2DD9E40374AC223DFB046C20DED274E863CC630308FC9 SWAP2 SWAP1 LOG3 PUSH1 0x40 MLOAD SWAP2 DUP3 SWAP2 DUP3 PUSH2 0x390 JUMP JUMPDEST DUP9 PUSH2 0xD84 PUSH2 0x5C2 DUP4 DUP4 DUP7 PUSH2 0x1459 JUMP JUMPDEST PUSH1 0x20 PUSH2 0xDD8 DUP2 DUP1 PUSH2 0xD96 DUP8 DUP8 DUP11 PUSH2 0x1459 JUMP JUMPDEST PUSH1 0x40 DUP1 MLOAD PUSH4 0x23B872DD PUSH1 0xE0 SHL DUP2 MSTORE CALLER DUP2 DUP14 ADD SWAP1 DUP2 MSTORE PUSH1 0x1 PUSH1 0x1 PUSH1 0xA0 SHL SUB SWAP1 SWAP9 AND PUSH1 0x20 DUP10 ADD MSTORE SWAP3 SWAP1 SWAP2 ADD CALLDATALOAD DUP7 DUP3 ADD MSTORE SWAP5 SWAP1 SWAP3 DUP4 SWAP2 DUP15 SWAP2 DUP4 SWAP2 PUSH1 0x0 SWAP2 DUP4 SWAP2 PUSH1 0x60 ADD SWAP1 JUMP JUMPDEST SUB SWAP3 GAS CALL SWAP1 DUP2 PUSH2 0xF62 JUMPI JUMPDEST POP PUSH2 0xF01 JUMPI PUSH1 0x1 PUSH2 0xDF2 PUSH2 0x16FE JUMP JUMPDEST PUSH4 0x8C379A0 EQ PUSH2 0xE80 JUMPI JUMPDEST PUSH2 0xE13 JUMPI JUMPDEST POP POP POP PUSH2 0xE0E SWAP1 PUSH2 0x1434 JUMP JUMPDEST PUSH2 0xD26 JUMP JUMPDEST SWAP2 PUSH1 0x0 DUP5 SWAP9 SWAP3 DUP5 PUSH2 0xE75 SWAP6 PUSH2 0xE3A DUP9 PUSH2 0xE33 PUSH2 0x5C2 PUSH2 0xE0E SWAP12 DUP10 DUP15 PUSH2 0x1459 JUMP JUMPDEST SWAP7 DUP12 PUSH2 0x1459 JUMP JUMPDEST ADD CALLDATALOAD SWAP1 PUSH2 0xE48 PUSH2 0x67A PUSH2 0x150B JUMP JUMPDEST DUP5 ADD MSTORE DUP3 ADD MSTORE PUSH2 0xE56 PUSH2 0x178B JUMP JUMPDEST DUP8 DUP3 ADD MSTORE PUSH2 0xE64 DUP9 DUP13 PUSH2 0x1666 JUMP JUMPDEST MSTORE PUSH2 0xE6F DUP8 DUP12 PUSH2 0x1666 JUMP JUMPDEST POP PUSH2 0x1434 JUMP JUMPDEST SWAP5 SWAP1 POP DUP9 DUP11 DUP1 PUSH2 0xE02 JUMP JUMPDEST DUP12 PUSH2 0xE89 PUSH2 0x171C JUMP JUMPDEST SWAP1 DUP2 PUSH2 0xE97 JUMPI JUMPDEST POP POP PUSH2 0xDFD JUMP JUMPDEST PUSH2 0xEF9 SWAP3 POP DUP7 PUSH2 0xE6F SWAP2 DUP10 PUSH1 0x0 SWAP14 SWAP5 DUP15 DUP9 PUSH2 0xEC1 DUP7 DUP14 PUSH2 0xEBB PUSH2 0x5C2 DUP4 DUP4 DUP11 PUSH2 0x1459 JUMP JUMPDEST SWAP7 PUSH2 0x1459 JUMP JUMPDEST ADD CALLDATALOAD PUSH2 0xEDD PUSH2 0xECE PUSH2 0x150B JUMP JUMPDEST PUSH1 0x1 PUSH1 0x1 PUSH1 0xA0 SHL SUB SWAP1 SWAP6 AND DUP6 MSTORE JUMP JUMPDEST DUP10 DUP5 ADD MSTORE DUP10 DUP4 ADD MSTORE DUP14 DUP3 ADD MSTORE PUSH2 0xEF3 DUP4 DUP4 PUSH2 0x1666 JUMP JUMPDEST MSTORE PUSH2 0x1666 JUMP JUMPDEST SWAP8 DUP14 DUP13 PUSH2 0xE90 JUMP JUMPDEST SWAP2 PUSH2 0xF3B DUP5 SWAP10 SWAP3 DUP5 PUSH2 0xF5C SWAP6 PUSH2 0xF22 DUP9 PUSH2 0xE33 PUSH2 0x5C2 PUSH2 0xE0E SWAP12 DUP10 DUP15 PUSH2 0x1459 JUMP JUMPDEST ADD CALLDATALOAD SWAP1 PUSH2 0xF30 PUSH2 0x67A PUSH2 0x150B JUMP JUMPDEST DUP5 ADD MSTORE DUP3 ADD PUSH1 0x1 SWAP1 MSTORE JUMP JUMPDEST PUSH2 0xF43 PUSH2 0x15E7 JUMP JUMPDEST DUP8 DUP3 ADD MSTORE PUSH2 0xF51 DUP10 DUP13 PUSH2 0x1666 JUMP JUMPDEST MSTORE PUSH2 0xE6F DUP9 DUP12 PUSH2 0x1666 JUMP JUMPDEST SWAP6 PUSH2 0x1434 JUMP JUMPDEST PUSH2 0xF81 SWAP1 DUP4 RETURNDATASIZE DUP6 GT PUSH2 0xF88 JUMPI JUMPDEST PUSH2 0xF79 DUP2 DUP4 PUSH2 0x14E9 JUMP JUMPDEST DUP2 ADD SWAP1 PUSH2 0x16E6 JUMP JUMPDEST POP DUP14 PUSH2 0xDE3 JUMP JUMPDEST POP RETURNDATASIZE PUSH2 0xF6F JUMP JUMPDEST CALLVALUE PUSH2 0x256 JUMPI PUSH1 0x0 CALLDATASIZE PUSH1 0x3 NOT ADD SLT PUSH2 0x256 JUMPI PUSH1 0x20 PUSH2 0xFAA PUSH2 0x1361 JUMP JUMPDEST PUSH1 0x40 MLOAD SWAP1 DUP2 MSTORE RETURN JUMPDEST CALLVALUE PUSH2 0x256 JUMPI PUSH1 0x0 CALLDATASIZE PUSH1 0x3 NOT ADD SLT PUSH2 0x256 JUMPI PUSH1 0x0 SLOAD PUSH1 0x40 MLOAD PUSH1 0x1 PUSH1 0x1 PUSH1 0xA0 SHL SUB SWAP1 SWAP2 AND DUP2 MSTORE PUSH1 0x20 SWAP1 RETURN JUMPDEST CALLVALUE PUSH2 0x256 JUMPI PUSH1 0x20 CALLDATASIZE PUSH1 0x3 NOT ADD SLT PUSH2 0x256 JUMPI PUSH1 0x20 PUSH2 0xFAA PUSH1 0x4 CALLDATALOAD PUSH2 0x1326 JUMP JUMPDEST CALLVALUE PUSH2 0x256 JUMPI PUSH1 0x0 CALLDATASIZE PUSH1 0x3 NOT ADD SLT PUSH2 0x256 JUMPI PUSH1 0x20 PUSH1 0x4 SLOAD PUSH1 0x40 MLOAD SWAP1 DUP2 MSTORE RETURN JUMPDEST CALLVALUE PUSH2 0x256 JUMPI PUSH1 0x20 CALLDATASIZE PUSH1 0x3 NOT ADD SLT PUSH2 0x256 JUMPI PUSH1 0x4 CALLDATALOAD PUSH2 0x1034 DUP2 PUSH2 0x337 JUMP JUMPDEST PUSH2 0x103C PUSH2 0x12BF JUMP JUMPDEST PUSH1 0x1 PUSH1 0x1 PUSH1 0xA0 SHL SUB SWAP1 DUP2 AND SWAP1 DUP2 ISZERO PUSH2 0x108A JUMPI DUP2 PUSH1 0x1 SLOAD SWAP2 DUP3 AND PUSH32 0x5D16AD41BAEB009CD23EB8F6C7CDE5C2E0CD5ACF4A33926AB488875C37C37F38 PUSH1 0x0 DUP1 LOG3 PUSH1 0x1 PUSH1 0x1 PUSH1 0xA0 SHL SUB NOT AND OR PUSH1 0x1 SSTORE STOP JUMPDEST PUSH1 0x40 MLOAD PUSH3 0x461BCD PUSH1 0xE5 SHL DUP2 MSTORE PUSH1 0x20 PUSH1 0x4 DUP3 ADD MSTORE PUSH1 0xF PUSH1 0x24 DUP3 ADD MSTORE PUSH15 0x496E76616C69642061646472657373 PUSH1 0x88 SHL PUSH1 0x44 DUP3 ADD MSTORE PUSH1 0x64 SWAP1 REVERT JUMPDEST CALLVALUE PUSH2 0x256 JUMPI PUSH1 0x20 CALLDATASIZE PUSH1 0x3 NOT ADD SLT PUSH2 0x256 JUMPI PUSH1 0x20 PUSH2 0xFAA PUSH1 0x4 CALLDATALOAD PUSH2 0x10E3 DUP2 PUSH2 0x337 JUMP JUMPDEST PUSH2 0x13CE JUMP JUMPDEST CALLVALUE PUSH2 0x256 JUMPI PUSH1 0x0 CALLDATASIZE PUSH1 0x3 NOT ADD SLT PUSH2 0x256 JUMPI PUSH1 0x1 SLOAD PUSH1 0x40 MLOAD PUSH1 0x1 PUSH1 0x1 PUSH1 0xA0 SHL SUB SWAP1 SWAP2 AND DUP2 MSTORE PUSH1 0x20 SWAP1 RETURN JUMPDEST CALLVALUE PUSH2 0x256 JUMPI PUSH1 0x20 CALLDATASIZE PUSH1 0x3 NOT ADD SLT PUSH2 0x256 JUMPI PUSH1 0x4 CALLDATALOAD PUSH2 0x112D PUSH2 0x12BF JUMP JUMPDEST PUSH2 0x113B PUSH2 0x2710 DUP3 GT ISZERO PUSH2 0x17F2 JUMP JUMPDEST PUSH1 0x4 SLOAD PUSH1 0x40 DUP1 MLOAD SWAP2 DUP3 MSTORE PUSH1 0x20 DUP3 ADD DUP4 SWAP1 MSTORE PUSH32 0x9F954E76FD757F4D7BF028F3BBC26DEFF901086A8FD3E4D197576D0D4EB05267 SWAP2 LOG1 PUSH1 0x4 SSTORE STOP JUMPDEST CALLVALUE PUSH2 0x256 JUMPI PUSH1 0x20 CALLDATASIZE PUSH1 0x3 NOT ADD SLT PUSH2 0x256 JUMPI PUSH1 0x4 CALLDATALOAD PUSH2 0x1191 DUP2 PUSH2 0x337 JUMP JUMPDEST PUSH1 0x1 DUP1 PUSH1 0xA0 SHL SUB AND PUSH1 0x0 MSTORE PUSH1 0x5 PUSH1 0x20 MSTORE PUSH1 0x20 PUSH1 0x40 PUSH1 0x0 KECCAK256 SLOAD PUSH1 0x40 MLOAD SWAP1 DUP2 MSTORE RETURN JUMPDEST CALLVALUE PUSH2 0x256 JUMPI PUSH1 0x0 CALLDATASIZE PUSH1 0x3 NOT ADD SLT PUSH2 0x256 JUMPI PUSH1 0x20 PUSH2 0xFAA PUSH2 0x139C JUMP JUMPDEST CALLVALUE PUSH2 0x256 JUMPI PUSH1 0x20 CALLDATASIZE PUSH1 0x3 NOT ADD SLT PUSH2 0x256 JUMPI PUSH1 0x4 CALLDATALOAD PUSH2 0x11E9 DUP2 PUSH2 0x337 JUMP JUMPDEST PUSH2 0x11F1 PUSH2 0x12BF JUMP JUMPDEST PUSH1 0x1 PUSH1 0x1 PUSH1 0xA0 SHL SUB AND PUSH1 0x0 DUP2 DUP2 MSTORE PUSH1 0x5 PUSH1 0x20 MSTORE PUSH1 0x40 DUP2 KECCAK256 DUP2 SWAP1 SSTORE SWAP1 PUSH32 0xB2845C69C6AEC6B30D59E97655473A5B6DC306D19ECB63422074FB2E8B186BCF DUP3 DUP1 LOG2 DUP1 RETURN JUMPDEST CALLVALUE PUSH2 0x256 JUMPI PUSH1 0x20 CALLDATASIZE PUSH1 0x3 NOT ADD SLT PUSH2 0x256 JUMPI PUSH1 0x4 CALLDATALOAD PUSH2 0x1250 DUP2 PUSH2 0x337 JUMP JUMPDEST PUSH2 0x1258 PUSH2 0x12BF JUMP JUMPDEST PUSH1 0x1 PUSH1 0x1 PUSH1 0xA0 SHL SUB SWAP1 DUP2 AND DUP1 ISZERO PUSH2 0x12A6 JUMPI PUSH1 0x0 DUP1 SLOAD PUSH1 0x1 PUSH1 0x1 PUSH1 0xA0 SHL SUB NOT DUP2 AND DUP4 OR DUP3 SSTORE SWAP1 SWAP3 AND PUSH32 0x8BE0079C531659141344CD1FD0A4F28419497F9722A3DAAFE3B4186F6B6457E0 DUP4 DUP1 LOG3 DUP1 RETURN JUMPDEST PUSH1 0x40 MLOAD PUSH4 0x1E4FBDF7 PUSH1 0xE0 SHL DUP2 MSTORE PUSH1 0x0 PUSH1 0x4 DUP3 ADD MSTORE PUSH1 0x24 SWAP1 REVERT JUMPDEST PUSH1 0x0 SLOAD PUSH1 0x1 PUSH1 0x1 PUSH1 0xA0 SHL SUB AND CALLER SUB PUSH2 0x12D3 JUMPI JUMP JUMPDEST PUSH1 0x40 MLOAD PUSH4 0x118CDAA7 PUSH1 0xE0 SHL DUP2 MSTORE CALLER PUSH1 0x4 DUP3 ADD MSTORE PUSH1 0x24 SWAP1 REVERT JUMPDEST PUSH4 0x4E487B71 PUSH1 0xE0 SHL PUSH1 0x0 MSTORE PUSH1 0x11 PUSH1 0x4 MSTORE PUSH1 0x24 PUSH1 0x0 REVERT JUMPDEST DUP2 DUP2 MUL SWAP3 SWAP2 DUP2 ISZERO SWAP2 DUP5 DIV EQ OR ISZERO PUSH2 0x1314 JUMPI JUMP JUMPDEST PUSH2 0x12EB JUMP JUMPDEST SWAP2 SWAP1 DUP3 ADD DUP1 SWAP3 GT PUSH2 0x1314 JUMPI JUMP JUMPDEST PUSH2 0x1335 PUSH1 0x2 SLOAD SWAP2 PUSH1 0x3 SLOAD PUSH2 0x1301 JUMP JUMPDEST DUP2 ADD DUP1 SWAP2 GT PUSH2 0x1314 JUMPI SWAP1 JUMP JUMPDEST DUP2 ISZERO PUSH2 0x134B JUMPI DIV SWAP1 JUMP JUMPDEST PUSH4 0x4E487B71 PUSH1 0xE0 SHL PUSH1 0x0 MSTORE PUSH1 0x12 PUSH1 0x4 MSTORE PUSH1 0x24 PUSH1 0x0 REVERT JUMPDEST PUSH1 0x8 SLOAD DUP1 ISZERO PUSH2 0x1395 JUMPI PUSH1 0x64 GASLIMIT MUL GASLIMIT DUP2 DIV PUSH1 0x64 EQ GASLIMIT ISZERO OR ISZERO PUSH2 0x1314 JUMPI PUSH2 0x138C PUSH2 0x1392 SWAP3 PUSH1 0xB SLOAD SWAP1 PUSH2 0x1301 JUMP JUMPDEST SWAP1 PUSH2 0x1341 JUMP JUMPDEST SWAP1 JUMP JUMPDEST POP PUSH2 0x1F4 SWAP1 JUMP JUMPDEST PUSH1 0x9 SLOAD DUP1 ISZERO PUSH2 0x13C7 JUMPI PUSH1 0x64 GASLIMIT MUL GASLIMIT DUP2 DIV PUSH1 0x64 EQ GASLIMIT ISZERO OR ISZERO PUSH2 0x1314 JUMPI PUSH2 0x138C PUSH2 0x1392 SWAP3 PUSH1 0xB SLOAD SWAP1 PUSH2 0x1301 JUMP JUMPDEST POP PUSH2 0x12C SWAP1 JUMP JUMPDEST PUSH1 0x1 PUSH1 0x1 PUSH1 0xA0 SHL SUB AND PUSH1 0x0 SWAP1 DUP2 MSTORE PUSH1 0x5 PUSH1 0x20 MSTORE PUSH1 0x40 SWAP1 KECCAK256 SLOAD DUP1 ISZERO PUSH2 0x13EF JUMPI SWAP1 JUMP JUMPDEST POP PUSH1 0x4 SLOAD SWAP1 JUMP JUMPDEST ISZERO PUSH2 0x13FD JUMPI JUMP JUMPDEST PUSH1 0x40 MLOAD PUSH3 0x461BCD PUSH1 0xE5 SHL DUP2 MSTORE PUSH1 0x20 PUSH1 0x4 DUP3 ADD MSTORE PUSH1 0xF PUSH1 0x24 DUP3 ADD MSTORE PUSH15 0x456D707479207472616E7366657273 PUSH1 0x88 SHL PUSH1 0x44 DUP3 ADD MSTORE PUSH1 0x64 SWAP1 REVERT JUMPDEST PUSH1 0x0 NOT DUP2 EQ PUSH2 0x1314 JUMPI PUSH1 0x1 ADD SWAP1 JUMP JUMPDEST PUSH4 0x4E487B71 PUSH1 0xE0 SHL PUSH1 0x0 MSTORE PUSH1 0x32 PUSH1 0x4 MSTORE PUSH1 0x24 PUSH1 0x0 REVERT JUMPDEST SWAP2 SWAP1 DUP2 LT ISZERO PUSH2 0x1469 JUMPI PUSH1 0x6 SHL ADD SWAP1 JUMP JUMPDEST PUSH2 0x1443 JUMP JUMPDEST ISZERO PUSH2 0x1475 JUMPI JUMP JUMPDEST PUSH1 0x40 MLOAD PUSH3 0x461BCD PUSH1 0xE5 SHL DUP2 MSTORE PUSH1 0x20 PUSH1 0x4 DUP3 ADD MSTORE PUSH1 0x15 PUSH1 0x24 DUP3 ADD MSTORE PUSH21 0x125B9CDD59999A58DA595B9D08115512081CD95B9D PUSH1 0x5A SHL PUSH1 0x44 DUP3 ADD MSTORE PUSH1 0x64 SWAP1 REVERT JUMPDEST PUSH4 0x4E487B71 PUSH1 0xE0 SHL PUSH1 0x0 MSTORE PUSH1 0x41 PUSH1 0x4 MSTORE PUSH1 0x24 PUSH1 0x0 REVERT JUMPDEST PUSH1 0x40 DUP2 ADD SWAP1 DUP2 LT PUSH8 0xFFFFFFFFFFFFFFFF DUP3 GT OR PUSH2 0x14E4 JUMPI PUSH1 0x40 MSTORE JUMP JUMPDEST PUSH2 0x14B2 JUMP JUMPDEST SWAP1 PUSH1 0x1F DUP1 NOT SWAP2 ADD AND DUP2 ADD SWAP1 DUP2 LT PUSH8 0xFFFFFFFFFFFFFFFF DUP3 GT OR PUSH2 0x14E4 JUMPI PUSH1 0x40 MSTORE JUMP JUMPDEST PUSH1 0x40 MLOAD SWAP1 PUSH1 0x80 DUP3 ADD DUP3 DUP2 LT PUSH8 0xFFFFFFFFFFFFFFFF DUP3 GT OR PUSH2 0x14E4 JUMPI PUSH1 0x40 MSTORE JUMP JUMPDEST PUSH8 0xFFFFFFFFFFFFFFFF DUP2 GT PUSH2 0x14E4 JUMPI PUSH1 0x5 SHL PUSH1 0x20 ADD SWAP1 JUMP JUMPDEST SWAP1 PUSH2 0x154D DUP3 PUSH2 0x152B JUMP JUMPDEST PUSH1 0x40 SWAP1 PUSH2 0x155C DUP3 MLOAD SWAP2 DUP3 PUSH2 0x14E9 JUMP JUMPDEST DUP4 DUP2 MSTORE DUP1 SWAP4 PUSH2 0x156D PUSH1 0x1F NOT SWAP2 PUSH2 0x152B JUMP JUMPDEST ADD SWAP1 PUSH1 0x0 SWAP3 DUP4 JUMPDEST DUP4 DUP2 LT PUSH2 0x1582 JUMPI POP POP POP POP POP JUMP JUMPDEST DUP2 MLOAD SWAP1 PUSH1 0x80 DUP3 ADD SWAP2 DUP1 DUP4 LT PUSH8 0xFFFFFFFFFFFFFFFF DUP5 GT OR PUSH2 0x14E4 JUMPI PUSH1 0x20 SWAP3 DUP5 MSTORE DUP7 DUP2 MSTORE DUP3 DUP8 DUP2 DUP4 ADD MSTORE DUP8 DUP6 DUP4 ADD MSTORE PUSH1 0x60 DUP1 DUP4 ADD MSTORE DUP3 DUP7 ADD ADD MSTORE ADD PUSH2 0x1574 JUMP JUMPDEST CALLDATALOAD PUSH2 0x1392 DUP2 PUSH2 0x337 JUMP JUMPDEST PUSH8 0xFFFFFFFFFFFFFFFF DUP2 GT PUSH2 0x14E4 JUMPI PUSH1 0x1F ADD PUSH1 0x1F NOT AND PUSH1 0x20 ADD SWAP1 JUMP JUMPDEST PUSH1 0x40 MLOAD SWAP1 PUSH1 0x20 DUP3 ADD DUP3 DUP2 LT PUSH8 0xFFFFFFFFFFFFFFFF DUP3 GT OR PUSH2 0x14E4 JUMPI PUSH1 0x40 MSTORE PUSH1 0x0 DUP3 MSTORE JUMP JUMPDEST RETURNDATASIZE ISZERO PUSH2 0x1636 JUMPI RETURNDATASIZE SWAP1 PUSH2 0x161C DUP3 PUSH2 0x15CB JUMP JUMPDEST SWAP2 PUSH2 0x162A PUSH1 0x40 MLOAD SWAP4 DUP5 PUSH2 0x14E9 JUMP JUMPDEST DUP3 MSTORE RETURNDATASIZE PUSH1 0x0 PUSH1 0x20 DUP5 ADD RETURNDATACOPY JUMP JUMPDEST PUSH1 0x60 SWAP1 JUMP JUMPDEST PUSH1 0x40 MLOAD SWAP1 PUSH2 0x1648 DUP3 PUSH2 0x14C8 JUMP JUMPDEST PUSH1 0xF DUP3 MSTORE PUSH15 0x151C985B9CD9995C8819985A5B1959 PUSH1 0x8A SHL PUSH1 0x20 DUP4 ADD MSTORE JUMP JUMPDEST DUP1 MLOAD DUP3 LT ISZERO PUSH2 0x1469 JUMPI PUSH1 0x20 SWAP2 PUSH1 0x5 SHL ADD ADD SWAP1 JUMP JUMPDEST SWAP1 SWAP3 PUSH1 0x80 SWAP3 PUSH2 0x1392 SWAP6 SWAP5 PUSH1 0x1 DUP1 PUSH1 0xA0 SHL SUB AND DUP4 MSTORE PUSH1 0x20 DUP4 ADD MSTORE ISZERO ISZERO PUSH1 0x40 DUP3 ADD MSTORE DUP2 PUSH1 0x60 DUP3 ADD MSTORE ADD SWAP1 PUSH2 0x36B JUMP JUMPDEST ISZERO PUSH2 0x16AE JUMPI JUMP JUMPDEST PUSH1 0x40 MLOAD PUSH3 0x461BCD PUSH1 0xE5 SHL DUP2 MSTORE PUSH1 0x20 PUSH1 0x4 DUP3 ADD MSTORE PUSH1 0x10 PUSH1 0x24 DUP3 ADD MSTORE PUSH16 0x496E73756666696369656E7420666565 PUSH1 0x80 SHL PUSH1 0x44 DUP3 ADD MSTORE PUSH1 0x64 SWAP1 REVERT JUMPDEST SWAP1 DUP2 PUSH1 0x20 SWAP2 SUB SLT PUSH2 0x256 JUMPI MLOAD DUP1 ISZERO ISZERO DUP2 SUB PUSH2 0x256 JUMPI SWAP1 JUMP JUMPDEST PUSH1 0x0 SWAP1 PUSH1 0x3 RETURNDATASIZE GT PUSH2 0x170B JUMPI JUMP JUMPDEST SWAP1 POP PUSH1 0x4 PUSH1 0x0 DUP1 RETURNDATACOPY PUSH1 0x0 MLOAD PUSH1 0xE0 SHR SWAP1 JUMP JUMPDEST PUSH1 0x0 PUSH1 0x44 RETURNDATASIZE LT PUSH2 0x1392 JUMPI PUSH1 0x40 MLOAD PUSH1 0x3 NOT SWAP2 RETURNDATASIZE DUP4 ADD PUSH1 0x4 DUP4 RETURNDATACOPY DUP2 MLOAD PUSH8 0xFFFFFFFFFFFFFFFF SWAP2 DUP3 DUP3 GT RETURNDATASIZE PUSH1 0x24 DUP5 ADD GT OR PUSH2 0x177A JUMPI DUP2 DUP5 ADD SWAP5 DUP6 MLOAD SWAP4 DUP5 GT PUSH2 0x1782 JUMPI RETURNDATASIZE DUP6 ADD ADD PUSH1 0x20 DUP5 DUP8 ADD ADD GT PUSH2 0x177A JUMPI POP PUSH2 0x1392 SWAP3 SWAP2 ADD PUSH1 0x20 ADD SWAP1 PUSH2 0x14E9 JUMP JUMPDEST SWAP5 SWAP4 POP POP POP POP JUMP JUMPDEST POP SWAP5 SWAP4 POP POP POP POP JUMP JUMPDEST PUSH1 0x40 MLOAD SWAP1 PUSH2 0x1798 DUP3 PUSH2 0x14C8 JUMP JUMPDEST PUSH1 0xD DUP3 MSTORE PUSH13 0x2AB735B737BBB71032B93937B9 PUSH1 0x99 SHL PUSH1 0x20 DUP4 ADD MSTORE JUMP JUMPDEST ISZERO PUSH2 0x17BB JUMPI JUMP JUMPDEST PUSH1 0x40 MLOAD PUSH3 0x461BCD PUSH1 0xE5 SHL DUP2 MSTORE PUSH1 0x20 PUSH1 0x4 DUP3 ADD MSTORE PUSH1 0xF PUSH1 0x24 DUP3 ADD MSTORE PUSH15 0x15DA5D1A191C985DC819985A5B1959 PUSH1 0x8A SHL PUSH1 0x44 DUP3 ADD MSTORE PUSH1 0x64 SWAP1 REVERT JUMPDEST ISZERO PUSH2 0x17F9 JUMPI JUMP JUMPDEST PUSH1 0x40 MLOAD PUSH3 0x461BCD PUSH1 0xE5 SHL DUP2 MSTORE PUSH1 0x20 PUSH1 0x4 DUP3 ADD MSTORE PUSH1 0xD PUSH1 0x24 DUP3 ADD MSTORE PUSH13 0xA4C2E8CA40E8DEDE40D0D2CED PUSH1 0x9B SHL PUSH1 0x44 DUP3 ADD MSTORE PUSH1 0x64 SWAP1 REVERT JUMPDEST PUSH1 0x1 PUSH1 0x1 PUSH1 0xA0 SHL SUB SWAP1 DUP2 AND SWAP1 DUP2 ISZERO ISZERO SWAP1 DUP2 PUSH2 0x18B0 JUMPI JUMPDEST DUP2 PUSH2 0x1897 JUMPI JUMPDEST POP PUSH2 0x1852 JUMPI POP JUMP JUMPDEST CALLER PUSH1 0x0 DUP2 DUP2 MSTORE PUSH1 0x6 PUSH1 0x20 MSTORE PUSH1 0x40 DUP2 KECCAK256 DUP1 SLOAD PUSH1 0x1 PUSH1 0x1 PUSH1 0xA0 SHL SUB NOT AND DUP5 OR SWAP1 SSTORE PUSH32 0x5F7165288EEF601591CF549E15FF19EF9060B7F71B9C115BE946FA1FE7EBF68A SWAP1 DUP1 LOG3 JUMP JUMPDEST SWAP1 POP CALLER PUSH1 0x0 MSTORE PUSH1 0x6 PUSH1 0x20 MSTORE PUSH1 0x40 PUSH1 0x0 KECCAK256 SLOAD AND ISZERO CODESIZE PUSH2 0x184A JUMP JUMPDEST CALLER DUP4 EQ ISZERO SWAP2 POP PUSH2 0x1844 JUMP JUMPDEST SWAP2 SWAP1 DUP3 SUB SWAP2 DUP3 GT PUSH2 0x1314 JUMPI JUMP JUMPDEST ISZERO PUSH2 0x18CF JUMPI JUMP JUMPDEST PUSH1 0x40 MLOAD PUSH3 0x461BCD PUSH1 0xE5 SHL DUP2 MSTORE PUSH1 0x20 PUSH1 0x4 DUP3 ADD MSTORE PUSH1 0x13 PUSH1 0x24 DUP3 ADD MSTORE PUSH19 0x119959481D1C985B9CD9995C8819985A5B1959 PUSH1 0x6A SHL PUSH1 0x44 DUP3 ADD MSTORE PUSH1 0x64 SWAP1 REVERT JUMPDEST DUP1 ISZERO PUSH2 0x1A77 JUMPI CALLER PUSH1 0x0 SWAP1 DUP2 MSTORE PUSH1 0x6 PUSH1 0x20 MSTORE PUSH1 0x40 DUP2 KECCAK256 SLOAD PUSH2 0x193D SWAP2 SWAP1 PUSH1 0x1 PUSH1 0x1 PUSH1 0xA0 SHL SUB AND DUP1 DUP1 PUSH2 0x1990 JUMPI JUMPDEST POP POP DUP3 PUSH2 0x18BB JUMP JUMPDEST DUP1 PUSH2 0x1960 JUMPI JUMPDEST POP PUSH1 0x0 SWAP1 DUP1 CALLVALUE GT PUSH1 0x0 EQ PUSH2 0x195C JUMPI PUSH2 0x1392 SWAP2 POP CALLVALUE PUSH2 0x18BB JUMP JUMPDEST POP SWAP1 JUMP JUMPDEST PUSH1 0x0 DUP1 DUP1 DUP1 PUSH2 0x198A SWAP5 PUSH2 0x197A PUSH1 0x1 SLOAD PUSH1 0x1 DUP1 PUSH1 0xA0 SHL SUB AND SWAP1 JUMP JUMPDEST GAS CALL PUSH2 0x1984 PUSH2 0x160B JUMP JUMPDEST POP PUSH2 0x18C8 JUMP JUMPDEST CODESIZE PUSH2 0x1943 JUMP JUMPDEST PUSH2 0x1999 DUP3 PUSH2 0x13CE JUMP JUMPDEST DUP1 PUSH2 0x19A5 JUMPI JUMPDEST POP PUSH2 0x1935 JUMP JUMPDEST PUSH2 0x19DD SWAP2 SWAP3 SWAP4 POP PUSH2 0x19B9 PUSH2 0x19C1 SWAP2 DUP8 PUSH2 0x1301 JUMP JUMPDEST PUSH2 0x2710 SWAP1 DIV SWAP1 JUMP JUMPDEST PUSH1 0x1 PUSH1 0x1 PUSH1 0xA0 SHL SUB SWAP1 SWAP4 AND PUSH1 0x0 SWAP1 DUP2 MSTORE PUSH1 0x7 PUSH1 0x20 MSTORE PUSH1 0x40 SWAP1 KECCAK256 SWAP1 JUMP JUMPDEST PUSH2 0x19E8 DUP4 DUP3 SLOAD PUSH2 0x1319 JUMP JUMPDEST SWAP1 SSTORE DUP1 PUSH32 0xEF14DA62CAFEBF322BDD38DF3AC0BDCC24FF3D69010B3334F3DF8F03EDC92CC2 PUSH1 0x40 MLOAD DUP1 PUSH2 0x1A3D DUP7 DUP3 PUSH1 0x80 SWAP2 DUP2 MSTORE PUSH1 0x40 PUSH1 0x20 DUP3 ADD MSTORE PUSH1 0x8 PUSH1 0x40 DUP3 ADD MSTORE PUSH8 0x1C9959995C9C985B PUSH1 0xC2 SHL PUSH1 0x60 DUP3 ADD MSTORE ADD SWAP1 JUMP JUMPDEST SUB SWAP1 LOG2 PUSH1 0x40 MLOAD DUP3 DUP2 MSTORE CALLER SWAP2 SWAP1 PUSH32 0x53958B9C644A1D5529DA7C36929D59417EB9A996F08E02A52632BFE20C92EF48 SWAP1 PUSH1 0x20 SWAP1 LOG3 CODESIZE DUP1 DUP1 PUSH2 0x199F JUMP JUMPDEST POP PUSH1 0x0 SWAP1 JUMP JUMPDEST PUSH1 0x44 DUP2 MLOAD LT PUSH2 0x1AF8 JUMPI PUSH1 0x4 DUP2 ADD MLOAD DUP2 ADD SWAP1 PUSH1 0x20 DUP2 PUSH1 0x24 DUP5 ADD SWAP4 SUB SLT PUSH2 0x256 JUMPI PUSH1 0x24 DUP2 ADD MLOAD SWAP1 PUSH8 0xFFFFFFFFFFFFFFFF DUP3 GT PUSH2 0x256 JUMPI ADD DUP2 PUSH1 0x43 DUP3 ADD SLT ISZERO PUSH2 0x256 JUMPI PUSH1 0x24 DUP2 ADD MLOAD PUSH2 0x1ACB DUP2 PUSH2 0x15CB JUMP JUMPDEST SWAP3 PUSH2 0x1AD9 PUSH1 0x40 MLOAD SWAP5 DUP6 PUSH2 0x14E9 JUMP JUMPDEST DUP2 DUP5 MSTORE PUSH1 0x44 DUP3 DUP5 ADD ADD GT PUSH2 0x256 JUMPI PUSH2 0x1392 SWAP2 PUSH1 0x44 PUSH1 0x20 DUP6 ADD SWAP2 ADD PUSH2 0x348 JUMP JUMPDEST POP PUSH1 0x40 MLOAD PUSH2 0x1B05 DUP2 PUSH2 0x14C8 JUMP JUMPDEST PUSH1 0xE DUP2 MSTORE PUSH14 0x155B9ADB9BDDDB881C995D995C9D PUSH1 0x92 SHL PUSH1 0x20 DUP3 ADD MSTORE SWAP1 JUMP INVALID LOG2 PUSH5 0x6970667358 0x22 SLT KECCAK256 0xC OR 0xC4 PUSH3 0xE02FD3 0xC7 DUP11 0x21 0xFB 0xC MUL DUP11 0xC9 SWAP13 0x4E 0xC7 0xD9 0xDC CREATE SWAP7 CALLDATASIZE 0xDD 0x23 PUSH3 0x4C327 DUP6 PUSH32 0xDB64736F6C634300081400330000000000000000000000000000000000000000 "},"methodIdentifiers":{"_safeTransferFromHelper(address,address,address,uint256)":"851b1c4e","baseFee()":"6ef25c3a","baseGas()":"583bbc40","batchTransferNative((address,uint256)[],address)":"2726e2ee","batchTransferToken(address,(address,uint256)[],address)":"8998cea5","calculateFee(uint256)":"99a5d747","feeCollector()":"c415b95c","gasLimitRatio()":"04708845","getEffectiveReferralRate(address)":"be1b33c0","getFeeConfig()":"5fbbc0d2","getGasParameters()":"1d6dc68b","getKOLReferralRate(address)":"cccbb9b5","getMaxErc20TransferCount()":"dd5d1e3e","getMaxNativeTransferCount()":"89ace1ed","getPendingWithdrawal(address)":"7ee8b2f8","getReferralRate()":"bc9bbcd8","getUserReferrer(address)":"36144c9a","kolReferralRates(address)":"d8378647","nativeTransferGas()":"641d9bbc","owner()":"8da5cb5b","pendingWithdrawals(address)":"f3f43703","perAddressFee()":"41f27758","referralRate()":"a053ce1f","removeKOLReferralRate(address)":"eee9f20a","renounceOwnership()":"715018a6","setFeeCollector(address)":"a42dce80","setFeeConfig(uint256,uint256)":"7a580736","setGasLimitRatio(uint256)":"38250ea6","setGasParameters(uint256,uint256,uint256)":"0629dc5e","setKOLReferralRate(address,uint256)":"42159f40","setReferralRate(uint256)":"ca4863fd","tokenTransferGas()":"5932305b","transferOwnership(address)":"f2fde38b","userReferrers(address)":"8f63489d","withdraw()":"3ccfd60b"}}}}}