{"contracts/launch/OZAdvancedLaunchToken.sol":{"OZAdvancedLaunchToken":{"abi":[{"inputs":[{"internalType":"address","name":"initialOwner","type":"address"},{"internalType":"string","name":"tokenName","type":"string"},{"internalType":"string","name":"tokenSymbol","type":"string"},{"internalType":"uint256","name":"initialSupplyRaw","type":"uint256"},{"internalType":"address","name":"marketingWallet_","type":"address"}],"stateMutability":"nonpayable","type":"constructor"},{"inputs":[{"internalType":"address","name":"spender","type":"address"},{"internalType":"uint256","name":"allowance","type":"uint256"},{"internalType":"uint256","name":"needed","type":"uint256"}],"name":"ERC20InsufficientAllowance","type":"error"},{"inputs":[{"internalType":"address","name":"sender","type":"address"},{"internalType":"uint256","name":"balance","type":"uint256"},{"internalType":"uint256","name":"needed","type":"uint256"}],"name":"ERC20InsufficientBalance","type":"error"},{"inputs":[{"internalType":"address","name":"approver","type":"address"}],"name":"ERC20InvalidApprover","type":"error"},{"inputs":[{"internalType":"address","name":"receiver","type":"address"}],"name":"ERC20InvalidReceiver","type":"error"},{"inputs":[{"internalType":"address","name":"sender","type":"address"}],"name":"ERC20InvalidSender","type":"error"},{"inputs":[{"internalType":"address","name":"spender","type":"address"}],"name":"ERC20InvalidSpender","type":"error"},{"inputs":[{"internalType":"address","name":"owner","type":"address"}],"name":"OwnableInvalidOwner","type":"error"},{"inputs":[{"internalType":"address","name":"account","type":"address"}],"name":"OwnableUnauthorizedAccount","type":"error"},{"anonymous":false,"inputs":[{"indexed":true,"internalType":"address","name":"account","type":"address"},{"indexed":false,"internalType":"bool","name":"whitelisted","type":"bool"},{"indexed":false,"internalType":"bool","name":"blacklisted","type":"bool"},{"indexed":false,"internalType":"bool","name":"excludedFees","type":"bool"},{"indexed":false,"internalType":"bool","name":"excludedLimits","type":"bool"}],"name":"AddressFlagsUpdated","type":"event"},{"anonymous":false,"inputs":[{"indexed":true,"internalType":"address","name":"owner","type":"address"},{"indexed":true,"internalType":"address","name":"spender","type":"address"},{"indexed":false,"internalType":"uint256","name":"value","type":"uint256"}],"name":"Approval","type":"event"},{"anonymous":false,"inputs":[{"indexed":false,"internalType":"string","name":"side","type":"string"},{"indexed":false,"internalType":"uint16","name":"marketingBps","type":"uint16"},{"indexed":false,"internalType":"uint16","name":"liquidityBps","type":"uint16"},{"indexed":false,"internalType":"uint16","name":"burnBps","type":"uint16"},{"indexed":false,"internalType":"uint16","name":"totalBps","type":"uint16"}],"name":"FeesUpdated","type":"event"},{"anonymous":false,"inputs":[{"indexed":false,"internalType":"uint256","name":"maxGasPriceWei","type":"uint256"},{"indexed":false,"internalType":"uint256","name":"deadBlocks","type":"uint256"},{"indexed":false,"internalType":"bool","name":"revertEarlyBuys","type":"bool"},{"indexed":false,"internalType":"uint256","name":"maxTxAmount","type":"uint256"},{"indexed":false,"internalType":"uint256","name":"maxWalletAmount","type":"uint256"}],"name":"LimitsUpdated","type":"event"},{"anonymous":false,"inputs":[{"indexed":true,"internalType":"address","name":"wallet","type":"address"}],"name":"MarketingWalletSet","type":"event"},{"anonymous":false,"inputs":[{"indexed":true,"internalType":"address","name":"previousOwner","type":"address"},{"indexed":true,"internalType":"address","name":"newOwner","type":"address"}],"name":"OwnershipTransferred","type":"event"},{"anonymous":false,"inputs":[{"indexed":true,"internalType":"address","name":"router","type":"address"},{"indexed":true,"internalType":"address","name":"pair","type":"address"}],"name":"RouterSet","type":"event"},{"anonymous":false,"inputs":[{"indexed":false,"internalType":"bool","name":"enabled","type":"bool"},{"indexed":false,"internalType":"uint256","name":"thresholdTokens","type":"uint256"}],"name":"SwapSettingsUpdated","type":"event"},{"anonymous":false,"inputs":[{"indexed":true,"internalType":"uint256","name":"launchBlock","type":"uint256"},{"indexed":true,"internalType":"address","name":"pair","type":"address"}],"name":"TradingEnabled","type":"event"},{"anonymous":false,"inputs":[{"indexed":true,"internalType":"address","name":"from","type":"address"},{"indexed":true,"internalType":"address","name":"to","type":"address"},{"indexed":false,"internalType":"uint256","name":"value","type":"uint256"}],"name":"Transfer","type":"event"},{"inputs":[],"name":"BURN_ADDRESS","outputs":[{"internalType":"address","name":"","type":"address"}],"stateMutability":"view","type":"function"},{"inputs":[{"internalType":"address","name":"owner","type":"address"},{"internalType":"address","name":"spender","type":"address"}],"name":"allowance","outputs":[{"internalType":"uint256","name":"","type":"uint256"}],"stateMutability":"view","type":"function"},{"inputs":[{"internalType":"address","name":"spender","type":"address"},{"internalType":"uint256","name":"value","type":"uint256"}],"name":"approve","outputs":[{"internalType":"bool","name":"","type":"bool"}],"stateMutability":"nonpayable","type":"function"},{"inputs":[{"internalType":"address","name":"account","type":"address"}],"name":"balanceOf","outputs":[{"internalType":"uint256","name":"","type":"uint256"}],"stateMutability":"view","type":"function"},{"inputs":[],"name":"buyFee","outputs":[{"internalType":"uint16","name":"marketingBps","type":"uint16"},{"internalType":"uint16","name":"liquidityBps","type":"uint16"},{"internalType":"uint16","name":"burnBps","type":"uint16"},{"internalType":"uint16","name":"totalBps","type":"uint16"}],"stateMutability":"view","type":"function"},{"inputs":[],"name":"deadBlocks","outputs":[{"internalType":"uint256","name":"","type":"uint256"}],"stateMutability":"view","type":"function"},{"inputs":[],"name":"decimals","outputs":[{"internalType":"uint8","name":"","type":"uint8"}],"stateMutability":"view","type":"function"},{"inputs":[],"name":"enableTrading","outputs":[],"stateMutability":"nonpayable","type":"function"},{"inputs":[{"internalType":"address","name":"","type":"address"}],"name":"isBlacklisted","outputs":[{"internalType":"bool","name":"","type":"bool"}],"stateMutability":"view","type":"function"},{"inputs":[{"internalType":"address","name":"","type":"address"}],"name":"isExcludedFromFees","outputs":[{"internalType":"bool","name":"","type":"bool"}],"stateMutability":"view","type":"function"},{"inputs":[{"internalType":"address","name":"","type":"address"}],"name":"isExcludedFromLimits","outputs":[{"internalType":"bool","name":"","type":"bool"}],"stateMutability":"view","type":"function"},{"inputs":[{"internalType":"address","name":"","type":"address"}],"name":"isWhitelisted","outputs":[{"internalType":"bool","name":"","type":"bool"}],"stateMutability":"view","type":"function"},{"inputs":[],"name":"launchBlock","outputs":[{"internalType":"uint256","name":"","type":"uint256"}],"stateMutability":"view","type":"function"},{"inputs":[],"name":"manualSwapBack","outputs":[],"stateMutability":"nonpayable","type":"function"},{"inputs":[],"name":"marketingWallet","outputs":[{"internalType":"address","name":"","type":"address"}],"stateMutability":"view","type":"function"},{"inputs":[],"name":"maxGasPriceWei","outputs":[{"internalType":"uint256","name":"","type":"uint256"}],"stateMutability":"view","type":"function"},{"inputs":[],"name":"maxTxAmount","outputs":[{"internalType":"uint256","name":"","type":"uint256"}],"stateMutability":"view","type":"function"},{"inputs":[],"name":"maxWalletAmount","outputs":[{"internalType":"uint256","name":"","type":"uint256"}],"stateMutability":"view","type":"function"},{"inputs":[],"name":"name","outputs":[{"internalType":"string","name":"","type":"string"}],"stateMutability":"view","type":"function"},{"inputs":[],"name":"owner","outputs":[{"internalType":"address","name":"","type":"address"}],"stateMutability":"view","type":"function"},{"inputs":[],"name":"renounceOwnership","outputs":[],"stateMutability":"nonpayable","type":"function"},{"inputs":[],"name":"revertEarlyBuys","outputs":[{"internalType":"bool","name":"","type":"bool"}],"stateMutability":"view","type":"function"},{"inputs":[],"name":"sellFee","outputs":[{"internalType":"uint16","name":"marketingBps","type":"uint16"},{"internalType":"uint16","name":"liquidityBps","type":"uint16"},{"internalType":"uint16","name":"burnBps","type":"uint16"},{"internalType":"uint16","name":"totalBps","type":"uint16"}],"stateMutability":"view","type":"function"},{"inputs":[{"internalType":"address","name":"account","type":"address"},{"internalType":"bool","name":"whitelisted","type":"bool"},{"internalType":"bool","name":"blacklisted","type":"bool"},{"internalType":"bool","name":"excludedFees","type":"bool"},{"internalType":"bool","name":"excludedLimits","type":"bool"}],"name":"setAddressFlags","outputs":[],"stateMutability":"nonpayable","type":"function"},{"inputs":[{"internalType":"uint16","name":"marketingBps","type":"uint16"},{"internalType":"uint16","name":"liquidityBps","type":"uint16"},{"internalType":"uint16","name":"burnBps","type":"uint16"}],"name":"setBuyFees","outputs":[],"stateMutability":"nonpayable","type":"function"},{"inputs":[{"internalType":"uint256","name":"maxGasPriceWei_","type":"uint256"},{"internalType":"uint256","name":"deadBlocks_","type":"uint256"},{"internalType":"bool","name":"revertEarlyBuys_","type":"bool"},{"internalType":"uint256","name":"maxTxAmount_","type":"uint256"},{"internalType":"uint256","name":"maxWalletAmount_","type":"uint256"}],"name":"setLimits","outputs":[],"stateMutability":"nonpayable","type":"function"},{"inputs":[{"internalType":"address","name":"wallet","type":"address"}],"name":"setMarketingWallet","outputs":[],"stateMutability":"nonpayable","type":"function"},{"inputs":[{"internalType":"address","name":"router","type":"address"}],"name":"setRouter","outputs":[],"stateMutability":"nonpayable","type":"function"},{"inputs":[{"internalType":"uint16","name":"marketingBps","type":"uint16"},{"internalType":"uint16","name":"liquidityBps","type":"uint16"},{"internalType":"uint16","name":"burnBps","type":"uint16"}],"name":"setSellFees","outputs":[],"stateMutability":"nonpayable","type":"function"},{"inputs":[{"internalType":"bool","name":"enabled","type":"bool"},{"internalType":"uint256","name":"thresholdTokens","type":"uint256"}],"name":"setSwapSettings","outputs":[],"stateMutability":"nonpayable","type":"function"},{"inputs":[],"name":"swapEnabled","outputs":[{"internalType":"bool","name":"","type":"bool"}],"stateMutability":"view","type":"function"},{"inputs":[],"name":"swapTokensAtAmount","outputs":[{"internalType":"uint256","name":"","type":"uint256"}],"stateMutability":"view","type":"function"},{"inputs":[],"name":"symbol","outputs":[{"internalType":"string","name":"","type":"string"}],"stateMutability":"view","type":"function"},{"inputs":[],"name":"totalSupply","outputs":[{"internalType":"uint256","name":"","type":"uint256"}],"stateMutability":"view","type":"function"},{"inputs":[],"name":"tradingEnabled","outputs":[{"internalType":"bool","name":"","type":"bool"}],"stateMutability":"view","type":"function"},{"inputs":[{"internalType":"address","name":"to","type":"address"},{"internalType":"uint256","name":"value","type":"uint256"}],"name":"transfer","outputs":[{"internalType":"bool","name":"","type":"bool"}],"stateMutability":"nonpayable","type":"function"},{"inputs":[{"internalType":"address","name":"from","type":"address"},{"internalType":"address","name":"to","type":"address"},{"internalType":"uint256","name":"value","type":"uint256"}],"name":"transferFrom","outputs":[{"internalType":"bool","name":"","type":"bool"}],"stateMutability":"nonpayable","type":"function"},{"inputs":[{"internalType":"address","name":"newOwner","type":"address"}],"name":"transferOwnership","outputs":[],"stateMutability":"nonpayable","type":"function"},{"inputs":[],"name":"uniswapV2Pair","outputs":[{"internalType":"address","name":"","type":"address"}],"stateMutability":"view","type":"function"},{"inputs":[],"name":"uniswapV2Router","outputs":[{"internalType":"contract IUniswapV2Router02","name":"","type":"address"}],"stateMutability":"view","type":"function"},{"stateMutability":"payable","type":"receive"}],"evm":{"bytecode":{"linkReferences":{},"object":"60806040818152346200058b57620032768038038091620000218286620005ac565b843982019160a0818403126200058b576200003c81620005d0565b60208281015190946001600160401b03918281116200058b57816200006391860162000601565b9085850151908382116200058b576200007e91860162000601565b62000091608060608701519601620005d0565b92825181811162000485576003908154906001958683811c9316801562000580575b8c8410146200056a5781908c601f9485811162000511575b50508c908d858411600114620004a757506000926200049b575b505060001982851b1c191690861b1782555b8351928311620004855760049384548681811c911680156200047a575b8c8210146200046557908b8284879695941162000408575b50508b9184116001146200039d5760009362000391575b505082851b92600019911b1c19161781555b6001600160a01b03848116919082156200037a57600580546001600160a01b031980821686179092558951919290859082167f8be0079c531659141344cd1fd0a4f28419497f9722a3daafe3b4186f6b6457e0600080a360ff19968688600c541617600c5586886011541617601155169283156200033a57505091816200032c9899926014946006541617600655600060608b51620001f48162000590565b8281528286820152828d820152015261019060608b51620002158162000590565b60c8815260c88682015260008d82015201526702580000012c012c60018060401b0319670190000000c800c881600a541617600a55600060608d828151916200025e8362000590565b818352818a840152820152015261025860608d6000815191620002818362000590565b61012c8084528a8401528201520152600b541617600b556127108804600d558160005260168352896000208587825416179055306000528960002085878254161790558060005289600020858782541617905581600052601783528960002085878254161790553060005289600020858782541617905560005288600020848682541617905560005252856000208183825416179055306000528560002091825416179055620006d2565b5161211990816200113d8239f35b62461bcd60e51b825281018a9052601460248201527f6d61726b6574696e672077616c6c6574203d20300000000000000000000000006044820152606490fd5b8751631e4fbdf760e01b8152600081840152602490fd5b01519150388062000143565b60008681528c812088965093929190601f198616908e5b828210620003f05750508511620003d5575b50505050811b01815562000155565b01519060f884600019921b161c1916905538808080620003c6565b8385015187558a989096019593840193018e620003b4565b9091929394508660005283826000209181880160051c83019388106200045b575b9189918897969594930160051c01915b8281106200044b57508d91506200012c565b6000815587965089910162000439565b9250819262000429565b602286634e487b7160e01b6000525260246000fd5b90607f169062000114565b634e487b7160e01b600052604160045260246000fd5b015190503880620000e5565b9190899450601f1984168760005283600020936000905b828210620004f75750508411620004de575b505050811b018255620000f7565b015160001983871b60f8161c19169055388080620004d0565b8484015186558c97909501949384019390810190620004be565b909192508560005284826000209181860160051c830193861062000560575b918a91869594930160051c01915b8281106200055057508e9150620000cb565b600081558594508a91016200053e565b9250819262000530565b634e487b7160e01b600052602260045260246000fd5b92607f1692620000b3565b600080fd5b608081019081106001600160401b038211176200048557604052565b601f909101601f19168101906001600160401b038211908210176200048557604052565b51906001600160a01b03821682036200058b57565b6001600160401b0381116200048557601f01601f191660200190565b919080601f840112156200058b578251906200061d82620005e5565b916200062d6040519384620005ac565b8083526020918282870101116200058b5760005b8181106200065757508260009394955001015290565b858101830151848201840152820162000641565b811562000676570490565b634e487b7160e01b600052601260045260246000fd5b919082018092116200069a57565b634e487b7160e01b600052601160045260246000fd5b818102929181159184041417156200069a57565b919082039182116200069a57565b9060009182805260206015815260ff604090808287205416158062000c38575b1562000c0657600f548015158062000bd7575b62000b90575b506008546001600160a01b0380821680159360a09390931c8316929184908162000b7d575b808916928314948062000b71575b8062000b69575b8062000b54575b62000aec575b8a80526017885283878c205416158062000adb575b620009e4575b600e5491848316159182620009d7575b82620009ce575b82620009bf575b5081620009b5575b5080620009a9575b8062000993575b6200096f575b5081600e541615928362000950575b508262000947575b826200093c575b8262000926575b8262000910575b5050620007ed575b505050620007eb925062000c52565b565b156200090757600a945b815195620008058762000590565b549561ffff908188168152818860101c1685820152606082858301998181891c168b5260301c169101908082528062000842575b505050620007dc565b620008516127109189620006b0565b049182156200083957620008969181620008846200088e936200087a87620007eb9e9d620006c4565b9b511686620006b0565b915116906200066b565b8092620006c4565b9381620008c3575b5050505080620008b0575b5062000c52565b620008bc903062000c52565b38620008a9565b81620008e260008051602062003256833981519152936002546200068c565b60025561dead9485855284835280852082815401905551908152a3388080806200089e565b600b94620007f7565b88526016855283882054161590503880620007d4565b88805260168652848920548216159250620007cd565b8015159250620007c6565b889250620007bf565b9092508390841562000966575b509138620007b7565b9050386200095d565b60ff19908116600117600e556200098562000cb3565b600e5416600e5538620007a8565b50308a52898752858a2054600d541115620007a2565b50600d5415156200079b565b9050153862000793565b6007541615159150386200078b565b86925062000784565b600c54861692506200077d565b6012548015158062000acb575b62000a87575b506013548b8b898315158062000a7f575b62000a18575b505050506200076d565b828762000a2b9452808d5220546200068c565b1162000a3b57388b8b8962000a0e565b865162461bcd60e51b815260048101899052601360248201527f4d61782077616c6c6574206578636565646564000000000000000000000000006044820152606490fd5b508962000a08565b8a1162000a955738620009f7565b865162461bcd60e51b815260048101899052600f60248201526e13585e081d1e08195e18d959591959608a1b6044820152606490fd5b508687620009f1575085620009f1565b50828b5283878c2054161562000767565b62000afd600954601054906200068c565b43101562000752578360115416156200075257865162461bcd60e51b815260048101899052601a60248201527f416e7469426f743a206561726c792062757920626c6f636b65640000000000006044820152606490fd5b50828b526014885283878c205416156200074c565b508562000745565b5060105415156200073e565b8095506007541685891614159462000730565b3a1162000b9e57386200070b565b815162461bcd60e51b815260048101849052601260248201527108ec2e640e0e4d2c6ca40e8dede40d0d2ced60731b6044820152606490fd5b506008546001600160a01b03908116801591821562000bf9575b505062000705565b8716149050388062000bf1565b815162461bcd60e51b815260048101849052600b60248201526a109b1858dadb1a5cdd195960aa1b6044820152606490fd5b506001600160a01b038416865281862054811615620006f2565b60008051602062003256833981519152602060009262000c75856002546200068c565b6002556001600160a01b0316938415841462000c9d5780600254036002555b604051908152a3565b8484528382526040842081815401905562000c94565b600030815260208181526040808320548015620010a1576007546001600160a01b039390841690811562001099578460085416156200109957600b5461ffff808260301c1680156200108e5762000d1862000d1e9262000d269460101c1687620006b0565b6200066b565b8094620006c4565b600162000d4262000d3b86831c8097620006c4565b836200068c565b9384156200108e578462000d579130620010a7565b855147916001600160401b039060608301828111848210176200107a578952600283528583018936823783511562001066573081528a60075416918a516315ab88c960e31b81528881600481875afa9081156200105a578e9162001019575b50855182101562001005578c168b860152823b1562001001579390918c928c8c5196879463791ac94760e01b865260a48601908d600488015287602488015260a060448801525180915260c4860193928c88915b83831062000fda575050505050508383809230606483015242608483015203925af1801562000fd05762000fa4575b505062000e479047620006c4565b92831562000f9a5762000d1e62000e659162000d188a9487620006b0565b928015158062000f8c575b62000f45575b5050508115158062000f3b575b62000e90575b5050505050565b60c48262000ea6606094876007541630620010a7565b85600754169560055416928551968794859363f305d71960e01b8552306004860152602485015289604485015289606485015260848401524260a48401525af190811562000f32575062000efe575b80808062000e89565b606090813d811162000f2a575b62000f178183620005ac565b8101031262000f27578062000ef5565b80fd5b503d62000f0b565b513d84823e3d90fd5b5080151562000e83565b8180809289600654165af1503d1562000f8557853d9162000f6683620005e5565b9262000f7587519485620005ac565b83523d92013e5b38858162000e76565b5062000f7c565b508660065416151562000e70565b5050505050505050565b819992991162000fbc5786529662000e473862000e39565b634e487b7160e01b82526041600452602482fd5b88513d8c823e3d90fd5b84979950858294979293969950511681520195019101928f9593928f938c8a979562000e0a565b8c80fd5b634e487b7160e01b8e52603260045260248efd5b90508881813d831162001052575b620010338183620005ac565b810103126200104e576200104790620005d0565b3862000db6565b8d80fd5b503d62001027565b8e8d51903d90823e3d90fd5b634e487b7160e01b8c52603260045260248cfd5b634e487b7160e01b8c52604160045260248cfd5b505050505050505050565b505050505050565b50505050565b6001600160a01b039081169182156200112357169182156200110a5760207f8c5be1e5ebec7d5bd14f71427d1e84f3dd0314c0f7b2291e5b200ac8c7c3b925918360005260018252604060002085600052825280604060002055604051908152a3565b604051634a1406b160e11b815260006004820152602490fd5b60405163e602df0560e01b815260006004820152602490fdfe6080604081815260049182361015610022575b505050361561002057600080fd5b005b600092833560e01c91826306fdde031461117a57508163095ea7b3146111505781631694505e1461112757816318160ddd1461110857816323b872dd146110145781632b14ca5614610fc85781632fc0580614610fa4578163313ce56714610f885781633af32abf14610f4a5781634706240214610efe57816349bd5a5e14610ed55781634ada218b14610eae5781634fbee19314610e705781635cce86cd14610e325781635d098b3814610d6857816366eb378514610cd75781636951a07914610be55781636ddd171314610bc157816370a0823114610b8a578163715018a614610b2a57816375f0a87414610b015781638a8c523c14610a215781638c0b5e2214610a025781638da5cb5b146109d957816392c818d6146108ba57816395d89b41146107b75781639f52256b14610723578163a9059cbb146106f2578163aa4bde28146106d3578163c0d78655146104fe578163d00efb2f146104df578163d0e1032614610473578163dd62ed3e1461042a578163e2f456051461040b578163ef3881c8146103ec578163f2fde38b1461035c578163fabb0b4f1461033d578163fc6c2bda1461024657508063fccc28131461022a5763fe575a87146101ea5780610012565b346102265760203660031901126102265760209160ff9082906001600160a01b036102136112b4565b1681526015855220541690519015158152f35b5080fd5b50346102265781600319360112610226576020905161dead8152f35b91905034610339576060366003190112610339577f78a2b7c85fd401563e8af374883543c3ee4188df1c66fc71232dbb7e7ffdb1029160e0916102876112e5565b61028f6112f6565b91610298611307565b6102a0611327565b6102ab818585611c29565b9161ffff80958185818097511690600b549163ffff0000602083015160101b169067ffff000000000000606065ffff000000008a86015160201b1694015160301b169367ffffffffffffffff1916171717179687600b5584519960a08b5260a08b0152631cd95b1b60e21b60c08b0152166020890152169086015216606084015260301c166080820152a180f35b8280fd5b5050346102265781600319360112610226576020906010549051908152f35b905034610339576020366003190112610339576103776112b4565b90610380611327565b6001600160a01b039182169283156103d6575050600554826bffffffffffffffffffffffff60a01b821617600555167f8be0079c531659141344cd1fd0a4f28419497f9722a3daafe3b4186f6b6457e08380a380f35b51631e4fbdf760e01b8152908101849052602490fd5b505034610226578160031936011261022657602090600f549051908152f35b505034610226578160031936011261022657602090600d549051908152f35b505034610226578060031936011261022657806020926104486112b4565b6104506112cf565b6001600160a01b0391821683526001865283832091168252845220549051908152f35b9050346103395781600319360112610339573590811515809203610339577f06983cb19592d7d4eb4aedd54adc3fb1cd55c1f3cc43ad1bd64f8bc885933ce2916024356104be611327565b60ff19600c541660ff831617600c5580600d5582519182526020820152a180f35b5050346102265781600319360112610226576020906009549051908152f35b9190503461033957602090816003193601126106cf5761051c6112b4565b91610525611327565b6001600160a01b039283169283156106a157600780546001600160a01b03199081168617909155835163c45a015560e01b8152909583828281895afa918215610697578892610678575b5084516315ab88c960e31b81529088858383818b5afa92831561066c57918186809694899661064c575b50604493948a5197889687956364e329cb60e11b87523090870152166024850152165af1908115610642579060179392918891610615575b501680956008541617600855848652528320600160ff198254161790557f8ab4cea230ab04f96aaa9a71fbc4bfa98097c7b9f07e06be33868b500f8100288380a380f35b6106359150833d851161063b575b61062d8183611385565b810190611490565b386105d1565b503d610623565b84513d89823e3d90fd5b6044945061066690873d891161063b5761062d8183611385565b93610599565b508651903d90823e3d90fd5b610690919250843d861161063b5761062d8183611385565b903861056f565b85513d8a823e3d90fd5b825162461bcd60e51b815280860183905260086024820152670726f757465723d360c41b6044820152606490fd5b8380fd5b5050346102265781600319360112610226576020906013549051908152f35b50503461022657806003193601126102265760209061071c6107126112b4565b60243590336113a7565b5160018152f35b9050346103395760a0366003190112610339577f030be12a58949831a2ba360cd4c740f0f9277275d25bb2cc31c3656d170fc5c99160a091359060243590610769611318565b91606435916084359361077a611327565b85600f558260105515159160ff196011541660ff84161760115583601255846013558151958652602086015284015260608301526080820152a180f35b838334610226578160031936011261022657805191809380549160019083821c928285169485156108b0575b602095868610811461089d578589529081156108795750600114610821575b61081d8787610813828c0383611385565b519182918261126b565b0390f35b81529295507f8a35acfbc15ff81a39ae7d344fd709f28e8600b4aa8c65c6b64bfe7fe36bd19b5b828410610866575050508261081d9461081392820101948680610802565b8054868501880152928601928101610848565b60ff19168887015250505050151560051b83010192506108138261081d8680610802565b634e487b7160e01b845260228352602484fd5b93607f16936107e3565b5050346102265760a0366003190112610226576108d56112b4565b9060243591821515918284036109d5576108ed611318565b9060643591821515928381036109d15760843590811515958683036109cd57610914611327565b6001600160a01b0316808a526014602052848a20805499151560ff1660ff199a909a16999099179098556015602052838920805460ff191660ff85151516179055601660205283892090610973919060ff801983541691151516179055565b601760205282882090610991919060ff801983541691151516179055565b815194855215156020850152830152606082015260807f5de6654a95655d8559604b64d6a2547ab79693a81033f89fd08e7fb3d0d7b39a91a280f35b8980fd5b8780fd5b8480fd5b50503461022657816003193601126102265760055490516001600160a01b039091168152602090f35b5050346102265781600319360112610226576020906012549051908152f35b905034610339578260031936011261033957610a3b611327565b6008549060ff8260a01c16610acc576001600160a01b038216928315610a9a57505060ff60a01b1916600160a01b176008554360098190557fb0153a1d634c9f6da118c6950a6689cff830da150b9872b291e7a8d815316bb78380a380f35b906020606492519162461bcd60e51b8352820152600c60248201526b1c185a5c881b9bdd081cd95d60a21b6044820152fd5b606490602084519162461bcd60e51b8352820152600f60248201526e185b1c9958591e48195b98589b1959608a1b6044820152fd5b50503461022657816003193601126102265760065490516001600160a01b039091168152602090f35b8334610b875780600319360112610b8757610b43611327565b600580546001600160a01b0319811690915581906001600160a01b03167f8be0079c531659141344cd1fd0a4f28419497f9722a3daafe3b4186f6b6457e08280a380f35b80fd5b5050346102265760203660031901126102265760209181906001600160a01b03610bb26112b4565b16815280845220549051908152f35b50503461022657816003193601126102265760209060ff600c541690519015158152f35b5050346102265760603660031901126102265760e07f78a2b7c85fd401563e8af374883543c3ee4188df1c66fc71232dbb7e7ffdb10291610c246112e5565b90610c2d6112f6565b610c35611307565b610c3d611327565b610c48818386611c29565b9061ffff938483818095511690600a549163ffff0000602083015160101b169067ffff000000000000606065ffff000000008886015160201b1694015160301b169367ffffffffffffffff1916171717179485600a558183519860a08a52600360a08b01526262757960e81b60c08b0152166020890152169086015216606084015260301c166080820152a180f35b91905034610339578260031936011261033957600554336001600160a01b0391821614908115610d5a575b5015610d29578260ff19600181600e541617600e55610d1f611cd3565b600e5416600e5580f35b906020606492519162461bcd60e51b8352820152600b60248201526a1b9bdd08185b1b1bddd95960aa1b6044820152fd5b905060065416331438610d02565b9190503461033957602036600319011261033957610d846112b4565b610d8c611327565b6001600160a01b0316918215610e055750816bffffffffffffffffffffffff60a01b6006541617600655818352601660205260018184209160ff1992828482541617905560176020528420918254161790557ff86e3c0cc66159379bdf420884b6f4be3aa4fb93284e88c539c61ba300646a748280a280f35b6020606492519162461bcd60e51b83528201526008602482015267077616c6c65743d360c41b6044820152fd5b5050346102265760203660031901126102265760209160ff9082906001600160a01b03610e5d6112b4565b1681526017855220541690519015158152f35b5050346102265760203660031901126102265760209160ff9082906001600160a01b03610e9b6112b4565b1681526016855220541690519015158152f35b50503461022657816003193601126102265760209060ff60085460a01c1690519015158152f35b50503461022657816003193601126102265760085490516001600160a01b039091168152602090f35b505034610226578160031936011261022657600a54905161ffff8083168252601083901c811660208084019190915283901c8116604083015260309290921c9091166060820152608090f35b5050346102265760203660031901126102265760209160ff9082906001600160a01b03610f756112b4565b1681526014855220541690519015158152f35b5050346102265781600319360112610226576020905160128152f35b50503461022657816003193601126102265760209060ff6011541690519015158152f35b505034610226578160031936011261022657600b54905161ffff8083168252601083901c811660208084019190915283901c8116604083015260309290921c9091166060820152608090f35b90508234610b87576060366003190112610b87576110306112b4565b6110386112cf565b916044359360018060a01b038316808352600160205286832033845260205286832054916000198310611074575b60208861071c8989896113a7565b8683106110dc5781156110c55733156110ae5750825260016020908152868320338452815291869020908590039055829061071c87611066565b8751634a1406b160e11b8152908101849052602490fd5b875163e602df0560e01b8152908101849052602490fd5b8751637dc7a0d960e11b8152339181019182526020820193909352604081018790528291506060010390fd5b5050346102265781600319360112610226576020906002549051908152f35b50503461022657816003193601126102265760075490516001600160a01b039091168152602090f35b50503461022657806003193601126102265760209061071c6111706112b4565b60243590336113fd565b929150346106cf57836003193601126106cf57600354600181811c9186908281168015611261575b602095868610821461124e575084885290811561122c57506001146111d3575b61081d8686610813828b0383611385565b929550600383527fc2575a0e9e593c00f959f8c92f12db2869c3395a3b0502d05e2516446f71f85b5b828410611219575050508261081d946108139282010194386111c2565b80548685018801529286019281016111fc565b60ff191687860152505050151560051b83010192506108138261081d386111c2565b634e487b7160e01b845260229052602483fd5b93607f16936111a2565b6020808252825181830181905290939260005b8281106112a057505060409293506000838284010152601f8019910116010190565b81810186015184820160400152850161127e565b600435906001600160a01b03821682036112ca57565b600080fd5b602435906001600160a01b03821682036112ca57565b6004359061ffff821682036112ca57565b6024359061ffff821682036112ca57565b6044359061ffff821682036112ca57565b6044359081151582036112ca57565b6005546001600160a01b0316330361133b57565b60405163118cdaa760e01b8152336004820152602490fd5b6080810190811067ffffffffffffffff82111761136f57604052565b634e487b7160e01b600052604160045260246000fd5b90601f8019910116810190811067ffffffffffffffff82111761136f57604052565b91906001600160a01b03808416156113e4578116156113cb576113c992611512565b565b60405163ec442f0560e01b815260006004820152602490fd5b604051634b637e8f60e11b815260006004820152602490fd5b6001600160a01b03908116918215611477571691821561145e5760207f8c5be1e5ebec7d5bd14f71427d1e84f3dd0314c0f7b2291e5b200ac8c7c3b925918360005260018252604060002085600052825280604060002055604051908152a3565b604051634a1406b160e11b815260006004820152602490fd5b60405163e602df0560e01b815260006004820152602490fd5b908160209103126112ca57516001600160a01b03811681036112ca5790565b919082018092116114bc57565b634e487b7160e01b600052601160045260246000fd5b818102929181159184041417156114bc57565b81156114ef570490565b634e487b7160e01b600052601260045260246000fd5b919082039182116114bc57565b92919060018060a01b03938481166000908082526020916015835260ff97604098808a842054161580611b28575b15611af6578990600f5480151580611ad3575b611a89575b5060085483828260a01c169182156119fd575b1680871494856119eb575b808b16928483851496826119df575b826119d7575b826119c2575b505061195e575b878752601789528d872054841615848f8261194d575b5050611870575b600e5491848316159182611864575b8261185c575b8261184e575b5081611844575b5080611839575b80611824575b611803575b5081600e54161592836117e7575b50826117dd575b826117d3575b826117be575b826117a9575b5050611626575b505050506113c9939450611b3a565b156117a157600a915b88519261163b84611353565b549361ffff938486168152848660101c16828201526060858c8301978181861c16895260301c1691019080825280611676575b505050611617565b611683612710918b6114d2565b0494851561166e5790816116af6116b8936116a6896116bf9798999a9b9e611505565b9c5116896114d2565b915116906114e5565b8095611505565b93806116ed575b505050506113c9949550806116dc575b50611b3a565b6116e7903083611b3a565b386116d6565b826117395790816113c9999a6117146000805160206120c4833981519152946002546114af565b6002555b8061dead968781528085522082815401905551908152a385943880806116c6565b8284528382528984205499818b1061177357906000805160206120c48339815191529291816113c99b9c8688528785520381872055611718565b5163391434e360e21b81526001600160a01b0387166004820152602481018b90526044810191909152606490fd5b600b9161162f565b8452601686528a842054161590503880611610565b858552601687528b852054821615925061160a565b8015159250611604565b85151592506115fe565b909250839084156117fb575b5091386115f7565b9050386117f3565b60ff19908116600117600e55611817611cd3565b600e5416600e55386115e9565b503086528588528c862054600d5411156115e4565b50600d5415156115de565b90501515386115d7565b6007541615159150386115d0565b8692506115ca565b600c54861692506115c4565b6012548015158061193f575b6118fd575b506013548e8d821515806118f6575b61189d575b5050506115b5565b6118af91868b528a8d528a20546114af565b116118bc57388e8d611895565b8d5162461bcd60e51b8152600481018a9052601360248201527213585e081dd85b1b195d08195e18d959591959606a1b6044820152606490fd5b5088611890565b8c116119095738611881565b8d5162461bcd60e51b8152600481018a9052600f60248201526e13585e081d1e08195e18d959591959608a1b6044820152606490fd5b50868761187c57508561187c565b858a5289205416159050848f6115ae565b61196d600954601054906114af565b43101561159857836011541615611598578d5162461bcd60e51b8152600481018a9052601a60248201527f416e7469426f743a206561726c792062757920626c6f636b65640000000000006044820152606490fd5b858a5260148c5289205416159050848f611591565b88925061158b565b60105415159250611585565b80955060075416858b16141594611576565b87151580611a7e575b1561156b57919293505085855260148752828c862054168015611a6d575b15611a335790838c939261156b565b8b5162461bcd60e51b8152600481018890526013602482015272151c98591a5b99c81b9bdd08195b98589b1959606a1b6044820152606490fd5b508389168552828c86205416611a24565b50818b161515611a06565b9091503a11611a9a57899038611558565b895162461bcd60e51b815260048101869052601260248201527108ec2e640e0e4d2c6ca40e8dede40d0d2ced60731b6044820152606490fd5b508360085416808714908115611aea575b50611553565b9050848a161438611ae4565b895162461bcd60e51b815260048101869052600b60248201526a109b1858dadb1a5cdd195960aa1b6044820152606490fd5b508187168352808a8420541615611540565b6001600160a01b0380821692909183611ba257506000805160206120c483398151915291602091611b6d866002546114af565b6002555b169384611b8a5780600254036002555b604051908152a3565b84600052600082526040600020818154019055611b81565b60009084825281602052604082205490868210611be157509181604087602095886000805160206120c483398151915298965283875203912055611b71565b60405163391434e360e21b81526001600160a01b03919091166004820152602481019190915260448101869052606490fd5b91909161ffff808094169116019182116114bc57565b9160006060604051611c3a81611353565b828152826020820152826040820152015261ffff9081611c6382611c5e8688611c13565b611c13565b16926107d08411611c955782908160405196611c7e88611353565b168652166020850152166040830152606082015290565b60405162461bcd60e51b815260206004820152601660248201527546656520746f6f206869676820286d6178203230252960501b6044820152606490fd5b600030815280602052604081205480156120bf576007546001600160a01b03169081156120ba576008546001600160a01b0316156120ba57600b5461ffff808260301c168015611fe157611d32611d3792611d3e9460101c16856114d2565b6114e5565b8092611505565b90611d55611d4f8260011c83611505565b836114af565b9283156120b35783611d6791306113fd565b60405191476060840167ffffffffffffffff81118582101761209f57604052600284526020840193604036863780511561208b573085526007546040516315ab88c960e31b81526004966001600160a01b0390921691906020818981865afa908115612080578a91612061575b5083516001101561204e576001600160a01b03166040840152813b1561204a5791889160405193849263791ac94760e01b845260a48401908b8b86015285602486015260a060448601525180915260c484019190855b818110612025575050508383809230606483015242608483015203925af1801561201a57611fe9575b50611e5e9047611505565b938415611fe1576116b8611e7791611d328894886114d2565b9380151580611fcd575b611f60575b50508060011c151580611f57575b611e9f575b50505050565b60c4606092611ebc8360011c60018060a01b0360075416306113fd565b60075460055460405163f305d71960e01b8152309381019390935260019490941c602483015260448201879052606482018790526001600160a01b0393841660848301524260a4830152909485938492165af18015611f4c57611f21575b8080611e99565b606090813d8111611f45575b611f378183611385565b81010312610b875780611f1a565b503d611f2d565b6040513d84823e3d90fd5b50821515611e94565b600654829182918291906001600160a01b03165af1503d15611fc8573d67ffffffffffffffff8111611fb55760405190611fa4601f8201601f191660200183611385565b81528460203d92013e5b8338611e86565b634e487b7160e01b855260418352602485fd5b611fae565b506006546001600160a01b03161515611e81565b505050505050565b67ffffffffffffffff81979297116120075760405294611e5e611e53565b634e487b7160e01b825260418552602482fd5b6040513d89823e3d90fd5b82516001600160a01b031684528d965087955060209384019390920191600101611e2a565b8880fd5b634e487b7160e01b8a526032885260248afd5b61207a915060203d60201161063b5761062d8183611385565b38611dd4565b6040513d8c823e3d90fd5b634e487b7160e01b87526032600452602487fd5b634e487b7160e01b87526041600452602487fd5b5050505050565b505050565b505056feddf252ad1be2c89b69c2b068fc378daa952ba7f163c4a11628f55a4df523b3efa2646970667358221220b68c7d3f7cd7d105e333058a30dd98a2fb561354377f8b86b1785e594cb6012364736f6c63430008140033ddf252ad1be2c89b69c2b068fc378daa952ba7f163c4a11628f55a4df523b3ef","opcodes":"PUSH1 0x80 PUSH1 0x40 DUP2 DUP2 MSTORE CALLVALUE PUSH3 0x58B JUMPI PUSH3 0x3276 DUP1 CODESIZE SUB DUP1 SWAP2 PUSH3 0x21 DUP3 DUP7 PUSH3 0x5AC JUMP JUMPDEST DUP5 CODECOPY DUP3 ADD SWAP2 PUSH1 0xA0 DUP2 DUP5 SUB SLT PUSH3 0x58B JUMPI PUSH3 0x3C DUP2 PUSH3 0x5D0 JUMP JUMPDEST PUSH1 0x20 DUP3 DUP2 ADD MLOAD SWAP1 SWAP5 PUSH1 0x1 PUSH1 0x1 PUSH1 0x40 SHL SUB SWAP2 DUP3 DUP2 GT PUSH3 0x58B JUMPI DUP2 PUSH3 0x63 SWAP2 DUP7 ADD PUSH3 0x601 JUMP JUMPDEST SWAP1 DUP6 DUP6 ADD MLOAD SWAP1 DUP4 DUP3 GT PUSH3 0x58B JUMPI PUSH3 0x7E SWAP2 DUP7 ADD PUSH3 0x601 JUMP JUMPDEST PUSH3 0x91 PUSH1 0x80 PUSH1 0x60 DUP8 ADD MLOAD SWAP7 ADD PUSH3 0x5D0 JUMP JUMPDEST SWAP3 DUP3 MLOAD DUP2 DUP2 GT PUSH3 0x485 JUMPI PUSH1 0x3 SWAP1 DUP2 SLOAD SWAP1 PUSH1 0x1 SWAP6 DUP7 DUP4 DUP2 SHR SWAP4 AND DUP1 ISZERO PUSH3 0x580 JUMPI JUMPDEST DUP13 DUP5 LT EQ PUSH3 0x56A JUMPI DUP2 SWAP1 DUP13 PUSH1 0x1F SWAP5 DUP6 DUP2 GT PUSH3 0x511 JUMPI JUMPDEST POP POP DUP13 SWAP1 DUP14 DUP6 DUP5 GT PUSH1 0x1 EQ PUSH3 0x4A7 JUMPI POP PUSH1 0x0 SWAP3 PUSH3 0x49B JUMPI JUMPDEST POP POP PUSH1 0x0 NOT DUP3 DUP6 SHL SHR NOT AND SWAP1 DUP7 SHL OR DUP3 SSTORE JUMPDEST DUP4 MLOAD SWAP3 DUP4 GT PUSH3 0x485 JUMPI PUSH1 0x4 SWAP4 DUP5 SLOAD DUP7 DUP2 DUP2 SHR SWAP2 AND DUP1 ISZERO PUSH3 0x47A JUMPI JUMPDEST DUP13 DUP3 LT EQ PUSH3 0x465 JUMPI SWAP1 DUP12 DUP3 DUP5 DUP8 SWAP7 SWAP6 SWAP5 GT PUSH3 0x408 JUMPI JUMPDEST POP POP DUP12 SWAP2 DUP5 GT PUSH1 0x1 EQ PUSH3 0x39D JUMPI PUSH1 0x0 SWAP4 PUSH3 0x391 JUMPI JUMPDEST POP POP DUP3 DUP6 SHL SWAP3 PUSH1 0x0 NOT SWAP2 SHL SHR NOT AND OR DUP2 SSTORE JUMPDEST PUSH1 0x1 PUSH1 0x1 PUSH1 0xA0 SHL SUB DUP5 DUP2 AND SWAP2 SWAP1 DUP3 ISZERO PUSH3 0x37A JUMPI PUSH1 0x5 DUP1 SLOAD PUSH1 0x1 PUSH1 0x1 PUSH1 0xA0 SHL SUB NOT DUP1 DUP3 AND DUP7 OR SWAP1 SWAP3 SSTORE DUP10 MLOAD SWAP2 SWAP3 SWAP1 DUP6 SWAP1 DUP3 AND PUSH32 0x8BE0079C531659141344CD1FD0A4F28419497F9722A3DAAFE3B4186F6B6457E0 PUSH1 0x0 DUP1 LOG3 PUSH1 0xFF NOT SWAP7 DUP7 DUP9 PUSH1 0xC SLOAD AND OR PUSH1 0xC SSTORE DUP7 DUP9 PUSH1 0x11 SLOAD AND OR PUSH1 0x11 SSTORE AND SWAP3 DUP4 ISZERO PUSH3 0x33A JUMPI POP POP SWAP2 DUP2 PUSH3 0x32C SWAP9 SWAP10 SWAP3 PUSH1 0x14 SWAP5 PUSH1 0x6 SLOAD AND OR PUSH1 0x6 SSTORE PUSH1 0x0 PUSH1 0x60 DUP12 MLOAD PUSH3 0x1F4 DUP2 PUSH3 0x590 JUMP JUMPDEST DUP3 DUP2 MSTORE DUP3 DUP7 DUP3 ADD MSTORE DUP3 DUP14 DUP3 ADD MSTORE ADD MSTORE PUSH2 0x190 PUSH1 0x60 DUP12 MLOAD PUSH3 0x215 DUP2 PUSH3 0x590 JUMP JUMPDEST PUSH1 0xC8 DUP2 MSTORE PUSH1 0xC8 DUP7 DUP3 ADD MSTORE PUSH1 0x0 DUP14 DUP3 ADD MSTORE ADD MSTORE PUSH8 0x2580000012C012C PUSH1 0x1 DUP1 PUSH1 0x40 SHL SUB NOT PUSH8 0x190000000C800C8 DUP2 PUSH1 0xA SLOAD AND OR PUSH1 0xA SSTORE PUSH1 0x0 PUSH1 0x60 DUP14 DUP3 DUP2 MLOAD SWAP2 PUSH3 0x25E DUP4 PUSH3 0x590 JUMP JUMPDEST DUP2 DUP4 MSTORE DUP2 DUP11 DUP5 ADD MSTORE DUP3 ADD MSTORE ADD MSTORE PUSH2 0x258 PUSH1 0x60 DUP14 PUSH1 0x0 DUP2 MLOAD SWAP2 PUSH3 0x281 DUP4 PUSH3 0x590 JUMP JUMPDEST PUSH2 0x12C DUP1 DUP5 MSTORE DUP11 DUP5 ADD MSTORE DUP3 ADD MSTORE ADD MSTORE PUSH1 0xB SLOAD AND OR PUSH1 0xB SSTORE PUSH2 0x2710 DUP9 DIV PUSH1 0xD SSTORE DUP2 PUSH1 0x0 MSTORE PUSH1 0x16 DUP4 MSTORE DUP10 PUSH1 0x0 KECCAK256 DUP6 DUP8 DUP3 SLOAD AND OR SWAP1 SSTORE ADDRESS PUSH1 0x0 MSTORE DUP10 PUSH1 0x0 KECCAK256 DUP6 DUP8 DUP3 SLOAD AND OR SWAP1 SSTORE DUP1 PUSH1 0x0 MSTORE DUP10 PUSH1 0x0 KECCAK256 DUP6 DUP8 DUP3 SLOAD AND OR SWAP1 SSTORE DUP2 PUSH1 0x0 MSTORE PUSH1 0x17 DUP4 MSTORE DUP10 PUSH1 0x0 KECCAK256 DUP6 DUP8 DUP3 SLOAD AND OR SWAP1 SSTORE ADDRESS PUSH1 0x0 MSTORE DUP10 PUSH1 0x0 KECCAK256 DUP6 DUP8 DUP3 SLOAD AND OR SWAP1 SSTORE PUSH1 0x0 MSTORE DUP9 PUSH1 0x0 KECCAK256 DUP5 DUP7 DUP3 SLOAD AND OR SWAP1 SSTORE PUSH1 0x0 MSTORE MSTORE DUP6 PUSH1 0x0 KECCAK256 DUP2 DUP4 DUP3 SLOAD AND OR SWAP1 SSTORE ADDRESS PUSH1 0x0 MSTORE DUP6 PUSH1 0x0 KECCAK256 SWAP2 DUP3 SLOAD AND OR SWAP1 SSTORE PUSH3 0x6D2 JUMP JUMPDEST MLOAD PUSH2 0x2119 SWAP1 DUP2 PUSH3 0x113D DUP3 CODECOPY RETURN JUMPDEST PUSH3 0x461BCD PUSH1 0xE5 SHL DUP3 MSTORE DUP2 ADD DUP11 SWAP1 MSTORE PUSH1 0x14 PUSH1 0x24 DUP3 ADD MSTORE PUSH32 0x6D61726B6574696E672077616C6C6574203D2030000000000000000000000000 PUSH1 0x44 DUP3 ADD MSTORE PUSH1 0x64 SWAP1 REVERT JUMPDEST DUP8 MLOAD PUSH4 0x1E4FBDF7 PUSH1 0xE0 SHL DUP2 MSTORE PUSH1 0x0 DUP2 DUP5 ADD MSTORE PUSH1 0x24 SWAP1 REVERT JUMPDEST ADD MLOAD SWAP2 POP CODESIZE DUP1 PUSH3 0x143 JUMP JUMPDEST PUSH1 0x0 DUP7 DUP2 MSTORE DUP13 DUP2 KECCAK256 DUP9 SWAP7 POP SWAP4 SWAP3 SWAP2 SWAP1 PUSH1 0x1F NOT DUP7 AND SWAP1 DUP15 JUMPDEST DUP3 DUP3 LT PUSH3 0x3F0 JUMPI POP POP DUP6 GT PUSH3 0x3D5 JUMPI JUMPDEST POP POP POP POP DUP2 SHL ADD DUP2 SSTORE PUSH3 0x155 JUMP JUMPDEST ADD MLOAD SWAP1 PUSH1 0xF8 DUP5 PUSH1 0x0 NOT SWAP3 SHL AND SHR NOT AND SWAP1 SSTORE CODESIZE DUP1 DUP1 DUP1 PUSH3 0x3C6 JUMP JUMPDEST DUP4 DUP6 ADD MLOAD DUP8 SSTORE DUP11 SWAP9 SWAP1 SWAP7 ADD SWAP6 SWAP4 DUP5 ADD SWAP4 ADD DUP15 PUSH3 0x3B4 JUMP JUMPDEST SWAP1 SWAP2 SWAP3 SWAP4 SWAP5 POP DUP7 PUSH1 0x0 MSTORE DUP4 DUP3 PUSH1 0x0 KECCAK256 SWAP2 DUP2 DUP9 ADD PUSH1 0x5 SHR DUP4 ADD SWAP4 DUP9 LT PUSH3 0x45B JUMPI JUMPDEST SWAP2 DUP10 SWAP2 DUP9 SWAP8 SWAP7 SWAP6 SWAP5 SWAP4 ADD PUSH1 0x5 SHR ADD SWAP2 JUMPDEST DUP3 DUP2 LT PUSH3 0x44B JUMPI POP DUP14 SWAP2 POP PUSH3 0x12C JUMP JUMPDEST PUSH1 0x0 DUP2 SSTORE DUP8 SWAP7 POP DUP10 SWAP2 ADD PUSH3 0x439 JUMP JUMPDEST SWAP3 POP DUP2 SWAP3 PUSH3 0x429 JUMP JUMPDEST PUSH1 0x22 DUP7 PUSH4 0x4E487B71 PUSH1 0xE0 SHL PUSH1 0x0 MSTORE MSTORE PUSH1 0x24 PUSH1 0x0 REVERT JUMPDEST SWAP1 PUSH1 0x7F AND SWAP1 PUSH3 0x114 JUMP JUMPDEST PUSH4 0x4E487B71 PUSH1 0xE0 SHL PUSH1 0x0 MSTORE PUSH1 0x41 PUSH1 0x4 MSTORE PUSH1 0x24 PUSH1 0x0 REVERT JUMPDEST ADD MLOAD SWAP1 POP CODESIZE DUP1 PUSH3 0xE5 JUMP JUMPDEST SWAP2 SWAP1 DUP10 SWAP5 POP PUSH1 0x1F NOT DUP5 AND DUP8 PUSH1 0x0 MSTORE DUP4 PUSH1 0x0 KECCAK256 SWAP4 PUSH1 0x0 SWAP1 JUMPDEST DUP3 DUP3 LT PUSH3 0x4F7 JUMPI POP POP DUP5 GT PUSH3 0x4DE JUMPI JUMPDEST POP POP POP DUP2 SHL ADD DUP3 SSTORE PUSH3 0xF7 JUMP JUMPDEST ADD MLOAD PUSH1 0x0 NOT DUP4 DUP8 SHL PUSH1 0xF8 AND SHR NOT AND SWAP1 SSTORE CODESIZE DUP1 DUP1 PUSH3 0x4D0 JUMP JUMPDEST DUP5 DUP5 ADD MLOAD DUP7 SSTORE DUP13 SWAP8 SWAP1 SWAP6 ADD SWAP5 SWAP4 DUP5 ADD SWAP4 SWAP1 DUP2 ADD SWAP1 PUSH3 0x4BE JUMP JUMPDEST SWAP1 SWAP2 SWAP3 POP DUP6 PUSH1 0x0 MSTORE DUP5 DUP3 PUSH1 0x0 KECCAK256 SWAP2 DUP2 DUP7 ADD PUSH1 0x5 SHR DUP4 ADD SWAP4 DUP7 LT PUSH3 0x560 JUMPI JUMPDEST SWAP2 DUP11 SWAP2 DUP7 SWAP6 SWAP5 SWAP4 ADD PUSH1 0x5 SHR ADD SWAP2 JUMPDEST DUP3 DUP2 LT PUSH3 0x550 JUMPI POP DUP15 SWAP2 POP PUSH3 0xCB JUMP JUMPDEST PUSH1 0x0 DUP2 SSTORE DUP6 SWAP5 POP DUP11 SWAP2 ADD PUSH3 0x53E JUMP JUMPDEST SWAP3 POP DUP2 SWAP3 PUSH3 0x530 JUMP JUMPDEST PUSH4 0x4E487B71 PUSH1 0xE0 SHL PUSH1 0x0 MSTORE PUSH1 0x22 PUSH1 0x4 MSTORE PUSH1 0x24 PUSH1 0x0 REVERT JUMPDEST SWAP3 PUSH1 0x7F AND SWAP3 PUSH3 0xB3 JUMP JUMPDEST PUSH1 0x0 DUP1 REVERT JUMPDEST PUSH1 0x80 DUP2 ADD SWAP1 DUP2 LT PUSH1 0x1 PUSH1 0x1 PUSH1 0x40 SHL SUB DUP3 GT OR PUSH3 0x485 JUMPI PUSH1 0x40 MSTORE JUMP JUMPDEST PUSH1 0x1F SWAP1 SWAP2 ADD PUSH1 0x1F NOT AND DUP2 ADD SWAP1 PUSH1 0x1 PUSH1 0x1 PUSH1 0x40 SHL SUB DUP3 GT SWAP1 DUP3 LT OR PUSH3 0x485 JUMPI PUSH1 0x40 MSTORE JUMP JUMPDEST MLOAD SWAP1 PUSH1 0x1 PUSH1 0x1 PUSH1 0xA0 SHL SUB DUP3 AND DUP3 SUB PUSH3 0x58B JUMPI JUMP JUMPDEST PUSH1 0x1 PUSH1 0x1 PUSH1 0x40 SHL SUB DUP2 GT PUSH3 0x485 JUMPI PUSH1 0x1F ADD PUSH1 0x1F NOT AND PUSH1 0x20 ADD SWAP1 JUMP JUMPDEST SWAP2 SWAP1 DUP1 PUSH1 0x1F DUP5 ADD SLT ISZERO PUSH3 0x58B JUMPI DUP3 MLOAD SWAP1 PUSH3 0x61D DUP3 PUSH3 0x5E5 JUMP JUMPDEST SWAP2 PUSH3 0x62D PUSH1 0x40 MLOAD SWAP4 DUP5 PUSH3 0x5AC JUMP JUMPDEST DUP1 DUP4 MSTORE PUSH1 0x20 SWAP2 DUP3 DUP3 DUP8 ADD ADD GT PUSH3 0x58B JUMPI PUSH1 0x0 JUMPDEST DUP2 DUP2 LT PUSH3 0x657 JUMPI POP DUP3 PUSH1 0x0 SWAP4 SWAP5 SWAP6 POP ADD ADD MSTORE SWAP1 JUMP JUMPDEST DUP6 DUP2 ADD DUP4 ADD MLOAD DUP5 DUP3 ADD DUP5 ADD MSTORE DUP3 ADD PUSH3 0x641 JUMP JUMPDEST DUP2 ISZERO PUSH3 0x676 JUMPI DIV SWAP1 JUMP JUMPDEST PUSH4 0x4E487B71 PUSH1 0xE0 SHL PUSH1 0x0 MSTORE PUSH1 0x12 PUSH1 0x4 MSTORE PUSH1 0x24 PUSH1 0x0 REVERT JUMPDEST SWAP2 SWAP1 DUP3 ADD DUP1 SWAP3 GT PUSH3 0x69A JUMPI JUMP JUMPDEST PUSH4 0x4E487B71 PUSH1 0xE0 SHL PUSH1 0x0 MSTORE PUSH1 0x11 PUSH1 0x4 MSTORE PUSH1 0x24 PUSH1 0x0 REVERT JUMPDEST DUP2 DUP2 MUL SWAP3 SWAP2 DUP2 ISZERO SWAP2 DUP5 DIV EQ OR ISZERO PUSH3 0x69A JUMPI JUMP JUMPDEST SWAP2 SWAP1 DUP3 SUB SWAP2 DUP3 GT PUSH3 0x69A JUMPI JUMP JUMPDEST SWAP1 PUSH1 0x0 SWAP2 DUP3 DUP1 MSTORE PUSH1 0x20 PUSH1 0x15 DUP2 MSTORE PUSH1 0xFF PUSH1 0x40 SWAP1 DUP1 DUP3 DUP8 KECCAK256 SLOAD AND ISZERO DUP1 PUSH3 0xC38 JUMPI JUMPDEST ISZERO PUSH3 0xC06 JUMPI PUSH1 0xF SLOAD DUP1 ISZERO ISZERO DUP1 PUSH3 0xBD7 JUMPI JUMPDEST PUSH3 0xB90 JUMPI JUMPDEST POP PUSH1 0x8 SLOAD PUSH1 0x1 PUSH1 0x1 PUSH1 0xA0 SHL SUB DUP1 DUP3 AND DUP1 ISZERO SWAP4 PUSH1 0xA0 SWAP4 SWAP1 SWAP4 SHR DUP4 AND SWAP3 SWAP2 DUP5 SWAP1 DUP2 PUSH3 0xB7D JUMPI JUMPDEST DUP1 DUP10 AND SWAP3 DUP4 EQ SWAP5 DUP1 PUSH3 0xB71 JUMPI JUMPDEST DUP1 PUSH3 0xB69 JUMPI JUMPDEST DUP1 PUSH3 0xB54 JUMPI JUMPDEST PUSH3 0xAEC JUMPI JUMPDEST DUP11 DUP1 MSTORE PUSH1 0x17 DUP9 MSTORE DUP4 DUP8 DUP13 KECCAK256 SLOAD AND ISZERO DUP1 PUSH3 0xADB JUMPI JUMPDEST PUSH3 0x9E4 JUMPI JUMPDEST PUSH1 0xE SLOAD SWAP2 DUP5 DUP4 AND ISZERO SWAP2 DUP3 PUSH3 0x9D7 JUMPI JUMPDEST DUP3 PUSH3 0x9CE JUMPI JUMPDEST DUP3 PUSH3 0x9BF JUMPI JUMPDEST POP DUP2 PUSH3 0x9B5 JUMPI JUMPDEST POP DUP1 PUSH3 0x9A9 JUMPI JUMPDEST DUP1 PUSH3 0x993 JUMPI JUMPDEST PUSH3 0x96F JUMPI JUMPDEST POP DUP2 PUSH1 0xE SLOAD AND ISZERO SWAP3 DUP4 PUSH3 0x950 JUMPI JUMPDEST POP DUP3 PUSH3 0x947 JUMPI JUMPDEST DUP3 PUSH3 0x93C JUMPI JUMPDEST DUP3 PUSH3 0x926 JUMPI JUMPDEST DUP3 PUSH3 0x910 JUMPI JUMPDEST POP POP PUSH3 0x7ED JUMPI JUMPDEST POP POP POP PUSH3 0x7EB SWAP3 POP PUSH3 0xC52 JUMP JUMPDEST JUMP JUMPDEST ISZERO PUSH3 0x907 JUMPI PUSH1 0xA SWAP5 JUMPDEST DUP2 MLOAD SWAP6 PUSH3 0x805 DUP8 PUSH3 0x590 JUMP JUMPDEST SLOAD SWAP6 PUSH2 0xFFFF SWAP1 DUP2 DUP9 AND DUP2 MSTORE DUP2 DUP9 PUSH1 0x10 SHR AND DUP6 DUP3 ADD MSTORE PUSH1 0x60 DUP3 DUP6 DUP4 ADD SWAP10 DUP2 DUP2 DUP10 SHR AND DUP12 MSTORE PUSH1 0x30 SHR AND SWAP2 ADD SWAP1 DUP1 DUP3 MSTORE DUP1 PUSH3 0x842 JUMPI JUMPDEST POP POP POP PUSH3 0x7DC JUMP JUMPDEST PUSH3 0x851 PUSH2 0x2710 SWAP2 DUP10 PUSH3 0x6B0 JUMP JUMPDEST DIV SWAP2 DUP3 ISZERO PUSH3 0x839 JUMPI PUSH3 0x896 SWAP2 DUP2 PUSH3 0x884 PUSH3 0x88E SWAP4 PUSH3 0x87A DUP8 PUSH3 0x7EB SWAP15 SWAP14 PUSH3 0x6C4 JUMP JUMPDEST SWAP12 MLOAD AND DUP7 PUSH3 0x6B0 JUMP JUMPDEST SWAP2 MLOAD AND SWAP1 PUSH3 0x66B JUMP JUMPDEST DUP1 SWAP3 PUSH3 0x6C4 JUMP JUMPDEST SWAP4 DUP2 PUSH3 0x8C3 JUMPI JUMPDEST POP POP POP POP DUP1 PUSH3 0x8B0 JUMPI JUMPDEST POP PUSH3 0xC52 JUMP JUMPDEST PUSH3 0x8BC SWAP1 ADDRESS PUSH3 0xC52 JUMP JUMPDEST CODESIZE PUSH3 0x8A9 JUMP JUMPDEST DUP2 PUSH3 0x8E2 PUSH1 0x0 DUP1 MLOAD PUSH1 0x20 PUSH3 0x3256 DUP4 CODECOPY DUP2 MLOAD SWAP2 MSTORE SWAP4 PUSH1 0x2 SLOAD PUSH3 0x68C JUMP JUMPDEST PUSH1 0x2 SSTORE PUSH2 0xDEAD SWAP5 DUP6 DUP6 MSTORE DUP5 DUP4 MSTORE DUP1 DUP6 KECCAK256 DUP3 DUP2 SLOAD ADD SWAP1 SSTORE MLOAD SWAP1 DUP2 MSTORE LOG3 CODESIZE DUP1 DUP1 DUP1 PUSH3 0x89E JUMP JUMPDEST PUSH1 0xB SWAP5 PUSH3 0x7F7 JUMP JUMPDEST DUP9 MSTORE PUSH1 0x16 DUP6 MSTORE DUP4 DUP9 KECCAK256 SLOAD AND ISZERO SWAP1 POP CODESIZE DUP1 PUSH3 0x7D4 JUMP JUMPDEST DUP9 DUP1 MSTORE PUSH1 0x16 DUP7 MSTORE DUP5 DUP10 KECCAK256 SLOAD DUP3 AND ISZERO SWAP3 POP PUSH3 0x7CD JUMP JUMPDEST DUP1 ISZERO ISZERO SWAP3 POP PUSH3 0x7C6 JUMP JUMPDEST DUP9 SWAP3 POP PUSH3 0x7BF JUMP JUMPDEST SWAP1 SWAP3 POP DUP4 SWAP1 DUP5 ISZERO PUSH3 0x966 JUMPI JUMPDEST POP SWAP2 CODESIZE PUSH3 0x7B7 JUMP JUMPDEST SWAP1 POP CODESIZE PUSH3 0x95D JUMP JUMPDEST PUSH1 0xFF NOT SWAP1 DUP2 AND PUSH1 0x1 OR PUSH1 0xE SSTORE PUSH3 0x985 PUSH3 0xCB3 JUMP JUMPDEST PUSH1 0xE SLOAD AND PUSH1 0xE SSTORE CODESIZE PUSH3 0x7A8 JUMP JUMPDEST POP ADDRESS DUP11 MSTORE DUP10 DUP8 MSTORE DUP6 DUP11 KECCAK256 SLOAD PUSH1 0xD SLOAD GT ISZERO PUSH3 0x7A2 JUMP JUMPDEST POP PUSH1 0xD SLOAD ISZERO ISZERO PUSH3 0x79B JUMP JUMPDEST SWAP1 POP ISZERO CODESIZE PUSH3 0x793 JUMP JUMPDEST PUSH1 0x7 SLOAD AND ISZERO ISZERO SWAP2 POP CODESIZE PUSH3 0x78B JUMP JUMPDEST DUP7 SWAP3 POP PUSH3 0x784 JUMP JUMPDEST PUSH1 0xC SLOAD DUP7 AND SWAP3 POP PUSH3 0x77D JUMP JUMPDEST PUSH1 0x12 SLOAD DUP1 ISZERO ISZERO DUP1 PUSH3 0xACB JUMPI JUMPDEST PUSH3 0xA87 JUMPI JUMPDEST POP PUSH1 0x13 SLOAD DUP12 DUP12 DUP10 DUP4 ISZERO ISZERO DUP1 PUSH3 0xA7F JUMPI JUMPDEST PUSH3 0xA18 JUMPI JUMPDEST POP POP POP POP PUSH3 0x76D JUMP JUMPDEST DUP3 DUP8 PUSH3 0xA2B SWAP5 MSTORE DUP1 DUP14 MSTORE KECCAK256 SLOAD PUSH3 0x68C JUMP JUMPDEST GT PUSH3 0xA3B JUMPI CODESIZE DUP12 DUP12 DUP10 PUSH3 0xA0E JUMP JUMPDEST DUP7 MLOAD PUSH3 0x461BCD PUSH1 0xE5 SHL DUP2 MSTORE PUSH1 0x4 DUP2 ADD DUP10 SWAP1 MSTORE PUSH1 0x13 PUSH1 0x24 DUP3 ADD MSTORE PUSH32 0x4D61782077616C6C657420657863656564656400000000000000000000000000 PUSH1 0x44 DUP3 ADD MSTORE PUSH1 0x64 SWAP1 REVERT JUMPDEST POP DUP10 PUSH3 0xA08 JUMP JUMPDEST DUP11 GT PUSH3 0xA95 JUMPI CODESIZE PUSH3 0x9F7 JUMP JUMPDEST DUP7 MLOAD PUSH3 0x461BCD PUSH1 0xE5 SHL DUP2 MSTORE PUSH1 0x4 DUP2 ADD DUP10 SWAP1 MSTORE PUSH1 0xF PUSH1 0x24 DUP3 ADD MSTORE PUSH15 0x13585E081D1E08195E18D959591959 PUSH1 0x8A SHL PUSH1 0x44 DUP3 ADD MSTORE PUSH1 0x64 SWAP1 REVERT JUMPDEST POP DUP7 DUP8 PUSH3 0x9F1 JUMPI POP DUP6 PUSH3 0x9F1 JUMP JUMPDEST POP DUP3 DUP12 MSTORE DUP4 DUP8 DUP13 KECCAK256 SLOAD AND ISZERO PUSH3 0x767 JUMP JUMPDEST PUSH3 0xAFD PUSH1 0x9 SLOAD PUSH1 0x10 SLOAD SWAP1 PUSH3 0x68C JUMP JUMPDEST NUMBER LT ISZERO PUSH3 0x752 JUMPI DUP4 PUSH1 0x11 SLOAD AND ISZERO PUSH3 0x752 JUMPI DUP7 MLOAD PUSH3 0x461BCD PUSH1 0xE5 SHL DUP2 MSTORE PUSH1 0x4 DUP2 ADD DUP10 SWAP1 MSTORE PUSH1 0x1A PUSH1 0x24 DUP3 ADD MSTORE PUSH32 0x416E7469426F743A206561726C792062757920626C6F636B6564000000000000 PUSH1 0x44 DUP3 ADD MSTORE PUSH1 0x64 SWAP1 REVERT JUMPDEST POP DUP3 DUP12 MSTORE PUSH1 0x14 DUP9 MSTORE DUP4 DUP8 DUP13 KECCAK256 SLOAD AND ISZERO PUSH3 0x74C JUMP JUMPDEST POP DUP6 PUSH3 0x745 JUMP JUMPDEST POP PUSH1 0x10 SLOAD ISZERO ISZERO PUSH3 0x73E JUMP JUMPDEST DUP1 SWAP6 POP PUSH1 0x7 SLOAD AND DUP6 DUP10 AND EQ ISZERO SWAP5 PUSH3 0x730 JUMP JUMPDEST GASPRICE GT PUSH3 0xB9E JUMPI CODESIZE PUSH3 0x70B JUMP JUMPDEST DUP2 MLOAD PUSH3 0x461BCD PUSH1 0xE5 SHL DUP2 MSTORE PUSH1 0x4 DUP2 ADD DUP5 SWAP1 MSTORE PUSH1 0x12 PUSH1 0x24 DUP3 ADD MSTORE PUSH18 0x8EC2E640E0E4D2C6CA40E8DEDE40D0D2CED PUSH1 0x73 SHL PUSH1 0x44 DUP3 ADD MSTORE PUSH1 0x64 SWAP1 REVERT JUMPDEST POP PUSH1 0x8 SLOAD PUSH1 0x1 PUSH1 0x1 PUSH1 0xA0 SHL SUB SWAP1 DUP2 AND DUP1 ISZERO SWAP2 DUP3 ISZERO PUSH3 0xBF9 JUMPI JUMPDEST POP POP PUSH3 0x705 JUMP JUMPDEST DUP8 AND EQ SWAP1 POP CODESIZE DUP1 PUSH3 0xBF1 JUMP JUMPDEST DUP2 MLOAD PUSH3 0x461BCD PUSH1 0xE5 SHL DUP2 MSTORE PUSH1 0x4 DUP2 ADD DUP5 SWAP1 MSTORE PUSH1 0xB PUSH1 0x24 DUP3 ADD MSTORE PUSH11 0x109B1858DADB1A5CDD1959 PUSH1 0xAA SHL PUSH1 0x44 DUP3 ADD MSTORE PUSH1 0x64 SWAP1 REVERT JUMPDEST POP PUSH1 0x1 PUSH1 0x1 PUSH1 0xA0 SHL SUB DUP5 AND DUP7 MSTORE DUP2 DUP7 KECCAK256 SLOAD DUP2 AND ISZERO PUSH3 0x6F2 JUMP JUMPDEST PUSH1 0x0 DUP1 MLOAD PUSH1 0x20 PUSH3 0x3256 DUP4 CODECOPY DUP2 MLOAD SWAP2 MSTORE PUSH1 0x20 PUSH1 0x0 SWAP3 PUSH3 0xC75 DUP6 PUSH1 0x2 SLOAD PUSH3 0x68C JUMP JUMPDEST PUSH1 0x2 SSTORE PUSH1 0x1 PUSH1 0x1 PUSH1 0xA0 SHL SUB AND SWAP4 DUP5 ISZERO DUP5 EQ PUSH3 0xC9D JUMPI DUP1 PUSH1 0x2 SLOAD SUB PUSH1 0x2 SSTORE JUMPDEST PUSH1 0x40 MLOAD SWAP1 DUP2 MSTORE LOG3 JUMP JUMPDEST DUP5 DUP5 MSTORE DUP4 DUP3 MSTORE PUSH1 0x40 DUP5 KECCAK256 DUP2 DUP2 SLOAD ADD SWAP1 SSTORE PUSH3 0xC94 JUMP JUMPDEST PUSH1 0x0 ADDRESS DUP2 MSTORE PUSH1 0x20 DUP2 DUP2 MSTORE PUSH1 0x40 DUP1 DUP4 KECCAK256 SLOAD DUP1 ISZERO PUSH3 0x10A1 JUMPI PUSH1 0x7 SLOAD PUSH1 0x1 PUSH1 0x1 PUSH1 0xA0 SHL SUB SWAP4 SWAP1 DUP5 AND SWAP1 DUP2 ISZERO PUSH3 0x1099 JUMPI DUP5 PUSH1 0x8 SLOAD AND ISZERO PUSH3 0x1099 JUMPI PUSH1 0xB SLOAD PUSH2 0xFFFF DUP1 DUP3 PUSH1 0x30 SHR AND DUP1 ISZERO PUSH3 0x108E JUMPI PUSH3 0xD18 PUSH3 0xD1E SWAP3 PUSH3 0xD26 SWAP5 PUSH1 0x10 SHR AND DUP8 PUSH3 0x6B0 JUMP JUMPDEST PUSH3 0x66B JUMP JUMPDEST DUP1 SWAP5 PUSH3 0x6C4 JUMP JUMPDEST PUSH1 0x1 PUSH3 0xD42 PUSH3 0xD3B DUP7 DUP4 SHR DUP1 SWAP8 PUSH3 0x6C4 JUMP JUMPDEST DUP4 PUSH3 0x68C JUMP JUMPDEST SWAP4 DUP5 ISZERO PUSH3 0x108E JUMPI DUP5 PUSH3 0xD57 SWAP2 ADDRESS PUSH3 0x10A7 JUMP JUMPDEST DUP6 MLOAD SELFBALANCE SWAP2 PUSH1 0x1 PUSH1 0x1 PUSH1 0x40 SHL SUB SWAP1 PUSH1 0x60 DUP4 ADD DUP3 DUP2 GT DUP5 DUP3 LT OR PUSH3 0x107A JUMPI DUP10 MSTORE PUSH1 0x2 DUP4 MSTORE DUP6 DUP4 ADD DUP10 CALLDATASIZE DUP3 CALLDATACOPY DUP4 MLOAD ISZERO PUSH3 0x1066 JUMPI ADDRESS DUP2 MSTORE DUP11 PUSH1 0x7 SLOAD AND SWAP2 DUP11 MLOAD PUSH4 0x15AB88C9 PUSH1 0xE3 SHL DUP2 MSTORE DUP9 DUP2 PUSH1 0x4 DUP2 DUP8 GAS STATICCALL SWAP1 DUP2 ISZERO PUSH3 0x105A JUMPI DUP15 SWAP2 PUSH3 0x1019 JUMPI JUMPDEST POP DUP6 MLOAD DUP3 LT ISZERO PUSH3 0x1005 JUMPI DUP13 AND DUP12 DUP7 ADD MSTORE DUP3 EXTCODESIZE ISZERO PUSH3 0x1001 JUMPI SWAP4 SWAP1 SWAP2 DUP13 SWAP3 DUP13 DUP13 MLOAD SWAP7 DUP8 SWAP5 PUSH4 0x791AC947 PUSH1 0xE0 SHL DUP7 MSTORE PUSH1 0xA4 DUP7 ADD SWAP1 DUP14 PUSH1 0x4 DUP9 ADD MSTORE DUP8 PUSH1 0x24 DUP9 ADD MSTORE PUSH1 0xA0 PUSH1 0x44 DUP9 ADD MSTORE MLOAD DUP1 SWAP2 MSTORE PUSH1 0xC4 DUP7 ADD SWAP4 SWAP3 DUP13 DUP9 SWAP2 JUMPDEST DUP4 DUP4 LT PUSH3 0xFDA JUMPI POP POP POP POP POP POP DUP4 DUP4 DUP1 SWAP3 ADDRESS PUSH1 0x64 DUP4 ADD MSTORE TIMESTAMP PUSH1 0x84 DUP4 ADD MSTORE SUB SWAP3 GAS CALL DUP1 ISZERO PUSH3 0xFD0 JUMPI PUSH3 0xFA4 JUMPI JUMPDEST POP POP PUSH3 0xE47 SWAP1 SELFBALANCE PUSH3 0x6C4 JUMP JUMPDEST SWAP3 DUP4 ISZERO PUSH3 0xF9A JUMPI PUSH3 0xD1E PUSH3 0xE65 SWAP2 PUSH3 0xD18 DUP11 SWAP5 DUP8 PUSH3 0x6B0 JUMP JUMPDEST SWAP3 DUP1 ISZERO ISZERO DUP1 PUSH3 0xF8C JUMPI JUMPDEST PUSH3 0xF45 JUMPI JUMPDEST POP POP POP DUP2 ISZERO ISZERO DUP1 PUSH3 0xF3B JUMPI JUMPDEST PUSH3 0xE90 JUMPI JUMPDEST POP POP POP POP POP JUMP JUMPDEST PUSH1 0xC4 DUP3 PUSH3 0xEA6 PUSH1 0x60 SWAP5 DUP8 PUSH1 0x7 SLOAD AND ADDRESS PUSH3 0x10A7 JUMP JUMPDEST DUP6 PUSH1 0x7 SLOAD AND SWAP6 PUSH1 0x5 SLOAD AND SWAP3 DUP6 MLOAD SWAP7 DUP8 SWAP5 DUP6 SWAP4 PUSH4 0xF305D719 PUSH1 0xE0 SHL DUP6 MSTORE ADDRESS PUSH1 0x4 DUP7 ADD MSTORE PUSH1 0x24 DUP6 ADD MSTORE DUP10 PUSH1 0x44 DUP6 ADD MSTORE DUP10 PUSH1 0x64 DUP6 ADD MSTORE PUSH1 0x84 DUP5 ADD MSTORE TIMESTAMP PUSH1 0xA4 DUP5 ADD MSTORE GAS CALL SWAP1 DUP2 ISZERO PUSH3 0xF32 JUMPI POP PUSH3 0xEFE JUMPI JUMPDEST DUP1 DUP1 DUP1 PUSH3 0xE89 JUMP JUMPDEST PUSH1 0x60 SWAP1 DUP2 RETURNDATASIZE DUP2 GT PUSH3 0xF2A JUMPI JUMPDEST PUSH3 0xF17 DUP2 DUP4 PUSH3 0x5AC JUMP JUMPDEST DUP2 ADD SUB SLT PUSH3 0xF27 JUMPI DUP1 PUSH3 0xEF5 JUMP JUMPDEST DUP1 REVERT JUMPDEST POP RETURNDATASIZE PUSH3 0xF0B JUMP JUMPDEST MLOAD RETURNDATASIZE DUP5 DUP3 RETURNDATACOPY RETURNDATASIZE SWAP1 REVERT JUMPDEST POP DUP1 ISZERO ISZERO PUSH3 0xE83 JUMP JUMPDEST DUP2 DUP1 DUP1 SWAP3 DUP10 PUSH1 0x6 SLOAD AND GAS CALL POP RETURNDATASIZE ISZERO PUSH3 0xF85 JUMPI DUP6 RETURNDATASIZE SWAP2 PUSH3 0xF66 DUP4 PUSH3 0x5E5 JUMP JUMPDEST SWAP3 PUSH3 0xF75 DUP8 MLOAD SWAP5 DUP6 PUSH3 0x5AC JUMP JUMPDEST DUP4 MSTORE RETURNDATASIZE SWAP3 ADD RETURNDATACOPY JUMPDEST CODESIZE DUP6 DUP2 PUSH3 0xE76 JUMP JUMPDEST POP PUSH3 0xF7C JUMP JUMPDEST POP DUP7 PUSH1 0x6 SLOAD AND ISZERO ISZERO PUSH3 0xE70 JUMP JUMPDEST POP POP POP POP POP POP POP POP JUMP JUMPDEST DUP2 SWAP10 SWAP3 SWAP10 GT PUSH3 0xFBC JUMPI DUP7 MSTORE SWAP7 PUSH3 0xE47 CODESIZE PUSH3 0xE39 JUMP JUMPDEST PUSH4 0x4E487B71 PUSH1 0xE0 SHL DUP3 MSTORE PUSH1 0x41 PUSH1 0x4 MSTORE PUSH1 0x24 DUP3 REVERT JUMPDEST DUP9 MLOAD RETURNDATASIZE DUP13 DUP3 RETURNDATACOPY RETURNDATASIZE SWAP1 REVERT JUMPDEST DUP5 SWAP8 SWAP10 POP DUP6 DUP3 SWAP5 SWAP8 SWAP3 SWAP4 SWAP7 SWAP10 POP MLOAD AND DUP2 MSTORE ADD SWAP6 ADD SWAP2 ADD SWAP3 DUP16 SWAP6 SWAP4 SWAP3 DUP16 SWAP4 DUP13 DUP11 SWAP8 SWAP6 PUSH3 0xE0A JUMP JUMPDEST DUP13 DUP1 REVERT JUMPDEST PUSH4 0x4E487B71 PUSH1 0xE0 SHL DUP15 MSTORE PUSH1 0x32 PUSH1 0x4 MSTORE PUSH1 0x24 DUP15 REVERT JUMPDEST SWAP1 POP DUP9 DUP2 DUP2 RETURNDATASIZE DUP4 GT PUSH3 0x1052 JUMPI JUMPDEST PUSH3 0x1033 DUP2 DUP4 PUSH3 0x5AC JUMP JUMPDEST DUP2 ADD SUB SLT PUSH3 0x104E JUMPI PUSH3 0x1047 SWAP1 PUSH3 0x5D0 JUMP JUMPDEST CODESIZE PUSH3 0xDB6 JUMP JUMPDEST DUP14 DUP1 REVERT JUMPDEST POP RETURNDATASIZE PUSH3 0x1027 JUMP JUMPDEST DUP15 DUP14 MLOAD SWAP1 RETURNDATASIZE SWAP1 DUP3 RETURNDATACOPY RETURNDATASIZE SWAP1 REVERT JUMPDEST PUSH4 0x4E487B71 PUSH1 0xE0 SHL DUP13 MSTORE PUSH1 0x32 PUSH1 0x4 MSTORE PUSH1 0x24 DUP13 REVERT JUMPDEST PUSH4 0x4E487B71 PUSH1 0xE0 SHL DUP13 MSTORE PUSH1 0x41 PUSH1 0x4 MSTORE PUSH1 0x24 DUP13 REVERT JUMPDEST POP POP POP POP POP POP POP POP POP JUMP JUMPDEST POP POP POP POP POP POP JUMP JUMPDEST POP POP POP POP JUMP JUMPDEST PUSH1 0x1 PUSH1 0x1 PUSH1 0xA0 SHL SUB SWAP1 DUP2 AND SWAP2 DUP3 ISZERO PUSH3 0x1123 JUMPI AND SWAP2 DUP3 ISZERO PUSH3 0x110A JUMPI PUSH1 0x20 PUSH32 0x8C5BE1E5EBEC7D5BD14F71427D1E84F3DD0314C0F7B2291E5B200AC8C7C3B925 SWAP2 DUP4 PUSH1 0x0 MSTORE PUSH1 0x1 DUP3 MSTORE PUSH1 0x40 PUSH1 0x0 KECCAK256 DUP6 PUSH1 0x0 MSTORE DUP3 MSTORE DUP1 PUSH1 0x40 PUSH1 0x0 KECCAK256 SSTORE PUSH1 0x40 MLOAD SWAP1 DUP2 MSTORE LOG3 JUMP JUMPDEST PUSH1 0x40 MLOAD PUSH4 0x4A1406B1 PUSH1 0xE1 SHL DUP2 MSTORE PUSH1 0x0 PUSH1 0x4 DUP3 ADD MSTORE PUSH1 0x24 SWAP1 REVERT JUMPDEST PUSH1 0x40 MLOAD PUSH4 0xE602DF05 PUSH1 0xE0 SHL DUP2 MSTORE PUSH1 0x0 PUSH1 0x4 DUP3 ADD MSTORE PUSH1 0x24 SWAP1 REVERT INVALID PUSH1 0x80 PUSH1 0x40 DUP2 DUP2 MSTORE PUSH1 0x4 SWAP2 DUP3 CALLDATASIZE LT ISZERO PUSH2 0x22 JUMPI JUMPDEST POP POP POP CALLDATASIZE ISZERO PUSH2 0x20 JUMPI PUSH1 0x0 DUP1 REVERT JUMPDEST STOP JUMPDEST PUSH1 0x0 SWAP3 DUP4 CALLDATALOAD PUSH1 0xE0 SHR SWAP2 DUP3 PUSH4 0x6FDDE03 EQ PUSH2 0x117A JUMPI POP DUP2 PUSH4 0x95EA7B3 EQ PUSH2 0x1150 JUMPI DUP2 PUSH4 0x1694505E EQ PUSH2 0x1127 JUMPI DUP2 PUSH4 0x18160DDD EQ PUSH2 0x1108 JUMPI DUP2 PUSH4 0x23B872DD EQ PUSH2 0x1014 JUMPI DUP2 PUSH4 0x2B14CA56 EQ PUSH2 0xFC8 JUMPI DUP2 PUSH4 0x2FC05806 EQ PUSH2 0xFA4 JUMPI DUP2 PUSH4 0x313CE567 EQ PUSH2 0xF88 JUMPI DUP2 PUSH4 0x3AF32ABF EQ PUSH2 0xF4A JUMPI DUP2 PUSH4 0x47062402 EQ PUSH2 0xEFE JUMPI DUP2 PUSH4 0x49BD5A5E EQ PUSH2 0xED5 JUMPI DUP2 PUSH4 0x4ADA218B EQ PUSH2 0xEAE JUMPI DUP2 PUSH4 0x4FBEE193 EQ PUSH2 0xE70 JUMPI DUP2 PUSH4 0x5CCE86CD EQ PUSH2 0xE32 JUMPI DUP2 PUSH4 0x5D098B38 EQ PUSH2 0xD68 JUMPI DUP2 PUSH4 0x66EB3785 EQ PUSH2 0xCD7 JUMPI DUP2 PUSH4 0x6951A079 EQ PUSH2 0xBE5 JUMPI DUP2 PUSH4 0x6DDD1713 EQ PUSH2 0xBC1 JUMPI DUP2 PUSH4 0x70A08231 EQ PUSH2 0xB8A JUMPI DUP2 PUSH4 0x715018A6 EQ PUSH2 0xB2A JUMPI DUP2 PUSH4 0x75F0A874 EQ PUSH2 0xB01 JUMPI DUP2 PUSH4 0x8A8C523C EQ PUSH2 0xA21 JUMPI DUP2 PUSH4 0x8C0B5E22 EQ PUSH2 0xA02 JUMPI DUP2 PUSH4 0x8DA5CB5B EQ PUSH2 0x9D9 JUMPI DUP2 PUSH4 0x92C818D6 EQ PUSH2 0x8BA JUMPI DUP2 PUSH4 0x95D89B41 EQ PUSH2 0x7B7 JUMPI DUP2 PUSH4 0x9F52256B EQ PUSH2 0x723 JUMPI DUP2 PUSH4 0xA9059CBB EQ PUSH2 0x6F2 JUMPI DUP2 PUSH4 0xAA4BDE28 EQ PUSH2 0x6D3 JUMPI DUP2 PUSH4 0xC0D78655 EQ PUSH2 0x4FE JUMPI DUP2 PUSH4 0xD00EFB2F EQ PUSH2 0x4DF JUMPI DUP2 PUSH4 0xD0E10326 EQ PUSH2 0x473 JUMPI DUP2 PUSH4 0xDD62ED3E EQ PUSH2 0x42A JUMPI DUP2 PUSH4 0xE2F45605 EQ PUSH2 0x40B JUMPI DUP2 PUSH4 0xEF3881C8 EQ PUSH2 0x3EC JUMPI DUP2 PUSH4 0xF2FDE38B EQ PUSH2 0x35C JUMPI DUP2 PUSH4 0xFABB0B4F EQ PUSH2 0x33D JUMPI DUP2 PUSH4 0xFC6C2BDA EQ PUSH2 0x246 JUMPI POP DUP1 PUSH4 0xFCCC2813 EQ PUSH2 0x22A JUMPI PUSH4 0xFE575A87 EQ PUSH2 0x1EA JUMPI DUP1 PUSH2 0x12 JUMP JUMPDEST CALLVALUE PUSH2 0x226 JUMPI PUSH1 0x20 CALLDATASIZE PUSH1 0x3 NOT ADD SLT PUSH2 0x226 JUMPI PUSH1 0x20 SWAP2 PUSH1 0xFF SWAP1 DUP3 SWAP1 PUSH1 0x1 PUSH1 0x1 PUSH1 0xA0 SHL SUB PUSH2 0x213 PUSH2 0x12B4 JUMP JUMPDEST AND DUP2 MSTORE PUSH1 0x15 DUP6 MSTORE KECCAK256 SLOAD AND SWAP1 MLOAD SWAP1 ISZERO ISZERO DUP2 MSTORE RETURN JUMPDEST POP DUP1 REVERT JUMPDEST POP CALLVALUE PUSH2 0x226 JUMPI DUP2 PUSH1 0x3 NOT CALLDATASIZE ADD SLT PUSH2 0x226 JUMPI PUSH1 0x20 SWAP1 MLOAD PUSH2 0xDEAD DUP2 MSTORE RETURN JUMPDEST SWAP2 SWAP1 POP CALLVALUE PUSH2 0x339 JUMPI PUSH1 0x60 CALLDATASIZE PUSH1 0x3 NOT ADD SLT PUSH2 0x339 JUMPI PUSH32 0x78A2B7C85FD401563E8AF374883543C3EE4188DF1C66FC71232DBB7E7FFDB102 SWAP2 PUSH1 0xE0 SWAP2 PUSH2 0x287 PUSH2 0x12E5 JUMP JUMPDEST PUSH2 0x28F PUSH2 0x12F6 JUMP JUMPDEST SWAP2 PUSH2 0x298 PUSH2 0x1307 JUMP JUMPDEST PUSH2 0x2A0 PUSH2 0x1327 JUMP JUMPDEST PUSH2 0x2AB DUP2 DUP6 DUP6 PUSH2 0x1C29 JUMP JUMPDEST SWAP2 PUSH2 0xFFFF DUP1 SWAP6 DUP2 DUP6 DUP2 DUP1 SWAP8 MLOAD AND SWAP1 PUSH1 0xB SLOAD SWAP2 PUSH4 0xFFFF0000 PUSH1 0x20 DUP4 ADD MLOAD PUSH1 0x10 SHL AND SWAP1 PUSH8 0xFFFF000000000000 PUSH1 0x60 PUSH6 0xFFFF00000000 DUP11 DUP7 ADD MLOAD PUSH1 0x20 SHL AND SWAP5 ADD MLOAD PUSH1 0x30 SHL AND SWAP4 PUSH8 0xFFFFFFFFFFFFFFFF NOT AND OR OR OR OR SWAP7 DUP8 PUSH1 0xB SSTORE DUP5 MLOAD SWAP10 PUSH1 0xA0 DUP12 MSTORE PUSH1 0xA0 DUP12 ADD MSTORE PUSH4 0x1CD95B1B PUSH1 0xE2 SHL PUSH1 0xC0 DUP12 ADD MSTORE AND PUSH1 0x20 DUP10 ADD MSTORE AND SWAP1 DUP7 ADD MSTORE AND PUSH1 0x60 DUP5 ADD MSTORE PUSH1 0x30 SHR AND PUSH1 0x80 DUP3 ADD MSTORE LOG1 DUP1 RETURN JUMPDEST DUP3 DUP1 REVERT JUMPDEST POP POP CALLVALUE PUSH2 0x226 JUMPI DUP2 PUSH1 0x3 NOT CALLDATASIZE ADD SLT PUSH2 0x226 JUMPI PUSH1 0x20 SWAP1 PUSH1 0x10 SLOAD SWAP1 MLOAD SWAP1 DUP2 MSTORE RETURN JUMPDEST SWAP1 POP CALLVALUE PUSH2 0x339 JUMPI PUSH1 0x20 CALLDATASIZE PUSH1 0x3 NOT ADD SLT PUSH2 0x339 JUMPI PUSH2 0x377 PUSH2 0x12B4 JUMP JUMPDEST SWAP1 PUSH2 0x380 PUSH2 0x1327 JUMP JUMPDEST PUSH1 0x1 PUSH1 0x1 PUSH1 0xA0 SHL SUB SWAP2 DUP3 AND SWAP3 DUP4 ISZERO PUSH2 0x3D6 JUMPI POP POP PUSH1 0x5 SLOAD DUP3 PUSH12 0xFFFFFFFFFFFFFFFFFFFFFFFF PUSH1 0xA0 SHL DUP3 AND OR PUSH1 0x5 SSTORE AND PUSH32 0x8BE0079C531659141344CD1FD0A4F28419497F9722A3DAAFE3B4186F6B6457E0 DUP4 DUP1 LOG3 DUP1 RETURN JUMPDEST MLOAD PUSH4 0x1E4FBDF7 PUSH1 0xE0 SHL DUP2 MSTORE SWAP1 DUP2 ADD DUP5 SWAP1 MSTORE PUSH1 0x24 SWAP1 REVERT JUMPDEST POP POP CALLVALUE PUSH2 0x226 JUMPI DUP2 PUSH1 0x3 NOT CALLDATASIZE ADD SLT PUSH2 0x226 JUMPI PUSH1 0x20 SWAP1 PUSH1 0xF SLOAD SWAP1 MLOAD SWAP1 DUP2 MSTORE RETURN JUMPDEST POP POP CALLVALUE PUSH2 0x226 JUMPI DUP2 PUSH1 0x3 NOT CALLDATASIZE ADD SLT PUSH2 0x226 JUMPI PUSH1 0x20 SWAP1 PUSH1 0xD SLOAD SWAP1 MLOAD SWAP1 DUP2 MSTORE RETURN JUMPDEST POP POP CALLVALUE PUSH2 0x226 JUMPI DUP1 PUSH1 0x3 NOT CALLDATASIZE ADD SLT PUSH2 0x226 JUMPI DUP1 PUSH1 0x20 SWAP3 PUSH2 0x448 PUSH2 0x12B4 JUMP JUMPDEST PUSH2 0x450 PUSH2 0x12CF JUMP JUMPDEST PUSH1 0x1 PUSH1 0x1 PUSH1 0xA0 SHL SUB SWAP2 DUP3 AND DUP4 MSTORE PUSH1 0x1 DUP7 MSTORE DUP4 DUP4 KECCAK256 SWAP2 AND DUP3 MSTORE DUP5 MSTORE KECCAK256 SLOAD SWAP1 MLOAD SWAP1 DUP2 MSTORE RETURN JUMPDEST SWAP1 POP CALLVALUE PUSH2 0x339 JUMPI DUP2 PUSH1 0x3 NOT CALLDATASIZE ADD SLT PUSH2 0x339 JUMPI CALLDATALOAD SWAP1 DUP2 ISZERO ISZERO DUP1 SWAP3 SUB PUSH2 0x339 JUMPI PUSH32 0x6983CB19592D7D4EB4AEDD54ADC3FB1CD55C1F3CC43AD1BD64F8BC885933CE2 SWAP2 PUSH1 0x24 CALLDATALOAD PUSH2 0x4BE PUSH2 0x1327 JUMP JUMPDEST PUSH1 0xFF NOT PUSH1 0xC SLOAD AND PUSH1 0xFF DUP4 AND OR PUSH1 0xC SSTORE DUP1 PUSH1 0xD SSTORE DUP3 MLOAD SWAP2 DUP3 MSTORE PUSH1 0x20 DUP3 ADD MSTORE LOG1 DUP1 RETURN JUMPDEST POP POP CALLVALUE PUSH2 0x226 JUMPI DUP2 PUSH1 0x3 NOT CALLDATASIZE ADD SLT PUSH2 0x226 JUMPI PUSH1 0x20 SWAP1 PUSH1 0x9 SLOAD SWAP1 MLOAD SWAP1 DUP2 MSTORE RETURN JUMPDEST SWAP2 SWAP1 POP CALLVALUE PUSH2 0x339 JUMPI PUSH1 0x20 SWAP1 DUP2 PUSH1 0x3 NOT CALLDATASIZE ADD SLT PUSH2 0x6CF JUMPI PUSH2 0x51C PUSH2 0x12B4 JUMP JUMPDEST SWAP2 PUSH2 0x525 PUSH2 0x1327 JUMP JUMPDEST PUSH1 0x1 PUSH1 0x1 PUSH1 0xA0 SHL SUB SWAP3 DUP4 AND SWAP3 DUP4 ISZERO PUSH2 0x6A1 JUMPI PUSH1 0x7 DUP1 SLOAD PUSH1 0x1 PUSH1 0x1 PUSH1 0xA0 SHL SUB NOT SWAP1 DUP2 AND DUP7 OR SWAP1 SWAP2 SSTORE DUP4 MLOAD PUSH4 0xC45A0155 PUSH1 0xE0 SHL DUP2 MSTORE SWAP1 SWAP6 DUP4 DUP3 DUP3 DUP2 DUP10 GAS STATICCALL SWAP2 DUP3 ISZERO PUSH2 0x697 JUMPI DUP9 SWAP3 PUSH2 0x678 JUMPI JUMPDEST POP DUP5 MLOAD PUSH4 0x15AB88C9 PUSH1 0xE3 SHL DUP2 MSTORE SWAP1 DUP9 DUP6 DUP4 DUP4 DUP2 DUP12 GAS STATICCALL SWAP3 DUP4 ISZERO PUSH2 0x66C JUMPI SWAP2 DUP2 DUP7 DUP1 SWAP7 SWAP5 DUP10 SWAP7 PUSH2 0x64C JUMPI JUMPDEST POP PUSH1 0x44 SWAP4 SWAP5 DUP11 MLOAD SWAP8 DUP9 SWAP7 DUP8 SWAP6 PUSH4 0x64E329CB PUSH1 0xE1 SHL DUP8 MSTORE ADDRESS SWAP1 DUP8 ADD MSTORE AND PUSH1 0x24 DUP6 ADD MSTORE AND GAS CALL SWAP1 DUP2 ISZERO PUSH2 0x642 JUMPI SWAP1 PUSH1 0x17 SWAP4 SWAP3 SWAP2 DUP9 SWAP2 PUSH2 0x615 JUMPI JUMPDEST POP AND DUP1 SWAP6 PUSH1 0x8 SLOAD AND OR PUSH1 0x8 SSTORE DUP5 DUP7 MSTORE MSTORE DUP4 KECCAK256 PUSH1 0x1 PUSH1 0xFF NOT DUP3 SLOAD AND OR SWAP1 SSTORE PUSH32 0x8AB4CEA230AB04F96AAA9A71FBC4BFA98097C7B9F07E06BE33868B500F810028 DUP4 DUP1 LOG3 DUP1 RETURN JUMPDEST PUSH2 0x635 SWAP2 POP DUP4 RETURNDATASIZE DUP6 GT PUSH2 0x63B JUMPI JUMPDEST PUSH2 0x62D DUP2 DUP4 PUSH2 0x1385 JUMP JUMPDEST DUP2 ADD SWAP1 PUSH2 0x1490 JUMP JUMPDEST CODESIZE PUSH2 0x5D1 JUMP JUMPDEST POP RETURNDATASIZE PUSH2 0x623 JUMP JUMPDEST DUP5 MLOAD RETURNDATASIZE DUP10 DUP3 RETURNDATACOPY RETURNDATASIZE SWAP1 REVERT JUMPDEST PUSH1 0x44 SWAP5 POP PUSH2 0x666 SWAP1 DUP8 RETURNDATASIZE DUP10 GT PUSH2 0x63B JUMPI PUSH2 0x62D DUP2 DUP4 PUSH2 0x1385 JUMP JUMPDEST SWAP4 PUSH2 0x599 JUMP JUMPDEST POP DUP7 MLOAD SWAP1 RETURNDATASIZE SWAP1 DUP3 RETURNDATACOPY RETURNDATASIZE SWAP1 REVERT JUMPDEST PUSH2 0x690 SWAP2 SWAP3 POP DUP5 RETURNDATASIZE DUP7 GT PUSH2 0x63B JUMPI PUSH2 0x62D DUP2 DUP4 PUSH2 0x1385 JUMP JUMPDEST SWAP1 CODESIZE PUSH2 0x56F JUMP JUMPDEST DUP6 MLOAD RETURNDATASIZE DUP11 DUP3 RETURNDATACOPY RETURNDATASIZE SWAP1 REVERT JUMPDEST DUP3 MLOAD PUSH3 0x461BCD PUSH1 0xE5 SHL DUP2 MSTORE DUP1 DUP7 ADD DUP4 SWAP1 MSTORE PUSH1 0x8 PUSH1 0x24 DUP3 ADD MSTORE PUSH8 0x726F757465723D3 PUSH1 0xC4 SHL PUSH1 0x44 DUP3 ADD MSTORE PUSH1 0x64 SWAP1 REVERT JUMPDEST DUP4 DUP1 REVERT JUMPDEST POP POP CALLVALUE PUSH2 0x226 JUMPI DUP2 PUSH1 0x3 NOT CALLDATASIZE ADD SLT PUSH2 0x226 JUMPI PUSH1 0x20 SWAP1 PUSH1 0x13 SLOAD SWAP1 MLOAD SWAP1 DUP2 MSTORE RETURN JUMPDEST POP POP CALLVALUE PUSH2 0x226 JUMPI DUP1 PUSH1 0x3 NOT CALLDATASIZE ADD SLT PUSH2 0x226 JUMPI PUSH1 0x20 SWAP1 PUSH2 0x71C PUSH2 0x712 PUSH2 0x12B4 JUMP JUMPDEST PUSH1 0x24 CALLDATALOAD SWAP1 CALLER PUSH2 0x13A7 JUMP JUMPDEST MLOAD PUSH1 0x1 DUP2 MSTORE RETURN JUMPDEST SWAP1 POP CALLVALUE PUSH2 0x339 JUMPI PUSH1 0xA0 CALLDATASIZE PUSH1 0x3 NOT ADD SLT PUSH2 0x339 JUMPI PUSH32 0x30BE12A58949831A2BA360CD4C740F0F9277275D25BB2CC31C3656D170FC5C9 SWAP2 PUSH1 0xA0 SWAP2 CALLDATALOAD SWAP1 PUSH1 0x24 CALLDATALOAD SWAP1 PUSH2 0x769 PUSH2 0x1318 JUMP JUMPDEST SWAP2 PUSH1 0x64 CALLDATALOAD SWAP2 PUSH1 0x84 CALLDATALOAD SWAP4 PUSH2 0x77A PUSH2 0x1327 JUMP JUMPDEST DUP6 PUSH1 0xF SSTORE DUP3 PUSH1 0x10 SSTORE ISZERO ISZERO SWAP2 PUSH1 0xFF NOT PUSH1 0x11 SLOAD AND PUSH1 0xFF DUP5 AND OR PUSH1 0x11 SSTORE DUP4 PUSH1 0x12 SSTORE DUP5 PUSH1 0x13 SSTORE DUP2 MLOAD SWAP6 DUP7 MSTORE PUSH1 0x20 DUP7 ADD MSTORE DUP5 ADD MSTORE PUSH1 0x60 DUP4 ADD MSTORE PUSH1 0x80 DUP3 ADD MSTORE LOG1 DUP1 RETURN JUMPDEST DUP4 DUP4 CALLVALUE PUSH2 0x226 JUMPI DUP2 PUSH1 0x3 NOT CALLDATASIZE ADD SLT PUSH2 0x226 JUMPI DUP1 MLOAD SWAP2 DUP1 SWAP4 DUP1 SLOAD SWAP2 PUSH1 0x1 SWAP1 DUP4 DUP3 SHR SWAP3 DUP3 DUP6 AND SWAP5 DUP6 ISZERO PUSH2 0x8B0 JUMPI JUMPDEST PUSH1 0x20 SWAP6 DUP7 DUP7 LT DUP2 EQ PUSH2 0x89D JUMPI DUP6 DUP10 MSTORE SWAP1 DUP2 ISZERO PUSH2 0x879 JUMPI POP PUSH1 0x1 EQ PUSH2 0x821 JUMPI JUMPDEST PUSH2 0x81D DUP8 DUP8 PUSH2 0x813 DUP3 DUP13 SUB DUP4 PUSH2 0x1385 JUMP JUMPDEST MLOAD SWAP2 DUP3 SWAP2 DUP3 PUSH2 0x126B JUMP JUMPDEST SUB SWAP1 RETURN JUMPDEST DUP2 MSTORE SWAP3 SWAP6 POP PUSH32 0x8A35ACFBC15FF81A39AE7D344FD709F28E8600B4AA8C65C6B64BFE7FE36BD19B JUMPDEST DUP3 DUP5 LT PUSH2 0x866 JUMPI POP POP POP DUP3 PUSH2 0x81D SWAP5 PUSH2 0x813 SWAP3 DUP3 ADD ADD SWAP5 DUP7 DUP1 PUSH2 0x802 JUMP JUMPDEST DUP1 SLOAD DUP7 DUP6 ADD DUP9 ADD MSTORE SWAP3 DUP7 ADD SWAP3 DUP2 ADD PUSH2 0x848 JUMP JUMPDEST PUSH1 0xFF NOT AND DUP9 DUP8 ADD MSTORE POP POP POP POP ISZERO ISZERO PUSH1 0x5 SHL DUP4 ADD ADD SWAP3 POP PUSH2 0x813 DUP3 PUSH2 0x81D DUP7 DUP1 PUSH2 0x802 JUMP JUMPDEST PUSH4 0x4E487B71 PUSH1 0xE0 SHL DUP5 MSTORE PUSH1 0x22 DUP4 MSTORE PUSH1 0x24 DUP5 REVERT JUMPDEST SWAP4 PUSH1 0x7F AND SWAP4 PUSH2 0x7E3 JUMP JUMPDEST POP POP CALLVALUE PUSH2 0x226 JUMPI PUSH1 0xA0 CALLDATASIZE PUSH1 0x3 NOT ADD SLT PUSH2 0x226 JUMPI PUSH2 0x8D5 PUSH2 0x12B4 JUMP JUMPDEST SWAP1 PUSH1 0x24 CALLDATALOAD SWAP2 DUP3 ISZERO ISZERO SWAP2 DUP3 DUP5 SUB PUSH2 0x9D5 JUMPI PUSH2 0x8ED PUSH2 0x1318 JUMP JUMPDEST SWAP1 PUSH1 0x64 CALLDATALOAD SWAP2 DUP3 ISZERO ISZERO SWAP3 DUP4 DUP2 SUB PUSH2 0x9D1 JUMPI PUSH1 0x84 CALLDATALOAD SWAP1 DUP2 ISZERO ISZERO SWAP6 DUP7 DUP4 SUB PUSH2 0x9CD JUMPI PUSH2 0x914 PUSH2 0x1327 JUMP JUMPDEST PUSH1 0x1 PUSH1 0x1 PUSH1 0xA0 SHL SUB AND DUP1 DUP11 MSTORE PUSH1 0x14 PUSH1 0x20 MSTORE DUP5 DUP11 KECCAK256 DUP1 SLOAD SWAP10 ISZERO ISZERO PUSH1 0xFF AND PUSH1 0xFF NOT SWAP11 SWAP1 SWAP11 AND SWAP10 SWAP1 SWAP10 OR SWAP1 SWAP9 SSTORE PUSH1 0x15 PUSH1 0x20 MSTORE DUP4 DUP10 KECCAK256 DUP1 SLOAD PUSH1 0xFF NOT AND PUSH1 0xFF DUP6 ISZERO ISZERO AND OR SWAP1 SSTORE PUSH1 0x16 PUSH1 0x20 MSTORE DUP4 DUP10 KECCAK256 SWAP1 PUSH2 0x973 SWAP2 SWAP1 PUSH1 0xFF DUP1 NOT DUP4 SLOAD AND SWAP2 ISZERO ISZERO AND OR SWAP1 SSTORE JUMP JUMPDEST PUSH1 0x17 PUSH1 0x20 MSTORE DUP3 DUP9 KECCAK256 SWAP1 PUSH2 0x991 SWAP2 SWAP1 PUSH1 0xFF DUP1 NOT DUP4 SLOAD AND SWAP2 ISZERO ISZERO AND OR SWAP1 SSTORE JUMP JUMPDEST DUP2 MLOAD SWAP5 DUP6 MSTORE ISZERO ISZERO PUSH1 0x20 DUP6 ADD MSTORE DUP4 ADD MSTORE PUSH1 0x60 DUP3 ADD MSTORE PUSH1 0x80 PUSH32 0x5DE6654A95655D8559604B64D6A2547AB79693A81033F89FD08E7FB3D0D7B39A SWAP2 LOG2 DUP1 RETURN JUMPDEST DUP10 DUP1 REVERT JUMPDEST DUP8 DUP1 REVERT JUMPDEST DUP5 DUP1 REVERT JUMPDEST POP POP CALLVALUE PUSH2 0x226 JUMPI DUP2 PUSH1 0x3 NOT CALLDATASIZE ADD SLT PUSH2 0x226 JUMPI PUSH1 0x5 SLOAD SWAP1 MLOAD PUSH1 0x1 PUSH1 0x1 PUSH1 0xA0 SHL SUB SWAP1 SWAP2 AND DUP2 MSTORE PUSH1 0x20 SWAP1 RETURN JUMPDEST POP POP CALLVALUE PUSH2 0x226 JUMPI DUP2 PUSH1 0x3 NOT CALLDATASIZE ADD SLT PUSH2 0x226 JUMPI PUSH1 0x20 SWAP1 PUSH1 0x12 SLOAD SWAP1 MLOAD SWAP1 DUP2 MSTORE RETURN JUMPDEST SWAP1 POP CALLVALUE PUSH2 0x339 JUMPI DUP3 PUSH1 0x3 NOT CALLDATASIZE ADD SLT PUSH2 0x339 JUMPI PUSH2 0xA3B PUSH2 0x1327 JUMP JUMPDEST PUSH1 0x8 SLOAD SWAP1 PUSH1 0xFF DUP3 PUSH1 0xA0 SHR AND PUSH2 0xACC JUMPI PUSH1 0x1 PUSH1 0x1 PUSH1 0xA0 SHL SUB DUP3 AND SWAP3 DUP4 ISZERO PUSH2 0xA9A JUMPI POP POP PUSH1 0xFF PUSH1 0xA0 SHL NOT AND PUSH1 0x1 PUSH1 0xA0 SHL OR PUSH1 0x8 SSTORE NUMBER PUSH1 0x9 DUP2 SWAP1 SSTORE PUSH32 0xB0153A1D634C9F6DA118C6950A6689CFF830DA150B9872B291E7A8D815316BB7 DUP4 DUP1 LOG3 DUP1 RETURN JUMPDEST SWAP1 PUSH1 0x20 PUSH1 0x64 SWAP3 MLOAD SWAP2 PUSH3 0x461BCD PUSH1 0xE5 SHL DUP4 MSTORE DUP3 ADD MSTORE PUSH1 0xC PUSH1 0x24 DUP3 ADD MSTORE PUSH12 0x1C185A5C881B9BDD081CD95D PUSH1 0xA2 SHL PUSH1 0x44 DUP3 ADD MSTORE REVERT JUMPDEST PUSH1 0x64 SWAP1 PUSH1 0x20 DUP5 MLOAD SWAP2 PUSH3 0x461BCD PUSH1 0xE5 SHL DUP4 MSTORE DUP3 ADD MSTORE PUSH1 0xF PUSH1 0x24 DUP3 ADD MSTORE PUSH15 0x185B1C9958591E48195B98589B1959 PUSH1 0x8A SHL PUSH1 0x44 DUP3 ADD MSTORE REVERT JUMPDEST POP POP CALLVALUE PUSH2 0x226 JUMPI DUP2 PUSH1 0x3 NOT CALLDATASIZE ADD SLT PUSH2 0x226 JUMPI PUSH1 0x6 SLOAD SWAP1 MLOAD PUSH1 0x1 PUSH1 0x1 PUSH1 0xA0 SHL SUB SWAP1 SWAP2 AND DUP2 MSTORE PUSH1 0x20 SWAP1 RETURN JUMPDEST DUP4 CALLVALUE PUSH2 0xB87 JUMPI DUP1 PUSH1 0x3 NOT CALLDATASIZE ADD SLT PUSH2 0xB87 JUMPI PUSH2 0xB43 PUSH2 0x1327 JUMP JUMPDEST PUSH1 0x5 DUP1 SLOAD PUSH1 0x1 PUSH1 0x1 PUSH1 0xA0 SHL SUB NOT DUP2 AND SWAP1 SWAP2 SSTORE DUP2 SWAP1 PUSH1 0x1 PUSH1 0x1 PUSH1 0xA0 SHL SUB AND PUSH32 0x8BE0079C531659141344CD1FD0A4F28419497F9722A3DAAFE3B4186F6B6457E0 DUP3 DUP1 LOG3 DUP1 RETURN JUMPDEST DUP1 REVERT JUMPDEST POP POP CALLVALUE PUSH2 0x226 JUMPI PUSH1 0x20 CALLDATASIZE PUSH1 0x3 NOT ADD SLT PUSH2 0x226 JUMPI PUSH1 0x20 SWAP2 DUP2 SWAP1 PUSH1 0x1 PUSH1 0x1 PUSH1 0xA0 SHL SUB PUSH2 0xBB2 PUSH2 0x12B4 JUMP JUMPDEST AND DUP2 MSTORE DUP1 DUP5 MSTORE KECCAK256 SLOAD SWAP1 MLOAD SWAP1 DUP2 MSTORE RETURN JUMPDEST POP POP CALLVALUE PUSH2 0x226 JUMPI DUP2 PUSH1 0x3 NOT CALLDATASIZE ADD SLT PUSH2 0x226 JUMPI PUSH1 0x20 SWAP1 PUSH1 0xFF PUSH1 0xC SLOAD AND SWAP1 MLOAD SWAP1 ISZERO ISZERO DUP2 MSTORE RETURN JUMPDEST POP POP CALLVALUE PUSH2 0x226 JUMPI PUSH1 0x60 CALLDATASIZE PUSH1 0x3 NOT ADD SLT PUSH2 0x226 JUMPI PUSH1 0xE0 PUSH32 0x78A2B7C85FD401563E8AF374883543C3EE4188DF1C66FC71232DBB7E7FFDB102 SWAP2 PUSH2 0xC24 PUSH2 0x12E5 JUMP JUMPDEST SWAP1 PUSH2 0xC2D PUSH2 0x12F6 JUMP JUMPDEST PUSH2 0xC35 PUSH2 0x1307 JUMP JUMPDEST PUSH2 0xC3D PUSH2 0x1327 JUMP JUMPDEST PUSH2 0xC48 DUP2 DUP4 DUP7 PUSH2 0x1C29 JUMP JUMPDEST SWAP1 PUSH2 0xFFFF SWAP4 DUP5 DUP4 DUP2 DUP1 SWAP6 MLOAD AND SWAP1 PUSH1 0xA SLOAD SWAP2 PUSH4 0xFFFF0000 PUSH1 0x20 DUP4 ADD MLOAD PUSH1 0x10 SHL AND SWAP1 PUSH8 0xFFFF000000000000 PUSH1 0x60 PUSH6 0xFFFF00000000 DUP9 DUP7 ADD MLOAD PUSH1 0x20 SHL AND SWAP5 ADD MLOAD PUSH1 0x30 SHL AND SWAP4 PUSH8 0xFFFFFFFFFFFFFFFF NOT AND OR OR OR OR SWAP5 DUP6 PUSH1 0xA SSTORE DUP2 DUP4 MLOAD SWAP9 PUSH1 0xA0 DUP11 MSTORE PUSH1 0x3 PUSH1 0xA0 DUP12 ADD MSTORE PUSH3 0x627579 PUSH1 0xE8 SHL PUSH1 0xC0 DUP12 ADD MSTORE AND PUSH1 0x20 DUP10 ADD MSTORE AND SWAP1 DUP7 ADD MSTORE AND PUSH1 0x60 DUP5 ADD MSTORE PUSH1 0x30 SHR AND PUSH1 0x80 DUP3 ADD MSTORE LOG1 DUP1 RETURN JUMPDEST SWAP2 SWAP1 POP CALLVALUE PUSH2 0x339 JUMPI DUP3 PUSH1 0x3 NOT CALLDATASIZE ADD SLT PUSH2 0x339 JUMPI PUSH1 0x5 SLOAD CALLER PUSH1 0x1 PUSH1 0x1 PUSH1 0xA0 SHL SUB SWAP2 DUP3 AND EQ SWAP1 DUP2 ISZERO PUSH2 0xD5A JUMPI JUMPDEST POP ISZERO PUSH2 0xD29 JUMPI DUP3 PUSH1 0xFF NOT PUSH1 0x1 DUP2 PUSH1 0xE SLOAD AND OR PUSH1 0xE SSTORE PUSH2 0xD1F PUSH2 0x1CD3 JUMP JUMPDEST PUSH1 0xE SLOAD AND PUSH1 0xE SSTORE DUP1 RETURN JUMPDEST SWAP1 PUSH1 0x20 PUSH1 0x64 SWAP3 MLOAD SWAP2 PUSH3 0x461BCD PUSH1 0xE5 SHL DUP4 MSTORE DUP3 ADD MSTORE PUSH1 0xB PUSH1 0x24 DUP3 ADD MSTORE PUSH11 0x1B9BDD08185B1B1BDDD959 PUSH1 0xAA SHL PUSH1 0x44 DUP3 ADD MSTORE REVERT JUMPDEST SWAP1 POP PUSH1 0x6 SLOAD AND CALLER EQ CODESIZE PUSH2 0xD02 JUMP JUMPDEST SWAP2 SWAP1 POP CALLVALUE PUSH2 0x339 JUMPI PUSH1 0x20 CALLDATASIZE PUSH1 0x3 NOT ADD SLT PUSH2 0x339 JUMPI PUSH2 0xD84 PUSH2 0x12B4 JUMP JUMPDEST PUSH2 0xD8C PUSH2 0x1327 JUMP JUMPDEST PUSH1 0x1 PUSH1 0x1 PUSH1 0xA0 SHL SUB AND SWAP2 DUP3 ISZERO PUSH2 0xE05 JUMPI POP DUP2 PUSH12 0xFFFFFFFFFFFFFFFFFFFFFFFF PUSH1 0xA0 SHL PUSH1 0x6 SLOAD AND OR PUSH1 0x6 SSTORE DUP2 DUP4 MSTORE PUSH1 0x16 PUSH1 0x20 MSTORE PUSH1 0x1 DUP2 DUP5 KECCAK256 SWAP2 PUSH1 0xFF NOT SWAP3 DUP3 DUP5 DUP3 SLOAD AND OR SWAP1 SSTORE PUSH1 0x17 PUSH1 0x20 MSTORE DUP5 KECCAK256 SWAP2 DUP3 SLOAD AND OR SWAP1 SSTORE PUSH32 0xF86E3C0CC66159379BDF420884B6F4BE3AA4FB93284E88C539C61BA300646A74 DUP3 DUP1 LOG2 DUP1 RETURN JUMPDEST PUSH1 0x20 PUSH1 0x64 SWAP3 MLOAD SWAP2 PUSH3 0x461BCD PUSH1 0xE5 SHL DUP4 MSTORE DUP3 ADD MSTORE PUSH1 0x8 PUSH1 0x24 DUP3 ADD MSTORE PUSH8 0x77616C6C65743D3 PUSH1 0xC4 SHL PUSH1 0x44 DUP3 ADD MSTORE REVERT JUMPDEST POP POP CALLVALUE PUSH2 0x226 JUMPI PUSH1 0x20 CALLDATASIZE PUSH1 0x3 NOT ADD SLT PUSH2 0x226 JUMPI PUSH1 0x20 SWAP2 PUSH1 0xFF SWAP1 DUP3 SWAP1 PUSH1 0x1 PUSH1 0x1 PUSH1 0xA0 SHL SUB PUSH2 0xE5D PUSH2 0x12B4 JUMP JUMPDEST AND DUP2 MSTORE PUSH1 0x17 DUP6 MSTORE KECCAK256 SLOAD AND SWAP1 MLOAD SWAP1 ISZERO ISZERO DUP2 MSTORE RETURN JUMPDEST POP POP CALLVALUE PUSH2 0x226 JUMPI PUSH1 0x20 CALLDATASIZE PUSH1 0x3 NOT ADD SLT PUSH2 0x226 JUMPI PUSH1 0x20 SWAP2 PUSH1 0xFF SWAP1 DUP3 SWAP1 PUSH1 0x1 PUSH1 0x1 PUSH1 0xA0 SHL SUB PUSH2 0xE9B PUSH2 0x12B4 JUMP JUMPDEST AND DUP2 MSTORE PUSH1 0x16 DUP6 MSTORE KECCAK256 SLOAD AND SWAP1 MLOAD SWAP1 ISZERO ISZERO DUP2 MSTORE RETURN JUMPDEST POP POP CALLVALUE PUSH2 0x226 JUMPI DUP2 PUSH1 0x3 NOT CALLDATASIZE ADD SLT PUSH2 0x226 JUMPI PUSH1 0x20 SWAP1 PUSH1 0xFF PUSH1 0x8 SLOAD PUSH1 0xA0 SHR AND SWAP1 MLOAD SWAP1 ISZERO ISZERO DUP2 MSTORE RETURN JUMPDEST POP POP CALLVALUE PUSH2 0x226 JUMPI DUP2 PUSH1 0x3 NOT CALLDATASIZE ADD SLT PUSH2 0x226 JUMPI PUSH1 0x8 SLOAD SWAP1 MLOAD PUSH1 0x1 PUSH1 0x1 PUSH1 0xA0 SHL SUB SWAP1 SWAP2 AND DUP2 MSTORE PUSH1 0x20 SWAP1 RETURN JUMPDEST POP POP CALLVALUE PUSH2 0x226 JUMPI DUP2 PUSH1 0x3 NOT CALLDATASIZE ADD SLT PUSH2 0x226 JUMPI PUSH1 0xA SLOAD SWAP1 MLOAD PUSH2 0xFFFF DUP1 DUP4 AND DUP3 MSTORE PUSH1 0x10 DUP4 SWAP1 SHR DUP2 AND PUSH1 0x20 DUP1 DUP5 ADD SWAP2 SWAP1 SWAP2 MSTORE DUP4 SWAP1 SHR DUP2 AND PUSH1 0x40 DUP4 ADD MSTORE PUSH1 0x30 SWAP3 SWAP1 SWAP3 SHR SWAP1 SWAP2 AND PUSH1 0x60 DUP3 ADD MSTORE PUSH1 0x80 SWAP1 RETURN JUMPDEST POP POP CALLVALUE PUSH2 0x226 JUMPI PUSH1 0x20 CALLDATASIZE PUSH1 0x3 NOT ADD SLT PUSH2 0x226 JUMPI PUSH1 0x20 SWAP2 PUSH1 0xFF SWAP1 DUP3 SWAP1 PUSH1 0x1 PUSH1 0x1 PUSH1 0xA0 SHL SUB PUSH2 0xF75 PUSH2 0x12B4 JUMP JUMPDEST AND DUP2 MSTORE PUSH1 0x14 DUP6 MSTORE KECCAK256 SLOAD AND SWAP1 MLOAD SWAP1 ISZERO ISZERO DUP2 MSTORE RETURN JUMPDEST POP POP CALLVALUE PUSH2 0x226 JUMPI DUP2 PUSH1 0x3 NOT CALLDATASIZE ADD SLT PUSH2 0x226 JUMPI PUSH1 0x20 SWAP1 MLOAD PUSH1 0x12 DUP2 MSTORE RETURN JUMPDEST POP POP CALLVALUE PUSH2 0x226 JUMPI DUP2 PUSH1 0x3 NOT CALLDATASIZE ADD SLT PUSH2 0x226 JUMPI PUSH1 0x20 SWAP1 PUSH1 0xFF PUSH1 0x11 SLOAD AND SWAP1 MLOAD SWAP1 ISZERO ISZERO DUP2 MSTORE RETURN JUMPDEST POP POP CALLVALUE PUSH2 0x226 JUMPI DUP2 PUSH1 0x3 NOT CALLDATASIZE ADD SLT PUSH2 0x226 JUMPI PUSH1 0xB SLOAD SWAP1 MLOAD PUSH2 0xFFFF DUP1 DUP4 AND DUP3 MSTORE PUSH1 0x10 DUP4 SWAP1 SHR DUP2 AND PUSH1 0x20 DUP1 DUP5 ADD SWAP2 SWAP1 SWAP2 MSTORE DUP4 SWAP1 SHR DUP2 AND PUSH1 0x40 DUP4 ADD MSTORE PUSH1 0x30 SWAP3 SWAP1 SWAP3 SHR SWAP1 SWAP2 AND PUSH1 0x60 DUP3 ADD MSTORE PUSH1 0x80 SWAP1 RETURN JUMPDEST SWAP1 POP DUP3 CALLVALUE PUSH2 0xB87 JUMPI PUSH1 0x60 CALLDATASIZE PUSH1 0x3 NOT ADD SLT PUSH2 0xB87 JUMPI PUSH2 0x1030 PUSH2 0x12B4 JUMP JUMPDEST PUSH2 0x1038 PUSH2 0x12CF JUMP JUMPDEST SWAP2 PUSH1 0x44 CALLDATALOAD SWAP4 PUSH1 0x1 DUP1 PUSH1 0xA0 SHL SUB DUP4 AND DUP1 DUP4 MSTORE PUSH1 0x1 PUSH1 0x20 MSTORE DUP7 DUP4 KECCAK256 CALLER DUP5 MSTORE PUSH1 0x20 MSTORE DUP7 DUP4 KECCAK256 SLOAD SWAP2 PUSH1 0x0 NOT DUP4 LT PUSH2 0x1074 JUMPI JUMPDEST PUSH1 0x20 DUP9 PUSH2 0x71C DUP10 DUP10 DUP10 PUSH2 0x13A7 JUMP JUMPDEST DUP7 DUP4 LT PUSH2 0x10DC JUMPI DUP2 ISZERO PUSH2 0x10C5 JUMPI CALLER ISZERO PUSH2 0x10AE JUMPI POP DUP3 MSTORE PUSH1 0x1 PUSH1 0x20 SWAP1 DUP2 MSTORE DUP7 DUP4 KECCAK256 CALLER DUP5 MSTORE DUP2 MSTORE SWAP2 DUP7 SWAP1 KECCAK256 SWAP1 DUP6 SWAP1 SUB SWAP1 SSTORE DUP3 SWAP1 PUSH2 0x71C DUP8 PUSH2 0x1066 JUMP JUMPDEST DUP8 MLOAD PUSH4 0x4A1406B1 PUSH1 0xE1 SHL DUP2 MSTORE SWAP1 DUP2 ADD DUP5 SWAP1 MSTORE PUSH1 0x24 SWAP1 REVERT JUMPDEST DUP8 MLOAD PUSH4 0xE602DF05 PUSH1 0xE0 SHL DUP2 MSTORE SWAP1 DUP2 ADD DUP5 SWAP1 MSTORE PUSH1 0x24 SWAP1 REVERT JUMPDEST DUP8 MLOAD PUSH4 0x7DC7A0D9 PUSH1 0xE1 SHL DUP2 MSTORE CALLER SWAP2 DUP2 ADD SWAP2 DUP3 MSTORE PUSH1 0x20 DUP3 ADD SWAP4 SWAP1 SWAP4 MSTORE PUSH1 0x40 DUP2 ADD DUP8 SWAP1 MSTORE DUP3 SWAP2 POP PUSH1 0x60 ADD SUB SWAP1 REVERT JUMPDEST POP POP CALLVALUE PUSH2 0x226 JUMPI DUP2 PUSH1 0x3 NOT CALLDATASIZE ADD SLT PUSH2 0x226 JUMPI PUSH1 0x20 SWAP1 PUSH1 0x2 SLOAD SWAP1 MLOAD SWAP1 DUP2 MSTORE RETURN JUMPDEST POP POP CALLVALUE PUSH2 0x226 JUMPI DUP2 PUSH1 0x3 NOT CALLDATASIZE ADD SLT PUSH2 0x226 JUMPI PUSH1 0x7 SLOAD SWAP1 MLOAD PUSH1 0x1 PUSH1 0x1 PUSH1 0xA0 SHL SUB SWAP1 SWAP2 AND DUP2 MSTORE PUSH1 0x20 SWAP1 RETURN JUMPDEST POP POP CALLVALUE PUSH2 0x226 JUMPI DUP1 PUSH1 0x3 NOT CALLDATASIZE ADD SLT PUSH2 0x226 JUMPI PUSH1 0x20 SWAP1 PUSH2 0x71C PUSH2 0x1170 PUSH2 0x12B4 JUMP JUMPDEST PUSH1 0x24 CALLDATALOAD SWAP1 CALLER PUSH2 0x13FD JUMP JUMPDEST SWAP3 SWAP2 POP CALLVALUE PUSH2 0x6CF JUMPI DUP4 PUSH1 0x3 NOT CALLDATASIZE ADD SLT PUSH2 0x6CF JUMPI PUSH1 0x3 SLOAD PUSH1 0x1 DUP2 DUP2 SHR SWAP2 DUP7 SWAP1 DUP3 DUP2 AND DUP1 ISZERO PUSH2 0x1261 JUMPI JUMPDEST PUSH1 0x20 SWAP6 DUP7 DUP7 LT DUP3 EQ PUSH2 0x124E JUMPI POP DUP5 DUP9 MSTORE SWAP1 DUP2 ISZERO PUSH2 0x122C JUMPI POP PUSH1 0x1 EQ PUSH2 0x11D3 JUMPI JUMPDEST PUSH2 0x81D DUP7 DUP7 PUSH2 0x813 DUP3 DUP12 SUB DUP4 PUSH2 0x1385 JUMP JUMPDEST SWAP3 SWAP6 POP PUSH1 0x3 DUP4 MSTORE PUSH32 0xC2575A0E9E593C00F959F8C92F12DB2869C3395A3B0502D05E2516446F71F85B JUMPDEST DUP3 DUP5 LT PUSH2 0x1219 JUMPI POP POP POP DUP3 PUSH2 0x81D SWAP5 PUSH2 0x813 SWAP3 DUP3 ADD ADD SWAP5 CODESIZE PUSH2 0x11C2 JUMP JUMPDEST DUP1 SLOAD DUP7 DUP6 ADD DUP9 ADD MSTORE SWAP3 DUP7 ADD SWAP3 DUP2 ADD PUSH2 0x11FC JUMP JUMPDEST PUSH1 0xFF NOT AND DUP8 DUP7 ADD MSTORE POP POP POP ISZERO ISZERO PUSH1 0x5 SHL DUP4 ADD ADD SWAP3 POP PUSH2 0x813 DUP3 PUSH2 0x81D CODESIZE PUSH2 0x11C2 JUMP JUMPDEST PUSH4 0x4E487B71 PUSH1 0xE0 SHL DUP5 MSTORE PUSH1 0x22 SWAP1 MSTORE PUSH1 0x24 DUP4 REVERT JUMPDEST SWAP4 PUSH1 0x7F AND SWAP4 PUSH2 0x11A2 JUMP JUMPDEST PUSH1 0x20 DUP1 DUP3 MSTORE DUP3 MLOAD DUP2 DUP4 ADD DUP2 SWAP1 MSTORE SWAP1 SWAP4 SWAP3 PUSH1 0x0 JUMPDEST DUP3 DUP2 LT PUSH2 0x12A0 JUMPI POP POP PUSH1 0x40 SWAP3 SWAP4 POP PUSH1 0x0 DUP4 DUP3 DUP5 ADD ADD MSTORE PUSH1 0x1F DUP1 NOT SWAP2 ADD AND ADD ADD SWAP1 JUMP JUMPDEST DUP2 DUP2 ADD DUP7 ADD MLOAD DUP5 DUP3 ADD PUSH1 0x40 ADD MSTORE DUP6 ADD PUSH2 0x127E JUMP JUMPDEST PUSH1 0x4 CALLDATALOAD SWAP1 PUSH1 0x1 PUSH1 0x1 PUSH1 0xA0 SHL SUB DUP3 AND DUP3 SUB PUSH2 0x12CA JUMPI JUMP JUMPDEST PUSH1 0x0 DUP1 REVERT JUMPDEST PUSH1 0x24 CALLDATALOAD SWAP1 PUSH1 0x1 PUSH1 0x1 PUSH1 0xA0 SHL SUB DUP3 AND DUP3 SUB PUSH2 0x12CA JUMPI JUMP JUMPDEST PUSH1 0x4 CALLDATALOAD SWAP1 PUSH2 0xFFFF DUP3 AND DUP3 SUB PUSH2 0x12CA JUMPI JUMP JUMPDEST PUSH1 0x24 CALLDATALOAD SWAP1 PUSH2 0xFFFF DUP3 AND DUP3 SUB PUSH2 0x12CA JUMPI JUMP JUMPDEST PUSH1 0x44 CALLDATALOAD SWAP1 PUSH2 0xFFFF DUP3 AND DUP3 SUB PUSH2 0x12CA JUMPI JUMP JUMPDEST PUSH1 0x44 CALLDATALOAD SWAP1 DUP2 ISZERO ISZERO DUP3 SUB PUSH2 0x12CA JUMPI JUMP JUMPDEST PUSH1 0x5 SLOAD PUSH1 0x1 PUSH1 0x1 PUSH1 0xA0 SHL SUB AND CALLER SUB PUSH2 0x133B JUMPI JUMP JUMPDEST PUSH1 0x40 MLOAD PUSH4 0x118CDAA7 PUSH1 0xE0 SHL DUP2 MSTORE CALLER PUSH1 0x4 DUP3 ADD MSTORE PUSH1 0x24 SWAP1 REVERT JUMPDEST PUSH1 0x80 DUP2 ADD SWAP1 DUP2 LT PUSH8 0xFFFFFFFFFFFFFFFF DUP3 GT OR PUSH2 0x136F JUMPI PUSH1 0x40 MSTORE JUMP JUMPDEST PUSH4 0x4E487B71 PUSH1 0xE0 SHL PUSH1 0x0 MSTORE PUSH1 0x41 PUSH1 0x4 MSTORE PUSH1 0x24 PUSH1 0x0 REVERT JUMPDEST SWAP1 PUSH1 0x1F DUP1 NOT SWAP2 ADD AND DUP2 ADD SWAP1 DUP2 LT PUSH8 0xFFFFFFFFFFFFFFFF DUP3 GT OR PUSH2 0x136F JUMPI PUSH1 0x40 MSTORE JUMP JUMPDEST SWAP2 SWAP1 PUSH1 0x1 PUSH1 0x1 PUSH1 0xA0 SHL SUB DUP1 DUP5 AND ISZERO PUSH2 0x13E4 JUMPI DUP2 AND ISZERO PUSH2 0x13CB JUMPI PUSH2 0x13C9 SWAP3 PUSH2 0x1512 JUMP JUMPDEST JUMP JUMPDEST PUSH1 0x40 MLOAD PUSH4 0xEC442F05 PUSH1 0xE0 SHL DUP2 MSTORE PUSH1 0x0 PUSH1 0x4 DUP3 ADD MSTORE PUSH1 0x24 SWAP1 REVERT JUMPDEST PUSH1 0x40 MLOAD PUSH4 0x4B637E8F PUSH1 0xE1 SHL DUP2 MSTORE PUSH1 0x0 PUSH1 0x4 DUP3 ADD MSTORE PUSH1 0x24 SWAP1 REVERT JUMPDEST PUSH1 0x1 PUSH1 0x1 PUSH1 0xA0 SHL SUB SWAP1 DUP2 AND SWAP2 DUP3 ISZERO PUSH2 0x1477 JUMPI AND SWAP2 DUP3 ISZERO PUSH2 0x145E JUMPI PUSH1 0x20 PUSH32 0x8C5BE1E5EBEC7D5BD14F71427D1E84F3DD0314C0F7B2291E5B200AC8C7C3B925 SWAP2 DUP4 PUSH1 0x0 MSTORE PUSH1 0x1 DUP3 MSTORE PUSH1 0x40 PUSH1 0x0 KECCAK256 DUP6 PUSH1 0x0 MSTORE DUP3 MSTORE DUP1 PUSH1 0x40 PUSH1 0x0 KECCAK256 SSTORE PUSH1 0x40 MLOAD SWAP1 DUP2 MSTORE LOG3 JUMP JUMPDEST PUSH1 0x40 MLOAD PUSH4 0x4A1406B1 PUSH1 0xE1 SHL DUP2 MSTORE PUSH1 0x0 PUSH1 0x4 DUP3 ADD MSTORE PUSH1 0x24 SWAP1 REVERT JUMPDEST PUSH1 0x40 MLOAD PUSH4 0xE602DF05 PUSH1 0xE0 SHL DUP2 MSTORE PUSH1 0x0 PUSH1 0x4 DUP3 ADD MSTORE PUSH1 0x24 SWAP1 REVERT JUMPDEST SWAP1 DUP2 PUSH1 0x20 SWAP2 SUB SLT PUSH2 0x12CA JUMPI MLOAD PUSH1 0x1 PUSH1 0x1 PUSH1 0xA0 SHL SUB DUP2 AND DUP2 SUB PUSH2 0x12CA JUMPI SWAP1 JUMP JUMPDEST SWAP2 SWAP1 DUP3 ADD DUP1 SWAP3 GT PUSH2 0x14BC JUMPI JUMP JUMPDEST PUSH4 0x4E487B71 PUSH1 0xE0 SHL PUSH1 0x0 MSTORE PUSH1 0x11 PUSH1 0x4 MSTORE PUSH1 0x24 PUSH1 0x0 REVERT JUMPDEST DUP2 DUP2 MUL SWAP3 SWAP2 DUP2 ISZERO SWAP2 DUP5 DIV EQ OR ISZERO PUSH2 0x14BC JUMPI JUMP JUMPDEST DUP2 ISZERO PUSH2 0x14EF JUMPI DIV SWAP1 JUMP JUMPDEST PUSH4 0x4E487B71 PUSH1 0xE0 SHL PUSH1 0x0 MSTORE PUSH1 0x12 PUSH1 0x4 MSTORE PUSH1 0x24 PUSH1 0x0 REVERT JUMPDEST SWAP2 SWAP1 DUP3 SUB SWAP2 DUP3 GT PUSH2 0x14BC JUMPI JUMP JUMPDEST SWAP3 SWAP2 SWAP1 PUSH1 0x1 DUP1 PUSH1 0xA0 SHL SUB SWAP4 DUP5 DUP2 AND PUSH1 0x0 SWAP1 DUP1 DUP3 MSTORE PUSH1 0x20 SWAP2 PUSH1 0x15 DUP4 MSTORE PUSH1 0xFF SWAP8 PUSH1 0x40 SWAP9 DUP1 DUP11 DUP5 KECCAK256 SLOAD AND ISZERO DUP1 PUSH2 0x1B28 JUMPI JUMPDEST ISZERO PUSH2 0x1AF6 JUMPI DUP10 SWAP1 PUSH1 0xF SLOAD DUP1 ISZERO ISZERO DUP1 PUSH2 0x1AD3 JUMPI JUMPDEST PUSH2 0x1A89 JUMPI JUMPDEST POP PUSH1 0x8 SLOAD DUP4 DUP3 DUP3 PUSH1 0xA0 SHR AND SWAP2 DUP3 ISZERO PUSH2 0x19FD JUMPI JUMPDEST AND DUP1 DUP8 EQ SWAP5 DUP6 PUSH2 0x19EB JUMPI JUMPDEST DUP1 DUP12 AND SWAP3 DUP5 DUP4 DUP6 EQ SWAP7 DUP3 PUSH2 0x19DF JUMPI JUMPDEST DUP3 PUSH2 0x19D7 JUMPI JUMPDEST DUP3 PUSH2 0x19C2 JUMPI JUMPDEST POP POP PUSH2 0x195E JUMPI JUMPDEST DUP8 DUP8 MSTORE PUSH1 0x17 DUP10 MSTORE DUP14 DUP8 KECCAK256 SLOAD DUP5 AND ISZERO DUP5 DUP16 DUP3 PUSH2 0x194D JUMPI JUMPDEST POP POP PUSH2 0x1870 JUMPI JUMPDEST PUSH1 0xE SLOAD SWAP2 DUP5 DUP4 AND ISZERO SWAP2 DUP3 PUSH2 0x1864 JUMPI JUMPDEST DUP3 PUSH2 0x185C JUMPI JUMPDEST DUP3 PUSH2 0x184E JUMPI JUMPDEST POP DUP2 PUSH2 0x1844 JUMPI JUMPDEST POP DUP1 PUSH2 0x1839 JUMPI JUMPDEST DUP1 PUSH2 0x1824 JUMPI JUMPDEST PUSH2 0x1803 JUMPI JUMPDEST POP DUP2 PUSH1 0xE SLOAD AND ISZERO SWAP3 DUP4 PUSH2 0x17E7 JUMPI JUMPDEST POP DUP3 PUSH2 0x17DD JUMPI JUMPDEST DUP3 PUSH2 0x17D3 JUMPI JUMPDEST DUP3 PUSH2 0x17BE JUMPI JUMPDEST DUP3 PUSH2 0x17A9 JUMPI JUMPDEST POP POP PUSH2 0x1626 JUMPI JUMPDEST POP POP POP POP PUSH2 0x13C9 SWAP4 SWAP5 POP PUSH2 0x1B3A JUMP JUMPDEST ISZERO PUSH2 0x17A1 JUMPI PUSH1 0xA SWAP2 JUMPDEST DUP9 MLOAD SWAP3 PUSH2 0x163B DUP5 PUSH2 0x1353 JUMP JUMPDEST SLOAD SWAP4 PUSH2 0xFFFF SWAP4 DUP5 DUP7 AND DUP2 MSTORE DUP5 DUP7 PUSH1 0x10 SHR AND DUP3 DUP3 ADD MSTORE PUSH1 0x60 DUP6 DUP13 DUP4 ADD SWAP8 DUP2 DUP2 DUP7 SHR AND DUP10 MSTORE PUSH1 0x30 SHR AND SWAP2 ADD SWAP1 DUP1 DUP3 MSTORE DUP1 PUSH2 0x1676 JUMPI JUMPDEST POP POP POP PUSH2 0x1617 JUMP JUMPDEST PUSH2 0x1683 PUSH2 0x2710 SWAP2 DUP12 PUSH2 0x14D2 JUMP JUMPDEST DIV SWAP5 DUP6 ISZERO PUSH2 0x166E JUMPI SWAP1 DUP2 PUSH2 0x16AF PUSH2 0x16B8 SWAP4 PUSH2 0x16A6 DUP10 PUSH2 0x16BF SWAP8 SWAP9 SWAP10 SWAP11 SWAP12 SWAP15 PUSH2 0x1505 JUMP JUMPDEST SWAP13 MLOAD AND DUP10 PUSH2 0x14D2 JUMP JUMPDEST SWAP2 MLOAD AND SWAP1 PUSH2 0x14E5 JUMP JUMPDEST DUP1 SWAP6 PUSH2 0x1505 JUMP JUMPDEST SWAP4 DUP1 PUSH2 0x16ED JUMPI JUMPDEST POP POP POP POP PUSH2 0x13C9 SWAP5 SWAP6 POP DUP1 PUSH2 0x16DC JUMPI JUMPDEST POP PUSH2 0x1B3A JUMP JUMPDEST PUSH2 0x16E7 SWAP1 ADDRESS DUP4 PUSH2 0x1B3A JUMP JUMPDEST CODESIZE PUSH2 0x16D6 JUMP JUMPDEST DUP3 PUSH2 0x1739 JUMPI SWAP1 DUP2 PUSH2 0x13C9 SWAP10 SWAP11 PUSH2 0x1714 PUSH1 0x0 DUP1 MLOAD PUSH1 0x20 PUSH2 0x20C4 DUP4 CODECOPY DUP2 MLOAD SWAP2 MSTORE SWAP5 PUSH1 0x2 SLOAD PUSH2 0x14AF JUMP JUMPDEST PUSH1 0x2 SSTORE JUMPDEST DUP1 PUSH2 0xDEAD SWAP7 DUP8 DUP2 MSTORE DUP1 DUP6 MSTORE KECCAK256 DUP3 DUP2 SLOAD ADD SWAP1 SSTORE MLOAD SWAP1 DUP2 MSTORE LOG3 DUP6 SWAP5 CODESIZE DUP1 DUP1 PUSH2 0x16C6 JUMP JUMPDEST DUP3 DUP5 MSTORE DUP4 DUP3 MSTORE DUP10 DUP5 KECCAK256 SLOAD SWAP10 DUP2 DUP12 LT PUSH2 0x1773 JUMPI SWAP1 PUSH1 0x0 DUP1 MLOAD PUSH1 0x20 PUSH2 0x20C4 DUP4 CODECOPY DUP2 MLOAD SWAP2 MSTORE SWAP3 SWAP2 DUP2 PUSH2 0x13C9 SWAP12 SWAP13 DUP7 DUP9 MSTORE DUP8 DUP6 MSTORE SUB DUP2 DUP8 KECCAK256 SSTORE PUSH2 0x1718 JUMP JUMPDEST MLOAD PUSH4 0x391434E3 PUSH1 0xE2 SHL DUP2 MSTORE PUSH1 0x1 PUSH1 0x1 PUSH1 0xA0 SHL SUB DUP8 AND PUSH1 0x4 DUP3 ADD MSTORE PUSH1 0x24 DUP2 ADD DUP12 SWAP1 MSTORE PUSH1 0x44 DUP2 ADD SWAP2 SWAP1 SWAP2 MSTORE PUSH1 0x64 SWAP1 REVERT JUMPDEST PUSH1 0xB SWAP2 PUSH2 0x162F JUMP JUMPDEST DUP5 MSTORE PUSH1 0x16 DUP7 MSTORE DUP11 DUP5 KECCAK256 SLOAD AND ISZERO SWAP1 POP CODESIZE DUP1 PUSH2 0x1610 JUMP JUMPDEST DUP6 DUP6 MSTORE PUSH1 0x16 DUP8 MSTORE DUP12 DUP6 KECCAK256 SLOAD DUP3 AND ISZERO SWAP3 POP PUSH2 0x160A JUMP JUMPDEST DUP1 ISZERO ISZERO SWAP3 POP PUSH2 0x1604 JUMP JUMPDEST DUP6 ISZERO ISZERO SWAP3 POP PUSH2 0x15FE JUMP JUMPDEST SWAP1 SWAP3 POP DUP4 SWAP1 DUP5 ISZERO PUSH2 0x17FB JUMPI JUMPDEST POP SWAP2 CODESIZE PUSH2 0x15F7 JUMP JUMPDEST SWAP1 POP CODESIZE PUSH2 0x17F3 JUMP JUMPDEST PUSH1 0xFF NOT SWAP1 DUP2 AND PUSH1 0x1 OR PUSH1 0xE SSTORE PUSH2 0x1817 PUSH2 0x1CD3 JUMP JUMPDEST PUSH1 0xE SLOAD AND PUSH1 0xE SSTORE CODESIZE PUSH2 0x15E9 JUMP JUMPDEST POP ADDRESS DUP7 MSTORE DUP6 DUP9 MSTORE DUP13 DUP7 KECCAK256 SLOAD PUSH1 0xD SLOAD GT ISZERO PUSH2 0x15E4 JUMP JUMPDEST POP PUSH1 0xD SLOAD ISZERO ISZERO PUSH2 0x15DE JUMP JUMPDEST SWAP1 POP ISZERO ISZERO CODESIZE PUSH2 0x15D7 JUMP JUMPDEST PUSH1 0x7 SLOAD AND ISZERO ISZERO SWAP2 POP CODESIZE PUSH2 0x15D0 JUMP JUMPDEST DUP7 SWAP3 POP PUSH2 0x15CA JUMP JUMPDEST PUSH1 0xC SLOAD DUP7 AND SWAP3 POP PUSH2 0x15C4 JUMP JUMPDEST PUSH1 0x12 SLOAD DUP1 ISZERO ISZERO DUP1 PUSH2 0x193F JUMPI JUMPDEST PUSH2 0x18FD JUMPI JUMPDEST POP PUSH1 0x13 SLOAD DUP15 DUP14 DUP3 ISZERO ISZERO DUP1 PUSH2 0x18F6 JUMPI JUMPDEST PUSH2 0x189D JUMPI JUMPDEST POP POP POP PUSH2 0x15B5 JUMP JUMPDEST PUSH2 0x18AF SWAP2 DUP7 DUP12 MSTORE DUP11 DUP14 MSTORE DUP11 KECCAK256 SLOAD PUSH2 0x14AF JUMP JUMPDEST GT PUSH2 0x18BC JUMPI CODESIZE DUP15 DUP14 PUSH2 0x1895 JUMP JUMPDEST DUP14 MLOAD PUSH3 0x461BCD PUSH1 0xE5 SHL DUP2 MSTORE PUSH1 0x4 DUP2 ADD DUP11 SWAP1 MSTORE PUSH1 0x13 PUSH1 0x24 DUP3 ADD MSTORE PUSH19 0x13585E081DD85B1B195D08195E18D959591959 PUSH1 0x6A SHL PUSH1 0x44 DUP3 ADD MSTORE PUSH1 0x64 SWAP1 REVERT JUMPDEST POP DUP9 PUSH2 0x1890 JUMP JUMPDEST DUP13 GT PUSH2 0x1909 JUMPI CODESIZE PUSH2 0x1881 JUMP JUMPDEST DUP14 MLOAD PUSH3 0x461BCD PUSH1 0xE5 SHL DUP2 MSTORE PUSH1 0x4 DUP2 ADD DUP11 SWAP1 MSTORE PUSH1 0xF PUSH1 0x24 DUP3 ADD MSTORE PUSH15 0x13585E081D1E08195E18D959591959 PUSH1 0x8A SHL PUSH1 0x44 DUP3 ADD MSTORE PUSH1 0x64 SWAP1 REVERT JUMPDEST POP DUP7 DUP8 PUSH2 0x187C JUMPI POP DUP6 PUSH2 0x187C JUMP JUMPDEST DUP6 DUP11 MSTORE DUP10 KECCAK256 SLOAD AND ISZERO SWAP1 POP DUP5 DUP16 PUSH2 0x15AE JUMP JUMPDEST PUSH2 0x196D PUSH1 0x9 SLOAD PUSH1 0x10 SLOAD SWAP1 PUSH2 0x14AF JUMP JUMPDEST NUMBER LT ISZERO PUSH2 0x1598 JUMPI DUP4 PUSH1 0x11 SLOAD AND ISZERO PUSH2 0x1598 JUMPI DUP14 MLOAD PUSH3 0x461BCD PUSH1 0xE5 SHL DUP2 MSTORE PUSH1 0x4 DUP2 ADD DUP11 SWAP1 MSTORE PUSH1 0x1A PUSH1 0x24 DUP3 ADD MSTORE PUSH32 0x416E7469426F743A206561726C792062757920626C6F636B6564000000000000 PUSH1 0x44 DUP3 ADD MSTORE PUSH1 0x64 SWAP1 REVERT JUMPDEST DUP6 DUP11 MSTORE PUSH1 0x14 DUP13 MSTORE DUP10 KECCAK256 SLOAD AND ISZERO SWAP1 POP DUP5 DUP16 PUSH2 0x1591 JUMP JUMPDEST DUP9 SWAP3 POP PUSH2 0x158B JUMP JUMPDEST PUSH1 0x10 SLOAD ISZERO ISZERO SWAP3 POP PUSH2 0x1585 JUMP JUMPDEST DUP1 SWAP6 POP PUSH1 0x7 SLOAD AND DUP6 DUP12 AND EQ ISZERO SWAP5 PUSH2 0x1576 JUMP JUMPDEST DUP8 ISZERO ISZERO DUP1 PUSH2 0x1A7E JUMPI JUMPDEST ISZERO PUSH2 0x156B JUMPI SWAP2 SWAP3 SWAP4 POP POP DUP6 DUP6 MSTORE PUSH1 0x14 DUP8 MSTORE DUP3 DUP13 DUP7 KECCAK256 SLOAD AND DUP1 ISZERO PUSH2 0x1A6D JUMPI JUMPDEST ISZERO PUSH2 0x1A33 JUMPI SWAP1 DUP4 DUP13 SWAP4 SWAP3 PUSH2 0x156B JUMP JUMPDEST DUP12 MLOAD PUSH3 0x461BCD PUSH1 0xE5 SHL DUP2 MSTORE PUSH1 0x4 DUP2 ADD DUP9 SWAP1 MSTORE PUSH1 0x13 PUSH1 0x24 DUP3 ADD MSTORE PUSH19 0x151C98591A5B99C81B9BDD08195B98589B1959 PUSH1 0x6A SHL PUSH1 0x44 DUP3 ADD MSTORE PUSH1 0x64 SWAP1 REVERT JUMPDEST POP DUP4 DUP10 AND DUP6 MSTORE DUP3 DUP13 DUP7 KECCAK256 SLOAD AND PUSH2 0x1A24 JUMP JUMPDEST POP DUP2 DUP12 AND ISZERO ISZERO PUSH2 0x1A06 JUMP JUMPDEST SWAP1 SWAP2 POP GASPRICE GT PUSH2 0x1A9A JUMPI DUP10 SWAP1 CODESIZE PUSH2 0x1558 JUMP JUMPDEST DUP10 MLOAD PUSH3 0x461BCD PUSH1 0xE5 SHL DUP2 MSTORE PUSH1 0x4 DUP2 ADD DUP7 SWAP1 MSTORE PUSH1 0x12 PUSH1 0x24 DUP3 ADD MSTORE PUSH18 0x8EC2E640E0E4D2C6CA40E8DEDE40D0D2CED PUSH1 0x73 SHL PUSH1 0x44 DUP3 ADD MSTORE PUSH1 0x64 SWAP1 REVERT JUMPDEST POP DUP4 PUSH1 0x8 SLOAD AND DUP1 DUP8 EQ SWAP1 DUP2 ISZERO PUSH2 0x1AEA JUMPI JUMPDEST POP PUSH2 0x1553 JUMP JUMPDEST SWAP1 POP DUP5 DUP11 AND EQ CODESIZE PUSH2 0x1AE4 JUMP JUMPDEST DUP10 MLOAD PUSH3 0x461BCD PUSH1 0xE5 SHL DUP2 MSTORE PUSH1 0x4 DUP2 ADD DUP7 SWAP1 MSTORE PUSH1 0xB PUSH1 0x24 DUP3 ADD MSTORE PUSH11 0x109B1858DADB1A5CDD1959 PUSH1 0xAA SHL PUSH1 0x44 DUP3 ADD MSTORE PUSH1 0x64 SWAP1 REVERT JUMPDEST POP DUP2 DUP8 AND DUP4 MSTORE DUP1 DUP11 DUP5 KECCAK256 SLOAD AND ISZERO PUSH2 0x1540 JUMP JUMPDEST PUSH1 0x1 PUSH1 0x1 PUSH1 0xA0 SHL SUB DUP1 DUP3 AND SWAP3 SWAP1 SWAP2 DUP4 PUSH2 0x1BA2 JUMPI POP PUSH1 0x0 DUP1 MLOAD PUSH1 0x20 PUSH2 0x20C4 DUP4 CODECOPY DUP2 MLOAD SWAP2 MSTORE SWAP2 PUSH1 0x20 SWAP2 PUSH2 0x1B6D DUP7 PUSH1 0x2 SLOAD PUSH2 0x14AF JUMP JUMPDEST PUSH1 0x2 SSTORE JUMPDEST AND SWAP4 DUP5 PUSH2 0x1B8A JUMPI DUP1 PUSH1 0x2 SLOAD SUB PUSH1 0x2 SSTORE JUMPDEST PUSH1 0x40 MLOAD SWAP1 DUP2 MSTORE LOG3 JUMP JUMPDEST DUP5 PUSH1 0x0 MSTORE PUSH1 0x0 DUP3 MSTORE PUSH1 0x40 PUSH1 0x0 KECCAK256 DUP2 DUP2 SLOAD ADD SWAP1 SSTORE PUSH2 0x1B81 JUMP JUMPDEST PUSH1 0x0 SWAP1 DUP5 DUP3 MSTORE DUP2 PUSH1 0x20 MSTORE PUSH1 0x40 DUP3 KECCAK256 SLOAD SWAP1 DUP7 DUP3 LT PUSH2 0x1BE1 JUMPI POP SWAP2 DUP2 PUSH1 0x40 DUP8 PUSH1 0x20 SWAP6 DUP9 PUSH1 0x0 DUP1 MLOAD PUSH1 0x20 PUSH2 0x20C4 DUP4 CODECOPY DUP2 MLOAD SWAP2 MSTORE SWAP9 SWAP7 MSTORE DUP4 DUP8 MSTORE SUB SWAP2 KECCAK256 SSTORE PUSH2 0x1B71 JUMP JUMPDEST PUSH1 0x40 MLOAD PUSH4 0x391434E3 PUSH1 0xE2 SHL DUP2 MSTORE PUSH1 0x1 PUSH1 0x1 PUSH1 0xA0 SHL SUB SWAP2 SWAP1 SWAP2 AND PUSH1 0x4 DUP3 ADD MSTORE PUSH1 0x24 DUP2 ADD SWAP2 SWAP1 SWAP2 MSTORE PUSH1 0x44 DUP2 ADD DUP7 SWAP1 MSTORE PUSH1 0x64 SWAP1 REVERT JUMPDEST SWAP2 SWAP1 SWAP2 PUSH2 0xFFFF DUP1 DUP1 SWAP5 AND SWAP2 AND ADD SWAP2 DUP3 GT PUSH2 0x14BC JUMPI JUMP JUMPDEST SWAP2 PUSH1 0x0 PUSH1 0x60 PUSH1 0x40 MLOAD PUSH2 0x1C3A DUP2 PUSH2 0x1353 JUMP JUMPDEST DUP3 DUP2 MSTORE DUP3 PUSH1 0x20 DUP3 ADD MSTORE DUP3 PUSH1 0x40 DUP3 ADD MSTORE ADD MSTORE PUSH2 0xFFFF SWAP1 DUP2 PUSH2 0x1C63 DUP3 PUSH2 0x1C5E DUP7 DUP9 PUSH2 0x1C13 JUMP JUMPDEST PUSH2 0x1C13 JUMP JUMPDEST AND SWAP3 PUSH2 0x7D0 DUP5 GT PUSH2 0x1C95 JUMPI DUP3 SWAP1 DUP2 PUSH1 0x40 MLOAD SWAP7 PUSH2 0x1C7E DUP9 PUSH2 0x1353 JUMP JUMPDEST AND DUP7 MSTORE AND PUSH1 0x20 DUP6 ADD MSTORE AND PUSH1 0x40 DUP4 ADD MSTORE PUSH1 0x60 DUP3 ADD MSTORE SWAP1 JUMP JUMPDEST PUSH1 0x40 MLOAD PUSH3 0x461BCD PUSH1 0xE5 SHL DUP2 MSTORE PUSH1 0x20 PUSH1 0x4 DUP3 ADD MSTORE PUSH1 0x16 PUSH1 0x24 DUP3 ADD MSTORE PUSH22 0x46656520746F6F206869676820286D61782032302529 PUSH1 0x50 SHL PUSH1 0x44 DUP3 ADD MSTORE PUSH1 0x64 SWAP1 REVERT JUMPDEST PUSH1 0x0 ADDRESS DUP2 MSTORE DUP1 PUSH1 0x20 MSTORE PUSH1 0x40 DUP2 KECCAK256 SLOAD DUP1 ISZERO PUSH2 0x20BF JUMPI PUSH1 0x7 SLOAD PUSH1 0x1 PUSH1 0x1 PUSH1 0xA0 SHL SUB AND SWAP1 DUP2 ISZERO PUSH2 0x20BA JUMPI PUSH1 0x8 SLOAD PUSH1 0x1 PUSH1 0x1 PUSH1 0xA0 SHL SUB AND ISZERO PUSH2 0x20BA JUMPI PUSH1 0xB SLOAD PUSH2 0xFFFF DUP1 DUP3 PUSH1 0x30 SHR AND DUP1 ISZERO PUSH2 0x1FE1 JUMPI PUSH2 0x1D32 PUSH2 0x1D37 SWAP3 PUSH2 0x1D3E SWAP5 PUSH1 0x10 SHR AND DUP6 PUSH2 0x14D2 JUMP JUMPDEST PUSH2 0x14E5 JUMP JUMPDEST DUP1 SWAP3 PUSH2 0x1505 JUMP JUMPDEST SWAP1 PUSH2 0x1D55 PUSH2 0x1D4F DUP3 PUSH1 0x1 SHR DUP4 PUSH2 0x1505 JUMP JUMPDEST DUP4 PUSH2 0x14AF JUMP JUMPDEST SWAP3 DUP4 ISZERO PUSH2 0x20B3 JUMPI DUP4 PUSH2 0x1D67 SWAP2 ADDRESS PUSH2 0x13FD JUMP JUMPDEST PUSH1 0x40 MLOAD SWAP2 SELFBALANCE PUSH1 0x60 DUP5 ADD PUSH8 0xFFFFFFFFFFFFFFFF DUP2 GT DUP6 DUP3 LT OR PUSH2 0x209F JUMPI PUSH1 0x40 MSTORE PUSH1 0x2 DUP5 MSTORE PUSH1 0x20 DUP5 ADD SWAP4 PUSH1 0x40 CALLDATASIZE DUP7 CALLDATACOPY DUP1 MLOAD ISZERO PUSH2 0x208B JUMPI ADDRESS DUP6 MSTORE PUSH1 0x7 SLOAD PUSH1 0x40 MLOAD PUSH4 0x15AB88C9 PUSH1 0xE3 SHL DUP2 MSTORE PUSH1 0x4 SWAP7 PUSH1 0x1 PUSH1 0x1 PUSH1 0xA0 SHL SUB SWAP1 SWAP3 AND SWAP2 SWAP1 PUSH1 0x20 DUP2 DUP10 DUP2 DUP7 GAS STATICCALL SWAP1 DUP2 ISZERO PUSH2 0x2080 JUMPI DUP11 SWAP2 PUSH2 0x2061 JUMPI JUMPDEST POP DUP4 MLOAD PUSH1 0x1 LT ISZERO PUSH2 0x204E JUMPI PUSH1 0x1 PUSH1 0x1 PUSH1 0xA0 SHL SUB AND PUSH1 0x40 DUP5 ADD MSTORE DUP2 EXTCODESIZE ISZERO PUSH2 0x204A JUMPI SWAP2 DUP9 SWAP2 PUSH1 0x40 MLOAD SWAP4 DUP5 SWAP3 PUSH4 0x791AC947 PUSH1 0xE0 SHL DUP5 MSTORE PUSH1 0xA4 DUP5 ADD SWAP1 DUP12 DUP12 DUP7 ADD MSTORE DUP6 PUSH1 0x24 DUP7 ADD MSTORE PUSH1 0xA0 PUSH1 0x44 DUP7 ADD MSTORE MLOAD DUP1 SWAP2 MSTORE PUSH1 0xC4 DUP5 ADD SWAP2 SWAP1 DUP6 JUMPDEST DUP2 DUP2 LT PUSH2 0x2025 JUMPI POP POP POP DUP4 DUP4 DUP1 SWAP3 ADDRESS PUSH1 0x64 DUP4 ADD MSTORE TIMESTAMP PUSH1 0x84 DUP4 ADD MSTORE SUB SWAP3 GAS CALL DUP1 ISZERO PUSH2 0x201A JUMPI PUSH2 0x1FE9 JUMPI JUMPDEST POP PUSH2 0x1E5E SWAP1 SELFBALANCE PUSH2 0x1505 JUMP JUMPDEST SWAP4 DUP5 ISZERO PUSH2 0x1FE1 JUMPI PUSH2 0x16B8 PUSH2 0x1E77 SWAP2 PUSH2 0x1D32 DUP9 SWAP5 DUP9 PUSH2 0x14D2 JUMP JUMPDEST SWAP4 DUP1 ISZERO ISZERO DUP1 PUSH2 0x1FCD JUMPI JUMPDEST PUSH2 0x1F60 JUMPI JUMPDEST POP POP DUP1 PUSH1 0x1 SHR ISZERO ISZERO DUP1 PUSH2 0x1F57 JUMPI JUMPDEST PUSH2 0x1E9F JUMPI JUMPDEST POP POP POP POP JUMP JUMPDEST PUSH1 0xC4 PUSH1 0x60 SWAP3 PUSH2 0x1EBC DUP4 PUSH1 0x1 SHR PUSH1 0x1 DUP1 PUSH1 0xA0 SHL SUB PUSH1 0x7 SLOAD AND ADDRESS PUSH2 0x13FD JUMP JUMPDEST PUSH1 0x7 SLOAD PUSH1 0x5 SLOAD PUSH1 0x40 MLOAD PUSH4 0xF305D719 PUSH1 0xE0 SHL DUP2 MSTORE ADDRESS SWAP4 DUP2 ADD SWAP4 SWAP1 SWAP4 MSTORE PUSH1 0x1 SWAP5 SWAP1 SWAP5 SHR PUSH1 0x24 DUP4 ADD MSTORE PUSH1 0x44 DUP3 ADD DUP8 SWAP1 MSTORE PUSH1 0x64 DUP3 ADD DUP8 SWAP1 MSTORE PUSH1 0x1 PUSH1 0x1 PUSH1 0xA0 SHL SUB SWAP4 DUP5 AND PUSH1 0x84 DUP4 ADD MSTORE TIMESTAMP PUSH1 0xA4 DUP4 ADD MSTORE SWAP1 SWAP5 DUP6 SWAP4 DUP5 SWAP3 AND GAS CALL DUP1 ISZERO PUSH2 0x1F4C JUMPI PUSH2 0x1F21 JUMPI JUMPDEST DUP1 DUP1 PUSH2 0x1E99 JUMP JUMPDEST PUSH1 0x60 SWAP1 DUP2 RETURNDATASIZE DUP2 GT PUSH2 0x1F45 JUMPI JUMPDEST PUSH2 0x1F37 DUP2 DUP4 PUSH2 0x1385 JUMP JUMPDEST DUP2 ADD SUB SLT PUSH2 0xB87 JUMPI DUP1 PUSH2 0x1F1A JUMP JUMPDEST POP RETURNDATASIZE PUSH2 0x1F2D JUMP JUMPDEST PUSH1 0x40 MLOAD RETURNDATASIZE DUP5 DUP3 RETURNDATACOPY RETURNDATASIZE SWAP1 REVERT JUMPDEST POP DUP3 ISZERO ISZERO PUSH2 0x1E94 JUMP JUMPDEST PUSH1 0x6 SLOAD DUP3 SWAP2 DUP3 SWAP2 DUP3 SWAP2 SWAP1 PUSH1 0x1 PUSH1 0x1 PUSH1 0xA0 SHL SUB AND GAS CALL POP RETURNDATASIZE ISZERO PUSH2 0x1FC8 JUMPI RETURNDATASIZE PUSH8 0xFFFFFFFFFFFFFFFF DUP2 GT PUSH2 0x1FB5 JUMPI PUSH1 0x40 MLOAD SWAP1 PUSH2 0x1FA4 PUSH1 0x1F DUP3 ADD PUSH1 0x1F NOT AND PUSH1 0x20 ADD DUP4 PUSH2 0x1385 JUMP JUMPDEST DUP2 MSTORE DUP5 PUSH1 0x20 RETURNDATASIZE SWAP3 ADD RETURNDATACOPY JUMPDEST DUP4 CODESIZE PUSH2 0x1E86 JUMP JUMPDEST PUSH4 0x4E487B71 PUSH1 0xE0 SHL DUP6 MSTORE PUSH1 0x41 DUP4 MSTORE PUSH1 0x24 DUP6 REVERT JUMPDEST PUSH2 0x1FAE JUMP JUMPDEST POP PUSH1 0x6 SLOAD PUSH1 0x1 PUSH1 0x1 PUSH1 0xA0 SHL SUB AND ISZERO ISZERO PUSH2 0x1E81 JUMP JUMPDEST POP POP POP POP POP POP JUMP JUMPDEST PUSH8 0xFFFFFFFFFFFFFFFF DUP2 SWAP8 SWAP3 SWAP8 GT PUSH2 0x2007 JUMPI PUSH1 0x40 MSTORE SWAP5 PUSH2 0x1E5E PUSH2 0x1E53 JUMP JUMPDEST PUSH4 0x4E487B71 PUSH1 0xE0 SHL DUP3 MSTORE PUSH1 0x41 DUP6 MSTORE PUSH1 0x24 DUP3 REVERT JUMPDEST PUSH1 0x40 MLOAD RETURNDATASIZE DUP10 DUP3 RETURNDATACOPY RETURNDATASIZE SWAP1 REVERT JUMPDEST DUP3 MLOAD PUSH1 0x1 PUSH1 0x1 PUSH1 0xA0 SHL SUB AND DUP5 MSTORE DUP14 SWAP7 POP DUP8 SWAP6 POP PUSH1 0x20 SWAP4 DUP5 ADD SWAP4 SWAP1 SWAP3 ADD SWAP2 PUSH1 0x1 ADD PUSH2 0x1E2A JUMP JUMPDEST DUP9 DUP1 REVERT JUMPDEST PUSH4 0x4E487B71 PUSH1 0xE0 SHL DUP11 MSTORE PUSH1 0x32 DUP9 MSTORE PUSH1 0x24 DUP11 REVERT JUMPDEST PUSH2 0x207A SWAP2 POP PUSH1 0x20 RETURNDATASIZE PUSH1 0x20 GT PUSH2 0x63B JUMPI PUSH2 0x62D DUP2 DUP4 PUSH2 0x1385 JUMP JUMPDEST CODESIZE PUSH2 0x1DD4 JUMP JUMPDEST PUSH1 0x40 MLOAD RETURNDATASIZE DUP13 DUP3 RETURNDATACOPY RETURNDATASIZE SWAP1 REVERT JUMPDEST PUSH4 0x4E487B71 PUSH1 0xE0 SHL DUP8 MSTORE PUSH1 0x32 PUSH1 0x4 MSTORE PUSH1 0x24 DUP8 REVERT JUMPDEST PUSH4 0x4E487B71 PUSH1 0xE0 SHL DUP8 MSTORE PUSH1 0x41 PUSH1 0x4 MSTORE PUSH1 0x24 DUP8 REVERT JUMPDEST POP POP POP POP POP JUMP JUMPDEST POP POP POP JUMP JUMPDEST POP POP JUMP INVALID 0xDD CALLCODE MSTORE 0xAD SHL 0xE2 0xC8 SWAP12 PUSH10 0xC2B068FC378DAA952BA7 CALL PUSH4 0xC4A11628 CREATE2 GAS 0x4D CREATE2 0x23 0xB3 0xEF LOG2 PUSH5 0x6970667358 0x22 SLT KECCAK256 0xB6 DUP13 PUSH30 0x3F7CD7D105E333058A30DD98A2FB561354377F8B86B1785E594CB6012364 PUSH20 0x6F6C63430008140033DDF252AD1BE2C89B69C2B0 PUSH9 0xFC378DAA952BA7F163 0xC4 LOG1 AND 0x28 CREATE2 GAS 0x4D CREATE2 0x23 0xB3 0xEF "},"methodIdentifiers":{"BURN_ADDRESS()":"fccc2813","allowance(address,address)":"dd62ed3e","approve(address,uint256)":"095ea7b3","balanceOf(address)":"70a08231","buyFee()":"47062402","deadBlocks()":"fabb0b4f","decimals()":"313ce567","enableTrading()":"8a8c523c","isBlacklisted(address)":"fe575a87","isExcludedFromFees(address)":"4fbee193","isExcludedFromLimits(address)":"5cce86cd","isWhitelisted(address)":"3af32abf","launchBlock()":"d00efb2f","manualSwapBack()":"66eb3785","marketingWallet()":"75f0a874","maxGasPriceWei()":"ef3881c8","maxTxAmount()":"8c0b5e22","maxWalletAmount()":"aa4bde28","name()":"06fdde03","owner()":"8da5cb5b","renounceOwnership()":"715018a6","revertEarlyBuys()":"2fc05806","sellFee()":"2b14ca56","setAddressFlags(address,bool,bool,bool,bool)":"92c818d6","setBuyFees(uint16,uint16,uint16)":"6951a079","setLimits(uint256,uint256,bool,uint256,uint256)":"9f52256b","setMarketingWallet(address)":"5d098b38","setRouter(address)":"c0d78655","setSellFees(uint16,uint16,uint16)":"fc6c2bda","setSwapSettings(bool,uint256)":"d0e10326","swapEnabled()":"6ddd1713","swapTokensAtAmount()":"e2f45605","symbol()":"95d89b41","totalSupply()":"18160ddd","tradingEnabled()":"4ada218b","transfer(address,uint256)":"a9059cbb","transferFrom(address,address,uint256)":"23b872dd","transferOwnership(address)":"f2fde38b","uniswapV2Pair()":"49bd5a5e","uniswapV2Router()":"1694505e"}}}}}