{"contracts/launch/LPTimeLock.sol":{"LPTimeLock":{"abi":[{"anonymous":false,"inputs":[{"indexed":true,"internalType":"uint256","name":"id","type":"uint256"},{"indexed":true,"internalType":"address","name":"oldBeneficiary","type":"address"},{"indexed":true,"internalType":"address","name":"newBeneficiary","type":"address"}],"name":"LockBeneficiaryUpdated","type":"event"},{"anonymous":false,"inputs":[{"indexed":true,"internalType":"uint256","name":"id","type":"uint256"},{"indexed":true,"internalType":"address","name":"token","type":"address"},{"indexed":true,"internalType":"address","name":"beneficiary","type":"address"},{"indexed":false,"internalType":"uint256","name":"amount","type":"uint256"},{"indexed":false,"internalType":"uint256","name":"unlockTime","type":"uint256"}],"name":"LockCreated","type":"event"},{"anonymous":false,"inputs":[{"indexed":true,"internalType":"uint256","name":"id","type":"uint256"},{"indexed":false,"internalType":"uint256","name":"oldUnlockTime","type":"uint256"},{"indexed":false,"internalType":"uint256","name":"newUnlockTime","type":"uint256"}],"name":"LockExtended","type":"event"},{"anonymous":false,"inputs":[{"indexed":true,"internalType":"uint256","name":"id","type":"uint256"},{"indexed":true,"internalType":"address","name":"oldOwner","type":"address"},{"indexed":true,"internalType":"address","name":"newOwner","type":"address"}],"name":"LockOwnershipTransferred","type":"event"},{"anonymous":false,"inputs":[{"indexed":true,"internalType":"uint256","name":"id","type":"uint256"},{"indexed":true,"internalType":"address","name":"beneficiary","type":"address"},{"indexed":false,"internalType":"uint256","name":"amount","type":"uint256"}],"name":"Withdrawn","type":"event"},{"inputs":[{"internalType":"address","name":"token","type":"address"},{"internalType":"address","name":"beneficiary","type":"address"},{"internalType":"uint256","name":"amount","type":"uint256"},{"internalType":"uint256","name":"unlockTime","type":"uint256"}],"name":"createLock","outputs":[{"internalType":"uint256","name":"id","type":"uint256"}],"stateMutability":"nonpayable","type":"function"},{"inputs":[{"internalType":"uint256","name":"id","type":"uint256"},{"internalType":"uint256","name":"newUnlockTime","type":"uint256"}],"name":"extendLock","outputs":[],"stateMutability":"nonpayable","type":"function"},{"inputs":[{"internalType":"uint256","name":"id","type":"uint256"}],"name":"getLockStatus","outputs":[{"internalType":"bool","name":"isLocked","type":"bool"},{"internalType":"uint256","name":"remainingSeconds","type":"uint256"}],"stateMutability":"view","type":"function"},{"inputs":[{"internalType":"uint256","name":"","type":"uint256"}],"name":"locks","outputs":[{"internalType":"address","name":"token","type":"address"},{"internalType":"address","name":"owner","type":"address"},{"internalType":"address","name":"beneficiary","type":"address"},{"internalType":"uint256","name":"amount","type":"uint256"},{"internalType":"uint256","name":"unlockTime","type":"uint256"},{"internalType":"bool","name":"withdrawn","type":"bool"}],"stateMutability":"view","type":"function"},{"inputs":[],"name":"nextId","outputs":[{"internalType":"uint256","name":"","type":"uint256"}],"stateMutability":"view","type":"function"},{"inputs":[{"internalType":"uint256","name":"id","type":"uint256"},{"internalType":"address","name":"newOwner","type":"address"}],"name":"transferLockOwnership","outputs":[],"stateMutability":"nonpayable","type":"function"},{"inputs":[{"internalType":"uint256","name":"id","type":"uint256"},{"internalType":"address","name":"newBeneficiary","type":"address"}],"name":"updateBeneficiary","outputs":[],"stateMutability":"nonpayable","type":"function"},{"inputs":[{"internalType":"uint256","name":"id","type":"uint256"}],"name":"withdraw","outputs":[],"stateMutability":"nonpayable","type":"function"}],"evm":{"bytecode":{"linkReferences":{},"object":"6080806040523461001b5760016000556109f090816100218239f35b600080fdfe6040608081526004908136101561001557600080fd5b600090813560e01c8063070d66bf146107515780632e1a7d4d146105b35780633e8eb5a4146104d85780635a04fb691461040457806361b8ce8c146103e85780638978b2da146103b8578063f4dadc61146103455763f6a8d50a1461007957600080fd5b34610341576080366003190112610341576001600160a01b0391833583811690819003610341576100a861081a565b604435956064359183156103145786169384156102e15787156102b3574283111561027057805496600019881461025d5760058891600183018455888b8151926100f184610835565b89845260208401338152838501918c8352606086019384528060808701958c875260a08801998b8b528b5260016020528a20965116916bffffffffffffffffffffffff60a01b928388541617875581600188019151168382541617905560028601925116908254161790555160038301555185820155019051151560ff8019835416911617905585516323b872dd60e01b8152338382015230602482015288604482015260208160648185895af19182156102525791610223575b50156101ea57507f6422b526b1c8aecb4b5678d5c67a4a334dd9539d8da30a39a0f24b71a95faedc846020978793825191825289820152a451908152f35b606490602086519162461bcd60e51b835282015260136024820152721d1c985b9cd9995c919c9bdb4819985a5b1959606a1b6044820152fd5b610245915060203d60201161024b575b61023d8183610867565b810190610889565b386101ac565b503d610233565b8751903d90823e3d90fd5b506011602492634e487b7160e01b835252fd5b855162461bcd60e51b8152602081840152601960248201527f756e6c6f636b54696d65206d75737420626520667574757265000000000000006044820152606490fd5b855162461bcd60e51b815260208184015260086024820152670616d6f756e743d360c41b6044820152606490fd5b855162461bcd60e51b8152602081840152600d60248201526c062656e65666963696172793d3609c1b6044820152606490fd5b855162461bcd60e51b815260208184015260076024820152660746f6b656e3d360cc1b6044820152606490fd5b5080fd5b5082346103b45760203660031901126103b4578160c0938235815260016020522060018060a01b0391828254169383600184015416936002840154169060ff600560038601549486015495015416948151968752602087015285015260608401526080830152151560a0820152f35b8280fd5b509190346103e55760203660031901126103e557506103d7903561091e565b825191151582526020820152f35b80fd5b5034610341578160031936011261034157602091549051908152f35b508290346103b457806003193601126103b45781359061042261081a565b90828552600160205260018060a01b038092610447826001858a2001541633146108a1565b169384156104a9575060019083865281602052852061046d60ff600583015416156108de565b0180546001600160a01b03198116851790915516907f94cb47eeeeb76a68c4d24f7c656bc9e63d5bc82211fc7784b33e438103b2f8738480a480f35b6020606492519162461bcd60e51b8352820152600a60248201526906e65774f776e65723d360b41b6044820152fd5b508290346103b457806003193601126103b4578135906104f661081a565b90828552600160205260018060a01b03809261051b826001858a2001541633146108a1565b1693841561057e57506002908386526001602052852061054260ff600583015416156108de565b0180546001600160a01b03198116851790915516907fb46dd957666562116725549320e1a014fec61f371662e239650e548197f9f5ef8480a480f35b6020606492519162461bcd60e51b8352820152601060248201526f06e657742656e65666963696172793d360841b6044820152fd5b508290346103b45760208060031936011261074d578235918285526001825280852060058101908154956105ea60ff8816156108de565b600282019160018060a01b03938484541698893303610718578383015442106106e65760019060ff19161790558560038583541692019860448a54918c8951958694859363a9059cbb60e01b85528985015260248401525af19081156106dc5789916106bf575b501561068a5750907fcf7d23a3cbe4e8b36ff82fd1b05b1b17373dc7804b4ebbd6e2356716ef202372939291541694549051908152a380f35b835162461bcd60e51b8152908101859052600f60248201526e1d1c985b9cd9995c8819985a5b1959608a1b6044820152606490fd5b6106d69150863d881161024b5761023d8183610867565b89610651565b85513d8b823e3d90fd5b865162461bcd60e51b8152808501899052600c60248201526b1cdd1a5b1b081b1bd8dad95960a21b6044820152606490fd5b865162461bcd60e51b8152808501899052600f60248201526e6e6f742062656e656669636961727960881b6044820152606490fd5b8380fd5b503461034157806003193601126103415782359060243593828452600160205261078a60018060a01b03600184872001541633146108a1565b8284526001602052808285206107a760ff600583015416156108de565b0194855491828211156107e95750807f12c0f64f942f99aa5210c23a8ab729735389400457b66b06895b0700315c3b339495965582519182526020820152a280f35b606490602085519162461bcd60e51b8352820152600b60248201526a1b5d5cdd08195e1d195b9960aa1b6044820152fd5b602435906001600160a01b038216820361083057565b600080fd5b60c0810190811067ffffffffffffffff82111761085157604052565b634e487b7160e01b600052604160045260246000fd5b90601f8019910116810190811067ffffffffffffffff82111761085157604052565b90816020910312610830575180151581036108305790565b156108a857565b60405162461bcd60e51b815260206004820152600e60248201526d2737ba103637b1b59037bbb732b960911b6044820152606490fd5b156108e557565b60405162461bcd60e51b815260206004820152601160248201527030b63932b0b23c903bb4ba34323930bbb760791b6044820152606490fd5b9060009182526001602052604082209160a060405161093c81610835565b600180831b0380865416825280600187015416602083015260028601541660408201526003850154606082015260ff6005600487015496876080850152015416151591829101526109b457824210156109b4574283039283116109a0575060019190565b634e487b7160e01b81526011600452602490fd5b9150819056fea26469706673582212201a885df70a969e7e3f22230a2c6e7d458cd99897c74a0d7f994ee402fe94db6e64736f6c63430008140033","opcodes":"PUSH1 0x80 DUP1 PUSH1 0x40 MSTORE CALLVALUE PUSH2 0x1B JUMPI PUSH1 0x1 PUSH1 0x0 SSTORE PUSH2 0x9F0 SWAP1 DUP2 PUSH2 0x21 DUP3 CODECOPY RETURN JUMPDEST PUSH1 0x0 DUP1 REVERT INVALID PUSH1 0x40 PUSH1 0x80 DUP2 MSTORE PUSH1 0x4 SWAP1 DUP2 CALLDATASIZE LT ISZERO PUSH2 0x15 JUMPI PUSH1 0x0 DUP1 REVERT JUMPDEST PUSH1 0x0 SWAP1 DUP2 CALLDATALOAD PUSH1 0xE0 SHR DUP1 PUSH4 0x70D66BF EQ PUSH2 0x751 JUMPI DUP1 PUSH4 0x2E1A7D4D EQ PUSH2 0x5B3 JUMPI DUP1 PUSH4 0x3E8EB5A4 EQ PUSH2 0x4D8 JUMPI DUP1 PUSH4 0x5A04FB69 EQ PUSH2 0x404 JUMPI DUP1 PUSH4 0x61B8CE8C EQ PUSH2 0x3E8 JUMPI DUP1 PUSH4 0x8978B2DA EQ PUSH2 0x3B8 JUMPI DUP1 PUSH4 0xF4DADC61 EQ PUSH2 0x345 JUMPI PUSH4 0xF6A8D50A EQ PUSH2 0x79 JUMPI PUSH1 0x0 DUP1 REVERT JUMPDEST CALLVALUE PUSH2 0x341 JUMPI PUSH1 0x80 CALLDATASIZE PUSH1 0x3 NOT ADD SLT PUSH2 0x341 JUMPI PUSH1 0x1 PUSH1 0x1 PUSH1 0xA0 SHL SUB SWAP2 DUP4 CALLDATALOAD DUP4 DUP2 AND SWAP1 DUP2 SWAP1 SUB PUSH2 0x341 JUMPI PUSH2 0xA8 PUSH2 0x81A JUMP JUMPDEST PUSH1 0x44 CALLDATALOAD SWAP6 PUSH1 0x64 CALLDATALOAD SWAP2 DUP4 ISZERO PUSH2 0x314 JUMPI DUP7 AND SWAP4 DUP5 ISZERO PUSH2 0x2E1 JUMPI DUP8 ISZERO PUSH2 0x2B3 JUMPI TIMESTAMP DUP4 GT ISZERO PUSH2 0x270 JUMPI DUP1 SLOAD SWAP7 PUSH1 0x0 NOT DUP9 EQ PUSH2 0x25D JUMPI PUSH1 0x5 DUP9 SWAP2 PUSH1 0x1 DUP4 ADD DUP5 SSTORE DUP9 DUP12 DUP2 MLOAD SWAP3 PUSH2 0xF1 DUP5 PUSH2 0x835 JUMP JUMPDEST DUP10 DUP5 MSTORE PUSH1 0x20 DUP5 ADD CALLER DUP2 MSTORE DUP4 DUP6 ADD SWAP2 DUP13 DUP4 MSTORE PUSH1 0x60 DUP7 ADD SWAP4 DUP5 MSTORE DUP1 PUSH1 0x80 DUP8 ADD SWAP6 DUP13 DUP8 MSTORE PUSH1 0xA0 DUP9 ADD SWAP10 DUP12 DUP12 MSTORE DUP12 MSTORE PUSH1 0x1 PUSH1 0x20 MSTORE DUP11 KECCAK256 SWAP7 MLOAD AND SWAP2 PUSH12 0xFFFFFFFFFFFFFFFFFFFFFFFF PUSH1 0xA0 SHL SWAP3 DUP4 DUP9 SLOAD AND OR DUP8 SSTORE DUP2 PUSH1 0x1 DUP9 ADD SWAP2 MLOAD AND DUP4 DUP3 SLOAD AND OR SWAP1 SSTORE PUSH1 0x2 DUP7 ADD SWAP3 MLOAD AND SWAP1 DUP3 SLOAD AND OR SWAP1 SSTORE MLOAD PUSH1 0x3 DUP4 ADD SSTORE MLOAD DUP6 DUP3 ADD SSTORE ADD SWAP1 MLOAD ISZERO ISZERO PUSH1 0xFF DUP1 NOT DUP4 SLOAD AND SWAP2 AND OR SWAP1 SSTORE DUP6 MLOAD PUSH4 0x23B872DD PUSH1 0xE0 SHL DUP2 MSTORE CALLER DUP4 DUP3 ADD MSTORE ADDRESS PUSH1 0x24 DUP3 ADD MSTORE DUP9 PUSH1 0x44 DUP3 ADD MSTORE PUSH1 0x20 DUP2 PUSH1 0x64 DUP2 DUP6 DUP10 GAS CALL SWAP2 DUP3 ISZERO PUSH2 0x252 JUMPI SWAP2 PUSH2 0x223 JUMPI JUMPDEST POP ISZERO PUSH2 0x1EA JUMPI POP PUSH32 0x6422B526B1C8AECB4B5678D5C67A4A334DD9539D8DA30A39A0F24B71A95FAEDC DUP5 PUSH1 0x20 SWAP8 DUP8 SWAP4 DUP3 MLOAD SWAP2 DUP3 MSTORE DUP10 DUP3 ADD MSTORE LOG4 MLOAD SWAP1 DUP2 MSTORE RETURN JUMPDEST PUSH1 0x64 SWAP1 PUSH1 0x20 DUP7 MLOAD SWAP2 PUSH3 0x461BCD PUSH1 0xE5 SHL DUP4 MSTORE DUP3 ADD MSTORE PUSH1 0x13 PUSH1 0x24 DUP3 ADD MSTORE PUSH19 0x1D1C985B9CD9995C919C9BDB4819985A5B1959 PUSH1 0x6A SHL PUSH1 0x44 DUP3 ADD MSTORE REVERT JUMPDEST PUSH2 0x245 SWAP2 POP PUSH1 0x20 RETURNDATASIZE PUSH1 0x20 GT PUSH2 0x24B JUMPI JUMPDEST PUSH2 0x23D DUP2 DUP4 PUSH2 0x867 JUMP JUMPDEST DUP2 ADD SWAP1 PUSH2 0x889 JUMP JUMPDEST CODESIZE PUSH2 0x1AC JUMP JUMPDEST POP RETURNDATASIZE PUSH2 0x233 JUMP JUMPDEST DUP8 MLOAD SWAP1 RETURNDATASIZE SWAP1 DUP3 RETURNDATACOPY RETURNDATASIZE SWAP1 REVERT JUMPDEST POP PUSH1 0x11 PUSH1 0x24 SWAP3 PUSH4 0x4E487B71 PUSH1 0xE0 SHL DUP4 MSTORE MSTORE REVERT JUMPDEST DUP6 MLOAD PUSH3 0x461BCD PUSH1 0xE5 SHL DUP2 MSTORE PUSH1 0x20 DUP2 DUP5 ADD MSTORE PUSH1 0x19 PUSH1 0x24 DUP3 ADD MSTORE PUSH32 0x756E6C6F636B54696D65206D7573742062652066757475726500000000000000 PUSH1 0x44 DUP3 ADD MSTORE PUSH1 0x64 SWAP1 REVERT JUMPDEST DUP6 MLOAD PUSH3 0x461BCD PUSH1 0xE5 SHL DUP2 MSTORE PUSH1 0x20 DUP2 DUP5 ADD MSTORE PUSH1 0x8 PUSH1 0x24 DUP3 ADD MSTORE PUSH8 0x616D6F756E743D3 PUSH1 0xC4 SHL PUSH1 0x44 DUP3 ADD MSTORE PUSH1 0x64 SWAP1 REVERT JUMPDEST DUP6 MLOAD PUSH3 0x461BCD PUSH1 0xE5 SHL DUP2 MSTORE PUSH1 0x20 DUP2 DUP5 ADD MSTORE PUSH1 0xD PUSH1 0x24 DUP3 ADD MSTORE PUSH13 0x62656E65666963696172793D3 PUSH1 0x9C SHL PUSH1 0x44 DUP3 ADD MSTORE PUSH1 0x64 SWAP1 REVERT JUMPDEST DUP6 MLOAD PUSH3 0x461BCD PUSH1 0xE5 SHL DUP2 MSTORE PUSH1 0x20 DUP2 DUP5 ADD MSTORE PUSH1 0x7 PUSH1 0x24 DUP3 ADD MSTORE PUSH7 0x746F6B656E3D3 PUSH1 0xCC SHL PUSH1 0x44 DUP3 ADD MSTORE PUSH1 0x64 SWAP1 REVERT JUMPDEST POP DUP1 REVERT JUMPDEST POP DUP3 CALLVALUE PUSH2 0x3B4 JUMPI PUSH1 0x20 CALLDATASIZE PUSH1 0x3 NOT ADD SLT PUSH2 0x3B4 JUMPI DUP2 PUSH1 0xC0 SWAP4 DUP3 CALLDATALOAD DUP2 MSTORE PUSH1 0x1 PUSH1 0x20 MSTORE KECCAK256 PUSH1 0x1 DUP1 PUSH1 0xA0 SHL SUB SWAP2 DUP3 DUP3 SLOAD AND SWAP4 DUP4 PUSH1 0x1 DUP5 ADD SLOAD AND SWAP4 PUSH1 0x2 DUP5 ADD SLOAD AND SWAP1 PUSH1 0xFF PUSH1 0x5 PUSH1 0x3 DUP7 ADD SLOAD SWAP5 DUP7 ADD SLOAD SWAP6 ADD SLOAD AND SWAP5 DUP2 MLOAD SWAP7 DUP8 MSTORE PUSH1 0x20 DUP8 ADD MSTORE DUP6 ADD MSTORE PUSH1 0x60 DUP5 ADD MSTORE PUSH1 0x80 DUP4 ADD MSTORE ISZERO ISZERO PUSH1 0xA0 DUP3 ADD MSTORE RETURN JUMPDEST DUP3 DUP1 REVERT JUMPDEST POP SWAP2 SWAP1 CALLVALUE PUSH2 0x3E5 JUMPI PUSH1 0x20 CALLDATASIZE PUSH1 0x3 NOT ADD SLT PUSH2 0x3E5 JUMPI POP PUSH2 0x3D7 SWAP1 CALLDATALOAD PUSH2 0x91E JUMP JUMPDEST DUP3 MLOAD SWAP2 ISZERO ISZERO DUP3 MSTORE PUSH1 0x20 DUP3 ADD MSTORE RETURN JUMPDEST DUP1 REVERT JUMPDEST POP CALLVALUE PUSH2 0x341 JUMPI DUP2 PUSH1 0x3 NOT CALLDATASIZE ADD SLT PUSH2 0x341 JUMPI PUSH1 0x20 SWAP2 SLOAD SWAP1 MLOAD SWAP1 DUP2 MSTORE RETURN JUMPDEST POP DUP3 SWAP1 CALLVALUE PUSH2 0x3B4 JUMPI DUP1 PUSH1 0x3 NOT CALLDATASIZE ADD SLT PUSH2 0x3B4 JUMPI DUP2 CALLDATALOAD SWAP1 PUSH2 0x422 PUSH2 0x81A JUMP JUMPDEST SWAP1 DUP3 DUP6 MSTORE PUSH1 0x1 PUSH1 0x20 MSTORE PUSH1 0x1 DUP1 PUSH1 0xA0 SHL SUB DUP1 SWAP3 PUSH2 0x447 DUP3 PUSH1 0x1 DUP6 DUP11 KECCAK256 ADD SLOAD AND CALLER EQ PUSH2 0x8A1 JUMP JUMPDEST AND SWAP4 DUP5 ISZERO PUSH2 0x4A9 JUMPI POP PUSH1 0x1 SWAP1 DUP4 DUP7 MSTORE DUP2 PUSH1 0x20 MSTORE DUP6 KECCAK256 PUSH2 0x46D PUSH1 0xFF PUSH1 0x5 DUP4 ADD SLOAD AND ISZERO PUSH2 0x8DE JUMP JUMPDEST ADD DUP1 SLOAD PUSH1 0x1 PUSH1 0x1 PUSH1 0xA0 SHL SUB NOT DUP2 AND DUP6 OR SWAP1 SWAP2 SSTORE AND SWAP1 PUSH32 0x94CB47EEEEB76A68C4D24F7C656BC9E63D5BC82211FC7784B33E438103B2F873 DUP5 DUP1 LOG4 DUP1 RETURN JUMPDEST PUSH1 0x20 PUSH1 0x64 SWAP3 MLOAD SWAP2 PUSH3 0x461BCD PUSH1 0xE5 SHL DUP4 MSTORE DUP3 ADD MSTORE PUSH1 0xA PUSH1 0x24 DUP3 ADD MSTORE PUSH10 0x6E65774F776E65723D3 PUSH1 0xB4 SHL PUSH1 0x44 DUP3 ADD MSTORE REVERT JUMPDEST POP DUP3 SWAP1 CALLVALUE PUSH2 0x3B4 JUMPI DUP1 PUSH1 0x3 NOT CALLDATASIZE ADD SLT PUSH2 0x3B4 JUMPI DUP2 CALLDATALOAD SWAP1 PUSH2 0x4F6 PUSH2 0x81A JUMP JUMPDEST SWAP1 DUP3 DUP6 MSTORE PUSH1 0x1 PUSH1 0x20 MSTORE PUSH1 0x1 DUP1 PUSH1 0xA0 SHL SUB DUP1 SWAP3 PUSH2 0x51B DUP3 PUSH1 0x1 DUP6 DUP11 KECCAK256 ADD SLOAD AND CALLER EQ PUSH2 0x8A1 JUMP JUMPDEST AND SWAP4 DUP5 ISZERO PUSH2 0x57E JUMPI POP PUSH1 0x2 SWAP1 DUP4 DUP7 MSTORE PUSH1 0x1 PUSH1 0x20 MSTORE DUP6 KECCAK256 PUSH2 0x542 PUSH1 0xFF PUSH1 0x5 DUP4 ADD SLOAD AND ISZERO PUSH2 0x8DE JUMP JUMPDEST ADD DUP1 SLOAD PUSH1 0x1 PUSH1 0x1 PUSH1 0xA0 SHL SUB NOT DUP2 AND DUP6 OR SWAP1 SWAP2 SSTORE AND SWAP1 PUSH32 0xB46DD957666562116725549320E1A014FEC61F371662E239650E548197F9F5EF DUP5 DUP1 LOG4 DUP1 RETURN JUMPDEST PUSH1 0x20 PUSH1 0x64 SWAP3 MLOAD SWAP2 PUSH3 0x461BCD PUSH1 0xE5 SHL DUP4 MSTORE DUP3 ADD MSTORE PUSH1 0x10 PUSH1 0x24 DUP3 ADD MSTORE PUSH16 0x6E657742656E65666963696172793D3 PUSH1 0x84 SHL PUSH1 0x44 DUP3 ADD MSTORE REVERT JUMPDEST POP DUP3 SWAP1 CALLVALUE PUSH2 0x3B4 JUMPI PUSH1 0x20 DUP1 PUSH1 0x3 NOT CALLDATASIZE ADD SLT PUSH2 0x74D JUMPI DUP3 CALLDATALOAD SWAP2 DUP3 DUP6 MSTORE PUSH1 0x1 DUP3 MSTORE DUP1 DUP6 KECCAK256 PUSH1 0x5 DUP2 ADD SWAP1 DUP2 SLOAD SWAP6 PUSH2 0x5EA PUSH1 0xFF DUP9 AND ISZERO PUSH2 0x8DE JUMP JUMPDEST PUSH1 0x2 DUP3 ADD SWAP2 PUSH1 0x1 DUP1 PUSH1 0xA0 SHL SUB SWAP4 DUP5 DUP5 SLOAD AND SWAP9 DUP10 CALLER SUB PUSH2 0x718 JUMPI DUP4 DUP4 ADD SLOAD TIMESTAMP LT PUSH2 0x6E6 JUMPI PUSH1 0x1 SWAP1 PUSH1 0xFF NOT AND OR SWAP1 SSTORE DUP6 PUSH1 0x3 DUP6 DUP4 SLOAD AND SWAP3 ADD SWAP9 PUSH1 0x44 DUP11 SLOAD SWAP2 DUP13 DUP10 MLOAD SWAP6 DUP7 SWAP5 DUP6 SWAP4 PUSH4 0xA9059CBB PUSH1 0xE0 SHL DUP6 MSTORE DUP10 DUP6 ADD MSTORE PUSH1 0x24 DUP5 ADD MSTORE GAS CALL SWAP1 DUP2 ISZERO PUSH2 0x6DC JUMPI DUP10 SWAP2 PUSH2 0x6BF JUMPI JUMPDEST POP ISZERO PUSH2 0x68A JUMPI POP SWAP1 PUSH32 0xCF7D23A3CBE4E8B36FF82FD1B05B1B17373DC7804B4EBBD6E2356716EF202372 SWAP4 SWAP3 SWAP2 SLOAD AND SWAP5 SLOAD SWAP1 MLOAD SWAP1 DUP2 MSTORE LOG3 DUP1 RETURN JUMPDEST DUP4 MLOAD PUSH3 0x461BCD PUSH1 0xE5 SHL DUP2 MSTORE SWAP1 DUP2 ADD DUP6 SWAP1 MSTORE PUSH1 0xF PUSH1 0x24 DUP3 ADD MSTORE PUSH15 0x1D1C985B9CD9995C8819985A5B1959 PUSH1 0x8A SHL PUSH1 0x44 DUP3 ADD MSTORE PUSH1 0x64 SWAP1 REVERT JUMPDEST PUSH2 0x6D6 SWAP2 POP DUP7 RETURNDATASIZE DUP9 GT PUSH2 0x24B JUMPI PUSH2 0x23D DUP2 DUP4 PUSH2 0x867 JUMP JUMPDEST DUP10 PUSH2 0x651 JUMP JUMPDEST DUP6 MLOAD RETURNDATASIZE DUP12 DUP3 RETURNDATACOPY RETURNDATASIZE SWAP1 REVERT JUMPDEST DUP7 MLOAD PUSH3 0x461BCD PUSH1 0xE5 SHL DUP2 MSTORE DUP1 DUP6 ADD DUP10 SWAP1 MSTORE PUSH1 0xC PUSH1 0x24 DUP3 ADD MSTORE PUSH12 0x1CDD1A5B1B081B1BD8DAD959 PUSH1 0xA2 SHL PUSH1 0x44 DUP3 ADD MSTORE PUSH1 0x64 SWAP1 REVERT JUMPDEST DUP7 MLOAD PUSH3 0x461BCD PUSH1 0xE5 SHL DUP2 MSTORE DUP1 DUP6 ADD DUP10 SWAP1 MSTORE PUSH1 0xF PUSH1 0x24 DUP3 ADD MSTORE PUSH15 0x6E6F742062656E6566696369617279 PUSH1 0x88 SHL PUSH1 0x44 DUP3 ADD MSTORE PUSH1 0x64 SWAP1 REVERT JUMPDEST DUP4 DUP1 REVERT JUMPDEST POP CALLVALUE PUSH2 0x341 JUMPI DUP1 PUSH1 0x3 NOT CALLDATASIZE ADD SLT PUSH2 0x341 JUMPI DUP3 CALLDATALOAD SWAP1 PUSH1 0x24 CALLDATALOAD SWAP4 DUP3 DUP5 MSTORE PUSH1 0x1 PUSH1 0x20 MSTORE PUSH2 0x78A PUSH1 0x1 DUP1 PUSH1 0xA0 SHL SUB PUSH1 0x1 DUP5 DUP8 KECCAK256 ADD SLOAD AND CALLER EQ PUSH2 0x8A1 JUMP JUMPDEST DUP3 DUP5 MSTORE PUSH1 0x1 PUSH1 0x20 MSTORE DUP1 DUP3 DUP6 KECCAK256 PUSH2 0x7A7 PUSH1 0xFF PUSH1 0x5 DUP4 ADD SLOAD AND ISZERO PUSH2 0x8DE JUMP JUMPDEST ADD SWAP5 DUP6 SLOAD SWAP2 DUP3 DUP3 GT ISZERO PUSH2 0x7E9 JUMPI POP DUP1 PUSH32 0x12C0F64F942F99AA5210C23A8AB729735389400457B66B06895B0700315C3B33 SWAP5 SWAP6 SWAP7 SSTORE DUP3 MLOAD SWAP2 DUP3 MSTORE PUSH1 0x20 DUP3 ADD MSTORE LOG2 DUP1 RETURN JUMPDEST PUSH1 0x64 SWAP1 PUSH1 0x20 DUP6 MLOAD SWAP2 PUSH3 0x461BCD PUSH1 0xE5 SHL DUP4 MSTORE DUP3 ADD MSTORE PUSH1 0xB PUSH1 0x24 DUP3 ADD MSTORE PUSH11 0x1B5D5CDD08195E1D195B99 PUSH1 0xAA SHL PUSH1 0x44 DUP3 ADD MSTORE REVERT JUMPDEST PUSH1 0x24 CALLDATALOAD SWAP1 PUSH1 0x1 PUSH1 0x1 PUSH1 0xA0 SHL SUB DUP3 AND DUP3 SUB PUSH2 0x830 JUMPI JUMP JUMPDEST PUSH1 0x0 DUP1 REVERT JUMPDEST PUSH1 0xC0 DUP2 ADD SWAP1 DUP2 LT PUSH8 0xFFFFFFFFFFFFFFFF DUP3 GT OR PUSH2 0x851 JUMPI PUSH1 0x40 MSTORE JUMP JUMPDEST PUSH4 0x4E487B71 PUSH1 0xE0 SHL PUSH1 0x0 MSTORE PUSH1 0x41 PUSH1 0x4 MSTORE PUSH1 0x24 PUSH1 0x0 REVERT JUMPDEST SWAP1 PUSH1 0x1F DUP1 NOT SWAP2 ADD AND DUP2 ADD SWAP1 DUP2 LT PUSH8 0xFFFFFFFFFFFFFFFF DUP3 GT OR PUSH2 0x851 JUMPI PUSH1 0x40 MSTORE JUMP JUMPDEST SWAP1 DUP2 PUSH1 0x20 SWAP2 SUB SLT PUSH2 0x830 JUMPI MLOAD DUP1 ISZERO ISZERO DUP2 SUB PUSH2 0x830 JUMPI SWAP1 JUMP JUMPDEST ISZERO PUSH2 0x8A8 JUMPI JUMP JUMPDEST PUSH1 0x40 MLOAD PUSH3 0x461BCD PUSH1 0xE5 SHL DUP2 MSTORE PUSH1 0x20 PUSH1 0x4 DUP3 ADD MSTORE PUSH1 0xE PUSH1 0x24 DUP3 ADD MSTORE PUSH14 0x2737BA103637B1B59037BBB732B9 PUSH1 0x91 SHL PUSH1 0x44 DUP3 ADD MSTORE PUSH1 0x64 SWAP1 REVERT JUMPDEST ISZERO PUSH2 0x8E5 JUMPI JUMP JUMPDEST PUSH1 0x40 MLOAD PUSH3 0x461BCD PUSH1 0xE5 SHL DUP2 MSTORE PUSH1 0x20 PUSH1 0x4 DUP3 ADD MSTORE PUSH1 0x11 PUSH1 0x24 DUP3 ADD MSTORE PUSH17 0x30B63932B0B23C903BB4BA34323930BBB7 PUSH1 0x79 SHL PUSH1 0x44 DUP3 ADD MSTORE PUSH1 0x64 SWAP1 REVERT JUMPDEST SWAP1 PUSH1 0x0 SWAP2 DUP3 MSTORE PUSH1 0x1 PUSH1 0x20 MSTORE PUSH1 0x40 DUP3 KECCAK256 SWAP2 PUSH1 0xA0 PUSH1 0x40 MLOAD PUSH2 0x93C DUP2 PUSH2 0x835 JUMP JUMPDEST PUSH1 0x1 DUP1 DUP4 SHL SUB DUP1 DUP7 SLOAD AND DUP3 MSTORE DUP1 PUSH1 0x1 DUP8 ADD SLOAD AND PUSH1 0x20 DUP4 ADD MSTORE PUSH1 0x2 DUP7 ADD SLOAD AND PUSH1 0x40 DUP3 ADD MSTORE PUSH1 0x3 DUP6 ADD SLOAD PUSH1 0x60 DUP3 ADD MSTORE PUSH1 0xFF PUSH1 0x5 PUSH1 0x4 DUP8 ADD SLOAD SWAP7 DUP8 PUSH1 0x80 DUP6 ADD MSTORE ADD SLOAD AND ISZERO ISZERO SWAP2 DUP3 SWAP2 ADD MSTORE PUSH2 0x9B4 JUMPI DUP3 TIMESTAMP LT ISZERO PUSH2 0x9B4 JUMPI TIMESTAMP DUP4 SUB SWAP3 DUP4 GT PUSH2 0x9A0 JUMPI POP PUSH1 0x1 SWAP2 SWAP1 JUMP JUMPDEST PUSH4 0x4E487B71 PUSH1 0xE0 SHL DUP2 MSTORE PUSH1 0x11 PUSH1 0x4 MSTORE PUSH1 0x24 SWAP1 REVERT JUMPDEST SWAP2 POP DUP2 SWAP1 JUMP INVALID LOG2 PUSH5 0x6970667358 0x22 SLT KECCAK256 BYTE DUP9 0x5D 0xF7 EXP SWAP7 SWAP15 PUSH31 0x3F22230A2C6E7D458CD99897C74A0D7F994EE402FE94DB6E64736F6C634300 ADDMOD EQ STOP CALLER "},"methodIdentifiers":{"createLock(address,address,uint256,uint256)":"f6a8d50a","extendLock(uint256,uint256)":"070d66bf","getLockStatus(uint256)":"8978b2da","locks(uint256)":"f4dadc61","nextId()":"61b8ce8c","transferLockOwnership(uint256,address)":"5a04fb69","updateBeneficiary(uint256,address)":"3e8eb5a4","withdraw(uint256)":"2e1a7d4d"}}}}}