{"contracts/launch/AdvancedLaunchToken.sol":{"AdvancedLaunchToken":{"abi":[{"inputs":[{"internalType":"address","name":"initialOwner","type":"address"},{"internalType":"string","name":"tokenName","type":"string"},{"internalType":"string","name":"tokenSymbol","type":"string"},{"internalType":"uint8","name":"tokenDecimals","type":"uint8"},{"internalType":"uint256","name":"initialSupply","type":"uint256"},{"internalType":"address","name":"marketingWallet_","type":"address"}],"stateMutability":"nonpayable","type":"constructor"},{"anonymous":false,"inputs":[{"indexed":true,"internalType":"address","name":"account","type":"address"},{"indexed":false,"internalType":"bool","name":"whitelisted","type":"bool"},{"indexed":false,"internalType":"bool","name":"blacklisted","type":"bool"},{"indexed":false,"internalType":"bool","name":"excludedFees","type":"bool"},{"indexed":false,"internalType":"bool","name":"excludedLimits","type":"bool"}],"name":"AddressFlagsUpdated","type":"event"},{"anonymous":false,"inputs":[{"indexed":true,"internalType":"address","name":"owner","type":"address"},{"indexed":true,"internalType":"address","name":"spender","type":"address"},{"indexed":false,"internalType":"uint256","name":"value","type":"uint256"}],"name":"Approval","type":"event"},{"anonymous":false,"inputs":[{"indexed":false,"internalType":"string","name":"side","type":"string"},{"indexed":false,"internalType":"uint16","name":"marketingBps","type":"uint16"},{"indexed":false,"internalType":"uint16","name":"liquidityBps","type":"uint16"},{"indexed":false,"internalType":"uint16","name":"burnBps","type":"uint16"},{"indexed":false,"internalType":"uint16","name":"totalBps","type":"uint16"}],"name":"FeesUpdated","type":"event"},{"anonymous":false,"inputs":[{"indexed":false,"internalType":"uint256","name":"maxGasPriceWei","type":"uint256"},{"indexed":false,"internalType":"uint256","name":"deadBlocks","type":"uint256"},{"indexed":false,"internalType":"bool","name":"revertEarlyBuys","type":"bool"},{"indexed":false,"internalType":"uint256","name":"maxTxAmount","type":"uint256"},{"indexed":false,"internalType":"uint256","name":"maxWalletAmount","type":"uint256"}],"name":"LimitsUpdated","type":"event"},{"anonymous":false,"inputs":[{"indexed":true,"internalType":"address","name":"wallet","type":"address"}],"name":"MarketingWalletSet","type":"event"},{"anonymous":false,"inputs":[{"indexed":true,"internalType":"address","name":"previousOwner","type":"address"},{"indexed":true,"internalType":"address","name":"newOwner","type":"address"}],"name":"OwnershipTransferred","type":"event"},{"anonymous":false,"inputs":[{"indexed":true,"internalType":"address","name":"router","type":"address"},{"indexed":true,"internalType":"address","name":"pair","type":"address"}],"name":"RouterSet","type":"event"},{"anonymous":false,"inputs":[{"indexed":false,"internalType":"bool","name":"enabled","type":"bool"},{"indexed":false,"internalType":"uint256","name":"swapTokensAtAmount","type":"uint256"}],"name":"SwapSettingsUpdated","type":"event"},{"anonymous":false,"inputs":[{"indexed":true,"internalType":"uint256","name":"launchBlock","type":"uint256"},{"indexed":true,"internalType":"address","name":"pair","type":"address"}],"name":"TradingEnabled","type":"event"},{"anonymous":false,"inputs":[{"indexed":true,"internalType":"address","name":"from","type":"address"},{"indexed":true,"internalType":"address","name":"to","type":"address"},{"indexed":false,"internalType":"uint256","name":"value","type":"uint256"}],"name":"Transfer","type":"event"},{"inputs":[],"name":"BURN_ADDRESS","outputs":[{"internalType":"address","name":"","type":"address"}],"stateMutability":"view","type":"function"},{"inputs":[{"internalType":"address","name":"owner_","type":"address"},{"internalType":"address","name":"spender","type":"address"}],"name":"allowance","outputs":[{"internalType":"uint256","name":"","type":"uint256"}],"stateMutability":"view","type":"function"},{"inputs":[{"internalType":"address","name":"spender","type":"address"},{"internalType":"uint256","name":"value","type":"uint256"}],"name":"approve","outputs":[{"internalType":"bool","name":"","type":"bool"}],"stateMutability":"nonpayable","type":"function"},{"inputs":[{"internalType":"address","name":"account","type":"address"}],"name":"balanceOf","outputs":[{"internalType":"uint256","name":"","type":"uint256"}],"stateMutability":"view","type":"function"},{"inputs":[],"name":"buyFee","outputs":[{"internalType":"uint16","name":"marketingBps","type":"uint16"},{"internalType":"uint16","name":"liquidityBps","type":"uint16"},{"internalType":"uint16","name":"burnBps","type":"uint16"},{"internalType":"uint16","name":"totalBps","type":"uint16"}],"stateMutability":"view","type":"function"},{"inputs":[],"name":"deadBlocks","outputs":[{"internalType":"uint256","name":"","type":"uint256"}],"stateMutability":"view","type":"function"},{"inputs":[],"name":"decimals","outputs":[{"internalType":"uint8","name":"","type":"uint8"}],"stateMutability":"view","type":"function"},{"inputs":[],"name":"enableTrading","outputs":[],"stateMutability":"nonpayable","type":"function"},{"inputs":[{"internalType":"address","name":"","type":"address"}],"name":"isBlacklisted","outputs":[{"internalType":"bool","name":"","type":"bool"}],"stateMutability":"view","type":"function"},{"inputs":[{"internalType":"address","name":"","type":"address"}],"name":"isExcludedFromFees","outputs":[{"internalType":"bool","name":"","type":"bool"}],"stateMutability":"view","type":"function"},{"inputs":[{"internalType":"address","name":"","type":"address"}],"name":"isExcludedFromLimits","outputs":[{"internalType":"bool","name":"","type":"bool"}],"stateMutability":"view","type":"function"},{"inputs":[{"internalType":"address","name":"","type":"address"}],"name":"isWhitelisted","outputs":[{"internalType":"bool","name":"","type":"bool"}],"stateMutability":"view","type":"function"},{"inputs":[],"name":"launchBlock","outputs":[{"internalType":"uint256","name":"","type":"uint256"}],"stateMutability":"view","type":"function"},{"inputs":[],"name":"manualSwapBack","outputs":[],"stateMutability":"nonpayable","type":"function"},{"inputs":[],"name":"marketingWallet","outputs":[{"internalType":"address","name":"","type":"address"}],"stateMutability":"view","type":"function"},{"inputs":[],"name":"maxGasPriceWei","outputs":[{"internalType":"uint256","name":"","type":"uint256"}],"stateMutability":"view","type":"function"},{"inputs":[],"name":"maxTxAmount","outputs":[{"internalType":"uint256","name":"","type":"uint256"}],"stateMutability":"view","type":"function"},{"inputs":[],"name":"maxWalletAmount","outputs":[{"internalType":"uint256","name":"","type":"uint256"}],"stateMutability":"view","type":"function"},{"inputs":[],"name":"name","outputs":[{"internalType":"string","name":"","type":"string"}],"stateMutability":"view","type":"function"},{"inputs":[],"name":"owner","outputs":[{"internalType":"address","name":"","type":"address"}],"stateMutability":"view","type":"function"},{"inputs":[],"name":"revertEarlyBuys","outputs":[{"internalType":"bool","name":"","type":"bool"}],"stateMutability":"view","type":"function"},{"inputs":[],"name":"sellFee","outputs":[{"internalType":"uint16","name":"marketingBps","type":"uint16"},{"internalType":"uint16","name":"liquidityBps","type":"uint16"},{"internalType":"uint16","name":"burnBps","type":"uint16"},{"internalType":"uint16","name":"totalBps","type":"uint16"}],"stateMutability":"view","type":"function"},{"inputs":[{"internalType":"address","name":"account","type":"address"},{"internalType":"bool","name":"whitelisted","type":"bool"},{"internalType":"bool","name":"blacklisted","type":"bool"},{"internalType":"bool","name":"excludedFees","type":"bool"},{"internalType":"bool","name":"excludedLimits","type":"bool"}],"name":"setAddressFlags","outputs":[],"stateMutability":"nonpayable","type":"function"},{"inputs":[{"internalType":"uint16","name":"marketingBps","type":"uint16"},{"internalType":"uint16","name":"liquidityBps","type":"uint16"},{"internalType":"uint16","name":"burnBps","type":"uint16"}],"name":"setBuyFees","outputs":[],"stateMutability":"nonpayable","type":"function"},{"inputs":[{"internalType":"uint256","name":"maxGasPriceWei_","type":"uint256"},{"internalType":"uint256","name":"deadBlocks_","type":"uint256"},{"internalType":"bool","name":"revertEarlyBuys_","type":"bool"},{"internalType":"uint256","name":"maxTxAmount_","type":"uint256"},{"internalType":"uint256","name":"maxWalletAmount_","type":"uint256"}],"name":"setLimits","outputs":[],"stateMutability":"nonpayable","type":"function"},{"inputs":[{"internalType":"address","name":"wallet","type":"address"}],"name":"setMarketingWallet","outputs":[],"stateMutability":"nonpayable","type":"function"},{"inputs":[{"internalType":"address","name":"router","type":"address"}],"name":"setRouter","outputs":[],"stateMutability":"nonpayable","type":"function"},{"inputs":[{"internalType":"uint16","name":"marketingBps","type":"uint16"},{"internalType":"uint16","name":"liquidityBps","type":"uint16"},{"internalType":"uint16","name":"burnBps","type":"uint16"}],"name":"setSellFees","outputs":[],"stateMutability":"nonpayable","type":"function"},{"inputs":[{"internalType":"bool","name":"enabled","type":"bool"},{"internalType":"uint256","name":"thresholdTokens","type":"uint256"}],"name":"setSwapSettings","outputs":[],"stateMutability":"nonpayable","type":"function"},{"inputs":[],"name":"swapEnabled","outputs":[{"internalType":"bool","name":"","type":"bool"}],"stateMutability":"view","type":"function"},{"inputs":[],"name":"swapTokensAtAmount","outputs":[{"internalType":"uint256","name":"","type":"uint256"}],"stateMutability":"view","type":"function"},{"inputs":[],"name":"symbol","outputs":[{"internalType":"string","name":"","type":"string"}],"stateMutability":"view","type":"function"},{"inputs":[],"name":"totalSupply","outputs":[{"internalType":"uint256","name":"","type":"uint256"}],"stateMutability":"view","type":"function"},{"inputs":[],"name":"tradingEnabled","outputs":[{"internalType":"bool","name":"","type":"bool"}],"stateMutability":"view","type":"function"},{"inputs":[{"internalType":"address","name":"to","type":"address"},{"internalType":"uint256","name":"value","type":"uint256"}],"name":"transfer","outputs":[{"internalType":"bool","name":"","type":"bool"}],"stateMutability":"nonpayable","type":"function"},{"inputs":[{"internalType":"address","name":"from","type":"address"},{"internalType":"address","name":"to","type":"address"},{"internalType":"uint256","name":"value","type":"uint256"}],"name":"transferFrom","outputs":[{"internalType":"bool","name":"","type":"bool"}],"stateMutability":"nonpayable","type":"function"},{"inputs":[{"internalType":"address","name":"newOwner","type":"address"}],"name":"transferOwnership","outputs":[],"stateMutability":"nonpayable","type":"function"},{"inputs":[],"name":"uniswapV2Pair","outputs":[{"internalType":"address","name":"","type":"address"}],"stateMutability":"view","type":"function"},{"inputs":[],"name":"uniswapV2Router","outputs":[{"internalType":"contract IUniswapV2Router02","name":"","type":"address"}],"stateMutability":"view","type":"function"},{"stateMutability":"payable","type":"receive"}],"evm":{"bytecode":{"linkReferences":{},"object":"60406080815234620005f9576200273590813803806200001f8162000634565b93843982019160c081840312620005f9576200003b816200065a565b60208083015191926001600160401b0392838111620005f95786620000629183016200066f565b958582015190848211620005f9576200007d9183016200066f565b9560608201519460ff8616809603620005f957620000a360a0608085015194016200065a565b6001600160a01b03918216969092908715620005b55760018060a01b03199060009789838a54161789558a51938a8a7f8be0079c531659141344cd1fd0a4f28419497f9722a3daafe3b4186f6b6457e08180a3600160a01b60ff60a01b19600d541617600d5560019560ff199787896012541617601255169485156200057357508051908282116200055f5786548781811c9116801562000554575b8b82101462000540579180918b8d94601f8096818311620004e5575b92505050508b908d8584116001146200047f579262000473575b5050600019600383901b1c191690871b1786555b8c519182116200045f576002548681811c9116801562000454575b8a8210146200044057818111620003f7575b50889082116001146200037c579080859493928b9c9d9e600080516020620027158339815191529c9262000370575b5050600019600383901b1c191690861b176002555b856003541617600355600d541617600d556127108404600e5586606062000220620005fe565b8281528288820152828c820152015261019060606200023e620005fe565b60c8815260c888820152898c82015201526702580000012c012c60018060401b0319670190000000c800c881600b541617600b558860608c8262000281620005fe565b91818352818c840152820152015261025860608c8b620002a0620005fe565b9161012c8084528c8401528201520152600c541617600c5587875260178552888720828482541617905530875288872082848254161790558087528887208284825416179055878752601885528887208284825416179055308752888720828482541617905586528786208183825416179055868652601584528786208183825416179055308652878620918254161790556200034081600454620006e1565b600455848452600582528584206200035a828254620006e1565b90558551908152a35161200f9081620007068239f35b015190503880620001e5565b60028a52888a2090601f1983168b5b818110620003e15750918391600080516020620027158339815191529c9d9e9f889796958a9510620003c7575b505050811b01600255620001fa565b015160001960f88460031b161c19169055388080620003b8565b8f830151845592880192918b01918b016200038b565b60028b52898b208280850160051c8201928c861062000436575b0160051c019087905b8281106200042a575050620001b6565b8c81550187906200041a565b9250819262000411565b634e487b7160e01b8b52602260045260248bfd5b90607f1690620001a4565b634e487b7160e01b8a52604160045260248afd5b01519050388062000175565b8a81528d81208b9550929190601f198516908f5b828210620004cd5750508411620004b3575b505050811b01865562000189565b015160001960f88460031b161c19169055388080620004a5565b8385015186558d979095019493840193018f62000493565b839495508c819492939452209181860160051c830193861062000536575b859493910160051c909101908a908f5b83821062000527578f93508791506200015b565b81558594508b91018f62000513565b9250819262000503565b634e487b7160e01b8c52602260045260248cfd5b90607f16906200013f565b634e487b7160e01b8b52604160045260248bfd5b62461bcd60e51b8152600481018a9052601460248201527f6d61726b6574696e672077616c6c6574203d20300000000000000000000000006044820152606490fd5b885162461bcd60e51b815260048101879052601360248201527f4f776e61626c653a207a65726f206f776e6572000000000000000000000000006044820152606490fd5b600080fd5b60405190608082016001600160401b038111838210176200061e57604052565b634e487b7160e01b600052604160045260246000fd5b6040519190601f01601f191682016001600160401b038111838210176200061e57604052565b51906001600160a01b0382168203620005f957565b919080601f84011215620005f95782516001600160401b0381116200061e57602090620006a5601f8201601f1916830162000634565b92818452828287010111620005f95760005b818110620006cd57508260009394955001015290565b8581018301518482018401528201620006b7565b91908201809211620006ef57565b634e487b7160e01b600052601160045260246000fdfe6080604081815260049182361015610022575b505050361561002057600080fd5b005b600092833560e01c91826306fdde031461119357508163095ea7b3146111695781631694505e1461114057816318160ddd1461112257816323b872dd146110315781632b14ca5614610fe55781632fc0580614610fc1578163313ce56714610f9f5781633af32abf14610f615781634706240214610f1557816349bd5a5e14610eec5781634ada218b14610ec85781634fbee19314610e8a5781635cce86cd14610e4c5781635d098b3814610d7957816366eb378514610ce95781636951a07914610beb5781636ddd171314610bc457816370a0823114610b8c57816375f0a87414610b635781638a8c523c14610a735781638c0b5e2214610a545781638da5cb5b14610a2c57816392c818d61461090357816395d89b41146108005781639f52256b14610761578163a9059cbb14610730578163aa4bde2814610711578163c0d7865514610534578163d00efb2f14610515578163d0e1032614610492578163dd62ed3e14610449578163e2f456051461042a578163ef3881c81461040b578163f2fde38b1461035d578163fabb0b4f1461033e578163fc6c2bda1461023b57508063fccc28131461021f5763fe575a87146101df5780610012565b3461021b57602036600319011261021b5760209160ff9082906001600160a01b036102086112e9565b1681526016855220541690519015158152f35b5080fd5b503461021b578160031936011261021b576020905161dead8152f35b9190503461033a57606036600319011261033a577f78a2b7c85fd401563e8af374883543c3ee4188df1c66fc71232dbb7e7ffdb1029160e09161027c61131a565b61028461132b565b9161028d61133c565b6102a160018060a01b03895416331461135c565b6102ac818585611b2c565b9161ffff80958185818097511690600c549163ffff0000602083015160101b169067ffff000000000000606065ffff000000008a86015160201b1694015160301b169367ffffffffffffffff1916171717179687600c5584519960a08b5260a08b0152631cd95b1b60e21b60c08b0152166020890152169086015216606084015260301c166080820152a180f35b8280fd5b50503461021b578160031936011261021b576020906011549051908152f35b90503461033a57602036600319011261033a576103786112e9565b8354916001600160a01b038084169261039233851461135c565b169384156103d257505082907f8be0079c531659141344cd1fd0a4f28419497f9722a3daafe3b4186f6b6457e08580a36001600160a01b03191617815580f35b906020606492519162461bcd60e51b8352820152601360248201527227bbb730b136329d103d32b9379037bbb732b960691b6044820152fd5b50503461021b578160031936011261021b576020906010549051908152f35b50503461021b578160031936011261021b57602090600e549051908152f35b50503461021b578060031936011261021b57806020926104676112e9565b61046f611304565b6001600160a01b0391821683526006865283832091168252845220549051908152f35b90503461033a578160031936011261033a57359081151580920361033a577f06983cb19592d7d4eb4aedd54adc3fb1cd55c1f3cc43ad1bd64f8bc885933ce2916024356104e960018060a01b03865416331461135c565b600d805460ff60a01b191660a084901b60ff60a01b16179055600e81905582519182526020820152a180f35b50503461021b578160031936011261021b576020906008549051908152f35b9190503461033a576020908160031936011261070d576105526112e9565b84546001600160a01b039391849161056d908316331461135c565b169283156106df57600a80546001600160a01b03199081168617909155835163c45a015560e01b8152909583828281895afa9182156106d55788926106b6575b5084516315ab88c960e31b81529088858383818b5afa9283156106aa57918186809694899661068a575b50604493948a5197889687956364e329cb60e11b87523090870152166024850152165af1908115610680579060189392918891610653575b501680956009541617600955848652528320600160ff198254161790557f8ab4cea230ab04f96aaa9a71fbc4bfa98097c7b9f07e06be33868b500f8100288380a380f35b6106739150833d8511610679575b61066b818361127e565b81019061139d565b3861060f565b503d610661565b84513d89823e3d90fd5b604494506106a490873d89116106795761066b818361127e565b936105d7565b508651903d90823e3d90fd5b6106ce919250843d86116106795761066b818361127e565b90386105ad565b85513d8a823e3d90fd5b825162461bcd60e51b815280860183905260086024820152670726f757465723d360c41b6044820152606490fd5b8380fd5b50503461021b578160031936011261021b576020906014549051908152f35b50503461021b578060031936011261021b5760209061075a6107506112e9565b60243590336114d7565b5160018152f35b90503461033a5760a036600319011261033a577f030be12a58949831a2ba360cd4c740f0f9277275d25bb2cc31c3656d170fc5c99160a0913590602435906107a761134d565b9160643591608435936107c3600180891b038a5416331461135c565b856010558260115515159160ff196012541660ff84161760125583601355846014558151958652602086015284015260608301526080820152a180f35b9190503461033a578260031936011261033a57805191836002549060019082821c9282811680156108f9575b60209586861082146108e657508488529081156108c4575060011461086b575b610867868661085d828b038361127e565b51918291826112a0565b0390f35b929550600283527f405787fa12a823e0f2b7631cc41b3ba8828b3321ca811111fa75cd3aa3bb5ace5b8284106108b157505050826108679461085d92820101943861084c565b8054868501880152928601928101610894565b60ff191687860152505050151560051b830101925061085d826108673861084c565b634e487b7160e01b845260229052602483fd5b93607f169361082c565b50503461021b5760a036600319011261021b5761091e6112e9565b906024359182151591828403610a285761093661134d565b906064359182151592838103610a24576084359081151595868303610a205789546001600160a01b03919061096e908316331461135c565b1697888a526015602052848a2090610991919060ff801983541691151516179055565b6016602052838920805460ff191660ff851515161790556017602052838920906109c6919060ff801983541691151516179055565b6018602052828820906109e4919060ff801983541691151516179055565b815194855215156020850152830152606082015260807f5de6654a95655d8559604b64d6a2547ab79693a81033f89fd08e7fb3d0d7b39a91a280f35b8980fd5b8780fd5b8480fd5b50503461021b578160031936011261021b57905490516001600160a01b039091168152602090f35b50503461021b578160031936011261021b576020906013549051908152f35b90503461033a578260031936011261033a5782546001600160a01b039190610a9e908316331461135c565b6007549160ff8316610b205760095416928315610aee57505060ff19166001176007554360088190557fb0153a1d634c9f6da118c6950a6689cff830da150b9872b291e7a8d815316bb78380a380f35b906020606492519162461bcd60e51b8352820152600c60248201526b1c185a5c881b9bdd081cd95d60a21b6044820152fd5b835162461bcd60e51b8152602081840152601760248201527f74726164696e6720616c726561647920656e61626c65640000000000000000006044820152606490fd5b50503461021b578160031936011261021b57600d5490516001600160a01b039091168152602090f35b50503461021b57602036600319011261021b5760209181906001600160a01b03610bb46112e9565b1681526005845220549051908152f35b50503461021b578160031936011261021b5760209060ff600d5460a01c1690519015158152f35b50503461021b57606036600319011261021b5760e07f78a2b7c85fd401563e8af374883543c3ee4188df1c66fc71232dbb7e7ffdb10291610c2a61131a565b90610c3361132b565b610c3b61133c565b610c4f60018060a01b03885416331461135c565b610c5a818386611b2c565b9061ffff938483818095511690600b549163ffff0000602083015160101b169067ffff000000000000606065ffff000000008886015160201b1694015160301b169367ffffffffffffffff1916171717179485600b558183519860a08a52600360a08b01526262757960e81b60c08b0152166020890152169086015216606084015260301c166080820152a180f35b9190503461033a578260031936011261033a578254336001600160a01b0391821614908115610d6b575b5015610d3a578260ff19600181600f541617600f55610d30611bd6565b600f5416600f5580f35b906020606492519162461bcd60e51b8352820152600b60248201526a1b9bdd08185b1b1bddd95960aa1b6044820152fd5b9050600d5416331438610d13565b9190503461033a57602036600319011261033a57610d956112e9565b83546001600160a01b039190610dae908316331461135c565b16918215610e1f5750816bffffffffffffffffffffffff60a01b600d541617600d55818352601760205260018184209160ff1992828482541617905560186020528420918254161790557ff86e3c0cc66159379bdf420884b6f4be3aa4fb93284e88c539c61ba300646a748280a280f35b6020606492519162461bcd60e51b83528201526008602482015267077616c6c65743d360c41b6044820152fd5b50503461021b57602036600319011261021b5760209160ff9082906001600160a01b03610e776112e9565b1681526018855220541690519015158152f35b50503461021b57602036600319011261021b5760209160ff9082906001600160a01b03610eb56112e9565b1681526017855220541690519015158152f35b50503461021b578160031936011261021b5760209060ff6007541690519015158152f35b50503461021b578160031936011261021b5760095490516001600160a01b039091168152602090f35b50503461021b578160031936011261021b57600b54905161ffff8083168252601083901c811660208084019190915283901c8116604083015260309290921c9091166060820152608090f35b50503461021b57602036600319011261021b5760209160ff9082906001600160a01b03610f8c6112e9565b1681526015855220541690519015158152f35b50503461021b578160031936011261021b5760209060ff600354169051908152f35b50503461021b578160031936011261021b5760209060ff6012541690519015158152f35b50503461021b578160031936011261021b57600c54905161ffff8083168252601083901c811660208084019190915283901c8116604083015260309290921c9091166060820152608090f35b9190503461033a57606036600319011261033a5761104d6112e9565b611055611304565b6044359160018060a01b03811680875260209560068752858820338952875285882054908582106110df575094878561075a9784849a9b5260068b528383203384528b52038282205582815260068952818120338252895220549086519182527f8c5be1e5ebec7d5bd14f71427d1e84f3dd0314c0f7b2291e5b200ac8c7c3b925883393a36114d7565b865162461bcd60e51b8152908101889052601d60248201527f45524332303a20696e73756666696369656e7420616c6c6f77616e63650000006044820152606490fd5b90503461033a578260031936011261033a5760209250549051908152f35b50503461021b578160031936011261021b57600a5490516001600160a01b039091168152602090f35b50503461021b578060031936011261021b5760209061075a6111896112e9565b60243590336113fe565b9291503461070d578360031936011261070d5783600180549182821c928281168015611242575b60209586861082146108e657508488529081156108c457506001146111ea57610867868661085d828b038361127e565b9295508083527fb10e2d527612073b26eecdfd717e6a320cf44b4afac2b0732d9fcbe2b7fa0cf65b82841061122f57505050826108679461085d92820101943861084c565b8054868501880152928601928101611212565b93607f16936111ba565b6080810190811067ffffffffffffffff82111761126857604052565b634e487b7160e01b600052604160045260246000fd5b90601f8019910116810190811067ffffffffffffffff82111761126857604052565b6020808252825181830181905290939260005b8281106112d557505060409293506000838284010152601f8019910116010190565b8181018601518482016040015285016112b3565b600435906001600160a01b03821682036112ff57565b600080fd5b602435906001600160a01b03821682036112ff57565b6004359061ffff821682036112ff57565b6024359061ffff821682036112ff57565b6044359061ffff821682036112ff57565b6044359081151582036112ff57565b1561136357565b60405162461bcd60e51b815260206004820152601260248201527127bbb730b136329d103737ba1037bbb732b960711b6044820152606490fd5b908160209103126112ff57516001600160a01b03811681036112ff5790565b156113c357565b60405162461bcd60e51b815260206004820152601360248201527245524332303a207a65726f206164647265737360681b6044820152606490fd5b90916001600160a01b03918216917f8c5be1e5ebec7d5bd14f71427d1e84f3dd0314c0f7b2291e5b200ac8c7c3b9259160209184151580611469575b611443906113bc565b8460005260068352604060002095169485600052825280604060002055604051908152a3565b50858116151561143a565b9190820180921161148157565b634e487b7160e01b600052601160045260246000fd5b8181029291811591840414171561148157565b81156114b4570490565b634e487b7160e01b600052601260045260246000fd5b9190820391821161148157565b9192916001600160a01b039081169081151580611b0b575b6114f8906113bc565b60008281526020916016835260ff916040908382822054161580611af9575b15611ac75760105480151580611aa4575b611a5f575b5083600754169283156119fc575b8060095416998a881498896119eb575b8216988b8a1495806119e0575b806119d9575b806119c5575b611961575b888452601888528685852054161580611951575b611878575b8884526005968789528585205493838510611834577fddf252ad1be2c89b69c2b068fc378daa952ba7f163c4a11628f55a4df523b3ef9a9b9c9d600f5491838316159182611825575b8261181d575b82611813575b5081611805575b50806117fa575b806117e5575b6117c4575b50829681600f54161591826117af575b8261179a575b5081611781575b5061163c575b505092829381958984528752038282205587815220611633838254611474565b905551908152a3565b156117785786600b915b8551926116528461124c565b5492606061ffff85818097168452818160101c168685015281818b8601971c16865260301c169101908082528061168c575b505050611613565b6116996127109184611497565b049182156116845787985090846116c66116bb856116cf959d9799989d6114ca565b9b8c98511685611497565b915116906114aa565b8061172b575b50806116e6575b8197968394611684565b9091816116f2916114ca565b8a85528289528585205530845284842061170d828254611474565b905584519081528989893093a38883528087528383205490386116dc565b6117398161177293956114ca565b8c8752838b528787205561dead808752878720611757838254611474565b90558c8c8c8a51858152a38b8652828a5286862054936114ca565b386116d5565b86600c91611646565b8291508115611792575b503861160d565b90503861178b565b8d875260178b52878720541615915038611606565b8c875260178b52878720548116159250611600565b60ff19908116600117600f556117d8611bd6565b600f5416600f55386115f0565b50308652888a5286862054600e5411156115eb565b50600e5415156115e5565b9050600a54161515386115de565b15159150386115d7565b8a92506115d1565b600d5460a01c851692506115cb565b865162461bcd60e51b8152600481018b9052601f60248201527f45524332303a207472616e7366657220657863656564732062616c616e6365006044820152606490fd5b60135480151580611943575b611901575b50601454801515806118fa575b6118a1575b50611582565b8a8552600589526118b58387872054611474565b116118c0573861189b565b845162461bcd60e51b815260048101899052601360248201527213585e081dd85b1b195d08195e18d959591959606a1b6044820152606490fd5b5081611896565b821161190d5738611889565b845162461bcd60e51b815260048101899052600f60248201526e13585e081d1e08195e18d959591959608a1b6044820152606490fd5b508182611884575086611884565b508984528685852054161561157d565b61197060085460115490611474565b4310156115695786601254161561156957845162461bcd60e51b815260048101899052601a60248201527f416e7469426f743a206561726c792062757920626c6f636b65640000000000006044820152606490fd5b508984526015885286858520541615611564565b508061155e565b506011541515611558565b600a5483168184161415995061154b565b868252601586528483832054168015611a4e575b61153b57825162461bcd60e51b8152600481018790526013602482015272151c98591a5b99c81b9bdd08195b98589b1959606a1b6044820152606490fd5b508088168252848383205416611a10565b3a11611a6b573861152d565b815162461bcd60e51b815260048101869052601260248201527108ec2e640e0e4d2c6ca40e8dede40d0d2ced60731b6044820152606490fd5b508360095416808814908115611abb575b50611528565b90508489161438611ab5565b815162461bcd60e51b815260048101869052600b60248201526a109b1858dadb1a5cdd195960aa1b6044820152606490fd5b50828716815283828220541615611517565b5082811615156114ef565b91909161ffff8080941691160191821161148157565b9160006060604051611b3d8161124c565b828152826020820152826040820152015261ffff9081611b6682611b618688611b16565b611b16565b16926107d08411611b985782908160405196611b818861124c565b168652166020850152166040830152606082015290565b60405162461bcd60e51b815260206004820152601660248201527546656520746f6f206869676820286d6178203230252960501b6044820152606490fd5b6000308152600560205260408120548015611fd557600a546001600160a01b03168015611fd0576009546001600160a01b031615611fd057600c5461ffff808260301c168015611efe57611c35611c3a92611c419460101c1686611497565b6114aa565b80936114ca565b91611c63611c5b611c558360011c846114ca565b85611474565b8093306113fe565b60405191476060840167ffffffffffffffff811185821017611fbc576040526002845260208401936040368637805115611fa857308552600a546040516315ab88c960e31b81526004966001600160a01b0390921691906020818981865afa908115611f9d578a91611f7e575b50835160011015611f6b576001600160a01b03166040840152813b15611f675791889160405193849263791ac94760e01b845260a4840190888b86015285602486015260a060448601525180915260c484019190855b818110611f42575050508383809230606483015242608483015203925af18015611f3757611f06575b50611d5a90476114ca565b8015611efe578591829581611ee2575b505084611d76916114ca565b9380151580611ece575b611e61575b50508060011c151580611e58575b611d9e575b50505050565b60c4606092611dbb8360011c60018060a01b03600a5416306113fe565b600a54865460405163f305d71960e01b8152309381019390935260019490941c602483015260448201879052606482018790526001600160a01b0393841660848301524260a4830152909485938492165af18015611e4d57611e1f575b8080611d98565b606090813d8111611e46575b611e35818361127e565b81010312611e435780611e18565b80fd5b503d611e2b565b6040513d84823e3d90fd5b50821515611d93565b600d54829182918291906001600160a01b03165af1503d15611ec9573d67ffffffffffffffff8111611eb65760405190611ea5601f8201601f19166020018361127e565b81528460203d92013e5b8338611d85565b634e487b7160e01b855260418352602485fd5b611eaf565b50600d546001600160a01b03161515611d80565b82965090611c35611ef692611d7694611497565b949038611d6a565b505050505050565b67ffffffffffffffff8197929711611f245760405294611d5a611d4f565b634e487b7160e01b825260418552602482fd5b6040513d89823e3d90fd5b82516001600160a01b031684528d965087955060209384019390920191600101611d26565b8880fd5b634e487b7160e01b8a526032885260248afd5b611f97915060203d6020116106795761066b818361127e565b38611cd0565b6040513d8c823e3d90fd5b634e487b7160e01b87526032600452602487fd5b634e487b7160e01b87526041600452602487fd5b505050565b505056fea264697066735822122064199eb12f7e4f1f338ff6470ecb1d89258faa796e669459eb9d82216dac7b5464736f6c63430008140033ddf252ad1be2c89b69c2b068fc378daa952ba7f163c4a11628f55a4df523b3ef","opcodes":"PUSH1 0x40 PUSH1 0x80 DUP2 MSTORE CALLVALUE PUSH3 0x5F9 JUMPI PUSH3 0x2735 SWAP1 DUP2 CODESIZE SUB DUP1 PUSH3 0x1F DUP2 PUSH3 0x634 JUMP JUMPDEST SWAP4 DUP5 CODECOPY DUP3 ADD SWAP2 PUSH1 0xC0 DUP2 DUP5 SUB SLT PUSH3 0x5F9 JUMPI PUSH3 0x3B DUP2 PUSH3 0x65A JUMP JUMPDEST PUSH1 0x20 DUP1 DUP4 ADD MLOAD SWAP2 SWAP3 PUSH1 0x1 PUSH1 0x1 PUSH1 0x40 SHL SUB SWAP3 DUP4 DUP2 GT PUSH3 0x5F9 JUMPI DUP7 PUSH3 0x62 SWAP2 DUP4 ADD PUSH3 0x66F JUMP JUMPDEST SWAP6 DUP6 DUP3 ADD MLOAD SWAP1 DUP5 DUP3 GT PUSH3 0x5F9 JUMPI PUSH3 0x7D SWAP2 DUP4 ADD PUSH3 0x66F JUMP JUMPDEST SWAP6 PUSH1 0x60 DUP3 ADD MLOAD SWAP5 PUSH1 0xFF DUP7 AND DUP1 SWAP7 SUB PUSH3 0x5F9 JUMPI PUSH3 0xA3 PUSH1 0xA0 PUSH1 0x80 DUP6 ADD MLOAD SWAP5 ADD PUSH3 0x65A JUMP JUMPDEST PUSH1 0x1 PUSH1 0x1 PUSH1 0xA0 SHL SUB SWAP2 DUP3 AND SWAP7 SWAP1 SWAP3 SWAP1 DUP8 ISZERO PUSH3 0x5B5 JUMPI PUSH1 0x1 DUP1 PUSH1 0xA0 SHL SUB NOT SWAP1 PUSH1 0x0 SWAP8 DUP10 DUP4 DUP11 SLOAD AND OR DUP10 SSTORE DUP11 MLOAD SWAP4 DUP11 DUP11 PUSH32 0x8BE0079C531659141344CD1FD0A4F28419497F9722A3DAAFE3B4186F6B6457E0 DUP2 DUP1 LOG3 PUSH1 0x1 PUSH1 0xA0 SHL PUSH1 0xFF PUSH1 0xA0 SHL NOT PUSH1 0xD SLOAD AND OR PUSH1 0xD SSTORE PUSH1 0x1 SWAP6 PUSH1 0xFF NOT SWAP8 DUP8 DUP10 PUSH1 0x12 SLOAD AND OR PUSH1 0x12 SSTORE AND SWAP5 DUP6 ISZERO PUSH3 0x573 JUMPI POP DUP1 MLOAD SWAP1 DUP3 DUP3 GT PUSH3 0x55F JUMPI DUP7 SLOAD DUP8 DUP2 DUP2 SHR SWAP2 AND DUP1 ISZERO PUSH3 0x554 JUMPI JUMPDEST DUP12 DUP3 LT EQ PUSH3 0x540 JUMPI SWAP2 DUP1 SWAP2 DUP12 DUP14 SWAP5 PUSH1 0x1F DUP1 SWAP7 DUP2 DUP4 GT PUSH3 0x4E5 JUMPI JUMPDEST SWAP3 POP POP POP POP DUP12 SWAP1 DUP14 DUP6 DUP5 GT PUSH1 0x1 EQ PUSH3 0x47F JUMPI SWAP3 PUSH3 0x473 JUMPI JUMPDEST POP POP PUSH1 0x0 NOT PUSH1 0x3 DUP4 SWAP1 SHL SHR NOT AND SWAP1 DUP8 SHL OR DUP7 SSTORE JUMPDEST DUP13 MLOAD SWAP2 DUP3 GT PUSH3 0x45F JUMPI PUSH1 0x2 SLOAD DUP7 DUP2 DUP2 SHR SWAP2 AND DUP1 ISZERO PUSH3 0x454 JUMPI JUMPDEST DUP11 DUP3 LT EQ PUSH3 0x440 JUMPI DUP2 DUP2 GT PUSH3 0x3F7 JUMPI JUMPDEST POP DUP9 SWAP1 DUP3 GT PUSH1 0x1 EQ PUSH3 0x37C JUMPI SWAP1 DUP1 DUP6 SWAP5 SWAP4 SWAP3 DUP12 SWAP13 SWAP14 SWAP15 PUSH1 0x0 DUP1 MLOAD PUSH1 0x20 PUSH3 0x2715 DUP4 CODECOPY DUP2 MLOAD SWAP2 MSTORE SWAP13 SWAP3 PUSH3 0x370 JUMPI JUMPDEST POP POP PUSH1 0x0 NOT PUSH1 0x3 DUP4 SWAP1 SHL SHR NOT AND SWAP1 DUP7 SHL OR PUSH1 0x2 SSTORE JUMPDEST DUP6 PUSH1 0x3 SLOAD AND OR PUSH1 0x3 SSTORE PUSH1 0xD SLOAD AND OR PUSH1 0xD SSTORE PUSH2 0x2710 DUP5 DIV PUSH1 0xE SSTORE DUP7 PUSH1 0x60 PUSH3 0x220 PUSH3 0x5FE JUMP JUMPDEST DUP3 DUP2 MSTORE DUP3 DUP9 DUP3 ADD MSTORE DUP3 DUP13 DUP3 ADD MSTORE ADD MSTORE PUSH2 0x190 PUSH1 0x60 PUSH3 0x23E PUSH3 0x5FE JUMP JUMPDEST PUSH1 0xC8 DUP2 MSTORE PUSH1 0xC8 DUP9 DUP3 ADD MSTORE DUP10 DUP13 DUP3 ADD MSTORE ADD MSTORE PUSH8 0x2580000012C012C PUSH1 0x1 DUP1 PUSH1 0x40 SHL SUB NOT PUSH8 0x190000000C800C8 DUP2 PUSH1 0xB SLOAD AND OR PUSH1 0xB SSTORE DUP9 PUSH1 0x60 DUP13 DUP3 PUSH3 0x281 PUSH3 0x5FE JUMP JUMPDEST SWAP2 DUP2 DUP4 MSTORE DUP2 DUP13 DUP5 ADD MSTORE DUP3 ADD MSTORE ADD MSTORE PUSH2 0x258 PUSH1 0x60 DUP13 DUP12 PUSH3 0x2A0 PUSH3 0x5FE JUMP JUMPDEST SWAP2 PUSH2 0x12C DUP1 DUP5 MSTORE DUP13 DUP5 ADD MSTORE DUP3 ADD MSTORE ADD MSTORE PUSH1 0xC SLOAD AND OR PUSH1 0xC SSTORE DUP8 DUP8 MSTORE PUSH1 0x17 DUP6 MSTORE DUP9 DUP8 KECCAK256 DUP3 DUP5 DUP3 SLOAD AND OR SWAP1 SSTORE ADDRESS DUP8 MSTORE DUP9 DUP8 KECCAK256 DUP3 DUP5 DUP3 SLOAD AND OR SWAP1 SSTORE DUP1 DUP8 MSTORE DUP9 DUP8 KECCAK256 DUP3 DUP5 DUP3 SLOAD AND OR SWAP1 SSTORE DUP8 DUP8 MSTORE PUSH1 0x18 DUP6 MSTORE DUP9 DUP8 KECCAK256 DUP3 DUP5 DUP3 SLOAD AND OR SWAP1 SSTORE ADDRESS DUP8 MSTORE DUP9 DUP8 KECCAK256 DUP3 DUP5 DUP3 SLOAD AND OR SWAP1 SSTORE DUP7 MSTORE DUP8 DUP7 KECCAK256 DUP2 DUP4 DUP3 SLOAD AND OR SWAP1 SSTORE DUP7 DUP7 MSTORE PUSH1 0x15 DUP5 MSTORE DUP8 DUP7 KECCAK256 DUP2 DUP4 DUP3 SLOAD AND OR SWAP1 SSTORE ADDRESS DUP7 MSTORE DUP8 DUP7 KECCAK256 SWAP2 DUP3 SLOAD AND OR SWAP1 SSTORE PUSH3 0x340 DUP2 PUSH1 0x4 SLOAD PUSH3 0x6E1 JUMP JUMPDEST PUSH1 0x4 SSTORE DUP5 DUP5 MSTORE PUSH1 0x5 DUP3 MSTORE DUP6 DUP5 KECCAK256 PUSH3 0x35A DUP3 DUP3 SLOAD PUSH3 0x6E1 JUMP JUMPDEST SWAP1 SSTORE DUP6 MLOAD SWAP1 DUP2 MSTORE LOG3 MLOAD PUSH2 0x200F SWAP1 DUP2 PUSH3 0x706 DUP3 CODECOPY RETURN JUMPDEST ADD MLOAD SWAP1 POP CODESIZE DUP1 PUSH3 0x1E5 JUMP JUMPDEST PUSH1 0x2 DUP11 MSTORE DUP9 DUP11 KECCAK256 SWAP1 PUSH1 0x1F NOT DUP4 AND DUP12 JUMPDEST DUP2 DUP2 LT PUSH3 0x3E1 JUMPI POP SWAP2 DUP4 SWAP2 PUSH1 0x0 DUP1 MLOAD PUSH1 0x20 PUSH3 0x2715 DUP4 CODECOPY DUP2 MLOAD SWAP2 MSTORE SWAP13 SWAP14 SWAP15 SWAP16 DUP9 SWAP8 SWAP7 SWAP6 DUP11 SWAP6 LT PUSH3 0x3C7 JUMPI JUMPDEST POP POP POP DUP2 SHL ADD PUSH1 0x2 SSTORE PUSH3 0x1FA JUMP JUMPDEST ADD MLOAD PUSH1 0x0 NOT PUSH1 0xF8 DUP5 PUSH1 0x3 SHL AND SHR NOT AND SWAP1 SSTORE CODESIZE DUP1 DUP1 PUSH3 0x3B8 JUMP JUMPDEST DUP16 DUP4 ADD MLOAD DUP5 SSTORE SWAP3 DUP9 ADD SWAP3 SWAP2 DUP12 ADD SWAP2 DUP12 ADD PUSH3 0x38B JUMP JUMPDEST PUSH1 0x2 DUP12 MSTORE DUP10 DUP12 KECCAK256 DUP3 DUP1 DUP6 ADD PUSH1 0x5 SHR DUP3 ADD SWAP3 DUP13 DUP7 LT PUSH3 0x436 JUMPI JUMPDEST ADD PUSH1 0x5 SHR ADD SWAP1 DUP8 SWAP1 JUMPDEST DUP3 DUP2 LT PUSH3 0x42A JUMPI POP POP PUSH3 0x1B6 JUMP JUMPDEST DUP13 DUP2 SSTORE ADD DUP8 SWAP1 PUSH3 0x41A JUMP JUMPDEST SWAP3 POP DUP2 SWAP3 PUSH3 0x411 JUMP JUMPDEST PUSH4 0x4E487B71 PUSH1 0xE0 SHL DUP12 MSTORE PUSH1 0x22 PUSH1 0x4 MSTORE PUSH1 0x24 DUP12 REVERT JUMPDEST SWAP1 PUSH1 0x7F AND SWAP1 PUSH3 0x1A4 JUMP JUMPDEST PUSH4 0x4E487B71 PUSH1 0xE0 SHL DUP11 MSTORE PUSH1 0x41 PUSH1 0x4 MSTORE PUSH1 0x24 DUP11 REVERT JUMPDEST ADD MLOAD SWAP1 POP CODESIZE DUP1 PUSH3 0x175 JUMP JUMPDEST DUP11 DUP2 MSTORE DUP14 DUP2 KECCAK256 DUP12 SWAP6 POP SWAP3 SWAP2 SWAP1 PUSH1 0x1F NOT DUP6 AND SWAP1 DUP16 JUMPDEST DUP3 DUP3 LT PUSH3 0x4CD JUMPI POP POP DUP5 GT PUSH3 0x4B3 JUMPI JUMPDEST POP POP POP DUP2 SHL ADD DUP7 SSTORE PUSH3 0x189 JUMP JUMPDEST ADD MLOAD PUSH1 0x0 NOT PUSH1 0xF8 DUP5 PUSH1 0x3 SHL AND SHR NOT AND SWAP1 SSTORE CODESIZE DUP1 DUP1 PUSH3 0x4A5 JUMP JUMPDEST DUP4 DUP6 ADD MLOAD DUP7 SSTORE DUP14 SWAP8 SWAP1 SWAP6 ADD SWAP5 SWAP4 DUP5 ADD SWAP4 ADD DUP16 PUSH3 0x493 JUMP JUMPDEST DUP4 SWAP5 SWAP6 POP DUP13 DUP2 SWAP5 SWAP3 SWAP4 SWAP5 MSTORE KECCAK256 SWAP2 DUP2 DUP7 ADD PUSH1 0x5 SHR DUP4 ADD SWAP4 DUP7 LT PUSH3 0x536 JUMPI JUMPDEST DUP6 SWAP5 SWAP4 SWAP2 ADD PUSH1 0x5 SHR SWAP1 SWAP2 ADD SWAP1 DUP11 SWAP1 DUP16 JUMPDEST DUP4 DUP3 LT PUSH3 0x527 JUMPI DUP16 SWAP4 POP DUP8 SWAP2 POP PUSH3 0x15B JUMP JUMPDEST DUP2 SSTORE DUP6 SWAP5 POP DUP12 SWAP2 ADD DUP16 PUSH3 0x513 JUMP JUMPDEST SWAP3 POP DUP2 SWAP3 PUSH3 0x503 JUMP JUMPDEST PUSH4 0x4E487B71 PUSH1 0xE0 SHL DUP13 MSTORE PUSH1 0x22 PUSH1 0x4 MSTORE PUSH1 0x24 DUP13 REVERT JUMPDEST SWAP1 PUSH1 0x7F AND SWAP1 PUSH3 0x13F JUMP JUMPDEST PUSH4 0x4E487B71 PUSH1 0xE0 SHL DUP12 MSTORE PUSH1 0x41 PUSH1 0x4 MSTORE PUSH1 0x24 DUP12 REVERT JUMPDEST PUSH3 0x461BCD PUSH1 0xE5 SHL DUP2 MSTORE PUSH1 0x4 DUP2 ADD DUP11 SWAP1 MSTORE PUSH1 0x14 PUSH1 0x24 DUP3 ADD MSTORE PUSH32 0x6D61726B6574696E672077616C6C6574203D2030000000000000000000000000 PUSH1 0x44 DUP3 ADD MSTORE PUSH1 0x64 SWAP1 REVERT JUMPDEST DUP9 MLOAD PUSH3 0x461BCD PUSH1 0xE5 SHL DUP2 MSTORE PUSH1 0x4 DUP2 ADD DUP8 SWAP1 MSTORE PUSH1 0x13 PUSH1 0x24 DUP3 ADD MSTORE PUSH32 0x4F776E61626C653A207A65726F206F776E657200000000000000000000000000 PUSH1 0x44 DUP3 ADD MSTORE PUSH1 0x64 SWAP1 REVERT JUMPDEST PUSH1 0x0 DUP1 REVERT JUMPDEST PUSH1 0x40 MLOAD SWAP1 PUSH1 0x80 DUP3 ADD PUSH1 0x1 PUSH1 0x1 PUSH1 0x40 SHL SUB DUP2 GT DUP4 DUP3 LT OR PUSH3 0x61E JUMPI PUSH1 0x40 MSTORE JUMP JUMPDEST PUSH4 0x4E487B71 PUSH1 0xE0 SHL PUSH1 0x0 MSTORE PUSH1 0x41 PUSH1 0x4 MSTORE PUSH1 0x24 PUSH1 0x0 REVERT JUMPDEST PUSH1 0x40 MLOAD SWAP2 SWAP1 PUSH1 0x1F ADD PUSH1 0x1F NOT AND DUP3 ADD PUSH1 0x1 PUSH1 0x1 PUSH1 0x40 SHL SUB DUP2 GT DUP4 DUP3 LT OR PUSH3 0x61E JUMPI PUSH1 0x40 MSTORE JUMP JUMPDEST MLOAD SWAP1 PUSH1 0x1 PUSH1 0x1 PUSH1 0xA0 SHL SUB DUP3 AND DUP3 SUB PUSH3 0x5F9 JUMPI JUMP JUMPDEST SWAP2 SWAP1 DUP1 PUSH1 0x1F DUP5 ADD SLT ISZERO PUSH3 0x5F9 JUMPI DUP3 MLOAD PUSH1 0x1 PUSH1 0x1 PUSH1 0x40 SHL SUB DUP2 GT PUSH3 0x61E JUMPI PUSH1 0x20 SWAP1 PUSH3 0x6A5 PUSH1 0x1F DUP3 ADD PUSH1 0x1F NOT AND DUP4 ADD PUSH3 0x634 JUMP JUMPDEST SWAP3 DUP2 DUP5 MSTORE DUP3 DUP3 DUP8 ADD ADD GT PUSH3 0x5F9 JUMPI PUSH1 0x0 JUMPDEST DUP2 DUP2 LT PUSH3 0x6CD JUMPI POP DUP3 PUSH1 0x0 SWAP4 SWAP5 SWAP6 POP ADD ADD MSTORE SWAP1 JUMP JUMPDEST DUP6 DUP2 ADD DUP4 ADD MLOAD DUP5 DUP3 ADD DUP5 ADD MSTORE DUP3 ADD PUSH3 0x6B7 JUMP JUMPDEST SWAP2 SWAP1 DUP3 ADD DUP1 SWAP3 GT PUSH3 0x6EF JUMPI JUMP JUMPDEST PUSH4 0x4E487B71 PUSH1 0xE0 SHL PUSH1 0x0 MSTORE PUSH1 0x11 PUSH1 0x4 MSTORE PUSH1 0x24 PUSH1 0x0 REVERT INVALID PUSH1 0x80 PUSH1 0x40 DUP2 DUP2 MSTORE PUSH1 0x4 SWAP2 DUP3 CALLDATASIZE LT ISZERO PUSH2 0x22 JUMPI JUMPDEST POP POP POP CALLDATASIZE ISZERO PUSH2 0x20 JUMPI PUSH1 0x0 DUP1 REVERT JUMPDEST STOP JUMPDEST PUSH1 0x0 SWAP3 DUP4 CALLDATALOAD PUSH1 0xE0 SHR SWAP2 DUP3 PUSH4 0x6FDDE03 EQ PUSH2 0x1193 JUMPI POP DUP2 PUSH4 0x95EA7B3 EQ PUSH2 0x1169 JUMPI DUP2 PUSH4 0x1694505E EQ PUSH2 0x1140 JUMPI DUP2 PUSH4 0x18160DDD EQ PUSH2 0x1122 JUMPI DUP2 PUSH4 0x23B872DD EQ PUSH2 0x1031 JUMPI DUP2 PUSH4 0x2B14CA56 EQ PUSH2 0xFE5 JUMPI DUP2 PUSH4 0x2FC05806 EQ PUSH2 0xFC1 JUMPI DUP2 PUSH4 0x313CE567 EQ PUSH2 0xF9F JUMPI DUP2 PUSH4 0x3AF32ABF EQ PUSH2 0xF61 JUMPI DUP2 PUSH4 0x47062402 EQ PUSH2 0xF15 JUMPI DUP2 PUSH4 0x49BD5A5E EQ PUSH2 0xEEC JUMPI DUP2 PUSH4 0x4ADA218B EQ PUSH2 0xEC8 JUMPI DUP2 PUSH4 0x4FBEE193 EQ PUSH2 0xE8A JUMPI DUP2 PUSH4 0x5CCE86CD EQ PUSH2 0xE4C JUMPI DUP2 PUSH4 0x5D098B38 EQ PUSH2 0xD79 JUMPI DUP2 PUSH4 0x66EB3785 EQ PUSH2 0xCE9 JUMPI DUP2 PUSH4 0x6951A079 EQ PUSH2 0xBEB JUMPI DUP2 PUSH4 0x6DDD1713 EQ PUSH2 0xBC4 JUMPI DUP2 PUSH4 0x70A08231 EQ PUSH2 0xB8C JUMPI DUP2 PUSH4 0x75F0A874 EQ PUSH2 0xB63 JUMPI DUP2 PUSH4 0x8A8C523C EQ PUSH2 0xA73 JUMPI DUP2 PUSH4 0x8C0B5E22 EQ PUSH2 0xA54 JUMPI DUP2 PUSH4 0x8DA5CB5B EQ PUSH2 0xA2C JUMPI DUP2 PUSH4 0x92C818D6 EQ PUSH2 0x903 JUMPI DUP2 PUSH4 0x95D89B41 EQ PUSH2 0x800 JUMPI DUP2 PUSH4 0x9F52256B EQ PUSH2 0x761 JUMPI DUP2 PUSH4 0xA9059CBB EQ PUSH2 0x730 JUMPI DUP2 PUSH4 0xAA4BDE28 EQ PUSH2 0x711 JUMPI DUP2 PUSH4 0xC0D78655 EQ PUSH2 0x534 JUMPI DUP2 PUSH4 0xD00EFB2F EQ PUSH2 0x515 JUMPI DUP2 PUSH4 0xD0E10326 EQ PUSH2 0x492 JUMPI DUP2 PUSH4 0xDD62ED3E EQ PUSH2 0x449 JUMPI DUP2 PUSH4 0xE2F45605 EQ PUSH2 0x42A JUMPI DUP2 PUSH4 0xEF3881C8 EQ PUSH2 0x40B JUMPI DUP2 PUSH4 0xF2FDE38B EQ PUSH2 0x35D JUMPI DUP2 PUSH4 0xFABB0B4F EQ PUSH2 0x33E JUMPI DUP2 PUSH4 0xFC6C2BDA EQ PUSH2 0x23B JUMPI POP DUP1 PUSH4 0xFCCC2813 EQ PUSH2 0x21F JUMPI PUSH4 0xFE575A87 EQ PUSH2 0x1DF JUMPI DUP1 PUSH2 0x12 JUMP JUMPDEST CALLVALUE PUSH2 0x21B JUMPI PUSH1 0x20 CALLDATASIZE PUSH1 0x3 NOT ADD SLT PUSH2 0x21B JUMPI PUSH1 0x20 SWAP2 PUSH1 0xFF SWAP1 DUP3 SWAP1 PUSH1 0x1 PUSH1 0x1 PUSH1 0xA0 SHL SUB PUSH2 0x208 PUSH2 0x12E9 JUMP JUMPDEST AND DUP2 MSTORE PUSH1 0x16 DUP6 MSTORE KECCAK256 SLOAD AND SWAP1 MLOAD SWAP1 ISZERO ISZERO DUP2 MSTORE RETURN JUMPDEST POP DUP1 REVERT JUMPDEST POP CALLVALUE PUSH2 0x21B JUMPI DUP2 PUSH1 0x3 NOT CALLDATASIZE ADD SLT PUSH2 0x21B JUMPI PUSH1 0x20 SWAP1 MLOAD PUSH2 0xDEAD DUP2 MSTORE RETURN JUMPDEST SWAP2 SWAP1 POP CALLVALUE PUSH2 0x33A JUMPI PUSH1 0x60 CALLDATASIZE PUSH1 0x3 NOT ADD SLT PUSH2 0x33A JUMPI PUSH32 0x78A2B7C85FD401563E8AF374883543C3EE4188DF1C66FC71232DBB7E7FFDB102 SWAP2 PUSH1 0xE0 SWAP2 PUSH2 0x27C PUSH2 0x131A JUMP JUMPDEST PUSH2 0x284 PUSH2 0x132B JUMP JUMPDEST SWAP2 PUSH2 0x28D PUSH2 0x133C JUMP JUMPDEST PUSH2 0x2A1 PUSH1 0x1 DUP1 PUSH1 0xA0 SHL SUB DUP10 SLOAD AND CALLER EQ PUSH2 0x135C JUMP JUMPDEST PUSH2 0x2AC DUP2 DUP6 DUP6 PUSH2 0x1B2C JUMP JUMPDEST SWAP2 PUSH2 0xFFFF DUP1 SWAP6 DUP2 DUP6 DUP2 DUP1 SWAP8 MLOAD AND SWAP1 PUSH1 0xC SLOAD SWAP2 PUSH4 0xFFFF0000 PUSH1 0x20 DUP4 ADD MLOAD PUSH1 0x10 SHL AND SWAP1 PUSH8 0xFFFF000000000000 PUSH1 0x60 PUSH6 0xFFFF00000000 DUP11 DUP7 ADD MLOAD PUSH1 0x20 SHL AND SWAP5 ADD MLOAD PUSH1 0x30 SHL AND SWAP4 PUSH8 0xFFFFFFFFFFFFFFFF NOT AND OR OR OR OR SWAP7 DUP8 PUSH1 0xC SSTORE DUP5 MLOAD SWAP10 PUSH1 0xA0 DUP12 MSTORE PUSH1 0xA0 DUP12 ADD MSTORE PUSH4 0x1CD95B1B PUSH1 0xE2 SHL PUSH1 0xC0 DUP12 ADD MSTORE AND PUSH1 0x20 DUP10 ADD MSTORE AND SWAP1 DUP7 ADD MSTORE AND PUSH1 0x60 DUP5 ADD MSTORE PUSH1 0x30 SHR AND PUSH1 0x80 DUP3 ADD MSTORE LOG1 DUP1 RETURN JUMPDEST DUP3 DUP1 REVERT JUMPDEST POP POP CALLVALUE PUSH2 0x21B JUMPI DUP2 PUSH1 0x3 NOT CALLDATASIZE ADD SLT PUSH2 0x21B JUMPI PUSH1 0x20 SWAP1 PUSH1 0x11 SLOAD SWAP1 MLOAD SWAP1 DUP2 MSTORE RETURN JUMPDEST SWAP1 POP CALLVALUE PUSH2 0x33A JUMPI PUSH1 0x20 CALLDATASIZE PUSH1 0x3 NOT ADD SLT PUSH2 0x33A JUMPI PUSH2 0x378 PUSH2 0x12E9 JUMP JUMPDEST DUP4 SLOAD SWAP2 PUSH1 0x1 PUSH1 0x1 PUSH1 0xA0 SHL SUB DUP1 DUP5 AND SWAP3 PUSH2 0x392 CALLER DUP6 EQ PUSH2 0x135C JUMP JUMPDEST AND SWAP4 DUP5 ISZERO PUSH2 0x3D2 JUMPI POP POP DUP3 SWAP1 PUSH32 0x8BE0079C531659141344CD1FD0A4F28419497F9722A3DAAFE3B4186F6B6457E0 DUP6 DUP1 LOG3 PUSH1 0x1 PUSH1 0x1 PUSH1 0xA0 SHL SUB NOT AND OR DUP2 SSTORE DUP1 RETURN JUMPDEST SWAP1 PUSH1 0x20 PUSH1 0x64 SWAP3 MLOAD SWAP2 PUSH3 0x461BCD PUSH1 0xE5 SHL DUP4 MSTORE DUP3 ADD MSTORE PUSH1 0x13 PUSH1 0x24 DUP3 ADD MSTORE PUSH19 0x27BBB730B136329D103D32B9379037BBB732B9 PUSH1 0x69 SHL PUSH1 0x44 DUP3 ADD MSTORE REVERT JUMPDEST POP POP CALLVALUE PUSH2 0x21B JUMPI DUP2 PUSH1 0x3 NOT CALLDATASIZE ADD SLT PUSH2 0x21B JUMPI PUSH1 0x20 SWAP1 PUSH1 0x10 SLOAD SWAP1 MLOAD SWAP1 DUP2 MSTORE RETURN JUMPDEST POP POP CALLVALUE PUSH2 0x21B JUMPI DUP2 PUSH1 0x3 NOT CALLDATASIZE ADD SLT PUSH2 0x21B JUMPI PUSH1 0x20 SWAP1 PUSH1 0xE SLOAD SWAP1 MLOAD SWAP1 DUP2 MSTORE RETURN JUMPDEST POP POP CALLVALUE PUSH2 0x21B JUMPI DUP1 PUSH1 0x3 NOT CALLDATASIZE ADD SLT PUSH2 0x21B JUMPI DUP1 PUSH1 0x20 SWAP3 PUSH2 0x467 PUSH2 0x12E9 JUMP JUMPDEST PUSH2 0x46F PUSH2 0x1304 JUMP JUMPDEST PUSH1 0x1 PUSH1 0x1 PUSH1 0xA0 SHL SUB SWAP2 DUP3 AND DUP4 MSTORE PUSH1 0x6 DUP7 MSTORE DUP4 DUP4 KECCAK256 SWAP2 AND DUP3 MSTORE DUP5 MSTORE KECCAK256 SLOAD SWAP1 MLOAD SWAP1 DUP2 MSTORE RETURN JUMPDEST SWAP1 POP CALLVALUE PUSH2 0x33A JUMPI DUP2 PUSH1 0x3 NOT CALLDATASIZE ADD SLT PUSH2 0x33A JUMPI CALLDATALOAD SWAP1 DUP2 ISZERO ISZERO DUP1 SWAP3 SUB PUSH2 0x33A JUMPI PUSH32 0x6983CB19592D7D4EB4AEDD54ADC3FB1CD55C1F3CC43AD1BD64F8BC885933CE2 SWAP2 PUSH1 0x24 CALLDATALOAD PUSH2 0x4E9 PUSH1 0x1 DUP1 PUSH1 0xA0 SHL SUB DUP7 SLOAD AND CALLER EQ PUSH2 0x135C JUMP JUMPDEST PUSH1 0xD DUP1 SLOAD PUSH1 0xFF PUSH1 0xA0 SHL NOT AND PUSH1 0xA0 DUP5 SWAP1 SHL PUSH1 0xFF PUSH1 0xA0 SHL AND OR SWAP1 SSTORE PUSH1 0xE DUP2 SWAP1 SSTORE DUP3 MLOAD SWAP2 DUP3 MSTORE PUSH1 0x20 DUP3 ADD MSTORE LOG1 DUP1 RETURN JUMPDEST POP POP CALLVALUE PUSH2 0x21B JUMPI DUP2 PUSH1 0x3 NOT CALLDATASIZE ADD SLT PUSH2 0x21B JUMPI PUSH1 0x20 SWAP1 PUSH1 0x8 SLOAD SWAP1 MLOAD SWAP1 DUP2 MSTORE RETURN JUMPDEST SWAP2 SWAP1 POP CALLVALUE PUSH2 0x33A JUMPI PUSH1 0x20 SWAP1 DUP2 PUSH1 0x3 NOT CALLDATASIZE ADD SLT PUSH2 0x70D JUMPI PUSH2 0x552 PUSH2 0x12E9 JUMP JUMPDEST DUP5 SLOAD PUSH1 0x1 PUSH1 0x1 PUSH1 0xA0 SHL SUB SWAP4 SWAP2 DUP5 SWAP2 PUSH2 0x56D SWAP1 DUP4 AND CALLER EQ PUSH2 0x135C JUMP JUMPDEST AND SWAP3 DUP4 ISZERO PUSH2 0x6DF JUMPI PUSH1 0xA DUP1 SLOAD PUSH1 0x1 PUSH1 0x1 PUSH1 0xA0 SHL SUB NOT SWAP1 DUP2 AND DUP7 OR SWAP1 SWAP2 SSTORE DUP4 MLOAD PUSH4 0xC45A0155 PUSH1 0xE0 SHL DUP2 MSTORE SWAP1 SWAP6 DUP4 DUP3 DUP3 DUP2 DUP10 GAS STATICCALL SWAP2 DUP3 ISZERO PUSH2 0x6D5 JUMPI DUP9 SWAP3 PUSH2 0x6B6 JUMPI JUMPDEST POP DUP5 MLOAD PUSH4 0x15AB88C9 PUSH1 0xE3 SHL DUP2 MSTORE SWAP1 DUP9 DUP6 DUP4 DUP4 DUP2 DUP12 GAS STATICCALL SWAP3 DUP4 ISZERO PUSH2 0x6AA JUMPI SWAP2 DUP2 DUP7 DUP1 SWAP7 SWAP5 DUP10 SWAP7 PUSH2 0x68A JUMPI JUMPDEST POP PUSH1 0x44 SWAP4 SWAP5 DUP11 MLOAD SWAP8 DUP9 SWAP7 DUP8 SWAP6 PUSH4 0x64E329CB PUSH1 0xE1 SHL DUP8 MSTORE ADDRESS SWAP1 DUP8 ADD MSTORE AND PUSH1 0x24 DUP6 ADD MSTORE AND GAS CALL SWAP1 DUP2 ISZERO PUSH2 0x680 JUMPI SWAP1 PUSH1 0x18 SWAP4 SWAP3 SWAP2 DUP9 SWAP2 PUSH2 0x653 JUMPI JUMPDEST POP AND DUP1 SWAP6 PUSH1 0x9 SLOAD AND OR PUSH1 0x9 SSTORE DUP5 DUP7 MSTORE MSTORE DUP4 KECCAK256 PUSH1 0x1 PUSH1 0xFF NOT DUP3 SLOAD AND OR SWAP1 SSTORE PUSH32 0x8AB4CEA230AB04F96AAA9A71FBC4BFA98097C7B9F07E06BE33868B500F810028 DUP4 DUP1 LOG3 DUP1 RETURN JUMPDEST PUSH2 0x673 SWAP2 POP DUP4 RETURNDATASIZE DUP6 GT PUSH2 0x679 JUMPI JUMPDEST PUSH2 0x66B DUP2 DUP4 PUSH2 0x127E JUMP JUMPDEST DUP2 ADD SWAP1 PUSH2 0x139D JUMP JUMPDEST CODESIZE PUSH2 0x60F JUMP JUMPDEST POP RETURNDATASIZE PUSH2 0x661 JUMP JUMPDEST DUP5 MLOAD RETURNDATASIZE DUP10 DUP3 RETURNDATACOPY RETURNDATASIZE SWAP1 REVERT JUMPDEST PUSH1 0x44 SWAP5 POP PUSH2 0x6A4 SWAP1 DUP8 RETURNDATASIZE DUP10 GT PUSH2 0x679 JUMPI PUSH2 0x66B DUP2 DUP4 PUSH2 0x127E JUMP JUMPDEST SWAP4 PUSH2 0x5D7 JUMP JUMPDEST POP DUP7 MLOAD SWAP1 RETURNDATASIZE SWAP1 DUP3 RETURNDATACOPY RETURNDATASIZE SWAP1 REVERT JUMPDEST PUSH2 0x6CE SWAP2 SWAP3 POP DUP5 RETURNDATASIZE DUP7 GT PUSH2 0x679 JUMPI PUSH2 0x66B DUP2 DUP4 PUSH2 0x127E JUMP JUMPDEST SWAP1 CODESIZE PUSH2 0x5AD JUMP JUMPDEST DUP6 MLOAD RETURNDATASIZE DUP11 DUP3 RETURNDATACOPY RETURNDATASIZE SWAP1 REVERT JUMPDEST DUP3 MLOAD PUSH3 0x461BCD PUSH1 0xE5 SHL DUP2 MSTORE DUP1 DUP7 ADD DUP4 SWAP1 MSTORE PUSH1 0x8 PUSH1 0x24 DUP3 ADD MSTORE PUSH8 0x726F757465723D3 PUSH1 0xC4 SHL PUSH1 0x44 DUP3 ADD MSTORE PUSH1 0x64 SWAP1 REVERT JUMPDEST DUP4 DUP1 REVERT JUMPDEST POP POP CALLVALUE PUSH2 0x21B JUMPI DUP2 PUSH1 0x3 NOT CALLDATASIZE ADD SLT PUSH2 0x21B JUMPI PUSH1 0x20 SWAP1 PUSH1 0x14 SLOAD SWAP1 MLOAD SWAP1 DUP2 MSTORE RETURN JUMPDEST POP POP CALLVALUE PUSH2 0x21B JUMPI DUP1 PUSH1 0x3 NOT CALLDATASIZE ADD SLT PUSH2 0x21B JUMPI PUSH1 0x20 SWAP1 PUSH2 0x75A PUSH2 0x750 PUSH2 0x12E9 JUMP JUMPDEST PUSH1 0x24 CALLDATALOAD SWAP1 CALLER PUSH2 0x14D7 JUMP JUMPDEST MLOAD PUSH1 0x1 DUP2 MSTORE RETURN JUMPDEST SWAP1 POP CALLVALUE PUSH2 0x33A JUMPI PUSH1 0xA0 CALLDATASIZE PUSH1 0x3 NOT ADD SLT PUSH2 0x33A JUMPI PUSH32 0x30BE12A58949831A2BA360CD4C740F0F9277275D25BB2CC31C3656D170FC5C9 SWAP2 PUSH1 0xA0 SWAP2 CALLDATALOAD SWAP1 PUSH1 0x24 CALLDATALOAD SWAP1 PUSH2 0x7A7 PUSH2 0x134D JUMP JUMPDEST SWAP2 PUSH1 0x64 CALLDATALOAD SWAP2 PUSH1 0x84 CALLDATALOAD SWAP4 PUSH2 0x7C3 PUSH1 0x1 DUP1 DUP10 SHL SUB DUP11 SLOAD AND CALLER EQ PUSH2 0x135C JUMP JUMPDEST DUP6 PUSH1 0x10 SSTORE DUP3 PUSH1 0x11 SSTORE ISZERO ISZERO SWAP2 PUSH1 0xFF NOT PUSH1 0x12 SLOAD AND PUSH1 0xFF DUP5 AND OR PUSH1 0x12 SSTORE DUP4 PUSH1 0x13 SSTORE DUP5 PUSH1 0x14 SSTORE DUP2 MLOAD SWAP6 DUP7 MSTORE PUSH1 0x20 DUP7 ADD MSTORE DUP5 ADD MSTORE PUSH1 0x60 DUP4 ADD MSTORE PUSH1 0x80 DUP3 ADD MSTORE LOG1 DUP1 RETURN JUMPDEST SWAP2 SWAP1 POP CALLVALUE PUSH2 0x33A JUMPI DUP3 PUSH1 0x3 NOT CALLDATASIZE ADD SLT PUSH2 0x33A JUMPI DUP1 MLOAD SWAP2 DUP4 PUSH1 0x2 SLOAD SWAP1 PUSH1 0x1 SWAP1 DUP3 DUP3 SHR SWAP3 DUP3 DUP2 AND DUP1 ISZERO PUSH2 0x8F9 JUMPI JUMPDEST PUSH1 0x20 SWAP6 DUP7 DUP7 LT DUP3 EQ PUSH2 0x8E6 JUMPI POP DUP5 DUP9 MSTORE SWAP1 DUP2 ISZERO PUSH2 0x8C4 JUMPI POP PUSH1 0x1 EQ PUSH2 0x86B JUMPI JUMPDEST PUSH2 0x867 DUP7 DUP7 PUSH2 0x85D DUP3 DUP12 SUB DUP4 PUSH2 0x127E JUMP JUMPDEST MLOAD SWAP2 DUP3 SWAP2 DUP3 PUSH2 0x12A0 JUMP JUMPDEST SUB SWAP1 RETURN JUMPDEST SWAP3 SWAP6 POP PUSH1 0x2 DUP4 MSTORE PUSH32 0x405787FA12A823E0F2B7631CC41B3BA8828B3321CA811111FA75CD3AA3BB5ACE JUMPDEST DUP3 DUP5 LT PUSH2 0x8B1 JUMPI POP POP POP DUP3 PUSH2 0x867 SWAP5 PUSH2 0x85D SWAP3 DUP3 ADD ADD SWAP5 CODESIZE PUSH2 0x84C JUMP JUMPDEST DUP1 SLOAD DUP7 DUP6 ADD DUP9 ADD MSTORE SWAP3 DUP7 ADD SWAP3 DUP2 ADD PUSH2 0x894 JUMP JUMPDEST PUSH1 0xFF NOT AND DUP8 DUP7 ADD MSTORE POP POP POP ISZERO ISZERO PUSH1 0x5 SHL DUP4 ADD ADD SWAP3 POP PUSH2 0x85D DUP3 PUSH2 0x867 CODESIZE PUSH2 0x84C JUMP JUMPDEST PUSH4 0x4E487B71 PUSH1 0xE0 SHL DUP5 MSTORE PUSH1 0x22 SWAP1 MSTORE PUSH1 0x24 DUP4 REVERT JUMPDEST SWAP4 PUSH1 0x7F AND SWAP4 PUSH2 0x82C JUMP JUMPDEST POP POP CALLVALUE PUSH2 0x21B JUMPI PUSH1 0xA0 CALLDATASIZE PUSH1 0x3 NOT ADD SLT PUSH2 0x21B JUMPI PUSH2 0x91E PUSH2 0x12E9 JUMP JUMPDEST SWAP1 PUSH1 0x24 CALLDATALOAD SWAP2 DUP3 ISZERO ISZERO SWAP2 DUP3 DUP5 SUB PUSH2 0xA28 JUMPI PUSH2 0x936 PUSH2 0x134D JUMP JUMPDEST SWAP1 PUSH1 0x64 CALLDATALOAD SWAP2 DUP3 ISZERO ISZERO SWAP3 DUP4 DUP2 SUB PUSH2 0xA24 JUMPI PUSH1 0x84 CALLDATALOAD SWAP1 DUP2 ISZERO ISZERO SWAP6 DUP7 DUP4 SUB PUSH2 0xA20 JUMPI DUP10 SLOAD PUSH1 0x1 PUSH1 0x1 PUSH1 0xA0 SHL SUB SWAP2 SWAP1 PUSH2 0x96E SWAP1 DUP4 AND CALLER EQ PUSH2 0x135C JUMP JUMPDEST AND SWAP8 DUP9 DUP11 MSTORE PUSH1 0x15 PUSH1 0x20 MSTORE DUP5 DUP11 KECCAK256 SWAP1 PUSH2 0x991 SWAP2 SWAP1 PUSH1 0xFF DUP1 NOT DUP4 SLOAD AND SWAP2 ISZERO ISZERO AND OR SWAP1 SSTORE JUMP JUMPDEST PUSH1 0x16 PUSH1 0x20 MSTORE DUP4 DUP10 KECCAK256 DUP1 SLOAD PUSH1 0xFF NOT AND PUSH1 0xFF DUP6 ISZERO ISZERO AND OR SWAP1 SSTORE PUSH1 0x17 PUSH1 0x20 MSTORE DUP4 DUP10 KECCAK256 SWAP1 PUSH2 0x9C6 SWAP2 SWAP1 PUSH1 0xFF DUP1 NOT DUP4 SLOAD AND SWAP2 ISZERO ISZERO AND OR SWAP1 SSTORE JUMP JUMPDEST PUSH1 0x18 PUSH1 0x20 MSTORE DUP3 DUP9 KECCAK256 SWAP1 PUSH2 0x9E4 SWAP2 SWAP1 PUSH1 0xFF DUP1 NOT DUP4 SLOAD AND SWAP2 ISZERO ISZERO AND OR SWAP1 SSTORE JUMP JUMPDEST DUP2 MLOAD SWAP5 DUP6 MSTORE ISZERO ISZERO PUSH1 0x20 DUP6 ADD MSTORE DUP4 ADD MSTORE PUSH1 0x60 DUP3 ADD MSTORE PUSH1 0x80 PUSH32 0x5DE6654A95655D8559604B64D6A2547AB79693A81033F89FD08E7FB3D0D7B39A SWAP2 LOG2 DUP1 RETURN JUMPDEST DUP10 DUP1 REVERT JUMPDEST DUP8 DUP1 REVERT JUMPDEST DUP5 DUP1 REVERT JUMPDEST POP POP CALLVALUE PUSH2 0x21B JUMPI DUP2 PUSH1 0x3 NOT CALLDATASIZE ADD SLT PUSH2 0x21B JUMPI SWAP1 SLOAD SWAP1 MLOAD PUSH1 0x1 PUSH1 0x1 PUSH1 0xA0 SHL SUB SWAP1 SWAP2 AND DUP2 MSTORE PUSH1 0x20 SWAP1 RETURN JUMPDEST POP POP CALLVALUE PUSH2 0x21B JUMPI DUP2 PUSH1 0x3 NOT CALLDATASIZE ADD SLT PUSH2 0x21B JUMPI PUSH1 0x20 SWAP1 PUSH1 0x13 SLOAD SWAP1 MLOAD SWAP1 DUP2 MSTORE RETURN JUMPDEST SWAP1 POP CALLVALUE PUSH2 0x33A JUMPI DUP3 PUSH1 0x3 NOT CALLDATASIZE ADD SLT PUSH2 0x33A JUMPI DUP3 SLOAD PUSH1 0x1 PUSH1 0x1 PUSH1 0xA0 SHL SUB SWAP2 SWAP1 PUSH2 0xA9E SWAP1 DUP4 AND CALLER EQ PUSH2 0x135C JUMP JUMPDEST PUSH1 0x7 SLOAD SWAP2 PUSH1 0xFF DUP4 AND PUSH2 0xB20 JUMPI PUSH1 0x9 SLOAD AND SWAP3 DUP4 ISZERO PUSH2 0xAEE JUMPI POP POP PUSH1 0xFF NOT AND PUSH1 0x1 OR PUSH1 0x7 SSTORE NUMBER PUSH1 0x8 DUP2 SWAP1 SSTORE PUSH32 0xB0153A1D634C9F6DA118C6950A6689CFF830DA150B9872B291E7A8D815316BB7 DUP4 DUP1 LOG3 DUP1 RETURN JUMPDEST SWAP1 PUSH1 0x20 PUSH1 0x64 SWAP3 MLOAD SWAP2 PUSH3 0x461BCD PUSH1 0xE5 SHL DUP4 MSTORE DUP3 ADD MSTORE PUSH1 0xC PUSH1 0x24 DUP3 ADD MSTORE PUSH12 0x1C185A5C881B9BDD081CD95D PUSH1 0xA2 SHL PUSH1 0x44 DUP3 ADD MSTORE REVERT JUMPDEST DUP4 MLOAD PUSH3 0x461BCD PUSH1 0xE5 SHL DUP2 MSTORE PUSH1 0x20 DUP2 DUP5 ADD MSTORE PUSH1 0x17 PUSH1 0x24 DUP3 ADD MSTORE PUSH32 0x74726164696E6720616C726561647920656E61626C6564000000000000000000 PUSH1 0x44 DUP3 ADD MSTORE PUSH1 0x64 SWAP1 REVERT JUMPDEST POP POP CALLVALUE PUSH2 0x21B JUMPI DUP2 PUSH1 0x3 NOT CALLDATASIZE ADD SLT PUSH2 0x21B JUMPI PUSH1 0xD SLOAD SWAP1 MLOAD PUSH1 0x1 PUSH1 0x1 PUSH1 0xA0 SHL SUB SWAP1 SWAP2 AND DUP2 MSTORE PUSH1 0x20 SWAP1 RETURN JUMPDEST POP POP CALLVALUE PUSH2 0x21B JUMPI PUSH1 0x20 CALLDATASIZE PUSH1 0x3 NOT ADD SLT PUSH2 0x21B JUMPI PUSH1 0x20 SWAP2 DUP2 SWAP1 PUSH1 0x1 PUSH1 0x1 PUSH1 0xA0 SHL SUB PUSH2 0xBB4 PUSH2 0x12E9 JUMP JUMPDEST AND DUP2 MSTORE PUSH1 0x5 DUP5 MSTORE KECCAK256 SLOAD SWAP1 MLOAD SWAP1 DUP2 MSTORE RETURN JUMPDEST POP POP CALLVALUE PUSH2 0x21B JUMPI DUP2 PUSH1 0x3 NOT CALLDATASIZE ADD SLT PUSH2 0x21B JUMPI PUSH1 0x20 SWAP1 PUSH1 0xFF PUSH1 0xD SLOAD PUSH1 0xA0 SHR AND SWAP1 MLOAD SWAP1 ISZERO ISZERO DUP2 MSTORE RETURN JUMPDEST POP POP CALLVALUE PUSH2 0x21B JUMPI PUSH1 0x60 CALLDATASIZE PUSH1 0x3 NOT ADD SLT PUSH2 0x21B JUMPI PUSH1 0xE0 PUSH32 0x78A2B7C85FD401563E8AF374883543C3EE4188DF1C66FC71232DBB7E7FFDB102 SWAP2 PUSH2 0xC2A PUSH2 0x131A JUMP JUMPDEST SWAP1 PUSH2 0xC33 PUSH2 0x132B JUMP JUMPDEST PUSH2 0xC3B PUSH2 0x133C JUMP JUMPDEST PUSH2 0xC4F PUSH1 0x1 DUP1 PUSH1 0xA0 SHL SUB DUP9 SLOAD AND CALLER EQ PUSH2 0x135C JUMP JUMPDEST PUSH2 0xC5A DUP2 DUP4 DUP7 PUSH2 0x1B2C JUMP JUMPDEST SWAP1 PUSH2 0xFFFF SWAP4 DUP5 DUP4 DUP2 DUP1 SWAP6 MLOAD AND SWAP1 PUSH1 0xB SLOAD SWAP2 PUSH4 0xFFFF0000 PUSH1 0x20 DUP4 ADD MLOAD PUSH1 0x10 SHL AND SWAP1 PUSH8 0xFFFF000000000000 PUSH1 0x60 PUSH6 0xFFFF00000000 DUP9 DUP7 ADD MLOAD PUSH1 0x20 SHL AND SWAP5 ADD MLOAD PUSH1 0x30 SHL AND SWAP4 PUSH8 0xFFFFFFFFFFFFFFFF NOT AND OR OR OR OR SWAP5 DUP6 PUSH1 0xB SSTORE DUP2 DUP4 MLOAD SWAP9 PUSH1 0xA0 DUP11 MSTORE PUSH1 0x3 PUSH1 0xA0 DUP12 ADD MSTORE PUSH3 0x627579 PUSH1 0xE8 SHL PUSH1 0xC0 DUP12 ADD MSTORE AND PUSH1 0x20 DUP10 ADD MSTORE AND SWAP1 DUP7 ADD MSTORE AND PUSH1 0x60 DUP5 ADD MSTORE PUSH1 0x30 SHR AND PUSH1 0x80 DUP3 ADD MSTORE LOG1 DUP1 RETURN JUMPDEST SWAP2 SWAP1 POP CALLVALUE PUSH2 0x33A JUMPI DUP3 PUSH1 0x3 NOT CALLDATASIZE ADD SLT PUSH2 0x33A JUMPI DUP3 SLOAD CALLER PUSH1 0x1 PUSH1 0x1 PUSH1 0xA0 SHL SUB SWAP2 DUP3 AND EQ SWAP1 DUP2 ISZERO PUSH2 0xD6B JUMPI JUMPDEST POP ISZERO PUSH2 0xD3A JUMPI DUP3 PUSH1 0xFF NOT PUSH1 0x1 DUP2 PUSH1 0xF SLOAD AND OR PUSH1 0xF SSTORE PUSH2 0xD30 PUSH2 0x1BD6 JUMP JUMPDEST PUSH1 0xF SLOAD AND PUSH1 0xF SSTORE DUP1 RETURN JUMPDEST SWAP1 PUSH1 0x20 PUSH1 0x64 SWAP3 MLOAD SWAP2 PUSH3 0x461BCD PUSH1 0xE5 SHL DUP4 MSTORE DUP3 ADD MSTORE PUSH1 0xB PUSH1 0x24 DUP3 ADD MSTORE PUSH11 0x1B9BDD08185B1B1BDDD959 PUSH1 0xAA SHL PUSH1 0x44 DUP3 ADD MSTORE REVERT JUMPDEST SWAP1 POP PUSH1 0xD SLOAD AND CALLER EQ CODESIZE PUSH2 0xD13 JUMP JUMPDEST SWAP2 SWAP1 POP CALLVALUE PUSH2 0x33A JUMPI PUSH1 0x20 CALLDATASIZE PUSH1 0x3 NOT ADD SLT PUSH2 0x33A JUMPI PUSH2 0xD95 PUSH2 0x12E9 JUMP JUMPDEST DUP4 SLOAD PUSH1 0x1 PUSH1 0x1 PUSH1 0xA0 SHL SUB SWAP2 SWAP1 PUSH2 0xDAE SWAP1 DUP4 AND CALLER EQ PUSH2 0x135C JUMP JUMPDEST AND SWAP2 DUP3 ISZERO PUSH2 0xE1F JUMPI POP DUP2 PUSH12 0xFFFFFFFFFFFFFFFFFFFFFFFF PUSH1 0xA0 SHL PUSH1 0xD SLOAD AND OR PUSH1 0xD SSTORE DUP2 DUP4 MSTORE PUSH1 0x17 PUSH1 0x20 MSTORE PUSH1 0x1 DUP2 DUP5 KECCAK256 SWAP2 PUSH1 0xFF NOT SWAP3 DUP3 DUP5 DUP3 SLOAD AND OR SWAP1 SSTORE PUSH1 0x18 PUSH1 0x20 MSTORE DUP5 KECCAK256 SWAP2 DUP3 SLOAD AND OR SWAP1 SSTORE PUSH32 0xF86E3C0CC66159379BDF420884B6F4BE3AA4FB93284E88C539C61BA300646A74 DUP3 DUP1 LOG2 DUP1 RETURN JUMPDEST PUSH1 0x20 PUSH1 0x64 SWAP3 MLOAD SWAP2 PUSH3 0x461BCD PUSH1 0xE5 SHL DUP4 MSTORE DUP3 ADD MSTORE PUSH1 0x8 PUSH1 0x24 DUP3 ADD MSTORE PUSH8 0x77616C6C65743D3 PUSH1 0xC4 SHL PUSH1 0x44 DUP3 ADD MSTORE REVERT JUMPDEST POP POP CALLVALUE PUSH2 0x21B JUMPI PUSH1 0x20 CALLDATASIZE PUSH1 0x3 NOT ADD SLT PUSH2 0x21B JUMPI PUSH1 0x20 SWAP2 PUSH1 0xFF SWAP1 DUP3 SWAP1 PUSH1 0x1 PUSH1 0x1 PUSH1 0xA0 SHL SUB PUSH2 0xE77 PUSH2 0x12E9 JUMP JUMPDEST AND DUP2 MSTORE PUSH1 0x18 DUP6 MSTORE KECCAK256 SLOAD AND SWAP1 MLOAD SWAP1 ISZERO ISZERO DUP2 MSTORE RETURN JUMPDEST POP POP CALLVALUE PUSH2 0x21B JUMPI PUSH1 0x20 CALLDATASIZE PUSH1 0x3 NOT ADD SLT PUSH2 0x21B JUMPI PUSH1 0x20 SWAP2 PUSH1 0xFF SWAP1 DUP3 SWAP1 PUSH1 0x1 PUSH1 0x1 PUSH1 0xA0 SHL SUB PUSH2 0xEB5 PUSH2 0x12E9 JUMP JUMPDEST AND DUP2 MSTORE PUSH1 0x17 DUP6 MSTORE KECCAK256 SLOAD AND SWAP1 MLOAD SWAP1 ISZERO ISZERO DUP2 MSTORE RETURN JUMPDEST POP POP CALLVALUE PUSH2 0x21B JUMPI DUP2 PUSH1 0x3 NOT CALLDATASIZE ADD SLT PUSH2 0x21B JUMPI PUSH1 0x20 SWAP1 PUSH1 0xFF PUSH1 0x7 SLOAD AND SWAP1 MLOAD SWAP1 ISZERO ISZERO DUP2 MSTORE RETURN JUMPDEST POP POP CALLVALUE PUSH2 0x21B JUMPI DUP2 PUSH1 0x3 NOT CALLDATASIZE ADD SLT PUSH2 0x21B JUMPI PUSH1 0x9 SLOAD SWAP1 MLOAD PUSH1 0x1 PUSH1 0x1 PUSH1 0xA0 SHL SUB SWAP1 SWAP2 AND DUP2 MSTORE PUSH1 0x20 SWAP1 RETURN JUMPDEST POP POP CALLVALUE PUSH2 0x21B JUMPI DUP2 PUSH1 0x3 NOT CALLDATASIZE ADD SLT PUSH2 0x21B JUMPI PUSH1 0xB SLOAD SWAP1 MLOAD PUSH2 0xFFFF DUP1 DUP4 AND DUP3 MSTORE PUSH1 0x10 DUP4 SWAP1 SHR DUP2 AND PUSH1 0x20 DUP1 DUP5 ADD SWAP2 SWAP1 SWAP2 MSTORE DUP4 SWAP1 SHR DUP2 AND PUSH1 0x40 DUP4 ADD MSTORE PUSH1 0x30 SWAP3 SWAP1 SWAP3 SHR SWAP1 SWAP2 AND PUSH1 0x60 DUP3 ADD MSTORE PUSH1 0x80 SWAP1 RETURN JUMPDEST POP POP CALLVALUE PUSH2 0x21B JUMPI PUSH1 0x20 CALLDATASIZE PUSH1 0x3 NOT ADD SLT PUSH2 0x21B JUMPI PUSH1 0x20 SWAP2 PUSH1 0xFF SWAP1 DUP3 SWAP1 PUSH1 0x1 PUSH1 0x1 PUSH1 0xA0 SHL SUB PUSH2 0xF8C PUSH2 0x12E9 JUMP JUMPDEST AND DUP2 MSTORE PUSH1 0x15 DUP6 MSTORE KECCAK256 SLOAD AND SWAP1 MLOAD SWAP1 ISZERO ISZERO DUP2 MSTORE RETURN JUMPDEST POP POP CALLVALUE PUSH2 0x21B JUMPI DUP2 PUSH1 0x3 NOT CALLDATASIZE ADD SLT PUSH2 0x21B JUMPI PUSH1 0x20 SWAP1 PUSH1 0xFF PUSH1 0x3 SLOAD AND SWAP1 MLOAD SWAP1 DUP2 MSTORE RETURN JUMPDEST POP POP CALLVALUE PUSH2 0x21B JUMPI DUP2 PUSH1 0x3 NOT CALLDATASIZE ADD SLT PUSH2 0x21B JUMPI PUSH1 0x20 SWAP1 PUSH1 0xFF PUSH1 0x12 SLOAD AND SWAP1 MLOAD SWAP1 ISZERO ISZERO DUP2 MSTORE RETURN JUMPDEST POP POP CALLVALUE PUSH2 0x21B JUMPI DUP2 PUSH1 0x3 NOT CALLDATASIZE ADD SLT PUSH2 0x21B JUMPI PUSH1 0xC SLOAD SWAP1 MLOAD PUSH2 0xFFFF DUP1 DUP4 AND DUP3 MSTORE PUSH1 0x10 DUP4 SWAP1 SHR DUP2 AND PUSH1 0x20 DUP1 DUP5 ADD SWAP2 SWAP1 SWAP2 MSTORE DUP4 SWAP1 SHR DUP2 AND PUSH1 0x40 DUP4 ADD MSTORE PUSH1 0x30 SWAP3 SWAP1 SWAP3 SHR SWAP1 SWAP2 AND PUSH1 0x60 DUP3 ADD MSTORE PUSH1 0x80 SWAP1 RETURN JUMPDEST SWAP2 SWAP1 POP CALLVALUE PUSH2 0x33A JUMPI PUSH1 0x60 CALLDATASIZE PUSH1 0x3 NOT ADD SLT PUSH2 0x33A JUMPI PUSH2 0x104D PUSH2 0x12E9 JUMP JUMPDEST PUSH2 0x1055 PUSH2 0x1304 JUMP JUMPDEST PUSH1 0x44 CALLDATALOAD SWAP2 PUSH1 0x1 DUP1 PUSH1 0xA0 SHL SUB DUP2 AND DUP1 DUP8 MSTORE PUSH1 0x20 SWAP6 PUSH1 0x6 DUP8 MSTORE DUP6 DUP9 KECCAK256 CALLER DUP10 MSTORE DUP8 MSTORE DUP6 DUP9 KECCAK256 SLOAD SWAP1 DUP6 DUP3 LT PUSH2 0x10DF JUMPI POP SWAP5 DUP8 DUP6 PUSH2 0x75A SWAP8 DUP5 DUP5 SWAP11 SWAP12 MSTORE PUSH1 0x6 DUP12 MSTORE DUP4 DUP4 KECCAK256 CALLER DUP5 MSTORE DUP12 MSTORE SUB DUP3 DUP3 KECCAK256 SSTORE DUP3 DUP2 MSTORE PUSH1 0x6 DUP10 MSTORE DUP2 DUP2 KECCAK256 CALLER DUP3 MSTORE DUP10 MSTORE KECCAK256 SLOAD SWAP1 DUP7 MLOAD SWAP2 DUP3 MSTORE PUSH32 0x8C5BE1E5EBEC7D5BD14F71427D1E84F3DD0314C0F7B2291E5B200AC8C7C3B925 DUP9 CALLER SWAP4 LOG3 PUSH2 0x14D7 JUMP JUMPDEST DUP7 MLOAD PUSH3 0x461BCD PUSH1 0xE5 SHL DUP2 MSTORE SWAP1 DUP2 ADD DUP9 SWAP1 MSTORE PUSH1 0x1D PUSH1 0x24 DUP3 ADD MSTORE PUSH32 0x45524332303A20696E73756666696369656E7420616C6C6F77616E6365000000 PUSH1 0x44 DUP3 ADD MSTORE PUSH1 0x64 SWAP1 REVERT JUMPDEST SWAP1 POP CALLVALUE PUSH2 0x33A JUMPI DUP3 PUSH1 0x3 NOT CALLDATASIZE ADD SLT PUSH2 0x33A JUMPI PUSH1 0x20 SWAP3 POP SLOAD SWAP1 MLOAD SWAP1 DUP2 MSTORE RETURN JUMPDEST POP POP CALLVALUE PUSH2 0x21B JUMPI DUP2 PUSH1 0x3 NOT CALLDATASIZE ADD SLT PUSH2 0x21B JUMPI PUSH1 0xA SLOAD SWAP1 MLOAD PUSH1 0x1 PUSH1 0x1 PUSH1 0xA0 SHL SUB SWAP1 SWAP2 AND DUP2 MSTORE PUSH1 0x20 SWAP1 RETURN JUMPDEST POP POP CALLVALUE PUSH2 0x21B JUMPI DUP1 PUSH1 0x3 NOT CALLDATASIZE ADD SLT PUSH2 0x21B JUMPI PUSH1 0x20 SWAP1 PUSH2 0x75A PUSH2 0x1189 PUSH2 0x12E9 JUMP JUMPDEST PUSH1 0x24 CALLDATALOAD SWAP1 CALLER PUSH2 0x13FE JUMP JUMPDEST SWAP3 SWAP2 POP CALLVALUE PUSH2 0x70D JUMPI DUP4 PUSH1 0x3 NOT CALLDATASIZE ADD SLT PUSH2 0x70D JUMPI DUP4 PUSH1 0x1 DUP1 SLOAD SWAP2 DUP3 DUP3 SHR SWAP3 DUP3 DUP2 AND DUP1 ISZERO PUSH2 0x1242 JUMPI JUMPDEST PUSH1 0x20 SWAP6 DUP7 DUP7 LT DUP3 EQ PUSH2 0x8E6 JUMPI POP DUP5 DUP9 MSTORE SWAP1 DUP2 ISZERO PUSH2 0x8C4 JUMPI POP PUSH1 0x1 EQ PUSH2 0x11EA JUMPI PUSH2 0x867 DUP7 DUP7 PUSH2 0x85D DUP3 DUP12 SUB DUP4 PUSH2 0x127E JUMP JUMPDEST SWAP3 SWAP6 POP DUP1 DUP4 MSTORE PUSH32 0xB10E2D527612073B26EECDFD717E6A320CF44B4AFAC2B0732D9FCBE2B7FA0CF6 JUMPDEST DUP3 DUP5 LT PUSH2 0x122F JUMPI POP POP POP DUP3 PUSH2 0x867 SWAP5 PUSH2 0x85D SWAP3 DUP3 ADD ADD SWAP5 CODESIZE PUSH2 0x84C JUMP JUMPDEST DUP1 SLOAD DUP7 DUP6 ADD DUP9 ADD MSTORE SWAP3 DUP7 ADD SWAP3 DUP2 ADD PUSH2 0x1212 JUMP JUMPDEST SWAP4 PUSH1 0x7F AND SWAP4 PUSH2 0x11BA JUMP JUMPDEST PUSH1 0x80 DUP2 ADD SWAP1 DUP2 LT PUSH8 0xFFFFFFFFFFFFFFFF DUP3 GT OR PUSH2 0x1268 JUMPI PUSH1 0x40 MSTORE JUMP JUMPDEST PUSH4 0x4E487B71 PUSH1 0xE0 SHL PUSH1 0x0 MSTORE PUSH1 0x41 PUSH1 0x4 MSTORE PUSH1 0x24 PUSH1 0x0 REVERT JUMPDEST SWAP1 PUSH1 0x1F DUP1 NOT SWAP2 ADD AND DUP2 ADD SWAP1 DUP2 LT PUSH8 0xFFFFFFFFFFFFFFFF DUP3 GT OR PUSH2 0x1268 JUMPI PUSH1 0x40 MSTORE JUMP JUMPDEST PUSH1 0x20 DUP1 DUP3 MSTORE DUP3 MLOAD DUP2 DUP4 ADD DUP2 SWAP1 MSTORE SWAP1 SWAP4 SWAP3 PUSH1 0x0 JUMPDEST DUP3 DUP2 LT PUSH2 0x12D5 JUMPI POP POP PUSH1 0x40 SWAP3 SWAP4 POP PUSH1 0x0 DUP4 DUP3 DUP5 ADD ADD MSTORE PUSH1 0x1F DUP1 NOT SWAP2 ADD AND ADD ADD SWAP1 JUMP JUMPDEST DUP2 DUP2 ADD DUP7 ADD MLOAD DUP5 DUP3 ADD PUSH1 0x40 ADD MSTORE DUP6 ADD PUSH2 0x12B3 JUMP JUMPDEST PUSH1 0x4 CALLDATALOAD SWAP1 PUSH1 0x1 PUSH1 0x1 PUSH1 0xA0 SHL SUB DUP3 AND DUP3 SUB PUSH2 0x12FF JUMPI JUMP JUMPDEST PUSH1 0x0 DUP1 REVERT JUMPDEST PUSH1 0x24 CALLDATALOAD SWAP1 PUSH1 0x1 PUSH1 0x1 PUSH1 0xA0 SHL SUB DUP3 AND DUP3 SUB PUSH2 0x12FF JUMPI JUMP JUMPDEST PUSH1 0x4 CALLDATALOAD SWAP1 PUSH2 0xFFFF DUP3 AND DUP3 SUB PUSH2 0x12FF JUMPI JUMP JUMPDEST PUSH1 0x24 CALLDATALOAD SWAP1 PUSH2 0xFFFF DUP3 AND DUP3 SUB PUSH2 0x12FF JUMPI JUMP JUMPDEST PUSH1 0x44 CALLDATALOAD SWAP1 PUSH2 0xFFFF DUP3 AND DUP3 SUB PUSH2 0x12FF JUMPI JUMP JUMPDEST PUSH1 0x44 CALLDATALOAD SWAP1 DUP2 ISZERO ISZERO DUP3 SUB PUSH2 0x12FF JUMPI JUMP JUMPDEST ISZERO PUSH2 0x1363 JUMPI JUMP JUMPDEST PUSH1 0x40 MLOAD PUSH3 0x461BCD PUSH1 0xE5 SHL DUP2 MSTORE PUSH1 0x20 PUSH1 0x4 DUP3 ADD MSTORE PUSH1 0x12 PUSH1 0x24 DUP3 ADD MSTORE PUSH18 0x27BBB730B136329D103737BA1037BBB732B9 PUSH1 0x71 SHL PUSH1 0x44 DUP3 ADD MSTORE PUSH1 0x64 SWAP1 REVERT JUMPDEST SWAP1 DUP2 PUSH1 0x20 SWAP2 SUB SLT PUSH2 0x12FF JUMPI MLOAD PUSH1 0x1 PUSH1 0x1 PUSH1 0xA0 SHL SUB DUP2 AND DUP2 SUB PUSH2 0x12FF JUMPI SWAP1 JUMP JUMPDEST ISZERO PUSH2 0x13C3 JUMPI JUMP JUMPDEST PUSH1 0x40 MLOAD PUSH3 0x461BCD PUSH1 0xE5 SHL DUP2 MSTORE PUSH1 0x20 PUSH1 0x4 DUP3 ADD MSTORE PUSH1 0x13 PUSH1 0x24 DUP3 ADD MSTORE PUSH19 0x45524332303A207A65726F2061646472657373 PUSH1 0x68 SHL PUSH1 0x44 DUP3 ADD MSTORE PUSH1 0x64 SWAP1 REVERT JUMPDEST SWAP1 SWAP2 PUSH1 0x1 PUSH1 0x1 PUSH1 0xA0 SHL SUB SWAP2 DUP3 AND SWAP2 PUSH32 0x8C5BE1E5EBEC7D5BD14F71427D1E84F3DD0314C0F7B2291E5B200AC8C7C3B925 SWAP2 PUSH1 0x20 SWAP2 DUP5 ISZERO ISZERO DUP1 PUSH2 0x1469 JUMPI JUMPDEST PUSH2 0x1443 SWAP1 PUSH2 0x13BC JUMP JUMPDEST DUP5 PUSH1 0x0 MSTORE PUSH1 0x6 DUP4 MSTORE PUSH1 0x40 PUSH1 0x0 KECCAK256 SWAP6 AND SWAP5 DUP6 PUSH1 0x0 MSTORE DUP3 MSTORE DUP1 PUSH1 0x40 PUSH1 0x0 KECCAK256 SSTORE PUSH1 0x40 MLOAD SWAP1 DUP2 MSTORE LOG3 JUMP JUMPDEST POP DUP6 DUP2 AND ISZERO ISZERO PUSH2 0x143A JUMP JUMPDEST SWAP2 SWAP1 DUP3 ADD DUP1 SWAP3 GT PUSH2 0x1481 JUMPI JUMP JUMPDEST PUSH4 0x4E487B71 PUSH1 0xE0 SHL PUSH1 0x0 MSTORE PUSH1 0x11 PUSH1 0x4 MSTORE PUSH1 0x24 PUSH1 0x0 REVERT JUMPDEST DUP2 DUP2 MUL SWAP3 SWAP2 DUP2 ISZERO SWAP2 DUP5 DIV EQ OR ISZERO PUSH2 0x1481 JUMPI JUMP JUMPDEST DUP2 ISZERO PUSH2 0x14B4 JUMPI DIV SWAP1 JUMP JUMPDEST PUSH4 0x4E487B71 PUSH1 0xE0 SHL PUSH1 0x0 MSTORE PUSH1 0x12 PUSH1 0x4 MSTORE PUSH1 0x24 PUSH1 0x0 REVERT JUMPDEST SWAP2 SWAP1 DUP3 SUB SWAP2 DUP3 GT PUSH2 0x1481 JUMPI JUMP JUMPDEST SWAP2 SWAP3 SWAP2 PUSH1 0x1 PUSH1 0x1 PUSH1 0xA0 SHL SUB SWAP1 DUP2 AND SWAP1 DUP2 ISZERO ISZERO DUP1 PUSH2 0x1B0B JUMPI JUMPDEST PUSH2 0x14F8 SWAP1 PUSH2 0x13BC JUMP JUMPDEST PUSH1 0x0 DUP3 DUP2 MSTORE PUSH1 0x20 SWAP2 PUSH1 0x16 DUP4 MSTORE PUSH1 0xFF SWAP2 PUSH1 0x40 SWAP1 DUP4 DUP3 DUP3 KECCAK256 SLOAD AND ISZERO DUP1 PUSH2 0x1AF9 JUMPI JUMPDEST ISZERO PUSH2 0x1AC7 JUMPI PUSH1 0x10 SLOAD DUP1 ISZERO ISZERO DUP1 PUSH2 0x1AA4 JUMPI JUMPDEST PUSH2 0x1A5F JUMPI JUMPDEST POP DUP4 PUSH1 0x7 SLOAD AND SWAP3 DUP4 ISZERO PUSH2 0x19FC JUMPI JUMPDEST DUP1 PUSH1 0x9 SLOAD AND SWAP10 DUP11 DUP9 EQ SWAP9 DUP10 PUSH2 0x19EB JUMPI JUMPDEST DUP3 AND SWAP9 DUP12 DUP11 EQ SWAP6 DUP1 PUSH2 0x19E0 JUMPI JUMPDEST DUP1 PUSH2 0x19D9 JUMPI JUMPDEST DUP1 PUSH2 0x19C5 JUMPI JUMPDEST PUSH2 0x1961 JUMPI JUMPDEST DUP9 DUP5 MSTORE PUSH1 0x18 DUP9 MSTORE DUP7 DUP6 DUP6 KECCAK256 SLOAD AND ISZERO DUP1 PUSH2 0x1951 JUMPI JUMPDEST PUSH2 0x1878 JUMPI JUMPDEST DUP9 DUP5 MSTORE PUSH1 0x5 SWAP7 DUP8 DUP10 MSTORE DUP6 DUP6 KECCAK256 SLOAD SWAP4 DUP4 DUP6 LT PUSH2 0x1834 JUMPI PUSH32 0xDDF252AD1BE2C89B69C2B068FC378DAA952BA7F163C4A11628F55A4DF523B3EF SWAP11 SWAP12 SWAP13 SWAP14 PUSH1 0xF SLOAD SWAP2 DUP4 DUP4 AND ISZERO SWAP2 DUP3 PUSH2 0x1825 JUMPI JUMPDEST DUP3 PUSH2 0x181D JUMPI JUMPDEST DUP3 PUSH2 0x1813 JUMPI JUMPDEST POP DUP2 PUSH2 0x1805 JUMPI JUMPDEST POP DUP1 PUSH2 0x17FA JUMPI JUMPDEST DUP1 PUSH2 0x17E5 JUMPI JUMPDEST PUSH2 0x17C4 JUMPI JUMPDEST POP DUP3 SWAP7 DUP2 PUSH1 0xF SLOAD AND ISZERO SWAP2 DUP3 PUSH2 0x17AF JUMPI JUMPDEST DUP3 PUSH2 0x179A JUMPI JUMPDEST POP DUP2 PUSH2 0x1781 JUMPI JUMPDEST POP PUSH2 0x163C JUMPI JUMPDEST POP POP SWAP3 DUP3 SWAP4 DUP2 SWAP6 DUP10 DUP5 MSTORE DUP8 MSTORE SUB DUP3 DUP3 KECCAK256 SSTORE DUP8 DUP2 MSTORE KECCAK256 PUSH2 0x1633 DUP4 DUP3 SLOAD PUSH2 0x1474 JUMP JUMPDEST SWAP1 SSTORE MLOAD SWAP1 DUP2 MSTORE LOG3 JUMP JUMPDEST ISZERO PUSH2 0x1778 JUMPI DUP7 PUSH1 0xB SWAP2 JUMPDEST DUP6 MLOAD SWAP3 PUSH2 0x1652 DUP5 PUSH2 0x124C JUMP JUMPDEST SLOAD SWAP3 PUSH1 0x60 PUSH2 0xFFFF DUP6 DUP2 DUP1 SWAP8 AND DUP5 MSTORE DUP2 DUP2 PUSH1 0x10 SHR AND DUP7 DUP6 ADD MSTORE DUP2 DUP2 DUP12 DUP7 ADD SWAP8 SHR AND DUP7 MSTORE PUSH1 0x30 SHR AND SWAP2 ADD SWAP1 DUP1 DUP3 MSTORE DUP1 PUSH2 0x168C JUMPI JUMPDEST POP POP POP PUSH2 0x1613 JUMP JUMPDEST PUSH2 0x1699 PUSH2 0x2710 SWAP2 DUP5 PUSH2 0x1497 JUMP JUMPDEST DIV SWAP2 DUP3 ISZERO PUSH2 0x1684 JUMPI DUP8 SWAP9 POP SWAP1 DUP5 PUSH2 0x16C6 PUSH2 0x16BB DUP6 PUSH2 0x16CF SWAP6 SWAP14 SWAP8 SWAP10 SWAP9 SWAP14 PUSH2 0x14CA JUMP JUMPDEST SWAP12 DUP13 SWAP9 MLOAD AND DUP6 PUSH2 0x1497 JUMP JUMPDEST SWAP2 MLOAD AND SWAP1 PUSH2 0x14AA JUMP JUMPDEST DUP1 PUSH2 0x172B JUMPI JUMPDEST POP DUP1 PUSH2 0x16E6 JUMPI JUMPDEST DUP2 SWAP8 SWAP7 DUP4 SWAP5 PUSH2 0x1684 JUMP JUMPDEST SWAP1 SWAP2 DUP2 PUSH2 0x16F2 SWAP2 PUSH2 0x14CA JUMP JUMPDEST DUP11 DUP6 MSTORE DUP3 DUP10 MSTORE DUP6 DUP6 KECCAK256 SSTORE ADDRESS DUP5 MSTORE DUP5 DUP5 KECCAK256 PUSH2 0x170D DUP3 DUP3 SLOAD PUSH2 0x1474 JUMP JUMPDEST SWAP1 SSTORE DUP5 MLOAD SWAP1 DUP2 MSTORE DUP10 DUP10 DUP10 ADDRESS SWAP4 LOG3 DUP9 DUP4 MSTORE DUP1 DUP8 MSTORE DUP4 DUP4 KECCAK256 SLOAD SWAP1 CODESIZE PUSH2 0x16DC JUMP JUMPDEST PUSH2 0x1739 DUP2 PUSH2 0x1772 SWAP4 SWAP6 PUSH2 0x14CA JUMP JUMPDEST DUP13 DUP8 MSTORE DUP4 DUP12 MSTORE DUP8 DUP8 KECCAK256 SSTORE PUSH2 0xDEAD DUP1 DUP8 MSTORE DUP8 DUP8 KECCAK256 PUSH2 0x1757 DUP4 DUP3 SLOAD PUSH2 0x1474 JUMP JUMPDEST SWAP1 SSTORE DUP13 DUP13 DUP13 DUP11 MLOAD DUP6 DUP2 MSTORE LOG3 DUP12 DUP7 MSTORE DUP3 DUP11 MSTORE DUP7 DUP7 KECCAK256 SLOAD SWAP4 PUSH2 0x14CA JUMP JUMPDEST CODESIZE PUSH2 0x16D5 JUMP JUMPDEST DUP7 PUSH1 0xC SWAP2 PUSH2 0x1646 JUMP JUMPDEST DUP3 SWAP2 POP DUP2 ISZERO PUSH2 0x1792 JUMPI JUMPDEST POP CODESIZE PUSH2 0x160D JUMP JUMPDEST SWAP1 POP CODESIZE PUSH2 0x178B JUMP JUMPDEST DUP14 DUP8 MSTORE PUSH1 0x17 DUP12 MSTORE DUP8 DUP8 KECCAK256 SLOAD AND ISZERO SWAP2 POP CODESIZE PUSH2 0x1606 JUMP JUMPDEST DUP13 DUP8 MSTORE PUSH1 0x17 DUP12 MSTORE DUP8 DUP8 KECCAK256 SLOAD DUP2 AND ISZERO SWAP3 POP PUSH2 0x1600 JUMP JUMPDEST PUSH1 0xFF NOT SWAP1 DUP2 AND PUSH1 0x1 OR PUSH1 0xF SSTORE PUSH2 0x17D8 PUSH2 0x1BD6 JUMP JUMPDEST PUSH1 0xF SLOAD AND PUSH1 0xF SSTORE CODESIZE PUSH2 0x15F0 JUMP JUMPDEST POP ADDRESS DUP7 MSTORE DUP9 DUP11 MSTORE DUP7 DUP7 KECCAK256 SLOAD PUSH1 0xE SLOAD GT ISZERO PUSH2 0x15EB JUMP JUMPDEST POP PUSH1 0xE SLOAD ISZERO ISZERO PUSH2 0x15E5 JUMP JUMPDEST SWAP1 POP PUSH1 0xA SLOAD AND ISZERO ISZERO CODESIZE PUSH2 0x15DE JUMP JUMPDEST ISZERO ISZERO SWAP2 POP CODESIZE PUSH2 0x15D7 JUMP JUMPDEST DUP11 SWAP3 POP PUSH2 0x15D1 JUMP JUMPDEST PUSH1 0xD SLOAD PUSH1 0xA0 SHR DUP6 AND SWAP3 POP PUSH2 0x15CB JUMP JUMPDEST DUP7 MLOAD PUSH3 0x461BCD PUSH1 0xE5 SHL DUP2 MSTORE PUSH1 0x4 DUP2 ADD DUP12 SWAP1 MSTORE PUSH1 0x1F PUSH1 0x24 DUP3 ADD MSTORE PUSH32 0x45524332303A207472616E7366657220657863656564732062616C616E636500 PUSH1 0x44 DUP3 ADD MSTORE PUSH1 0x64 SWAP1 REVERT JUMPDEST PUSH1 0x13 SLOAD DUP1 ISZERO ISZERO DUP1 PUSH2 0x1943 JUMPI JUMPDEST PUSH2 0x1901 JUMPI JUMPDEST POP PUSH1 0x14 SLOAD DUP1 ISZERO ISZERO DUP1 PUSH2 0x18FA JUMPI JUMPDEST PUSH2 0x18A1 JUMPI JUMPDEST POP PUSH2 0x1582 JUMP JUMPDEST DUP11 DUP6 MSTORE PUSH1 0x5 DUP10 MSTORE PUSH2 0x18B5 DUP4 DUP8 DUP8 KECCAK256 SLOAD PUSH2 0x1474 JUMP JUMPDEST GT PUSH2 0x18C0 JUMPI CODESIZE PUSH2 0x189B JUMP JUMPDEST DUP5 MLOAD PUSH3 0x461BCD PUSH1 0xE5 SHL DUP2 MSTORE PUSH1 0x4 DUP2 ADD DUP10 SWAP1 MSTORE PUSH1 0x13 PUSH1 0x24 DUP3 ADD MSTORE PUSH19 0x13585E081DD85B1B195D08195E18D959591959 PUSH1 0x6A SHL PUSH1 0x44 DUP3 ADD MSTORE PUSH1 0x64 SWAP1 REVERT JUMPDEST POP DUP2 PUSH2 0x1896 JUMP JUMPDEST DUP3 GT PUSH2 0x190D JUMPI CODESIZE PUSH2 0x1889 JUMP JUMPDEST DUP5 MLOAD PUSH3 0x461BCD PUSH1 0xE5 SHL DUP2 MSTORE PUSH1 0x4 DUP2 ADD DUP10 SWAP1 MSTORE PUSH1 0xF PUSH1 0x24 DUP3 ADD MSTORE PUSH15 0x13585E081D1E08195E18D959591959 PUSH1 0x8A SHL PUSH1 0x44 DUP3 ADD MSTORE PUSH1 0x64 SWAP1 REVERT JUMPDEST POP DUP2 DUP3 PUSH2 0x1884 JUMPI POP DUP7 PUSH2 0x1884 JUMP JUMPDEST POP DUP10 DUP5 MSTORE DUP7 DUP6 DUP6 KECCAK256 SLOAD AND ISZERO PUSH2 0x157D JUMP JUMPDEST PUSH2 0x1970 PUSH1 0x8 SLOAD PUSH1 0x11 SLOAD SWAP1 PUSH2 0x1474 JUMP JUMPDEST NUMBER LT ISZERO PUSH2 0x1569 JUMPI DUP7 PUSH1 0x12 SLOAD AND ISZERO PUSH2 0x1569 JUMPI DUP5 MLOAD PUSH3 0x461BCD PUSH1 0xE5 SHL DUP2 MSTORE PUSH1 0x4 DUP2 ADD DUP10 SWAP1 MSTORE PUSH1 0x1A PUSH1 0x24 DUP3 ADD MSTORE PUSH32 0x416E7469426F743A206561726C792062757920626C6F636B6564000000000000 PUSH1 0x44 DUP3 ADD MSTORE PUSH1 0x64 SWAP1 REVERT JUMPDEST POP DUP10 DUP5 MSTORE PUSH1 0x15 DUP9 MSTORE DUP7 DUP6 DUP6 KECCAK256 SLOAD AND ISZERO PUSH2 0x1564 JUMP JUMPDEST POP DUP1 PUSH2 0x155E JUMP JUMPDEST POP PUSH1 0x11 SLOAD ISZERO ISZERO PUSH2 0x1558 JUMP JUMPDEST PUSH1 0xA SLOAD DUP4 AND DUP2 DUP5 AND EQ ISZERO SWAP10 POP PUSH2 0x154B JUMP JUMPDEST DUP7 DUP3 MSTORE PUSH1 0x15 DUP7 MSTORE DUP5 DUP4 DUP4 KECCAK256 SLOAD AND DUP1 ISZERO PUSH2 0x1A4E JUMPI JUMPDEST PUSH2 0x153B JUMPI DUP3 MLOAD PUSH3 0x461BCD PUSH1 0xE5 SHL DUP2 MSTORE PUSH1 0x4 DUP2 ADD DUP8 SWAP1 MSTORE PUSH1 0x13 PUSH1 0x24 DUP3 ADD MSTORE PUSH19 0x151C98591A5B99C81B9BDD08195B98589B1959 PUSH1 0x6A SHL PUSH1 0x44 DUP3 ADD MSTORE PUSH1 0x64 SWAP1 REVERT JUMPDEST POP DUP1 DUP9 AND DUP3 MSTORE DUP5 DUP4 DUP4 KECCAK256 SLOAD AND PUSH2 0x1A10 JUMP JUMPDEST GASPRICE GT PUSH2 0x1A6B JUMPI CODESIZE PUSH2 0x152D JUMP JUMPDEST DUP2 MLOAD PUSH3 0x461BCD PUSH1 0xE5 SHL DUP2 MSTORE PUSH1 0x4 DUP2 ADD DUP7 SWAP1 MSTORE PUSH1 0x12 PUSH1 0x24 DUP3 ADD MSTORE PUSH18 0x8EC2E640E0E4D2C6CA40E8DEDE40D0D2CED PUSH1 0x73 SHL PUSH1 0x44 DUP3 ADD MSTORE PUSH1 0x64 SWAP1 REVERT JUMPDEST POP DUP4 PUSH1 0x9 SLOAD AND DUP1 DUP9 EQ SWAP1 DUP2 ISZERO PUSH2 0x1ABB JUMPI JUMPDEST POP PUSH2 0x1528 JUMP JUMPDEST SWAP1 POP DUP5 DUP10 AND EQ CODESIZE PUSH2 0x1AB5 JUMP JUMPDEST DUP2 MLOAD PUSH3 0x461BCD PUSH1 0xE5 SHL DUP2 MSTORE PUSH1 0x4 DUP2 ADD DUP7 SWAP1 MSTORE PUSH1 0xB PUSH1 0x24 DUP3 ADD MSTORE PUSH11 0x109B1858DADB1A5CDD1959 PUSH1 0xAA SHL PUSH1 0x44 DUP3 ADD MSTORE PUSH1 0x64 SWAP1 REVERT JUMPDEST POP DUP3 DUP8 AND DUP2 MSTORE DUP4 DUP3 DUP3 KECCAK256 SLOAD AND ISZERO PUSH2 0x1517 JUMP JUMPDEST POP DUP3 DUP2 AND ISZERO ISZERO PUSH2 0x14EF JUMP JUMPDEST SWAP2 SWAP1 SWAP2 PUSH2 0xFFFF DUP1 DUP1 SWAP5 AND SWAP2 AND ADD SWAP2 DUP3 GT PUSH2 0x1481 JUMPI JUMP JUMPDEST SWAP2 PUSH1 0x0 PUSH1 0x60 PUSH1 0x40 MLOAD PUSH2 0x1B3D DUP2 PUSH2 0x124C JUMP JUMPDEST DUP3 DUP2 MSTORE DUP3 PUSH1 0x20 DUP3 ADD MSTORE DUP3 PUSH1 0x40 DUP3 ADD MSTORE ADD MSTORE PUSH2 0xFFFF SWAP1 DUP2 PUSH2 0x1B66 DUP3 PUSH2 0x1B61 DUP7 DUP9 PUSH2 0x1B16 JUMP JUMPDEST PUSH2 0x1B16 JUMP JUMPDEST AND SWAP3 PUSH2 0x7D0 DUP5 GT PUSH2 0x1B98 JUMPI DUP3 SWAP1 DUP2 PUSH1 0x40 MLOAD SWAP7 PUSH2 0x1B81 DUP9 PUSH2 0x124C JUMP JUMPDEST AND DUP7 MSTORE AND PUSH1 0x20 DUP6 ADD MSTORE AND PUSH1 0x40 DUP4 ADD MSTORE PUSH1 0x60 DUP3 ADD MSTORE SWAP1 JUMP JUMPDEST PUSH1 0x40 MLOAD PUSH3 0x461BCD PUSH1 0xE5 SHL DUP2 MSTORE PUSH1 0x20 PUSH1 0x4 DUP3 ADD MSTORE PUSH1 0x16 PUSH1 0x24 DUP3 ADD MSTORE PUSH22 0x46656520746F6F206869676820286D61782032302529 PUSH1 0x50 SHL PUSH1 0x44 DUP3 ADD MSTORE PUSH1 0x64 SWAP1 REVERT JUMPDEST PUSH1 0x0 ADDRESS DUP2 MSTORE PUSH1 0x5 PUSH1 0x20 MSTORE PUSH1 0x40 DUP2 KECCAK256 SLOAD DUP1 ISZERO PUSH2 0x1FD5 JUMPI PUSH1 0xA SLOAD PUSH1 0x1 PUSH1 0x1 PUSH1 0xA0 SHL SUB AND DUP1 ISZERO PUSH2 0x1FD0 JUMPI PUSH1 0x9 SLOAD PUSH1 0x1 PUSH1 0x1 PUSH1 0xA0 SHL SUB AND ISZERO PUSH2 0x1FD0 JUMPI PUSH1 0xC SLOAD PUSH2 0xFFFF DUP1 DUP3 PUSH1 0x30 SHR AND DUP1 ISZERO PUSH2 0x1EFE JUMPI PUSH2 0x1C35 PUSH2 0x1C3A SWAP3 PUSH2 0x1C41 SWAP5 PUSH1 0x10 SHR AND DUP7 PUSH2 0x1497 JUMP JUMPDEST PUSH2 0x14AA JUMP JUMPDEST DUP1 SWAP4 PUSH2 0x14CA JUMP JUMPDEST SWAP2 PUSH2 0x1C63 PUSH2 0x1C5B PUSH2 0x1C55 DUP4 PUSH1 0x1 SHR DUP5 PUSH2 0x14CA JUMP JUMPDEST DUP6 PUSH2 0x1474 JUMP JUMPDEST DUP1 SWAP4 ADDRESS PUSH2 0x13FE JUMP JUMPDEST PUSH1 0x40 MLOAD SWAP2 SELFBALANCE PUSH1 0x60 DUP5 ADD PUSH8 0xFFFFFFFFFFFFFFFF DUP2 GT DUP6 DUP3 LT OR PUSH2 0x1FBC JUMPI PUSH1 0x40 MSTORE PUSH1 0x2 DUP5 MSTORE PUSH1 0x20 DUP5 ADD SWAP4 PUSH1 0x40 CALLDATASIZE DUP7 CALLDATACOPY DUP1 MLOAD ISZERO PUSH2 0x1FA8 JUMPI ADDRESS DUP6 MSTORE PUSH1 0xA SLOAD PUSH1 0x40 MLOAD PUSH4 0x15AB88C9 PUSH1 0xE3 SHL DUP2 MSTORE PUSH1 0x4 SWAP7 PUSH1 0x1 PUSH1 0x1 PUSH1 0xA0 SHL SUB SWAP1 SWAP3 AND SWAP2 SWAP1 PUSH1 0x20 DUP2 DUP10 DUP2 DUP7 GAS STATICCALL SWAP1 DUP2 ISZERO PUSH2 0x1F9D JUMPI DUP11 SWAP2 PUSH2 0x1F7E JUMPI JUMPDEST POP DUP4 MLOAD PUSH1 0x1 LT ISZERO PUSH2 0x1F6B JUMPI PUSH1 0x1 PUSH1 0x1 PUSH1 0xA0 SHL SUB AND PUSH1 0x40 DUP5 ADD MSTORE DUP2 EXTCODESIZE ISZERO PUSH2 0x1F67 JUMPI SWAP2 DUP9 SWAP2 PUSH1 0x40 MLOAD SWAP4 DUP5 SWAP3 PUSH4 0x791AC947 PUSH1 0xE0 SHL DUP5 MSTORE PUSH1 0xA4 DUP5 ADD SWAP1 DUP9 DUP12 DUP7 ADD MSTORE DUP6 PUSH1 0x24 DUP7 ADD MSTORE PUSH1 0xA0 PUSH1 0x44 DUP7 ADD MSTORE MLOAD DUP1 SWAP2 MSTORE PUSH1 0xC4 DUP5 ADD SWAP2 SWAP1 DUP6 JUMPDEST DUP2 DUP2 LT PUSH2 0x1F42 JUMPI POP POP POP DUP4 DUP4 DUP1 SWAP3 ADDRESS PUSH1 0x64 DUP4 ADD MSTORE TIMESTAMP PUSH1 0x84 DUP4 ADD MSTORE SUB SWAP3 GAS CALL DUP1 ISZERO PUSH2 0x1F37 JUMPI PUSH2 0x1F06 JUMPI JUMPDEST POP PUSH2 0x1D5A SWAP1 SELFBALANCE PUSH2 0x14CA JUMP JUMPDEST DUP1 ISZERO PUSH2 0x1EFE JUMPI DUP6 SWAP2 DUP3 SWAP6 DUP2 PUSH2 0x1EE2 JUMPI JUMPDEST POP POP DUP5 PUSH2 0x1D76 SWAP2 PUSH2 0x14CA JUMP JUMPDEST SWAP4 DUP1 ISZERO ISZERO DUP1 PUSH2 0x1ECE JUMPI JUMPDEST PUSH2 0x1E61 JUMPI JUMPDEST POP POP DUP1 PUSH1 0x1 SHR ISZERO ISZERO DUP1 PUSH2 0x1E58 JUMPI JUMPDEST PUSH2 0x1D9E JUMPI JUMPDEST POP POP POP POP JUMP JUMPDEST PUSH1 0xC4 PUSH1 0x60 SWAP3 PUSH2 0x1DBB DUP4 PUSH1 0x1 SHR PUSH1 0x1 DUP1 PUSH1 0xA0 SHL SUB PUSH1 0xA SLOAD AND ADDRESS PUSH2 0x13FE JUMP JUMPDEST PUSH1 0xA SLOAD DUP7 SLOAD PUSH1 0x40 MLOAD PUSH4 0xF305D719 PUSH1 0xE0 SHL DUP2 MSTORE ADDRESS SWAP4 DUP2 ADD SWAP4 SWAP1 SWAP4 MSTORE PUSH1 0x1 SWAP5 SWAP1 SWAP5 SHR PUSH1 0x24 DUP4 ADD MSTORE PUSH1 0x44 DUP3 ADD DUP8 SWAP1 MSTORE PUSH1 0x64 DUP3 ADD DUP8 SWAP1 MSTORE PUSH1 0x1 PUSH1 0x1 PUSH1 0xA0 SHL SUB SWAP4 DUP5 AND PUSH1 0x84 DUP4 ADD MSTORE TIMESTAMP PUSH1 0xA4 DUP4 ADD MSTORE SWAP1 SWAP5 DUP6 SWAP4 DUP5 SWAP3 AND GAS CALL DUP1 ISZERO PUSH2 0x1E4D JUMPI PUSH2 0x1E1F JUMPI JUMPDEST DUP1 DUP1 PUSH2 0x1D98 JUMP JUMPDEST PUSH1 0x60 SWAP1 DUP2 RETURNDATASIZE DUP2 GT PUSH2 0x1E46 JUMPI JUMPDEST PUSH2 0x1E35 DUP2 DUP4 PUSH2 0x127E JUMP JUMPDEST DUP2 ADD SUB SLT PUSH2 0x1E43 JUMPI DUP1 PUSH2 0x1E18 JUMP JUMPDEST DUP1 REVERT JUMPDEST POP RETURNDATASIZE PUSH2 0x1E2B JUMP JUMPDEST PUSH1 0x40 MLOAD RETURNDATASIZE DUP5 DUP3 RETURNDATACOPY RETURNDATASIZE SWAP1 REVERT JUMPDEST POP DUP3 ISZERO ISZERO PUSH2 0x1D93 JUMP JUMPDEST PUSH1 0xD SLOAD DUP3 SWAP2 DUP3 SWAP2 DUP3 SWAP2 SWAP1 PUSH1 0x1 PUSH1 0x1 PUSH1 0xA0 SHL SUB AND GAS CALL POP RETURNDATASIZE ISZERO PUSH2 0x1EC9 JUMPI RETURNDATASIZE PUSH8 0xFFFFFFFFFFFFFFFF DUP2 GT PUSH2 0x1EB6 JUMPI PUSH1 0x40 MLOAD SWAP1 PUSH2 0x1EA5 PUSH1 0x1F DUP3 ADD PUSH1 0x1F NOT AND PUSH1 0x20 ADD DUP4 PUSH2 0x127E JUMP JUMPDEST DUP2 MSTORE DUP5 PUSH1 0x20 RETURNDATASIZE SWAP3 ADD RETURNDATACOPY JUMPDEST DUP4 CODESIZE PUSH2 0x1D85 JUMP JUMPDEST PUSH4 0x4E487B71 PUSH1 0xE0 SHL DUP6 MSTORE PUSH1 0x41 DUP4 MSTORE PUSH1 0x24 DUP6 REVERT JUMPDEST PUSH2 0x1EAF JUMP JUMPDEST POP PUSH1 0xD SLOAD PUSH1 0x1 PUSH1 0x1 PUSH1 0xA0 SHL SUB AND ISZERO ISZERO PUSH2 0x1D80 JUMP JUMPDEST DUP3 SWAP7 POP SWAP1 PUSH2 0x1C35 PUSH2 0x1EF6 SWAP3 PUSH2 0x1D76 SWAP5 PUSH2 0x1497 JUMP JUMPDEST SWAP5 SWAP1 CODESIZE PUSH2 0x1D6A JUMP JUMPDEST POP POP POP POP POP POP JUMP JUMPDEST PUSH8 0xFFFFFFFFFFFFFFFF DUP2 SWAP8 SWAP3 SWAP8 GT PUSH2 0x1F24 JUMPI PUSH1 0x40 MSTORE SWAP5 PUSH2 0x1D5A PUSH2 0x1D4F JUMP JUMPDEST PUSH4 0x4E487B71 PUSH1 0xE0 SHL DUP3 MSTORE PUSH1 0x41 DUP6 MSTORE PUSH1 0x24 DUP3 REVERT JUMPDEST PUSH1 0x40 MLOAD RETURNDATASIZE DUP10 DUP3 RETURNDATACOPY RETURNDATASIZE SWAP1 REVERT JUMPDEST DUP3 MLOAD PUSH1 0x1 PUSH1 0x1 PUSH1 0xA0 SHL SUB AND DUP5 MSTORE DUP14 SWAP7 POP DUP8 SWAP6 POP PUSH1 0x20 SWAP4 DUP5 ADD SWAP4 SWAP1 SWAP3 ADD SWAP2 PUSH1 0x1 ADD PUSH2 0x1D26 JUMP JUMPDEST DUP9 DUP1 REVERT JUMPDEST PUSH4 0x4E487B71 PUSH1 0xE0 SHL DUP11 MSTORE PUSH1 0x32 DUP9 MSTORE PUSH1 0x24 DUP11 REVERT JUMPDEST PUSH2 0x1F97 SWAP2 POP PUSH1 0x20 RETURNDATASIZE PUSH1 0x20 GT PUSH2 0x679 JUMPI PUSH2 0x66B DUP2 DUP4 PUSH2 0x127E JUMP JUMPDEST CODESIZE PUSH2 0x1CD0 JUMP JUMPDEST PUSH1 0x40 MLOAD RETURNDATASIZE DUP13 DUP3 RETURNDATACOPY RETURNDATASIZE SWAP1 REVERT JUMPDEST PUSH4 0x4E487B71 PUSH1 0xE0 SHL DUP8 MSTORE PUSH1 0x32 PUSH1 0x4 MSTORE PUSH1 0x24 DUP8 REVERT JUMPDEST PUSH4 0x4E487B71 PUSH1 0xE0 SHL DUP8 MSTORE PUSH1 0x41 PUSH1 0x4 MSTORE PUSH1 0x24 DUP8 REVERT JUMPDEST POP POP POP JUMP JUMPDEST POP POP JUMP INVALID LOG2 PUSH5 0x6970667358 0x22 SLT KECCAK256 PUSH5 0x199EB12F7E 0x4F 0x1F CALLER DUP16 0xF6 SELFBALANCE 0xE 0xCB SAR DUP10 0x25 DUP16 0xAA PUSH26 0x6E669459EB9D82216DAC7B5464736F6C63430008140033DDF252 0xAD SHL 0xE2 0xC8 SWAP12 PUSH10 0xC2B068FC378DAA952BA7 CALL PUSH4 0xC4A11628 CREATE2 GAS 0x4D CREATE2 0x23 0xB3 0xEF "},"methodIdentifiers":{"BURN_ADDRESS()":"fccc2813","allowance(address,address)":"dd62ed3e","approve(address,uint256)":"095ea7b3","balanceOf(address)":"70a08231","buyFee()":"47062402","deadBlocks()":"fabb0b4f","decimals()":"313ce567","enableTrading()":"8a8c523c","isBlacklisted(address)":"fe575a87","isExcludedFromFees(address)":"4fbee193","isExcludedFromLimits(address)":"5cce86cd","isWhitelisted(address)":"3af32abf","launchBlock()":"d00efb2f","manualSwapBack()":"66eb3785","marketingWallet()":"75f0a874","maxGasPriceWei()":"ef3881c8","maxTxAmount()":"8c0b5e22","maxWalletAmount()":"aa4bde28","name()":"06fdde03","owner()":"8da5cb5b","revertEarlyBuys()":"2fc05806","sellFee()":"2b14ca56","setAddressFlags(address,bool,bool,bool,bool)":"92c818d6","setBuyFees(uint16,uint16,uint16)":"6951a079","setLimits(uint256,uint256,bool,uint256,uint256)":"9f52256b","setMarketingWallet(address)":"5d098b38","setRouter(address)":"c0d78655","setSellFees(uint16,uint16,uint16)":"fc6c2bda","setSwapSettings(bool,uint256)":"d0e10326","swapEnabled()":"6ddd1713","swapTokensAtAmount()":"e2f45605","symbol()":"95d89b41","totalSupply()":"18160ddd","tradingEnabled()":"4ada218b","transfer(address,uint256)":"a9059cbb","transferFrom(address,address,uint256)":"23b872dd","transferOwnership(address)":"f2fde38b","uniswapV2Pair()":"49bd5a5e","uniswapV2Router()":"1694505e"}}}}}